{
	"data": {
		"bytecode": {
			"linkReferences": {
				"remix_tests.sol": {
					"Assert": [
						{
							"length": 20,
							"start": 371
						},
						{
							"length": 20,
							"start": 824
						},
						{
							"length": 20,
							"start": 1012
						},
						{
							"length": 20,
							"start": 1330
						},
						{
							"length": 20,
							"start": 1676
						},
						{
							"length": 20,
							"start": 2080
						},
						{
							"length": 20,
							"start": 2538
						},
						{
							"length": 20,
							"start": 2855
						},
						{
							"length": 20,
							"start": 3251
						},
						{
							"length": 20,
							"start": 3891
						}
					]
				}
			},
			"object": "6080604052600180546001600160a01b0319166101231790553480156022575f80fd5b50612df9806100305f395ff3fe608060405234801561000f575f80fd5b5060043610610085575f3560e01c806395c4c59e1161005857806395c4c59e146100ab578063a77e7ac8146100b3578063b78d8f62146100bb578063d61c90da146100c3575f80fd5b8063011e64921461008957806318f128eb146100935780637b70af2d1461009b5780637fea0d4b146100a3575b5f80fd5b6100916100cb565b005b610091610282565b610091610332565b610091610427565b610091610561565b610091610687565b610091610854565b610091610b19565b5f805f9054906101000a90046001600160a01b03166001600160a01b03166318160ddd6040518163ffffffff1660e01b8152600401602060405180830381865afa15801561011b573d5f803e3d5ffd5b505050506040513d601f19601f8201168201806040525081019061013f9190610f76565b905073__$acbfb1c35000d78352310b16a054a6b106$__63abcd7960825f8054906101000a90046001600160a01b03166001600160a01b031663313ce5676040518163ffffffff1660e01b8152600401602060405180830381865afa1580156101aa573d5f803e3d5ffd5b505050506040513d601f19601f820116820180604052508101906101ce9190610f8d565b6101d990600a6110ad565b6101e690620f42406110bb565b6040516001600160e01b031960e085901b1681526004810192909252602482015260606044820152601960648201527f546f74616c20737570706c792073686f756c64206d6174636800000000000000608482015260a4015b602060405180830381865af415801561025a573d5f803e3d5ffd5b505050506040513d601f19601f8201168201806040525081019061027e91906110d2565b5050565b5f805f9054906101000a90046001600160a01b03166001600160a01b03166330f72cd46040518163ffffffff1660e01b8152600401602060405180830381865afa1580156102d2573d5f803e3d5ffd5b505050506040513d601f19601f820116820180604052508101906102f691906110d2565b60405163767392b360e01b815290915073__$acbfb1c35000d78352310b16a054a6b106$__9063767392b39061023f905f9085906004016110f1565b5f6283d6006002546103449190611138565b90505f62093a80826002546103599190611138565b610363919061114b565b60405163055e6bcb60e51b815260048101829052600e6024820181905260606044830152602260648301527f5468652063616c63756c61746564207765656b732073686f756c6420626520316084830152611a1760f11b60a483015291925073__$acbfb1c35000d78352310b16a054a6b106$__9063abcd79609060c4015b602060405180830381865af41580156103fd573d5f803e3d5ffd5b505050506040513d601f19601f8201168201806040525081019061042191906110d2565b50505050565b30620f424066038d7ea4c68000600a66071afd498d0000600560405161044c90610f69565b6001600160a01b039096168652602086019490945260408501929092526060840152608083015260a082015260c001604051809103905ff080158015610494573d5f803e3d5ffd5b505f80546001600160a01b0319166001600160a01b03929092169190911790554260025560405163055e6bcb60e51b81526001600482018190526024820152606060448201526016606482015275312073686f756c6420626520657175616c20746f203160501b608482015273__$acbfb1c35000d78352310b16a054a6b106$__9063abcd79609060a401602060405180830381865af415801561053a573d5f803e3d5ffd5b505050506040513d601f19601f8201168201806040525081019061055e91906110d2565b50565b5f60025462015180610573919061116a565b5f5460405163f9a81af760e01b81526004808201849052602482018190529293506001600160a01b039091169063f9a81af7906044015f604051808303815f87803b1580156105c0575f80fd5b505af11580156105d2573d5f803e3d5ffd5b505050505f805f9054906101000a90046001600160a01b03166001600160a01b03166330f72cd46040518163ffffffff1660e01b8152600401602060405180830381865afa158015610626573d5f803e3d5ffd5b505050506040513d601f19601f8201168201806040525081019061064a91906110d2565b60405163767392b360e01b815290915073__$acbfb1c35000d78352310b16a054a6b106$__9063767392b3906103e29060019085906004016110f1565b5f60025462015180610699919061116a565b5f5460405163f9a81af760e01b81526004808201849052602482018190529293506001600160a01b039091169063f9a81af7906044015f604051808303815f87803b1580156106e6575f80fd5b505af11580156106f8573d5f803e3d5ffd5b50505f805460408051600481526024810182526020810180516001600160e01b031663d348b40960e01b17905290519294508493506060926001600160a01b0390921691610746919061117d565b5f604051808303815f865af19150503d805f811461077f576040519150601f19603f3d011682016040523d82523d5f602084013e610784565b606091505b5060405163767392b360e01b815282151560048201525f602482015260606044820152602c60648201527f5072652d73616c6520686173206e6f742073746172746564207965742c20736860848201526b37bab632103932bb32b93a1760a11b60a4820152919350915073__$acbfb1c35000d78352310b16a054a6b106$__9063767392b39060c401602060405180830381865af4158015610828573d5f803e3d5ffd5b505050506040513d601f19601f8201168201806040525081019061084c91906110d2565b505050505050565b5f80546001546040516370a0823160e01b81526001600160a01b0391821660048201529116906370a0823190602401602060405180830381865afa15801561089e573d5f803e3d5ffd5b505050506040513d601f19601f820116820180604052508101906108c29190610f76565b5f805460408051600481526024810182526020810180516001600160e01b031663343faf9360e21b179052905193945091926001600160a01b0390911691670de0b6b3a764000091610914919061117d565b5f6040518083038185875af1925050503d805f811461094e576040519150601f19603f3d011682016040523d82523d5f602084013e610953565b606091505b505060405163767392b360e01b815281151560048201525f602482015260606044820152602860648201527f50726573616c65206e6f74206163746976652c2070757263686173652073686f6084820152671d5b190819985a5b60c21b60a482015290915073__$acbfb1c35000d78352310b16a054a6b106$__9063767392b39060c401602060405180830381865af41580156109f2573d5f803e3d5ffd5b505050506040513d601f19601f82011682018060405250810190610a1691906110d2565b505f80546001546040516370a0823160e01b81526001600160a01b0391821660048201529116906370a0823190602401602060405180830381865afa158015610a61573d5f803e3d5ffd5b505050506040513d601f19601f82011682018060405250810190610a859190610f76565b60405163055e6bcb60e51b8152600481018590526024810182905260606044820152603560648201527f42757965722062616c616e63652073686f756c64206e6f74206368616e6765206084820152746265666f72652070726573616c652073746172747360581b60a482015290915073__$acbfb1c35000d78352310b16a054a6b106$__9063abcd79609060c4016103e2565b5f6283d600600254610b2b9190611138565b5f5460405163f9a81af760e01b81526004808201849052602482018190529293506001600160a01b039091169063f9a81af7906044015f604051808303815f87803b158015610b78575f80fd5b505af1158015610b8a573d5f803e3d5ffd5b50505f805460408051600481526024810182526020810180516001600160e01b031663d348b40960e01b17905290519294508493506060926001600160a01b0390921691610bd8919061117d565b5f604051808303815f865af19150503d805f8114610c11576040519150601f19603f3d011682016040523d82523d5f602084013e610c16565b606091505b5060405163767392b360e01b815282151560048201526001602482015260606044820152602c60648201527f43616c6c20746f2063616c63756c61746550726963652073686f756c6420626560848201526b1039bab1b1b2b9b9b33ab61760a11b60a4820152919350915073__$acbfb1c35000d78352310b16a054a6b106$__9063767392b39060c401602060405180830381865af4158015610cbb573d5f803e3d5ffd5b505050506040513d601f19601f82011682018060405250810190610cdf91906110d2565b5080806020019051810190610cf49190610f76565b92505f62093a80610d058742611138565b610d0f919061114b565b90505f85825f8054906101000a90046001600160a01b03166001600160a01b0316631d0806ae6040518163ffffffff1660e01b8152600401602060405180830381865afa158015610d62573d5f803e3d5ffd5b505050506040513d601f19601f82011682018060405250810190610d869190610f76565b5f8054906101000a90046001600160a01b03166001600160a01b03166303e293a36040518163ffffffff1660e01b8152600401602060405180830381865afa158015610dd4573d5f803e3d5ffd5b505050506040513d601f19601f82011682018060405250810190610df89190610f76565b610e029190611138565b610e0c91906110bb565b610e16919061114b565b5f8054906101000a90046001600160a01b03166001600160a01b0316631d0806ae6040518163ffffffff1660e01b8152600401602060405180830381865afa158015610e64573d5f803e3d5ffd5b505050506040513d601f19601f82011682018060405250810190610e889190610f76565b610e92919061116a565b60405163055e6bcb60e51b8152600481018790526024810182905260606044820152603460648201527f507269636520647572696e672070726573616c652073686f756c64206265206360848201527337b93932b1ba363c9031b0b631bab630ba32b21760611b60a482015290915073__$acbfb1c35000d78352310b16a054a6b106$__9063abcd79609060c401602060405180830381865af4158015610f3b573d5f803e3d5ffd5b505050506040513d601f19601f82011682018060405250810190610f5f91906110d2565b5050505050505050565b611c308061119483390190565b5f60208284031215610f86575f80fd5b5051919050565b5f60208284031215610f9d575f80fd5b815160ff81168114610fad575f80fd5b9392505050565b634e487b7160e01b5f52601160045260245ffd5b6001815b600184111561100357808504811115610fe757610fe7610fb4565b6001841615610ff557908102905b60019390931c928002610fcc565b935093915050565b5f82611019575060016110a7565b8161102557505f6110a7565b816001811461103b576002811461104557611061565b60019150506110a7565b60ff84111561105657611056610fb4565b50506001821b6110a7565b5060208310610133831016604e8410600b8410161715611084575081810a6110a7565b6110905f198484610fc8565b805f19048211156110a3576110a3610fb4565b0290505b92915050565b5f610fad60ff84168361100b565b80820281158282048414176110a7576110a7610fb4565b5f602082840312156110e2575f80fd5b81518015158114610fad575f80fd5b9115158252151560208201526060604082018190526018908201527f50726573616c652073686f756c64206265206163746976650000000000000000608082015260a00190565b818103818111156110a7576110a7610fb4565b5f8261116557634e487b7160e01b5f52601260045260245ffd5b500490565b808201808211156110a7576110a7610fb4565b5f82518060208501845e5f92019182525091905056fe608060405234801561000f575f80fd5b50604051611c30380380611c3083398101604081905261002e916102ba565b856040518060400160405280600b81526020016a2730ba3ab932aa37b5b2b760a91b81525060405180604001604052806003815260200162272a2960e91b815250816003908161007e91906103ac565b50600461008b82826103ac565b5050506001600160a01b0381166100bc57604051631e4fbdf760e01b81525f60048201526024015b60405180910390fd5b6100c58161010b565b506100e5306100d66012600a61055f565b6100e09088610574565b61015c565b600893909355600a91909155600955600d5550506005805460ff60a01b1916905561059e565b600580546001600160a01b038381166001600160a01b0319831681179093556040519116919082907f8be0079c531659141344cd1fd0a4f28419497f9722a3daafe3b4186f6b6457e0905f90a35050565b6001600160a01b0382166101855760405163ec442f0560e01b81525f60048201526024016100b3565b6101905f8383610194565b5050565b6001600160a01b0383166101be578060025f8282546101b3919061058b565b9091555061022e9050565b6001600160a01b0383165f90815260208190526040902054818110156102105760405163391434e360e21b81526001600160a01b038516600482015260248101829052604481018390526064016100b3565b6001600160a01b0384165f9081526020819052604090209082900390555b6001600160a01b03821661024a57600280548290039055610268565b6001600160a01b0382165f9081526020819052604090208054820190555b816001600160a01b0316836001600160a01b03167fddf252ad1be2c89b69c2b068fc378daa952ba7f163c4a11628f55a4df523b3ef836040516102ad91815260200190565b60405180910390a3505050565b5f805f805f8060c087890312156102cf575f80fd5b86516001600160a01b03811681146102e5575f80fd5b6020880151604089015160608a015160808b015160a0909b0151939c929b509099909850965090945092505050565b634e487b7160e01b5f52604160045260245ffd5b600181811c9082168061033c57607f821691505b60208210810361035a57634e487b7160e01b5f52602260045260245ffd5b50919050565b601f8211156103a757805f5260205f20601f840160051c810160208510156103855750805b601f840160051c820191505b818110156103a4575f8155600101610391565b50505b505050565b81516001600160401b038111156103c5576103c5610314565b6103d9816103d38454610328565b84610360565b6020601f82116001811461040b575f83156103f45750848201515b5f19600385901b1c1916600184901b1784556103a4565b5f84815260208120601f198516915b8281101561043a578785015182556020948501946001909201910161041a565b508482101561045757868401515f19600387901b60f8161c191681555b50505050600190811b01905550565b634e487b7160e01b5f52601160045260245ffd5b6001815b60018411156104b55780850481111561049957610499610466565b60018416156104a757908102905b60019390931c92800261047e565b935093915050565b5f826104cb57506001610559565b816104d757505f610559565b81600181146104ed57600281146104f757610513565b6001915050610559565b60ff84111561050857610508610466565b50506001821b610559565b5060208310610133831016604e8410600b8410161715610536575081810a610559565b6105425f19848461047a565b805f190482111561055557610555610466565b0290505b92915050565b5f61056d60ff8416836104bd565b9392505050565b808202811582820484141761055957610559610466565b8082018082111561055957610559610466565b611685806105ab5f395ff3fe6080604052600436106101fc575f3560e01c80638265324d11610113578063cce29ea71161009d578063dd62ed3e1161006d578063dd62ed3e1461058a578063f2fde38b146105ce578063f8102e68146105ed578063f993185514610602578063f9a81af71461062d575f80fd5b8063cce29ea71461052e578063cec297a014610543578063d0febe4c1461056e578063d348b40914610576575f80fd5b80639b19251a116100e35780639b19251a1461047a5780639ca423b3146104a8578063a09c4cf4146104dc578063a5ce413b146104fb578063a9059cbb1461050f575f80fd5b80638265324d146103eb5780638da5cb5b1461040a5780638f0794fe1461043b57806395d89b4114610466575f80fd5b806330f72cd41161019457806370a082311161016457806370a0823114610359578063715018a61461038d5780637165d19b146103a35780637547c7a3146103b85780637c613b2f146103d7575f80fd5b806330f72cd4146102f4578063313ce567146103145780634f3fc2df1461032f578063518ab2a814610344575f80fd5b80630d505541116101cf5780630d5055411461028d57806318160ddd146102ac5780631d0806ae146102c057806323b872dd146102d5575f80fd5b806303e293a31461020057806306d65af31461022857806306fdde031461023d578063095ea7b31461025e575b5f80fd5b34801561020b575f80fd5b5061021560095481565b6040519081526020015b60405180910390f35b348015610233575f80fd5b5061021560065481565b348015610248575f80fd5b5061025161064c565b60405161021f9190611378565b348015610269575f80fd5b5061027d6102783660046113c8565b6106dc565b604051901515815260200161021f565b348015610298575f80fd5b506102156102a73660046113f0565b6106f5565b3480156102b7575f80fd5b50600254610215565b3480156102cb575f80fd5b5061021560085481565b3480156102e0575f80fd5b5061027d6102ef366004611409565b61076f565b3480156102ff575f80fd5b5060055461027d90600160a01b900460ff1681565b34801561031f575f80fd5b506040516012815260200161021f565b34801561033a575f80fd5b50610215600d5481565b34801561034f575f80fd5b50610215600b5481565b348015610364575f80fd5b506102156103733660046113f0565b6001600160a01b03165f9081526020819052604090205490565b348015610398575f80fd5b506103a1610792565b005b3480156103ae575f80fd5b50610215600a5481565b3480156103c3575f80fd5b506103a16103d2366004611443565b6107a5565b3480156103e2575f80fd5b506103a16108d5565b3480156103f6575f80fd5b506102156104053660046113f0565b6109d2565b348015610415575f80fd5b506005546001600160a01b03165b6040516001600160a01b03909116815260200161021f565b348015610446575f80fd5b506102156104553660046113f0565b600f6020525f908152604090205481565b348015610471575f80fd5b50610251610a0d565b348015610485575f80fd5b5061027d6104943660046113f0565b60106020525f908152604090205460ff1681565b3480156104b3575f80fd5b506104236104c23660046113f0565b60116020525f90815260409020546001600160a01b031681565b3480156104e7575f80fd5b506103a16104f63660046113f0565b610a1c565b348015610506575f80fd5b506103a1610b93565b34801561051a575f80fd5b5061027d6105293660046113c8565b610ccb565b348015610539575f80fd5b5061021560075481565b34801561054e575f80fd5b5061021561055d3660046113f0565b60126020525f908152604090205481565b6103a1610cd8565b348015610581575f80fd5b50610215610e56565b348015610595575f80fd5b506102156105a436600461145a565b6001600160a01b039182165f90815260016020908152604080832093909416825291909152205490565b3480156105d9575f80fd5b506103a16105e83660046113f0565b610f19565b3480156105f8575f80fd5b50610215600c5481565b34801561060d575f80fd5b5061021561061c3660046113f0565b600e6020525f908152604090205481565b348015610638575f80fd5b506103a161064736600461148b565b610f56565b60606003805461065b906114ab565b80601f0160208091040260200160405190810160405280929190818152602001828054610687906114ab565b80156106d25780601f106106a9576101008083540402835291602001916106d2565b820191905f5260205f20905b8154815290600101906020018083116106b557829003601f168201915b5050505050905090565b5f336106e9818585610fdf565b60019150505b92915050565b6001600160a01b0381165f908152600f6020526040812054819062093a809061071e90426114f7565b610728919061150a565b600d546001600160a01b0385165f908152600e6020526040902054919250606491839161075491611529565b61075e9190611529565b610768919061150a565b9392505050565b5f3361077c858285610ff1565b61078785858561106d565b506001949350505050565b61079a6110ca565b6107a35f6110f7565b565b5f81116108035760405162461bcd60e51b815260206004820152602160248201527f416d6f756e74206d7573742062652067726561746572207468616e207a65726f6044820152601760f91b60648201526084015b60405180910390fd5b335f908152602081905260409020548111156108595760405162461bcd60e51b815260206004820152601560248201527424b739bab33334b1b4b2b73a103130b630b731b29760591b60448201526064016107fa565b61086433308361106d565b335f908152600e602052604081208054839290610882908490611540565b9091555050335f818152600f602052604090819020429055517fb539ca1e5c8d398ddf1c41c30166f33404941683be4683319b57669a93dad4ef906108ca9084815260200190565b60405180910390a250565b600554600160a01b900460ff1615156001146109335760405162461bcd60e51b815260206004820152601760248201527f50726573616c65206e6f7420737461727465642079657400000000000000000060448201526064016107fa565b5f61093d336109d2565b90505f81116109855760405162461bcd60e51b81526020600482015260146024820152734e6f207265776172647320617661696c61626c6560601b60448201526064016107fa565b61098f3382611148565b335f8181526012602052604080822091909155517ff0bc0a70fe19ef2d8dc1e1948b338a1184184fb1ea3ac836f24065828816d68d906108ca9084815260200190565b5f6109df6012600a611636565b6001600160a01b0383165f90815260126020526040902054610a03906101f4611529565b6106ef9190611529565b60606004805461065b906114ab565b335f9081526010602052604090205460ff1615610a715760405162461bcd60e51b8152602060048201526013602482015272105b1c9958591e481dda1a5d195b1a5cdd1959606a1b60448201526064016107fa565b6001600160a01b0381163303610ac15760405162461bcd60e51b815260206004820152601560248201527421b0b73737ba103932b332b9103cb7bab939b2b63360591b60448201526064016107fa565b335f908152601060205260409020805460ff191660011790556001600160a01b03811615801590610b0957506001600160a01b0381165f9081526010602052604090205460ff165b15610b5b57335f90815260116020908152604080832080546001600160a01b0319166001600160a01b038616908117909155835260129091528120805460019290610b55908490611540565b90915550505b6040516001600160a01b0382169033907f4bc18aa4b0095c9a3b5cdf42d2322d5a145591b04045988a995a5da426075457905f90a350565b335f908152600e602052604090205480610be35760405162461bcd60e51b81526020600482015260116024820152702737903a37b5b2b7399039ba30b5b2b21760791b60448201526064016107fa565b335f908152600f6020526040902054610bff906224ea00611540565b421015610c4e5760405162461bcd60e51b815260206004820152601b60248201527f556e7374616b65206f6e6c792061667465722034207765656b732e000000000060448201526064016107fa565b5f610c58336106f5565b335f818152600e60209081526040808320839055600f909152812055909150610c8c903090610c878486611540565b61106d565b604080518381526020810183905233917f6f2d3e000c89d37446b7c0374c0125068ff316d1e3ee302336478a8cd03c2336910160405180910390a25050565b5f336106e981858561106d565b600654421015610d1d5760405162461bcd60e51b815260206004820152601060248201526f29b0b632903737ba1030b1ba34bb329760811b60448201526064016107fa565b5f3411610d6c5760405162461bcd60e51b815260206004820152601c60248201527f4d7573742073656e642045544820746f2062757920746f6b656e732e0000000060448201526064016107fa565b5f610d75610e56565b90505f81610d856012600a611644565b610d8f9034611529565b610d99919061150a565b305f90815260208190526040902054909150811115610dfa5760405162461bcd60e51b815260206004820152601c60248201527f4e6f7420656e6f75676820746f6b656e7320617661696c61626c652e0000000060448201526064016107fa565b610e0530338361106d565b80600b5f828254610e169190611540565b9091555050604051818152339030907fddf252ad1be2c89b69c2b068fc378daa952ba7f163c4a11628f55a4df523b3ef9060200160405180910390a35050565b5f426006541015610ea95760405162461bcd60e51b815260206004820152601860248201527f5072652d73616c65206e6f74207374617274656420796574000000000000000060448201526064016107fa565b600754421115610eba575060095490565b5f62093a8060065442610ecd91906114f7565b610ed7919061150a565b90505f600c5482600854600954610eee91906114f7565b610ef89190611529565b610f02919061150a565b905080600854610f129190611540565b9250505090565b610f216110ca565b6001600160a01b038116610f4a57604051631e4fbdf760e01b81525f60048201526024016107fa565b610f53816110f7565b50565b610f5e6110ca565b6006829055610f708162093a80611529565b600654610f7d9190611540565b6007819055600c8290556005805460ff60a01b1916600160a01b1790556006546040517f3844853be672b18d859394aa37e05615b95b78e66b4dc37dca98d1db1b05ea7d92610fd3928252602082015260400190565b60405180910390a15050565b610fec8383836001611180565b505050565b6001600160a01b038381165f908152600160209081526040808320938616835292905220545f19811015611067578181101561105957604051637dc7a0d960e11b81526001600160a01b038416600482015260248101829052604481018390526064016107fa565b61106784848484035f611180565b50505050565b6001600160a01b03831661109657604051634b637e8f60e11b81525f60048201526024016107fa565b6001600160a01b0382166110bf5760405163ec442f0560e01b81525f60048201526024016107fa565b610fec838383611252565b6005546001600160a01b031633146107a35760405163118cdaa760e01b81523360048201526024016107fa565b600580546001600160a01b038381166001600160a01b0319831681179093556040519116919082907f8be0079c531659141344cd1fd0a4f28419497f9722a3daafe3b4186f6b6457e0905f90a35050565b6001600160a01b0382166111715760405163ec442f0560e01b81525f60048201526024016107fa565b61117c5f8383611252565b5050565b6001600160a01b0384166111a95760405163e602df0560e01b81525f60048201526024016107fa565b6001600160a01b0383166111d257604051634a1406b160e11b81525f60048201526024016107fa565b6001600160a01b038085165f908152600160209081526040808320938716835292905220829055801561106757826001600160a01b0316846001600160a01b03167f8c5be1e5ebec7d5bd14f71427d1e84f3dd0314c0f7b2291e5b200ac8c7c3b9258460405161124491815260200190565b60405180910390a350505050565b6001600160a01b03831661127c578060025f8282546112719190611540565b909155506112ec9050565b6001600160a01b0383165f90815260208190526040902054818110156112ce5760405163391434e360e21b81526001600160a01b038516600482015260248101829052604481018390526064016107fa565b6001600160a01b0384165f9081526020819052604090209082900390555b6001600160a01b03821661130857600280548290039055611326565b6001600160a01b0382165f9081526020819052604090208054820190555b816001600160a01b0316836001600160a01b03167fddf252ad1be2c89b69c2b068fc378daa952ba7f163c4a11628f55a4df523b3ef8360405161136b91815260200190565b60405180910390a3505050565b602081525f82518060208401528060208501604085015e5f604082850101526040601f19601f83011684010191505092915050565b80356001600160a01b03811681146113c3575f80fd5b919050565b5f80604083850312156113d9575f80fd5b6113e2836113ad565b946020939093013593505050565b5f60208284031215611400575f80fd5b610768826113ad565b5f805f6060848603121561141b575f80fd5b611424846113ad565b9250611432602085016113ad565b929592945050506040919091013590565b5f60208284031215611453575f80fd5b5035919050565b5f806040838503121561146b575f80fd5b611474836113ad565b9150611482602084016113ad565b90509250929050565b5f806040838503121561149c575f80fd5b50508035926020909101359150565b600181811c908216806114bf57607f821691505b6020821081036114dd57634e487b7160e01b5f52602260045260245ffd5b50919050565b634e487b7160e01b5f52601160045260245ffd5b818103818111156106ef576106ef6114e3565b5f8261152457634e487b7160e01b5f52601260045260245ffd5b500490565b80820281158282048414176106ef576106ef6114e3565b808201808211156106ef576106ef6114e3565b6001815b600184111561158e57808504811115611572576115726114e3565b600184161561158057908102905b60019390931c928002611557565b935093915050565b5f826115a4575060016106ef565b816115b057505f6106ef565b81600181146115c657600281146115d0576115ec565b60019150506106ef565b60ff8411156115e1576115e16114e3565b50506001821b6106ef565b5060208310610133831016604e8410600b841016171561160f575081810a6106ef565b61161b5f198484611553565b805f190482111561162e5761162e6114e3565b029392505050565b5f61076860ff841683611596565b5f610768838361159656fea2646970667358221220934754968edc707e4b911e06fbe7b31fccbf6781ba1af40e599e46f8d48c1b6b64736f6c634300081a0033a26469706673582212207dbc68ac77e5ad0d65e5a7602e1ba7a355f1a09270f55c1415646e5805ba671c64736f6c634300081a0033",
			"opcodes": "PUSH1 0x80 PUSH1 0x40 MSTORE PUSH1 0x1 DUP1 SLOAD PUSH1 0x1 PUSH1 0x1 PUSH1 0xA0 SHL SUB NOT AND PUSH2 0x123 OR SWAP1 SSTORE CALLVALUE DUP1 ISZERO PUSH1 0x22 JUMPI PUSH0 DUP1 REVERT JUMPDEST POP PUSH2 0x2DF9 DUP1 PUSH2 0x30 PUSH0 CODECOPY PUSH0 RETURN INVALID PUSH1 0x80 PUSH1 0x40 MSTORE CALLVALUE DUP1 ISZERO PUSH2 0xF JUMPI PUSH0 DUP1 REVERT JUMPDEST POP PUSH1 0x4 CALLDATASIZE LT PUSH2 0x85 JUMPI PUSH0 CALLDATALOAD PUSH1 0xE0 SHR DUP1 PUSH4 0x95C4C59E GT PUSH2 0x58 JUMPI DUP1 PUSH4 0x95C4C59E EQ PUSH2 0xAB JUMPI DUP1 PUSH4 0xA77E7AC8 EQ PUSH2 0xB3 JUMPI DUP1 PUSH4 0xB78D8F62 EQ PUSH2 0xBB JUMPI DUP1 PUSH4 0xD61C90DA EQ PUSH2 0xC3 JUMPI PUSH0 DUP1 REVERT JUMPDEST DUP1 PUSH4 0x11E6492 EQ PUSH2 0x89 JUMPI DUP1 PUSH4 0x18F128EB EQ PUSH2 0x93 JUMPI DUP1 PUSH4 0x7B70AF2D EQ PUSH2 0x9B JUMPI DUP1 PUSH4 0x7FEA0D4B EQ PUSH2 0xA3 JUMPI JUMPDEST PUSH0 DUP1 REVERT JUMPDEST PUSH2 0x91 PUSH2 0xCB JUMP JUMPDEST STOP JUMPDEST PUSH2 0x91 PUSH2 0x282 JUMP JUMPDEST PUSH2 0x91 PUSH2 0x332 JUMP JUMPDEST PUSH2 0x91 PUSH2 0x427 JUMP JUMPDEST PUSH2 0x91 PUSH2 0x561 JUMP JUMPDEST PUSH2 0x91 PUSH2 0x687 JUMP JUMPDEST PUSH2 0x91 PUSH2 0x854 JUMP JUMPDEST PUSH2 0x91 PUSH2 0xB19 JUMP JUMPDEST PUSH0 DUP1 PUSH0 SWAP1 SLOAD SWAP1 PUSH2 0x100 EXP SWAP1 DIV PUSH1 0x1 PUSH1 0x1 PUSH1 0xA0 SHL SUB AND PUSH1 0x1 PUSH1 0x1 PUSH1 0xA0 SHL SUB AND PUSH4 0x18160DDD PUSH1 0x40 MLOAD DUP2 PUSH4 0xFFFFFFFF AND PUSH1 0xE0 SHL DUP2 MSTORE PUSH1 0x4 ADD PUSH1 0x20 PUSH1 0x40 MLOAD DUP1 DUP4 SUB DUP2 DUP7 GAS STATICCALL ISZERO DUP1 ISZERO PUSH2 0x11B JUMPI RETURNDATASIZE PUSH0 DUP1 RETURNDATACOPY RETURNDATASIZE PUSH0 REVERT JUMPDEST POP POP POP POP PUSH1 0x40 MLOAD RETURNDATASIZE PUSH1 0x1F NOT PUSH1 0x1F DUP3 ADD AND DUP3 ADD DUP1 PUSH1 0x40 MSTORE POP DUP2 ADD SWAP1 PUSH2 0x13F SWAP2 SWAP1 PUSH2 0xF76 JUMP JUMPDEST SWAP1 POP PUSH20 0x0 PUSH4 0xABCD7960 DUP3 PUSH0 DUP1 SLOAD SWAP1 PUSH2 0x100 EXP SWAP1 DIV PUSH1 0x1 PUSH1 0x1 PUSH1 0xA0 SHL SUB AND PUSH1 0x1 PUSH1 0x1 PUSH1 0xA0 SHL SUB AND PUSH4 0x313CE567 PUSH1 0x40 MLOAD DUP2 PUSH4 0xFFFFFFFF AND PUSH1 0xE0 SHL DUP2 MSTORE PUSH1 0x4 ADD PUSH1 0x20 PUSH1 0x40 MLOAD DUP1 DUP4 SUB DUP2 DUP7 GAS STATICCALL ISZERO DUP1 ISZERO PUSH2 0x1AA JUMPI RETURNDATASIZE PUSH0 DUP1 RETURNDATACOPY RETURNDATASIZE PUSH0 REVERT JUMPDEST POP POP POP POP PUSH1 0x40 MLOAD RETURNDATASIZE PUSH1 0x1F NOT PUSH1 0x1F DUP3 ADD AND DUP3 ADD DUP1 PUSH1 0x40 MSTORE POP DUP2 ADD SWAP1 PUSH2 0x1CE SWAP2 SWAP1 PUSH2 0xF8D JUMP JUMPDEST PUSH2 0x1D9 SWAP1 PUSH1 0xA PUSH2 0x10AD JUMP JUMPDEST PUSH2 0x1E6 SWAP1 PUSH3 0xF4240 PUSH2 0x10BB JUMP JUMPDEST PUSH1 0x40 MLOAD PUSH1 0x1 PUSH1 0x1 PUSH1 0xE0 SHL SUB NOT PUSH1 0xE0 DUP6 SWAP1 SHL AND DUP2 MSTORE PUSH1 0x4 DUP2 ADD SWAP3 SWAP1 SWAP3 MSTORE PUSH1 0x24 DUP3 ADD MSTORE PUSH1 0x60 PUSH1 0x44 DUP3 ADD MSTORE PUSH1 0x19 PUSH1 0x64 DUP3 ADD MSTORE PUSH32 0x546F74616C20737570706C792073686F756C64206D6174636800000000000000 PUSH1 0x84 DUP3 ADD MSTORE PUSH1 0xA4 ADD JUMPDEST PUSH1 0x20 PUSH1 0x40 MLOAD DUP1 DUP4 SUB DUP2 DUP7 GAS DELEGATECALL ISZERO DUP1 ISZERO PUSH2 0x25A JUMPI RETURNDATASIZE PUSH0 DUP1 RETURNDATACOPY RETURNDATASIZE PUSH0 REVERT JUMPDEST POP POP POP POP PUSH1 0x40 MLOAD RETURNDATASIZE PUSH1 0x1F NOT PUSH1 0x1F DUP3 ADD AND DUP3 ADD DUP1 PUSH1 0x40 MSTORE POP DUP2 ADD SWAP1 PUSH2 0x27E SWAP2 SWAP1 PUSH2 0x10D2 JUMP JUMPDEST POP POP JUMP JUMPDEST PUSH0 DUP1 PUSH0 SWAP1 SLOAD SWAP1 PUSH2 0x100 EXP SWAP1 DIV PUSH1 0x1 PUSH1 0x1 PUSH1 0xA0 SHL SUB AND PUSH1 0x1 PUSH1 0x1 PUSH1 0xA0 SHL SUB AND PUSH4 0x30F72CD4 PUSH1 0x40 MLOAD DUP2 PUSH4 0xFFFFFFFF AND PUSH1 0xE0 SHL DUP2 MSTORE PUSH1 0x4 ADD PUSH1 0x20 PUSH1 0x40 MLOAD DUP1 DUP4 SUB DUP2 DUP7 GAS STATICCALL ISZERO DUP1 ISZERO PUSH2 0x2D2 JUMPI RETURNDATASIZE PUSH0 DUP1 RETURNDATACOPY RETURNDATASIZE PUSH0 REVERT JUMPDEST POP POP POP POP PUSH1 0x40 MLOAD RETURNDATASIZE PUSH1 0x1F NOT PUSH1 0x1F DUP3 ADD AND DUP3 ADD DUP1 PUSH1 0x40 MSTORE POP DUP2 ADD SWAP1 PUSH2 0x2F6 SWAP2 SWAP1 PUSH2 0x10D2 JUMP JUMPDEST PUSH1 0x40 MLOAD PUSH4 0x767392B3 PUSH1 0xE0 SHL DUP2 MSTORE SWAP1 SWAP2 POP PUSH20 0x0 SWAP1 PUSH4 0x767392B3 SWAP1 PUSH2 0x23F SWAP1 PUSH0 SWAP1 DUP6 SWAP1 PUSH1 0x4 ADD PUSH2 0x10F1 JUMP JUMPDEST PUSH0 PUSH3 0x83D600 PUSH1 0x2 SLOAD PUSH2 0x344 SWAP2 SWAP1 PUSH2 0x1138 JUMP JUMPDEST SWAP1 POP PUSH0 PUSH3 0x93A80 DUP3 PUSH1 0x2 SLOAD PUSH2 0x359 SWAP2 SWAP1 PUSH2 0x1138 JUMP JUMPDEST PUSH2 0x363 SWAP2 SWAP1 PUSH2 0x114B JUMP JUMPDEST PUSH1 0x40 MLOAD PUSH4 0x55E6BCB PUSH1 0xE5 SHL DUP2 MSTORE PUSH1 0x4 DUP2 ADD DUP3 SWAP1 MSTORE PUSH1 0xE PUSH1 0x24 DUP3 ADD DUP2 SWAP1 MSTORE PUSH1 0x60 PUSH1 0x44 DUP4 ADD MSTORE PUSH1 0x22 PUSH1 0x64 DUP4 ADD MSTORE PUSH32 0x5468652063616C63756C61746564207765656B732073686F756C642062652031 PUSH1 0x84 DUP4 ADD MSTORE PUSH2 0x1A17 PUSH1 0xF1 SHL PUSH1 0xA4 DUP4 ADD MSTORE SWAP2 SWAP3 POP PUSH20 0x0 SWAP1 PUSH4 0xABCD7960 SWAP1 PUSH1 0xC4 ADD JUMPDEST PUSH1 0x20 PUSH1 0x40 MLOAD DUP1 DUP4 SUB DUP2 DUP7 GAS DELEGATECALL ISZERO DUP1 ISZERO PUSH2 0x3FD JUMPI RETURNDATASIZE PUSH0 DUP1 RETURNDATACOPY RETURNDATASIZE PUSH0 REVERT JUMPDEST POP POP POP POP PUSH1 0x40 MLOAD RETURNDATASIZE PUSH1 0x1F NOT PUSH1 0x1F DUP3 ADD AND DUP3 ADD DUP1 PUSH1 0x40 MSTORE POP DUP2 ADD SWAP1 PUSH2 0x421 SWAP2 SWAP1 PUSH2 0x10D2 JUMP JUMPDEST POP POP POP POP JUMP JUMPDEST ADDRESS PUSH3 0xF4240 PUSH7 0x38D7EA4C68000 PUSH1 0xA PUSH7 0x71AFD498D0000 PUSH1 0x5 PUSH1 0x40 MLOAD PUSH2 0x44C SWAP1 PUSH2 0xF69 JUMP JUMPDEST PUSH1 0x1 PUSH1 0x1 PUSH1 0xA0 SHL SUB SWAP1 SWAP7 AND DUP7 MSTORE PUSH1 0x20 DUP7 ADD SWAP5 SWAP1 SWAP5 MSTORE PUSH1 0x40 DUP6 ADD SWAP3 SWAP1 SWAP3 MSTORE PUSH1 0x60 DUP5 ADD MSTORE PUSH1 0x80 DUP4 ADD MSTORE PUSH1 0xA0 DUP3 ADD MSTORE PUSH1 0xC0 ADD PUSH1 0x40 MLOAD DUP1 SWAP2 SUB SWAP1 PUSH0 CREATE DUP1 ISZERO DUP1 ISZERO PUSH2 0x494 JUMPI RETURNDATASIZE PUSH0 DUP1 RETURNDATACOPY RETURNDATASIZE PUSH0 REVERT JUMPDEST POP PUSH0 DUP1 SLOAD PUSH1 0x1 PUSH1 0x1 PUSH1 0xA0 SHL SUB NOT AND PUSH1 0x1 PUSH1 0x1 PUSH1 0xA0 SHL SUB SWAP3 SWAP1 SWAP3 AND SWAP2 SWAP1 SWAP2 OR SWAP1 SSTORE TIMESTAMP PUSH1 0x2 SSTORE PUSH1 0x40 MLOAD PUSH4 0x55E6BCB PUSH1 0xE5 SHL DUP2 MSTORE PUSH1 0x1 PUSH1 0x4 DUP3 ADD DUP2 SWAP1 MSTORE PUSH1 0x24 DUP3 ADD MSTORE PUSH1 0x60 PUSH1 0x44 DUP3 ADD MSTORE PUSH1 0x16 PUSH1 0x64 DUP3 ADD MSTORE PUSH22 0x312073686F756C6420626520657175616C20746F2031 PUSH1 0x50 SHL PUSH1 0x84 DUP3 ADD MSTORE PUSH20 0x0 SWAP1 PUSH4 0xABCD7960 SWAP1 PUSH1 0xA4 ADD PUSH1 0x20 PUSH1 0x40 MLOAD DUP1 DUP4 SUB DUP2 DUP7 GAS DELEGATECALL ISZERO DUP1 ISZERO PUSH2 0x53A JUMPI RETURNDATASIZE PUSH0 DUP1 RETURNDATACOPY RETURNDATASIZE PUSH0 REVERT JUMPDEST POP POP POP POP PUSH1 0x40 MLOAD RETURNDATASIZE PUSH1 0x1F NOT PUSH1 0x1F DUP3 ADD AND DUP3 ADD DUP1 PUSH1 0x40 MSTORE POP DUP2 ADD SWAP1 PUSH2 0x55E SWAP2 SWAP1 PUSH2 0x10D2 JUMP JUMPDEST POP JUMP JUMPDEST PUSH0 PUSH1 0x2 SLOAD PUSH3 0x15180 PUSH2 0x573 SWAP2 SWAP1 PUSH2 0x116A JUMP JUMPDEST PUSH0 SLOAD PUSH1 0x40 MLOAD PUSH4 0xF9A81AF7 PUSH1 0xE0 SHL DUP2 MSTORE PUSH1 0x4 DUP1 DUP3 ADD DUP5 SWAP1 MSTORE PUSH1 0x24 DUP3 ADD DUP2 SWAP1 MSTORE SWAP3 SWAP4 POP PUSH1 0x1 PUSH1 0x1 PUSH1 0xA0 SHL SUB SWAP1 SWAP2 AND SWAP1 PUSH4 0xF9A81AF7 SWAP1 PUSH1 0x44 ADD PUSH0 PUSH1 0x40 MLOAD DUP1 DUP4 SUB DUP2 PUSH0 DUP8 DUP1 EXTCODESIZE ISZERO DUP1 ISZERO PUSH2 0x5C0 JUMPI PUSH0 DUP1 REVERT JUMPDEST POP GAS CALL ISZERO DUP1 ISZERO PUSH2 0x5D2 JUMPI RETURNDATASIZE PUSH0 DUP1 RETURNDATACOPY RETURNDATASIZE PUSH0 REVERT JUMPDEST POP POP POP POP PUSH0 DUP1 PUSH0 SWAP1 SLOAD SWAP1 PUSH2 0x100 EXP SWAP1 DIV PUSH1 0x1 PUSH1 0x1 PUSH1 0xA0 SHL SUB AND PUSH1 0x1 PUSH1 0x1 PUSH1 0xA0 SHL SUB AND PUSH4 0x30F72CD4 PUSH1 0x40 MLOAD DUP2 PUSH4 0xFFFFFFFF AND PUSH1 0xE0 SHL DUP2 MSTORE PUSH1 0x4 ADD PUSH1 0x20 PUSH1 0x40 MLOAD DUP1 DUP4 SUB DUP2 DUP7 GAS STATICCALL ISZERO DUP1 ISZERO PUSH2 0x626 JUMPI RETURNDATASIZE PUSH0 DUP1 RETURNDATACOPY RETURNDATASIZE PUSH0 REVERT JUMPDEST POP POP POP POP PUSH1 0x40 MLOAD RETURNDATASIZE PUSH1 0x1F NOT PUSH1 0x1F DUP3 ADD AND DUP3 ADD DUP1 PUSH1 0x40 MSTORE POP DUP2 ADD SWAP1 PUSH2 0x64A SWAP2 SWAP1 PUSH2 0x10D2 JUMP JUMPDEST PUSH1 0x40 MLOAD PUSH4 0x767392B3 PUSH1 0xE0 SHL DUP2 MSTORE SWAP1 SWAP2 POP PUSH20 0x0 SWAP1 PUSH4 0x767392B3 SWAP1 PUSH2 0x3E2 SWAP1 PUSH1 0x1 SWAP1 DUP6 SWAP1 PUSH1 0x4 ADD PUSH2 0x10F1 JUMP JUMPDEST PUSH0 PUSH1 0x2 SLOAD PUSH3 0x15180 PUSH2 0x699 SWAP2 SWAP1 PUSH2 0x116A JUMP JUMPDEST PUSH0 SLOAD PUSH1 0x40 MLOAD PUSH4 0xF9A81AF7 PUSH1 0xE0 SHL DUP2 MSTORE PUSH1 0x4 DUP1 DUP3 ADD DUP5 SWAP1 MSTORE PUSH1 0x24 DUP3 ADD DUP2 SWAP1 MSTORE SWAP3 SWAP4 POP PUSH1 0x1 PUSH1 0x1 PUSH1 0xA0 SHL SUB SWAP1 SWAP2 AND SWAP1 PUSH4 0xF9A81AF7 SWAP1 PUSH1 0x44 ADD PUSH0 PUSH1 0x40 MLOAD DUP1 DUP4 SUB DUP2 PUSH0 DUP8 DUP1 EXTCODESIZE ISZERO DUP1 ISZERO PUSH2 0x6E6 JUMPI PUSH0 DUP1 REVERT JUMPDEST POP GAS CALL ISZERO DUP1 ISZERO PUSH2 0x6F8 JUMPI RETURNDATASIZE PUSH0 DUP1 RETURNDATACOPY RETURNDATASIZE PUSH0 REVERT JUMPDEST POP POP PUSH0 DUP1 SLOAD PUSH1 0x40 DUP1 MLOAD PUSH1 0x4 DUP2 MSTORE PUSH1 0x24 DUP2 ADD DUP3 MSTORE PUSH1 0x20 DUP2 ADD DUP1 MLOAD PUSH1 0x1 PUSH1 0x1 PUSH1 0xE0 SHL SUB AND PUSH4 0xD348B409 PUSH1 0xE0 SHL OR SWAP1 MSTORE SWAP1 MLOAD SWAP3 SWAP5 POP DUP5 SWAP4 POP PUSH1 0x60 SWAP3 PUSH1 0x1 PUSH1 0x1 PUSH1 0xA0 SHL SUB SWAP1 SWAP3 AND SWAP2 PUSH2 0x746 SWAP2 SWAP1 PUSH2 0x117D JUMP JUMPDEST PUSH0 PUSH1 0x40 MLOAD DUP1 DUP4 SUB DUP2 PUSH0 DUP7 GAS CALL SWAP2 POP POP RETURNDATASIZE DUP1 PUSH0 DUP2 EQ PUSH2 0x77F JUMPI PUSH1 0x40 MLOAD SWAP2 POP PUSH1 0x1F NOT PUSH1 0x3F RETURNDATASIZE ADD AND DUP3 ADD PUSH1 0x40 MSTORE RETURNDATASIZE DUP3 MSTORE RETURNDATASIZE PUSH0 PUSH1 0x20 DUP5 ADD RETURNDATACOPY PUSH2 0x784 JUMP JUMPDEST PUSH1 0x60 SWAP2 POP JUMPDEST POP PUSH1 0x40 MLOAD PUSH4 0x767392B3 PUSH1 0xE0 SHL DUP2 MSTORE DUP3 ISZERO ISZERO PUSH1 0x4 DUP3 ADD MSTORE PUSH0 PUSH1 0x24 DUP3 ADD MSTORE PUSH1 0x60 PUSH1 0x44 DUP3 ADD MSTORE PUSH1 0x2C PUSH1 0x64 DUP3 ADD MSTORE PUSH32 0x5072652D73616C6520686173206E6F742073746172746564207965742C207368 PUSH1 0x84 DUP3 ADD MSTORE PUSH12 0x37BAB632103932BB32B93A17 PUSH1 0xA1 SHL PUSH1 0xA4 DUP3 ADD MSTORE SWAP2 SWAP4 POP SWAP2 POP PUSH20 0x0 SWAP1 PUSH4 0x767392B3 SWAP1 PUSH1 0xC4 ADD PUSH1 0x20 PUSH1 0x40 MLOAD DUP1 DUP4 SUB DUP2 DUP7 GAS DELEGATECALL ISZERO DUP1 ISZERO PUSH2 0x828 JUMPI RETURNDATASIZE PUSH0 DUP1 RETURNDATACOPY RETURNDATASIZE PUSH0 REVERT JUMPDEST POP POP POP POP PUSH1 0x40 MLOAD RETURNDATASIZE PUSH1 0x1F NOT PUSH1 0x1F DUP3 ADD AND DUP3 ADD DUP1 PUSH1 0x40 MSTORE POP DUP2 ADD SWAP1 PUSH2 0x84C SWAP2 SWAP1 PUSH2 0x10D2 JUMP JUMPDEST POP POP POP POP POP POP JUMP JUMPDEST PUSH0 DUP1 SLOAD PUSH1 0x1 SLOAD PUSH1 0x40 MLOAD PUSH4 0x70A08231 PUSH1 0xE0 SHL DUP2 MSTORE PUSH1 0x1 PUSH1 0x1 PUSH1 0xA0 SHL SUB SWAP2 DUP3 AND PUSH1 0x4 DUP3 ADD MSTORE SWAP2 AND SWAP1 PUSH4 0x70A08231 SWAP1 PUSH1 0x24 ADD PUSH1 0x20 PUSH1 0x40 MLOAD DUP1 DUP4 SUB DUP2 DUP7 GAS STATICCALL ISZERO DUP1 ISZERO PUSH2 0x89E JUMPI RETURNDATASIZE PUSH0 DUP1 RETURNDATACOPY RETURNDATASIZE PUSH0 REVERT JUMPDEST POP POP POP POP PUSH1 0x40 MLOAD RETURNDATASIZE PUSH1 0x1F NOT PUSH1 0x1F DUP3 ADD AND DUP3 ADD DUP1 PUSH1 0x40 MSTORE POP DUP2 ADD SWAP1 PUSH2 0x8C2 SWAP2 SWAP1 PUSH2 0xF76 JUMP JUMPDEST PUSH0 DUP1 SLOAD PUSH1 0x40 DUP1 MLOAD PUSH1 0x4 DUP2 MSTORE PUSH1 0x24 DUP2 ADD DUP3 MSTORE PUSH1 0x20 DUP2 ADD DUP1 MLOAD PUSH1 0x1 PUSH1 0x1 PUSH1 0xE0 SHL SUB AND PUSH4 0x343FAF93 PUSH1 0xE2 SHL OR SWAP1 MSTORE SWAP1 MLOAD SWAP4 SWAP5 POP SWAP2 SWAP3 PUSH1 0x1 PUSH1 0x1 PUSH1 0xA0 SHL SUB SWAP1 SWAP2 AND SWAP2 PUSH8 0xDE0B6B3A7640000 SWAP2 PUSH2 0x914 SWAP2 SWAP1 PUSH2 0x117D JUMP JUMPDEST PUSH0 PUSH1 0x40 MLOAD DUP1 DUP4 SUB DUP2 DUP6 DUP8 GAS CALL SWAP3 POP POP POP RETURNDATASIZE DUP1 PUSH0 DUP2 EQ PUSH2 0x94E JUMPI PUSH1 0x40 MLOAD SWAP2 POP PUSH1 0x1F NOT PUSH1 0x3F RETURNDATASIZE ADD AND DUP3 ADD PUSH1 0x40 MSTORE RETURNDATASIZE DUP3 MSTORE RETURNDATASIZE PUSH0 PUSH1 0x20 DUP5 ADD RETURNDATACOPY PUSH2 0x953 JUMP JUMPDEST PUSH1 0x60 SWAP2 POP JUMPDEST POP POP PUSH1 0x40 MLOAD PUSH4 0x767392B3 PUSH1 0xE0 SHL DUP2 MSTORE DUP2 ISZERO ISZERO PUSH1 0x4 DUP3 ADD MSTORE PUSH0 PUSH1 0x24 DUP3 ADD MSTORE PUSH1 0x60 PUSH1 0x44 DUP3 ADD MSTORE PUSH1 0x28 PUSH1 0x64 DUP3 ADD MSTORE PUSH32 0x50726573616C65206E6F74206163746976652C2070757263686173652073686F PUSH1 0x84 DUP3 ADD MSTORE PUSH8 0x1D5B190819985A5B PUSH1 0xC2 SHL PUSH1 0xA4 DUP3 ADD MSTORE SWAP1 SWAP2 POP PUSH20 0x0 SWAP1 PUSH4 0x767392B3 SWAP1 PUSH1 0xC4 ADD PUSH1 0x20 PUSH1 0x40 MLOAD DUP1 DUP4 SUB DUP2 DUP7 GAS DELEGATECALL ISZERO DUP1 ISZERO PUSH2 0x9F2 JUMPI RETURNDATASIZE PUSH0 DUP1 RETURNDATACOPY RETURNDATASIZE PUSH0 REVERT JUMPDEST POP POP POP POP PUSH1 0x40 MLOAD RETURNDATASIZE PUSH1 0x1F NOT PUSH1 0x1F DUP3 ADD AND DUP3 ADD DUP1 PUSH1 0x40 MSTORE POP DUP2 ADD SWAP1 PUSH2 0xA16 SWAP2 SWAP1 PUSH2 0x10D2 JUMP JUMPDEST POP PUSH0 DUP1 SLOAD PUSH1 0x1 SLOAD PUSH1 0x40 MLOAD PUSH4 0x70A08231 PUSH1 0xE0 SHL DUP2 MSTORE PUSH1 0x1 PUSH1 0x1 PUSH1 0xA0 SHL SUB SWAP2 DUP3 AND PUSH1 0x4 DUP3 ADD MSTORE SWAP2 AND SWAP1 PUSH4 0x70A08231 SWAP1 PUSH1 0x24 ADD PUSH1 0x20 PUSH1 0x40 MLOAD DUP1 DUP4 SUB DUP2 DUP7 GAS STATICCALL ISZERO DUP1 ISZERO PUSH2 0xA61 JUMPI RETURNDATASIZE PUSH0 DUP1 RETURNDATACOPY RETURNDATASIZE PUSH0 REVERT JUMPDEST POP POP POP POP PUSH1 0x40 MLOAD RETURNDATASIZE PUSH1 0x1F NOT PUSH1 0x1F DUP3 ADD AND DUP3 ADD DUP1 PUSH1 0x40 MSTORE POP DUP2 ADD SWAP1 PUSH2 0xA85 SWAP2 SWAP1 PUSH2 0xF76 JUMP JUMPDEST PUSH1 0x40 MLOAD PUSH4 0x55E6BCB PUSH1 0xE5 SHL DUP2 MSTORE PUSH1 0x4 DUP2 ADD DUP6 SWAP1 MSTORE PUSH1 0x24 DUP2 ADD DUP3 SWAP1 MSTORE PUSH1 0x60 PUSH1 0x44 DUP3 ADD MSTORE PUSH1 0x35 PUSH1 0x64 DUP3 ADD MSTORE PUSH32 0x42757965722062616C616E63652073686F756C64206E6F74206368616E676520 PUSH1 0x84 DUP3 ADD MSTORE PUSH21 0x6265666F72652070726573616C6520737461727473 PUSH1 0x58 SHL PUSH1 0xA4 DUP3 ADD MSTORE SWAP1 SWAP2 POP PUSH20 0x0 SWAP1 PUSH4 0xABCD7960 SWAP1 PUSH1 0xC4 ADD PUSH2 0x3E2 JUMP JUMPDEST PUSH0 PUSH3 0x83D600 PUSH1 0x2 SLOAD PUSH2 0xB2B SWAP2 SWAP1 PUSH2 0x1138 JUMP JUMPDEST PUSH0 SLOAD PUSH1 0x40 MLOAD PUSH4 0xF9A81AF7 PUSH1 0xE0 SHL DUP2 MSTORE PUSH1 0x4 DUP1 DUP3 ADD DUP5 SWAP1 MSTORE PUSH1 0x24 DUP3 ADD DUP2 SWAP1 MSTORE SWAP3 SWAP4 POP PUSH1 0x1 PUSH1 0x1 PUSH1 0xA0 SHL SUB SWAP1 SWAP2 AND SWAP1 PUSH4 0xF9A81AF7 SWAP1 PUSH1 0x44 ADD PUSH0 PUSH1 0x40 MLOAD DUP1 DUP4 SUB DUP2 PUSH0 DUP8 DUP1 EXTCODESIZE ISZERO DUP1 ISZERO PUSH2 0xB78 JUMPI PUSH0 DUP1 REVERT JUMPDEST POP GAS CALL ISZERO DUP1 ISZERO PUSH2 0xB8A JUMPI RETURNDATASIZE PUSH0 DUP1 RETURNDATACOPY RETURNDATASIZE PUSH0 REVERT JUMPDEST POP POP PUSH0 DUP1 SLOAD PUSH1 0x40 DUP1 MLOAD PUSH1 0x4 DUP2 MSTORE PUSH1 0x24 DUP2 ADD DUP3 MSTORE PUSH1 0x20 DUP2 ADD DUP1 MLOAD PUSH1 0x1 PUSH1 0x1 PUSH1 0xE0 SHL SUB AND PUSH4 0xD348B409 PUSH1 0xE0 SHL OR SWAP1 MSTORE SWAP1 MLOAD SWAP3 SWAP5 POP DUP5 SWAP4 POP PUSH1 0x60 SWAP3 PUSH1 0x1 PUSH1 0x1 PUSH1 0xA0 SHL SUB SWAP1 SWAP3 AND SWAP2 PUSH2 0xBD8 SWAP2 SWAP1 PUSH2 0x117D JUMP JUMPDEST PUSH0 PUSH1 0x40 MLOAD DUP1 DUP4 SUB DUP2 PUSH0 DUP7 GAS CALL SWAP2 POP POP RETURNDATASIZE DUP1 PUSH0 DUP2 EQ PUSH2 0xC11 JUMPI PUSH1 0x40 MLOAD SWAP2 POP PUSH1 0x1F NOT PUSH1 0x3F RETURNDATASIZE ADD AND DUP3 ADD PUSH1 0x40 MSTORE RETURNDATASIZE DUP3 MSTORE RETURNDATASIZE PUSH0 PUSH1 0x20 DUP5 ADD RETURNDATACOPY PUSH2 0xC16 JUMP JUMPDEST PUSH1 0x60 SWAP2 POP JUMPDEST POP PUSH1 0x40 MLOAD PUSH4 0x767392B3 PUSH1 0xE0 SHL DUP2 MSTORE DUP3 ISZERO ISZERO PUSH1 0x4 DUP3 ADD MSTORE PUSH1 0x1 PUSH1 0x24 DUP3 ADD MSTORE PUSH1 0x60 PUSH1 0x44 DUP3 ADD MSTORE PUSH1 0x2C PUSH1 0x64 DUP3 ADD MSTORE PUSH32 0x43616C6C20746F2063616C63756C61746550726963652073686F756C64206265 PUSH1 0x84 DUP3 ADD MSTORE PUSH12 0x1039BAB1B1B2B9B9B33AB617 PUSH1 0xA1 SHL PUSH1 0xA4 DUP3 ADD MSTORE SWAP2 SWAP4 POP SWAP2 POP PUSH20 0x0 SWAP1 PUSH4 0x767392B3 SWAP1 PUSH1 0xC4 ADD PUSH1 0x20 PUSH1 0x40 MLOAD DUP1 DUP4 SUB DUP2 DUP7 GAS DELEGATECALL ISZERO DUP1 ISZERO PUSH2 0xCBB JUMPI RETURNDATASIZE PUSH0 DUP1 RETURNDATACOPY RETURNDATASIZE PUSH0 REVERT JUMPDEST POP POP POP POP PUSH1 0x40 MLOAD RETURNDATASIZE PUSH1 0x1F NOT PUSH1 0x1F DUP3 ADD AND DUP3 ADD DUP1 PUSH1 0x40 MSTORE POP DUP2 ADD SWAP1 PUSH2 0xCDF SWAP2 SWAP1 PUSH2 0x10D2 JUMP JUMPDEST POP DUP1 DUP1 PUSH1 0x20 ADD SWAP1 MLOAD DUP2 ADD SWAP1 PUSH2 0xCF4 SWAP2 SWAP1 PUSH2 0xF76 JUMP JUMPDEST SWAP3 POP PUSH0 PUSH3 0x93A80 PUSH2 0xD05 DUP8 TIMESTAMP PUSH2 0x1138 JUMP JUMPDEST PUSH2 0xD0F SWAP2 SWAP1 PUSH2 0x114B JUMP JUMPDEST SWAP1 POP PUSH0 DUP6 DUP3 PUSH0 DUP1 SLOAD SWAP1 PUSH2 0x100 EXP SWAP1 DIV PUSH1 0x1 PUSH1 0x1 PUSH1 0xA0 SHL SUB AND PUSH1 0x1 PUSH1 0x1 PUSH1 0xA0 SHL SUB AND PUSH4 0x1D0806AE PUSH1 0x40 MLOAD DUP2 PUSH4 0xFFFFFFFF AND PUSH1 0xE0 SHL DUP2 MSTORE PUSH1 0x4 ADD PUSH1 0x20 PUSH1 0x40 MLOAD DUP1 DUP4 SUB DUP2 DUP7 GAS STATICCALL ISZERO DUP1 ISZERO PUSH2 0xD62 JUMPI RETURNDATASIZE PUSH0 DUP1 RETURNDATACOPY RETURNDATASIZE PUSH0 REVERT JUMPDEST POP POP POP POP PUSH1 0x40 MLOAD RETURNDATASIZE PUSH1 0x1F NOT PUSH1 0x1F DUP3 ADD AND DUP3 ADD DUP1 PUSH1 0x40 MSTORE POP DUP2 ADD SWAP1 PUSH2 0xD86 SWAP2 SWAP1 PUSH2 0xF76 JUMP JUMPDEST PUSH0 DUP1 SLOAD SWAP1 PUSH2 0x100 EXP SWAP1 DIV PUSH1 0x1 PUSH1 0x1 PUSH1 0xA0 SHL SUB AND PUSH1 0x1 PUSH1 0x1 PUSH1 0xA0 SHL SUB AND PUSH4 0x3E293A3 PUSH1 0x40 MLOAD DUP2 PUSH4 0xFFFFFFFF AND PUSH1 0xE0 SHL DUP2 MSTORE PUSH1 0x4 ADD PUSH1 0x20 PUSH1 0x40 MLOAD DUP1 DUP4 SUB DUP2 DUP7 GAS STATICCALL ISZERO DUP1 ISZERO PUSH2 0xDD4 JUMPI RETURNDATASIZE PUSH0 DUP1 RETURNDATACOPY RETURNDATASIZE PUSH0 REVERT JUMPDEST POP POP POP POP PUSH1 0x40 MLOAD RETURNDATASIZE PUSH1 0x1F NOT PUSH1 0x1F DUP3 ADD AND DUP3 ADD DUP1 PUSH1 0x40 MSTORE POP DUP2 ADD SWAP1 PUSH2 0xDF8 SWAP2 SWAP1 PUSH2 0xF76 JUMP JUMPDEST PUSH2 0xE02 SWAP2 SWAP1 PUSH2 0x1138 JUMP JUMPDEST PUSH2 0xE0C SWAP2 SWAP1 PUSH2 0x10BB JUMP JUMPDEST PUSH2 0xE16 SWAP2 SWAP1 PUSH2 0x114B JUMP JUMPDEST PUSH0 DUP1 SLOAD SWAP1 PUSH2 0x100 EXP SWAP1 DIV PUSH1 0x1 PUSH1 0x1 PUSH1 0xA0 SHL SUB AND PUSH1 0x1 PUSH1 0x1 PUSH1 0xA0 SHL SUB AND PUSH4 0x1D0806AE PUSH1 0x40 MLOAD DUP2 PUSH4 0xFFFFFFFF AND PUSH1 0xE0 SHL DUP2 MSTORE PUSH1 0x4 ADD PUSH1 0x20 PUSH1 0x40 MLOAD DUP1 DUP4 SUB DUP2 DUP7 GAS STATICCALL ISZERO DUP1 ISZERO PUSH2 0xE64 JUMPI RETURNDATASIZE PUSH0 DUP1 RETURNDATACOPY RETURNDATASIZE PUSH0 REVERT JUMPDEST POP POP POP POP PUSH1 0x40 MLOAD RETURNDATASIZE PUSH1 0x1F NOT PUSH1 0x1F DUP3 ADD AND DUP3 ADD DUP1 PUSH1 0x40 MSTORE POP DUP2 ADD SWAP1 PUSH2 0xE88 SWAP2 SWAP1 PUSH2 0xF76 JUMP JUMPDEST PUSH2 0xE92 SWAP2 SWAP1 PUSH2 0x116A JUMP JUMPDEST PUSH1 0x40 MLOAD PUSH4 0x55E6BCB PUSH1 0xE5 SHL DUP2 MSTORE PUSH1 0x4 DUP2 ADD DUP8 SWAP1 MSTORE PUSH1 0x24 DUP2 ADD DUP3 SWAP1 MSTORE PUSH1 0x60 PUSH1 0x44 DUP3 ADD MSTORE PUSH1 0x34 PUSH1 0x64 DUP3 ADD MSTORE PUSH32 0x507269636520647572696E672070726573616C652073686F756C642062652063 PUSH1 0x84 DUP3 ADD MSTORE PUSH20 0x37B93932B1BA363C9031B0B631BAB630BA32B217 PUSH1 0x61 SHL PUSH1 0xA4 DUP3 ADD MSTORE SWAP1 SWAP2 POP PUSH20 0x0 SWAP1 PUSH4 0xABCD7960 SWAP1 PUSH1 0xC4 ADD PUSH1 0x20 PUSH1 0x40 MLOAD DUP1 DUP4 SUB DUP2 DUP7 GAS DELEGATECALL ISZERO DUP1 ISZERO PUSH2 0xF3B JUMPI RETURNDATASIZE PUSH0 DUP1 RETURNDATACOPY RETURNDATASIZE PUSH0 REVERT JUMPDEST POP POP POP POP PUSH1 0x40 MLOAD RETURNDATASIZE PUSH1 0x1F NOT PUSH1 0x1F DUP3 ADD AND DUP3 ADD DUP1 PUSH1 0x40 MSTORE POP DUP2 ADD SWAP1 PUSH2 0xF5F SWAP2 SWAP1 PUSH2 0x10D2 JUMP JUMPDEST POP POP POP POP POP POP POP POP JUMP JUMPDEST PUSH2 0x1C30 DUP1 PUSH2 0x1194 DUP4 CODECOPY ADD SWAP1 JUMP JUMPDEST PUSH0 PUSH1 0x20 DUP3 DUP5 SUB SLT ISZERO PUSH2 0xF86 JUMPI PUSH0 DUP1 REVERT JUMPDEST POP MLOAD SWAP2 SWAP1 POP JUMP JUMPDEST PUSH0 PUSH1 0x20 DUP3 DUP5 SUB SLT ISZERO PUSH2 0xF9D JUMPI PUSH0 DUP1 REVERT JUMPDEST DUP2 MLOAD PUSH1 0xFF DUP2 AND DUP2 EQ PUSH2 0xFAD JUMPI PUSH0 DUP1 REVERT JUMPDEST SWAP4 SWAP3 POP POP POP JUMP JUMPDEST PUSH4 0x4E487B71 PUSH1 0xE0 SHL PUSH0 MSTORE PUSH1 0x11 PUSH1 0x4 MSTORE PUSH1 0x24 PUSH0 REVERT JUMPDEST PUSH1 0x1 DUP2 JUMPDEST PUSH1 0x1 DUP5 GT ISZERO PUSH2 0x1003 JUMPI DUP1 DUP6 DIV DUP2 GT ISZERO PUSH2 0xFE7 JUMPI PUSH2 0xFE7 PUSH2 0xFB4 JUMP JUMPDEST PUSH1 0x1 DUP5 AND ISZERO PUSH2 0xFF5 JUMPI SWAP1 DUP2 MUL SWAP1 JUMPDEST PUSH1 0x1 SWAP4 SWAP1 SWAP4 SHR SWAP3 DUP1 MUL PUSH2 0xFCC JUMP JUMPDEST SWAP4 POP SWAP4 SWAP2 POP POP JUMP JUMPDEST PUSH0 DUP3 PUSH2 0x1019 JUMPI POP PUSH1 0x1 PUSH2 0x10A7 JUMP JUMPDEST DUP2 PUSH2 0x1025 JUMPI POP PUSH0 PUSH2 0x10A7 JUMP JUMPDEST DUP2 PUSH1 0x1 DUP2 EQ PUSH2 0x103B JUMPI PUSH1 0x2 DUP2 EQ PUSH2 0x1045 JUMPI PUSH2 0x1061 JUMP JUMPDEST PUSH1 0x1 SWAP2 POP POP PUSH2 0x10A7 JUMP JUMPDEST PUSH1 0xFF DUP5 GT ISZERO PUSH2 0x1056 JUMPI PUSH2 0x1056 PUSH2 0xFB4 JUMP JUMPDEST POP POP PUSH1 0x1 DUP3 SHL PUSH2 0x10A7 JUMP JUMPDEST POP PUSH1 0x20 DUP4 LT PUSH2 0x133 DUP4 LT AND PUSH1 0x4E DUP5 LT PUSH1 0xB DUP5 LT AND OR ISZERO PUSH2 0x1084 JUMPI POP DUP2 DUP2 EXP PUSH2 0x10A7 JUMP JUMPDEST PUSH2 0x1090 PUSH0 NOT DUP5 DUP5 PUSH2 0xFC8 JUMP JUMPDEST DUP1 PUSH0 NOT DIV DUP3 GT ISZERO PUSH2 0x10A3 JUMPI PUSH2 0x10A3 PUSH2 0xFB4 JUMP JUMPDEST MUL SWAP1 POP JUMPDEST SWAP3 SWAP2 POP POP JUMP JUMPDEST PUSH0 PUSH2 0xFAD PUSH1 0xFF DUP5 AND DUP4 PUSH2 0x100B JUMP JUMPDEST DUP1 DUP3 MUL DUP2 ISZERO DUP3 DUP3 DIV DUP5 EQ OR PUSH2 0x10A7 JUMPI PUSH2 0x10A7 PUSH2 0xFB4 JUMP JUMPDEST PUSH0 PUSH1 0x20 DUP3 DUP5 SUB SLT ISZERO PUSH2 0x10E2 JUMPI PUSH0 DUP1 REVERT JUMPDEST DUP2 MLOAD DUP1 ISZERO ISZERO DUP2 EQ PUSH2 0xFAD JUMPI PUSH0 DUP1 REVERT JUMPDEST SWAP2 ISZERO ISZERO DUP3 MSTORE ISZERO ISZERO PUSH1 0x20 DUP3 ADD MSTORE PUSH1 0x60 PUSH1 0x40 DUP3 ADD DUP2 SWAP1 MSTORE PUSH1 0x18 SWAP1 DUP3 ADD MSTORE PUSH32 0x50726573616C652073686F756C64206265206163746976650000000000000000 PUSH1 0x80 DUP3 ADD MSTORE PUSH1 0xA0 ADD SWAP1 JUMP JUMPDEST DUP2 DUP2 SUB DUP2 DUP2 GT ISZERO PUSH2 0x10A7 JUMPI PUSH2 0x10A7 PUSH2 0xFB4 JUMP JUMPDEST PUSH0 DUP3 PUSH2 0x1165 JUMPI PUSH4 0x4E487B71 PUSH1 0xE0 SHL PUSH0 MSTORE PUSH1 0x12 PUSH1 0x4 MSTORE PUSH1 0x24 PUSH0 REVERT JUMPDEST POP DIV SWAP1 JUMP JUMPDEST DUP1 DUP3 ADD DUP1 DUP3 GT ISZERO PUSH2 0x10A7 JUMPI PUSH2 0x10A7 PUSH2 0xFB4 JUMP JUMPDEST PUSH0 DUP3 MLOAD DUP1 PUSH1 0x20 DUP6 ADD DUP5 MCOPY PUSH0 SWAP3 ADD SWAP2 DUP3 MSTORE POP SWAP2 SWAP1 POP JUMP INVALID PUSH1 0x80 PUSH1 0x40 MSTORE CALLVALUE DUP1 ISZERO PUSH2 0xF JUMPI PUSH0 DUP1 REVERT JUMPDEST POP PUSH1 0x40 MLOAD PUSH2 0x1C30 CODESIZE SUB DUP1 PUSH2 0x1C30 DUP4 CODECOPY DUP2 ADD PUSH1 0x40 DUP2 SWAP1 MSTORE PUSH2 0x2E SWAP2 PUSH2 0x2BA JUMP JUMPDEST DUP6 PUSH1 0x40 MLOAD DUP1 PUSH1 0x40 ADD PUSH1 0x40 MSTORE DUP1 PUSH1 0xB DUP2 MSTORE PUSH1 0x20 ADD PUSH11 0x2730BA3AB932AA37B5B2B7 PUSH1 0xA9 SHL DUP2 MSTORE POP PUSH1 0x40 MLOAD DUP1 PUSH1 0x40 ADD PUSH1 0x40 MSTORE DUP1 PUSH1 0x3 DUP2 MSTORE PUSH1 0x20 ADD PUSH3 0x272A29 PUSH1 0xE9 SHL DUP2 MSTORE POP DUP2 PUSH1 0x3 SWAP1 DUP2 PUSH2 0x7E SWAP2 SWAP1 PUSH2 0x3AC JUMP JUMPDEST POP PUSH1 0x4 PUSH2 0x8B DUP3 DUP3 PUSH2 0x3AC JUMP JUMPDEST POP POP POP PUSH1 0x1 PUSH1 0x1 PUSH1 0xA0 SHL SUB DUP2 AND PUSH2 0xBC JUMPI PUSH1 0x40 MLOAD PUSH4 0x1E4FBDF7 PUSH1 0xE0 SHL DUP2 MSTORE PUSH0 PUSH1 0x4 DUP3 ADD MSTORE PUSH1 0x24 ADD JUMPDEST PUSH1 0x40 MLOAD DUP1 SWAP2 SUB SWAP1 REVERT JUMPDEST PUSH2 0xC5 DUP2 PUSH2 0x10B JUMP JUMPDEST POP PUSH2 0xE5 ADDRESS PUSH2 0xD6 PUSH1 0x12 PUSH1 0xA PUSH2 0x55F JUMP JUMPDEST PUSH2 0xE0 SWAP1 DUP9 PUSH2 0x574 JUMP JUMPDEST PUSH2 0x15C JUMP JUMPDEST PUSH1 0x8 SWAP4 SWAP1 SWAP4 SSTORE PUSH1 0xA SWAP2 SWAP1 SWAP2 SSTORE PUSH1 0x9 SSTORE PUSH1 0xD SSTORE POP POP PUSH1 0x5 DUP1 SLOAD PUSH1 0xFF PUSH1 0xA0 SHL NOT AND SWAP1 SSTORE PUSH2 0x59E JUMP JUMPDEST PUSH1 0x5 DUP1 SLOAD PUSH1 0x1 PUSH1 0x1 PUSH1 0xA0 SHL SUB DUP4 DUP2 AND PUSH1 0x1 PUSH1 0x1 PUSH1 0xA0 SHL SUB NOT DUP4 AND DUP2 OR SWAP1 SWAP4 SSTORE PUSH1 0x40 MLOAD SWAP2 AND SWAP2 SWAP1 DUP3 SWAP1 PUSH32 0x8BE0079C531659141344CD1FD0A4F28419497F9722A3DAAFE3B4186F6B6457E0 SWAP1 PUSH0 SWAP1 LOG3 POP POP JUMP JUMPDEST PUSH1 0x1 PUSH1 0x1 PUSH1 0xA0 SHL SUB DUP3 AND PUSH2 0x185 JUMPI PUSH1 0x40 MLOAD PUSH4 0xEC442F05 PUSH1 0xE0 SHL DUP2 MSTORE PUSH0 PUSH1 0x4 DUP3 ADD MSTORE PUSH1 0x24 ADD PUSH2 0xB3 JUMP JUMPDEST PUSH2 0x190 PUSH0 DUP4 DUP4 PUSH2 0x194 JUMP JUMPDEST POP POP JUMP JUMPDEST PUSH1 0x1 PUSH1 0x1 PUSH1 0xA0 SHL SUB DUP4 AND PUSH2 0x1BE JUMPI DUP1 PUSH1 0x2 PUSH0 DUP3 DUP3 SLOAD PUSH2 0x1B3 SWAP2 SWAP1 PUSH2 0x58B JUMP JUMPDEST SWAP1 SWAP2 SSTORE POP PUSH2 0x22E SWAP1 POP JUMP JUMPDEST PUSH1 0x1 PUSH1 0x1 PUSH1 0xA0 SHL SUB DUP4 AND PUSH0 SWAP1 DUP2 MSTORE PUSH1 0x20 DUP2 SWAP1 MSTORE PUSH1 0x40 SWAP1 KECCAK256 SLOAD DUP2 DUP2 LT ISZERO PUSH2 0x210 JUMPI PUSH1 0x40 MLOAD PUSH4 0x391434E3 PUSH1 0xE2 SHL DUP2 MSTORE PUSH1 0x1 PUSH1 0x1 PUSH1 0xA0 SHL SUB DUP6 AND PUSH1 0x4 DUP3 ADD MSTORE PUSH1 0x24 DUP2 ADD DUP3 SWAP1 MSTORE PUSH1 0x44 DUP2 ADD DUP4 SWAP1 MSTORE PUSH1 0x64 ADD PUSH2 0xB3 JUMP JUMPDEST PUSH1 0x1 PUSH1 0x1 PUSH1 0xA0 SHL SUB DUP5 AND PUSH0 SWAP1 DUP2 MSTORE PUSH1 0x20 DUP2 SWAP1 MSTORE PUSH1 0x40 SWAP1 KECCAK256 SWAP1 DUP3 SWAP1 SUB SWAP1 SSTORE JUMPDEST PUSH1 0x1 PUSH1 0x1 PUSH1 0xA0 SHL SUB DUP3 AND PUSH2 0x24A JUMPI PUSH1 0x2 DUP1 SLOAD DUP3 SWAP1 SUB SWAP1 SSTORE PUSH2 0x268 JUMP JUMPDEST PUSH1 0x1 PUSH1 0x1 PUSH1 0xA0 SHL SUB DUP3 AND PUSH0 SWAP1 DUP2 MSTORE PUSH1 0x20 DUP2 SWAP1 MSTORE PUSH1 0x40 SWAP1 KECCAK256 DUP1 SLOAD DUP3 ADD SWAP1 SSTORE JUMPDEST DUP2 PUSH1 0x1 PUSH1 0x1 PUSH1 0xA0 SHL SUB AND DUP4 PUSH1 0x1 PUSH1 0x1 PUSH1 0xA0 SHL SUB AND PUSH32 0xDDF252AD1BE2C89B69C2B068FC378DAA952BA7F163C4A11628F55A4DF523B3EF DUP4 PUSH1 0x40 MLOAD PUSH2 0x2AD SWAP2 DUP2 MSTORE PUSH1 0x20 ADD SWAP1 JUMP JUMPDEST PUSH1 0x40 MLOAD DUP1 SWAP2 SUB SWAP1 LOG3 POP POP POP JUMP JUMPDEST PUSH0 DUP1 PUSH0 DUP1 PUSH0 DUP1 PUSH1 0xC0 DUP8 DUP10 SUB SLT ISZERO PUSH2 0x2CF JUMPI PUSH0 DUP1 REVERT JUMPDEST DUP7 MLOAD PUSH1 0x1 PUSH1 0x1 PUSH1 0xA0 SHL SUB DUP2 AND DUP2 EQ PUSH2 0x2E5 JUMPI PUSH0 DUP1 REVERT JUMPDEST PUSH1 0x20 DUP9 ADD MLOAD PUSH1 0x40 DUP10 ADD MLOAD PUSH1 0x60 DUP11 ADD MLOAD PUSH1 0x80 DUP12 ADD MLOAD PUSH1 0xA0 SWAP1 SWAP12 ADD MLOAD SWAP4 SWAP13 SWAP3 SWAP12 POP SWAP1 SWAP10 SWAP1 SWAP9 POP SWAP7 POP SWAP1 SWAP5 POP SWAP3 POP POP POP JUMP JUMPDEST PUSH4 0x4E487B71 PUSH1 0xE0 SHL PUSH0 MSTORE PUSH1 0x41 PUSH1 0x4 MSTORE PUSH1 0x24 PUSH0 REVERT JUMPDEST PUSH1 0x1 DUP2 DUP2 SHR SWAP1 DUP3 AND DUP1 PUSH2 0x33C JUMPI PUSH1 0x7F DUP3 AND SWAP2 POP JUMPDEST PUSH1 0x20 DUP3 LT DUP2 SUB PUSH2 0x35A JUMPI PUSH4 0x4E487B71 PUSH1 0xE0 SHL PUSH0 MSTORE PUSH1 0x22 PUSH1 0x4 MSTORE PUSH1 0x24 PUSH0 REVERT JUMPDEST POP SWAP2 SWAP1 POP JUMP JUMPDEST PUSH1 0x1F DUP3 GT ISZERO PUSH2 0x3A7 JUMPI DUP1 PUSH0 MSTORE PUSH1 0x20 PUSH0 KECCAK256 PUSH1 0x1F DUP5 ADD PUSH1 0x5 SHR DUP2 ADD PUSH1 0x20 DUP6 LT ISZERO PUSH2 0x385 JUMPI POP DUP1 JUMPDEST PUSH1 0x1F DUP5 ADD PUSH1 0x5 SHR DUP3 ADD SWAP2 POP JUMPDEST DUP2 DUP2 LT ISZERO PUSH2 0x3A4 JUMPI PUSH0 DUP2 SSTORE PUSH1 0x1 ADD PUSH2 0x391 JUMP JUMPDEST POP POP JUMPDEST POP POP POP JUMP JUMPDEST DUP2 MLOAD PUSH1 0x1 PUSH1 0x1 PUSH1 0x40 SHL SUB DUP2 GT ISZERO PUSH2 0x3C5 JUMPI PUSH2 0x3C5 PUSH2 0x314 JUMP JUMPDEST PUSH2 0x3D9 DUP2 PUSH2 0x3D3 DUP5 SLOAD PUSH2 0x328 JUMP JUMPDEST DUP5 PUSH2 0x360 JUMP JUMPDEST PUSH1 0x20 PUSH1 0x1F DUP3 GT PUSH1 0x1 DUP2 EQ PUSH2 0x40B JUMPI PUSH0 DUP4 ISZERO PUSH2 0x3F4 JUMPI POP DUP5 DUP3 ADD MLOAD JUMPDEST PUSH0 NOT PUSH1 0x3 DUP6 SWAP1 SHL SHR NOT AND PUSH1 0x1 DUP5 SWAP1 SHL OR DUP5 SSTORE PUSH2 0x3A4 JUMP JUMPDEST PUSH0 DUP5 DUP2 MSTORE PUSH1 0x20 DUP2 KECCAK256 PUSH1 0x1F NOT DUP6 AND SWAP2 JUMPDEST DUP3 DUP2 LT ISZERO PUSH2 0x43A JUMPI DUP8 DUP6 ADD MLOAD DUP3 SSTORE PUSH1 0x20 SWAP5 DUP6 ADD SWAP5 PUSH1 0x1 SWAP1 SWAP3 ADD SWAP2 ADD PUSH2 0x41A JUMP JUMPDEST POP DUP5 DUP3 LT ISZERO PUSH2 0x457 JUMPI DUP7 DUP5 ADD MLOAD PUSH0 NOT PUSH1 0x3 DUP8 SWAP1 SHL PUSH1 0xF8 AND SHR NOT AND DUP2 SSTORE JUMPDEST POP POP POP POP PUSH1 0x1 SWAP1 DUP2 SHL ADD SWAP1 SSTORE POP JUMP JUMPDEST PUSH4 0x4E487B71 PUSH1 0xE0 SHL PUSH0 MSTORE PUSH1 0x11 PUSH1 0x4 MSTORE PUSH1 0x24 PUSH0 REVERT JUMPDEST PUSH1 0x1 DUP2 JUMPDEST PUSH1 0x1 DUP5 GT ISZERO PUSH2 0x4B5 JUMPI DUP1 DUP6 DIV DUP2 GT ISZERO PUSH2 0x499 JUMPI PUSH2 0x499 PUSH2 0x466 JUMP JUMPDEST PUSH1 0x1 DUP5 AND ISZERO PUSH2 0x4A7 JUMPI SWAP1 DUP2 MUL SWAP1 JUMPDEST PUSH1 0x1 SWAP4 SWAP1 SWAP4 SHR SWAP3 DUP1 MUL PUSH2 0x47E JUMP JUMPDEST SWAP4 POP SWAP4 SWAP2 POP POP JUMP JUMPDEST PUSH0 DUP3 PUSH2 0x4CB JUMPI POP PUSH1 0x1 PUSH2 0x559 JUMP JUMPDEST DUP2 PUSH2 0x4D7 JUMPI POP PUSH0 PUSH2 0x559 JUMP JUMPDEST DUP2 PUSH1 0x1 DUP2 EQ PUSH2 0x4ED JUMPI PUSH1 0x2 DUP2 EQ PUSH2 0x4F7 JUMPI PUSH2 0x513 JUMP JUMPDEST PUSH1 0x1 SWAP2 POP POP PUSH2 0x559 JUMP JUMPDEST PUSH1 0xFF DUP5 GT ISZERO PUSH2 0x508 JUMPI PUSH2 0x508 PUSH2 0x466 JUMP JUMPDEST POP POP PUSH1 0x1 DUP3 SHL PUSH2 0x559 JUMP JUMPDEST POP PUSH1 0x20 DUP4 LT PUSH2 0x133 DUP4 LT AND PUSH1 0x4E DUP5 LT PUSH1 0xB DUP5 LT AND OR ISZERO PUSH2 0x536 JUMPI POP DUP2 DUP2 EXP PUSH2 0x559 JUMP JUMPDEST PUSH2 0x542 PUSH0 NOT DUP5 DUP5 PUSH2 0x47A JUMP JUMPDEST DUP1 PUSH0 NOT DIV DUP3 GT ISZERO PUSH2 0x555 JUMPI PUSH2 0x555 PUSH2 0x466 JUMP JUMPDEST MUL SWAP1 POP JUMPDEST SWAP3 SWAP2 POP POP JUMP JUMPDEST PUSH0 PUSH2 0x56D PUSH1 0xFF DUP5 AND DUP4 PUSH2 0x4BD JUMP JUMPDEST SWAP4 SWAP3 POP POP POP JUMP JUMPDEST DUP1 DUP3 MUL DUP2 ISZERO DUP3 DUP3 DIV DUP5 EQ OR PUSH2 0x559 JUMPI PUSH2 0x559 PUSH2 0x466 JUMP JUMPDEST DUP1 DUP3 ADD DUP1 DUP3 GT ISZERO PUSH2 0x559 JUMPI PUSH2 0x559 PUSH2 0x466 JUMP JUMPDEST PUSH2 0x1685 DUP1 PUSH2 0x5AB PUSH0 CODECOPY PUSH0 RETURN INVALID PUSH1 0x80 PUSH1 0x40 MSTORE PUSH1 0x4 CALLDATASIZE LT PUSH2 0x1FC JUMPI PUSH0 CALLDATALOAD PUSH1 0xE0 SHR DUP1 PUSH4 0x8265324D GT PUSH2 0x113 JUMPI DUP1 PUSH4 0xCCE29EA7 GT PUSH2 0x9D JUMPI DUP1 PUSH4 0xDD62ED3E GT PUSH2 0x6D JUMPI DUP1 PUSH4 0xDD62ED3E EQ PUSH2 0x58A JUMPI DUP1 PUSH4 0xF2FDE38B EQ PUSH2 0x5CE JUMPI DUP1 PUSH4 0xF8102E68 EQ PUSH2 0x5ED JUMPI DUP1 PUSH4 0xF9931855 EQ PUSH2 0x602 JUMPI DUP1 PUSH4 0xF9A81AF7 EQ PUSH2 0x62D JUMPI PUSH0 DUP1 REVERT JUMPDEST DUP1 PUSH4 0xCCE29EA7 EQ PUSH2 0x52E JUMPI DUP1 PUSH4 0xCEC297A0 EQ PUSH2 0x543 JUMPI DUP1 PUSH4 0xD0FEBE4C EQ PUSH2 0x56E JUMPI DUP1 PUSH4 0xD348B409 EQ PUSH2 0x576 JUMPI PUSH0 DUP1 REVERT JUMPDEST DUP1 PUSH4 0x9B19251A GT PUSH2 0xE3 JUMPI DUP1 PUSH4 0x9B19251A EQ PUSH2 0x47A JUMPI DUP1 PUSH4 0x9CA423B3 EQ PUSH2 0x4A8 JUMPI DUP1 PUSH4 0xA09C4CF4 EQ PUSH2 0x4DC JUMPI DUP1 PUSH4 0xA5CE413B EQ PUSH2 0x4FB JUMPI DUP1 PUSH4 0xA9059CBB EQ PUSH2 0x50F JUMPI PUSH0 DUP1 REVERT JUMPDEST DUP1 PUSH4 0x8265324D EQ PUSH2 0x3EB JUMPI DUP1 PUSH4 0x8DA5CB5B EQ PUSH2 0x40A JUMPI DUP1 PUSH4 0x8F0794FE EQ PUSH2 0x43B JUMPI DUP1 PUSH4 0x95D89B41 EQ PUSH2 0x466 JUMPI PUSH0 DUP1 REVERT JUMPDEST DUP1 PUSH4 0x30F72CD4 GT PUSH2 0x194 JUMPI DUP1 PUSH4 0x70A08231 GT PUSH2 0x164 JUMPI DUP1 PUSH4 0x70A08231 EQ PUSH2 0x359 JUMPI DUP1 PUSH4 0x715018A6 EQ PUSH2 0x38D JUMPI DUP1 PUSH4 0x7165D19B EQ PUSH2 0x3A3 JUMPI DUP1 PUSH4 0x7547C7A3 EQ PUSH2 0x3B8 JUMPI DUP1 PUSH4 0x7C613B2F EQ PUSH2 0x3D7 JUMPI PUSH0 DUP1 REVERT JUMPDEST DUP1 PUSH4 0x30F72CD4 EQ PUSH2 0x2F4 JUMPI DUP1 PUSH4 0x313CE567 EQ PUSH2 0x314 JUMPI DUP1 PUSH4 0x4F3FC2DF EQ PUSH2 0x32F JUMPI DUP1 PUSH4 0x518AB2A8 EQ PUSH2 0x344 JUMPI PUSH0 DUP1 REVERT JUMPDEST DUP1 PUSH4 0xD505541 GT PUSH2 0x1CF JUMPI DUP1 PUSH4 0xD505541 EQ PUSH2 0x28D JUMPI DUP1 PUSH4 0x18160DDD EQ PUSH2 0x2AC JUMPI DUP1 PUSH4 0x1D0806AE EQ PUSH2 0x2C0 JUMPI DUP1 PUSH4 0x23B872DD EQ PUSH2 0x2D5 JUMPI PUSH0 DUP1 REVERT JUMPDEST DUP1 PUSH4 0x3E293A3 EQ PUSH2 0x200 JUMPI DUP1 PUSH4 0x6D65AF3 EQ PUSH2 0x228 JUMPI DUP1 PUSH4 0x6FDDE03 EQ PUSH2 0x23D JUMPI DUP1 PUSH4 0x95EA7B3 EQ PUSH2 0x25E JUMPI JUMPDEST PUSH0 DUP1 REVERT JUMPDEST CALLVALUE DUP1 ISZERO PUSH2 0x20B JUMPI PUSH0 DUP1 REVERT JUMPDEST POP PUSH2 0x215 PUSH1 0x9 SLOAD DUP2 JUMP JUMPDEST PUSH1 0x40 MLOAD SWAP1 DUP2 MSTORE PUSH1 0x20 ADD JUMPDEST PUSH1 0x40 MLOAD DUP1 SWAP2 SUB SWAP1 RETURN JUMPDEST CALLVALUE DUP1 ISZERO PUSH2 0x233 JUMPI PUSH0 DUP1 REVERT JUMPDEST POP PUSH2 0x215 PUSH1 0x6 SLOAD DUP2 JUMP JUMPDEST CALLVALUE DUP1 ISZERO PUSH2 0x248 JUMPI PUSH0 DUP1 REVERT JUMPDEST POP PUSH2 0x251 PUSH2 0x64C JUMP JUMPDEST PUSH1 0x40 MLOAD PUSH2 0x21F SWAP2 SWAP1 PUSH2 0x1378 JUMP JUMPDEST CALLVALUE DUP1 ISZERO PUSH2 0x269 JUMPI PUSH0 DUP1 REVERT JUMPDEST POP PUSH2 0x27D PUSH2 0x278 CALLDATASIZE PUSH1 0x4 PUSH2 0x13C8 JUMP JUMPDEST PUSH2 0x6DC JUMP JUMPDEST PUSH1 0x40 MLOAD SWAP1 ISZERO ISZERO DUP2 MSTORE PUSH1 0x20 ADD PUSH2 0x21F JUMP JUMPDEST CALLVALUE DUP1 ISZERO PUSH2 0x298 JUMPI PUSH0 DUP1 REVERT JUMPDEST POP PUSH2 0x215 PUSH2 0x2A7 CALLDATASIZE PUSH1 0x4 PUSH2 0x13F0 JUMP JUMPDEST PUSH2 0x6F5 JUMP JUMPDEST CALLVALUE DUP1 ISZERO PUSH2 0x2B7 JUMPI PUSH0 DUP1 REVERT JUMPDEST POP PUSH1 0x2 SLOAD PUSH2 0x215 JUMP JUMPDEST CALLVALUE DUP1 ISZERO PUSH2 0x2CB JUMPI PUSH0 DUP1 REVERT JUMPDEST POP PUSH2 0x215 PUSH1 0x8 SLOAD DUP2 JUMP JUMPDEST CALLVALUE DUP1 ISZERO PUSH2 0x2E0 JUMPI PUSH0 DUP1 REVERT JUMPDEST POP PUSH2 0x27D PUSH2 0x2EF CALLDATASIZE PUSH1 0x4 PUSH2 0x1409 JUMP JUMPDEST PUSH2 0x76F JUMP JUMPDEST CALLVALUE DUP1 ISZERO PUSH2 0x2FF JUMPI PUSH0 DUP1 REVERT JUMPDEST POP PUSH1 0x5 SLOAD PUSH2 0x27D SWAP1 PUSH1 0x1 PUSH1 0xA0 SHL SWAP1 DIV PUSH1 0xFF AND DUP2 JUMP JUMPDEST CALLVALUE DUP1 ISZERO PUSH2 0x31F JUMPI PUSH0 DUP1 REVERT JUMPDEST POP PUSH1 0x40 MLOAD PUSH1 0x12 DUP2 MSTORE PUSH1 0x20 ADD PUSH2 0x21F JUMP JUMPDEST CALLVALUE DUP1 ISZERO PUSH2 0x33A JUMPI PUSH0 DUP1 REVERT JUMPDEST POP PUSH2 0x215 PUSH1 0xD SLOAD DUP2 JUMP JUMPDEST CALLVALUE DUP1 ISZERO PUSH2 0x34F JUMPI PUSH0 DUP1 REVERT JUMPDEST POP PUSH2 0x215 PUSH1 0xB SLOAD DUP2 JUMP JUMPDEST CALLVALUE DUP1 ISZERO PUSH2 0x364 JUMPI PUSH0 DUP1 REVERT JUMPDEST POP PUSH2 0x215 PUSH2 0x373 CALLDATASIZE PUSH1 0x4 PUSH2 0x13F0 JUMP JUMPDEST PUSH1 0x1 PUSH1 0x1 PUSH1 0xA0 SHL SUB AND PUSH0 SWAP1 DUP2 MSTORE PUSH1 0x20 DUP2 SWAP1 MSTORE PUSH1 0x40 SWAP1 KECCAK256 SLOAD SWAP1 JUMP JUMPDEST CALLVALUE DUP1 ISZERO PUSH2 0x398 JUMPI PUSH0 DUP1 REVERT JUMPDEST POP PUSH2 0x3A1 PUSH2 0x792 JUMP JUMPDEST STOP JUMPDEST CALLVALUE DUP1 ISZERO PUSH2 0x3AE JUMPI PUSH0 DUP1 REVERT JUMPDEST POP PUSH2 0x215 PUSH1 0xA SLOAD DUP2 JUMP JUMPDEST CALLVALUE DUP1 ISZERO PUSH2 0x3C3 JUMPI PUSH0 DUP1 REVERT JUMPDEST POP PUSH2 0x3A1 PUSH2 0x3D2 CALLDATASIZE PUSH1 0x4 PUSH2 0x1443 JUMP JUMPDEST PUSH2 0x7A5 JUMP JUMPDEST CALLVALUE DUP1 ISZERO PUSH2 0x3E2 JUMPI PUSH0 DUP1 REVERT JUMPDEST POP PUSH2 0x3A1 PUSH2 0x8D5 JUMP JUMPDEST CALLVALUE DUP1 ISZERO PUSH2 0x3F6 JUMPI PUSH0 DUP1 REVERT JUMPDEST POP PUSH2 0x215 PUSH2 0x405 CALLDATASIZE PUSH1 0x4 PUSH2 0x13F0 JUMP JUMPDEST PUSH2 0x9D2 JUMP JUMPDEST CALLVALUE DUP1 ISZERO PUSH2 0x415 JUMPI PUSH0 DUP1 REVERT JUMPDEST POP PUSH1 0x5 SLOAD PUSH1 0x1 PUSH1 0x1 PUSH1 0xA0 SHL SUB AND JUMPDEST PUSH1 0x40 MLOAD PUSH1 0x1 PUSH1 0x1 PUSH1 0xA0 SHL SUB SWAP1 SWAP2 AND DUP2 MSTORE PUSH1 0x20 ADD PUSH2 0x21F JUMP JUMPDEST CALLVALUE DUP1 ISZERO PUSH2 0x446 JUMPI PUSH0 DUP1 REVERT JUMPDEST POP PUSH2 0x215 PUSH2 0x455 CALLDATASIZE PUSH1 0x4 PUSH2 0x13F0 JUMP JUMPDEST PUSH1 0xF PUSH1 0x20 MSTORE PUSH0 SWAP1 DUP2 MSTORE PUSH1 0x40 SWAP1 KECCAK256 SLOAD DUP2 JUMP JUMPDEST CALLVALUE DUP1 ISZERO PUSH2 0x471 JUMPI PUSH0 DUP1 REVERT JUMPDEST POP PUSH2 0x251 PUSH2 0xA0D JUMP JUMPDEST CALLVALUE DUP1 ISZERO PUSH2 0x485 JUMPI PUSH0 DUP1 REVERT JUMPDEST POP PUSH2 0x27D PUSH2 0x494 CALLDATASIZE PUSH1 0x4 PUSH2 0x13F0 JUMP JUMPDEST PUSH1 0x10 PUSH1 0x20 MSTORE PUSH0 SWAP1 DUP2 MSTORE PUSH1 0x40 SWAP1 KECCAK256 SLOAD PUSH1 0xFF AND DUP2 JUMP JUMPDEST CALLVALUE DUP1 ISZERO PUSH2 0x4B3 JUMPI PUSH0 DUP1 REVERT JUMPDEST POP PUSH2 0x423 PUSH2 0x4C2 CALLDATASIZE PUSH1 0x4 PUSH2 0x13F0 JUMP JUMPDEST PUSH1 0x11 PUSH1 0x20 MSTORE PUSH0 SWAP1 DUP2 MSTORE PUSH1 0x40 SWAP1 KECCAK256 SLOAD PUSH1 0x1 PUSH1 0x1 PUSH1 0xA0 SHL SUB AND DUP2 JUMP JUMPDEST CALLVALUE DUP1 ISZERO PUSH2 0x4E7 JUMPI PUSH0 DUP1 REVERT JUMPDEST POP PUSH2 0x3A1 PUSH2 0x4F6 CALLDATASIZE PUSH1 0x4 PUSH2 0x13F0 JUMP JUMPDEST PUSH2 0xA1C JUMP JUMPDEST CALLVALUE DUP1 ISZERO PUSH2 0x506 JUMPI PUSH0 DUP1 REVERT JUMPDEST POP PUSH2 0x3A1 PUSH2 0xB93 JUMP JUMPDEST CALLVALUE DUP1 ISZERO PUSH2 0x51A JUMPI PUSH0 DUP1 REVERT JUMPDEST POP PUSH2 0x27D PUSH2 0x529 CALLDATASIZE PUSH1 0x4 PUSH2 0x13C8 JUMP JUMPDEST PUSH2 0xCCB JUMP JUMPDEST CALLVALUE DUP1 ISZERO PUSH2 0x539 JUMPI PUSH0 DUP1 REVERT JUMPDEST POP PUSH2 0x215 PUSH1 0x7 SLOAD DUP2 JUMP JUMPDEST CALLVALUE DUP1 ISZERO PUSH2 0x54E JUMPI PUSH0 DUP1 REVERT JUMPDEST POP PUSH2 0x215 PUSH2 0x55D CALLDATASIZE PUSH1 0x4 PUSH2 0x13F0 JUMP JUMPDEST PUSH1 0x12 PUSH1 0x20 MSTORE PUSH0 SWAP1 DUP2 MSTORE PUSH1 0x40 SWAP1 KECCAK256 SLOAD DUP2 JUMP JUMPDEST PUSH2 0x3A1 PUSH2 0xCD8 JUMP JUMPDEST CALLVALUE DUP1 ISZERO PUSH2 0x581 JUMPI PUSH0 DUP1 REVERT JUMPDEST POP PUSH2 0x215 PUSH2 0xE56 JUMP JUMPDEST CALLVALUE DUP1 ISZERO PUSH2 0x595 JUMPI PUSH0 DUP1 REVERT JUMPDEST POP PUSH2 0x215 PUSH2 0x5A4 CALLDATASIZE PUSH1 0x4 PUSH2 0x145A JUMP JUMPDEST PUSH1 0x1 PUSH1 0x1 PUSH1 0xA0 SHL SUB SWAP2 DUP3 AND PUSH0 SWAP1 DUP2 MSTORE PUSH1 0x1 PUSH1 0x20 SWAP1 DUP2 MSTORE PUSH1 0x40 DUP1 DUP4 KECCAK256 SWAP4 SWAP1 SWAP5 AND DUP3 MSTORE SWAP2 SWAP1 SWAP2 MSTORE KECCAK256 SLOAD SWAP1 JUMP JUMPDEST CALLVALUE DUP1 ISZERO PUSH2 0x5D9 JUMPI PUSH0 DUP1 REVERT JUMPDEST POP PUSH2 0x3A1 PUSH2 0x5E8 CALLDATASIZE PUSH1 0x4 PUSH2 0x13F0 JUMP JUMPDEST PUSH2 0xF19 JUMP JUMPDEST CALLVALUE DUP1 ISZERO PUSH2 0x5F8 JUMPI PUSH0 DUP1 REVERT JUMPDEST POP PUSH2 0x215 PUSH1 0xC SLOAD DUP2 JUMP JUMPDEST CALLVALUE DUP1 ISZERO PUSH2 0x60D JUMPI PUSH0 DUP1 REVERT JUMPDEST POP PUSH2 0x215 PUSH2 0x61C CALLDATASIZE PUSH1 0x4 PUSH2 0x13F0 JUMP JUMPDEST PUSH1 0xE PUSH1 0x20 MSTORE PUSH0 SWAP1 DUP2 MSTORE PUSH1 0x40 SWAP1 KECCAK256 SLOAD DUP2 JUMP JUMPDEST CALLVALUE DUP1 ISZERO PUSH2 0x638 JUMPI PUSH0 DUP1 REVERT JUMPDEST POP PUSH2 0x3A1 PUSH2 0x647 CALLDATASIZE PUSH1 0x4 PUSH2 0x148B JUMP JUMPDEST PUSH2 0xF56 JUMP JUMPDEST PUSH1 0x60 PUSH1 0x3 DUP1 SLOAD PUSH2 0x65B SWAP1 PUSH2 0x14AB JUMP JUMPDEST DUP1 PUSH1 0x1F ADD PUSH1 0x20 DUP1 SWAP2 DIV MUL PUSH1 0x20 ADD PUSH1 0x40 MLOAD SWAP1 DUP2 ADD PUSH1 0x40 MSTORE DUP1 SWAP3 SWAP2 SWAP1 DUP2 DUP2 MSTORE PUSH1 0x20 ADD DUP3 DUP1 SLOAD PUSH2 0x687 SWAP1 PUSH2 0x14AB JUMP JUMPDEST DUP1 ISZERO PUSH2 0x6D2 JUMPI DUP1 PUSH1 0x1F LT PUSH2 0x6A9 JUMPI PUSH2 0x100 DUP1 DUP4 SLOAD DIV MUL DUP4 MSTORE SWAP2 PUSH1 0x20 ADD SWAP2 PUSH2 0x6D2 JUMP JUMPDEST DUP3 ADD SWAP2 SWAP1 PUSH0 MSTORE PUSH1 0x20 PUSH0 KECCAK256 SWAP1 JUMPDEST DUP2 SLOAD DUP2 MSTORE SWAP1 PUSH1 0x1 ADD SWAP1 PUSH1 0x20 ADD DUP1 DUP4 GT PUSH2 0x6B5 JUMPI DUP3 SWAP1 SUB PUSH1 0x1F AND DUP3 ADD SWAP2 JUMPDEST POP POP POP POP POP SWAP1 POP SWAP1 JUMP JUMPDEST PUSH0 CALLER PUSH2 0x6E9 DUP2 DUP6 DUP6 PUSH2 0xFDF JUMP JUMPDEST PUSH1 0x1 SWAP2 POP POP JUMPDEST SWAP3 SWAP2 POP POP JUMP JUMPDEST PUSH1 0x1 PUSH1 0x1 PUSH1 0xA0 SHL SUB DUP2 AND PUSH0 SWAP1 DUP2 MSTORE PUSH1 0xF PUSH1 0x20 MSTORE PUSH1 0x40 DUP2 KECCAK256 SLOAD DUP2 SWAP1 PUSH3 0x93A80 SWAP1 PUSH2 0x71E SWAP1 TIMESTAMP PUSH2 0x14F7 JUMP JUMPDEST PUSH2 0x728 SWAP2 SWAP1 PUSH2 0x150A JUMP JUMPDEST PUSH1 0xD SLOAD PUSH1 0x1 PUSH1 0x1 PUSH1 0xA0 SHL SUB DUP6 AND PUSH0 SWAP1 DUP2 MSTORE PUSH1 0xE PUSH1 0x20 MSTORE PUSH1 0x40 SWAP1 KECCAK256 SLOAD SWAP2 SWAP3 POP PUSH1 0x64 SWAP2 DUP4 SWAP2 PUSH2 0x754 SWAP2 PUSH2 0x1529 JUMP JUMPDEST PUSH2 0x75E SWAP2 SWAP1 PUSH2 0x1529 JUMP JUMPDEST PUSH2 0x768 SWAP2 SWAP1 PUSH2 0x150A JUMP JUMPDEST SWAP4 SWAP3 POP POP POP JUMP JUMPDEST PUSH0 CALLER PUSH2 0x77C DUP6 DUP3 DUP6 PUSH2 0xFF1 JUMP JUMPDEST PUSH2 0x787 DUP6 DUP6 DUP6 PUSH2 0x106D JUMP JUMPDEST POP PUSH1 0x1 SWAP5 SWAP4 POP POP POP POP JUMP JUMPDEST PUSH2 0x79A PUSH2 0x10CA JUMP JUMPDEST PUSH2 0x7A3 PUSH0 PUSH2 0x10F7 JUMP JUMPDEST JUMP JUMPDEST PUSH0 DUP2 GT PUSH2 0x803 JUMPI PUSH1 0x40 MLOAD PUSH3 0x461BCD PUSH1 0xE5 SHL DUP2 MSTORE PUSH1 0x20 PUSH1 0x4 DUP3 ADD MSTORE PUSH1 0x21 PUSH1 0x24 DUP3 ADD MSTORE PUSH32 0x416D6F756E74206D7573742062652067726561746572207468616E207A65726F PUSH1 0x44 DUP3 ADD MSTORE PUSH1 0x17 PUSH1 0xF9 SHL PUSH1 0x64 DUP3 ADD MSTORE PUSH1 0x84 ADD JUMPDEST PUSH1 0x40 MLOAD DUP1 SWAP2 SUB SWAP1 REVERT JUMPDEST CALLER PUSH0 SWAP1 DUP2 MSTORE PUSH1 0x20 DUP2 SWAP1 MSTORE PUSH1 0x40 SWAP1 KECCAK256 SLOAD DUP2 GT ISZERO PUSH2 0x859 JUMPI PUSH1 0x40 MLOAD PUSH3 0x461BCD PUSH1 0xE5 SHL DUP2 MSTORE PUSH1 0x20 PUSH1 0x4 DUP3 ADD MSTORE PUSH1 0x15 PUSH1 0x24 DUP3 ADD MSTORE PUSH21 0x24B739BAB33334B1B4B2B73A103130B630B731B297 PUSH1 0x59 SHL PUSH1 0x44 DUP3 ADD MSTORE PUSH1 0x64 ADD PUSH2 0x7FA JUMP JUMPDEST PUSH2 0x864 CALLER ADDRESS DUP4 PUSH2 0x106D JUMP JUMPDEST CALLER PUSH0 SWAP1 DUP2 MSTORE PUSH1 0xE PUSH1 0x20 MSTORE PUSH1 0x40 DUP2 KECCAK256 DUP1 SLOAD DUP4 SWAP3 SWAP1 PUSH2 0x882 SWAP1 DUP5 SWAP1 PUSH2 0x1540 JUMP JUMPDEST SWAP1 SWAP2 SSTORE POP POP CALLER PUSH0 DUP2 DUP2 MSTORE PUSH1 0xF PUSH1 0x20 MSTORE PUSH1 0x40 SWAP1 DUP2 SWAP1 KECCAK256 TIMESTAMP SWAP1 SSTORE MLOAD PUSH32 0xB539CA1E5C8D398DDF1C41C30166F33404941683BE4683319B57669A93DAD4EF SWAP1 PUSH2 0x8CA SWAP1 DUP5 DUP2 MSTORE PUSH1 0x20 ADD SWAP1 JUMP JUMPDEST PUSH1 0x40 MLOAD DUP1 SWAP2 SUB SWAP1 LOG2 POP JUMP JUMPDEST PUSH1 0x5 SLOAD PUSH1 0x1 PUSH1 0xA0 SHL SWAP1 DIV PUSH1 0xFF AND ISZERO ISZERO PUSH1 0x1 EQ PUSH2 0x933 JUMPI PUSH1 0x40 MLOAD PUSH3 0x461BCD PUSH1 0xE5 SHL DUP2 MSTORE PUSH1 0x20 PUSH1 0x4 DUP3 ADD MSTORE PUSH1 0x17 PUSH1 0x24 DUP3 ADD MSTORE PUSH32 0x50726573616C65206E6F74207374617274656420796574000000000000000000 PUSH1 0x44 DUP3 ADD MSTORE PUSH1 0x64 ADD PUSH2 0x7FA JUMP JUMPDEST PUSH0 PUSH2 0x93D CALLER PUSH2 0x9D2 JUMP JUMPDEST SWAP1 POP PUSH0 DUP2 GT PUSH2 0x985 JUMPI PUSH1 0x40 MLOAD PUSH3 0x461BCD PUSH1 0xE5 SHL DUP2 MSTORE PUSH1 0x20 PUSH1 0x4 DUP3 ADD MSTORE PUSH1 0x14 PUSH1 0x24 DUP3 ADD MSTORE PUSH20 0x4E6F207265776172647320617661696C61626C65 PUSH1 0x60 SHL PUSH1 0x44 DUP3 ADD MSTORE PUSH1 0x64 ADD PUSH2 0x7FA JUMP JUMPDEST PUSH2 0x98F CALLER DUP3 PUSH2 0x1148 JUMP JUMPDEST CALLER PUSH0 DUP2 DUP2 MSTORE PUSH1 0x12 PUSH1 0x20 MSTORE PUSH1 0x40 DUP1 DUP3 KECCAK256 SWAP2 SWAP1 SWAP2 SSTORE MLOAD PUSH32 0xF0BC0A70FE19EF2D8DC1E1948B338A1184184FB1EA3AC836F24065828816D68D SWAP1 PUSH2 0x8CA SWAP1 DUP5 DUP2 MSTORE PUSH1 0x20 ADD SWAP1 JUMP JUMPDEST PUSH0 PUSH2 0x9DF PUSH1 0x12 PUSH1 0xA PUSH2 0x1636 JUMP JUMPDEST PUSH1 0x1 PUSH1 0x1 PUSH1 0xA0 SHL SUB DUP4 AND PUSH0 SWAP1 DUP2 MSTORE PUSH1 0x12 PUSH1 0x20 MSTORE PUSH1 0x40 SWAP1 KECCAK256 SLOAD PUSH2 0xA03 SWAP1 PUSH2 0x1F4 PUSH2 0x1529 JUMP JUMPDEST PUSH2 0x6EF SWAP2 SWAP1 PUSH2 0x1529 JUMP JUMPDEST PUSH1 0x60 PUSH1 0x4 DUP1 SLOAD PUSH2 0x65B SWAP1 PUSH2 0x14AB JUMP JUMPDEST CALLER PUSH0 SWAP1 DUP2 MSTORE PUSH1 0x10 PUSH1 0x20 MSTORE PUSH1 0x40 SWAP1 KECCAK256 SLOAD PUSH1 0xFF AND ISZERO PUSH2 0xA71 JUMPI PUSH1 0x40 MLOAD PUSH3 0x461BCD PUSH1 0xE5 SHL DUP2 MSTORE PUSH1 0x20 PUSH1 0x4 DUP3 ADD MSTORE PUSH1 0x13 PUSH1 0x24 DUP3 ADD MSTORE PUSH19 0x105B1C9958591E481DDA1A5D195B1A5CDD1959 PUSH1 0x6A SHL PUSH1 0x44 DUP3 ADD MSTORE PUSH1 0x64 ADD PUSH2 0x7FA JUMP JUMPDEST PUSH1 0x1 PUSH1 0x1 PUSH1 0xA0 SHL SUB DUP2 AND CALLER SUB PUSH2 0xAC1 JUMPI PUSH1 0x40 MLOAD PUSH3 0x461BCD PUSH1 0xE5 SHL DUP2 MSTORE PUSH1 0x20 PUSH1 0x4 DUP3 ADD MSTORE PUSH1 0x15 PUSH1 0x24 DUP3 ADD MSTORE PUSH21 0x21B0B73737BA103932B332B9103CB7BAB939B2B633 PUSH1 0x59 SHL PUSH1 0x44 DUP3 ADD MSTORE PUSH1 0x64 ADD PUSH2 0x7FA JUMP JUMPDEST CALLER PUSH0 SWAP1 DUP2 MSTORE PUSH1 0x10 PUSH1 0x20 MSTORE PUSH1 0x40 SWAP1 KECCAK256 DUP1 SLOAD PUSH1 0xFF NOT AND PUSH1 0x1 OR SWAP1 SSTORE PUSH1 0x1 PUSH1 0x1 PUSH1 0xA0 SHL SUB DUP2 AND ISZERO DUP1 ISZERO SWAP1 PUSH2 0xB09 JUMPI POP PUSH1 0x1 PUSH1 0x1 PUSH1 0xA0 SHL SUB DUP2 AND PUSH0 SWAP1 DUP2 MSTORE PUSH1 0x10 PUSH1 0x20 MSTORE PUSH1 0x40 SWAP1 KECCAK256 SLOAD PUSH1 0xFF AND JUMPDEST ISZERO PUSH2 0xB5B JUMPI CALLER PUSH0 SWAP1 DUP2 MSTORE PUSH1 0x11 PUSH1 0x20 SWAP1 DUP2 MSTORE PUSH1 0x40 DUP1 DUP4 KECCAK256 DUP1 SLOAD PUSH1 0x1 PUSH1 0x1 PUSH1 0xA0 SHL SUB NOT AND PUSH1 0x1 PUSH1 0x1 PUSH1 0xA0 SHL SUB DUP7 AND SWAP1 DUP2 OR SWAP1 SWAP2 SSTORE DUP4 MSTORE PUSH1 0x12 SWAP1 SWAP2 MSTORE DUP2 KECCAK256 DUP1 SLOAD PUSH1 0x1 SWAP3 SWAP1 PUSH2 0xB55 SWAP1 DUP5 SWAP1 PUSH2 0x1540 JUMP JUMPDEST SWAP1 SWAP2 SSTORE POP POP JUMPDEST PUSH1 0x40 MLOAD PUSH1 0x1 PUSH1 0x1 PUSH1 0xA0 SHL SUB DUP3 AND SWAP1 CALLER SWAP1 PUSH32 0x4BC18AA4B0095C9A3B5CDF42D2322D5A145591B04045988A995A5DA426075457 SWAP1 PUSH0 SWAP1 LOG3 POP JUMP JUMPDEST CALLER PUSH0 SWAP1 DUP2 MSTORE PUSH1 0xE PUSH1 0x20 MSTORE PUSH1 0x40 SWAP1 KECCAK256 SLOAD DUP1 PUSH2 0xBE3 JUMPI PUSH1 0x40 MLOAD PUSH3 0x461BCD PUSH1 0xE5 SHL DUP2 MSTORE PUSH1 0x20 PUSH1 0x4 DUP3 ADD MSTORE PUSH1 0x11 PUSH1 0x24 DUP3 ADD MSTORE PUSH17 0x2737903A37B5B2B7399039BA30B5B2B217 PUSH1 0x79 SHL PUSH1 0x44 DUP3 ADD MSTORE PUSH1 0x64 ADD PUSH2 0x7FA JUMP JUMPDEST CALLER PUSH0 SWAP1 DUP2 MSTORE PUSH1 0xF PUSH1 0x20 MSTORE PUSH1 0x40 SWAP1 KECCAK256 SLOAD PUSH2 0xBFF SWAP1 PUSH3 0x24EA00 PUSH2 0x1540 JUMP JUMPDEST TIMESTAMP LT ISZERO PUSH2 0xC4E JUMPI PUSH1 0x40 MLOAD PUSH3 0x461BCD PUSH1 0xE5 SHL DUP2 MSTORE PUSH1 0x20 PUSH1 0x4 DUP3 ADD MSTORE PUSH1 0x1B PUSH1 0x24 DUP3 ADD MSTORE PUSH32 0x556E7374616B65206F6E6C792061667465722034207765656B732E0000000000 PUSH1 0x44 DUP3 ADD MSTORE PUSH1 0x64 ADD PUSH2 0x7FA JUMP JUMPDEST PUSH0 PUSH2 0xC58 CALLER PUSH2 0x6F5 JUMP JUMPDEST CALLER PUSH0 DUP2 DUP2 MSTORE PUSH1 0xE PUSH1 0x20 SWAP1 DUP2 MSTORE PUSH1 0x40 DUP1 DUP4 KECCAK256 DUP4 SWAP1 SSTORE PUSH1 0xF SWAP1 SWAP2 MSTORE DUP2 KECCAK256 SSTORE SWAP1 SWAP2 POP PUSH2 0xC8C SWAP1 ADDRESS SWAP1 PUSH2 0xC87 DUP5 DUP7 PUSH2 0x1540 JUMP JUMPDEST PUSH2 0x106D JUMP JUMPDEST PUSH1 0x40 DUP1 MLOAD DUP4 DUP2 MSTORE PUSH1 0x20 DUP2 ADD DUP4 SWAP1 MSTORE CALLER SWAP2 PUSH32 0x6F2D3E000C89D37446B7C0374C0125068FF316D1E3EE302336478A8CD03C2336 SWAP2 ADD PUSH1 0x40 MLOAD DUP1 SWAP2 SUB SWAP1 LOG2 POP POP JUMP JUMPDEST PUSH0 CALLER PUSH2 0x6E9 DUP2 DUP6 DUP6 PUSH2 0x106D JUMP JUMPDEST PUSH1 0x6 SLOAD TIMESTAMP LT ISZERO PUSH2 0xD1D JUMPI PUSH1 0x40 MLOAD PUSH3 0x461BCD PUSH1 0xE5 SHL DUP2 MSTORE PUSH1 0x20 PUSH1 0x4 DUP3 ADD MSTORE PUSH1 0x10 PUSH1 0x24 DUP3 ADD MSTORE PUSH16 0x29B0B632903737BA1030B1BA34BB3297 PUSH1 0x81 SHL PUSH1 0x44 DUP3 ADD MSTORE PUSH1 0x64 ADD PUSH2 0x7FA JUMP JUMPDEST PUSH0 CALLVALUE GT PUSH2 0xD6C JUMPI PUSH1 0x40 MLOAD PUSH3 0x461BCD PUSH1 0xE5 SHL DUP2 MSTORE PUSH1 0x20 PUSH1 0x4 DUP3 ADD MSTORE PUSH1 0x1C PUSH1 0x24 DUP3 ADD MSTORE PUSH32 0x4D7573742073656E642045544820746F2062757920746F6B656E732E00000000 PUSH1 0x44 DUP3 ADD MSTORE PUSH1 0x64 ADD PUSH2 0x7FA JUMP JUMPDEST PUSH0 PUSH2 0xD75 PUSH2 0xE56 JUMP JUMPDEST SWAP1 POP PUSH0 DUP2 PUSH2 0xD85 PUSH1 0x12 PUSH1 0xA PUSH2 0x1644 JUMP JUMPDEST PUSH2 0xD8F SWAP1 CALLVALUE PUSH2 0x1529 JUMP JUMPDEST PUSH2 0xD99 SWAP2 SWAP1 PUSH2 0x150A JUMP JUMPDEST ADDRESS PUSH0 SWAP1 DUP2 MSTORE PUSH1 0x20 DUP2 SWAP1 MSTORE PUSH1 0x40 SWAP1 KECCAK256 SLOAD SWAP1 SWAP2 POP DUP2 GT ISZERO PUSH2 0xDFA JUMPI PUSH1 0x40 MLOAD PUSH3 0x461BCD PUSH1 0xE5 SHL DUP2 MSTORE PUSH1 0x20 PUSH1 0x4 DUP3 ADD MSTORE PUSH1 0x1C PUSH1 0x24 DUP3 ADD MSTORE PUSH32 0x4E6F7420656E6F75676820746F6B656E7320617661696C61626C652E00000000 PUSH1 0x44 DUP3 ADD MSTORE PUSH1 0x64 ADD PUSH2 0x7FA JUMP JUMPDEST PUSH2 0xE05 ADDRESS CALLER DUP4 PUSH2 0x106D JUMP JUMPDEST DUP1 PUSH1 0xB PUSH0 DUP3 DUP3 SLOAD PUSH2 0xE16 SWAP2 SWAP1 PUSH2 0x1540 JUMP JUMPDEST SWAP1 SWAP2 SSTORE POP POP PUSH1 0x40 MLOAD DUP2 DUP2 MSTORE CALLER SWAP1 ADDRESS SWAP1 PUSH32 0xDDF252AD1BE2C89B69C2B068FC378DAA952BA7F163C4A11628F55A4DF523B3EF SWAP1 PUSH1 0x20 ADD PUSH1 0x40 MLOAD DUP1 SWAP2 SUB SWAP1 LOG3 POP POP JUMP JUMPDEST PUSH0 TIMESTAMP PUSH1 0x6 SLOAD LT ISZERO PUSH2 0xEA9 JUMPI PUSH1 0x40 MLOAD PUSH3 0x461BCD PUSH1 0xE5 SHL DUP2 MSTORE PUSH1 0x20 PUSH1 0x4 DUP3 ADD MSTORE PUSH1 0x18 PUSH1 0x24 DUP3 ADD MSTORE PUSH32 0x5072652D73616C65206E6F742073746172746564207965740000000000000000 PUSH1 0x44 DUP3 ADD MSTORE PUSH1 0x64 ADD PUSH2 0x7FA JUMP JUMPDEST PUSH1 0x7 SLOAD TIMESTAMP GT ISZERO PUSH2 0xEBA JUMPI POP PUSH1 0x9 SLOAD SWAP1 JUMP JUMPDEST PUSH0 PUSH3 0x93A80 PUSH1 0x6 SLOAD TIMESTAMP PUSH2 0xECD SWAP2 SWAP1 PUSH2 0x14F7 JUMP JUMPDEST PUSH2 0xED7 SWAP2 SWAP1 PUSH2 0x150A JUMP JUMPDEST SWAP1 POP PUSH0 PUSH1 0xC SLOAD DUP3 PUSH1 0x8 SLOAD PUSH1 0x9 SLOAD PUSH2 0xEEE SWAP2 SWAP1 PUSH2 0x14F7 JUMP JUMPDEST PUSH2 0xEF8 SWAP2 SWAP1 PUSH2 0x1529 JUMP JUMPDEST PUSH2 0xF02 SWAP2 SWAP1 PUSH2 0x150A JUMP JUMPDEST SWAP1 POP DUP1 PUSH1 0x8 SLOAD PUSH2 0xF12 SWAP2 SWAP1 PUSH2 0x1540 JUMP JUMPDEST SWAP3 POP POP POP SWAP1 JUMP JUMPDEST PUSH2 0xF21 PUSH2 0x10CA JUMP JUMPDEST PUSH1 0x1 PUSH1 0x1 PUSH1 0xA0 SHL SUB DUP2 AND PUSH2 0xF4A JUMPI PUSH1 0x40 MLOAD PUSH4 0x1E4FBDF7 PUSH1 0xE0 SHL DUP2 MSTORE PUSH0 PUSH1 0x4 DUP3 ADD MSTORE PUSH1 0x24 ADD PUSH2 0x7FA JUMP JUMPDEST PUSH2 0xF53 DUP2 PUSH2 0x10F7 JUMP JUMPDEST POP JUMP JUMPDEST PUSH2 0xF5E PUSH2 0x10CA JUMP JUMPDEST PUSH1 0x6 DUP3 SWAP1 SSTORE PUSH2 0xF70 DUP2 PUSH3 0x93A80 PUSH2 0x1529 JUMP JUMPDEST PUSH1 0x6 SLOAD PUSH2 0xF7D SWAP2 SWAP1 PUSH2 0x1540 JUMP JUMPDEST PUSH1 0x7 DUP2 SWAP1 SSTORE PUSH1 0xC DUP3 SWAP1 SSTORE PUSH1 0x5 DUP1 SLOAD PUSH1 0xFF PUSH1 0xA0 SHL NOT AND PUSH1 0x1 PUSH1 0xA0 SHL OR SWAP1 SSTORE PUSH1 0x6 SLOAD PUSH1 0x40 MLOAD PUSH32 0x3844853BE672B18D859394AA37E05615B95B78E66B4DC37DCA98D1DB1B05EA7D SWAP3 PUSH2 0xFD3 SWAP3 DUP3 MSTORE PUSH1 0x20 DUP3 ADD MSTORE PUSH1 0x40 ADD SWAP1 JUMP JUMPDEST PUSH1 0x40 MLOAD DUP1 SWAP2 SUB SWAP1 LOG1 POP POP JUMP JUMPDEST PUSH2 0xFEC DUP4 DUP4 DUP4 PUSH1 0x1 PUSH2 0x1180 JUMP JUMPDEST POP POP POP JUMP JUMPDEST PUSH1 0x1 PUSH1 0x1 PUSH1 0xA0 SHL SUB DUP4 DUP2 AND PUSH0 SWAP1 DUP2 MSTORE PUSH1 0x1 PUSH1 0x20 SWAP1 DUP2 MSTORE PUSH1 0x40 DUP1 DUP4 KECCAK256 SWAP4 DUP7 AND DUP4 MSTORE SWAP3 SWAP1 MSTORE KECCAK256 SLOAD PUSH0 NOT DUP2 LT ISZERO PUSH2 0x1067 JUMPI DUP2 DUP2 LT ISZERO PUSH2 0x1059 JUMPI PUSH1 0x40 MLOAD PUSH4 0x7DC7A0D9 PUSH1 0xE1 SHL DUP2 MSTORE PUSH1 0x1 PUSH1 0x1 PUSH1 0xA0 SHL SUB DUP5 AND PUSH1 0x4 DUP3 ADD MSTORE PUSH1 0x24 DUP2 ADD DUP3 SWAP1 MSTORE PUSH1 0x44 DUP2 ADD DUP4 SWAP1 MSTORE PUSH1 0x64 ADD PUSH2 0x7FA JUMP JUMPDEST PUSH2 0x1067 DUP5 DUP5 DUP5 DUP5 SUB PUSH0 PUSH2 0x1180 JUMP JUMPDEST POP POP POP POP JUMP JUMPDEST PUSH1 0x1 PUSH1 0x1 PUSH1 0xA0 SHL SUB DUP4 AND PUSH2 0x1096 JUMPI PUSH1 0x40 MLOAD PUSH4 0x4B637E8F PUSH1 0xE1 SHL DUP2 MSTORE PUSH0 PUSH1 0x4 DUP3 ADD MSTORE PUSH1 0x24 ADD PUSH2 0x7FA JUMP JUMPDEST PUSH1 0x1 PUSH1 0x1 PUSH1 0xA0 SHL SUB DUP3 AND PUSH2 0x10BF JUMPI PUSH1 0x40 MLOAD PUSH4 0xEC442F05 PUSH1 0xE0 SHL DUP2 MSTORE PUSH0 PUSH1 0x4 DUP3 ADD MSTORE PUSH1 0x24 ADD PUSH2 0x7FA JUMP JUMPDEST PUSH2 0xFEC DUP4 DUP4 DUP4 PUSH2 0x1252 JUMP JUMPDEST PUSH1 0x5 SLOAD PUSH1 0x1 PUSH1 0x1 PUSH1 0xA0 SHL SUB AND CALLER EQ PUSH2 0x7A3 JUMPI PUSH1 0x40 MLOAD PUSH4 0x118CDAA7 PUSH1 0xE0 SHL DUP2 MSTORE CALLER PUSH1 0x4 DUP3 ADD MSTORE PUSH1 0x24 ADD PUSH2 0x7FA JUMP JUMPDEST PUSH1 0x5 DUP1 SLOAD PUSH1 0x1 PUSH1 0x1 PUSH1 0xA0 SHL SUB DUP4 DUP2 AND PUSH1 0x1 PUSH1 0x1 PUSH1 0xA0 SHL SUB NOT DUP4 AND DUP2 OR SWAP1 SWAP4 SSTORE PUSH1 0x40 MLOAD SWAP2 AND SWAP2 SWAP1 DUP3 SWAP1 PUSH32 0x8BE0079C531659141344CD1FD0A4F28419497F9722A3DAAFE3B4186F6B6457E0 SWAP1 PUSH0 SWAP1 LOG3 POP POP JUMP JUMPDEST PUSH1 0x1 PUSH1 0x1 PUSH1 0xA0 SHL SUB DUP3 AND PUSH2 0x1171 JUMPI PUSH1 0x40 MLOAD PUSH4 0xEC442F05 PUSH1 0xE0 SHL DUP2 MSTORE PUSH0 PUSH1 0x4 DUP3 ADD MSTORE PUSH1 0x24 ADD PUSH2 0x7FA JUMP JUMPDEST PUSH2 0x117C PUSH0 DUP4 DUP4 PUSH2 0x1252 JUMP JUMPDEST POP POP JUMP JUMPDEST PUSH1 0x1 PUSH1 0x1 PUSH1 0xA0 SHL SUB DUP5 AND PUSH2 0x11A9 JUMPI PUSH1 0x40 MLOAD PUSH4 0xE602DF05 PUSH1 0xE0 SHL DUP2 MSTORE PUSH0 PUSH1 0x4 DUP3 ADD MSTORE PUSH1 0x24 ADD PUSH2 0x7FA JUMP JUMPDEST PUSH1 0x1 PUSH1 0x1 PUSH1 0xA0 SHL SUB DUP4 AND PUSH2 0x11D2 JUMPI PUSH1 0x40 MLOAD PUSH4 0x4A1406B1 PUSH1 0xE1 SHL DUP2 MSTORE PUSH0 PUSH1 0x4 DUP3 ADD MSTORE PUSH1 0x24 ADD PUSH2 0x7FA JUMP JUMPDEST PUSH1 0x1 PUSH1 0x1 PUSH1 0xA0 SHL SUB DUP1 DUP6 AND PUSH0 SWAP1 DUP2 MSTORE PUSH1 0x1 PUSH1 0x20 SWAP1 DUP2 MSTORE PUSH1 0x40 DUP1 DUP4 KECCAK256 SWAP4 DUP8 AND DUP4 MSTORE SWAP3 SWAP1 MSTORE KECCAK256 DUP3 SWAP1 SSTORE DUP1 ISZERO PUSH2 0x1067 JUMPI DUP3 PUSH1 0x1 PUSH1 0x1 PUSH1 0xA0 SHL SUB AND DUP5 PUSH1 0x1 PUSH1 0x1 PUSH1 0xA0 SHL SUB AND PUSH32 0x8C5BE1E5EBEC7D5BD14F71427D1E84F3DD0314C0F7B2291E5B200AC8C7C3B925 DUP5 PUSH1 0x40 MLOAD PUSH2 0x1244 SWAP2 DUP2 MSTORE PUSH1 0x20 ADD SWAP1 JUMP JUMPDEST PUSH1 0x40 MLOAD DUP1 SWAP2 SUB SWAP1 LOG3 POP POP POP POP JUMP JUMPDEST PUSH1 0x1 PUSH1 0x1 PUSH1 0xA0 SHL SUB DUP4 AND PUSH2 0x127C JUMPI DUP1 PUSH1 0x2 PUSH0 DUP3 DUP3 SLOAD PUSH2 0x1271 SWAP2 SWAP1 PUSH2 0x1540 JUMP JUMPDEST SWAP1 SWAP2 SSTORE POP PUSH2 0x12EC SWAP1 POP JUMP JUMPDEST PUSH1 0x1 PUSH1 0x1 PUSH1 0xA0 SHL SUB DUP4 AND PUSH0 SWAP1 DUP2 MSTORE PUSH1 0x20 DUP2 SWAP1 MSTORE PUSH1 0x40 SWAP1 KECCAK256 SLOAD DUP2 DUP2 LT ISZERO PUSH2 0x12CE JUMPI PUSH1 0x40 MLOAD PUSH4 0x391434E3 PUSH1 0xE2 SHL DUP2 MSTORE PUSH1 0x1 PUSH1 0x1 PUSH1 0xA0 SHL SUB DUP6 AND PUSH1 0x4 DUP3 ADD MSTORE PUSH1 0x24 DUP2 ADD DUP3 SWAP1 MSTORE PUSH1 0x44 DUP2 ADD DUP4 SWAP1 MSTORE PUSH1 0x64 ADD PUSH2 0x7FA JUMP JUMPDEST PUSH1 0x1 PUSH1 0x1 PUSH1 0xA0 SHL SUB DUP5 AND PUSH0 SWAP1 DUP2 MSTORE PUSH1 0x20 DUP2 SWAP1 MSTORE PUSH1 0x40 SWAP1 KECCAK256 SWAP1 DUP3 SWAP1 SUB SWAP1 SSTORE JUMPDEST PUSH1 0x1 PUSH1 0x1 PUSH1 0xA0 SHL SUB DUP3 AND PUSH2 0x1308 JUMPI PUSH1 0x2 DUP1 SLOAD DUP3 SWAP1 SUB SWAP1 SSTORE PUSH2 0x1326 JUMP JUMPDEST PUSH1 0x1 PUSH1 0x1 PUSH1 0xA0 SHL SUB DUP3 AND PUSH0 SWAP1 DUP2 MSTORE PUSH1 0x20 DUP2 SWAP1 MSTORE PUSH1 0x40 SWAP1 KECCAK256 DUP1 SLOAD DUP3 ADD SWAP1 SSTORE JUMPDEST DUP2 PUSH1 0x1 PUSH1 0x1 PUSH1 0xA0 SHL SUB AND DUP4 PUSH1 0x1 PUSH1 0x1 PUSH1 0xA0 SHL SUB AND PUSH32 0xDDF252AD1BE2C89B69C2B068FC378DAA952BA7F163C4A11628F55A4DF523B3EF DUP4 PUSH1 0x40 MLOAD PUSH2 0x136B SWAP2 DUP2 MSTORE PUSH1 0x20 ADD SWAP1 JUMP JUMPDEST PUSH1 0x40 MLOAD DUP1 SWAP2 SUB SWAP1 LOG3 POP POP POP JUMP JUMPDEST PUSH1 0x20 DUP2 MSTORE PUSH0 DUP3 MLOAD DUP1 PUSH1 0x20 DUP5 ADD MSTORE DUP1 PUSH1 0x20 DUP6 ADD PUSH1 0x40 DUP6 ADD MCOPY PUSH0 PUSH1 0x40 DUP3 DUP6 ADD ADD MSTORE PUSH1 0x40 PUSH1 0x1F NOT PUSH1 0x1F DUP4 ADD AND DUP5 ADD ADD SWAP2 POP POP SWAP3 SWAP2 POP POP JUMP JUMPDEST DUP1 CALLDATALOAD PUSH1 0x1 PUSH1 0x1 PUSH1 0xA0 SHL SUB DUP2 AND DUP2 EQ PUSH2 0x13C3 JUMPI PUSH0 DUP1 REVERT JUMPDEST SWAP2 SWAP1 POP JUMP JUMPDEST PUSH0 DUP1 PUSH1 0x40 DUP4 DUP6 SUB SLT ISZERO PUSH2 0x13D9 JUMPI PUSH0 DUP1 REVERT JUMPDEST PUSH2 0x13E2 DUP4 PUSH2 0x13AD JUMP JUMPDEST SWAP5 PUSH1 0x20 SWAP4 SWAP1 SWAP4 ADD CALLDATALOAD SWAP4 POP POP POP JUMP JUMPDEST PUSH0 PUSH1 0x20 DUP3 DUP5 SUB SLT ISZERO PUSH2 0x1400 JUMPI PUSH0 DUP1 REVERT JUMPDEST PUSH2 0x768 DUP3 PUSH2 0x13AD JUMP JUMPDEST PUSH0 DUP1 PUSH0 PUSH1 0x60 DUP5 DUP7 SUB SLT ISZERO PUSH2 0x141B JUMPI PUSH0 DUP1 REVERT JUMPDEST PUSH2 0x1424 DUP5 PUSH2 0x13AD JUMP JUMPDEST SWAP3 POP PUSH2 0x1432 PUSH1 0x20 DUP6 ADD PUSH2 0x13AD JUMP JUMPDEST SWAP3 SWAP6 SWAP3 SWAP5 POP POP POP PUSH1 0x40 SWAP2 SWAP1 SWAP2 ADD CALLDATALOAD SWAP1 JUMP JUMPDEST PUSH0 PUSH1 0x20 DUP3 DUP5 SUB SLT ISZERO PUSH2 0x1453 JUMPI PUSH0 DUP1 REVERT JUMPDEST POP CALLDATALOAD SWAP2 SWAP1 POP JUMP JUMPDEST PUSH0 DUP1 PUSH1 0x40 DUP4 DUP6 SUB SLT ISZERO PUSH2 0x146B JUMPI PUSH0 DUP1 REVERT JUMPDEST PUSH2 0x1474 DUP4 PUSH2 0x13AD JUMP JUMPDEST SWAP2 POP PUSH2 0x1482 PUSH1 0x20 DUP5 ADD PUSH2 0x13AD JUMP JUMPDEST SWAP1 POP SWAP3 POP SWAP3 SWAP1 POP JUMP JUMPDEST PUSH0 DUP1 PUSH1 0x40 DUP4 DUP6 SUB SLT ISZERO PUSH2 0x149C JUMPI PUSH0 DUP1 REVERT JUMPDEST POP POP DUP1 CALLDATALOAD SWAP3 PUSH1 0x20 SWAP1 SWAP2 ADD CALLDATALOAD SWAP2 POP JUMP JUMPDEST PUSH1 0x1 DUP2 DUP2 SHR SWAP1 DUP3 AND DUP1 PUSH2 0x14BF JUMPI PUSH1 0x7F DUP3 AND SWAP2 POP JUMPDEST PUSH1 0x20 DUP3 LT DUP2 SUB PUSH2 0x14DD JUMPI PUSH4 0x4E487B71 PUSH1 0xE0 SHL PUSH0 MSTORE PUSH1 0x22 PUSH1 0x4 MSTORE PUSH1 0x24 PUSH0 REVERT JUMPDEST POP SWAP2 SWAP1 POP JUMP JUMPDEST PUSH4 0x4E487B71 PUSH1 0xE0 SHL PUSH0 MSTORE PUSH1 0x11 PUSH1 0x4 MSTORE PUSH1 0x24 PUSH0 REVERT JUMPDEST DUP2 DUP2 SUB DUP2 DUP2 GT ISZERO PUSH2 0x6EF JUMPI PUSH2 0x6EF PUSH2 0x14E3 JUMP JUMPDEST PUSH0 DUP3 PUSH2 0x1524 JUMPI PUSH4 0x4E487B71 PUSH1 0xE0 SHL PUSH0 MSTORE PUSH1 0x12 PUSH1 0x4 MSTORE PUSH1 0x24 PUSH0 REVERT JUMPDEST POP DIV SWAP1 JUMP JUMPDEST DUP1 DUP3 MUL DUP2 ISZERO DUP3 DUP3 DIV DUP5 EQ OR PUSH2 0x6EF JUMPI PUSH2 0x6EF PUSH2 0x14E3 JUMP JUMPDEST DUP1 DUP3 ADD DUP1 DUP3 GT ISZERO PUSH2 0x6EF JUMPI PUSH2 0x6EF PUSH2 0x14E3 JUMP JUMPDEST PUSH1 0x1 DUP2 JUMPDEST PUSH1 0x1 DUP5 GT ISZERO PUSH2 0x158E JUMPI DUP1 DUP6 DIV DUP2 GT ISZERO PUSH2 0x1572 JUMPI PUSH2 0x1572 PUSH2 0x14E3 JUMP JUMPDEST PUSH1 0x1 DUP5 AND ISZERO PUSH2 0x1580 JUMPI SWAP1 DUP2 MUL SWAP1 JUMPDEST PUSH1 0x1 SWAP4 SWAP1 SWAP4 SHR SWAP3 DUP1 MUL PUSH2 0x1557 JUMP JUMPDEST SWAP4 POP SWAP4 SWAP2 POP POP JUMP JUMPDEST PUSH0 DUP3 PUSH2 0x15A4 JUMPI POP PUSH1 0x1 PUSH2 0x6EF JUMP JUMPDEST DUP2 PUSH2 0x15B0 JUMPI POP PUSH0 PUSH2 0x6EF JUMP JUMPDEST DUP2 PUSH1 0x1 DUP2 EQ PUSH2 0x15C6 JUMPI PUSH1 0x2 DUP2 EQ PUSH2 0x15D0 JUMPI PUSH2 0x15EC JUMP JUMPDEST PUSH1 0x1 SWAP2 POP POP PUSH2 0x6EF JUMP JUMPDEST PUSH1 0xFF DUP5 GT ISZERO PUSH2 0x15E1 JUMPI PUSH2 0x15E1 PUSH2 0x14E3 JUMP JUMPDEST POP POP PUSH1 0x1 DUP3 SHL PUSH2 0x6EF JUMP JUMPDEST POP PUSH1 0x20 DUP4 LT PUSH2 0x133 DUP4 LT AND PUSH1 0x4E DUP5 LT PUSH1 0xB DUP5 LT AND OR ISZERO PUSH2 0x160F JUMPI POP DUP2 DUP2 EXP PUSH2 0x6EF JUMP JUMPDEST PUSH2 0x161B PUSH0 NOT DUP5 DUP5 PUSH2 0x1553 JUMP JUMPDEST DUP1 PUSH0 NOT DIV DUP3 GT ISZERO PUSH2 0x162E JUMPI PUSH2 0x162E PUSH2 0x14E3 JUMP JUMPDEST MUL SWAP4 SWAP3 POP POP POP JUMP JUMPDEST PUSH0 PUSH2 0x768 PUSH1 0xFF DUP5 AND DUP4 PUSH2 0x1596 JUMP JUMPDEST PUSH0 PUSH2 0x768 DUP4 DUP4 PUSH2 0x1596 JUMP INVALID LOG2 PUSH5 0x6970667358 0x22 SLT KECCAK256 SWAP4 SELFBALANCE SLOAD SWAP7 DUP15 0xDC PUSH17 0x7E4B911E06FBE7B31FCCBF6781BA1AF40E MSIZE SWAP15 CHAINID 0xF8 0xD4 DUP13 SHL PUSH12 0x64736F6C634300081A0033A2 PUSH5 0x6970667358 0x22 SLT KECCAK256 PUSH30 0xBC68AC77E5AD0D65E5A7602E1BA7A355F1A09270F55C1415646E5805BA67 SHR PUSH5 0x736F6C6343 STOP ADDMOD BYTE STOP CALLER "
		},
		"gasEstimates": {
			"creation": {
				"codeDepositCost": "2353800",
				"executionCost": "26757",
				"totalCost": "2380557"
			},
			"external": {
				"beforeAll()": "infinite",
				"checkIfUserCanBuyBeforePreSale()": "infinite",
				"checkPreSaleActivation()": "infinite",
				"checkPresaleStartedIsFalse()": "infinite",
				"checkSuccess()": "infinite",
				"testCalculatePricePreSaleEnded()": "infinite",
				"testCalculatePricePreSaleNotStarted()": "infinite",
				"testCalculateWeeks()": "infinite"
			}
		},
		"methodIdentifiers": {
			"beforeAll()": "7fea0d4b",
			"checkIfUserCanBuyBeforePreSale()": "b78d8f62",
			"checkPreSaleActivation()": "95c4c59e",
			"checkPresaleStartedIsFalse()": "18f128eb",
			"checkSuccess()": "011e6492",
			"testCalculatePricePreSaleEnded()": "d61c90da",
			"testCalculatePricePreSaleNotStarted()": "a77e7ac8",
			"testCalculateWeeks()": "7b70af2d"
		}
	},
	"abi": [
		{
			"inputs": [],
			"name": "beforeAll",
			"outputs": [],
			"stateMutability": "nonpayable",
			"type": "function"
		},
		{
			"inputs": [],
			"name": "checkIfUserCanBuyBeforePreSale",
			"outputs": [],
			"stateMutability": "nonpayable",
			"type": "function"
		},
		{
			"inputs": [],
			"name": "checkPreSaleActivation",
			"outputs": [],
			"stateMutability": "nonpayable",
			"type": "function"
		},
		{
			"inputs": [],
			"name": "checkPresaleStartedIsFalse",
			"outputs": [],
			"stateMutability": "nonpayable",
			"type": "function"
		},
		{
			"inputs": [],
			"name": "checkSuccess",
			"outputs": [],
			"stateMutability": "nonpayable",
			"type": "function"
		},
		{
			"inputs": [],
			"name": "testCalculatePricePreSaleEnded",
			"outputs": [],
			"stateMutability": "nonpayable",
			"type": "function"
		},
		{
			"inputs": [],
			"name": "testCalculatePricePreSaleNotStarted",
			"outputs": [],
			"stateMutability": "nonpayable",
			"type": "function"
		},
		{
			"inputs": [],
			"name": "testCalculateWeeks",
			"outputs": [],
			"stateMutability": "nonpayable",
			"type": "function"
		}
	]
}