{
	"data": {
		"bytecode": {
			"linkReferences": {
				"remix_tests.sol": {
					"Assert": [
						{
							"length": 20,
							"start": 481
						},
						{
							"length": 20,
							"start": 934
						},
						{
							"length": 20,
							"start": 1137
						},
						{
							"length": 20,
							"start": 1394
						},
						{
							"length": 20,
							"start": 1685
						},
						{
							"length": 20,
							"start": 1938
						},
						{
							"length": 20,
							"start": 2186
						},
						{
							"length": 20,
							"start": 2536
						},
						{
							"length": 20,
							"start": 3327
						},
						{
							"length": 20,
							"start": 3514
						},
						{
							"length": 20,
							"start": 3690
						},
						{
							"length": 20,
							"start": 3866
						},
						{
							"length": 20,
							"start": 4036
						},
						{
							"length": 20,
							"start": 4265
						},
						{
							"length": 20,
							"start": 4607
						},
						{
							"length": 20,
							"start": 4913
						},
						{
							"length": 20,
							"start": 5379
						},
						{
							"length": 20,
							"start": 5696
						},
						{
							"length": 20,
							"start": 6069
						},
						{
							"length": 20,
							"start": 6851
						},
						{
							"length": 20,
							"start": 7038
						},
						{
							"length": 20,
							"start": 7214
						},
						{
							"length": 20,
							"start": 7390
						},
						{
							"length": 20,
							"start": 7560
						},
						{
							"length": 20,
							"start": 7789
						},
						{
							"length": 20,
							"start": 7993
						}
					]
				}
			},
			"object": "6080604052600180546001600160a01b0319166101231790553480156022575f80fd5b50613fe6806100305f395ff3fe608060405234801561000f575f80fd5b50600436106100cb575f3560e01c806380cb4b9311610088578063b78d8f6211610063578063b78d8f6214610119578063bffc407214610121578063d23abfe014610129578063d5cc5b3414610131575f80fd5b806380cb4b931461010157806395c4c59e14610109578063a02660b614610111575f80fd5b8063011e6492146100cf57806318f128eb146100d957806339f03dad146100e15780636dd4de24146100e95780637b70af2d146100f15780637fea0d4b146100f9575b5f80fd5b6100d7610139565b005b6100d76102f0565b6100d76103a0565b6100d76104b1565b6100d7610579565b6100d7610687565b6100d76107c1565b6100d76108bd565b6100d76109e3565b6100d761136d565b6100d7611632565b6100d76117a7565b6100d7611e68565b5f805f9054906101000a90046001600160a01b03166001600160a01b03166318160ddd6040518163ffffffff1660e01b8152600401602060405180830381865afa158015610189573d5f803e3d5ffd5b505050506040513d601f19601f820116820180604052508101906101ad9190611f40565b905073__$acbfb1c35000d78352310b16a054a6b106$__63abcd7960825f8054906101000a90046001600160a01b03166001600160a01b031663313ce5676040518163ffffffff1660e01b8152600401602060405180830381865afa158015610218573d5f803e3d5ffd5b505050506040513d601f19601f8201168201806040525081019061023c9190611f57565b61024790600a612077565b61025490620f4240612085565b6040516001600160e01b031960e085901b1681526004810192909252602482015260606044820152601960648201527f546f74616c20737570706c792073686f756c64206d6174636800000000000000608482015260a4015b602060405180830381865af41580156102c8573d5f803e3d5ffd5b505050506040513d601f19601f820116820180604052508101906102ec919061209c565b5050565b5f805f9054906101000a90046001600160a01b03166001600160a01b03166330f72cd46040518163ffffffff1660e01b8152600401602060405180830381865afa158015610340573d5f803e3d5ffd5b505050506040513d601f19601f82011682018060405250810190610364919061209c565b60405163767392b360e01b815290915073__$acbfb1c35000d78352310b16a054a6b106$__9063767392b3906102ad905f9085906004016120bb565b5f621fa4006002546103b29190612102565b6002545f805460405163016331cb60e51b81526004810185905260248101849052939450919290916001600160a01b031690632c66396090604401602060405180830381865afa158015610408573d5f803e3d5ffd5b505050506040513d601f19601f8201168201806040525081019061042c9190611f40565b60405163055e6bcb60e51b815290915060039073__$acbfb1c35000d78352310b16a054a6b106$__9063abcd79609061046b9085908590600401612115565b602060405180830381865af4158015610486573d5f803e3d5ffd5b505050506040513d601f19601f820116820180604052508101906104aa919061209c565b5050505050565b5f620697806002546104c39190612102565b6002545f805460405163016331cb60e51b81526004810185905260248101849052939450919290916001600160a01b031690632c66396090604401602060405180830381865afa158015610519573d5f803e3d5ffd5b505050506040513d601f19601f8201168201806040525081019061053d9190611f40565b90505f73__$acbfb1c35000d78352310b16a054a6b106$__63abcd796083836040518363ffffffff1660e01b815260040161046b929190612115565b5f62093a8060025461058b9190612102565b6002545f805460405163016331cb60e51b81526004810185905260248101849052939450919290916001600160a01b031690632c66396090604401602060405180830381865afa1580156105e1573d5f803e3d5ffd5b505050506040513d601f19601f820116820180604052508101906106059190611f40565b60405163055e6bcb60e51b81526004810182905260016024820181905260606044830152602160648301527f5468652063616c63756c61746564207765656b732073686f756c6420626520316084830152601760f91b60a483015291925073__$acbfb1c35000d78352310b16a054a6b106$__9063abcd79609060c40161046b565b30620f424066038d7ea4c68000600a66071afd498d000060056040516106ac90611f33565b6001600160a01b039096168652602086019490945260408501929092526060840152608083015260a082015260c001604051809103905ff0801580156106f4573d5f803e3d5ffd5b505f80546001600160a01b0319166001600160a01b03929092169190911790554260025560405163055e6bcb60e51b81526001600482018190526024820152606060448201526016606482015275312073686f756c6420626520657175616c20746f203160501b608482015273__$acbfb1c35000d78352310b16a054a6b106$__9063abcd79609060a401602060405180830381865af415801561079a573d5f803e3d5ffd5b505050506040513d601f19601f820116820180604052508101906107be919061209c565b50565b6040516175308152735b38da6a701c568545dcfcb03fcb875f56beddc4907f8d9fc242eead7aebf4b509c32519beb6e2975a572c06310f797da4bd7f1ffab69060200160405180910390a160405163055e6bcb60e51b815260c86004820181905260248201819052606060448301526015606483015274042616c616e6365732073686f756c6420626520313605c1b608483015290819073__$acbfb1c35000d78352310b16a054a6b106$__9063abcd79609060a4015b602060405180830381865af4158015610893573d5f803e3d5ffd5b505050506040513d601f19601f820116820180604052508101906108b7919061209c565b50505050565b5f600254620151806108cf9190612162565b5f5460405163f9a81af760e01b81526004808201849052602482018190529293506001600160a01b039091169063f9a81af7906044015f604051808303815f87803b15801561091c575f80fd5b505af115801561092e573d5f803e3d5ffd5b505050505f805f9054906101000a90046001600160a01b03166001600160a01b03166330f72cd46040518163ffffffff1660e01b8152600401602060405180830381865afa158015610982573d5f803e3d5ffd5b505050506040513d601f19601f820116820180604052508101906109a6919061209c565b60405163767392b360e01b815290915073__$acbfb1c35000d78352310b16a054a6b106$__9063767392b3906108789060019085906004016120bb565b5f621518006002546109f59190612102565b905060045f610a078262093a80612085565b610a119084612162565b5f5460405163f9a81af760e01b815260048101869052602481018590529192506001600160a01b03169063f9a81af7906044015f604051808303815f87803b158015610a5b575f80fd5b505af1158015610a6d573d5f803e3d5ffd5b505050505f805f9054906101000a90046001600160a01b03166001600160a01b0316631d0806ae6040518163ffffffff1660e01b8152600401602060405180830381865afa158015610ac1573d5f803e3d5ffd5b505050506040513d601f19601f82011682018060405250810190610ae59190611f40565b90505f805f9054906101000a90046001600160a01b03166001600160a01b03166303e293a36040518163ffffffff1660e01b8152600401602060405180830381865afa158015610b37573d5f803e3d5ffd5b505050506040513d601f19601f82011682018060405250810190610b5b9190611f40565b90505f805f9054906101000a90046001600160a01b03166001600160a01b03166306d65af36040518163ffffffff1660e01b8152600401602060405180830381865afa158015610bad573d5f803e3d5ffd5b505050506040513d601f19601f82011682018060405250810190610bd19190611f40565b90505f805f9054906101000a90046001600160a01b03166001600160a01b031663cce29ea76040518163ffffffff1660e01b8152600401602060405180830381865afa158015610c23573d5f803e3d5ffd5b505050506040513d601f19601f82011682018060405250810190610c479190611f40565b90505f805f9054906101000a90046001600160a01b03166001600160a01b031663f8102e686040518163ffffffff1660e01b8152600401602060405180830381865afa158015610c99573d5f803e3d5ffd5b505050506040513d601f19601f82011682018060405250810190610cbd9190611f40565b60405163055e6bcb60e51b815290915073__$acbfb1c35000d78352310b16a054a6b106$__9063abcd796090610cf9908b908790600401612175565b602060405180830381865af4158015610d14573d5f803e3d5ffd5b505050506040513d601f19601f82011682018060405250810190610d38919061209c565b5060405163055e6bcb60e51b8152600481018790526024810183905260606044820152601f60648201527f636f6e747261637450726553616c65456e642073686f756c64206d6174636800608482015273__$acbfb1c35000d78352310b16a054a6b106$__9063abcd79609060a401602060405180830381865af4158015610dc2573d5f803e3d5ffd5b505050506040513d601f19601f82011682018060405250810190610de6919061209c565b5060405163055e6bcb60e51b81526004810186905266038d7ea4c6800060248201526060604482015260196064820152780e0e4caa6c2d8caa0e4d2c6ca40e6d0deead8c840dac2e8c6d603b1b608482015273__$acbfb1c35000d78352310b16a054a6b106$__9063abcd79609060a401602060405180830381865af4158015610e72573d5f803e3d5ffd5b505050506040513d601f19601f82011682018060405250810190610e96919061209c565b5060405163055e6bcb60e51b81526004810185905266071afd498d000060248201526060604482015260196064820152780e4caceead8c2e4a0e4d2c6ca40e6d0deead8c840dac2e8c6d603b1b608482015273__$acbfb1c35000d78352310b16a054a6b106$__9063abcd79609060a401602060405180830381865af4158015610f22573d5f803e3d5ffd5b505050506040513d601f19601f82011682018060405250810190610f46919061209c565b5060405163055e6bcb60e51b815260048101829052602481018890526060604482015260196064820152780e0e4caa6c2d8caaecacad6e640e6d0deead8c840dac2e8c6d603b1b608482015273__$acbfb1c35000d78352310b16a054a6b106$__9063abcd79609060a401602060405180830381865af4158015610fcc573d5f803e3d5ffd5b505050506040513d601f19601f82011682018060405250810190610ff0919061209c565b505f805460025460405163016331cb60e51b8152600481018c905260248101919091526001600160a01b0390911690632c66396090604401602060405180830381865afa158015611043573d5f803e3d5ffd5b505050506040513d601f19601f820116820180604052508101906110679190611f40565b60405163055e6bcb60e51b815290915073__$acbfb1c35000d78352310b16a054a6b106$__9063abcd7960906110a49084906002906004016121c2565b602060405180830381865af41580156110bf573d5f803e3d5ffd5b505050506040513d601f19601f820116820180604052508101906110e3919061209c565b505f81896110f18989612102565b6110fb9190612212565b6111059190612085565b90505f805f9054906101000a90046001600160a01b03166001600160a01b0316634405df4a6040518163ffffffff1660e01b8152600401602060405180830381865afa158015611157573d5f803e3d5ffd5b505050506040513d601f19601f8201168201806040525081019061117b9190611f40565b60405163055e6bcb60e51b8152600481018490526024810182905260606044820152601f60648201527f707269636520696e6372656173652073686f756c6420626520302e3565313500608482015290915073__$acbfb1c35000d78352310b16a054a6b106$__9063abcd79609060a401602060405180830381865af4158015611207573d5f803e3d5ffd5b505050506040513d601f19601f8201168201806040525081019061122b919061209c565b505f805f9054906101000a90046001600160a01b03166001600160a01b031663d348b4096040518163ffffffff1660e01b8152600401602060405180830381865afa15801561127c573d5f803e3d5ffd5b505050506040513d601f19601f820116820180604052508101906112a09190611f40565b90505f6112ad848b612162565b60405163055e6bcb60e51b8152600481018290526024810184905260606044820152601760648201527f7072696365202073686f756c6420626520312e35653135000000000000000000608482015290915073__$acbfb1c35000d78352310b16a054a6b106$__9063abcd79609060a401602060405180830381865af4158015611339573d5f803e3d5ffd5b505050506040513d601f19601f8201168201806040525081019061135d919061209c565b5050505050505050505050505050565b5f80546001546040516370a0823160e01b81526001600160a01b0391821660048201529116906370a0823190602401602060405180830381865afa1580156113b7573d5f803e3d5ffd5b505050506040513d601f19601f820116820180604052508101906113db9190611f40565b5f805460408051600481526024810182526020810180516001600160e01b031663343faf9360e21b179052905193945091926001600160a01b0390911691670de0b6b3a76400009161142d9190612231565b5f6040518083038185875af1925050503d805f8114611467576040519150601f19603f3d011682016040523d82523d5f602084013e61146c565b606091505b505060405163767392b360e01b815281151560048201525f602482015260606044820152602860648201527f50726573616c65206e6f74206163746976652c2070757263686173652073686f6084820152671d5b190819985a5b60c21b60a482015290915073__$acbfb1c35000d78352310b16a054a6b106$__9063767392b39060c401602060405180830381865af415801561150b573d5f803e3d5ffd5b505050506040513d601f19601f8201168201806040525081019061152f919061209c565b505f80546001546040516370a0823160e01b81526001600160a01b0391821660048201529116906370a0823190602401602060405180830381865afa15801561157a573d5f803e3d5ffd5b505050506040513d601f19601f8201168201806040525081019061159e9190611f40565b60405163055e6bcb60e51b8152600481018590526024810182905260606044820152603560648201527f42757965722062616c616e63652073686f756c64206e6f74206368616e6765206084820152746265666f72652070726573616c652073746172747360581b60a482015290915073__$acbfb1c35000d78352310b16a054a6b106$__9063abcd79609060c401610878565b5f620697806002546116449190612102565b5f5460405163f9a81af760e01b81526004808201849052602482018190529293506001600160a01b039091169063f9a81af7906044015f604051808303815f87803b158015611691575f80fd5b505af11580156116a3573d5f803e3d5ffd5b505050505f805f9054906101000a90046001600160a01b03166001600160a01b0316634405df4a6040518163ffffffff1660e01b8152600401602060405180830381865afa1580156116f7573d5f803e3d5ffd5b505050506040513d601f19601f8201168201806040525081019061171b9190611f40565b60405163055e6bcb60e51b81525f600482018190526024820183905260606044830152602c60648301527f507269636520696e63726561736520647572696e67206669727374207765656b60848301526b02073686f756c6420626520360a41b60a483015291925073__$acbfb1c35000d78352310b16a054a6b106$__9063abcd79609060c40161046b565b5f621fa4006002546117b99190612102565b905060045f6117cb8262093a80612085565b6117d59084612162565b5f5460405163f9a81af760e01b815260048101869052602481018590529192506001600160a01b03169063f9a81af7906044015f604051808303815f87803b15801561181f575f80fd5b505af1158015611831573d5f803e3d5ffd5b505050505f805f9054906101000a90046001600160a01b03166001600160a01b0316631d0806ae6040518163ffffffff1660e01b8152600401602060405180830381865afa158015611885573d5f803e3d5ffd5b505050506040513d601f19601f820116820180604052508101906118a99190611f40565b90505f805f9054906101000a90046001600160a01b03166001600160a01b03166303e293a36040518163ffffffff1660e01b8152600401602060405180830381865afa1580156118fb573d5f803e3d5ffd5b505050506040513d601f19601f8201168201806040525081019061191f9190611f40565b90505f805f9054906101000a90046001600160a01b03166001600160a01b03166306d65af36040518163ffffffff1660e01b8152600401602060405180830381865afa158015611971573d5f803e3d5ffd5b505050506040513d601f19601f820116820180604052508101906119959190611f40565b90505f805f9054906101000a90046001600160a01b03166001600160a01b031663cce29ea76040518163ffffffff1660e01b8152600401602060405180830381865afa1580156119e7573d5f803e3d5ffd5b505050506040513d601f19601f82011682018060405250810190611a0b9190611f40565b90505f805f9054906101000a90046001600160a01b03166001600160a01b031663f8102e686040518163ffffffff1660e01b8152600401602060405180830381865afa158015611a5d573d5f803e3d5ffd5b505050506040513d601f19601f82011682018060405250810190611a819190611f40565b60405163055e6bcb60e51b815290915073__$acbfb1c35000d78352310b16a054a6b106$__9063abcd796090611abd908b908790600401612175565b602060405180830381865af4158015611ad8573d5f803e3d5ffd5b505050506040513d601f19601f82011682018060405250810190611afc919061209c565b5060405163055e6bcb60e51b8152600481018790526024810183905260606044820152601f60648201527f636f6e747261637450726553616c65456e642073686f756c64206d6174636800608482015273__$acbfb1c35000d78352310b16a054a6b106$__9063abcd79609060a401602060405180830381865af4158015611b86573d5f803e3d5ffd5b505050506040513d601f19601f82011682018060405250810190611baa919061209c565b5060405163055e6bcb60e51b81526004810186905266038d7ea4c6800060248201526060604482015260196064820152780e0e4caa6c2d8caa0e4d2c6ca40e6d0deead8c840dac2e8c6d603b1b608482015273__$acbfb1c35000d78352310b16a054a6b106$__9063abcd79609060a401602060405180830381865af4158015611c36573d5f803e3d5ffd5b505050506040513d601f19601f82011682018060405250810190611c5a919061209c565b5060405163055e6bcb60e51b81526004810185905266071afd498d000060248201526060604482015260196064820152780e4caceead8c2e4a0e4d2c6ca40e6d0deead8c840dac2e8c6d603b1b608482015273__$acbfb1c35000d78352310b16a054a6b106$__9063abcd79609060a401602060405180830381865af4158015611ce6573d5f803e3d5ffd5b505050506040513d601f19601f82011682018060405250810190611d0a919061209c565b5060405163055e6bcb60e51b815260048101829052602481018890526060604482015260196064820152780e0e4caa6c2d8caaecacad6e640e6d0deead8c840dac2e8c6d603b1b608482015273__$acbfb1c35000d78352310b16a054a6b106$__9063abcd79609060a401602060405180830381865af4158015611d90573d5f803e3d5ffd5b505050506040513d601f19601f82011682018060405250810190611db4919061209c565b505f805460025460405163016331cb60e51b8152600481018c905260248101919091526001600160a01b0390911690632c66396090604401602060405180830381865afa158015611e07573d5f803e3d5ffd5b505050506040513d601f19601f82011682018060405250810190611e2b9190611f40565b60405163055e6bcb60e51b815290915073__$acbfb1c35000d78352310b16a054a6b106$__9063abcd7960906110a49084906003906004016121c2565b5f62127500600254611e7a9190612102565b6002545f805460405163016331cb60e51b81526004810185905260248101849052939450919290916001600160a01b031690632c66396090604401602060405180830381865afa158015611ed0573d5f803e3d5ffd5b505050506040513d601f19601f82011682018060405250810190611ef49190611f40565b60405163055e6bcb60e51b815290915060029073__$acbfb1c35000d78352310b16a054a6b106$__9063abcd79609061046b9085908590600401612115565b611d698061224883390190565b5f60208284031215611f50575f80fd5b5051919050565b5f60208284031215611f67575f80fd5b815160ff81168114611f77575f80fd5b9392505050565b634e487b7160e01b5f52601160045260245ffd5b6001815b6001841115611fcd57808504811115611fb157611fb1611f7e565b6001841615611fbf57908102905b60019390931c928002611f96565b935093915050565b5f82611fe357506001612071565b81611fef57505f612071565b8160018114612005576002811461200f5761202b565b6001915050612071565b60ff84111561202057612020611f7e565b50506001821b612071565b5060208310610133831016604e8410600b841016171561204e575081810a612071565b61205a5f198484611f92565b805f190482111561206d5761206d611f7e565b0290505b92915050565b5f611f7760ff841683611fd5565b808202811582820484141761207157612071611f7e565b5f602082840312156120ac575f80fd5b81518015158114611f77575f80fd5b9115158252151560208201526060604082018190526018908201527f50726573616c652073686f756c64206265206163746976650000000000000000608082015260a00190565b8181038181111561207157612071611f7e565b91825260208201526060604082018190526021908201527f5468652063616c63756c61746564207765656b732073686f756c6420626520326080820152601760f91b60a082015260c00190565b8082018082111561207157612071611f7e565b91825260208201526060604082018190526021908201527f636f6e747261637450726553616c6553746172742073686f756c64206d6174636080820152600d60fb1b60a082015260c00190565b828152816020820152606060408201525f61220a60608301601881527f7765656b73456c61707365642073686f756c6420626520320000000000000000602082015260400190565b949350505050565b5f8261222c57634e487b7160e01b5f52601260045260245ffd5b500490565b5f82518060208501845e5f92019182525091905056fe608060405234801561000f575f80fd5b50604051611d69380380611d6983398101604081905261002e916102ba565b856040518060400160405280600b81526020016a2730ba3ab932aa37b5b2b760a91b81525060405180604001604052806003815260200162272a2960e91b815250816003908161007e91906103ac565b50600461008b82826103ac565b5050506001600160a01b0381166100bc57604051631e4fbdf760e01b81525f60048201526024015b60405180910390fd5b6100c58161010b565b506100e5306100d66012600a61055f565b6100e09088610574565b61015c565b600893909355600a91909155600955600d5550506005805460ff60a01b1916905561059e565b600580546001600160a01b038381166001600160a01b0319831681179093556040519116919082907f8be0079c531659141344cd1fd0a4f28419497f9722a3daafe3b4186f6b6457e0905f90a35050565b6001600160a01b0382166101855760405163ec442f0560e01b81525f60048201526024016100b3565b6101905f8383610194565b5050565b6001600160a01b0383166101be578060025f8282546101b3919061058b565b9091555061022e9050565b6001600160a01b0383165f90815260208190526040902054818110156102105760405163391434e360e21b81526001600160a01b038516600482015260248101829052604481018390526064016100b3565b6001600160a01b0384165f9081526020819052604090209082900390555b6001600160a01b03821661024a57600280548290039055610268565b6001600160a01b0382165f9081526020819052604090208054820190555b816001600160a01b0316836001600160a01b03167fddf252ad1be2c89b69c2b068fc378daa952ba7f163c4a11628f55a4df523b3ef836040516102ad91815260200190565b60405180910390a3505050565b5f805f805f8060c087890312156102cf575f80fd5b86516001600160a01b03811681146102e5575f80fd5b6020880151604089015160608a015160808b015160a0909b0151939c929b509099909850965090945092505050565b634e487b7160e01b5f52604160045260245ffd5b600181811c9082168061033c57607f821691505b60208210810361035a57634e487b7160e01b5f52602260045260245ffd5b50919050565b601f8211156103a757805f5260205f20601f840160051c810160208510156103855750805b601f840160051c820191505b818110156103a4575f8155600101610391565b50505b505050565b81516001600160401b038111156103c5576103c5610314565b6103d9816103d38454610328565b84610360565b6020601f82116001811461040b575f83156103f45750848201515b5f19600385901b1c1916600184901b1784556103a4565b5f84815260208120601f198516915b8281101561043a578785015182556020948501946001909201910161041a565b508482101561045757868401515f19600387901b60f8161c191681555b50505050600190811b01905550565b634e487b7160e01b5f52601160045260245ffd5b6001815b60018411156104b55780850481111561049957610499610466565b60018416156104a757908102905b60019390931c92800261047e565b935093915050565b5f826104cb57506001610559565b816104d757505f610559565b81600181146104ed57600281146104f757610513565b6001915050610559565b60ff84111561050857610508610466565b50506001821b610559565b5060208310610133831016604e8410600b8410161715610536575081810a610559565b6105425f19848461047a565b805f190482111561055557610555610466565b0290505b92915050565b5f61056d60ff8416836104bd565b9392505050565b808202811582820484141761055957610559610466565b8082018082111561055957610559610466565b6117be806105ab5f395ff3fe608060405260043610610228575f3560e01c80637547c7a311610129578063a9059cbb116100a8578063dd62ed3e1161006d578063dd62ed3e14610634578063f2fde38b14610678578063f8102e6814610697578063f9931855146106ac578063f9a81af7146106d7575f80fd5b8063a9059cbb146105b9578063cce29ea7146105d8578063cec297a0146105ed578063d0febe4c14610618578063d348b40914610620575f80fd5b806395d89b41116100ee57806395d89b41146105105780639b19251a146105245780639ca423b314610552578063a09c4cf414610586578063a5ce413b146105a5575f80fd5b80637547c7a3146104625780637c613b2f146104815780638265324d146104955780638da5cb5b146104b45780638f0794fe146104e5575f80fd5b80632c663960116101b55780634f3fc2df1161017a5780634f3fc2df146103d9578063518ab2a8146103ee57806370a0823114610403578063715018a6146104375780637165d19b1461044d575f80fd5b80632c6639601461034b57806330f72cd41461036a578063313ce5671461038a578063329a27e7146103a55780634405df4a146103c5575f80fd5b80630d505541116101fb5780630d505541146102b957806318160ddd146102d85780631d0806ae146102ec57806323b872dd1461030157806327e235e314610320575f80fd5b806303e293a31461022c57806306d65af31461025457806306fdde0314610269578063095ea7b31461028a575b5f80fd5b348015610237575f80fd5b5061024160095481565b6040519081526020015b60405180910390f35b34801561025f575f80fd5b5061024160065481565b348015610274575f80fd5b5061027d6106f6565b60405161024b91906114b1565b348015610295575f80fd5b506102a96102a4366004611501565b610786565b604051901515815260200161024b565b3480156102c4575f80fd5b506102416102d3366004611529565b61079f565b3480156102e3575f80fd5b50600254610241565b3480156102f7575f80fd5b5061024160085481565b34801561030c575f80fd5b506102a961031b366004611542565b610819565b34801561032b575f80fd5b5061024161033a366004611529565b60136020525f908152604090205481565b348015610356575f80fd5b5061024161036536600461157c565b61083c565b348015610375575f80fd5b506005546102a990600160a01b900460ff1681565b348015610395575f80fd5b506040516012815260200161024b565b3480156103b0575f80fd5b50335f90815260136020526040902054610241565b3480156103d0575f80fd5b506102416108bd565b3480156103e4575f80fd5b50610241600d5481565b3480156103f9575f80fd5b50610241600b5481565b34801561040e575f80fd5b5061024161041d366004611529565b6001600160a01b03165f9081526020819052604090205490565b348015610442575f80fd5b5061044b6108e2565b005b348015610458575f80fd5b50610241600a5481565b34801561046d575f80fd5b5061044b61047c36600461159c565b6108f5565b34801561048c575f80fd5b5061044b610a20565b3480156104a0575f80fd5b506102416104af366004611529565b610b1d565b3480156104bf575f80fd5b506005546001600160a01b03165b6040516001600160a01b03909116815260200161024b565b3480156104f0575f80fd5b506102416104ff366004611529565b600f6020525f908152604090205481565b34801561051b575f80fd5b5061027d610b58565b34801561052f575f80fd5b506102a961053e366004611529565b60106020525f908152604090205460ff1681565b34801561055d575f80fd5b506104cd61056c366004611529565b60116020525f90815260409020546001600160a01b031681565b348015610591575f80fd5b5061044b6105a0366004611529565b610b67565b3480156105b0575f80fd5b5061044b610cde565b3480156105c4575f80fd5b506102a96105d3366004611501565b610e16565b3480156105e3575f80fd5b5061024160075481565b3480156105f8575f80fd5b50610241610607366004611529565b60126020525f908152604090205481565b61044b610e23565b34801561062b575f80fd5b50610241610fcc565b34801561063f575f80fd5b5061024161064e3660046115b3565b6001600160a01b039182165f90815260016020908152604080832093909416825291909152205490565b348015610683575f80fd5b5061044b610692366004611529565b611052565b3480156106a2575f80fd5b50610241600c5481565b3480156106b7575f80fd5b506102416106c6366004611529565b600e6020525f908152604090205481565b3480156106e2575f80fd5b5061044b6106f136600461157c565b61108f565b606060038054610705906115e4565b80601f0160208091040260200160405190810160405280929190818152602001828054610731906115e4565b801561077c5780601f106107535761010080835404028352916020019161077c565b820191905f5260205f20905b81548152906001019060200180831161075f57829003601f168201915b5050505050905090565b5f33610793818585611118565b60019150505b92915050565b6001600160a01b0381165f908152600f6020526040812054819062093a80906107c89042611630565b6107d29190611643565b600d546001600160a01b0385165f908152600e602052604090205491925060649183916107fe91611662565b6108089190611662565b6108129190611643565b9392505050565b5f3361082685828561112a565b6108318585856111a6565b506001949350505050565b5f8282101561089c5760405162461bcd60e51b815260206004820152602160248201527f456e642074696d65206d7573742062652061667465722073746172742074696d6044820152606560f81b60648201526084015b60405180910390fd5b5f62093a806108ab8585611630565b6108b59190611643565b949350505050565b5f806108cb6006544261083c565b90505f600c54826008546009546107fe9190611630565b6108ea611203565b6108f35f611230565b565b5f811161094e5760405162461bcd60e51b815260206004820152602160248201527f416d6f756e74206d7573742062652067726561746572207468616e207a65726f6044820152601760f91b6064820152608401610893565b335f908152602081905260409020548111156109a45760405162461bcd60e51b815260206004820152601560248201527424b739bab33334b1b4b2b73a103130b630b731b29760591b6044820152606401610893565b6109af3330836111a6565b335f908152600e6020526040812080548392906109cd908490611679565b9091555050335f818152600f602052604090819020429055517fb539ca1e5c8d398ddf1c41c30166f33404941683be4683319b57669a93dad4ef90610a159084815260200190565b60405180910390a250565b600554600160a01b900460ff161515600114610a7e5760405162461bcd60e51b815260206004820152601760248201527f50726573616c65206e6f742073746172746564207965740000000000000000006044820152606401610893565b5f610a8833610b1d565b90505f8111610ad05760405162461bcd60e51b81526020600482015260146024820152734e6f207265776172647320617661696c61626c6560601b6044820152606401610893565b610ada3382611281565b335f8181526012602052604080822091909155517ff0bc0a70fe19ef2d8dc1e1948b338a1184184fb1ea3ac836f24065828816d68d90610a159084815260200190565b5f610b2a6012600a61176f565b6001600160a01b0383165f90815260126020526040902054610b4e906101f4611662565b6107999190611662565b606060048054610705906115e4565b335f9081526010602052604090205460ff1615610bbc5760405162461bcd60e51b8152602060048201526013602482015272105b1c9958591e481dda1a5d195b1a5cdd1959606a1b6044820152606401610893565b6001600160a01b0381163303610c0c5760405162461bcd60e51b815260206004820152601560248201527421b0b73737ba103932b332b9103cb7bab939b2b63360591b6044820152606401610893565b335f908152601060205260409020805460ff191660011790556001600160a01b03811615801590610c5457506001600160a01b0381165f9081526010602052604090205460ff165b15610ca657335f90815260116020908152604080832080546001600160a01b0319166001600160a01b038616908117909155835260129091528120805460019290610ca0908490611679565b90915550505b6040516001600160a01b0382169033907f4bc18aa4b0095c9a3b5cdf42d2322d5a145591b04045988a995a5da426075457905f90a350565b335f908152600e602052604090205480610d2e5760405162461bcd60e51b81526020600482015260116024820152702737903a37b5b2b7399039ba30b5b2b21760791b6044820152606401610893565b335f908152600f6020526040902054610d4a906224ea00611679565b421015610d995760405162461bcd60e51b815260206004820152601b60248201527f556e7374616b65206f6e6c792061667465722034207765656b732e00000000006044820152606401610893565b5f610da33361079f565b335f818152600e60209081526040808320839055600f909152812055909150610dd7903090610dd28486611679565b6111a6565b604080518381526020810183905233917f6f2d3e000c89d37446b7c0374c0125068ff316d1e3ee302336478a8cd03c2336910160405180910390a25050565b5f336107938185856111a6565b600554600160a01b900460ff16610e6f5760405162461bcd60e51b815260206004820152601060248201526f29b0b632903737ba1030b1ba34bb329760811b6044820152606401610893565b5f3411610ebe5760405162461bcd60e51b815260206004820152601c60248201527f4d7573742073656e642045544820746f2062757920746f6b656e732e000000006044820152606401610893565b5f610ec7610fcc565b90505f81610ed76012600a61177d565b610ee19034611662565b610eeb9190611643565b305f90815260208190526040902054909150811115610f4c5760405162461bcd60e51b815260206004820152601c60248201527f4e6f7420656e6f75676820746f6b656e7320617661696c61626c652e000000006044820152606401610893565b335f9081526013602052604081208054839290610f6a908490611679565b90915550610f7b90503033836111a6565b80600b5f828254610f8c9190611679565b9091555050604051818152339030907fddf252ad1be2c89b69c2b068fc378daa952ba7f163c4a11628f55a4df523b3ef9060200160405180910390a35050565b6005545f90600160a01b900460ff166110275760405162461bcd60e51b815260206004820152601860248201527f5072652d73616c65206e6f7420737461727465642079657400000000000000006044820152606401610893565b600754421115611038575060095490565b5f6110416108bd565b90505f816008546108129190611679565b61105a611203565b6001600160a01b03811661108357604051631e4fbdf760e01b81525f6004820152602401610893565b61108c81611230565b50565b611097611203565b60068290556110a98162093a80611662565b6006546110b69190611679565b6007819055600c8290556005805460ff60a01b1916600160a01b1790556006546040517f3844853be672b18d859394aa37e05615b95b78e66b4dc37dca98d1db1b05ea7d9261110c928252602082015260400190565b60405180910390a15050565b61112583838360016112b9565b505050565b6001600160a01b038381165f908152600160209081526040808320938616835292905220545f198110156111a0578181101561119257604051637dc7a0d960e11b81526001600160a01b03841660048201526024810182905260448101839052606401610893565b6111a084848484035f6112b9565b50505050565b6001600160a01b0383166111cf57604051634b637e8f60e11b81525f6004820152602401610893565b6001600160a01b0382166111f85760405163ec442f0560e01b81525f6004820152602401610893565b61112583838361138b565b6005546001600160a01b031633146108f35760405163118cdaa760e01b8152336004820152602401610893565b600580546001600160a01b038381166001600160a01b0319831681179093556040519116919082907f8be0079c531659141344cd1fd0a4f28419497f9722a3daafe3b4186f6b6457e0905f90a35050565b6001600160a01b0382166112aa5760405163ec442f0560e01b81525f6004820152602401610893565b6112b55f838361138b565b5050565b6001600160a01b0384166112e25760405163e602df0560e01b81525f6004820152602401610893565b6001600160a01b03831661130b57604051634a1406b160e11b81525f6004820152602401610893565b6001600160a01b038085165f90815260016020908152604080832093871683529290522082905580156111a057826001600160a01b0316846001600160a01b03167f8c5be1e5ebec7d5bd14f71427d1e84f3dd0314c0f7b2291e5b200ac8c7c3b9258460405161137d91815260200190565b60405180910390a350505050565b6001600160a01b0383166113b5578060025f8282546113aa9190611679565b909155506114259050565b6001600160a01b0383165f90815260208190526040902054818110156114075760405163391434e360e21b81526001600160a01b03851660048201526024810182905260448101839052606401610893565b6001600160a01b0384165f9081526020819052604090209082900390555b6001600160a01b0382166114415760028054829003905561145f565b6001600160a01b0382165f9081526020819052604090208054820190555b816001600160a01b0316836001600160a01b03167fddf252ad1be2c89b69c2b068fc378daa952ba7f163c4a11628f55a4df523b3ef836040516114a491815260200190565b60405180910390a3505050565b602081525f82518060208401528060208501604085015e5f604082850101526040601f19601f83011684010191505092915050565b80356001600160a01b03811681146114fc575f80fd5b919050565b5f8060408385031215611512575f80fd5b61151b836114e6565b946020939093013593505050565b5f60208284031215611539575f80fd5b610812826114e6565b5f805f60608486031215611554575f80fd5b61155d846114e6565b925061156b602085016114e6565b929592945050506040919091013590565b5f806040838503121561158d575f80fd5b50508035926020909101359150565b5f602082840312156115ac575f80fd5b5035919050565b5f80604083850312156115c4575f80fd5b6115cd836114e6565b91506115db602084016114e6565b90509250929050565b600181811c908216806115f857607f821691505b60208210810361161657634e487b7160e01b5f52602260045260245ffd5b50919050565b634e487b7160e01b5f52601160045260245ffd5b818103818111156107995761079961161c565b5f8261165d57634e487b7160e01b5f52601260045260245ffd5b500490565b80820281158282048414176107995761079961161c565b808201808211156107995761079961161c565b6001815b60018411156116c7578085048111156116ab576116ab61161c565b60018416156116b957908102905b60019390931c928002611690565b935093915050565b5f826116dd57506001610799565b816116e957505f610799565b81600181146116ff576002811461170957611725565b6001915050610799565b60ff84111561171a5761171a61161c565b50506001821b610799565b5060208310610133831016604e8410600b8410161715611748575081810a610799565b6117545f19848461168c565b805f19048211156117675761176761161c565b029392505050565b5f61081260ff8416836116cf565b5f61081283836116cf56fea26469706673582212205d521d1ae1f21240297ec515b6642dd72b6881ae8f8df88092b8e4ddd16de89864736f6c634300081a0033a2646970667358221220fab7c9cdfe00653ee49ce00216ea22057754325267aeb55028c2e6bf903bfed964736f6c634300081a0033",
			"opcodes": "PUSH1 0x80 PUSH1 0x40 MSTORE PUSH1 0x1 DUP1 SLOAD PUSH1 0x1 PUSH1 0x1 PUSH1 0xA0 SHL SUB NOT AND PUSH2 0x123 OR SWAP1 SSTORE CALLVALUE DUP1 ISZERO PUSH1 0x22 JUMPI PUSH0 DUP1 REVERT JUMPDEST POP PUSH2 0x3FE6 DUP1 PUSH2 0x30 PUSH0 CODECOPY PUSH0 RETURN INVALID PUSH1 0x80 PUSH1 0x40 MSTORE CALLVALUE DUP1 ISZERO PUSH2 0xF JUMPI PUSH0 DUP1 REVERT JUMPDEST POP PUSH1 0x4 CALLDATASIZE LT PUSH2 0xCB JUMPI PUSH0 CALLDATALOAD PUSH1 0xE0 SHR DUP1 PUSH4 0x80CB4B93 GT PUSH2 0x88 JUMPI DUP1 PUSH4 0xB78D8F62 GT PUSH2 0x63 JUMPI DUP1 PUSH4 0xB78D8F62 EQ PUSH2 0x119 JUMPI DUP1 PUSH4 0xBFFC4072 EQ PUSH2 0x121 JUMPI DUP1 PUSH4 0xD23ABFE0 EQ PUSH2 0x129 JUMPI DUP1 PUSH4 0xD5CC5B34 EQ PUSH2 0x131 JUMPI PUSH0 DUP1 REVERT JUMPDEST DUP1 PUSH4 0x80CB4B93 EQ PUSH2 0x101 JUMPI DUP1 PUSH4 0x95C4C59E EQ PUSH2 0x109 JUMPI DUP1 PUSH4 0xA02660B6 EQ PUSH2 0x111 JUMPI PUSH0 DUP1 REVERT JUMPDEST DUP1 PUSH4 0x11E6492 EQ PUSH2 0xCF JUMPI DUP1 PUSH4 0x18F128EB EQ PUSH2 0xD9 JUMPI DUP1 PUSH4 0x39F03DAD EQ PUSH2 0xE1 JUMPI DUP1 PUSH4 0x6DD4DE24 EQ PUSH2 0xE9 JUMPI DUP1 PUSH4 0x7B70AF2D EQ PUSH2 0xF1 JUMPI DUP1 PUSH4 0x7FEA0D4B EQ PUSH2 0xF9 JUMPI JUMPDEST PUSH0 DUP1 REVERT JUMPDEST PUSH2 0xD7 PUSH2 0x139 JUMP JUMPDEST STOP JUMPDEST PUSH2 0xD7 PUSH2 0x2F0 JUMP JUMPDEST PUSH2 0xD7 PUSH2 0x3A0 JUMP JUMPDEST PUSH2 0xD7 PUSH2 0x4B1 JUMP JUMPDEST PUSH2 0xD7 PUSH2 0x579 JUMP JUMPDEST PUSH2 0xD7 PUSH2 0x687 JUMP JUMPDEST PUSH2 0xD7 PUSH2 0x7C1 JUMP JUMPDEST PUSH2 0xD7 PUSH2 0x8BD JUMP JUMPDEST PUSH2 0xD7 PUSH2 0x9E3 JUMP JUMPDEST PUSH2 0xD7 PUSH2 0x136D JUMP JUMPDEST PUSH2 0xD7 PUSH2 0x1632 JUMP JUMPDEST PUSH2 0xD7 PUSH2 0x17A7 JUMP JUMPDEST PUSH2 0xD7 PUSH2 0x1E68 JUMP JUMPDEST PUSH0 DUP1 PUSH0 SWAP1 SLOAD SWAP1 PUSH2 0x100 EXP SWAP1 DIV PUSH1 0x1 PUSH1 0x1 PUSH1 0xA0 SHL SUB AND PUSH1 0x1 PUSH1 0x1 PUSH1 0xA0 SHL SUB AND PUSH4 0x18160DDD PUSH1 0x40 MLOAD DUP2 PUSH4 0xFFFFFFFF AND PUSH1 0xE0 SHL DUP2 MSTORE PUSH1 0x4 ADD PUSH1 0x20 PUSH1 0x40 MLOAD DUP1 DUP4 SUB DUP2 DUP7 GAS STATICCALL ISZERO DUP1 ISZERO PUSH2 0x189 JUMPI RETURNDATASIZE PUSH0 DUP1 RETURNDATACOPY RETURNDATASIZE PUSH0 REVERT JUMPDEST POP POP POP POP PUSH1 0x40 MLOAD RETURNDATASIZE PUSH1 0x1F NOT PUSH1 0x1F DUP3 ADD AND DUP3 ADD DUP1 PUSH1 0x40 MSTORE POP DUP2 ADD SWAP1 PUSH2 0x1AD SWAP2 SWAP1 PUSH2 0x1F40 JUMP JUMPDEST SWAP1 POP PUSH20 0x0 PUSH4 0xABCD7960 DUP3 PUSH0 DUP1 SLOAD SWAP1 PUSH2 0x100 EXP SWAP1 DIV PUSH1 0x1 PUSH1 0x1 PUSH1 0xA0 SHL SUB AND PUSH1 0x1 PUSH1 0x1 PUSH1 0xA0 SHL SUB AND PUSH4 0x313CE567 PUSH1 0x40 MLOAD DUP2 PUSH4 0xFFFFFFFF AND PUSH1 0xE0 SHL DUP2 MSTORE PUSH1 0x4 ADD PUSH1 0x20 PUSH1 0x40 MLOAD DUP1 DUP4 SUB DUP2 DUP7 GAS STATICCALL ISZERO DUP1 ISZERO PUSH2 0x218 JUMPI RETURNDATASIZE PUSH0 DUP1 RETURNDATACOPY RETURNDATASIZE PUSH0 REVERT JUMPDEST POP POP POP POP PUSH1 0x40 MLOAD RETURNDATASIZE PUSH1 0x1F NOT PUSH1 0x1F DUP3 ADD AND DUP3 ADD DUP1 PUSH1 0x40 MSTORE POP DUP2 ADD SWAP1 PUSH2 0x23C SWAP2 SWAP1 PUSH2 0x1F57 JUMP JUMPDEST PUSH2 0x247 SWAP1 PUSH1 0xA PUSH2 0x2077 JUMP JUMPDEST PUSH2 0x254 SWAP1 PUSH3 0xF4240 PUSH2 0x2085 JUMP JUMPDEST PUSH1 0x40 MLOAD PUSH1 0x1 PUSH1 0x1 PUSH1 0xE0 SHL SUB NOT PUSH1 0xE0 DUP6 SWAP1 SHL AND DUP2 MSTORE PUSH1 0x4 DUP2 ADD SWAP3 SWAP1 SWAP3 MSTORE PUSH1 0x24 DUP3 ADD MSTORE PUSH1 0x60 PUSH1 0x44 DUP3 ADD MSTORE PUSH1 0x19 PUSH1 0x64 DUP3 ADD MSTORE PUSH32 0x546F74616C20737570706C792073686F756C64206D6174636800000000000000 PUSH1 0x84 DUP3 ADD MSTORE PUSH1 0xA4 ADD JUMPDEST PUSH1 0x20 PUSH1 0x40 MLOAD DUP1 DUP4 SUB DUP2 DUP7 GAS DELEGATECALL ISZERO DUP1 ISZERO PUSH2 0x2C8 JUMPI RETURNDATASIZE PUSH0 DUP1 RETURNDATACOPY RETURNDATASIZE PUSH0 REVERT JUMPDEST POP POP POP POP PUSH1 0x40 MLOAD RETURNDATASIZE PUSH1 0x1F NOT PUSH1 0x1F DUP3 ADD AND DUP3 ADD DUP1 PUSH1 0x40 MSTORE POP DUP2 ADD SWAP1 PUSH2 0x2EC SWAP2 SWAP1 PUSH2 0x209C JUMP JUMPDEST POP POP JUMP JUMPDEST PUSH0 DUP1 PUSH0 SWAP1 SLOAD SWAP1 PUSH2 0x100 EXP SWAP1 DIV PUSH1 0x1 PUSH1 0x1 PUSH1 0xA0 SHL SUB AND PUSH1 0x1 PUSH1 0x1 PUSH1 0xA0 SHL SUB AND PUSH4 0x30F72CD4 PUSH1 0x40 MLOAD DUP2 PUSH4 0xFFFFFFFF AND PUSH1 0xE0 SHL DUP2 MSTORE PUSH1 0x4 ADD PUSH1 0x20 PUSH1 0x40 MLOAD DUP1 DUP4 SUB DUP2 DUP7 GAS STATICCALL ISZERO DUP1 ISZERO PUSH2 0x340 JUMPI RETURNDATASIZE PUSH0 DUP1 RETURNDATACOPY RETURNDATASIZE PUSH0 REVERT JUMPDEST POP POP POP POP PUSH1 0x40 MLOAD RETURNDATASIZE PUSH1 0x1F NOT PUSH1 0x1F DUP3 ADD AND DUP3 ADD DUP1 PUSH1 0x40 MSTORE POP DUP2 ADD SWAP1 PUSH2 0x364 SWAP2 SWAP1 PUSH2 0x209C JUMP JUMPDEST PUSH1 0x40 MLOAD PUSH4 0x767392B3 PUSH1 0xE0 SHL DUP2 MSTORE SWAP1 SWAP2 POP PUSH20 0x0 SWAP1 PUSH4 0x767392B3 SWAP1 PUSH2 0x2AD SWAP1 PUSH0 SWAP1 DUP6 SWAP1 PUSH1 0x4 ADD PUSH2 0x20BB JUMP JUMPDEST PUSH0 PUSH3 0x1FA400 PUSH1 0x2 SLOAD PUSH2 0x3B2 SWAP2 SWAP1 PUSH2 0x2102 JUMP JUMPDEST PUSH1 0x2 SLOAD PUSH0 DUP1 SLOAD PUSH1 0x40 MLOAD PUSH4 0x16331CB PUSH1 0xE5 SHL DUP2 MSTORE PUSH1 0x4 DUP2 ADD DUP6 SWAP1 MSTORE PUSH1 0x24 DUP2 ADD DUP5 SWAP1 MSTORE SWAP4 SWAP5 POP SWAP2 SWAP3 SWAP1 SWAP2 PUSH1 0x1 PUSH1 0x1 PUSH1 0xA0 SHL SUB AND SWAP1 PUSH4 0x2C663960 SWAP1 PUSH1 0x44 ADD PUSH1 0x20 PUSH1 0x40 MLOAD DUP1 DUP4 SUB DUP2 DUP7 GAS STATICCALL ISZERO DUP1 ISZERO PUSH2 0x408 JUMPI RETURNDATASIZE PUSH0 DUP1 RETURNDATACOPY RETURNDATASIZE PUSH0 REVERT JUMPDEST POP POP POP POP PUSH1 0x40 MLOAD RETURNDATASIZE PUSH1 0x1F NOT PUSH1 0x1F DUP3 ADD AND DUP3 ADD DUP1 PUSH1 0x40 MSTORE POP DUP2 ADD SWAP1 PUSH2 0x42C SWAP2 SWAP1 PUSH2 0x1F40 JUMP JUMPDEST PUSH1 0x40 MLOAD PUSH4 0x55E6BCB PUSH1 0xE5 SHL DUP2 MSTORE SWAP1 SWAP2 POP PUSH1 0x3 SWAP1 PUSH20 0x0 SWAP1 PUSH4 0xABCD7960 SWAP1 PUSH2 0x46B SWAP1 DUP6 SWAP1 DUP6 SWAP1 PUSH1 0x4 ADD PUSH2 0x2115 JUMP JUMPDEST PUSH1 0x20 PUSH1 0x40 MLOAD DUP1 DUP4 SUB DUP2 DUP7 GAS DELEGATECALL ISZERO DUP1 ISZERO PUSH2 0x486 JUMPI RETURNDATASIZE PUSH0 DUP1 RETURNDATACOPY RETURNDATASIZE PUSH0 REVERT JUMPDEST POP POP POP POP PUSH1 0x40 MLOAD RETURNDATASIZE PUSH1 0x1F NOT PUSH1 0x1F DUP3 ADD AND DUP3 ADD DUP1 PUSH1 0x40 MSTORE POP DUP2 ADD SWAP1 PUSH2 0x4AA SWAP2 SWAP1 PUSH2 0x209C JUMP JUMPDEST POP POP POP POP POP JUMP JUMPDEST PUSH0 PUSH3 0x69780 PUSH1 0x2 SLOAD PUSH2 0x4C3 SWAP2 SWAP1 PUSH2 0x2102 JUMP JUMPDEST PUSH1 0x2 SLOAD PUSH0 DUP1 SLOAD PUSH1 0x40 MLOAD PUSH4 0x16331CB PUSH1 0xE5 SHL DUP2 MSTORE PUSH1 0x4 DUP2 ADD DUP6 SWAP1 MSTORE PUSH1 0x24 DUP2 ADD DUP5 SWAP1 MSTORE SWAP4 SWAP5 POP SWAP2 SWAP3 SWAP1 SWAP2 PUSH1 0x1 PUSH1 0x1 PUSH1 0xA0 SHL SUB AND SWAP1 PUSH4 0x2C663960 SWAP1 PUSH1 0x44 ADD PUSH1 0x20 PUSH1 0x40 MLOAD DUP1 DUP4 SUB DUP2 DUP7 GAS STATICCALL ISZERO DUP1 ISZERO PUSH2 0x519 JUMPI RETURNDATASIZE PUSH0 DUP1 RETURNDATACOPY RETURNDATASIZE PUSH0 REVERT JUMPDEST POP POP POP POP PUSH1 0x40 MLOAD RETURNDATASIZE PUSH1 0x1F NOT PUSH1 0x1F DUP3 ADD AND DUP3 ADD DUP1 PUSH1 0x40 MSTORE POP DUP2 ADD SWAP1 PUSH2 0x53D SWAP2 SWAP1 PUSH2 0x1F40 JUMP JUMPDEST SWAP1 POP PUSH0 PUSH20 0x0 PUSH4 0xABCD7960 DUP4 DUP4 PUSH1 0x40 MLOAD DUP4 PUSH4 0xFFFFFFFF AND PUSH1 0xE0 SHL DUP2 MSTORE PUSH1 0x4 ADD PUSH2 0x46B SWAP3 SWAP2 SWAP1 PUSH2 0x2115 JUMP JUMPDEST PUSH0 PUSH3 0x93A80 PUSH1 0x2 SLOAD PUSH2 0x58B SWAP2 SWAP1 PUSH2 0x2102 JUMP JUMPDEST PUSH1 0x2 SLOAD PUSH0 DUP1 SLOAD PUSH1 0x40 MLOAD PUSH4 0x16331CB PUSH1 0xE5 SHL DUP2 MSTORE PUSH1 0x4 DUP2 ADD DUP6 SWAP1 MSTORE PUSH1 0x24 DUP2 ADD DUP5 SWAP1 MSTORE SWAP4 SWAP5 POP SWAP2 SWAP3 SWAP1 SWAP2 PUSH1 0x1 PUSH1 0x1 PUSH1 0xA0 SHL SUB AND SWAP1 PUSH4 0x2C663960 SWAP1 PUSH1 0x44 ADD PUSH1 0x20 PUSH1 0x40 MLOAD DUP1 DUP4 SUB DUP2 DUP7 GAS STATICCALL ISZERO DUP1 ISZERO PUSH2 0x5E1 JUMPI RETURNDATASIZE PUSH0 DUP1 RETURNDATACOPY RETURNDATASIZE PUSH0 REVERT JUMPDEST POP POP POP POP PUSH1 0x40 MLOAD RETURNDATASIZE PUSH1 0x1F NOT PUSH1 0x1F DUP3 ADD AND DUP3 ADD DUP1 PUSH1 0x40 MSTORE POP DUP2 ADD SWAP1 PUSH2 0x605 SWAP2 SWAP1 PUSH2 0x1F40 JUMP JUMPDEST PUSH1 0x40 MLOAD PUSH4 0x55E6BCB PUSH1 0xE5 SHL DUP2 MSTORE PUSH1 0x4 DUP2 ADD DUP3 SWAP1 MSTORE PUSH1 0x1 PUSH1 0x24 DUP3 ADD DUP2 SWAP1 MSTORE PUSH1 0x60 PUSH1 0x44 DUP4 ADD MSTORE PUSH1 0x21 PUSH1 0x64 DUP4 ADD MSTORE PUSH32 0x5468652063616C63756C61746564207765656B732073686F756C642062652031 PUSH1 0x84 DUP4 ADD MSTORE PUSH1 0x17 PUSH1 0xF9 SHL PUSH1 0xA4 DUP4 ADD MSTORE SWAP2 SWAP3 POP PUSH20 0x0 SWAP1 PUSH4 0xABCD7960 SWAP1 PUSH1 0xC4 ADD PUSH2 0x46B JUMP JUMPDEST ADDRESS PUSH3 0xF4240 PUSH7 0x38D7EA4C68000 PUSH1 0xA PUSH7 0x71AFD498D0000 PUSH1 0x5 PUSH1 0x40 MLOAD PUSH2 0x6AC SWAP1 PUSH2 0x1F33 JUMP JUMPDEST PUSH1 0x1 PUSH1 0x1 PUSH1 0xA0 SHL SUB SWAP1 SWAP7 AND DUP7 MSTORE PUSH1 0x20 DUP7 ADD SWAP5 SWAP1 SWAP5 MSTORE PUSH1 0x40 DUP6 ADD SWAP3 SWAP1 SWAP3 MSTORE PUSH1 0x60 DUP5 ADD MSTORE PUSH1 0x80 DUP4 ADD MSTORE PUSH1 0xA0 DUP3 ADD MSTORE PUSH1 0xC0 ADD PUSH1 0x40 MLOAD DUP1 SWAP2 SUB SWAP1 PUSH0 CREATE DUP1 ISZERO DUP1 ISZERO PUSH2 0x6F4 JUMPI RETURNDATASIZE PUSH0 DUP1 RETURNDATACOPY RETURNDATASIZE PUSH0 REVERT JUMPDEST POP PUSH0 DUP1 SLOAD PUSH1 0x1 PUSH1 0x1 PUSH1 0xA0 SHL SUB NOT AND PUSH1 0x1 PUSH1 0x1 PUSH1 0xA0 SHL SUB SWAP3 SWAP1 SWAP3 AND SWAP2 SWAP1 SWAP2 OR SWAP1 SSTORE TIMESTAMP PUSH1 0x2 SSTORE PUSH1 0x40 MLOAD PUSH4 0x55E6BCB PUSH1 0xE5 SHL DUP2 MSTORE PUSH1 0x1 PUSH1 0x4 DUP3 ADD DUP2 SWAP1 MSTORE PUSH1 0x24 DUP3 ADD MSTORE PUSH1 0x60 PUSH1 0x44 DUP3 ADD MSTORE PUSH1 0x16 PUSH1 0x64 DUP3 ADD MSTORE PUSH22 0x312073686F756C6420626520657175616C20746F2031 PUSH1 0x50 SHL PUSH1 0x84 DUP3 ADD MSTORE PUSH20 0x0 SWAP1 PUSH4 0xABCD7960 SWAP1 PUSH1 0xA4 ADD PUSH1 0x20 PUSH1 0x40 MLOAD DUP1 DUP4 SUB DUP2 DUP7 GAS DELEGATECALL ISZERO DUP1 ISZERO PUSH2 0x79A JUMPI RETURNDATASIZE PUSH0 DUP1 RETURNDATACOPY RETURNDATASIZE PUSH0 REVERT JUMPDEST POP POP POP POP PUSH1 0x40 MLOAD RETURNDATASIZE PUSH1 0x1F NOT PUSH1 0x1F DUP3 ADD AND DUP3 ADD DUP1 PUSH1 0x40 MSTORE POP DUP2 ADD SWAP1 PUSH2 0x7BE SWAP2 SWAP1 PUSH2 0x209C JUMP JUMPDEST POP JUMP JUMPDEST PUSH1 0x40 MLOAD PUSH2 0x7530 DUP2 MSTORE PUSH20 0x5B38DA6A701C568545DCFCB03FCB875F56BEDDC4 SWAP1 PUSH32 0x8D9FC242EEAD7AEBF4B509C32519BEB6E2975A572C06310F797DA4BD7F1FFAB6 SWAP1 PUSH1 0x20 ADD PUSH1 0x40 MLOAD DUP1 SWAP2 SUB SWAP1 LOG1 PUSH1 0x40 MLOAD PUSH4 0x55E6BCB PUSH1 0xE5 SHL DUP2 MSTORE PUSH1 0xC8 PUSH1 0x4 DUP3 ADD DUP2 SWAP1 MSTORE PUSH1 0x24 DUP3 ADD DUP2 SWAP1 MSTORE PUSH1 0x60 PUSH1 0x44 DUP4 ADD MSTORE PUSH1 0x15 PUSH1 0x64 DUP4 ADD MSTORE PUSH21 0x42616C616E6365732073686F756C6420626520313 PUSH1 0x5C SHL PUSH1 0x84 DUP4 ADD MSTORE SWAP1 DUP2 SWAP1 PUSH20 0x0 SWAP1 PUSH4 0xABCD7960 SWAP1 PUSH1 0xA4 ADD JUMPDEST PUSH1 0x20 PUSH1 0x40 MLOAD DUP1 DUP4 SUB DUP2 DUP7 GAS DELEGATECALL ISZERO DUP1 ISZERO PUSH2 0x893 JUMPI RETURNDATASIZE PUSH0 DUP1 RETURNDATACOPY RETURNDATASIZE PUSH0 REVERT JUMPDEST POP POP POP POP PUSH1 0x40 MLOAD RETURNDATASIZE PUSH1 0x1F NOT PUSH1 0x1F DUP3 ADD AND DUP3 ADD DUP1 PUSH1 0x40 MSTORE POP DUP2 ADD SWAP1 PUSH2 0x8B7 SWAP2 SWAP1 PUSH2 0x209C JUMP JUMPDEST POP POP POP POP JUMP JUMPDEST PUSH0 PUSH1 0x2 SLOAD PUSH3 0x15180 PUSH2 0x8CF SWAP2 SWAP1 PUSH2 0x2162 JUMP JUMPDEST PUSH0 SLOAD PUSH1 0x40 MLOAD PUSH4 0xF9A81AF7 PUSH1 0xE0 SHL DUP2 MSTORE PUSH1 0x4 DUP1 DUP3 ADD DUP5 SWAP1 MSTORE PUSH1 0x24 DUP3 ADD DUP2 SWAP1 MSTORE SWAP3 SWAP4 POP PUSH1 0x1 PUSH1 0x1 PUSH1 0xA0 SHL SUB SWAP1 SWAP2 AND SWAP1 PUSH4 0xF9A81AF7 SWAP1 PUSH1 0x44 ADD PUSH0 PUSH1 0x40 MLOAD DUP1 DUP4 SUB DUP2 PUSH0 DUP8 DUP1 EXTCODESIZE ISZERO DUP1 ISZERO PUSH2 0x91C JUMPI PUSH0 DUP1 REVERT JUMPDEST POP GAS CALL ISZERO DUP1 ISZERO PUSH2 0x92E JUMPI RETURNDATASIZE PUSH0 DUP1 RETURNDATACOPY RETURNDATASIZE PUSH0 REVERT JUMPDEST POP POP POP POP PUSH0 DUP1 PUSH0 SWAP1 SLOAD SWAP1 PUSH2 0x100 EXP SWAP1 DIV PUSH1 0x1 PUSH1 0x1 PUSH1 0xA0 SHL SUB AND PUSH1 0x1 PUSH1 0x1 PUSH1 0xA0 SHL SUB AND PUSH4 0x30F72CD4 PUSH1 0x40 MLOAD DUP2 PUSH4 0xFFFFFFFF AND PUSH1 0xE0 SHL DUP2 MSTORE PUSH1 0x4 ADD PUSH1 0x20 PUSH1 0x40 MLOAD DUP1 DUP4 SUB DUP2 DUP7 GAS STATICCALL ISZERO DUP1 ISZERO PUSH2 0x982 JUMPI RETURNDATASIZE PUSH0 DUP1 RETURNDATACOPY RETURNDATASIZE PUSH0 REVERT JUMPDEST POP POP POP POP PUSH1 0x40 MLOAD RETURNDATASIZE PUSH1 0x1F NOT PUSH1 0x1F DUP3 ADD AND DUP3 ADD DUP1 PUSH1 0x40 MSTORE POP DUP2 ADD SWAP1 PUSH2 0x9A6 SWAP2 SWAP1 PUSH2 0x209C JUMP JUMPDEST PUSH1 0x40 MLOAD PUSH4 0x767392B3 PUSH1 0xE0 SHL DUP2 MSTORE SWAP1 SWAP2 POP PUSH20 0x0 SWAP1 PUSH4 0x767392B3 SWAP1 PUSH2 0x878 SWAP1 PUSH1 0x1 SWAP1 DUP6 SWAP1 PUSH1 0x4 ADD PUSH2 0x20BB JUMP JUMPDEST PUSH0 PUSH3 0x151800 PUSH1 0x2 SLOAD PUSH2 0x9F5 SWAP2 SWAP1 PUSH2 0x2102 JUMP JUMPDEST SWAP1 POP PUSH1 0x4 PUSH0 PUSH2 0xA07 DUP3 PUSH3 0x93A80 PUSH2 0x2085 JUMP JUMPDEST PUSH2 0xA11 SWAP1 DUP5 PUSH2 0x2162 JUMP JUMPDEST PUSH0 SLOAD PUSH1 0x40 MLOAD PUSH4 0xF9A81AF7 PUSH1 0xE0 SHL DUP2 MSTORE PUSH1 0x4 DUP2 ADD DUP7 SWAP1 MSTORE PUSH1 0x24 DUP2 ADD DUP6 SWAP1 MSTORE SWAP2 SWAP3 POP PUSH1 0x1 PUSH1 0x1 PUSH1 0xA0 SHL SUB AND SWAP1 PUSH4 0xF9A81AF7 SWAP1 PUSH1 0x44 ADD PUSH0 PUSH1 0x40 MLOAD DUP1 DUP4 SUB DUP2 PUSH0 DUP8 DUP1 EXTCODESIZE ISZERO DUP1 ISZERO PUSH2 0xA5B JUMPI PUSH0 DUP1 REVERT JUMPDEST POP GAS CALL ISZERO DUP1 ISZERO PUSH2 0xA6D JUMPI RETURNDATASIZE PUSH0 DUP1 RETURNDATACOPY RETURNDATASIZE PUSH0 REVERT JUMPDEST POP POP POP POP PUSH0 DUP1 PUSH0 SWAP1 SLOAD SWAP1 PUSH2 0x100 EXP SWAP1 DIV PUSH1 0x1 PUSH1 0x1 PUSH1 0xA0 SHL SUB AND PUSH1 0x1 PUSH1 0x1 PUSH1 0xA0 SHL SUB AND PUSH4 0x1D0806AE PUSH1 0x40 MLOAD DUP2 PUSH4 0xFFFFFFFF AND PUSH1 0xE0 SHL DUP2 MSTORE PUSH1 0x4 ADD PUSH1 0x20 PUSH1 0x40 MLOAD DUP1 DUP4 SUB DUP2 DUP7 GAS STATICCALL ISZERO DUP1 ISZERO PUSH2 0xAC1 JUMPI RETURNDATASIZE PUSH0 DUP1 RETURNDATACOPY RETURNDATASIZE PUSH0 REVERT JUMPDEST POP POP POP POP PUSH1 0x40 MLOAD RETURNDATASIZE PUSH1 0x1F NOT PUSH1 0x1F DUP3 ADD AND DUP3 ADD DUP1 PUSH1 0x40 MSTORE POP DUP2 ADD SWAP1 PUSH2 0xAE5 SWAP2 SWAP1 PUSH2 0x1F40 JUMP JUMPDEST SWAP1 POP PUSH0 DUP1 PUSH0 SWAP1 SLOAD SWAP1 PUSH2 0x100 EXP SWAP1 DIV PUSH1 0x1 PUSH1 0x1 PUSH1 0xA0 SHL SUB AND PUSH1 0x1 PUSH1 0x1 PUSH1 0xA0 SHL SUB AND PUSH4 0x3E293A3 PUSH1 0x40 MLOAD DUP2 PUSH4 0xFFFFFFFF AND PUSH1 0xE0 SHL DUP2 MSTORE PUSH1 0x4 ADD PUSH1 0x20 PUSH1 0x40 MLOAD DUP1 DUP4 SUB DUP2 DUP7 GAS STATICCALL ISZERO DUP1 ISZERO PUSH2 0xB37 JUMPI RETURNDATASIZE PUSH0 DUP1 RETURNDATACOPY RETURNDATASIZE PUSH0 REVERT JUMPDEST POP POP POP POP PUSH1 0x40 MLOAD RETURNDATASIZE PUSH1 0x1F NOT PUSH1 0x1F DUP3 ADD AND DUP3 ADD DUP1 PUSH1 0x40 MSTORE POP DUP2 ADD SWAP1 PUSH2 0xB5B SWAP2 SWAP1 PUSH2 0x1F40 JUMP JUMPDEST SWAP1 POP PUSH0 DUP1 PUSH0 SWAP1 SLOAD SWAP1 PUSH2 0x100 EXP SWAP1 DIV PUSH1 0x1 PUSH1 0x1 PUSH1 0xA0 SHL SUB AND PUSH1 0x1 PUSH1 0x1 PUSH1 0xA0 SHL SUB AND PUSH4 0x6D65AF3 PUSH1 0x40 MLOAD DUP2 PUSH4 0xFFFFFFFF AND PUSH1 0xE0 SHL DUP2 MSTORE PUSH1 0x4 ADD PUSH1 0x20 PUSH1 0x40 MLOAD DUP1 DUP4 SUB DUP2 DUP7 GAS STATICCALL ISZERO DUP1 ISZERO PUSH2 0xBAD JUMPI RETURNDATASIZE PUSH0 DUP1 RETURNDATACOPY RETURNDATASIZE PUSH0 REVERT JUMPDEST POP POP POP POP PUSH1 0x40 MLOAD RETURNDATASIZE PUSH1 0x1F NOT PUSH1 0x1F DUP3 ADD AND DUP3 ADD DUP1 PUSH1 0x40 MSTORE POP DUP2 ADD SWAP1 PUSH2 0xBD1 SWAP2 SWAP1 PUSH2 0x1F40 JUMP JUMPDEST SWAP1 POP PUSH0 DUP1 PUSH0 SWAP1 SLOAD SWAP1 PUSH2 0x100 EXP SWAP1 DIV PUSH1 0x1 PUSH1 0x1 PUSH1 0xA0 SHL SUB AND PUSH1 0x1 PUSH1 0x1 PUSH1 0xA0 SHL SUB AND PUSH4 0xCCE29EA7 PUSH1 0x40 MLOAD DUP2 PUSH4 0xFFFFFFFF AND PUSH1 0xE0 SHL DUP2 MSTORE PUSH1 0x4 ADD PUSH1 0x20 PUSH1 0x40 MLOAD DUP1 DUP4 SUB DUP2 DUP7 GAS STATICCALL ISZERO DUP1 ISZERO PUSH2 0xC23 JUMPI RETURNDATASIZE PUSH0 DUP1 RETURNDATACOPY RETURNDATASIZE PUSH0 REVERT JUMPDEST POP POP POP POP PUSH1 0x40 MLOAD RETURNDATASIZE PUSH1 0x1F NOT PUSH1 0x1F DUP3 ADD AND DUP3 ADD DUP1 PUSH1 0x40 MSTORE POP DUP2 ADD SWAP1 PUSH2 0xC47 SWAP2 SWAP1 PUSH2 0x1F40 JUMP JUMPDEST SWAP1 POP PUSH0 DUP1 PUSH0 SWAP1 SLOAD SWAP1 PUSH2 0x100 EXP SWAP1 DIV PUSH1 0x1 PUSH1 0x1 PUSH1 0xA0 SHL SUB AND PUSH1 0x1 PUSH1 0x1 PUSH1 0xA0 SHL SUB AND PUSH4 0xF8102E68 PUSH1 0x40 MLOAD DUP2 PUSH4 0xFFFFFFFF AND PUSH1 0xE0 SHL DUP2 MSTORE PUSH1 0x4 ADD PUSH1 0x20 PUSH1 0x40 MLOAD DUP1 DUP4 SUB DUP2 DUP7 GAS STATICCALL ISZERO DUP1 ISZERO PUSH2 0xC99 JUMPI RETURNDATASIZE PUSH0 DUP1 RETURNDATACOPY RETURNDATASIZE PUSH0 REVERT JUMPDEST POP POP POP POP PUSH1 0x40 MLOAD RETURNDATASIZE PUSH1 0x1F NOT PUSH1 0x1F DUP3 ADD AND DUP3 ADD DUP1 PUSH1 0x40 MSTORE POP DUP2 ADD SWAP1 PUSH2 0xCBD SWAP2 SWAP1 PUSH2 0x1F40 JUMP JUMPDEST PUSH1 0x40 MLOAD PUSH4 0x55E6BCB PUSH1 0xE5 SHL DUP2 MSTORE SWAP1 SWAP2 POP PUSH20 0x0 SWAP1 PUSH4 0xABCD7960 SWAP1 PUSH2 0xCF9 SWAP1 DUP12 SWAP1 DUP8 SWAP1 PUSH1 0x4 ADD PUSH2 0x2175 JUMP JUMPDEST PUSH1 0x20 PUSH1 0x40 MLOAD DUP1 DUP4 SUB DUP2 DUP7 GAS DELEGATECALL ISZERO DUP1 ISZERO PUSH2 0xD14 JUMPI RETURNDATASIZE PUSH0 DUP1 RETURNDATACOPY RETURNDATASIZE PUSH0 REVERT JUMPDEST POP POP POP POP PUSH1 0x40 MLOAD RETURNDATASIZE PUSH1 0x1F NOT PUSH1 0x1F DUP3 ADD AND DUP3 ADD DUP1 PUSH1 0x40 MSTORE POP DUP2 ADD SWAP1 PUSH2 0xD38 SWAP2 SWAP1 PUSH2 0x209C JUMP JUMPDEST POP PUSH1 0x40 MLOAD PUSH4 0x55E6BCB PUSH1 0xE5 SHL DUP2 MSTORE PUSH1 0x4 DUP2 ADD DUP8 SWAP1 MSTORE PUSH1 0x24 DUP2 ADD DUP4 SWAP1 MSTORE PUSH1 0x60 PUSH1 0x44 DUP3 ADD MSTORE PUSH1 0x1F PUSH1 0x64 DUP3 ADD MSTORE PUSH32 0x636F6E747261637450726553616C65456E642073686F756C64206D6174636800 PUSH1 0x84 DUP3 ADD MSTORE PUSH20 0x0 SWAP1 PUSH4 0xABCD7960 SWAP1 PUSH1 0xA4 ADD PUSH1 0x20 PUSH1 0x40 MLOAD DUP1 DUP4 SUB DUP2 DUP7 GAS DELEGATECALL ISZERO DUP1 ISZERO PUSH2 0xDC2 JUMPI RETURNDATASIZE PUSH0 DUP1 RETURNDATACOPY RETURNDATASIZE PUSH0 REVERT JUMPDEST POP POP POP POP PUSH1 0x40 MLOAD RETURNDATASIZE PUSH1 0x1F NOT PUSH1 0x1F DUP3 ADD AND DUP3 ADD DUP1 PUSH1 0x40 MSTORE POP DUP2 ADD SWAP1 PUSH2 0xDE6 SWAP2 SWAP1 PUSH2 0x209C JUMP JUMPDEST POP PUSH1 0x40 MLOAD PUSH4 0x55E6BCB PUSH1 0xE5 SHL DUP2 MSTORE PUSH1 0x4 DUP2 ADD DUP7 SWAP1 MSTORE PUSH7 0x38D7EA4C68000 PUSH1 0x24 DUP3 ADD MSTORE PUSH1 0x60 PUSH1 0x44 DUP3 ADD MSTORE PUSH1 0x19 PUSH1 0x64 DUP3 ADD MSTORE PUSH25 0xE0E4CAA6C2D8CAA0E4D2C6CA40E6D0DEEAD8C840DAC2E8C6D PUSH1 0x3B SHL PUSH1 0x84 DUP3 ADD MSTORE PUSH20 0x0 SWAP1 PUSH4 0xABCD7960 SWAP1 PUSH1 0xA4 ADD PUSH1 0x20 PUSH1 0x40 MLOAD DUP1 DUP4 SUB DUP2 DUP7 GAS DELEGATECALL ISZERO DUP1 ISZERO PUSH2 0xE72 JUMPI RETURNDATASIZE PUSH0 DUP1 RETURNDATACOPY RETURNDATASIZE PUSH0 REVERT JUMPDEST POP POP POP POP PUSH1 0x40 MLOAD RETURNDATASIZE PUSH1 0x1F NOT PUSH1 0x1F DUP3 ADD AND DUP3 ADD DUP1 PUSH1 0x40 MSTORE POP DUP2 ADD SWAP1 PUSH2 0xE96 SWAP2 SWAP1 PUSH2 0x209C JUMP JUMPDEST POP PUSH1 0x40 MLOAD PUSH4 0x55E6BCB PUSH1 0xE5 SHL DUP2 MSTORE PUSH1 0x4 DUP2 ADD DUP6 SWAP1 MSTORE PUSH7 0x71AFD498D0000 PUSH1 0x24 DUP3 ADD MSTORE PUSH1 0x60 PUSH1 0x44 DUP3 ADD MSTORE PUSH1 0x19 PUSH1 0x64 DUP3 ADD MSTORE PUSH25 0xE4CACEEAD8C2E4A0E4D2C6CA40E6D0DEEAD8C840DAC2E8C6D PUSH1 0x3B SHL PUSH1 0x84 DUP3 ADD MSTORE PUSH20 0x0 SWAP1 PUSH4 0xABCD7960 SWAP1 PUSH1 0xA4 ADD PUSH1 0x20 PUSH1 0x40 MLOAD DUP1 DUP4 SUB DUP2 DUP7 GAS DELEGATECALL ISZERO DUP1 ISZERO PUSH2 0xF22 JUMPI RETURNDATASIZE PUSH0 DUP1 RETURNDATACOPY RETURNDATASIZE PUSH0 REVERT JUMPDEST POP POP POP POP PUSH1 0x40 MLOAD RETURNDATASIZE PUSH1 0x1F NOT PUSH1 0x1F DUP3 ADD AND DUP3 ADD DUP1 PUSH1 0x40 MSTORE POP DUP2 ADD SWAP1 PUSH2 0xF46 SWAP2 SWAP1 PUSH2 0x209C JUMP JUMPDEST POP PUSH1 0x40 MLOAD PUSH4 0x55E6BCB PUSH1 0xE5 SHL DUP2 MSTORE PUSH1 0x4 DUP2 ADD DUP3 SWAP1 MSTORE PUSH1 0x24 DUP2 ADD DUP9 SWAP1 MSTORE PUSH1 0x60 PUSH1 0x44 DUP3 ADD MSTORE PUSH1 0x19 PUSH1 0x64 DUP3 ADD MSTORE PUSH25 0xE0E4CAA6C2D8CAAECACAD6E640E6D0DEEAD8C840DAC2E8C6D PUSH1 0x3B SHL PUSH1 0x84 DUP3 ADD MSTORE PUSH20 0x0 SWAP1 PUSH4 0xABCD7960 SWAP1 PUSH1 0xA4 ADD PUSH1 0x20 PUSH1 0x40 MLOAD DUP1 DUP4 SUB DUP2 DUP7 GAS DELEGATECALL ISZERO DUP1 ISZERO PUSH2 0xFCC JUMPI RETURNDATASIZE PUSH0 DUP1 RETURNDATACOPY RETURNDATASIZE PUSH0 REVERT JUMPDEST POP POP POP POP PUSH1 0x40 MLOAD RETURNDATASIZE PUSH1 0x1F NOT PUSH1 0x1F DUP3 ADD AND DUP3 ADD DUP1 PUSH1 0x40 MSTORE POP DUP2 ADD SWAP1 PUSH2 0xFF0 SWAP2 SWAP1 PUSH2 0x209C JUMP JUMPDEST POP PUSH0 DUP1 SLOAD PUSH1 0x2 SLOAD PUSH1 0x40 MLOAD PUSH4 0x16331CB PUSH1 0xE5 SHL DUP2 MSTORE PUSH1 0x4 DUP2 ADD DUP13 SWAP1 MSTORE PUSH1 0x24 DUP2 ADD SWAP2 SWAP1 SWAP2 MSTORE PUSH1 0x1 PUSH1 0x1 PUSH1 0xA0 SHL SUB SWAP1 SWAP2 AND SWAP1 PUSH4 0x2C663960 SWAP1 PUSH1 0x44 ADD PUSH1 0x20 PUSH1 0x40 MLOAD DUP1 DUP4 SUB DUP2 DUP7 GAS STATICCALL ISZERO DUP1 ISZERO PUSH2 0x1043 JUMPI RETURNDATASIZE PUSH0 DUP1 RETURNDATACOPY RETURNDATASIZE PUSH0 REVERT JUMPDEST POP POP POP POP PUSH1 0x40 MLOAD RETURNDATASIZE PUSH1 0x1F NOT PUSH1 0x1F DUP3 ADD AND DUP3 ADD DUP1 PUSH1 0x40 MSTORE POP DUP2 ADD SWAP1 PUSH2 0x1067 SWAP2 SWAP1 PUSH2 0x1F40 JUMP JUMPDEST PUSH1 0x40 MLOAD PUSH4 0x55E6BCB PUSH1 0xE5 SHL DUP2 MSTORE SWAP1 SWAP2 POP PUSH20 0x0 SWAP1 PUSH4 0xABCD7960 SWAP1 PUSH2 0x10A4 SWAP1 DUP5 SWAP1 PUSH1 0x2 SWAP1 PUSH1 0x4 ADD PUSH2 0x21C2 JUMP JUMPDEST PUSH1 0x20 PUSH1 0x40 MLOAD DUP1 DUP4 SUB DUP2 DUP7 GAS DELEGATECALL ISZERO DUP1 ISZERO PUSH2 0x10BF JUMPI RETURNDATASIZE PUSH0 DUP1 RETURNDATACOPY RETURNDATASIZE PUSH0 REVERT JUMPDEST POP POP POP POP PUSH1 0x40 MLOAD RETURNDATASIZE PUSH1 0x1F NOT PUSH1 0x1F DUP3 ADD AND DUP3 ADD DUP1 PUSH1 0x40 MSTORE POP DUP2 ADD SWAP1 PUSH2 0x10E3 SWAP2 SWAP1 PUSH2 0x209C JUMP JUMPDEST POP PUSH0 DUP2 DUP10 PUSH2 0x10F1 DUP10 DUP10 PUSH2 0x2102 JUMP JUMPDEST PUSH2 0x10FB SWAP2 SWAP1 PUSH2 0x2212 JUMP JUMPDEST PUSH2 0x1105 SWAP2 SWAP1 PUSH2 0x2085 JUMP JUMPDEST SWAP1 POP PUSH0 DUP1 PUSH0 SWAP1 SLOAD SWAP1 PUSH2 0x100 EXP SWAP1 DIV PUSH1 0x1 PUSH1 0x1 PUSH1 0xA0 SHL SUB AND PUSH1 0x1 PUSH1 0x1 PUSH1 0xA0 SHL SUB AND PUSH4 0x4405DF4A PUSH1 0x40 MLOAD DUP2 PUSH4 0xFFFFFFFF AND PUSH1 0xE0 SHL DUP2 MSTORE PUSH1 0x4 ADD PUSH1 0x20 PUSH1 0x40 MLOAD DUP1 DUP4 SUB DUP2 DUP7 GAS STATICCALL ISZERO DUP1 ISZERO PUSH2 0x1157 JUMPI RETURNDATASIZE PUSH0 DUP1 RETURNDATACOPY RETURNDATASIZE PUSH0 REVERT JUMPDEST POP POP POP POP PUSH1 0x40 MLOAD RETURNDATASIZE PUSH1 0x1F NOT PUSH1 0x1F DUP3 ADD AND DUP3 ADD DUP1 PUSH1 0x40 MSTORE POP DUP2 ADD SWAP1 PUSH2 0x117B SWAP2 SWAP1 PUSH2 0x1F40 JUMP JUMPDEST PUSH1 0x40 MLOAD PUSH4 0x55E6BCB PUSH1 0xE5 SHL DUP2 MSTORE PUSH1 0x4 DUP2 ADD DUP5 SWAP1 MSTORE PUSH1 0x24 DUP2 ADD DUP3 SWAP1 MSTORE PUSH1 0x60 PUSH1 0x44 DUP3 ADD MSTORE PUSH1 0x1F PUSH1 0x64 DUP3 ADD MSTORE PUSH32 0x707269636520696E6372656173652073686F756C6420626520302E3565313500 PUSH1 0x84 DUP3 ADD MSTORE SWAP1 SWAP2 POP PUSH20 0x0 SWAP1 PUSH4 0xABCD7960 SWAP1 PUSH1 0xA4 ADD PUSH1 0x20 PUSH1 0x40 MLOAD DUP1 DUP4 SUB DUP2 DUP7 GAS DELEGATECALL ISZERO DUP1 ISZERO PUSH2 0x1207 JUMPI RETURNDATASIZE PUSH0 DUP1 RETURNDATACOPY RETURNDATASIZE PUSH0 REVERT JUMPDEST POP POP POP POP PUSH1 0x40 MLOAD RETURNDATASIZE PUSH1 0x1F NOT PUSH1 0x1F DUP3 ADD AND DUP3 ADD DUP1 PUSH1 0x40 MSTORE POP DUP2 ADD SWAP1 PUSH2 0x122B SWAP2 SWAP1 PUSH2 0x209C JUMP JUMPDEST POP PUSH0 DUP1 PUSH0 SWAP1 SLOAD SWAP1 PUSH2 0x100 EXP SWAP1 DIV PUSH1 0x1 PUSH1 0x1 PUSH1 0xA0 SHL SUB AND PUSH1 0x1 PUSH1 0x1 PUSH1 0xA0 SHL SUB AND PUSH4 0xD348B409 PUSH1 0x40 MLOAD DUP2 PUSH4 0xFFFFFFFF AND PUSH1 0xE0 SHL DUP2 MSTORE PUSH1 0x4 ADD PUSH1 0x20 PUSH1 0x40 MLOAD DUP1 DUP4 SUB DUP2 DUP7 GAS STATICCALL ISZERO DUP1 ISZERO PUSH2 0x127C JUMPI RETURNDATASIZE PUSH0 DUP1 RETURNDATACOPY RETURNDATASIZE PUSH0 REVERT JUMPDEST POP POP POP POP PUSH1 0x40 MLOAD RETURNDATASIZE PUSH1 0x1F NOT PUSH1 0x1F DUP3 ADD AND DUP3 ADD DUP1 PUSH1 0x40 MSTORE POP DUP2 ADD SWAP1 PUSH2 0x12A0 SWAP2 SWAP1 PUSH2 0x1F40 JUMP JUMPDEST SWAP1 POP PUSH0 PUSH2 0x12AD DUP5 DUP12 PUSH2 0x2162 JUMP JUMPDEST PUSH1 0x40 MLOAD PUSH4 0x55E6BCB PUSH1 0xE5 SHL DUP2 MSTORE PUSH1 0x4 DUP2 ADD DUP3 SWAP1 MSTORE PUSH1 0x24 DUP2 ADD DUP5 SWAP1 MSTORE PUSH1 0x60 PUSH1 0x44 DUP3 ADD MSTORE PUSH1 0x17 PUSH1 0x64 DUP3 ADD MSTORE PUSH32 0x7072696365202073686F756C6420626520312E35653135000000000000000000 PUSH1 0x84 DUP3 ADD MSTORE SWAP1 SWAP2 POP PUSH20 0x0 SWAP1 PUSH4 0xABCD7960 SWAP1 PUSH1 0xA4 ADD PUSH1 0x20 PUSH1 0x40 MLOAD DUP1 DUP4 SUB DUP2 DUP7 GAS DELEGATECALL ISZERO DUP1 ISZERO PUSH2 0x1339 JUMPI RETURNDATASIZE PUSH0 DUP1 RETURNDATACOPY RETURNDATASIZE PUSH0 REVERT JUMPDEST POP POP POP POP PUSH1 0x40 MLOAD RETURNDATASIZE PUSH1 0x1F NOT PUSH1 0x1F DUP3 ADD AND DUP3 ADD DUP1 PUSH1 0x40 MSTORE POP DUP2 ADD SWAP1 PUSH2 0x135D SWAP2 SWAP1 PUSH2 0x209C JUMP JUMPDEST POP POP POP POP POP POP POP POP POP POP POP POP POP POP JUMP JUMPDEST PUSH0 DUP1 SLOAD PUSH1 0x1 SLOAD PUSH1 0x40 MLOAD PUSH4 0x70A08231 PUSH1 0xE0 SHL DUP2 MSTORE PUSH1 0x1 PUSH1 0x1 PUSH1 0xA0 SHL SUB SWAP2 DUP3 AND PUSH1 0x4 DUP3 ADD MSTORE SWAP2 AND SWAP1 PUSH4 0x70A08231 SWAP1 PUSH1 0x24 ADD PUSH1 0x20 PUSH1 0x40 MLOAD DUP1 DUP4 SUB DUP2 DUP7 GAS STATICCALL ISZERO DUP1 ISZERO PUSH2 0x13B7 JUMPI RETURNDATASIZE PUSH0 DUP1 RETURNDATACOPY RETURNDATASIZE PUSH0 REVERT JUMPDEST POP POP POP POP PUSH1 0x40 MLOAD RETURNDATASIZE PUSH1 0x1F NOT PUSH1 0x1F DUP3 ADD AND DUP3 ADD DUP1 PUSH1 0x40 MSTORE POP DUP2 ADD SWAP1 PUSH2 0x13DB SWAP2 SWAP1 PUSH2 0x1F40 JUMP JUMPDEST PUSH0 DUP1 SLOAD PUSH1 0x40 DUP1 MLOAD PUSH1 0x4 DUP2 MSTORE PUSH1 0x24 DUP2 ADD DUP3 MSTORE PUSH1 0x20 DUP2 ADD DUP1 MLOAD PUSH1 0x1 PUSH1 0x1 PUSH1 0xE0 SHL SUB AND PUSH4 0x343FAF93 PUSH1 0xE2 SHL OR SWAP1 MSTORE SWAP1 MLOAD SWAP4 SWAP5 POP SWAP2 SWAP3 PUSH1 0x1 PUSH1 0x1 PUSH1 0xA0 SHL SUB SWAP1 SWAP2 AND SWAP2 PUSH8 0xDE0B6B3A7640000 SWAP2 PUSH2 0x142D SWAP2 SWAP1 PUSH2 0x2231 JUMP JUMPDEST PUSH0 PUSH1 0x40 MLOAD DUP1 DUP4 SUB DUP2 DUP6 DUP8 GAS CALL SWAP3 POP POP POP RETURNDATASIZE DUP1 PUSH0 DUP2 EQ PUSH2 0x1467 JUMPI PUSH1 0x40 MLOAD SWAP2 POP PUSH1 0x1F NOT PUSH1 0x3F RETURNDATASIZE ADD AND DUP3 ADD PUSH1 0x40 MSTORE RETURNDATASIZE DUP3 MSTORE RETURNDATASIZE PUSH0 PUSH1 0x20 DUP5 ADD RETURNDATACOPY PUSH2 0x146C JUMP JUMPDEST PUSH1 0x60 SWAP2 POP JUMPDEST POP POP PUSH1 0x40 MLOAD PUSH4 0x767392B3 PUSH1 0xE0 SHL DUP2 MSTORE DUP2 ISZERO ISZERO PUSH1 0x4 DUP3 ADD MSTORE PUSH0 PUSH1 0x24 DUP3 ADD MSTORE PUSH1 0x60 PUSH1 0x44 DUP3 ADD MSTORE PUSH1 0x28 PUSH1 0x64 DUP3 ADD MSTORE PUSH32 0x50726573616C65206E6F74206163746976652C2070757263686173652073686F PUSH1 0x84 DUP3 ADD MSTORE PUSH8 0x1D5B190819985A5B PUSH1 0xC2 SHL PUSH1 0xA4 DUP3 ADD MSTORE SWAP1 SWAP2 POP PUSH20 0x0 SWAP1 PUSH4 0x767392B3 SWAP1 PUSH1 0xC4 ADD PUSH1 0x20 PUSH1 0x40 MLOAD DUP1 DUP4 SUB DUP2 DUP7 GAS DELEGATECALL ISZERO DUP1 ISZERO PUSH2 0x150B JUMPI RETURNDATASIZE PUSH0 DUP1 RETURNDATACOPY RETURNDATASIZE PUSH0 REVERT JUMPDEST POP POP POP POP PUSH1 0x40 MLOAD RETURNDATASIZE PUSH1 0x1F NOT PUSH1 0x1F DUP3 ADD AND DUP3 ADD DUP1 PUSH1 0x40 MSTORE POP DUP2 ADD SWAP1 PUSH2 0x152F SWAP2 SWAP1 PUSH2 0x209C JUMP JUMPDEST POP PUSH0 DUP1 SLOAD PUSH1 0x1 SLOAD PUSH1 0x40 MLOAD PUSH4 0x70A08231 PUSH1 0xE0 SHL DUP2 MSTORE PUSH1 0x1 PUSH1 0x1 PUSH1 0xA0 SHL SUB SWAP2 DUP3 AND PUSH1 0x4 DUP3 ADD MSTORE SWAP2 AND SWAP1 PUSH4 0x70A08231 SWAP1 PUSH1 0x24 ADD PUSH1 0x20 PUSH1 0x40 MLOAD DUP1 DUP4 SUB DUP2 DUP7 GAS STATICCALL ISZERO DUP1 ISZERO PUSH2 0x157A JUMPI RETURNDATASIZE PUSH0 DUP1 RETURNDATACOPY RETURNDATASIZE PUSH0 REVERT JUMPDEST POP POP POP POP PUSH1 0x40 MLOAD RETURNDATASIZE PUSH1 0x1F NOT PUSH1 0x1F DUP3 ADD AND DUP3 ADD DUP1 PUSH1 0x40 MSTORE POP DUP2 ADD SWAP1 PUSH2 0x159E SWAP2 SWAP1 PUSH2 0x1F40 JUMP JUMPDEST PUSH1 0x40 MLOAD PUSH4 0x55E6BCB PUSH1 0xE5 SHL DUP2 MSTORE PUSH1 0x4 DUP2 ADD DUP6 SWAP1 MSTORE PUSH1 0x24 DUP2 ADD DUP3 SWAP1 MSTORE PUSH1 0x60 PUSH1 0x44 DUP3 ADD MSTORE PUSH1 0x35 PUSH1 0x64 DUP3 ADD MSTORE PUSH32 0x42757965722062616C616E63652073686F756C64206E6F74206368616E676520 PUSH1 0x84 DUP3 ADD MSTORE PUSH21 0x6265666F72652070726573616C6520737461727473 PUSH1 0x58 SHL PUSH1 0xA4 DUP3 ADD MSTORE SWAP1 SWAP2 POP PUSH20 0x0 SWAP1 PUSH4 0xABCD7960 SWAP1 PUSH1 0xC4 ADD PUSH2 0x878 JUMP JUMPDEST PUSH0 PUSH3 0x69780 PUSH1 0x2 SLOAD PUSH2 0x1644 SWAP2 SWAP1 PUSH2 0x2102 JUMP JUMPDEST PUSH0 SLOAD PUSH1 0x40 MLOAD PUSH4 0xF9A81AF7 PUSH1 0xE0 SHL DUP2 MSTORE PUSH1 0x4 DUP1 DUP3 ADD DUP5 SWAP1 MSTORE PUSH1 0x24 DUP3 ADD DUP2 SWAP1 MSTORE SWAP3 SWAP4 POP PUSH1 0x1 PUSH1 0x1 PUSH1 0xA0 SHL SUB SWAP1 SWAP2 AND SWAP1 PUSH4 0xF9A81AF7 SWAP1 PUSH1 0x44 ADD PUSH0 PUSH1 0x40 MLOAD DUP1 DUP4 SUB DUP2 PUSH0 DUP8 DUP1 EXTCODESIZE ISZERO DUP1 ISZERO PUSH2 0x1691 JUMPI PUSH0 DUP1 REVERT JUMPDEST POP GAS CALL ISZERO DUP1 ISZERO PUSH2 0x16A3 JUMPI RETURNDATASIZE PUSH0 DUP1 RETURNDATACOPY RETURNDATASIZE PUSH0 REVERT JUMPDEST POP POP POP POP PUSH0 DUP1 PUSH0 SWAP1 SLOAD SWAP1 PUSH2 0x100 EXP SWAP1 DIV PUSH1 0x1 PUSH1 0x1 PUSH1 0xA0 SHL SUB AND PUSH1 0x1 PUSH1 0x1 PUSH1 0xA0 SHL SUB AND PUSH4 0x4405DF4A PUSH1 0x40 MLOAD DUP2 PUSH4 0xFFFFFFFF AND PUSH1 0xE0 SHL DUP2 MSTORE PUSH1 0x4 ADD PUSH1 0x20 PUSH1 0x40 MLOAD DUP1 DUP4 SUB DUP2 DUP7 GAS STATICCALL ISZERO DUP1 ISZERO PUSH2 0x16F7 JUMPI RETURNDATASIZE PUSH0 DUP1 RETURNDATACOPY RETURNDATASIZE PUSH0 REVERT JUMPDEST POP POP POP POP PUSH1 0x40 MLOAD RETURNDATASIZE PUSH1 0x1F NOT PUSH1 0x1F DUP3 ADD AND DUP3 ADD DUP1 PUSH1 0x40 MSTORE POP DUP2 ADD SWAP1 PUSH2 0x171B SWAP2 SWAP1 PUSH2 0x1F40 JUMP JUMPDEST PUSH1 0x40 MLOAD PUSH4 0x55E6BCB PUSH1 0xE5 SHL DUP2 MSTORE PUSH0 PUSH1 0x4 DUP3 ADD DUP2 SWAP1 MSTORE PUSH1 0x24 DUP3 ADD DUP4 SWAP1 MSTORE PUSH1 0x60 PUSH1 0x44 DUP4 ADD MSTORE PUSH1 0x2C PUSH1 0x64 DUP4 ADD MSTORE PUSH32 0x507269636520696E63726561736520647572696E67206669727374207765656B PUSH1 0x84 DUP4 ADD MSTORE PUSH12 0x2073686F756C64206265203 PUSH1 0xA4 SHL PUSH1 0xA4 DUP4 ADD MSTORE SWAP2 SWAP3 POP PUSH20 0x0 SWAP1 PUSH4 0xABCD7960 SWAP1 PUSH1 0xC4 ADD PUSH2 0x46B JUMP JUMPDEST PUSH0 PUSH3 0x1FA400 PUSH1 0x2 SLOAD PUSH2 0x17B9 SWAP2 SWAP1 PUSH2 0x2102 JUMP JUMPDEST SWAP1 POP PUSH1 0x4 PUSH0 PUSH2 0x17CB DUP3 PUSH3 0x93A80 PUSH2 0x2085 JUMP JUMPDEST PUSH2 0x17D5 SWAP1 DUP5 PUSH2 0x2162 JUMP JUMPDEST PUSH0 SLOAD PUSH1 0x40 MLOAD PUSH4 0xF9A81AF7 PUSH1 0xE0 SHL DUP2 MSTORE PUSH1 0x4 DUP2 ADD DUP7 SWAP1 MSTORE PUSH1 0x24 DUP2 ADD DUP6 SWAP1 MSTORE SWAP2 SWAP3 POP PUSH1 0x1 PUSH1 0x1 PUSH1 0xA0 SHL SUB AND SWAP1 PUSH4 0xF9A81AF7 SWAP1 PUSH1 0x44 ADD PUSH0 PUSH1 0x40 MLOAD DUP1 DUP4 SUB DUP2 PUSH0 DUP8 DUP1 EXTCODESIZE ISZERO DUP1 ISZERO PUSH2 0x181F JUMPI PUSH0 DUP1 REVERT JUMPDEST POP GAS CALL ISZERO DUP1 ISZERO PUSH2 0x1831 JUMPI RETURNDATASIZE PUSH0 DUP1 RETURNDATACOPY RETURNDATASIZE PUSH0 REVERT JUMPDEST POP POP POP POP PUSH0 DUP1 PUSH0 SWAP1 SLOAD SWAP1 PUSH2 0x100 EXP SWAP1 DIV PUSH1 0x1 PUSH1 0x1 PUSH1 0xA0 SHL SUB AND PUSH1 0x1 PUSH1 0x1 PUSH1 0xA0 SHL SUB AND PUSH4 0x1D0806AE PUSH1 0x40 MLOAD DUP2 PUSH4 0xFFFFFFFF AND PUSH1 0xE0 SHL DUP2 MSTORE PUSH1 0x4 ADD PUSH1 0x20 PUSH1 0x40 MLOAD DUP1 DUP4 SUB DUP2 DUP7 GAS STATICCALL ISZERO DUP1 ISZERO PUSH2 0x1885 JUMPI RETURNDATASIZE PUSH0 DUP1 RETURNDATACOPY RETURNDATASIZE PUSH0 REVERT JUMPDEST POP POP POP POP PUSH1 0x40 MLOAD RETURNDATASIZE PUSH1 0x1F NOT PUSH1 0x1F DUP3 ADD AND DUP3 ADD DUP1 PUSH1 0x40 MSTORE POP DUP2 ADD SWAP1 PUSH2 0x18A9 SWAP2 SWAP1 PUSH2 0x1F40 JUMP JUMPDEST SWAP1 POP PUSH0 DUP1 PUSH0 SWAP1 SLOAD SWAP1 PUSH2 0x100 EXP SWAP1 DIV PUSH1 0x1 PUSH1 0x1 PUSH1 0xA0 SHL SUB AND PUSH1 0x1 PUSH1 0x1 PUSH1 0xA0 SHL SUB AND PUSH4 0x3E293A3 PUSH1 0x40 MLOAD DUP2 PUSH4 0xFFFFFFFF AND PUSH1 0xE0 SHL DUP2 MSTORE PUSH1 0x4 ADD PUSH1 0x20 PUSH1 0x40 MLOAD DUP1 DUP4 SUB DUP2 DUP7 GAS STATICCALL ISZERO DUP1 ISZERO PUSH2 0x18FB JUMPI RETURNDATASIZE PUSH0 DUP1 RETURNDATACOPY RETURNDATASIZE PUSH0 REVERT JUMPDEST POP POP POP POP PUSH1 0x40 MLOAD RETURNDATASIZE PUSH1 0x1F NOT PUSH1 0x1F DUP3 ADD AND DUP3 ADD DUP1 PUSH1 0x40 MSTORE POP DUP2 ADD SWAP1 PUSH2 0x191F SWAP2 SWAP1 PUSH2 0x1F40 JUMP JUMPDEST SWAP1 POP PUSH0 DUP1 PUSH0 SWAP1 SLOAD SWAP1 PUSH2 0x100 EXP SWAP1 DIV PUSH1 0x1 PUSH1 0x1 PUSH1 0xA0 SHL SUB AND PUSH1 0x1 PUSH1 0x1 PUSH1 0xA0 SHL SUB AND PUSH4 0x6D65AF3 PUSH1 0x40 MLOAD DUP2 PUSH4 0xFFFFFFFF AND PUSH1 0xE0 SHL DUP2 MSTORE PUSH1 0x4 ADD PUSH1 0x20 PUSH1 0x40 MLOAD DUP1 DUP4 SUB DUP2 DUP7 GAS STATICCALL ISZERO DUP1 ISZERO PUSH2 0x1971 JUMPI RETURNDATASIZE PUSH0 DUP1 RETURNDATACOPY RETURNDATASIZE PUSH0 REVERT JUMPDEST POP POP POP POP PUSH1 0x40 MLOAD RETURNDATASIZE PUSH1 0x1F NOT PUSH1 0x1F DUP3 ADD AND DUP3 ADD DUP1 PUSH1 0x40 MSTORE POP DUP2 ADD SWAP1 PUSH2 0x1995 SWAP2 SWAP1 PUSH2 0x1F40 JUMP JUMPDEST SWAP1 POP PUSH0 DUP1 PUSH0 SWAP1 SLOAD SWAP1 PUSH2 0x100 EXP SWAP1 DIV PUSH1 0x1 PUSH1 0x1 PUSH1 0xA0 SHL SUB AND PUSH1 0x1 PUSH1 0x1 PUSH1 0xA0 SHL SUB AND PUSH4 0xCCE29EA7 PUSH1 0x40 MLOAD DUP2 PUSH4 0xFFFFFFFF AND PUSH1 0xE0 SHL DUP2 MSTORE PUSH1 0x4 ADD PUSH1 0x20 PUSH1 0x40 MLOAD DUP1 DUP4 SUB DUP2 DUP7 GAS STATICCALL ISZERO DUP1 ISZERO PUSH2 0x19E7 JUMPI RETURNDATASIZE PUSH0 DUP1 RETURNDATACOPY RETURNDATASIZE PUSH0 REVERT JUMPDEST POP POP POP POP PUSH1 0x40 MLOAD RETURNDATASIZE PUSH1 0x1F NOT PUSH1 0x1F DUP3 ADD AND DUP3 ADD DUP1 PUSH1 0x40 MSTORE POP DUP2 ADD SWAP1 PUSH2 0x1A0B SWAP2 SWAP1 PUSH2 0x1F40 JUMP JUMPDEST SWAP1 POP PUSH0 DUP1 PUSH0 SWAP1 SLOAD SWAP1 PUSH2 0x100 EXP SWAP1 DIV PUSH1 0x1 PUSH1 0x1 PUSH1 0xA0 SHL SUB AND PUSH1 0x1 PUSH1 0x1 PUSH1 0xA0 SHL SUB AND PUSH4 0xF8102E68 PUSH1 0x40 MLOAD DUP2 PUSH4 0xFFFFFFFF AND PUSH1 0xE0 SHL DUP2 MSTORE PUSH1 0x4 ADD PUSH1 0x20 PUSH1 0x40 MLOAD DUP1 DUP4 SUB DUP2 DUP7 GAS STATICCALL ISZERO DUP1 ISZERO PUSH2 0x1A5D JUMPI RETURNDATASIZE PUSH0 DUP1 RETURNDATACOPY RETURNDATASIZE PUSH0 REVERT JUMPDEST POP POP POP POP PUSH1 0x40 MLOAD RETURNDATASIZE PUSH1 0x1F NOT PUSH1 0x1F DUP3 ADD AND DUP3 ADD DUP1 PUSH1 0x40 MSTORE POP DUP2 ADD SWAP1 PUSH2 0x1A81 SWAP2 SWAP1 PUSH2 0x1F40 JUMP JUMPDEST PUSH1 0x40 MLOAD PUSH4 0x55E6BCB PUSH1 0xE5 SHL DUP2 MSTORE SWAP1 SWAP2 POP PUSH20 0x0 SWAP1 PUSH4 0xABCD7960 SWAP1 PUSH2 0x1ABD SWAP1 DUP12 SWAP1 DUP8 SWAP1 PUSH1 0x4 ADD PUSH2 0x2175 JUMP JUMPDEST PUSH1 0x20 PUSH1 0x40 MLOAD DUP1 DUP4 SUB DUP2 DUP7 GAS DELEGATECALL ISZERO DUP1 ISZERO PUSH2 0x1AD8 JUMPI RETURNDATASIZE PUSH0 DUP1 RETURNDATACOPY RETURNDATASIZE PUSH0 REVERT JUMPDEST POP POP POP POP PUSH1 0x40 MLOAD RETURNDATASIZE PUSH1 0x1F NOT PUSH1 0x1F DUP3 ADD AND DUP3 ADD DUP1 PUSH1 0x40 MSTORE POP DUP2 ADD SWAP1 PUSH2 0x1AFC SWAP2 SWAP1 PUSH2 0x209C JUMP JUMPDEST POP PUSH1 0x40 MLOAD PUSH4 0x55E6BCB PUSH1 0xE5 SHL DUP2 MSTORE PUSH1 0x4 DUP2 ADD DUP8 SWAP1 MSTORE PUSH1 0x24 DUP2 ADD DUP4 SWAP1 MSTORE PUSH1 0x60 PUSH1 0x44 DUP3 ADD MSTORE PUSH1 0x1F PUSH1 0x64 DUP3 ADD MSTORE PUSH32 0x636F6E747261637450726553616C65456E642073686F756C64206D6174636800 PUSH1 0x84 DUP3 ADD MSTORE PUSH20 0x0 SWAP1 PUSH4 0xABCD7960 SWAP1 PUSH1 0xA4 ADD PUSH1 0x20 PUSH1 0x40 MLOAD DUP1 DUP4 SUB DUP2 DUP7 GAS DELEGATECALL ISZERO DUP1 ISZERO PUSH2 0x1B86 JUMPI RETURNDATASIZE PUSH0 DUP1 RETURNDATACOPY RETURNDATASIZE PUSH0 REVERT JUMPDEST POP POP POP POP PUSH1 0x40 MLOAD RETURNDATASIZE PUSH1 0x1F NOT PUSH1 0x1F DUP3 ADD AND DUP3 ADD DUP1 PUSH1 0x40 MSTORE POP DUP2 ADD SWAP1 PUSH2 0x1BAA SWAP2 SWAP1 PUSH2 0x209C JUMP JUMPDEST POP PUSH1 0x40 MLOAD PUSH4 0x55E6BCB PUSH1 0xE5 SHL DUP2 MSTORE PUSH1 0x4 DUP2 ADD DUP7 SWAP1 MSTORE PUSH7 0x38D7EA4C68000 PUSH1 0x24 DUP3 ADD MSTORE PUSH1 0x60 PUSH1 0x44 DUP3 ADD MSTORE PUSH1 0x19 PUSH1 0x64 DUP3 ADD MSTORE PUSH25 0xE0E4CAA6C2D8CAA0E4D2C6CA40E6D0DEEAD8C840DAC2E8C6D PUSH1 0x3B SHL PUSH1 0x84 DUP3 ADD MSTORE PUSH20 0x0 SWAP1 PUSH4 0xABCD7960 SWAP1 PUSH1 0xA4 ADD PUSH1 0x20 PUSH1 0x40 MLOAD DUP1 DUP4 SUB DUP2 DUP7 GAS DELEGATECALL ISZERO DUP1 ISZERO PUSH2 0x1C36 JUMPI RETURNDATASIZE PUSH0 DUP1 RETURNDATACOPY RETURNDATASIZE PUSH0 REVERT JUMPDEST POP POP POP POP PUSH1 0x40 MLOAD RETURNDATASIZE PUSH1 0x1F NOT PUSH1 0x1F DUP3 ADD AND DUP3 ADD DUP1 PUSH1 0x40 MSTORE POP DUP2 ADD SWAP1 PUSH2 0x1C5A SWAP2 SWAP1 PUSH2 0x209C JUMP JUMPDEST POP PUSH1 0x40 MLOAD PUSH4 0x55E6BCB PUSH1 0xE5 SHL DUP2 MSTORE PUSH1 0x4 DUP2 ADD DUP6 SWAP1 MSTORE PUSH7 0x71AFD498D0000 PUSH1 0x24 DUP3 ADD MSTORE PUSH1 0x60 PUSH1 0x44 DUP3 ADD MSTORE PUSH1 0x19 PUSH1 0x64 DUP3 ADD MSTORE PUSH25 0xE4CACEEAD8C2E4A0E4D2C6CA40E6D0DEEAD8C840DAC2E8C6D PUSH1 0x3B SHL PUSH1 0x84 DUP3 ADD MSTORE PUSH20 0x0 SWAP1 PUSH4 0xABCD7960 SWAP1 PUSH1 0xA4 ADD PUSH1 0x20 PUSH1 0x40 MLOAD DUP1 DUP4 SUB DUP2 DUP7 GAS DELEGATECALL ISZERO DUP1 ISZERO PUSH2 0x1CE6 JUMPI RETURNDATASIZE PUSH0 DUP1 RETURNDATACOPY RETURNDATASIZE PUSH0 REVERT JUMPDEST POP POP POP POP PUSH1 0x40 MLOAD RETURNDATASIZE PUSH1 0x1F NOT PUSH1 0x1F DUP3 ADD AND DUP3 ADD DUP1 PUSH1 0x40 MSTORE POP DUP2 ADD SWAP1 PUSH2 0x1D0A SWAP2 SWAP1 PUSH2 0x209C JUMP JUMPDEST POP PUSH1 0x40 MLOAD PUSH4 0x55E6BCB PUSH1 0xE5 SHL DUP2 MSTORE PUSH1 0x4 DUP2 ADD DUP3 SWAP1 MSTORE PUSH1 0x24 DUP2 ADD DUP9 SWAP1 MSTORE PUSH1 0x60 PUSH1 0x44 DUP3 ADD MSTORE PUSH1 0x19 PUSH1 0x64 DUP3 ADD MSTORE PUSH25 0xE0E4CAA6C2D8CAAECACAD6E640E6D0DEEAD8C840DAC2E8C6D PUSH1 0x3B SHL PUSH1 0x84 DUP3 ADD MSTORE PUSH20 0x0 SWAP1 PUSH4 0xABCD7960 SWAP1 PUSH1 0xA4 ADD PUSH1 0x20 PUSH1 0x40 MLOAD DUP1 DUP4 SUB DUP2 DUP7 GAS DELEGATECALL ISZERO DUP1 ISZERO PUSH2 0x1D90 JUMPI RETURNDATASIZE PUSH0 DUP1 RETURNDATACOPY RETURNDATASIZE PUSH0 REVERT JUMPDEST POP POP POP POP PUSH1 0x40 MLOAD RETURNDATASIZE PUSH1 0x1F NOT PUSH1 0x1F DUP3 ADD AND DUP3 ADD DUP1 PUSH1 0x40 MSTORE POP DUP2 ADD SWAP1 PUSH2 0x1DB4 SWAP2 SWAP1 PUSH2 0x209C JUMP JUMPDEST POP PUSH0 DUP1 SLOAD PUSH1 0x2 SLOAD PUSH1 0x40 MLOAD PUSH4 0x16331CB PUSH1 0xE5 SHL DUP2 MSTORE PUSH1 0x4 DUP2 ADD DUP13 SWAP1 MSTORE PUSH1 0x24 DUP2 ADD SWAP2 SWAP1 SWAP2 MSTORE PUSH1 0x1 PUSH1 0x1 PUSH1 0xA0 SHL SUB SWAP1 SWAP2 AND SWAP1 PUSH4 0x2C663960 SWAP1 PUSH1 0x44 ADD PUSH1 0x20 PUSH1 0x40 MLOAD DUP1 DUP4 SUB DUP2 DUP7 GAS STATICCALL ISZERO DUP1 ISZERO PUSH2 0x1E07 JUMPI RETURNDATASIZE PUSH0 DUP1 RETURNDATACOPY RETURNDATASIZE PUSH0 REVERT JUMPDEST POP POP POP POP PUSH1 0x40 MLOAD RETURNDATASIZE PUSH1 0x1F NOT PUSH1 0x1F DUP3 ADD AND DUP3 ADD DUP1 PUSH1 0x40 MSTORE POP DUP2 ADD SWAP1 PUSH2 0x1E2B SWAP2 SWAP1 PUSH2 0x1F40 JUMP JUMPDEST PUSH1 0x40 MLOAD PUSH4 0x55E6BCB PUSH1 0xE5 SHL DUP2 MSTORE SWAP1 SWAP2 POP PUSH20 0x0 SWAP1 PUSH4 0xABCD7960 SWAP1 PUSH2 0x10A4 SWAP1 DUP5 SWAP1 PUSH1 0x3 SWAP1 PUSH1 0x4 ADD PUSH2 0x21C2 JUMP JUMPDEST PUSH0 PUSH3 0x127500 PUSH1 0x2 SLOAD PUSH2 0x1E7A SWAP2 SWAP1 PUSH2 0x2102 JUMP JUMPDEST PUSH1 0x2 SLOAD PUSH0 DUP1 SLOAD PUSH1 0x40 MLOAD PUSH4 0x16331CB PUSH1 0xE5 SHL DUP2 MSTORE PUSH1 0x4 DUP2 ADD DUP6 SWAP1 MSTORE PUSH1 0x24 DUP2 ADD DUP5 SWAP1 MSTORE SWAP4 SWAP5 POP SWAP2 SWAP3 SWAP1 SWAP2 PUSH1 0x1 PUSH1 0x1 PUSH1 0xA0 SHL SUB AND SWAP1 PUSH4 0x2C663960 SWAP1 PUSH1 0x44 ADD PUSH1 0x20 PUSH1 0x40 MLOAD DUP1 DUP4 SUB DUP2 DUP7 GAS STATICCALL ISZERO DUP1 ISZERO PUSH2 0x1ED0 JUMPI RETURNDATASIZE PUSH0 DUP1 RETURNDATACOPY RETURNDATASIZE PUSH0 REVERT JUMPDEST POP POP POP POP PUSH1 0x40 MLOAD RETURNDATASIZE PUSH1 0x1F NOT PUSH1 0x1F DUP3 ADD AND DUP3 ADD DUP1 PUSH1 0x40 MSTORE POP DUP2 ADD SWAP1 PUSH2 0x1EF4 SWAP2 SWAP1 PUSH2 0x1F40 JUMP JUMPDEST PUSH1 0x40 MLOAD PUSH4 0x55E6BCB PUSH1 0xE5 SHL DUP2 MSTORE SWAP1 SWAP2 POP PUSH1 0x2 SWAP1 PUSH20 0x0 SWAP1 PUSH4 0xABCD7960 SWAP1 PUSH2 0x46B SWAP1 DUP6 SWAP1 DUP6 SWAP1 PUSH1 0x4 ADD PUSH2 0x2115 JUMP JUMPDEST PUSH2 0x1D69 DUP1 PUSH2 0x2248 DUP4 CODECOPY ADD SWAP1 JUMP JUMPDEST PUSH0 PUSH1 0x20 DUP3 DUP5 SUB SLT ISZERO PUSH2 0x1F50 JUMPI PUSH0 DUP1 REVERT JUMPDEST POP MLOAD SWAP2 SWAP1 POP JUMP JUMPDEST PUSH0 PUSH1 0x20 DUP3 DUP5 SUB SLT ISZERO PUSH2 0x1F67 JUMPI PUSH0 DUP1 REVERT JUMPDEST DUP2 MLOAD PUSH1 0xFF DUP2 AND DUP2 EQ PUSH2 0x1F77 JUMPI PUSH0 DUP1 REVERT JUMPDEST SWAP4 SWAP3 POP POP POP JUMP JUMPDEST PUSH4 0x4E487B71 PUSH1 0xE0 SHL PUSH0 MSTORE PUSH1 0x11 PUSH1 0x4 MSTORE PUSH1 0x24 PUSH0 REVERT JUMPDEST PUSH1 0x1 DUP2 JUMPDEST PUSH1 0x1 DUP5 GT ISZERO PUSH2 0x1FCD JUMPI DUP1 DUP6 DIV DUP2 GT ISZERO PUSH2 0x1FB1 JUMPI PUSH2 0x1FB1 PUSH2 0x1F7E JUMP JUMPDEST PUSH1 0x1 DUP5 AND ISZERO PUSH2 0x1FBF JUMPI SWAP1 DUP2 MUL SWAP1 JUMPDEST PUSH1 0x1 SWAP4 SWAP1 SWAP4 SHR SWAP3 DUP1 MUL PUSH2 0x1F96 JUMP JUMPDEST SWAP4 POP SWAP4 SWAP2 POP POP JUMP JUMPDEST PUSH0 DUP3 PUSH2 0x1FE3 JUMPI POP PUSH1 0x1 PUSH2 0x2071 JUMP JUMPDEST DUP2 PUSH2 0x1FEF JUMPI POP PUSH0 PUSH2 0x2071 JUMP JUMPDEST DUP2 PUSH1 0x1 DUP2 EQ PUSH2 0x2005 JUMPI PUSH1 0x2 DUP2 EQ PUSH2 0x200F JUMPI PUSH2 0x202B JUMP JUMPDEST PUSH1 0x1 SWAP2 POP POP PUSH2 0x2071 JUMP JUMPDEST PUSH1 0xFF DUP5 GT ISZERO PUSH2 0x2020 JUMPI PUSH2 0x2020 PUSH2 0x1F7E JUMP JUMPDEST POP POP PUSH1 0x1 DUP3 SHL PUSH2 0x2071 JUMP JUMPDEST POP PUSH1 0x20 DUP4 LT PUSH2 0x133 DUP4 LT AND PUSH1 0x4E DUP5 LT PUSH1 0xB DUP5 LT AND OR ISZERO PUSH2 0x204E JUMPI POP DUP2 DUP2 EXP PUSH2 0x2071 JUMP JUMPDEST PUSH2 0x205A PUSH0 NOT DUP5 DUP5 PUSH2 0x1F92 JUMP JUMPDEST DUP1 PUSH0 NOT DIV DUP3 GT ISZERO PUSH2 0x206D JUMPI PUSH2 0x206D PUSH2 0x1F7E JUMP JUMPDEST MUL SWAP1 POP JUMPDEST SWAP3 SWAP2 POP POP JUMP JUMPDEST PUSH0 PUSH2 0x1F77 PUSH1 0xFF DUP5 AND DUP4 PUSH2 0x1FD5 JUMP JUMPDEST DUP1 DUP3 MUL DUP2 ISZERO DUP3 DUP3 DIV DUP5 EQ OR PUSH2 0x2071 JUMPI PUSH2 0x2071 PUSH2 0x1F7E JUMP JUMPDEST PUSH0 PUSH1 0x20 DUP3 DUP5 SUB SLT ISZERO PUSH2 0x20AC JUMPI PUSH0 DUP1 REVERT JUMPDEST DUP2 MLOAD DUP1 ISZERO ISZERO DUP2 EQ PUSH2 0x1F77 JUMPI PUSH0 DUP1 REVERT JUMPDEST SWAP2 ISZERO ISZERO DUP3 MSTORE ISZERO ISZERO PUSH1 0x20 DUP3 ADD MSTORE PUSH1 0x60 PUSH1 0x40 DUP3 ADD DUP2 SWAP1 MSTORE PUSH1 0x18 SWAP1 DUP3 ADD MSTORE PUSH32 0x50726573616C652073686F756C64206265206163746976650000000000000000 PUSH1 0x80 DUP3 ADD MSTORE PUSH1 0xA0 ADD SWAP1 JUMP JUMPDEST DUP2 DUP2 SUB DUP2 DUP2 GT ISZERO PUSH2 0x2071 JUMPI PUSH2 0x2071 PUSH2 0x1F7E JUMP JUMPDEST SWAP2 DUP3 MSTORE PUSH1 0x20 DUP3 ADD MSTORE PUSH1 0x60 PUSH1 0x40 DUP3 ADD DUP2 SWAP1 MSTORE PUSH1 0x21 SWAP1 DUP3 ADD MSTORE PUSH32 0x5468652063616C63756C61746564207765656B732073686F756C642062652032 PUSH1 0x80 DUP3 ADD MSTORE PUSH1 0x17 PUSH1 0xF9 SHL PUSH1 0xA0 DUP3 ADD MSTORE PUSH1 0xC0 ADD SWAP1 JUMP JUMPDEST DUP1 DUP3 ADD DUP1 DUP3 GT ISZERO PUSH2 0x2071 JUMPI PUSH2 0x2071 PUSH2 0x1F7E JUMP JUMPDEST SWAP2 DUP3 MSTORE PUSH1 0x20 DUP3 ADD MSTORE PUSH1 0x60 PUSH1 0x40 DUP3 ADD DUP2 SWAP1 MSTORE PUSH1 0x21 SWAP1 DUP3 ADD MSTORE PUSH32 0x636F6E747261637450726553616C6553746172742073686F756C64206D617463 PUSH1 0x80 DUP3 ADD MSTORE PUSH1 0xD PUSH1 0xFB SHL PUSH1 0xA0 DUP3 ADD MSTORE PUSH1 0xC0 ADD SWAP1 JUMP JUMPDEST DUP3 DUP2 MSTORE DUP2 PUSH1 0x20 DUP3 ADD MSTORE PUSH1 0x60 PUSH1 0x40 DUP3 ADD MSTORE PUSH0 PUSH2 0x220A PUSH1 0x60 DUP4 ADD PUSH1 0x18 DUP2 MSTORE PUSH32 0x7765656B73456C61707365642073686F756C6420626520320000000000000000 PUSH1 0x20 DUP3 ADD MSTORE PUSH1 0x40 ADD SWAP1 JUMP JUMPDEST SWAP5 SWAP4 POP POP POP POP JUMP JUMPDEST PUSH0 DUP3 PUSH2 0x222C JUMPI PUSH4 0x4E487B71 PUSH1 0xE0 SHL PUSH0 MSTORE PUSH1 0x12 PUSH1 0x4 MSTORE PUSH1 0x24 PUSH0 REVERT JUMPDEST POP DIV SWAP1 JUMP JUMPDEST PUSH0 DUP3 MLOAD DUP1 PUSH1 0x20 DUP6 ADD DUP5 MCOPY PUSH0 SWAP3 ADD SWAP2 DUP3 MSTORE POP SWAP2 SWAP1 POP JUMP INVALID PUSH1 0x80 PUSH1 0x40 MSTORE CALLVALUE DUP1 ISZERO PUSH2 0xF JUMPI PUSH0 DUP1 REVERT JUMPDEST POP PUSH1 0x40 MLOAD PUSH2 0x1D69 CODESIZE SUB DUP1 PUSH2 0x1D69 DUP4 CODECOPY DUP2 ADD PUSH1 0x40 DUP2 SWAP1 MSTORE PUSH2 0x2E SWAP2 PUSH2 0x2BA JUMP JUMPDEST DUP6 PUSH1 0x40 MLOAD DUP1 PUSH1 0x40 ADD PUSH1 0x40 MSTORE DUP1 PUSH1 0xB DUP2 MSTORE PUSH1 0x20 ADD PUSH11 0x2730BA3AB932AA37B5B2B7 PUSH1 0xA9 SHL DUP2 MSTORE POP PUSH1 0x40 MLOAD DUP1 PUSH1 0x40 ADD PUSH1 0x40 MSTORE DUP1 PUSH1 0x3 DUP2 MSTORE PUSH1 0x20 ADD PUSH3 0x272A29 PUSH1 0xE9 SHL DUP2 MSTORE POP DUP2 PUSH1 0x3 SWAP1 DUP2 PUSH2 0x7E SWAP2 SWAP1 PUSH2 0x3AC JUMP JUMPDEST POP PUSH1 0x4 PUSH2 0x8B DUP3 DUP3 PUSH2 0x3AC JUMP JUMPDEST POP POP POP PUSH1 0x1 PUSH1 0x1 PUSH1 0xA0 SHL SUB DUP2 AND PUSH2 0xBC JUMPI PUSH1 0x40 MLOAD PUSH4 0x1E4FBDF7 PUSH1 0xE0 SHL DUP2 MSTORE PUSH0 PUSH1 0x4 DUP3 ADD MSTORE PUSH1 0x24 ADD JUMPDEST PUSH1 0x40 MLOAD DUP1 SWAP2 SUB SWAP1 REVERT JUMPDEST PUSH2 0xC5 DUP2 PUSH2 0x10B JUMP JUMPDEST POP PUSH2 0xE5 ADDRESS PUSH2 0xD6 PUSH1 0x12 PUSH1 0xA PUSH2 0x55F JUMP JUMPDEST PUSH2 0xE0 SWAP1 DUP9 PUSH2 0x574 JUMP JUMPDEST PUSH2 0x15C JUMP JUMPDEST PUSH1 0x8 SWAP4 SWAP1 SWAP4 SSTORE PUSH1 0xA SWAP2 SWAP1 SWAP2 SSTORE PUSH1 0x9 SSTORE PUSH1 0xD SSTORE POP POP PUSH1 0x5 DUP1 SLOAD PUSH1 0xFF PUSH1 0xA0 SHL NOT AND SWAP1 SSTORE PUSH2 0x59E JUMP JUMPDEST PUSH1 0x5 DUP1 SLOAD PUSH1 0x1 PUSH1 0x1 PUSH1 0xA0 SHL SUB DUP4 DUP2 AND PUSH1 0x1 PUSH1 0x1 PUSH1 0xA0 SHL SUB NOT DUP4 AND DUP2 OR SWAP1 SWAP4 SSTORE PUSH1 0x40 MLOAD SWAP2 AND SWAP2 SWAP1 DUP3 SWAP1 PUSH32 0x8BE0079C531659141344CD1FD0A4F28419497F9722A3DAAFE3B4186F6B6457E0 SWAP1 PUSH0 SWAP1 LOG3 POP POP JUMP JUMPDEST PUSH1 0x1 PUSH1 0x1 PUSH1 0xA0 SHL SUB DUP3 AND PUSH2 0x185 JUMPI PUSH1 0x40 MLOAD PUSH4 0xEC442F05 PUSH1 0xE0 SHL DUP2 MSTORE PUSH0 PUSH1 0x4 DUP3 ADD MSTORE PUSH1 0x24 ADD PUSH2 0xB3 JUMP JUMPDEST PUSH2 0x190 PUSH0 DUP4 DUP4 PUSH2 0x194 JUMP JUMPDEST POP POP JUMP JUMPDEST PUSH1 0x1 PUSH1 0x1 PUSH1 0xA0 SHL SUB DUP4 AND PUSH2 0x1BE JUMPI DUP1 PUSH1 0x2 PUSH0 DUP3 DUP3 SLOAD PUSH2 0x1B3 SWAP2 SWAP1 PUSH2 0x58B JUMP JUMPDEST SWAP1 SWAP2 SSTORE POP PUSH2 0x22E SWAP1 POP JUMP JUMPDEST PUSH1 0x1 PUSH1 0x1 PUSH1 0xA0 SHL SUB DUP4 AND PUSH0 SWAP1 DUP2 MSTORE PUSH1 0x20 DUP2 SWAP1 MSTORE PUSH1 0x40 SWAP1 KECCAK256 SLOAD DUP2 DUP2 LT ISZERO PUSH2 0x210 JUMPI PUSH1 0x40 MLOAD PUSH4 0x391434E3 PUSH1 0xE2 SHL DUP2 MSTORE PUSH1 0x1 PUSH1 0x1 PUSH1 0xA0 SHL SUB DUP6 AND PUSH1 0x4 DUP3 ADD MSTORE PUSH1 0x24 DUP2 ADD DUP3 SWAP1 MSTORE PUSH1 0x44 DUP2 ADD DUP4 SWAP1 MSTORE PUSH1 0x64 ADD PUSH2 0xB3 JUMP JUMPDEST PUSH1 0x1 PUSH1 0x1 PUSH1 0xA0 SHL SUB DUP5 AND PUSH0 SWAP1 DUP2 MSTORE PUSH1 0x20 DUP2 SWAP1 MSTORE PUSH1 0x40 SWAP1 KECCAK256 SWAP1 DUP3 SWAP1 SUB SWAP1 SSTORE JUMPDEST PUSH1 0x1 PUSH1 0x1 PUSH1 0xA0 SHL SUB DUP3 AND PUSH2 0x24A JUMPI PUSH1 0x2 DUP1 SLOAD DUP3 SWAP1 SUB SWAP1 SSTORE PUSH2 0x268 JUMP JUMPDEST PUSH1 0x1 PUSH1 0x1 PUSH1 0xA0 SHL SUB DUP3 AND PUSH0 SWAP1 DUP2 MSTORE PUSH1 0x20 DUP2 SWAP1 MSTORE PUSH1 0x40 SWAP1 KECCAK256 DUP1 SLOAD DUP3 ADD SWAP1 SSTORE JUMPDEST DUP2 PUSH1 0x1 PUSH1 0x1 PUSH1 0xA0 SHL SUB AND DUP4 PUSH1 0x1 PUSH1 0x1 PUSH1 0xA0 SHL SUB AND PUSH32 0xDDF252AD1BE2C89B69C2B068FC378DAA952BA7F163C4A11628F55A4DF523B3EF DUP4 PUSH1 0x40 MLOAD PUSH2 0x2AD SWAP2 DUP2 MSTORE PUSH1 0x20 ADD SWAP1 JUMP JUMPDEST PUSH1 0x40 MLOAD DUP1 SWAP2 SUB SWAP1 LOG3 POP POP POP JUMP JUMPDEST PUSH0 DUP1 PUSH0 DUP1 PUSH0 DUP1 PUSH1 0xC0 DUP8 DUP10 SUB SLT ISZERO PUSH2 0x2CF JUMPI PUSH0 DUP1 REVERT JUMPDEST DUP7 MLOAD PUSH1 0x1 PUSH1 0x1 PUSH1 0xA0 SHL SUB DUP2 AND DUP2 EQ PUSH2 0x2E5 JUMPI PUSH0 DUP1 REVERT JUMPDEST PUSH1 0x20 DUP9 ADD MLOAD PUSH1 0x40 DUP10 ADD MLOAD PUSH1 0x60 DUP11 ADD MLOAD PUSH1 0x80 DUP12 ADD MLOAD PUSH1 0xA0 SWAP1 SWAP12 ADD MLOAD SWAP4 SWAP13 SWAP3 SWAP12 POP SWAP1 SWAP10 SWAP1 SWAP9 POP SWAP7 POP SWAP1 SWAP5 POP SWAP3 POP POP POP JUMP JUMPDEST PUSH4 0x4E487B71 PUSH1 0xE0 SHL PUSH0 MSTORE PUSH1 0x41 PUSH1 0x4 MSTORE PUSH1 0x24 PUSH0 REVERT JUMPDEST PUSH1 0x1 DUP2 DUP2 SHR SWAP1 DUP3 AND DUP1 PUSH2 0x33C JUMPI PUSH1 0x7F DUP3 AND SWAP2 POP JUMPDEST PUSH1 0x20 DUP3 LT DUP2 SUB PUSH2 0x35A JUMPI PUSH4 0x4E487B71 PUSH1 0xE0 SHL PUSH0 MSTORE PUSH1 0x22 PUSH1 0x4 MSTORE PUSH1 0x24 PUSH0 REVERT JUMPDEST POP SWAP2 SWAP1 POP JUMP JUMPDEST PUSH1 0x1F DUP3 GT ISZERO PUSH2 0x3A7 JUMPI DUP1 PUSH0 MSTORE PUSH1 0x20 PUSH0 KECCAK256 PUSH1 0x1F DUP5 ADD PUSH1 0x5 SHR DUP2 ADD PUSH1 0x20 DUP6 LT ISZERO PUSH2 0x385 JUMPI POP DUP1 JUMPDEST PUSH1 0x1F DUP5 ADD PUSH1 0x5 SHR DUP3 ADD SWAP2 POP JUMPDEST DUP2 DUP2 LT ISZERO PUSH2 0x3A4 JUMPI PUSH0 DUP2 SSTORE PUSH1 0x1 ADD PUSH2 0x391 JUMP JUMPDEST POP POP JUMPDEST POP POP POP JUMP JUMPDEST DUP2 MLOAD PUSH1 0x1 PUSH1 0x1 PUSH1 0x40 SHL SUB DUP2 GT ISZERO PUSH2 0x3C5 JUMPI PUSH2 0x3C5 PUSH2 0x314 JUMP JUMPDEST PUSH2 0x3D9 DUP2 PUSH2 0x3D3 DUP5 SLOAD PUSH2 0x328 JUMP JUMPDEST DUP5 PUSH2 0x360 JUMP JUMPDEST PUSH1 0x20 PUSH1 0x1F DUP3 GT PUSH1 0x1 DUP2 EQ PUSH2 0x40B JUMPI PUSH0 DUP4 ISZERO PUSH2 0x3F4 JUMPI POP DUP5 DUP3 ADD MLOAD JUMPDEST PUSH0 NOT PUSH1 0x3 DUP6 SWAP1 SHL SHR NOT AND PUSH1 0x1 DUP5 SWAP1 SHL OR DUP5 SSTORE PUSH2 0x3A4 JUMP JUMPDEST PUSH0 DUP5 DUP2 MSTORE PUSH1 0x20 DUP2 KECCAK256 PUSH1 0x1F NOT DUP6 AND SWAP2 JUMPDEST DUP3 DUP2 LT ISZERO PUSH2 0x43A JUMPI DUP8 DUP6 ADD MLOAD DUP3 SSTORE PUSH1 0x20 SWAP5 DUP6 ADD SWAP5 PUSH1 0x1 SWAP1 SWAP3 ADD SWAP2 ADD PUSH2 0x41A JUMP JUMPDEST POP DUP5 DUP3 LT ISZERO PUSH2 0x457 JUMPI DUP7 DUP5 ADD MLOAD PUSH0 NOT PUSH1 0x3 DUP8 SWAP1 SHL PUSH1 0xF8 AND SHR NOT AND DUP2 SSTORE JUMPDEST POP POP POP POP PUSH1 0x1 SWAP1 DUP2 SHL ADD SWAP1 SSTORE POP JUMP JUMPDEST PUSH4 0x4E487B71 PUSH1 0xE0 SHL PUSH0 MSTORE PUSH1 0x11 PUSH1 0x4 MSTORE PUSH1 0x24 PUSH0 REVERT JUMPDEST PUSH1 0x1 DUP2 JUMPDEST PUSH1 0x1 DUP5 GT ISZERO PUSH2 0x4B5 JUMPI DUP1 DUP6 DIV DUP2 GT ISZERO PUSH2 0x499 JUMPI PUSH2 0x499 PUSH2 0x466 JUMP JUMPDEST PUSH1 0x1 DUP5 AND ISZERO PUSH2 0x4A7 JUMPI SWAP1 DUP2 MUL SWAP1 JUMPDEST PUSH1 0x1 SWAP4 SWAP1 SWAP4 SHR SWAP3 DUP1 MUL PUSH2 0x47E JUMP JUMPDEST SWAP4 POP SWAP4 SWAP2 POP POP JUMP JUMPDEST PUSH0 DUP3 PUSH2 0x4CB JUMPI POP PUSH1 0x1 PUSH2 0x559 JUMP JUMPDEST DUP2 PUSH2 0x4D7 JUMPI POP PUSH0 PUSH2 0x559 JUMP JUMPDEST DUP2 PUSH1 0x1 DUP2 EQ PUSH2 0x4ED JUMPI PUSH1 0x2 DUP2 EQ PUSH2 0x4F7 JUMPI PUSH2 0x513 JUMP JUMPDEST PUSH1 0x1 SWAP2 POP POP PUSH2 0x559 JUMP JUMPDEST PUSH1 0xFF DUP5 GT ISZERO PUSH2 0x508 JUMPI PUSH2 0x508 PUSH2 0x466 JUMP JUMPDEST POP POP PUSH1 0x1 DUP3 SHL PUSH2 0x559 JUMP JUMPDEST POP PUSH1 0x20 DUP4 LT PUSH2 0x133 DUP4 LT AND PUSH1 0x4E DUP5 LT PUSH1 0xB DUP5 LT AND OR ISZERO PUSH2 0x536 JUMPI POP DUP2 DUP2 EXP PUSH2 0x559 JUMP JUMPDEST PUSH2 0x542 PUSH0 NOT DUP5 DUP5 PUSH2 0x47A JUMP JUMPDEST DUP1 PUSH0 NOT DIV DUP3 GT ISZERO PUSH2 0x555 JUMPI PUSH2 0x555 PUSH2 0x466 JUMP JUMPDEST MUL SWAP1 POP JUMPDEST SWAP3 SWAP2 POP POP JUMP JUMPDEST PUSH0 PUSH2 0x56D PUSH1 0xFF DUP5 AND DUP4 PUSH2 0x4BD JUMP JUMPDEST SWAP4 SWAP3 POP POP POP JUMP JUMPDEST DUP1 DUP3 MUL DUP2 ISZERO DUP3 DUP3 DIV DUP5 EQ OR PUSH2 0x559 JUMPI PUSH2 0x559 PUSH2 0x466 JUMP JUMPDEST DUP1 DUP3 ADD DUP1 DUP3 GT ISZERO PUSH2 0x559 JUMPI PUSH2 0x559 PUSH2 0x466 JUMP JUMPDEST PUSH2 0x17BE DUP1 PUSH2 0x5AB PUSH0 CODECOPY PUSH0 RETURN INVALID PUSH1 0x80 PUSH1 0x40 MSTORE PUSH1 0x4 CALLDATASIZE LT PUSH2 0x228 JUMPI PUSH0 CALLDATALOAD PUSH1 0xE0 SHR DUP1 PUSH4 0x7547C7A3 GT PUSH2 0x129 JUMPI DUP1 PUSH4 0xA9059CBB GT PUSH2 0xA8 JUMPI DUP1 PUSH4 0xDD62ED3E GT PUSH2 0x6D JUMPI DUP1 PUSH4 0xDD62ED3E EQ PUSH2 0x634 JUMPI DUP1 PUSH4 0xF2FDE38B EQ PUSH2 0x678 JUMPI DUP1 PUSH4 0xF8102E68 EQ PUSH2 0x697 JUMPI DUP1 PUSH4 0xF9931855 EQ PUSH2 0x6AC JUMPI DUP1 PUSH4 0xF9A81AF7 EQ PUSH2 0x6D7 JUMPI PUSH0 DUP1 REVERT JUMPDEST DUP1 PUSH4 0xA9059CBB EQ PUSH2 0x5B9 JUMPI DUP1 PUSH4 0xCCE29EA7 EQ PUSH2 0x5D8 JUMPI DUP1 PUSH4 0xCEC297A0 EQ PUSH2 0x5ED JUMPI DUP1 PUSH4 0xD0FEBE4C EQ PUSH2 0x618 JUMPI DUP1 PUSH4 0xD348B409 EQ PUSH2 0x620 JUMPI PUSH0 DUP1 REVERT JUMPDEST DUP1 PUSH4 0x95D89B41 GT PUSH2 0xEE JUMPI DUP1 PUSH4 0x95D89B41 EQ PUSH2 0x510 JUMPI DUP1 PUSH4 0x9B19251A EQ PUSH2 0x524 JUMPI DUP1 PUSH4 0x9CA423B3 EQ PUSH2 0x552 JUMPI DUP1 PUSH4 0xA09C4CF4 EQ PUSH2 0x586 JUMPI DUP1 PUSH4 0xA5CE413B EQ PUSH2 0x5A5 JUMPI PUSH0 DUP1 REVERT JUMPDEST DUP1 PUSH4 0x7547C7A3 EQ PUSH2 0x462 JUMPI DUP1 PUSH4 0x7C613B2F EQ PUSH2 0x481 JUMPI DUP1 PUSH4 0x8265324D EQ PUSH2 0x495 JUMPI DUP1 PUSH4 0x8DA5CB5B EQ PUSH2 0x4B4 JUMPI DUP1 PUSH4 0x8F0794FE EQ PUSH2 0x4E5 JUMPI PUSH0 DUP1 REVERT JUMPDEST DUP1 PUSH4 0x2C663960 GT PUSH2 0x1B5 JUMPI DUP1 PUSH4 0x4F3FC2DF GT PUSH2 0x17A JUMPI DUP1 PUSH4 0x4F3FC2DF EQ PUSH2 0x3D9 JUMPI DUP1 PUSH4 0x518AB2A8 EQ PUSH2 0x3EE JUMPI DUP1 PUSH4 0x70A08231 EQ PUSH2 0x403 JUMPI DUP1 PUSH4 0x715018A6 EQ PUSH2 0x437 JUMPI DUP1 PUSH4 0x7165D19B EQ PUSH2 0x44D JUMPI PUSH0 DUP1 REVERT JUMPDEST DUP1 PUSH4 0x2C663960 EQ PUSH2 0x34B JUMPI DUP1 PUSH4 0x30F72CD4 EQ PUSH2 0x36A JUMPI DUP1 PUSH4 0x313CE567 EQ PUSH2 0x38A JUMPI DUP1 PUSH4 0x329A27E7 EQ PUSH2 0x3A5 JUMPI DUP1 PUSH4 0x4405DF4A EQ PUSH2 0x3C5 JUMPI PUSH0 DUP1 REVERT JUMPDEST DUP1 PUSH4 0xD505541 GT PUSH2 0x1FB JUMPI DUP1 PUSH4 0xD505541 EQ PUSH2 0x2B9 JUMPI DUP1 PUSH4 0x18160DDD EQ PUSH2 0x2D8 JUMPI DUP1 PUSH4 0x1D0806AE EQ PUSH2 0x2EC JUMPI DUP1 PUSH4 0x23B872DD EQ PUSH2 0x301 JUMPI DUP1 PUSH4 0x27E235E3 EQ PUSH2 0x320 JUMPI PUSH0 DUP1 REVERT JUMPDEST DUP1 PUSH4 0x3E293A3 EQ PUSH2 0x22C JUMPI DUP1 PUSH4 0x6D65AF3 EQ PUSH2 0x254 JUMPI DUP1 PUSH4 0x6FDDE03 EQ PUSH2 0x269 JUMPI DUP1 PUSH4 0x95EA7B3 EQ PUSH2 0x28A JUMPI JUMPDEST PUSH0 DUP1 REVERT JUMPDEST CALLVALUE DUP1 ISZERO PUSH2 0x237 JUMPI PUSH0 DUP1 REVERT JUMPDEST POP PUSH2 0x241 PUSH1 0x9 SLOAD DUP2 JUMP JUMPDEST PUSH1 0x40 MLOAD SWAP1 DUP2 MSTORE PUSH1 0x20 ADD JUMPDEST PUSH1 0x40 MLOAD DUP1 SWAP2 SUB SWAP1 RETURN JUMPDEST CALLVALUE DUP1 ISZERO PUSH2 0x25F JUMPI PUSH0 DUP1 REVERT JUMPDEST POP PUSH2 0x241 PUSH1 0x6 SLOAD DUP2 JUMP JUMPDEST CALLVALUE DUP1 ISZERO PUSH2 0x274 JUMPI PUSH0 DUP1 REVERT JUMPDEST POP PUSH2 0x27D PUSH2 0x6F6 JUMP JUMPDEST PUSH1 0x40 MLOAD PUSH2 0x24B SWAP2 SWAP1 PUSH2 0x14B1 JUMP JUMPDEST CALLVALUE DUP1 ISZERO PUSH2 0x295 JUMPI PUSH0 DUP1 REVERT JUMPDEST POP PUSH2 0x2A9 PUSH2 0x2A4 CALLDATASIZE PUSH1 0x4 PUSH2 0x1501 JUMP JUMPDEST PUSH2 0x786 JUMP JUMPDEST PUSH1 0x40 MLOAD SWAP1 ISZERO ISZERO DUP2 MSTORE PUSH1 0x20 ADD PUSH2 0x24B JUMP JUMPDEST CALLVALUE DUP1 ISZERO PUSH2 0x2C4 JUMPI PUSH0 DUP1 REVERT JUMPDEST POP PUSH2 0x241 PUSH2 0x2D3 CALLDATASIZE PUSH1 0x4 PUSH2 0x1529 JUMP JUMPDEST PUSH2 0x79F JUMP JUMPDEST CALLVALUE DUP1 ISZERO PUSH2 0x2E3 JUMPI PUSH0 DUP1 REVERT JUMPDEST POP PUSH1 0x2 SLOAD PUSH2 0x241 JUMP JUMPDEST CALLVALUE DUP1 ISZERO PUSH2 0x2F7 JUMPI PUSH0 DUP1 REVERT JUMPDEST POP PUSH2 0x241 PUSH1 0x8 SLOAD DUP2 JUMP JUMPDEST CALLVALUE DUP1 ISZERO PUSH2 0x30C JUMPI PUSH0 DUP1 REVERT JUMPDEST POP PUSH2 0x2A9 PUSH2 0x31B CALLDATASIZE PUSH1 0x4 PUSH2 0x1542 JUMP JUMPDEST PUSH2 0x819 JUMP JUMPDEST CALLVALUE DUP1 ISZERO PUSH2 0x32B JUMPI PUSH0 DUP1 REVERT JUMPDEST POP PUSH2 0x241 PUSH2 0x33A CALLDATASIZE PUSH1 0x4 PUSH2 0x1529 JUMP JUMPDEST PUSH1 0x13 PUSH1 0x20 MSTORE PUSH0 SWAP1 DUP2 MSTORE PUSH1 0x40 SWAP1 KECCAK256 SLOAD DUP2 JUMP JUMPDEST CALLVALUE DUP1 ISZERO PUSH2 0x356 JUMPI PUSH0 DUP1 REVERT JUMPDEST POP PUSH2 0x241 PUSH2 0x365 CALLDATASIZE PUSH1 0x4 PUSH2 0x157C JUMP JUMPDEST PUSH2 0x83C JUMP JUMPDEST CALLVALUE DUP1 ISZERO PUSH2 0x375 JUMPI PUSH0 DUP1 REVERT JUMPDEST POP PUSH1 0x5 SLOAD PUSH2 0x2A9 SWAP1 PUSH1 0x1 PUSH1 0xA0 SHL SWAP1 DIV PUSH1 0xFF AND DUP2 JUMP JUMPDEST CALLVALUE DUP1 ISZERO PUSH2 0x395 JUMPI PUSH0 DUP1 REVERT JUMPDEST POP PUSH1 0x40 MLOAD PUSH1 0x12 DUP2 MSTORE PUSH1 0x20 ADD PUSH2 0x24B JUMP JUMPDEST CALLVALUE DUP1 ISZERO PUSH2 0x3B0 JUMPI PUSH0 DUP1 REVERT JUMPDEST POP CALLER PUSH0 SWAP1 DUP2 MSTORE PUSH1 0x13 PUSH1 0x20 MSTORE PUSH1 0x40 SWAP1 KECCAK256 SLOAD PUSH2 0x241 JUMP JUMPDEST CALLVALUE DUP1 ISZERO PUSH2 0x3D0 JUMPI PUSH0 DUP1 REVERT JUMPDEST POP PUSH2 0x241 PUSH2 0x8BD JUMP JUMPDEST CALLVALUE DUP1 ISZERO PUSH2 0x3E4 JUMPI PUSH0 DUP1 REVERT JUMPDEST POP PUSH2 0x241 PUSH1 0xD SLOAD DUP2 JUMP JUMPDEST CALLVALUE DUP1 ISZERO PUSH2 0x3F9 JUMPI PUSH0 DUP1 REVERT JUMPDEST POP PUSH2 0x241 PUSH1 0xB SLOAD DUP2 JUMP JUMPDEST CALLVALUE DUP1 ISZERO PUSH2 0x40E JUMPI PUSH0 DUP1 REVERT JUMPDEST POP PUSH2 0x241 PUSH2 0x41D CALLDATASIZE PUSH1 0x4 PUSH2 0x1529 JUMP JUMPDEST PUSH1 0x1 PUSH1 0x1 PUSH1 0xA0 SHL SUB AND PUSH0 SWAP1 DUP2 MSTORE PUSH1 0x20 DUP2 SWAP1 MSTORE PUSH1 0x40 SWAP1 KECCAK256 SLOAD SWAP1 JUMP JUMPDEST CALLVALUE DUP1 ISZERO PUSH2 0x442 JUMPI PUSH0 DUP1 REVERT JUMPDEST POP PUSH2 0x44B PUSH2 0x8E2 JUMP JUMPDEST STOP JUMPDEST CALLVALUE DUP1 ISZERO PUSH2 0x458 JUMPI PUSH0 DUP1 REVERT JUMPDEST POP PUSH2 0x241 PUSH1 0xA SLOAD DUP2 JUMP JUMPDEST CALLVALUE DUP1 ISZERO PUSH2 0x46D JUMPI PUSH0 DUP1 REVERT JUMPDEST POP PUSH2 0x44B PUSH2 0x47C CALLDATASIZE PUSH1 0x4 PUSH2 0x159C JUMP JUMPDEST PUSH2 0x8F5 JUMP JUMPDEST CALLVALUE DUP1 ISZERO PUSH2 0x48C JUMPI PUSH0 DUP1 REVERT JUMPDEST POP PUSH2 0x44B PUSH2 0xA20 JUMP JUMPDEST CALLVALUE DUP1 ISZERO PUSH2 0x4A0 JUMPI PUSH0 DUP1 REVERT JUMPDEST POP PUSH2 0x241 PUSH2 0x4AF CALLDATASIZE PUSH1 0x4 PUSH2 0x1529 JUMP JUMPDEST PUSH2 0xB1D JUMP JUMPDEST CALLVALUE DUP1 ISZERO PUSH2 0x4BF JUMPI PUSH0 DUP1 REVERT JUMPDEST POP PUSH1 0x5 SLOAD PUSH1 0x1 PUSH1 0x1 PUSH1 0xA0 SHL SUB AND JUMPDEST PUSH1 0x40 MLOAD PUSH1 0x1 PUSH1 0x1 PUSH1 0xA0 SHL SUB SWAP1 SWAP2 AND DUP2 MSTORE PUSH1 0x20 ADD PUSH2 0x24B JUMP JUMPDEST CALLVALUE DUP1 ISZERO PUSH2 0x4F0 JUMPI PUSH0 DUP1 REVERT JUMPDEST POP PUSH2 0x241 PUSH2 0x4FF CALLDATASIZE PUSH1 0x4 PUSH2 0x1529 JUMP JUMPDEST PUSH1 0xF PUSH1 0x20 MSTORE PUSH0 SWAP1 DUP2 MSTORE PUSH1 0x40 SWAP1 KECCAK256 SLOAD DUP2 JUMP JUMPDEST CALLVALUE DUP1 ISZERO PUSH2 0x51B JUMPI PUSH0 DUP1 REVERT JUMPDEST POP PUSH2 0x27D PUSH2 0xB58 JUMP JUMPDEST CALLVALUE DUP1 ISZERO PUSH2 0x52F JUMPI PUSH0 DUP1 REVERT JUMPDEST POP PUSH2 0x2A9 PUSH2 0x53E CALLDATASIZE PUSH1 0x4 PUSH2 0x1529 JUMP JUMPDEST PUSH1 0x10 PUSH1 0x20 MSTORE PUSH0 SWAP1 DUP2 MSTORE PUSH1 0x40 SWAP1 KECCAK256 SLOAD PUSH1 0xFF AND DUP2 JUMP JUMPDEST CALLVALUE DUP1 ISZERO PUSH2 0x55D JUMPI PUSH0 DUP1 REVERT JUMPDEST POP PUSH2 0x4CD PUSH2 0x56C CALLDATASIZE PUSH1 0x4 PUSH2 0x1529 JUMP JUMPDEST PUSH1 0x11 PUSH1 0x20 MSTORE PUSH0 SWAP1 DUP2 MSTORE PUSH1 0x40 SWAP1 KECCAK256 SLOAD PUSH1 0x1 PUSH1 0x1 PUSH1 0xA0 SHL SUB AND DUP2 JUMP JUMPDEST CALLVALUE DUP1 ISZERO PUSH2 0x591 JUMPI PUSH0 DUP1 REVERT JUMPDEST POP PUSH2 0x44B PUSH2 0x5A0 CALLDATASIZE PUSH1 0x4 PUSH2 0x1529 JUMP JUMPDEST PUSH2 0xB67 JUMP JUMPDEST CALLVALUE DUP1 ISZERO PUSH2 0x5B0 JUMPI PUSH0 DUP1 REVERT JUMPDEST POP PUSH2 0x44B PUSH2 0xCDE JUMP JUMPDEST CALLVALUE DUP1 ISZERO PUSH2 0x5C4 JUMPI PUSH0 DUP1 REVERT JUMPDEST POP PUSH2 0x2A9 PUSH2 0x5D3 CALLDATASIZE PUSH1 0x4 PUSH2 0x1501 JUMP JUMPDEST PUSH2 0xE16 JUMP JUMPDEST CALLVALUE DUP1 ISZERO PUSH2 0x5E3 JUMPI PUSH0 DUP1 REVERT JUMPDEST POP PUSH2 0x241 PUSH1 0x7 SLOAD DUP2 JUMP JUMPDEST CALLVALUE DUP1 ISZERO PUSH2 0x5F8 JUMPI PUSH0 DUP1 REVERT JUMPDEST POP PUSH2 0x241 PUSH2 0x607 CALLDATASIZE PUSH1 0x4 PUSH2 0x1529 JUMP JUMPDEST PUSH1 0x12 PUSH1 0x20 MSTORE PUSH0 SWAP1 DUP2 MSTORE PUSH1 0x40 SWAP1 KECCAK256 SLOAD DUP2 JUMP JUMPDEST PUSH2 0x44B PUSH2 0xE23 JUMP JUMPDEST CALLVALUE DUP1 ISZERO PUSH2 0x62B JUMPI PUSH0 DUP1 REVERT JUMPDEST POP PUSH2 0x241 PUSH2 0xFCC JUMP JUMPDEST CALLVALUE DUP1 ISZERO PUSH2 0x63F JUMPI PUSH0 DUP1 REVERT JUMPDEST POP PUSH2 0x241 PUSH2 0x64E CALLDATASIZE PUSH1 0x4 PUSH2 0x15B3 JUMP JUMPDEST PUSH1 0x1 PUSH1 0x1 PUSH1 0xA0 SHL SUB SWAP2 DUP3 AND PUSH0 SWAP1 DUP2 MSTORE PUSH1 0x1 PUSH1 0x20 SWAP1 DUP2 MSTORE PUSH1 0x40 DUP1 DUP4 KECCAK256 SWAP4 SWAP1 SWAP5 AND DUP3 MSTORE SWAP2 SWAP1 SWAP2 MSTORE KECCAK256 SLOAD SWAP1 JUMP JUMPDEST CALLVALUE DUP1 ISZERO PUSH2 0x683 JUMPI PUSH0 DUP1 REVERT JUMPDEST POP PUSH2 0x44B PUSH2 0x692 CALLDATASIZE PUSH1 0x4 PUSH2 0x1529 JUMP JUMPDEST PUSH2 0x1052 JUMP JUMPDEST CALLVALUE DUP1 ISZERO PUSH2 0x6A2 JUMPI PUSH0 DUP1 REVERT JUMPDEST POP PUSH2 0x241 PUSH1 0xC SLOAD DUP2 JUMP JUMPDEST CALLVALUE DUP1 ISZERO PUSH2 0x6B7 JUMPI PUSH0 DUP1 REVERT JUMPDEST POP PUSH2 0x241 PUSH2 0x6C6 CALLDATASIZE PUSH1 0x4 PUSH2 0x1529 JUMP JUMPDEST PUSH1 0xE PUSH1 0x20 MSTORE PUSH0 SWAP1 DUP2 MSTORE PUSH1 0x40 SWAP1 KECCAK256 SLOAD DUP2 JUMP JUMPDEST CALLVALUE DUP1 ISZERO PUSH2 0x6E2 JUMPI PUSH0 DUP1 REVERT JUMPDEST POP PUSH2 0x44B PUSH2 0x6F1 CALLDATASIZE PUSH1 0x4 PUSH2 0x157C JUMP JUMPDEST PUSH2 0x108F JUMP JUMPDEST PUSH1 0x60 PUSH1 0x3 DUP1 SLOAD PUSH2 0x705 SWAP1 PUSH2 0x15E4 JUMP JUMPDEST DUP1 PUSH1 0x1F ADD PUSH1 0x20 DUP1 SWAP2 DIV MUL PUSH1 0x20 ADD PUSH1 0x40 MLOAD SWAP1 DUP2 ADD PUSH1 0x40 MSTORE DUP1 SWAP3 SWAP2 SWAP1 DUP2 DUP2 MSTORE PUSH1 0x20 ADD DUP3 DUP1 SLOAD PUSH2 0x731 SWAP1 PUSH2 0x15E4 JUMP JUMPDEST DUP1 ISZERO PUSH2 0x77C JUMPI DUP1 PUSH1 0x1F LT PUSH2 0x753 JUMPI PUSH2 0x100 DUP1 DUP4 SLOAD DIV MUL DUP4 MSTORE SWAP2 PUSH1 0x20 ADD SWAP2 PUSH2 0x77C JUMP JUMPDEST DUP3 ADD SWAP2 SWAP1 PUSH0 MSTORE PUSH1 0x20 PUSH0 KECCAK256 SWAP1 JUMPDEST DUP2 SLOAD DUP2 MSTORE SWAP1 PUSH1 0x1 ADD SWAP1 PUSH1 0x20 ADD DUP1 DUP4 GT PUSH2 0x75F JUMPI DUP3 SWAP1 SUB PUSH1 0x1F AND DUP3 ADD SWAP2 JUMPDEST POP POP POP POP POP SWAP1 POP SWAP1 JUMP JUMPDEST PUSH0 CALLER PUSH2 0x793 DUP2 DUP6 DUP6 PUSH2 0x1118 JUMP JUMPDEST PUSH1 0x1 SWAP2 POP POP JUMPDEST SWAP3 SWAP2 POP POP JUMP JUMPDEST PUSH1 0x1 PUSH1 0x1 PUSH1 0xA0 SHL SUB DUP2 AND PUSH0 SWAP1 DUP2 MSTORE PUSH1 0xF PUSH1 0x20 MSTORE PUSH1 0x40 DUP2 KECCAK256 SLOAD DUP2 SWAP1 PUSH3 0x93A80 SWAP1 PUSH2 0x7C8 SWAP1 TIMESTAMP PUSH2 0x1630 JUMP JUMPDEST PUSH2 0x7D2 SWAP2 SWAP1 PUSH2 0x1643 JUMP JUMPDEST PUSH1 0xD SLOAD PUSH1 0x1 PUSH1 0x1 PUSH1 0xA0 SHL SUB DUP6 AND PUSH0 SWAP1 DUP2 MSTORE PUSH1 0xE PUSH1 0x20 MSTORE PUSH1 0x40 SWAP1 KECCAK256 SLOAD SWAP2 SWAP3 POP PUSH1 0x64 SWAP2 DUP4 SWAP2 PUSH2 0x7FE SWAP2 PUSH2 0x1662 JUMP JUMPDEST PUSH2 0x808 SWAP2 SWAP1 PUSH2 0x1662 JUMP JUMPDEST PUSH2 0x812 SWAP2 SWAP1 PUSH2 0x1643 JUMP JUMPDEST SWAP4 SWAP3 POP POP POP JUMP JUMPDEST PUSH0 CALLER PUSH2 0x826 DUP6 DUP3 DUP6 PUSH2 0x112A JUMP JUMPDEST PUSH2 0x831 DUP6 DUP6 DUP6 PUSH2 0x11A6 JUMP JUMPDEST POP PUSH1 0x1 SWAP5 SWAP4 POP POP POP POP JUMP JUMPDEST PUSH0 DUP3 DUP3 LT ISZERO PUSH2 0x89C JUMPI PUSH1 0x40 MLOAD PUSH3 0x461BCD PUSH1 0xE5 SHL DUP2 MSTORE PUSH1 0x20 PUSH1 0x4 DUP3 ADD MSTORE PUSH1 0x21 PUSH1 0x24 DUP3 ADD MSTORE PUSH32 0x456E642074696D65206D7573742062652061667465722073746172742074696D PUSH1 0x44 DUP3 ADD MSTORE PUSH1 0x65 PUSH1 0xF8 SHL PUSH1 0x64 DUP3 ADD MSTORE PUSH1 0x84 ADD JUMPDEST PUSH1 0x40 MLOAD DUP1 SWAP2 SUB SWAP1 REVERT JUMPDEST PUSH0 PUSH3 0x93A80 PUSH2 0x8AB DUP6 DUP6 PUSH2 0x1630 JUMP JUMPDEST PUSH2 0x8B5 SWAP2 SWAP1 PUSH2 0x1643 JUMP JUMPDEST SWAP5 SWAP4 POP POP POP POP JUMP JUMPDEST PUSH0 DUP1 PUSH2 0x8CB PUSH1 0x6 SLOAD TIMESTAMP PUSH2 0x83C JUMP JUMPDEST SWAP1 POP PUSH0 PUSH1 0xC SLOAD DUP3 PUSH1 0x8 SLOAD PUSH1 0x9 SLOAD PUSH2 0x7FE SWAP2 SWAP1 PUSH2 0x1630 JUMP JUMPDEST PUSH2 0x8EA PUSH2 0x1203 JUMP JUMPDEST PUSH2 0x8F3 PUSH0 PUSH2 0x1230 JUMP JUMPDEST JUMP JUMPDEST PUSH0 DUP2 GT PUSH2 0x94E JUMPI PUSH1 0x40 MLOAD PUSH3 0x461BCD PUSH1 0xE5 SHL DUP2 MSTORE PUSH1 0x20 PUSH1 0x4 DUP3 ADD MSTORE PUSH1 0x21 PUSH1 0x24 DUP3 ADD MSTORE PUSH32 0x416D6F756E74206D7573742062652067726561746572207468616E207A65726F PUSH1 0x44 DUP3 ADD MSTORE PUSH1 0x17 PUSH1 0xF9 SHL PUSH1 0x64 DUP3 ADD MSTORE PUSH1 0x84 ADD PUSH2 0x893 JUMP JUMPDEST CALLER PUSH0 SWAP1 DUP2 MSTORE PUSH1 0x20 DUP2 SWAP1 MSTORE PUSH1 0x40 SWAP1 KECCAK256 SLOAD DUP2 GT ISZERO PUSH2 0x9A4 JUMPI PUSH1 0x40 MLOAD PUSH3 0x461BCD PUSH1 0xE5 SHL DUP2 MSTORE PUSH1 0x20 PUSH1 0x4 DUP3 ADD MSTORE PUSH1 0x15 PUSH1 0x24 DUP3 ADD MSTORE PUSH21 0x24B739BAB33334B1B4B2B73A103130B630B731B297 PUSH1 0x59 SHL PUSH1 0x44 DUP3 ADD MSTORE PUSH1 0x64 ADD PUSH2 0x893 JUMP JUMPDEST PUSH2 0x9AF CALLER ADDRESS DUP4 PUSH2 0x11A6 JUMP JUMPDEST CALLER PUSH0 SWAP1 DUP2 MSTORE PUSH1 0xE PUSH1 0x20 MSTORE PUSH1 0x40 DUP2 KECCAK256 DUP1 SLOAD DUP4 SWAP3 SWAP1 PUSH2 0x9CD SWAP1 DUP5 SWAP1 PUSH2 0x1679 JUMP JUMPDEST SWAP1 SWAP2 SSTORE POP POP CALLER PUSH0 DUP2 DUP2 MSTORE PUSH1 0xF PUSH1 0x20 MSTORE PUSH1 0x40 SWAP1 DUP2 SWAP1 KECCAK256 TIMESTAMP SWAP1 SSTORE MLOAD PUSH32 0xB539CA1E5C8D398DDF1C41C30166F33404941683BE4683319B57669A93DAD4EF SWAP1 PUSH2 0xA15 SWAP1 DUP5 DUP2 MSTORE PUSH1 0x20 ADD SWAP1 JUMP JUMPDEST PUSH1 0x40 MLOAD DUP1 SWAP2 SUB SWAP1 LOG2 POP JUMP JUMPDEST PUSH1 0x5 SLOAD PUSH1 0x1 PUSH1 0xA0 SHL SWAP1 DIV PUSH1 0xFF AND ISZERO ISZERO PUSH1 0x1 EQ PUSH2 0xA7E JUMPI PUSH1 0x40 MLOAD PUSH3 0x461BCD PUSH1 0xE5 SHL DUP2 MSTORE PUSH1 0x20 PUSH1 0x4 DUP3 ADD MSTORE PUSH1 0x17 PUSH1 0x24 DUP3 ADD MSTORE PUSH32 0x50726573616C65206E6F74207374617274656420796574000000000000000000 PUSH1 0x44 DUP3 ADD MSTORE PUSH1 0x64 ADD PUSH2 0x893 JUMP JUMPDEST PUSH0 PUSH2 0xA88 CALLER PUSH2 0xB1D JUMP JUMPDEST SWAP1 POP PUSH0 DUP2 GT PUSH2 0xAD0 JUMPI PUSH1 0x40 MLOAD PUSH3 0x461BCD PUSH1 0xE5 SHL DUP2 MSTORE PUSH1 0x20 PUSH1 0x4 DUP3 ADD MSTORE PUSH1 0x14 PUSH1 0x24 DUP3 ADD MSTORE PUSH20 0x4E6F207265776172647320617661696C61626C65 PUSH1 0x60 SHL PUSH1 0x44 DUP3 ADD MSTORE PUSH1 0x64 ADD PUSH2 0x893 JUMP JUMPDEST PUSH2 0xADA CALLER DUP3 PUSH2 0x1281 JUMP JUMPDEST CALLER PUSH0 DUP2 DUP2 MSTORE PUSH1 0x12 PUSH1 0x20 MSTORE PUSH1 0x40 DUP1 DUP3 KECCAK256 SWAP2 SWAP1 SWAP2 SSTORE MLOAD PUSH32 0xF0BC0A70FE19EF2D8DC1E1948B338A1184184FB1EA3AC836F24065828816D68D SWAP1 PUSH2 0xA15 SWAP1 DUP5 DUP2 MSTORE PUSH1 0x20 ADD SWAP1 JUMP JUMPDEST PUSH0 PUSH2 0xB2A PUSH1 0x12 PUSH1 0xA PUSH2 0x176F JUMP JUMPDEST PUSH1 0x1 PUSH1 0x1 PUSH1 0xA0 SHL SUB DUP4 AND PUSH0 SWAP1 DUP2 MSTORE PUSH1 0x12 PUSH1 0x20 MSTORE PUSH1 0x40 SWAP1 KECCAK256 SLOAD PUSH2 0xB4E SWAP1 PUSH2 0x1F4 PUSH2 0x1662 JUMP JUMPDEST PUSH2 0x799 SWAP2 SWAP1 PUSH2 0x1662 JUMP JUMPDEST PUSH1 0x60 PUSH1 0x4 DUP1 SLOAD PUSH2 0x705 SWAP1 PUSH2 0x15E4 JUMP JUMPDEST CALLER PUSH0 SWAP1 DUP2 MSTORE PUSH1 0x10 PUSH1 0x20 MSTORE PUSH1 0x40 SWAP1 KECCAK256 SLOAD PUSH1 0xFF AND ISZERO PUSH2 0xBBC JUMPI PUSH1 0x40 MLOAD PUSH3 0x461BCD PUSH1 0xE5 SHL DUP2 MSTORE PUSH1 0x20 PUSH1 0x4 DUP3 ADD MSTORE PUSH1 0x13 PUSH1 0x24 DUP3 ADD MSTORE PUSH19 0x105B1C9958591E481DDA1A5D195B1A5CDD1959 PUSH1 0x6A SHL PUSH1 0x44 DUP3 ADD MSTORE PUSH1 0x64 ADD PUSH2 0x893 JUMP JUMPDEST PUSH1 0x1 PUSH1 0x1 PUSH1 0xA0 SHL SUB DUP2 AND CALLER SUB PUSH2 0xC0C JUMPI PUSH1 0x40 MLOAD PUSH3 0x461BCD PUSH1 0xE5 SHL DUP2 MSTORE PUSH1 0x20 PUSH1 0x4 DUP3 ADD MSTORE PUSH1 0x15 PUSH1 0x24 DUP3 ADD MSTORE PUSH21 0x21B0B73737BA103932B332B9103CB7BAB939B2B633 PUSH1 0x59 SHL PUSH1 0x44 DUP3 ADD MSTORE PUSH1 0x64 ADD PUSH2 0x893 JUMP JUMPDEST CALLER PUSH0 SWAP1 DUP2 MSTORE PUSH1 0x10 PUSH1 0x20 MSTORE PUSH1 0x40 SWAP1 KECCAK256 DUP1 SLOAD PUSH1 0xFF NOT AND PUSH1 0x1 OR SWAP1 SSTORE PUSH1 0x1 PUSH1 0x1 PUSH1 0xA0 SHL SUB DUP2 AND ISZERO DUP1 ISZERO SWAP1 PUSH2 0xC54 JUMPI POP PUSH1 0x1 PUSH1 0x1 PUSH1 0xA0 SHL SUB DUP2 AND PUSH0 SWAP1 DUP2 MSTORE PUSH1 0x10 PUSH1 0x20 MSTORE PUSH1 0x40 SWAP1 KECCAK256 SLOAD PUSH1 0xFF AND JUMPDEST ISZERO PUSH2 0xCA6 JUMPI CALLER PUSH0 SWAP1 DUP2 MSTORE PUSH1 0x11 PUSH1 0x20 SWAP1 DUP2 MSTORE PUSH1 0x40 DUP1 DUP4 KECCAK256 DUP1 SLOAD PUSH1 0x1 PUSH1 0x1 PUSH1 0xA0 SHL SUB NOT AND PUSH1 0x1 PUSH1 0x1 PUSH1 0xA0 SHL SUB DUP7 AND SWAP1 DUP2 OR SWAP1 SWAP2 SSTORE DUP4 MSTORE PUSH1 0x12 SWAP1 SWAP2 MSTORE DUP2 KECCAK256 DUP1 SLOAD PUSH1 0x1 SWAP3 SWAP1 PUSH2 0xCA0 SWAP1 DUP5 SWAP1 PUSH2 0x1679 JUMP JUMPDEST SWAP1 SWAP2 SSTORE POP POP JUMPDEST PUSH1 0x40 MLOAD PUSH1 0x1 PUSH1 0x1 PUSH1 0xA0 SHL SUB DUP3 AND SWAP1 CALLER SWAP1 PUSH32 0x4BC18AA4B0095C9A3B5CDF42D2322D5A145591B04045988A995A5DA426075457 SWAP1 PUSH0 SWAP1 LOG3 POP JUMP JUMPDEST CALLER PUSH0 SWAP1 DUP2 MSTORE PUSH1 0xE PUSH1 0x20 MSTORE PUSH1 0x40 SWAP1 KECCAK256 SLOAD DUP1 PUSH2 0xD2E JUMPI PUSH1 0x40 MLOAD PUSH3 0x461BCD PUSH1 0xE5 SHL DUP2 MSTORE PUSH1 0x20 PUSH1 0x4 DUP3 ADD MSTORE PUSH1 0x11 PUSH1 0x24 DUP3 ADD MSTORE PUSH17 0x2737903A37B5B2B7399039BA30B5B2B217 PUSH1 0x79 SHL PUSH1 0x44 DUP3 ADD MSTORE PUSH1 0x64 ADD PUSH2 0x893 JUMP JUMPDEST CALLER PUSH0 SWAP1 DUP2 MSTORE PUSH1 0xF PUSH1 0x20 MSTORE PUSH1 0x40 SWAP1 KECCAK256 SLOAD PUSH2 0xD4A SWAP1 PUSH3 0x24EA00 PUSH2 0x1679 JUMP JUMPDEST TIMESTAMP LT ISZERO PUSH2 0xD99 JUMPI PUSH1 0x40 MLOAD PUSH3 0x461BCD PUSH1 0xE5 SHL DUP2 MSTORE PUSH1 0x20 PUSH1 0x4 DUP3 ADD MSTORE PUSH1 0x1B PUSH1 0x24 DUP3 ADD MSTORE PUSH32 0x556E7374616B65206F6E6C792061667465722034207765656B732E0000000000 PUSH1 0x44 DUP3 ADD MSTORE PUSH1 0x64 ADD PUSH2 0x893 JUMP JUMPDEST PUSH0 PUSH2 0xDA3 CALLER PUSH2 0x79F JUMP JUMPDEST CALLER PUSH0 DUP2 DUP2 MSTORE PUSH1 0xE PUSH1 0x20 SWAP1 DUP2 MSTORE PUSH1 0x40 DUP1 DUP4 KECCAK256 DUP4 SWAP1 SSTORE PUSH1 0xF SWAP1 SWAP2 MSTORE DUP2 KECCAK256 SSTORE SWAP1 SWAP2 POP PUSH2 0xDD7 SWAP1 ADDRESS SWAP1 PUSH2 0xDD2 DUP5 DUP7 PUSH2 0x1679 JUMP JUMPDEST PUSH2 0x11A6 JUMP JUMPDEST PUSH1 0x40 DUP1 MLOAD DUP4 DUP2 MSTORE PUSH1 0x20 DUP2 ADD DUP4 SWAP1 MSTORE CALLER SWAP2 PUSH32 0x6F2D3E000C89D37446B7C0374C0125068FF316D1E3EE302336478A8CD03C2336 SWAP2 ADD PUSH1 0x40 MLOAD DUP1 SWAP2 SUB SWAP1 LOG2 POP POP JUMP JUMPDEST PUSH0 CALLER PUSH2 0x793 DUP2 DUP6 DUP6 PUSH2 0x11A6 JUMP JUMPDEST PUSH1 0x5 SLOAD PUSH1 0x1 PUSH1 0xA0 SHL SWAP1 DIV PUSH1 0xFF AND PUSH2 0xE6F JUMPI PUSH1 0x40 MLOAD PUSH3 0x461BCD PUSH1 0xE5 SHL DUP2 MSTORE PUSH1 0x20 PUSH1 0x4 DUP3 ADD MSTORE PUSH1 0x10 PUSH1 0x24 DUP3 ADD MSTORE PUSH16 0x29B0B632903737BA1030B1BA34BB3297 PUSH1 0x81 SHL PUSH1 0x44 DUP3 ADD MSTORE PUSH1 0x64 ADD PUSH2 0x893 JUMP JUMPDEST PUSH0 CALLVALUE GT PUSH2 0xEBE JUMPI PUSH1 0x40 MLOAD PUSH3 0x461BCD PUSH1 0xE5 SHL DUP2 MSTORE PUSH1 0x20 PUSH1 0x4 DUP3 ADD MSTORE PUSH1 0x1C PUSH1 0x24 DUP3 ADD MSTORE PUSH32 0x4D7573742073656E642045544820746F2062757920746F6B656E732E00000000 PUSH1 0x44 DUP3 ADD MSTORE PUSH1 0x64 ADD PUSH2 0x893 JUMP JUMPDEST PUSH0 PUSH2 0xEC7 PUSH2 0xFCC JUMP JUMPDEST SWAP1 POP PUSH0 DUP2 PUSH2 0xED7 PUSH1 0x12 PUSH1 0xA PUSH2 0x177D JUMP JUMPDEST PUSH2 0xEE1 SWAP1 CALLVALUE PUSH2 0x1662 JUMP JUMPDEST PUSH2 0xEEB SWAP2 SWAP1 PUSH2 0x1643 JUMP JUMPDEST ADDRESS PUSH0 SWAP1 DUP2 MSTORE PUSH1 0x20 DUP2 SWAP1 MSTORE PUSH1 0x40 SWAP1 KECCAK256 SLOAD SWAP1 SWAP2 POP DUP2 GT ISZERO PUSH2 0xF4C JUMPI PUSH1 0x40 MLOAD PUSH3 0x461BCD PUSH1 0xE5 SHL DUP2 MSTORE PUSH1 0x20 PUSH1 0x4 DUP3 ADD MSTORE PUSH1 0x1C PUSH1 0x24 DUP3 ADD MSTORE PUSH32 0x4E6F7420656E6F75676820746F6B656E7320617661696C61626C652E00000000 PUSH1 0x44 DUP3 ADD MSTORE PUSH1 0x64 ADD PUSH2 0x893 JUMP JUMPDEST CALLER PUSH0 SWAP1 DUP2 MSTORE PUSH1 0x13 PUSH1 0x20 MSTORE PUSH1 0x40 DUP2 KECCAK256 DUP1 SLOAD DUP4 SWAP3 SWAP1 PUSH2 0xF6A SWAP1 DUP5 SWAP1 PUSH2 0x1679 JUMP JUMPDEST SWAP1 SWAP2 SSTORE POP PUSH2 0xF7B SWAP1 POP ADDRESS CALLER DUP4 PUSH2 0x11A6 JUMP JUMPDEST DUP1 PUSH1 0xB PUSH0 DUP3 DUP3 SLOAD PUSH2 0xF8C SWAP2 SWAP1 PUSH2 0x1679 JUMP JUMPDEST SWAP1 SWAP2 SSTORE POP POP PUSH1 0x40 MLOAD DUP2 DUP2 MSTORE CALLER SWAP1 ADDRESS SWAP1 PUSH32 0xDDF252AD1BE2C89B69C2B068FC378DAA952BA7F163C4A11628F55A4DF523B3EF SWAP1 PUSH1 0x20 ADD PUSH1 0x40 MLOAD DUP1 SWAP2 SUB SWAP1 LOG3 POP POP JUMP JUMPDEST PUSH1 0x5 SLOAD PUSH0 SWAP1 PUSH1 0x1 PUSH1 0xA0 SHL SWAP1 DIV PUSH1 0xFF AND PUSH2 0x1027 JUMPI PUSH1 0x40 MLOAD PUSH3 0x461BCD PUSH1 0xE5 SHL DUP2 MSTORE PUSH1 0x20 PUSH1 0x4 DUP3 ADD MSTORE PUSH1 0x18 PUSH1 0x24 DUP3 ADD MSTORE PUSH32 0x5072652D73616C65206E6F742073746172746564207965740000000000000000 PUSH1 0x44 DUP3 ADD MSTORE PUSH1 0x64 ADD PUSH2 0x893 JUMP JUMPDEST PUSH1 0x7 SLOAD TIMESTAMP GT ISZERO PUSH2 0x1038 JUMPI POP PUSH1 0x9 SLOAD SWAP1 JUMP JUMPDEST PUSH0 PUSH2 0x1041 PUSH2 0x8BD JUMP JUMPDEST SWAP1 POP PUSH0 DUP2 PUSH1 0x8 SLOAD PUSH2 0x812 SWAP2 SWAP1 PUSH2 0x1679 JUMP JUMPDEST PUSH2 0x105A PUSH2 0x1203 JUMP JUMPDEST PUSH1 0x1 PUSH1 0x1 PUSH1 0xA0 SHL SUB DUP2 AND PUSH2 0x1083 JUMPI PUSH1 0x40 MLOAD PUSH4 0x1E4FBDF7 PUSH1 0xE0 SHL DUP2 MSTORE PUSH0 PUSH1 0x4 DUP3 ADD MSTORE PUSH1 0x24 ADD PUSH2 0x893 JUMP JUMPDEST PUSH2 0x108C DUP2 PUSH2 0x1230 JUMP JUMPDEST POP JUMP JUMPDEST PUSH2 0x1097 PUSH2 0x1203 JUMP JUMPDEST PUSH1 0x6 DUP3 SWAP1 SSTORE PUSH2 0x10A9 DUP2 PUSH3 0x93A80 PUSH2 0x1662 JUMP JUMPDEST PUSH1 0x6 SLOAD PUSH2 0x10B6 SWAP2 SWAP1 PUSH2 0x1679 JUMP JUMPDEST PUSH1 0x7 DUP2 SWAP1 SSTORE PUSH1 0xC DUP3 SWAP1 SSTORE PUSH1 0x5 DUP1 SLOAD PUSH1 0xFF PUSH1 0xA0 SHL NOT AND PUSH1 0x1 PUSH1 0xA0 SHL OR SWAP1 SSTORE PUSH1 0x6 SLOAD PUSH1 0x40 MLOAD PUSH32 0x3844853BE672B18D859394AA37E05615B95B78E66B4DC37DCA98D1DB1B05EA7D SWAP3 PUSH2 0x110C SWAP3 DUP3 MSTORE PUSH1 0x20 DUP3 ADD MSTORE PUSH1 0x40 ADD SWAP1 JUMP JUMPDEST PUSH1 0x40 MLOAD DUP1 SWAP2 SUB SWAP1 LOG1 POP POP JUMP JUMPDEST PUSH2 0x1125 DUP4 DUP4 DUP4 PUSH1 0x1 PUSH2 0x12B9 JUMP JUMPDEST POP POP POP JUMP JUMPDEST PUSH1 0x1 PUSH1 0x1 PUSH1 0xA0 SHL SUB DUP4 DUP2 AND PUSH0 SWAP1 DUP2 MSTORE PUSH1 0x1 PUSH1 0x20 SWAP1 DUP2 MSTORE PUSH1 0x40 DUP1 DUP4 KECCAK256 SWAP4 DUP7 AND DUP4 MSTORE SWAP3 SWAP1 MSTORE KECCAK256 SLOAD PUSH0 NOT DUP2 LT ISZERO PUSH2 0x11A0 JUMPI DUP2 DUP2 LT ISZERO PUSH2 0x1192 JUMPI PUSH1 0x40 MLOAD PUSH4 0x7DC7A0D9 PUSH1 0xE1 SHL DUP2 MSTORE PUSH1 0x1 PUSH1 0x1 PUSH1 0xA0 SHL SUB DUP5 AND PUSH1 0x4 DUP3 ADD MSTORE PUSH1 0x24 DUP2 ADD DUP3 SWAP1 MSTORE PUSH1 0x44 DUP2 ADD DUP4 SWAP1 MSTORE PUSH1 0x64 ADD PUSH2 0x893 JUMP JUMPDEST PUSH2 0x11A0 DUP5 DUP5 DUP5 DUP5 SUB PUSH0 PUSH2 0x12B9 JUMP JUMPDEST POP POP POP POP JUMP JUMPDEST PUSH1 0x1 PUSH1 0x1 PUSH1 0xA0 SHL SUB DUP4 AND PUSH2 0x11CF JUMPI PUSH1 0x40 MLOAD PUSH4 0x4B637E8F PUSH1 0xE1 SHL DUP2 MSTORE PUSH0 PUSH1 0x4 DUP3 ADD MSTORE PUSH1 0x24 ADD PUSH2 0x893 JUMP JUMPDEST PUSH1 0x1 PUSH1 0x1 PUSH1 0xA0 SHL SUB DUP3 AND PUSH2 0x11F8 JUMPI PUSH1 0x40 MLOAD PUSH4 0xEC442F05 PUSH1 0xE0 SHL DUP2 MSTORE PUSH0 PUSH1 0x4 DUP3 ADD MSTORE PUSH1 0x24 ADD PUSH2 0x893 JUMP JUMPDEST PUSH2 0x1125 DUP4 DUP4 DUP4 PUSH2 0x138B JUMP JUMPDEST PUSH1 0x5 SLOAD PUSH1 0x1 PUSH1 0x1 PUSH1 0xA0 SHL SUB AND CALLER EQ PUSH2 0x8F3 JUMPI PUSH1 0x40 MLOAD PUSH4 0x118CDAA7 PUSH1 0xE0 SHL DUP2 MSTORE CALLER PUSH1 0x4 DUP3 ADD MSTORE PUSH1 0x24 ADD PUSH2 0x893 JUMP JUMPDEST PUSH1 0x5 DUP1 SLOAD PUSH1 0x1 PUSH1 0x1 PUSH1 0xA0 SHL SUB DUP4 DUP2 AND PUSH1 0x1 PUSH1 0x1 PUSH1 0xA0 SHL SUB NOT DUP4 AND DUP2 OR SWAP1 SWAP4 SSTORE PUSH1 0x40 MLOAD SWAP2 AND SWAP2 SWAP1 DUP3 SWAP1 PUSH32 0x8BE0079C531659141344CD1FD0A4F28419497F9722A3DAAFE3B4186F6B6457E0 SWAP1 PUSH0 SWAP1 LOG3 POP POP JUMP JUMPDEST PUSH1 0x1 PUSH1 0x1 PUSH1 0xA0 SHL SUB DUP3 AND PUSH2 0x12AA JUMPI PUSH1 0x40 MLOAD PUSH4 0xEC442F05 PUSH1 0xE0 SHL DUP2 MSTORE PUSH0 PUSH1 0x4 DUP3 ADD MSTORE PUSH1 0x24 ADD PUSH2 0x893 JUMP JUMPDEST PUSH2 0x12B5 PUSH0 DUP4 DUP4 PUSH2 0x138B JUMP JUMPDEST POP POP JUMP JUMPDEST PUSH1 0x1 PUSH1 0x1 PUSH1 0xA0 SHL SUB DUP5 AND PUSH2 0x12E2 JUMPI PUSH1 0x40 MLOAD PUSH4 0xE602DF05 PUSH1 0xE0 SHL DUP2 MSTORE PUSH0 PUSH1 0x4 DUP3 ADD MSTORE PUSH1 0x24 ADD PUSH2 0x893 JUMP JUMPDEST PUSH1 0x1 PUSH1 0x1 PUSH1 0xA0 SHL SUB DUP4 AND PUSH2 0x130B JUMPI PUSH1 0x40 MLOAD PUSH4 0x4A1406B1 PUSH1 0xE1 SHL DUP2 MSTORE PUSH0 PUSH1 0x4 DUP3 ADD MSTORE PUSH1 0x24 ADD PUSH2 0x893 JUMP JUMPDEST PUSH1 0x1 PUSH1 0x1 PUSH1 0xA0 SHL SUB DUP1 DUP6 AND PUSH0 SWAP1 DUP2 MSTORE PUSH1 0x1 PUSH1 0x20 SWAP1 DUP2 MSTORE PUSH1 0x40 DUP1 DUP4 KECCAK256 SWAP4 DUP8 AND DUP4 MSTORE SWAP3 SWAP1 MSTORE KECCAK256 DUP3 SWAP1 SSTORE DUP1 ISZERO PUSH2 0x11A0 JUMPI DUP3 PUSH1 0x1 PUSH1 0x1 PUSH1 0xA0 SHL SUB AND DUP5 PUSH1 0x1 PUSH1 0x1 PUSH1 0xA0 SHL SUB AND PUSH32 0x8C5BE1E5EBEC7D5BD14F71427D1E84F3DD0314C0F7B2291E5B200AC8C7C3B925 DUP5 PUSH1 0x40 MLOAD PUSH2 0x137D SWAP2 DUP2 MSTORE PUSH1 0x20 ADD SWAP1 JUMP JUMPDEST PUSH1 0x40 MLOAD DUP1 SWAP2 SUB SWAP1 LOG3 POP POP POP POP JUMP JUMPDEST PUSH1 0x1 PUSH1 0x1 PUSH1 0xA0 SHL SUB DUP4 AND PUSH2 0x13B5 JUMPI DUP1 PUSH1 0x2 PUSH0 DUP3 DUP3 SLOAD PUSH2 0x13AA SWAP2 SWAP1 PUSH2 0x1679 JUMP JUMPDEST SWAP1 SWAP2 SSTORE POP PUSH2 0x1425 SWAP1 POP JUMP JUMPDEST PUSH1 0x1 PUSH1 0x1 PUSH1 0xA0 SHL SUB DUP4 AND PUSH0 SWAP1 DUP2 MSTORE PUSH1 0x20 DUP2 SWAP1 MSTORE PUSH1 0x40 SWAP1 KECCAK256 SLOAD DUP2 DUP2 LT ISZERO PUSH2 0x1407 JUMPI PUSH1 0x40 MLOAD PUSH4 0x391434E3 PUSH1 0xE2 SHL DUP2 MSTORE PUSH1 0x1 PUSH1 0x1 PUSH1 0xA0 SHL SUB DUP6 AND PUSH1 0x4 DUP3 ADD MSTORE PUSH1 0x24 DUP2 ADD DUP3 SWAP1 MSTORE PUSH1 0x44 DUP2 ADD DUP4 SWAP1 MSTORE PUSH1 0x64 ADD PUSH2 0x893 JUMP JUMPDEST PUSH1 0x1 PUSH1 0x1 PUSH1 0xA0 SHL SUB DUP5 AND PUSH0 SWAP1 DUP2 MSTORE PUSH1 0x20 DUP2 SWAP1 MSTORE PUSH1 0x40 SWAP1 KECCAK256 SWAP1 DUP3 SWAP1 SUB SWAP1 SSTORE JUMPDEST PUSH1 0x1 PUSH1 0x1 PUSH1 0xA0 SHL SUB DUP3 AND PUSH2 0x1441 JUMPI PUSH1 0x2 DUP1 SLOAD DUP3 SWAP1 SUB SWAP1 SSTORE PUSH2 0x145F JUMP JUMPDEST PUSH1 0x1 PUSH1 0x1 PUSH1 0xA0 SHL SUB DUP3 AND PUSH0 SWAP1 DUP2 MSTORE PUSH1 0x20 DUP2 SWAP1 MSTORE PUSH1 0x40 SWAP1 KECCAK256 DUP1 SLOAD DUP3 ADD SWAP1 SSTORE JUMPDEST DUP2 PUSH1 0x1 PUSH1 0x1 PUSH1 0xA0 SHL SUB AND DUP4 PUSH1 0x1 PUSH1 0x1 PUSH1 0xA0 SHL SUB AND PUSH32 0xDDF252AD1BE2C89B69C2B068FC378DAA952BA7F163C4A11628F55A4DF523B3EF DUP4 PUSH1 0x40 MLOAD PUSH2 0x14A4 SWAP2 DUP2 MSTORE PUSH1 0x20 ADD SWAP1 JUMP JUMPDEST PUSH1 0x40 MLOAD DUP1 SWAP2 SUB SWAP1 LOG3 POP POP POP JUMP JUMPDEST PUSH1 0x20 DUP2 MSTORE PUSH0 DUP3 MLOAD DUP1 PUSH1 0x20 DUP5 ADD MSTORE DUP1 PUSH1 0x20 DUP6 ADD PUSH1 0x40 DUP6 ADD MCOPY PUSH0 PUSH1 0x40 DUP3 DUP6 ADD ADD MSTORE PUSH1 0x40 PUSH1 0x1F NOT PUSH1 0x1F DUP4 ADD AND DUP5 ADD ADD SWAP2 POP POP SWAP3 SWAP2 POP POP JUMP JUMPDEST DUP1 CALLDATALOAD PUSH1 0x1 PUSH1 0x1 PUSH1 0xA0 SHL SUB DUP2 AND DUP2 EQ PUSH2 0x14FC JUMPI PUSH0 DUP1 REVERT JUMPDEST SWAP2 SWAP1 POP JUMP JUMPDEST PUSH0 DUP1 PUSH1 0x40 DUP4 DUP6 SUB SLT ISZERO PUSH2 0x1512 JUMPI PUSH0 DUP1 REVERT JUMPDEST PUSH2 0x151B DUP4 PUSH2 0x14E6 JUMP JUMPDEST SWAP5 PUSH1 0x20 SWAP4 SWAP1 SWAP4 ADD CALLDATALOAD SWAP4 POP POP POP JUMP JUMPDEST PUSH0 PUSH1 0x20 DUP3 DUP5 SUB SLT ISZERO PUSH2 0x1539 JUMPI PUSH0 DUP1 REVERT JUMPDEST PUSH2 0x812 DUP3 PUSH2 0x14E6 JUMP JUMPDEST PUSH0 DUP1 PUSH0 PUSH1 0x60 DUP5 DUP7 SUB SLT ISZERO PUSH2 0x1554 JUMPI PUSH0 DUP1 REVERT JUMPDEST PUSH2 0x155D DUP5 PUSH2 0x14E6 JUMP JUMPDEST SWAP3 POP PUSH2 0x156B PUSH1 0x20 DUP6 ADD PUSH2 0x14E6 JUMP JUMPDEST SWAP3 SWAP6 SWAP3 SWAP5 POP POP POP PUSH1 0x40 SWAP2 SWAP1 SWAP2 ADD CALLDATALOAD SWAP1 JUMP JUMPDEST PUSH0 DUP1 PUSH1 0x40 DUP4 DUP6 SUB SLT ISZERO PUSH2 0x158D JUMPI PUSH0 DUP1 REVERT JUMPDEST POP POP DUP1 CALLDATALOAD SWAP3 PUSH1 0x20 SWAP1 SWAP2 ADD CALLDATALOAD SWAP2 POP JUMP JUMPDEST PUSH0 PUSH1 0x20 DUP3 DUP5 SUB SLT ISZERO PUSH2 0x15AC JUMPI PUSH0 DUP1 REVERT JUMPDEST POP CALLDATALOAD SWAP2 SWAP1 POP JUMP JUMPDEST PUSH0 DUP1 PUSH1 0x40 DUP4 DUP6 SUB SLT ISZERO PUSH2 0x15C4 JUMPI PUSH0 DUP1 REVERT JUMPDEST PUSH2 0x15CD DUP4 PUSH2 0x14E6 JUMP JUMPDEST SWAP2 POP PUSH2 0x15DB PUSH1 0x20 DUP5 ADD PUSH2 0x14E6 JUMP JUMPDEST SWAP1 POP SWAP3 POP SWAP3 SWAP1 POP JUMP JUMPDEST PUSH1 0x1 DUP2 DUP2 SHR SWAP1 DUP3 AND DUP1 PUSH2 0x15F8 JUMPI PUSH1 0x7F DUP3 AND SWAP2 POP JUMPDEST PUSH1 0x20 DUP3 LT DUP2 SUB PUSH2 0x1616 JUMPI PUSH4 0x4E487B71 PUSH1 0xE0 SHL PUSH0 MSTORE PUSH1 0x22 PUSH1 0x4 MSTORE PUSH1 0x24 PUSH0 REVERT JUMPDEST POP SWAP2 SWAP1 POP JUMP JUMPDEST PUSH4 0x4E487B71 PUSH1 0xE0 SHL PUSH0 MSTORE PUSH1 0x11 PUSH1 0x4 MSTORE PUSH1 0x24 PUSH0 REVERT JUMPDEST DUP2 DUP2 SUB DUP2 DUP2 GT ISZERO PUSH2 0x799 JUMPI PUSH2 0x799 PUSH2 0x161C JUMP JUMPDEST PUSH0 DUP3 PUSH2 0x165D JUMPI PUSH4 0x4E487B71 PUSH1 0xE0 SHL PUSH0 MSTORE PUSH1 0x12 PUSH1 0x4 MSTORE PUSH1 0x24 PUSH0 REVERT JUMPDEST POP DIV SWAP1 JUMP JUMPDEST DUP1 DUP3 MUL DUP2 ISZERO DUP3 DUP3 DIV DUP5 EQ OR PUSH2 0x799 JUMPI PUSH2 0x799 PUSH2 0x161C JUMP JUMPDEST DUP1 DUP3 ADD DUP1 DUP3 GT ISZERO PUSH2 0x799 JUMPI PUSH2 0x799 PUSH2 0x161C JUMP JUMPDEST PUSH1 0x1 DUP2 JUMPDEST PUSH1 0x1 DUP5 GT ISZERO PUSH2 0x16C7 JUMPI DUP1 DUP6 DIV DUP2 GT ISZERO PUSH2 0x16AB JUMPI PUSH2 0x16AB PUSH2 0x161C JUMP JUMPDEST PUSH1 0x1 DUP5 AND ISZERO PUSH2 0x16B9 JUMPI SWAP1 DUP2 MUL SWAP1 JUMPDEST PUSH1 0x1 SWAP4 SWAP1 SWAP4 SHR SWAP3 DUP1 MUL PUSH2 0x1690 JUMP JUMPDEST SWAP4 POP SWAP4 SWAP2 POP POP JUMP JUMPDEST PUSH0 DUP3 PUSH2 0x16DD JUMPI POP PUSH1 0x1 PUSH2 0x799 JUMP JUMPDEST DUP2 PUSH2 0x16E9 JUMPI POP PUSH0 PUSH2 0x799 JUMP JUMPDEST DUP2 PUSH1 0x1 DUP2 EQ PUSH2 0x16FF JUMPI PUSH1 0x2 DUP2 EQ PUSH2 0x1709 JUMPI PUSH2 0x1725 JUMP JUMPDEST PUSH1 0x1 SWAP2 POP POP PUSH2 0x799 JUMP JUMPDEST PUSH1 0xFF DUP5 GT ISZERO PUSH2 0x171A JUMPI PUSH2 0x171A PUSH2 0x161C JUMP JUMPDEST POP POP PUSH1 0x1 DUP3 SHL PUSH2 0x799 JUMP JUMPDEST POP PUSH1 0x20 DUP4 LT PUSH2 0x133 DUP4 LT AND PUSH1 0x4E DUP5 LT PUSH1 0xB DUP5 LT AND OR ISZERO PUSH2 0x1748 JUMPI POP DUP2 DUP2 EXP PUSH2 0x799 JUMP JUMPDEST PUSH2 0x1754 PUSH0 NOT DUP5 DUP5 PUSH2 0x168C JUMP JUMPDEST DUP1 PUSH0 NOT DIV DUP3 GT ISZERO PUSH2 0x1767 JUMPI PUSH2 0x1767 PUSH2 0x161C JUMP JUMPDEST MUL SWAP4 SWAP3 POP POP POP JUMP JUMPDEST PUSH0 PUSH2 0x812 PUSH1 0xFF DUP5 AND DUP4 PUSH2 0x16CF JUMP JUMPDEST PUSH0 PUSH2 0x812 DUP4 DUP4 PUSH2 0x16CF JUMP INVALID LOG2 PUSH5 0x6970667358 0x22 SLT KECCAK256 TSTORE MSTORE SAR BYTE 0xE1 CALLCODE SLT BLOCKHASH 0x29 PUSH31 0xC515B6642DD72B6881AE8F8DF88092B8E4DDD16DE89864736F6C634300081A STOP CALLER LOG2 PUSH5 0x6970667358 0x22 SLT KECCAK256 STATICCALL 0xB7 0xC9 0xCD INVALID STOP PUSH6 0x3EE49CE00216 0xEA 0x22 SDIV PUSH24 0x54325267AEB55028C2E6BF903BFED964736F6C634300081A STOP CALLER "
		},
		"gasEstimates": {
			"creation": {
				"codeDepositCost": "3271600",
				"executionCost": "27869",
				"totalCost": "3299469"
			},
			"external": {
				"beforeAll()": "infinite",
				"checkIfUserCanBuyBeforePreSale()": "infinite",
				"checkPreSaleActivation()": "infinite",
				"checkPresaleStartedIsFalse()": "infinite",
				"checkSuccess()": "infinite",
				"testAccountBalances()": "infinite",
				"testCalculateWeeks()": "infinite",
				"testCalculateWeeks0()": "infinite",
				"testCalculateWeeks2()": "infinite",
				"testCalculateWeeks3()": "infinite",
				"testCalculatedPriceIncreaseAtWeek0()": "infinite",
				"testCalculatedPriceIncreaseAtWeek2()": "infinite",
				"testCalculatedPriceIncreaseAtWeek3()": "infinite"
			}
		},
		"methodIdentifiers": {
			"beforeAll()": "7fea0d4b",
			"checkIfUserCanBuyBeforePreSale()": "b78d8f62",
			"checkPreSaleActivation()": "95c4c59e",
			"checkPresaleStartedIsFalse()": "18f128eb",
			"checkSuccess()": "011e6492",
			"testAccountBalances()": "80cb4b93",
			"testCalculateWeeks()": "7b70af2d",
			"testCalculateWeeks0()": "6dd4de24",
			"testCalculateWeeks2()": "d5cc5b34",
			"testCalculateWeeks3()": "39f03dad",
			"testCalculatedPriceIncreaseAtWeek0()": "bffc4072",
			"testCalculatedPriceIncreaseAtWeek2()": "a02660b6",
			"testCalculatedPriceIncreaseAtWeek3()": "d23abfe0"
		}
	},
	"abi": [
		{
			"anonymous": false,
			"inputs": [
				{
					"indexed": false,
					"internalType": "uint256",
					"name": "balance",
					"type": "uint256"
				}
			],
			"name": "LogBalance",
			"type": "event"
		},
		{
			"inputs": [],
			"name": "beforeAll",
			"outputs": [],
			"stateMutability": "nonpayable",
			"type": "function"
		},
		{
			"inputs": [],
			"name": "checkIfUserCanBuyBeforePreSale",
			"outputs": [],
			"stateMutability": "nonpayable",
			"type": "function"
		},
		{
			"inputs": [],
			"name": "checkPreSaleActivation",
			"outputs": [],
			"stateMutability": "nonpayable",
			"type": "function"
		},
		{
			"inputs": [],
			"name": "checkPresaleStartedIsFalse",
			"outputs": [],
			"stateMutability": "nonpayable",
			"type": "function"
		},
		{
			"inputs": [],
			"name": "checkSuccess",
			"outputs": [],
			"stateMutability": "nonpayable",
			"type": "function"
		},
		{
			"inputs": [],
			"name": "testAccountBalances",
			"outputs": [],
			"stateMutability": "nonpayable",
			"type": "function"
		},
		{
			"inputs": [],
			"name": "testCalculateWeeks",
			"outputs": [],
			"stateMutability": "nonpayable",
			"type": "function"
		},
		{
			"inputs": [],
			"name": "testCalculateWeeks0",
			"outputs": [],
			"stateMutability": "nonpayable",
			"type": "function"
		},
		{
			"inputs": [],
			"name": "testCalculateWeeks2",
			"outputs": [],
			"stateMutability": "nonpayable",
			"type": "function"
		},
		{
			"inputs": [],
			"name": "testCalculateWeeks3",
			"outputs": [],
			"stateMutability": "nonpayable",
			"type": "function"
		},
		{
			"inputs": [],
			"name": "testCalculatedPriceIncreaseAtWeek0",
			"outputs": [],
			"stateMutability": "nonpayable",
			"type": "function"
		},
		{
			"inputs": [],
			"name": "testCalculatedPriceIncreaseAtWeek2",
			"outputs": [],
			"stateMutability": "nonpayable",
			"type": "function"
		},
		{
			"inputs": [],
			"name": "testCalculatedPriceIncreaseAtWeek3",
			"outputs": [],
			"stateMutability": "nonpayable",
			"type": "function"
		}
	]
}