{
	"data": {
		"bytecode": {
			"linkReferences": {
				"remix_tests.sol": {
					"Assert": [
						{
							"length": 20,
							"start": 579
						},
						{
							"length": 20,
							"start": 1012
						},
						{
							"length": 20,
							"start": 1324
						},
						{
							"length": 20,
							"start": 1635
						},
						{
							"length": 20,
							"start": 1950
						},
						{
							"length": 20,
							"start": 2224
						},
						{
							"length": 20,
							"start": 2439
						},
						{
							"length": 20,
							"start": 2869
						},
						{
							"length": 20,
							"start": 3905
						},
						{
							"length": 20,
							"start": 4026
						},
						{
							"length": 20,
							"start": 4147
						},
						{
							"length": 20,
							"start": 4275
						},
						{
							"length": 20,
							"start": 4403
						},
						{
							"length": 20,
							"start": 4683
						},
						{
							"length": 20,
							"start": 4986
						},
						{
							"length": 20,
							"start": 5266
						},
						{
							"length": 20,
							"start": 5866
						},
						{
							"length": 20,
							"start": 6175
						},
						{
							"length": 20,
							"start": 6606
						},
						{
							"length": 20,
							"start": 7642
						},
						{
							"length": 20,
							"start": 7763
						},
						{
							"length": 20,
							"start": 7884
						},
						{
							"length": 20,
							"start": 8012
						},
						{
							"length": 20,
							"start": 8140
						},
						{
							"length": 20,
							"start": 8420
						},
						{
							"length": 20,
							"start": 8723
						},
						{
							"length": 20,
							"start": 9003
						},
						{
							"length": 20,
							"start": 9327
						}
					]
				}
			},
			"object": "608060405261012360015f6101000a81548173ffffffffffffffffffffffffffffffffffffffff021916908373ffffffffffffffffffffffffffffffffffffffff1602179055503480156050575f80fd5b50616f098061005e5f395ff3fe608060405234801561000f575f80fd5b50600436106100cd575f3560e01c806380cb4b931161008a578063b78d8f6211610064578063b78d8f621461012b578063bffc407214610135578063d23abfe01461013f578063d5cc5b3414610149576100cd565b806380cb4b931461010d57806395c4c59e14610117578063a02660b614610121576100cd565b8063011e6492146100d157806318f128eb146100db57806339f03dad146100e55780636dd4de24146100ef5780637b70af2d146100f95780637fea0d4b14610103575b5f80fd5b6100d9610153565b005b6100e3610304565b005b6100ed610410565b005b6100f761054b565b005b610101610682565b005b61010b6107bd565b005b6101156108cc565b005b61011f6109a5565b005b610129610b54565b005b6101336114ba565b005b61013d61183d565b005b6101476119ed565b005b610151612353565b005b5f805f9054906101000a900473ffffffffffffffffffffffffffffffffffffffff1673ffffffffffffffffffffffffffffffffffffffff166318160ddd6040518163ffffffff1660e01b8152600401602060405180830381865afa1580156101bd573d5f803e3d5ffd5b505050506040513d601f19601f820116820180604052508101906101e191906124d2565b905073__$acbfb1c35000d78352310b16a054a6b106$__63abcd7960825f8054906101000a900473ffffffffffffffffffffffffffffffffffffffff1673ffffffffffffffffffffffffffffffffffffffff1663313ce5676040518163ffffffff1660e01b8152600401602060405180830381865afa158015610266573d5f803e3d5ffd5b505050506040513d601f19601f8201168201806040525081019061028a9190612533565b600a61029691906126ba565b620f42406102a49190612704565b6040518363ffffffff1660e01b81526004016102c19291906127ae565b602060405180830381865af41580156102dc573d5f803e3d5ffd5b505050506040513d601f19601f82011682018060405250810190610300919061281d565b5050565b5f805f9054906101000a900473ffffffffffffffffffffffffffffffffffffffff1673ffffffffffffffffffffffffffffffffffffffff166330f72cd46040518163ffffffff1660e01b8152600401602060405180830381865afa15801561036e573d5f803e3d5ffd5b505050506040513d601f19601f82011682018060405250810190610392919061281d565b905073__$acbfb1c35000d78352310b16a054a6b106$__63767392b35f836040518363ffffffff1660e01b81526004016103cd9291906128a1565b602060405180830381865af41580156103e8573d5f803e3d5ffd5b505050506040513d601f19601f8201168201806040525081019061040c919061281d565b5050565b5f621fa40060025461042291906128db565b90505f60025490505f805f9054906101000a900473ffffffffffffffffffffffffffffffffffffffff1673ffffffffffffffffffffffffffffffffffffffff16632c66396084846040518363ffffffff1660e01b815260040161048692919061291d565b602060405180830381865afa1580156104a1573d5f803e3d5ffd5b505050506040513d601f19601f820116820180604052508101906104c591906124d2565b90505f6003905073__$acbfb1c35000d78352310b16a054a6b106$__63abcd796083836040518363ffffffff1660e01b81526004016105059291906129b4565b602060405180830381865af4158015610520573d5f803e3d5ffd5b505050506040513d601f19601f82011682018060405250810190610544919061281d565b5050505050565b5f6206978060025461055d91906128db565b90505f60025490505f805f9054906101000a900473ffffffffffffffffffffffffffffffffffffffff1673ffffffffffffffffffffffffffffffffffffffff16632c66396084846040518363ffffffff1660e01b81526004016105c192919061291d565b602060405180830381865afa1580156105dc573d5f803e3d5ffd5b505050506040513d601f19601f8201168201806040525081019061060091906124d2565b90505f73__$acbfb1c35000d78352310b16a054a6b106$__63abcd796083836040518363ffffffff1660e01b815260040161063c9291906129b4565b602060405180830381865af4158015610657573d5f803e3d5ffd5b505050506040513d601f19601f8201168201806040525081019061067b919061281d565b5050505050565b5f62093a8060025461069491906128db565b90505f60025490505f805f9054906101000a900473ffffffffffffffffffffffffffffffffffffffff1673ffffffffffffffffffffffffffffffffffffffff16632c66396084846040518363ffffffff1660e01b81526004016106f892919061291d565b602060405180830381865afa158015610713573d5f803e3d5ffd5b505050506040513d601f19601f8201168201806040525081019061073791906124d2565b90505f6001905073__$acbfb1c35000d78352310b16a054a6b106$__63abcd796083836040518363ffffffff1660e01b8152600401610777929190612a5e565b602060405180830381865af4158015610792573d5f803e3d5ffd5b505050506040513d601f19601f820116820180604052508101906107b6919061281d565b5050505050565b30620f424066038d7ea4c68000600a66071afd498d000060056040516107e29061248e565b6107f196959493929190612bfd565b604051809103905ff08015801561080a573d5f803e3d5ffd5b505f806101000a81548173ffffffffffffffffffffffffffffffffffffffff021916908373ffffffffffffffffffffffffffffffffffffffff1602179055504260028190555073__$acbfb1c35000d78352310b16a054a6b106$__63abcd79606001806040518363ffffffff1660e01b815260040161088a929190612ca6565b602060405180830381865af41580156108a5573d5f803e3d5ffd5b505050506040513d601f19601f820116820180604052508101906108c9919061281d565b50565b5f735b38da6a701c568545dcfcb03fcb875f56beddc490507f8d9fc242eead7aebf4b509c32519beb6e2975a572c06310f797da4bd7f1ffab66175306040516109159190612d19565b60405180910390a15f60c890505f60c8905073__$acbfb1c35000d78352310b16a054a6b106$__63abcd796082846040518363ffffffff1660e01b8152600401610960929190612d7c565b602060405180830381865af415801561097b573d5f803e3d5ffd5b505050506040513d601f19601f8201168201806040525081019061099f919061281d565b50505050565b5f620151806002546109b79190612db6565b90505f600490505f8054906101000a900473ffffffffffffffffffffffffffffffffffffffff1673ffffffffffffffffffffffffffffffffffffffff1663f9a81af783836040518363ffffffff1660e01b8152600401610a1892919061291d565b5f604051808303815f87803b158015610a2f575f80fd5b505af1158015610a41573d5f803e3d5ffd5b505050505f805f9054906101000a900473ffffffffffffffffffffffffffffffffffffffff1673ffffffffffffffffffffffffffffffffffffffff166330f72cd46040518163ffffffff1660e01b8152600401602060405180830381865afa158015610aaf573d5f803e3d5ffd5b505050506040513d601f19601f82011682018060405250810190610ad3919061281d565b905073__$acbfb1c35000d78352310b16a054a6b106$__63767392b36001836040518363ffffffff1660e01b8152600401610b0f9291906128a1565b602060405180830381865af4158015610b2a573d5f803e3d5ffd5b505050506040513d601f19601f82011682018060405250810190610b4e919061281d565b50505050565b5f62151800600254610b6691906128db565b90505f600490505f62093a8082610b7d9190612704565b83610b889190612db6565b90505f8054906101000a900473ffffffffffffffffffffffffffffffffffffffff1673ffffffffffffffffffffffffffffffffffffffff1663f9a81af784846040518363ffffffff1660e01b8152600401610be492919061291d565b5f604051808303815f87803b158015610bfb575f80fd5b505af1158015610c0d573d5f803e3d5ffd5b505050505f805f9054906101000a900473ffffffffffffffffffffffffffffffffffffffff1673ffffffffffffffffffffffffffffffffffffffff16631d0806ae6040518163ffffffff1660e01b8152600401602060405180830381865afa158015610c7b573d5f803e3d5ffd5b505050506040513d601f19601f82011682018060405250810190610c9f91906124d2565b90505f805f9054906101000a900473ffffffffffffffffffffffffffffffffffffffff1673ffffffffffffffffffffffffffffffffffffffff166303e293a36040518163ffffffff1660e01b8152600401602060405180830381865afa158015610d0b573d5f803e3d5ffd5b505050506040513d601f19601f82011682018060405250810190610d2f91906124d2565b90505f805f9054906101000a900473ffffffffffffffffffffffffffffffffffffffff1673ffffffffffffffffffffffffffffffffffffffff166306d65af36040518163ffffffff1660e01b8152600401602060405180830381865afa158015610d9b573d5f803e3d5ffd5b505050506040513d601f19601f82011682018060405250810190610dbf91906124d2565b90505f805f9054906101000a900473ffffffffffffffffffffffffffffffffffffffff1673ffffffffffffffffffffffffffffffffffffffff1663cce29ea76040518163ffffffff1660e01b8152600401602060405180830381865afa158015610e2b573d5f803e3d5ffd5b505050506040513d601f19601f82011682018060405250810190610e4f91906124d2565b90505f805f9054906101000a900473ffffffffffffffffffffffffffffffffffffffff1673ffffffffffffffffffffffffffffffffffffffff1663f8102e686040518163ffffffff1660e01b8152600401602060405180830381865afa158015610ebb573d5f803e3d5ffd5b505050506040513d601f19601f82011682018060405250810190610edf91906124d2565b905073__$acbfb1c35000d78352310b16a054a6b106$__63abcd796089856040518363ffffffff1660e01b8152600401610f1a929190612e59565b602060405180830381865af4158015610f35573d5f803e3d5ffd5b505050506040513d601f19601f82011682018060405250810190610f59919061281d565b5073__$acbfb1c35000d78352310b16a054a6b106$__63abcd796087846040518363ffffffff1660e01b8152600401610f93929190612edd565b602060405180830381865af4158015610fae573d5f803e3d5ffd5b505050506040513d601f19601f82011682018060405250810190610fd2919061281d565b5073__$acbfb1c35000d78352310b16a054a6b106$__63abcd79608666038d7ea4c680006040518363ffffffff1660e01b8152600401611013929190612f70565b602060405180830381865af415801561102e573d5f803e3d5ffd5b505050506040513d601f19601f82011682018060405250810190611052919061281d565b5073__$acbfb1c35000d78352310b16a054a6b106$__63abcd79608566071afd498d00006040518363ffffffff1660e01b8152600401611093929190613003565b602060405180830381865af41580156110ae573d5f803e3d5ffd5b505050506040513d601f19601f820116820180604052508101906110d2919061281d565b5073__$acbfb1c35000d78352310b16a054a6b106$__63abcd796082896040518363ffffffff1660e01b815260040161110c929190613087565b602060405180830381865af4158015611127573d5f803e3d5ffd5b505050506040513d601f19601f8201168201806040525081019061114b919061281d565b505f805f9054906101000a900473ffffffffffffffffffffffffffffffffffffffff1673ffffffffffffffffffffffffffffffffffffffff16632c6639608a6002546040518363ffffffff1660e01b81526004016111aa92919061291d565b602060405180830381865afa1580156111c5573d5f803e3d5ffd5b505050506040513d601f19601f820116820180604052508101906111e991906124d2565b905073__$acbfb1c35000d78352310b16a054a6b106$__63abcd79608260026040518363ffffffff1660e01b8152600401611225929190613144565b602060405180830381865af4158015611240573d5f803e3d5ffd5b505050506040513d601f19601f82011682018060405250810190611264919061281d565b505f8189888861127491906128db565b61127e91906131ab565b6112889190612704565b90505f805f9054906101000a900473ffffffffffffffffffffffffffffffffffffffff1673ffffffffffffffffffffffffffffffffffffffff16634405df4a6040518163ffffffff1660e01b8152600401602060405180830381865afa1580156112f4573d5f803e3d5ffd5b505050506040513d601f19601f8201168201806040525081019061131891906124d2565b905073__$acbfb1c35000d78352310b16a054a6b106$__63abcd796083836040518363ffffffff1660e01b8152600401611353929190613225565b602060405180830381865af415801561136e573d5f803e3d5ffd5b505050506040513d601f19601f82011682018060405250810190611392919061281d565b505f805f9054906101000a900473ffffffffffffffffffffffffffffffffffffffff1673ffffffffffffffffffffffffffffffffffffffff1663d348b4096040518163ffffffff1660e01b8152600401602060405180830381865afa1580156113fd573d5f803e3d5ffd5b505050506040513d601f19601f8201168201806040525081019061142191906124d2565b90505f838a6114309190612db6565b905073__$acbfb1c35000d78352310b16a054a6b106$__63abcd796082846040518363ffffffff1660e01b815260040161146b9291906132a9565b602060405180830381865af4158015611486573d5f803e3d5ffd5b505050506040513d601f19601f820116820180604052508101906114aa919061281d565b5050505050505050505050505050565b5f805f9054906101000a900473ffffffffffffffffffffffffffffffffffffffff1673ffffffffffffffffffffffffffffffffffffffff166370a0823160015f9054906101000a900473ffffffffffffffffffffffffffffffffffffffff166040518263ffffffff1660e01b815260040161153591906132e3565b602060405180830381865afa158015611550573d5f803e3d5ffd5b505050506040513d601f19601f8201168201806040525081019061157491906124d2565b90505f805f9054906101000a900473ffffffffffffffffffffffffffffffffffffffff1673ffffffffffffffffffffffffffffffffffffffff16670de0b6b3a76400006040516024016040516020818303038152906040527fd0febe4c000000000000000000000000000000000000000000000000000000007bffffffffffffffffffffffffffffffffffffffffffffffffffffffff19166020820180517bffffffffffffffffffffffffffffffffffffffffffffffffffffffff8381831617835250505050604051611647919061334e565b5f6040518083038185875af1925050503d805f8114611681576040519150601f19603f3d011682016040523d82523d5f602084013e611686565b606091505b5050905073__$acbfb1c35000d78352310b16a054a6b106$__63767392b3825f6040518363ffffffff1660e01b81526004016116c39291906133d4565b602060405180830381865af41580156116de573d5f803e3d5ffd5b505050506040513d601f19601f82011682018060405250810190611702919061281d565b505f805f9054906101000a900473ffffffffffffffffffffffffffffffffffffffff1673ffffffffffffffffffffffffffffffffffffffff166370a0823160015f9054906101000a900473ffffffffffffffffffffffffffffffffffffffff166040518263ffffffff1660e01b815260040161177e91906132e3565b602060405180830381865afa158015611799573d5f803e3d5ffd5b505050506040513d601f19601f820116820180604052508101906117bd91906124d2565b905073__$acbfb1c35000d78352310b16a054a6b106$__63abcd796084836040518363ffffffff1660e01b81526004016117f892919061347e565b602060405180830381865af4158015611813573d5f803e3d5ffd5b505050506040513d601f19601f82011682018060405250810190611837919061281d565b50505050565b5f6206978060025461184f91906128db565b90505f600490505f8054906101000a900473ffffffffffffffffffffffffffffffffffffffff1673ffffffffffffffffffffffffffffffffffffffff1663f9a81af783836040518363ffffffff1660e01b81526004016118b092919061291d565b5f604051808303815f87803b1580156118c7575f80fd5b505af11580156118d9573d5f803e3d5ffd5b505050505f805f9054906101000a900473ffffffffffffffffffffffffffffffffffffffff1673ffffffffffffffffffffffffffffffffffffffff16634405df4a6040518163ffffffff1660e01b8152600401602060405180830381865afa158015611947573d5f803e3d5ffd5b505050506040513d601f19601f8201168201806040525081019061196b91906124d2565b90505f73__$acbfb1c35000d78352310b16a054a6b106$__63abcd796082846040518363ffffffff1660e01b81526004016119a7929190613528565b602060405180830381865af41580156119c2573d5f803e3d5ffd5b505050506040513d601f19601f820116820180604052508101906119e6919061281d565b5050505050565b5f621fa4006002546119ff91906128db565b90505f600490505f62093a8082611a169190612704565b83611a219190612db6565b90505f8054906101000a900473ffffffffffffffffffffffffffffffffffffffff1673ffffffffffffffffffffffffffffffffffffffff1663f9a81af784846040518363ffffffff1660e01b8152600401611a7d92919061291d565b5f604051808303815f87803b158015611a94575f80fd5b505af1158015611aa6573d5f803e3d5ffd5b505050505f805f9054906101000a900473ffffffffffffffffffffffffffffffffffffffff1673ffffffffffffffffffffffffffffffffffffffff16631d0806ae6040518163ffffffff1660e01b8152600401602060405180830381865afa158015611b14573d5f803e3d5ffd5b505050506040513d601f19601f82011682018060405250810190611b3891906124d2565b90505f805f9054906101000a900473ffffffffffffffffffffffffffffffffffffffff1673ffffffffffffffffffffffffffffffffffffffff166303e293a36040518163ffffffff1660e01b8152600401602060405180830381865afa158015611ba4573d5f803e3d5ffd5b505050506040513d601f19601f82011682018060405250810190611bc891906124d2565b90505f805f9054906101000a900473ffffffffffffffffffffffffffffffffffffffff1673ffffffffffffffffffffffffffffffffffffffff166306d65af36040518163ffffffff1660e01b8152600401602060405180830381865afa158015611c34573d5f803e3d5ffd5b505050506040513d601f19601f82011682018060405250810190611c5891906124d2565b90505f805f9054906101000a900473ffffffffffffffffffffffffffffffffffffffff1673ffffffffffffffffffffffffffffffffffffffff1663cce29ea76040518163ffffffff1660e01b8152600401602060405180830381865afa158015611cc4573d5f803e3d5ffd5b505050506040513d601f19601f82011682018060405250810190611ce891906124d2565b90505f805f9054906101000a900473ffffffffffffffffffffffffffffffffffffffff1673ffffffffffffffffffffffffffffffffffffffff1663f8102e686040518163ffffffff1660e01b8152600401602060405180830381865afa158015611d54573d5f803e3d5ffd5b505050506040513d601f19601f82011682018060405250810190611d7891906124d2565b905073__$acbfb1c35000d78352310b16a054a6b106$__63abcd796089856040518363ffffffff1660e01b8152600401611db3929190612e59565b602060405180830381865af4158015611dce573d5f803e3d5ffd5b505050506040513d601f19601f82011682018060405250810190611df2919061281d565b5073__$acbfb1c35000d78352310b16a054a6b106$__63abcd796087846040518363ffffffff1660e01b8152600401611e2c929190612edd565b602060405180830381865af4158015611e47573d5f803e3d5ffd5b505050506040513d601f19601f82011682018060405250810190611e6b919061281d565b5073__$acbfb1c35000d78352310b16a054a6b106$__63abcd79608666038d7ea4c680006040518363ffffffff1660e01b8152600401611eac929190612f70565b602060405180830381865af4158015611ec7573d5f803e3d5ffd5b505050506040513d601f19601f82011682018060405250810190611eeb919061281d565b5073__$acbfb1c35000d78352310b16a054a6b106$__63abcd79608566071afd498d00006040518363ffffffff1660e01b8152600401611f2c929190613003565b602060405180830381865af4158015611f47573d5f803e3d5ffd5b505050506040513d601f19601f82011682018060405250810190611f6b919061281d565b5073__$acbfb1c35000d78352310b16a054a6b106$__63abcd796082896040518363ffffffff1660e01b8152600401611fa5929190613087565b602060405180830381865af4158015611fc0573d5f803e3d5ffd5b505050506040513d601f19601f82011682018060405250810190611fe4919061281d565b505f805f9054906101000a900473ffffffffffffffffffffffffffffffffffffffff1673ffffffffffffffffffffffffffffffffffffffff16632c6639608a6002546040518363ffffffff1660e01b815260040161204392919061291d565b602060405180830381865afa15801561205e573d5f803e3d5ffd5b505050506040513d601f19601f8201168201806040525081019061208291906124d2565b905073__$acbfb1c35000d78352310b16a054a6b106$__63abcd79608260036040518363ffffffff1660e01b81526004016120be92919061359b565b602060405180830381865af41580156120d9573d5f803e3d5ffd5b505050506040513d601f19601f820116820180604052508101906120fd919061281d565b505f8189888861210d91906128db565b61211791906131ab565b6121219190612704565b90505f805f9054906101000a900473ffffffffffffffffffffffffffffffffffffffff1673ffffffffffffffffffffffffffffffffffffffff16634405df4a6040518163ffffffff1660e01b8152600401602060405180830381865afa15801561218d573d5f803e3d5ffd5b505050506040513d601f19601f820116820180604052508101906121b191906124d2565b905073__$acbfb1c35000d78352310b16a054a6b106$__63abcd796083836040518363ffffffff1660e01b81526004016121ec929190613225565b602060405180830381865af4158015612207573d5f803e3d5ffd5b505050506040513d601f19601f8201168201806040525081019061222b919061281d565b505f805f9054906101000a900473ffffffffffffffffffffffffffffffffffffffff1673ffffffffffffffffffffffffffffffffffffffff1663d348b4096040518163ffffffff1660e01b8152600401602060405180830381865afa158015612296573d5f803e3d5ffd5b505050506040513d601f19601f820116820180604052508101906122ba91906124d2565b90505f838a6122c99190612db6565b905073__$acbfb1c35000d78352310b16a054a6b106$__63abcd796082846040518363ffffffff1660e01b81526004016123049291906132a9565b602060405180830381865af415801561231f573d5f803e3d5ffd5b505050506040513d601f19601f82011682018060405250810190612343919061281d565b5050505050505050505050505050565b5f6212750060025461236591906128db565b90505f60025490505f805f9054906101000a900473ffffffffffffffffffffffffffffffffffffffff1673ffffffffffffffffffffffffffffffffffffffff16632c66396084846040518363ffffffff1660e01b81526004016123c992919061291d565b602060405180830381865afa1580156123e4573d5f803e3d5ffd5b505050506040513d601f19601f8201168201806040525081019061240891906124d2565b90505f6002905073__$acbfb1c35000d78352310b16a054a6b106$__63abcd796083836040518363ffffffff1660e01b81526004016124489291906129b4565b602060405180830381865af4158015612463573d5f803e3d5ffd5b505050506040513d601f19601f82011682018060405250810190612487919061281d565b5050505050565b6138fe806135d683390190565b5f80fd5b5f819050919050565b6124b18161249f565b81146124bb575f80fd5b50565b5f815190506124cc816124a8565b92915050565b5f602082840312156124e7576124e661249b565b5b5f6124f4848285016124be565b91505092915050565b5f60ff82169050919050565b612512816124fd565b811461251c575f80fd5b50565b5f8151905061252d81612509565b92915050565b5f602082840312156125485761254761249b565b5b5f6125558482850161251f565b91505092915050565b7f4e487b71000000000000000000000000000000000000000000000000000000005f52601160045260245ffd5b5f8160011c9050919050565b5f808291508390505b60018511156125e0578086048111156125bc576125bb61255e565b5b60018516156125cb5780820291505b80810290506125d98561258b565b94506125a0565b94509492505050565b5f826125f857600190506126b3565b81612605575f90506126b3565b816001811461261b576002811461262557612654565b60019150506126b3565b60ff8411156126375761263661255e565b5b8360020a91508482111561264e5761264d61255e565b5b506126b3565b5060208310610133831016604e8410600b84101617156126895782820a9050838111156126845761268361255e565b5b6126b3565b6126968484846001612597565b925090508184048111156126ad576126ac61255e565b5b81810290505b9392505050565b5f6126c48261249f565b91506126cf836124fd565b92506126fc7fffffffffffffffffffffffffffffffffffffffffffffffffffffffffffffffff84846125e9565b905092915050565b5f61270e8261249f565b91506127198361249f565b92508282026127278161249f565b9150828204841483151761273e5761273d61255e565b5b5092915050565b61274e8161249f565b82525050565b5f82825260208201905092915050565b7f546f74616c20737570706c792073686f756c64206d61746368000000000000005f82015250565b5f612798601983612754565b91506127a382612764565b602082019050919050565b5f6060820190506127c15f830185612745565b6127ce6020830184612745565b81810360408301526127df8161278c565b90509392505050565b5f8115159050919050565b6127fc816127e8565b8114612806575f80fd5b50565b5f81519050612817816127f3565b92915050565b5f602082840312156128325761283161249b565b5b5f61283f84828501612809565b91505092915050565b612851816127e8565b82525050565b7f50726573616c652073686f756c642062652061637469766500000000000000005f82015250565b5f61288b601883612754565b915061289682612857565b602082019050919050565b5f6060820190506128b45f830185612848565b6128c16020830184612848565b81810360408301526128d28161287f565b90509392505050565b5f6128e58261249f565b91506128f08361249f565b92508282039050818111156129085761290761255e565b5b92915050565b6129178161249f565b82525050565b5f6040820190506129305f83018561290e565b61293d602083018461290e565b9392505050565b7f5468652063616c63756c61746564207765656b732073686f756c6420626520325f8201527f2e00000000000000000000000000000000000000000000000000000000000000602082015250565b5f61299e602183612754565b91506129a982612944565b604082019050919050565b5f6060820190506129c75f830185612745565b6129d46020830184612745565b81810360408301526129e581612992565b90509392505050565b7f5468652063616c63756c61746564207765656b732073686f756c6420626520315f8201527f2e00000000000000000000000000000000000000000000000000000000000000602082015250565b5f612a48602183612754565b9150612a53826129ee565b604082019050919050565b5f606082019050612a715f830185612745565b612a7e6020830184612745565b8181036040830152612a8f81612a3c565b90509392505050565b5f73ffffffffffffffffffffffffffffffffffffffff82169050919050565b5f612ac182612a98565b9050919050565b612ad181612ab7565b82525050565b5f819050919050565b5f819050919050565b5f612b03612afe612af984612ad7565b612ae0565b61249f565b9050919050565b612b1381612ae9565b82525050565b5f819050919050565b5f612b3c612b37612b3284612b19565b612ae0565b61249f565b9050919050565b612b4c81612b22565b82525050565b5f819050919050565b5f612b75612b70612b6b84612b52565b612ae0565b61249f565b9050919050565b612b8581612b5b565b82525050565b5f819050919050565b5f612bae612ba9612ba484612b8b565b612ae0565b61249f565b9050919050565b612bbe81612b94565b82525050565b5f819050919050565b5f612be7612be2612bdd84612bc4565b612ae0565b61249f565b9050919050565b612bf781612bcd565b82525050565b5f60c082019050612c105f830189612ac8565b612c1d6020830188612b0a565b612c2a6040830187612b43565b612c376060830186612b7c565b612c446080830185612bb5565b612c5160a0830184612bee565b979650505050505050565b7f312073686f756c6420626520657175616c20746f2031000000000000000000005f82015250565b5f612c90601683612754565b9150612c9b82612c5c565b602082019050919050565b5f606082019050612cb95f830185612745565b612cc66020830184612745565b8181036040830152612cd781612c84565b90509392505050565b5f819050919050565b5f612d03612cfe612cf984612ce0565b612ae0565b61249f565b9050919050565b612d1381612ce9565b82525050565b5f602082019050612d2c5f830184612d0a565b92915050565b7f42616c616e6365732073686f756c6420626520313000000000000000000000005f82015250565b5f612d66601583612754565b9150612d7182612d32565b602082019050919050565b5f606082019050612d8f5f830185612745565b612d9c6020830184612745565b8181036040830152612dad81612d5a565b90509392505050565b5f612dc08261249f565b9150612dcb8361249f565b9250828201905080821115612de357612de261255e565b5b92915050565b7f636f6e747261637450726553616c6553746172742073686f756c64206d6174635f8201527f6800000000000000000000000000000000000000000000000000000000000000602082015250565b5f612e43602183612754565b9150612e4e82612de9565b604082019050919050565b5f606082019050612e6c5f830185612745565b612e796020830184612745565b8181036040830152612e8a81612e37565b90509392505050565b7f636f6e747261637450726553616c65456e642073686f756c64206d61746368005f82015250565b5f612ec7601f83612754565b9150612ed282612e93565b602082019050919050565b5f606082019050612ef05f830185612745565b612efd6020830184612745565b8181036040830152612f0e81612ebb565b90509392505050565b612f2081612b22565b82525050565b7f70726553616c6550726963652073686f756c64206d61746368000000000000005f82015250565b5f612f5a601983612754565b9150612f6582612f26565b602082019050919050565b5f606082019050612f835f830185612745565b612f906020830184612f17565b8181036040830152612fa181612f4e565b90509392505050565b612fb381612b94565b82525050565b7f726567756c617250726963652073686f756c64206d61746368000000000000005f82015250565b5f612fed601983612754565b9150612ff882612fb9565b602082019050919050565b5f6060820190506130165f830185612745565b6130236020830184612faa565b818103604083015261303481612fe1565b90509392505050565b7f70726553616c655765656b732073686f756c64206d61746368000000000000005f82015250565b5f613071601983612754565b915061307c8261303d565b602082019050919050565b5f60608201905061309a5f830185612745565b6130a76020830184612745565b81810360408301526130b881613065565b90509392505050565b5f819050919050565b5f6130e46130df6130da846130c1565b612ae0565b61249f565b9050919050565b6130f4816130ca565b82525050565b7f7765656b73456c61707365642073686f756c64206265203200000000000000005f82015250565b5f61312e601883612754565b9150613139826130fa565b602082019050919050565b5f6060820190506131575f830185612745565b61316460208301846130eb565b818103604083015261317581613122565b90509392505050565b7f4e487b71000000000000000000000000000000000000000000000000000000005f52601260045260245ffd5b5f6131b58261249f565b91506131c08361249f565b9250826131d0576131cf61317e565b5b828204905092915050565b7f707269636520696e6372656173652073686f756c6420626520302e35653135005f82015250565b5f61320f601f83612754565b915061321a826131db565b602082019050919050565b5f6060820190506132385f830185612745565b6132456020830184612745565b818103604083015261325681613203565b90509392505050565b7f7072696365202073686f756c6420626520312e356531350000000000000000005f82015250565b5f613293601783612754565b915061329e8261325f565b602082019050919050565b5f6060820190506132bc5f830185612745565b6132c96020830184612745565b81810360408301526132da81613287565b90509392505050565b5f6020820190506132f65f830184612ac8565b92915050565b5f81519050919050565b5f81905092915050565b8281835e5f83830152505050565b5f613328826132fc565b6133328185613306565b9350613342818560208601613310565b80840191505092915050565b5f613359828461331e565b915081905092915050565b7f50726573616c65206e6f74206163746976652c2070757263686173652073686f5f8201527f756c64206661696c000000000000000000000000000000000000000000000000602082015250565b5f6133be602883612754565b91506133c982613364565b604082019050919050565b5f6060820190506133e75f830185612848565b6133f46020830184612848565b8181036040830152613405816133b2565b90509392505050565b7f42757965722062616c616e63652073686f756c64206e6f74206368616e6765205f8201527f6265666f72652070726573616c65207374617274730000000000000000000000602082015250565b5f613468603583612754565b91506134738261340e565b604082019050919050565b5f6060820190506134915f830185612745565b61349e6020830184612745565b81810360408301526134af8161345c565b90509392505050565b7f507269636520696e63726561736520647572696e67206669727374207765656b5f8201527f2073686f756c6420626520300000000000000000000000000000000000000000602082015250565b5f613512602c83612754565b915061351d826134b8565b604082019050919050565b5f60608201905061353b5f830185612745565b6135486020830184612745565b818103604083015261355981613506565b90509392505050565b5f819050919050565b5f61358561358061357b84613562565b612ae0565b61249f565b9050919050565b6135958161356b565b82525050565b5f6060820190506135ae5f830185612745565b6135bb602083018461358c565b81810360408301526135cc81613122565b9050939250505056fe608060405234801561000f575f80fd5b506040516138fe3803806138fe833981810160405281019061003191906105af565b856040518060400160405280600b81526020017f4e6174757265546f6b656e0000000000000000000000000000000000000000008152506040518060400160405280600381526020017f4e5452000000000000000000000000000000000000000000000000000000000081525081600390816100ad9190610869565b5080600490816100bd9190610869565b5050505f73ffffffffffffffffffffffffffffffffffffffff168173ffffffffffffffffffffffffffffffffffffffff1603610130575f6040517f1e4fbdf70000000000000000000000000000000000000000000000000000000081526004016101279190610947565b60405180910390fd5b61013f816101b560201b60201c565b506101743061015261027860201b60201c565b600a61015e9190610ac8565b876101699190610b12565b61028060201b60201c565b8360088190555082600a819055508160098190555080600d819055505f600560146101000a81548160ff021916908315150217905550505050505050610be3565b5f60055f9054906101000a900473ffffffffffffffffffffffffffffffffffffffff1690508160055f6101000a81548173ffffffffffffffffffffffffffffffffffffffff021916908373ffffffffffffffffffffffffffffffffffffffff1602179055508173ffffffffffffffffffffffffffffffffffffffff168173ffffffffffffffffffffffffffffffffffffffff167f8be0079c531659141344cd1fd0a4f28419497f9722a3daafe3b4186f6b6457e060405160405180910390a35050565b5f6012905090565b5f73ffffffffffffffffffffffffffffffffffffffff168273ffffffffffffffffffffffffffffffffffffffff16036102f0575f6040517fec442f050000000000000000000000000000000000000000000000000000000081526004016102e79190610947565b60405180910390fd5b6103015f838361030560201b60201c565b5050565b5f73ffffffffffffffffffffffffffffffffffffffff168373ffffffffffffffffffffffffffffffffffffffff1603610355578060025f8282546103499190610b53565b92505081905550610423565b5f805f8573ffffffffffffffffffffffffffffffffffffffff1673ffffffffffffffffffffffffffffffffffffffff1681526020019081526020015f20549050818110156103de578381836040517fe450d38c0000000000000000000000000000000000000000000000000000000081526004016103d593929190610b95565b60405180910390fd5b8181035f808673ffffffffffffffffffffffffffffffffffffffff1673ffffffffffffffffffffffffffffffffffffffff1681526020019081526020015f2081905550505b5f73ffffffffffffffffffffffffffffffffffffffff168273ffffffffffffffffffffffffffffffffffffffff160361046a578060025f82825403925050819055506104b4565b805f808473ffffffffffffffffffffffffffffffffffffffff1673ffffffffffffffffffffffffffffffffffffffff1681526020019081526020015f205f82825401925050819055505b8173ffffffffffffffffffffffffffffffffffffffff168373ffffffffffffffffffffffffffffffffffffffff167fddf252ad1be2c89b69c2b068fc378daa952ba7f163c4a11628f55a4df523b3ef836040516105119190610bca565b60405180910390a3505050565b5f80fd5b5f73ffffffffffffffffffffffffffffffffffffffff82169050919050565b5f61054b82610522565b9050919050565b61055b81610541565b8114610565575f80fd5b50565b5f8151905061057681610552565b92915050565b5f819050919050565b61058e8161057c565b8114610598575f80fd5b50565b5f815190506105a981610585565b92915050565b5f805f805f8060c087890312156105c9576105c861051e565b5b5f6105d689828a01610568565b96505060206105e789828a0161059b565b95505060406105f889828a0161059b565b945050606061060989828a0161059b565b935050608061061a89828a0161059b565b92505060a061062b89828a0161059b565b9150509295509295509295565b5f81519050919050565b7f4e487b71000000000000000000000000000000000000000000000000000000005f52604160045260245ffd5b7f4e487b71000000000000000000000000000000000000000000000000000000005f52602260045260245ffd5b5f60028204905060018216806106b357607f821691505b6020821081036106c6576106c561066f565b5b50919050565b5f819050815f5260205f209050919050565b5f6020601f8301049050919050565b5f82821b905092915050565b5f600883026107287fffffffffffffffffffffffffffffffffffffffffffffffffffffffffffffffff826106ed565b61073286836106ed565b95508019841693508086168417925050509392505050565b5f819050919050565b5f61076d6107686107638461057c565b61074a565b61057c565b9050919050565b5f819050919050565b61078683610753565b61079a61079282610774565b8484546106f9565b825550505050565b5f90565b6107ae6107a2565b6107b981848461077d565b505050565b5b818110156107dc576107d15f826107a6565b6001810190506107bf565b5050565b601f821115610821576107f2816106cc565b6107fb846106de565b8101602085101561080a578190505b61081e610816856106de565b8301826107be565b50505b505050565b5f82821c905092915050565b5f6108415f1984600802610826565b1980831691505092915050565b5f6108598383610832565b9150826002028217905092915050565b61087282610638565b67ffffffffffffffff81111561088b5761088a610642565b5b610895825461069c565b6108a08282856107e0565b5f60209050601f8311600181146108d1575f84156108bf578287015190505b6108c9858261084e565b865550610930565b601f1984166108df866106cc565b5f5b82811015610906578489015182556001820191506020850194506020810190506108e1565b86831015610923578489015161091f601f891682610832565b8355505b6001600288020188555050505b505050505050565b61094181610541565b82525050565b5f60208201905061095a5f830184610938565b92915050565b7f4e487b71000000000000000000000000000000000000000000000000000000005f52601160045260245ffd5b5f8160011c9050919050565b5f808291508390505b60018511156109e2578086048111156109be576109bd610960565b5b60018516156109cd5780820291505b80810290506109db8561098d565b94506109a2565b94509492505050565b5f826109fa5760019050610ab5565b81610a07575f9050610ab5565b8160018114610a1d5760028114610a2757610a56565b6001915050610ab5565b60ff841115610a3957610a38610960565b5b8360020a915084821115610a5057610a4f610960565b5b50610ab5565b5060208310610133831016604e8410600b8410161715610a8b5782820a905083811115610a8657610a85610960565b5b610ab5565b610a988484846001610999565b92509050818404811115610aaf57610aae610960565b5b81810290505b9392505050565b5f60ff82169050919050565b5f610ad28261057c565b9150610add83610abc565b9250610b0a7fffffffffffffffffffffffffffffffffffffffffffffffffffffffffffffffff84846109eb565b905092915050565b5f610b1c8261057c565b9150610b278361057c565b9250828202610b358161057c565b91508282048414831517610b4c57610b4b610960565b5b5092915050565b5f610b5d8261057c565b9150610b688361057c565b9250828201905080821115610b8057610b7f610960565b5b92915050565b610b8f8161057c565b82525050565b5f606082019050610ba85f830186610938565b610bb56020830185610b86565b610bc26040830184610b86565b949350505050565b5f602082019050610bdd5f830184610b86565b92915050565b612d0e80610bf05f395ff3fe608060405260043610610219575f3560e01c80637c613b2f11610122578063a9059cbb116100aa578063dd62ed3e1161006e578063dd62ed3e146107c3578063f2fde38b146107ff578063f8102e6814610827578063f993185514610851578063f9a81af71461088d57610219565b8063a9059cbb146106ed578063cce29ea714610729578063cec297a014610753578063d0febe4c1461078f578063d348b4091461079957610219565b806395d89b41116100f157806395d89b411461060d5780639b19251a146106375780639ca423b314610673578063a09c4cf4146106af578063a5ce413b146106d757610219565b80637c613b2f146105555780638265324d1461056b5780638da5cb5b146105a75780638f0794fe146105d157610219565b806330f72cd4116101a5578063518ab2a811610174578063518ab2a81461048757806370a08231146104b1578063715018a6146104ed5780637165d19b146105035780637547c7a31461052d57610219565b806330f72cd4146103df578063313ce567146104095780634405df4a146104335780634f3fc2df1461045d57610219565b80630d505541116101ec5780630d505541146102d757806318160ddd146103135780631d0806ae1461033d57806323b872dd146103675780632c663960146103a357610219565b806303e293a31461021d57806306d65af31461024757806306fdde0314610271578063095ea7b31461029b575b5f80fd5b348015610228575f80fd5b506102316108b5565b60405161023e9190612077565b60405180910390f35b348015610252575f80fd5b5061025b6108bb565b6040516102689190612077565b60405180910390f35b34801561027c575f80fd5b506102856108c1565b6040516102929190612100565b60405180910390f35b3480156102a6575f80fd5b506102c160048036038101906102bc91906121a8565b610951565b6040516102ce9190612200565b60405180910390f35b3480156102e2575f80fd5b506102fd60048036038101906102f89190612219565b610973565b60405161030a9190612077565b60405180910390f35b34801561031e575f80fd5b50610327610a38565b6040516103349190612077565b60405180910390f35b348015610348575f80fd5b50610351610a41565b60405161035e9190612077565b60405180910390f35b348015610372575f80fd5b5061038d60048036038101906103889190612244565b610a47565b60405161039a9190612200565b60405180910390f35b3480156103ae575f80fd5b506103c960048036038101906103c49190612294565b610a75565b6040516103d69190612077565b60405180910390f35b3480156103ea575f80fd5b506103f3610ae0565b6040516104009190612200565b60405180910390f35b348015610414575f80fd5b5061041d610af3565b60405161042a91906122ed565b60405180910390f35b34801561043e575f80fd5b50610447610afb565b6040516104549190612077565b60405180910390f35b348015610468575f80fd5b50610471610b3e565b60405161047e9190612077565b60405180910390f35b348015610492575f80fd5b5061049b610b44565b6040516104a89190612077565b60405180910390f35b3480156104bc575f80fd5b506104d760048036038101906104d29190612219565b610b4a565b6040516104e49190612077565b60405180910390f35b3480156104f8575f80fd5b50610501610b8f565b005b34801561050e575f80fd5b50610517610ba2565b6040516105249190612077565b60405180910390f35b348015610538575f80fd5b50610553600480360381019061054e9190612306565b610ba8565b005b348015610560575f80fd5b50610569610d26565b005b348015610576575f80fd5b50610591600480360381019061058c9190612219565b610e67565b60405161059e9190612077565b60405180910390f35b3480156105b2575f80fd5b506105bb610ed8565b6040516105c89190612340565b60405180910390f35b3480156105dc575f80fd5b506105f760048036038101906105f29190612219565b610f00565b6040516106049190612077565b60405180910390f35b348015610618575f80fd5b50610621610f15565b60405161062e9190612100565b60405180910390f35b348015610642575f80fd5b5061065d60048036038101906106589190612219565b610fa5565b60405161066a9190612200565b60405180910390f35b34801561067e575f80fd5b5061069960048036038101906106949190612219565b610fc2565b6040516106a69190612340565b60405180910390f35b3480156106ba575f80fd5b506106d560048036038101906106d09190612219565b610ff2565b005b3480156106e2575f80fd5b506106eb6112f3565b005b3480156106f8575f80fd5b50610713600480360381019061070e91906121a8565b6114fe565b6040516107209190612200565b60405180910390f35b348015610734575f80fd5b5061073d611520565b60405161074a9190612077565b60405180910390f35b34801561075e575f80fd5b5061077960048036038101906107749190612219565b611526565b6040516107869190612077565b60405180910390f35b61079761153b565b005b3480156107a4575f80fd5b506107ad6116d4565b6040516107ba9190612077565b60405180910390f35b3480156107ce575f80fd5b506107e960048036038101906107e49190612359565b61175d565b6040516107f69190612077565b60405180910390f35b34801561080a575f80fd5b5061082560048036038101906108209190612219565b6117df565b005b348015610832575f80fd5b5061083b611863565b6040516108489190612077565b60405180910390f35b34801561085c575f80fd5b5061087760048036038101906108729190612219565b611869565b6040516108849190612077565b60405180910390f35b348015610898575f80fd5b506108b360048036038101906108ae9190612294565b61187e565b005b60095481565b60065481565b6060600380546108d0906123c4565b80601f01602080910402602001604051908101604052809291908181526020018280546108fc906123c4565b80156109475780601f1061091e57610100808354040283529160200191610947565b820191905f5260205f20905b81548152906001019060200180831161092a57829003601f168201915b5050505050905090565b5f8061095b611912565b9050610968818585611919565b600191505092915050565b5f8062093a80600f5f8573ffffffffffffffffffffffffffffffffffffffff1673ffffffffffffffffffffffffffffffffffffffff1681526020019081526020015f2054426109c29190612421565b6109cc9190612481565b9050606481600d54600e5f8773ffffffffffffffffffffffffffffffffffffffff1673ffffffffffffffffffffffffffffffffffffffff1681526020019081526020015f2054610a1c91906124b1565b610a2691906124b1565b610a309190612481565b915050919050565b5f600254905090565b60085481565b5f80610a51611912565b9050610a5e85828561192b565b610a698585856119be565b60019150509392505050565b5f82821015610ab9576040517f08c379a0000000000000000000000000000000000000000000000000000000008152600401610ab090612562565b60405180910390fd5b5f62093a808484610aca9190612421565b610ad49190612481565b90508091505092915050565b600560149054906101000a900460ff1681565b5f6012905090565b5f80610b0960065442610a75565b90505f600c5482600854600954610b209190612421565b610b2a91906124b1565b610b349190612481565b9050809250505090565b600d5481565b600b5481565b5f805f8373ffffffffffffffffffffffffffffffffffffffff1673ffffffffffffffffffffffffffffffffffffffff1681526020019081526020015f20549050919050565b610b97611aae565b610ba05f611b35565b565b600a5481565b5f8111610bea576040517f08c379a0000000000000000000000000000000000000000000000000000000008152600401610be1906125f0565b60405180910390fd5b80610bf433610b4a565b1015610c35576040517f08c379a0000000000000000000000000000000000000000000000000000000008152600401610c2c90612658565b60405180910390fd5b610c403330836119be565b80600e5f3373ffffffffffffffffffffffffffffffffffffffff1673ffffffffffffffffffffffffffffffffffffffff1681526020019081526020015f205f828254610c8c9190612676565b9250508190555042600f5f3373ffffffffffffffffffffffffffffffffffffffff1673ffffffffffffffffffffffffffffffffffffffff1681526020019081526020015f20819055503373ffffffffffffffffffffffffffffffffffffffff167fb539ca1e5c8d398ddf1c41c30166f33404941683be4683319b57669a93dad4ef82604051610d1b9190612077565b60405180910390a250565b60011515600560149054906101000a900460ff16151514610d7c576040517f08c379a0000000000000000000000000000000000000000000000000000000008152600401610d73906126f3565b60405180910390fd5b5f610d8633610e67565b90505f8111610dca576040517f08c379a0000000000000000000000000000000000000000000000000000000008152600401610dc19061275b565b60405180910390fd5b610dd43382611bf8565b5f60125f3373ffffffffffffffffffffffffffffffffffffffff1673ffffffffffffffffffffffffffffffffffffffff1681526020019081526020015f20819055503373ffffffffffffffffffffffffffffffffffffffff167ff0bc0a70fe19ef2d8dc1e1948b338a1184184fb1ea3ac836f24065828816d68d82604051610e5c9190612077565b60405180910390a250565b5f610e70610af3565b600a610e7c91906128a8565b6101f460125f8573ffffffffffffffffffffffffffffffffffffffff1673ffffffffffffffffffffffffffffffffffffffff1681526020019081526020015f2054610ec791906124b1565b610ed191906124b1565b9050919050565b5f60055f9054906101000a900473ffffffffffffffffffffffffffffffffffffffff16905090565b600f602052805f5260405f205f915090505481565b606060048054610f24906123c4565b80601f0160208091040260200160405190810160405280929190818152602001828054610f50906123c4565b8015610f9b5780601f10610f7257610100808354040283529160200191610f9b565b820191905f5260205f20905b815481529060010190602001808311610f7e57829003601f168201915b5050505050905090565b6010602052805f5260405f205f915054906101000a900460ff1681565b6011602052805f5260405f205f915054906101000a900473ffffffffffffffffffffffffffffffffffffffff1681565b60105f3373ffffffffffffffffffffffffffffffffffffffff1673ffffffffffffffffffffffffffffffffffffffff1681526020019081526020015f205f9054906101000a900460ff161561107c576040517f08c379a00000000000000000000000000000000000000000000000000000000081526004016110739061293c565b60405180910390fd5b8073ffffffffffffffffffffffffffffffffffffffff163373ffffffffffffffffffffffffffffffffffffffff16036110ea576040517f08c379a00000000000000000000000000000000000000000000000000000000081526004016110e1906129a4565b60405180910390fd5b600160105f3373ffffffffffffffffffffffffffffffffffffffff1673ffffffffffffffffffffffffffffffffffffffff1681526020019081526020015f205f6101000a81548160ff0219169083151502179055505f73ffffffffffffffffffffffffffffffffffffffff168173ffffffffffffffffffffffffffffffffffffffff16141580156111c1575060105f8273ffffffffffffffffffffffffffffffffffffffff1673ffffffffffffffffffffffffffffffffffffffff1681526020019081526020015f205f9054906101000a900460ff165b15611296578060115f3373ffffffffffffffffffffffffffffffffffffffff1673ffffffffffffffffffffffffffffffffffffffff1681526020019081526020015f205f6101000a81548173ffffffffffffffffffffffffffffffffffffffff021916908373ffffffffffffffffffffffffffffffffffffffff160217905550600160125f8373ffffffffffffffffffffffffffffffffffffffff1673ffffffffffffffffffffffffffffffffffffffff1681526020019081526020015f205f82825461128e9190612676565b925050819055505b8073ffffffffffffffffffffffffffffffffffffffff163373ffffffffffffffffffffffffffffffffffffffff167f4bc18aa4b0095c9a3b5cdf42d2322d5a145591b04045988a995a5da42607545760405160405180910390a350565b5f600e5f3373ffffffffffffffffffffffffffffffffffffffff1673ffffffffffffffffffffffffffffffffffffffff1681526020019081526020015f205490505f8111611376576040517f08c379a000000000000000000000000000000000000000000000000000000000815260040161136d90612a0c565b60405180910390fd5b6224ea00600f5f3373ffffffffffffffffffffffffffffffffffffffff1673ffffffffffffffffffffffffffffffffffffffff1681526020019081526020015f20546113c29190612676565b421015611404576040517f08c379a00000000000000000000000000000000000000000000000000000000081526004016113fb90612a74565b60405180910390fd5b5f61140e33610973565b90505f600e5f3373ffffffffffffffffffffffffffffffffffffffff1673ffffffffffffffffffffffffffffffffffffffff1681526020019081526020015f20819055505f600f5f3373ffffffffffffffffffffffffffffffffffffffff1673ffffffffffffffffffffffffffffffffffffffff1681526020019081526020015f20819055506114aa303383856114a59190612676565b6119be565b3373ffffffffffffffffffffffffffffffffffffffff167f6f2d3e000c89d37446b7c0374c0125068ff316d1e3ee302336478a8cd03c233683836040516114f2929190612a92565b60405180910390a25050565b5f80611508611912565b90506115158185856119be565b600191505092915050565b60075481565b6012602052805f5260405f205f915090505481565b600654421015611580576040517f08c379a000000000000000000000000000000000000000000000000000000000815260040161157790612b03565b60405180910390fd5b5f34116115c2576040517f08c379a00000000000000000000000000000000000000000000000000000000081526004016115b990612b6b565b60405180910390fd5b5f6115cb6116d4565b90505f816115d7610af3565b60ff16600a6115e69190612b89565b346115f191906124b1565b6115fb9190612481565b90508061160730610b4a565b1015611648576040517f08c379a000000000000000000000000000000000000000000000000000000000815260040161163f90612c1d565b60405180910390fd5b6116533033836119be565b80600b5f8282546116649190612676565b925050819055503373ffffffffffffffffffffffffffffffffffffffff163073ffffffffffffffffffffffffffffffffffffffff167fddf252ad1be2c89b69c2b068fc378daa952ba7f163c4a11628f55a4df523b3ef836040516116c89190612077565b60405180910390a35050565b5f600560149054906101000a900460ff16611724576040517f08c379a000000000000000000000000000000000000000000000000000000000815260040161171b90612c85565b60405180910390fd5b60075442111561173857600954905061175a565b5f611741610afb565b90505f816008546117529190612676565b905080925050505b90565b5f60015f8473ffffffffffffffffffffffffffffffffffffffff1673ffffffffffffffffffffffffffffffffffffffff1681526020019081526020015f205f8373ffffffffffffffffffffffffffffffffffffffff1673ffffffffffffffffffffffffffffffffffffffff1681526020019081526020015f2054905092915050565b6117e7611aae565b5f73ffffffffffffffffffffffffffffffffffffffff168173ffffffffffffffffffffffffffffffffffffffff1603611857575f6040517f1e4fbdf700000000000000000000000000000000000000000000000000000000815260040161184e9190612340565b60405180910390fd5b61186081611b35565b50565b600c5481565b600e602052805f5260405f205f915090505481565b611886611aae565b8160068190555062093a808161189c91906124b1565b6006546118a99190612676565b60078190555080600c819055506001600560146101000a81548160ff0219169083151502179055507f3844853be672b18d859394aa37e05615b95b78e66b4dc37dca98d1db1b05ea7d600654600754604051611906929190612a92565b60405180910390a15050565b5f33905090565b6119268383836001611c77565b505050565b5f611936848461175d565b90507fffffffffffffffffffffffffffffffffffffffffffffffffffffffffffffffff8110156119b857818110156119a9578281836040517ffb8f41b20000000000000000000000000000000000000000000000000000000081526004016119a093929190612ca3565b60405180910390fd5b6119b784848484035f611c77565b5b50505050565b5f73ffffffffffffffffffffffffffffffffffffffff168373ffffffffffffffffffffffffffffffffffffffff1603611a2e575f6040517f96c6fd1e000000000000000000000000000000000000000000000000000000008152600401611a259190612340565b60405180910390fd5b5f73ffffffffffffffffffffffffffffffffffffffff168273ffffffffffffffffffffffffffffffffffffffff1603611a9e575f6040517fec442f05000000000000000000000000000000000000000000000000000000008152600401611a959190612340565b60405180910390fd5b611aa9838383611e46565b505050565b611ab6611912565b73ffffffffffffffffffffffffffffffffffffffff16611ad4610ed8565b73ffffffffffffffffffffffffffffffffffffffff1614611b3357611af7611912565b6040517f118cdaa7000000000000000000000000000000000000000000000000000000008152600401611b2a9190612340565b60405180910390fd5b565b5f60055f9054906101000a900473ffffffffffffffffffffffffffffffffffffffff1690508160055f6101000a81548173ffffffffffffffffffffffffffffffffffffffff021916908373ffffffffffffffffffffffffffffffffffffffff1602179055508173ffffffffffffffffffffffffffffffffffffffff168173ffffffffffffffffffffffffffffffffffffffff167f8be0079c531659141344cd1fd0a4f28419497f9722a3daafe3b4186f6b6457e060405160405180910390a35050565b5f73ffffffffffffffffffffffffffffffffffffffff168273ffffffffffffffffffffffffffffffffffffffff1603611c68575f6040517fec442f05000000000000000000000000000000000000000000000000000000008152600401611c5f9190612340565b60405180910390fd5b611c735f8383611e46565b5050565b5f73ffffffffffffffffffffffffffffffffffffffff168473ffffffffffffffffffffffffffffffffffffffff1603611ce7575f6040517fe602df05000000000000000000000000000000000000000000000000000000008152600401611cde9190612340565b60405180910390fd5b5f73ffffffffffffffffffffffffffffffffffffffff168373ffffffffffffffffffffffffffffffffffffffff1603611d57575f6040517f94280d62000000000000000000000000000000000000000000000000000000008152600401611d4e9190612340565b60405180910390fd5b8160015f8673ffffffffffffffffffffffffffffffffffffffff1673ffffffffffffffffffffffffffffffffffffffff1681526020019081526020015f205f8573ffffffffffffffffffffffffffffffffffffffff1673ffffffffffffffffffffffffffffffffffffffff1681526020019081526020015f20819055508015611e40578273ffffffffffffffffffffffffffffffffffffffff168473ffffffffffffffffffffffffffffffffffffffff167f8c5be1e5ebec7d5bd14f71427d1e84f3dd0314c0f7b2291e5b200ac8c7c3b92584604051611e379190612077565b60405180910390a35b50505050565b5f73ffffffffffffffffffffffffffffffffffffffff168373ffffffffffffffffffffffffffffffffffffffff1603611e96578060025f828254611e8a9190612676565b92505081905550611f64565b5f805f8573ffffffffffffffffffffffffffffffffffffffff1673ffffffffffffffffffffffffffffffffffffffff1681526020019081526020015f2054905081811015611f1f578381836040517fe450d38c000000000000000000000000000000000000000000000000000000008152600401611f1693929190612ca3565b60405180910390fd5b8181035f808673ffffffffffffffffffffffffffffffffffffffff1673ffffffffffffffffffffffffffffffffffffffff1681526020019081526020015f2081905550505b5f73ffffffffffffffffffffffffffffffffffffffff168273ffffffffffffffffffffffffffffffffffffffff1603611fab578060025f8282540392505081905550611ff5565b805f808473ffffffffffffffffffffffffffffffffffffffff1673ffffffffffffffffffffffffffffffffffffffff1681526020019081526020015f205f82825401925050819055505b8173ffffffffffffffffffffffffffffffffffffffff168373ffffffffffffffffffffffffffffffffffffffff167fddf252ad1be2c89b69c2b068fc378daa952ba7f163c4a11628f55a4df523b3ef836040516120529190612077565b60405180910390a3505050565b5f819050919050565b6120718161205f565b82525050565b5f60208201905061208a5f830184612068565b92915050565b5f81519050919050565b5f82825260208201905092915050565b8281835e5f83830152505050565b5f601f19601f8301169050919050565b5f6120d282612090565b6120dc818561209a565b93506120ec8185602086016120aa565b6120f5816120b8565b840191505092915050565b5f6020820190508181035f83015261211881846120c8565b905092915050565b5f80fd5b5f73ffffffffffffffffffffffffffffffffffffffff82169050919050565b5f61214d82612124565b9050919050565b61215d81612143565b8114612167575f80fd5b50565b5f8135905061217881612154565b92915050565b6121878161205f565b8114612191575f80fd5b50565b5f813590506121a28161217e565b92915050565b5f80604083850312156121be576121bd612120565b5b5f6121cb8582860161216a565b92505060206121dc85828601612194565b9150509250929050565b5f8115159050919050565b6121fa816121e6565b82525050565b5f6020820190506122135f8301846121f1565b92915050565b5f6020828403121561222e5761222d612120565b5b5f61223b8482850161216a565b91505092915050565b5f805f6060848603121561225b5761225a612120565b5b5f6122688682870161216a565b93505060206122798682870161216a565b925050604061228a86828701612194565b9150509250925092565b5f80604083850312156122aa576122a9612120565b5b5f6122b785828601612194565b92505060206122c885828601612194565b9150509250929050565b5f60ff82169050919050565b6122e7816122d2565b82525050565b5f6020820190506123005f8301846122de565b92915050565b5f6020828403121561231b5761231a612120565b5b5f61232884828501612194565b91505092915050565b61233a81612143565b82525050565b5f6020820190506123535f830184612331565b92915050565b5f806040838503121561236f5761236e612120565b5b5f61237c8582860161216a565b925050602061238d8582860161216a565b9150509250929050565b7f4e487b71000000000000000000000000000000000000000000000000000000005f52602260045260245ffd5b5f60028204905060018216806123db57607f821691505b6020821081036123ee576123ed612397565b5b50919050565b7f4e487b71000000000000000000000000000000000000000000000000000000005f52601160045260245ffd5b5f61242b8261205f565b91506124368361205f565b925082820390508181111561244e5761244d6123f4565b5b92915050565b7f4e487b71000000000000000000000000000000000000000000000000000000005f52601260045260245ffd5b5f61248b8261205f565b91506124968361205f565b9250826124a6576124a5612454565b5b828204905092915050565b5f6124bb8261205f565b91506124c68361205f565b92508282026124d48161205f565b915082820484148315176124eb576124ea6123f4565b5b5092915050565b7f456e642074696d65206d7573742062652061667465722073746172742074696d5f8201527f6500000000000000000000000000000000000000000000000000000000000000602082015250565b5f61254c60218361209a565b9150612557826124f2565b604082019050919050565b5f6020820190508181035f83015261257981612540565b9050919050565b7f416d6f756e74206d7573742062652067726561746572207468616e207a65726f5f8201527f2e00000000000000000000000000000000000000000000000000000000000000602082015250565b5f6125da60218361209a565b91506125e582612580565b604082019050919050565b5f6020820190508181035f830152612607816125ce565b9050919050565b7f496e73756666696369656e742062616c616e63652e00000000000000000000005f82015250565b5f61264260158361209a565b915061264d8261260e565b602082019050919050565b5f6020820190508181035f83015261266f81612636565b9050919050565b5f6126808261205f565b915061268b8361205f565b92508282019050808211156126a3576126a26123f4565b5b92915050565b7f50726573616c65206e6f742073746172746564207965740000000000000000005f82015250565b5f6126dd60178361209a565b91506126e8826126a9565b602082019050919050565b5f6020820190508181035f83015261270a816126d1565b9050919050565b7f4e6f207265776172647320617661696c61626c650000000000000000000000005f82015250565b5f61274560148361209a565b915061275082612711565b602082019050919050565b5f6020820190508181035f83015261277281612739565b9050919050565b5f8160011c9050919050565b5f808291508390505b60018511156127ce578086048111156127aa576127a96123f4565b5b60018516156127b95780820291505b80810290506127c785612779565b945061278e565b94509492505050565b5f826127e657600190506128a1565b816127f3575f90506128a1565b8160018114612809576002811461281357612842565b60019150506128a1565b60ff841115612825576128246123f4565b5b8360020a91508482111561283c5761283b6123f4565b5b506128a1565b5060208310610133831016604e8410600b84101617156128775782820a905083811115612872576128716123f4565b5b6128a1565b6128848484846001612785565b9250905081840481111561289b5761289a6123f4565b5b81810290505b9392505050565b5f6128b28261205f565b91506128bd836122d2565b92506128ea7fffffffffffffffffffffffffffffffffffffffffffffffffffffffffffffffff84846127d7565b905092915050565b7f416c72656164792077686974656c6973746564000000000000000000000000005f82015250565b5f61292660138361209a565b9150612931826128f2565b602082019050919050565b5f6020820190508181035f8301526129538161291a565b9050919050565b7f43616e6e6f7420726566657220796f757273656c6600000000000000000000005f82015250565b5f61298e60158361209a565b91506129998261295a565b602082019050919050565b5f6020820190508181035f8301526129bb81612982565b9050919050565b7f4e6f20746f6b656e73207374616b65642e0000000000000000000000000000005f82015250565b5f6129f660118361209a565b9150612a01826129c2565b602082019050919050565b5f6020820190508181035f830152612a23816129ea565b9050919050565b7f556e7374616b65206f6e6c792061667465722034207765656b732e00000000005f82015250565b5f612a5e601b8361209a565b9150612a6982612a2a565b602082019050919050565b5f6020820190508181035f830152612a8b81612a52565b9050919050565b5f604082019050612aa55f830185612068565b612ab26020830184612068565b9392505050565b7f53616c65206e6f74206163746976652e000000000000000000000000000000005f82015250565b5f612aed60108361209a565b9150612af882612ab9565b602082019050919050565b5f6020820190508181035f830152612b1a81612ae1565b9050919050565b7f4d7573742073656e642045544820746f2062757920746f6b656e732e000000005f82015250565b5f612b55601c8361209a565b9150612b6082612b21565b602082019050919050565b5f6020820190508181035f830152612b8281612b49565b9050919050565b5f612b938261205f565b9150612b9e8361205f565b9250612bcb7fffffffffffffffffffffffffffffffffffffffffffffffffffffffffffffffff84846127d7565b905092915050565b7f4e6f7420656e6f75676820746f6b656e7320617661696c61626c652e000000005f82015250565b5f612c07601c8361209a565b9150612c1282612bd3565b602082019050919050565b5f6020820190508181035f830152612c3481612bfb565b9050919050565b7f5072652d73616c65206e6f7420737461727465642079657400000000000000005f82015250565b5f612c6f60188361209a565b9150612c7a82612c3b565b602082019050919050565b5f6020820190508181035f830152612c9c81612c63565b9050919050565b5f606082019050612cb65f830186612331565b612cc36020830185612068565b612cd06040830184612068565b94935050505056fea2646970667358221220b82585b8ba4b6024fa686928432f67ecb5852aca7be31d156998916d42ed036164736f6c634300081a0033a26469706673582212207bac1adb6cc78950b0f9adaa9f0b83437a4275b58425665c446198b5fbbf888564736f6c634300081a0033",
			"opcodes": "PUSH1 0x80 PUSH1 0x40 MSTORE PUSH2 0x123 PUSH1 0x1 PUSH0 PUSH2 0x100 EXP DUP2 SLOAD DUP2 PUSH20 0xFFFFFFFFFFFFFFFFFFFFFFFFFFFFFFFFFFFFFFFF MUL NOT AND SWAP1 DUP4 PUSH20 0xFFFFFFFFFFFFFFFFFFFFFFFFFFFFFFFFFFFFFFFF AND MUL OR SWAP1 SSTORE POP CALLVALUE DUP1 ISZERO PUSH1 0x50 JUMPI PUSH0 DUP1 REVERT JUMPDEST POP PUSH2 0x6F09 DUP1 PUSH2 0x5E PUSH0 CODECOPY PUSH0 RETURN INVALID PUSH1 0x80 PUSH1 0x40 MSTORE CALLVALUE DUP1 ISZERO PUSH2 0xF JUMPI PUSH0 DUP1 REVERT JUMPDEST POP PUSH1 0x4 CALLDATASIZE LT PUSH2 0xCD JUMPI PUSH0 CALLDATALOAD PUSH1 0xE0 SHR DUP1 PUSH4 0x80CB4B93 GT PUSH2 0x8A JUMPI DUP1 PUSH4 0xB78D8F62 GT PUSH2 0x64 JUMPI DUP1 PUSH4 0xB78D8F62 EQ PUSH2 0x12B JUMPI DUP1 PUSH4 0xBFFC4072 EQ PUSH2 0x135 JUMPI DUP1 PUSH4 0xD23ABFE0 EQ PUSH2 0x13F JUMPI DUP1 PUSH4 0xD5CC5B34 EQ PUSH2 0x149 JUMPI PUSH2 0xCD JUMP JUMPDEST DUP1 PUSH4 0x80CB4B93 EQ PUSH2 0x10D JUMPI DUP1 PUSH4 0x95C4C59E EQ PUSH2 0x117 JUMPI DUP1 PUSH4 0xA02660B6 EQ PUSH2 0x121 JUMPI PUSH2 0xCD JUMP JUMPDEST DUP1 PUSH4 0x11E6492 EQ PUSH2 0xD1 JUMPI DUP1 PUSH4 0x18F128EB EQ PUSH2 0xDB JUMPI DUP1 PUSH4 0x39F03DAD EQ PUSH2 0xE5 JUMPI DUP1 PUSH4 0x6DD4DE24 EQ PUSH2 0xEF JUMPI DUP1 PUSH4 0x7B70AF2D EQ PUSH2 0xF9 JUMPI DUP1 PUSH4 0x7FEA0D4B EQ PUSH2 0x103 JUMPI JUMPDEST PUSH0 DUP1 REVERT JUMPDEST PUSH2 0xD9 PUSH2 0x153 JUMP JUMPDEST STOP JUMPDEST PUSH2 0xE3 PUSH2 0x304 JUMP JUMPDEST STOP JUMPDEST PUSH2 0xED PUSH2 0x410 JUMP JUMPDEST STOP JUMPDEST PUSH2 0xF7 PUSH2 0x54B JUMP JUMPDEST STOP JUMPDEST PUSH2 0x101 PUSH2 0x682 JUMP JUMPDEST STOP JUMPDEST PUSH2 0x10B PUSH2 0x7BD JUMP JUMPDEST STOP JUMPDEST PUSH2 0x115 PUSH2 0x8CC JUMP JUMPDEST STOP JUMPDEST PUSH2 0x11F PUSH2 0x9A5 JUMP JUMPDEST STOP JUMPDEST PUSH2 0x129 PUSH2 0xB54 JUMP JUMPDEST STOP JUMPDEST PUSH2 0x133 PUSH2 0x14BA JUMP JUMPDEST STOP JUMPDEST PUSH2 0x13D PUSH2 0x183D JUMP JUMPDEST STOP JUMPDEST PUSH2 0x147 PUSH2 0x19ED JUMP JUMPDEST STOP JUMPDEST PUSH2 0x151 PUSH2 0x2353 JUMP JUMPDEST STOP JUMPDEST PUSH0 DUP1 PUSH0 SWAP1 SLOAD SWAP1 PUSH2 0x100 EXP SWAP1 DIV PUSH20 0xFFFFFFFFFFFFFFFFFFFFFFFFFFFFFFFFFFFFFFFF AND PUSH20 0xFFFFFFFFFFFFFFFFFFFFFFFFFFFFFFFFFFFFFFFF AND PUSH4 0x18160DDD PUSH1 0x40 MLOAD DUP2 PUSH4 0xFFFFFFFF AND PUSH1 0xE0 SHL DUP2 MSTORE PUSH1 0x4 ADD PUSH1 0x20 PUSH1 0x40 MLOAD DUP1 DUP4 SUB DUP2 DUP7 GAS STATICCALL ISZERO DUP1 ISZERO PUSH2 0x1BD JUMPI RETURNDATASIZE PUSH0 DUP1 RETURNDATACOPY RETURNDATASIZE PUSH0 REVERT JUMPDEST POP POP POP POP PUSH1 0x40 MLOAD RETURNDATASIZE PUSH1 0x1F NOT PUSH1 0x1F DUP3 ADD AND DUP3 ADD DUP1 PUSH1 0x40 MSTORE POP DUP2 ADD SWAP1 PUSH2 0x1E1 SWAP2 SWAP1 PUSH2 0x24D2 JUMP JUMPDEST SWAP1 POP PUSH20 0x0 PUSH4 0xABCD7960 DUP3 PUSH0 DUP1 SLOAD SWAP1 PUSH2 0x100 EXP SWAP1 DIV PUSH20 0xFFFFFFFFFFFFFFFFFFFFFFFFFFFFFFFFFFFFFFFF AND PUSH20 0xFFFFFFFFFFFFFFFFFFFFFFFFFFFFFFFFFFFFFFFF AND PUSH4 0x313CE567 PUSH1 0x40 MLOAD DUP2 PUSH4 0xFFFFFFFF AND PUSH1 0xE0 SHL DUP2 MSTORE PUSH1 0x4 ADD PUSH1 0x20 PUSH1 0x40 MLOAD DUP1 DUP4 SUB DUP2 DUP7 GAS STATICCALL ISZERO DUP1 ISZERO PUSH2 0x266 JUMPI RETURNDATASIZE PUSH0 DUP1 RETURNDATACOPY RETURNDATASIZE PUSH0 REVERT JUMPDEST POP POP POP POP PUSH1 0x40 MLOAD RETURNDATASIZE PUSH1 0x1F NOT PUSH1 0x1F DUP3 ADD AND DUP3 ADD DUP1 PUSH1 0x40 MSTORE POP DUP2 ADD SWAP1 PUSH2 0x28A SWAP2 SWAP1 PUSH2 0x2533 JUMP JUMPDEST PUSH1 0xA PUSH2 0x296 SWAP2 SWAP1 PUSH2 0x26BA JUMP JUMPDEST PUSH3 0xF4240 PUSH2 0x2A4 SWAP2 SWAP1 PUSH2 0x2704 JUMP JUMPDEST PUSH1 0x40 MLOAD DUP4 PUSH4 0xFFFFFFFF AND PUSH1 0xE0 SHL DUP2 MSTORE PUSH1 0x4 ADD PUSH2 0x2C1 SWAP3 SWAP2 SWAP1 PUSH2 0x27AE JUMP JUMPDEST PUSH1 0x20 PUSH1 0x40 MLOAD DUP1 DUP4 SUB DUP2 DUP7 GAS DELEGATECALL ISZERO DUP1 ISZERO PUSH2 0x2DC JUMPI RETURNDATASIZE PUSH0 DUP1 RETURNDATACOPY RETURNDATASIZE PUSH0 REVERT JUMPDEST POP POP POP POP PUSH1 0x40 MLOAD RETURNDATASIZE PUSH1 0x1F NOT PUSH1 0x1F DUP3 ADD AND DUP3 ADD DUP1 PUSH1 0x40 MSTORE POP DUP2 ADD SWAP1 PUSH2 0x300 SWAP2 SWAP1 PUSH2 0x281D JUMP JUMPDEST POP POP JUMP JUMPDEST PUSH0 DUP1 PUSH0 SWAP1 SLOAD SWAP1 PUSH2 0x100 EXP SWAP1 DIV PUSH20 0xFFFFFFFFFFFFFFFFFFFFFFFFFFFFFFFFFFFFFFFF AND PUSH20 0xFFFFFFFFFFFFFFFFFFFFFFFFFFFFFFFFFFFFFFFF AND PUSH4 0x30F72CD4 PUSH1 0x40 MLOAD DUP2 PUSH4 0xFFFFFFFF AND PUSH1 0xE0 SHL DUP2 MSTORE PUSH1 0x4 ADD PUSH1 0x20 PUSH1 0x40 MLOAD DUP1 DUP4 SUB DUP2 DUP7 GAS STATICCALL ISZERO DUP1 ISZERO PUSH2 0x36E JUMPI RETURNDATASIZE PUSH0 DUP1 RETURNDATACOPY RETURNDATASIZE PUSH0 REVERT JUMPDEST POP POP POP POP PUSH1 0x40 MLOAD RETURNDATASIZE PUSH1 0x1F NOT PUSH1 0x1F DUP3 ADD AND DUP3 ADD DUP1 PUSH1 0x40 MSTORE POP DUP2 ADD SWAP1 PUSH2 0x392 SWAP2 SWAP1 PUSH2 0x281D JUMP JUMPDEST SWAP1 POP PUSH20 0x0 PUSH4 0x767392B3 PUSH0 DUP4 PUSH1 0x40 MLOAD DUP4 PUSH4 0xFFFFFFFF AND PUSH1 0xE0 SHL DUP2 MSTORE PUSH1 0x4 ADD PUSH2 0x3CD SWAP3 SWAP2 SWAP1 PUSH2 0x28A1 JUMP JUMPDEST PUSH1 0x20 PUSH1 0x40 MLOAD DUP1 DUP4 SUB DUP2 DUP7 GAS DELEGATECALL ISZERO DUP1 ISZERO PUSH2 0x3E8 JUMPI RETURNDATASIZE PUSH0 DUP1 RETURNDATACOPY RETURNDATASIZE PUSH0 REVERT JUMPDEST POP POP POP POP PUSH1 0x40 MLOAD RETURNDATASIZE PUSH1 0x1F NOT PUSH1 0x1F DUP3 ADD AND DUP3 ADD DUP1 PUSH1 0x40 MSTORE POP DUP2 ADD SWAP1 PUSH2 0x40C SWAP2 SWAP1 PUSH2 0x281D JUMP JUMPDEST POP POP JUMP JUMPDEST PUSH0 PUSH3 0x1FA400 PUSH1 0x2 SLOAD PUSH2 0x422 SWAP2 SWAP1 PUSH2 0x28DB JUMP JUMPDEST SWAP1 POP PUSH0 PUSH1 0x2 SLOAD SWAP1 POP PUSH0 DUP1 PUSH0 SWAP1 SLOAD SWAP1 PUSH2 0x100 EXP SWAP1 DIV PUSH20 0xFFFFFFFFFFFFFFFFFFFFFFFFFFFFFFFFFFFFFFFF AND PUSH20 0xFFFFFFFFFFFFFFFFFFFFFFFFFFFFFFFFFFFFFFFF AND PUSH4 0x2C663960 DUP5 DUP5 PUSH1 0x40 MLOAD DUP4 PUSH4 0xFFFFFFFF AND PUSH1 0xE0 SHL DUP2 MSTORE PUSH1 0x4 ADD PUSH2 0x486 SWAP3 SWAP2 SWAP1 PUSH2 0x291D JUMP JUMPDEST PUSH1 0x20 PUSH1 0x40 MLOAD DUP1 DUP4 SUB DUP2 DUP7 GAS STATICCALL ISZERO DUP1 ISZERO PUSH2 0x4A1 JUMPI RETURNDATASIZE PUSH0 DUP1 RETURNDATACOPY RETURNDATASIZE PUSH0 REVERT JUMPDEST POP POP POP POP PUSH1 0x40 MLOAD RETURNDATASIZE PUSH1 0x1F NOT PUSH1 0x1F DUP3 ADD AND DUP3 ADD DUP1 PUSH1 0x40 MSTORE POP DUP2 ADD SWAP1 PUSH2 0x4C5 SWAP2 SWAP1 PUSH2 0x24D2 JUMP JUMPDEST SWAP1 POP PUSH0 PUSH1 0x3 SWAP1 POP PUSH20 0x0 PUSH4 0xABCD7960 DUP4 DUP4 PUSH1 0x40 MLOAD DUP4 PUSH4 0xFFFFFFFF AND PUSH1 0xE0 SHL DUP2 MSTORE PUSH1 0x4 ADD PUSH2 0x505 SWAP3 SWAP2 SWAP1 PUSH2 0x29B4 JUMP JUMPDEST PUSH1 0x20 PUSH1 0x40 MLOAD DUP1 DUP4 SUB DUP2 DUP7 GAS DELEGATECALL ISZERO DUP1 ISZERO PUSH2 0x520 JUMPI RETURNDATASIZE PUSH0 DUP1 RETURNDATACOPY RETURNDATASIZE PUSH0 REVERT JUMPDEST POP POP POP POP PUSH1 0x40 MLOAD RETURNDATASIZE PUSH1 0x1F NOT PUSH1 0x1F DUP3 ADD AND DUP3 ADD DUP1 PUSH1 0x40 MSTORE POP DUP2 ADD SWAP1 PUSH2 0x544 SWAP2 SWAP1 PUSH2 0x281D JUMP JUMPDEST POP POP POP POP POP JUMP JUMPDEST PUSH0 PUSH3 0x69780 PUSH1 0x2 SLOAD PUSH2 0x55D SWAP2 SWAP1 PUSH2 0x28DB JUMP JUMPDEST SWAP1 POP PUSH0 PUSH1 0x2 SLOAD SWAP1 POP PUSH0 DUP1 PUSH0 SWAP1 SLOAD SWAP1 PUSH2 0x100 EXP SWAP1 DIV PUSH20 0xFFFFFFFFFFFFFFFFFFFFFFFFFFFFFFFFFFFFFFFF AND PUSH20 0xFFFFFFFFFFFFFFFFFFFFFFFFFFFFFFFFFFFFFFFF AND PUSH4 0x2C663960 DUP5 DUP5 PUSH1 0x40 MLOAD DUP4 PUSH4 0xFFFFFFFF AND PUSH1 0xE0 SHL DUP2 MSTORE PUSH1 0x4 ADD PUSH2 0x5C1 SWAP3 SWAP2 SWAP1 PUSH2 0x291D JUMP JUMPDEST PUSH1 0x20 PUSH1 0x40 MLOAD DUP1 DUP4 SUB DUP2 DUP7 GAS STATICCALL ISZERO DUP1 ISZERO PUSH2 0x5DC JUMPI RETURNDATASIZE PUSH0 DUP1 RETURNDATACOPY RETURNDATASIZE PUSH0 REVERT JUMPDEST POP POP POP POP PUSH1 0x40 MLOAD RETURNDATASIZE PUSH1 0x1F NOT PUSH1 0x1F DUP3 ADD AND DUP3 ADD DUP1 PUSH1 0x40 MSTORE POP DUP2 ADD SWAP1 PUSH2 0x600 SWAP2 SWAP1 PUSH2 0x24D2 JUMP JUMPDEST SWAP1 POP PUSH0 PUSH20 0x0 PUSH4 0xABCD7960 DUP4 DUP4 PUSH1 0x40 MLOAD DUP4 PUSH4 0xFFFFFFFF AND PUSH1 0xE0 SHL DUP2 MSTORE PUSH1 0x4 ADD PUSH2 0x63C SWAP3 SWAP2 SWAP1 PUSH2 0x29B4 JUMP JUMPDEST PUSH1 0x20 PUSH1 0x40 MLOAD DUP1 DUP4 SUB DUP2 DUP7 GAS DELEGATECALL ISZERO DUP1 ISZERO PUSH2 0x657 JUMPI RETURNDATASIZE PUSH0 DUP1 RETURNDATACOPY RETURNDATASIZE PUSH0 REVERT JUMPDEST POP POP POP POP PUSH1 0x40 MLOAD RETURNDATASIZE PUSH1 0x1F NOT PUSH1 0x1F DUP3 ADD AND DUP3 ADD DUP1 PUSH1 0x40 MSTORE POP DUP2 ADD SWAP1 PUSH2 0x67B SWAP2 SWAP1 PUSH2 0x281D JUMP JUMPDEST POP POP POP POP POP JUMP JUMPDEST PUSH0 PUSH3 0x93A80 PUSH1 0x2 SLOAD PUSH2 0x694 SWAP2 SWAP1 PUSH2 0x28DB JUMP JUMPDEST SWAP1 POP PUSH0 PUSH1 0x2 SLOAD SWAP1 POP PUSH0 DUP1 PUSH0 SWAP1 SLOAD SWAP1 PUSH2 0x100 EXP SWAP1 DIV PUSH20 0xFFFFFFFFFFFFFFFFFFFFFFFFFFFFFFFFFFFFFFFF AND PUSH20 0xFFFFFFFFFFFFFFFFFFFFFFFFFFFFFFFFFFFFFFFF AND PUSH4 0x2C663960 DUP5 DUP5 PUSH1 0x40 MLOAD DUP4 PUSH4 0xFFFFFFFF AND PUSH1 0xE0 SHL DUP2 MSTORE PUSH1 0x4 ADD PUSH2 0x6F8 SWAP3 SWAP2 SWAP1 PUSH2 0x291D JUMP JUMPDEST PUSH1 0x20 PUSH1 0x40 MLOAD DUP1 DUP4 SUB DUP2 DUP7 GAS STATICCALL ISZERO DUP1 ISZERO PUSH2 0x713 JUMPI RETURNDATASIZE PUSH0 DUP1 RETURNDATACOPY RETURNDATASIZE PUSH0 REVERT JUMPDEST POP POP POP POP PUSH1 0x40 MLOAD RETURNDATASIZE PUSH1 0x1F NOT PUSH1 0x1F DUP3 ADD AND DUP3 ADD DUP1 PUSH1 0x40 MSTORE POP DUP2 ADD SWAP1 PUSH2 0x737 SWAP2 SWAP1 PUSH2 0x24D2 JUMP JUMPDEST SWAP1 POP PUSH0 PUSH1 0x1 SWAP1 POP PUSH20 0x0 PUSH4 0xABCD7960 DUP4 DUP4 PUSH1 0x40 MLOAD DUP4 PUSH4 0xFFFFFFFF AND PUSH1 0xE0 SHL DUP2 MSTORE PUSH1 0x4 ADD PUSH2 0x777 SWAP3 SWAP2 SWAP1 PUSH2 0x2A5E JUMP JUMPDEST PUSH1 0x20 PUSH1 0x40 MLOAD DUP1 DUP4 SUB DUP2 DUP7 GAS DELEGATECALL ISZERO DUP1 ISZERO PUSH2 0x792 JUMPI RETURNDATASIZE PUSH0 DUP1 RETURNDATACOPY RETURNDATASIZE PUSH0 REVERT JUMPDEST POP POP POP POP PUSH1 0x40 MLOAD RETURNDATASIZE PUSH1 0x1F NOT PUSH1 0x1F DUP3 ADD AND DUP3 ADD DUP1 PUSH1 0x40 MSTORE POP DUP2 ADD SWAP1 PUSH2 0x7B6 SWAP2 SWAP1 PUSH2 0x281D JUMP JUMPDEST POP POP POP POP POP JUMP JUMPDEST ADDRESS PUSH3 0xF4240 PUSH7 0x38D7EA4C68000 PUSH1 0xA PUSH7 0x71AFD498D0000 PUSH1 0x5 PUSH1 0x40 MLOAD PUSH2 0x7E2 SWAP1 PUSH2 0x248E JUMP JUMPDEST PUSH2 0x7F1 SWAP7 SWAP6 SWAP5 SWAP4 SWAP3 SWAP2 SWAP1 PUSH2 0x2BFD JUMP JUMPDEST PUSH1 0x40 MLOAD DUP1 SWAP2 SUB SWAP1 PUSH0 CREATE DUP1 ISZERO DUP1 ISZERO PUSH2 0x80A JUMPI RETURNDATASIZE PUSH0 DUP1 RETURNDATACOPY RETURNDATASIZE PUSH0 REVERT JUMPDEST POP PUSH0 DUP1 PUSH2 0x100 EXP DUP2 SLOAD DUP2 PUSH20 0xFFFFFFFFFFFFFFFFFFFFFFFFFFFFFFFFFFFFFFFF MUL NOT AND SWAP1 DUP4 PUSH20 0xFFFFFFFFFFFFFFFFFFFFFFFFFFFFFFFFFFFFFFFF AND MUL OR SWAP1 SSTORE POP TIMESTAMP PUSH1 0x2 DUP2 SWAP1 SSTORE POP PUSH20 0x0 PUSH4 0xABCD7960 PUSH1 0x1 DUP1 PUSH1 0x40 MLOAD DUP4 PUSH4 0xFFFFFFFF AND PUSH1 0xE0 SHL DUP2 MSTORE PUSH1 0x4 ADD PUSH2 0x88A SWAP3 SWAP2 SWAP1 PUSH2 0x2CA6 JUMP JUMPDEST PUSH1 0x20 PUSH1 0x40 MLOAD DUP1 DUP4 SUB DUP2 DUP7 GAS DELEGATECALL ISZERO DUP1 ISZERO PUSH2 0x8A5 JUMPI RETURNDATASIZE PUSH0 DUP1 RETURNDATACOPY RETURNDATASIZE PUSH0 REVERT JUMPDEST POP POP POP POP PUSH1 0x40 MLOAD RETURNDATASIZE PUSH1 0x1F NOT PUSH1 0x1F DUP3 ADD AND DUP3 ADD DUP1 PUSH1 0x40 MSTORE POP DUP2 ADD SWAP1 PUSH2 0x8C9 SWAP2 SWAP1 PUSH2 0x281D JUMP JUMPDEST POP JUMP JUMPDEST PUSH0 PUSH20 0x5B38DA6A701C568545DCFCB03FCB875F56BEDDC4 SWAP1 POP PUSH32 0x8D9FC242EEAD7AEBF4B509C32519BEB6E2975A572C06310F797DA4BD7F1FFAB6 PUSH2 0x7530 PUSH1 0x40 MLOAD PUSH2 0x915 SWAP2 SWAP1 PUSH2 0x2D19 JUMP JUMPDEST PUSH1 0x40 MLOAD DUP1 SWAP2 SUB SWAP1 LOG1 PUSH0 PUSH1 0xC8 SWAP1 POP PUSH0 PUSH1 0xC8 SWAP1 POP PUSH20 0x0 PUSH4 0xABCD7960 DUP3 DUP5 PUSH1 0x40 MLOAD DUP4 PUSH4 0xFFFFFFFF AND PUSH1 0xE0 SHL DUP2 MSTORE PUSH1 0x4 ADD PUSH2 0x960 SWAP3 SWAP2 SWAP1 PUSH2 0x2D7C JUMP JUMPDEST PUSH1 0x20 PUSH1 0x40 MLOAD DUP1 DUP4 SUB DUP2 DUP7 GAS DELEGATECALL ISZERO DUP1 ISZERO PUSH2 0x97B JUMPI RETURNDATASIZE PUSH0 DUP1 RETURNDATACOPY RETURNDATASIZE PUSH0 REVERT JUMPDEST POP POP POP POP PUSH1 0x40 MLOAD RETURNDATASIZE PUSH1 0x1F NOT PUSH1 0x1F DUP3 ADD AND DUP3 ADD DUP1 PUSH1 0x40 MSTORE POP DUP2 ADD SWAP1 PUSH2 0x99F SWAP2 SWAP1 PUSH2 0x281D JUMP JUMPDEST POP POP POP POP JUMP JUMPDEST PUSH0 PUSH3 0x15180 PUSH1 0x2 SLOAD PUSH2 0x9B7 SWAP2 SWAP1 PUSH2 0x2DB6 JUMP JUMPDEST SWAP1 POP PUSH0 PUSH1 0x4 SWAP1 POP PUSH0 DUP1 SLOAD SWAP1 PUSH2 0x100 EXP SWAP1 DIV PUSH20 0xFFFFFFFFFFFFFFFFFFFFFFFFFFFFFFFFFFFFFFFF AND PUSH20 0xFFFFFFFFFFFFFFFFFFFFFFFFFFFFFFFFFFFFFFFF AND PUSH4 0xF9A81AF7 DUP4 DUP4 PUSH1 0x40 MLOAD DUP4 PUSH4 0xFFFFFFFF AND PUSH1 0xE0 SHL DUP2 MSTORE PUSH1 0x4 ADD PUSH2 0xA18 SWAP3 SWAP2 SWAP1 PUSH2 0x291D JUMP JUMPDEST PUSH0 PUSH1 0x40 MLOAD DUP1 DUP4 SUB DUP2 PUSH0 DUP8 DUP1 EXTCODESIZE ISZERO DUP1 ISZERO PUSH2 0xA2F JUMPI PUSH0 DUP1 REVERT JUMPDEST POP GAS CALL ISZERO DUP1 ISZERO PUSH2 0xA41 JUMPI RETURNDATASIZE PUSH0 DUP1 RETURNDATACOPY RETURNDATASIZE PUSH0 REVERT JUMPDEST POP POP POP POP PUSH0 DUP1 PUSH0 SWAP1 SLOAD SWAP1 PUSH2 0x100 EXP SWAP1 DIV PUSH20 0xFFFFFFFFFFFFFFFFFFFFFFFFFFFFFFFFFFFFFFFF AND PUSH20 0xFFFFFFFFFFFFFFFFFFFFFFFFFFFFFFFFFFFFFFFF AND PUSH4 0x30F72CD4 PUSH1 0x40 MLOAD DUP2 PUSH4 0xFFFFFFFF AND PUSH1 0xE0 SHL DUP2 MSTORE PUSH1 0x4 ADD PUSH1 0x20 PUSH1 0x40 MLOAD DUP1 DUP4 SUB DUP2 DUP7 GAS STATICCALL ISZERO DUP1 ISZERO PUSH2 0xAAF JUMPI RETURNDATASIZE PUSH0 DUP1 RETURNDATACOPY RETURNDATASIZE PUSH0 REVERT JUMPDEST POP POP POP POP PUSH1 0x40 MLOAD RETURNDATASIZE PUSH1 0x1F NOT PUSH1 0x1F DUP3 ADD AND DUP3 ADD DUP1 PUSH1 0x40 MSTORE POP DUP2 ADD SWAP1 PUSH2 0xAD3 SWAP2 SWAP1 PUSH2 0x281D JUMP JUMPDEST SWAP1 POP PUSH20 0x0 PUSH4 0x767392B3 PUSH1 0x1 DUP4 PUSH1 0x40 MLOAD DUP4 PUSH4 0xFFFFFFFF AND PUSH1 0xE0 SHL DUP2 MSTORE PUSH1 0x4 ADD PUSH2 0xB0F SWAP3 SWAP2 SWAP1 PUSH2 0x28A1 JUMP JUMPDEST PUSH1 0x20 PUSH1 0x40 MLOAD DUP1 DUP4 SUB DUP2 DUP7 GAS DELEGATECALL ISZERO DUP1 ISZERO PUSH2 0xB2A JUMPI RETURNDATASIZE PUSH0 DUP1 RETURNDATACOPY RETURNDATASIZE PUSH0 REVERT JUMPDEST POP POP POP POP PUSH1 0x40 MLOAD RETURNDATASIZE PUSH1 0x1F NOT PUSH1 0x1F DUP3 ADD AND DUP3 ADD DUP1 PUSH1 0x40 MSTORE POP DUP2 ADD SWAP1 PUSH2 0xB4E SWAP2 SWAP1 PUSH2 0x281D JUMP JUMPDEST POP POP POP POP JUMP JUMPDEST PUSH0 PUSH3 0x151800 PUSH1 0x2 SLOAD PUSH2 0xB66 SWAP2 SWAP1 PUSH2 0x28DB JUMP JUMPDEST SWAP1 POP PUSH0 PUSH1 0x4 SWAP1 POP PUSH0 PUSH3 0x93A80 DUP3 PUSH2 0xB7D SWAP2 SWAP1 PUSH2 0x2704 JUMP JUMPDEST DUP4 PUSH2 0xB88 SWAP2 SWAP1 PUSH2 0x2DB6 JUMP JUMPDEST SWAP1 POP PUSH0 DUP1 SLOAD SWAP1 PUSH2 0x100 EXP SWAP1 DIV PUSH20 0xFFFFFFFFFFFFFFFFFFFFFFFFFFFFFFFFFFFFFFFF AND PUSH20 0xFFFFFFFFFFFFFFFFFFFFFFFFFFFFFFFFFFFFFFFF AND PUSH4 0xF9A81AF7 DUP5 DUP5 PUSH1 0x40 MLOAD DUP4 PUSH4 0xFFFFFFFF AND PUSH1 0xE0 SHL DUP2 MSTORE PUSH1 0x4 ADD PUSH2 0xBE4 SWAP3 SWAP2 SWAP1 PUSH2 0x291D JUMP JUMPDEST PUSH0 PUSH1 0x40 MLOAD DUP1 DUP4 SUB DUP2 PUSH0 DUP8 DUP1 EXTCODESIZE ISZERO DUP1 ISZERO PUSH2 0xBFB JUMPI PUSH0 DUP1 REVERT JUMPDEST POP GAS CALL ISZERO DUP1 ISZERO PUSH2 0xC0D JUMPI RETURNDATASIZE PUSH0 DUP1 RETURNDATACOPY RETURNDATASIZE PUSH0 REVERT JUMPDEST POP POP POP POP PUSH0 DUP1 PUSH0 SWAP1 SLOAD SWAP1 PUSH2 0x100 EXP SWAP1 DIV PUSH20 0xFFFFFFFFFFFFFFFFFFFFFFFFFFFFFFFFFFFFFFFF AND PUSH20 0xFFFFFFFFFFFFFFFFFFFFFFFFFFFFFFFFFFFFFFFF AND PUSH4 0x1D0806AE PUSH1 0x40 MLOAD DUP2 PUSH4 0xFFFFFFFF AND PUSH1 0xE0 SHL DUP2 MSTORE PUSH1 0x4 ADD PUSH1 0x20 PUSH1 0x40 MLOAD DUP1 DUP4 SUB DUP2 DUP7 GAS STATICCALL ISZERO DUP1 ISZERO PUSH2 0xC7B JUMPI RETURNDATASIZE PUSH0 DUP1 RETURNDATACOPY RETURNDATASIZE PUSH0 REVERT JUMPDEST POP POP POP POP PUSH1 0x40 MLOAD RETURNDATASIZE PUSH1 0x1F NOT PUSH1 0x1F DUP3 ADD AND DUP3 ADD DUP1 PUSH1 0x40 MSTORE POP DUP2 ADD SWAP1 PUSH2 0xC9F SWAP2 SWAP1 PUSH2 0x24D2 JUMP JUMPDEST SWAP1 POP PUSH0 DUP1 PUSH0 SWAP1 SLOAD SWAP1 PUSH2 0x100 EXP SWAP1 DIV PUSH20 0xFFFFFFFFFFFFFFFFFFFFFFFFFFFFFFFFFFFFFFFF AND PUSH20 0xFFFFFFFFFFFFFFFFFFFFFFFFFFFFFFFFFFFFFFFF AND PUSH4 0x3E293A3 PUSH1 0x40 MLOAD DUP2 PUSH4 0xFFFFFFFF AND PUSH1 0xE0 SHL DUP2 MSTORE PUSH1 0x4 ADD PUSH1 0x20 PUSH1 0x40 MLOAD DUP1 DUP4 SUB DUP2 DUP7 GAS STATICCALL ISZERO DUP1 ISZERO PUSH2 0xD0B JUMPI RETURNDATASIZE PUSH0 DUP1 RETURNDATACOPY RETURNDATASIZE PUSH0 REVERT JUMPDEST POP POP POP POP PUSH1 0x40 MLOAD RETURNDATASIZE PUSH1 0x1F NOT PUSH1 0x1F DUP3 ADD AND DUP3 ADD DUP1 PUSH1 0x40 MSTORE POP DUP2 ADD SWAP1 PUSH2 0xD2F SWAP2 SWAP1 PUSH2 0x24D2 JUMP JUMPDEST SWAP1 POP PUSH0 DUP1 PUSH0 SWAP1 SLOAD SWAP1 PUSH2 0x100 EXP SWAP1 DIV PUSH20 0xFFFFFFFFFFFFFFFFFFFFFFFFFFFFFFFFFFFFFFFF AND PUSH20 0xFFFFFFFFFFFFFFFFFFFFFFFFFFFFFFFFFFFFFFFF AND PUSH4 0x6D65AF3 PUSH1 0x40 MLOAD DUP2 PUSH4 0xFFFFFFFF AND PUSH1 0xE0 SHL DUP2 MSTORE PUSH1 0x4 ADD PUSH1 0x20 PUSH1 0x40 MLOAD DUP1 DUP4 SUB DUP2 DUP7 GAS STATICCALL ISZERO DUP1 ISZERO PUSH2 0xD9B JUMPI RETURNDATASIZE PUSH0 DUP1 RETURNDATACOPY RETURNDATASIZE PUSH0 REVERT JUMPDEST POP POP POP POP PUSH1 0x40 MLOAD RETURNDATASIZE PUSH1 0x1F NOT PUSH1 0x1F DUP3 ADD AND DUP3 ADD DUP1 PUSH1 0x40 MSTORE POP DUP2 ADD SWAP1 PUSH2 0xDBF SWAP2 SWAP1 PUSH2 0x24D2 JUMP JUMPDEST SWAP1 POP PUSH0 DUP1 PUSH0 SWAP1 SLOAD SWAP1 PUSH2 0x100 EXP SWAP1 DIV PUSH20 0xFFFFFFFFFFFFFFFFFFFFFFFFFFFFFFFFFFFFFFFF AND PUSH20 0xFFFFFFFFFFFFFFFFFFFFFFFFFFFFFFFFFFFFFFFF AND PUSH4 0xCCE29EA7 PUSH1 0x40 MLOAD DUP2 PUSH4 0xFFFFFFFF AND PUSH1 0xE0 SHL DUP2 MSTORE PUSH1 0x4 ADD PUSH1 0x20 PUSH1 0x40 MLOAD DUP1 DUP4 SUB DUP2 DUP7 GAS STATICCALL ISZERO DUP1 ISZERO PUSH2 0xE2B JUMPI RETURNDATASIZE PUSH0 DUP1 RETURNDATACOPY RETURNDATASIZE PUSH0 REVERT JUMPDEST POP POP POP POP PUSH1 0x40 MLOAD RETURNDATASIZE PUSH1 0x1F NOT PUSH1 0x1F DUP3 ADD AND DUP3 ADD DUP1 PUSH1 0x40 MSTORE POP DUP2 ADD SWAP1 PUSH2 0xE4F SWAP2 SWAP1 PUSH2 0x24D2 JUMP JUMPDEST SWAP1 POP PUSH0 DUP1 PUSH0 SWAP1 SLOAD SWAP1 PUSH2 0x100 EXP SWAP1 DIV PUSH20 0xFFFFFFFFFFFFFFFFFFFFFFFFFFFFFFFFFFFFFFFF AND PUSH20 0xFFFFFFFFFFFFFFFFFFFFFFFFFFFFFFFFFFFFFFFF AND PUSH4 0xF8102E68 PUSH1 0x40 MLOAD DUP2 PUSH4 0xFFFFFFFF AND PUSH1 0xE0 SHL DUP2 MSTORE PUSH1 0x4 ADD PUSH1 0x20 PUSH1 0x40 MLOAD DUP1 DUP4 SUB DUP2 DUP7 GAS STATICCALL ISZERO DUP1 ISZERO PUSH2 0xEBB JUMPI RETURNDATASIZE PUSH0 DUP1 RETURNDATACOPY RETURNDATASIZE PUSH0 REVERT JUMPDEST POP POP POP POP PUSH1 0x40 MLOAD RETURNDATASIZE PUSH1 0x1F NOT PUSH1 0x1F DUP3 ADD AND DUP3 ADD DUP1 PUSH1 0x40 MSTORE POP DUP2 ADD SWAP1 PUSH2 0xEDF SWAP2 SWAP1 PUSH2 0x24D2 JUMP JUMPDEST SWAP1 POP PUSH20 0x0 PUSH4 0xABCD7960 DUP10 DUP6 PUSH1 0x40 MLOAD DUP4 PUSH4 0xFFFFFFFF AND PUSH1 0xE0 SHL DUP2 MSTORE PUSH1 0x4 ADD PUSH2 0xF1A SWAP3 SWAP2 SWAP1 PUSH2 0x2E59 JUMP JUMPDEST PUSH1 0x20 PUSH1 0x40 MLOAD DUP1 DUP4 SUB DUP2 DUP7 GAS DELEGATECALL ISZERO DUP1 ISZERO PUSH2 0xF35 JUMPI RETURNDATASIZE PUSH0 DUP1 RETURNDATACOPY RETURNDATASIZE PUSH0 REVERT JUMPDEST POP POP POP POP PUSH1 0x40 MLOAD RETURNDATASIZE PUSH1 0x1F NOT PUSH1 0x1F DUP3 ADD AND DUP3 ADD DUP1 PUSH1 0x40 MSTORE POP DUP2 ADD SWAP1 PUSH2 0xF59 SWAP2 SWAP1 PUSH2 0x281D JUMP JUMPDEST POP PUSH20 0x0 PUSH4 0xABCD7960 DUP8 DUP5 PUSH1 0x40 MLOAD DUP4 PUSH4 0xFFFFFFFF AND PUSH1 0xE0 SHL DUP2 MSTORE PUSH1 0x4 ADD PUSH2 0xF93 SWAP3 SWAP2 SWAP1 PUSH2 0x2EDD JUMP JUMPDEST PUSH1 0x20 PUSH1 0x40 MLOAD DUP1 DUP4 SUB DUP2 DUP7 GAS DELEGATECALL ISZERO DUP1 ISZERO PUSH2 0xFAE JUMPI RETURNDATASIZE PUSH0 DUP1 RETURNDATACOPY RETURNDATASIZE PUSH0 REVERT JUMPDEST POP POP POP POP PUSH1 0x40 MLOAD RETURNDATASIZE PUSH1 0x1F NOT PUSH1 0x1F DUP3 ADD AND DUP3 ADD DUP1 PUSH1 0x40 MSTORE POP DUP2 ADD SWAP1 PUSH2 0xFD2 SWAP2 SWAP1 PUSH2 0x281D JUMP JUMPDEST POP PUSH20 0x0 PUSH4 0xABCD7960 DUP7 PUSH7 0x38D7EA4C68000 PUSH1 0x40 MLOAD DUP4 PUSH4 0xFFFFFFFF AND PUSH1 0xE0 SHL DUP2 MSTORE PUSH1 0x4 ADD PUSH2 0x1013 SWAP3 SWAP2 SWAP1 PUSH2 0x2F70 JUMP JUMPDEST PUSH1 0x20 PUSH1 0x40 MLOAD DUP1 DUP4 SUB DUP2 DUP7 GAS DELEGATECALL ISZERO DUP1 ISZERO PUSH2 0x102E JUMPI RETURNDATASIZE PUSH0 DUP1 RETURNDATACOPY RETURNDATASIZE PUSH0 REVERT JUMPDEST POP POP POP POP PUSH1 0x40 MLOAD RETURNDATASIZE PUSH1 0x1F NOT PUSH1 0x1F DUP3 ADD AND DUP3 ADD DUP1 PUSH1 0x40 MSTORE POP DUP2 ADD SWAP1 PUSH2 0x1052 SWAP2 SWAP1 PUSH2 0x281D JUMP JUMPDEST POP PUSH20 0x0 PUSH4 0xABCD7960 DUP6 PUSH7 0x71AFD498D0000 PUSH1 0x40 MLOAD DUP4 PUSH4 0xFFFFFFFF AND PUSH1 0xE0 SHL DUP2 MSTORE PUSH1 0x4 ADD PUSH2 0x1093 SWAP3 SWAP2 SWAP1 PUSH2 0x3003 JUMP JUMPDEST PUSH1 0x20 PUSH1 0x40 MLOAD DUP1 DUP4 SUB DUP2 DUP7 GAS DELEGATECALL ISZERO DUP1 ISZERO PUSH2 0x10AE JUMPI RETURNDATASIZE PUSH0 DUP1 RETURNDATACOPY RETURNDATASIZE PUSH0 REVERT JUMPDEST POP POP POP POP PUSH1 0x40 MLOAD RETURNDATASIZE PUSH1 0x1F NOT PUSH1 0x1F DUP3 ADD AND DUP3 ADD DUP1 PUSH1 0x40 MSTORE POP DUP2 ADD SWAP1 PUSH2 0x10D2 SWAP2 SWAP1 PUSH2 0x281D JUMP JUMPDEST POP PUSH20 0x0 PUSH4 0xABCD7960 DUP3 DUP10 PUSH1 0x40 MLOAD DUP4 PUSH4 0xFFFFFFFF AND PUSH1 0xE0 SHL DUP2 MSTORE PUSH1 0x4 ADD PUSH2 0x110C SWAP3 SWAP2 SWAP1 PUSH2 0x3087 JUMP JUMPDEST PUSH1 0x20 PUSH1 0x40 MLOAD DUP1 DUP4 SUB DUP2 DUP7 GAS DELEGATECALL ISZERO DUP1 ISZERO PUSH2 0x1127 JUMPI RETURNDATASIZE PUSH0 DUP1 RETURNDATACOPY RETURNDATASIZE PUSH0 REVERT JUMPDEST POP POP POP POP PUSH1 0x40 MLOAD RETURNDATASIZE PUSH1 0x1F NOT PUSH1 0x1F DUP3 ADD AND DUP3 ADD DUP1 PUSH1 0x40 MSTORE POP DUP2 ADD SWAP1 PUSH2 0x114B SWAP2 SWAP1 PUSH2 0x281D JUMP JUMPDEST POP PUSH0 DUP1 PUSH0 SWAP1 SLOAD SWAP1 PUSH2 0x100 EXP SWAP1 DIV PUSH20 0xFFFFFFFFFFFFFFFFFFFFFFFFFFFFFFFFFFFFFFFF AND PUSH20 0xFFFFFFFFFFFFFFFFFFFFFFFFFFFFFFFFFFFFFFFF AND PUSH4 0x2C663960 DUP11 PUSH1 0x2 SLOAD PUSH1 0x40 MLOAD DUP4 PUSH4 0xFFFFFFFF AND PUSH1 0xE0 SHL DUP2 MSTORE PUSH1 0x4 ADD PUSH2 0x11AA SWAP3 SWAP2 SWAP1 PUSH2 0x291D JUMP JUMPDEST PUSH1 0x20 PUSH1 0x40 MLOAD DUP1 DUP4 SUB DUP2 DUP7 GAS STATICCALL ISZERO DUP1 ISZERO PUSH2 0x11C5 JUMPI RETURNDATASIZE PUSH0 DUP1 RETURNDATACOPY RETURNDATASIZE PUSH0 REVERT JUMPDEST POP POP POP POP PUSH1 0x40 MLOAD RETURNDATASIZE PUSH1 0x1F NOT PUSH1 0x1F DUP3 ADD AND DUP3 ADD DUP1 PUSH1 0x40 MSTORE POP DUP2 ADD SWAP1 PUSH2 0x11E9 SWAP2 SWAP1 PUSH2 0x24D2 JUMP JUMPDEST SWAP1 POP PUSH20 0x0 PUSH4 0xABCD7960 DUP3 PUSH1 0x2 PUSH1 0x40 MLOAD DUP4 PUSH4 0xFFFFFFFF AND PUSH1 0xE0 SHL DUP2 MSTORE PUSH1 0x4 ADD PUSH2 0x1225 SWAP3 SWAP2 SWAP1 PUSH2 0x3144 JUMP JUMPDEST PUSH1 0x20 PUSH1 0x40 MLOAD DUP1 DUP4 SUB DUP2 DUP7 GAS DELEGATECALL ISZERO DUP1 ISZERO PUSH2 0x1240 JUMPI RETURNDATASIZE PUSH0 DUP1 RETURNDATACOPY RETURNDATASIZE PUSH0 REVERT JUMPDEST POP POP POP POP PUSH1 0x40 MLOAD RETURNDATASIZE PUSH1 0x1F NOT PUSH1 0x1F DUP3 ADD AND DUP3 ADD DUP1 PUSH1 0x40 MSTORE POP DUP2 ADD SWAP1 PUSH2 0x1264 SWAP2 SWAP1 PUSH2 0x281D JUMP JUMPDEST POP PUSH0 DUP2 DUP10 DUP9 DUP9 PUSH2 0x1274 SWAP2 SWAP1 PUSH2 0x28DB JUMP JUMPDEST PUSH2 0x127E SWAP2 SWAP1 PUSH2 0x31AB JUMP JUMPDEST PUSH2 0x1288 SWAP2 SWAP1 PUSH2 0x2704 JUMP JUMPDEST SWAP1 POP PUSH0 DUP1 PUSH0 SWAP1 SLOAD SWAP1 PUSH2 0x100 EXP SWAP1 DIV PUSH20 0xFFFFFFFFFFFFFFFFFFFFFFFFFFFFFFFFFFFFFFFF AND PUSH20 0xFFFFFFFFFFFFFFFFFFFFFFFFFFFFFFFFFFFFFFFF AND PUSH4 0x4405DF4A PUSH1 0x40 MLOAD DUP2 PUSH4 0xFFFFFFFF AND PUSH1 0xE0 SHL DUP2 MSTORE PUSH1 0x4 ADD PUSH1 0x20 PUSH1 0x40 MLOAD DUP1 DUP4 SUB DUP2 DUP7 GAS STATICCALL ISZERO DUP1 ISZERO PUSH2 0x12F4 JUMPI RETURNDATASIZE PUSH0 DUP1 RETURNDATACOPY RETURNDATASIZE PUSH0 REVERT JUMPDEST POP POP POP POP PUSH1 0x40 MLOAD RETURNDATASIZE PUSH1 0x1F NOT PUSH1 0x1F DUP3 ADD AND DUP3 ADD DUP1 PUSH1 0x40 MSTORE POP DUP2 ADD SWAP1 PUSH2 0x1318 SWAP2 SWAP1 PUSH2 0x24D2 JUMP JUMPDEST SWAP1 POP PUSH20 0x0 PUSH4 0xABCD7960 DUP4 DUP4 PUSH1 0x40 MLOAD DUP4 PUSH4 0xFFFFFFFF AND PUSH1 0xE0 SHL DUP2 MSTORE PUSH1 0x4 ADD PUSH2 0x1353 SWAP3 SWAP2 SWAP1 PUSH2 0x3225 JUMP JUMPDEST PUSH1 0x20 PUSH1 0x40 MLOAD DUP1 DUP4 SUB DUP2 DUP7 GAS DELEGATECALL ISZERO DUP1 ISZERO PUSH2 0x136E JUMPI RETURNDATASIZE PUSH0 DUP1 RETURNDATACOPY RETURNDATASIZE PUSH0 REVERT JUMPDEST POP POP POP POP PUSH1 0x40 MLOAD RETURNDATASIZE PUSH1 0x1F NOT PUSH1 0x1F DUP3 ADD AND DUP3 ADD DUP1 PUSH1 0x40 MSTORE POP DUP2 ADD SWAP1 PUSH2 0x1392 SWAP2 SWAP1 PUSH2 0x281D JUMP JUMPDEST POP PUSH0 DUP1 PUSH0 SWAP1 SLOAD SWAP1 PUSH2 0x100 EXP SWAP1 DIV PUSH20 0xFFFFFFFFFFFFFFFFFFFFFFFFFFFFFFFFFFFFFFFF AND PUSH20 0xFFFFFFFFFFFFFFFFFFFFFFFFFFFFFFFFFFFFFFFF AND PUSH4 0xD348B409 PUSH1 0x40 MLOAD DUP2 PUSH4 0xFFFFFFFF AND PUSH1 0xE0 SHL DUP2 MSTORE PUSH1 0x4 ADD PUSH1 0x20 PUSH1 0x40 MLOAD DUP1 DUP4 SUB DUP2 DUP7 GAS STATICCALL ISZERO DUP1 ISZERO PUSH2 0x13FD JUMPI RETURNDATASIZE PUSH0 DUP1 RETURNDATACOPY RETURNDATASIZE PUSH0 REVERT JUMPDEST POP POP POP POP PUSH1 0x40 MLOAD RETURNDATASIZE PUSH1 0x1F NOT PUSH1 0x1F DUP3 ADD AND DUP3 ADD DUP1 PUSH1 0x40 MSTORE POP DUP2 ADD SWAP1 PUSH2 0x1421 SWAP2 SWAP1 PUSH2 0x24D2 JUMP JUMPDEST SWAP1 POP PUSH0 DUP4 DUP11 PUSH2 0x1430 SWAP2 SWAP1 PUSH2 0x2DB6 JUMP JUMPDEST SWAP1 POP PUSH20 0x0 PUSH4 0xABCD7960 DUP3 DUP5 PUSH1 0x40 MLOAD DUP4 PUSH4 0xFFFFFFFF AND PUSH1 0xE0 SHL DUP2 MSTORE PUSH1 0x4 ADD PUSH2 0x146B SWAP3 SWAP2 SWAP1 PUSH2 0x32A9 JUMP JUMPDEST PUSH1 0x20 PUSH1 0x40 MLOAD DUP1 DUP4 SUB DUP2 DUP7 GAS DELEGATECALL ISZERO DUP1 ISZERO PUSH2 0x1486 JUMPI RETURNDATASIZE PUSH0 DUP1 RETURNDATACOPY RETURNDATASIZE PUSH0 REVERT JUMPDEST POP POP POP POP PUSH1 0x40 MLOAD RETURNDATASIZE PUSH1 0x1F NOT PUSH1 0x1F DUP3 ADD AND DUP3 ADD DUP1 PUSH1 0x40 MSTORE POP DUP2 ADD SWAP1 PUSH2 0x14AA SWAP2 SWAP1 PUSH2 0x281D JUMP JUMPDEST POP POP POP POP POP POP POP POP POP POP POP POP POP POP JUMP JUMPDEST PUSH0 DUP1 PUSH0 SWAP1 SLOAD SWAP1 PUSH2 0x100 EXP SWAP1 DIV PUSH20 0xFFFFFFFFFFFFFFFFFFFFFFFFFFFFFFFFFFFFFFFF AND PUSH20 0xFFFFFFFFFFFFFFFFFFFFFFFFFFFFFFFFFFFFFFFF AND PUSH4 0x70A08231 PUSH1 0x1 PUSH0 SWAP1 SLOAD SWAP1 PUSH2 0x100 EXP SWAP1 DIV PUSH20 0xFFFFFFFFFFFFFFFFFFFFFFFFFFFFFFFFFFFFFFFF AND PUSH1 0x40 MLOAD DUP3 PUSH4 0xFFFFFFFF AND PUSH1 0xE0 SHL DUP2 MSTORE PUSH1 0x4 ADD PUSH2 0x1535 SWAP2 SWAP1 PUSH2 0x32E3 JUMP JUMPDEST PUSH1 0x20 PUSH1 0x40 MLOAD DUP1 DUP4 SUB DUP2 DUP7 GAS STATICCALL ISZERO DUP1 ISZERO PUSH2 0x1550 JUMPI RETURNDATASIZE PUSH0 DUP1 RETURNDATACOPY RETURNDATASIZE PUSH0 REVERT JUMPDEST POP POP POP POP PUSH1 0x40 MLOAD RETURNDATASIZE PUSH1 0x1F NOT PUSH1 0x1F DUP3 ADD AND DUP3 ADD DUP1 PUSH1 0x40 MSTORE POP DUP2 ADD SWAP1 PUSH2 0x1574 SWAP2 SWAP1 PUSH2 0x24D2 JUMP JUMPDEST SWAP1 POP PUSH0 DUP1 PUSH0 SWAP1 SLOAD SWAP1 PUSH2 0x100 EXP SWAP1 DIV PUSH20 0xFFFFFFFFFFFFFFFFFFFFFFFFFFFFFFFFFFFFFFFF AND PUSH20 0xFFFFFFFFFFFFFFFFFFFFFFFFFFFFFFFFFFFFFFFF AND PUSH8 0xDE0B6B3A7640000 PUSH1 0x40 MLOAD PUSH1 0x24 ADD PUSH1 0x40 MLOAD PUSH1 0x20 DUP2 DUP4 SUB SUB DUP2 MSTORE SWAP1 PUSH1 0x40 MSTORE PUSH32 0xD0FEBE4C00000000000000000000000000000000000000000000000000000000 PUSH28 0xFFFFFFFFFFFFFFFFFFFFFFFFFFFFFFFFFFFFFFFFFFFFFFFFFFFFFFFF NOT AND PUSH1 0x20 DUP3 ADD DUP1 MLOAD PUSH28 0xFFFFFFFFFFFFFFFFFFFFFFFFFFFFFFFFFFFFFFFFFFFFFFFFFFFFFFFF DUP4 DUP2 DUP4 AND OR DUP4 MSTORE POP POP POP POP PUSH1 0x40 MLOAD PUSH2 0x1647 SWAP2 SWAP1 PUSH2 0x334E JUMP JUMPDEST PUSH0 PUSH1 0x40 MLOAD DUP1 DUP4 SUB DUP2 DUP6 DUP8 GAS CALL SWAP3 POP POP POP RETURNDATASIZE DUP1 PUSH0 DUP2 EQ PUSH2 0x1681 JUMPI PUSH1 0x40 MLOAD SWAP2 POP PUSH1 0x1F NOT PUSH1 0x3F RETURNDATASIZE ADD AND DUP3 ADD PUSH1 0x40 MSTORE RETURNDATASIZE DUP3 MSTORE RETURNDATASIZE PUSH0 PUSH1 0x20 DUP5 ADD RETURNDATACOPY PUSH2 0x1686 JUMP JUMPDEST PUSH1 0x60 SWAP2 POP JUMPDEST POP POP SWAP1 POP PUSH20 0x0 PUSH4 0x767392B3 DUP3 PUSH0 PUSH1 0x40 MLOAD DUP4 PUSH4 0xFFFFFFFF AND PUSH1 0xE0 SHL DUP2 MSTORE PUSH1 0x4 ADD PUSH2 0x16C3 SWAP3 SWAP2 SWAP1 PUSH2 0x33D4 JUMP JUMPDEST PUSH1 0x20 PUSH1 0x40 MLOAD DUP1 DUP4 SUB DUP2 DUP7 GAS DELEGATECALL ISZERO DUP1 ISZERO PUSH2 0x16DE JUMPI RETURNDATASIZE PUSH0 DUP1 RETURNDATACOPY RETURNDATASIZE PUSH0 REVERT JUMPDEST POP POP POP POP PUSH1 0x40 MLOAD RETURNDATASIZE PUSH1 0x1F NOT PUSH1 0x1F DUP3 ADD AND DUP3 ADD DUP1 PUSH1 0x40 MSTORE POP DUP2 ADD SWAP1 PUSH2 0x1702 SWAP2 SWAP1 PUSH2 0x281D JUMP JUMPDEST POP PUSH0 DUP1 PUSH0 SWAP1 SLOAD SWAP1 PUSH2 0x100 EXP SWAP1 DIV PUSH20 0xFFFFFFFFFFFFFFFFFFFFFFFFFFFFFFFFFFFFFFFF AND PUSH20 0xFFFFFFFFFFFFFFFFFFFFFFFFFFFFFFFFFFFFFFFF AND PUSH4 0x70A08231 PUSH1 0x1 PUSH0 SWAP1 SLOAD SWAP1 PUSH2 0x100 EXP SWAP1 DIV PUSH20 0xFFFFFFFFFFFFFFFFFFFFFFFFFFFFFFFFFFFFFFFF AND PUSH1 0x40 MLOAD DUP3 PUSH4 0xFFFFFFFF AND PUSH1 0xE0 SHL DUP2 MSTORE PUSH1 0x4 ADD PUSH2 0x177E SWAP2 SWAP1 PUSH2 0x32E3 JUMP JUMPDEST PUSH1 0x20 PUSH1 0x40 MLOAD DUP1 DUP4 SUB DUP2 DUP7 GAS STATICCALL ISZERO DUP1 ISZERO PUSH2 0x1799 JUMPI RETURNDATASIZE PUSH0 DUP1 RETURNDATACOPY RETURNDATASIZE PUSH0 REVERT JUMPDEST POP POP POP POP PUSH1 0x40 MLOAD RETURNDATASIZE PUSH1 0x1F NOT PUSH1 0x1F DUP3 ADD AND DUP3 ADD DUP1 PUSH1 0x40 MSTORE POP DUP2 ADD SWAP1 PUSH2 0x17BD SWAP2 SWAP1 PUSH2 0x24D2 JUMP JUMPDEST SWAP1 POP PUSH20 0x0 PUSH4 0xABCD7960 DUP5 DUP4 PUSH1 0x40 MLOAD DUP4 PUSH4 0xFFFFFFFF AND PUSH1 0xE0 SHL DUP2 MSTORE PUSH1 0x4 ADD PUSH2 0x17F8 SWAP3 SWAP2 SWAP1 PUSH2 0x347E JUMP JUMPDEST PUSH1 0x20 PUSH1 0x40 MLOAD DUP1 DUP4 SUB DUP2 DUP7 GAS DELEGATECALL ISZERO DUP1 ISZERO PUSH2 0x1813 JUMPI RETURNDATASIZE PUSH0 DUP1 RETURNDATACOPY RETURNDATASIZE PUSH0 REVERT JUMPDEST POP POP POP POP PUSH1 0x40 MLOAD RETURNDATASIZE PUSH1 0x1F NOT PUSH1 0x1F DUP3 ADD AND DUP3 ADD DUP1 PUSH1 0x40 MSTORE POP DUP2 ADD SWAP1 PUSH2 0x1837 SWAP2 SWAP1 PUSH2 0x281D JUMP JUMPDEST POP POP POP POP JUMP JUMPDEST PUSH0 PUSH3 0x69780 PUSH1 0x2 SLOAD PUSH2 0x184F SWAP2 SWAP1 PUSH2 0x28DB JUMP JUMPDEST SWAP1 POP PUSH0 PUSH1 0x4 SWAP1 POP PUSH0 DUP1 SLOAD SWAP1 PUSH2 0x100 EXP SWAP1 DIV PUSH20 0xFFFFFFFFFFFFFFFFFFFFFFFFFFFFFFFFFFFFFFFF AND PUSH20 0xFFFFFFFFFFFFFFFFFFFFFFFFFFFFFFFFFFFFFFFF AND PUSH4 0xF9A81AF7 DUP4 DUP4 PUSH1 0x40 MLOAD DUP4 PUSH4 0xFFFFFFFF AND PUSH1 0xE0 SHL DUP2 MSTORE PUSH1 0x4 ADD PUSH2 0x18B0 SWAP3 SWAP2 SWAP1 PUSH2 0x291D JUMP JUMPDEST PUSH0 PUSH1 0x40 MLOAD DUP1 DUP4 SUB DUP2 PUSH0 DUP8 DUP1 EXTCODESIZE ISZERO DUP1 ISZERO PUSH2 0x18C7 JUMPI PUSH0 DUP1 REVERT JUMPDEST POP GAS CALL ISZERO DUP1 ISZERO PUSH2 0x18D9 JUMPI RETURNDATASIZE PUSH0 DUP1 RETURNDATACOPY RETURNDATASIZE PUSH0 REVERT JUMPDEST POP POP POP POP PUSH0 DUP1 PUSH0 SWAP1 SLOAD SWAP1 PUSH2 0x100 EXP SWAP1 DIV PUSH20 0xFFFFFFFFFFFFFFFFFFFFFFFFFFFFFFFFFFFFFFFF AND PUSH20 0xFFFFFFFFFFFFFFFFFFFFFFFFFFFFFFFFFFFFFFFF AND PUSH4 0x4405DF4A PUSH1 0x40 MLOAD DUP2 PUSH4 0xFFFFFFFF AND PUSH1 0xE0 SHL DUP2 MSTORE PUSH1 0x4 ADD PUSH1 0x20 PUSH1 0x40 MLOAD DUP1 DUP4 SUB DUP2 DUP7 GAS STATICCALL ISZERO DUP1 ISZERO PUSH2 0x1947 JUMPI RETURNDATASIZE PUSH0 DUP1 RETURNDATACOPY RETURNDATASIZE PUSH0 REVERT JUMPDEST POP POP POP POP PUSH1 0x40 MLOAD RETURNDATASIZE PUSH1 0x1F NOT PUSH1 0x1F DUP3 ADD AND DUP3 ADD DUP1 PUSH1 0x40 MSTORE POP DUP2 ADD SWAP1 PUSH2 0x196B SWAP2 SWAP1 PUSH2 0x24D2 JUMP JUMPDEST SWAP1 POP PUSH0 PUSH20 0x0 PUSH4 0xABCD7960 DUP3 DUP5 PUSH1 0x40 MLOAD DUP4 PUSH4 0xFFFFFFFF AND PUSH1 0xE0 SHL DUP2 MSTORE PUSH1 0x4 ADD PUSH2 0x19A7 SWAP3 SWAP2 SWAP1 PUSH2 0x3528 JUMP JUMPDEST PUSH1 0x20 PUSH1 0x40 MLOAD DUP1 DUP4 SUB DUP2 DUP7 GAS DELEGATECALL ISZERO DUP1 ISZERO PUSH2 0x19C2 JUMPI RETURNDATASIZE PUSH0 DUP1 RETURNDATACOPY RETURNDATASIZE PUSH0 REVERT JUMPDEST POP POP POP POP PUSH1 0x40 MLOAD RETURNDATASIZE PUSH1 0x1F NOT PUSH1 0x1F DUP3 ADD AND DUP3 ADD DUP1 PUSH1 0x40 MSTORE POP DUP2 ADD SWAP1 PUSH2 0x19E6 SWAP2 SWAP1 PUSH2 0x281D JUMP JUMPDEST POP POP POP POP POP JUMP JUMPDEST PUSH0 PUSH3 0x1FA400 PUSH1 0x2 SLOAD PUSH2 0x19FF SWAP2 SWAP1 PUSH2 0x28DB JUMP JUMPDEST SWAP1 POP PUSH0 PUSH1 0x4 SWAP1 POP PUSH0 PUSH3 0x93A80 DUP3 PUSH2 0x1A16 SWAP2 SWAP1 PUSH2 0x2704 JUMP JUMPDEST DUP4 PUSH2 0x1A21 SWAP2 SWAP1 PUSH2 0x2DB6 JUMP JUMPDEST SWAP1 POP PUSH0 DUP1 SLOAD SWAP1 PUSH2 0x100 EXP SWAP1 DIV PUSH20 0xFFFFFFFFFFFFFFFFFFFFFFFFFFFFFFFFFFFFFFFF AND PUSH20 0xFFFFFFFFFFFFFFFFFFFFFFFFFFFFFFFFFFFFFFFF AND PUSH4 0xF9A81AF7 DUP5 DUP5 PUSH1 0x40 MLOAD DUP4 PUSH4 0xFFFFFFFF AND PUSH1 0xE0 SHL DUP2 MSTORE PUSH1 0x4 ADD PUSH2 0x1A7D SWAP3 SWAP2 SWAP1 PUSH2 0x291D JUMP JUMPDEST PUSH0 PUSH1 0x40 MLOAD DUP1 DUP4 SUB DUP2 PUSH0 DUP8 DUP1 EXTCODESIZE ISZERO DUP1 ISZERO PUSH2 0x1A94 JUMPI PUSH0 DUP1 REVERT JUMPDEST POP GAS CALL ISZERO DUP1 ISZERO PUSH2 0x1AA6 JUMPI RETURNDATASIZE PUSH0 DUP1 RETURNDATACOPY RETURNDATASIZE PUSH0 REVERT JUMPDEST POP POP POP POP PUSH0 DUP1 PUSH0 SWAP1 SLOAD SWAP1 PUSH2 0x100 EXP SWAP1 DIV PUSH20 0xFFFFFFFFFFFFFFFFFFFFFFFFFFFFFFFFFFFFFFFF AND PUSH20 0xFFFFFFFFFFFFFFFFFFFFFFFFFFFFFFFFFFFFFFFF AND PUSH4 0x1D0806AE PUSH1 0x40 MLOAD DUP2 PUSH4 0xFFFFFFFF AND PUSH1 0xE0 SHL DUP2 MSTORE PUSH1 0x4 ADD PUSH1 0x20 PUSH1 0x40 MLOAD DUP1 DUP4 SUB DUP2 DUP7 GAS STATICCALL ISZERO DUP1 ISZERO PUSH2 0x1B14 JUMPI RETURNDATASIZE PUSH0 DUP1 RETURNDATACOPY RETURNDATASIZE PUSH0 REVERT JUMPDEST POP POP POP POP PUSH1 0x40 MLOAD RETURNDATASIZE PUSH1 0x1F NOT PUSH1 0x1F DUP3 ADD AND DUP3 ADD DUP1 PUSH1 0x40 MSTORE POP DUP2 ADD SWAP1 PUSH2 0x1B38 SWAP2 SWAP1 PUSH2 0x24D2 JUMP JUMPDEST SWAP1 POP PUSH0 DUP1 PUSH0 SWAP1 SLOAD SWAP1 PUSH2 0x100 EXP SWAP1 DIV PUSH20 0xFFFFFFFFFFFFFFFFFFFFFFFFFFFFFFFFFFFFFFFF AND PUSH20 0xFFFFFFFFFFFFFFFFFFFFFFFFFFFFFFFFFFFFFFFF AND PUSH4 0x3E293A3 PUSH1 0x40 MLOAD DUP2 PUSH4 0xFFFFFFFF AND PUSH1 0xE0 SHL DUP2 MSTORE PUSH1 0x4 ADD PUSH1 0x20 PUSH1 0x40 MLOAD DUP1 DUP4 SUB DUP2 DUP7 GAS STATICCALL ISZERO DUP1 ISZERO PUSH2 0x1BA4 JUMPI RETURNDATASIZE PUSH0 DUP1 RETURNDATACOPY RETURNDATASIZE PUSH0 REVERT JUMPDEST POP POP POP POP PUSH1 0x40 MLOAD RETURNDATASIZE PUSH1 0x1F NOT PUSH1 0x1F DUP3 ADD AND DUP3 ADD DUP1 PUSH1 0x40 MSTORE POP DUP2 ADD SWAP1 PUSH2 0x1BC8 SWAP2 SWAP1 PUSH2 0x24D2 JUMP JUMPDEST SWAP1 POP PUSH0 DUP1 PUSH0 SWAP1 SLOAD SWAP1 PUSH2 0x100 EXP SWAP1 DIV PUSH20 0xFFFFFFFFFFFFFFFFFFFFFFFFFFFFFFFFFFFFFFFF AND PUSH20 0xFFFFFFFFFFFFFFFFFFFFFFFFFFFFFFFFFFFFFFFF AND PUSH4 0x6D65AF3 PUSH1 0x40 MLOAD DUP2 PUSH4 0xFFFFFFFF AND PUSH1 0xE0 SHL DUP2 MSTORE PUSH1 0x4 ADD PUSH1 0x20 PUSH1 0x40 MLOAD DUP1 DUP4 SUB DUP2 DUP7 GAS STATICCALL ISZERO DUP1 ISZERO PUSH2 0x1C34 JUMPI RETURNDATASIZE PUSH0 DUP1 RETURNDATACOPY RETURNDATASIZE PUSH0 REVERT JUMPDEST POP POP POP POP PUSH1 0x40 MLOAD RETURNDATASIZE PUSH1 0x1F NOT PUSH1 0x1F DUP3 ADD AND DUP3 ADD DUP1 PUSH1 0x40 MSTORE POP DUP2 ADD SWAP1 PUSH2 0x1C58 SWAP2 SWAP1 PUSH2 0x24D2 JUMP JUMPDEST SWAP1 POP PUSH0 DUP1 PUSH0 SWAP1 SLOAD SWAP1 PUSH2 0x100 EXP SWAP1 DIV PUSH20 0xFFFFFFFFFFFFFFFFFFFFFFFFFFFFFFFFFFFFFFFF AND PUSH20 0xFFFFFFFFFFFFFFFFFFFFFFFFFFFFFFFFFFFFFFFF AND PUSH4 0xCCE29EA7 PUSH1 0x40 MLOAD DUP2 PUSH4 0xFFFFFFFF AND PUSH1 0xE0 SHL DUP2 MSTORE PUSH1 0x4 ADD PUSH1 0x20 PUSH1 0x40 MLOAD DUP1 DUP4 SUB DUP2 DUP7 GAS STATICCALL ISZERO DUP1 ISZERO PUSH2 0x1CC4 JUMPI RETURNDATASIZE PUSH0 DUP1 RETURNDATACOPY RETURNDATASIZE PUSH0 REVERT JUMPDEST POP POP POP POP PUSH1 0x40 MLOAD RETURNDATASIZE PUSH1 0x1F NOT PUSH1 0x1F DUP3 ADD AND DUP3 ADD DUP1 PUSH1 0x40 MSTORE POP DUP2 ADD SWAP1 PUSH2 0x1CE8 SWAP2 SWAP1 PUSH2 0x24D2 JUMP JUMPDEST SWAP1 POP PUSH0 DUP1 PUSH0 SWAP1 SLOAD SWAP1 PUSH2 0x100 EXP SWAP1 DIV PUSH20 0xFFFFFFFFFFFFFFFFFFFFFFFFFFFFFFFFFFFFFFFF AND PUSH20 0xFFFFFFFFFFFFFFFFFFFFFFFFFFFFFFFFFFFFFFFF AND PUSH4 0xF8102E68 PUSH1 0x40 MLOAD DUP2 PUSH4 0xFFFFFFFF AND PUSH1 0xE0 SHL DUP2 MSTORE PUSH1 0x4 ADD PUSH1 0x20 PUSH1 0x40 MLOAD DUP1 DUP4 SUB DUP2 DUP7 GAS STATICCALL ISZERO DUP1 ISZERO PUSH2 0x1D54 JUMPI RETURNDATASIZE PUSH0 DUP1 RETURNDATACOPY RETURNDATASIZE PUSH0 REVERT JUMPDEST POP POP POP POP PUSH1 0x40 MLOAD RETURNDATASIZE PUSH1 0x1F NOT PUSH1 0x1F DUP3 ADD AND DUP3 ADD DUP1 PUSH1 0x40 MSTORE POP DUP2 ADD SWAP1 PUSH2 0x1D78 SWAP2 SWAP1 PUSH2 0x24D2 JUMP JUMPDEST SWAP1 POP PUSH20 0x0 PUSH4 0xABCD7960 DUP10 DUP6 PUSH1 0x40 MLOAD DUP4 PUSH4 0xFFFFFFFF AND PUSH1 0xE0 SHL DUP2 MSTORE PUSH1 0x4 ADD PUSH2 0x1DB3 SWAP3 SWAP2 SWAP1 PUSH2 0x2E59 JUMP JUMPDEST PUSH1 0x20 PUSH1 0x40 MLOAD DUP1 DUP4 SUB DUP2 DUP7 GAS DELEGATECALL ISZERO DUP1 ISZERO PUSH2 0x1DCE JUMPI RETURNDATASIZE PUSH0 DUP1 RETURNDATACOPY RETURNDATASIZE PUSH0 REVERT JUMPDEST POP POP POP POP PUSH1 0x40 MLOAD RETURNDATASIZE PUSH1 0x1F NOT PUSH1 0x1F DUP3 ADD AND DUP3 ADD DUP1 PUSH1 0x40 MSTORE POP DUP2 ADD SWAP1 PUSH2 0x1DF2 SWAP2 SWAP1 PUSH2 0x281D JUMP JUMPDEST POP PUSH20 0x0 PUSH4 0xABCD7960 DUP8 DUP5 PUSH1 0x40 MLOAD DUP4 PUSH4 0xFFFFFFFF AND PUSH1 0xE0 SHL DUP2 MSTORE PUSH1 0x4 ADD PUSH2 0x1E2C SWAP3 SWAP2 SWAP1 PUSH2 0x2EDD JUMP JUMPDEST PUSH1 0x20 PUSH1 0x40 MLOAD DUP1 DUP4 SUB DUP2 DUP7 GAS DELEGATECALL ISZERO DUP1 ISZERO PUSH2 0x1E47 JUMPI RETURNDATASIZE PUSH0 DUP1 RETURNDATACOPY RETURNDATASIZE PUSH0 REVERT JUMPDEST POP POP POP POP PUSH1 0x40 MLOAD RETURNDATASIZE PUSH1 0x1F NOT PUSH1 0x1F DUP3 ADD AND DUP3 ADD DUP1 PUSH1 0x40 MSTORE POP DUP2 ADD SWAP1 PUSH2 0x1E6B SWAP2 SWAP1 PUSH2 0x281D JUMP JUMPDEST POP PUSH20 0x0 PUSH4 0xABCD7960 DUP7 PUSH7 0x38D7EA4C68000 PUSH1 0x40 MLOAD DUP4 PUSH4 0xFFFFFFFF AND PUSH1 0xE0 SHL DUP2 MSTORE PUSH1 0x4 ADD PUSH2 0x1EAC SWAP3 SWAP2 SWAP1 PUSH2 0x2F70 JUMP JUMPDEST PUSH1 0x20 PUSH1 0x40 MLOAD DUP1 DUP4 SUB DUP2 DUP7 GAS DELEGATECALL ISZERO DUP1 ISZERO PUSH2 0x1EC7 JUMPI RETURNDATASIZE PUSH0 DUP1 RETURNDATACOPY RETURNDATASIZE PUSH0 REVERT JUMPDEST POP POP POP POP PUSH1 0x40 MLOAD RETURNDATASIZE PUSH1 0x1F NOT PUSH1 0x1F DUP3 ADD AND DUP3 ADD DUP1 PUSH1 0x40 MSTORE POP DUP2 ADD SWAP1 PUSH2 0x1EEB SWAP2 SWAP1 PUSH2 0x281D JUMP JUMPDEST POP PUSH20 0x0 PUSH4 0xABCD7960 DUP6 PUSH7 0x71AFD498D0000 PUSH1 0x40 MLOAD DUP4 PUSH4 0xFFFFFFFF AND PUSH1 0xE0 SHL DUP2 MSTORE PUSH1 0x4 ADD PUSH2 0x1F2C SWAP3 SWAP2 SWAP1 PUSH2 0x3003 JUMP JUMPDEST PUSH1 0x20 PUSH1 0x40 MLOAD DUP1 DUP4 SUB DUP2 DUP7 GAS DELEGATECALL ISZERO DUP1 ISZERO PUSH2 0x1F47 JUMPI RETURNDATASIZE PUSH0 DUP1 RETURNDATACOPY RETURNDATASIZE PUSH0 REVERT JUMPDEST POP POP POP POP PUSH1 0x40 MLOAD RETURNDATASIZE PUSH1 0x1F NOT PUSH1 0x1F DUP3 ADD AND DUP3 ADD DUP1 PUSH1 0x40 MSTORE POP DUP2 ADD SWAP1 PUSH2 0x1F6B SWAP2 SWAP1 PUSH2 0x281D JUMP JUMPDEST POP PUSH20 0x0 PUSH4 0xABCD7960 DUP3 DUP10 PUSH1 0x40 MLOAD DUP4 PUSH4 0xFFFFFFFF AND PUSH1 0xE0 SHL DUP2 MSTORE PUSH1 0x4 ADD PUSH2 0x1FA5 SWAP3 SWAP2 SWAP1 PUSH2 0x3087 JUMP JUMPDEST PUSH1 0x20 PUSH1 0x40 MLOAD DUP1 DUP4 SUB DUP2 DUP7 GAS DELEGATECALL ISZERO DUP1 ISZERO PUSH2 0x1FC0 JUMPI RETURNDATASIZE PUSH0 DUP1 RETURNDATACOPY RETURNDATASIZE PUSH0 REVERT JUMPDEST POP POP POP POP PUSH1 0x40 MLOAD RETURNDATASIZE PUSH1 0x1F NOT PUSH1 0x1F DUP3 ADD AND DUP3 ADD DUP1 PUSH1 0x40 MSTORE POP DUP2 ADD SWAP1 PUSH2 0x1FE4 SWAP2 SWAP1 PUSH2 0x281D JUMP JUMPDEST POP PUSH0 DUP1 PUSH0 SWAP1 SLOAD SWAP1 PUSH2 0x100 EXP SWAP1 DIV PUSH20 0xFFFFFFFFFFFFFFFFFFFFFFFFFFFFFFFFFFFFFFFF AND PUSH20 0xFFFFFFFFFFFFFFFFFFFFFFFFFFFFFFFFFFFFFFFF AND PUSH4 0x2C663960 DUP11 PUSH1 0x2 SLOAD PUSH1 0x40 MLOAD DUP4 PUSH4 0xFFFFFFFF AND PUSH1 0xE0 SHL DUP2 MSTORE PUSH1 0x4 ADD PUSH2 0x2043 SWAP3 SWAP2 SWAP1 PUSH2 0x291D JUMP JUMPDEST PUSH1 0x20 PUSH1 0x40 MLOAD DUP1 DUP4 SUB DUP2 DUP7 GAS STATICCALL ISZERO DUP1 ISZERO PUSH2 0x205E JUMPI RETURNDATASIZE PUSH0 DUP1 RETURNDATACOPY RETURNDATASIZE PUSH0 REVERT JUMPDEST POP POP POP POP PUSH1 0x40 MLOAD RETURNDATASIZE PUSH1 0x1F NOT PUSH1 0x1F DUP3 ADD AND DUP3 ADD DUP1 PUSH1 0x40 MSTORE POP DUP2 ADD SWAP1 PUSH2 0x2082 SWAP2 SWAP1 PUSH2 0x24D2 JUMP JUMPDEST SWAP1 POP PUSH20 0x0 PUSH4 0xABCD7960 DUP3 PUSH1 0x3 PUSH1 0x40 MLOAD DUP4 PUSH4 0xFFFFFFFF AND PUSH1 0xE0 SHL DUP2 MSTORE PUSH1 0x4 ADD PUSH2 0x20BE SWAP3 SWAP2 SWAP1 PUSH2 0x359B JUMP JUMPDEST PUSH1 0x20 PUSH1 0x40 MLOAD DUP1 DUP4 SUB DUP2 DUP7 GAS DELEGATECALL ISZERO DUP1 ISZERO PUSH2 0x20D9 JUMPI RETURNDATASIZE PUSH0 DUP1 RETURNDATACOPY RETURNDATASIZE PUSH0 REVERT JUMPDEST POP POP POP POP PUSH1 0x40 MLOAD RETURNDATASIZE PUSH1 0x1F NOT PUSH1 0x1F DUP3 ADD AND DUP3 ADD DUP1 PUSH1 0x40 MSTORE POP DUP2 ADD SWAP1 PUSH2 0x20FD SWAP2 SWAP1 PUSH2 0x281D JUMP JUMPDEST POP PUSH0 DUP2 DUP10 DUP9 DUP9 PUSH2 0x210D SWAP2 SWAP1 PUSH2 0x28DB JUMP JUMPDEST PUSH2 0x2117 SWAP2 SWAP1 PUSH2 0x31AB JUMP JUMPDEST PUSH2 0x2121 SWAP2 SWAP1 PUSH2 0x2704 JUMP JUMPDEST SWAP1 POP PUSH0 DUP1 PUSH0 SWAP1 SLOAD SWAP1 PUSH2 0x100 EXP SWAP1 DIV PUSH20 0xFFFFFFFFFFFFFFFFFFFFFFFFFFFFFFFFFFFFFFFF AND PUSH20 0xFFFFFFFFFFFFFFFFFFFFFFFFFFFFFFFFFFFFFFFF AND PUSH4 0x4405DF4A PUSH1 0x40 MLOAD DUP2 PUSH4 0xFFFFFFFF AND PUSH1 0xE0 SHL DUP2 MSTORE PUSH1 0x4 ADD PUSH1 0x20 PUSH1 0x40 MLOAD DUP1 DUP4 SUB DUP2 DUP7 GAS STATICCALL ISZERO DUP1 ISZERO PUSH2 0x218D JUMPI RETURNDATASIZE PUSH0 DUP1 RETURNDATACOPY RETURNDATASIZE PUSH0 REVERT JUMPDEST POP POP POP POP PUSH1 0x40 MLOAD RETURNDATASIZE PUSH1 0x1F NOT PUSH1 0x1F DUP3 ADD AND DUP3 ADD DUP1 PUSH1 0x40 MSTORE POP DUP2 ADD SWAP1 PUSH2 0x21B1 SWAP2 SWAP1 PUSH2 0x24D2 JUMP JUMPDEST SWAP1 POP PUSH20 0x0 PUSH4 0xABCD7960 DUP4 DUP4 PUSH1 0x40 MLOAD DUP4 PUSH4 0xFFFFFFFF AND PUSH1 0xE0 SHL DUP2 MSTORE PUSH1 0x4 ADD PUSH2 0x21EC SWAP3 SWAP2 SWAP1 PUSH2 0x3225 JUMP JUMPDEST PUSH1 0x20 PUSH1 0x40 MLOAD DUP1 DUP4 SUB DUP2 DUP7 GAS DELEGATECALL ISZERO DUP1 ISZERO PUSH2 0x2207 JUMPI RETURNDATASIZE PUSH0 DUP1 RETURNDATACOPY RETURNDATASIZE PUSH0 REVERT JUMPDEST POP POP POP POP PUSH1 0x40 MLOAD RETURNDATASIZE PUSH1 0x1F NOT PUSH1 0x1F DUP3 ADD AND DUP3 ADD DUP1 PUSH1 0x40 MSTORE POP DUP2 ADD SWAP1 PUSH2 0x222B SWAP2 SWAP1 PUSH2 0x281D JUMP JUMPDEST POP PUSH0 DUP1 PUSH0 SWAP1 SLOAD SWAP1 PUSH2 0x100 EXP SWAP1 DIV PUSH20 0xFFFFFFFFFFFFFFFFFFFFFFFFFFFFFFFFFFFFFFFF AND PUSH20 0xFFFFFFFFFFFFFFFFFFFFFFFFFFFFFFFFFFFFFFFF AND PUSH4 0xD348B409 PUSH1 0x40 MLOAD DUP2 PUSH4 0xFFFFFFFF AND PUSH1 0xE0 SHL DUP2 MSTORE PUSH1 0x4 ADD PUSH1 0x20 PUSH1 0x40 MLOAD DUP1 DUP4 SUB DUP2 DUP7 GAS STATICCALL ISZERO DUP1 ISZERO PUSH2 0x2296 JUMPI RETURNDATASIZE PUSH0 DUP1 RETURNDATACOPY RETURNDATASIZE PUSH0 REVERT JUMPDEST POP POP POP POP PUSH1 0x40 MLOAD RETURNDATASIZE PUSH1 0x1F NOT PUSH1 0x1F DUP3 ADD AND DUP3 ADD DUP1 PUSH1 0x40 MSTORE POP DUP2 ADD SWAP1 PUSH2 0x22BA SWAP2 SWAP1 PUSH2 0x24D2 JUMP JUMPDEST SWAP1 POP PUSH0 DUP4 DUP11 PUSH2 0x22C9 SWAP2 SWAP1 PUSH2 0x2DB6 JUMP JUMPDEST SWAP1 POP PUSH20 0x0 PUSH4 0xABCD7960 DUP3 DUP5 PUSH1 0x40 MLOAD DUP4 PUSH4 0xFFFFFFFF AND PUSH1 0xE0 SHL DUP2 MSTORE PUSH1 0x4 ADD PUSH2 0x2304 SWAP3 SWAP2 SWAP1 PUSH2 0x32A9 JUMP JUMPDEST PUSH1 0x20 PUSH1 0x40 MLOAD DUP1 DUP4 SUB DUP2 DUP7 GAS DELEGATECALL ISZERO DUP1 ISZERO PUSH2 0x231F JUMPI RETURNDATASIZE PUSH0 DUP1 RETURNDATACOPY RETURNDATASIZE PUSH0 REVERT JUMPDEST POP POP POP POP PUSH1 0x40 MLOAD RETURNDATASIZE PUSH1 0x1F NOT PUSH1 0x1F DUP3 ADD AND DUP3 ADD DUP1 PUSH1 0x40 MSTORE POP DUP2 ADD SWAP1 PUSH2 0x2343 SWAP2 SWAP1 PUSH2 0x281D JUMP JUMPDEST POP POP POP POP POP POP POP POP POP POP POP POP POP POP JUMP JUMPDEST PUSH0 PUSH3 0x127500 PUSH1 0x2 SLOAD PUSH2 0x2365 SWAP2 SWAP1 PUSH2 0x28DB JUMP JUMPDEST SWAP1 POP PUSH0 PUSH1 0x2 SLOAD SWAP1 POP PUSH0 DUP1 PUSH0 SWAP1 SLOAD SWAP1 PUSH2 0x100 EXP SWAP1 DIV PUSH20 0xFFFFFFFFFFFFFFFFFFFFFFFFFFFFFFFFFFFFFFFF AND PUSH20 0xFFFFFFFFFFFFFFFFFFFFFFFFFFFFFFFFFFFFFFFF AND PUSH4 0x2C663960 DUP5 DUP5 PUSH1 0x40 MLOAD DUP4 PUSH4 0xFFFFFFFF AND PUSH1 0xE0 SHL DUP2 MSTORE PUSH1 0x4 ADD PUSH2 0x23C9 SWAP3 SWAP2 SWAP1 PUSH2 0x291D JUMP JUMPDEST PUSH1 0x20 PUSH1 0x40 MLOAD DUP1 DUP4 SUB DUP2 DUP7 GAS STATICCALL ISZERO DUP1 ISZERO PUSH2 0x23E4 JUMPI RETURNDATASIZE PUSH0 DUP1 RETURNDATACOPY RETURNDATASIZE PUSH0 REVERT JUMPDEST POP POP POP POP PUSH1 0x40 MLOAD RETURNDATASIZE PUSH1 0x1F NOT PUSH1 0x1F DUP3 ADD AND DUP3 ADD DUP1 PUSH1 0x40 MSTORE POP DUP2 ADD SWAP1 PUSH2 0x2408 SWAP2 SWAP1 PUSH2 0x24D2 JUMP JUMPDEST SWAP1 POP PUSH0 PUSH1 0x2 SWAP1 POP PUSH20 0x0 PUSH4 0xABCD7960 DUP4 DUP4 PUSH1 0x40 MLOAD DUP4 PUSH4 0xFFFFFFFF AND PUSH1 0xE0 SHL DUP2 MSTORE PUSH1 0x4 ADD PUSH2 0x2448 SWAP3 SWAP2 SWAP1 PUSH2 0x29B4 JUMP JUMPDEST PUSH1 0x20 PUSH1 0x40 MLOAD DUP1 DUP4 SUB DUP2 DUP7 GAS DELEGATECALL ISZERO DUP1 ISZERO PUSH2 0x2463 JUMPI RETURNDATASIZE PUSH0 DUP1 RETURNDATACOPY RETURNDATASIZE PUSH0 REVERT JUMPDEST POP POP POP POP PUSH1 0x40 MLOAD RETURNDATASIZE PUSH1 0x1F NOT PUSH1 0x1F DUP3 ADD AND DUP3 ADD DUP1 PUSH1 0x40 MSTORE POP DUP2 ADD SWAP1 PUSH2 0x2487 SWAP2 SWAP1 PUSH2 0x281D JUMP JUMPDEST POP POP POP POP POP JUMP JUMPDEST PUSH2 0x38FE DUP1 PUSH2 0x35D6 DUP4 CODECOPY ADD SWAP1 JUMP JUMPDEST PUSH0 DUP1 REVERT JUMPDEST PUSH0 DUP2 SWAP1 POP SWAP2 SWAP1 POP JUMP JUMPDEST PUSH2 0x24B1 DUP2 PUSH2 0x249F JUMP JUMPDEST DUP2 EQ PUSH2 0x24BB JUMPI PUSH0 DUP1 REVERT JUMPDEST POP JUMP JUMPDEST PUSH0 DUP2 MLOAD SWAP1 POP PUSH2 0x24CC DUP2 PUSH2 0x24A8 JUMP JUMPDEST SWAP3 SWAP2 POP POP JUMP JUMPDEST PUSH0 PUSH1 0x20 DUP3 DUP5 SUB SLT ISZERO PUSH2 0x24E7 JUMPI PUSH2 0x24E6 PUSH2 0x249B JUMP JUMPDEST JUMPDEST PUSH0 PUSH2 0x24F4 DUP5 DUP3 DUP6 ADD PUSH2 0x24BE JUMP JUMPDEST SWAP2 POP POP SWAP3 SWAP2 POP POP JUMP JUMPDEST PUSH0 PUSH1 0xFF DUP3 AND SWAP1 POP SWAP2 SWAP1 POP JUMP JUMPDEST PUSH2 0x2512 DUP2 PUSH2 0x24FD JUMP JUMPDEST DUP2 EQ PUSH2 0x251C JUMPI PUSH0 DUP1 REVERT JUMPDEST POP JUMP JUMPDEST PUSH0 DUP2 MLOAD SWAP1 POP PUSH2 0x252D DUP2 PUSH2 0x2509 JUMP JUMPDEST SWAP3 SWAP2 POP POP JUMP JUMPDEST PUSH0 PUSH1 0x20 DUP3 DUP5 SUB SLT ISZERO PUSH2 0x2548 JUMPI PUSH2 0x2547 PUSH2 0x249B JUMP JUMPDEST JUMPDEST PUSH0 PUSH2 0x2555 DUP5 DUP3 DUP6 ADD PUSH2 0x251F JUMP JUMPDEST SWAP2 POP POP SWAP3 SWAP2 POP POP JUMP JUMPDEST PUSH32 0x4E487B7100000000000000000000000000000000000000000000000000000000 PUSH0 MSTORE PUSH1 0x11 PUSH1 0x4 MSTORE PUSH1 0x24 PUSH0 REVERT JUMPDEST PUSH0 DUP2 PUSH1 0x1 SHR SWAP1 POP SWAP2 SWAP1 POP JUMP JUMPDEST PUSH0 DUP1 DUP3 SWAP2 POP DUP4 SWAP1 POP JUMPDEST PUSH1 0x1 DUP6 GT ISZERO PUSH2 0x25E0 JUMPI DUP1 DUP7 DIV DUP2 GT ISZERO PUSH2 0x25BC JUMPI PUSH2 0x25BB PUSH2 0x255E JUMP JUMPDEST JUMPDEST PUSH1 0x1 DUP6 AND ISZERO PUSH2 0x25CB JUMPI DUP1 DUP3 MUL SWAP2 POP JUMPDEST DUP1 DUP2 MUL SWAP1 POP PUSH2 0x25D9 DUP6 PUSH2 0x258B JUMP JUMPDEST SWAP5 POP PUSH2 0x25A0 JUMP JUMPDEST SWAP5 POP SWAP5 SWAP3 POP POP POP JUMP JUMPDEST PUSH0 DUP3 PUSH2 0x25F8 JUMPI PUSH1 0x1 SWAP1 POP PUSH2 0x26B3 JUMP JUMPDEST DUP2 PUSH2 0x2605 JUMPI PUSH0 SWAP1 POP PUSH2 0x26B3 JUMP JUMPDEST DUP2 PUSH1 0x1 DUP2 EQ PUSH2 0x261B JUMPI PUSH1 0x2 DUP2 EQ PUSH2 0x2625 JUMPI PUSH2 0x2654 JUMP JUMPDEST PUSH1 0x1 SWAP2 POP POP PUSH2 0x26B3 JUMP JUMPDEST PUSH1 0xFF DUP5 GT ISZERO PUSH2 0x2637 JUMPI PUSH2 0x2636 PUSH2 0x255E JUMP JUMPDEST JUMPDEST DUP4 PUSH1 0x2 EXP SWAP2 POP DUP5 DUP3 GT ISZERO PUSH2 0x264E JUMPI PUSH2 0x264D PUSH2 0x255E JUMP JUMPDEST JUMPDEST POP PUSH2 0x26B3 JUMP JUMPDEST POP PUSH1 0x20 DUP4 LT PUSH2 0x133 DUP4 LT AND PUSH1 0x4E DUP5 LT PUSH1 0xB DUP5 LT AND OR ISZERO PUSH2 0x2689 JUMPI DUP3 DUP3 EXP SWAP1 POP DUP4 DUP2 GT ISZERO PUSH2 0x2684 JUMPI PUSH2 0x2683 PUSH2 0x255E JUMP JUMPDEST JUMPDEST PUSH2 0x26B3 JUMP JUMPDEST PUSH2 0x2696 DUP5 DUP5 DUP5 PUSH1 0x1 PUSH2 0x2597 JUMP JUMPDEST SWAP3 POP SWAP1 POP DUP2 DUP5 DIV DUP2 GT ISZERO PUSH2 0x26AD JUMPI PUSH2 0x26AC PUSH2 0x255E JUMP JUMPDEST JUMPDEST DUP2 DUP2 MUL SWAP1 POP JUMPDEST SWAP4 SWAP3 POP POP POP JUMP JUMPDEST PUSH0 PUSH2 0x26C4 DUP3 PUSH2 0x249F JUMP JUMPDEST SWAP2 POP PUSH2 0x26CF DUP4 PUSH2 0x24FD JUMP JUMPDEST SWAP3 POP PUSH2 0x26FC PUSH32 0xFFFFFFFFFFFFFFFFFFFFFFFFFFFFFFFFFFFFFFFFFFFFFFFFFFFFFFFFFFFFFFFF DUP5 DUP5 PUSH2 0x25E9 JUMP JUMPDEST SWAP1 POP SWAP3 SWAP2 POP POP JUMP JUMPDEST PUSH0 PUSH2 0x270E DUP3 PUSH2 0x249F JUMP JUMPDEST SWAP2 POP PUSH2 0x2719 DUP4 PUSH2 0x249F JUMP JUMPDEST SWAP3 POP DUP3 DUP3 MUL PUSH2 0x2727 DUP2 PUSH2 0x249F JUMP JUMPDEST SWAP2 POP DUP3 DUP3 DIV DUP5 EQ DUP4 ISZERO OR PUSH2 0x273E JUMPI PUSH2 0x273D PUSH2 0x255E JUMP JUMPDEST JUMPDEST POP SWAP3 SWAP2 POP POP JUMP JUMPDEST PUSH2 0x274E DUP2 PUSH2 0x249F JUMP JUMPDEST DUP3 MSTORE POP POP JUMP JUMPDEST PUSH0 DUP3 DUP3 MSTORE PUSH1 0x20 DUP3 ADD SWAP1 POP SWAP3 SWAP2 POP POP JUMP JUMPDEST PUSH32 0x546F74616C20737570706C792073686F756C64206D6174636800000000000000 PUSH0 DUP3 ADD MSTORE POP JUMP JUMPDEST PUSH0 PUSH2 0x2798 PUSH1 0x19 DUP4 PUSH2 0x2754 JUMP JUMPDEST SWAP2 POP PUSH2 0x27A3 DUP3 PUSH2 0x2764 JUMP JUMPDEST PUSH1 0x20 DUP3 ADD SWAP1 POP SWAP2 SWAP1 POP JUMP JUMPDEST PUSH0 PUSH1 0x60 DUP3 ADD SWAP1 POP PUSH2 0x27C1 PUSH0 DUP4 ADD DUP6 PUSH2 0x2745 JUMP JUMPDEST PUSH2 0x27CE PUSH1 0x20 DUP4 ADD DUP5 PUSH2 0x2745 JUMP JUMPDEST DUP2 DUP2 SUB PUSH1 0x40 DUP4 ADD MSTORE PUSH2 0x27DF DUP2 PUSH2 0x278C JUMP JUMPDEST SWAP1 POP SWAP4 SWAP3 POP POP POP JUMP JUMPDEST PUSH0 DUP2 ISZERO ISZERO SWAP1 POP SWAP2 SWAP1 POP JUMP JUMPDEST PUSH2 0x27FC DUP2 PUSH2 0x27E8 JUMP JUMPDEST DUP2 EQ PUSH2 0x2806 JUMPI PUSH0 DUP1 REVERT JUMPDEST POP JUMP JUMPDEST PUSH0 DUP2 MLOAD SWAP1 POP PUSH2 0x2817 DUP2 PUSH2 0x27F3 JUMP JUMPDEST SWAP3 SWAP2 POP POP JUMP JUMPDEST PUSH0 PUSH1 0x20 DUP3 DUP5 SUB SLT ISZERO PUSH2 0x2832 JUMPI PUSH2 0x2831 PUSH2 0x249B JUMP JUMPDEST JUMPDEST PUSH0 PUSH2 0x283F DUP5 DUP3 DUP6 ADD PUSH2 0x2809 JUMP JUMPDEST SWAP2 POP POP SWAP3 SWAP2 POP POP JUMP JUMPDEST PUSH2 0x2851 DUP2 PUSH2 0x27E8 JUMP JUMPDEST DUP3 MSTORE POP POP JUMP JUMPDEST PUSH32 0x50726573616C652073686F756C64206265206163746976650000000000000000 PUSH0 DUP3 ADD MSTORE POP JUMP JUMPDEST PUSH0 PUSH2 0x288B PUSH1 0x18 DUP4 PUSH2 0x2754 JUMP JUMPDEST SWAP2 POP PUSH2 0x2896 DUP3 PUSH2 0x2857 JUMP JUMPDEST PUSH1 0x20 DUP3 ADD SWAP1 POP SWAP2 SWAP1 POP JUMP JUMPDEST PUSH0 PUSH1 0x60 DUP3 ADD SWAP1 POP PUSH2 0x28B4 PUSH0 DUP4 ADD DUP6 PUSH2 0x2848 JUMP JUMPDEST PUSH2 0x28C1 PUSH1 0x20 DUP4 ADD DUP5 PUSH2 0x2848 JUMP JUMPDEST DUP2 DUP2 SUB PUSH1 0x40 DUP4 ADD MSTORE PUSH2 0x28D2 DUP2 PUSH2 0x287F JUMP JUMPDEST SWAP1 POP SWAP4 SWAP3 POP POP POP JUMP JUMPDEST PUSH0 PUSH2 0x28E5 DUP3 PUSH2 0x249F JUMP JUMPDEST SWAP2 POP PUSH2 0x28F0 DUP4 PUSH2 0x249F JUMP JUMPDEST SWAP3 POP DUP3 DUP3 SUB SWAP1 POP DUP2 DUP2 GT ISZERO PUSH2 0x2908 JUMPI PUSH2 0x2907 PUSH2 0x255E JUMP JUMPDEST JUMPDEST SWAP3 SWAP2 POP POP JUMP JUMPDEST PUSH2 0x2917 DUP2 PUSH2 0x249F JUMP JUMPDEST DUP3 MSTORE POP POP JUMP JUMPDEST PUSH0 PUSH1 0x40 DUP3 ADD SWAP1 POP PUSH2 0x2930 PUSH0 DUP4 ADD DUP6 PUSH2 0x290E JUMP JUMPDEST PUSH2 0x293D PUSH1 0x20 DUP4 ADD DUP5 PUSH2 0x290E JUMP JUMPDEST SWAP4 SWAP3 POP POP POP JUMP JUMPDEST PUSH32 0x5468652063616C63756C61746564207765656B732073686F756C642062652032 PUSH0 DUP3 ADD MSTORE PUSH32 0x2E00000000000000000000000000000000000000000000000000000000000000 PUSH1 0x20 DUP3 ADD MSTORE POP JUMP JUMPDEST PUSH0 PUSH2 0x299E PUSH1 0x21 DUP4 PUSH2 0x2754 JUMP JUMPDEST SWAP2 POP PUSH2 0x29A9 DUP3 PUSH2 0x2944 JUMP JUMPDEST PUSH1 0x40 DUP3 ADD SWAP1 POP SWAP2 SWAP1 POP JUMP JUMPDEST PUSH0 PUSH1 0x60 DUP3 ADD SWAP1 POP PUSH2 0x29C7 PUSH0 DUP4 ADD DUP6 PUSH2 0x2745 JUMP JUMPDEST PUSH2 0x29D4 PUSH1 0x20 DUP4 ADD DUP5 PUSH2 0x2745 JUMP JUMPDEST DUP2 DUP2 SUB PUSH1 0x40 DUP4 ADD MSTORE PUSH2 0x29E5 DUP2 PUSH2 0x2992 JUMP JUMPDEST SWAP1 POP SWAP4 SWAP3 POP POP POP JUMP JUMPDEST PUSH32 0x5468652063616C63756C61746564207765656B732073686F756C642062652031 PUSH0 DUP3 ADD MSTORE PUSH32 0x2E00000000000000000000000000000000000000000000000000000000000000 PUSH1 0x20 DUP3 ADD MSTORE POP JUMP JUMPDEST PUSH0 PUSH2 0x2A48 PUSH1 0x21 DUP4 PUSH2 0x2754 JUMP JUMPDEST SWAP2 POP PUSH2 0x2A53 DUP3 PUSH2 0x29EE JUMP JUMPDEST PUSH1 0x40 DUP3 ADD SWAP1 POP SWAP2 SWAP1 POP JUMP JUMPDEST PUSH0 PUSH1 0x60 DUP3 ADD SWAP1 POP PUSH2 0x2A71 PUSH0 DUP4 ADD DUP6 PUSH2 0x2745 JUMP JUMPDEST PUSH2 0x2A7E PUSH1 0x20 DUP4 ADD DUP5 PUSH2 0x2745 JUMP JUMPDEST DUP2 DUP2 SUB PUSH1 0x40 DUP4 ADD MSTORE PUSH2 0x2A8F DUP2 PUSH2 0x2A3C JUMP JUMPDEST SWAP1 POP SWAP4 SWAP3 POP POP POP JUMP JUMPDEST PUSH0 PUSH20 0xFFFFFFFFFFFFFFFFFFFFFFFFFFFFFFFFFFFFFFFF DUP3 AND SWAP1 POP SWAP2 SWAP1 POP JUMP JUMPDEST PUSH0 PUSH2 0x2AC1 DUP3 PUSH2 0x2A98 JUMP JUMPDEST SWAP1 POP SWAP2 SWAP1 POP JUMP JUMPDEST PUSH2 0x2AD1 DUP2 PUSH2 0x2AB7 JUMP JUMPDEST DUP3 MSTORE POP POP JUMP JUMPDEST PUSH0 DUP2 SWAP1 POP SWAP2 SWAP1 POP JUMP JUMPDEST PUSH0 DUP2 SWAP1 POP SWAP2 SWAP1 POP JUMP JUMPDEST PUSH0 PUSH2 0x2B03 PUSH2 0x2AFE PUSH2 0x2AF9 DUP5 PUSH2 0x2AD7 JUMP JUMPDEST PUSH2 0x2AE0 JUMP JUMPDEST PUSH2 0x249F JUMP JUMPDEST SWAP1 POP SWAP2 SWAP1 POP JUMP JUMPDEST PUSH2 0x2B13 DUP2 PUSH2 0x2AE9 JUMP JUMPDEST DUP3 MSTORE POP POP JUMP JUMPDEST PUSH0 DUP2 SWAP1 POP SWAP2 SWAP1 POP JUMP JUMPDEST PUSH0 PUSH2 0x2B3C PUSH2 0x2B37 PUSH2 0x2B32 DUP5 PUSH2 0x2B19 JUMP JUMPDEST PUSH2 0x2AE0 JUMP JUMPDEST PUSH2 0x249F JUMP JUMPDEST SWAP1 POP SWAP2 SWAP1 POP JUMP JUMPDEST PUSH2 0x2B4C DUP2 PUSH2 0x2B22 JUMP JUMPDEST DUP3 MSTORE POP POP JUMP JUMPDEST PUSH0 DUP2 SWAP1 POP SWAP2 SWAP1 POP JUMP JUMPDEST PUSH0 PUSH2 0x2B75 PUSH2 0x2B70 PUSH2 0x2B6B DUP5 PUSH2 0x2B52 JUMP JUMPDEST PUSH2 0x2AE0 JUMP JUMPDEST PUSH2 0x249F JUMP JUMPDEST SWAP1 POP SWAP2 SWAP1 POP JUMP JUMPDEST PUSH2 0x2B85 DUP2 PUSH2 0x2B5B JUMP JUMPDEST DUP3 MSTORE POP POP JUMP JUMPDEST PUSH0 DUP2 SWAP1 POP SWAP2 SWAP1 POP JUMP JUMPDEST PUSH0 PUSH2 0x2BAE PUSH2 0x2BA9 PUSH2 0x2BA4 DUP5 PUSH2 0x2B8B JUMP JUMPDEST PUSH2 0x2AE0 JUMP JUMPDEST PUSH2 0x249F JUMP JUMPDEST SWAP1 POP SWAP2 SWAP1 POP JUMP JUMPDEST PUSH2 0x2BBE DUP2 PUSH2 0x2B94 JUMP JUMPDEST DUP3 MSTORE POP POP JUMP JUMPDEST PUSH0 DUP2 SWAP1 POP SWAP2 SWAP1 POP JUMP JUMPDEST PUSH0 PUSH2 0x2BE7 PUSH2 0x2BE2 PUSH2 0x2BDD DUP5 PUSH2 0x2BC4 JUMP JUMPDEST PUSH2 0x2AE0 JUMP JUMPDEST PUSH2 0x249F JUMP JUMPDEST SWAP1 POP SWAP2 SWAP1 POP JUMP JUMPDEST PUSH2 0x2BF7 DUP2 PUSH2 0x2BCD JUMP JUMPDEST DUP3 MSTORE POP POP JUMP JUMPDEST PUSH0 PUSH1 0xC0 DUP3 ADD SWAP1 POP PUSH2 0x2C10 PUSH0 DUP4 ADD DUP10 PUSH2 0x2AC8 JUMP JUMPDEST PUSH2 0x2C1D PUSH1 0x20 DUP4 ADD DUP9 PUSH2 0x2B0A JUMP JUMPDEST PUSH2 0x2C2A PUSH1 0x40 DUP4 ADD DUP8 PUSH2 0x2B43 JUMP JUMPDEST PUSH2 0x2C37 PUSH1 0x60 DUP4 ADD DUP7 PUSH2 0x2B7C JUMP JUMPDEST PUSH2 0x2C44 PUSH1 0x80 DUP4 ADD DUP6 PUSH2 0x2BB5 JUMP JUMPDEST PUSH2 0x2C51 PUSH1 0xA0 DUP4 ADD DUP5 PUSH2 0x2BEE JUMP JUMPDEST SWAP8 SWAP7 POP POP POP POP POP POP POP JUMP JUMPDEST PUSH32 0x312073686F756C6420626520657175616C20746F203100000000000000000000 PUSH0 DUP3 ADD MSTORE POP JUMP JUMPDEST PUSH0 PUSH2 0x2C90 PUSH1 0x16 DUP4 PUSH2 0x2754 JUMP JUMPDEST SWAP2 POP PUSH2 0x2C9B DUP3 PUSH2 0x2C5C JUMP JUMPDEST PUSH1 0x20 DUP3 ADD SWAP1 POP SWAP2 SWAP1 POP JUMP JUMPDEST PUSH0 PUSH1 0x60 DUP3 ADD SWAP1 POP PUSH2 0x2CB9 PUSH0 DUP4 ADD DUP6 PUSH2 0x2745 JUMP JUMPDEST PUSH2 0x2CC6 PUSH1 0x20 DUP4 ADD DUP5 PUSH2 0x2745 JUMP JUMPDEST DUP2 DUP2 SUB PUSH1 0x40 DUP4 ADD MSTORE PUSH2 0x2CD7 DUP2 PUSH2 0x2C84 JUMP JUMPDEST SWAP1 POP SWAP4 SWAP3 POP POP POP JUMP JUMPDEST PUSH0 DUP2 SWAP1 POP SWAP2 SWAP1 POP JUMP JUMPDEST PUSH0 PUSH2 0x2D03 PUSH2 0x2CFE PUSH2 0x2CF9 DUP5 PUSH2 0x2CE0 JUMP JUMPDEST PUSH2 0x2AE0 JUMP JUMPDEST PUSH2 0x249F JUMP JUMPDEST SWAP1 POP SWAP2 SWAP1 POP JUMP JUMPDEST PUSH2 0x2D13 DUP2 PUSH2 0x2CE9 JUMP JUMPDEST DUP3 MSTORE POP POP JUMP JUMPDEST PUSH0 PUSH1 0x20 DUP3 ADD SWAP1 POP PUSH2 0x2D2C PUSH0 DUP4 ADD DUP5 PUSH2 0x2D0A JUMP JUMPDEST SWAP3 SWAP2 POP POP JUMP JUMPDEST PUSH32 0x42616C616E6365732073686F756C642062652031300000000000000000000000 PUSH0 DUP3 ADD MSTORE POP JUMP JUMPDEST PUSH0 PUSH2 0x2D66 PUSH1 0x15 DUP4 PUSH2 0x2754 JUMP JUMPDEST SWAP2 POP PUSH2 0x2D71 DUP3 PUSH2 0x2D32 JUMP JUMPDEST PUSH1 0x20 DUP3 ADD SWAP1 POP SWAP2 SWAP1 POP JUMP JUMPDEST PUSH0 PUSH1 0x60 DUP3 ADD SWAP1 POP PUSH2 0x2D8F PUSH0 DUP4 ADD DUP6 PUSH2 0x2745 JUMP JUMPDEST PUSH2 0x2D9C PUSH1 0x20 DUP4 ADD DUP5 PUSH2 0x2745 JUMP JUMPDEST DUP2 DUP2 SUB PUSH1 0x40 DUP4 ADD MSTORE PUSH2 0x2DAD DUP2 PUSH2 0x2D5A JUMP JUMPDEST SWAP1 POP SWAP4 SWAP3 POP POP POP JUMP JUMPDEST PUSH0 PUSH2 0x2DC0 DUP3 PUSH2 0x249F JUMP JUMPDEST SWAP2 POP PUSH2 0x2DCB DUP4 PUSH2 0x249F JUMP JUMPDEST SWAP3 POP DUP3 DUP3 ADD SWAP1 POP DUP1 DUP3 GT ISZERO PUSH2 0x2DE3 JUMPI PUSH2 0x2DE2 PUSH2 0x255E JUMP JUMPDEST JUMPDEST SWAP3 SWAP2 POP POP JUMP JUMPDEST PUSH32 0x636F6E747261637450726553616C6553746172742073686F756C64206D617463 PUSH0 DUP3 ADD MSTORE PUSH32 0x6800000000000000000000000000000000000000000000000000000000000000 PUSH1 0x20 DUP3 ADD MSTORE POP JUMP JUMPDEST PUSH0 PUSH2 0x2E43 PUSH1 0x21 DUP4 PUSH2 0x2754 JUMP JUMPDEST SWAP2 POP PUSH2 0x2E4E DUP3 PUSH2 0x2DE9 JUMP JUMPDEST PUSH1 0x40 DUP3 ADD SWAP1 POP SWAP2 SWAP1 POP JUMP JUMPDEST PUSH0 PUSH1 0x60 DUP3 ADD SWAP1 POP PUSH2 0x2E6C PUSH0 DUP4 ADD DUP6 PUSH2 0x2745 JUMP JUMPDEST PUSH2 0x2E79 PUSH1 0x20 DUP4 ADD DUP5 PUSH2 0x2745 JUMP JUMPDEST DUP2 DUP2 SUB PUSH1 0x40 DUP4 ADD MSTORE PUSH2 0x2E8A DUP2 PUSH2 0x2E37 JUMP JUMPDEST SWAP1 POP SWAP4 SWAP3 POP POP POP JUMP JUMPDEST PUSH32 0x636F6E747261637450726553616C65456E642073686F756C64206D6174636800 PUSH0 DUP3 ADD MSTORE POP JUMP JUMPDEST PUSH0 PUSH2 0x2EC7 PUSH1 0x1F DUP4 PUSH2 0x2754 JUMP JUMPDEST SWAP2 POP PUSH2 0x2ED2 DUP3 PUSH2 0x2E93 JUMP JUMPDEST PUSH1 0x20 DUP3 ADD SWAP1 POP SWAP2 SWAP1 POP JUMP JUMPDEST PUSH0 PUSH1 0x60 DUP3 ADD SWAP1 POP PUSH2 0x2EF0 PUSH0 DUP4 ADD DUP6 PUSH2 0x2745 JUMP JUMPDEST PUSH2 0x2EFD PUSH1 0x20 DUP4 ADD DUP5 PUSH2 0x2745 JUMP JUMPDEST DUP2 DUP2 SUB PUSH1 0x40 DUP4 ADD MSTORE PUSH2 0x2F0E DUP2 PUSH2 0x2EBB JUMP JUMPDEST SWAP1 POP SWAP4 SWAP3 POP POP POP JUMP JUMPDEST PUSH2 0x2F20 DUP2 PUSH2 0x2B22 JUMP JUMPDEST DUP3 MSTORE POP POP JUMP JUMPDEST PUSH32 0x70726553616C6550726963652073686F756C64206D6174636800000000000000 PUSH0 DUP3 ADD MSTORE POP JUMP JUMPDEST PUSH0 PUSH2 0x2F5A PUSH1 0x19 DUP4 PUSH2 0x2754 JUMP JUMPDEST SWAP2 POP PUSH2 0x2F65 DUP3 PUSH2 0x2F26 JUMP JUMPDEST PUSH1 0x20 DUP3 ADD SWAP1 POP SWAP2 SWAP1 POP JUMP JUMPDEST PUSH0 PUSH1 0x60 DUP3 ADD SWAP1 POP PUSH2 0x2F83 PUSH0 DUP4 ADD DUP6 PUSH2 0x2745 JUMP JUMPDEST PUSH2 0x2F90 PUSH1 0x20 DUP4 ADD DUP5 PUSH2 0x2F17 JUMP JUMPDEST DUP2 DUP2 SUB PUSH1 0x40 DUP4 ADD MSTORE PUSH2 0x2FA1 DUP2 PUSH2 0x2F4E JUMP JUMPDEST SWAP1 POP SWAP4 SWAP3 POP POP POP JUMP JUMPDEST PUSH2 0x2FB3 DUP2 PUSH2 0x2B94 JUMP JUMPDEST DUP3 MSTORE POP POP JUMP JUMPDEST PUSH32 0x726567756C617250726963652073686F756C64206D6174636800000000000000 PUSH0 DUP3 ADD MSTORE POP JUMP JUMPDEST PUSH0 PUSH2 0x2FED PUSH1 0x19 DUP4 PUSH2 0x2754 JUMP JUMPDEST SWAP2 POP PUSH2 0x2FF8 DUP3 PUSH2 0x2FB9 JUMP JUMPDEST PUSH1 0x20 DUP3 ADD SWAP1 POP SWAP2 SWAP1 POP JUMP JUMPDEST PUSH0 PUSH1 0x60 DUP3 ADD SWAP1 POP PUSH2 0x3016 PUSH0 DUP4 ADD DUP6 PUSH2 0x2745 JUMP JUMPDEST PUSH2 0x3023 PUSH1 0x20 DUP4 ADD DUP5 PUSH2 0x2FAA JUMP JUMPDEST DUP2 DUP2 SUB PUSH1 0x40 DUP4 ADD MSTORE PUSH2 0x3034 DUP2 PUSH2 0x2FE1 JUMP JUMPDEST SWAP1 POP SWAP4 SWAP3 POP POP POP JUMP JUMPDEST PUSH32 0x70726553616C655765656B732073686F756C64206D6174636800000000000000 PUSH0 DUP3 ADD MSTORE POP JUMP JUMPDEST PUSH0 PUSH2 0x3071 PUSH1 0x19 DUP4 PUSH2 0x2754 JUMP JUMPDEST SWAP2 POP PUSH2 0x307C DUP3 PUSH2 0x303D JUMP JUMPDEST PUSH1 0x20 DUP3 ADD SWAP1 POP SWAP2 SWAP1 POP JUMP JUMPDEST PUSH0 PUSH1 0x60 DUP3 ADD SWAP1 POP PUSH2 0x309A PUSH0 DUP4 ADD DUP6 PUSH2 0x2745 JUMP JUMPDEST PUSH2 0x30A7 PUSH1 0x20 DUP4 ADD DUP5 PUSH2 0x2745 JUMP JUMPDEST DUP2 DUP2 SUB PUSH1 0x40 DUP4 ADD MSTORE PUSH2 0x30B8 DUP2 PUSH2 0x3065 JUMP JUMPDEST SWAP1 POP SWAP4 SWAP3 POP POP POP JUMP JUMPDEST PUSH0 DUP2 SWAP1 POP SWAP2 SWAP1 POP JUMP JUMPDEST PUSH0 PUSH2 0x30E4 PUSH2 0x30DF PUSH2 0x30DA DUP5 PUSH2 0x30C1 JUMP JUMPDEST PUSH2 0x2AE0 JUMP JUMPDEST PUSH2 0x249F JUMP JUMPDEST SWAP1 POP SWAP2 SWAP1 POP JUMP JUMPDEST PUSH2 0x30F4 DUP2 PUSH2 0x30CA JUMP JUMPDEST DUP3 MSTORE POP POP JUMP JUMPDEST PUSH32 0x7765656B73456C61707365642073686F756C6420626520320000000000000000 PUSH0 DUP3 ADD MSTORE POP JUMP JUMPDEST PUSH0 PUSH2 0x312E PUSH1 0x18 DUP4 PUSH2 0x2754 JUMP JUMPDEST SWAP2 POP PUSH2 0x3139 DUP3 PUSH2 0x30FA JUMP JUMPDEST PUSH1 0x20 DUP3 ADD SWAP1 POP SWAP2 SWAP1 POP JUMP JUMPDEST PUSH0 PUSH1 0x60 DUP3 ADD SWAP1 POP PUSH2 0x3157 PUSH0 DUP4 ADD DUP6 PUSH2 0x2745 JUMP JUMPDEST PUSH2 0x3164 PUSH1 0x20 DUP4 ADD DUP5 PUSH2 0x30EB JUMP JUMPDEST DUP2 DUP2 SUB PUSH1 0x40 DUP4 ADD MSTORE PUSH2 0x3175 DUP2 PUSH2 0x3122 JUMP JUMPDEST SWAP1 POP SWAP4 SWAP3 POP POP POP JUMP JUMPDEST PUSH32 0x4E487B7100000000000000000000000000000000000000000000000000000000 PUSH0 MSTORE PUSH1 0x12 PUSH1 0x4 MSTORE PUSH1 0x24 PUSH0 REVERT JUMPDEST PUSH0 PUSH2 0x31B5 DUP3 PUSH2 0x249F JUMP JUMPDEST SWAP2 POP PUSH2 0x31C0 DUP4 PUSH2 0x249F JUMP JUMPDEST SWAP3 POP DUP3 PUSH2 0x31D0 JUMPI PUSH2 0x31CF PUSH2 0x317E JUMP JUMPDEST JUMPDEST DUP3 DUP3 DIV SWAP1 POP SWAP3 SWAP2 POP POP JUMP JUMPDEST PUSH32 0x707269636520696E6372656173652073686F756C6420626520302E3565313500 PUSH0 DUP3 ADD MSTORE POP JUMP JUMPDEST PUSH0 PUSH2 0x320F PUSH1 0x1F DUP4 PUSH2 0x2754 JUMP JUMPDEST SWAP2 POP PUSH2 0x321A DUP3 PUSH2 0x31DB JUMP JUMPDEST PUSH1 0x20 DUP3 ADD SWAP1 POP SWAP2 SWAP1 POP JUMP JUMPDEST PUSH0 PUSH1 0x60 DUP3 ADD SWAP1 POP PUSH2 0x3238 PUSH0 DUP4 ADD DUP6 PUSH2 0x2745 JUMP JUMPDEST PUSH2 0x3245 PUSH1 0x20 DUP4 ADD DUP5 PUSH2 0x2745 JUMP JUMPDEST DUP2 DUP2 SUB PUSH1 0x40 DUP4 ADD MSTORE PUSH2 0x3256 DUP2 PUSH2 0x3203 JUMP JUMPDEST SWAP1 POP SWAP4 SWAP3 POP POP POP JUMP JUMPDEST PUSH32 0x7072696365202073686F756C6420626520312E35653135000000000000000000 PUSH0 DUP3 ADD MSTORE POP JUMP JUMPDEST PUSH0 PUSH2 0x3293 PUSH1 0x17 DUP4 PUSH2 0x2754 JUMP JUMPDEST SWAP2 POP PUSH2 0x329E DUP3 PUSH2 0x325F JUMP JUMPDEST PUSH1 0x20 DUP3 ADD SWAP1 POP SWAP2 SWAP1 POP JUMP JUMPDEST PUSH0 PUSH1 0x60 DUP3 ADD SWAP1 POP PUSH2 0x32BC PUSH0 DUP4 ADD DUP6 PUSH2 0x2745 JUMP JUMPDEST PUSH2 0x32C9 PUSH1 0x20 DUP4 ADD DUP5 PUSH2 0x2745 JUMP JUMPDEST DUP2 DUP2 SUB PUSH1 0x40 DUP4 ADD MSTORE PUSH2 0x32DA DUP2 PUSH2 0x3287 JUMP JUMPDEST SWAP1 POP SWAP4 SWAP3 POP POP POP JUMP JUMPDEST PUSH0 PUSH1 0x20 DUP3 ADD SWAP1 POP PUSH2 0x32F6 PUSH0 DUP4 ADD DUP5 PUSH2 0x2AC8 JUMP JUMPDEST SWAP3 SWAP2 POP POP JUMP JUMPDEST PUSH0 DUP2 MLOAD SWAP1 POP SWAP2 SWAP1 POP JUMP JUMPDEST PUSH0 DUP2 SWAP1 POP SWAP3 SWAP2 POP POP JUMP JUMPDEST DUP3 DUP2 DUP4 MCOPY PUSH0 DUP4 DUP4 ADD MSTORE POP POP POP JUMP JUMPDEST PUSH0 PUSH2 0x3328 DUP3 PUSH2 0x32FC JUMP JUMPDEST PUSH2 0x3332 DUP2 DUP6 PUSH2 0x3306 JUMP JUMPDEST SWAP4 POP PUSH2 0x3342 DUP2 DUP6 PUSH1 0x20 DUP7 ADD PUSH2 0x3310 JUMP JUMPDEST DUP1 DUP5 ADD SWAP2 POP POP SWAP3 SWAP2 POP POP JUMP JUMPDEST PUSH0 PUSH2 0x3359 DUP3 DUP5 PUSH2 0x331E JUMP JUMPDEST SWAP2 POP DUP2 SWAP1 POP SWAP3 SWAP2 POP POP JUMP JUMPDEST PUSH32 0x50726573616C65206E6F74206163746976652C2070757263686173652073686F PUSH0 DUP3 ADD MSTORE PUSH32 0x756C64206661696C000000000000000000000000000000000000000000000000 PUSH1 0x20 DUP3 ADD MSTORE POP JUMP JUMPDEST PUSH0 PUSH2 0x33BE PUSH1 0x28 DUP4 PUSH2 0x2754 JUMP JUMPDEST SWAP2 POP PUSH2 0x33C9 DUP3 PUSH2 0x3364 JUMP JUMPDEST PUSH1 0x40 DUP3 ADD SWAP1 POP SWAP2 SWAP1 POP JUMP JUMPDEST PUSH0 PUSH1 0x60 DUP3 ADD SWAP1 POP PUSH2 0x33E7 PUSH0 DUP4 ADD DUP6 PUSH2 0x2848 JUMP JUMPDEST PUSH2 0x33F4 PUSH1 0x20 DUP4 ADD DUP5 PUSH2 0x2848 JUMP JUMPDEST DUP2 DUP2 SUB PUSH1 0x40 DUP4 ADD MSTORE PUSH2 0x3405 DUP2 PUSH2 0x33B2 JUMP JUMPDEST SWAP1 POP SWAP4 SWAP3 POP POP POP JUMP JUMPDEST PUSH32 0x42757965722062616C616E63652073686F756C64206E6F74206368616E676520 PUSH0 DUP3 ADD MSTORE PUSH32 0x6265666F72652070726573616C65207374617274730000000000000000000000 PUSH1 0x20 DUP3 ADD MSTORE POP JUMP JUMPDEST PUSH0 PUSH2 0x3468 PUSH1 0x35 DUP4 PUSH2 0x2754 JUMP JUMPDEST SWAP2 POP PUSH2 0x3473 DUP3 PUSH2 0x340E JUMP JUMPDEST PUSH1 0x40 DUP3 ADD SWAP1 POP SWAP2 SWAP1 POP JUMP JUMPDEST PUSH0 PUSH1 0x60 DUP3 ADD SWAP1 POP PUSH2 0x3491 PUSH0 DUP4 ADD DUP6 PUSH2 0x2745 JUMP JUMPDEST PUSH2 0x349E PUSH1 0x20 DUP4 ADD DUP5 PUSH2 0x2745 JUMP JUMPDEST DUP2 DUP2 SUB PUSH1 0x40 DUP4 ADD MSTORE PUSH2 0x34AF DUP2 PUSH2 0x345C JUMP JUMPDEST SWAP1 POP SWAP4 SWAP3 POP POP POP JUMP JUMPDEST PUSH32 0x507269636520696E63726561736520647572696E67206669727374207765656B PUSH0 DUP3 ADD MSTORE PUSH32 0x2073686F756C6420626520300000000000000000000000000000000000000000 PUSH1 0x20 DUP3 ADD MSTORE POP JUMP JUMPDEST PUSH0 PUSH2 0x3512 PUSH1 0x2C DUP4 PUSH2 0x2754 JUMP JUMPDEST SWAP2 POP PUSH2 0x351D DUP3 PUSH2 0x34B8 JUMP JUMPDEST PUSH1 0x40 DUP3 ADD SWAP1 POP SWAP2 SWAP1 POP JUMP JUMPDEST PUSH0 PUSH1 0x60 DUP3 ADD SWAP1 POP PUSH2 0x353B PUSH0 DUP4 ADD DUP6 PUSH2 0x2745 JUMP JUMPDEST PUSH2 0x3548 PUSH1 0x20 DUP4 ADD DUP5 PUSH2 0x2745 JUMP JUMPDEST DUP2 DUP2 SUB PUSH1 0x40 DUP4 ADD MSTORE PUSH2 0x3559 DUP2 PUSH2 0x3506 JUMP JUMPDEST SWAP1 POP SWAP4 SWAP3 POP POP POP JUMP JUMPDEST PUSH0 DUP2 SWAP1 POP SWAP2 SWAP1 POP JUMP JUMPDEST PUSH0 PUSH2 0x3585 PUSH2 0x3580 PUSH2 0x357B DUP5 PUSH2 0x3562 JUMP JUMPDEST PUSH2 0x2AE0 JUMP JUMPDEST PUSH2 0x249F JUMP JUMPDEST SWAP1 POP SWAP2 SWAP1 POP JUMP JUMPDEST PUSH2 0x3595 DUP2 PUSH2 0x356B JUMP JUMPDEST DUP3 MSTORE POP POP JUMP JUMPDEST PUSH0 PUSH1 0x60 DUP3 ADD SWAP1 POP PUSH2 0x35AE PUSH0 DUP4 ADD DUP6 PUSH2 0x2745 JUMP JUMPDEST PUSH2 0x35BB PUSH1 0x20 DUP4 ADD DUP5 PUSH2 0x358C JUMP JUMPDEST DUP2 DUP2 SUB PUSH1 0x40 DUP4 ADD MSTORE PUSH2 0x35CC DUP2 PUSH2 0x3122 JUMP JUMPDEST SWAP1 POP SWAP4 SWAP3 POP POP POP JUMP INVALID PUSH1 0x80 PUSH1 0x40 MSTORE CALLVALUE DUP1 ISZERO PUSH2 0xF JUMPI PUSH0 DUP1 REVERT JUMPDEST POP PUSH1 0x40 MLOAD PUSH2 0x38FE CODESIZE SUB DUP1 PUSH2 0x38FE DUP4 CODECOPY DUP2 DUP2 ADD PUSH1 0x40 MSTORE DUP2 ADD SWAP1 PUSH2 0x31 SWAP2 SWAP1 PUSH2 0x5AF JUMP JUMPDEST DUP6 PUSH1 0x40 MLOAD DUP1 PUSH1 0x40 ADD PUSH1 0x40 MSTORE DUP1 PUSH1 0xB DUP2 MSTORE PUSH1 0x20 ADD PUSH32 0x4E6174757265546F6B656E000000000000000000000000000000000000000000 DUP2 MSTORE POP PUSH1 0x40 MLOAD DUP1 PUSH1 0x40 ADD PUSH1 0x40 MSTORE DUP1 PUSH1 0x3 DUP2 MSTORE PUSH1 0x20 ADD PUSH32 0x4E54520000000000000000000000000000000000000000000000000000000000 DUP2 MSTORE POP DUP2 PUSH1 0x3 SWAP1 DUP2 PUSH2 0xAD SWAP2 SWAP1 PUSH2 0x869 JUMP JUMPDEST POP DUP1 PUSH1 0x4 SWAP1 DUP2 PUSH2 0xBD SWAP2 SWAP1 PUSH2 0x869 JUMP JUMPDEST POP POP POP PUSH0 PUSH20 0xFFFFFFFFFFFFFFFFFFFFFFFFFFFFFFFFFFFFFFFF AND DUP2 PUSH20 0xFFFFFFFFFFFFFFFFFFFFFFFFFFFFFFFFFFFFFFFF AND SUB PUSH2 0x130 JUMPI PUSH0 PUSH1 0x40 MLOAD PUSH32 0x1E4FBDF700000000000000000000000000000000000000000000000000000000 DUP2 MSTORE PUSH1 0x4 ADD PUSH2 0x127 SWAP2 SWAP1 PUSH2 0x947 JUMP JUMPDEST PUSH1 0x40 MLOAD DUP1 SWAP2 SUB SWAP1 REVERT JUMPDEST PUSH2 0x13F DUP2 PUSH2 0x1B5 PUSH1 0x20 SHL PUSH1 0x20 SHR JUMP JUMPDEST POP PUSH2 0x174 ADDRESS PUSH2 0x152 PUSH2 0x278 PUSH1 0x20 SHL PUSH1 0x20 SHR JUMP JUMPDEST PUSH1 0xA PUSH2 0x15E SWAP2 SWAP1 PUSH2 0xAC8 JUMP JUMPDEST DUP8 PUSH2 0x169 SWAP2 SWAP1 PUSH2 0xB12 JUMP JUMPDEST PUSH2 0x280 PUSH1 0x20 SHL PUSH1 0x20 SHR JUMP JUMPDEST DUP4 PUSH1 0x8 DUP2 SWAP1 SSTORE POP DUP3 PUSH1 0xA DUP2 SWAP1 SSTORE POP DUP2 PUSH1 0x9 DUP2 SWAP1 SSTORE POP DUP1 PUSH1 0xD DUP2 SWAP1 SSTORE POP PUSH0 PUSH1 0x5 PUSH1 0x14 PUSH2 0x100 EXP DUP2 SLOAD DUP2 PUSH1 0xFF MUL NOT AND SWAP1 DUP4 ISZERO ISZERO MUL OR SWAP1 SSTORE POP POP POP POP POP POP POP PUSH2 0xBE3 JUMP JUMPDEST PUSH0 PUSH1 0x5 PUSH0 SWAP1 SLOAD SWAP1 PUSH2 0x100 EXP SWAP1 DIV PUSH20 0xFFFFFFFFFFFFFFFFFFFFFFFFFFFFFFFFFFFFFFFF AND SWAP1 POP DUP2 PUSH1 0x5 PUSH0 PUSH2 0x100 EXP DUP2 SLOAD DUP2 PUSH20 0xFFFFFFFFFFFFFFFFFFFFFFFFFFFFFFFFFFFFFFFF MUL NOT AND SWAP1 DUP4 PUSH20 0xFFFFFFFFFFFFFFFFFFFFFFFFFFFFFFFFFFFFFFFF AND MUL OR SWAP1 SSTORE POP DUP2 PUSH20 0xFFFFFFFFFFFFFFFFFFFFFFFFFFFFFFFFFFFFFFFF AND DUP2 PUSH20 0xFFFFFFFFFFFFFFFFFFFFFFFFFFFFFFFFFFFFFFFF AND PUSH32 0x8BE0079C531659141344CD1FD0A4F28419497F9722A3DAAFE3B4186F6B6457E0 PUSH1 0x40 MLOAD PUSH1 0x40 MLOAD DUP1 SWAP2 SUB SWAP1 LOG3 POP POP JUMP JUMPDEST PUSH0 PUSH1 0x12 SWAP1 POP SWAP1 JUMP JUMPDEST PUSH0 PUSH20 0xFFFFFFFFFFFFFFFFFFFFFFFFFFFFFFFFFFFFFFFF AND DUP3 PUSH20 0xFFFFFFFFFFFFFFFFFFFFFFFFFFFFFFFFFFFFFFFF AND SUB PUSH2 0x2F0 JUMPI PUSH0 PUSH1 0x40 MLOAD PUSH32 0xEC442F0500000000000000000000000000000000000000000000000000000000 DUP2 MSTORE PUSH1 0x4 ADD PUSH2 0x2E7 SWAP2 SWAP1 PUSH2 0x947 JUMP JUMPDEST PUSH1 0x40 MLOAD DUP1 SWAP2 SUB SWAP1 REVERT JUMPDEST PUSH2 0x301 PUSH0 DUP4 DUP4 PUSH2 0x305 PUSH1 0x20 SHL PUSH1 0x20 SHR JUMP JUMPDEST POP POP JUMP JUMPDEST PUSH0 PUSH20 0xFFFFFFFFFFFFFFFFFFFFFFFFFFFFFFFFFFFFFFFF AND DUP4 PUSH20 0xFFFFFFFFFFFFFFFFFFFFFFFFFFFFFFFFFFFFFFFF AND SUB PUSH2 0x355 JUMPI DUP1 PUSH1 0x2 PUSH0 DUP3 DUP3 SLOAD PUSH2 0x349 SWAP2 SWAP1 PUSH2 0xB53 JUMP JUMPDEST SWAP3 POP POP DUP2 SWAP1 SSTORE POP PUSH2 0x423 JUMP JUMPDEST PUSH0 DUP1 PUSH0 DUP6 PUSH20 0xFFFFFFFFFFFFFFFFFFFFFFFFFFFFFFFFFFFFFFFF AND PUSH20 0xFFFFFFFFFFFFFFFFFFFFFFFFFFFFFFFFFFFFFFFF AND DUP2 MSTORE PUSH1 0x20 ADD SWAP1 DUP2 MSTORE PUSH1 0x20 ADD PUSH0 KECCAK256 SLOAD SWAP1 POP DUP2 DUP2 LT ISZERO PUSH2 0x3DE JUMPI DUP4 DUP2 DUP4 PUSH1 0x40 MLOAD PUSH32 0xE450D38C00000000000000000000000000000000000000000000000000000000 DUP2 MSTORE PUSH1 0x4 ADD PUSH2 0x3D5 SWAP4 SWAP3 SWAP2 SWAP1 PUSH2 0xB95 JUMP JUMPDEST PUSH1 0x40 MLOAD DUP1 SWAP2 SUB SWAP1 REVERT JUMPDEST DUP2 DUP2 SUB PUSH0 DUP1 DUP7 PUSH20 0xFFFFFFFFFFFFFFFFFFFFFFFFFFFFFFFFFFFFFFFF AND PUSH20 0xFFFFFFFFFFFFFFFFFFFFFFFFFFFFFFFFFFFFFFFF AND DUP2 MSTORE PUSH1 0x20 ADD SWAP1 DUP2 MSTORE PUSH1 0x20 ADD PUSH0 KECCAK256 DUP2 SWAP1 SSTORE POP POP JUMPDEST PUSH0 PUSH20 0xFFFFFFFFFFFFFFFFFFFFFFFFFFFFFFFFFFFFFFFF AND DUP3 PUSH20 0xFFFFFFFFFFFFFFFFFFFFFFFFFFFFFFFFFFFFFFFF AND SUB PUSH2 0x46A JUMPI DUP1 PUSH1 0x2 PUSH0 DUP3 DUP3 SLOAD SUB SWAP3 POP POP DUP2 SWAP1 SSTORE POP PUSH2 0x4B4 JUMP JUMPDEST DUP1 PUSH0 DUP1 DUP5 PUSH20 0xFFFFFFFFFFFFFFFFFFFFFFFFFFFFFFFFFFFFFFFF AND PUSH20 0xFFFFFFFFFFFFFFFFFFFFFFFFFFFFFFFFFFFFFFFF AND DUP2 MSTORE PUSH1 0x20 ADD SWAP1 DUP2 MSTORE PUSH1 0x20 ADD PUSH0 KECCAK256 PUSH0 DUP3 DUP3 SLOAD ADD SWAP3 POP POP DUP2 SWAP1 SSTORE POP JUMPDEST DUP2 PUSH20 0xFFFFFFFFFFFFFFFFFFFFFFFFFFFFFFFFFFFFFFFF AND DUP4 PUSH20 0xFFFFFFFFFFFFFFFFFFFFFFFFFFFFFFFFFFFFFFFF AND PUSH32 0xDDF252AD1BE2C89B69C2B068FC378DAA952BA7F163C4A11628F55A4DF523B3EF DUP4 PUSH1 0x40 MLOAD PUSH2 0x511 SWAP2 SWAP1 PUSH2 0xBCA JUMP JUMPDEST PUSH1 0x40 MLOAD DUP1 SWAP2 SUB SWAP1 LOG3 POP POP POP JUMP JUMPDEST PUSH0 DUP1 REVERT JUMPDEST PUSH0 PUSH20 0xFFFFFFFFFFFFFFFFFFFFFFFFFFFFFFFFFFFFFFFF DUP3 AND SWAP1 POP SWAP2 SWAP1 POP JUMP JUMPDEST PUSH0 PUSH2 0x54B DUP3 PUSH2 0x522 JUMP JUMPDEST SWAP1 POP SWAP2 SWAP1 POP JUMP JUMPDEST PUSH2 0x55B DUP2 PUSH2 0x541 JUMP JUMPDEST DUP2 EQ PUSH2 0x565 JUMPI PUSH0 DUP1 REVERT JUMPDEST POP JUMP JUMPDEST PUSH0 DUP2 MLOAD SWAP1 POP PUSH2 0x576 DUP2 PUSH2 0x552 JUMP JUMPDEST SWAP3 SWAP2 POP POP JUMP JUMPDEST PUSH0 DUP2 SWAP1 POP SWAP2 SWAP1 POP JUMP JUMPDEST PUSH2 0x58E DUP2 PUSH2 0x57C JUMP JUMPDEST DUP2 EQ PUSH2 0x598 JUMPI PUSH0 DUP1 REVERT JUMPDEST POP JUMP JUMPDEST PUSH0 DUP2 MLOAD SWAP1 POP PUSH2 0x5A9 DUP2 PUSH2 0x585 JUMP JUMPDEST SWAP3 SWAP2 POP POP JUMP JUMPDEST PUSH0 DUP1 PUSH0 DUP1 PUSH0 DUP1 PUSH1 0xC0 DUP8 DUP10 SUB SLT ISZERO PUSH2 0x5C9 JUMPI PUSH2 0x5C8 PUSH2 0x51E JUMP JUMPDEST JUMPDEST PUSH0 PUSH2 0x5D6 DUP10 DUP3 DUP11 ADD PUSH2 0x568 JUMP JUMPDEST SWAP7 POP POP PUSH1 0x20 PUSH2 0x5E7 DUP10 DUP3 DUP11 ADD PUSH2 0x59B JUMP JUMPDEST SWAP6 POP POP PUSH1 0x40 PUSH2 0x5F8 DUP10 DUP3 DUP11 ADD PUSH2 0x59B JUMP JUMPDEST SWAP5 POP POP PUSH1 0x60 PUSH2 0x609 DUP10 DUP3 DUP11 ADD PUSH2 0x59B JUMP JUMPDEST SWAP4 POP POP PUSH1 0x80 PUSH2 0x61A DUP10 DUP3 DUP11 ADD PUSH2 0x59B JUMP JUMPDEST SWAP3 POP POP PUSH1 0xA0 PUSH2 0x62B DUP10 DUP3 DUP11 ADD PUSH2 0x59B JUMP JUMPDEST SWAP2 POP POP SWAP3 SWAP6 POP SWAP3 SWAP6 POP SWAP3 SWAP6 JUMP JUMPDEST PUSH0 DUP2 MLOAD SWAP1 POP SWAP2 SWAP1 POP JUMP JUMPDEST PUSH32 0x4E487B7100000000000000000000000000000000000000000000000000000000 PUSH0 MSTORE PUSH1 0x41 PUSH1 0x4 MSTORE PUSH1 0x24 PUSH0 REVERT JUMPDEST PUSH32 0x4E487B7100000000000000000000000000000000000000000000000000000000 PUSH0 MSTORE PUSH1 0x22 PUSH1 0x4 MSTORE PUSH1 0x24 PUSH0 REVERT JUMPDEST PUSH0 PUSH1 0x2 DUP3 DIV SWAP1 POP PUSH1 0x1 DUP3 AND DUP1 PUSH2 0x6B3 JUMPI PUSH1 0x7F DUP3 AND SWAP2 POP JUMPDEST PUSH1 0x20 DUP3 LT DUP2 SUB PUSH2 0x6C6 JUMPI PUSH2 0x6C5 PUSH2 0x66F JUMP JUMPDEST JUMPDEST POP SWAP2 SWAP1 POP JUMP JUMPDEST PUSH0 DUP2 SWAP1 POP DUP2 PUSH0 MSTORE PUSH1 0x20 PUSH0 KECCAK256 SWAP1 POP SWAP2 SWAP1 POP JUMP JUMPDEST PUSH0 PUSH1 0x20 PUSH1 0x1F DUP4 ADD DIV SWAP1 POP SWAP2 SWAP1 POP JUMP JUMPDEST PUSH0 DUP3 DUP3 SHL SWAP1 POP SWAP3 SWAP2 POP POP JUMP JUMPDEST PUSH0 PUSH1 0x8 DUP4 MUL PUSH2 0x728 PUSH32 0xFFFFFFFFFFFFFFFFFFFFFFFFFFFFFFFFFFFFFFFFFFFFFFFFFFFFFFFFFFFFFFFF DUP3 PUSH2 0x6ED JUMP JUMPDEST PUSH2 0x732 DUP7 DUP4 PUSH2 0x6ED JUMP JUMPDEST SWAP6 POP DUP1 NOT DUP5 AND SWAP4 POP DUP1 DUP7 AND DUP5 OR SWAP3 POP POP POP SWAP4 SWAP3 POP POP POP JUMP JUMPDEST PUSH0 DUP2 SWAP1 POP SWAP2 SWAP1 POP JUMP JUMPDEST PUSH0 PUSH2 0x76D PUSH2 0x768 PUSH2 0x763 DUP5 PUSH2 0x57C JUMP JUMPDEST PUSH2 0x74A JUMP JUMPDEST PUSH2 0x57C JUMP JUMPDEST SWAP1 POP SWAP2 SWAP1 POP JUMP JUMPDEST PUSH0 DUP2 SWAP1 POP SWAP2 SWAP1 POP JUMP JUMPDEST PUSH2 0x786 DUP4 PUSH2 0x753 JUMP JUMPDEST PUSH2 0x79A PUSH2 0x792 DUP3 PUSH2 0x774 JUMP JUMPDEST DUP5 DUP5 SLOAD PUSH2 0x6F9 JUMP JUMPDEST DUP3 SSTORE POP POP POP POP JUMP JUMPDEST PUSH0 SWAP1 JUMP JUMPDEST PUSH2 0x7AE PUSH2 0x7A2 JUMP JUMPDEST PUSH2 0x7B9 DUP2 DUP5 DUP5 PUSH2 0x77D JUMP JUMPDEST POP POP POP JUMP JUMPDEST JUMPDEST DUP2 DUP2 LT ISZERO PUSH2 0x7DC JUMPI PUSH2 0x7D1 PUSH0 DUP3 PUSH2 0x7A6 JUMP JUMPDEST PUSH1 0x1 DUP2 ADD SWAP1 POP PUSH2 0x7BF JUMP JUMPDEST POP POP JUMP JUMPDEST PUSH1 0x1F DUP3 GT ISZERO PUSH2 0x821 JUMPI PUSH2 0x7F2 DUP2 PUSH2 0x6CC JUMP JUMPDEST PUSH2 0x7FB DUP5 PUSH2 0x6DE JUMP JUMPDEST DUP2 ADD PUSH1 0x20 DUP6 LT ISZERO PUSH2 0x80A JUMPI DUP2 SWAP1 POP JUMPDEST PUSH2 0x81E PUSH2 0x816 DUP6 PUSH2 0x6DE JUMP JUMPDEST DUP4 ADD DUP3 PUSH2 0x7BE JUMP JUMPDEST POP POP JUMPDEST POP POP POP JUMP JUMPDEST PUSH0 DUP3 DUP3 SHR SWAP1 POP SWAP3 SWAP2 POP POP JUMP JUMPDEST PUSH0 PUSH2 0x841 PUSH0 NOT DUP5 PUSH1 0x8 MUL PUSH2 0x826 JUMP JUMPDEST NOT DUP1 DUP4 AND SWAP2 POP POP SWAP3 SWAP2 POP POP JUMP JUMPDEST PUSH0 PUSH2 0x859 DUP4 DUP4 PUSH2 0x832 JUMP JUMPDEST SWAP2 POP DUP3 PUSH1 0x2 MUL DUP3 OR SWAP1 POP SWAP3 SWAP2 POP POP JUMP JUMPDEST PUSH2 0x872 DUP3 PUSH2 0x638 JUMP JUMPDEST PUSH8 0xFFFFFFFFFFFFFFFF DUP2 GT ISZERO PUSH2 0x88B JUMPI PUSH2 0x88A PUSH2 0x642 JUMP JUMPDEST JUMPDEST PUSH2 0x895 DUP3 SLOAD PUSH2 0x69C JUMP JUMPDEST PUSH2 0x8A0 DUP3 DUP3 DUP6 PUSH2 0x7E0 JUMP JUMPDEST PUSH0 PUSH1 0x20 SWAP1 POP PUSH1 0x1F DUP4 GT PUSH1 0x1 DUP2 EQ PUSH2 0x8D1 JUMPI PUSH0 DUP5 ISZERO PUSH2 0x8BF JUMPI DUP3 DUP8 ADD MLOAD SWAP1 POP JUMPDEST PUSH2 0x8C9 DUP6 DUP3 PUSH2 0x84E JUMP JUMPDEST DUP7 SSTORE POP PUSH2 0x930 JUMP JUMPDEST PUSH1 0x1F NOT DUP5 AND PUSH2 0x8DF DUP7 PUSH2 0x6CC JUMP JUMPDEST PUSH0 JUMPDEST DUP3 DUP2 LT ISZERO PUSH2 0x906 JUMPI DUP5 DUP10 ADD MLOAD DUP3 SSTORE PUSH1 0x1 DUP3 ADD SWAP2 POP PUSH1 0x20 DUP6 ADD SWAP5 POP PUSH1 0x20 DUP2 ADD SWAP1 POP PUSH2 0x8E1 JUMP JUMPDEST DUP7 DUP4 LT ISZERO PUSH2 0x923 JUMPI DUP5 DUP10 ADD MLOAD PUSH2 0x91F PUSH1 0x1F DUP10 AND DUP3 PUSH2 0x832 JUMP JUMPDEST DUP4 SSTORE POP JUMPDEST PUSH1 0x1 PUSH1 0x2 DUP9 MUL ADD DUP9 SSTORE POP POP POP JUMPDEST POP POP POP POP POP POP JUMP JUMPDEST PUSH2 0x941 DUP2 PUSH2 0x541 JUMP JUMPDEST DUP3 MSTORE POP POP JUMP JUMPDEST PUSH0 PUSH1 0x20 DUP3 ADD SWAP1 POP PUSH2 0x95A PUSH0 DUP4 ADD DUP5 PUSH2 0x938 JUMP JUMPDEST SWAP3 SWAP2 POP POP JUMP JUMPDEST PUSH32 0x4E487B7100000000000000000000000000000000000000000000000000000000 PUSH0 MSTORE PUSH1 0x11 PUSH1 0x4 MSTORE PUSH1 0x24 PUSH0 REVERT JUMPDEST PUSH0 DUP2 PUSH1 0x1 SHR SWAP1 POP SWAP2 SWAP1 POP JUMP JUMPDEST PUSH0 DUP1 DUP3 SWAP2 POP DUP4 SWAP1 POP JUMPDEST PUSH1 0x1 DUP6 GT ISZERO PUSH2 0x9E2 JUMPI DUP1 DUP7 DIV DUP2 GT ISZERO PUSH2 0x9BE JUMPI PUSH2 0x9BD PUSH2 0x960 JUMP JUMPDEST JUMPDEST PUSH1 0x1 DUP6 AND ISZERO PUSH2 0x9CD JUMPI DUP1 DUP3 MUL SWAP2 POP JUMPDEST DUP1 DUP2 MUL SWAP1 POP PUSH2 0x9DB DUP6 PUSH2 0x98D JUMP JUMPDEST SWAP5 POP PUSH2 0x9A2 JUMP JUMPDEST SWAP5 POP SWAP5 SWAP3 POP POP POP JUMP JUMPDEST PUSH0 DUP3 PUSH2 0x9FA JUMPI PUSH1 0x1 SWAP1 POP PUSH2 0xAB5 JUMP JUMPDEST DUP2 PUSH2 0xA07 JUMPI PUSH0 SWAP1 POP PUSH2 0xAB5 JUMP JUMPDEST DUP2 PUSH1 0x1 DUP2 EQ PUSH2 0xA1D JUMPI PUSH1 0x2 DUP2 EQ PUSH2 0xA27 JUMPI PUSH2 0xA56 JUMP JUMPDEST PUSH1 0x1 SWAP2 POP POP PUSH2 0xAB5 JUMP JUMPDEST PUSH1 0xFF DUP5 GT ISZERO PUSH2 0xA39 JUMPI PUSH2 0xA38 PUSH2 0x960 JUMP JUMPDEST JUMPDEST DUP4 PUSH1 0x2 EXP SWAP2 POP DUP5 DUP3 GT ISZERO PUSH2 0xA50 JUMPI PUSH2 0xA4F PUSH2 0x960 JUMP JUMPDEST JUMPDEST POP PUSH2 0xAB5 JUMP JUMPDEST POP PUSH1 0x20 DUP4 LT PUSH2 0x133 DUP4 LT AND PUSH1 0x4E DUP5 LT PUSH1 0xB DUP5 LT AND OR ISZERO PUSH2 0xA8B JUMPI DUP3 DUP3 EXP SWAP1 POP DUP4 DUP2 GT ISZERO PUSH2 0xA86 JUMPI PUSH2 0xA85 PUSH2 0x960 JUMP JUMPDEST JUMPDEST PUSH2 0xAB5 JUMP JUMPDEST PUSH2 0xA98 DUP5 DUP5 DUP5 PUSH1 0x1 PUSH2 0x999 JUMP JUMPDEST SWAP3 POP SWAP1 POP DUP2 DUP5 DIV DUP2 GT ISZERO PUSH2 0xAAF JUMPI PUSH2 0xAAE PUSH2 0x960 JUMP JUMPDEST JUMPDEST DUP2 DUP2 MUL SWAP1 POP JUMPDEST SWAP4 SWAP3 POP POP POP JUMP JUMPDEST PUSH0 PUSH1 0xFF DUP3 AND SWAP1 POP SWAP2 SWAP1 POP JUMP JUMPDEST PUSH0 PUSH2 0xAD2 DUP3 PUSH2 0x57C JUMP JUMPDEST SWAP2 POP PUSH2 0xADD DUP4 PUSH2 0xABC JUMP JUMPDEST SWAP3 POP PUSH2 0xB0A PUSH32 0xFFFFFFFFFFFFFFFFFFFFFFFFFFFFFFFFFFFFFFFFFFFFFFFFFFFFFFFFFFFFFFFF DUP5 DUP5 PUSH2 0x9EB JUMP JUMPDEST SWAP1 POP SWAP3 SWAP2 POP POP JUMP JUMPDEST PUSH0 PUSH2 0xB1C DUP3 PUSH2 0x57C JUMP JUMPDEST SWAP2 POP PUSH2 0xB27 DUP4 PUSH2 0x57C JUMP JUMPDEST SWAP3 POP DUP3 DUP3 MUL PUSH2 0xB35 DUP2 PUSH2 0x57C JUMP JUMPDEST SWAP2 POP DUP3 DUP3 DIV DUP5 EQ DUP4 ISZERO OR PUSH2 0xB4C JUMPI PUSH2 0xB4B PUSH2 0x960 JUMP JUMPDEST JUMPDEST POP SWAP3 SWAP2 POP POP JUMP JUMPDEST PUSH0 PUSH2 0xB5D DUP3 PUSH2 0x57C JUMP JUMPDEST SWAP2 POP PUSH2 0xB68 DUP4 PUSH2 0x57C JUMP JUMPDEST SWAP3 POP DUP3 DUP3 ADD SWAP1 POP DUP1 DUP3 GT ISZERO PUSH2 0xB80 JUMPI PUSH2 0xB7F PUSH2 0x960 JUMP JUMPDEST JUMPDEST SWAP3 SWAP2 POP POP JUMP JUMPDEST PUSH2 0xB8F DUP2 PUSH2 0x57C JUMP JUMPDEST DUP3 MSTORE POP POP JUMP JUMPDEST PUSH0 PUSH1 0x60 DUP3 ADD SWAP1 POP PUSH2 0xBA8 PUSH0 DUP4 ADD DUP7 PUSH2 0x938 JUMP JUMPDEST PUSH2 0xBB5 PUSH1 0x20 DUP4 ADD DUP6 PUSH2 0xB86 JUMP JUMPDEST PUSH2 0xBC2 PUSH1 0x40 DUP4 ADD DUP5 PUSH2 0xB86 JUMP JUMPDEST SWAP5 SWAP4 POP POP POP POP JUMP JUMPDEST PUSH0 PUSH1 0x20 DUP3 ADD SWAP1 POP PUSH2 0xBDD PUSH0 DUP4 ADD DUP5 PUSH2 0xB86 JUMP JUMPDEST SWAP3 SWAP2 POP POP JUMP JUMPDEST PUSH2 0x2D0E DUP1 PUSH2 0xBF0 PUSH0 CODECOPY PUSH0 RETURN INVALID PUSH1 0x80 PUSH1 0x40 MSTORE PUSH1 0x4 CALLDATASIZE LT PUSH2 0x219 JUMPI PUSH0 CALLDATALOAD PUSH1 0xE0 SHR DUP1 PUSH4 0x7C613B2F GT PUSH2 0x122 JUMPI DUP1 PUSH4 0xA9059CBB GT PUSH2 0xAA JUMPI DUP1 PUSH4 0xDD62ED3E GT PUSH2 0x6E JUMPI DUP1 PUSH4 0xDD62ED3E EQ PUSH2 0x7C3 JUMPI DUP1 PUSH4 0xF2FDE38B EQ PUSH2 0x7FF JUMPI DUP1 PUSH4 0xF8102E68 EQ PUSH2 0x827 JUMPI DUP1 PUSH4 0xF9931855 EQ PUSH2 0x851 JUMPI DUP1 PUSH4 0xF9A81AF7 EQ PUSH2 0x88D JUMPI PUSH2 0x219 JUMP JUMPDEST DUP1 PUSH4 0xA9059CBB EQ PUSH2 0x6ED JUMPI DUP1 PUSH4 0xCCE29EA7 EQ PUSH2 0x729 JUMPI DUP1 PUSH4 0xCEC297A0 EQ PUSH2 0x753 JUMPI DUP1 PUSH4 0xD0FEBE4C EQ PUSH2 0x78F JUMPI DUP1 PUSH4 0xD348B409 EQ PUSH2 0x799 JUMPI PUSH2 0x219 JUMP JUMPDEST DUP1 PUSH4 0x95D89B41 GT PUSH2 0xF1 JUMPI DUP1 PUSH4 0x95D89B41 EQ PUSH2 0x60D JUMPI DUP1 PUSH4 0x9B19251A EQ PUSH2 0x637 JUMPI DUP1 PUSH4 0x9CA423B3 EQ PUSH2 0x673 JUMPI DUP1 PUSH4 0xA09C4CF4 EQ PUSH2 0x6AF JUMPI DUP1 PUSH4 0xA5CE413B EQ PUSH2 0x6D7 JUMPI PUSH2 0x219 JUMP JUMPDEST DUP1 PUSH4 0x7C613B2F EQ PUSH2 0x555 JUMPI DUP1 PUSH4 0x8265324D EQ PUSH2 0x56B JUMPI DUP1 PUSH4 0x8DA5CB5B EQ PUSH2 0x5A7 JUMPI DUP1 PUSH4 0x8F0794FE EQ PUSH2 0x5D1 JUMPI PUSH2 0x219 JUMP JUMPDEST DUP1 PUSH4 0x30F72CD4 GT PUSH2 0x1A5 JUMPI DUP1 PUSH4 0x518AB2A8 GT PUSH2 0x174 JUMPI DUP1 PUSH4 0x518AB2A8 EQ PUSH2 0x487 JUMPI DUP1 PUSH4 0x70A08231 EQ PUSH2 0x4B1 JUMPI DUP1 PUSH4 0x715018A6 EQ PUSH2 0x4ED JUMPI DUP1 PUSH4 0x7165D19B EQ PUSH2 0x503 JUMPI DUP1 PUSH4 0x7547C7A3 EQ PUSH2 0x52D JUMPI PUSH2 0x219 JUMP JUMPDEST DUP1 PUSH4 0x30F72CD4 EQ PUSH2 0x3DF JUMPI DUP1 PUSH4 0x313CE567 EQ PUSH2 0x409 JUMPI DUP1 PUSH4 0x4405DF4A EQ PUSH2 0x433 JUMPI DUP1 PUSH4 0x4F3FC2DF EQ PUSH2 0x45D JUMPI PUSH2 0x219 JUMP JUMPDEST DUP1 PUSH4 0xD505541 GT PUSH2 0x1EC JUMPI DUP1 PUSH4 0xD505541 EQ PUSH2 0x2D7 JUMPI DUP1 PUSH4 0x18160DDD EQ PUSH2 0x313 JUMPI DUP1 PUSH4 0x1D0806AE EQ PUSH2 0x33D JUMPI DUP1 PUSH4 0x23B872DD EQ PUSH2 0x367 JUMPI DUP1 PUSH4 0x2C663960 EQ PUSH2 0x3A3 JUMPI PUSH2 0x219 JUMP JUMPDEST DUP1 PUSH4 0x3E293A3 EQ PUSH2 0x21D JUMPI DUP1 PUSH4 0x6D65AF3 EQ PUSH2 0x247 JUMPI DUP1 PUSH4 0x6FDDE03 EQ PUSH2 0x271 JUMPI DUP1 PUSH4 0x95EA7B3 EQ PUSH2 0x29B JUMPI JUMPDEST PUSH0 DUP1 REVERT JUMPDEST CALLVALUE DUP1 ISZERO PUSH2 0x228 JUMPI PUSH0 DUP1 REVERT JUMPDEST POP PUSH2 0x231 PUSH2 0x8B5 JUMP JUMPDEST PUSH1 0x40 MLOAD PUSH2 0x23E SWAP2 SWAP1 PUSH2 0x2077 JUMP JUMPDEST PUSH1 0x40 MLOAD DUP1 SWAP2 SUB SWAP1 RETURN JUMPDEST CALLVALUE DUP1 ISZERO PUSH2 0x252 JUMPI PUSH0 DUP1 REVERT JUMPDEST POP PUSH2 0x25B PUSH2 0x8BB JUMP JUMPDEST PUSH1 0x40 MLOAD PUSH2 0x268 SWAP2 SWAP1 PUSH2 0x2077 JUMP JUMPDEST PUSH1 0x40 MLOAD DUP1 SWAP2 SUB SWAP1 RETURN JUMPDEST CALLVALUE DUP1 ISZERO PUSH2 0x27C JUMPI PUSH0 DUP1 REVERT JUMPDEST POP PUSH2 0x285 PUSH2 0x8C1 JUMP JUMPDEST PUSH1 0x40 MLOAD PUSH2 0x292 SWAP2 SWAP1 PUSH2 0x2100 JUMP JUMPDEST PUSH1 0x40 MLOAD DUP1 SWAP2 SUB SWAP1 RETURN JUMPDEST CALLVALUE DUP1 ISZERO PUSH2 0x2A6 JUMPI PUSH0 DUP1 REVERT JUMPDEST POP PUSH2 0x2C1 PUSH1 0x4 DUP1 CALLDATASIZE SUB DUP2 ADD SWAP1 PUSH2 0x2BC SWAP2 SWAP1 PUSH2 0x21A8 JUMP JUMPDEST PUSH2 0x951 JUMP JUMPDEST PUSH1 0x40 MLOAD PUSH2 0x2CE SWAP2 SWAP1 PUSH2 0x2200 JUMP JUMPDEST PUSH1 0x40 MLOAD DUP1 SWAP2 SUB SWAP1 RETURN JUMPDEST CALLVALUE DUP1 ISZERO PUSH2 0x2E2 JUMPI PUSH0 DUP1 REVERT JUMPDEST POP PUSH2 0x2FD PUSH1 0x4 DUP1 CALLDATASIZE SUB DUP2 ADD SWAP1 PUSH2 0x2F8 SWAP2 SWAP1 PUSH2 0x2219 JUMP JUMPDEST PUSH2 0x973 JUMP JUMPDEST PUSH1 0x40 MLOAD PUSH2 0x30A SWAP2 SWAP1 PUSH2 0x2077 JUMP JUMPDEST PUSH1 0x40 MLOAD DUP1 SWAP2 SUB SWAP1 RETURN JUMPDEST CALLVALUE DUP1 ISZERO PUSH2 0x31E JUMPI PUSH0 DUP1 REVERT JUMPDEST POP PUSH2 0x327 PUSH2 0xA38 JUMP JUMPDEST PUSH1 0x40 MLOAD PUSH2 0x334 SWAP2 SWAP1 PUSH2 0x2077 JUMP JUMPDEST PUSH1 0x40 MLOAD DUP1 SWAP2 SUB SWAP1 RETURN JUMPDEST CALLVALUE DUP1 ISZERO PUSH2 0x348 JUMPI PUSH0 DUP1 REVERT JUMPDEST POP PUSH2 0x351 PUSH2 0xA41 JUMP JUMPDEST PUSH1 0x40 MLOAD PUSH2 0x35E SWAP2 SWAP1 PUSH2 0x2077 JUMP JUMPDEST PUSH1 0x40 MLOAD DUP1 SWAP2 SUB SWAP1 RETURN JUMPDEST CALLVALUE DUP1 ISZERO PUSH2 0x372 JUMPI PUSH0 DUP1 REVERT JUMPDEST POP PUSH2 0x38D PUSH1 0x4 DUP1 CALLDATASIZE SUB DUP2 ADD SWAP1 PUSH2 0x388 SWAP2 SWAP1 PUSH2 0x2244 JUMP JUMPDEST PUSH2 0xA47 JUMP JUMPDEST PUSH1 0x40 MLOAD PUSH2 0x39A SWAP2 SWAP1 PUSH2 0x2200 JUMP JUMPDEST PUSH1 0x40 MLOAD DUP1 SWAP2 SUB SWAP1 RETURN JUMPDEST CALLVALUE DUP1 ISZERO PUSH2 0x3AE JUMPI PUSH0 DUP1 REVERT JUMPDEST POP PUSH2 0x3C9 PUSH1 0x4 DUP1 CALLDATASIZE SUB DUP2 ADD SWAP1 PUSH2 0x3C4 SWAP2 SWAP1 PUSH2 0x2294 JUMP JUMPDEST PUSH2 0xA75 JUMP JUMPDEST PUSH1 0x40 MLOAD PUSH2 0x3D6 SWAP2 SWAP1 PUSH2 0x2077 JUMP JUMPDEST PUSH1 0x40 MLOAD DUP1 SWAP2 SUB SWAP1 RETURN JUMPDEST CALLVALUE DUP1 ISZERO PUSH2 0x3EA JUMPI PUSH0 DUP1 REVERT JUMPDEST POP PUSH2 0x3F3 PUSH2 0xAE0 JUMP JUMPDEST PUSH1 0x40 MLOAD PUSH2 0x400 SWAP2 SWAP1 PUSH2 0x2200 JUMP JUMPDEST PUSH1 0x40 MLOAD DUP1 SWAP2 SUB SWAP1 RETURN JUMPDEST CALLVALUE DUP1 ISZERO PUSH2 0x414 JUMPI PUSH0 DUP1 REVERT JUMPDEST POP PUSH2 0x41D PUSH2 0xAF3 JUMP JUMPDEST PUSH1 0x40 MLOAD PUSH2 0x42A SWAP2 SWAP1 PUSH2 0x22ED JUMP JUMPDEST PUSH1 0x40 MLOAD DUP1 SWAP2 SUB SWAP1 RETURN JUMPDEST CALLVALUE DUP1 ISZERO PUSH2 0x43E JUMPI PUSH0 DUP1 REVERT JUMPDEST POP PUSH2 0x447 PUSH2 0xAFB JUMP JUMPDEST PUSH1 0x40 MLOAD PUSH2 0x454 SWAP2 SWAP1 PUSH2 0x2077 JUMP JUMPDEST PUSH1 0x40 MLOAD DUP1 SWAP2 SUB SWAP1 RETURN JUMPDEST CALLVALUE DUP1 ISZERO PUSH2 0x468 JUMPI PUSH0 DUP1 REVERT JUMPDEST POP PUSH2 0x471 PUSH2 0xB3E JUMP JUMPDEST PUSH1 0x40 MLOAD PUSH2 0x47E SWAP2 SWAP1 PUSH2 0x2077 JUMP JUMPDEST PUSH1 0x40 MLOAD DUP1 SWAP2 SUB SWAP1 RETURN JUMPDEST CALLVALUE DUP1 ISZERO PUSH2 0x492 JUMPI PUSH0 DUP1 REVERT JUMPDEST POP PUSH2 0x49B PUSH2 0xB44 JUMP JUMPDEST PUSH1 0x40 MLOAD PUSH2 0x4A8 SWAP2 SWAP1 PUSH2 0x2077 JUMP JUMPDEST PUSH1 0x40 MLOAD DUP1 SWAP2 SUB SWAP1 RETURN JUMPDEST CALLVALUE DUP1 ISZERO PUSH2 0x4BC JUMPI PUSH0 DUP1 REVERT JUMPDEST POP PUSH2 0x4D7 PUSH1 0x4 DUP1 CALLDATASIZE SUB DUP2 ADD SWAP1 PUSH2 0x4D2 SWAP2 SWAP1 PUSH2 0x2219 JUMP JUMPDEST PUSH2 0xB4A JUMP JUMPDEST PUSH1 0x40 MLOAD PUSH2 0x4E4 SWAP2 SWAP1 PUSH2 0x2077 JUMP JUMPDEST PUSH1 0x40 MLOAD DUP1 SWAP2 SUB SWAP1 RETURN JUMPDEST CALLVALUE DUP1 ISZERO PUSH2 0x4F8 JUMPI PUSH0 DUP1 REVERT JUMPDEST POP PUSH2 0x501 PUSH2 0xB8F JUMP JUMPDEST STOP JUMPDEST CALLVALUE DUP1 ISZERO PUSH2 0x50E JUMPI PUSH0 DUP1 REVERT JUMPDEST POP PUSH2 0x517 PUSH2 0xBA2 JUMP JUMPDEST PUSH1 0x40 MLOAD PUSH2 0x524 SWAP2 SWAP1 PUSH2 0x2077 JUMP JUMPDEST PUSH1 0x40 MLOAD DUP1 SWAP2 SUB SWAP1 RETURN JUMPDEST CALLVALUE DUP1 ISZERO PUSH2 0x538 JUMPI PUSH0 DUP1 REVERT JUMPDEST POP PUSH2 0x553 PUSH1 0x4 DUP1 CALLDATASIZE SUB DUP2 ADD SWAP1 PUSH2 0x54E SWAP2 SWAP1 PUSH2 0x2306 JUMP JUMPDEST PUSH2 0xBA8 JUMP JUMPDEST STOP JUMPDEST CALLVALUE DUP1 ISZERO PUSH2 0x560 JUMPI PUSH0 DUP1 REVERT JUMPDEST POP PUSH2 0x569 PUSH2 0xD26 JUMP JUMPDEST STOP JUMPDEST CALLVALUE DUP1 ISZERO PUSH2 0x576 JUMPI PUSH0 DUP1 REVERT JUMPDEST POP PUSH2 0x591 PUSH1 0x4 DUP1 CALLDATASIZE SUB DUP2 ADD SWAP1 PUSH2 0x58C SWAP2 SWAP1 PUSH2 0x2219 JUMP JUMPDEST PUSH2 0xE67 JUMP JUMPDEST PUSH1 0x40 MLOAD PUSH2 0x59E SWAP2 SWAP1 PUSH2 0x2077 JUMP JUMPDEST PUSH1 0x40 MLOAD DUP1 SWAP2 SUB SWAP1 RETURN JUMPDEST CALLVALUE DUP1 ISZERO PUSH2 0x5B2 JUMPI PUSH0 DUP1 REVERT JUMPDEST POP PUSH2 0x5BB PUSH2 0xED8 JUMP JUMPDEST PUSH1 0x40 MLOAD PUSH2 0x5C8 SWAP2 SWAP1 PUSH2 0x2340 JUMP JUMPDEST PUSH1 0x40 MLOAD DUP1 SWAP2 SUB SWAP1 RETURN JUMPDEST CALLVALUE DUP1 ISZERO PUSH2 0x5DC JUMPI PUSH0 DUP1 REVERT JUMPDEST POP PUSH2 0x5F7 PUSH1 0x4 DUP1 CALLDATASIZE SUB DUP2 ADD SWAP1 PUSH2 0x5F2 SWAP2 SWAP1 PUSH2 0x2219 JUMP JUMPDEST PUSH2 0xF00 JUMP JUMPDEST PUSH1 0x40 MLOAD PUSH2 0x604 SWAP2 SWAP1 PUSH2 0x2077 JUMP JUMPDEST PUSH1 0x40 MLOAD DUP1 SWAP2 SUB SWAP1 RETURN JUMPDEST CALLVALUE DUP1 ISZERO PUSH2 0x618 JUMPI PUSH0 DUP1 REVERT JUMPDEST POP PUSH2 0x621 PUSH2 0xF15 JUMP JUMPDEST PUSH1 0x40 MLOAD PUSH2 0x62E SWAP2 SWAP1 PUSH2 0x2100 JUMP JUMPDEST PUSH1 0x40 MLOAD DUP1 SWAP2 SUB SWAP1 RETURN JUMPDEST CALLVALUE DUP1 ISZERO PUSH2 0x642 JUMPI PUSH0 DUP1 REVERT JUMPDEST POP PUSH2 0x65D PUSH1 0x4 DUP1 CALLDATASIZE SUB DUP2 ADD SWAP1 PUSH2 0x658 SWAP2 SWAP1 PUSH2 0x2219 JUMP JUMPDEST PUSH2 0xFA5 JUMP JUMPDEST PUSH1 0x40 MLOAD PUSH2 0x66A SWAP2 SWAP1 PUSH2 0x2200 JUMP JUMPDEST PUSH1 0x40 MLOAD DUP1 SWAP2 SUB SWAP1 RETURN JUMPDEST CALLVALUE DUP1 ISZERO PUSH2 0x67E JUMPI PUSH0 DUP1 REVERT JUMPDEST POP PUSH2 0x699 PUSH1 0x4 DUP1 CALLDATASIZE SUB DUP2 ADD SWAP1 PUSH2 0x694 SWAP2 SWAP1 PUSH2 0x2219 JUMP JUMPDEST PUSH2 0xFC2 JUMP JUMPDEST PUSH1 0x40 MLOAD PUSH2 0x6A6 SWAP2 SWAP1 PUSH2 0x2340 JUMP JUMPDEST PUSH1 0x40 MLOAD DUP1 SWAP2 SUB SWAP1 RETURN JUMPDEST CALLVALUE DUP1 ISZERO PUSH2 0x6BA JUMPI PUSH0 DUP1 REVERT JUMPDEST POP PUSH2 0x6D5 PUSH1 0x4 DUP1 CALLDATASIZE SUB DUP2 ADD SWAP1 PUSH2 0x6D0 SWAP2 SWAP1 PUSH2 0x2219 JUMP JUMPDEST PUSH2 0xFF2 JUMP JUMPDEST STOP JUMPDEST CALLVALUE DUP1 ISZERO PUSH2 0x6E2 JUMPI PUSH0 DUP1 REVERT JUMPDEST POP PUSH2 0x6EB PUSH2 0x12F3 JUMP JUMPDEST STOP JUMPDEST CALLVALUE DUP1 ISZERO PUSH2 0x6F8 JUMPI PUSH0 DUP1 REVERT JUMPDEST POP PUSH2 0x713 PUSH1 0x4 DUP1 CALLDATASIZE SUB DUP2 ADD SWAP1 PUSH2 0x70E SWAP2 SWAP1 PUSH2 0x21A8 JUMP JUMPDEST PUSH2 0x14FE JUMP JUMPDEST PUSH1 0x40 MLOAD PUSH2 0x720 SWAP2 SWAP1 PUSH2 0x2200 JUMP JUMPDEST PUSH1 0x40 MLOAD DUP1 SWAP2 SUB SWAP1 RETURN JUMPDEST CALLVALUE DUP1 ISZERO PUSH2 0x734 JUMPI PUSH0 DUP1 REVERT JUMPDEST POP PUSH2 0x73D PUSH2 0x1520 JUMP JUMPDEST PUSH1 0x40 MLOAD PUSH2 0x74A SWAP2 SWAP1 PUSH2 0x2077 JUMP JUMPDEST PUSH1 0x40 MLOAD DUP1 SWAP2 SUB SWAP1 RETURN JUMPDEST CALLVALUE DUP1 ISZERO PUSH2 0x75E JUMPI PUSH0 DUP1 REVERT JUMPDEST POP PUSH2 0x779 PUSH1 0x4 DUP1 CALLDATASIZE SUB DUP2 ADD SWAP1 PUSH2 0x774 SWAP2 SWAP1 PUSH2 0x2219 JUMP JUMPDEST PUSH2 0x1526 JUMP JUMPDEST PUSH1 0x40 MLOAD PUSH2 0x786 SWAP2 SWAP1 PUSH2 0x2077 JUMP JUMPDEST PUSH1 0x40 MLOAD DUP1 SWAP2 SUB SWAP1 RETURN JUMPDEST PUSH2 0x797 PUSH2 0x153B JUMP JUMPDEST STOP JUMPDEST CALLVALUE DUP1 ISZERO PUSH2 0x7A4 JUMPI PUSH0 DUP1 REVERT JUMPDEST POP PUSH2 0x7AD PUSH2 0x16D4 JUMP JUMPDEST PUSH1 0x40 MLOAD PUSH2 0x7BA SWAP2 SWAP1 PUSH2 0x2077 JUMP JUMPDEST PUSH1 0x40 MLOAD DUP1 SWAP2 SUB SWAP1 RETURN JUMPDEST CALLVALUE DUP1 ISZERO PUSH2 0x7CE JUMPI PUSH0 DUP1 REVERT JUMPDEST POP PUSH2 0x7E9 PUSH1 0x4 DUP1 CALLDATASIZE SUB DUP2 ADD SWAP1 PUSH2 0x7E4 SWAP2 SWAP1 PUSH2 0x2359 JUMP JUMPDEST PUSH2 0x175D JUMP JUMPDEST PUSH1 0x40 MLOAD PUSH2 0x7F6 SWAP2 SWAP1 PUSH2 0x2077 JUMP JUMPDEST PUSH1 0x40 MLOAD DUP1 SWAP2 SUB SWAP1 RETURN JUMPDEST CALLVALUE DUP1 ISZERO PUSH2 0x80A JUMPI PUSH0 DUP1 REVERT JUMPDEST POP PUSH2 0x825 PUSH1 0x4 DUP1 CALLDATASIZE SUB DUP2 ADD SWAP1 PUSH2 0x820 SWAP2 SWAP1 PUSH2 0x2219 JUMP JUMPDEST PUSH2 0x17DF JUMP JUMPDEST STOP JUMPDEST CALLVALUE DUP1 ISZERO PUSH2 0x832 JUMPI PUSH0 DUP1 REVERT JUMPDEST POP PUSH2 0x83B PUSH2 0x1863 JUMP JUMPDEST PUSH1 0x40 MLOAD PUSH2 0x848 SWAP2 SWAP1 PUSH2 0x2077 JUMP JUMPDEST PUSH1 0x40 MLOAD DUP1 SWAP2 SUB SWAP1 RETURN JUMPDEST CALLVALUE DUP1 ISZERO PUSH2 0x85C JUMPI PUSH0 DUP1 REVERT JUMPDEST POP PUSH2 0x877 PUSH1 0x4 DUP1 CALLDATASIZE SUB DUP2 ADD SWAP1 PUSH2 0x872 SWAP2 SWAP1 PUSH2 0x2219 JUMP JUMPDEST PUSH2 0x1869 JUMP JUMPDEST PUSH1 0x40 MLOAD PUSH2 0x884 SWAP2 SWAP1 PUSH2 0x2077 JUMP JUMPDEST PUSH1 0x40 MLOAD DUP1 SWAP2 SUB SWAP1 RETURN JUMPDEST CALLVALUE DUP1 ISZERO PUSH2 0x898 JUMPI PUSH0 DUP1 REVERT JUMPDEST POP PUSH2 0x8B3 PUSH1 0x4 DUP1 CALLDATASIZE SUB DUP2 ADD SWAP1 PUSH2 0x8AE SWAP2 SWAP1 PUSH2 0x2294 JUMP JUMPDEST PUSH2 0x187E JUMP JUMPDEST STOP JUMPDEST PUSH1 0x9 SLOAD DUP2 JUMP JUMPDEST PUSH1 0x6 SLOAD DUP2 JUMP JUMPDEST PUSH1 0x60 PUSH1 0x3 DUP1 SLOAD PUSH2 0x8D0 SWAP1 PUSH2 0x23C4 JUMP JUMPDEST DUP1 PUSH1 0x1F ADD PUSH1 0x20 DUP1 SWAP2 DIV MUL PUSH1 0x20 ADD PUSH1 0x40 MLOAD SWAP1 DUP2 ADD PUSH1 0x40 MSTORE DUP1 SWAP3 SWAP2 SWAP1 DUP2 DUP2 MSTORE PUSH1 0x20 ADD DUP3 DUP1 SLOAD PUSH2 0x8FC SWAP1 PUSH2 0x23C4 JUMP JUMPDEST DUP1 ISZERO PUSH2 0x947 JUMPI DUP1 PUSH1 0x1F LT PUSH2 0x91E JUMPI PUSH2 0x100 DUP1 DUP4 SLOAD DIV MUL DUP4 MSTORE SWAP2 PUSH1 0x20 ADD SWAP2 PUSH2 0x947 JUMP JUMPDEST DUP3 ADD SWAP2 SWAP1 PUSH0 MSTORE PUSH1 0x20 PUSH0 KECCAK256 SWAP1 JUMPDEST DUP2 SLOAD DUP2 MSTORE SWAP1 PUSH1 0x1 ADD SWAP1 PUSH1 0x20 ADD DUP1 DUP4 GT PUSH2 0x92A JUMPI DUP3 SWAP1 SUB PUSH1 0x1F AND DUP3 ADD SWAP2 JUMPDEST POP POP POP POP POP SWAP1 POP SWAP1 JUMP JUMPDEST PUSH0 DUP1 PUSH2 0x95B PUSH2 0x1912 JUMP JUMPDEST SWAP1 POP PUSH2 0x968 DUP2 DUP6 DUP6 PUSH2 0x1919 JUMP JUMPDEST PUSH1 0x1 SWAP2 POP POP SWAP3 SWAP2 POP POP JUMP JUMPDEST PUSH0 DUP1 PUSH3 0x93A80 PUSH1 0xF PUSH0 DUP6 PUSH20 0xFFFFFFFFFFFFFFFFFFFFFFFFFFFFFFFFFFFFFFFF AND PUSH20 0xFFFFFFFFFFFFFFFFFFFFFFFFFFFFFFFFFFFFFFFF AND DUP2 MSTORE PUSH1 0x20 ADD SWAP1 DUP2 MSTORE PUSH1 0x20 ADD PUSH0 KECCAK256 SLOAD TIMESTAMP PUSH2 0x9C2 SWAP2 SWAP1 PUSH2 0x2421 JUMP JUMPDEST PUSH2 0x9CC SWAP2 SWAP1 PUSH2 0x2481 JUMP JUMPDEST SWAP1 POP PUSH1 0x64 DUP2 PUSH1 0xD SLOAD PUSH1 0xE PUSH0 DUP8 PUSH20 0xFFFFFFFFFFFFFFFFFFFFFFFFFFFFFFFFFFFFFFFF AND PUSH20 0xFFFFFFFFFFFFFFFFFFFFFFFFFFFFFFFFFFFFFFFF AND DUP2 MSTORE PUSH1 0x20 ADD SWAP1 DUP2 MSTORE PUSH1 0x20 ADD PUSH0 KECCAK256 SLOAD PUSH2 0xA1C SWAP2 SWAP1 PUSH2 0x24B1 JUMP JUMPDEST PUSH2 0xA26 SWAP2 SWAP1 PUSH2 0x24B1 JUMP JUMPDEST PUSH2 0xA30 SWAP2 SWAP1 PUSH2 0x2481 JUMP JUMPDEST SWAP2 POP POP SWAP2 SWAP1 POP JUMP JUMPDEST PUSH0 PUSH1 0x2 SLOAD SWAP1 POP SWAP1 JUMP JUMPDEST PUSH1 0x8 SLOAD DUP2 JUMP JUMPDEST PUSH0 DUP1 PUSH2 0xA51 PUSH2 0x1912 JUMP JUMPDEST SWAP1 POP PUSH2 0xA5E DUP6 DUP3 DUP6 PUSH2 0x192B JUMP JUMPDEST PUSH2 0xA69 DUP6 DUP6 DUP6 PUSH2 0x19BE JUMP JUMPDEST PUSH1 0x1 SWAP2 POP POP SWAP4 SWAP3 POP POP POP JUMP JUMPDEST PUSH0 DUP3 DUP3 LT ISZERO PUSH2 0xAB9 JUMPI PUSH1 0x40 MLOAD PUSH32 0x8C379A000000000000000000000000000000000000000000000000000000000 DUP2 MSTORE PUSH1 0x4 ADD PUSH2 0xAB0 SWAP1 PUSH2 0x2562 JUMP JUMPDEST PUSH1 0x40 MLOAD DUP1 SWAP2 SUB SWAP1 REVERT JUMPDEST PUSH0 PUSH3 0x93A80 DUP5 DUP5 PUSH2 0xACA SWAP2 SWAP1 PUSH2 0x2421 JUMP JUMPDEST PUSH2 0xAD4 SWAP2 SWAP1 PUSH2 0x2481 JUMP JUMPDEST SWAP1 POP DUP1 SWAP2 POP POP SWAP3 SWAP2 POP POP JUMP JUMPDEST PUSH1 0x5 PUSH1 0x14 SWAP1 SLOAD SWAP1 PUSH2 0x100 EXP SWAP1 DIV PUSH1 0xFF AND DUP2 JUMP JUMPDEST PUSH0 PUSH1 0x12 SWAP1 POP SWAP1 JUMP JUMPDEST PUSH0 DUP1 PUSH2 0xB09 PUSH1 0x6 SLOAD TIMESTAMP PUSH2 0xA75 JUMP JUMPDEST SWAP1 POP PUSH0 PUSH1 0xC SLOAD DUP3 PUSH1 0x8 SLOAD PUSH1 0x9 SLOAD PUSH2 0xB20 SWAP2 SWAP1 PUSH2 0x2421 JUMP JUMPDEST PUSH2 0xB2A SWAP2 SWAP1 PUSH2 0x24B1 JUMP JUMPDEST PUSH2 0xB34 SWAP2 SWAP1 PUSH2 0x2481 JUMP JUMPDEST SWAP1 POP DUP1 SWAP3 POP POP POP SWAP1 JUMP JUMPDEST PUSH1 0xD SLOAD DUP2 JUMP JUMPDEST PUSH1 0xB SLOAD DUP2 JUMP JUMPDEST PUSH0 DUP1 PUSH0 DUP4 PUSH20 0xFFFFFFFFFFFFFFFFFFFFFFFFFFFFFFFFFFFFFFFF AND PUSH20 0xFFFFFFFFFFFFFFFFFFFFFFFFFFFFFFFFFFFFFFFF AND DUP2 MSTORE PUSH1 0x20 ADD SWAP1 DUP2 MSTORE PUSH1 0x20 ADD PUSH0 KECCAK256 SLOAD SWAP1 POP SWAP2 SWAP1 POP JUMP JUMPDEST PUSH2 0xB97 PUSH2 0x1AAE JUMP JUMPDEST PUSH2 0xBA0 PUSH0 PUSH2 0x1B35 JUMP JUMPDEST JUMP JUMPDEST PUSH1 0xA SLOAD DUP2 JUMP JUMPDEST PUSH0 DUP2 GT PUSH2 0xBEA JUMPI PUSH1 0x40 MLOAD PUSH32 0x8C379A000000000000000000000000000000000000000000000000000000000 DUP2 MSTORE PUSH1 0x4 ADD PUSH2 0xBE1 SWAP1 PUSH2 0x25F0 JUMP JUMPDEST PUSH1 0x40 MLOAD DUP1 SWAP2 SUB SWAP1 REVERT JUMPDEST DUP1 PUSH2 0xBF4 CALLER PUSH2 0xB4A JUMP JUMPDEST LT ISZERO PUSH2 0xC35 JUMPI PUSH1 0x40 MLOAD PUSH32 0x8C379A000000000000000000000000000000000000000000000000000000000 DUP2 MSTORE PUSH1 0x4 ADD PUSH2 0xC2C SWAP1 PUSH2 0x2658 JUMP JUMPDEST PUSH1 0x40 MLOAD DUP1 SWAP2 SUB SWAP1 REVERT JUMPDEST PUSH2 0xC40 CALLER ADDRESS DUP4 PUSH2 0x19BE JUMP JUMPDEST DUP1 PUSH1 0xE PUSH0 CALLER PUSH20 0xFFFFFFFFFFFFFFFFFFFFFFFFFFFFFFFFFFFFFFFF AND PUSH20 0xFFFFFFFFFFFFFFFFFFFFFFFFFFFFFFFFFFFFFFFF AND DUP2 MSTORE PUSH1 0x20 ADD SWAP1 DUP2 MSTORE PUSH1 0x20 ADD PUSH0 KECCAK256 PUSH0 DUP3 DUP3 SLOAD PUSH2 0xC8C SWAP2 SWAP1 PUSH2 0x2676 JUMP JUMPDEST SWAP3 POP POP DUP2 SWAP1 SSTORE POP TIMESTAMP PUSH1 0xF PUSH0 CALLER PUSH20 0xFFFFFFFFFFFFFFFFFFFFFFFFFFFFFFFFFFFFFFFF AND PUSH20 0xFFFFFFFFFFFFFFFFFFFFFFFFFFFFFFFFFFFFFFFF AND DUP2 MSTORE PUSH1 0x20 ADD SWAP1 DUP2 MSTORE PUSH1 0x20 ADD PUSH0 KECCAK256 DUP2 SWAP1 SSTORE POP CALLER PUSH20 0xFFFFFFFFFFFFFFFFFFFFFFFFFFFFFFFFFFFFFFFF AND PUSH32 0xB539CA1E5C8D398DDF1C41C30166F33404941683BE4683319B57669A93DAD4EF DUP3 PUSH1 0x40 MLOAD PUSH2 0xD1B SWAP2 SWAP1 PUSH2 0x2077 JUMP JUMPDEST PUSH1 0x40 MLOAD DUP1 SWAP2 SUB SWAP1 LOG2 POP JUMP JUMPDEST PUSH1 0x1 ISZERO ISZERO PUSH1 0x5 PUSH1 0x14 SWAP1 SLOAD SWAP1 PUSH2 0x100 EXP SWAP1 DIV PUSH1 0xFF AND ISZERO ISZERO EQ PUSH2 0xD7C JUMPI PUSH1 0x40 MLOAD PUSH32 0x8C379A000000000000000000000000000000000000000000000000000000000 DUP2 MSTORE PUSH1 0x4 ADD PUSH2 0xD73 SWAP1 PUSH2 0x26F3 JUMP JUMPDEST PUSH1 0x40 MLOAD DUP1 SWAP2 SUB SWAP1 REVERT JUMPDEST PUSH0 PUSH2 0xD86 CALLER PUSH2 0xE67 JUMP JUMPDEST SWAP1 POP PUSH0 DUP2 GT PUSH2 0xDCA JUMPI PUSH1 0x40 MLOAD PUSH32 0x8C379A000000000000000000000000000000000000000000000000000000000 DUP2 MSTORE PUSH1 0x4 ADD PUSH2 0xDC1 SWAP1 PUSH2 0x275B JUMP JUMPDEST PUSH1 0x40 MLOAD DUP1 SWAP2 SUB SWAP1 REVERT JUMPDEST PUSH2 0xDD4 CALLER DUP3 PUSH2 0x1BF8 JUMP JUMPDEST PUSH0 PUSH1 0x12 PUSH0 CALLER PUSH20 0xFFFFFFFFFFFFFFFFFFFFFFFFFFFFFFFFFFFFFFFF AND PUSH20 0xFFFFFFFFFFFFFFFFFFFFFFFFFFFFFFFFFFFFFFFF AND DUP2 MSTORE PUSH1 0x20 ADD SWAP1 DUP2 MSTORE PUSH1 0x20 ADD PUSH0 KECCAK256 DUP2 SWAP1 SSTORE POP CALLER PUSH20 0xFFFFFFFFFFFFFFFFFFFFFFFFFFFFFFFFFFFFFFFF AND PUSH32 0xF0BC0A70FE19EF2D8DC1E1948B338A1184184FB1EA3AC836F24065828816D68D DUP3 PUSH1 0x40 MLOAD PUSH2 0xE5C SWAP2 SWAP1 PUSH2 0x2077 JUMP JUMPDEST PUSH1 0x40 MLOAD DUP1 SWAP2 SUB SWAP1 LOG2 POP JUMP JUMPDEST PUSH0 PUSH2 0xE70 PUSH2 0xAF3 JUMP JUMPDEST PUSH1 0xA PUSH2 0xE7C SWAP2 SWAP1 PUSH2 0x28A8 JUMP JUMPDEST PUSH2 0x1F4 PUSH1 0x12 PUSH0 DUP6 PUSH20 0xFFFFFFFFFFFFFFFFFFFFFFFFFFFFFFFFFFFFFFFF AND PUSH20 0xFFFFFFFFFFFFFFFFFFFFFFFFFFFFFFFFFFFFFFFF AND DUP2 MSTORE PUSH1 0x20 ADD SWAP1 DUP2 MSTORE PUSH1 0x20 ADD PUSH0 KECCAK256 SLOAD PUSH2 0xEC7 SWAP2 SWAP1 PUSH2 0x24B1 JUMP JUMPDEST PUSH2 0xED1 SWAP2 SWAP1 PUSH2 0x24B1 JUMP JUMPDEST SWAP1 POP SWAP2 SWAP1 POP JUMP JUMPDEST PUSH0 PUSH1 0x5 PUSH0 SWAP1 SLOAD SWAP1 PUSH2 0x100 EXP SWAP1 DIV PUSH20 0xFFFFFFFFFFFFFFFFFFFFFFFFFFFFFFFFFFFFFFFF AND SWAP1 POP SWAP1 JUMP JUMPDEST PUSH1 0xF PUSH1 0x20 MSTORE DUP1 PUSH0 MSTORE PUSH1 0x40 PUSH0 KECCAK256 PUSH0 SWAP2 POP SWAP1 POP SLOAD DUP2 JUMP JUMPDEST PUSH1 0x60 PUSH1 0x4 DUP1 SLOAD PUSH2 0xF24 SWAP1 PUSH2 0x23C4 JUMP JUMPDEST DUP1 PUSH1 0x1F ADD PUSH1 0x20 DUP1 SWAP2 DIV MUL PUSH1 0x20 ADD PUSH1 0x40 MLOAD SWAP1 DUP2 ADD PUSH1 0x40 MSTORE DUP1 SWAP3 SWAP2 SWAP1 DUP2 DUP2 MSTORE PUSH1 0x20 ADD DUP3 DUP1 SLOAD PUSH2 0xF50 SWAP1 PUSH2 0x23C4 JUMP JUMPDEST DUP1 ISZERO PUSH2 0xF9B JUMPI DUP1 PUSH1 0x1F LT PUSH2 0xF72 JUMPI PUSH2 0x100 DUP1 DUP4 SLOAD DIV MUL DUP4 MSTORE SWAP2 PUSH1 0x20 ADD SWAP2 PUSH2 0xF9B JUMP JUMPDEST DUP3 ADD SWAP2 SWAP1 PUSH0 MSTORE PUSH1 0x20 PUSH0 KECCAK256 SWAP1 JUMPDEST DUP2 SLOAD DUP2 MSTORE SWAP1 PUSH1 0x1 ADD SWAP1 PUSH1 0x20 ADD DUP1 DUP4 GT PUSH2 0xF7E JUMPI DUP3 SWAP1 SUB PUSH1 0x1F AND DUP3 ADD SWAP2 JUMPDEST POP POP POP POP POP SWAP1 POP SWAP1 JUMP JUMPDEST PUSH1 0x10 PUSH1 0x20 MSTORE DUP1 PUSH0 MSTORE PUSH1 0x40 PUSH0 KECCAK256 PUSH0 SWAP2 POP SLOAD SWAP1 PUSH2 0x100 EXP SWAP1 DIV PUSH1 0xFF AND DUP2 JUMP JUMPDEST PUSH1 0x11 PUSH1 0x20 MSTORE DUP1 PUSH0 MSTORE PUSH1 0x40 PUSH0 KECCAK256 PUSH0 SWAP2 POP SLOAD SWAP1 PUSH2 0x100 EXP SWAP1 DIV PUSH20 0xFFFFFFFFFFFFFFFFFFFFFFFFFFFFFFFFFFFFFFFF AND DUP2 JUMP JUMPDEST PUSH1 0x10 PUSH0 CALLER PUSH20 0xFFFFFFFFFFFFFFFFFFFFFFFFFFFFFFFFFFFFFFFF AND PUSH20 0xFFFFFFFFFFFFFFFFFFFFFFFFFFFFFFFFFFFFFFFF AND DUP2 MSTORE PUSH1 0x20 ADD SWAP1 DUP2 MSTORE PUSH1 0x20 ADD PUSH0 KECCAK256 PUSH0 SWAP1 SLOAD SWAP1 PUSH2 0x100 EXP SWAP1 DIV PUSH1 0xFF AND ISZERO PUSH2 0x107C JUMPI PUSH1 0x40 MLOAD PUSH32 0x8C379A000000000000000000000000000000000000000000000000000000000 DUP2 MSTORE PUSH1 0x4 ADD PUSH2 0x1073 SWAP1 PUSH2 0x293C JUMP JUMPDEST PUSH1 0x40 MLOAD DUP1 SWAP2 SUB SWAP1 REVERT JUMPDEST DUP1 PUSH20 0xFFFFFFFFFFFFFFFFFFFFFFFFFFFFFFFFFFFFFFFF AND CALLER PUSH20 0xFFFFFFFFFFFFFFFFFFFFFFFFFFFFFFFFFFFFFFFF AND SUB PUSH2 0x10EA JUMPI PUSH1 0x40 MLOAD PUSH32 0x8C379A000000000000000000000000000000000000000000000000000000000 DUP2 MSTORE PUSH1 0x4 ADD PUSH2 0x10E1 SWAP1 PUSH2 0x29A4 JUMP JUMPDEST PUSH1 0x40 MLOAD DUP1 SWAP2 SUB SWAP1 REVERT JUMPDEST PUSH1 0x1 PUSH1 0x10 PUSH0 CALLER PUSH20 0xFFFFFFFFFFFFFFFFFFFFFFFFFFFFFFFFFFFFFFFF AND PUSH20 0xFFFFFFFFFFFFFFFFFFFFFFFFFFFFFFFFFFFFFFFF AND DUP2 MSTORE PUSH1 0x20 ADD SWAP1 DUP2 MSTORE PUSH1 0x20 ADD PUSH0 KECCAK256 PUSH0 PUSH2 0x100 EXP DUP2 SLOAD DUP2 PUSH1 0xFF MUL NOT AND SWAP1 DUP4 ISZERO ISZERO MUL OR SWAP1 SSTORE POP PUSH0 PUSH20 0xFFFFFFFFFFFFFFFFFFFFFFFFFFFFFFFFFFFFFFFF AND DUP2 PUSH20 0xFFFFFFFFFFFFFFFFFFFFFFFFFFFFFFFFFFFFFFFF AND EQ ISZERO DUP1 ISZERO PUSH2 0x11C1 JUMPI POP PUSH1 0x10 PUSH0 DUP3 PUSH20 0xFFFFFFFFFFFFFFFFFFFFFFFFFFFFFFFFFFFFFFFF AND PUSH20 0xFFFFFFFFFFFFFFFFFFFFFFFFFFFFFFFFFFFFFFFF AND DUP2 MSTORE PUSH1 0x20 ADD SWAP1 DUP2 MSTORE PUSH1 0x20 ADD PUSH0 KECCAK256 PUSH0 SWAP1 SLOAD SWAP1 PUSH2 0x100 EXP SWAP1 DIV PUSH1 0xFF AND JUMPDEST ISZERO PUSH2 0x1296 JUMPI DUP1 PUSH1 0x11 PUSH0 CALLER PUSH20 0xFFFFFFFFFFFFFFFFFFFFFFFFFFFFFFFFFFFFFFFF AND PUSH20 0xFFFFFFFFFFFFFFFFFFFFFFFFFFFFFFFFFFFFFFFF AND DUP2 MSTORE PUSH1 0x20 ADD SWAP1 DUP2 MSTORE PUSH1 0x20 ADD PUSH0 KECCAK256 PUSH0 PUSH2 0x100 EXP DUP2 SLOAD DUP2 PUSH20 0xFFFFFFFFFFFFFFFFFFFFFFFFFFFFFFFFFFFFFFFF MUL NOT AND SWAP1 DUP4 PUSH20 0xFFFFFFFFFFFFFFFFFFFFFFFFFFFFFFFFFFFFFFFF AND MUL OR SWAP1 SSTORE POP PUSH1 0x1 PUSH1 0x12 PUSH0 DUP4 PUSH20 0xFFFFFFFFFFFFFFFFFFFFFFFFFFFFFFFFFFFFFFFF AND PUSH20 0xFFFFFFFFFFFFFFFFFFFFFFFFFFFFFFFFFFFFFFFF AND DUP2 MSTORE PUSH1 0x20 ADD SWAP1 DUP2 MSTORE PUSH1 0x20 ADD PUSH0 KECCAK256 PUSH0 DUP3 DUP3 SLOAD PUSH2 0x128E SWAP2 SWAP1 PUSH2 0x2676 JUMP JUMPDEST SWAP3 POP POP DUP2 SWAP1 SSTORE POP JUMPDEST DUP1 PUSH20 0xFFFFFFFFFFFFFFFFFFFFFFFFFFFFFFFFFFFFFFFF AND CALLER PUSH20 0xFFFFFFFFFFFFFFFFFFFFFFFFFFFFFFFFFFFFFFFF AND PUSH32 0x4BC18AA4B0095C9A3B5CDF42D2322D5A145591B04045988A995A5DA426075457 PUSH1 0x40 MLOAD PUSH1 0x40 MLOAD DUP1 SWAP2 SUB SWAP1 LOG3 POP JUMP JUMPDEST PUSH0 PUSH1 0xE PUSH0 CALLER PUSH20 0xFFFFFFFFFFFFFFFFFFFFFFFFFFFFFFFFFFFFFFFF AND PUSH20 0xFFFFFFFFFFFFFFFFFFFFFFFFFFFFFFFFFFFFFFFF AND DUP2 MSTORE PUSH1 0x20 ADD SWAP1 DUP2 MSTORE PUSH1 0x20 ADD PUSH0 KECCAK256 SLOAD SWAP1 POP PUSH0 DUP2 GT PUSH2 0x1376 JUMPI PUSH1 0x40 MLOAD PUSH32 0x8C379A000000000000000000000000000000000000000000000000000000000 DUP2 MSTORE PUSH1 0x4 ADD PUSH2 0x136D SWAP1 PUSH2 0x2A0C JUMP JUMPDEST PUSH1 0x40 MLOAD DUP1 SWAP2 SUB SWAP1 REVERT JUMPDEST PUSH3 0x24EA00 PUSH1 0xF PUSH0 CALLER PUSH20 0xFFFFFFFFFFFFFFFFFFFFFFFFFFFFFFFFFFFFFFFF AND PUSH20 0xFFFFFFFFFFFFFFFFFFFFFFFFFFFFFFFFFFFFFFFF AND DUP2 MSTORE PUSH1 0x20 ADD SWAP1 DUP2 MSTORE PUSH1 0x20 ADD PUSH0 KECCAK256 SLOAD PUSH2 0x13C2 SWAP2 SWAP1 PUSH2 0x2676 JUMP JUMPDEST TIMESTAMP LT ISZERO PUSH2 0x1404 JUMPI PUSH1 0x40 MLOAD PUSH32 0x8C379A000000000000000000000000000000000000000000000000000000000 DUP2 MSTORE PUSH1 0x4 ADD PUSH2 0x13FB SWAP1 PUSH2 0x2A74 JUMP JUMPDEST PUSH1 0x40 MLOAD DUP1 SWAP2 SUB SWAP1 REVERT JUMPDEST PUSH0 PUSH2 0x140E CALLER PUSH2 0x973 JUMP JUMPDEST SWAP1 POP PUSH0 PUSH1 0xE PUSH0 CALLER PUSH20 0xFFFFFFFFFFFFFFFFFFFFFFFFFFFFFFFFFFFFFFFF AND PUSH20 0xFFFFFFFFFFFFFFFFFFFFFFFFFFFFFFFFFFFFFFFF AND DUP2 MSTORE PUSH1 0x20 ADD SWAP1 DUP2 MSTORE PUSH1 0x20 ADD PUSH0 KECCAK256 DUP2 SWAP1 SSTORE POP PUSH0 PUSH1 0xF PUSH0 CALLER PUSH20 0xFFFFFFFFFFFFFFFFFFFFFFFFFFFFFFFFFFFFFFFF AND PUSH20 0xFFFFFFFFFFFFFFFFFFFFFFFFFFFFFFFFFFFFFFFF AND DUP2 MSTORE PUSH1 0x20 ADD SWAP1 DUP2 MSTORE PUSH1 0x20 ADD PUSH0 KECCAK256 DUP2 SWAP1 SSTORE POP PUSH2 0x14AA ADDRESS CALLER DUP4 DUP6 PUSH2 0x14A5 SWAP2 SWAP1 PUSH2 0x2676 JUMP JUMPDEST PUSH2 0x19BE JUMP JUMPDEST CALLER PUSH20 0xFFFFFFFFFFFFFFFFFFFFFFFFFFFFFFFFFFFFFFFF AND PUSH32 0x6F2D3E000C89D37446B7C0374C0125068FF316D1E3EE302336478A8CD03C2336 DUP4 DUP4 PUSH1 0x40 MLOAD PUSH2 0x14F2 SWAP3 SWAP2 SWAP1 PUSH2 0x2A92 JUMP JUMPDEST PUSH1 0x40 MLOAD DUP1 SWAP2 SUB SWAP1 LOG2 POP POP JUMP JUMPDEST PUSH0 DUP1 PUSH2 0x1508 PUSH2 0x1912 JUMP JUMPDEST SWAP1 POP PUSH2 0x1515 DUP2 DUP6 DUP6 PUSH2 0x19BE JUMP JUMPDEST PUSH1 0x1 SWAP2 POP POP SWAP3 SWAP2 POP POP JUMP JUMPDEST PUSH1 0x7 SLOAD DUP2 JUMP JUMPDEST PUSH1 0x12 PUSH1 0x20 MSTORE DUP1 PUSH0 MSTORE PUSH1 0x40 PUSH0 KECCAK256 PUSH0 SWAP2 POP SWAP1 POP SLOAD DUP2 JUMP JUMPDEST PUSH1 0x6 SLOAD TIMESTAMP LT ISZERO PUSH2 0x1580 JUMPI PUSH1 0x40 MLOAD PUSH32 0x8C379A000000000000000000000000000000000000000000000000000000000 DUP2 MSTORE PUSH1 0x4 ADD PUSH2 0x1577 SWAP1 PUSH2 0x2B03 JUMP JUMPDEST PUSH1 0x40 MLOAD DUP1 SWAP2 SUB SWAP1 REVERT JUMPDEST PUSH0 CALLVALUE GT PUSH2 0x15C2 JUMPI PUSH1 0x40 MLOAD PUSH32 0x8C379A000000000000000000000000000000000000000000000000000000000 DUP2 MSTORE PUSH1 0x4 ADD PUSH2 0x15B9 SWAP1 PUSH2 0x2B6B JUMP JUMPDEST PUSH1 0x40 MLOAD DUP1 SWAP2 SUB SWAP1 REVERT JUMPDEST PUSH0 PUSH2 0x15CB PUSH2 0x16D4 JUMP JUMPDEST SWAP1 POP PUSH0 DUP2 PUSH2 0x15D7 PUSH2 0xAF3 JUMP JUMPDEST PUSH1 0xFF AND PUSH1 0xA PUSH2 0x15E6 SWAP2 SWAP1 PUSH2 0x2B89 JUMP JUMPDEST CALLVALUE PUSH2 0x15F1 SWAP2 SWAP1 PUSH2 0x24B1 JUMP JUMPDEST PUSH2 0x15FB SWAP2 SWAP1 PUSH2 0x2481 JUMP JUMPDEST SWAP1 POP DUP1 PUSH2 0x1607 ADDRESS PUSH2 0xB4A JUMP JUMPDEST LT ISZERO PUSH2 0x1648 JUMPI PUSH1 0x40 MLOAD PUSH32 0x8C379A000000000000000000000000000000000000000000000000000000000 DUP2 MSTORE PUSH1 0x4 ADD PUSH2 0x163F SWAP1 PUSH2 0x2C1D JUMP JUMPDEST PUSH1 0x40 MLOAD DUP1 SWAP2 SUB SWAP1 REVERT JUMPDEST PUSH2 0x1653 ADDRESS CALLER DUP4 PUSH2 0x19BE JUMP JUMPDEST DUP1 PUSH1 0xB PUSH0 DUP3 DUP3 SLOAD PUSH2 0x1664 SWAP2 SWAP1 PUSH2 0x2676 JUMP JUMPDEST SWAP3 POP POP DUP2 SWAP1 SSTORE POP CALLER PUSH20 0xFFFFFFFFFFFFFFFFFFFFFFFFFFFFFFFFFFFFFFFF AND ADDRESS PUSH20 0xFFFFFFFFFFFFFFFFFFFFFFFFFFFFFFFFFFFFFFFF AND PUSH32 0xDDF252AD1BE2C89B69C2B068FC378DAA952BA7F163C4A11628F55A4DF523B3EF DUP4 PUSH1 0x40 MLOAD PUSH2 0x16C8 SWAP2 SWAP1 PUSH2 0x2077 JUMP JUMPDEST PUSH1 0x40 MLOAD DUP1 SWAP2 SUB SWAP1 LOG3 POP POP JUMP JUMPDEST PUSH0 PUSH1 0x5 PUSH1 0x14 SWAP1 SLOAD SWAP1 PUSH2 0x100 EXP SWAP1 DIV PUSH1 0xFF AND PUSH2 0x1724 JUMPI PUSH1 0x40 MLOAD PUSH32 0x8C379A000000000000000000000000000000000000000000000000000000000 DUP2 MSTORE PUSH1 0x4 ADD PUSH2 0x171B SWAP1 PUSH2 0x2C85 JUMP JUMPDEST PUSH1 0x40 MLOAD DUP1 SWAP2 SUB SWAP1 REVERT JUMPDEST PUSH1 0x7 SLOAD TIMESTAMP GT ISZERO PUSH2 0x1738 JUMPI PUSH1 0x9 SLOAD SWAP1 POP PUSH2 0x175A JUMP JUMPDEST PUSH0 PUSH2 0x1741 PUSH2 0xAFB JUMP JUMPDEST SWAP1 POP PUSH0 DUP2 PUSH1 0x8 SLOAD PUSH2 0x1752 SWAP2 SWAP1 PUSH2 0x2676 JUMP JUMPDEST SWAP1 POP DUP1 SWAP3 POP POP POP JUMPDEST SWAP1 JUMP JUMPDEST PUSH0 PUSH1 0x1 PUSH0 DUP5 PUSH20 0xFFFFFFFFFFFFFFFFFFFFFFFFFFFFFFFFFFFFFFFF AND PUSH20 0xFFFFFFFFFFFFFFFFFFFFFFFFFFFFFFFFFFFFFFFF AND DUP2 MSTORE PUSH1 0x20 ADD SWAP1 DUP2 MSTORE PUSH1 0x20 ADD PUSH0 KECCAK256 PUSH0 DUP4 PUSH20 0xFFFFFFFFFFFFFFFFFFFFFFFFFFFFFFFFFFFFFFFF AND PUSH20 0xFFFFFFFFFFFFFFFFFFFFFFFFFFFFFFFFFFFFFFFF AND DUP2 MSTORE PUSH1 0x20 ADD SWAP1 DUP2 MSTORE PUSH1 0x20 ADD PUSH0 KECCAK256 SLOAD SWAP1 POP SWAP3 SWAP2 POP POP JUMP JUMPDEST PUSH2 0x17E7 PUSH2 0x1AAE JUMP JUMPDEST PUSH0 PUSH20 0xFFFFFFFFFFFFFFFFFFFFFFFFFFFFFFFFFFFFFFFF AND DUP2 PUSH20 0xFFFFFFFFFFFFFFFFFFFFFFFFFFFFFFFFFFFFFFFF AND SUB PUSH2 0x1857 JUMPI PUSH0 PUSH1 0x40 MLOAD PUSH32 0x1E4FBDF700000000000000000000000000000000000000000000000000000000 DUP2 MSTORE PUSH1 0x4 ADD PUSH2 0x184E SWAP2 SWAP1 PUSH2 0x2340 JUMP JUMPDEST PUSH1 0x40 MLOAD DUP1 SWAP2 SUB SWAP1 REVERT JUMPDEST PUSH2 0x1860 DUP2 PUSH2 0x1B35 JUMP JUMPDEST POP JUMP JUMPDEST PUSH1 0xC SLOAD DUP2 JUMP JUMPDEST PUSH1 0xE PUSH1 0x20 MSTORE DUP1 PUSH0 MSTORE PUSH1 0x40 PUSH0 KECCAK256 PUSH0 SWAP2 POP SWAP1 POP SLOAD DUP2 JUMP JUMPDEST PUSH2 0x1886 PUSH2 0x1AAE JUMP JUMPDEST DUP2 PUSH1 0x6 DUP2 SWAP1 SSTORE POP PUSH3 0x93A80 DUP2 PUSH2 0x189C SWAP2 SWAP1 PUSH2 0x24B1 JUMP JUMPDEST PUSH1 0x6 SLOAD PUSH2 0x18A9 SWAP2 SWAP1 PUSH2 0x2676 JUMP JUMPDEST PUSH1 0x7 DUP2 SWAP1 SSTORE POP DUP1 PUSH1 0xC DUP2 SWAP1 SSTORE POP PUSH1 0x1 PUSH1 0x5 PUSH1 0x14 PUSH2 0x100 EXP DUP2 SLOAD DUP2 PUSH1 0xFF MUL NOT AND SWAP1 DUP4 ISZERO ISZERO MUL OR SWAP1 SSTORE POP PUSH32 0x3844853BE672B18D859394AA37E05615B95B78E66B4DC37DCA98D1DB1B05EA7D PUSH1 0x6 SLOAD PUSH1 0x7 SLOAD PUSH1 0x40 MLOAD PUSH2 0x1906 SWAP3 SWAP2 SWAP1 PUSH2 0x2A92 JUMP JUMPDEST PUSH1 0x40 MLOAD DUP1 SWAP2 SUB SWAP1 LOG1 POP POP JUMP JUMPDEST PUSH0 CALLER SWAP1 POP SWAP1 JUMP JUMPDEST PUSH2 0x1926 DUP4 DUP4 DUP4 PUSH1 0x1 PUSH2 0x1C77 JUMP JUMPDEST POP POP POP JUMP JUMPDEST PUSH0 PUSH2 0x1936 DUP5 DUP5 PUSH2 0x175D JUMP JUMPDEST SWAP1 POP PUSH32 0xFFFFFFFFFFFFFFFFFFFFFFFFFFFFFFFFFFFFFFFFFFFFFFFFFFFFFFFFFFFFFFFF DUP2 LT ISZERO PUSH2 0x19B8 JUMPI DUP2 DUP2 LT ISZERO PUSH2 0x19A9 JUMPI DUP3 DUP2 DUP4 PUSH1 0x40 MLOAD PUSH32 0xFB8F41B200000000000000000000000000000000000000000000000000000000 DUP2 MSTORE PUSH1 0x4 ADD PUSH2 0x19A0 SWAP4 SWAP3 SWAP2 SWAP1 PUSH2 0x2CA3 JUMP JUMPDEST PUSH1 0x40 MLOAD DUP1 SWAP2 SUB SWAP1 REVERT JUMPDEST PUSH2 0x19B7 DUP5 DUP5 DUP5 DUP5 SUB PUSH0 PUSH2 0x1C77 JUMP JUMPDEST JUMPDEST POP POP POP POP JUMP JUMPDEST PUSH0 PUSH20 0xFFFFFFFFFFFFFFFFFFFFFFFFFFFFFFFFFFFFFFFF AND DUP4 PUSH20 0xFFFFFFFFFFFFFFFFFFFFFFFFFFFFFFFFFFFFFFFF AND SUB PUSH2 0x1A2E JUMPI PUSH0 PUSH1 0x40 MLOAD PUSH32 0x96C6FD1E00000000000000000000000000000000000000000000000000000000 DUP2 MSTORE PUSH1 0x4 ADD PUSH2 0x1A25 SWAP2 SWAP1 PUSH2 0x2340 JUMP JUMPDEST PUSH1 0x40 MLOAD DUP1 SWAP2 SUB SWAP1 REVERT JUMPDEST PUSH0 PUSH20 0xFFFFFFFFFFFFFFFFFFFFFFFFFFFFFFFFFFFFFFFF AND DUP3 PUSH20 0xFFFFFFFFFFFFFFFFFFFFFFFFFFFFFFFFFFFFFFFF AND SUB PUSH2 0x1A9E JUMPI PUSH0 PUSH1 0x40 MLOAD PUSH32 0xEC442F0500000000000000000000000000000000000000000000000000000000 DUP2 MSTORE PUSH1 0x4 ADD PUSH2 0x1A95 SWAP2 SWAP1 PUSH2 0x2340 JUMP JUMPDEST PUSH1 0x40 MLOAD DUP1 SWAP2 SUB SWAP1 REVERT JUMPDEST PUSH2 0x1AA9 DUP4 DUP4 DUP4 PUSH2 0x1E46 JUMP JUMPDEST POP POP POP JUMP JUMPDEST PUSH2 0x1AB6 PUSH2 0x1912 JUMP JUMPDEST PUSH20 0xFFFFFFFFFFFFFFFFFFFFFFFFFFFFFFFFFFFFFFFF AND PUSH2 0x1AD4 PUSH2 0xED8 JUMP JUMPDEST PUSH20 0xFFFFFFFFFFFFFFFFFFFFFFFFFFFFFFFFFFFFFFFF AND EQ PUSH2 0x1B33 JUMPI PUSH2 0x1AF7 PUSH2 0x1912 JUMP JUMPDEST PUSH1 0x40 MLOAD PUSH32 0x118CDAA700000000000000000000000000000000000000000000000000000000 DUP2 MSTORE PUSH1 0x4 ADD PUSH2 0x1B2A SWAP2 SWAP1 PUSH2 0x2340 JUMP JUMPDEST PUSH1 0x40 MLOAD DUP1 SWAP2 SUB SWAP1 REVERT JUMPDEST JUMP JUMPDEST PUSH0 PUSH1 0x5 PUSH0 SWAP1 SLOAD SWAP1 PUSH2 0x100 EXP SWAP1 DIV PUSH20 0xFFFFFFFFFFFFFFFFFFFFFFFFFFFFFFFFFFFFFFFF AND SWAP1 POP DUP2 PUSH1 0x5 PUSH0 PUSH2 0x100 EXP DUP2 SLOAD DUP2 PUSH20 0xFFFFFFFFFFFFFFFFFFFFFFFFFFFFFFFFFFFFFFFF MUL NOT AND SWAP1 DUP4 PUSH20 0xFFFFFFFFFFFFFFFFFFFFFFFFFFFFFFFFFFFFFFFF AND MUL OR SWAP1 SSTORE POP DUP2 PUSH20 0xFFFFFFFFFFFFFFFFFFFFFFFFFFFFFFFFFFFFFFFF AND DUP2 PUSH20 0xFFFFFFFFFFFFFFFFFFFFFFFFFFFFFFFFFFFFFFFF AND PUSH32 0x8BE0079C531659141344CD1FD0A4F28419497F9722A3DAAFE3B4186F6B6457E0 PUSH1 0x40 MLOAD PUSH1 0x40 MLOAD DUP1 SWAP2 SUB SWAP1 LOG3 POP POP JUMP JUMPDEST PUSH0 PUSH20 0xFFFFFFFFFFFFFFFFFFFFFFFFFFFFFFFFFFFFFFFF AND DUP3 PUSH20 0xFFFFFFFFFFFFFFFFFFFFFFFFFFFFFFFFFFFFFFFF AND SUB PUSH2 0x1C68 JUMPI PUSH0 PUSH1 0x40 MLOAD PUSH32 0xEC442F0500000000000000000000000000000000000000000000000000000000 DUP2 MSTORE PUSH1 0x4 ADD PUSH2 0x1C5F SWAP2 SWAP1 PUSH2 0x2340 JUMP JUMPDEST PUSH1 0x40 MLOAD DUP1 SWAP2 SUB SWAP1 REVERT JUMPDEST PUSH2 0x1C73 PUSH0 DUP4 DUP4 PUSH2 0x1E46 JUMP JUMPDEST POP POP JUMP JUMPDEST PUSH0 PUSH20 0xFFFFFFFFFFFFFFFFFFFFFFFFFFFFFFFFFFFFFFFF AND DUP5 PUSH20 0xFFFFFFFFFFFFFFFFFFFFFFFFFFFFFFFFFFFFFFFF AND SUB PUSH2 0x1CE7 JUMPI PUSH0 PUSH1 0x40 MLOAD PUSH32 0xE602DF0500000000000000000000000000000000000000000000000000000000 DUP2 MSTORE PUSH1 0x4 ADD PUSH2 0x1CDE SWAP2 SWAP1 PUSH2 0x2340 JUMP JUMPDEST PUSH1 0x40 MLOAD DUP1 SWAP2 SUB SWAP1 REVERT JUMPDEST PUSH0 PUSH20 0xFFFFFFFFFFFFFFFFFFFFFFFFFFFFFFFFFFFFFFFF AND DUP4 PUSH20 0xFFFFFFFFFFFFFFFFFFFFFFFFFFFFFFFFFFFFFFFF AND SUB PUSH2 0x1D57 JUMPI PUSH0 PUSH1 0x40 MLOAD PUSH32 0x94280D6200000000000000000000000000000000000000000000000000000000 DUP2 MSTORE PUSH1 0x4 ADD PUSH2 0x1D4E SWAP2 SWAP1 PUSH2 0x2340 JUMP JUMPDEST PUSH1 0x40 MLOAD DUP1 SWAP2 SUB SWAP1 REVERT JUMPDEST DUP2 PUSH1 0x1 PUSH0 DUP7 PUSH20 0xFFFFFFFFFFFFFFFFFFFFFFFFFFFFFFFFFFFFFFFF AND PUSH20 0xFFFFFFFFFFFFFFFFFFFFFFFFFFFFFFFFFFFFFFFF AND DUP2 MSTORE PUSH1 0x20 ADD SWAP1 DUP2 MSTORE PUSH1 0x20 ADD PUSH0 KECCAK256 PUSH0 DUP6 PUSH20 0xFFFFFFFFFFFFFFFFFFFFFFFFFFFFFFFFFFFFFFFF AND PUSH20 0xFFFFFFFFFFFFFFFFFFFFFFFFFFFFFFFFFFFFFFFF AND DUP2 MSTORE PUSH1 0x20 ADD SWAP1 DUP2 MSTORE PUSH1 0x20 ADD PUSH0 KECCAK256 DUP2 SWAP1 SSTORE POP DUP1 ISZERO PUSH2 0x1E40 JUMPI DUP3 PUSH20 0xFFFFFFFFFFFFFFFFFFFFFFFFFFFFFFFFFFFFFFFF AND DUP5 PUSH20 0xFFFFFFFFFFFFFFFFFFFFFFFFFFFFFFFFFFFFFFFF AND PUSH32 0x8C5BE1E5EBEC7D5BD14F71427D1E84F3DD0314C0F7B2291E5B200AC8C7C3B925 DUP5 PUSH1 0x40 MLOAD PUSH2 0x1E37 SWAP2 SWAP1 PUSH2 0x2077 JUMP JUMPDEST PUSH1 0x40 MLOAD DUP1 SWAP2 SUB SWAP1 LOG3 JUMPDEST POP POP POP POP JUMP JUMPDEST PUSH0 PUSH20 0xFFFFFFFFFFFFFFFFFFFFFFFFFFFFFFFFFFFFFFFF AND DUP4 PUSH20 0xFFFFFFFFFFFFFFFFFFFFFFFFFFFFFFFFFFFFFFFF AND SUB PUSH2 0x1E96 JUMPI DUP1 PUSH1 0x2 PUSH0 DUP3 DUP3 SLOAD PUSH2 0x1E8A SWAP2 SWAP1 PUSH2 0x2676 JUMP JUMPDEST SWAP3 POP POP DUP2 SWAP1 SSTORE POP PUSH2 0x1F64 JUMP JUMPDEST PUSH0 DUP1 PUSH0 DUP6 PUSH20 0xFFFFFFFFFFFFFFFFFFFFFFFFFFFFFFFFFFFFFFFF AND PUSH20 0xFFFFFFFFFFFFFFFFFFFFFFFFFFFFFFFFFFFFFFFF AND DUP2 MSTORE PUSH1 0x20 ADD SWAP1 DUP2 MSTORE PUSH1 0x20 ADD PUSH0 KECCAK256 SLOAD SWAP1 POP DUP2 DUP2 LT ISZERO PUSH2 0x1F1F JUMPI DUP4 DUP2 DUP4 PUSH1 0x40 MLOAD PUSH32 0xE450D38C00000000000000000000000000000000000000000000000000000000 DUP2 MSTORE PUSH1 0x4 ADD PUSH2 0x1F16 SWAP4 SWAP3 SWAP2 SWAP1 PUSH2 0x2CA3 JUMP JUMPDEST PUSH1 0x40 MLOAD DUP1 SWAP2 SUB SWAP1 REVERT JUMPDEST DUP2 DUP2 SUB PUSH0 DUP1 DUP7 PUSH20 0xFFFFFFFFFFFFFFFFFFFFFFFFFFFFFFFFFFFFFFFF AND PUSH20 0xFFFFFFFFFFFFFFFFFFFFFFFFFFFFFFFFFFFFFFFF AND DUP2 MSTORE PUSH1 0x20 ADD SWAP1 DUP2 MSTORE PUSH1 0x20 ADD PUSH0 KECCAK256 DUP2 SWAP1 SSTORE POP POP JUMPDEST PUSH0 PUSH20 0xFFFFFFFFFFFFFFFFFFFFFFFFFFFFFFFFFFFFFFFF AND DUP3 PUSH20 0xFFFFFFFFFFFFFFFFFFFFFFFFFFFFFFFFFFFFFFFF AND SUB PUSH2 0x1FAB JUMPI DUP1 PUSH1 0x2 PUSH0 DUP3 DUP3 SLOAD SUB SWAP3 POP POP DUP2 SWAP1 SSTORE POP PUSH2 0x1FF5 JUMP JUMPDEST DUP1 PUSH0 DUP1 DUP5 PUSH20 0xFFFFFFFFFFFFFFFFFFFFFFFFFFFFFFFFFFFFFFFF AND PUSH20 0xFFFFFFFFFFFFFFFFFFFFFFFFFFFFFFFFFFFFFFFF AND DUP2 MSTORE PUSH1 0x20 ADD SWAP1 DUP2 MSTORE PUSH1 0x20 ADD PUSH0 KECCAK256 PUSH0 DUP3 DUP3 SLOAD ADD SWAP3 POP POP DUP2 SWAP1 SSTORE POP JUMPDEST DUP2 PUSH20 0xFFFFFFFFFFFFFFFFFFFFFFFFFFFFFFFFFFFFFFFF AND DUP4 PUSH20 0xFFFFFFFFFFFFFFFFFFFFFFFFFFFFFFFFFFFFFFFF AND PUSH32 0xDDF252AD1BE2C89B69C2B068FC378DAA952BA7F163C4A11628F55A4DF523B3EF DUP4 PUSH1 0x40 MLOAD PUSH2 0x2052 SWAP2 SWAP1 PUSH2 0x2077 JUMP JUMPDEST PUSH1 0x40 MLOAD DUP1 SWAP2 SUB SWAP1 LOG3 POP POP POP JUMP JUMPDEST PUSH0 DUP2 SWAP1 POP SWAP2 SWAP1 POP JUMP JUMPDEST PUSH2 0x2071 DUP2 PUSH2 0x205F JUMP JUMPDEST DUP3 MSTORE POP POP JUMP JUMPDEST PUSH0 PUSH1 0x20 DUP3 ADD SWAP1 POP PUSH2 0x208A PUSH0 DUP4 ADD DUP5 PUSH2 0x2068 JUMP JUMPDEST SWAP3 SWAP2 POP POP JUMP JUMPDEST PUSH0 DUP2 MLOAD SWAP1 POP SWAP2 SWAP1 POP JUMP JUMPDEST PUSH0 DUP3 DUP3 MSTORE PUSH1 0x20 DUP3 ADD SWAP1 POP SWAP3 SWAP2 POP POP JUMP JUMPDEST DUP3 DUP2 DUP4 MCOPY PUSH0 DUP4 DUP4 ADD MSTORE POP POP POP JUMP JUMPDEST PUSH0 PUSH1 0x1F NOT PUSH1 0x1F DUP4 ADD AND SWAP1 POP SWAP2 SWAP1 POP JUMP JUMPDEST PUSH0 PUSH2 0x20D2 DUP3 PUSH2 0x2090 JUMP JUMPDEST PUSH2 0x20DC DUP2 DUP6 PUSH2 0x209A JUMP JUMPDEST SWAP4 POP PUSH2 0x20EC DUP2 DUP6 PUSH1 0x20 DUP7 ADD PUSH2 0x20AA JUMP JUMPDEST PUSH2 0x20F5 DUP2 PUSH2 0x20B8 JUMP JUMPDEST DUP5 ADD SWAP2 POP POP SWAP3 SWAP2 POP POP JUMP JUMPDEST PUSH0 PUSH1 0x20 DUP3 ADD SWAP1 POP DUP2 DUP2 SUB PUSH0 DUP4 ADD MSTORE PUSH2 0x2118 DUP2 DUP5 PUSH2 0x20C8 JUMP JUMPDEST SWAP1 POP SWAP3 SWAP2 POP POP JUMP JUMPDEST PUSH0 DUP1 REVERT JUMPDEST PUSH0 PUSH20 0xFFFFFFFFFFFFFFFFFFFFFFFFFFFFFFFFFFFFFFFF DUP3 AND SWAP1 POP SWAP2 SWAP1 POP JUMP JUMPDEST PUSH0 PUSH2 0x214D DUP3 PUSH2 0x2124 JUMP JUMPDEST SWAP1 POP SWAP2 SWAP1 POP JUMP JUMPDEST PUSH2 0x215D DUP2 PUSH2 0x2143 JUMP JUMPDEST DUP2 EQ PUSH2 0x2167 JUMPI PUSH0 DUP1 REVERT JUMPDEST POP JUMP JUMPDEST PUSH0 DUP2 CALLDATALOAD SWAP1 POP PUSH2 0x2178 DUP2 PUSH2 0x2154 JUMP JUMPDEST SWAP3 SWAP2 POP POP JUMP JUMPDEST PUSH2 0x2187 DUP2 PUSH2 0x205F JUMP JUMPDEST DUP2 EQ PUSH2 0x2191 JUMPI PUSH0 DUP1 REVERT JUMPDEST POP JUMP JUMPDEST PUSH0 DUP2 CALLDATALOAD SWAP1 POP PUSH2 0x21A2 DUP2 PUSH2 0x217E JUMP JUMPDEST SWAP3 SWAP2 POP POP JUMP JUMPDEST PUSH0 DUP1 PUSH1 0x40 DUP4 DUP6 SUB SLT ISZERO PUSH2 0x21BE JUMPI PUSH2 0x21BD PUSH2 0x2120 JUMP JUMPDEST JUMPDEST PUSH0 PUSH2 0x21CB DUP6 DUP3 DUP7 ADD PUSH2 0x216A JUMP JUMPDEST SWAP3 POP POP PUSH1 0x20 PUSH2 0x21DC DUP6 DUP3 DUP7 ADD PUSH2 0x2194 JUMP JUMPDEST SWAP2 POP POP SWAP3 POP SWAP3 SWAP1 POP JUMP JUMPDEST PUSH0 DUP2 ISZERO ISZERO SWAP1 POP SWAP2 SWAP1 POP JUMP JUMPDEST PUSH2 0x21FA DUP2 PUSH2 0x21E6 JUMP JUMPDEST DUP3 MSTORE POP POP JUMP JUMPDEST PUSH0 PUSH1 0x20 DUP3 ADD SWAP1 POP PUSH2 0x2213 PUSH0 DUP4 ADD DUP5 PUSH2 0x21F1 JUMP JUMPDEST SWAP3 SWAP2 POP POP JUMP JUMPDEST PUSH0 PUSH1 0x20 DUP3 DUP5 SUB SLT ISZERO PUSH2 0x222E JUMPI PUSH2 0x222D PUSH2 0x2120 JUMP JUMPDEST JUMPDEST PUSH0 PUSH2 0x223B DUP5 DUP3 DUP6 ADD PUSH2 0x216A JUMP JUMPDEST SWAP2 POP POP SWAP3 SWAP2 POP POP JUMP JUMPDEST PUSH0 DUP1 PUSH0 PUSH1 0x60 DUP5 DUP7 SUB SLT ISZERO PUSH2 0x225B JUMPI PUSH2 0x225A PUSH2 0x2120 JUMP JUMPDEST JUMPDEST PUSH0 PUSH2 0x2268 DUP7 DUP3 DUP8 ADD PUSH2 0x216A JUMP JUMPDEST SWAP4 POP POP PUSH1 0x20 PUSH2 0x2279 DUP7 DUP3 DUP8 ADD PUSH2 0x216A JUMP JUMPDEST SWAP3 POP POP PUSH1 0x40 PUSH2 0x228A DUP7 DUP3 DUP8 ADD PUSH2 0x2194 JUMP JUMPDEST SWAP2 POP POP SWAP3 POP SWAP3 POP SWAP3 JUMP JUMPDEST PUSH0 DUP1 PUSH1 0x40 DUP4 DUP6 SUB SLT ISZERO PUSH2 0x22AA JUMPI PUSH2 0x22A9 PUSH2 0x2120 JUMP JUMPDEST JUMPDEST PUSH0 PUSH2 0x22B7 DUP6 DUP3 DUP7 ADD PUSH2 0x2194 JUMP JUMPDEST SWAP3 POP POP PUSH1 0x20 PUSH2 0x22C8 DUP6 DUP3 DUP7 ADD PUSH2 0x2194 JUMP JUMPDEST SWAP2 POP POP SWAP3 POP SWAP3 SWAP1 POP JUMP JUMPDEST PUSH0 PUSH1 0xFF DUP3 AND SWAP1 POP SWAP2 SWAP1 POP JUMP JUMPDEST PUSH2 0x22E7 DUP2 PUSH2 0x22D2 JUMP JUMPDEST DUP3 MSTORE POP POP JUMP JUMPDEST PUSH0 PUSH1 0x20 DUP3 ADD SWAP1 POP PUSH2 0x2300 PUSH0 DUP4 ADD DUP5 PUSH2 0x22DE JUMP JUMPDEST SWAP3 SWAP2 POP POP JUMP JUMPDEST PUSH0 PUSH1 0x20 DUP3 DUP5 SUB SLT ISZERO PUSH2 0x231B JUMPI PUSH2 0x231A PUSH2 0x2120 JUMP JUMPDEST JUMPDEST PUSH0 PUSH2 0x2328 DUP5 DUP3 DUP6 ADD PUSH2 0x2194 JUMP JUMPDEST SWAP2 POP POP SWAP3 SWAP2 POP POP JUMP JUMPDEST PUSH2 0x233A DUP2 PUSH2 0x2143 JUMP JUMPDEST DUP3 MSTORE POP POP JUMP JUMPDEST PUSH0 PUSH1 0x20 DUP3 ADD SWAP1 POP PUSH2 0x2353 PUSH0 DUP4 ADD DUP5 PUSH2 0x2331 JUMP JUMPDEST SWAP3 SWAP2 POP POP JUMP JUMPDEST PUSH0 DUP1 PUSH1 0x40 DUP4 DUP6 SUB SLT ISZERO PUSH2 0x236F JUMPI PUSH2 0x236E PUSH2 0x2120 JUMP JUMPDEST JUMPDEST PUSH0 PUSH2 0x237C DUP6 DUP3 DUP7 ADD PUSH2 0x216A JUMP JUMPDEST SWAP3 POP POP PUSH1 0x20 PUSH2 0x238D DUP6 DUP3 DUP7 ADD PUSH2 0x216A JUMP JUMPDEST SWAP2 POP POP SWAP3 POP SWAP3 SWAP1 POP JUMP JUMPDEST PUSH32 0x4E487B7100000000000000000000000000000000000000000000000000000000 PUSH0 MSTORE PUSH1 0x22 PUSH1 0x4 MSTORE PUSH1 0x24 PUSH0 REVERT JUMPDEST PUSH0 PUSH1 0x2 DUP3 DIV SWAP1 POP PUSH1 0x1 DUP3 AND DUP1 PUSH2 0x23DB JUMPI PUSH1 0x7F DUP3 AND SWAP2 POP JUMPDEST PUSH1 0x20 DUP3 LT DUP2 SUB PUSH2 0x23EE JUMPI PUSH2 0x23ED PUSH2 0x2397 JUMP JUMPDEST JUMPDEST POP SWAP2 SWAP1 POP JUMP JUMPDEST PUSH32 0x4E487B7100000000000000000000000000000000000000000000000000000000 PUSH0 MSTORE PUSH1 0x11 PUSH1 0x4 MSTORE PUSH1 0x24 PUSH0 REVERT JUMPDEST PUSH0 PUSH2 0x242B DUP3 PUSH2 0x205F JUMP JUMPDEST SWAP2 POP PUSH2 0x2436 DUP4 PUSH2 0x205F JUMP JUMPDEST SWAP3 POP DUP3 DUP3 SUB SWAP1 POP DUP2 DUP2 GT ISZERO PUSH2 0x244E JUMPI PUSH2 0x244D PUSH2 0x23F4 JUMP JUMPDEST JUMPDEST SWAP3 SWAP2 POP POP JUMP JUMPDEST PUSH32 0x4E487B7100000000000000000000000000000000000000000000000000000000 PUSH0 MSTORE PUSH1 0x12 PUSH1 0x4 MSTORE PUSH1 0x24 PUSH0 REVERT JUMPDEST PUSH0 PUSH2 0x248B DUP3 PUSH2 0x205F JUMP JUMPDEST SWAP2 POP PUSH2 0x2496 DUP4 PUSH2 0x205F JUMP JUMPDEST SWAP3 POP DUP3 PUSH2 0x24A6 JUMPI PUSH2 0x24A5 PUSH2 0x2454 JUMP JUMPDEST JUMPDEST DUP3 DUP3 DIV SWAP1 POP SWAP3 SWAP2 POP POP JUMP JUMPDEST PUSH0 PUSH2 0x24BB DUP3 PUSH2 0x205F JUMP JUMPDEST SWAP2 POP PUSH2 0x24C6 DUP4 PUSH2 0x205F JUMP JUMPDEST SWAP3 POP DUP3 DUP3 MUL PUSH2 0x24D4 DUP2 PUSH2 0x205F JUMP JUMPDEST SWAP2 POP DUP3 DUP3 DIV DUP5 EQ DUP4 ISZERO OR PUSH2 0x24EB JUMPI PUSH2 0x24EA PUSH2 0x23F4 JUMP JUMPDEST JUMPDEST POP SWAP3 SWAP2 POP POP JUMP JUMPDEST PUSH32 0x456E642074696D65206D7573742062652061667465722073746172742074696D PUSH0 DUP3 ADD MSTORE PUSH32 0x6500000000000000000000000000000000000000000000000000000000000000 PUSH1 0x20 DUP3 ADD MSTORE POP JUMP JUMPDEST PUSH0 PUSH2 0x254C PUSH1 0x21 DUP4 PUSH2 0x209A JUMP JUMPDEST SWAP2 POP PUSH2 0x2557 DUP3 PUSH2 0x24F2 JUMP JUMPDEST PUSH1 0x40 DUP3 ADD SWAP1 POP SWAP2 SWAP1 POP JUMP JUMPDEST PUSH0 PUSH1 0x20 DUP3 ADD SWAP1 POP DUP2 DUP2 SUB PUSH0 DUP4 ADD MSTORE PUSH2 0x2579 DUP2 PUSH2 0x2540 JUMP JUMPDEST SWAP1 POP SWAP2 SWAP1 POP JUMP JUMPDEST PUSH32 0x416D6F756E74206D7573742062652067726561746572207468616E207A65726F PUSH0 DUP3 ADD MSTORE PUSH32 0x2E00000000000000000000000000000000000000000000000000000000000000 PUSH1 0x20 DUP3 ADD MSTORE POP JUMP JUMPDEST PUSH0 PUSH2 0x25DA PUSH1 0x21 DUP4 PUSH2 0x209A JUMP JUMPDEST SWAP2 POP PUSH2 0x25E5 DUP3 PUSH2 0x2580 JUMP JUMPDEST PUSH1 0x40 DUP3 ADD SWAP1 POP SWAP2 SWAP1 POP JUMP JUMPDEST PUSH0 PUSH1 0x20 DUP3 ADD SWAP1 POP DUP2 DUP2 SUB PUSH0 DUP4 ADD MSTORE PUSH2 0x2607 DUP2 PUSH2 0x25CE JUMP JUMPDEST SWAP1 POP SWAP2 SWAP1 POP JUMP JUMPDEST PUSH32 0x496E73756666696369656E742062616C616E63652E0000000000000000000000 PUSH0 DUP3 ADD MSTORE POP JUMP JUMPDEST PUSH0 PUSH2 0x2642 PUSH1 0x15 DUP4 PUSH2 0x209A JUMP JUMPDEST SWAP2 POP PUSH2 0x264D DUP3 PUSH2 0x260E JUMP JUMPDEST PUSH1 0x20 DUP3 ADD SWAP1 POP SWAP2 SWAP1 POP JUMP JUMPDEST PUSH0 PUSH1 0x20 DUP3 ADD SWAP1 POP DUP2 DUP2 SUB PUSH0 DUP4 ADD MSTORE PUSH2 0x266F DUP2 PUSH2 0x2636 JUMP JUMPDEST SWAP1 POP SWAP2 SWAP1 POP JUMP JUMPDEST PUSH0 PUSH2 0x2680 DUP3 PUSH2 0x205F JUMP JUMPDEST SWAP2 POP PUSH2 0x268B DUP4 PUSH2 0x205F JUMP JUMPDEST SWAP3 POP DUP3 DUP3 ADD SWAP1 POP DUP1 DUP3 GT ISZERO PUSH2 0x26A3 JUMPI PUSH2 0x26A2 PUSH2 0x23F4 JUMP JUMPDEST JUMPDEST SWAP3 SWAP2 POP POP JUMP JUMPDEST PUSH32 0x50726573616C65206E6F74207374617274656420796574000000000000000000 PUSH0 DUP3 ADD MSTORE POP JUMP JUMPDEST PUSH0 PUSH2 0x26DD PUSH1 0x17 DUP4 PUSH2 0x209A JUMP JUMPDEST SWAP2 POP PUSH2 0x26E8 DUP3 PUSH2 0x26A9 JUMP JUMPDEST PUSH1 0x20 DUP3 ADD SWAP1 POP SWAP2 SWAP1 POP JUMP JUMPDEST PUSH0 PUSH1 0x20 DUP3 ADD SWAP1 POP DUP2 DUP2 SUB PUSH0 DUP4 ADD MSTORE PUSH2 0x270A DUP2 PUSH2 0x26D1 JUMP JUMPDEST SWAP1 POP SWAP2 SWAP1 POP JUMP JUMPDEST PUSH32 0x4E6F207265776172647320617661696C61626C65000000000000000000000000 PUSH0 DUP3 ADD MSTORE POP JUMP JUMPDEST PUSH0 PUSH2 0x2745 PUSH1 0x14 DUP4 PUSH2 0x209A JUMP JUMPDEST SWAP2 POP PUSH2 0x2750 DUP3 PUSH2 0x2711 JUMP JUMPDEST PUSH1 0x20 DUP3 ADD SWAP1 POP SWAP2 SWAP1 POP JUMP JUMPDEST PUSH0 PUSH1 0x20 DUP3 ADD SWAP1 POP DUP2 DUP2 SUB PUSH0 DUP4 ADD MSTORE PUSH2 0x2772 DUP2 PUSH2 0x2739 JUMP JUMPDEST SWAP1 POP SWAP2 SWAP1 POP JUMP JUMPDEST PUSH0 DUP2 PUSH1 0x1 SHR SWAP1 POP SWAP2 SWAP1 POP JUMP JUMPDEST PUSH0 DUP1 DUP3 SWAP2 POP DUP4 SWAP1 POP JUMPDEST PUSH1 0x1 DUP6 GT ISZERO PUSH2 0x27CE JUMPI DUP1 DUP7 DIV DUP2 GT ISZERO PUSH2 0x27AA JUMPI PUSH2 0x27A9 PUSH2 0x23F4 JUMP JUMPDEST JUMPDEST PUSH1 0x1 DUP6 AND ISZERO PUSH2 0x27B9 JUMPI DUP1 DUP3 MUL SWAP2 POP JUMPDEST DUP1 DUP2 MUL SWAP1 POP PUSH2 0x27C7 DUP6 PUSH2 0x2779 JUMP JUMPDEST SWAP5 POP PUSH2 0x278E JUMP JUMPDEST SWAP5 POP SWAP5 SWAP3 POP POP POP JUMP JUMPDEST PUSH0 DUP3 PUSH2 0x27E6 JUMPI PUSH1 0x1 SWAP1 POP PUSH2 0x28A1 JUMP JUMPDEST DUP2 PUSH2 0x27F3 JUMPI PUSH0 SWAP1 POP PUSH2 0x28A1 JUMP JUMPDEST DUP2 PUSH1 0x1 DUP2 EQ PUSH2 0x2809 JUMPI PUSH1 0x2 DUP2 EQ PUSH2 0x2813 JUMPI PUSH2 0x2842 JUMP JUMPDEST PUSH1 0x1 SWAP2 POP POP PUSH2 0x28A1 JUMP JUMPDEST PUSH1 0xFF DUP5 GT ISZERO PUSH2 0x2825 JUMPI PUSH2 0x2824 PUSH2 0x23F4 JUMP JUMPDEST JUMPDEST DUP4 PUSH1 0x2 EXP SWAP2 POP DUP5 DUP3 GT ISZERO PUSH2 0x283C JUMPI PUSH2 0x283B PUSH2 0x23F4 JUMP JUMPDEST JUMPDEST POP PUSH2 0x28A1 JUMP JUMPDEST POP PUSH1 0x20 DUP4 LT PUSH2 0x133 DUP4 LT AND PUSH1 0x4E DUP5 LT PUSH1 0xB DUP5 LT AND OR ISZERO PUSH2 0x2877 JUMPI DUP3 DUP3 EXP SWAP1 POP DUP4 DUP2 GT ISZERO PUSH2 0x2872 JUMPI PUSH2 0x2871 PUSH2 0x23F4 JUMP JUMPDEST JUMPDEST PUSH2 0x28A1 JUMP JUMPDEST PUSH2 0x2884 DUP5 DUP5 DUP5 PUSH1 0x1 PUSH2 0x2785 JUMP JUMPDEST SWAP3 POP SWAP1 POP DUP2 DUP5 DIV DUP2 GT ISZERO PUSH2 0x289B JUMPI PUSH2 0x289A PUSH2 0x23F4 JUMP JUMPDEST JUMPDEST DUP2 DUP2 MUL SWAP1 POP JUMPDEST SWAP4 SWAP3 POP POP POP JUMP JUMPDEST PUSH0 PUSH2 0x28B2 DUP3 PUSH2 0x205F JUMP JUMPDEST SWAP2 POP PUSH2 0x28BD DUP4 PUSH2 0x22D2 JUMP JUMPDEST SWAP3 POP PUSH2 0x28EA PUSH32 0xFFFFFFFFFFFFFFFFFFFFFFFFFFFFFFFFFFFFFFFFFFFFFFFFFFFFFFFFFFFFFFFF DUP5 DUP5 PUSH2 0x27D7 JUMP JUMPDEST SWAP1 POP SWAP3 SWAP2 POP POP JUMP JUMPDEST PUSH32 0x416C72656164792077686974656C697374656400000000000000000000000000 PUSH0 DUP3 ADD MSTORE POP JUMP JUMPDEST PUSH0 PUSH2 0x2926 PUSH1 0x13 DUP4 PUSH2 0x209A JUMP JUMPDEST SWAP2 POP PUSH2 0x2931 DUP3 PUSH2 0x28F2 JUMP JUMPDEST PUSH1 0x20 DUP3 ADD SWAP1 POP SWAP2 SWAP1 POP JUMP JUMPDEST PUSH0 PUSH1 0x20 DUP3 ADD SWAP1 POP DUP2 DUP2 SUB PUSH0 DUP4 ADD MSTORE PUSH2 0x2953 DUP2 PUSH2 0x291A JUMP JUMPDEST SWAP1 POP SWAP2 SWAP1 POP JUMP JUMPDEST PUSH32 0x43616E6E6F7420726566657220796F757273656C660000000000000000000000 PUSH0 DUP3 ADD MSTORE POP JUMP JUMPDEST PUSH0 PUSH2 0x298E PUSH1 0x15 DUP4 PUSH2 0x209A JUMP JUMPDEST SWAP2 POP PUSH2 0x2999 DUP3 PUSH2 0x295A JUMP JUMPDEST PUSH1 0x20 DUP3 ADD SWAP1 POP SWAP2 SWAP1 POP JUMP JUMPDEST PUSH0 PUSH1 0x20 DUP3 ADD SWAP1 POP DUP2 DUP2 SUB PUSH0 DUP4 ADD MSTORE PUSH2 0x29BB DUP2 PUSH2 0x2982 JUMP JUMPDEST SWAP1 POP SWAP2 SWAP1 POP JUMP JUMPDEST PUSH32 0x4E6F20746F6B656E73207374616B65642E000000000000000000000000000000 PUSH0 DUP3 ADD MSTORE POP JUMP JUMPDEST PUSH0 PUSH2 0x29F6 PUSH1 0x11 DUP4 PUSH2 0x209A JUMP JUMPDEST SWAP2 POP PUSH2 0x2A01 DUP3 PUSH2 0x29C2 JUMP JUMPDEST PUSH1 0x20 DUP3 ADD SWAP1 POP SWAP2 SWAP1 POP JUMP JUMPDEST PUSH0 PUSH1 0x20 DUP3 ADD SWAP1 POP DUP2 DUP2 SUB PUSH0 DUP4 ADD MSTORE PUSH2 0x2A23 DUP2 PUSH2 0x29EA JUMP JUMPDEST SWAP1 POP SWAP2 SWAP1 POP JUMP JUMPDEST PUSH32 0x556E7374616B65206F6E6C792061667465722034207765656B732E0000000000 PUSH0 DUP3 ADD MSTORE POP JUMP JUMPDEST PUSH0 PUSH2 0x2A5E PUSH1 0x1B DUP4 PUSH2 0x209A JUMP JUMPDEST SWAP2 POP PUSH2 0x2A69 DUP3 PUSH2 0x2A2A JUMP JUMPDEST PUSH1 0x20 DUP3 ADD SWAP1 POP SWAP2 SWAP1 POP JUMP JUMPDEST PUSH0 PUSH1 0x20 DUP3 ADD SWAP1 POP DUP2 DUP2 SUB PUSH0 DUP4 ADD MSTORE PUSH2 0x2A8B DUP2 PUSH2 0x2A52 JUMP JUMPDEST SWAP1 POP SWAP2 SWAP1 POP JUMP JUMPDEST PUSH0 PUSH1 0x40 DUP3 ADD SWAP1 POP PUSH2 0x2AA5 PUSH0 DUP4 ADD DUP6 PUSH2 0x2068 JUMP JUMPDEST PUSH2 0x2AB2 PUSH1 0x20 DUP4 ADD DUP5 PUSH2 0x2068 JUMP JUMPDEST SWAP4 SWAP3 POP POP POP JUMP JUMPDEST PUSH32 0x53616C65206E6F74206163746976652E00000000000000000000000000000000 PUSH0 DUP3 ADD MSTORE POP JUMP JUMPDEST PUSH0 PUSH2 0x2AED PUSH1 0x10 DUP4 PUSH2 0x209A JUMP JUMPDEST SWAP2 POP PUSH2 0x2AF8 DUP3 PUSH2 0x2AB9 JUMP JUMPDEST PUSH1 0x20 DUP3 ADD SWAP1 POP SWAP2 SWAP1 POP JUMP JUMPDEST PUSH0 PUSH1 0x20 DUP3 ADD SWAP1 POP DUP2 DUP2 SUB PUSH0 DUP4 ADD MSTORE PUSH2 0x2B1A DUP2 PUSH2 0x2AE1 JUMP JUMPDEST SWAP1 POP SWAP2 SWAP1 POP JUMP JUMPDEST PUSH32 0x4D7573742073656E642045544820746F2062757920746F6B656E732E00000000 PUSH0 DUP3 ADD MSTORE POP JUMP JUMPDEST PUSH0 PUSH2 0x2B55 PUSH1 0x1C DUP4 PUSH2 0x209A JUMP JUMPDEST SWAP2 POP PUSH2 0x2B60 DUP3 PUSH2 0x2B21 JUMP JUMPDEST PUSH1 0x20 DUP3 ADD SWAP1 POP SWAP2 SWAP1 POP JUMP JUMPDEST PUSH0 PUSH1 0x20 DUP3 ADD SWAP1 POP DUP2 DUP2 SUB PUSH0 DUP4 ADD MSTORE PUSH2 0x2B82 DUP2 PUSH2 0x2B49 JUMP JUMPDEST SWAP1 POP SWAP2 SWAP1 POP JUMP JUMPDEST PUSH0 PUSH2 0x2B93 DUP3 PUSH2 0x205F JUMP JUMPDEST SWAP2 POP PUSH2 0x2B9E DUP4 PUSH2 0x205F JUMP JUMPDEST SWAP3 POP PUSH2 0x2BCB PUSH32 0xFFFFFFFFFFFFFFFFFFFFFFFFFFFFFFFFFFFFFFFFFFFFFFFFFFFFFFFFFFFFFFFF DUP5 DUP5 PUSH2 0x27D7 JUMP JUMPDEST SWAP1 POP SWAP3 SWAP2 POP POP JUMP JUMPDEST PUSH32 0x4E6F7420656E6F75676820746F6B656E7320617661696C61626C652E00000000 PUSH0 DUP3 ADD MSTORE POP JUMP JUMPDEST PUSH0 PUSH2 0x2C07 PUSH1 0x1C DUP4 PUSH2 0x209A JUMP JUMPDEST SWAP2 POP PUSH2 0x2C12 DUP3 PUSH2 0x2BD3 JUMP JUMPDEST PUSH1 0x20 DUP3 ADD SWAP1 POP SWAP2 SWAP1 POP JUMP JUMPDEST PUSH0 PUSH1 0x20 DUP3 ADD SWAP1 POP DUP2 DUP2 SUB PUSH0 DUP4 ADD MSTORE PUSH2 0x2C34 DUP2 PUSH2 0x2BFB JUMP JUMPDEST SWAP1 POP SWAP2 SWAP1 POP JUMP JUMPDEST PUSH32 0x5072652D73616C65206E6F742073746172746564207965740000000000000000 PUSH0 DUP3 ADD MSTORE POP JUMP JUMPDEST PUSH0 PUSH2 0x2C6F PUSH1 0x18 DUP4 PUSH2 0x209A JUMP JUMPDEST SWAP2 POP PUSH2 0x2C7A DUP3 PUSH2 0x2C3B JUMP JUMPDEST PUSH1 0x20 DUP3 ADD SWAP1 POP SWAP2 SWAP1 POP JUMP JUMPDEST PUSH0 PUSH1 0x20 DUP3 ADD SWAP1 POP DUP2 DUP2 SUB PUSH0 DUP4 ADD MSTORE PUSH2 0x2C9C DUP2 PUSH2 0x2C63 JUMP JUMPDEST SWAP1 POP SWAP2 SWAP1 POP JUMP JUMPDEST PUSH0 PUSH1 0x60 DUP3 ADD SWAP1 POP PUSH2 0x2CB6 PUSH0 DUP4 ADD DUP7 PUSH2 0x2331 JUMP JUMPDEST PUSH2 0x2CC3 PUSH1 0x20 DUP4 ADD DUP6 PUSH2 0x2068 JUMP JUMPDEST PUSH2 0x2CD0 PUSH1 0x40 DUP4 ADD DUP5 PUSH2 0x2068 JUMP JUMPDEST SWAP5 SWAP4 POP POP POP POP JUMP INVALID LOG2 PUSH5 0x6970667358 0x22 SLT KECCAK256 0xB8 0x25 DUP6 0xB8 0xBA 0x4B PUSH1 0x24 STATICCALL PUSH9 0x6928432F67ECB5852A 0xCA PUSH28 0xE31D156998916D42ED036164736F6C634300081A0033A26469706673 PC 0x22 SLT KECCAK256 PUSH28 0xAC1ADB6CC78950B0F9ADAA9F0B83437A4275B58425665C446198B5FB 0xBF DUP9 DUP6 PUSH5 0x736F6C6343 STOP ADDMOD BYTE STOP CALLER "
		},
		"gasEstimates": {
			"creation": {
				"codeDepositCost": "5685000",
				"executionCost": "31192",
				"totalCost": "5716192"
			},
			"external": {
				"beforeAll()": "infinite",
				"checkIfUserCanBuyBeforePreSale()": "infinite",
				"checkPreSaleActivation()": "infinite",
				"checkPresaleStartedIsFalse()": "infinite",
				"checkSuccess()": "infinite",
				"testAccountBalances()": "infinite",
				"testCalculateWeeks()": "infinite",
				"testCalculateWeeks0()": "infinite",
				"testCalculateWeeks2()": "infinite",
				"testCalculateWeeks3()": "infinite",
				"testCalculatedPriceIncreaseAtWeek0()": "infinite",
				"testCalculatedPriceIncreaseAtWeek2()": "infinite",
				"testCalculatedPriceIncreaseAtWeek3()": "infinite"
			}
		},
		"methodIdentifiers": {
			"beforeAll()": "7fea0d4b",
			"checkIfUserCanBuyBeforePreSale()": "b78d8f62",
			"checkPreSaleActivation()": "95c4c59e",
			"checkPresaleStartedIsFalse()": "18f128eb",
			"checkSuccess()": "011e6492",
			"testAccountBalances()": "80cb4b93",
			"testCalculateWeeks()": "7b70af2d",
			"testCalculateWeeks0()": "6dd4de24",
			"testCalculateWeeks2()": "d5cc5b34",
			"testCalculateWeeks3()": "39f03dad",
			"testCalculatedPriceIncreaseAtWeek0()": "bffc4072",
			"testCalculatedPriceIncreaseAtWeek2()": "a02660b6",
			"testCalculatedPriceIncreaseAtWeek3()": "d23abfe0"
		}
	},
	"abi": [
		{
			"anonymous": false,
			"inputs": [
				{
					"indexed": false,
					"internalType": "uint256",
					"name": "balance",
					"type": "uint256"
				}
			],
			"name": "LogBalance",
			"type": "event"
		},
		{
			"inputs": [],
			"name": "beforeAll",
			"outputs": [],
			"stateMutability": "nonpayable",
			"type": "function"
		},
		{
			"inputs": [],
			"name": "checkIfUserCanBuyBeforePreSale",
			"outputs": [],
			"stateMutability": "nonpayable",
			"type": "function"
		},
		{
			"inputs": [],
			"name": "checkPreSaleActivation",
			"outputs": [],
			"stateMutability": "nonpayable",
			"type": "function"
		},
		{
			"inputs": [],
			"name": "checkPresaleStartedIsFalse",
			"outputs": [],
			"stateMutability": "nonpayable",
			"type": "function"
		},
		{
			"inputs": [],
			"name": "checkSuccess",
			"outputs": [],
			"stateMutability": "nonpayable",
			"type": "function"
		},
		{
			"inputs": [],
			"name": "testAccountBalances",
			"outputs": [],
			"stateMutability": "nonpayable",
			"type": "function"
		},
		{
			"inputs": [],
			"name": "testCalculateWeeks",
			"outputs": [],
			"stateMutability": "nonpayable",
			"type": "function"
		},
		{
			"inputs": [],
			"name": "testCalculateWeeks0",
			"outputs": [],
			"stateMutability": "nonpayable",
			"type": "function"
		},
		{
			"inputs": [],
			"name": "testCalculateWeeks2",
			"outputs": [],
			"stateMutability": "nonpayable",
			"type": "function"
		},
		{
			"inputs": [],
			"name": "testCalculateWeeks3",
			"outputs": [],
			"stateMutability": "nonpayable",
			"type": "function"
		},
		{
			"inputs": [],
			"name": "testCalculatedPriceIncreaseAtWeek0",
			"outputs": [],
			"stateMutability": "nonpayable",
			"type": "function"
		},
		{
			"inputs": [],
			"name": "testCalculatedPriceIncreaseAtWeek2",
			"outputs": [],
			"stateMutability": "nonpayable",
			"type": "function"
		},
		{
			"inputs": [],
			"name": "testCalculatedPriceIncreaseAtWeek3",
			"outputs": [],
			"stateMutability": "nonpayable",
			"type": "function"
		}
	]
}