{
	"data": {
		"bytecode": {
			"linkReferences": {
				"remix_tests.sol": {
					"Assert": [
						{
							"length": 20,
							"start": 806
						}
					]
				}
			},
			"object": "608060405269d3c21bcecceda1000000600455670de0b6b3a7640000600555600a600655671bc16d674ec800006007556005600855348015603e575f80fd5b506117558061004c5f395ff3fe608060405234801561000f575f80fd5b50600436106100a6575f3560e01c80637fea0d4b1161006e5780637fea0d4b146100ea57806387d251af146100f45780638da5cb5b146100fc5780638de38f9814610127578063eabe09ad1461013a578063fc0c546a1461014d575f80fd5b806303e293a3146100aa5780631d0806ae146100c6578063378dc3dc146100cf5780634f3fc2df146100d85780637165d19b146100e1575b5f80fd5b6100b360075481565b6040519081526020015b60405180910390f35b6100b360055481565b6100b360045481565b6100b360085481565b6100b360065481565b6100f261015f565b005b6100f2610216565b60015461010f906001600160a01b031681565b6040516001600160a01b0390911681526020016100bd565b60035461010f906001600160a01b031681565b60025461010f906001600160a01b031681565b5f5461010f906001600160a01b031681565b600180546001600160a01b0319908116611234908117909255600280548216615678179055600380549091166191011790556004546005546006546007546008546040516101ac9061033b565b6001600160a01b039096168652602086019490945260408501929092526060840152608083015260a082015260c001604051809103905ff0801580156101f4573d5f803e3d5ffd5b505f80546001600160a01b0319166001600160a01b0392909216919091179055565b600480545f8054604080516318160ddd60e01b81529051939492936001600160a01b03909216926318160ddd9282820192602092908290030181865afa158015610262573d5f803e3d5ffd5b505050506040513d601f19601f820116820180604052508101906102869190610348565b60405163055e6bcb60e51b8152600481018290526024810184905260606044820152601860648201527f496e697469616c20737570706c7920696e636f72726563740000000000000000608482015290915073__$acbfb1c35000d78352310b16a054a6b106$__9063abcd79609060a401602060405180830381865af4158015610312573d5f803e3d5ffd5b505050506040513d601f19601f82011682018060405250810190610336919061035f565b505050565b61139a8061038683390190565b5f60208284031215610358575f80fd5b5051919050565b5f6020828403121561036f575f80fd5b8151801515811461037e575f80fd5b939250505056fe608060405234801561000f575f80fd5b5060405161139a38038061139a83398101604081905261002e916102ae565b856040518060400160405280600b81526020016a2730ba3ab932aa37b5b2b760a91b81525060405180604001604052806003815260200162272a2960e91b815250816003908161007e91906103a0565b50600461008b82826103a0565b5050506001600160a01b0381166100bc57604051631e4fbdf760e01b81525f60048201526024015b60405180910390fd5b6100c5816100ff565b506100e5306100d66012600a610553565b6100e09088610568565b610150565b600893909355600a91909155600955600c55506105929050565b600580546001600160a01b038381166001600160a01b0319831681179093556040519116919082907f8be0079c531659141344cd1fd0a4f28419497f9722a3daafe3b4186f6b6457e0905f90a35050565b6001600160a01b0382166101795760405163ec442f0560e01b81525f60048201526024016100b3565b6101845f8383610188565b5050565b6001600160a01b0383166101b2578060025f8282546101a7919061057f565b909155506102229050565b6001600160a01b0383165f90815260208190526040902054818110156102045760405163391434e360e21b81526001600160a01b038516600482015260248101829052604481018390526064016100b3565b6001600160a01b0384165f9081526020819052604090209082900390555b6001600160a01b03821661023e5760028054829003905561025c565b6001600160a01b0382165f9081526020819052604090208054820190555b816001600160a01b0316836001600160a01b03167fddf252ad1be2c89b69c2b068fc378daa952ba7f163c4a11628f55a4df523b3ef836040516102a191815260200190565b60405180910390a3505050565b5f805f805f8060c087890312156102c3575f80fd5b86516001600160a01b03811681146102d9575f80fd5b6020880151604089015160608a015160808b015160a0909b0151939c929b509099909850965090945092505050565b634e487b7160e01b5f52604160045260245ffd5b600181811c9082168061033057607f821691505b60208210810361034e57634e487b7160e01b5f52602260045260245ffd5b50919050565b601f82111561039b57805f5260205f20601f840160051c810160208510156103795750805b601f840160051c820191505b81811015610398575f8155600101610385565b50505b505050565b81516001600160401b038111156103b9576103b9610308565b6103cd816103c7845461031c565b84610354565b6020601f8211600181146103ff575f83156103e85750848201515b5f19600385901b1c1916600184901b178455610398565b5f84815260208120601f198516915b8281101561042e578785015182556020948501946001909201910161040e565b508482101561044b57868401515f19600387901b60f8161c191681555b50505050600190811b01905550565b634e487b7160e01b5f52601160045260245ffd5b6001815b60018411156104a95780850481111561048d5761048d61045a565b600184161561049b57908102905b60019390931c928002610472565b935093915050565b5f826104bf5750600161054d565b816104cb57505f61054d565b81600181146104e157600281146104eb57610507565b600191505061054d565b60ff8411156104fc576104fc61045a565b50506001821b61054d565b5060208310610133831016604e8410600b841016171561052a575081810a61054d565b6105365f19848461046e565b805f19048211156105495761054961045a565b0290505b92915050565b5f61056160ff8416836104b1565b9392505050565b808202811582820484141761054d5761054d61045a565b8082018082111561054d5761054d61045a565b610dfb8061059f5f395ff3fe608060405234801561000f575f80fd5b50600436106101c6575f3560e01c80635ee09669116100fe57806395d89b411161009e578063dd62ed3e1161006e578063dd62ed3e146103bf578063ed338ff1146103f7578063f2fde38b14610400578063f993185514610413575f80fd5b806395d89b4114610389578063a5ce413b14610391578063a9059cbb14610399578063b7d68519146103ac575f80fd5b80637165d19b116100d95780637165d19b146103335780637547c7a31461033c5780638da5cb5b1461034f5780638f0794fe1461036a575f80fd5b80635ee09669146102ee57806370a0823114610301578063715018a614610329575f80fd5b806323b872dd11610169578063499d7f9611610144578063499d7f96146102955780634ac530dc146102b45780634f3fc2df146102dc578063518ab2a8146102e5575f80fd5b806323b872dd1461024b578063313ce5671461025e5780633a02a42d1461026d575f80fd5b80630d505541116101a45780630d5055411461021e57806318160ddd146102315780631cbaee2d146102395780631d0806ae14610242575f80fd5b806303e293a3146101ca57806306fdde03146101e6578063095ea7b3146101fb575b5f80fd5b6101d360095481565b6040519081526020015b60405180910390f35b6101ee610432565b6040516101dd9190610c03565b61020e610209366004610c53565b6104c2565b60405190151581526020016101dd565b6101d361022c366004610c7b565b6104db565b6002546101d3565b6101d360065481565b6101d360085481565b61020e610259366004610c9b565b610566565b604051601281526020016101dd565b6101d361027b366004610c7b565b6001600160a01b03165f908152600d602052604090205490565b6101d36102a3366004610c7b565b600f6020525f908152604090205481565b6101d36102c2366004610c7b565b6001600160a01b03165f908152600e602052604090205490565b6101d3600c5481565b6101d3600b5481565b6101d36102fc366004610c7b565b610589565b6101d361030f366004610c7b565b6001600160a01b03165f9081526020819052604090205490565b610331610593565b005b6101d3600a5481565b61033161034a366004610cd5565b6105a6565b6005546040516001600160a01b0390911681526020016101dd565b6101d3610378366004610c7b565b600e6020525f908152604090205481565b6101ee6106de565b6103316106ed565b61020e6103a7366004610c53565b61084b565b6103316103ba366004610cd5565b610858565b6101d36103cd366004610cec565b6001600160a01b039182165f90815260016020908152604080832093909416825291909152205490565b6101d360075481565b61033161040e366004610c7b565b610865565b6101d3610421366004610c7b565b600d6020525f908152604090205481565b60606003805461044190610d1d565b80601f016020809104026020016040519081016040528092919081815260200182805461046d90610d1d565b80156104b85780601f1061048f576101008083540402835291602001916104b8565b820191905f5260205f20905b81548152906001019060200180831161049b57829003601f168201915b5050505050905090565b5f336104cf8185856108a2565b60019150505b92915050565b6001600160a01b0381165f908152600d602052604081205480820361050257505f92915050565b6001600160a01b0383165f908152600e60205260408120546105249042610d69565b90505f61053462093a8083610d7c565b90505f606482600c54866105489190610d9b565b6105529190610d9b565b61055c9190610d7c565b9695505050505050565b5f336105738582856108b4565b61057e858585610930565b506001949350505050565b5f6104d5826104db565b61059b61098d565b6105a45f6109ba565b565b5f81116106045760405162461bcd60e51b815260206004820152602160248201527f416d6f756e74206d7573742062652067726561746572207468616e207a65726f6044820152601760f91b60648201526084015b60405180910390fd5b335f908152602081905260409020548111156106625760405162461bcd60e51b815260206004820152601e60248201527f496e73756666696369656e742062616c616e636520746f207374616b652e000060448201526064016105fb565b61066d333083610930565b335f908152600d60205260408120805483929061068b908490610db2565b9091555050335f818152600e602052604090819020429055517fb539ca1e5c8d398ddf1c41c30166f33404941683be4683319b57669a93dad4ef906106d39084815260200190565b60405180910390a250565b60606004805461044190610d1d565b335f908152600d60205260409020548061073d5760405162461bcd60e51b81526020600482015260116024820152702737903a37b5b2b7399039ba30b5b2b21760791b60448201526064016105fb565b335f908152600e60205260408120546107569042610d69565b90505f61076662093a8083610d7c565b905060048110156107cc5760405162461bcd60e51b815260206004820152602a60248201527f546f6b656e732063616e206f6e6c7920626520756e7374616b6564206166746560448201526939101a103bb2b2b5b99760b11b60648201526084016105fb565b5f6107d6336104db565b335f818152600d60209081526040808320839055600e90915281205590915061080a9030906108058488610db2565b610930565b604080518581526020810183905233917f6f2d3e000c89d37446b7c0374c0125068ff316d1e3ee302336478a8cd03c2336910160405180910390a250505050565b5f336104cf818585610930565b61086061098d565b600c55565b61086d61098d565b6001600160a01b03811661089657604051631e4fbdf760e01b81525f60048201526024016105fb565b61089f816109ba565b50565b6108af8383836001610a0b565b505050565b6001600160a01b038381165f908152600160209081526040808320938616835292905220545f1981101561092a578181101561091c57604051637dc7a0d960e11b81526001600160a01b038416600482015260248101829052604481018390526064016105fb565b61092a84848484035f610a0b565b50505050565b6001600160a01b03831661095957604051634b637e8f60e11b81525f60048201526024016105fb565b6001600160a01b0382166109825760405163ec442f0560e01b81525f60048201526024016105fb565b6108af838383610add565b6005546001600160a01b031633146105a45760405163118cdaa760e01b81523360048201526024016105fb565b600580546001600160a01b038381166001600160a01b0319831681179093556040519116919082907f8be0079c531659141344cd1fd0a4f28419497f9722a3daafe3b4186f6b6457e0905f90a35050565b6001600160a01b038416610a345760405163e602df0560e01b81525f60048201526024016105fb565b6001600160a01b038316610a5d57604051634a1406b160e11b81525f60048201526024016105fb565b6001600160a01b038085165f908152600160209081526040808320938716835292905220829055801561092a57826001600160a01b0316846001600160a01b03167f8c5be1e5ebec7d5bd14f71427d1e84f3dd0314c0f7b2291e5b200ac8c7c3b92584604051610acf91815260200190565b60405180910390a350505050565b6001600160a01b038316610b07578060025f828254610afc9190610db2565b90915550610b779050565b6001600160a01b0383165f9081526020819052604090205481811015610b595760405163391434e360e21b81526001600160a01b038516600482015260248101829052604481018390526064016105fb565b6001600160a01b0384165f9081526020819052604090209082900390555b6001600160a01b038216610b9357600280548290039055610bb1565b6001600160a01b0382165f9081526020819052604090208054820190555b816001600160a01b0316836001600160a01b03167fddf252ad1be2c89b69c2b068fc378daa952ba7f163c4a11628f55a4df523b3ef83604051610bf691815260200190565b60405180910390a3505050565b602081525f82518060208401528060208501604085015e5f604082850101526040601f19601f83011684010191505092915050565b80356001600160a01b0381168114610c4e575f80fd5b919050565b5f8060408385031215610c64575f80fd5b610c6d83610c38565b946020939093013593505050565b5f60208284031215610c8b575f80fd5b610c9482610c38565b9392505050565b5f805f60608486031215610cad575f80fd5b610cb684610c38565b9250610cc460208501610c38565b929592945050506040919091013590565b5f60208284031215610ce5575f80fd5b5035919050565b5f8060408385031215610cfd575f80fd5b610d0683610c38565b9150610d1460208401610c38565b90509250929050565b600181811c90821680610d3157607f821691505b602082108103610d4f57634e487b7160e01b5f52602260045260245ffd5b50919050565b634e487b7160e01b5f52601160045260245ffd5b818103818111156104d5576104d5610d55565b5f82610d9657634e487b7160e01b5f52601260045260245ffd5b500490565b80820281158282048414176104d5576104d5610d55565b808201808211156104d5576104d5610d5556fea2646970667358221220e85ebc57c42d36536ad3d0afceace7a65c9d8e068baba1ff4e42969b6085e54264736f6c634300081a0033a26469706673582212204386c4f93de7e4839cc18e2424172547177bcd88ba2655d60ce87fec96da2dab64736f6c634300081a0033",
			"opcodes": "PUSH1 0x80 PUSH1 0x40 MSTORE PUSH10 0xD3C21BCECCEDA1000000 PUSH1 0x4 SSTORE PUSH8 0xDE0B6B3A7640000 PUSH1 0x5 SSTORE PUSH1 0xA PUSH1 0x6 SSTORE PUSH8 0x1BC16D674EC80000 PUSH1 0x7 SSTORE PUSH1 0x5 PUSH1 0x8 SSTORE CALLVALUE DUP1 ISZERO PUSH1 0x3E JUMPI PUSH0 DUP1 REVERT JUMPDEST POP PUSH2 0x1755 DUP1 PUSH2 0x4C PUSH0 CODECOPY PUSH0 RETURN INVALID PUSH1 0x80 PUSH1 0x40 MSTORE CALLVALUE DUP1 ISZERO PUSH2 0xF JUMPI PUSH0 DUP1 REVERT JUMPDEST POP PUSH1 0x4 CALLDATASIZE LT PUSH2 0xA6 JUMPI PUSH0 CALLDATALOAD PUSH1 0xE0 SHR DUP1 PUSH4 0x7FEA0D4B GT PUSH2 0x6E JUMPI DUP1 PUSH4 0x7FEA0D4B EQ PUSH2 0xEA JUMPI DUP1 PUSH4 0x87D251AF EQ PUSH2 0xF4 JUMPI DUP1 PUSH4 0x8DA5CB5B EQ PUSH2 0xFC JUMPI DUP1 PUSH4 0x8DE38F98 EQ PUSH2 0x127 JUMPI DUP1 PUSH4 0xEABE09AD EQ PUSH2 0x13A JUMPI DUP1 PUSH4 0xFC0C546A EQ PUSH2 0x14D JUMPI PUSH0 DUP1 REVERT JUMPDEST DUP1 PUSH4 0x3E293A3 EQ PUSH2 0xAA JUMPI DUP1 PUSH4 0x1D0806AE EQ PUSH2 0xC6 JUMPI DUP1 PUSH4 0x378DC3DC EQ PUSH2 0xCF JUMPI DUP1 PUSH4 0x4F3FC2DF EQ PUSH2 0xD8 JUMPI DUP1 PUSH4 0x7165D19B EQ PUSH2 0xE1 JUMPI JUMPDEST PUSH0 DUP1 REVERT JUMPDEST PUSH2 0xB3 PUSH1 0x7 SLOAD DUP2 JUMP JUMPDEST PUSH1 0x40 MLOAD SWAP1 DUP2 MSTORE PUSH1 0x20 ADD JUMPDEST PUSH1 0x40 MLOAD DUP1 SWAP2 SUB SWAP1 RETURN JUMPDEST PUSH2 0xB3 PUSH1 0x5 SLOAD DUP2 JUMP JUMPDEST PUSH2 0xB3 PUSH1 0x4 SLOAD DUP2 JUMP JUMPDEST PUSH2 0xB3 PUSH1 0x8 SLOAD DUP2 JUMP JUMPDEST PUSH2 0xB3 PUSH1 0x6 SLOAD DUP2 JUMP JUMPDEST PUSH2 0xF2 PUSH2 0x15F JUMP JUMPDEST STOP JUMPDEST PUSH2 0xF2 PUSH2 0x216 JUMP JUMPDEST PUSH1 0x1 SLOAD PUSH2 0x10F SWAP1 PUSH1 0x1 PUSH1 0x1 PUSH1 0xA0 SHL SUB AND DUP2 JUMP JUMPDEST PUSH1 0x40 MLOAD PUSH1 0x1 PUSH1 0x1 PUSH1 0xA0 SHL SUB SWAP1 SWAP2 AND DUP2 MSTORE PUSH1 0x20 ADD PUSH2 0xBD JUMP JUMPDEST PUSH1 0x3 SLOAD PUSH2 0x10F SWAP1 PUSH1 0x1 PUSH1 0x1 PUSH1 0xA0 SHL SUB AND DUP2 JUMP JUMPDEST PUSH1 0x2 SLOAD PUSH2 0x10F SWAP1 PUSH1 0x1 PUSH1 0x1 PUSH1 0xA0 SHL SUB AND DUP2 JUMP JUMPDEST PUSH0 SLOAD PUSH2 0x10F SWAP1 PUSH1 0x1 PUSH1 0x1 PUSH1 0xA0 SHL SUB AND DUP2 JUMP JUMPDEST PUSH1 0x1 DUP1 SLOAD PUSH1 0x1 PUSH1 0x1 PUSH1 0xA0 SHL SUB NOT SWAP1 DUP2 AND PUSH2 0x1234 SWAP1 DUP2 OR SWAP1 SWAP3 SSTORE PUSH1 0x2 DUP1 SLOAD DUP3 AND PUSH2 0x5678 OR SWAP1 SSTORE PUSH1 0x3 DUP1 SLOAD SWAP1 SWAP2 AND PUSH2 0x9101 OR SWAP1 SSTORE PUSH1 0x4 SLOAD PUSH1 0x5 SLOAD PUSH1 0x6 SLOAD PUSH1 0x7 SLOAD PUSH1 0x8 SLOAD PUSH1 0x40 MLOAD PUSH2 0x1AC SWAP1 PUSH2 0x33B JUMP JUMPDEST PUSH1 0x1 PUSH1 0x1 PUSH1 0xA0 SHL SUB SWAP1 SWAP7 AND DUP7 MSTORE PUSH1 0x20 DUP7 ADD SWAP5 SWAP1 SWAP5 MSTORE PUSH1 0x40 DUP6 ADD SWAP3 SWAP1 SWAP3 MSTORE PUSH1 0x60 DUP5 ADD MSTORE PUSH1 0x80 DUP4 ADD MSTORE PUSH1 0xA0 DUP3 ADD MSTORE PUSH1 0xC0 ADD PUSH1 0x40 MLOAD DUP1 SWAP2 SUB SWAP1 PUSH0 CREATE DUP1 ISZERO DUP1 ISZERO PUSH2 0x1F4 JUMPI RETURNDATASIZE PUSH0 DUP1 RETURNDATACOPY RETURNDATASIZE PUSH0 REVERT JUMPDEST POP PUSH0 DUP1 SLOAD PUSH1 0x1 PUSH1 0x1 PUSH1 0xA0 SHL SUB NOT AND PUSH1 0x1 PUSH1 0x1 PUSH1 0xA0 SHL SUB SWAP3 SWAP1 SWAP3 AND SWAP2 SWAP1 SWAP2 OR SWAP1 SSTORE JUMP JUMPDEST PUSH1 0x4 DUP1 SLOAD PUSH0 DUP1 SLOAD PUSH1 0x40 DUP1 MLOAD PUSH4 0x18160DDD PUSH1 0xE0 SHL DUP2 MSTORE SWAP1 MLOAD SWAP4 SWAP5 SWAP3 SWAP4 PUSH1 0x1 PUSH1 0x1 PUSH1 0xA0 SHL SUB SWAP1 SWAP3 AND SWAP3 PUSH4 0x18160DDD SWAP3 DUP3 DUP3 ADD SWAP3 PUSH1 0x20 SWAP3 SWAP1 DUP3 SWAP1 SUB ADD DUP2 DUP7 GAS STATICCALL ISZERO DUP1 ISZERO PUSH2 0x262 JUMPI RETURNDATASIZE PUSH0 DUP1 RETURNDATACOPY RETURNDATASIZE PUSH0 REVERT JUMPDEST POP POP POP POP PUSH1 0x40 MLOAD RETURNDATASIZE PUSH1 0x1F NOT PUSH1 0x1F DUP3 ADD AND DUP3 ADD DUP1 PUSH1 0x40 MSTORE POP DUP2 ADD SWAP1 PUSH2 0x286 SWAP2 SWAP1 PUSH2 0x348 JUMP JUMPDEST PUSH1 0x40 MLOAD PUSH4 0x55E6BCB PUSH1 0xE5 SHL DUP2 MSTORE PUSH1 0x4 DUP2 ADD DUP3 SWAP1 MSTORE PUSH1 0x24 DUP2 ADD DUP5 SWAP1 MSTORE PUSH1 0x60 PUSH1 0x44 DUP3 ADD MSTORE PUSH1 0x18 PUSH1 0x64 DUP3 ADD MSTORE PUSH32 0x496E697469616C20737570706C7920696E636F72726563740000000000000000 PUSH1 0x84 DUP3 ADD MSTORE SWAP1 SWAP2 POP PUSH20 0x0 SWAP1 PUSH4 0xABCD7960 SWAP1 PUSH1 0xA4 ADD PUSH1 0x20 PUSH1 0x40 MLOAD DUP1 DUP4 SUB DUP2 DUP7 GAS DELEGATECALL ISZERO DUP1 ISZERO PUSH2 0x312 JUMPI RETURNDATASIZE PUSH0 DUP1 RETURNDATACOPY RETURNDATASIZE PUSH0 REVERT JUMPDEST POP POP POP POP PUSH1 0x40 MLOAD RETURNDATASIZE PUSH1 0x1F NOT PUSH1 0x1F DUP3 ADD AND DUP3 ADD DUP1 PUSH1 0x40 MSTORE POP DUP2 ADD SWAP1 PUSH2 0x336 SWAP2 SWAP1 PUSH2 0x35F JUMP JUMPDEST POP POP POP JUMP JUMPDEST PUSH2 0x139A DUP1 PUSH2 0x386 DUP4 CODECOPY ADD SWAP1 JUMP JUMPDEST PUSH0 PUSH1 0x20 DUP3 DUP5 SUB SLT ISZERO PUSH2 0x358 JUMPI PUSH0 DUP1 REVERT JUMPDEST POP MLOAD SWAP2 SWAP1 POP JUMP JUMPDEST PUSH0 PUSH1 0x20 DUP3 DUP5 SUB SLT ISZERO PUSH2 0x36F JUMPI PUSH0 DUP1 REVERT JUMPDEST DUP2 MLOAD DUP1 ISZERO ISZERO DUP2 EQ PUSH2 0x37E JUMPI PUSH0 DUP1 REVERT JUMPDEST SWAP4 SWAP3 POP POP POP JUMP INVALID PUSH1 0x80 PUSH1 0x40 MSTORE CALLVALUE DUP1 ISZERO PUSH2 0xF JUMPI PUSH0 DUP1 REVERT JUMPDEST POP PUSH1 0x40 MLOAD PUSH2 0x139A CODESIZE SUB DUP1 PUSH2 0x139A DUP4 CODECOPY DUP2 ADD PUSH1 0x40 DUP2 SWAP1 MSTORE PUSH2 0x2E SWAP2 PUSH2 0x2AE JUMP JUMPDEST DUP6 PUSH1 0x40 MLOAD DUP1 PUSH1 0x40 ADD PUSH1 0x40 MSTORE DUP1 PUSH1 0xB DUP2 MSTORE PUSH1 0x20 ADD PUSH11 0x2730BA3AB932AA37B5B2B7 PUSH1 0xA9 SHL DUP2 MSTORE POP PUSH1 0x40 MLOAD DUP1 PUSH1 0x40 ADD PUSH1 0x40 MSTORE DUP1 PUSH1 0x3 DUP2 MSTORE PUSH1 0x20 ADD PUSH3 0x272A29 PUSH1 0xE9 SHL DUP2 MSTORE POP DUP2 PUSH1 0x3 SWAP1 DUP2 PUSH2 0x7E SWAP2 SWAP1 PUSH2 0x3A0 JUMP JUMPDEST POP PUSH1 0x4 PUSH2 0x8B DUP3 DUP3 PUSH2 0x3A0 JUMP JUMPDEST POP POP POP PUSH1 0x1 PUSH1 0x1 PUSH1 0xA0 SHL SUB DUP2 AND PUSH2 0xBC JUMPI PUSH1 0x40 MLOAD PUSH4 0x1E4FBDF7 PUSH1 0xE0 SHL DUP2 MSTORE PUSH0 PUSH1 0x4 DUP3 ADD MSTORE PUSH1 0x24 ADD JUMPDEST PUSH1 0x40 MLOAD DUP1 SWAP2 SUB SWAP1 REVERT JUMPDEST PUSH2 0xC5 DUP2 PUSH2 0xFF JUMP JUMPDEST POP PUSH2 0xE5 ADDRESS PUSH2 0xD6 PUSH1 0x12 PUSH1 0xA PUSH2 0x553 JUMP JUMPDEST PUSH2 0xE0 SWAP1 DUP9 PUSH2 0x568 JUMP JUMPDEST PUSH2 0x150 JUMP JUMPDEST PUSH1 0x8 SWAP4 SWAP1 SWAP4 SSTORE PUSH1 0xA SWAP2 SWAP1 SWAP2 SSTORE PUSH1 0x9 SSTORE PUSH1 0xC SSTORE POP PUSH2 0x592 SWAP1 POP JUMP JUMPDEST PUSH1 0x5 DUP1 SLOAD PUSH1 0x1 PUSH1 0x1 PUSH1 0xA0 SHL SUB DUP4 DUP2 AND PUSH1 0x1 PUSH1 0x1 PUSH1 0xA0 SHL SUB NOT DUP4 AND DUP2 OR SWAP1 SWAP4 SSTORE PUSH1 0x40 MLOAD SWAP2 AND SWAP2 SWAP1 DUP3 SWAP1 PUSH32 0x8BE0079C531659141344CD1FD0A4F28419497F9722A3DAAFE3B4186F6B6457E0 SWAP1 PUSH0 SWAP1 LOG3 POP POP JUMP JUMPDEST PUSH1 0x1 PUSH1 0x1 PUSH1 0xA0 SHL SUB DUP3 AND PUSH2 0x179 JUMPI PUSH1 0x40 MLOAD PUSH4 0xEC442F05 PUSH1 0xE0 SHL DUP2 MSTORE PUSH0 PUSH1 0x4 DUP3 ADD MSTORE PUSH1 0x24 ADD PUSH2 0xB3 JUMP JUMPDEST PUSH2 0x184 PUSH0 DUP4 DUP4 PUSH2 0x188 JUMP JUMPDEST POP POP JUMP JUMPDEST PUSH1 0x1 PUSH1 0x1 PUSH1 0xA0 SHL SUB DUP4 AND PUSH2 0x1B2 JUMPI DUP1 PUSH1 0x2 PUSH0 DUP3 DUP3 SLOAD PUSH2 0x1A7 SWAP2 SWAP1 PUSH2 0x57F JUMP JUMPDEST SWAP1 SWAP2 SSTORE POP PUSH2 0x222 SWAP1 POP JUMP JUMPDEST PUSH1 0x1 PUSH1 0x1 PUSH1 0xA0 SHL SUB DUP4 AND PUSH0 SWAP1 DUP2 MSTORE PUSH1 0x20 DUP2 SWAP1 MSTORE PUSH1 0x40 SWAP1 KECCAK256 SLOAD DUP2 DUP2 LT ISZERO PUSH2 0x204 JUMPI PUSH1 0x40 MLOAD PUSH4 0x391434E3 PUSH1 0xE2 SHL DUP2 MSTORE PUSH1 0x1 PUSH1 0x1 PUSH1 0xA0 SHL SUB DUP6 AND PUSH1 0x4 DUP3 ADD MSTORE PUSH1 0x24 DUP2 ADD DUP3 SWAP1 MSTORE PUSH1 0x44 DUP2 ADD DUP4 SWAP1 MSTORE PUSH1 0x64 ADD PUSH2 0xB3 JUMP JUMPDEST PUSH1 0x1 PUSH1 0x1 PUSH1 0xA0 SHL SUB DUP5 AND PUSH0 SWAP1 DUP2 MSTORE PUSH1 0x20 DUP2 SWAP1 MSTORE PUSH1 0x40 SWAP1 KECCAK256 SWAP1 DUP3 SWAP1 SUB SWAP1 SSTORE JUMPDEST PUSH1 0x1 PUSH1 0x1 PUSH1 0xA0 SHL SUB DUP3 AND PUSH2 0x23E JUMPI PUSH1 0x2 DUP1 SLOAD DUP3 SWAP1 SUB SWAP1 SSTORE PUSH2 0x25C JUMP JUMPDEST PUSH1 0x1 PUSH1 0x1 PUSH1 0xA0 SHL SUB DUP3 AND PUSH0 SWAP1 DUP2 MSTORE PUSH1 0x20 DUP2 SWAP1 MSTORE PUSH1 0x40 SWAP1 KECCAK256 DUP1 SLOAD DUP3 ADD SWAP1 SSTORE JUMPDEST DUP2 PUSH1 0x1 PUSH1 0x1 PUSH1 0xA0 SHL SUB AND DUP4 PUSH1 0x1 PUSH1 0x1 PUSH1 0xA0 SHL SUB AND PUSH32 0xDDF252AD1BE2C89B69C2B068FC378DAA952BA7F163C4A11628F55A4DF523B3EF DUP4 PUSH1 0x40 MLOAD PUSH2 0x2A1 SWAP2 DUP2 MSTORE PUSH1 0x20 ADD SWAP1 JUMP JUMPDEST PUSH1 0x40 MLOAD DUP1 SWAP2 SUB SWAP1 LOG3 POP POP POP JUMP JUMPDEST PUSH0 DUP1 PUSH0 DUP1 PUSH0 DUP1 PUSH1 0xC0 DUP8 DUP10 SUB SLT ISZERO PUSH2 0x2C3 JUMPI PUSH0 DUP1 REVERT JUMPDEST DUP7 MLOAD PUSH1 0x1 PUSH1 0x1 PUSH1 0xA0 SHL SUB DUP2 AND DUP2 EQ PUSH2 0x2D9 JUMPI PUSH0 DUP1 REVERT JUMPDEST PUSH1 0x20 DUP9 ADD MLOAD PUSH1 0x40 DUP10 ADD MLOAD PUSH1 0x60 DUP11 ADD MLOAD PUSH1 0x80 DUP12 ADD MLOAD PUSH1 0xA0 SWAP1 SWAP12 ADD MLOAD SWAP4 SWAP13 SWAP3 SWAP12 POP SWAP1 SWAP10 SWAP1 SWAP9 POP SWAP7 POP SWAP1 SWAP5 POP SWAP3 POP POP POP JUMP JUMPDEST PUSH4 0x4E487B71 PUSH1 0xE0 SHL PUSH0 MSTORE PUSH1 0x41 PUSH1 0x4 MSTORE PUSH1 0x24 PUSH0 REVERT JUMPDEST PUSH1 0x1 DUP2 DUP2 SHR SWAP1 DUP3 AND DUP1 PUSH2 0x330 JUMPI PUSH1 0x7F DUP3 AND SWAP2 POP JUMPDEST PUSH1 0x20 DUP3 LT DUP2 SUB PUSH2 0x34E JUMPI PUSH4 0x4E487B71 PUSH1 0xE0 SHL PUSH0 MSTORE PUSH1 0x22 PUSH1 0x4 MSTORE PUSH1 0x24 PUSH0 REVERT JUMPDEST POP SWAP2 SWAP1 POP JUMP JUMPDEST PUSH1 0x1F DUP3 GT ISZERO PUSH2 0x39B JUMPI DUP1 PUSH0 MSTORE PUSH1 0x20 PUSH0 KECCAK256 PUSH1 0x1F DUP5 ADD PUSH1 0x5 SHR DUP2 ADD PUSH1 0x20 DUP6 LT ISZERO PUSH2 0x379 JUMPI POP DUP1 JUMPDEST PUSH1 0x1F DUP5 ADD PUSH1 0x5 SHR DUP3 ADD SWAP2 POP JUMPDEST DUP2 DUP2 LT ISZERO PUSH2 0x398 JUMPI PUSH0 DUP2 SSTORE PUSH1 0x1 ADD PUSH2 0x385 JUMP JUMPDEST POP POP JUMPDEST POP POP POP JUMP JUMPDEST DUP2 MLOAD PUSH1 0x1 PUSH1 0x1 PUSH1 0x40 SHL SUB DUP2 GT ISZERO PUSH2 0x3B9 JUMPI PUSH2 0x3B9 PUSH2 0x308 JUMP JUMPDEST PUSH2 0x3CD DUP2 PUSH2 0x3C7 DUP5 SLOAD PUSH2 0x31C JUMP JUMPDEST DUP5 PUSH2 0x354 JUMP JUMPDEST PUSH1 0x20 PUSH1 0x1F DUP3 GT PUSH1 0x1 DUP2 EQ PUSH2 0x3FF JUMPI PUSH0 DUP4 ISZERO PUSH2 0x3E8 JUMPI POP DUP5 DUP3 ADD MLOAD JUMPDEST PUSH0 NOT PUSH1 0x3 DUP6 SWAP1 SHL SHR NOT AND PUSH1 0x1 DUP5 SWAP1 SHL OR DUP5 SSTORE PUSH2 0x398 JUMP JUMPDEST PUSH0 DUP5 DUP2 MSTORE PUSH1 0x20 DUP2 KECCAK256 PUSH1 0x1F NOT DUP6 AND SWAP2 JUMPDEST DUP3 DUP2 LT ISZERO PUSH2 0x42E JUMPI DUP8 DUP6 ADD MLOAD DUP3 SSTORE PUSH1 0x20 SWAP5 DUP6 ADD SWAP5 PUSH1 0x1 SWAP1 SWAP3 ADD SWAP2 ADD PUSH2 0x40E JUMP JUMPDEST POP DUP5 DUP3 LT ISZERO PUSH2 0x44B JUMPI DUP7 DUP5 ADD MLOAD PUSH0 NOT PUSH1 0x3 DUP8 SWAP1 SHL PUSH1 0xF8 AND SHR NOT AND DUP2 SSTORE JUMPDEST POP POP POP POP PUSH1 0x1 SWAP1 DUP2 SHL ADD SWAP1 SSTORE POP JUMP JUMPDEST PUSH4 0x4E487B71 PUSH1 0xE0 SHL PUSH0 MSTORE PUSH1 0x11 PUSH1 0x4 MSTORE PUSH1 0x24 PUSH0 REVERT JUMPDEST PUSH1 0x1 DUP2 JUMPDEST PUSH1 0x1 DUP5 GT ISZERO PUSH2 0x4A9 JUMPI DUP1 DUP6 DIV DUP2 GT ISZERO PUSH2 0x48D JUMPI PUSH2 0x48D PUSH2 0x45A JUMP JUMPDEST PUSH1 0x1 DUP5 AND ISZERO PUSH2 0x49B JUMPI SWAP1 DUP2 MUL SWAP1 JUMPDEST PUSH1 0x1 SWAP4 SWAP1 SWAP4 SHR SWAP3 DUP1 MUL PUSH2 0x472 JUMP JUMPDEST SWAP4 POP SWAP4 SWAP2 POP POP JUMP JUMPDEST PUSH0 DUP3 PUSH2 0x4BF JUMPI POP PUSH1 0x1 PUSH2 0x54D JUMP JUMPDEST DUP2 PUSH2 0x4CB JUMPI POP PUSH0 PUSH2 0x54D JUMP JUMPDEST DUP2 PUSH1 0x1 DUP2 EQ PUSH2 0x4E1 JUMPI PUSH1 0x2 DUP2 EQ PUSH2 0x4EB JUMPI PUSH2 0x507 JUMP JUMPDEST PUSH1 0x1 SWAP2 POP POP PUSH2 0x54D JUMP JUMPDEST PUSH1 0xFF DUP5 GT ISZERO PUSH2 0x4FC JUMPI PUSH2 0x4FC PUSH2 0x45A JUMP JUMPDEST POP POP PUSH1 0x1 DUP3 SHL PUSH2 0x54D JUMP JUMPDEST POP PUSH1 0x20 DUP4 LT PUSH2 0x133 DUP4 LT AND PUSH1 0x4E DUP5 LT PUSH1 0xB DUP5 LT AND OR ISZERO PUSH2 0x52A JUMPI POP DUP2 DUP2 EXP PUSH2 0x54D JUMP JUMPDEST PUSH2 0x536 PUSH0 NOT DUP5 DUP5 PUSH2 0x46E JUMP JUMPDEST DUP1 PUSH0 NOT DIV DUP3 GT ISZERO PUSH2 0x549 JUMPI PUSH2 0x549 PUSH2 0x45A JUMP JUMPDEST MUL SWAP1 POP JUMPDEST SWAP3 SWAP2 POP POP JUMP JUMPDEST PUSH0 PUSH2 0x561 PUSH1 0xFF DUP5 AND DUP4 PUSH2 0x4B1 JUMP JUMPDEST SWAP4 SWAP3 POP POP POP JUMP JUMPDEST DUP1 DUP3 MUL DUP2 ISZERO DUP3 DUP3 DIV DUP5 EQ OR PUSH2 0x54D JUMPI PUSH2 0x54D PUSH2 0x45A JUMP JUMPDEST DUP1 DUP3 ADD DUP1 DUP3 GT ISZERO PUSH2 0x54D JUMPI PUSH2 0x54D PUSH2 0x45A JUMP JUMPDEST PUSH2 0xDFB DUP1 PUSH2 0x59F PUSH0 CODECOPY PUSH0 RETURN INVALID PUSH1 0x80 PUSH1 0x40 MSTORE CALLVALUE DUP1 ISZERO PUSH2 0xF JUMPI PUSH0 DUP1 REVERT JUMPDEST POP PUSH1 0x4 CALLDATASIZE LT PUSH2 0x1C6 JUMPI PUSH0 CALLDATALOAD PUSH1 0xE0 SHR DUP1 PUSH4 0x5EE09669 GT PUSH2 0xFE JUMPI DUP1 PUSH4 0x95D89B41 GT PUSH2 0x9E JUMPI DUP1 PUSH4 0xDD62ED3E GT PUSH2 0x6E JUMPI DUP1 PUSH4 0xDD62ED3E EQ PUSH2 0x3BF JUMPI DUP1 PUSH4 0xED338FF1 EQ PUSH2 0x3F7 JUMPI DUP1 PUSH4 0xF2FDE38B EQ PUSH2 0x400 JUMPI DUP1 PUSH4 0xF9931855 EQ PUSH2 0x413 JUMPI PUSH0 DUP1 REVERT JUMPDEST DUP1 PUSH4 0x95D89B41 EQ PUSH2 0x389 JUMPI DUP1 PUSH4 0xA5CE413B EQ PUSH2 0x391 JUMPI DUP1 PUSH4 0xA9059CBB EQ PUSH2 0x399 JUMPI DUP1 PUSH4 0xB7D68519 EQ PUSH2 0x3AC JUMPI PUSH0 DUP1 REVERT JUMPDEST DUP1 PUSH4 0x7165D19B GT PUSH2 0xD9 JUMPI DUP1 PUSH4 0x7165D19B EQ PUSH2 0x333 JUMPI DUP1 PUSH4 0x7547C7A3 EQ PUSH2 0x33C JUMPI DUP1 PUSH4 0x8DA5CB5B EQ PUSH2 0x34F JUMPI DUP1 PUSH4 0x8F0794FE EQ PUSH2 0x36A JUMPI PUSH0 DUP1 REVERT JUMPDEST DUP1 PUSH4 0x5EE09669 EQ PUSH2 0x2EE JUMPI DUP1 PUSH4 0x70A08231 EQ PUSH2 0x301 JUMPI DUP1 PUSH4 0x715018A6 EQ PUSH2 0x329 JUMPI PUSH0 DUP1 REVERT JUMPDEST DUP1 PUSH4 0x23B872DD GT PUSH2 0x169 JUMPI DUP1 PUSH4 0x499D7F96 GT PUSH2 0x144 JUMPI DUP1 PUSH4 0x499D7F96 EQ PUSH2 0x295 JUMPI DUP1 PUSH4 0x4AC530DC EQ PUSH2 0x2B4 JUMPI DUP1 PUSH4 0x4F3FC2DF EQ PUSH2 0x2DC JUMPI DUP1 PUSH4 0x518AB2A8 EQ PUSH2 0x2E5 JUMPI PUSH0 DUP1 REVERT JUMPDEST DUP1 PUSH4 0x23B872DD EQ PUSH2 0x24B JUMPI DUP1 PUSH4 0x313CE567 EQ PUSH2 0x25E JUMPI DUP1 PUSH4 0x3A02A42D EQ PUSH2 0x26D JUMPI PUSH0 DUP1 REVERT JUMPDEST DUP1 PUSH4 0xD505541 GT PUSH2 0x1A4 JUMPI DUP1 PUSH4 0xD505541 EQ PUSH2 0x21E JUMPI DUP1 PUSH4 0x18160DDD EQ PUSH2 0x231 JUMPI DUP1 PUSH4 0x1CBAEE2D EQ PUSH2 0x239 JUMPI DUP1 PUSH4 0x1D0806AE EQ PUSH2 0x242 JUMPI PUSH0 DUP1 REVERT JUMPDEST DUP1 PUSH4 0x3E293A3 EQ PUSH2 0x1CA JUMPI DUP1 PUSH4 0x6FDDE03 EQ PUSH2 0x1E6 JUMPI DUP1 PUSH4 0x95EA7B3 EQ PUSH2 0x1FB JUMPI JUMPDEST PUSH0 DUP1 REVERT JUMPDEST PUSH2 0x1D3 PUSH1 0x9 SLOAD DUP2 JUMP JUMPDEST PUSH1 0x40 MLOAD SWAP1 DUP2 MSTORE PUSH1 0x20 ADD JUMPDEST PUSH1 0x40 MLOAD DUP1 SWAP2 SUB SWAP1 RETURN JUMPDEST PUSH2 0x1EE PUSH2 0x432 JUMP JUMPDEST PUSH1 0x40 MLOAD PUSH2 0x1DD SWAP2 SWAP1 PUSH2 0xC03 JUMP JUMPDEST PUSH2 0x20E PUSH2 0x209 CALLDATASIZE PUSH1 0x4 PUSH2 0xC53 JUMP JUMPDEST PUSH2 0x4C2 JUMP JUMPDEST PUSH1 0x40 MLOAD SWAP1 ISZERO ISZERO DUP2 MSTORE PUSH1 0x20 ADD PUSH2 0x1DD JUMP JUMPDEST PUSH2 0x1D3 PUSH2 0x22C CALLDATASIZE PUSH1 0x4 PUSH2 0xC7B JUMP JUMPDEST PUSH2 0x4DB JUMP JUMPDEST PUSH1 0x2 SLOAD PUSH2 0x1D3 JUMP JUMPDEST PUSH2 0x1D3 PUSH1 0x6 SLOAD DUP2 JUMP JUMPDEST PUSH2 0x1D3 PUSH1 0x8 SLOAD DUP2 JUMP JUMPDEST PUSH2 0x20E PUSH2 0x259 CALLDATASIZE PUSH1 0x4 PUSH2 0xC9B JUMP JUMPDEST PUSH2 0x566 JUMP JUMPDEST PUSH1 0x40 MLOAD PUSH1 0x12 DUP2 MSTORE PUSH1 0x20 ADD PUSH2 0x1DD JUMP JUMPDEST PUSH2 0x1D3 PUSH2 0x27B CALLDATASIZE PUSH1 0x4 PUSH2 0xC7B JUMP JUMPDEST PUSH1 0x1 PUSH1 0x1 PUSH1 0xA0 SHL SUB AND PUSH0 SWAP1 DUP2 MSTORE PUSH1 0xD PUSH1 0x20 MSTORE PUSH1 0x40 SWAP1 KECCAK256 SLOAD SWAP1 JUMP JUMPDEST PUSH2 0x1D3 PUSH2 0x2A3 CALLDATASIZE PUSH1 0x4 PUSH2 0xC7B JUMP JUMPDEST PUSH1 0xF PUSH1 0x20 MSTORE PUSH0 SWAP1 DUP2 MSTORE PUSH1 0x40 SWAP1 KECCAK256 SLOAD DUP2 JUMP JUMPDEST PUSH2 0x1D3 PUSH2 0x2C2 CALLDATASIZE PUSH1 0x4 PUSH2 0xC7B JUMP JUMPDEST PUSH1 0x1 PUSH1 0x1 PUSH1 0xA0 SHL SUB AND PUSH0 SWAP1 DUP2 MSTORE PUSH1 0xE PUSH1 0x20 MSTORE PUSH1 0x40 SWAP1 KECCAK256 SLOAD SWAP1 JUMP JUMPDEST PUSH2 0x1D3 PUSH1 0xC SLOAD DUP2 JUMP JUMPDEST PUSH2 0x1D3 PUSH1 0xB SLOAD DUP2 JUMP JUMPDEST PUSH2 0x1D3 PUSH2 0x2FC CALLDATASIZE PUSH1 0x4 PUSH2 0xC7B JUMP JUMPDEST PUSH2 0x589 JUMP JUMPDEST PUSH2 0x1D3 PUSH2 0x30F CALLDATASIZE PUSH1 0x4 PUSH2 0xC7B JUMP JUMPDEST PUSH1 0x1 PUSH1 0x1 PUSH1 0xA0 SHL SUB AND PUSH0 SWAP1 DUP2 MSTORE PUSH1 0x20 DUP2 SWAP1 MSTORE PUSH1 0x40 SWAP1 KECCAK256 SLOAD SWAP1 JUMP JUMPDEST PUSH2 0x331 PUSH2 0x593 JUMP JUMPDEST STOP JUMPDEST PUSH2 0x1D3 PUSH1 0xA SLOAD DUP2 JUMP JUMPDEST PUSH2 0x331 PUSH2 0x34A CALLDATASIZE PUSH1 0x4 PUSH2 0xCD5 JUMP JUMPDEST PUSH2 0x5A6 JUMP JUMPDEST PUSH1 0x5 SLOAD PUSH1 0x40 MLOAD PUSH1 0x1 PUSH1 0x1 PUSH1 0xA0 SHL SUB SWAP1 SWAP2 AND DUP2 MSTORE PUSH1 0x20 ADD PUSH2 0x1DD JUMP JUMPDEST PUSH2 0x1D3 PUSH2 0x378 CALLDATASIZE PUSH1 0x4 PUSH2 0xC7B JUMP JUMPDEST PUSH1 0xE PUSH1 0x20 MSTORE PUSH0 SWAP1 DUP2 MSTORE PUSH1 0x40 SWAP1 KECCAK256 SLOAD DUP2 JUMP JUMPDEST PUSH2 0x1EE PUSH2 0x6DE JUMP JUMPDEST PUSH2 0x331 PUSH2 0x6ED JUMP JUMPDEST PUSH2 0x20E PUSH2 0x3A7 CALLDATASIZE PUSH1 0x4 PUSH2 0xC53 JUMP JUMPDEST PUSH2 0x84B JUMP JUMPDEST PUSH2 0x331 PUSH2 0x3BA CALLDATASIZE PUSH1 0x4 PUSH2 0xCD5 JUMP JUMPDEST PUSH2 0x858 JUMP JUMPDEST PUSH2 0x1D3 PUSH2 0x3CD CALLDATASIZE PUSH1 0x4 PUSH2 0xCEC JUMP JUMPDEST PUSH1 0x1 PUSH1 0x1 PUSH1 0xA0 SHL SUB SWAP2 DUP3 AND PUSH0 SWAP1 DUP2 MSTORE PUSH1 0x1 PUSH1 0x20 SWAP1 DUP2 MSTORE PUSH1 0x40 DUP1 DUP4 KECCAK256 SWAP4 SWAP1 SWAP5 AND DUP3 MSTORE SWAP2 SWAP1 SWAP2 MSTORE KECCAK256 SLOAD SWAP1 JUMP JUMPDEST PUSH2 0x1D3 PUSH1 0x7 SLOAD DUP2 JUMP JUMPDEST PUSH2 0x331 PUSH2 0x40E CALLDATASIZE PUSH1 0x4 PUSH2 0xC7B JUMP JUMPDEST PUSH2 0x865 JUMP JUMPDEST PUSH2 0x1D3 PUSH2 0x421 CALLDATASIZE PUSH1 0x4 PUSH2 0xC7B JUMP JUMPDEST PUSH1 0xD PUSH1 0x20 MSTORE PUSH0 SWAP1 DUP2 MSTORE PUSH1 0x40 SWAP1 KECCAK256 SLOAD DUP2 JUMP JUMPDEST PUSH1 0x60 PUSH1 0x3 DUP1 SLOAD PUSH2 0x441 SWAP1 PUSH2 0xD1D JUMP JUMPDEST DUP1 PUSH1 0x1F ADD PUSH1 0x20 DUP1 SWAP2 DIV MUL PUSH1 0x20 ADD PUSH1 0x40 MLOAD SWAP1 DUP2 ADD PUSH1 0x40 MSTORE DUP1 SWAP3 SWAP2 SWAP1 DUP2 DUP2 MSTORE PUSH1 0x20 ADD DUP3 DUP1 SLOAD PUSH2 0x46D SWAP1 PUSH2 0xD1D JUMP JUMPDEST DUP1 ISZERO PUSH2 0x4B8 JUMPI DUP1 PUSH1 0x1F LT PUSH2 0x48F JUMPI PUSH2 0x100 DUP1 DUP4 SLOAD DIV MUL DUP4 MSTORE SWAP2 PUSH1 0x20 ADD SWAP2 PUSH2 0x4B8 JUMP JUMPDEST DUP3 ADD SWAP2 SWAP1 PUSH0 MSTORE PUSH1 0x20 PUSH0 KECCAK256 SWAP1 JUMPDEST DUP2 SLOAD DUP2 MSTORE SWAP1 PUSH1 0x1 ADD SWAP1 PUSH1 0x20 ADD DUP1 DUP4 GT PUSH2 0x49B JUMPI DUP3 SWAP1 SUB PUSH1 0x1F AND DUP3 ADD SWAP2 JUMPDEST POP POP POP POP POP SWAP1 POP SWAP1 JUMP JUMPDEST PUSH0 CALLER PUSH2 0x4CF DUP2 DUP6 DUP6 PUSH2 0x8A2 JUMP JUMPDEST PUSH1 0x1 SWAP2 POP POP JUMPDEST SWAP3 SWAP2 POP POP JUMP JUMPDEST PUSH1 0x1 PUSH1 0x1 PUSH1 0xA0 SHL SUB DUP2 AND PUSH0 SWAP1 DUP2 MSTORE PUSH1 0xD PUSH1 0x20 MSTORE PUSH1 0x40 DUP2 KECCAK256 SLOAD DUP1 DUP3 SUB PUSH2 0x502 JUMPI POP PUSH0 SWAP3 SWAP2 POP POP JUMP JUMPDEST PUSH1 0x1 PUSH1 0x1 PUSH1 0xA0 SHL SUB DUP4 AND PUSH0 SWAP1 DUP2 MSTORE PUSH1 0xE PUSH1 0x20 MSTORE PUSH1 0x40 DUP2 KECCAK256 SLOAD PUSH2 0x524 SWAP1 TIMESTAMP PUSH2 0xD69 JUMP JUMPDEST SWAP1 POP PUSH0 PUSH2 0x534 PUSH3 0x93A80 DUP4 PUSH2 0xD7C JUMP JUMPDEST SWAP1 POP PUSH0 PUSH1 0x64 DUP3 PUSH1 0xC SLOAD DUP7 PUSH2 0x548 SWAP2 SWAP1 PUSH2 0xD9B JUMP JUMPDEST PUSH2 0x552 SWAP2 SWAP1 PUSH2 0xD9B JUMP JUMPDEST PUSH2 0x55C SWAP2 SWAP1 PUSH2 0xD7C JUMP JUMPDEST SWAP7 SWAP6 POP POP POP POP POP POP JUMP JUMPDEST PUSH0 CALLER PUSH2 0x573 DUP6 DUP3 DUP6 PUSH2 0x8B4 JUMP JUMPDEST PUSH2 0x57E DUP6 DUP6 DUP6 PUSH2 0x930 JUMP JUMPDEST POP PUSH1 0x1 SWAP5 SWAP4 POP POP POP POP JUMP JUMPDEST PUSH0 PUSH2 0x4D5 DUP3 PUSH2 0x4DB JUMP JUMPDEST PUSH2 0x59B PUSH2 0x98D JUMP JUMPDEST PUSH2 0x5A4 PUSH0 PUSH2 0x9BA JUMP JUMPDEST JUMP JUMPDEST PUSH0 DUP2 GT PUSH2 0x604 JUMPI PUSH1 0x40 MLOAD PUSH3 0x461BCD PUSH1 0xE5 SHL DUP2 MSTORE PUSH1 0x20 PUSH1 0x4 DUP3 ADD MSTORE PUSH1 0x21 PUSH1 0x24 DUP3 ADD MSTORE PUSH32 0x416D6F756E74206D7573742062652067726561746572207468616E207A65726F PUSH1 0x44 DUP3 ADD MSTORE PUSH1 0x17 PUSH1 0xF9 SHL PUSH1 0x64 DUP3 ADD MSTORE PUSH1 0x84 ADD JUMPDEST PUSH1 0x40 MLOAD DUP1 SWAP2 SUB SWAP1 REVERT JUMPDEST CALLER PUSH0 SWAP1 DUP2 MSTORE PUSH1 0x20 DUP2 SWAP1 MSTORE PUSH1 0x40 SWAP1 KECCAK256 SLOAD DUP2 GT ISZERO PUSH2 0x662 JUMPI PUSH1 0x40 MLOAD PUSH3 0x461BCD PUSH1 0xE5 SHL DUP2 MSTORE PUSH1 0x20 PUSH1 0x4 DUP3 ADD MSTORE PUSH1 0x1E PUSH1 0x24 DUP3 ADD MSTORE PUSH32 0x496E73756666696369656E742062616C616E636520746F207374616B652E0000 PUSH1 0x44 DUP3 ADD MSTORE PUSH1 0x64 ADD PUSH2 0x5FB JUMP JUMPDEST PUSH2 0x66D CALLER ADDRESS DUP4 PUSH2 0x930 JUMP JUMPDEST CALLER PUSH0 SWAP1 DUP2 MSTORE PUSH1 0xD PUSH1 0x20 MSTORE PUSH1 0x40 DUP2 KECCAK256 DUP1 SLOAD DUP4 SWAP3 SWAP1 PUSH2 0x68B SWAP1 DUP5 SWAP1 PUSH2 0xDB2 JUMP JUMPDEST SWAP1 SWAP2 SSTORE POP POP CALLER PUSH0 DUP2 DUP2 MSTORE PUSH1 0xE PUSH1 0x20 MSTORE PUSH1 0x40 SWAP1 DUP2 SWAP1 KECCAK256 TIMESTAMP SWAP1 SSTORE MLOAD PUSH32 0xB539CA1E5C8D398DDF1C41C30166F33404941683BE4683319B57669A93DAD4EF SWAP1 PUSH2 0x6D3 SWAP1 DUP5 DUP2 MSTORE PUSH1 0x20 ADD SWAP1 JUMP JUMPDEST PUSH1 0x40 MLOAD DUP1 SWAP2 SUB SWAP1 LOG2 POP JUMP JUMPDEST PUSH1 0x60 PUSH1 0x4 DUP1 SLOAD PUSH2 0x441 SWAP1 PUSH2 0xD1D JUMP JUMPDEST CALLER PUSH0 SWAP1 DUP2 MSTORE PUSH1 0xD PUSH1 0x20 MSTORE PUSH1 0x40 SWAP1 KECCAK256 SLOAD DUP1 PUSH2 0x73D JUMPI PUSH1 0x40 MLOAD PUSH3 0x461BCD PUSH1 0xE5 SHL DUP2 MSTORE PUSH1 0x20 PUSH1 0x4 DUP3 ADD MSTORE PUSH1 0x11 PUSH1 0x24 DUP3 ADD MSTORE PUSH17 0x2737903A37B5B2B7399039BA30B5B2B217 PUSH1 0x79 SHL PUSH1 0x44 DUP3 ADD MSTORE PUSH1 0x64 ADD PUSH2 0x5FB JUMP JUMPDEST CALLER PUSH0 SWAP1 DUP2 MSTORE PUSH1 0xE PUSH1 0x20 MSTORE PUSH1 0x40 DUP2 KECCAK256 SLOAD PUSH2 0x756 SWAP1 TIMESTAMP PUSH2 0xD69 JUMP JUMPDEST SWAP1 POP PUSH0 PUSH2 0x766 PUSH3 0x93A80 DUP4 PUSH2 0xD7C JUMP JUMPDEST SWAP1 POP PUSH1 0x4 DUP2 LT ISZERO PUSH2 0x7CC JUMPI PUSH1 0x40 MLOAD PUSH3 0x461BCD PUSH1 0xE5 SHL DUP2 MSTORE PUSH1 0x20 PUSH1 0x4 DUP3 ADD MSTORE PUSH1 0x2A PUSH1 0x24 DUP3 ADD MSTORE PUSH32 0x546F6B656E732063616E206F6E6C7920626520756E7374616B65642061667465 PUSH1 0x44 DUP3 ADD MSTORE PUSH10 0x39101A103BB2B2B5B997 PUSH1 0xB1 SHL PUSH1 0x64 DUP3 ADD MSTORE PUSH1 0x84 ADD PUSH2 0x5FB JUMP JUMPDEST PUSH0 PUSH2 0x7D6 CALLER PUSH2 0x4DB JUMP JUMPDEST CALLER PUSH0 DUP2 DUP2 MSTORE PUSH1 0xD PUSH1 0x20 SWAP1 DUP2 MSTORE PUSH1 0x40 DUP1 DUP4 KECCAK256 DUP4 SWAP1 SSTORE PUSH1 0xE SWAP1 SWAP2 MSTORE DUP2 KECCAK256 SSTORE SWAP1 SWAP2 POP PUSH2 0x80A SWAP1 ADDRESS SWAP1 PUSH2 0x805 DUP5 DUP9 PUSH2 0xDB2 JUMP JUMPDEST PUSH2 0x930 JUMP JUMPDEST PUSH1 0x40 DUP1 MLOAD DUP6 DUP2 MSTORE PUSH1 0x20 DUP2 ADD DUP4 SWAP1 MSTORE CALLER SWAP2 PUSH32 0x6F2D3E000C89D37446B7C0374C0125068FF316D1E3EE302336478A8CD03C2336 SWAP2 ADD PUSH1 0x40 MLOAD DUP1 SWAP2 SUB SWAP1 LOG2 POP POP POP POP JUMP JUMPDEST PUSH0 CALLER PUSH2 0x4CF DUP2 DUP6 DUP6 PUSH2 0x930 JUMP JUMPDEST PUSH2 0x860 PUSH2 0x98D JUMP JUMPDEST PUSH1 0xC SSTORE JUMP JUMPDEST PUSH2 0x86D PUSH2 0x98D JUMP JUMPDEST PUSH1 0x1 PUSH1 0x1 PUSH1 0xA0 SHL SUB DUP2 AND PUSH2 0x896 JUMPI PUSH1 0x40 MLOAD PUSH4 0x1E4FBDF7 PUSH1 0xE0 SHL DUP2 MSTORE PUSH0 PUSH1 0x4 DUP3 ADD MSTORE PUSH1 0x24 ADD PUSH2 0x5FB JUMP JUMPDEST PUSH2 0x89F DUP2 PUSH2 0x9BA JUMP JUMPDEST POP JUMP JUMPDEST PUSH2 0x8AF DUP4 DUP4 DUP4 PUSH1 0x1 PUSH2 0xA0B JUMP JUMPDEST POP POP POP JUMP JUMPDEST PUSH1 0x1 PUSH1 0x1 PUSH1 0xA0 SHL SUB DUP4 DUP2 AND PUSH0 SWAP1 DUP2 MSTORE PUSH1 0x1 PUSH1 0x20 SWAP1 DUP2 MSTORE PUSH1 0x40 DUP1 DUP4 KECCAK256 SWAP4 DUP7 AND DUP4 MSTORE SWAP3 SWAP1 MSTORE KECCAK256 SLOAD PUSH0 NOT DUP2 LT ISZERO PUSH2 0x92A JUMPI DUP2 DUP2 LT ISZERO PUSH2 0x91C JUMPI PUSH1 0x40 MLOAD PUSH4 0x7DC7A0D9 PUSH1 0xE1 SHL DUP2 MSTORE PUSH1 0x1 PUSH1 0x1 PUSH1 0xA0 SHL SUB DUP5 AND PUSH1 0x4 DUP3 ADD MSTORE PUSH1 0x24 DUP2 ADD DUP3 SWAP1 MSTORE PUSH1 0x44 DUP2 ADD DUP4 SWAP1 MSTORE PUSH1 0x64 ADD PUSH2 0x5FB JUMP JUMPDEST PUSH2 0x92A DUP5 DUP5 DUP5 DUP5 SUB PUSH0 PUSH2 0xA0B JUMP JUMPDEST POP POP POP POP JUMP JUMPDEST PUSH1 0x1 PUSH1 0x1 PUSH1 0xA0 SHL SUB DUP4 AND PUSH2 0x959 JUMPI PUSH1 0x40 MLOAD PUSH4 0x4B637E8F PUSH1 0xE1 SHL DUP2 MSTORE PUSH0 PUSH1 0x4 DUP3 ADD MSTORE PUSH1 0x24 ADD PUSH2 0x5FB JUMP JUMPDEST PUSH1 0x1 PUSH1 0x1 PUSH1 0xA0 SHL SUB DUP3 AND PUSH2 0x982 JUMPI PUSH1 0x40 MLOAD PUSH4 0xEC442F05 PUSH1 0xE0 SHL DUP2 MSTORE PUSH0 PUSH1 0x4 DUP3 ADD MSTORE PUSH1 0x24 ADD PUSH2 0x5FB JUMP JUMPDEST PUSH2 0x8AF DUP4 DUP4 DUP4 PUSH2 0xADD JUMP JUMPDEST PUSH1 0x5 SLOAD PUSH1 0x1 PUSH1 0x1 PUSH1 0xA0 SHL SUB AND CALLER EQ PUSH2 0x5A4 JUMPI PUSH1 0x40 MLOAD PUSH4 0x118CDAA7 PUSH1 0xE0 SHL DUP2 MSTORE CALLER PUSH1 0x4 DUP3 ADD MSTORE PUSH1 0x24 ADD PUSH2 0x5FB JUMP JUMPDEST PUSH1 0x5 DUP1 SLOAD PUSH1 0x1 PUSH1 0x1 PUSH1 0xA0 SHL SUB DUP4 DUP2 AND PUSH1 0x1 PUSH1 0x1 PUSH1 0xA0 SHL SUB NOT DUP4 AND DUP2 OR SWAP1 SWAP4 SSTORE PUSH1 0x40 MLOAD SWAP2 AND SWAP2 SWAP1 DUP3 SWAP1 PUSH32 0x8BE0079C531659141344CD1FD0A4F28419497F9722A3DAAFE3B4186F6B6457E0 SWAP1 PUSH0 SWAP1 LOG3 POP POP JUMP JUMPDEST PUSH1 0x1 PUSH1 0x1 PUSH1 0xA0 SHL SUB DUP5 AND PUSH2 0xA34 JUMPI PUSH1 0x40 MLOAD PUSH4 0xE602DF05 PUSH1 0xE0 SHL DUP2 MSTORE PUSH0 PUSH1 0x4 DUP3 ADD MSTORE PUSH1 0x24 ADD PUSH2 0x5FB JUMP JUMPDEST PUSH1 0x1 PUSH1 0x1 PUSH1 0xA0 SHL SUB DUP4 AND PUSH2 0xA5D JUMPI PUSH1 0x40 MLOAD PUSH4 0x4A1406B1 PUSH1 0xE1 SHL DUP2 MSTORE PUSH0 PUSH1 0x4 DUP3 ADD MSTORE PUSH1 0x24 ADD PUSH2 0x5FB JUMP JUMPDEST PUSH1 0x1 PUSH1 0x1 PUSH1 0xA0 SHL SUB DUP1 DUP6 AND PUSH0 SWAP1 DUP2 MSTORE PUSH1 0x1 PUSH1 0x20 SWAP1 DUP2 MSTORE PUSH1 0x40 DUP1 DUP4 KECCAK256 SWAP4 DUP8 AND DUP4 MSTORE SWAP3 SWAP1 MSTORE KECCAK256 DUP3 SWAP1 SSTORE DUP1 ISZERO PUSH2 0x92A JUMPI DUP3 PUSH1 0x1 PUSH1 0x1 PUSH1 0xA0 SHL SUB AND DUP5 PUSH1 0x1 PUSH1 0x1 PUSH1 0xA0 SHL SUB AND PUSH32 0x8C5BE1E5EBEC7D5BD14F71427D1E84F3DD0314C0F7B2291E5B200AC8C7C3B925 DUP5 PUSH1 0x40 MLOAD PUSH2 0xACF SWAP2 DUP2 MSTORE PUSH1 0x20 ADD SWAP1 JUMP JUMPDEST PUSH1 0x40 MLOAD DUP1 SWAP2 SUB SWAP1 LOG3 POP POP POP POP JUMP JUMPDEST PUSH1 0x1 PUSH1 0x1 PUSH1 0xA0 SHL SUB DUP4 AND PUSH2 0xB07 JUMPI DUP1 PUSH1 0x2 PUSH0 DUP3 DUP3 SLOAD PUSH2 0xAFC SWAP2 SWAP1 PUSH2 0xDB2 JUMP JUMPDEST SWAP1 SWAP2 SSTORE POP PUSH2 0xB77 SWAP1 POP JUMP JUMPDEST PUSH1 0x1 PUSH1 0x1 PUSH1 0xA0 SHL SUB DUP4 AND PUSH0 SWAP1 DUP2 MSTORE PUSH1 0x20 DUP2 SWAP1 MSTORE PUSH1 0x40 SWAP1 KECCAK256 SLOAD DUP2 DUP2 LT ISZERO PUSH2 0xB59 JUMPI PUSH1 0x40 MLOAD PUSH4 0x391434E3 PUSH1 0xE2 SHL DUP2 MSTORE PUSH1 0x1 PUSH1 0x1 PUSH1 0xA0 SHL SUB DUP6 AND PUSH1 0x4 DUP3 ADD MSTORE PUSH1 0x24 DUP2 ADD DUP3 SWAP1 MSTORE PUSH1 0x44 DUP2 ADD DUP4 SWAP1 MSTORE PUSH1 0x64 ADD PUSH2 0x5FB JUMP JUMPDEST PUSH1 0x1 PUSH1 0x1 PUSH1 0xA0 SHL SUB DUP5 AND PUSH0 SWAP1 DUP2 MSTORE PUSH1 0x20 DUP2 SWAP1 MSTORE PUSH1 0x40 SWAP1 KECCAK256 SWAP1 DUP3 SWAP1 SUB SWAP1 SSTORE JUMPDEST PUSH1 0x1 PUSH1 0x1 PUSH1 0xA0 SHL SUB DUP3 AND PUSH2 0xB93 JUMPI PUSH1 0x2 DUP1 SLOAD DUP3 SWAP1 SUB SWAP1 SSTORE PUSH2 0xBB1 JUMP JUMPDEST PUSH1 0x1 PUSH1 0x1 PUSH1 0xA0 SHL SUB DUP3 AND PUSH0 SWAP1 DUP2 MSTORE PUSH1 0x20 DUP2 SWAP1 MSTORE PUSH1 0x40 SWAP1 KECCAK256 DUP1 SLOAD DUP3 ADD SWAP1 SSTORE JUMPDEST DUP2 PUSH1 0x1 PUSH1 0x1 PUSH1 0xA0 SHL SUB AND DUP4 PUSH1 0x1 PUSH1 0x1 PUSH1 0xA0 SHL SUB AND PUSH32 0xDDF252AD1BE2C89B69C2B068FC378DAA952BA7F163C4A11628F55A4DF523B3EF DUP4 PUSH1 0x40 MLOAD PUSH2 0xBF6 SWAP2 DUP2 MSTORE PUSH1 0x20 ADD SWAP1 JUMP JUMPDEST PUSH1 0x40 MLOAD DUP1 SWAP2 SUB SWAP1 LOG3 POP POP POP JUMP JUMPDEST PUSH1 0x20 DUP2 MSTORE PUSH0 DUP3 MLOAD DUP1 PUSH1 0x20 DUP5 ADD MSTORE DUP1 PUSH1 0x20 DUP6 ADD PUSH1 0x40 DUP6 ADD MCOPY PUSH0 PUSH1 0x40 DUP3 DUP6 ADD ADD MSTORE PUSH1 0x40 PUSH1 0x1F NOT PUSH1 0x1F DUP4 ADD AND DUP5 ADD ADD SWAP2 POP POP SWAP3 SWAP2 POP POP JUMP JUMPDEST DUP1 CALLDATALOAD PUSH1 0x1 PUSH1 0x1 PUSH1 0xA0 SHL SUB DUP2 AND DUP2 EQ PUSH2 0xC4E JUMPI PUSH0 DUP1 REVERT JUMPDEST SWAP2 SWAP1 POP JUMP JUMPDEST PUSH0 DUP1 PUSH1 0x40 DUP4 DUP6 SUB SLT ISZERO PUSH2 0xC64 JUMPI PUSH0 DUP1 REVERT JUMPDEST PUSH2 0xC6D DUP4 PUSH2 0xC38 JUMP JUMPDEST SWAP5 PUSH1 0x20 SWAP4 SWAP1 SWAP4 ADD CALLDATALOAD SWAP4 POP POP POP JUMP JUMPDEST PUSH0 PUSH1 0x20 DUP3 DUP5 SUB SLT ISZERO PUSH2 0xC8B JUMPI PUSH0 DUP1 REVERT JUMPDEST PUSH2 0xC94 DUP3 PUSH2 0xC38 JUMP JUMPDEST SWAP4 SWAP3 POP POP POP JUMP JUMPDEST PUSH0 DUP1 PUSH0 PUSH1 0x60 DUP5 DUP7 SUB SLT ISZERO PUSH2 0xCAD JUMPI PUSH0 DUP1 REVERT JUMPDEST PUSH2 0xCB6 DUP5 PUSH2 0xC38 JUMP JUMPDEST SWAP3 POP PUSH2 0xCC4 PUSH1 0x20 DUP6 ADD PUSH2 0xC38 JUMP JUMPDEST SWAP3 SWAP6 SWAP3 SWAP5 POP POP POP PUSH1 0x40 SWAP2 SWAP1 SWAP2 ADD CALLDATALOAD SWAP1 JUMP JUMPDEST PUSH0 PUSH1 0x20 DUP3 DUP5 SUB SLT ISZERO PUSH2 0xCE5 JUMPI PUSH0 DUP1 REVERT JUMPDEST POP CALLDATALOAD SWAP2 SWAP1 POP JUMP JUMPDEST PUSH0 DUP1 PUSH1 0x40 DUP4 DUP6 SUB SLT ISZERO PUSH2 0xCFD JUMPI PUSH0 DUP1 REVERT JUMPDEST PUSH2 0xD06 DUP4 PUSH2 0xC38 JUMP JUMPDEST SWAP2 POP PUSH2 0xD14 PUSH1 0x20 DUP5 ADD PUSH2 0xC38 JUMP JUMPDEST SWAP1 POP SWAP3 POP SWAP3 SWAP1 POP JUMP JUMPDEST PUSH1 0x1 DUP2 DUP2 SHR SWAP1 DUP3 AND DUP1 PUSH2 0xD31 JUMPI PUSH1 0x7F DUP3 AND SWAP2 POP JUMPDEST PUSH1 0x20 DUP3 LT DUP2 SUB PUSH2 0xD4F JUMPI PUSH4 0x4E487B71 PUSH1 0xE0 SHL PUSH0 MSTORE PUSH1 0x22 PUSH1 0x4 MSTORE PUSH1 0x24 PUSH0 REVERT JUMPDEST POP SWAP2 SWAP1 POP JUMP JUMPDEST PUSH4 0x4E487B71 PUSH1 0xE0 SHL PUSH0 MSTORE PUSH1 0x11 PUSH1 0x4 MSTORE PUSH1 0x24 PUSH0 REVERT JUMPDEST DUP2 DUP2 SUB DUP2 DUP2 GT ISZERO PUSH2 0x4D5 JUMPI PUSH2 0x4D5 PUSH2 0xD55 JUMP JUMPDEST PUSH0 DUP3 PUSH2 0xD96 JUMPI PUSH4 0x4E487B71 PUSH1 0xE0 SHL PUSH0 MSTORE PUSH1 0x12 PUSH1 0x4 MSTORE PUSH1 0x24 PUSH0 REVERT JUMPDEST POP DIV SWAP1 JUMP JUMPDEST DUP1 DUP3 MUL DUP2 ISZERO DUP3 DUP3 DIV DUP5 EQ OR PUSH2 0x4D5 JUMPI PUSH2 0x4D5 PUSH2 0xD55 JUMP JUMPDEST DUP1 DUP3 ADD DUP1 DUP3 GT ISZERO PUSH2 0x4D5 JUMPI PUSH2 0x4D5 PUSH2 0xD55 JUMP INVALID LOG2 PUSH5 0x6970667358 0x22 SLT KECCAK256 0xE8 MCOPY 0xBC JUMPI 0xC4 0x2D CALLDATASIZE MSTORE8 PUSH11 0xD3D0AFCEACE7A65C9D8E06 DUP12 0xAB LOG1 SELFDESTRUCT 0x4E TIMESTAMP SWAP7 SWAP12 PUSH1 0x85 0xE5 TIMESTAMP PUSH5 0x736F6C6343 STOP ADDMOD BYTE STOP CALLER LOG2 PUSH5 0x6970667358 0x22 SLT KECCAK256 NUMBER DUP7 0xC4 0xF9 RETURNDATASIZE 0xE7 0xE4 DUP4 SWAP13 0xC1 DUP15 0x24 0x24 OR 0x25 SELFBALANCE OR PUSH28 0xCD88BA2655D60CE87FEC96DA2DAB64736F6C634300081A0033000000 "
		},
		"gasEstimates": {
			"creation": {
				"codeDepositCost": "1194600",
				"executionCost": "111769",
				"totalCost": "1306369"
			},
			"external": {
				"addr1()": "2424",
				"addr2()": "2402",
				"beforeAll()": "infinite",
				"initialPrice()": "2306",
				"initialSupply()": "2328",
				"owner()": "2380",
				"regularSalePrice()": "2284",
				"stakingRewardRate()": "2350",
				"testInitialSupply()": "infinite",
				"token()": "2445",
				"weeklyIncreaseRate()": "2372"
			}
		},
		"methodIdentifiers": {
			"addr1()": "eabe09ad",
			"addr2()": "8de38f98",
			"beforeAll()": "7fea0d4b",
			"initialPrice()": "1d0806ae",
			"initialSupply()": "378dc3dc",
			"owner()": "8da5cb5b",
			"regularSalePrice()": "03e293a3",
			"stakingRewardRate()": "4f3fc2df",
			"testInitialSupply()": "87d251af",
			"token()": "fc0c546a",
			"weeklyIncreaseRate()": "7165d19b"
		}
	},
	"abi": [
		{
			"inputs": [],
			"name": "addr1",
			"outputs": [
				{
					"internalType": "address",
					"name": "",
					"type": "address"
				}
			],
			"stateMutability": "view",
			"type": "function"
		},
		{
			"inputs": [],
			"name": "addr2",
			"outputs": [
				{
					"internalType": "address",
					"name": "",
					"type": "address"
				}
			],
			"stateMutability": "view",
			"type": "function"
		},
		{
			"inputs": [],
			"name": "beforeAll",
			"outputs": [],
			"stateMutability": "nonpayable",
			"type": "function"
		},
		{
			"inputs": [],
			"name": "initialPrice",
			"outputs": [
				{
					"internalType": "uint256",
					"name": "",
					"type": "uint256"
				}
			],
			"stateMutability": "view",
			"type": "function"
		},
		{
			"inputs": [],
			"name": "initialSupply",
			"outputs": [
				{
					"internalType": "uint256",
					"name": "",
					"type": "uint256"
				}
			],
			"stateMutability": "view",
			"type": "function"
		},
		{
			"inputs": [],
			"name": "owner",
			"outputs": [
				{
					"internalType": "address",
					"name": "",
					"type": "address"
				}
			],
			"stateMutability": "view",
			"type": "function"
		},
		{
			"inputs": [],
			"name": "regularSalePrice",
			"outputs": [
				{
					"internalType": "uint256",
					"name": "",
					"type": "uint256"
				}
			],
			"stateMutability": "view",
			"type": "function"
		},
		{
			"inputs": [],
			"name": "stakingRewardRate",
			"outputs": [
				{
					"internalType": "uint256",
					"name": "",
					"type": "uint256"
				}
			],
			"stateMutability": "view",
			"type": "function"
		},
		{
			"inputs": [],
			"name": "testInitialSupply",
			"outputs": [],
			"stateMutability": "nonpayable",
			"type": "function"
		},
		{
			"inputs": [],
			"name": "token",
			"outputs": [
				{
					"internalType": "contract TokenPreSale",
					"name": "",
					"type": "address"
				}
			],
			"stateMutability": "view",
			"type": "function"
		},
		{
			"inputs": [],
			"name": "weeklyIncreaseRate",
			"outputs": [
				{
					"internalType": "uint256",
					"name": "",
					"type": "uint256"
				}
			],
			"stateMutability": "view",
			"type": "function"
		}
	]
}