{
	"contracts/SimpleToken.sol": {
		"TokenPreSale": {
			"abi": [
				{
					"inputs": [
						{
							"internalType": "address",
							"name": "initialOwner",
							"type": "address"
						},
						{
							"internalType": "uint256",
							"name": "totalSupply",
							"type": "uint256"
						},
						{
							"internalType": "uint256",
							"name": "_initialPrice",
							"type": "uint256"
						},
						{
							"internalType": "uint256",
							"name": "_weeklyIncreaseRate",
							"type": "uint256"
						},
						{
							"internalType": "uint256",
							"name": "_regularSalePrice",
							"type": "uint256"
						},
						{
							"internalType": "uint256",
							"name": "_stakingRewardRate",
							"type": "uint256"
						}
					],
					"stateMutability": "nonpayable",
					"type": "constructor"
				},
				{
					"inputs": [
						{
							"internalType": "address",
							"name": "spender",
							"type": "address"
						},
						{
							"internalType": "uint256",
							"name": "allowance",
							"type": "uint256"
						},
						{
							"internalType": "uint256",
							"name": "needed",
							"type": "uint256"
						}
					],
					"name": "ERC20InsufficientAllowance",
					"type": "error"
				},
				{
					"inputs": [
						{
							"internalType": "address",
							"name": "sender",
							"type": "address"
						},
						{
							"internalType": "uint256",
							"name": "balance",
							"type": "uint256"
						},
						{
							"internalType": "uint256",
							"name": "needed",
							"type": "uint256"
						}
					],
					"name": "ERC20InsufficientBalance",
					"type": "error"
				},
				{
					"inputs": [
						{
							"internalType": "address",
							"name": "approver",
							"type": "address"
						}
					],
					"name": "ERC20InvalidApprover",
					"type": "error"
				},
				{
					"inputs": [
						{
							"internalType": "address",
							"name": "receiver",
							"type": "address"
						}
					],
					"name": "ERC20InvalidReceiver",
					"type": "error"
				},
				{
					"inputs": [
						{
							"internalType": "address",
							"name": "sender",
							"type": "address"
						}
					],
					"name": "ERC20InvalidSender",
					"type": "error"
				},
				{
					"inputs": [
						{
							"internalType": "address",
							"name": "spender",
							"type": "address"
						}
					],
					"name": "ERC20InvalidSpender",
					"type": "error"
				},
				{
					"inputs": [
						{
							"internalType": "address",
							"name": "owner",
							"type": "address"
						}
					],
					"name": "OwnableInvalidOwner",
					"type": "error"
				},
				{
					"inputs": [
						{
							"internalType": "address",
							"name": "account",
							"type": "address"
						}
					],
					"name": "OwnableUnauthorizedAccount",
					"type": "error"
				},
				{
					"anonymous": false,
					"inputs": [
						{
							"indexed": true,
							"internalType": "address",
							"name": "owner",
							"type": "address"
						},
						{
							"indexed": true,
							"internalType": "address",
							"name": "spender",
							"type": "address"
						},
						{
							"indexed": false,
							"internalType": "uint256",
							"name": "value",
							"type": "uint256"
						}
					],
					"name": "Approval",
					"type": "event"
				},
				{
					"anonymous": false,
					"inputs": [
						{
							"indexed": true,
							"internalType": "address",
							"name": "previousOwner",
							"type": "address"
						},
						{
							"indexed": true,
							"internalType": "address",
							"name": "newOwner",
							"type": "address"
						}
					],
					"name": "OwnershipTransferred",
					"type": "event"
				},
				{
					"anonymous": false,
					"inputs": [
						{
							"indexed": false,
							"internalType": "uint256",
							"name": "endTime",
							"type": "uint256"
						}
					],
					"name": "PreSaleEnded",
					"type": "event"
				},
				{
					"anonymous": false,
					"inputs": [
						{
							"indexed": false,
							"internalType": "uint256",
							"name": "startTime",
							"type": "uint256"
						},
						{
							"indexed": false,
							"internalType": "uint256",
							"name": "endTime",
							"type": "uint256"
						}
					],
					"name": "PreSaleStarted",
					"type": "event"
				},
				{
					"anonymous": false,
					"inputs": [
						{
							"indexed": true,
							"internalType": "address",
							"name": "referrer",
							"type": "address"
						},
						{
							"indexed": false,
							"internalType": "uint256",
							"name": "rewardAmount",
							"type": "uint256"
						}
					],
					"name": "ReferralRewardMinted",
					"type": "event"
				},
				{
					"anonymous": false,
					"inputs": [
						{
							"indexed": true,
							"internalType": "address",
							"name": "buyer",
							"type": "address"
						},
						{
							"indexed": false,
							"internalType": "uint256",
							"name": "amount",
							"type": "uint256"
						},
						{
							"indexed": false,
							"internalType": "uint256",
							"name": "cost",
							"type": "uint256"
						}
					],
					"name": "TokensPurchased",
					"type": "event"
				},
				{
					"anonymous": false,
					"inputs": [
						{
							"indexed": true,
							"internalType": "address",
							"name": "user",
							"type": "address"
						},
						{
							"indexed": false,
							"internalType": "uint256",
							"name": "amount",
							"type": "uint256"
						}
					],
					"name": "TokensStaked",
					"type": "event"
				},
				{
					"anonymous": false,
					"inputs": [
						{
							"indexed": true,
							"internalType": "address",
							"name": "user",
							"type": "address"
						},
						{
							"indexed": false,
							"internalType": "uint256",
							"name": "amount",
							"type": "uint256"
						},
						{
							"indexed": false,
							"internalType": "uint256",
							"name": "reward",
							"type": "uint256"
						}
					],
					"name": "TokensUnstaked",
					"type": "event"
				},
				{
					"anonymous": false,
					"inputs": [
						{
							"indexed": true,
							"internalType": "address",
							"name": "from",
							"type": "address"
						},
						{
							"indexed": true,
							"internalType": "address",
							"name": "to",
							"type": "address"
						},
						{
							"indexed": false,
							"internalType": "uint256",
							"name": "value",
							"type": "uint256"
						}
					],
					"name": "Transfer",
					"type": "event"
				},
				{
					"anonymous": false,
					"inputs": [
						{
							"indexed": true,
							"internalType": "address",
							"name": "user",
							"type": "address"
						},
						{
							"indexed": true,
							"internalType": "address",
							"name": "referral",
							"type": "address"
						}
					],
					"name": "UserWhitelisted",
					"type": "event"
				},
				{
					"inputs": [
						{
							"internalType": "address",
							"name": "owner",
							"type": "address"
						},
						{
							"internalType": "address",
							"name": "spender",
							"type": "address"
						}
					],
					"name": "allowance",
					"outputs": [
						{
							"internalType": "uint256",
							"name": "",
							"type": "uint256"
						}
					],
					"stateMutability": "view",
					"type": "function"
				},
				{
					"inputs": [
						{
							"internalType": "address",
							"name": "spender",
							"type": "address"
						},
						{
							"internalType": "uint256",
							"name": "value",
							"type": "uint256"
						}
					],
					"name": "approve",
					"outputs": [
						{
							"internalType": "bool",
							"name": "",
							"type": "bool"
						}
					],
					"stateMutability": "nonpayable",
					"type": "function"
				},
				{
					"inputs": [
						{
							"internalType": "address",
							"name": "account",
							"type": "address"
						}
					],
					"name": "balanceOf",
					"outputs": [
						{
							"internalType": "uint256",
							"name": "",
							"type": "uint256"
						}
					],
					"stateMutability": "view",
					"type": "function"
				},
				{
					"inputs": [],
					"name": "buyTokens",
					"outputs": [],
					"stateMutability": "payable",
					"type": "function"
				},
				{
					"inputs": [],
					"name": "calculatePrice",
					"outputs": [
						{
							"internalType": "uint256",
							"name": "",
							"type": "uint256"
						}
					],
					"stateMutability": "view",
					"type": "function"
				},
				{
					"inputs": [
						{
							"internalType": "address",
							"name": "referrer",
							"type": "address"
						}
					],
					"name": "calculateReferralReward",
					"outputs": [
						{
							"internalType": "uint256",
							"name": "",
							"type": "uint256"
						}
					],
					"stateMutability": "view",
					"type": "function"
				},
				{
					"inputs": [
						{
							"internalType": "address",
							"name": "user",
							"type": "address"
						}
					],
					"name": "calculateStakingReward",
					"outputs": [
						{
							"internalType": "uint256",
							"name": "",
							"type": "uint256"
						}
					],
					"stateMutability": "view",
					"type": "function"
				},
				{
					"inputs": [],
					"name": "decimals",
					"outputs": [
						{
							"internalType": "uint8",
							"name": "",
							"type": "uint8"
						}
					],
					"stateMutability": "view",
					"type": "function"
				},
				{
					"inputs": [],
					"name": "initialPrice",
					"outputs": [
						{
							"internalType": "uint256",
							"name": "",
							"type": "uint256"
						}
					],
					"stateMutability": "view",
					"type": "function"
				},
				{
					"inputs": [],
					"name": "mintReferralReward",
					"outputs": [],
					"stateMutability": "nonpayable",
					"type": "function"
				},
				{
					"inputs": [],
					"name": "name",
					"outputs": [
						{
							"internalType": "string",
							"name": "",
							"type": "string"
						}
					],
					"stateMutability": "view",
					"type": "function"
				},
				{
					"inputs": [],
					"name": "owner",
					"outputs": [
						{
							"internalType": "address",
							"name": "",
							"type": "address"
						}
					],
					"stateMutability": "view",
					"type": "function"
				},
				{
					"inputs": [],
					"name": "preSaleEndTime",
					"outputs": [
						{
							"internalType": "uint256",
							"name": "",
							"type": "uint256"
						}
					],
					"stateMutability": "view",
					"type": "function"
				},
				{
					"inputs": [],
					"name": "preSaleStartTime",
					"outputs": [
						{
							"internalType": "uint256",
							"name": "",
							"type": "uint256"
						}
					],
					"stateMutability": "view",
					"type": "function"
				},
				{
					"inputs": [],
					"name": "preSaleWeeksInWeeks",
					"outputs": [
						{
							"internalType": "uint256",
							"name": "",
							"type": "uint256"
						}
					],
					"stateMutability": "view",
					"type": "function"
				},
				{
					"inputs": [],
					"name": "presaleIsActive",
					"outputs": [
						{
							"internalType": "bool",
							"name": "",
							"type": "bool"
						}
					],
					"stateMutability": "view",
					"type": "function"
				},
				{
					"inputs": [
						{
							"internalType": "address",
							"name": "",
							"type": "address"
						}
					],
					"name": "referralCounts",
					"outputs": [
						{
							"internalType": "uint256",
							"name": "",
							"type": "uint256"
						}
					],
					"stateMutability": "view",
					"type": "function"
				},
				{
					"inputs": [
						{
							"internalType": "address",
							"name": "",
							"type": "address"
						}
					],
					"name": "referrals",
					"outputs": [
						{
							"internalType": "address",
							"name": "",
							"type": "address"
						}
					],
					"stateMutability": "view",
					"type": "function"
				},
				{
					"inputs": [],
					"name": "regularSalePrice",
					"outputs": [
						{
							"internalType": "uint256",
							"name": "",
							"type": "uint256"
						}
					],
					"stateMutability": "view",
					"type": "function"
				},
				{
					"inputs": [],
					"name": "renounceOwnership",
					"outputs": [],
					"stateMutability": "nonpayable",
					"type": "function"
				},
				{
					"inputs": [
						{
							"internalType": "address",
							"name": "referral",
							"type": "address"
						}
					],
					"name": "signUpForWhitelist",
					"outputs": [],
					"stateMutability": "nonpayable",
					"type": "function"
				},
				{
					"inputs": [
						{
							"internalType": "uint256",
							"name": "amount",
							"type": "uint256"
						}
					],
					"name": "stakeTokens",
					"outputs": [],
					"stateMutability": "nonpayable",
					"type": "function"
				},
				{
					"inputs": [
						{
							"internalType": "address",
							"name": "",
							"type": "address"
						}
					],
					"name": "stakedAmount",
					"outputs": [
						{
							"internalType": "uint256",
							"name": "",
							"type": "uint256"
						}
					],
					"stateMutability": "view",
					"type": "function"
				},
				{
					"inputs": [],
					"name": "stakingRewardRate",
					"outputs": [
						{
							"internalType": "uint256",
							"name": "",
							"type": "uint256"
						}
					],
					"stateMutability": "view",
					"type": "function"
				},
				{
					"inputs": [
						{
							"internalType": "address",
							"name": "",
							"type": "address"
						}
					],
					"name": "stakingTimestamp",
					"outputs": [
						{
							"internalType": "uint256",
							"name": "",
							"type": "uint256"
						}
					],
					"stateMutability": "view",
					"type": "function"
				},
				{
					"inputs": [
						{
							"internalType": "uint256",
							"name": "_startTime",
							"type": "uint256"
						},
						{
							"internalType": "uint256",
							"name": "_durationWeeks",
							"type": "uint256"
						}
					],
					"name": "startPreSale",
					"outputs": [],
					"stateMutability": "nonpayable",
					"type": "function"
				},
				{
					"inputs": [],
					"name": "symbol",
					"outputs": [
						{
							"internalType": "string",
							"name": "",
							"type": "string"
						}
					],
					"stateMutability": "view",
					"type": "function"
				},
				{
					"inputs": [],
					"name": "tokensSold",
					"outputs": [
						{
							"internalType": "uint256",
							"name": "",
							"type": "uint256"
						}
					],
					"stateMutability": "view",
					"type": "function"
				},
				{
					"inputs": [],
					"name": "totalSupply",
					"outputs": [
						{
							"internalType": "uint256",
							"name": "",
							"type": "uint256"
						}
					],
					"stateMutability": "view",
					"type": "function"
				},
				{
					"inputs": [
						{
							"internalType": "address",
							"name": "to",
							"type": "address"
						},
						{
							"internalType": "uint256",
							"name": "value",
							"type": "uint256"
						}
					],
					"name": "transfer",
					"outputs": [
						{
							"internalType": "bool",
							"name": "",
							"type": "bool"
						}
					],
					"stateMutability": "nonpayable",
					"type": "function"
				},
				{
					"inputs": [
						{
							"internalType": "address",
							"name": "from",
							"type": "address"
						},
						{
							"internalType": "address",
							"name": "to",
							"type": "address"
						},
						{
							"internalType": "uint256",
							"name": "value",
							"type": "uint256"
						}
					],
					"name": "transferFrom",
					"outputs": [
						{
							"internalType": "bool",
							"name": "",
							"type": "bool"
						}
					],
					"stateMutability": "nonpayable",
					"type": "function"
				},
				{
					"inputs": [
						{
							"internalType": "address",
							"name": "newOwner",
							"type": "address"
						}
					],
					"name": "transferOwnership",
					"outputs": [],
					"stateMutability": "nonpayable",
					"type": "function"
				},
				{
					"inputs": [],
					"name": "unstakeTokens",
					"outputs": [],
					"stateMutability": "nonpayable",
					"type": "function"
				},
				{
					"inputs": [],
					"name": "weeklyIncreaseRate",
					"outputs": [
						{
							"internalType": "uint256",
							"name": "",
							"type": "uint256"
						}
					],
					"stateMutability": "view",
					"type": "function"
				},
				{
					"inputs": [
						{
							"internalType": "address",
							"name": "",
							"type": "address"
						}
					],
					"name": "whitelist",
					"outputs": [
						{
							"internalType": "bool",
							"name": "",
							"type": "bool"
						}
					],
					"stateMutability": "view",
					"type": "function"
				}
			],
			"devdoc": {
				"errors": {
					"ERC20InsufficientAllowance(address,uint256,uint256)": [
						{
							"details": "Indicates a failure with the `spender`’s `allowance`. Used in transfers.",
							"params": {
								"allowance": "Amount of tokens a `spender` is allowed to operate with.",
								"needed": "Minimum amount required to perform a transfer.",
								"spender": "Address that may be allowed to operate on tokens without being their owner."
							}
						}
					],
					"ERC20InsufficientBalance(address,uint256,uint256)": [
						{
							"details": "Indicates an error related to the current `balance` of a `sender`. Used in transfers.",
							"params": {
								"balance": "Current balance for the interacting account.",
								"needed": "Minimum amount required to perform a transfer.",
								"sender": "Address whose tokens are being transferred."
							}
						}
					],
					"ERC20InvalidApprover(address)": [
						{
							"details": "Indicates a failure with the `approver` of a token to be approved. Used in approvals.",
							"params": {
								"approver": "Address initiating an approval operation."
							}
						}
					],
					"ERC20InvalidReceiver(address)": [
						{
							"details": "Indicates a failure with the token `receiver`. Used in transfers.",
							"params": {
								"receiver": "Address to which tokens are being transferred."
							}
						}
					],
					"ERC20InvalidSender(address)": [
						{
							"details": "Indicates a failure with the token `sender`. Used in transfers.",
							"params": {
								"sender": "Address whose tokens are being transferred."
							}
						}
					],
					"ERC20InvalidSpender(address)": [
						{
							"details": "Indicates a failure with the `spender` to be approved. Used in approvals.",
							"params": {
								"spender": "Address that may be allowed to operate on tokens without being their owner."
							}
						}
					],
					"OwnableInvalidOwner(address)": [
						{
							"details": "The owner is not a valid owner account. (eg. `address(0)`)"
						}
					],
					"OwnableUnauthorizedAccount(address)": [
						{
							"details": "The caller account is not authorized to perform an operation."
						}
					]
				},
				"events": {
					"Approval(address,address,uint256)": {
						"details": "Emitted when the allowance of a `spender` for an `owner` is set by a call to {approve}. `value` is the new allowance."
					},
					"Transfer(address,address,uint256)": {
						"details": "Emitted when `value` tokens are moved from one account (`from`) to another (`to`). Note that `value` may be zero."
					}
				},
				"kind": "dev",
				"methods": {
					"allowance(address,address)": {
						"details": "See {IERC20-allowance}."
					},
					"approve(address,uint256)": {
						"details": "See {IERC20-approve}. NOTE: If `value` is the maximum `uint256`, the allowance is not updated on `transferFrom`. This is semantically equivalent to an infinite approval. Requirements: - `spender` cannot be the zero address."
					},
					"balanceOf(address)": {
						"details": "See {IERC20-balanceOf}."
					},
					"decimals()": {
						"details": "Returns the number of decimals used to get its user representation. For example, if `decimals` equals `2`, a balance of `505` tokens should be displayed to a user as `5.05` (`505 / 10 ** 2`). Tokens usually opt for a value of 18, imitating the relationship between Ether and Wei. This is the default value returned by this function, unless it's overridden. NOTE: This information is only used for _display_ purposes: it in no way affects any of the arithmetic of the contract, including {IERC20-balanceOf} and {IERC20-transfer}."
					},
					"name()": {
						"details": "Returns the name of the token."
					},
					"owner()": {
						"details": "Returns the address of the current owner."
					},
					"renounceOwnership()": {
						"details": "Leaves the contract without owner. It will not be possible to call `onlyOwner` functions. Can only be called by the current owner. NOTE: Renouncing ownership will leave the contract without an owner, thereby disabling any functionality that is only available to the owner."
					},
					"startPreSale(uint256,uint256)": {
						"params": {
							"_durationWeeks": "Duration of the pre-sale in weeks"
						}
					},
					"symbol()": {
						"details": "Returns the symbol of the token, usually a shorter version of the name."
					},
					"totalSupply()": {
						"details": "See {IERC20-totalSupply}."
					},
					"transfer(address,uint256)": {
						"details": "See {IERC20-transfer}. Requirements: - `to` cannot be the zero address. - the caller must have a balance of at least `value`."
					},
					"transferFrom(address,address,uint256)": {
						"details": "See {IERC20-transferFrom}. Skips emitting an {Approval} event indicating an allowance update. This is not required by the ERC. See {xref-ERC20-_approve-address-address-uint256-bool-}[_approve]. NOTE: Does not update the allowance if the current allowance is the maximum `uint256`. Requirements: - `from` and `to` cannot be the zero address. - `from` must have a balance of at least `value`. - the caller must have allowance for ``from``'s tokens of at least `value`."
					},
					"transferOwnership(address)": {
						"details": "Transfers ownership of the contract to a new account (`newOwner`). Can only be called by the current owner."
					}
				},
				"version": 1
			},
			"evm": {
				"assembly": "    /* \"contracts/SimpleToken.sol\":174:5894  contract TokenPreSale is ERC20, Ownable {... */\n  mstore(0x40, 0x80)\n    /* \"contracts/SimpleToken.sol\":1323:1852  constructor(address initialOwner, uint256 totalSupply, uint256 _initialPrice, uint256 _weeklyIncreaseRate, uint256 _regularSalePrice, uint256 _stakingRewardRate) ... */\n  callvalue\n  dup1\n  iszero\n  tag_1\n  jumpi\n  0x00\n  dup1\n  revert\ntag_1:\n  pop\n  mload(0x40)\n  sub(codesize, bytecodeSize)\n  dup1\n  bytecodeSize\n  dup4\n  codecopy\n  dup2\n  add\n  0x40\n  dup2\n  swap1\n  mstore\n  tag_2\n  swap2\n  tag_3\n  jump\t// in\ntag_2:\n    /* \"contracts/SimpleToken.sol\":1541:1553  initialOwner */\n  dup6\n    /* \"@openzeppelin/contracts/token/ERC20/ERC20.sol\":1601:1714  constructor(string memory name_, string memory symbol_) {... */\n  mload(0x40)\n  dup1\n  0x40\n  add\n  0x40\n  mstore\n  dup1\n  0x0b\n  dup2\n  mstore\n  0x20\n  add\n  shl(0xa9, 0x2730ba3ab932aa37b5b2b7)\n  dup2\n  mstore\n  pop\n  mload(0x40)\n  dup1\n  0x40\n  add\n  0x40\n  mstore\n  dup1\n  0x03\n  dup2\n  mstore\n  0x20\n  add\n  shl(0xe9, 0x272a29)\n  dup2\n  mstore\n  pop\n    /* \"@openzeppelin/contracts/token/ERC20/ERC20.sol\":1675:1680  name_ */\n  dup2\n    /* \"@openzeppelin/contracts/token/ERC20/ERC20.sol\":1667:1672  _name */\n  0x03\n    /* \"@openzeppelin/contracts/token/ERC20/ERC20.sol\":1667:1680  _name = name_ */\n  swap1\n  dup2\n  tag_8\n  swap2\n  swap1\n  tag_9\n  jump\t// in\ntag_8:\n  pop\n    /* \"@openzeppelin/contracts/token/ERC20/ERC20.sol\":1690:1697  _symbol */\n  0x04\n    /* \"@openzeppelin/contracts/token/ERC20/ERC20.sol\":1690:1707  _symbol = symbol_ */\n  tag_10\n    /* \"@openzeppelin/contracts/token/ERC20/ERC20.sol\":1700:1707  symbol_ */\n  dup3\n    /* \"@openzeppelin/contracts/token/ERC20/ERC20.sol\":1690:1697  _symbol */\n  dup3\n    /* \"@openzeppelin/contracts/token/ERC20/ERC20.sol\":1690:1707  _symbol = symbol_ */\n  tag_9\n  jump\t// in\ntag_10:\n  pop\n  pop\n  pop\n  sub(shl(0xa0, 0x01), 0x01)\n    /* \"@openzeppelin/contracts/access/Ownable.sol\":1273:1299  initialOwner == address(0) */\n  dup2\n  and\n    /* \"@openzeppelin/contracts/access/Ownable.sol\":1269:1364  if (initialOwner == address(0)) {... */\n  tag_12\n  jumpi\n    /* \"@openzeppelin/contracts/access/Ownable.sol\":1322:1353  OwnableInvalidOwner(address(0)) */\n  mload(0x40)\n  shl(0xe0, 0x1e4fbdf7)\n  dup2\n  mstore\n    /* \"@openzeppelin/contracts/access/Ownable.sol\":1350:1351  0 */\n  0x00\n    /* \"@openzeppelin/contracts/access/Ownable.sol\":1322:1353  OwnableInvalidOwner(address(0)) */\n  0x04\n  dup3\n  add\n    /* \"#utility.yul\":3664:3715   */\n  mstore\n    /* \"#utility.yul\":3637:3655   */\n  0x24\n  add\n    /* \"@openzeppelin/contracts/access/Ownable.sol\":1322:1353  OwnableInvalidOwner(address(0)) */\ntag_13:\n  mload(0x40)\n  dup1\n  swap2\n  sub\n  swap1\n  revert\n    /* \"@openzeppelin/contracts/access/Ownable.sol\":1269:1364  if (initialOwner == address(0)) {... */\ntag_12:\n    /* \"@openzeppelin/contracts/access/Ownable.sol\":1373:1405  _transferOwnership(initialOwner) */\n  tag_15\n    /* \"@openzeppelin/contracts/access/Ownable.sol\":1392:1404  initialOwner */\n  dup2\n    /* \"@openzeppelin/contracts/access/Ownable.sol\":1373:1391  _transferOwnership */\n  tag_16\n    /* \"@openzeppelin/contracts/access/Ownable.sol\":1373:1405  _transferOwnership(initialOwner) */\n  jump\t// in\ntag_15:\n  pop\n    /* \"contracts/SimpleToken.sol\":1572:1624  _mint(address(this), totalSupply * 10 ** decimals()) */\n  tag_18\n    /* \"contracts/SimpleToken.sol\":1586:1590  this */\n  address\n    /* \"contracts/SimpleToken.sol\":1607:1623  10 ** decimals() */\n  tag_21\n    /* \"@openzeppelin/contracts/token/ERC20/ERC20.sol\":2780:2782  18 */\n  0x12\n    /* \"contracts/SimpleToken.sol\":1607:1609  10 */\n  0x0a\n    /* \"contracts/SimpleToken.sol\":1607:1623  10 ** decimals() */\n  tag_22\n  jump\t// in\ntag_21:\n    /* \"contracts/SimpleToken.sol\":1593:1623  totalSupply * 10 ** decimals() */\n  tag_23\n  swap1\n    /* \"contracts/SimpleToken.sol\":1593:1604  totalSupply */\n  dup9\n    /* \"contracts/SimpleToken.sol\":1593:1623  totalSupply * 10 ** decimals() */\n  tag_24\n  jump\t// in\ntag_23:\n    /* \"contracts/SimpleToken.sol\":1572:1577  _mint */\n  tag_25\n    /* \"contracts/SimpleToken.sol\":1572:1624  _mint(address(this), totalSupply * 10 ** decimals()) */\n  jump\t// in\ntag_18:\n    /* \"contracts/SimpleToken.sol\":1635:1647  initialPrice */\n  0x08\n    /* \"contracts/SimpleToken.sol\":1635:1663  initialPrice = _initialPrice */\n  swap4\n  swap1\n  swap4\n  sstore\n    /* \"contracts/SimpleToken.sol\":1674:1692  weeklyIncreaseRate */\n  0x0a\n    /* \"contracts/SimpleToken.sol\":1674:1714  weeklyIncreaseRate = _weeklyIncreaseRate */\n  swap2\n  swap1\n  swap2\n  sstore\n    /* \"contracts/SimpleToken.sol\":1725:1741  regularSalePrice */\n  0x09\n    /* \"contracts/SimpleToken.sol\":1725:1761  regularSalePrice = _regularSalePrice */\n  sstore\n    /* \"contracts/SimpleToken.sol\":1772:1789  stakingRewardRate */\n  0x0d\n    /* \"contracts/SimpleToken.sol\":1772:1810  stakingRewardRate = _stakingRewardRate */\n  sstore\n  pop\n  pop\n    /* \"contracts/SimpleToken.sol\":1821:1836  presaleIsActive */\n  0x05\n    /* \"contracts/SimpleToken.sol\":1821:1844  presaleIsActive = false */\n  dup1\n  sload\n  not(shl(0xa0, 0xff))\n  and\n  swap1\n  sstore\n    /* \"contracts/SimpleToken.sol\":174:5894  contract TokenPreSale is ERC20, Ownable {... */\n  jump(tag_54)\n    /* \"@openzeppelin/contracts/access/Ownable.sol\":2912:3099  function _transferOwnership(address newOwner) internal virtual {... */\ntag_16:\n    /* \"@openzeppelin/contracts/access/Ownable.sol\":3004:3010  _owner */\n  0x05\n  dup1\n  sload\n  sub(shl(0xa0, 0x01), 0x01)\n    /* \"@openzeppelin/contracts/access/Ownable.sol\":3020:3037  _owner = newOwner */\n  dup4\n  dup2\n  and\n  not(sub(shl(0xa0, 0x01), 0x01))\n  dup4\n  and\n  dup2\n  or\n  swap1\n  swap4\n  sstore\n    /* \"@openzeppelin/contracts/access/Ownable.sol\":3052:3092  OwnershipTransferred(oldOwner, newOwner) */\n  mload(0x40)\n    /* \"@openzeppelin/contracts/access/Ownable.sol\":3004:3010  _owner */\n  swap2\n  and\n  swap2\n    /* \"@openzeppelin/contracts/access/Ownable.sol\":3020:3037  _owner = newOwner */\n  swap1\n    /* \"@openzeppelin/contracts/access/Ownable.sol\":3004:3010  _owner */\n  dup3\n  swap1\n    /* \"@openzeppelin/contracts/access/Ownable.sol\":3052:3092  OwnershipTransferred(oldOwner, newOwner) */\n  0x8be0079c531659141344cd1fd0a4f28419497f9722a3daafe3b4186f6b6457e0\n  swap1\n    /* \"@openzeppelin/contracts/access/Ownable.sol\":2985:3001  address oldOwner */\n  0x00\n  swap1\n    /* \"@openzeppelin/contracts/access/Ownable.sol\":3052:3092  OwnershipTransferred(oldOwner, newOwner) */\n  log3\n    /* \"@openzeppelin/contracts/access/Ownable.sol\":2975:3099  {... */\n  pop\n    /* \"@openzeppelin/contracts/access/Ownable.sol\":2912:3099  function _transferOwnership(address newOwner) internal virtual {... */\n  pop\n  jump\t// out\n    /* \"@openzeppelin/contracts/token/ERC20/ERC20.sol\":7458:7666  function _mint(address account, uint256 value) internal {... */\ntag_25:\n  sub(shl(0xa0, 0x01), 0x01)\n    /* \"@openzeppelin/contracts/token/ERC20/ERC20.sol\":7528:7549  account == address(0) */\n  dup3\n  and\n    /* \"@openzeppelin/contracts/token/ERC20/ERC20.sol\":7524:7615  if (account == address(0)) {... */\n  tag_30\n  jumpi\n    /* \"@openzeppelin/contracts/token/ERC20/ERC20.sol\":7572:7604  ERC20InvalidReceiver(address(0)) */\n  mload(0x40)\n  shl(0xe0, 0xec442f05)\n  dup2\n  mstore\n    /* \"@openzeppelin/contracts/token/ERC20/ERC20.sol\":7601:7602  0 */\n  0x00\n    /* \"@openzeppelin/contracts/token/ERC20/ERC20.sol\":7572:7604  ERC20InvalidReceiver(address(0)) */\n  0x04\n  dup3\n  add\n    /* \"#utility.yul\":3664:3715   */\n  mstore\n    /* \"#utility.yul\":3637:3655   */\n  0x24\n  add\n    /* \"@openzeppelin/contracts/token/ERC20/ERC20.sol\":7572:7604  ERC20InvalidReceiver(address(0)) */\n  tag_13\n    /* \"#utility.yul\":3518:3721   */\n  jump\n    /* \"@openzeppelin/contracts/token/ERC20/ERC20.sol\":7524:7615  if (account == address(0)) {... */\ntag_30:\n    /* \"@openzeppelin/contracts/token/ERC20/ERC20.sol\":7624:7659  _update(address(0), account, value) */\n  tag_32\n    /* \"@openzeppelin/contracts/token/ERC20/ERC20.sol\":7640:7641  0 */\n  0x00\n    /* \"@openzeppelin/contracts/token/ERC20/ERC20.sol\":7644:7651  account */\n  dup4\n    /* \"@openzeppelin/contracts/token/ERC20/ERC20.sol\":7653:7658  value */\n  dup4\n    /* \"@openzeppelin/contracts/token/ERC20/ERC20.sol\":7624:7631  _update */\n  tag_33\n    /* \"@openzeppelin/contracts/token/ERC20/ERC20.sol\":7624:7659  _update(address(0), account, value) */\n  jump\t// in\ntag_32:\n    /* \"@openzeppelin/contracts/token/ERC20/ERC20.sol\":7458:7666  function _mint(address account, uint256 value) internal {... */\n  pop\n  pop\n  jump\t// out\n    /* \"@openzeppelin/contracts/token/ERC20/ERC20.sol\":6008:7115  function _update(address from, address to, uint256 value) internal virtual {... */\ntag_33:\n  sub(shl(0xa0, 0x01), 0x01)\n    /* \"@openzeppelin/contracts/token/ERC20/ERC20.sol\":6097:6115  from == address(0) */\n  dup4\n  and\n    /* \"@openzeppelin/contracts/token/ERC20/ERC20.sol\":6093:6633  if (from == address(0)) {... */\n  tag_35\n  jumpi\n    /* \"@openzeppelin/contracts/token/ERC20/ERC20.sol\":6249:6254  value */\n  dup1\n    /* \"@openzeppelin/contracts/token/ERC20/ERC20.sol\":6233:6245  _totalSupply */\n  0x02\n  0x00\n    /* \"@openzeppelin/contracts/token/ERC20/ERC20.sol\":6233:6254  _totalSupply += value */\n  dup3\n  dup3\n  sload\n  tag_36\n  swap2\n  swap1\n  tag_37\n  jump\t// in\ntag_36:\n  swap1\n  swap2\n  sstore\n  pop\n    /* \"@openzeppelin/contracts/token/ERC20/ERC20.sol\":6093:6633  if (from == address(0)) {... */\n  tag_38\n  swap1\n  pop\n  jump\ntag_35:\n  sub(shl(0xa0, 0x01), 0x01)\n    /* \"@openzeppelin/contracts/token/ERC20/ERC20.sol\":6307:6322  _balances[from] */\n  dup4\n  and\n    /* \"@openzeppelin/contracts/token/ERC20/ERC20.sol\":6285:6304  uint256 fromBalance */\n  0x00\n    /* \"@openzeppelin/contracts/token/ERC20/ERC20.sol\":6307:6322  _balances[from] */\n  swap1\n  dup2\n  mstore\n  0x20\n  dup2\n  swap1\n  mstore\n  0x40\n  swap1\n  keccak256\n  sload\n    /* \"@openzeppelin/contracts/token/ERC20/ERC20.sol\":6340:6359  fromBalance < value */\n  dup2\n  dup2\n  lt\n    /* \"@openzeppelin/contracts/token/ERC20/ERC20.sol\":6336:6451  if (fromBalance < value) {... */\n  iszero\n  tag_39\n  jumpi\n    /* \"@openzeppelin/contracts/token/ERC20/ERC20.sol\":6386:6436  ERC20InsufficientBalance(from, fromBalance, value) */\n  mload(0x40)\n  shl(0xe2, 0x391434e3)\n  dup2\n  mstore\n  sub(shl(0xa0, 0x01), 0x01)\n    /* \"#utility.yul\":5813:5845   */\n  dup6\n  and\n    /* \"@openzeppelin/contracts/token/ERC20/ERC20.sol\":6386:6436  ERC20InsufficientBalance(from, fromBalance, value) */\n  0x04\n  dup3\n  add\n    /* \"#utility.yul\":5795:5846   */\n  mstore\n    /* \"#utility.yul\":5862:5880   */\n  0x24\n  dup2\n  add\n    /* \"#utility.yul\":5855:5889   */\n  dup3\n  swap1\n  mstore\n    /* \"#utility.yul\":5905:5923   */\n  0x44\n  dup2\n  add\n    /* \"#utility.yul\":5898:5932   */\n  dup4\n  swap1\n  mstore\n    /* \"#utility.yul\":5768:5786   */\n  0x64\n  add\n    /* \"@openzeppelin/contracts/token/ERC20/ERC20.sol\":6386:6436  ERC20InsufficientBalance(from, fromBalance, value) */\n  tag_13\n    /* \"#utility.yul\":5593:5938   */\n  jump\n    /* \"@openzeppelin/contracts/token/ERC20/ERC20.sol\":6336:6451  if (fromBalance < value) {... */\ntag_39:\n  sub(shl(0xa0, 0x01), 0x01)\n    /* \"@openzeppelin/contracts/token/ERC20/ERC20.sol\":6571:6586  _balances[from] */\n  dup5\n  and\n    /* \"@openzeppelin/contracts/token/ERC20/ERC20.sol\":6571:6580  _balances */\n  0x00\n    /* \"@openzeppelin/contracts/token/ERC20/ERC20.sol\":6571:6586  _balances[from] */\n  swap1\n  dup2\n  mstore\n  0x20\n  dup2\n  swap1\n  mstore\n  0x40\n  swap1\n  keccak256\n    /* \"@openzeppelin/contracts/token/ERC20/ERC20.sol\":6589:6608  fromBalance - value */\n  swap1\n  dup3\n  swap1\n  sub\n    /* \"@openzeppelin/contracts/token/ERC20/ERC20.sol\":6571:6608  _balances[from] = fromBalance - value */\n  swap1\n  sstore\n    /* \"@openzeppelin/contracts/token/ERC20/ERC20.sol\":6093:6633  if (from == address(0)) {... */\ntag_38:\n  sub(shl(0xa0, 0x01), 0x01)\n    /* \"@openzeppelin/contracts/token/ERC20/ERC20.sol\":6647:6663  to == address(0) */\n  dup3\n  and\n    /* \"@openzeppelin/contracts/token/ERC20/ERC20.sol\":6643:7068  if (to == address(0)) {... */\n  tag_42\n  jumpi\n    /* \"@openzeppelin/contracts/token/ERC20/ERC20.sol\":6810:6822  _totalSupply */\n  0x02\n    /* \"@openzeppelin/contracts/token/ERC20/ERC20.sol\":6810:6831  _totalSupply -= value */\n  dup1\n  sload\n  dup3\n  swap1\n  sub\n  swap1\n  sstore\n    /* \"@openzeppelin/contracts/token/ERC20/ERC20.sol\":6643:7068  if (to == address(0)) {... */\n  jump(tag_43)\ntag_42:\n  sub(shl(0xa0, 0x01), 0x01)\n    /* \"@openzeppelin/contracts/token/ERC20/ERC20.sol\":7021:7034  _balances[to] */\n  dup3\n  and\n    /* \"@openzeppelin/contracts/token/ERC20/ERC20.sol\":7021:7030  _balances */\n  0x00\n    /* \"@openzeppelin/contracts/token/ERC20/ERC20.sol\":7021:7034  _balances[to] */\n  swap1\n  dup2\n  mstore\n  0x20\n  dup2\n  swap1\n  mstore\n  0x40\n  swap1\n  keccak256\n    /* \"@openzeppelin/contracts/token/ERC20/ERC20.sol\":7021:7043  _balances[to] += value */\n  dup1\n  sload\n  dup3\n  add\n  swap1\n  sstore\n    /* \"@openzeppelin/contracts/token/ERC20/ERC20.sol\":6643:7068  if (to == address(0)) {... */\ntag_43:\n    /* \"@openzeppelin/contracts/token/ERC20/ERC20.sol\":7098:7100  to */\n  dup2\n  sub(shl(0xa0, 0x01), 0x01)\n    /* \"@openzeppelin/contracts/token/ERC20/ERC20.sol\":7083:7108  Transfer(from, to, value) */\n  and\n    /* \"@openzeppelin/contracts/token/ERC20/ERC20.sol\":7092:7096  from */\n  dup4\n  sub(shl(0xa0, 0x01), 0x01)\n    /* \"@openzeppelin/contracts/token/ERC20/ERC20.sol\":7083:7108  Transfer(from, to, value) */\n  and\n  0xddf252ad1be2c89b69c2b068fc378daa952ba7f163c4a11628f55a4df523b3ef\n    /* \"@openzeppelin/contracts/token/ERC20/ERC20.sol\":7102:7107  value */\n  dup4\n    /* \"@openzeppelin/contracts/token/ERC20/ERC20.sol\":7083:7108  Transfer(from, to, value) */\n  mload(0x40)\n  tag_44\n  swap2\n    /* \"#utility.yul\":6089:6114   */\n  dup2\n  mstore\n    /* \"#utility.yul\":6077:6079   */\n  0x20\n    /* \"#utility.yul\":6062:6080   */\n  add\n  swap1\n    /* \"#utility.yul\":5943:6120   */\n  jump\n    /* \"@openzeppelin/contracts/token/ERC20/ERC20.sol\":7083:7108  Transfer(from, to, value) */\ntag_44:\n  mload(0x40)\n  dup1\n  swap2\n  sub\n  swap1\n  log3\n    /* \"@openzeppelin/contracts/token/ERC20/ERC20.sol\":6008:7115  function _update(address from, address to, uint256 value) internal virtual {... */\n  pop\n  pop\n  pop\n  jump\t// out\n    /* \"#utility.yul\":14:872   */\ntag_3:\n    /* \"#utility.yul\":129:135   */\n  0x00\n    /* \"#utility.yul\":137:143   */\n  dup1\n    /* \"#utility.yul\":145:151   */\n  0x00\n    /* \"#utility.yul\":153:159   */\n  dup1\n    /* \"#utility.yul\":161:167   */\n  0x00\n    /* \"#utility.yul\":169:175   */\n  dup1\n    /* \"#utility.yul\":222:225   */\n  0xc0\n    /* \"#utility.yul\":210:219   */\n  dup8\n    /* \"#utility.yul\":201:208   */\n  dup10\n    /* \"#utility.yul\":197:220   */\n  sub\n    /* \"#utility.yul\":193:226   */\n  slt\n    /* \"#utility.yul\":190:243   */\n  iszero\n  tag_56\n  jumpi\n    /* \"#utility.yul\":239:240   */\n  0x00\n    /* \"#utility.yul\":236:237   */\n  dup1\n    /* \"#utility.yul\":229:241   */\n  revert\n    /* \"#utility.yul\":190:243   */\ntag_56:\n    /* \"#utility.yul\":265:281   */\n  dup7\n  mload\n  sub(shl(0xa0, 0x01), 0x01)\n    /* \"#utility.yul\":310:341   */\n  dup2\n  and\n    /* \"#utility.yul\":300:342   */\n  dup2\n  eq\n    /* \"#utility.yul\":290:360   */\n  tag_57\n  jumpi\n    /* \"#utility.yul\":356:357   */\n  0x00\n    /* \"#utility.yul\":353:354   */\n  dup1\n    /* \"#utility.yul\":346:358   */\n  revert\n    /* \"#utility.yul\":290:360   */\ntag_57:\n    /* \"#utility.yul\":450:452   */\n  0x20\n    /* \"#utility.yul\":435:453   */\n  dup9\n  add\n    /* \"#utility.yul\":429:454   */\n  mload\n    /* \"#utility.yul\":546:548   */\n  0x40\n    /* \"#utility.yul\":531:549   */\n  dup10\n  add\n    /* \"#utility.yul\":525:550   */\n  mload\n    /* \"#utility.yul\":642:644   */\n  0x60\n    /* \"#utility.yul\":627:645   */\n  dup11\n  add\n    /* \"#utility.yul\":621:646   */\n  mload\n    /* \"#utility.yul\":738:741   */\n  0x80\n    /* \"#utility.yul\":723:742   */\n  dup12\n  add\n    /* \"#utility.yul\":717:743   */\n  mload\n    /* \"#utility.yul\":835:838   */\n  0xa0\n    /* \"#utility.yul\":820:839   */\n  swap1\n  swap12\n  add\n    /* \"#utility.yul\":814:840   */\n  mload\n    /* \"#utility.yul\":379:384   */\n  swap4\n  swap13\n    /* \"#utility.yul\":429:454   */\n  swap3\n  swap12\n  pop\n    /* \"#utility.yul\":525:550   */\n  swap1\n  swap10\n    /* \"#utility.yul\":621:646   */\n  swap1\n  swap9\n  pop\n    /* \"#utility.yul\":717:743   */\n  swap7\n  pop\n    /* \"#utility.yul\":814:840   */\n  swap1\n  swap5\n  pop\n    /* \"#utility.yul\":14:872   */\n  swap3\n  pop\n  pop\n  pop\n  jump\t// out\n    /* \"#utility.yul\":877:1004   */\ntag_46:\n    /* \"#utility.yul\":938:948   */\n  0x4e487b71\n    /* \"#utility.yul\":933:936   */\n  0xe0\n    /* \"#utility.yul\":929:949   */\n  shl\n    /* \"#utility.yul\":926:927   */\n  0x00\n    /* \"#utility.yul\":919:950   */\n  mstore\n    /* \"#utility.yul\":969:973   */\n  0x41\n    /* \"#utility.yul\":966:967   */\n  0x04\n    /* \"#utility.yul\":959:974   */\n  mstore\n    /* \"#utility.yul\":993:997   */\n  0x24\n    /* \"#utility.yul\":990:991   */\n  0x00\n    /* \"#utility.yul\":983:998   */\n  revert\n    /* \"#utility.yul\":1009:1389   */\ntag_47:\n    /* \"#utility.yul\":1088:1089   */\n  0x01\n    /* \"#utility.yul\":1084:1096   */\n  dup2\n  dup2\n  shr\n  swap1\n    /* \"#utility.yul\":1131:1143   */\n  dup3\n  and\n  dup1\n    /* \"#utility.yul\":1152:1213   */\n  tag_60\n  jumpi\n    /* \"#utility.yul\":1206:1210   */\n  0x7f\n    /* \"#utility.yul\":1198:1204   */\n  dup3\n    /* \"#utility.yul\":1194:1211   */\n  and\n    /* \"#utility.yul\":1184:1211   */\n  swap2\n  pop\n    /* \"#utility.yul\":1152:1213   */\ntag_60:\n    /* \"#utility.yul\":1259:1261   */\n  0x20\n    /* \"#utility.yul\":1251:1257   */\n  dup3\n    /* \"#utility.yul\":1248:1262   */\n  lt\n    /* \"#utility.yul\":1228:1246   */\n  dup2\n    /* \"#utility.yul\":1225:1263   */\n  sub\n    /* \"#utility.yul\":1222:1383   */\n  tag_61\n  jumpi\n    /* \"#utility.yul\":1305:1315   */\n  0x4e487b71\n    /* \"#utility.yul\":1300:1303   */\n  0xe0\n    /* \"#utility.yul\":1296:1316   */\n  shl\n    /* \"#utility.yul\":1293:1294   */\n  0x00\n    /* \"#utility.yul\":1286:1317   */\n  mstore\n    /* \"#utility.yul\":1340:1344   */\n  0x22\n    /* \"#utility.yul\":1337:1338   */\n  0x04\n    /* \"#utility.yul\":1330:1345   */\n  mstore\n    /* \"#utility.yul\":1368:1372   */\n  0x24\n    /* \"#utility.yul\":1365:1366   */\n  0x00\n    /* \"#utility.yul\":1358:1373   */\n  revert\n    /* \"#utility.yul\":1222:1383   */\ntag_61:\n  pop\n    /* \"#utility.yul\":1009:1389   */\n  swap2\n  swap1\n  pop\n  jump\t// out\n    /* \"#utility.yul\":1520:2038   */\ntag_49:\n    /* \"#utility.yul\":1622:1624   */\n  0x1f\n    /* \"#utility.yul\":1617:1620   */\n  dup3\n    /* \"#utility.yul\":1614:1625   */\n  gt\n    /* \"#utility.yul\":1611:2032   */\n  iszero\n  tag_64\n  jumpi\n    /* \"#utility.yul\":1658:1663   */\n  dup1\n    /* \"#utility.yul\":1655:1656   */\n  0x00\n    /* \"#utility.yul\":1648:1664   */\n  mstore\n    /* \"#utility.yul\":1702:1706   */\n  0x20\n    /* \"#utility.yul\":1699:1700   */\n  0x00\n    /* \"#utility.yul\":1689:1707   */\n  keccak256\n    /* \"#utility.yul\":1772:1774   */\n  0x1f\n    /* \"#utility.yul\":1760:1770   */\n  dup5\n    /* \"#utility.yul\":1756:1775   */\n  add\n    /* \"#utility.yul\":1753:1754   */\n  0x05\n    /* \"#utility.yul\":1749:1776   */\n  shr\n    /* \"#utility.yul\":1743:1747   */\n  dup2\n    /* \"#utility.yul\":1739:1777   */\n  add\n    /* \"#utility.yul\":1808:1812   */\n  0x20\n    /* \"#utility.yul\":1796:1806   */\n  dup6\n    /* \"#utility.yul\":1793:1813   */\n  lt\n    /* \"#utility.yul\":1790:1837   */\n  iszero\n  tag_65\n  jumpi\n  pop\n    /* \"#utility.yul\":1831:1835   */\n  dup1\n    /* \"#utility.yul\":1790:1837   */\ntag_65:\n    /* \"#utility.yul\":1886:1888   */\n  0x1f\n    /* \"#utility.yul\":1881:1884   */\n  dup5\n    /* \"#utility.yul\":1877:1889   */\n  add\n    /* \"#utility.yul\":1874:1875   */\n  0x05\n    /* \"#utility.yul\":1870:1890   */\n  shr\n    /* \"#utility.yul\":1864:1868   */\n  dup3\n    /* \"#utility.yul\":1860:1891   */\n  add\n    /* \"#utility.yul\":1850:1891   */\n  swap2\n  pop\n    /* \"#utility.yul\":1941:2022   */\ntag_66:\n    /* \"#utility.yul\":1959:1961   */\n  dup2\n    /* \"#utility.yul\":1952:1957   */\n  dup2\n    /* \"#utility.yul\":1949:1962   */\n  lt\n    /* \"#utility.yul\":1941:2022   */\n  iszero\n  tag_68\n  jumpi\n    /* \"#utility.yul\":2018:2019   */\n  0x00\n    /* \"#utility.yul\":2004:2020   */\n  dup2\n  sstore\n    /* \"#utility.yul\":1985:1986   */\n  0x01\n    /* \"#utility.yul\":1974:1987   */\n  add\n    /* \"#utility.yul\":1941:2022   */\n  jump(tag_66)\ntag_68:\n    /* \"#utility.yul\":1945:1948   */\n  pop\n  pop\n    /* \"#utility.yul\":1611:2032   */\ntag_64:\n    /* \"#utility.yul\":1520:2038   */\n  pop\n  pop\n  pop\n  jump\t// out\n    /* \"#utility.yul\":2214:3513   */\ntag_9:\n    /* \"#utility.yul\":2334:2344   */\n  dup2\n  mload\n  sub(shl(0x40, 0x01), 0x01)\n    /* \"#utility.yul\":2356:2386   */\n  dup2\n  gt\n    /* \"#utility.yul\":2353:2409   */\n  iszero\n  tag_72\n  jumpi\n    /* \"#utility.yul\":2389:2407   */\n  tag_72\n  tag_46\n  jump\t// in\ntag_72:\n    /* \"#utility.yul\":2418:2515   */\n  tag_73\n    /* \"#utility.yul\":2508:2514   */\n  dup2\n    /* \"#utility.yul\":2468:2506   */\n  tag_74\n    /* \"#utility.yul\":2500:2504   */\n  dup5\n    /* \"#utility.yul\":2494:2505   */\n  sload\n    /* \"#utility.yul\":2468:2506   */\n  tag_47\n  jump\t// in\ntag_74:\n    /* \"#utility.yul\":2462:2466   */\n  dup5\n    /* \"#utility.yul\":2418:2515   */\n  tag_49\n  jump\t// in\ntag_73:\n    /* \"#utility.yul\":2564:2568   */\n  0x20\n    /* \"#utility.yul\":2595:2597   */\n  0x1f\n    /* \"#utility.yul\":2584:2598   */\n  dup3\n  gt\n    /* \"#utility.yul\":2612:2613   */\n  0x01\n    /* \"#utility.yul\":2607:3256   */\n  dup2\n  eq\n  tag_76\n  jumpi\n    /* \"#utility.yul\":3300:3301   */\n  0x00\n    /* \"#utility.yul\":3317:3323   */\n  dup4\n    /* \"#utility.yul\":3314:3403   */\n  iszero\n  tag_77\n  jumpi\n  pop\n    /* \"#utility.yul\":3369:3388   */\n  dup5\n  dup3\n  add\n    /* \"#utility.yul\":3363:3389   */\n  mload\n    /* \"#utility.yul\":3314:3403   */\ntag_77:\n  not(0x00)\n    /* \"#utility.yul\":2171:2172   */\n  0x03\n    /* \"#utility.yul\":2167:2178   */\n  dup6\n  swap1\n  shl\n    /* \"#utility.yul\":2163:2187   */\n  shr\n    /* \"#utility.yul\":2159:2188   */\n  not\n    /* \"#utility.yul\":2149:2189   */\n  and\n    /* \"#utility.yul\":2195:2196   */\n  0x01\n    /* \"#utility.yul\":2191:2202   */\n  dup5\n  swap1\n  shl\n    /* \"#utility.yul\":2146:2203   */\n  or\n    /* \"#utility.yul\":3416:3497   */\n  dup5\n  sstore\n    /* \"#utility.yul\":2577:3507   */\n  jump(tag_68)\n    /* \"#utility.yul\":2607:3256   */\ntag_76:\n    /* \"#utility.yul\":1467:1468   */\n  0x00\n    /* \"#utility.yul\":1460:1474   */\n  dup5\n  dup2\n  mstore\n    /* \"#utility.yul\":1504:1508   */\n  0x20\n    /* \"#utility.yul\":1491:1509   */\n  dup2\n  keccak256\n  not(0x1f)\n    /* \"#utility.yul\":2643:2663   */\n  dup6\n  and\n  swap2\n    /* \"#utility.yul\":2761:2983   */\ntag_80:\n    /* \"#utility.yul\":2775:2782   */\n  dup3\n    /* \"#utility.yul\":2772:2773   */\n  dup2\n    /* \"#utility.yul\":2769:2783   */\n  lt\n    /* \"#utility.yul\":2761:2983   */\n  iszero\n  tag_82\n  jumpi\n    /* \"#utility.yul\":2857:2876   */\n  dup8\n  dup6\n  add\n    /* \"#utility.yul\":2851:2877   */\n  mload\n    /* \"#utility.yul\":2836:2878   */\n  dup3\n  sstore\n    /* \"#utility.yul\":2964:2968   */\n  0x20\n    /* \"#utility.yul\":2949:2969   */\n  swap5\n  dup6\n  add\n  swap5\n    /* \"#utility.yul\":2917:2918   */\n  0x01\n    /* \"#utility.yul\":2905:2919   */\n  swap1\n  swap3\n  add\n  swap2\n    /* \"#utility.yul\":2791:2803   */\n  add\n    /* \"#utility.yul\":2761:2983   */\n  jump(tag_80)\ntag_82:\n    /* \"#utility.yul\":2765:2768   */\n  pop\n    /* \"#utility.yul\":3011:3017   */\n  dup5\n    /* \"#utility.yul\":3002:3009   */\n  dup3\n    /* \"#utility.yul\":2999:3018   */\n  lt\n    /* \"#utility.yul\":2996:3197   */\n  iszero\n  tag_83\n  jumpi\n    /* \"#utility.yul\":3072:3091   */\n  dup7\n  dup5\n  add\n    /* \"#utility.yul\":3066:3092   */\n  mload\n  not(0x00)\n    /* \"#utility.yul\":3155:3156   */\n  0x03\n    /* \"#utility.yul\":3151:3165   */\n  dup8\n  swap1\n  shl\n    /* \"#utility.yul\":3167:3170   */\n  0xf8\n    /* \"#utility.yul\":3147:3171   */\n  and\n    /* \"#utility.yul\":3143:3180   */\n  shr\n    /* \"#utility.yul\":3139:3181   */\n  not\n    /* \"#utility.yul\":3124:3182   */\n  and\n    /* \"#utility.yul\":3109:3183   */\n  dup2\n  sstore\n    /* \"#utility.yul\":2996:3197   */\ntag_83:\n  pop\n  pop\n  pop\n  pop\n    /* \"#utility.yul\":3243:3244   */\n  0x01\n    /* \"#utility.yul\":3227:3241   */\n  swap1\n  dup2\n  shl\n    /* \"#utility.yul\":3223:3245   */\n  add\n    /* \"#utility.yul\":3210:3246   */\n  swap1\n  sstore\n  pop\n    /* \"#utility.yul\":2214:3513   */\n  jump\t// out\n    /* \"#utility.yul\":3726:3853   */\ntag_51:\n    /* \"#utility.yul\":3787:3797   */\n  0x4e487b71\n    /* \"#utility.yul\":3782:3785   */\n  0xe0\n    /* \"#utility.yul\":3778:3798   */\n  shl\n    /* \"#utility.yul\":3775:3776   */\n  0x00\n    /* \"#utility.yul\":3768:3799   */\n  mstore\n    /* \"#utility.yul\":3818:3822   */\n  0x11\n    /* \"#utility.yul\":3815:3816   */\n  0x04\n    /* \"#utility.yul\":3808:3823   */\n  mstore\n    /* \"#utility.yul\":3842:3846   */\n  0x24\n    /* \"#utility.yul\":3839:3840   */\n  0x00\n    /* \"#utility.yul\":3832:3847   */\n  revert\n    /* \"#utility.yul\":3858:4233   */\ntag_52:\n    /* \"#utility.yul\":3946:3947   */\n  0x01\n    /* \"#utility.yul\":3964:3969   */\n  dup2\n    /* \"#utility.yul\":3978:4227   */\ntag_87:\n    /* \"#utility.yul\":3999:4000   */\n  0x01\n    /* \"#utility.yul\":3989:3997   */\n  dup5\n    /* \"#utility.yul\":3986:4001   */\n  gt\n    /* \"#utility.yul\":3978:4227   */\n  iszero\n  tag_89\n  jumpi\n    /* \"#utility.yul\":4049:4053   */\n  dup1\n    /* \"#utility.yul\":4044:4047   */\n  dup6\n    /* \"#utility.yul\":4040:4054   */\n  div\n    /* \"#utility.yul\":4034:4038   */\n  dup2\n    /* \"#utility.yul\":4031:4055   */\n  gt\n    /* \"#utility.yul\":4028:4078   */\n  iszero\n  tag_91\n  jumpi\n    /* \"#utility.yul\":4058:4076   */\n  tag_91\n  tag_51\n  jump\t// in\ntag_91:\n    /* \"#utility.yul\":4108:4109   */\n  0x01\n    /* \"#utility.yul\":4098:4106   */\n  dup5\n    /* \"#utility.yul\":4094:4110   */\n  and\n    /* \"#utility.yul\":4091:4140   */\n  iszero\n  tag_92\n  jumpi\n    /* \"#utility.yul\":4122:4138   */\n  swap1\n  dup2\n  mul\n  swap1\n    /* \"#utility.yul\":4091:4140   */\ntag_92:\n    /* \"#utility.yul\":4205:4206   */\n  0x01\n    /* \"#utility.yul\":4201:4217   */\n  swap4\n  swap1\n  swap4\n  shr\n  swap3\n    /* \"#utility.yul\":4161:4176   */\n  dup1\n  mul\n    /* \"#utility.yul\":3978:4227   */\n  jump(tag_87)\ntag_89:\n    /* \"#utility.yul\":3858:4233   */\n  swap4\n  pop\n  swap4\n  swap2\n  pop\n  pop\n  jump\t// out\n    /* \"#utility.yul\":4238:5140   */\ntag_53:\n    /* \"#utility.yul\":4287:4292   */\n  0x00\n    /* \"#utility.yul\":4317:4325   */\n  dup3\n    /* \"#utility.yul\":4307:4387   */\n  tag_94\n  jumpi\n  pop\n    /* \"#utility.yul\":4358:4359   */\n  0x01\n    /* \"#utility.yul\":4372:4377   */\n  jump(tag_93)\n    /* \"#utility.yul\":4307:4387   */\ntag_94:\n    /* \"#utility.yul\":4406:4410   */\n  dup2\n    /* \"#utility.yul\":4396:4472   */\n  tag_95\n  jumpi\n  pop\n    /* \"#utility.yul\":4443:4444   */\n  0x00\n    /* \"#utility.yul\":4457:4462   */\n  jump(tag_93)\n    /* \"#utility.yul\":4396:4472   */\ntag_95:\n    /* \"#utility.yul\":4488:4492   */\n  dup2\n    /* \"#utility.yul\":4506:4507   */\n  0x01\n    /* \"#utility.yul\":4501:4560   */\n  dup2\n  eq\n  tag_97\n  jumpi\n    /* \"#utility.yul\":4574:4575   */\n  0x02\n    /* \"#utility.yul\":4569:4743   */\n  dup2\n  eq\n  tag_98\n  jumpi\n    /* \"#utility.yul\":4481:4743   */\n  jump(tag_96)\n    /* \"#utility.yul\":4501:4560   */\ntag_97:\n    /* \"#utility.yul\":4531:4532   */\n  0x01\n    /* \"#utility.yul\":4522:4532   */\n  swap2\n  pop\n    /* \"#utility.yul\":4545:4550   */\n  pop\n  jump(tag_93)\n    /* \"#utility.yul\":4569:4743   */\ntag_98:\n    /* \"#utility.yul\":4606:4609   */\n  0xff\n    /* \"#utility.yul\":4596:4604   */\n  dup5\n    /* \"#utility.yul\":4593:4610   */\n  gt\n    /* \"#utility.yul\":4590:4633   */\n  iszero\n  tag_100\n  jumpi\n    /* \"#utility.yul\":4613:4631   */\n  tag_100\n  tag_51\n  jump\t// in\ntag_100:\n  pop\n  pop\n    /* \"#utility.yul\":4669:4670   */\n  0x01\n    /* \"#utility.yul\":4655:4671   */\n  dup3\n  shl\n    /* \"#utility.yul\":4728:4733   */\n  jump(tag_93)\n    /* \"#utility.yul\":4481:4743   */\ntag_96:\n  pop\n    /* \"#utility.yul\":4827:4829   */\n  0x20\n    /* \"#utility.yul\":4817:4825   */\n  dup4\n    /* \"#utility.yul\":4814:4830   */\n  lt\n    /* \"#utility.yul\":4808:4811   */\n  0x0133\n    /* \"#utility.yul\":4802:4806   */\n  dup4\n    /* \"#utility.yul\":4799:4812   */\n  lt\n    /* \"#utility.yul\":4795:4831   */\n  and\n    /* \"#utility.yul\":4789:4791   */\n  0x4e\n    /* \"#utility.yul\":4779:4787   */\n  dup5\n    /* \"#utility.yul\":4776:4792   */\n  lt\n    /* \"#utility.yul\":4771:4773   */\n  0x0b\n    /* \"#utility.yul\":4765:4769   */\n  dup5\n    /* \"#utility.yul\":4762:4774   */\n  lt\n    /* \"#utility.yul\":4758:4793   */\n  and\n    /* \"#utility.yul\":4755:4832   */\n  or\n    /* \"#utility.yul\":4752:4955   */\n  iszero\n  tag_101\n  jumpi\n  pop\n    /* \"#utility.yul\":4864:4883   */\n  dup2\n  dup2\n  exp\n    /* \"#utility.yul\":4940:4945   */\n  jump(tag_93)\n    /* \"#utility.yul\":4752:4955   */\ntag_101:\n    /* \"#utility.yul\":4987:5029   */\n  tag_102\n  not(0x00)\n    /* \"#utility.yul\":5012:5020   */\n  dup5\n    /* \"#utility.yul\":5006:5010   */\n  dup5\n    /* \"#utility.yul\":4987:5029   */\n  tag_52\n  jump\t// in\ntag_102:\n    /* \"#utility.yul\":5065:5071   */\n  dup1\n    /* \"#utility.yul\":5061:5062   */\n  0x00\n    /* \"#utility.yul\":5057:5063   */\n  not\n    /* \"#utility.yul\":5053:5072   */\n  div\n    /* \"#utility.yul\":5044:5051   */\n  dup3\n    /* \"#utility.yul\":5041:5073   */\n  gt\n    /* \"#utility.yul\":5038:5096   */\n  iszero\n  tag_104\n  jumpi\n    /* \"#utility.yul\":5076:5094   */\n  tag_104\n  tag_51\n  jump\t// in\ntag_104:\n    /* \"#utility.yul\":5114:5134   */\n  mul\n  swap1\n  pop\n    /* \"#utility.yul\":4238:5140   */\ntag_93:\n  swap3\n  swap2\n  pop\n  pop\n  jump\t// out\n    /* \"#utility.yul\":5145:5285   */\ntag_22:\n    /* \"#utility.yul\":5203:5208   */\n  0x00\n    /* \"#utility.yul\":5232:5279   */\n  tag_106\n    /* \"#utility.yul\":5273:5277   */\n  0xff\n    /* \"#utility.yul\":5263:5271   */\n  dup5\n    /* \"#utility.yul\":5259:5278   */\n  and\n    /* \"#utility.yul\":5253:5257   */\n  dup4\n    /* \"#utility.yul\":5232:5279   */\n  tag_53\n  jump\t// in\ntag_106:\n    /* \"#utility.yul\":5223:5279   */\n  swap4\n    /* \"#utility.yul\":5145:5285   */\n  swap3\n  pop\n  pop\n  pop\n  jump\t// out\n    /* \"#utility.yul\":5290:5458   */\ntag_24:\n    /* \"#utility.yul\":5363:5372   */\n  dup1\n  dup3\n  mul\n    /* \"#utility.yul\":5394:5403   */\n  dup2\n  iszero\n    /* \"#utility.yul\":5411:5426   */\n  dup3\n  dup3\n  div\n    /* \"#utility.yul\":5405:5427   */\n  dup5\n  eq\n    /* \"#utility.yul\":5391:5428   */\n  or\n    /* \"#utility.yul\":5381:5452   */\n  tag_93\n  jumpi\n    /* \"#utility.yul\":5432:5450   */\n  tag_93\n  tag_51\n  jump\t// in\n    /* \"#utility.yul\":5463:5588   */\ntag_37:\n    /* \"#utility.yul\":5528:5537   */\n  dup1\n  dup3\n  add\n    /* \"#utility.yul\":5549:5559   */\n  dup1\n  dup3\n  gt\n    /* \"#utility.yul\":5546:5582   */\n  iszero\n  tag_93\n  jumpi\n    /* \"#utility.yul\":5562:5580   */\n  tag_93\n  tag_51\n  jump\t// in\n    /* \"#utility.yul\":5943:6120   */\ntag_54:\n    /* \"contracts/SimpleToken.sol\":174:5894  contract TokenPreSale is ERC20, Ownable {... */\n  dataSize(sub_0)\n  dup1\n  dataOffset(sub_0)\n  0x00\n  codecopy\n  0x00\n  return\nstop\n\nsub_0: assembly {\n        /* \"contracts/SimpleToken.sol\":174:5894  contract TokenPreSale is ERC20, Ownable {... */\n      mstore(0x40, 0x80)\n      jumpi(tag_1, lt(calldatasize, 0x04))\n      shr(0xe0, calldataload(0x00))\n      dup1\n      0x8265324d\n      gt\n      tag_37\n      jumpi\n      dup1\n      0xcce29ea7\n      gt\n      tag_38\n      jumpi\n      dup1\n      0xdd62ed3e\n      gt\n      tag_39\n      jumpi\n      dup1\n      0xdd62ed3e\n      eq\n      tag_32\n      jumpi\n      dup1\n      0xf2fde38b\n      eq\n      tag_33\n      jumpi\n      dup1\n      0xf8102e68\n      eq\n      tag_34\n      jumpi\n      dup1\n      0xf9931855\n      eq\n      tag_35\n      jumpi\n      dup1\n      0xf9a81af7\n      eq\n      tag_36\n      jumpi\n      0x00\n      dup1\n      revert\n    tag_39:\n      dup1\n      0xcce29ea7\n      eq\n      tag_28\n      jumpi\n      dup1\n      0xcec297a0\n      eq\n      tag_29\n      jumpi\n      dup1\n      0xd0febe4c\n      eq\n      tag_30\n      jumpi\n      dup1\n      0xd348b409\n      eq\n      tag_31\n      jumpi\n      0x00\n      dup1\n      revert\n    tag_38:\n      dup1\n      0x9b19251a\n      gt\n      tag_40\n      jumpi\n      dup1\n      0x9b19251a\n      eq\n      tag_23\n      jumpi\n      dup1\n      0x9ca423b3\n      eq\n      tag_24\n      jumpi\n      dup1\n      0xa09c4cf4\n      eq\n      tag_25\n      jumpi\n      dup1\n      0xa5ce413b\n      eq\n      tag_26\n      jumpi\n      dup1\n      0xa9059cbb\n      eq\n      tag_27\n      jumpi\n      0x00\n      dup1\n      revert\n    tag_40:\n      dup1\n      0x8265324d\n      eq\n      tag_19\n      jumpi\n      dup1\n      0x8da5cb5b\n      eq\n      tag_20\n      jumpi\n      dup1\n      0x8f0794fe\n      eq\n      tag_21\n      jumpi\n      dup1\n      0x95d89b41\n      eq\n      tag_22\n      jumpi\n      0x00\n      dup1\n      revert\n    tag_37:\n      dup1\n      0x30f72cd4\n      gt\n      tag_41\n      jumpi\n      dup1\n      0x70a08231\n      gt\n      tag_42\n      jumpi\n      dup1\n      0x70a08231\n      eq\n      tag_14\n      jumpi\n      dup1\n      0x715018a6\n      eq\n      tag_15\n      jumpi\n      dup1\n      0x7165d19b\n      eq\n      tag_16\n      jumpi\n      dup1\n      0x7547c7a3\n      eq\n      tag_17\n      jumpi\n      dup1\n      0x7c613b2f\n      eq\n      tag_18\n      jumpi\n      0x00\n      dup1\n      revert\n    tag_42:\n      dup1\n      0x30f72cd4\n      eq\n      tag_10\n      jumpi\n      dup1\n      0x313ce567\n      eq\n      tag_11\n      jumpi\n      dup1\n      0x4f3fc2df\n      eq\n      tag_12\n      jumpi\n      dup1\n      0x518ab2a8\n      eq\n      tag_13\n      jumpi\n      0x00\n      dup1\n      revert\n    tag_41:\n      dup1\n      0x0d505541\n      gt\n      tag_43\n      jumpi\n      dup1\n      0x0d505541\n      eq\n      tag_6\n      jumpi\n      dup1\n      0x18160ddd\n      eq\n      tag_7\n      jumpi\n      dup1\n      0x1d0806ae\n      eq\n      tag_8\n      jumpi\n      dup1\n      0x23b872dd\n      eq\n      tag_9\n      jumpi\n      0x00\n      dup1\n      revert\n    tag_43:\n      dup1\n      0x03e293a3\n      eq\n      tag_2\n      jumpi\n      dup1\n      0x06d65af3\n      eq\n      tag_3\n      jumpi\n      dup1\n      0x06fdde03\n      eq\n      tag_4\n      jumpi\n      dup1\n      0x095ea7b3\n      eq\n      tag_5\n      jumpi\n    tag_1:\n      0x00\n      dup1\n      revert\n        /* \"contracts/SimpleToken.sol\":363:394  uint256 public regularSalePrice */\n    tag_2:\n      callvalue\n      dup1\n      iszero\n      tag_44\n      jumpi\n      0x00\n      dup1\n      revert\n    tag_44:\n      pop\n      tag_45\n      sload(0x09)\n      dup2\n      jump\n    tag_45:\n      mload(0x40)\n        /* \"#utility.yul\":160:185   */\n      swap1\n      dup2\n      mstore\n        /* \"#utility.yul\":148:150   */\n      0x20\n        /* \"#utility.yul\":133:151   */\n      add\n        /* \"contracts/SimpleToken.sol\":363:394  uint256 public regularSalePrice */\n    tag_47:\n      mload(0x40)\n      dup1\n      swap2\n      sub\n      swap1\n      return\n        /* \"contracts/SimpleToken.sol\":255:286  uint256 public preSaleStartTime */\n    tag_3:\n      callvalue\n      dup1\n      iszero\n      tag_49\n      jumpi\n      0x00\n      dup1\n      revert\n    tag_49:\n      pop\n      tag_45\n      sload(0x06)\n      dup2\n      jump\n        /* \"@openzeppelin/contracts/token/ERC20/ERC20.sol\":1779:1868  function name() public view virtual returns (string memory) {... */\n    tag_4:\n      callvalue\n      dup1\n      iszero\n      tag_53\n      jumpi\n      0x00\n      dup1\n      revert\n    tag_53:\n      pop\n      tag_54\n      tag_55\n      jump\t// in\n    tag_54:\n      mload(0x40)\n      tag_47\n      swap2\n      swap1\n      tag_57\n      jump\t// in\n        /* \"@openzeppelin/contracts/token/ERC20/ERC20.sol\":3998:4184  function approve(address spender, uint256 value) public virtual returns (bool) {... */\n    tag_5:\n      callvalue\n      dup1\n      iszero\n      tag_58\n      jumpi\n      0x00\n      dup1\n      revert\n    tag_58:\n      pop\n      tag_59\n      tag_60\n      calldatasize\n      0x04\n      tag_61\n      jump\t// in\n    tag_60:\n      tag_62\n      jump\t// in\n    tag_59:\n      mload(0x40)\n        /* \"#utility.yul\":1267:1281   */\n      swap1\n      iszero\n        /* \"#utility.yul\":1260:1282   */\n      iszero\n        /* \"#utility.yul\":1242:1283   */\n      dup2\n      mstore\n        /* \"#utility.yul\":1230:1232   */\n      0x20\n        /* \"#utility.yul\":1215:1233   */\n      add\n        /* \"@openzeppelin/contracts/token/ERC20/ERC20.sol\":3998:4184  function approve(address spender, uint256 value) public virtual returns (bool) {... */\n      tag_47\n        /* \"#utility.yul\":1102:1289   */\n      jump\n        /* \"contracts/SimpleToken.sol\":5640:5887  function calculateStakingReward(address user) public view returns (uint256) {... */\n    tag_6:\n      callvalue\n      dup1\n      iszero\n      tag_65\n      jumpi\n      0x00\n      dup1\n      revert\n    tag_65:\n      pop\n      tag_45\n      tag_67\n      calldatasize\n      0x04\n      tag_68\n      jump\t// in\n    tag_67:\n      tag_69\n      jump\t// in\n        /* \"@openzeppelin/contracts/token/ERC20/ERC20.sol\":2849:2946  function totalSupply() public view virtual returns (uint256) {... */\n    tag_7:\n      callvalue\n      dup1\n      iszero\n      tag_71\n      jumpi\n      0x00\n      dup1\n      revert\n    tag_71:\n      pop\n        /* \"@openzeppelin/contracts/token/ERC20/ERC20.sol\":2927:2939  _totalSupply */\n      sload(0x02)\n        /* \"@openzeppelin/contracts/token/ERC20/ERC20.sol\":2849:2946  function totalSupply() public view virtual returns (uint256) {... */\n      jump(tag_45)\n        /* \"contracts/SimpleToken.sol\":329:356  uint256 public initialPrice */\n    tag_8:\n      callvalue\n      dup1\n      iszero\n      tag_75\n      jumpi\n      0x00\n      dup1\n      revert\n    tag_75:\n      pop\n      tag_45\n      sload(0x08)\n      dup2\n      jump\n        /* \"@openzeppelin/contracts/token/ERC20/ERC20.sol\":4776:5020  function transferFrom(address from, address to, uint256 value) public virtual returns (bool) {... */\n    tag_9:\n      callvalue\n      dup1\n      iszero\n      tag_79\n      jumpi\n      0x00\n      dup1\n      revert\n    tag_79:\n      pop\n      tag_59\n      tag_81\n      calldatasize\n      0x04\n      tag_82\n      jump\t// in\n    tag_81:\n      tag_83\n      jump\t// in\n        /* \"contracts/SimpleToken.sol\":221:248  bool public presaleIsActive */\n    tag_10:\n      callvalue\n      dup1\n      iszero\n      tag_85\n      jumpi\n      0x00\n      dup1\n      revert\n    tag_85:\n      pop\n      sload(0x05)\n      tag_59\n      swap1\n      shl(0xa0, 0x01)\n      swap1\n      div\n      0xff\n      and\n      dup2\n      jump\n        /* \"@openzeppelin/contracts/token/ERC20/ERC20.sol\":2707:2789  function decimals() public view virtual returns (uint8) {... */\n    tag_11:\n      callvalue\n      dup1\n      iszero\n      tag_89\n      jumpi\n      0x00\n      dup1\n      revert\n    tag_89:\n      pop\n      mload(0x40)\n        /* \"@openzeppelin/contracts/token/ERC20/ERC20.sol\":2780:2782  18 */\n      0x12\n        /* \"#utility.yul\":2006:2042   */\n      dup2\n      mstore\n        /* \"#utility.yul\":1994:1996   */\n      0x20\n        /* \"#utility.yul\":1979:1997   */\n      add\n        /* \"@openzeppelin/contracts/token/ERC20/ERC20.sol\":2707:2789  function decimals() public view virtual returns (uint8) {... */\n      tag_47\n        /* \"#utility.yul\":1864:2048   */\n      jump\n        /* \"contracts/SimpleToken.sol\":514:546  uint256 public stakingRewardRate */\n    tag_12:\n      callvalue\n      dup1\n      iszero\n      tag_94\n      jumpi\n      0x00\n      dup1\n      revert\n    tag_94:\n      pop\n      tag_45\n      sload(0x0d)\n      dup2\n      jump\n        /* \"contracts/SimpleToken.sol\":441:466  uint256 public tokensSold */\n    tag_13:\n      callvalue\n      dup1\n      iszero\n      tag_98\n      jumpi\n      0x00\n      dup1\n      revert\n    tag_98:\n      pop\n      tag_45\n      sload(0x0b)\n      dup2\n      jump\n        /* \"@openzeppelin/contracts/token/ERC20/ERC20.sol\":3004:3120  function balanceOf(address account) public view virtual returns (uint256) {... */\n    tag_14:\n      callvalue\n      dup1\n      iszero\n      tag_102\n      jumpi\n      0x00\n      dup1\n      revert\n    tag_102:\n      pop\n      tag_45\n      tag_104\n      calldatasize\n      0x04\n      tag_68\n      jump\t// in\n    tag_104:\n      sub(shl(0xa0, 0x01), 0x01)\n        /* \"@openzeppelin/contracts/token/ERC20/ERC20.sol\":3095:3113  _balances[account] */\n      and\n        /* \"@openzeppelin/contracts/token/ERC20/ERC20.sol\":3069:3076  uint256 */\n      0x00\n        /* \"@openzeppelin/contracts/token/ERC20/ERC20.sol\":3095:3113  _balances[account] */\n      swap1\n      dup2\n      mstore\n      0x20\n      dup2\n      swap1\n      mstore\n      0x40\n      swap1\n      keccak256\n      sload\n      swap1\n        /* \"@openzeppelin/contracts/token/ERC20/ERC20.sol\":3004:3120  function balanceOf(address account) public view virtual returns (uint256) {... */\n      jump\n        /* \"@openzeppelin/contracts/access/Ownable.sol\":2293:2394  function renounceOwnership() public virtual onlyOwner {... */\n    tag_15:\n      callvalue\n      dup1\n      iszero\n      tag_107\n      jumpi\n      0x00\n      dup1\n      revert\n    tag_107:\n      pop\n      tag_108\n      tag_109\n      jump\t// in\n    tag_108:\n      stop\n        /* \"contracts/SimpleToken.sol\":401:434  uint256 public weeklyIncreaseRate */\n    tag_16:\n      callvalue\n      dup1\n      iszero\n      tag_110\n      jumpi\n      0x00\n      dup1\n      revert\n    tag_110:\n      pop\n      tag_45\n      sload(0x0a)\n      dup2\n      jump\n        /* \"contracts/SimpleToken.sol\":4689:5093  function stakeTokens(uint256 amount) external {... */\n    tag_17:\n      callvalue\n      dup1\n      iszero\n      tag_114\n      jumpi\n      0x00\n      dup1\n      revert\n    tag_114:\n      pop\n      tag_108\n      tag_116\n      calldatasize\n      0x04\n      tag_117\n      jump\t// in\n    tag_116:\n      tag_118\n      jump\t// in\n        /* \"contracts/SimpleToken.sol\":2522:2938  function mintReferralReward() external {... */\n    tag_18:\n      callvalue\n      dup1\n      iszero\n      tag_119\n      jumpi\n      0x00\n      dup1\n      revert\n    tag_119:\n      pop\n      tag_108\n      tag_121\n      jump\t// in\n        /* \"contracts/SimpleToken.sol\":2360:2516  function calculateReferralReward(address referrer) public view returns (uint256) {... */\n    tag_19:\n      callvalue\n      dup1\n      iszero\n      tag_122\n      jumpi\n      0x00\n      dup1\n      revert\n    tag_122:\n      pop\n      tag_45\n      tag_124\n      calldatasize\n      0x04\n      tag_68\n      jump\t// in\n    tag_124:\n      tag_125\n      jump\t// in\n        /* \"@openzeppelin/contracts/access/Ownable.sol\":1638:1723  function owner() public view virtual returns (address) {... */\n    tag_20:\n      callvalue\n      dup1\n      iszero\n      tag_127\n      jumpi\n      0x00\n      dup1\n      revert\n    tag_127:\n      pop\n        /* \"@openzeppelin/contracts/access/Ownable.sol\":1710:1716  _owner */\n      and(sub(shl(0xa0, 0x01), 0x01), sload(0x05))\n        /* \"@openzeppelin/contracts/access/Ownable.sol\":1638:1723  function owner() public view virtual returns (address) {... */\n    tag_128:\n      mload(0x40)\n      sub(shl(0xa0, 0x01), 0x01)\n        /* \"#utility.yul\":2448:2480   */\n      swap1\n      swap2\n      and\n        /* \"#utility.yul\":2430:2481   */\n      dup2\n      mstore\n        /* \"#utility.yul\":2418:2420   */\n      0x20\n        /* \"#utility.yul\":2403:2421   */\n      add\n        /* \"@openzeppelin/contracts/access/Ownable.sol\":1638:1723  function owner() public view virtual returns (address) {... */\n      tag_47\n        /* \"#utility.yul\":2284:2487   */\n      jump\n        /* \"contracts/SimpleToken.sol\":607:658  mapping(address => uint256) public stakingTimestamp */\n    tag_21:\n      callvalue\n      dup1\n      iszero\n      tag_132\n      jumpi\n      0x00\n      dup1\n      revert\n    tag_132:\n      pop\n      tag_45\n      tag_134\n      calldatasize\n      0x04\n      tag_68\n      jump\t// in\n    tag_134:\n      mstore(0x20, 0x0f)\n      0x00\n      swap1\n      dup2\n      mstore\n      0x40\n      swap1\n      keccak256\n      sload\n      dup2\n      jump\n        /* \"@openzeppelin/contracts/token/ERC20/ERC20.sol\":1981:2074  function symbol() public view virtual returns (string memory) {... */\n    tag_22:\n      callvalue\n      dup1\n      iszero\n      tag_137\n      jumpi\n      0x00\n      dup1\n      revert\n    tag_137:\n      pop\n      tag_54\n      tag_139\n      jump\t// in\n        /* \"contracts/SimpleToken.sol\":665:706  mapping(address => bool) public whitelist */\n    tag_23:\n      callvalue\n      dup1\n      iszero\n      tag_141\n      jumpi\n      0x00\n      dup1\n      revert\n    tag_141:\n      pop\n      tag_59\n      tag_143\n      calldatasize\n      0x04\n      tag_68\n      jump\t// in\n    tag_143:\n      mstore(0x20, 0x10)\n      0x00\n      swap1\n      dup2\n      mstore\n      0x40\n      swap1\n      keccak256\n      sload\n      0xff\n      and\n      dup2\n      jump\n        /* \"contracts/SimpleToken.sol\":713:757  mapping(address => address) public referrals */\n    tag_24:\n      callvalue\n      dup1\n      iszero\n      tag_146\n      jumpi\n      0x00\n      dup1\n      revert\n    tag_146:\n      pop\n      tag_128\n      tag_148\n      calldatasize\n      0x04\n      tag_68\n      jump\t// in\n    tag_148:\n      mstore(0x20, 0x11)\n      0x00\n      swap1\n      dup2\n      mstore\n      0x40\n      swap1\n      keccak256\n      sload\n      sub(shl(0xa0, 0x01), 0x01)\n      and\n      dup2\n      jump\n        /* \"contracts/SimpleToken.sol\":1867:2348  function signUpForWhitelist(address referral) external {... */\n    tag_25:\n      callvalue\n      dup1\n      iszero\n      tag_151\n      jumpi\n      0x00\n      dup1\n      revert\n    tag_151:\n      pop\n      tag_108\n      tag_153\n      calldatasize\n      0x04\n      tag_68\n      jump\t// in\n    tag_153:\n      tag_154\n      jump\t// in\n        /* \"contracts/SimpleToken.sol\":5101:5632  function unstakeTokens() external {... */\n    tag_26:\n      callvalue\n      dup1\n      iszero\n      tag_155\n      jumpi\n      0x00\n      dup1\n      revert\n    tag_155:\n      pop\n      tag_108\n      tag_157\n      jump\t// in\n        /* \"@openzeppelin/contracts/token/ERC20/ERC20.sol\":3315:3493  function transfer(address to, uint256 value) public virtual returns (bool) {... */\n    tag_27:\n      callvalue\n      dup1\n      iszero\n      tag_158\n      jumpi\n      0x00\n      dup1\n      revert\n    tag_158:\n      pop\n      tag_59\n      tag_160\n      calldatasize\n      0x04\n      tag_61\n      jump\t// in\n    tag_160:\n      tag_161\n      jump\t// in\n        /* \"contracts/SimpleToken.sol\":293:322  uint256 public preSaleEndTime */\n    tag_28:\n      callvalue\n      dup1\n      iszero\n      tag_163\n      jumpi\n      0x00\n      dup1\n      revert\n    tag_163:\n      pop\n      tag_45\n      sload(0x07)\n      dup2\n      jump\n        /* \"contracts/SimpleToken.sol\":764:813  mapping(address => uint256) public referralCounts */\n    tag_29:\n      callvalue\n      dup1\n      iszero\n      tag_167\n      jumpi\n      0x00\n      dup1\n      revert\n    tag_167:\n      pop\n      tag_45\n      tag_169\n      calldatasize\n      0x04\n      tag_68\n      jump\t// in\n    tag_169:\n      mstore(0x20, 0x12)\n      0x00\n      swap1\n      dup2\n      mstore\n      0x40\n      swap1\n      keccak256\n      sload\n      dup2\n      jump\n        /* \"contracts/SimpleToken.sol\":4074:4679  function buyTokens() external payable {... */\n    tag_30:\n      tag_108\n      tag_173\n      jump\t// in\n        /* \"contracts/SimpleToken.sol\":3510:3997  function calculatePrice() public view returns (uint256) {... */\n    tag_31:\n      callvalue\n      dup1\n      iszero\n      tag_174\n      jumpi\n      0x00\n      dup1\n      revert\n    tag_174:\n      pop\n      tag_45\n      tag_176\n      jump\t// in\n        /* \"@openzeppelin/contracts/token/ERC20/ERC20.sol\":3551:3691  function allowance(address owner, address spender) public view virtual returns (uint256) {... */\n    tag_32:\n      callvalue\n      dup1\n      iszero\n      tag_178\n      jumpi\n      0x00\n      dup1\n      revert\n    tag_178:\n      pop\n      tag_45\n      tag_180\n      calldatasize\n      0x04\n      tag_181\n      jump\t// in\n    tag_180:\n      sub(shl(0xa0, 0x01), 0x01)\n        /* \"@openzeppelin/contracts/token/ERC20/ERC20.sol\":3657:3675  _allowances[owner] */\n      swap2\n      dup3\n      and\n        /* \"@openzeppelin/contracts/token/ERC20/ERC20.sol\":3631:3638  uint256 */\n      0x00\n        /* \"@openzeppelin/contracts/token/ERC20/ERC20.sol\":3657:3675  _allowances[owner] */\n      swap1\n      dup2\n      mstore\n        /* \"@openzeppelin/contracts/token/ERC20/ERC20.sol\":3657:3668  _allowances */\n      0x01\n        /* \"@openzeppelin/contracts/token/ERC20/ERC20.sol\":3657:3675  _allowances[owner] */\n      0x20\n      swap1\n      dup2\n      mstore\n      0x40\n      dup1\n      dup4\n      keccak256\n        /* \"@openzeppelin/contracts/token/ERC20/ERC20.sol\":3657:3684  _allowances[owner][spender] */\n      swap4\n      swap1\n      swap5\n      and\n      dup3\n      mstore\n      swap2\n      swap1\n      swap2\n      mstore\n      keccak256\n      sload\n      swap1\n        /* \"@openzeppelin/contracts/token/ERC20/ERC20.sol\":3551:3691  function allowance(address owner, address spender) public view virtual returns (uint256) {... */\n      jump\n        /* \"@openzeppelin/contracts/access/Ownable.sol\":2543:2758  function transferOwnership(address newOwner) public virtual onlyOwner {... */\n    tag_33:\n      callvalue\n      dup1\n      iszero\n      tag_184\n      jumpi\n      0x00\n      dup1\n      revert\n    tag_184:\n      pop\n      tag_108\n      tag_186\n      calldatasize\n      0x04\n      tag_68\n      jump\t// in\n    tag_186:\n      tag_187\n      jump\t// in\n        /* \"contracts/SimpleToken.sol\":473:507  uint256 public preSaleWeeksInWeeks */\n    tag_34:\n      callvalue\n      dup1\n      iszero\n      tag_188\n      jumpi\n      0x00\n      dup1\n      revert\n    tag_188:\n      pop\n      tag_45\n      sload(0x0c)\n      dup2\n      jump\n        /* \"contracts/SimpleToken.sol\":553:600  mapping(address => uint256) public stakedAmount */\n    tag_35:\n      callvalue\n      dup1\n      iszero\n      tag_192\n      jumpi\n      0x00\n      dup1\n      revert\n    tag_192:\n      pop\n      tag_45\n      tag_194\n      calldatasize\n      0x04\n      tag_68\n      jump\t// in\n    tag_194:\n      mstore(0x20, 0x0e)\n      0x00\n      swap1\n      dup2\n      mstore\n      0x40\n      swap1\n      keccak256\n      sload\n      dup2\n      jump\n        /* \"contracts/SimpleToken.sol\":3063:3501  function startPreSale(uint256 _startTime, uint256 _durationWeeks) external onlyOwner {... */\n    tag_36:\n      callvalue\n      dup1\n      iszero\n      tag_197\n      jumpi\n      0x00\n      dup1\n      revert\n    tag_197:\n      pop\n      tag_108\n      tag_199\n      calldatasize\n      0x04\n      tag_200\n      jump\t// in\n    tag_199:\n      tag_201\n      jump\t// in\n        /* \"@openzeppelin/contracts/token/ERC20/ERC20.sol\":1779:1868  function name() public view virtual returns (string memory) {... */\n    tag_55:\n        /* \"@openzeppelin/contracts/token/ERC20/ERC20.sol\":1824:1837  string memory */\n      0x60\n        /* \"@openzeppelin/contracts/token/ERC20/ERC20.sol\":1856:1861  _name */\n      0x03\n        /* \"@openzeppelin/contracts/token/ERC20/ERC20.sol\":1849:1861  return _name */\n      dup1\n      sload\n      tag_203\n      swap1\n      tag_204\n      jump\t// in\n    tag_203:\n      dup1\n      0x1f\n      add\n      0x20\n      dup1\n      swap2\n      div\n      mul\n      0x20\n      add\n      mload(0x40)\n      swap1\n      dup2\n      add\n      0x40\n      mstore\n      dup1\n      swap3\n      swap2\n      swap1\n      dup2\n      dup2\n      mstore\n      0x20\n      add\n      dup3\n      dup1\n      sload\n      tag_205\n      swap1\n      tag_204\n      jump\t// in\n    tag_205:\n      dup1\n      iszero\n      tag_206\n      jumpi\n      dup1\n      0x1f\n      lt\n      tag_207\n      jumpi\n      0x0100\n      dup1\n      dup4\n      sload\n      div\n      mul\n      dup4\n      mstore\n      swap2\n      0x20\n      add\n      swap2\n      jump(tag_206)\n    tag_207:\n      dup3\n      add\n      swap2\n      swap1\n      0x00\n      mstore\n      keccak256(0x00, 0x20)\n      swap1\n    tag_208:\n      dup2\n      sload\n      dup2\n      mstore\n      swap1\n      0x01\n      add\n      swap1\n      0x20\n      add\n      dup1\n      dup4\n      gt\n      tag_208\n      jumpi\n      dup3\n      swap1\n      sub\n      0x1f\n      and\n      dup3\n      add\n      swap2\n    tag_206:\n      pop\n      pop\n      pop\n      pop\n      pop\n      swap1\n      pop\n        /* \"@openzeppelin/contracts/token/ERC20/ERC20.sol\":1779:1868  function name() public view virtual returns (string memory) {... */\n      swap1\n      jump\t// out\n        /* \"@openzeppelin/contracts/token/ERC20/ERC20.sol\":3998:4184  function approve(address spender, uint256 value) public virtual returns (bool) {... */\n    tag_62:\n        /* \"@openzeppelin/contracts/token/ERC20/ERC20.sol\":4071:4075  bool */\n      0x00\n        /* \"@openzeppelin/contracts/utils/Context.sol\":735:745  msg.sender */\n      caller\n        /* \"@openzeppelin/contracts/token/ERC20/ERC20.sol\":4125:4156  _approve(owner, spender, value) */\n      tag_212\n        /* \"@openzeppelin/contracts/utils/Context.sol\":735:745  msg.sender */\n      dup2\n        /* \"@openzeppelin/contracts/token/ERC20/ERC20.sol\":4141:4148  spender */\n      dup6\n        /* \"@openzeppelin/contracts/token/ERC20/ERC20.sol\":4150:4155  value */\n      dup6\n        /* \"@openzeppelin/contracts/token/ERC20/ERC20.sol\":4125:4133  _approve */\n      tag_213\n        /* \"@openzeppelin/contracts/token/ERC20/ERC20.sol\":4125:4156  _approve(owner, spender, value) */\n      jump\t// in\n    tag_212:\n        /* \"@openzeppelin/contracts/token/ERC20/ERC20.sol\":4173:4177  true */\n      0x01\n        /* \"@openzeppelin/contracts/token/ERC20/ERC20.sol\":4166:4177  return true */\n      swap2\n      pop\n      pop\n        /* \"@openzeppelin/contracts/token/ERC20/ERC20.sol\":3998:4184  function approve(address spender, uint256 value) public virtual returns (bool) {... */\n    tag_209:\n      swap3\n      swap2\n      pop\n      pop\n      jump\t// out\n        /* \"contracts/SimpleToken.sol\":5640:5887  function calculateStakingReward(address user) public view returns (uint256) {... */\n    tag_69:\n      sub(shl(0xa0, 0x01), 0x01)\n        /* \"contracts/SimpleToken.sol\":5768:5790  stakingTimestamp[user] */\n      dup2\n      and\n        /* \"contracts/SimpleToken.sol\":5707:5714  uint256 */\n      0x00\n        /* \"contracts/SimpleToken.sol\":5768:5790  stakingTimestamp[user] */\n      swap1\n      dup2\n      mstore\n        /* \"contracts/SimpleToken.sol\":5768:5784  stakingTimestamp */\n      0x0f\n        /* \"contracts/SimpleToken.sol\":5768:5790  stakingTimestamp[user] */\n      0x20\n      mstore\n      0x40\n      dup2\n      keccak256\n      sload\n        /* \"contracts/SimpleToken.sol\":5707:5714  uint256 */\n      dup2\n      swap1\n        /* \"contracts/SimpleToken.sol\":5794:5801  1 weeks */\n      0x093a80\n      swap1\n        /* \"contracts/SimpleToken.sol\":5750:5790  block.timestamp - stakingTimestamp[user] */\n      tag_215\n      swap1\n        /* \"contracts/SimpleToken.sol\":5750:5765  block.timestamp */\n      timestamp\n        /* \"contracts/SimpleToken.sol\":5750:5790  block.timestamp - stakingTimestamp[user] */\n      tag_216\n      jump\t// in\n    tag_215:\n        /* \"contracts/SimpleToken.sol\":5749:5801  (block.timestamp - stakingTimestamp[user]) / 1 weeks */\n      tag_217\n      swap2\n      swap1\n      tag_218\n      jump\t// in\n    tag_217:\n        /* \"contracts/SimpleToken.sol\":5841:5858  stakingRewardRate */\n      sload(0x0d)\n      sub(shl(0xa0, 0x01), 0x01)\n        /* \"contracts/SimpleToken.sol\":5820:5838  stakedAmount[user] */\n      dup6\n      and\n      0x00\n      swap1\n      dup2\n      mstore\n        /* \"contracts/SimpleToken.sol\":5820:5832  stakedAmount */\n      0x0e\n        /* \"contracts/SimpleToken.sol\":5820:5838  stakedAmount[user] */\n      0x20\n      mstore\n      0x40\n      swap1\n      keccak256\n      sload\n        /* \"contracts/SimpleToken.sol\":5727:5801  uint256 weeksStaked = (block.timestamp - stakingTimestamp[user]) / 1 weeks */\n      swap2\n      swap3\n      pop\n        /* \"contracts/SimpleToken.sol\":5876:5879  100 */\n      0x64\n      swap2\n        /* \"contracts/SimpleToken.sol\":5727:5801  uint256 weeksStaked = (block.timestamp - stakingTimestamp[user]) / 1 weeks */\n      dup4\n      swap2\n        /* \"contracts/SimpleToken.sol\":5820:5858  stakedAmount[user] * stakingRewardRate */\n      tag_219\n      swap2\n      tag_220\n      jump\t// in\n    tag_219:\n        /* \"contracts/SimpleToken.sol\":5820:5872  stakedAmount[user] * stakingRewardRate * weeksStaked */\n      tag_221\n      swap2\n      swap1\n      tag_220\n      jump\t// in\n    tag_221:\n        /* \"contracts/SimpleToken.sol\":5819:5879  (stakedAmount[user] * stakingRewardRate * weeksStaked) / 100 */\n      tag_222\n      swap2\n      swap1\n      tag_218\n      jump\t// in\n    tag_222:\n        /* \"contracts/SimpleToken.sol\":5812:5879  return (stakedAmount[user] * stakingRewardRate * weeksStaked) / 100 */\n      swap4\n        /* \"contracts/SimpleToken.sol\":5640:5887  function calculateStakingReward(address user) public view returns (uint256) {... */\n      swap3\n      pop\n      pop\n      pop\n      jump\t// out\n        /* \"@openzeppelin/contracts/token/ERC20/ERC20.sol\":4776:5020  function transferFrom(address from, address to, uint256 value) public virtual returns (bool) {... */\n    tag_83:\n        /* \"@openzeppelin/contracts/token/ERC20/ERC20.sol\":4863:4867  bool */\n      0x00\n        /* \"@openzeppelin/contracts/utils/Context.sol\":735:745  msg.sender */\n      caller\n        /* \"@openzeppelin/contracts/token/ERC20/ERC20.sol\":4919:4956  _spendAllowance(from, spender, value) */\n      tag_226\n        /* \"@openzeppelin/contracts/token/ERC20/ERC20.sol\":4935:4939  from */\n      dup6\n        /* \"@openzeppelin/contracts/utils/Context.sol\":735:745  msg.sender */\n      dup3\n        /* \"@openzeppelin/contracts/token/ERC20/ERC20.sol\":4950:4955  value */\n      dup6\n        /* \"@openzeppelin/contracts/token/ERC20/ERC20.sol\":4919:4934  _spendAllowance */\n      tag_227\n        /* \"@openzeppelin/contracts/token/ERC20/ERC20.sol\":4919:4956  _spendAllowance(from, spender, value) */\n      jump\t// in\n    tag_226:\n        /* \"@openzeppelin/contracts/token/ERC20/ERC20.sol\":4966:4992  _transfer(from, to, value) */\n      tag_228\n        /* \"@openzeppelin/contracts/token/ERC20/ERC20.sol\":4976:4980  from */\n      dup6\n        /* \"@openzeppelin/contracts/token/ERC20/ERC20.sol\":4982:4984  to */\n      dup6\n        /* \"@openzeppelin/contracts/token/ERC20/ERC20.sol\":4986:4991  value */\n      dup6\n        /* \"@openzeppelin/contracts/token/ERC20/ERC20.sol\":4966:4975  _transfer */\n      tag_229\n        /* \"@openzeppelin/contracts/token/ERC20/ERC20.sol\":4966:4992  _transfer(from, to, value) */\n      jump\t// in\n    tag_228:\n      pop\n        /* \"@openzeppelin/contracts/token/ERC20/ERC20.sol\":5009:5013  true */\n      0x01\n      swap5\n        /* \"@openzeppelin/contracts/token/ERC20/ERC20.sol\":4776:5020  function transferFrom(address from, address to, uint256 value) public virtual returns (bool) {... */\n      swap4\n      pop\n      pop\n      pop\n      pop\n      jump\t// out\n        /* \"@openzeppelin/contracts/access/Ownable.sol\":2293:2394  function renounceOwnership() public virtual onlyOwner {... */\n    tag_109:\n        /* \"@openzeppelin/contracts/access/Ownable.sol\":1531:1544  _checkOwner() */\n      tag_233\n        /* \"@openzeppelin/contracts/access/Ownable.sol\":1531:1542  _checkOwner */\n      tag_234\n        /* \"@openzeppelin/contracts/access/Ownable.sol\":1531:1544  _checkOwner() */\n      jump\t// in\n    tag_233:\n        /* \"@openzeppelin/contracts/access/Ownable.sol\":2357:2387  _transferOwnership(address(0)) */\n      tag_236\n        /* \"@openzeppelin/contracts/access/Ownable.sol\":2384:2385  0 */\n      0x00\n        /* \"@openzeppelin/contracts/access/Ownable.sol\":2357:2375  _transferOwnership */\n      tag_237\n        /* \"@openzeppelin/contracts/access/Ownable.sol\":2357:2387  _transferOwnership(address(0)) */\n      jump\t// in\n    tag_236:\n        /* \"@openzeppelin/contracts/access/Ownable.sol\":2293:2394  function renounceOwnership() public virtual onlyOwner {... */\n      jump\t// out\n        /* \"contracts/SimpleToken.sol\":4689:5093  function stakeTokens(uint256 amount) external {... */\n    tag_118:\n        /* \"contracts/SimpleToken.sol\":4763:4764  0 */\n      0x00\n        /* \"contracts/SimpleToken.sol\":4754:4760  amount */\n      dup2\n        /* \"contracts/SimpleToken.sol\":4754:4764  amount > 0 */\n      gt\n        /* \"contracts/SimpleToken.sol\":4746:4802  require(amount > 0, \"Amount must be greater than zero.\") */\n      tag_239\n      jumpi\n      mload(0x40)\n      shl(0xe5, 0x461bcd)\n      dup2\n      mstore\n        /* \"#utility.yul\":4355:4357   */\n      0x20\n        /* \"contracts/SimpleToken.sol\":4746:4802  require(amount > 0, \"Amount must be greater than zero.\") */\n      0x04\n      dup3\n      add\n        /* \"#utility.yul\":4337:4358   */\n      mstore\n        /* \"#utility.yul\":4394:4396   */\n      0x21\n        /* \"#utility.yul\":4374:4392   */\n      0x24\n      dup3\n      add\n        /* \"#utility.yul\":4367:4397   */\n      mstore\n        /* \"#utility.yul\":4433:4467   */\n      0x416d6f756e74206d7573742062652067726561746572207468616e207a65726f\n        /* \"#utility.yul\":4413:4431   */\n      0x44\n      dup3\n      add\n        /* \"#utility.yul\":4406:4468   */\n      mstore\n      shl(0xf9, 0x17)\n        /* \"#utility.yul\":4484:4502   */\n      0x64\n      dup3\n      add\n        /* \"#utility.yul\":4477:4508   */\n      mstore\n        /* \"#utility.yul\":4525:4544   */\n      0x84\n      add\n        /* \"contracts/SimpleToken.sol\":4746:4802  require(amount > 0, \"Amount must be greater than zero.\") */\n    tag_240:\n      mload(0x40)\n      dup1\n      swap2\n      sub\n      swap1\n      revert\n    tag_239:\n        /* \"contracts/SimpleToken.sol\":4831:4841  msg.sender */\n      caller\n        /* \"@openzeppelin/contracts/token/ERC20/ERC20.sol\":3069:3076  uint256 */\n      0x00\n        /* \"@openzeppelin/contracts/token/ERC20/ERC20.sol\":3095:3113  _balances[account] */\n      swap1\n      dup2\n      mstore\n      0x20\n      dup2\n      swap1\n      mstore\n      0x40\n      swap1\n      keccak256\n      sload\n        /* \"contracts/SimpleToken.sol\":4846:4852  amount */\n      dup2\n      gt\n        /* \"contracts/SimpleToken.sol\":4821:4852  balanceOf(msg.sender) >= amount */\n      iszero\n        /* \"contracts/SimpleToken.sol\":4813:4878  require(balanceOf(msg.sender) >= amount, \"Insufficient balance.\") */\n      tag_243\n      jumpi\n      mload(0x40)\n      shl(0xe5, 0x461bcd)\n      dup2\n      mstore\n        /* \"#utility.yul\":4757:4759   */\n      0x20\n        /* \"contracts/SimpleToken.sol\":4813:4878  require(balanceOf(msg.sender) >= amount, \"Insufficient balance.\") */\n      0x04\n      dup3\n      add\n        /* \"#utility.yul\":4739:4760   */\n      mstore\n        /* \"#utility.yul\":4796:4798   */\n      0x15\n        /* \"#utility.yul\":4776:4794   */\n      0x24\n      dup3\n      add\n        /* \"#utility.yul\":4769:4799   */\n      mstore\n      shl(0x59, 0x24b739bab33334b1b4b2b73a103130b630b731b297)\n        /* \"#utility.yul\":4815:4833   */\n      0x44\n      dup3\n      add\n        /* \"#utility.yul\":4808:4859   */\n      mstore\n        /* \"#utility.yul\":4876:4894   */\n      0x64\n      add\n        /* \"contracts/SimpleToken.sol\":4813:4878  require(balanceOf(msg.sender) >= amount, \"Insufficient balance.\") */\n      tag_240\n        /* \"#utility.yul\":4555:4900   */\n      jump\n        /* \"contracts/SimpleToken.sol\":4813:4878  require(balanceOf(msg.sender) >= amount, \"Insufficient balance.\") */\n    tag_243:\n        /* \"contracts/SimpleToken.sol\":4891:4935  _transfer(msg.sender, address(this), amount) */\n      tag_246\n        /* \"contracts/SimpleToken.sol\":4901:4911  msg.sender */\n      caller\n        /* \"contracts/SimpleToken.sol\":4921:4925  this */\n      address\n        /* \"contracts/SimpleToken.sol\":4928:4934  amount */\n      dup4\n        /* \"contracts/SimpleToken.sol\":4891:4900  _transfer */\n      tag_229\n        /* \"contracts/SimpleToken.sol\":4891:4935  _transfer(msg.sender, address(this), amount) */\n      jump\t// in\n    tag_246:\n        /* \"contracts/SimpleToken.sol\":4959:4969  msg.sender */\n      caller\n        /* \"contracts/SimpleToken.sol\":4946:4970  stakedAmount[msg.sender] */\n      0x00\n      swap1\n      dup2\n      mstore\n        /* \"contracts/SimpleToken.sol\":4946:4958  stakedAmount */\n      0x0e\n        /* \"contracts/SimpleToken.sol\":4946:4970  stakedAmount[msg.sender] */\n      0x20\n      mstore\n      0x40\n      dup2\n      keccak256\n        /* \"contracts/SimpleToken.sol\":4946:4980  stakedAmount[msg.sender] += amount */\n      dup1\n      sload\n        /* \"contracts/SimpleToken.sol\":4974:4980  amount */\n      dup4\n      swap3\n        /* \"contracts/SimpleToken.sol\":4946:4970  stakedAmount[msg.sender] */\n      swap1\n        /* \"contracts/SimpleToken.sol\":4946:4980  stakedAmount[msg.sender] += amount */\n      tag_247\n      swap1\n        /* \"contracts/SimpleToken.sol\":4974:4980  amount */\n      dup5\n      swap1\n        /* \"contracts/SimpleToken.sol\":4946:4980  stakedAmount[msg.sender] += amount */\n      tag_248\n      jump\t// in\n    tag_247:\n      swap1\n      swap2\n      sstore\n      pop\n      pop\n        /* \"contracts/SimpleToken.sol\":5008:5018  msg.sender */\n      caller\n        /* \"contracts/SimpleToken.sol\":4991:5019  stakingTimestamp[msg.sender] */\n      0x00\n      dup2\n      dup2\n      mstore\n        /* \"contracts/SimpleToken.sol\":4991:5007  stakingTimestamp */\n      0x0f\n        /* \"contracts/SimpleToken.sol\":4991:5019  stakingTimestamp[msg.sender] */\n      0x20\n      mstore\n      0x40\n      swap1\n      dup2\n      swap1\n      keccak256\n        /* \"contracts/SimpleToken.sol\":5022:5037  block.timestamp */\n      timestamp\n        /* \"contracts/SimpleToken.sol\":4991:5037  stakingTimestamp[msg.sender] = block.timestamp */\n      swap1\n      sstore\n        /* \"contracts/SimpleToken.sol\":5053:5085  TokensStaked(msg.sender, amount) */\n      mload\n      0xb539ca1e5c8d398ddf1c41c30166f33404941683be4683319b57669a93dad4ef\n      swap1\n      tag_249\n      swap1\n        /* \"contracts/SimpleToken.sol\":5078:5084  amount */\n      dup5\n        /* \"#utility.yul\":160:185   */\n      dup2\n      mstore\n        /* \"#utility.yul\":148:150   */\n      0x20\n        /* \"#utility.yul\":133:151   */\n      add\n      swap1\n        /* \"#utility.yul\":14:191   */\n      jump\n        /* \"contracts/SimpleToken.sol\":5053:5085  TokensStaked(msg.sender, amount) */\n    tag_249:\n      mload(0x40)\n      dup1\n      swap2\n      sub\n      swap1\n      log2\n        /* \"contracts/SimpleToken.sol\":4689:5093  function stakeTokens(uint256 amount) external {... */\n      pop\n      jump\t// out\n        /* \"contracts/SimpleToken.sol\":2522:2938  function mintReferralReward() external {... */\n    tag_121:\n        /* \"contracts/SimpleToken.sol\":2584:2599  presaleIsActive */\n      sload(0x05)\n      shl(0xa0, 0x01)\n      swap1\n      div\n      0xff\n      and\n        /* \"contracts/SimpleToken.sol\":2584:2605  presaleIsActive==true */\n      iszero\n      iszero\n        /* \"contracts/SimpleToken.sol\":2601:2605  true */\n      0x01\n        /* \"contracts/SimpleToken.sol\":2584:2605  presaleIsActive==true */\n      eq\n        /* \"contracts/SimpleToken.sol\":2576:2632  require(presaleIsActive==true,\"Presale not started yet\") */\n      tag_251\n      jumpi\n      mload(0x40)\n      shl(0xe5, 0x461bcd)\n      dup2\n      mstore\n        /* \"#utility.yul\":5237:5239   */\n      0x20\n        /* \"contracts/SimpleToken.sol\":2576:2632  require(presaleIsActive==true,\"Presale not started yet\") */\n      0x04\n      dup3\n      add\n        /* \"#utility.yul\":5219:5240   */\n      mstore\n        /* \"#utility.yul\":5276:5278   */\n      0x17\n        /* \"#utility.yul\":5256:5274   */\n      0x24\n      dup3\n      add\n        /* \"#utility.yul\":5249:5279   */\n      mstore\n        /* \"#utility.yul\":5315:5340   */\n      0x50726573616c65206e6f74207374617274656420796574000000000000000000\n        /* \"#utility.yul\":5295:5313   */\n      0x44\n      dup3\n      add\n        /* \"#utility.yul\":5288:5341   */\n      mstore\n        /* \"#utility.yul\":5358:5376   */\n      0x64\n      add\n        /* \"contracts/SimpleToken.sol\":2576:2632  require(presaleIsActive==true,\"Presale not started yet\") */\n      tag_240\n        /* \"#utility.yul\":5035:5382   */\n      jump\n        /* \"contracts/SimpleToken.sol\":2576:2632  require(presaleIsActive==true,\"Presale not started yet\") */\n    tag_251:\n        /* \"contracts/SimpleToken.sol\":2647:2667  uint256 rewardAmount */\n      0x00\n        /* \"contracts/SimpleToken.sol\":2670:2705  calculateReferralReward(msg.sender) */\n      tag_254\n        /* \"contracts/SimpleToken.sol\":2694:2704  msg.sender */\n      caller\n        /* \"contracts/SimpleToken.sol\":2670:2693  calculateReferralReward */\n      tag_125\n        /* \"contracts/SimpleToken.sol\":2670:2705  calculateReferralReward(msg.sender) */\n      jump\t// in\n    tag_254:\n        /* \"contracts/SimpleToken.sol\":2647:2705  uint256 rewardAmount = calculateReferralReward(msg.sender) */\n      swap1\n      pop\n        /* \"contracts/SimpleToken.sol\":2743:2744  0 */\n      0x00\n        /* \"contracts/SimpleToken.sol\":2728:2740  rewardAmount */\n      dup2\n        /* \"contracts/SimpleToken.sol\":2728:2744  rewardAmount > 0 */\n      gt\n        /* \"contracts/SimpleToken.sol\":2720:2769  require(rewardAmount > 0, \"No rewards available\") */\n      tag_255\n      jumpi\n      mload(0x40)\n      shl(0xe5, 0x461bcd)\n      dup2\n      mstore\n        /* \"#utility.yul\":5589:5591   */\n      0x20\n        /* \"contracts/SimpleToken.sol\":2720:2769  require(rewardAmount > 0, \"No rewards available\") */\n      0x04\n      dup3\n      add\n        /* \"#utility.yul\":5571:5592   */\n      mstore\n        /* \"#utility.yul\":5628:5630   */\n      0x14\n        /* \"#utility.yul\":5608:5626   */\n      0x24\n      dup3\n      add\n        /* \"#utility.yul\":5601:5631   */\n      mstore\n      shl(0x60, 0x4e6f207265776172647320617661696c61626c65)\n        /* \"#utility.yul\":5647:5665   */\n      0x44\n      dup3\n      add\n        /* \"#utility.yul\":5640:5690   */\n      mstore\n        /* \"#utility.yul\":5707:5725   */\n      0x64\n      add\n        /* \"contracts/SimpleToken.sol\":2720:2769  require(rewardAmount > 0, \"No rewards available\") */\n      tag_240\n        /* \"#utility.yul\":5387:5731   */\n      jump\n        /* \"contracts/SimpleToken.sol\":2720:2769  require(rewardAmount > 0, \"No rewards available\") */\n    tag_255:\n        /* \"contracts/SimpleToken.sol\":2784:2815  _mint(msg.sender, rewardAmount) */\n      tag_258\n        /* \"contracts/SimpleToken.sol\":2790:2800  msg.sender */\n      caller\n        /* \"contracts/SimpleToken.sol\":2802:2814  rewardAmount */\n      dup3\n        /* \"contracts/SimpleToken.sol\":2784:2789  _mint */\n      tag_259\n        /* \"contracts/SimpleToken.sol\":2784:2815  _mint(msg.sender, rewardAmount) */\n      jump\t// in\n    tag_258:\n        /* \"contracts/SimpleToken.sol\":2845:2855  msg.sender */\n      caller\n        /* \"contracts/SimpleToken.sol\":2859:2860  0 */\n      0x00\n        /* \"contracts/SimpleToken.sol\":2830:2856  referralCounts[msg.sender] */\n      dup2\n      dup2\n      mstore\n        /* \"contracts/SimpleToken.sol\":2830:2844  referralCounts */\n      0x12\n        /* \"contracts/SimpleToken.sol\":2830:2856  referralCounts[msg.sender] */\n      0x20\n      mstore\n      0x40\n      dup1\n      dup3\n      keccak256\n        /* \"contracts/SimpleToken.sol\":2830:2860  referralCounts[msg.sender] = 0 */\n      swap2\n      swap1\n      swap2\n      sstore\n        /* \"contracts/SimpleToken.sol\":2880:2926  ReferralRewardMinted(msg.sender, rewardAmount) */\n      mload\n      0xf0bc0a70fe19ef2d8dc1e1948b338a1184184fb1ea3ac836f24065828816d68d\n      swap1\n      tag_249\n      swap1\n        /* \"contracts/SimpleToken.sol\":2913:2925  rewardAmount */\n      dup5\n        /* \"#utility.yul\":160:185   */\n      dup2\n      mstore\n        /* \"#utility.yul\":148:150   */\n      0x20\n        /* \"#utility.yul\":133:151   */\n      add\n      swap1\n        /* \"#utility.yul\":14:191   */\n      jump\n        /* \"contracts/SimpleToken.sol\":2360:2516  function calculateReferralReward(address referrer) public view returns (uint256) {... */\n    tag_125:\n        /* \"contracts/SimpleToken.sol\":2432:2439  uint256 */\n      0x00\n        /* \"contracts/SimpleToken.sol\":2492:2508  10 ** decimals() */\n      tag_263\n        /* \"@openzeppelin/contracts/token/ERC20/ERC20.sol\":2780:2782  18 */\n      0x12\n        /* \"contracts/SimpleToken.sol\":2492:2494  10 */\n      0x0a\n        /* \"contracts/SimpleToken.sol\":2492:2508  10 ** decimals() */\n      tag_264\n      jump\t// in\n    tag_263:\n      sub(shl(0xa0, 0x01), 0x01)\n        /* \"contracts/SimpleToken.sol\":2459:2483  referralCounts[referrer] */\n      dup4\n      and\n      0x00\n      swap1\n      dup2\n      mstore\n        /* \"contracts/SimpleToken.sol\":2459:2473  referralCounts */\n      0x12\n        /* \"contracts/SimpleToken.sol\":2459:2483  referralCounts[referrer] */\n      0x20\n      mstore\n      0x40\n      swap1\n      keccak256\n      sload\n        /* \"contracts/SimpleToken.sol\":2459:2489  referralCounts[referrer] * 500 */\n      tag_265\n      swap1\n        /* \"contracts/SimpleToken.sol\":2486:2489  500 */\n      0x01f4\n        /* \"contracts/SimpleToken.sol\":2459:2489  referralCounts[referrer] * 500 */\n      tag_220\n      jump\t// in\n    tag_265:\n        /* \"contracts/SimpleToken.sol\":2459:2508  referralCounts[referrer] * 500 * 10 ** decimals() */\n      tag_209\n      swap2\n      swap1\n      tag_220\n      jump\t// in\n        /* \"@openzeppelin/contracts/token/ERC20/ERC20.sol\":1981:2074  function symbol() public view virtual returns (string memory) {... */\n    tag_139:\n        /* \"@openzeppelin/contracts/token/ERC20/ERC20.sol\":2028:2041  string memory */\n      0x60\n        /* \"@openzeppelin/contracts/token/ERC20/ERC20.sol\":2060:2067  _symbol */\n      0x04\n        /* \"@openzeppelin/contracts/token/ERC20/ERC20.sol\":2053:2067  return _symbol */\n      dup1\n      sload\n      tag_203\n      swap1\n      tag_204\n      jump\t// in\n        /* \"contracts/SimpleToken.sol\":1867:2348  function signUpForWhitelist(address referral) external {... */\n    tag_154:\n        /* \"contracts/SimpleToken.sol\":1952:1962  msg.sender */\n      caller\n        /* \"contracts/SimpleToken.sol\":1942:1963  whitelist[msg.sender] */\n      0x00\n      swap1\n      dup2\n      mstore\n        /* \"contracts/SimpleToken.sol\":1942:1951  whitelist */\n      0x10\n        /* \"contracts/SimpleToken.sol\":1942:1963  whitelist[msg.sender] */\n      0x20\n      mstore\n      0x40\n      swap1\n      keccak256\n      sload\n      0xff\n      and\n        /* \"contracts/SimpleToken.sol\":1941:1963  !whitelist[msg.sender] */\n      iszero\n        /* \"contracts/SimpleToken.sol\":1933:1987  require(!whitelist[msg.sender], \"Already whitelisted\") */\n      tag_275\n      jumpi\n      mload(0x40)\n      shl(0xe5, 0x461bcd)\n      dup2\n      mstore\n        /* \"#utility.yul\":7370:7372   */\n      0x20\n        /* \"contracts/SimpleToken.sol\":1933:1987  require(!whitelist[msg.sender], \"Already whitelisted\") */\n      0x04\n      dup3\n      add\n        /* \"#utility.yul\":7352:7373   */\n      mstore\n        /* \"#utility.yul\":7409:7411   */\n      0x13\n        /* \"#utility.yul\":7389:7407   */\n      0x24\n      dup3\n      add\n        /* \"#utility.yul\":7382:7412   */\n      mstore\n      shl(0x6a, 0x105b1c9958591e481dda1a5d195b1a5cdd1959)\n        /* \"#utility.yul\":7428:7446   */\n      0x44\n      dup3\n      add\n        /* \"#utility.yul\":7421:7470   */\n      mstore\n        /* \"#utility.yul\":7487:7505   */\n      0x64\n      add\n        /* \"contracts/SimpleToken.sol\":1933:1987  require(!whitelist[msg.sender], \"Already whitelisted\") */\n      tag_240\n        /* \"#utility.yul\":7168:7511   */\n      jump\n        /* \"contracts/SimpleToken.sol\":1933:1987  require(!whitelist[msg.sender], \"Already whitelisted\") */\n    tag_275:\n      sub(shl(0xa0, 0x01), 0x01)\n        /* \"contracts/SimpleToken.sol\":2006:2028  msg.sender != referral */\n      dup2\n      and\n        /* \"contracts/SimpleToken.sol\":2006:2016  msg.sender */\n      caller\n        /* \"contracts/SimpleToken.sol\":2006:2028  msg.sender != referral */\n      sub\n        /* \"contracts/SimpleToken.sol\":1998:2054  require(msg.sender != referral, \"Cannot refer yourself\") */\n      tag_278\n      jumpi\n      mload(0x40)\n      shl(0xe5, 0x461bcd)\n      dup2\n      mstore\n        /* \"#utility.yul\":7718:7720   */\n      0x20\n        /* \"contracts/SimpleToken.sol\":1998:2054  require(msg.sender != referral, \"Cannot refer yourself\") */\n      0x04\n      dup3\n      add\n        /* \"#utility.yul\":7700:7721   */\n      mstore\n        /* \"#utility.yul\":7757:7759   */\n      0x15\n        /* \"#utility.yul\":7737:7755   */\n      0x24\n      dup3\n      add\n        /* \"#utility.yul\":7730:7760   */\n      mstore\n      shl(0x59, 0x21b0b73737ba103932b332b9103cb7bab939b2b633)\n        /* \"#utility.yul\":7776:7794   */\n      0x44\n      dup3\n      add\n        /* \"#utility.yul\":7769:7820   */\n      mstore\n        /* \"#utility.yul\":7837:7855   */\n      0x64\n      add\n        /* \"contracts/SimpleToken.sol\":1998:2054  require(msg.sender != referral, \"Cannot refer yourself\") */\n      tag_240\n        /* \"#utility.yul\":7516:7861   */\n      jump\n        /* \"contracts/SimpleToken.sol\":1998:2054  require(msg.sender != referral, \"Cannot refer yourself\") */\n    tag_278:\n        /* \"contracts/SimpleToken.sol\":2085:2095  msg.sender */\n      caller\n        /* \"contracts/SimpleToken.sol\":2075:2096  whitelist[msg.sender] */\n      0x00\n      swap1\n      dup2\n      mstore\n        /* \"contracts/SimpleToken.sol\":2075:2084  whitelist */\n      0x10\n        /* \"contracts/SimpleToken.sol\":2075:2096  whitelist[msg.sender] */\n      0x20\n      mstore\n      0x40\n      swap1\n      keccak256\n        /* \"contracts/SimpleToken.sol\":2075:2103  whitelist[msg.sender] = true */\n      dup1\n      sload\n      not(0xff)\n      and\n        /* \"contracts/SimpleToken.sol\":2099:2103  true */\n      0x01\n        /* \"contracts/SimpleToken.sol\":2075:2103  whitelist[msg.sender] = true */\n      or\n      swap1\n      sstore\n      sub(shl(0xa0, 0x01), 0x01)\n        /* \"contracts/SimpleToken.sol\":2128:2150  referral != address(0) */\n      dup2\n      and\n      iszero\n      dup1\n      iszero\n      swap1\n        /* \"contracts/SimpleToken.sol\":2128:2173  referral != address(0) && whitelist[referral] */\n      tag_281\n      jumpi\n      pop\n      sub(shl(0xa0, 0x01), 0x01)\n        /* \"contracts/SimpleToken.sol\":2154:2173  whitelist[referral] */\n      dup2\n      and\n      0x00\n      swap1\n      dup2\n      mstore\n        /* \"contracts/SimpleToken.sol\":2154:2163  whitelist */\n      0x10\n        /* \"contracts/SimpleToken.sol\":2154:2173  whitelist[referral] */\n      0x20\n      mstore\n      0x40\n      swap1\n      keccak256\n      sload\n      0xff\n      and\n        /* \"contracts/SimpleToken.sol\":2128:2173  referral != address(0) && whitelist[referral] */\n    tag_281:\n        /* \"contracts/SimpleToken.sol\":2124:2278  if (referral != address(0) && whitelist[referral]) {... */\n      iszero\n      tag_282\n      jumpi\n        /* \"contracts/SimpleToken.sol\":2200:2210  msg.sender */\n      caller\n        /* \"contracts/SimpleToken.sol\":2190:2211  referrals[msg.sender] */\n      0x00\n      swap1\n      dup2\n      mstore\n        /* \"contracts/SimpleToken.sol\":2190:2199  referrals */\n      0x11\n        /* \"contracts/SimpleToken.sol\":2190:2211  referrals[msg.sender] */\n      0x20\n      swap1\n      dup2\n      mstore\n      0x40\n      dup1\n      dup4\n      keccak256\n        /* \"contracts/SimpleToken.sol\":2190:2222  referrals[msg.sender] = referral */\n      dup1\n      sload\n      not(sub(shl(0xa0, 0x01), 0x01))\n      and\n      sub(shl(0xa0, 0x01), 0x01)\n      dup7\n      and\n      swap1\n      dup2\n      or\n      swap1\n      swap2\n      sstore\n        /* \"contracts/SimpleToken.sol\":2237:2261  referralCounts[referral] */\n      dup4\n      mstore\n        /* \"contracts/SimpleToken.sol\":2237:2251  referralCounts */\n      0x12\n        /* \"contracts/SimpleToken.sol\":2237:2261  referralCounts[referral] */\n      swap1\n      swap2\n      mstore\n      dup2\n      keccak256\n        /* \"contracts/SimpleToken.sol\":2237:2266  referralCounts[referral] += 1 */\n      dup1\n      sload\n      0x01\n      swap3\n        /* \"contracts/SimpleToken.sol\":2190:2211  referrals[msg.sender] */\n      swap1\n        /* \"contracts/SimpleToken.sol\":2237:2266  referralCounts[referral] += 1 */\n      tag_283\n      swap1\n      dup5\n      swap1\n      tag_248\n      jump\t// in\n    tag_283:\n      swap1\n      swap2\n      sstore\n      pop\n      pop\n        /* \"contracts/SimpleToken.sol\":2124:2278  if (referral != address(0) && whitelist[referral]) {... */\n    tag_282:\n        /* \"contracts/SimpleToken.sol\":2303:2340  UserWhitelisted(msg.sender, referral) */\n      mload(0x40)\n      sub(shl(0xa0, 0x01), 0x01)\n      dup3\n      and\n      swap1\n        /* \"contracts/SimpleToken.sol\":2319:2329  msg.sender */\n      caller\n      swap1\n        /* \"contracts/SimpleToken.sol\":2303:2340  UserWhitelisted(msg.sender, referral) */\n      0x4bc18aa4b0095c9a3b5cdf42d2322d5a145591b04045988a995a5da426075457\n      swap1\n      0x00\n      swap1\n      log3\n        /* \"contracts/SimpleToken.sol\":1867:2348  function signUpForWhitelist(address referral) external {... */\n      pop\n      jump\t// out\n        /* \"contracts/SimpleToken.sol\":5101:5632  function unstakeTokens() external {... */\n    tag_157:\n        /* \"contracts/SimpleToken.sol\":5176:5186  msg.sender */\n      caller\n        /* \"contracts/SimpleToken.sol\":5146:5160  uint256 amount */\n      0x00\n        /* \"contracts/SimpleToken.sol\":5163:5187  stakedAmount[msg.sender] */\n      swap1\n      dup2\n      mstore\n        /* \"contracts/SimpleToken.sol\":5163:5175  stakedAmount */\n      0x0e\n        /* \"contracts/SimpleToken.sol\":5163:5187  stakedAmount[msg.sender] */\n      0x20\n      mstore\n      0x40\n      swap1\n      keccak256\n      sload\n        /* \"contracts/SimpleToken.sol\":5206:5216  amount > 0 */\n      dup1\n        /* \"contracts/SimpleToken.sol\":5198:5238  require(amount > 0, \"No tokens staked.\") */\n      tag_285\n      jumpi\n      mload(0x40)\n      shl(0xe5, 0x461bcd)\n      dup2\n      mstore\n        /* \"#utility.yul\":8068:8070   */\n      0x20\n        /* \"contracts/SimpleToken.sol\":5198:5238  require(amount > 0, \"No tokens staked.\") */\n      0x04\n      dup3\n      add\n        /* \"#utility.yul\":8050:8071   */\n      mstore\n        /* \"#utility.yul\":8107:8109   */\n      0x11\n        /* \"#utility.yul\":8087:8105   */\n      0x24\n      dup3\n      add\n        /* \"#utility.yul\":8080:8110   */\n      mstore\n      shl(0x79, 0x2737903a37b5b2b7399039ba30b5b2b217)\n        /* \"#utility.yul\":8126:8144   */\n      0x44\n      dup3\n      add\n        /* \"#utility.yul\":8119:8166   */\n      mstore\n        /* \"#utility.yul\":8183:8201   */\n      0x64\n      add\n        /* \"contracts/SimpleToken.sol\":5198:5238  require(amount > 0, \"No tokens staked.\") */\n      tag_240\n        /* \"#utility.yul\":7866:8207   */\n      jump\n        /* \"contracts/SimpleToken.sol\":5198:5238  require(amount > 0, \"No tokens staked.\") */\n    tag_285:\n        /* \"contracts/SimpleToken.sol\":5293:5303  msg.sender */\n      caller\n        /* \"contracts/SimpleToken.sol\":5276:5304  stakingTimestamp[msg.sender] */\n      0x00\n      swap1\n      dup2\n      mstore\n        /* \"contracts/SimpleToken.sol\":5276:5292  stakingTimestamp */\n      0x0f\n        /* \"contracts/SimpleToken.sol\":5276:5304  stakingTimestamp[msg.sender] */\n      0x20\n      mstore\n      0x40\n      swap1\n      keccak256\n      sload\n        /* \"contracts/SimpleToken.sol\":5276:5314  stakingTimestamp[msg.sender] + 4 weeks */\n      tag_288\n      swap1\n        /* \"contracts/SimpleToken.sol\":5307:5314  4 weeks */\n      0x24ea00\n        /* \"contracts/SimpleToken.sol\":5276:5314  stakingTimestamp[msg.sender] + 4 weeks */\n      tag_248\n      jump\t// in\n    tag_288:\n        /* \"contracts/SimpleToken.sol\":5257:5272  block.timestamp */\n      timestamp\n        /* \"contracts/SimpleToken.sol\":5257:5314  block.timestamp >= stakingTimestamp[msg.sender] + 4 weeks */\n      lt\n      iszero\n        /* \"contracts/SimpleToken.sol\":5249:5346  require(block.timestamp >= stakingTimestamp[msg.sender] + 4 weeks, \"Unstake only after 4 weeks.\") */\n      tag_289\n      jumpi\n      mload(0x40)\n      shl(0xe5, 0x461bcd)\n      dup2\n      mstore\n        /* \"#utility.yul\":8414:8416   */\n      0x20\n        /* \"contracts/SimpleToken.sol\":5249:5346  require(block.timestamp >= stakingTimestamp[msg.sender] + 4 weeks, \"Unstake only after 4 weeks.\") */\n      0x04\n      dup3\n      add\n        /* \"#utility.yul\":8396:8417   */\n      mstore\n        /* \"#utility.yul\":8453:8455   */\n      0x1b\n        /* \"#utility.yul\":8433:8451   */\n      0x24\n      dup3\n      add\n        /* \"#utility.yul\":8426:8456   */\n      mstore\n        /* \"#utility.yul\":8492:8521   */\n      0x556e7374616b65206f6e6c792061667465722034207765656b732e0000000000\n        /* \"#utility.yul\":8472:8490   */\n      0x44\n      dup3\n      add\n        /* \"#utility.yul\":8465:8522   */\n      mstore\n        /* \"#utility.yul\":8539:8557   */\n      0x64\n      add\n        /* \"contracts/SimpleToken.sol\":5249:5346  require(block.timestamp >= stakingTimestamp[msg.sender] + 4 weeks, \"Unstake only after 4 weeks.\") */\n      tag_240\n        /* \"#utility.yul\":8212:8563   */\n      jump\n        /* \"contracts/SimpleToken.sol\":5249:5346  require(block.timestamp >= stakingTimestamp[msg.sender] + 4 weeks, \"Unstake only after 4 weeks.\") */\n    tag_289:\n        /* \"contracts/SimpleToken.sol\":5367:5381  uint256 reward */\n      0x00\n        /* \"contracts/SimpleToken.sol\":5384:5418  calculateStakingReward(msg.sender) */\n      tag_292\n        /* \"contracts/SimpleToken.sol\":5407:5417  msg.sender */\n      caller\n        /* \"contracts/SimpleToken.sol\":5384:5406  calculateStakingReward */\n      tag_69\n        /* \"contracts/SimpleToken.sol\":5384:5418  calculateStakingReward(msg.sender) */\n      jump\t// in\n    tag_292:\n        /* \"contracts/SimpleToken.sol\":5442:5452  msg.sender */\n      caller\n        /* \"contracts/SimpleToken.sol\":5456:5457  0 */\n      0x00\n        /* \"contracts/SimpleToken.sol\":5429:5453  stakedAmount[msg.sender] */\n      dup2\n      dup2\n      mstore\n        /* \"contracts/SimpleToken.sol\":5429:5441  stakedAmount */\n      0x0e\n        /* \"contracts/SimpleToken.sol\":5429:5453  stakedAmount[msg.sender] */\n      0x20\n      swap1\n      dup2\n      mstore\n      0x40\n      dup1\n      dup4\n      keccak256\n        /* \"contracts/SimpleToken.sol\":5429:5457  stakedAmount[msg.sender] = 0 */\n      dup4\n      swap1\n      sstore\n        /* \"contracts/SimpleToken.sol\":5468:5484  stakingTimestamp */\n      0x0f\n        /* \"contracts/SimpleToken.sol\":5468:5496  stakingTimestamp[msg.sender] */\n      swap1\n      swap2\n      mstore\n      dup2\n      keccak256\n        /* \"contracts/SimpleToken.sol\":5468:5500  stakingTimestamp[msg.sender] = 0 */\n      sstore\n        /* \"contracts/SimpleToken.sol\":5367:5418  uint256 reward = calculateStakingReward(msg.sender) */\n      swap1\n      swap2\n      pop\n        /* \"contracts/SimpleToken.sol\":5513:5566  _transfer(address(this), msg.sender, amount + reward) */\n      tag_293\n      swap1\n        /* \"contracts/SimpleToken.sol\":5531:5535  this */\n      address\n      swap1\n        /* \"contracts/SimpleToken.sol\":5550:5565  amount + reward */\n      tag_294\n        /* \"contracts/SimpleToken.sol\":5367:5418  uint256 reward = calculateStakingReward(msg.sender) */\n      dup5\n        /* \"contracts/SimpleToken.sol\":5550:5556  amount */\n      dup7\n        /* \"contracts/SimpleToken.sol\":5550:5565  amount + reward */\n      tag_248\n      jump\t// in\n    tag_294:\n        /* \"contracts/SimpleToken.sol\":5513:5522  _transfer */\n      tag_229\n        /* \"contracts/SimpleToken.sol\":5513:5566  _transfer(address(this), msg.sender, amount + reward) */\n      jump\t// in\n    tag_293:\n        /* \"contracts/SimpleToken.sol\":5582:5624  TokensUnstaked(msg.sender, amount, reward) */\n      0x40\n      dup1\n      mload\n        /* \"#utility.yul\":8742:8767   */\n      dup4\n      dup2\n      mstore\n        /* \"#utility.yul\":8798:8800   */\n      0x20\n        /* \"#utility.yul\":8783:8801   */\n      dup2\n      add\n        /* \"#utility.yul\":8776:8810   */\n      dup4\n      swap1\n      mstore\n        /* \"contracts/SimpleToken.sol\":5597:5607  msg.sender */\n      caller\n      swap2\n        /* \"contracts/SimpleToken.sol\":5582:5624  TokensUnstaked(msg.sender, amount, reward) */\n      0x6f2d3e000c89d37446b7c0374c0125068ff316d1e3ee302336478a8cd03c2336\n      swap2\n        /* \"#utility.yul\":8715:8733   */\n      add\n        /* \"contracts/SimpleToken.sol\":5582:5624  TokensUnstaked(msg.sender, amount, reward) */\n      mload(0x40)\n      dup1\n      swap2\n      sub\n      swap1\n      log2\n        /* \"contracts/SimpleToken.sol\":5135:5632  {... */\n      pop\n      pop\n        /* \"contracts/SimpleToken.sol\":5101:5632  function unstakeTokens() external {... */\n      jump\t// out\n        /* \"@openzeppelin/contracts/token/ERC20/ERC20.sol\":3315:3493  function transfer(address to, uint256 value) public virtual returns (bool) {... */\n    tag_161:\n        /* \"@openzeppelin/contracts/token/ERC20/ERC20.sol\":3384:3388  bool */\n      0x00\n        /* \"@openzeppelin/contracts/utils/Context.sol\":735:745  msg.sender */\n      caller\n        /* \"@openzeppelin/contracts/token/ERC20/ERC20.sol\":3438:3465  _transfer(owner, to, value) */\n      tag_212\n        /* \"@openzeppelin/contracts/utils/Context.sol\":735:745  msg.sender */\n      dup2\n        /* \"@openzeppelin/contracts/token/ERC20/ERC20.sol\":3455:3457  to */\n      dup6\n        /* \"@openzeppelin/contracts/token/ERC20/ERC20.sol\":3459:3464  value */\n      dup6\n        /* \"@openzeppelin/contracts/token/ERC20/ERC20.sol\":3438:3447  _transfer */\n      tag_229\n        /* \"@openzeppelin/contracts/token/ERC20/ERC20.sol\":3438:3465  _transfer(owner, to, value) */\n      jump\t// in\n        /* \"contracts/SimpleToken.sol\":4074:4679  function buyTokens() external payable {... */\n    tag_173:\n        /* \"contracts/SimpleToken.sol\":4146:4162  preSaleStartTime */\n      sload(0x06)\n        /* \"contracts/SimpleToken.sol\":4127:4142  block.timestamp */\n      timestamp\n        /* \"contracts/SimpleToken.sol\":4127:4162  block.timestamp >= preSaleStartTime */\n      lt\n      iszero\n        /* \"contracts/SimpleToken.sol\":4119:4183  require(block.timestamp >= preSaleStartTime, \"Sale not active.\") */\n      tag_301\n      jumpi\n      mload(0x40)\n      shl(0xe5, 0x461bcd)\n      dup2\n      mstore\n        /* \"#utility.yul\":9023:9025   */\n      0x20\n        /* \"contracts/SimpleToken.sol\":4119:4183  require(block.timestamp >= preSaleStartTime, \"Sale not active.\") */\n      0x04\n      dup3\n      add\n        /* \"#utility.yul\":9005:9026   */\n      mstore\n        /* \"#utility.yul\":9062:9064   */\n      0x10\n        /* \"#utility.yul\":9042:9060   */\n      0x24\n      dup3\n      add\n        /* \"#utility.yul\":9035:9065   */\n      mstore\n      shl(0x81, 0x29b0b632903737ba1030b1ba34bb3297)\n        /* \"#utility.yul\":9081:9099   */\n      0x44\n      dup3\n      add\n        /* \"#utility.yul\":9074:9120   */\n      mstore\n        /* \"#utility.yul\":9137:9155   */\n      0x64\n      add\n        /* \"contracts/SimpleToken.sol\":4119:4183  require(block.timestamp >= preSaleStartTime, \"Sale not active.\") */\n      tag_240\n        /* \"#utility.yul\":8821:9161   */\n      jump\n        /* \"contracts/SimpleToken.sol\":4119:4183  require(block.timestamp >= preSaleStartTime, \"Sale not active.\") */\n    tag_301:\n        /* \"contracts/SimpleToken.sol\":4210:4211  0 */\n      0x00\n        /* \"contracts/SimpleToken.sol\":4198:4207  msg.value */\n      callvalue\n        /* \"contracts/SimpleToken.sol\":4198:4211  msg.value > 0 */\n      gt\n        /* \"contracts/SimpleToken.sol\":4190:4244  require(msg.value > 0, \"Must send ETH to buy tokens.\") */\n      tag_304\n      jumpi\n      mload(0x40)\n      shl(0xe5, 0x461bcd)\n      dup2\n      mstore\n        /* \"#utility.yul\":9368:9370   */\n      0x20\n        /* \"contracts/SimpleToken.sol\":4190:4244  require(msg.value > 0, \"Must send ETH to buy tokens.\") */\n      0x04\n      dup3\n      add\n        /* \"#utility.yul\":9350:9371   */\n      mstore\n        /* \"#utility.yul\":9407:9409   */\n      0x1c\n        /* \"#utility.yul\":9387:9405   */\n      0x24\n      dup3\n      add\n        /* \"#utility.yul\":9380:9410   */\n      mstore\n        /* \"#utility.yul\":9446:9476   */\n      0x4d7573742073656e642045544820746f2062757920746f6b656e732e00000000\n        /* \"#utility.yul\":9426:9444   */\n      0x44\n      dup3\n      add\n        /* \"#utility.yul\":9419:9477   */\n      mstore\n        /* \"#utility.yul\":9494:9512   */\n      0x64\n      add\n        /* \"contracts/SimpleToken.sol\":4190:4244  require(msg.value > 0, \"Must send ETH to buy tokens.\") */\n      tag_240\n        /* \"#utility.yul\":9166:9518   */\n      jump\n        /* \"contracts/SimpleToken.sol\":4190:4244  require(msg.value > 0, \"Must send ETH to buy tokens.\") */\n    tag_304:\n        /* \"contracts/SimpleToken.sol\":4253:4273  uint256 currentPrice */\n      0x00\n        /* \"contracts/SimpleToken.sol\":4276:4292  calculatePrice() */\n      tag_307\n        /* \"contracts/SimpleToken.sol\":4276:4290  calculatePrice */\n      tag_176\n        /* \"contracts/SimpleToken.sol\":4276:4292  calculatePrice() */\n      jump\t// in\n    tag_307:\n        /* \"contracts/SimpleToken.sol\":4253:4292  uint256 currentPrice = calculatePrice() */\n      swap1\n      pop\n        /* \"contracts/SimpleToken.sol\":4337:4356  uint256 tokensToBuy */\n      0x00\n        /* \"contracts/SimpleToken.sol\":4253:4292  uint256 currentPrice = calculatePrice() */\n      dup2\n        /* \"contracts/SimpleToken.sol\":4372:4397  10 ** uint256(decimals()) */\n      tag_309\n        /* \"@openzeppelin/contracts/token/ERC20/ERC20.sol\":2780:2782  18 */\n      0x12\n        /* \"contracts/SimpleToken.sol\":4372:4374  10 */\n      0x0a\n        /* \"contracts/SimpleToken.sol\":4372:4397  10 ** uint256(decimals()) */\n      tag_310\n      jump\t// in\n    tag_309:\n        /* \"contracts/SimpleToken.sol\":4360:4397  msg.value * 10 ** uint256(decimals()) */\n      tag_311\n      swap1\n        /* \"contracts/SimpleToken.sol\":4360:4369  msg.value */\n      callvalue\n        /* \"contracts/SimpleToken.sol\":4360:4397  msg.value * 10 ** uint256(decimals()) */\n      tag_220\n      jump\t// in\n    tag_311:\n        /* \"contracts/SimpleToken.sol\":4359:4413  (msg.value * 10 ** uint256(decimals())) / currentPrice */\n      tag_312\n      swap2\n      swap1\n      tag_218\n      jump\t// in\n    tag_312:\n        /* \"contracts/SimpleToken.sol\":4446:4450  this */\n      address\n        /* \"@openzeppelin/contracts/token/ERC20/ERC20.sol\":3069:3076  uint256 */\n      0x00\n        /* \"@openzeppelin/contracts/token/ERC20/ERC20.sol\":3095:3113  _balances[account] */\n      swap1\n      dup2\n      mstore\n      0x20\n      dup2\n      swap1\n      mstore\n      0x40\n      swap1\n      keccak256\n      sload\n        /* \"contracts/SimpleToken.sol\":4337:4413  uint256 tokensToBuy = (msg.value * 10 ** uint256(decimals())) / currentPrice */\n      swap1\n      swap2\n      pop\n      dup2\n      gt\n        /* \"contracts/SimpleToken.sol\":4428:4467  balanceOf(address(this)) >= tokensToBuy */\n      iszero\n        /* \"contracts/SimpleToken.sol\":4420:4500  require(balanceOf(address(this)) >= tokensToBuy, \"Not enough tokens available.\") */\n      tag_314\n      jumpi\n      mload(0x40)\n      shl(0xe5, 0x461bcd)\n      dup2\n      mstore\n        /* \"#utility.yul\":9861:9863   */\n      0x20\n        /* \"contracts/SimpleToken.sol\":4420:4500  require(balanceOf(address(this)) >= tokensToBuy, \"Not enough tokens available.\") */\n      0x04\n      dup3\n      add\n        /* \"#utility.yul\":9843:9864   */\n      mstore\n        /* \"#utility.yul\":9900:9902   */\n      0x1c\n        /* \"#utility.yul\":9880:9898   */\n      0x24\n      dup3\n      add\n        /* \"#utility.yul\":9873:9903   */\n      mstore\n        /* \"#utility.yul\":9939:9969   */\n      0x4e6f7420656e6f75676820746f6b656e7320617661696c61626c652e00000000\n        /* \"#utility.yul\":9919:9937   */\n      0x44\n      dup3\n      add\n        /* \"#utility.yul\":9912:9970   */\n      mstore\n        /* \"#utility.yul\":9987:10005   */\n      0x64\n      add\n        /* \"contracts/SimpleToken.sol\":4420:4500  require(balanceOf(address(this)) >= tokensToBuy, \"Not enough tokens available.\") */\n      tag_240\n        /* \"#utility.yul\":9659:10011   */\n      jump\n        /* \"contracts/SimpleToken.sol\":4420:4500  require(balanceOf(address(this)) >= tokensToBuy, \"Not enough tokens available.\") */\n    tag_314:\n        /* \"contracts/SimpleToken.sol\":4509:4558  _transfer(address(this), msg.sender, tokensToBuy) */\n      tag_317\n        /* \"contracts/SimpleToken.sol\":4527:4531  this */\n      address\n        /* \"contracts/SimpleToken.sol\":4534:4544  msg.sender */\n      caller\n        /* \"contracts/SimpleToken.sol\":4546:4557  tokensToBuy */\n      dup4\n        /* \"contracts/SimpleToken.sol\":4509:4518  _transfer */\n      tag_229\n        /* \"contracts/SimpleToken.sol\":4509:4558  _transfer(address(this), msg.sender, tokensToBuy) */\n      jump\t// in\n    tag_317:\n        /* \"contracts/SimpleToken.sol\":4579:4590  tokensToBuy */\n      dup1\n        /* \"contracts/SimpleToken.sol\":4565:4575  tokensSold */\n      0x0b\n      0x00\n        /* \"contracts/SimpleToken.sol\":4565:4590  tokensSold += tokensToBuy */\n      dup3\n      dup3\n      sload\n      tag_318\n      swap2\n      swap1\n      tag_248\n      jump\t// in\n    tag_318:\n      swap1\n      swap2\n      sstore\n      pop\n      pop\n        /* \"contracts/SimpleToken.sol\":4604:4652  Transfer(address(this), msg.sender, tokensToBuy) */\n      mload(0x40)\n        /* \"#utility.yul\":160:185   */\n      dup2\n      dup2\n      mstore\n        /* \"contracts/SimpleToken.sol\":4628:4638  msg.sender */\n      caller\n      swap1\n        /* \"contracts/SimpleToken.sol\":4621:4625  this */\n      address\n      swap1\n        /* \"contracts/SimpleToken.sol\":4604:4652  Transfer(address(this), msg.sender, tokensToBuy) */\n      0xddf252ad1be2c89b69c2b068fc378daa952ba7f163c4a11628f55a4df523b3ef\n      swap1\n        /* \"#utility.yul\":148:150   */\n      0x20\n        /* \"#utility.yul\":133:151   */\n      add\n        /* \"contracts/SimpleToken.sol\":4604:4652  Transfer(address(this), msg.sender, tokensToBuy) */\n      mload(0x40)\n      dup1\n      swap2\n      sub\n      swap1\n      log3\n        /* \"contracts/SimpleToken.sol\":4112:4679  {... */\n      pop\n      pop\n        /* \"contracts/SimpleToken.sol\":4074:4679  function buyTokens() external payable {... */\n      jump\t// out\n        /* \"contracts/SimpleToken.sol\":3510:3997  function calculatePrice() public view returns (uint256) {... */\n    tag_176:\n        /* \"contracts/SimpleToken.sol\":3557:3564  uint256 */\n      0x00\n        /* \"contracts/SimpleToken.sol\":3604:3619  block.timestamp */\n      timestamp\n        /* \"contracts/SimpleToken.sol\":3585:3601  preSaleStartTime */\n      sload(0x06)\n        /* \"contracts/SimpleToken.sol\":3585:3619  preSaleStartTime >=block.timestamp */\n      lt\n      iszero\n        /* \"contracts/SimpleToken.sol\":3577:3647  require(preSaleStartTime >=block.timestamp,\"Pre-sale not started yet\") */\n      tag_321\n      jumpi\n      mload(0x40)\n      shl(0xe5, 0x461bcd)\n      dup2\n      mstore\n        /* \"#utility.yul\":10218:10220   */\n      0x20\n        /* \"contracts/SimpleToken.sol\":3577:3647  require(preSaleStartTime >=block.timestamp,\"Pre-sale not started yet\") */\n      0x04\n      dup3\n      add\n        /* \"#utility.yul\":10200:10221   */\n      mstore\n        /* \"#utility.yul\":10257:10259   */\n      0x18\n        /* \"#utility.yul\":10237:10255   */\n      0x24\n      dup3\n      add\n        /* \"#utility.yul\":10230:10260   */\n      mstore\n        /* \"#utility.yul\":10296:10322   */\n      0x5072652d73616c65206e6f742073746172746564207965740000000000000000\n        /* \"#utility.yul\":10276:10294   */\n      0x44\n      dup3\n      add\n        /* \"#utility.yul\":10269:10323   */\n      mstore\n        /* \"#utility.yul\":10340:10358   */\n      0x64\n      add\n        /* \"contracts/SimpleToken.sol\":3577:3647  require(preSaleStartTime >=block.timestamp,\"Pre-sale not started yet\") */\n      tag_240\n        /* \"#utility.yul\":10016:10364   */\n      jump\n        /* \"contracts/SimpleToken.sol\":3577:3647  require(preSaleStartTime >=block.timestamp,\"Pre-sale not started yet\") */\n    tag_321:\n        /* \"contracts/SimpleToken.sol\":3681:3695  preSaleEndTime */\n      sload(0x07)\n        /* \"contracts/SimpleToken.sol\":3663:3678  block.timestamp */\n      timestamp\n        /* \"contracts/SimpleToken.sol\":3663:3695  block.timestamp > preSaleEndTime */\n      gt\n        /* \"contracts/SimpleToken.sol\":3658:3747  if ( block.timestamp > preSaleEndTime) {... */\n      iszero\n      tag_324\n      jumpi\n      pop\n        /* \"contracts/SimpleToken.sol\":3719:3735  regularSalePrice */\n      sload(0x09)\n      swap1\n        /* \"contracts/SimpleToken.sol\":3510:3997  function calculatePrice() public view returns (uint256) {... */\n      jump\t// out\n        /* \"contracts/SimpleToken.sol\":3658:3747  if ( block.timestamp > preSaleEndTime) {... */\n    tag_324:\n        /* \"contracts/SimpleToken.sol\":3767:3787  uint256 weeksElapsed */\n      0x00\n        /* \"contracts/SimpleToken.sol\":3829:3836  1 weeks */\n      0x093a80\n        /* \"contracts/SimpleToken.sol\":3809:3825  preSaleStartTime */\n      sload(0x06)\n        /* \"contracts/SimpleToken.sol\":3791:3806  block.timestamp */\n      timestamp\n        /* \"contracts/SimpleToken.sol\":3791:3825  block.timestamp - preSaleStartTime */\n      tag_325\n      swap2\n      swap1\n      tag_216\n      jump\t// in\n    tag_325:\n        /* \"contracts/SimpleToken.sol\":3790:3836  (block.timestamp - preSaleStartTime) / 1 weeks */\n      tag_326\n      swap2\n      swap1\n      tag_218\n      jump\t// in\n    tag_326:\n        /* \"contracts/SimpleToken.sol\":3767:3836  uint256 weeksElapsed = (block.timestamp - preSaleStartTime) / 1 weeks */\n      swap1\n      pop\n        /* \"contracts/SimpleToken.sol\":3847:3868  uint256 priceIncrease */\n      0x00\n        /* \"contracts/SimpleToken.sol\":3924:3943  preSaleWeeksInWeeks */\n      sload(0x0c)\n        /* \"contracts/SimpleToken.sol\":3908:3920  weeksElapsed */\n      dup3\n        /* \"contracts/SimpleToken.sol\":3892:3904  initialPrice */\n      sload(0x08)\n        /* \"contracts/SimpleToken.sol\":3873:3889  regularSalePrice */\n      sload(0x09)\n        /* \"contracts/SimpleToken.sol\":3873:3904  regularSalePrice - initialPrice */\n      tag_327\n      swap2\n      swap1\n      tag_216\n      jump\t// in\n    tag_327:\n        /* \"contracts/SimpleToken.sol\":3872:3920  (regularSalePrice - initialPrice) * weeksElapsed */\n      tag_328\n      swap2\n      swap1\n      tag_220\n      jump\t// in\n    tag_328:\n        /* \"contracts/SimpleToken.sol\":3871:3943  ((regularSalePrice - initialPrice) * weeksElapsed) / preSaleWeeksInWeeks */\n      tag_329\n      swap2\n      swap1\n      tag_218\n      jump\t// in\n    tag_329:\n        /* \"contracts/SimpleToken.sol\":3847:3943  uint256 priceIncrease = ((regularSalePrice - initialPrice) * weeksElapsed) / preSaleWeeksInWeeks */\n      swap1\n      pop\n        /* \"contracts/SimpleToken.sol\":3976:3989  priceIncrease */\n      dup1\n        /* \"contracts/SimpleToken.sol\":3961:3973  initialPrice */\n      sload(0x08)\n        /* \"contracts/SimpleToken.sol\":3961:3989  initialPrice + priceIncrease */\n      tag_330\n      swap2\n      swap1\n      tag_248\n      jump\t// in\n    tag_330:\n        /* \"contracts/SimpleToken.sol\":3954:3989  return initialPrice + priceIncrease */\n      swap3\n      pop\n      pop\n      pop\n        /* \"contracts/SimpleToken.sol\":3510:3997  function calculatePrice() public view returns (uint256) {... */\n      swap1\n      jump\t// out\n        /* \"@openzeppelin/contracts/access/Ownable.sol\":2543:2758  function transferOwnership(address newOwner) public virtual onlyOwner {... */\n    tag_187:\n        /* \"@openzeppelin/contracts/access/Ownable.sol\":1531:1544  _checkOwner() */\n      tag_333\n        /* \"@openzeppelin/contracts/access/Ownable.sol\":1531:1542  _checkOwner */\n      tag_234\n        /* \"@openzeppelin/contracts/access/Ownable.sol\":1531:1544  _checkOwner() */\n      jump\t// in\n    tag_333:\n      sub(shl(0xa0, 0x01), 0x01)\n        /* \"@openzeppelin/contracts/access/Ownable.sol\":2627:2649  newOwner == address(0) */\n      dup2\n      and\n        /* \"@openzeppelin/contracts/access/Ownable.sol\":2623:2714  if (newOwner == address(0)) {... */\n      tag_335\n      jumpi\n        /* \"@openzeppelin/contracts/access/Ownable.sol\":2672:2703  OwnableInvalidOwner(address(0)) */\n      mload(0x40)\n      shl(0xe0, 0x1e4fbdf7)\n      dup2\n      mstore\n        /* \"@openzeppelin/contracts/access/Ownable.sol\":2700:2701  0 */\n      0x00\n        /* \"@openzeppelin/contracts/access/Ownable.sol\":2672:2703  OwnableInvalidOwner(address(0)) */\n      0x04\n      dup3\n      add\n        /* \"#utility.yul\":2430:2481   */\n      mstore\n        /* \"#utility.yul\":2403:2421   */\n      0x24\n      add\n        /* \"@openzeppelin/contracts/access/Ownable.sol\":2672:2703  OwnableInvalidOwner(address(0)) */\n      tag_240\n        /* \"#utility.yul\":2284:2487   */\n      jump\n        /* \"@openzeppelin/contracts/access/Ownable.sol\":2623:2714  if (newOwner == address(0)) {... */\n    tag_335:\n        /* \"@openzeppelin/contracts/access/Ownable.sol\":2723:2751  _transferOwnership(newOwner) */\n      tag_337\n        /* \"@openzeppelin/contracts/access/Ownable.sol\":2742:2750  newOwner */\n      dup2\n        /* \"@openzeppelin/contracts/access/Ownable.sol\":2723:2741  _transferOwnership */\n      tag_237\n        /* \"@openzeppelin/contracts/access/Ownable.sol\":2723:2751  _transferOwnership(newOwner) */\n      jump\t// in\n    tag_337:\n        /* \"@openzeppelin/contracts/access/Ownable.sol\":2543:2758  function transferOwnership(address newOwner) public virtual onlyOwner {... */\n      pop\n      jump\t// out\n        /* \"contracts/SimpleToken.sol\":3063:3501  function startPreSale(uint256 _startTime, uint256 _durationWeeks) external onlyOwner {... */\n    tag_201:\n        /* \"@openzeppelin/contracts/access/Ownable.sol\":1531:1544  _checkOwner() */\n      tag_339\n        /* \"@openzeppelin/contracts/access/Ownable.sol\":1531:1542  _checkOwner */\n      tag_234\n        /* \"@openzeppelin/contracts/access/Ownable.sol\":1531:1544  _checkOwner() */\n      jump\t// in\n    tag_339:\n        /* \"contracts/SimpleToken.sol\":3247:3263  preSaleStartTime */\n      0x06\n        /* \"contracts/SimpleToken.sol\":3247:3276  preSaleStartTime = _startTime */\n      dup3\n      swap1\n      sstore\n        /* \"contracts/SimpleToken.sol\":3324:3348  _durationWeeks * 1 weeks */\n      tag_341\n        /* \"contracts/SimpleToken.sol\":3324:3338  _durationWeeks */\n      dup2\n        /* \"contracts/SimpleToken.sol\":3341:3348  1 weeks */\n      0x093a80\n        /* \"contracts/SimpleToken.sol\":3324:3348  _durationWeeks * 1 weeks */\n      tag_220\n      jump\t// in\n    tag_341:\n        /* \"contracts/SimpleToken.sol\":3304:3320  preSaleStartTime */\n      sload(0x06)\n        /* \"contracts/SimpleToken.sol\":3304:3349  preSaleStartTime + (_durationWeeks * 1 weeks) */\n      tag_342\n      swap2\n      swap1\n      tag_248\n      jump\t// in\n    tag_342:\n        /* \"contracts/SimpleToken.sol\":3287:3301  preSaleEndTime */\n      0x07\n        /* \"contracts/SimpleToken.sol\":3287:3349  preSaleEndTime = preSaleStartTime + (_durationWeeks * 1 weeks) */\n      dup2\n      swap1\n      sstore\n        /* \"contracts/SimpleToken.sol\":3360:3379  preSaleWeeksInWeeks */\n      0x0c\n        /* \"contracts/SimpleToken.sol\":3360:3396  preSaleWeeksInWeeks = _durationWeeks */\n      dup3\n      swap1\n      sstore\n        /* \"contracts/SimpleToken.sol\":3407:3422  presaleIsActive */\n      0x05\n        /* \"contracts/SimpleToken.sol\":3407:3429  presaleIsActive = true */\n      dup1\n      sload\n      not(shl(0xa0, 0xff))\n      and\n      shl(0xa0, 0x01)\n      or\n      swap1\n      sstore\n        /* \"contracts/SimpleToken.sol\":3460:3476  preSaleStartTime */\n      sload(0x06)\n        /* \"contracts/SimpleToken.sol\":3445:3493  PreSaleStarted(preSaleStartTime, preSaleEndTime) */\n      mload(0x40)\n      0x3844853be672b18d859394aa37e05615b95b78e66b4dc37dca98d1db1b05ea7d\n      swap3\n      tag_343\n      swap3\n        /* \"#utility.yul\":8742:8767   */\n      dup3\n      mstore\n        /* \"#utility.yul\":8798:8800   */\n      0x20\n        /* \"#utility.yul\":8783:8801   */\n      dup3\n      add\n        /* \"#utility.yul\":8776:8810   */\n      mstore\n        /* \"#utility.yul\":8730:8732   */\n      0x40\n        /* \"#utility.yul\":8715:8733   */\n      add\n      swap1\n        /* \"#utility.yul\":8568:8816   */\n      jump\n        /* \"contracts/SimpleToken.sol\":3445:3493  PreSaleStarted(preSaleStartTime, preSaleEndTime) */\n    tag_343:\n      mload(0x40)\n      dup1\n      swap2\n      sub\n      swap1\n      log1\n        /* \"contracts/SimpleToken.sol\":3063:3501  function startPreSale(uint256 _startTime, uint256 _durationWeeks) external onlyOwner {... */\n      pop\n      pop\n      jump\t// out\n        /* \"@openzeppelin/contracts/token/ERC20/ERC20.sol\":8726:8854  function _approve(address owner, address spender, uint256 value) internal {... */\n    tag_213:\n        /* \"@openzeppelin/contracts/token/ERC20/ERC20.sol\":8810:8847  _approve(owner, spender, value, true) */\n      tag_346\n        /* \"@openzeppelin/contracts/token/ERC20/ERC20.sol\":8819:8824  owner */\n      dup4\n        /* \"@openzeppelin/contracts/token/ERC20/ERC20.sol\":8826:8833  spender */\n      dup4\n        /* \"@openzeppelin/contracts/token/ERC20/ERC20.sol\":8835:8840  value */\n      dup4\n        /* \"@openzeppelin/contracts/token/ERC20/ERC20.sol\":8842:8846  true */\n      0x01\n        /* \"@openzeppelin/contracts/token/ERC20/ERC20.sol\":8810:8818  _approve */\n      tag_347\n        /* \"@openzeppelin/contracts/token/ERC20/ERC20.sol\":8810:8847  _approve(owner, spender, value, true) */\n      jump\t// in\n    tag_346:\n        /* \"@openzeppelin/contracts/token/ERC20/ERC20.sol\":8726:8854  function _approve(address owner, address spender, uint256 value) internal {... */\n      pop\n      pop\n      pop\n      jump\t// out\n        /* \"@openzeppelin/contracts/token/ERC20/ERC20.sol\":10415:10891  function _spendAllowance(address owner, address spender, uint256 value) internal virtual {... */\n    tag_227:\n      sub(shl(0xa0, 0x01), 0x01)\n        /* \"@openzeppelin/contracts/token/ERC20/ERC20.sol\":3657:3675  _allowances[owner] */\n      dup4\n      dup2\n      and\n        /* \"@openzeppelin/contracts/token/ERC20/ERC20.sol\":10514:10538  uint256 currentAllowance */\n      0x00\n        /* \"@openzeppelin/contracts/token/ERC20/ERC20.sol\":3657:3675  _allowances[owner] */\n      swap1\n      dup2\n      mstore\n        /* \"@openzeppelin/contracts/token/ERC20/ERC20.sol\":3657:3668  _allowances */\n      0x01\n        /* \"@openzeppelin/contracts/token/ERC20/ERC20.sol\":3657:3675  _allowances[owner] */\n      0x20\n      swap1\n      dup2\n      mstore\n      0x40\n      dup1\n      dup4\n      keccak256\n        /* \"@openzeppelin/contracts/token/ERC20/ERC20.sol\":3657:3684  _allowances[owner][spender] */\n      swap4\n      dup7\n      and\n      dup4\n      mstore\n      swap3\n      swap1\n      mstore\n      keccak256\n      sload\n      not(0x00)\n        /* \"@openzeppelin/contracts/token/ERC20/ERC20.sol\":10580:10616  currentAllowance < type(uint256).max */\n      dup2\n      lt\n        /* \"@openzeppelin/contracts/token/ERC20/ERC20.sol\":10576:10885  if (currentAllowance < type(uint256).max) {... */\n      iszero\n      tag_354\n      jumpi\n        /* \"@openzeppelin/contracts/token/ERC20/ERC20.sol\":10655:10660  value */\n      dup2\n        /* \"@openzeppelin/contracts/token/ERC20/ERC20.sol\":10636:10652  currentAllowance */\n      dup2\n        /* \"@openzeppelin/contracts/token/ERC20/ERC20.sol\":10636:10660  currentAllowance < value */\n      lt\n        /* \"@openzeppelin/contracts/token/ERC20/ERC20.sol\":10632:10762  if (currentAllowance < value) {... */\n      iszero\n      tag_351\n      jumpi\n        /* \"@openzeppelin/contracts/token/ERC20/ERC20.sol\":10687:10747  ERC20InsufficientAllowance(spender, currentAllowance, value) */\n      mload(0x40)\n      shl(0xe1, 0x7dc7a0d9)\n      dup2\n      mstore\n      sub(shl(0xa0, 0x01), 0x01)\n        /* \"#utility.yul\":10589:10621   */\n      dup5\n      and\n        /* \"@openzeppelin/contracts/token/ERC20/ERC20.sol\":10687:10747  ERC20InsufficientAllowance(spender, currentAllowance, value) */\n      0x04\n      dup3\n      add\n        /* \"#utility.yul\":10571:10622   */\n      mstore\n        /* \"#utility.yul\":10638:10656   */\n      0x24\n      dup2\n      add\n        /* \"#utility.yul\":10631:10665   */\n      dup3\n      swap1\n      mstore\n        /* \"#utility.yul\":10681:10699   */\n      0x44\n      dup2\n      add\n        /* \"#utility.yul\":10674:10708   */\n      dup4\n      swap1\n      mstore\n        /* \"#utility.yul\":10544:10562   */\n      0x64\n      add\n        /* \"@openzeppelin/contracts/token/ERC20/ERC20.sol\":10687:10747  ERC20InsufficientAllowance(spender, currentAllowance, value) */\n      tag_240\n        /* \"#utility.yul\":10369:10714   */\n      jump\n        /* \"@openzeppelin/contracts/token/ERC20/ERC20.sol\":10632:10762  if (currentAllowance < value) {... */\n    tag_351:\n        /* \"@openzeppelin/contracts/token/ERC20/ERC20.sol\":10803:10860  _approve(owner, spender, currentAllowance - value, false) */\n      tag_354\n        /* \"@openzeppelin/contracts/token/ERC20/ERC20.sol\":10812:10817  owner */\n      dup5\n        /* \"@openzeppelin/contracts/token/ERC20/ERC20.sol\":10819:10826  spender */\n      dup5\n        /* \"@openzeppelin/contracts/token/ERC20/ERC20.sol\":10847:10852  value */\n      dup5\n        /* \"@openzeppelin/contracts/token/ERC20/ERC20.sol\":10828:10844  currentAllowance */\n      dup5\n        /* \"@openzeppelin/contracts/token/ERC20/ERC20.sol\":10828:10852  currentAllowance - value */\n      sub\n        /* \"@openzeppelin/contracts/token/ERC20/ERC20.sol\":10854:10859  false */\n      0x00\n        /* \"@openzeppelin/contracts/token/ERC20/ERC20.sol\":10803:10811  _approve */\n      tag_347\n        /* \"@openzeppelin/contracts/token/ERC20/ERC20.sol\":10803:10860  _approve(owner, spender, currentAllowance - value, false) */\n      jump\t// in\n    tag_354:\n        /* \"@openzeppelin/contracts/token/ERC20/ERC20.sol\":10504:10891  {... */\n      pop\n        /* \"@openzeppelin/contracts/token/ERC20/ERC20.sol\":10415:10891  function _spendAllowance(address owner, address spender, uint256 value) internal virtual {... */\n      pop\n      pop\n      pop\n      jump\t// out\n        /* \"@openzeppelin/contracts/token/ERC20/ERC20.sol\":5393:5693  function _transfer(address from, address to, uint256 value) internal {... */\n    tag_229:\n      sub(shl(0xa0, 0x01), 0x01)\n        /* \"@openzeppelin/contracts/token/ERC20/ERC20.sol\":5476:5494  from == address(0) */\n      dup4\n      and\n        /* \"@openzeppelin/contracts/token/ERC20/ERC20.sol\":5472:5558  if (from == address(0)) {... */\n      tag_356\n      jumpi\n        /* \"@openzeppelin/contracts/token/ERC20/ERC20.sol\":5517:5547  ERC20InvalidSender(address(0)) */\n      mload(0x40)\n      shl(0xe1, 0x4b637e8f)\n      dup2\n      mstore\n        /* \"@openzeppelin/contracts/token/ERC20/ERC20.sol\":5544:5545  0 */\n      0x00\n        /* \"@openzeppelin/contracts/token/ERC20/ERC20.sol\":5517:5547  ERC20InvalidSender(address(0)) */\n      0x04\n      dup3\n      add\n        /* \"#utility.yul\":2430:2481   */\n      mstore\n        /* \"#utility.yul\":2403:2421   */\n      0x24\n      add\n        /* \"@openzeppelin/contracts/token/ERC20/ERC20.sol\":5517:5547  ERC20InvalidSender(address(0)) */\n      tag_240\n        /* \"#utility.yul\":2284:2487   */\n      jump\n        /* \"@openzeppelin/contracts/token/ERC20/ERC20.sol\":5472:5558  if (from == address(0)) {... */\n    tag_356:\n      sub(shl(0xa0, 0x01), 0x01)\n        /* \"@openzeppelin/contracts/token/ERC20/ERC20.sol\":5571:5587  to == address(0) */\n      dup3\n      and\n        /* \"@openzeppelin/contracts/token/ERC20/ERC20.sol\":5567:5653  if (to == address(0)) {... */\n      tag_358\n      jumpi\n        /* \"@openzeppelin/contracts/token/ERC20/ERC20.sol\":5610:5642  ERC20InvalidReceiver(address(0)) */\n      mload(0x40)\n      shl(0xe0, 0xec442f05)\n      dup2\n      mstore\n        /* \"@openzeppelin/contracts/token/ERC20/ERC20.sol\":5639:5640  0 */\n      0x00\n        /* \"@openzeppelin/contracts/token/ERC20/ERC20.sol\":5610:5642  ERC20InvalidReceiver(address(0)) */\n      0x04\n      dup3\n      add\n        /* \"#utility.yul\":2430:2481   */\n      mstore\n        /* \"#utility.yul\":2403:2421   */\n      0x24\n      add\n        /* \"@openzeppelin/contracts/token/ERC20/ERC20.sol\":5610:5642  ERC20InvalidReceiver(address(0)) */\n      tag_240\n        /* \"#utility.yul\":2284:2487   */\n      jump\n        /* \"@openzeppelin/contracts/token/ERC20/ERC20.sol\":5567:5653  if (to == address(0)) {... */\n    tag_358:\n        /* \"@openzeppelin/contracts/token/ERC20/ERC20.sol\":5662:5686  _update(from, to, value) */\n      tag_346\n        /* \"@openzeppelin/contracts/token/ERC20/ERC20.sol\":5670:5674  from */\n      dup4\n        /* \"@openzeppelin/contracts/token/ERC20/ERC20.sol\":5676:5678  to */\n      dup4\n        /* \"@openzeppelin/contracts/token/ERC20/ERC20.sol\":5680:5685  value */\n      dup4\n        /* \"@openzeppelin/contracts/token/ERC20/ERC20.sol\":5662:5669  _update */\n      tag_361\n        /* \"@openzeppelin/contracts/token/ERC20/ERC20.sol\":5662:5686  _update(from, to, value) */\n      jump\t// in\n        /* \"@openzeppelin/contracts/access/Ownable.sol\":1796:1958  function _checkOwner() internal view virtual {... */\n    tag_234:\n        /* \"@openzeppelin/contracts/access/Ownable.sol\":1710:1716  _owner */\n      and(sub(shl(0xa0, 0x01), 0x01), sload(0x05))\n        /* \"@openzeppelin/contracts/utils/Context.sol\":735:745  msg.sender */\n      caller\n        /* \"@openzeppelin/contracts/access/Ownable.sol\":1855:1878  owner() != _msgSender() */\n      eq\n        /* \"@openzeppelin/contracts/access/Ownable.sol\":1851:1952  if (owner() != _msgSender()) {... */\n      tag_236\n      jumpi\n        /* \"@openzeppelin/contracts/access/Ownable.sol\":1901:1941  OwnableUnauthorizedAccount(_msgSender()) */\n      mload(0x40)\n      shl(0xe0, 0x118cdaa7)\n      dup2\n      mstore\n        /* \"@openzeppelin/contracts/utils/Context.sol\":735:745  msg.sender */\n      caller\n        /* \"@openzeppelin/contracts/access/Ownable.sol\":1901:1941  OwnableUnauthorizedAccount(_msgSender()) */\n      0x04\n      dup3\n      add\n        /* \"#utility.yul\":2430:2481   */\n      mstore\n        /* \"#utility.yul\":2403:2421   */\n      0x24\n      add\n        /* \"@openzeppelin/contracts/access/Ownable.sol\":1901:1941  OwnableUnauthorizedAccount(_msgSender()) */\n      tag_240\n        /* \"#utility.yul\":2284:2487   */\n      jump\n        /* \"@openzeppelin/contracts/access/Ownable.sol\":2912:3099  function _transferOwnership(address newOwner) internal virtual {... */\n    tag_237:\n        /* \"@openzeppelin/contracts/access/Ownable.sol\":3004:3010  _owner */\n      0x05\n      dup1\n      sload\n      sub(shl(0xa0, 0x01), 0x01)\n        /* \"@openzeppelin/contracts/access/Ownable.sol\":3020:3037  _owner = newOwner */\n      dup4\n      dup2\n      and\n      not(sub(shl(0xa0, 0x01), 0x01))\n      dup4\n      and\n      dup2\n      or\n      swap1\n      swap4\n      sstore\n        /* \"@openzeppelin/contracts/access/Ownable.sol\":3052:3092  OwnershipTransferred(oldOwner, newOwner) */\n      mload(0x40)\n        /* \"@openzeppelin/contracts/access/Ownable.sol\":3004:3010  _owner */\n      swap2\n      and\n      swap2\n        /* \"@openzeppelin/contracts/access/Ownable.sol\":3020:3037  _owner = newOwner */\n      swap1\n        /* \"@openzeppelin/contracts/access/Ownable.sol\":3004:3010  _owner */\n      dup3\n      swap1\n        /* \"@openzeppelin/contracts/access/Ownable.sol\":3052:3092  OwnershipTransferred(oldOwner, newOwner) */\n      0x8be0079c531659141344cd1fd0a4f28419497f9722a3daafe3b4186f6b6457e0\n      swap1\n        /* \"@openzeppelin/contracts/access/Ownable.sol\":2985:3001  address oldOwner */\n      0x00\n      swap1\n        /* \"@openzeppelin/contracts/access/Ownable.sol\":3052:3092  OwnershipTransferred(oldOwner, newOwner) */\n      log3\n        /* \"@openzeppelin/contracts/access/Ownable.sol\":2975:3099  {... */\n      pop\n        /* \"@openzeppelin/contracts/access/Ownable.sol\":2912:3099  function _transferOwnership(address newOwner) internal virtual {... */\n      pop\n      jump\t// out\n        /* \"@openzeppelin/contracts/token/ERC20/ERC20.sol\":7458:7666  function _mint(address account, uint256 value) internal {... */\n    tag_259:\n      sub(shl(0xa0, 0x01), 0x01)\n        /* \"@openzeppelin/contracts/token/ERC20/ERC20.sol\":7528:7549  account == address(0) */\n      dup3\n      and\n        /* \"@openzeppelin/contracts/token/ERC20/ERC20.sol\":7524:7615  if (account == address(0)) {... */\n      tag_370\n      jumpi\n        /* \"@openzeppelin/contracts/token/ERC20/ERC20.sol\":7572:7604  ERC20InvalidReceiver(address(0)) */\n      mload(0x40)\n      shl(0xe0, 0xec442f05)\n      dup2\n      mstore\n        /* \"@openzeppelin/contracts/token/ERC20/ERC20.sol\":7601:7602  0 */\n      0x00\n        /* \"@openzeppelin/contracts/token/ERC20/ERC20.sol\":7572:7604  ERC20InvalidReceiver(address(0)) */\n      0x04\n      dup3\n      add\n        /* \"#utility.yul\":2430:2481   */\n      mstore\n        /* \"#utility.yul\":2403:2421   */\n      0x24\n      add\n        /* \"@openzeppelin/contracts/token/ERC20/ERC20.sol\":7572:7604  ERC20InvalidReceiver(address(0)) */\n      tag_240\n        /* \"#utility.yul\":2284:2487   */\n      jump\n        /* \"@openzeppelin/contracts/token/ERC20/ERC20.sol\":7524:7615  if (account == address(0)) {... */\n    tag_370:\n        /* \"@openzeppelin/contracts/token/ERC20/ERC20.sol\":7624:7659  _update(address(0), account, value) */\n      tag_372\n        /* \"@openzeppelin/contracts/token/ERC20/ERC20.sol\":7640:7641  0 */\n      0x00\n        /* \"@openzeppelin/contracts/token/ERC20/ERC20.sol\":7644:7651  account */\n      dup4\n        /* \"@openzeppelin/contracts/token/ERC20/ERC20.sol\":7653:7658  value */\n      dup4\n        /* \"@openzeppelin/contracts/token/ERC20/ERC20.sol\":7624:7631  _update */\n      tag_361\n        /* \"@openzeppelin/contracts/token/ERC20/ERC20.sol\":7624:7659  _update(address(0), account, value) */\n      jump\t// in\n    tag_372:\n        /* \"@openzeppelin/contracts/token/ERC20/ERC20.sol\":7458:7666  function _mint(address account, uint256 value) internal {... */\n      pop\n      pop\n      jump\t// out\n        /* \"@openzeppelin/contracts/token/ERC20/ERC20.sol\":9701:10133  function _approve(address owner, address spender, uint256 value, bool emitEvent) internal virtual {... */\n    tag_347:\n      sub(shl(0xa0, 0x01), 0x01)\n        /* \"@openzeppelin/contracts/token/ERC20/ERC20.sol\":9813:9832  owner == address(0) */\n      dup5\n      and\n        /* \"@openzeppelin/contracts/token/ERC20/ERC20.sol\":9809:9898  if (owner == address(0)) {... */\n      tag_374\n      jumpi\n        /* \"@openzeppelin/contracts/token/ERC20/ERC20.sol\":9855:9887  ERC20InvalidApprover(address(0)) */\n      mload(0x40)\n      shl(0xe0, 0xe602df05)\n      dup2\n      mstore\n        /* \"@openzeppelin/contracts/token/ERC20/ERC20.sol\":9884:9885  0 */\n      0x00\n        /* \"@openzeppelin/contracts/token/ERC20/ERC20.sol\":9855:9887  ERC20InvalidApprover(address(0)) */\n      0x04\n      dup3\n      add\n        /* \"#utility.yul\":2430:2481   */\n      mstore\n        /* \"#utility.yul\":2403:2421   */\n      0x24\n      add\n        /* \"@openzeppelin/contracts/token/ERC20/ERC20.sol\":9855:9887  ERC20InvalidApprover(address(0)) */\n      tag_240\n        /* \"#utility.yul\":2284:2487   */\n      jump\n        /* \"@openzeppelin/contracts/token/ERC20/ERC20.sol\":9809:9898  if (owner == address(0)) {... */\n    tag_374:\n      sub(shl(0xa0, 0x01), 0x01)\n        /* \"@openzeppelin/contracts/token/ERC20/ERC20.sol\":9911:9932  spender == address(0) */\n      dup4\n      and\n        /* \"@openzeppelin/contracts/token/ERC20/ERC20.sol\":9907:9997  if (spender == address(0)) {... */\n      tag_376\n      jumpi\n        /* \"@openzeppelin/contracts/token/ERC20/ERC20.sol\":9955:9986  ERC20InvalidSpender(address(0)) */\n      mload(0x40)\n      shl(0xe1, 0x4a1406b1)\n      dup2\n      mstore\n        /* \"@openzeppelin/contracts/token/ERC20/ERC20.sol\":9983:9984  0 */\n      0x00\n        /* \"@openzeppelin/contracts/token/ERC20/ERC20.sol\":9955:9986  ERC20InvalidSpender(address(0)) */\n      0x04\n      dup3\n      add\n        /* \"#utility.yul\":2430:2481   */\n      mstore\n        /* \"#utility.yul\":2403:2421   */\n      0x24\n      add\n        /* \"@openzeppelin/contracts/token/ERC20/ERC20.sol\":9955:9986  ERC20InvalidSpender(address(0)) */\n      tag_240\n        /* \"#utility.yul\":2284:2487   */\n      jump\n        /* \"@openzeppelin/contracts/token/ERC20/ERC20.sol\":9907:9997  if (spender == address(0)) {... */\n    tag_376:\n      sub(shl(0xa0, 0x01), 0x01)\n        /* \"@openzeppelin/contracts/token/ERC20/ERC20.sol\":10006:10024  _allowances[owner] */\n      dup1\n      dup6\n      and\n      0x00\n      swap1\n      dup2\n      mstore\n        /* \"@openzeppelin/contracts/token/ERC20/ERC20.sol\":10006:10017  _allowances */\n      0x01\n        /* \"@openzeppelin/contracts/token/ERC20/ERC20.sol\":10006:10024  _allowances[owner] */\n      0x20\n      swap1\n      dup2\n      mstore\n      0x40\n      dup1\n      dup4\n      keccak256\n        /* \"@openzeppelin/contracts/token/ERC20/ERC20.sol\":10006:10033  _allowances[owner][spender] */\n      swap4\n      dup8\n      and\n      dup4\n      mstore\n      swap3\n      swap1\n      mstore\n      keccak256\n        /* \"@openzeppelin/contracts/token/ERC20/ERC20.sol\":10006:10041  _allowances[owner][spender] = value */\n      dup3\n      swap1\n      sstore\n        /* \"@openzeppelin/contracts/token/ERC20/ERC20.sol\":10051:10127  if (emitEvent) {... */\n      dup1\n      iszero\n      tag_354\n      jumpi\n        /* \"@openzeppelin/contracts/token/ERC20/ERC20.sol\":10101:10108  spender */\n      dup3\n      sub(shl(0xa0, 0x01), 0x01)\n        /* \"@openzeppelin/contracts/token/ERC20/ERC20.sol\":10085:10116  Approval(owner, spender, value) */\n      and\n        /* \"@openzeppelin/contracts/token/ERC20/ERC20.sol\":10094:10099  owner */\n      dup5\n      sub(shl(0xa0, 0x01), 0x01)\n        /* \"@openzeppelin/contracts/token/ERC20/ERC20.sol\":10085:10116  Approval(owner, spender, value) */\n      and\n      0x8c5be1e5ebec7d5bd14f71427d1e84f3dd0314c0f7b2291e5b200ac8c7c3b925\n        /* \"@openzeppelin/contracts/token/ERC20/ERC20.sol\":10110:10115  value */\n      dup5\n        /* \"@openzeppelin/contracts/token/ERC20/ERC20.sol\":10085:10116  Approval(owner, spender, value) */\n      mload(0x40)\n      tag_379\n      swap2\n        /* \"#utility.yul\":160:185   */\n      dup2\n      mstore\n        /* \"#utility.yul\":148:150   */\n      0x20\n        /* \"#utility.yul\":133:151   */\n      add\n      swap1\n        /* \"#utility.yul\":14:191   */\n      jump\n        /* \"@openzeppelin/contracts/token/ERC20/ERC20.sol\":10085:10116  Approval(owner, spender, value) */\n    tag_379:\n      mload(0x40)\n      dup1\n      swap2\n      sub\n      swap1\n      log3\n        /* \"@openzeppelin/contracts/token/ERC20/ERC20.sol\":9701:10133  function _approve(address owner, address spender, uint256 value, bool emitEvent) internal virtual {... */\n      pop\n      pop\n      pop\n      pop\n      jump\t// out\n        /* \"@openzeppelin/contracts/token/ERC20/ERC20.sol\":6008:7115  function _update(address from, address to, uint256 value) internal virtual {... */\n    tag_361:\n      sub(shl(0xa0, 0x01), 0x01)\n        /* \"@openzeppelin/contracts/token/ERC20/ERC20.sol\":6097:6115  from == address(0) */\n      dup4\n      and\n        /* \"@openzeppelin/contracts/token/ERC20/ERC20.sol\":6093:6633  if (from == address(0)) {... */\n      tag_381\n      jumpi\n        /* \"@openzeppelin/contracts/token/ERC20/ERC20.sol\":6249:6254  value */\n      dup1\n        /* \"@openzeppelin/contracts/token/ERC20/ERC20.sol\":6233:6245  _totalSupply */\n      0x02\n      0x00\n        /* \"@openzeppelin/contracts/token/ERC20/ERC20.sol\":6233:6254  _totalSupply += value */\n      dup3\n      dup3\n      sload\n      tag_382\n      swap2\n      swap1\n      tag_248\n      jump\t// in\n    tag_382:\n      swap1\n      swap2\n      sstore\n      pop\n        /* \"@openzeppelin/contracts/token/ERC20/ERC20.sol\":6093:6633  if (from == address(0)) {... */\n      tag_383\n      swap1\n      pop\n      jump\n    tag_381:\n      sub(shl(0xa0, 0x01), 0x01)\n        /* \"@openzeppelin/contracts/token/ERC20/ERC20.sol\":6307:6322  _balances[from] */\n      dup4\n      and\n        /* \"@openzeppelin/contracts/token/ERC20/ERC20.sol\":6285:6304  uint256 fromBalance */\n      0x00\n        /* \"@openzeppelin/contracts/token/ERC20/ERC20.sol\":6307:6322  _balances[from] */\n      swap1\n      dup2\n      mstore\n      0x20\n      dup2\n      swap1\n      mstore\n      0x40\n      swap1\n      keccak256\n      sload\n        /* \"@openzeppelin/contracts/token/ERC20/ERC20.sol\":6340:6359  fromBalance < value */\n      dup2\n      dup2\n      lt\n        /* \"@openzeppelin/contracts/token/ERC20/ERC20.sol\":6336:6451  if (fromBalance < value) {... */\n      iszero\n      tag_384\n      jumpi\n        /* \"@openzeppelin/contracts/token/ERC20/ERC20.sol\":6386:6436  ERC20InsufficientBalance(from, fromBalance, value) */\n      mload(0x40)\n      shl(0xe2, 0x391434e3)\n      dup2\n      mstore\n      sub(shl(0xa0, 0x01), 0x01)\n        /* \"#utility.yul\":10589:10621   */\n      dup6\n      and\n        /* \"@openzeppelin/contracts/token/ERC20/ERC20.sol\":6386:6436  ERC20InsufficientBalance(from, fromBalance, value) */\n      0x04\n      dup3\n      add\n        /* \"#utility.yul\":10571:10622   */\n      mstore\n        /* \"#utility.yul\":10638:10656   */\n      0x24\n      dup2\n      add\n        /* \"#utility.yul\":10631:10665   */\n      dup3\n      swap1\n      mstore\n        /* \"#utility.yul\":10681:10699   */\n      0x44\n      dup2\n      add\n        /* \"#utility.yul\":10674:10708   */\n      dup4\n      swap1\n      mstore\n        /* \"#utility.yul\":10544:10562   */\n      0x64\n      add\n        /* \"@openzeppelin/contracts/token/ERC20/ERC20.sol\":6386:6436  ERC20InsufficientBalance(from, fromBalance, value) */\n      tag_240\n        /* \"#utility.yul\":10369:10714   */\n      jump\n        /* \"@openzeppelin/contracts/token/ERC20/ERC20.sol\":6336:6451  if (fromBalance < value) {... */\n    tag_384:\n      sub(shl(0xa0, 0x01), 0x01)\n        /* \"@openzeppelin/contracts/token/ERC20/ERC20.sol\":6571:6586  _balances[from] */\n      dup5\n      and\n        /* \"@openzeppelin/contracts/token/ERC20/ERC20.sol\":6571:6580  _balances */\n      0x00\n        /* \"@openzeppelin/contracts/token/ERC20/ERC20.sol\":6571:6586  _balances[from] */\n      swap1\n      dup2\n      mstore\n      0x20\n      dup2\n      swap1\n      mstore\n      0x40\n      swap1\n      keccak256\n        /* \"@openzeppelin/contracts/token/ERC20/ERC20.sol\":6589:6608  fromBalance - value */\n      swap1\n      dup3\n      swap1\n      sub\n        /* \"@openzeppelin/contracts/token/ERC20/ERC20.sol\":6571:6608  _balances[from] = fromBalance - value */\n      swap1\n      sstore\n        /* \"@openzeppelin/contracts/token/ERC20/ERC20.sol\":6093:6633  if (from == address(0)) {... */\n    tag_383:\n      sub(shl(0xa0, 0x01), 0x01)\n        /* \"@openzeppelin/contracts/token/ERC20/ERC20.sol\":6647:6663  to == address(0) */\n      dup3\n      and\n        /* \"@openzeppelin/contracts/token/ERC20/ERC20.sol\":6643:7068  if (to == address(0)) {... */\n      tag_386\n      jumpi\n        /* \"@openzeppelin/contracts/token/ERC20/ERC20.sol\":6810:6822  _totalSupply */\n      0x02\n        /* \"@openzeppelin/contracts/token/ERC20/ERC20.sol\":6810:6831  _totalSupply -= value */\n      dup1\n      sload\n      dup3\n      swap1\n      sub\n      swap1\n      sstore\n        /* \"@openzeppelin/contracts/token/ERC20/ERC20.sol\":6643:7068  if (to == address(0)) {... */\n      jump(tag_387)\n    tag_386:\n      sub(shl(0xa0, 0x01), 0x01)\n        /* \"@openzeppelin/contracts/token/ERC20/ERC20.sol\":7021:7034  _balances[to] */\n      dup3\n      and\n        /* \"@openzeppelin/contracts/token/ERC20/ERC20.sol\":7021:7030  _balances */\n      0x00\n        /* \"@openzeppelin/contracts/token/ERC20/ERC20.sol\":7021:7034  _balances[to] */\n      swap1\n      dup2\n      mstore\n      0x20\n      dup2\n      swap1\n      mstore\n      0x40\n      swap1\n      keccak256\n        /* \"@openzeppelin/contracts/token/ERC20/ERC20.sol\":7021:7043  _balances[to] += value */\n      dup1\n      sload\n      dup3\n      add\n      swap1\n      sstore\n        /* \"@openzeppelin/contracts/token/ERC20/ERC20.sol\":6643:7068  if (to == address(0)) {... */\n    tag_387:\n        /* \"@openzeppelin/contracts/token/ERC20/ERC20.sol\":7098:7100  to */\n      dup2\n      sub(shl(0xa0, 0x01), 0x01)\n        /* \"@openzeppelin/contracts/token/ERC20/ERC20.sol\":7083:7108  Transfer(from, to, value) */\n      and\n        /* \"@openzeppelin/contracts/token/ERC20/ERC20.sol\":7092:7096  from */\n      dup4\n      sub(shl(0xa0, 0x01), 0x01)\n        /* \"@openzeppelin/contracts/token/ERC20/ERC20.sol\":7083:7108  Transfer(from, to, value) */\n      and\n      0xddf252ad1be2c89b69c2b068fc378daa952ba7f163c4a11628f55a4df523b3ef\n        /* \"@openzeppelin/contracts/token/ERC20/ERC20.sol\":7102:7107  value */\n      dup4\n        /* \"@openzeppelin/contracts/token/ERC20/ERC20.sol\":7083:7108  Transfer(from, to, value) */\n      mload(0x40)\n      tag_388\n      swap2\n        /* \"#utility.yul\":160:185   */\n      dup2\n      mstore\n        /* \"#utility.yul\":148:150   */\n      0x20\n        /* \"#utility.yul\":133:151   */\n      add\n      swap1\n        /* \"#utility.yul\":14:191   */\n      jump\n        /* \"@openzeppelin/contracts/token/ERC20/ERC20.sol\":7083:7108  Transfer(from, to, value) */\n    tag_388:\n      mload(0x40)\n      dup1\n      swap2\n      sub\n      swap1\n      log3\n        /* \"@openzeppelin/contracts/token/ERC20/ERC20.sol\":6008:7115  function _update(address from, address to, uint256 value) internal virtual {... */\n      pop\n      pop\n      pop\n      jump\t// out\n        /* \"#utility.yul\":196:614   */\n    tag_57:\n        /* \"#utility.yul\":345:347   */\n      0x20\n        /* \"#utility.yul\":334:343   */\n      dup2\n        /* \"#utility.yul\":327:348   */\n      mstore\n        /* \"#utility.yul\":308:312   */\n      0x00\n        /* \"#utility.yul\":377:383   */\n      dup3\n        /* \"#utility.yul\":371:384   */\n      mload\n        /* \"#utility.yul\":420:426   */\n      dup1\n        /* \"#utility.yul\":415:417   */\n      0x20\n        /* \"#utility.yul\":404:413   */\n      dup5\n        /* \"#utility.yul\":400:418   */\n      add\n        /* \"#utility.yul\":393:427   */\n      mstore\n        /* \"#utility.yul\":479:485   */\n      dup1\n        /* \"#utility.yul\":474:476   */\n      0x20\n        /* \"#utility.yul\":466:472   */\n      dup6\n        /* \"#utility.yul\":462:477   */\n      add\n        /* \"#utility.yul\":457:459   */\n      0x40\n        /* \"#utility.yul\":446:455   */\n      dup6\n        /* \"#utility.yul\":442:460   */\n      add\n        /* \"#utility.yul\":436:486   */\n      mcopy\n        /* \"#utility.yul\":535:536   */\n      0x00\n        /* \"#utility.yul\":530:532   */\n      0x40\n        /* \"#utility.yul\":521:527   */\n      dup3\n        /* \"#utility.yul\":510:519   */\n      dup6\n        /* \"#utility.yul\":506:528   */\n      add\n        /* \"#utility.yul\":502:533   */\n      add\n        /* \"#utility.yul\":495:537   */\n      mstore\n        /* \"#utility.yul\":605:607   */\n      0x40\n        /* \"#utility.yul\":598:600   */\n      0x1f\n        /* \"#utility.yul\":594:601   */\n      not\n        /* \"#utility.yul\":589:591   */\n      0x1f\n        /* \"#utility.yul\":581:587   */\n      dup4\n        /* \"#utility.yul\":577:592   */\n      add\n        /* \"#utility.yul\":573:602   */\n      and\n        /* \"#utility.yul\":562:571   */\n      dup5\n        /* \"#utility.yul\":558:603   */\n      add\n        /* \"#utility.yul\":554:608   */\n      add\n        /* \"#utility.yul\":546:608   */\n      swap2\n      pop\n      pop\n        /* \"#utility.yul\":196:614   */\n      swap3\n      swap2\n      pop\n      pop\n      jump\t// out\n        /* \"#utility.yul\":619:792   */\n    tag_389:\n        /* \"#utility.yul\":687:707   */\n      dup1\n      calldataload\n      sub(shl(0xa0, 0x01), 0x01)\n        /* \"#utility.yul\":736:767   */\n      dup2\n      and\n        /* \"#utility.yul\":726:768   */\n      dup2\n      eq\n        /* \"#utility.yul\":716:786   */\n      tag_397\n      jumpi\n        /* \"#utility.yul\":782:783   */\n      0x00\n        /* \"#utility.yul\":779:780   */\n      dup1\n        /* \"#utility.yul\":772:784   */\n      revert\n        /* \"#utility.yul\":716:786   */\n    tag_397:\n        /* \"#utility.yul\":619:792   */\n      swap2\n      swap1\n      pop\n      jump\t// out\n        /* \"#utility.yul\":797:1097   */\n    tag_61:\n        /* \"#utility.yul\":865:871   */\n      0x00\n        /* \"#utility.yul\":873:879   */\n      dup1\n        /* \"#utility.yul\":926:928   */\n      0x40\n        /* \"#utility.yul\":914:923   */\n      dup4\n        /* \"#utility.yul\":905:912   */\n      dup6\n        /* \"#utility.yul\":901:924   */\n      sub\n        /* \"#utility.yul\":897:929   */\n      slt\n        /* \"#utility.yul\":894:946   */\n      iszero\n      tag_399\n      jumpi\n        /* \"#utility.yul\":942:943   */\n      0x00\n        /* \"#utility.yul\":939:940   */\n      dup1\n        /* \"#utility.yul\":932:944   */\n      revert\n        /* \"#utility.yul\":894:946   */\n    tag_399:\n        /* \"#utility.yul\":965:994   */\n      tag_400\n        /* \"#utility.yul\":984:993   */\n      dup4\n        /* \"#utility.yul\":965:994   */\n      tag_389\n      jump\t// in\n    tag_400:\n        /* \"#utility.yul\":955:994   */\n      swap5\n        /* \"#utility.yul\":1063:1065   */\n      0x20\n        /* \"#utility.yul\":1048:1066   */\n      swap4\n      swap1\n      swap4\n      add\n        /* \"#utility.yul\":1035:1067   */\n      calldataload\n      swap4\n      pop\n      pop\n      pop\n        /* \"#utility.yul\":797:1097   */\n      jump\t// out\n        /* \"#utility.yul\":1294:1480   */\n    tag_68:\n        /* \"#utility.yul\":1353:1359   */\n      0x00\n        /* \"#utility.yul\":1406:1408   */\n      0x20\n        /* \"#utility.yul\":1394:1403   */\n      dup3\n        /* \"#utility.yul\":1385:1392   */\n      dup5\n        /* \"#utility.yul\":1381:1404   */\n      sub\n        /* \"#utility.yul\":1377:1409   */\n      slt\n        /* \"#utility.yul\":1374:1426   */\n      iszero\n      tag_403\n      jumpi\n        /* \"#utility.yul\":1422:1423   */\n      0x00\n        /* \"#utility.yul\":1419:1420   */\n      dup1\n        /* \"#utility.yul\":1412:1424   */\n      revert\n        /* \"#utility.yul\":1374:1426   */\n    tag_403:\n        /* \"#utility.yul\":1445:1474   */\n      tag_222\n        /* \"#utility.yul\":1464:1473   */\n      dup3\n        /* \"#utility.yul\":1445:1474   */\n      tag_389\n      jump\t// in\n        /* \"#utility.yul\":1485:1859   */\n    tag_82:\n        /* \"#utility.yul\":1562:1568   */\n      0x00\n        /* \"#utility.yul\":1570:1576   */\n      dup1\n        /* \"#utility.yul\":1578:1584   */\n      0x00\n        /* \"#utility.yul\":1631:1633   */\n      0x60\n        /* \"#utility.yul\":1619:1628   */\n      dup5\n        /* \"#utility.yul\":1610:1617   */\n      dup7\n        /* \"#utility.yul\":1606:1629   */\n      sub\n        /* \"#utility.yul\":1602:1634   */\n      slt\n        /* \"#utility.yul\":1599:1651   */\n      iszero\n      tag_406\n      jumpi\n        /* \"#utility.yul\":1647:1648   */\n      0x00\n        /* \"#utility.yul\":1644:1645   */\n      dup1\n        /* \"#utility.yul\":1637:1649   */\n      revert\n        /* \"#utility.yul\":1599:1651   */\n    tag_406:\n        /* \"#utility.yul\":1670:1699   */\n      tag_407\n        /* \"#utility.yul\":1689:1698   */\n      dup5\n        /* \"#utility.yul\":1670:1699   */\n      tag_389\n      jump\t// in\n    tag_407:\n        /* \"#utility.yul\":1660:1699   */\n      swap3\n      pop\n        /* \"#utility.yul\":1718:1756   */\n      tag_408\n        /* \"#utility.yul\":1752:1754   */\n      0x20\n        /* \"#utility.yul\":1741:1750   */\n      dup6\n        /* \"#utility.yul\":1737:1755   */\n      add\n        /* \"#utility.yul\":1718:1756   */\n      tag_389\n      jump\t// in\n    tag_408:\n        /* \"#utility.yul\":1485:1859   */\n      swap3\n      swap6\n        /* \"#utility.yul\":1708:1756   */\n      swap3\n      swap5\n      pop\n      pop\n      pop\n        /* \"#utility.yul\":1825:1827   */\n      0x40\n        /* \"#utility.yul\":1810:1828   */\n      swap2\n      swap1\n      swap2\n      add\n        /* \"#utility.yul\":1797:1829   */\n      calldataload\n      swap1\n        /* \"#utility.yul\":1485:1859   */\n      jump\t// out\n        /* \"#utility.yul\":2053:2279   */\n    tag_117:\n        /* \"#utility.yul\":2112:2118   */\n      0x00\n        /* \"#utility.yul\":2165:2167   */\n      0x20\n        /* \"#utility.yul\":2153:2162   */\n      dup3\n        /* \"#utility.yul\":2144:2151   */\n      dup5\n        /* \"#utility.yul\":2140:2163   */\n      sub\n        /* \"#utility.yul\":2136:2168   */\n      slt\n        /* \"#utility.yul\":2133:2185   */\n      iszero\n      tag_411\n      jumpi\n        /* \"#utility.yul\":2181:2182   */\n      0x00\n        /* \"#utility.yul\":2178:2179   */\n      dup1\n        /* \"#utility.yul\":2171:2183   */\n      revert\n        /* \"#utility.yul\":2133:2185   */\n    tag_411:\n      pop\n        /* \"#utility.yul\":2226:2249   */\n      calldataload\n      swap2\n        /* \"#utility.yul\":2053:2279   */\n      swap1\n      pop\n      jump\t// out\n        /* \"#utility.yul\":2492:2752   */\n    tag_181:\n        /* \"#utility.yul\":2560:2566   */\n      0x00\n        /* \"#utility.yul\":2568:2574   */\n      dup1\n        /* \"#utility.yul\":2621:2623   */\n      0x40\n        /* \"#utility.yul\":2609:2618   */\n      dup4\n        /* \"#utility.yul\":2600:2607   */\n      dup6\n        /* \"#utility.yul\":2596:2619   */\n      sub\n        /* \"#utility.yul\":2592:2624   */\n      slt\n        /* \"#utility.yul\":2589:2641   */\n      iszero\n      tag_414\n      jumpi\n        /* \"#utility.yul\":2637:2638   */\n      0x00\n        /* \"#utility.yul\":2634:2635   */\n      dup1\n        /* \"#utility.yul\":2627:2639   */\n      revert\n        /* \"#utility.yul\":2589:2641   */\n    tag_414:\n        /* \"#utility.yul\":2660:2689   */\n      tag_415\n        /* \"#utility.yul\":2679:2688   */\n      dup4\n        /* \"#utility.yul\":2660:2689   */\n      tag_389\n      jump\t// in\n    tag_415:\n        /* \"#utility.yul\":2650:2689   */\n      swap2\n      pop\n        /* \"#utility.yul\":2708:2746   */\n      tag_416\n        /* \"#utility.yul\":2742:2744   */\n      0x20\n        /* \"#utility.yul\":2731:2740   */\n      dup5\n        /* \"#utility.yul\":2727:2745   */\n      add\n        /* \"#utility.yul\":2708:2746   */\n      tag_389\n      jump\t// in\n    tag_416:\n        /* \"#utility.yul\":2698:2746   */\n      swap1\n      pop\n        /* \"#utility.yul\":2492:2752   */\n      swap3\n      pop\n      swap3\n      swap1\n      pop\n      jump\t// out\n        /* \"#utility.yul\":2757:3103   */\n    tag_200:\n        /* \"#utility.yul\":2825:2831   */\n      0x00\n        /* \"#utility.yul\":2833:2839   */\n      dup1\n        /* \"#utility.yul\":2886:2888   */\n      0x40\n        /* \"#utility.yul\":2874:2883   */\n      dup4\n        /* \"#utility.yul\":2865:2872   */\n      dup6\n        /* \"#utility.yul\":2861:2884   */\n      sub\n        /* \"#utility.yul\":2857:2889   */\n      slt\n        /* \"#utility.yul\":2854:2906   */\n      iszero\n      tag_418\n      jumpi\n        /* \"#utility.yul\":2902:2903   */\n      0x00\n        /* \"#utility.yul\":2899:2900   */\n      dup1\n        /* \"#utility.yul\":2892:2904   */\n      revert\n        /* \"#utility.yul\":2854:2906   */\n    tag_418:\n      pop\n      pop\n        /* \"#utility.yul\":2947:2970   */\n      dup1\n      calldataload\n      swap3\n        /* \"#utility.yul\":3067:3069   */\n      0x20\n        /* \"#utility.yul\":3052:3070   */\n      swap1\n      swap2\n      add\n        /* \"#utility.yul\":3039:3071   */\n      calldataload\n      swap2\n      pop\n        /* \"#utility.yul\":2757:3103   */\n      jump\t// out\n        /* \"#utility.yul\":3108:3488   */\n    tag_204:\n        /* \"#utility.yul\":3187:3188   */\n      0x01\n        /* \"#utility.yul\":3183:3195   */\n      dup2\n      dup2\n      shr\n      swap1\n        /* \"#utility.yul\":3230:3242   */\n      dup3\n      and\n      dup1\n        /* \"#utility.yul\":3251:3312   */\n      tag_420\n      jumpi\n        /* \"#utility.yul\":3305:3309   */\n      0x7f\n        /* \"#utility.yul\":3297:3303   */\n      dup3\n        /* \"#utility.yul\":3293:3310   */\n      and\n        /* \"#utility.yul\":3283:3310   */\n      swap2\n      pop\n        /* \"#utility.yul\":3251:3312   */\n    tag_420:\n        /* \"#utility.yul\":3358:3360   */\n      0x20\n        /* \"#utility.yul\":3350:3356   */\n      dup3\n        /* \"#utility.yul\":3347:3361   */\n      lt\n        /* \"#utility.yul\":3327:3345   */\n      dup2\n        /* \"#utility.yul\":3324:3362   */\n      sub\n        /* \"#utility.yul\":3321:3482   */\n      tag_421\n      jumpi\n        /* \"#utility.yul\":3404:3414   */\n      0x4e487b71\n        /* \"#utility.yul\":3399:3402   */\n      0xe0\n        /* \"#utility.yul\":3395:3415   */\n      shl\n        /* \"#utility.yul\":3392:3393   */\n      0x00\n        /* \"#utility.yul\":3385:3416   */\n      mstore\n        /* \"#utility.yul\":3439:3443   */\n      0x22\n        /* \"#utility.yul\":3436:3437   */\n      0x04\n        /* \"#utility.yul\":3429:3444   */\n      mstore\n        /* \"#utility.yul\":3467:3471   */\n      0x24\n        /* \"#utility.yul\":3464:3465   */\n      0x00\n        /* \"#utility.yul\":3457:3472   */\n      revert\n        /* \"#utility.yul\":3321:3482   */\n    tag_421:\n      pop\n        /* \"#utility.yul\":3108:3488   */\n      swap2\n      swap1\n      pop\n      jump\t// out\n        /* \"#utility.yul\":3493:3620   */\n    tag_390:\n        /* \"#utility.yul\":3554:3564   */\n      0x4e487b71\n        /* \"#utility.yul\":3549:3552   */\n      0xe0\n        /* \"#utility.yul\":3545:3565   */\n      shl\n        /* \"#utility.yul\":3542:3543   */\n      0x00\n        /* \"#utility.yul\":3535:3566   */\n      mstore\n        /* \"#utility.yul\":3585:3589   */\n      0x11\n        /* \"#utility.yul\":3582:3583   */\n      0x04\n        /* \"#utility.yul\":3575:3590   */\n      mstore\n        /* \"#utility.yul\":3609:3613   */\n      0x24\n        /* \"#utility.yul\":3606:3607   */\n      0x00\n        /* \"#utility.yul\":3599:3614   */\n      revert\n        /* \"#utility.yul\":3625:3753   */\n    tag_216:\n        /* \"#utility.yul\":3692:3701   */\n      dup2\n      dup2\n      sub\n        /* \"#utility.yul\":3713:3724   */\n      dup2\n      dup2\n      gt\n        /* \"#utility.yul\":3710:3747   */\n      iszero\n      tag_209\n      jumpi\n        /* \"#utility.yul\":3727:3745   */\n      tag_209\n      tag_390\n      jump\t// in\n        /* \"#utility.yul\":3758:3975   */\n    tag_218:\n        /* \"#utility.yul\":3798:3799   */\n      0x00\n        /* \"#utility.yul\":3824:3825   */\n      dup3\n        /* \"#utility.yul\":3814:3946   */\n      tag_427\n      jumpi\n        /* \"#utility.yul\":3868:3878   */\n      0x4e487b71\n        /* \"#utility.yul\":3863:3866   */\n      0xe0\n        /* \"#utility.yul\":3859:3879   */\n      shl\n        /* \"#utility.yul\":3856:3857   */\n      0x00\n        /* \"#utility.yul\":3849:3880   */\n      mstore\n        /* \"#utility.yul\":3903:3907   */\n      0x12\n        /* \"#utility.yul\":3900:3901   */\n      0x04\n        /* \"#utility.yul\":3893:3908   */\n      mstore\n        /* \"#utility.yul\":3931:3935   */\n      0x24\n        /* \"#utility.yul\":3928:3929   */\n      0x00\n        /* \"#utility.yul\":3921:3936   */\n      revert\n        /* \"#utility.yul\":3814:3946   */\n    tag_427:\n      pop\n        /* \"#utility.yul\":3960:3969   */\n      div\n      swap1\n        /* \"#utility.yul\":3758:3975   */\n      jump\t// out\n        /* \"#utility.yul\":3980:4148   */\n    tag_220:\n        /* \"#utility.yul\":4053:4062   */\n      dup1\n      dup3\n      mul\n        /* \"#utility.yul\":4084:4093   */\n      dup2\n      iszero\n        /* \"#utility.yul\":4101:4116   */\n      dup3\n      dup3\n      div\n        /* \"#utility.yul\":4095:4117   */\n      dup5\n      eq\n        /* \"#utility.yul\":4081:4118   */\n      or\n        /* \"#utility.yul\":4071:4142   */\n      tag_209\n      jumpi\n        /* \"#utility.yul\":4122:4140   */\n      tag_209\n      tag_390\n      jump\t// in\n        /* \"#utility.yul\":4905:5030   */\n    tag_248:\n        /* \"#utility.yul\":4970:4979   */\n      dup1\n      dup3\n      add\n        /* \"#utility.yul\":4991:5001   */\n      dup1\n      dup3\n      gt\n        /* \"#utility.yul\":4988:5024   */\n      iszero\n      tag_209\n      jumpi\n        /* \"#utility.yul\":5004:5022   */\n      tag_209\n      tag_390\n      jump\t// in\n        /* \"#utility.yul\":5736:6111   */\n    tag_391:\n        /* \"#utility.yul\":5824:5825   */\n      0x01\n        /* \"#utility.yul\":5842:5847   */\n      dup2\n        /* \"#utility.yul\":5856:6105   */\n    tag_439:\n        /* \"#utility.yul\":5877:5878   */\n      0x01\n        /* \"#utility.yul\":5867:5875   */\n      dup5\n        /* \"#utility.yul\":5864:5879   */\n      gt\n        /* \"#utility.yul\":5856:6105   */\n      iszero\n      tag_441\n      jumpi\n        /* \"#utility.yul\":5927:5931   */\n      dup1\n        /* \"#utility.yul\":5922:5925   */\n      dup6\n        /* \"#utility.yul\":5918:5932   */\n      div\n        /* \"#utility.yul\":5912:5916   */\n      dup2\n        /* \"#utility.yul\":5909:5933   */\n      gt\n        /* \"#utility.yul\":5906:5956   */\n      iszero\n      tag_443\n      jumpi\n        /* \"#utility.yul\":5936:5954   */\n      tag_443\n      tag_390\n      jump\t// in\n    tag_443:\n        /* \"#utility.yul\":5986:5987   */\n      0x01\n        /* \"#utility.yul\":5976:5984   */\n      dup5\n        /* \"#utility.yul\":5972:5988   */\n      and\n        /* \"#utility.yul\":5969:6018   */\n      iszero\n      tag_444\n      jumpi\n        /* \"#utility.yul\":6000:6016   */\n      swap1\n      dup2\n      mul\n      swap1\n        /* \"#utility.yul\":5969:6018   */\n    tag_444:\n        /* \"#utility.yul\":6083:6084   */\n      0x01\n        /* \"#utility.yul\":6079:6095   */\n      swap4\n      swap1\n      swap4\n      shr\n      swap3\n        /* \"#utility.yul\":6039:6054   */\n      dup1\n      mul\n        /* \"#utility.yul\":5856:6105   */\n      jump(tag_439)\n    tag_441:\n        /* \"#utility.yul\":5736:6111   */\n      swap4\n      pop\n      swap4\n      swap2\n      pop\n      pop\n      jump\t// out\n        /* \"#utility.yul\":6116:7018   */\n    tag_392:\n        /* \"#utility.yul\":6165:6170   */\n      0x00\n        /* \"#utility.yul\":6195:6203   */\n      dup3\n        /* \"#utility.yul\":6185:6265   */\n      tag_446\n      jumpi\n      pop\n        /* \"#utility.yul\":6236:6237   */\n      0x01\n        /* \"#utility.yul\":6250:6255   */\n      jump(tag_209)\n        /* \"#utility.yul\":6185:6265   */\n    tag_446:\n        /* \"#utility.yul\":6284:6288   */\n      dup2\n        /* \"#utility.yul\":6274:6350   */\n      tag_447\n      jumpi\n      pop\n        /* \"#utility.yul\":6321:6322   */\n      0x00\n        /* \"#utility.yul\":6335:6340   */\n      jump(tag_209)\n        /* \"#utility.yul\":6274:6350   */\n    tag_447:\n        /* \"#utility.yul\":6366:6370   */\n      dup2\n        /* \"#utility.yul\":6384:6385   */\n      0x01\n        /* \"#utility.yul\":6379:6438   */\n      dup2\n      eq\n      tag_449\n      jumpi\n        /* \"#utility.yul\":6452:6453   */\n      0x02\n        /* \"#utility.yul\":6447:6621   */\n      dup2\n      eq\n      tag_450\n      jumpi\n        /* \"#utility.yul\":6359:6621   */\n      jump(tag_448)\n        /* \"#utility.yul\":6379:6438   */\n    tag_449:\n        /* \"#utility.yul\":6409:6410   */\n      0x01\n        /* \"#utility.yul\":6400:6410   */\n      swap2\n      pop\n        /* \"#utility.yul\":6423:6428   */\n      pop\n      jump(tag_209)\n        /* \"#utility.yul\":6447:6621   */\n    tag_450:\n        /* \"#utility.yul\":6484:6487   */\n      0xff\n        /* \"#utility.yul\":6474:6482   */\n      dup5\n        /* \"#utility.yul\":6471:6488   */\n      gt\n        /* \"#utility.yul\":6468:6511   */\n      iszero\n      tag_452\n      jumpi\n        /* \"#utility.yul\":6491:6509   */\n      tag_452\n      tag_390\n      jump\t// in\n    tag_452:\n      pop\n      pop\n        /* \"#utility.yul\":6547:6548   */\n      0x01\n        /* \"#utility.yul\":6533:6549   */\n      dup3\n      shl\n        /* \"#utility.yul\":6606:6611   */\n      jump(tag_209)\n        /* \"#utility.yul\":6359:6621   */\n    tag_448:\n      pop\n        /* \"#utility.yul\":6705:6707   */\n      0x20\n        /* \"#utility.yul\":6695:6703   */\n      dup4\n        /* \"#utility.yul\":6692:6708   */\n      lt\n        /* \"#utility.yul\":6686:6689   */\n      0x0133\n        /* \"#utility.yul\":6680:6684   */\n      dup4\n        /* \"#utility.yul\":6677:6690   */\n      lt\n        /* \"#utility.yul\":6673:6709   */\n      and\n        /* \"#utility.yul\":6667:6669   */\n      0x4e\n        /* \"#utility.yul\":6657:6665   */\n      dup5\n        /* \"#utility.yul\":6654:6670   */\n      lt\n        /* \"#utility.yul\":6649:6651   */\n      0x0b\n        /* \"#utility.yul\":6643:6647   */\n      dup5\n        /* \"#utility.yul\":6640:6652   */\n      lt\n        /* \"#utility.yul\":6636:6671   */\n      and\n        /* \"#utility.yul\":6633:6710   */\n      or\n        /* \"#utility.yul\":6630:6833   */\n      iszero\n      tag_453\n      jumpi\n      pop\n        /* \"#utility.yul\":6742:6761   */\n      dup2\n      dup2\n      exp\n        /* \"#utility.yul\":6818:6823   */\n      jump(tag_209)\n        /* \"#utility.yul\":6630:6833   */\n    tag_453:\n        /* \"#utility.yul\":6865:6907   */\n      tag_454\n      not(0x00)\n        /* \"#utility.yul\":6890:6898   */\n      dup5\n        /* \"#utility.yul\":6884:6888   */\n      dup5\n        /* \"#utility.yul\":6865:6907   */\n      tag_391\n      jump\t// in\n    tag_454:\n        /* \"#utility.yul\":6943:6949   */\n      dup1\n        /* \"#utility.yul\":6939:6940   */\n      0x00\n        /* \"#utility.yul\":6935:6941   */\n      not\n        /* \"#utility.yul\":6931:6950   */\n      div\n        /* \"#utility.yul\":6922:6929   */\n      dup3\n        /* \"#utility.yul\":6919:6951   */\n      gt\n        /* \"#utility.yul\":6916:6974   */\n      iszero\n      tag_456\n      jumpi\n        /* \"#utility.yul\":6954:6972   */\n      tag_456\n      tag_390\n      jump\t// in\n    tag_456:\n        /* \"#utility.yul\":6992:7012   */\n      mul\n      swap4\n        /* \"#utility.yul\":6116:7018   */\n      swap3\n      pop\n      pop\n      pop\n      jump\t// out\n        /* \"#utility.yul\":7023:7163   */\n    tag_264:\n        /* \"#utility.yul\":7081:7086   */\n      0x00\n        /* \"#utility.yul\":7110:7157   */\n      tag_222\n        /* \"#utility.yul\":7151:7155   */\n      0xff\n        /* \"#utility.yul\":7141:7149   */\n      dup5\n        /* \"#utility.yul\":7137:7156   */\n      and\n        /* \"#utility.yul\":7131:7135   */\n      dup4\n        /* \"#utility.yul\":7110:7157   */\n      tag_392\n      jump\t// in\n        /* \"#utility.yul\":9523:9654   */\n    tag_310:\n        /* \"#utility.yul\":9583:9588   */\n      0x00\n        /* \"#utility.yul\":9612:9648   */\n      tag_222\n        /* \"#utility.yul\":9639:9647   */\n      dup4\n        /* \"#utility.yul\":9633:9637   */\n      dup4\n        /* \"#utility.yul\":9612:9648   */\n      tag_392\n      jump\t// in\n\n    auxdata: 0xa2646970667358221220934754968edc707e4b911e06fbe7b31fccbf6781ba1af40e599e46f8d48c1b6b64736f6c634300081a0033\n}\n",
				"bytecode": {
					"linkReferences": {},
					"object": "608060405234801561000f575f80fd5b50604051611c30380380611c3083398101604081905261002e916102ba565b856040518060400160405280600b81526020016a2730ba3ab932aa37b5b2b760a91b81525060405180604001604052806003815260200162272a2960e91b815250816003908161007e91906103ac565b50600461008b82826103ac565b5050506001600160a01b0381166100bc57604051631e4fbdf760e01b81525f60048201526024015b60405180910390fd5b6100c58161010b565b506100e5306100d66012600a61055f565b6100e09088610574565b61015c565b600893909355600a91909155600955600d5550506005805460ff60a01b1916905561059e565b600580546001600160a01b038381166001600160a01b0319831681179093556040519116919082907f8be0079c531659141344cd1fd0a4f28419497f9722a3daafe3b4186f6b6457e0905f90a35050565b6001600160a01b0382166101855760405163ec442f0560e01b81525f60048201526024016100b3565b6101905f8383610194565b5050565b6001600160a01b0383166101be578060025f8282546101b3919061058b565b9091555061022e9050565b6001600160a01b0383165f90815260208190526040902054818110156102105760405163391434e360e21b81526001600160a01b038516600482015260248101829052604481018390526064016100b3565b6001600160a01b0384165f9081526020819052604090209082900390555b6001600160a01b03821661024a57600280548290039055610268565b6001600160a01b0382165f9081526020819052604090208054820190555b816001600160a01b0316836001600160a01b03167fddf252ad1be2c89b69c2b068fc378daa952ba7f163c4a11628f55a4df523b3ef836040516102ad91815260200190565b60405180910390a3505050565b5f805f805f8060c087890312156102cf575f80fd5b86516001600160a01b03811681146102e5575f80fd5b6020880151604089015160608a015160808b015160a0909b0151939c929b509099909850965090945092505050565b634e487b7160e01b5f52604160045260245ffd5b600181811c9082168061033c57607f821691505b60208210810361035a57634e487b7160e01b5f52602260045260245ffd5b50919050565b601f8211156103a757805f5260205f20601f840160051c810160208510156103855750805b601f840160051c820191505b818110156103a4575f8155600101610391565b50505b505050565b81516001600160401b038111156103c5576103c5610314565b6103d9816103d38454610328565b84610360565b6020601f82116001811461040b575f83156103f45750848201515b5f19600385901b1c1916600184901b1784556103a4565b5f84815260208120601f198516915b8281101561043a578785015182556020948501946001909201910161041a565b508482101561045757868401515f19600387901b60f8161c191681555b50505050600190811b01905550565b634e487b7160e01b5f52601160045260245ffd5b6001815b60018411156104b55780850481111561049957610499610466565b60018416156104a757908102905b60019390931c92800261047e565b935093915050565b5f826104cb57506001610559565b816104d757505f610559565b81600181146104ed57600281146104f757610513565b6001915050610559565b60ff84111561050857610508610466565b50506001821b610559565b5060208310610133831016604e8410600b8410161715610536575081810a610559565b6105425f19848461047a565b805f190482111561055557610555610466565b0290505b92915050565b5f61056d60ff8416836104bd565b9392505050565b808202811582820484141761055957610559610466565b8082018082111561055957610559610466565b611685806105ab5f395ff3fe6080604052600436106101fc575f3560e01c80638265324d11610113578063cce29ea71161009d578063dd62ed3e1161006d578063dd62ed3e1461058a578063f2fde38b146105ce578063f8102e68146105ed578063f993185514610602578063f9a81af71461062d575f80fd5b8063cce29ea71461052e578063cec297a014610543578063d0febe4c1461056e578063d348b40914610576575f80fd5b80639b19251a116100e35780639b19251a1461047a5780639ca423b3146104a8578063a09c4cf4146104dc578063a5ce413b146104fb578063a9059cbb1461050f575f80fd5b80638265324d146103eb5780638da5cb5b1461040a5780638f0794fe1461043b57806395d89b4114610466575f80fd5b806330f72cd41161019457806370a082311161016457806370a0823114610359578063715018a61461038d5780637165d19b146103a35780637547c7a3146103b85780637c613b2f146103d7575f80fd5b806330f72cd4146102f4578063313ce567146103145780634f3fc2df1461032f578063518ab2a814610344575f80fd5b80630d505541116101cf5780630d5055411461028d57806318160ddd146102ac5780631d0806ae146102c057806323b872dd146102d5575f80fd5b806303e293a31461020057806306d65af31461022857806306fdde031461023d578063095ea7b31461025e575b5f80fd5b34801561020b575f80fd5b5061021560095481565b6040519081526020015b60405180910390f35b348015610233575f80fd5b5061021560065481565b348015610248575f80fd5b5061025161064c565b60405161021f9190611378565b348015610269575f80fd5b5061027d6102783660046113c8565b6106dc565b604051901515815260200161021f565b348015610298575f80fd5b506102156102a73660046113f0565b6106f5565b3480156102b7575f80fd5b50600254610215565b3480156102cb575f80fd5b5061021560085481565b3480156102e0575f80fd5b5061027d6102ef366004611409565b61076f565b3480156102ff575f80fd5b5060055461027d90600160a01b900460ff1681565b34801561031f575f80fd5b506040516012815260200161021f565b34801561033a575f80fd5b50610215600d5481565b34801561034f575f80fd5b50610215600b5481565b348015610364575f80fd5b506102156103733660046113f0565b6001600160a01b03165f9081526020819052604090205490565b348015610398575f80fd5b506103a1610792565b005b3480156103ae575f80fd5b50610215600a5481565b3480156103c3575f80fd5b506103a16103d2366004611443565b6107a5565b3480156103e2575f80fd5b506103a16108d5565b3480156103f6575f80fd5b506102156104053660046113f0565b6109d2565b348015610415575f80fd5b506005546001600160a01b03165b6040516001600160a01b03909116815260200161021f565b348015610446575f80fd5b506102156104553660046113f0565b600f6020525f908152604090205481565b348015610471575f80fd5b50610251610a0d565b348015610485575f80fd5b5061027d6104943660046113f0565b60106020525f908152604090205460ff1681565b3480156104b3575f80fd5b506104236104c23660046113f0565b60116020525f90815260409020546001600160a01b031681565b3480156104e7575f80fd5b506103a16104f63660046113f0565b610a1c565b348015610506575f80fd5b506103a1610b93565b34801561051a575f80fd5b5061027d6105293660046113c8565b610ccb565b348015610539575f80fd5b5061021560075481565b34801561054e575f80fd5b5061021561055d3660046113f0565b60126020525f908152604090205481565b6103a1610cd8565b348015610581575f80fd5b50610215610e56565b348015610595575f80fd5b506102156105a436600461145a565b6001600160a01b039182165f90815260016020908152604080832093909416825291909152205490565b3480156105d9575f80fd5b506103a16105e83660046113f0565b610f19565b3480156105f8575f80fd5b50610215600c5481565b34801561060d575f80fd5b5061021561061c3660046113f0565b600e6020525f908152604090205481565b348015610638575f80fd5b506103a161064736600461148b565b610f56565b60606003805461065b906114ab565b80601f0160208091040260200160405190810160405280929190818152602001828054610687906114ab565b80156106d25780601f106106a9576101008083540402835291602001916106d2565b820191905f5260205f20905b8154815290600101906020018083116106b557829003601f168201915b5050505050905090565b5f336106e9818585610fdf565b60019150505b92915050565b6001600160a01b0381165f908152600f6020526040812054819062093a809061071e90426114f7565b610728919061150a565b600d546001600160a01b0385165f908152600e6020526040902054919250606491839161075491611529565b61075e9190611529565b610768919061150a565b9392505050565b5f3361077c858285610ff1565b61078785858561106d565b506001949350505050565b61079a6110ca565b6107a35f6110f7565b565b5f81116108035760405162461bcd60e51b815260206004820152602160248201527f416d6f756e74206d7573742062652067726561746572207468616e207a65726f6044820152601760f91b60648201526084015b60405180910390fd5b335f908152602081905260409020548111156108595760405162461bcd60e51b815260206004820152601560248201527424b739bab33334b1b4b2b73a103130b630b731b29760591b60448201526064016107fa565b61086433308361106d565b335f908152600e602052604081208054839290610882908490611540565b9091555050335f818152600f602052604090819020429055517fb539ca1e5c8d398ddf1c41c30166f33404941683be4683319b57669a93dad4ef906108ca9084815260200190565b60405180910390a250565b600554600160a01b900460ff1615156001146109335760405162461bcd60e51b815260206004820152601760248201527f50726573616c65206e6f7420737461727465642079657400000000000000000060448201526064016107fa565b5f61093d336109d2565b90505f81116109855760405162461bcd60e51b81526020600482015260146024820152734e6f207265776172647320617661696c61626c6560601b60448201526064016107fa565b61098f3382611148565b335f8181526012602052604080822091909155517ff0bc0a70fe19ef2d8dc1e1948b338a1184184fb1ea3ac836f24065828816d68d906108ca9084815260200190565b5f6109df6012600a611636565b6001600160a01b0383165f90815260126020526040902054610a03906101f4611529565b6106ef9190611529565b60606004805461065b906114ab565b335f9081526010602052604090205460ff1615610a715760405162461bcd60e51b8152602060048201526013602482015272105b1c9958591e481dda1a5d195b1a5cdd1959606a1b60448201526064016107fa565b6001600160a01b0381163303610ac15760405162461bcd60e51b815260206004820152601560248201527421b0b73737ba103932b332b9103cb7bab939b2b63360591b60448201526064016107fa565b335f908152601060205260409020805460ff191660011790556001600160a01b03811615801590610b0957506001600160a01b0381165f9081526010602052604090205460ff165b15610b5b57335f90815260116020908152604080832080546001600160a01b0319166001600160a01b038616908117909155835260129091528120805460019290610b55908490611540565b90915550505b6040516001600160a01b0382169033907f4bc18aa4b0095c9a3b5cdf42d2322d5a145591b04045988a995a5da426075457905f90a350565b335f908152600e602052604090205480610be35760405162461bcd60e51b81526020600482015260116024820152702737903a37b5b2b7399039ba30b5b2b21760791b60448201526064016107fa565b335f908152600f6020526040902054610bff906224ea00611540565b421015610c4e5760405162461bcd60e51b815260206004820152601b60248201527f556e7374616b65206f6e6c792061667465722034207765656b732e000000000060448201526064016107fa565b5f610c58336106f5565b335f818152600e60209081526040808320839055600f909152812055909150610c8c903090610c878486611540565b61106d565b604080518381526020810183905233917f6f2d3e000c89d37446b7c0374c0125068ff316d1e3ee302336478a8cd03c2336910160405180910390a25050565b5f336106e981858561106d565b600654421015610d1d5760405162461bcd60e51b815260206004820152601060248201526f29b0b632903737ba1030b1ba34bb329760811b60448201526064016107fa565b5f3411610d6c5760405162461bcd60e51b815260206004820152601c60248201527f4d7573742073656e642045544820746f2062757920746f6b656e732e0000000060448201526064016107fa565b5f610d75610e56565b90505f81610d856012600a611644565b610d8f9034611529565b610d99919061150a565b305f90815260208190526040902054909150811115610dfa5760405162461bcd60e51b815260206004820152601c60248201527f4e6f7420656e6f75676820746f6b656e7320617661696c61626c652e0000000060448201526064016107fa565b610e0530338361106d565b80600b5f828254610e169190611540565b9091555050604051818152339030907fddf252ad1be2c89b69c2b068fc378daa952ba7f163c4a11628f55a4df523b3ef9060200160405180910390a35050565b5f426006541015610ea95760405162461bcd60e51b815260206004820152601860248201527f5072652d73616c65206e6f74207374617274656420796574000000000000000060448201526064016107fa565b600754421115610eba575060095490565b5f62093a8060065442610ecd91906114f7565b610ed7919061150a565b90505f600c5482600854600954610eee91906114f7565b610ef89190611529565b610f02919061150a565b905080600854610f129190611540565b9250505090565b610f216110ca565b6001600160a01b038116610f4a57604051631e4fbdf760e01b81525f60048201526024016107fa565b610f53816110f7565b50565b610f5e6110ca565b6006829055610f708162093a80611529565b600654610f7d9190611540565b6007819055600c8290556005805460ff60a01b1916600160a01b1790556006546040517f3844853be672b18d859394aa37e05615b95b78e66b4dc37dca98d1db1b05ea7d92610fd3928252602082015260400190565b60405180910390a15050565b610fec8383836001611180565b505050565b6001600160a01b038381165f908152600160209081526040808320938616835292905220545f19811015611067578181101561105957604051637dc7a0d960e11b81526001600160a01b038416600482015260248101829052604481018390526064016107fa565b61106784848484035f611180565b50505050565b6001600160a01b03831661109657604051634b637e8f60e11b81525f60048201526024016107fa565b6001600160a01b0382166110bf5760405163ec442f0560e01b81525f60048201526024016107fa565b610fec838383611252565b6005546001600160a01b031633146107a35760405163118cdaa760e01b81523360048201526024016107fa565b600580546001600160a01b038381166001600160a01b0319831681179093556040519116919082907f8be0079c531659141344cd1fd0a4f28419497f9722a3daafe3b4186f6b6457e0905f90a35050565b6001600160a01b0382166111715760405163ec442f0560e01b81525f60048201526024016107fa565b61117c5f8383611252565b5050565b6001600160a01b0384166111a95760405163e602df0560e01b81525f60048201526024016107fa565b6001600160a01b0383166111d257604051634a1406b160e11b81525f60048201526024016107fa565b6001600160a01b038085165f908152600160209081526040808320938716835292905220829055801561106757826001600160a01b0316846001600160a01b03167f8c5be1e5ebec7d5bd14f71427d1e84f3dd0314c0f7b2291e5b200ac8c7c3b9258460405161124491815260200190565b60405180910390a350505050565b6001600160a01b03831661127c578060025f8282546112719190611540565b909155506112ec9050565b6001600160a01b0383165f90815260208190526040902054818110156112ce5760405163391434e360e21b81526001600160a01b038516600482015260248101829052604481018390526064016107fa565b6001600160a01b0384165f9081526020819052604090209082900390555b6001600160a01b03821661130857600280548290039055611326565b6001600160a01b0382165f9081526020819052604090208054820190555b816001600160a01b0316836001600160a01b03167fddf252ad1be2c89b69c2b068fc378daa952ba7f163c4a11628f55a4df523b3ef8360405161136b91815260200190565b60405180910390a3505050565b602081525f82518060208401528060208501604085015e5f604082850101526040601f19601f83011684010191505092915050565b80356001600160a01b03811681146113c3575f80fd5b919050565b5f80604083850312156113d9575f80fd5b6113e2836113ad565b946020939093013593505050565b5f60208284031215611400575f80fd5b610768826113ad565b5f805f6060848603121561141b575f80fd5b611424846113ad565b9250611432602085016113ad565b929592945050506040919091013590565b5f60208284031215611453575f80fd5b5035919050565b5f806040838503121561146b575f80fd5b611474836113ad565b9150611482602084016113ad565b90509250929050565b5f806040838503121561149c575f80fd5b50508035926020909101359150565b600181811c908216806114bf57607f821691505b6020821081036114dd57634e487b7160e01b5f52602260045260245ffd5b50919050565b634e487b7160e01b5f52601160045260245ffd5b818103818111156106ef576106ef6114e3565b5f8261152457634e487b7160e01b5f52601260045260245ffd5b500490565b80820281158282048414176106ef576106ef6114e3565b808201808211156106ef576106ef6114e3565b6001815b600184111561158e57808504811115611572576115726114e3565b600184161561158057908102905b60019390931c928002611557565b935093915050565b5f826115a4575060016106ef565b816115b057505f6106ef565b81600181146115c657600281146115d0576115ec565b60019150506106ef565b60ff8411156115e1576115e16114e3565b50506001821b6106ef565b5060208310610133831016604e8410600b841016171561160f575081810a6106ef565b61161b5f198484611553565b805f190482111561162e5761162e6114e3565b029392505050565b5f61076860ff841683611596565b5f610768838361159656fea2646970667358221220934754968edc707e4b911e06fbe7b31fccbf6781ba1af40e599e46f8d48c1b6b64736f6c634300081a0033",
					"opcodes": "PUSH1 0x80 PUSH1 0x40 MSTORE CALLVALUE DUP1 ISZERO PUSH2 0xF JUMPI PUSH0 DUP1 REVERT JUMPDEST POP PUSH1 0x40 MLOAD PUSH2 0x1C30 CODESIZE SUB DUP1 PUSH2 0x1C30 DUP4 CODECOPY DUP2 ADD PUSH1 0x40 DUP2 SWAP1 MSTORE PUSH2 0x2E SWAP2 PUSH2 0x2BA JUMP JUMPDEST DUP6 PUSH1 0x40 MLOAD DUP1 PUSH1 0x40 ADD PUSH1 0x40 MSTORE DUP1 PUSH1 0xB DUP2 MSTORE PUSH1 0x20 ADD PUSH11 0x2730BA3AB932AA37B5B2B7 PUSH1 0xA9 SHL DUP2 MSTORE POP PUSH1 0x40 MLOAD DUP1 PUSH1 0x40 ADD PUSH1 0x40 MSTORE DUP1 PUSH1 0x3 DUP2 MSTORE PUSH1 0x20 ADD PUSH3 0x272A29 PUSH1 0xE9 SHL DUP2 MSTORE POP DUP2 PUSH1 0x3 SWAP1 DUP2 PUSH2 0x7E SWAP2 SWAP1 PUSH2 0x3AC JUMP JUMPDEST POP PUSH1 0x4 PUSH2 0x8B DUP3 DUP3 PUSH2 0x3AC JUMP JUMPDEST POP POP POP PUSH1 0x1 PUSH1 0x1 PUSH1 0xA0 SHL SUB DUP2 AND PUSH2 0xBC JUMPI PUSH1 0x40 MLOAD PUSH4 0x1E4FBDF7 PUSH1 0xE0 SHL DUP2 MSTORE PUSH0 PUSH1 0x4 DUP3 ADD MSTORE PUSH1 0x24 ADD JUMPDEST PUSH1 0x40 MLOAD DUP1 SWAP2 SUB SWAP1 REVERT JUMPDEST PUSH2 0xC5 DUP2 PUSH2 0x10B JUMP JUMPDEST POP PUSH2 0xE5 ADDRESS PUSH2 0xD6 PUSH1 0x12 PUSH1 0xA PUSH2 0x55F JUMP JUMPDEST PUSH2 0xE0 SWAP1 DUP9 PUSH2 0x574 JUMP JUMPDEST PUSH2 0x15C JUMP JUMPDEST PUSH1 0x8 SWAP4 SWAP1 SWAP4 SSTORE PUSH1 0xA SWAP2 SWAP1 SWAP2 SSTORE PUSH1 0x9 SSTORE PUSH1 0xD SSTORE POP POP PUSH1 0x5 DUP1 SLOAD PUSH1 0xFF PUSH1 0xA0 SHL NOT AND SWAP1 SSTORE PUSH2 0x59E JUMP JUMPDEST PUSH1 0x5 DUP1 SLOAD PUSH1 0x1 PUSH1 0x1 PUSH1 0xA0 SHL SUB DUP4 DUP2 AND PUSH1 0x1 PUSH1 0x1 PUSH1 0xA0 SHL SUB NOT DUP4 AND DUP2 OR SWAP1 SWAP4 SSTORE PUSH1 0x40 MLOAD SWAP2 AND SWAP2 SWAP1 DUP3 SWAP1 PUSH32 0x8BE0079C531659141344CD1FD0A4F28419497F9722A3DAAFE3B4186F6B6457E0 SWAP1 PUSH0 SWAP1 LOG3 POP POP JUMP JUMPDEST PUSH1 0x1 PUSH1 0x1 PUSH1 0xA0 SHL SUB DUP3 AND PUSH2 0x185 JUMPI PUSH1 0x40 MLOAD PUSH4 0xEC442F05 PUSH1 0xE0 SHL DUP2 MSTORE PUSH0 PUSH1 0x4 DUP3 ADD MSTORE PUSH1 0x24 ADD PUSH2 0xB3 JUMP JUMPDEST PUSH2 0x190 PUSH0 DUP4 DUP4 PUSH2 0x194 JUMP JUMPDEST POP POP JUMP JUMPDEST PUSH1 0x1 PUSH1 0x1 PUSH1 0xA0 SHL SUB DUP4 AND PUSH2 0x1BE JUMPI DUP1 PUSH1 0x2 PUSH0 DUP3 DUP3 SLOAD PUSH2 0x1B3 SWAP2 SWAP1 PUSH2 0x58B JUMP JUMPDEST SWAP1 SWAP2 SSTORE POP PUSH2 0x22E SWAP1 POP JUMP JUMPDEST PUSH1 0x1 PUSH1 0x1 PUSH1 0xA0 SHL SUB DUP4 AND PUSH0 SWAP1 DUP2 MSTORE PUSH1 0x20 DUP2 SWAP1 MSTORE PUSH1 0x40 SWAP1 KECCAK256 SLOAD DUP2 DUP2 LT ISZERO PUSH2 0x210 JUMPI PUSH1 0x40 MLOAD PUSH4 0x391434E3 PUSH1 0xE2 SHL DUP2 MSTORE PUSH1 0x1 PUSH1 0x1 PUSH1 0xA0 SHL SUB DUP6 AND PUSH1 0x4 DUP3 ADD MSTORE PUSH1 0x24 DUP2 ADD DUP3 SWAP1 MSTORE PUSH1 0x44 DUP2 ADD DUP4 SWAP1 MSTORE PUSH1 0x64 ADD PUSH2 0xB3 JUMP JUMPDEST PUSH1 0x1 PUSH1 0x1 PUSH1 0xA0 SHL SUB DUP5 AND PUSH0 SWAP1 DUP2 MSTORE PUSH1 0x20 DUP2 SWAP1 MSTORE PUSH1 0x40 SWAP1 KECCAK256 SWAP1 DUP3 SWAP1 SUB SWAP1 SSTORE JUMPDEST PUSH1 0x1 PUSH1 0x1 PUSH1 0xA0 SHL SUB DUP3 AND PUSH2 0x24A JUMPI PUSH1 0x2 DUP1 SLOAD DUP3 SWAP1 SUB SWAP1 SSTORE PUSH2 0x268 JUMP JUMPDEST PUSH1 0x1 PUSH1 0x1 PUSH1 0xA0 SHL SUB DUP3 AND PUSH0 SWAP1 DUP2 MSTORE PUSH1 0x20 DUP2 SWAP1 MSTORE PUSH1 0x40 SWAP1 KECCAK256 DUP1 SLOAD DUP3 ADD SWAP1 SSTORE JUMPDEST DUP2 PUSH1 0x1 PUSH1 0x1 PUSH1 0xA0 SHL SUB AND DUP4 PUSH1 0x1 PUSH1 0x1 PUSH1 0xA0 SHL SUB AND PUSH32 0xDDF252AD1BE2C89B69C2B068FC378DAA952BA7F163C4A11628F55A4DF523B3EF DUP4 PUSH1 0x40 MLOAD PUSH2 0x2AD SWAP2 DUP2 MSTORE PUSH1 0x20 ADD SWAP1 JUMP JUMPDEST PUSH1 0x40 MLOAD DUP1 SWAP2 SUB SWAP1 LOG3 POP POP POP JUMP JUMPDEST PUSH0 DUP1 PUSH0 DUP1 PUSH0 DUP1 PUSH1 0xC0 DUP8 DUP10 SUB SLT ISZERO PUSH2 0x2CF JUMPI PUSH0 DUP1 REVERT JUMPDEST DUP7 MLOAD PUSH1 0x1 PUSH1 0x1 PUSH1 0xA0 SHL SUB DUP2 AND DUP2 EQ PUSH2 0x2E5 JUMPI PUSH0 DUP1 REVERT JUMPDEST PUSH1 0x20 DUP9 ADD MLOAD PUSH1 0x40 DUP10 ADD MLOAD PUSH1 0x60 DUP11 ADD MLOAD PUSH1 0x80 DUP12 ADD MLOAD PUSH1 0xA0 SWAP1 SWAP12 ADD MLOAD SWAP4 SWAP13 SWAP3 SWAP12 POP SWAP1 SWAP10 SWAP1 SWAP9 POP SWAP7 POP SWAP1 SWAP5 POP SWAP3 POP POP POP JUMP JUMPDEST PUSH4 0x4E487B71 PUSH1 0xE0 SHL PUSH0 MSTORE PUSH1 0x41 PUSH1 0x4 MSTORE PUSH1 0x24 PUSH0 REVERT JUMPDEST PUSH1 0x1 DUP2 DUP2 SHR SWAP1 DUP3 AND DUP1 PUSH2 0x33C JUMPI PUSH1 0x7F DUP3 AND SWAP2 POP JUMPDEST PUSH1 0x20 DUP3 LT DUP2 SUB PUSH2 0x35A JUMPI PUSH4 0x4E487B71 PUSH1 0xE0 SHL PUSH0 MSTORE PUSH1 0x22 PUSH1 0x4 MSTORE PUSH1 0x24 PUSH0 REVERT JUMPDEST POP SWAP2 SWAP1 POP JUMP JUMPDEST PUSH1 0x1F DUP3 GT ISZERO PUSH2 0x3A7 JUMPI DUP1 PUSH0 MSTORE PUSH1 0x20 PUSH0 KECCAK256 PUSH1 0x1F DUP5 ADD PUSH1 0x5 SHR DUP2 ADD PUSH1 0x20 DUP6 LT ISZERO PUSH2 0x385 JUMPI POP DUP1 JUMPDEST PUSH1 0x1F DUP5 ADD PUSH1 0x5 SHR DUP3 ADD SWAP2 POP JUMPDEST DUP2 DUP2 LT ISZERO PUSH2 0x3A4 JUMPI PUSH0 DUP2 SSTORE PUSH1 0x1 ADD PUSH2 0x391 JUMP JUMPDEST POP POP JUMPDEST POP POP POP JUMP JUMPDEST DUP2 MLOAD PUSH1 0x1 PUSH1 0x1 PUSH1 0x40 SHL SUB DUP2 GT ISZERO PUSH2 0x3C5 JUMPI PUSH2 0x3C5 PUSH2 0x314 JUMP JUMPDEST PUSH2 0x3D9 DUP2 PUSH2 0x3D3 DUP5 SLOAD PUSH2 0x328 JUMP JUMPDEST DUP5 PUSH2 0x360 JUMP JUMPDEST PUSH1 0x20 PUSH1 0x1F DUP3 GT PUSH1 0x1 DUP2 EQ PUSH2 0x40B JUMPI PUSH0 DUP4 ISZERO PUSH2 0x3F4 JUMPI POP DUP5 DUP3 ADD MLOAD JUMPDEST PUSH0 NOT PUSH1 0x3 DUP6 SWAP1 SHL SHR NOT AND PUSH1 0x1 DUP5 SWAP1 SHL OR DUP5 SSTORE PUSH2 0x3A4 JUMP JUMPDEST PUSH0 DUP5 DUP2 MSTORE PUSH1 0x20 DUP2 KECCAK256 PUSH1 0x1F NOT DUP6 AND SWAP2 JUMPDEST DUP3 DUP2 LT ISZERO PUSH2 0x43A JUMPI DUP8 DUP6 ADD MLOAD DUP3 SSTORE PUSH1 0x20 SWAP5 DUP6 ADD SWAP5 PUSH1 0x1 SWAP1 SWAP3 ADD SWAP2 ADD PUSH2 0x41A JUMP JUMPDEST POP DUP5 DUP3 LT ISZERO PUSH2 0x457 JUMPI DUP7 DUP5 ADD MLOAD PUSH0 NOT PUSH1 0x3 DUP8 SWAP1 SHL PUSH1 0xF8 AND SHR NOT AND DUP2 SSTORE JUMPDEST POP POP POP POP PUSH1 0x1 SWAP1 DUP2 SHL ADD SWAP1 SSTORE POP JUMP JUMPDEST PUSH4 0x4E487B71 PUSH1 0xE0 SHL PUSH0 MSTORE PUSH1 0x11 PUSH1 0x4 MSTORE PUSH1 0x24 PUSH0 REVERT JUMPDEST PUSH1 0x1 DUP2 JUMPDEST PUSH1 0x1 DUP5 GT ISZERO PUSH2 0x4B5 JUMPI DUP1 DUP6 DIV DUP2 GT ISZERO PUSH2 0x499 JUMPI PUSH2 0x499 PUSH2 0x466 JUMP JUMPDEST PUSH1 0x1 DUP5 AND ISZERO PUSH2 0x4A7 JUMPI SWAP1 DUP2 MUL SWAP1 JUMPDEST PUSH1 0x1 SWAP4 SWAP1 SWAP4 SHR SWAP3 DUP1 MUL PUSH2 0x47E JUMP JUMPDEST SWAP4 POP SWAP4 SWAP2 POP POP JUMP JUMPDEST PUSH0 DUP3 PUSH2 0x4CB JUMPI POP PUSH1 0x1 PUSH2 0x559 JUMP JUMPDEST DUP2 PUSH2 0x4D7 JUMPI POP PUSH0 PUSH2 0x559 JUMP JUMPDEST DUP2 PUSH1 0x1 DUP2 EQ PUSH2 0x4ED JUMPI PUSH1 0x2 DUP2 EQ PUSH2 0x4F7 JUMPI PUSH2 0x513 JUMP JUMPDEST PUSH1 0x1 SWAP2 POP POP PUSH2 0x559 JUMP JUMPDEST PUSH1 0xFF DUP5 GT ISZERO PUSH2 0x508 JUMPI PUSH2 0x508 PUSH2 0x466 JUMP JUMPDEST POP POP PUSH1 0x1 DUP3 SHL PUSH2 0x559 JUMP JUMPDEST POP PUSH1 0x20 DUP4 LT PUSH2 0x133 DUP4 LT AND PUSH1 0x4E DUP5 LT PUSH1 0xB DUP5 LT AND OR ISZERO PUSH2 0x536 JUMPI POP DUP2 DUP2 EXP PUSH2 0x559 JUMP JUMPDEST PUSH2 0x542 PUSH0 NOT DUP5 DUP5 PUSH2 0x47A JUMP JUMPDEST DUP1 PUSH0 NOT DIV DUP3 GT ISZERO PUSH2 0x555 JUMPI PUSH2 0x555 PUSH2 0x466 JUMP JUMPDEST MUL SWAP1 POP JUMPDEST SWAP3 SWAP2 POP POP JUMP JUMPDEST PUSH0 PUSH2 0x56D PUSH1 0xFF DUP5 AND DUP4 PUSH2 0x4BD JUMP JUMPDEST SWAP4 SWAP3 POP POP POP JUMP JUMPDEST DUP1 DUP3 MUL DUP2 ISZERO DUP3 DUP3 DIV DUP5 EQ OR PUSH2 0x559 JUMPI PUSH2 0x559 PUSH2 0x466 JUMP JUMPDEST DUP1 DUP3 ADD DUP1 DUP3 GT ISZERO PUSH2 0x559 JUMPI PUSH2 0x559 PUSH2 0x466 JUMP JUMPDEST PUSH2 0x1685 DUP1 PUSH2 0x5AB PUSH0 CODECOPY PUSH0 RETURN INVALID PUSH1 0x80 PUSH1 0x40 MSTORE PUSH1 0x4 CALLDATASIZE LT PUSH2 0x1FC JUMPI PUSH0 CALLDATALOAD PUSH1 0xE0 SHR DUP1 PUSH4 0x8265324D GT PUSH2 0x113 JUMPI DUP1 PUSH4 0xCCE29EA7 GT PUSH2 0x9D JUMPI DUP1 PUSH4 0xDD62ED3E GT PUSH2 0x6D JUMPI DUP1 PUSH4 0xDD62ED3E EQ PUSH2 0x58A JUMPI DUP1 PUSH4 0xF2FDE38B EQ PUSH2 0x5CE JUMPI DUP1 PUSH4 0xF8102E68 EQ PUSH2 0x5ED JUMPI DUP1 PUSH4 0xF9931855 EQ PUSH2 0x602 JUMPI DUP1 PUSH4 0xF9A81AF7 EQ PUSH2 0x62D JUMPI PUSH0 DUP1 REVERT JUMPDEST DUP1 PUSH4 0xCCE29EA7 EQ PUSH2 0x52E JUMPI DUP1 PUSH4 0xCEC297A0 EQ PUSH2 0x543 JUMPI DUP1 PUSH4 0xD0FEBE4C EQ PUSH2 0x56E JUMPI DUP1 PUSH4 0xD348B409 EQ PUSH2 0x576 JUMPI PUSH0 DUP1 REVERT JUMPDEST DUP1 PUSH4 0x9B19251A GT PUSH2 0xE3 JUMPI DUP1 PUSH4 0x9B19251A EQ PUSH2 0x47A JUMPI DUP1 PUSH4 0x9CA423B3 EQ PUSH2 0x4A8 JUMPI DUP1 PUSH4 0xA09C4CF4 EQ PUSH2 0x4DC JUMPI DUP1 PUSH4 0xA5CE413B EQ PUSH2 0x4FB JUMPI DUP1 PUSH4 0xA9059CBB EQ PUSH2 0x50F JUMPI PUSH0 DUP1 REVERT JUMPDEST DUP1 PUSH4 0x8265324D EQ PUSH2 0x3EB JUMPI DUP1 PUSH4 0x8DA5CB5B EQ PUSH2 0x40A JUMPI DUP1 PUSH4 0x8F0794FE EQ PUSH2 0x43B JUMPI DUP1 PUSH4 0x95D89B41 EQ PUSH2 0x466 JUMPI PUSH0 DUP1 REVERT JUMPDEST DUP1 PUSH4 0x30F72CD4 GT PUSH2 0x194 JUMPI DUP1 PUSH4 0x70A08231 GT PUSH2 0x164 JUMPI DUP1 PUSH4 0x70A08231 EQ PUSH2 0x359 JUMPI DUP1 PUSH4 0x715018A6 EQ PUSH2 0x38D JUMPI DUP1 PUSH4 0x7165D19B EQ PUSH2 0x3A3 JUMPI DUP1 PUSH4 0x7547C7A3 EQ PUSH2 0x3B8 JUMPI DUP1 PUSH4 0x7C613B2F EQ PUSH2 0x3D7 JUMPI PUSH0 DUP1 REVERT JUMPDEST DUP1 PUSH4 0x30F72CD4 EQ PUSH2 0x2F4 JUMPI DUP1 PUSH4 0x313CE567 EQ PUSH2 0x314 JUMPI DUP1 PUSH4 0x4F3FC2DF EQ PUSH2 0x32F JUMPI DUP1 PUSH4 0x518AB2A8 EQ PUSH2 0x344 JUMPI PUSH0 DUP1 REVERT JUMPDEST DUP1 PUSH4 0xD505541 GT PUSH2 0x1CF JUMPI DUP1 PUSH4 0xD505541 EQ PUSH2 0x28D JUMPI DUP1 PUSH4 0x18160DDD EQ PUSH2 0x2AC JUMPI DUP1 PUSH4 0x1D0806AE EQ PUSH2 0x2C0 JUMPI DUP1 PUSH4 0x23B872DD EQ PUSH2 0x2D5 JUMPI PUSH0 DUP1 REVERT JUMPDEST DUP1 PUSH4 0x3E293A3 EQ PUSH2 0x200 JUMPI DUP1 PUSH4 0x6D65AF3 EQ PUSH2 0x228 JUMPI DUP1 PUSH4 0x6FDDE03 EQ PUSH2 0x23D JUMPI DUP1 PUSH4 0x95EA7B3 EQ PUSH2 0x25E JUMPI JUMPDEST PUSH0 DUP1 REVERT JUMPDEST CALLVALUE DUP1 ISZERO PUSH2 0x20B JUMPI PUSH0 DUP1 REVERT JUMPDEST POP PUSH2 0x215 PUSH1 0x9 SLOAD DUP2 JUMP JUMPDEST PUSH1 0x40 MLOAD SWAP1 DUP2 MSTORE PUSH1 0x20 ADD JUMPDEST PUSH1 0x40 MLOAD DUP1 SWAP2 SUB SWAP1 RETURN JUMPDEST CALLVALUE DUP1 ISZERO PUSH2 0x233 JUMPI PUSH0 DUP1 REVERT JUMPDEST POP PUSH2 0x215 PUSH1 0x6 SLOAD DUP2 JUMP JUMPDEST CALLVALUE DUP1 ISZERO PUSH2 0x248 JUMPI PUSH0 DUP1 REVERT JUMPDEST POP PUSH2 0x251 PUSH2 0x64C JUMP JUMPDEST PUSH1 0x40 MLOAD PUSH2 0x21F SWAP2 SWAP1 PUSH2 0x1378 JUMP JUMPDEST CALLVALUE DUP1 ISZERO PUSH2 0x269 JUMPI PUSH0 DUP1 REVERT JUMPDEST POP PUSH2 0x27D PUSH2 0x278 CALLDATASIZE PUSH1 0x4 PUSH2 0x13C8 JUMP JUMPDEST PUSH2 0x6DC JUMP JUMPDEST PUSH1 0x40 MLOAD SWAP1 ISZERO ISZERO DUP2 MSTORE PUSH1 0x20 ADD PUSH2 0x21F JUMP JUMPDEST CALLVALUE DUP1 ISZERO PUSH2 0x298 JUMPI PUSH0 DUP1 REVERT JUMPDEST POP PUSH2 0x215 PUSH2 0x2A7 CALLDATASIZE PUSH1 0x4 PUSH2 0x13F0 JUMP JUMPDEST PUSH2 0x6F5 JUMP JUMPDEST CALLVALUE DUP1 ISZERO PUSH2 0x2B7 JUMPI PUSH0 DUP1 REVERT JUMPDEST POP PUSH1 0x2 SLOAD PUSH2 0x215 JUMP JUMPDEST CALLVALUE DUP1 ISZERO PUSH2 0x2CB JUMPI PUSH0 DUP1 REVERT JUMPDEST POP PUSH2 0x215 PUSH1 0x8 SLOAD DUP2 JUMP JUMPDEST CALLVALUE DUP1 ISZERO PUSH2 0x2E0 JUMPI PUSH0 DUP1 REVERT JUMPDEST POP PUSH2 0x27D PUSH2 0x2EF CALLDATASIZE PUSH1 0x4 PUSH2 0x1409 JUMP JUMPDEST PUSH2 0x76F JUMP JUMPDEST CALLVALUE DUP1 ISZERO PUSH2 0x2FF JUMPI PUSH0 DUP1 REVERT JUMPDEST POP PUSH1 0x5 SLOAD PUSH2 0x27D SWAP1 PUSH1 0x1 PUSH1 0xA0 SHL SWAP1 DIV PUSH1 0xFF AND DUP2 JUMP JUMPDEST CALLVALUE DUP1 ISZERO PUSH2 0x31F JUMPI PUSH0 DUP1 REVERT JUMPDEST POP PUSH1 0x40 MLOAD PUSH1 0x12 DUP2 MSTORE PUSH1 0x20 ADD PUSH2 0x21F JUMP JUMPDEST CALLVALUE DUP1 ISZERO PUSH2 0x33A JUMPI PUSH0 DUP1 REVERT JUMPDEST POP PUSH2 0x215 PUSH1 0xD SLOAD DUP2 JUMP JUMPDEST CALLVALUE DUP1 ISZERO PUSH2 0x34F JUMPI PUSH0 DUP1 REVERT JUMPDEST POP PUSH2 0x215 PUSH1 0xB SLOAD DUP2 JUMP JUMPDEST CALLVALUE DUP1 ISZERO PUSH2 0x364 JUMPI PUSH0 DUP1 REVERT JUMPDEST POP PUSH2 0x215 PUSH2 0x373 CALLDATASIZE PUSH1 0x4 PUSH2 0x13F0 JUMP JUMPDEST PUSH1 0x1 PUSH1 0x1 PUSH1 0xA0 SHL SUB AND PUSH0 SWAP1 DUP2 MSTORE PUSH1 0x20 DUP2 SWAP1 MSTORE PUSH1 0x40 SWAP1 KECCAK256 SLOAD SWAP1 JUMP JUMPDEST CALLVALUE DUP1 ISZERO PUSH2 0x398 JUMPI PUSH0 DUP1 REVERT JUMPDEST POP PUSH2 0x3A1 PUSH2 0x792 JUMP JUMPDEST STOP JUMPDEST CALLVALUE DUP1 ISZERO PUSH2 0x3AE JUMPI PUSH0 DUP1 REVERT JUMPDEST POP PUSH2 0x215 PUSH1 0xA SLOAD DUP2 JUMP JUMPDEST CALLVALUE DUP1 ISZERO PUSH2 0x3C3 JUMPI PUSH0 DUP1 REVERT JUMPDEST POP PUSH2 0x3A1 PUSH2 0x3D2 CALLDATASIZE PUSH1 0x4 PUSH2 0x1443 JUMP JUMPDEST PUSH2 0x7A5 JUMP JUMPDEST CALLVALUE DUP1 ISZERO PUSH2 0x3E2 JUMPI PUSH0 DUP1 REVERT JUMPDEST POP PUSH2 0x3A1 PUSH2 0x8D5 JUMP JUMPDEST CALLVALUE DUP1 ISZERO PUSH2 0x3F6 JUMPI PUSH0 DUP1 REVERT JUMPDEST POP PUSH2 0x215 PUSH2 0x405 CALLDATASIZE PUSH1 0x4 PUSH2 0x13F0 JUMP JUMPDEST PUSH2 0x9D2 JUMP JUMPDEST CALLVALUE DUP1 ISZERO PUSH2 0x415 JUMPI PUSH0 DUP1 REVERT JUMPDEST POP PUSH1 0x5 SLOAD PUSH1 0x1 PUSH1 0x1 PUSH1 0xA0 SHL SUB AND JUMPDEST PUSH1 0x40 MLOAD PUSH1 0x1 PUSH1 0x1 PUSH1 0xA0 SHL SUB SWAP1 SWAP2 AND DUP2 MSTORE PUSH1 0x20 ADD PUSH2 0x21F JUMP JUMPDEST CALLVALUE DUP1 ISZERO PUSH2 0x446 JUMPI PUSH0 DUP1 REVERT JUMPDEST POP PUSH2 0x215 PUSH2 0x455 CALLDATASIZE PUSH1 0x4 PUSH2 0x13F0 JUMP JUMPDEST PUSH1 0xF PUSH1 0x20 MSTORE PUSH0 SWAP1 DUP2 MSTORE PUSH1 0x40 SWAP1 KECCAK256 SLOAD DUP2 JUMP JUMPDEST CALLVALUE DUP1 ISZERO PUSH2 0x471 JUMPI PUSH0 DUP1 REVERT JUMPDEST POP PUSH2 0x251 PUSH2 0xA0D JUMP JUMPDEST CALLVALUE DUP1 ISZERO PUSH2 0x485 JUMPI PUSH0 DUP1 REVERT JUMPDEST POP PUSH2 0x27D PUSH2 0x494 CALLDATASIZE PUSH1 0x4 PUSH2 0x13F0 JUMP JUMPDEST PUSH1 0x10 PUSH1 0x20 MSTORE PUSH0 SWAP1 DUP2 MSTORE PUSH1 0x40 SWAP1 KECCAK256 SLOAD PUSH1 0xFF AND DUP2 JUMP JUMPDEST CALLVALUE DUP1 ISZERO PUSH2 0x4B3 JUMPI PUSH0 DUP1 REVERT JUMPDEST POP PUSH2 0x423 PUSH2 0x4C2 CALLDATASIZE PUSH1 0x4 PUSH2 0x13F0 JUMP JUMPDEST PUSH1 0x11 PUSH1 0x20 MSTORE PUSH0 SWAP1 DUP2 MSTORE PUSH1 0x40 SWAP1 KECCAK256 SLOAD PUSH1 0x1 PUSH1 0x1 PUSH1 0xA0 SHL SUB AND DUP2 JUMP JUMPDEST CALLVALUE DUP1 ISZERO PUSH2 0x4E7 JUMPI PUSH0 DUP1 REVERT JUMPDEST POP PUSH2 0x3A1 PUSH2 0x4F6 CALLDATASIZE PUSH1 0x4 PUSH2 0x13F0 JUMP JUMPDEST PUSH2 0xA1C JUMP JUMPDEST CALLVALUE DUP1 ISZERO PUSH2 0x506 JUMPI PUSH0 DUP1 REVERT JUMPDEST POP PUSH2 0x3A1 PUSH2 0xB93 JUMP JUMPDEST CALLVALUE DUP1 ISZERO PUSH2 0x51A JUMPI PUSH0 DUP1 REVERT JUMPDEST POP PUSH2 0x27D PUSH2 0x529 CALLDATASIZE PUSH1 0x4 PUSH2 0x13C8 JUMP JUMPDEST PUSH2 0xCCB JUMP JUMPDEST CALLVALUE DUP1 ISZERO PUSH2 0x539 JUMPI PUSH0 DUP1 REVERT JUMPDEST POP PUSH2 0x215 PUSH1 0x7 SLOAD DUP2 JUMP JUMPDEST CALLVALUE DUP1 ISZERO PUSH2 0x54E JUMPI PUSH0 DUP1 REVERT JUMPDEST POP PUSH2 0x215 PUSH2 0x55D CALLDATASIZE PUSH1 0x4 PUSH2 0x13F0 JUMP JUMPDEST PUSH1 0x12 PUSH1 0x20 MSTORE PUSH0 SWAP1 DUP2 MSTORE PUSH1 0x40 SWAP1 KECCAK256 SLOAD DUP2 JUMP JUMPDEST PUSH2 0x3A1 PUSH2 0xCD8 JUMP JUMPDEST CALLVALUE DUP1 ISZERO PUSH2 0x581 JUMPI PUSH0 DUP1 REVERT JUMPDEST POP PUSH2 0x215 PUSH2 0xE56 JUMP JUMPDEST CALLVALUE DUP1 ISZERO PUSH2 0x595 JUMPI PUSH0 DUP1 REVERT JUMPDEST POP PUSH2 0x215 PUSH2 0x5A4 CALLDATASIZE PUSH1 0x4 PUSH2 0x145A JUMP JUMPDEST PUSH1 0x1 PUSH1 0x1 PUSH1 0xA0 SHL SUB SWAP2 DUP3 AND PUSH0 SWAP1 DUP2 MSTORE PUSH1 0x1 PUSH1 0x20 SWAP1 DUP2 MSTORE PUSH1 0x40 DUP1 DUP4 KECCAK256 SWAP4 SWAP1 SWAP5 AND DUP3 MSTORE SWAP2 SWAP1 SWAP2 MSTORE KECCAK256 SLOAD SWAP1 JUMP JUMPDEST CALLVALUE DUP1 ISZERO PUSH2 0x5D9 JUMPI PUSH0 DUP1 REVERT JUMPDEST POP PUSH2 0x3A1 PUSH2 0x5E8 CALLDATASIZE PUSH1 0x4 PUSH2 0x13F0 JUMP JUMPDEST PUSH2 0xF19 JUMP JUMPDEST CALLVALUE DUP1 ISZERO PUSH2 0x5F8 JUMPI PUSH0 DUP1 REVERT JUMPDEST POP PUSH2 0x215 PUSH1 0xC SLOAD DUP2 JUMP JUMPDEST CALLVALUE DUP1 ISZERO PUSH2 0x60D JUMPI PUSH0 DUP1 REVERT JUMPDEST POP PUSH2 0x215 PUSH2 0x61C CALLDATASIZE PUSH1 0x4 PUSH2 0x13F0 JUMP JUMPDEST PUSH1 0xE PUSH1 0x20 MSTORE PUSH0 SWAP1 DUP2 MSTORE PUSH1 0x40 SWAP1 KECCAK256 SLOAD DUP2 JUMP JUMPDEST CALLVALUE DUP1 ISZERO PUSH2 0x638 JUMPI PUSH0 DUP1 REVERT JUMPDEST POP PUSH2 0x3A1 PUSH2 0x647 CALLDATASIZE PUSH1 0x4 PUSH2 0x148B JUMP JUMPDEST PUSH2 0xF56 JUMP JUMPDEST PUSH1 0x60 PUSH1 0x3 DUP1 SLOAD PUSH2 0x65B SWAP1 PUSH2 0x14AB JUMP JUMPDEST DUP1 PUSH1 0x1F ADD PUSH1 0x20 DUP1 SWAP2 DIV MUL PUSH1 0x20 ADD PUSH1 0x40 MLOAD SWAP1 DUP2 ADD PUSH1 0x40 MSTORE DUP1 SWAP3 SWAP2 SWAP1 DUP2 DUP2 MSTORE PUSH1 0x20 ADD DUP3 DUP1 SLOAD PUSH2 0x687 SWAP1 PUSH2 0x14AB JUMP JUMPDEST DUP1 ISZERO PUSH2 0x6D2 JUMPI DUP1 PUSH1 0x1F LT PUSH2 0x6A9 JUMPI PUSH2 0x100 DUP1 DUP4 SLOAD DIV MUL DUP4 MSTORE SWAP2 PUSH1 0x20 ADD SWAP2 PUSH2 0x6D2 JUMP JUMPDEST DUP3 ADD SWAP2 SWAP1 PUSH0 MSTORE PUSH1 0x20 PUSH0 KECCAK256 SWAP1 JUMPDEST DUP2 SLOAD DUP2 MSTORE SWAP1 PUSH1 0x1 ADD SWAP1 PUSH1 0x20 ADD DUP1 DUP4 GT PUSH2 0x6B5 JUMPI DUP3 SWAP1 SUB PUSH1 0x1F AND DUP3 ADD SWAP2 JUMPDEST POP POP POP POP POP SWAP1 POP SWAP1 JUMP JUMPDEST PUSH0 CALLER PUSH2 0x6E9 DUP2 DUP6 DUP6 PUSH2 0xFDF JUMP JUMPDEST PUSH1 0x1 SWAP2 POP POP JUMPDEST SWAP3 SWAP2 POP POP JUMP JUMPDEST PUSH1 0x1 PUSH1 0x1 PUSH1 0xA0 SHL SUB DUP2 AND PUSH0 SWAP1 DUP2 MSTORE PUSH1 0xF PUSH1 0x20 MSTORE PUSH1 0x40 DUP2 KECCAK256 SLOAD DUP2 SWAP1 PUSH3 0x93A80 SWAP1 PUSH2 0x71E SWAP1 TIMESTAMP PUSH2 0x14F7 JUMP JUMPDEST PUSH2 0x728 SWAP2 SWAP1 PUSH2 0x150A JUMP JUMPDEST PUSH1 0xD SLOAD PUSH1 0x1 PUSH1 0x1 PUSH1 0xA0 SHL SUB DUP6 AND PUSH0 SWAP1 DUP2 MSTORE PUSH1 0xE PUSH1 0x20 MSTORE PUSH1 0x40 SWAP1 KECCAK256 SLOAD SWAP2 SWAP3 POP PUSH1 0x64 SWAP2 DUP4 SWAP2 PUSH2 0x754 SWAP2 PUSH2 0x1529 JUMP JUMPDEST PUSH2 0x75E SWAP2 SWAP1 PUSH2 0x1529 JUMP JUMPDEST PUSH2 0x768 SWAP2 SWAP1 PUSH2 0x150A JUMP JUMPDEST SWAP4 SWAP3 POP POP POP JUMP JUMPDEST PUSH0 CALLER PUSH2 0x77C DUP6 DUP3 DUP6 PUSH2 0xFF1 JUMP JUMPDEST PUSH2 0x787 DUP6 DUP6 DUP6 PUSH2 0x106D JUMP JUMPDEST POP PUSH1 0x1 SWAP5 SWAP4 POP POP POP POP JUMP JUMPDEST PUSH2 0x79A PUSH2 0x10CA JUMP JUMPDEST PUSH2 0x7A3 PUSH0 PUSH2 0x10F7 JUMP JUMPDEST JUMP JUMPDEST PUSH0 DUP2 GT PUSH2 0x803 JUMPI PUSH1 0x40 MLOAD PUSH3 0x461BCD PUSH1 0xE5 SHL DUP2 MSTORE PUSH1 0x20 PUSH1 0x4 DUP3 ADD MSTORE PUSH1 0x21 PUSH1 0x24 DUP3 ADD MSTORE PUSH32 0x416D6F756E74206D7573742062652067726561746572207468616E207A65726F PUSH1 0x44 DUP3 ADD MSTORE PUSH1 0x17 PUSH1 0xF9 SHL PUSH1 0x64 DUP3 ADD MSTORE PUSH1 0x84 ADD JUMPDEST PUSH1 0x40 MLOAD DUP1 SWAP2 SUB SWAP1 REVERT JUMPDEST CALLER PUSH0 SWAP1 DUP2 MSTORE PUSH1 0x20 DUP2 SWAP1 MSTORE PUSH1 0x40 SWAP1 KECCAK256 SLOAD DUP2 GT ISZERO PUSH2 0x859 JUMPI PUSH1 0x40 MLOAD PUSH3 0x461BCD PUSH1 0xE5 SHL DUP2 MSTORE PUSH1 0x20 PUSH1 0x4 DUP3 ADD MSTORE PUSH1 0x15 PUSH1 0x24 DUP3 ADD MSTORE PUSH21 0x24B739BAB33334B1B4B2B73A103130B630B731B297 PUSH1 0x59 SHL PUSH1 0x44 DUP3 ADD MSTORE PUSH1 0x64 ADD PUSH2 0x7FA JUMP JUMPDEST PUSH2 0x864 CALLER ADDRESS DUP4 PUSH2 0x106D JUMP JUMPDEST CALLER PUSH0 SWAP1 DUP2 MSTORE PUSH1 0xE PUSH1 0x20 MSTORE PUSH1 0x40 DUP2 KECCAK256 DUP1 SLOAD DUP4 SWAP3 SWAP1 PUSH2 0x882 SWAP1 DUP5 SWAP1 PUSH2 0x1540 JUMP JUMPDEST SWAP1 SWAP2 SSTORE POP POP CALLER PUSH0 DUP2 DUP2 MSTORE PUSH1 0xF PUSH1 0x20 MSTORE PUSH1 0x40 SWAP1 DUP2 SWAP1 KECCAK256 TIMESTAMP SWAP1 SSTORE MLOAD PUSH32 0xB539CA1E5C8D398DDF1C41C30166F33404941683BE4683319B57669A93DAD4EF SWAP1 PUSH2 0x8CA SWAP1 DUP5 DUP2 MSTORE PUSH1 0x20 ADD SWAP1 JUMP JUMPDEST PUSH1 0x40 MLOAD DUP1 SWAP2 SUB SWAP1 LOG2 POP JUMP JUMPDEST PUSH1 0x5 SLOAD PUSH1 0x1 PUSH1 0xA0 SHL SWAP1 DIV PUSH1 0xFF AND ISZERO ISZERO PUSH1 0x1 EQ PUSH2 0x933 JUMPI PUSH1 0x40 MLOAD PUSH3 0x461BCD PUSH1 0xE5 SHL DUP2 MSTORE PUSH1 0x20 PUSH1 0x4 DUP3 ADD MSTORE PUSH1 0x17 PUSH1 0x24 DUP3 ADD MSTORE PUSH32 0x50726573616C65206E6F74207374617274656420796574000000000000000000 PUSH1 0x44 DUP3 ADD MSTORE PUSH1 0x64 ADD PUSH2 0x7FA JUMP JUMPDEST PUSH0 PUSH2 0x93D CALLER PUSH2 0x9D2 JUMP JUMPDEST SWAP1 POP PUSH0 DUP2 GT PUSH2 0x985 JUMPI PUSH1 0x40 MLOAD PUSH3 0x461BCD PUSH1 0xE5 SHL DUP2 MSTORE PUSH1 0x20 PUSH1 0x4 DUP3 ADD MSTORE PUSH1 0x14 PUSH1 0x24 DUP3 ADD MSTORE PUSH20 0x4E6F207265776172647320617661696C61626C65 PUSH1 0x60 SHL PUSH1 0x44 DUP3 ADD MSTORE PUSH1 0x64 ADD PUSH2 0x7FA JUMP JUMPDEST PUSH2 0x98F CALLER DUP3 PUSH2 0x1148 JUMP JUMPDEST CALLER PUSH0 DUP2 DUP2 MSTORE PUSH1 0x12 PUSH1 0x20 MSTORE PUSH1 0x40 DUP1 DUP3 KECCAK256 SWAP2 SWAP1 SWAP2 SSTORE MLOAD PUSH32 0xF0BC0A70FE19EF2D8DC1E1948B338A1184184FB1EA3AC836F24065828816D68D SWAP1 PUSH2 0x8CA SWAP1 DUP5 DUP2 MSTORE PUSH1 0x20 ADD SWAP1 JUMP JUMPDEST PUSH0 PUSH2 0x9DF PUSH1 0x12 PUSH1 0xA PUSH2 0x1636 JUMP JUMPDEST PUSH1 0x1 PUSH1 0x1 PUSH1 0xA0 SHL SUB DUP4 AND PUSH0 SWAP1 DUP2 MSTORE PUSH1 0x12 PUSH1 0x20 MSTORE PUSH1 0x40 SWAP1 KECCAK256 SLOAD PUSH2 0xA03 SWAP1 PUSH2 0x1F4 PUSH2 0x1529 JUMP JUMPDEST PUSH2 0x6EF SWAP2 SWAP1 PUSH2 0x1529 JUMP JUMPDEST PUSH1 0x60 PUSH1 0x4 DUP1 SLOAD PUSH2 0x65B SWAP1 PUSH2 0x14AB JUMP JUMPDEST CALLER PUSH0 SWAP1 DUP2 MSTORE PUSH1 0x10 PUSH1 0x20 MSTORE PUSH1 0x40 SWAP1 KECCAK256 SLOAD PUSH1 0xFF AND ISZERO PUSH2 0xA71 JUMPI PUSH1 0x40 MLOAD PUSH3 0x461BCD PUSH1 0xE5 SHL DUP2 MSTORE PUSH1 0x20 PUSH1 0x4 DUP3 ADD MSTORE PUSH1 0x13 PUSH1 0x24 DUP3 ADD MSTORE PUSH19 0x105B1C9958591E481DDA1A5D195B1A5CDD1959 PUSH1 0x6A SHL PUSH1 0x44 DUP3 ADD MSTORE PUSH1 0x64 ADD PUSH2 0x7FA JUMP JUMPDEST PUSH1 0x1 PUSH1 0x1 PUSH1 0xA0 SHL SUB DUP2 AND CALLER SUB PUSH2 0xAC1 JUMPI PUSH1 0x40 MLOAD PUSH3 0x461BCD PUSH1 0xE5 SHL DUP2 MSTORE PUSH1 0x20 PUSH1 0x4 DUP3 ADD MSTORE PUSH1 0x15 PUSH1 0x24 DUP3 ADD MSTORE PUSH21 0x21B0B73737BA103932B332B9103CB7BAB939B2B633 PUSH1 0x59 SHL PUSH1 0x44 DUP3 ADD MSTORE PUSH1 0x64 ADD PUSH2 0x7FA JUMP JUMPDEST CALLER PUSH0 SWAP1 DUP2 MSTORE PUSH1 0x10 PUSH1 0x20 MSTORE PUSH1 0x40 SWAP1 KECCAK256 DUP1 SLOAD PUSH1 0xFF NOT AND PUSH1 0x1 OR SWAP1 SSTORE PUSH1 0x1 PUSH1 0x1 PUSH1 0xA0 SHL SUB DUP2 AND ISZERO DUP1 ISZERO SWAP1 PUSH2 0xB09 JUMPI POP PUSH1 0x1 PUSH1 0x1 PUSH1 0xA0 SHL SUB DUP2 AND PUSH0 SWAP1 DUP2 MSTORE PUSH1 0x10 PUSH1 0x20 MSTORE PUSH1 0x40 SWAP1 KECCAK256 SLOAD PUSH1 0xFF AND JUMPDEST ISZERO PUSH2 0xB5B JUMPI CALLER PUSH0 SWAP1 DUP2 MSTORE PUSH1 0x11 PUSH1 0x20 SWAP1 DUP2 MSTORE PUSH1 0x40 DUP1 DUP4 KECCAK256 DUP1 SLOAD PUSH1 0x1 PUSH1 0x1 PUSH1 0xA0 SHL SUB NOT AND PUSH1 0x1 PUSH1 0x1 PUSH1 0xA0 SHL SUB DUP7 AND SWAP1 DUP2 OR SWAP1 SWAP2 SSTORE DUP4 MSTORE PUSH1 0x12 SWAP1 SWAP2 MSTORE DUP2 KECCAK256 DUP1 SLOAD PUSH1 0x1 SWAP3 SWAP1 PUSH2 0xB55 SWAP1 DUP5 SWAP1 PUSH2 0x1540 JUMP JUMPDEST SWAP1 SWAP2 SSTORE POP POP JUMPDEST PUSH1 0x40 MLOAD PUSH1 0x1 PUSH1 0x1 PUSH1 0xA0 SHL SUB DUP3 AND SWAP1 CALLER SWAP1 PUSH32 0x4BC18AA4B0095C9A3B5CDF42D2322D5A145591B04045988A995A5DA426075457 SWAP1 PUSH0 SWAP1 LOG3 POP JUMP JUMPDEST CALLER PUSH0 SWAP1 DUP2 MSTORE PUSH1 0xE PUSH1 0x20 MSTORE PUSH1 0x40 SWAP1 KECCAK256 SLOAD DUP1 PUSH2 0xBE3 JUMPI PUSH1 0x40 MLOAD PUSH3 0x461BCD PUSH1 0xE5 SHL DUP2 MSTORE PUSH1 0x20 PUSH1 0x4 DUP3 ADD MSTORE PUSH1 0x11 PUSH1 0x24 DUP3 ADD MSTORE PUSH17 0x2737903A37B5B2B7399039BA30B5B2B217 PUSH1 0x79 SHL PUSH1 0x44 DUP3 ADD MSTORE PUSH1 0x64 ADD PUSH2 0x7FA JUMP JUMPDEST CALLER PUSH0 SWAP1 DUP2 MSTORE PUSH1 0xF PUSH1 0x20 MSTORE PUSH1 0x40 SWAP1 KECCAK256 SLOAD PUSH2 0xBFF SWAP1 PUSH3 0x24EA00 PUSH2 0x1540 JUMP JUMPDEST TIMESTAMP LT ISZERO PUSH2 0xC4E JUMPI PUSH1 0x40 MLOAD PUSH3 0x461BCD PUSH1 0xE5 SHL DUP2 MSTORE PUSH1 0x20 PUSH1 0x4 DUP3 ADD MSTORE PUSH1 0x1B PUSH1 0x24 DUP3 ADD MSTORE PUSH32 0x556E7374616B65206F6E6C792061667465722034207765656B732E0000000000 PUSH1 0x44 DUP3 ADD MSTORE PUSH1 0x64 ADD PUSH2 0x7FA JUMP JUMPDEST PUSH0 PUSH2 0xC58 CALLER PUSH2 0x6F5 JUMP JUMPDEST CALLER PUSH0 DUP2 DUP2 MSTORE PUSH1 0xE PUSH1 0x20 SWAP1 DUP2 MSTORE PUSH1 0x40 DUP1 DUP4 KECCAK256 DUP4 SWAP1 SSTORE PUSH1 0xF SWAP1 SWAP2 MSTORE DUP2 KECCAK256 SSTORE SWAP1 SWAP2 POP PUSH2 0xC8C SWAP1 ADDRESS SWAP1 PUSH2 0xC87 DUP5 DUP7 PUSH2 0x1540 JUMP JUMPDEST PUSH2 0x106D JUMP JUMPDEST PUSH1 0x40 DUP1 MLOAD DUP4 DUP2 MSTORE PUSH1 0x20 DUP2 ADD DUP4 SWAP1 MSTORE CALLER SWAP2 PUSH32 0x6F2D3E000C89D37446B7C0374C0125068FF316D1E3EE302336478A8CD03C2336 SWAP2 ADD PUSH1 0x40 MLOAD DUP1 SWAP2 SUB SWAP1 LOG2 POP POP JUMP JUMPDEST PUSH0 CALLER PUSH2 0x6E9 DUP2 DUP6 DUP6 PUSH2 0x106D JUMP JUMPDEST PUSH1 0x6 SLOAD TIMESTAMP LT ISZERO PUSH2 0xD1D JUMPI PUSH1 0x40 MLOAD PUSH3 0x461BCD PUSH1 0xE5 SHL DUP2 MSTORE PUSH1 0x20 PUSH1 0x4 DUP3 ADD MSTORE PUSH1 0x10 PUSH1 0x24 DUP3 ADD MSTORE PUSH16 0x29B0B632903737BA1030B1BA34BB3297 PUSH1 0x81 SHL PUSH1 0x44 DUP3 ADD MSTORE PUSH1 0x64 ADD PUSH2 0x7FA JUMP JUMPDEST PUSH0 CALLVALUE GT PUSH2 0xD6C JUMPI PUSH1 0x40 MLOAD PUSH3 0x461BCD PUSH1 0xE5 SHL DUP2 MSTORE PUSH1 0x20 PUSH1 0x4 DUP3 ADD MSTORE PUSH1 0x1C PUSH1 0x24 DUP3 ADD MSTORE PUSH32 0x4D7573742073656E642045544820746F2062757920746F6B656E732E00000000 PUSH1 0x44 DUP3 ADD MSTORE PUSH1 0x64 ADD PUSH2 0x7FA JUMP JUMPDEST PUSH0 PUSH2 0xD75 PUSH2 0xE56 JUMP JUMPDEST SWAP1 POP PUSH0 DUP2 PUSH2 0xD85 PUSH1 0x12 PUSH1 0xA PUSH2 0x1644 JUMP JUMPDEST PUSH2 0xD8F SWAP1 CALLVALUE PUSH2 0x1529 JUMP JUMPDEST PUSH2 0xD99 SWAP2 SWAP1 PUSH2 0x150A JUMP JUMPDEST ADDRESS PUSH0 SWAP1 DUP2 MSTORE PUSH1 0x20 DUP2 SWAP1 MSTORE PUSH1 0x40 SWAP1 KECCAK256 SLOAD SWAP1 SWAP2 POP DUP2 GT ISZERO PUSH2 0xDFA JUMPI PUSH1 0x40 MLOAD PUSH3 0x461BCD PUSH1 0xE5 SHL DUP2 MSTORE PUSH1 0x20 PUSH1 0x4 DUP3 ADD MSTORE PUSH1 0x1C PUSH1 0x24 DUP3 ADD MSTORE PUSH32 0x4E6F7420656E6F75676820746F6B656E7320617661696C61626C652E00000000 PUSH1 0x44 DUP3 ADD MSTORE PUSH1 0x64 ADD PUSH2 0x7FA JUMP JUMPDEST PUSH2 0xE05 ADDRESS CALLER DUP4 PUSH2 0x106D JUMP JUMPDEST DUP1 PUSH1 0xB PUSH0 DUP3 DUP3 SLOAD PUSH2 0xE16 SWAP2 SWAP1 PUSH2 0x1540 JUMP JUMPDEST SWAP1 SWAP2 SSTORE POP POP PUSH1 0x40 MLOAD DUP2 DUP2 MSTORE CALLER SWAP1 ADDRESS SWAP1 PUSH32 0xDDF252AD1BE2C89B69C2B068FC378DAA952BA7F163C4A11628F55A4DF523B3EF SWAP1 PUSH1 0x20 ADD PUSH1 0x40 MLOAD DUP1 SWAP2 SUB SWAP1 LOG3 POP POP JUMP JUMPDEST PUSH0 TIMESTAMP PUSH1 0x6 SLOAD LT ISZERO PUSH2 0xEA9 JUMPI PUSH1 0x40 MLOAD PUSH3 0x461BCD PUSH1 0xE5 SHL DUP2 MSTORE PUSH1 0x20 PUSH1 0x4 DUP3 ADD MSTORE PUSH1 0x18 PUSH1 0x24 DUP3 ADD MSTORE PUSH32 0x5072652D73616C65206E6F742073746172746564207965740000000000000000 PUSH1 0x44 DUP3 ADD MSTORE PUSH1 0x64 ADD PUSH2 0x7FA JUMP JUMPDEST PUSH1 0x7 SLOAD TIMESTAMP GT ISZERO PUSH2 0xEBA JUMPI POP PUSH1 0x9 SLOAD SWAP1 JUMP JUMPDEST PUSH0 PUSH3 0x93A80 PUSH1 0x6 SLOAD TIMESTAMP PUSH2 0xECD SWAP2 SWAP1 PUSH2 0x14F7 JUMP JUMPDEST PUSH2 0xED7 SWAP2 SWAP1 PUSH2 0x150A JUMP JUMPDEST SWAP1 POP PUSH0 PUSH1 0xC SLOAD DUP3 PUSH1 0x8 SLOAD PUSH1 0x9 SLOAD PUSH2 0xEEE SWAP2 SWAP1 PUSH2 0x14F7 JUMP JUMPDEST PUSH2 0xEF8 SWAP2 SWAP1 PUSH2 0x1529 JUMP JUMPDEST PUSH2 0xF02 SWAP2 SWAP1 PUSH2 0x150A JUMP JUMPDEST SWAP1 POP DUP1 PUSH1 0x8 SLOAD PUSH2 0xF12 SWAP2 SWAP1 PUSH2 0x1540 JUMP JUMPDEST SWAP3 POP POP POP SWAP1 JUMP JUMPDEST PUSH2 0xF21 PUSH2 0x10CA JUMP JUMPDEST PUSH1 0x1 PUSH1 0x1 PUSH1 0xA0 SHL SUB DUP2 AND PUSH2 0xF4A JUMPI PUSH1 0x40 MLOAD PUSH4 0x1E4FBDF7 PUSH1 0xE0 SHL DUP2 MSTORE PUSH0 PUSH1 0x4 DUP3 ADD MSTORE PUSH1 0x24 ADD PUSH2 0x7FA JUMP JUMPDEST PUSH2 0xF53 DUP2 PUSH2 0x10F7 JUMP JUMPDEST POP JUMP JUMPDEST PUSH2 0xF5E PUSH2 0x10CA JUMP JUMPDEST PUSH1 0x6 DUP3 SWAP1 SSTORE PUSH2 0xF70 DUP2 PUSH3 0x93A80 PUSH2 0x1529 JUMP JUMPDEST PUSH1 0x6 SLOAD PUSH2 0xF7D SWAP2 SWAP1 PUSH2 0x1540 JUMP JUMPDEST PUSH1 0x7 DUP2 SWAP1 SSTORE PUSH1 0xC DUP3 SWAP1 SSTORE PUSH1 0x5 DUP1 SLOAD PUSH1 0xFF PUSH1 0xA0 SHL NOT AND PUSH1 0x1 PUSH1 0xA0 SHL OR SWAP1 SSTORE PUSH1 0x6 SLOAD PUSH1 0x40 MLOAD PUSH32 0x3844853BE672B18D859394AA37E05615B95B78E66B4DC37DCA98D1DB1B05EA7D SWAP3 PUSH2 0xFD3 SWAP3 DUP3 MSTORE PUSH1 0x20 DUP3 ADD MSTORE PUSH1 0x40 ADD SWAP1 JUMP JUMPDEST PUSH1 0x40 MLOAD DUP1 SWAP2 SUB SWAP1 LOG1 POP POP JUMP JUMPDEST PUSH2 0xFEC DUP4 DUP4 DUP4 PUSH1 0x1 PUSH2 0x1180 JUMP JUMPDEST POP POP POP JUMP JUMPDEST PUSH1 0x1 PUSH1 0x1 PUSH1 0xA0 SHL SUB DUP4 DUP2 AND PUSH0 SWAP1 DUP2 MSTORE PUSH1 0x1 PUSH1 0x20 SWAP1 DUP2 MSTORE PUSH1 0x40 DUP1 DUP4 KECCAK256 SWAP4 DUP7 AND DUP4 MSTORE SWAP3 SWAP1 MSTORE KECCAK256 SLOAD PUSH0 NOT DUP2 LT ISZERO PUSH2 0x1067 JUMPI DUP2 DUP2 LT ISZERO PUSH2 0x1059 JUMPI PUSH1 0x40 MLOAD PUSH4 0x7DC7A0D9 PUSH1 0xE1 SHL DUP2 MSTORE PUSH1 0x1 PUSH1 0x1 PUSH1 0xA0 SHL SUB DUP5 AND PUSH1 0x4 DUP3 ADD MSTORE PUSH1 0x24 DUP2 ADD DUP3 SWAP1 MSTORE PUSH1 0x44 DUP2 ADD DUP4 SWAP1 MSTORE PUSH1 0x64 ADD PUSH2 0x7FA JUMP JUMPDEST PUSH2 0x1067 DUP5 DUP5 DUP5 DUP5 SUB PUSH0 PUSH2 0x1180 JUMP JUMPDEST POP POP POP POP JUMP JUMPDEST PUSH1 0x1 PUSH1 0x1 PUSH1 0xA0 SHL SUB DUP4 AND PUSH2 0x1096 JUMPI PUSH1 0x40 MLOAD PUSH4 0x4B637E8F PUSH1 0xE1 SHL DUP2 MSTORE PUSH0 PUSH1 0x4 DUP3 ADD MSTORE PUSH1 0x24 ADD PUSH2 0x7FA JUMP JUMPDEST PUSH1 0x1 PUSH1 0x1 PUSH1 0xA0 SHL SUB DUP3 AND PUSH2 0x10BF JUMPI PUSH1 0x40 MLOAD PUSH4 0xEC442F05 PUSH1 0xE0 SHL DUP2 MSTORE PUSH0 PUSH1 0x4 DUP3 ADD MSTORE PUSH1 0x24 ADD PUSH2 0x7FA JUMP JUMPDEST PUSH2 0xFEC DUP4 DUP4 DUP4 PUSH2 0x1252 JUMP JUMPDEST PUSH1 0x5 SLOAD PUSH1 0x1 PUSH1 0x1 PUSH1 0xA0 SHL SUB AND CALLER EQ PUSH2 0x7A3 JUMPI PUSH1 0x40 MLOAD PUSH4 0x118CDAA7 PUSH1 0xE0 SHL DUP2 MSTORE CALLER PUSH1 0x4 DUP3 ADD MSTORE PUSH1 0x24 ADD PUSH2 0x7FA JUMP JUMPDEST PUSH1 0x5 DUP1 SLOAD PUSH1 0x1 PUSH1 0x1 PUSH1 0xA0 SHL SUB DUP4 DUP2 AND PUSH1 0x1 PUSH1 0x1 PUSH1 0xA0 SHL SUB NOT DUP4 AND DUP2 OR SWAP1 SWAP4 SSTORE PUSH1 0x40 MLOAD SWAP2 AND SWAP2 SWAP1 DUP3 SWAP1 PUSH32 0x8BE0079C531659141344CD1FD0A4F28419497F9722A3DAAFE3B4186F6B6457E0 SWAP1 PUSH0 SWAP1 LOG3 POP POP JUMP JUMPDEST PUSH1 0x1 PUSH1 0x1 PUSH1 0xA0 SHL SUB DUP3 AND PUSH2 0x1171 JUMPI PUSH1 0x40 MLOAD PUSH4 0xEC442F05 PUSH1 0xE0 SHL DUP2 MSTORE PUSH0 PUSH1 0x4 DUP3 ADD MSTORE PUSH1 0x24 ADD PUSH2 0x7FA JUMP JUMPDEST PUSH2 0x117C PUSH0 DUP4 DUP4 PUSH2 0x1252 JUMP JUMPDEST POP POP JUMP JUMPDEST PUSH1 0x1 PUSH1 0x1 PUSH1 0xA0 SHL SUB DUP5 AND PUSH2 0x11A9 JUMPI PUSH1 0x40 MLOAD PUSH4 0xE602DF05 PUSH1 0xE0 SHL DUP2 MSTORE PUSH0 PUSH1 0x4 DUP3 ADD MSTORE PUSH1 0x24 ADD PUSH2 0x7FA JUMP JUMPDEST PUSH1 0x1 PUSH1 0x1 PUSH1 0xA0 SHL SUB DUP4 AND PUSH2 0x11D2 JUMPI PUSH1 0x40 MLOAD PUSH4 0x4A1406B1 PUSH1 0xE1 SHL DUP2 MSTORE PUSH0 PUSH1 0x4 DUP3 ADD MSTORE PUSH1 0x24 ADD PUSH2 0x7FA JUMP JUMPDEST PUSH1 0x1 PUSH1 0x1 PUSH1 0xA0 SHL SUB DUP1 DUP6 AND PUSH0 SWAP1 DUP2 MSTORE PUSH1 0x1 PUSH1 0x20 SWAP1 DUP2 MSTORE PUSH1 0x40 DUP1 DUP4 KECCAK256 SWAP4 DUP8 AND DUP4 MSTORE SWAP3 SWAP1 MSTORE KECCAK256 DUP3 SWAP1 SSTORE DUP1 ISZERO PUSH2 0x1067 JUMPI DUP3 PUSH1 0x1 PUSH1 0x1 PUSH1 0xA0 SHL SUB AND DUP5 PUSH1 0x1 PUSH1 0x1 PUSH1 0xA0 SHL SUB AND PUSH32 0x8C5BE1E5EBEC7D5BD14F71427D1E84F3DD0314C0F7B2291E5B200AC8C7C3B925 DUP5 PUSH1 0x40 MLOAD PUSH2 0x1244 SWAP2 DUP2 MSTORE PUSH1 0x20 ADD SWAP1 JUMP JUMPDEST PUSH1 0x40 MLOAD DUP1 SWAP2 SUB SWAP1 LOG3 POP POP POP POP JUMP JUMPDEST PUSH1 0x1 PUSH1 0x1 PUSH1 0xA0 SHL SUB DUP4 AND PUSH2 0x127C JUMPI DUP1 PUSH1 0x2 PUSH0 DUP3 DUP3 SLOAD PUSH2 0x1271 SWAP2 SWAP1 PUSH2 0x1540 JUMP JUMPDEST SWAP1 SWAP2 SSTORE POP PUSH2 0x12EC SWAP1 POP JUMP JUMPDEST PUSH1 0x1 PUSH1 0x1 PUSH1 0xA0 SHL SUB DUP4 AND PUSH0 SWAP1 DUP2 MSTORE PUSH1 0x20 DUP2 SWAP1 MSTORE PUSH1 0x40 SWAP1 KECCAK256 SLOAD DUP2 DUP2 LT ISZERO PUSH2 0x12CE JUMPI PUSH1 0x40 MLOAD PUSH4 0x391434E3 PUSH1 0xE2 SHL DUP2 MSTORE PUSH1 0x1 PUSH1 0x1 PUSH1 0xA0 SHL SUB DUP6 AND PUSH1 0x4 DUP3 ADD MSTORE PUSH1 0x24 DUP2 ADD DUP3 SWAP1 MSTORE PUSH1 0x44 DUP2 ADD DUP4 SWAP1 MSTORE PUSH1 0x64 ADD PUSH2 0x7FA JUMP JUMPDEST PUSH1 0x1 PUSH1 0x1 PUSH1 0xA0 SHL SUB DUP5 AND PUSH0 SWAP1 DUP2 MSTORE PUSH1 0x20 DUP2 SWAP1 MSTORE PUSH1 0x40 SWAP1 KECCAK256 SWAP1 DUP3 SWAP1 SUB SWAP1 SSTORE JUMPDEST PUSH1 0x1 PUSH1 0x1 PUSH1 0xA0 SHL SUB DUP3 AND PUSH2 0x1308 JUMPI PUSH1 0x2 DUP1 SLOAD DUP3 SWAP1 SUB SWAP1 SSTORE PUSH2 0x1326 JUMP JUMPDEST PUSH1 0x1 PUSH1 0x1 PUSH1 0xA0 SHL SUB DUP3 AND PUSH0 SWAP1 DUP2 MSTORE PUSH1 0x20 DUP2 SWAP1 MSTORE PUSH1 0x40 SWAP1 KECCAK256 DUP1 SLOAD DUP3 ADD SWAP1 SSTORE JUMPDEST DUP2 PUSH1 0x1 PUSH1 0x1 PUSH1 0xA0 SHL SUB AND DUP4 PUSH1 0x1 PUSH1 0x1 PUSH1 0xA0 SHL SUB AND PUSH32 0xDDF252AD1BE2C89B69C2B068FC378DAA952BA7F163C4A11628F55A4DF523B3EF DUP4 PUSH1 0x40 MLOAD PUSH2 0x136B SWAP2 DUP2 MSTORE PUSH1 0x20 ADD SWAP1 JUMP JUMPDEST PUSH1 0x40 MLOAD DUP1 SWAP2 SUB SWAP1 LOG3 POP POP POP JUMP JUMPDEST PUSH1 0x20 DUP2 MSTORE PUSH0 DUP3 MLOAD DUP1 PUSH1 0x20 DUP5 ADD MSTORE DUP1 PUSH1 0x20 DUP6 ADD PUSH1 0x40 DUP6 ADD MCOPY PUSH0 PUSH1 0x40 DUP3 DUP6 ADD ADD MSTORE PUSH1 0x40 PUSH1 0x1F NOT PUSH1 0x1F DUP4 ADD AND DUP5 ADD ADD SWAP2 POP POP SWAP3 SWAP2 POP POP JUMP JUMPDEST DUP1 CALLDATALOAD PUSH1 0x1 PUSH1 0x1 PUSH1 0xA0 SHL SUB DUP2 AND DUP2 EQ PUSH2 0x13C3 JUMPI PUSH0 DUP1 REVERT JUMPDEST SWAP2 SWAP1 POP JUMP JUMPDEST PUSH0 DUP1 PUSH1 0x40 DUP4 DUP6 SUB SLT ISZERO PUSH2 0x13D9 JUMPI PUSH0 DUP1 REVERT JUMPDEST PUSH2 0x13E2 DUP4 PUSH2 0x13AD JUMP JUMPDEST SWAP5 PUSH1 0x20 SWAP4 SWAP1 SWAP4 ADD CALLDATALOAD SWAP4 POP POP POP JUMP JUMPDEST PUSH0 PUSH1 0x20 DUP3 DUP5 SUB SLT ISZERO PUSH2 0x1400 JUMPI PUSH0 DUP1 REVERT JUMPDEST PUSH2 0x768 DUP3 PUSH2 0x13AD JUMP JUMPDEST PUSH0 DUP1 PUSH0 PUSH1 0x60 DUP5 DUP7 SUB SLT ISZERO PUSH2 0x141B JUMPI PUSH0 DUP1 REVERT JUMPDEST PUSH2 0x1424 DUP5 PUSH2 0x13AD JUMP JUMPDEST SWAP3 POP PUSH2 0x1432 PUSH1 0x20 DUP6 ADD PUSH2 0x13AD JUMP JUMPDEST SWAP3 SWAP6 SWAP3 SWAP5 POP POP POP PUSH1 0x40 SWAP2 SWAP1 SWAP2 ADD CALLDATALOAD SWAP1 JUMP JUMPDEST PUSH0 PUSH1 0x20 DUP3 DUP5 SUB SLT ISZERO PUSH2 0x1453 JUMPI PUSH0 DUP1 REVERT JUMPDEST POP CALLDATALOAD SWAP2 SWAP1 POP JUMP JUMPDEST PUSH0 DUP1 PUSH1 0x40 DUP4 DUP6 SUB SLT ISZERO PUSH2 0x146B JUMPI PUSH0 DUP1 REVERT JUMPDEST PUSH2 0x1474 DUP4 PUSH2 0x13AD JUMP JUMPDEST SWAP2 POP PUSH2 0x1482 PUSH1 0x20 DUP5 ADD PUSH2 0x13AD JUMP JUMPDEST SWAP1 POP SWAP3 POP SWAP3 SWAP1 POP JUMP JUMPDEST PUSH0 DUP1 PUSH1 0x40 DUP4 DUP6 SUB SLT ISZERO PUSH2 0x149C JUMPI PUSH0 DUP1 REVERT JUMPDEST POP POP DUP1 CALLDATALOAD SWAP3 PUSH1 0x20 SWAP1 SWAP2 ADD CALLDATALOAD SWAP2 POP JUMP JUMPDEST PUSH1 0x1 DUP2 DUP2 SHR SWAP1 DUP3 AND DUP1 PUSH2 0x14BF JUMPI PUSH1 0x7F DUP3 AND SWAP2 POP JUMPDEST PUSH1 0x20 DUP3 LT DUP2 SUB PUSH2 0x14DD JUMPI PUSH4 0x4E487B71 PUSH1 0xE0 SHL PUSH0 MSTORE PUSH1 0x22 PUSH1 0x4 MSTORE PUSH1 0x24 PUSH0 REVERT JUMPDEST POP SWAP2 SWAP1 POP JUMP JUMPDEST PUSH4 0x4E487B71 PUSH1 0xE0 SHL PUSH0 MSTORE PUSH1 0x11 PUSH1 0x4 MSTORE PUSH1 0x24 PUSH0 REVERT JUMPDEST DUP2 DUP2 SUB DUP2 DUP2 GT ISZERO PUSH2 0x6EF JUMPI PUSH2 0x6EF PUSH2 0x14E3 JUMP JUMPDEST PUSH0 DUP3 PUSH2 0x1524 JUMPI PUSH4 0x4E487B71 PUSH1 0xE0 SHL PUSH0 MSTORE PUSH1 0x12 PUSH1 0x4 MSTORE PUSH1 0x24 PUSH0 REVERT JUMPDEST POP DIV SWAP1 JUMP JUMPDEST DUP1 DUP3 MUL DUP2 ISZERO DUP3 DUP3 DIV DUP5 EQ OR PUSH2 0x6EF JUMPI PUSH2 0x6EF PUSH2 0x14E3 JUMP JUMPDEST DUP1 DUP3 ADD DUP1 DUP3 GT ISZERO PUSH2 0x6EF JUMPI PUSH2 0x6EF PUSH2 0x14E3 JUMP JUMPDEST PUSH1 0x1 DUP2 JUMPDEST PUSH1 0x1 DUP5 GT ISZERO PUSH2 0x158E JUMPI DUP1 DUP6 DIV DUP2 GT ISZERO PUSH2 0x1572 JUMPI PUSH2 0x1572 PUSH2 0x14E3 JUMP JUMPDEST PUSH1 0x1 DUP5 AND ISZERO PUSH2 0x1580 JUMPI SWAP1 DUP2 MUL SWAP1 JUMPDEST PUSH1 0x1 SWAP4 SWAP1 SWAP4 SHR SWAP3 DUP1 MUL PUSH2 0x1557 JUMP JUMPDEST SWAP4 POP SWAP4 SWAP2 POP POP JUMP JUMPDEST PUSH0 DUP3 PUSH2 0x15A4 JUMPI POP PUSH1 0x1 PUSH2 0x6EF JUMP JUMPDEST DUP2 PUSH2 0x15B0 JUMPI POP PUSH0 PUSH2 0x6EF JUMP JUMPDEST DUP2 PUSH1 0x1 DUP2 EQ PUSH2 0x15C6 JUMPI PUSH1 0x2 DUP2 EQ PUSH2 0x15D0 JUMPI PUSH2 0x15EC JUMP JUMPDEST PUSH1 0x1 SWAP2 POP POP PUSH2 0x6EF JUMP JUMPDEST PUSH1 0xFF DUP5 GT ISZERO PUSH2 0x15E1 JUMPI PUSH2 0x15E1 PUSH2 0x14E3 JUMP JUMPDEST POP POP PUSH1 0x1 DUP3 SHL PUSH2 0x6EF JUMP JUMPDEST POP PUSH1 0x20 DUP4 LT PUSH2 0x133 DUP4 LT AND PUSH1 0x4E DUP5 LT PUSH1 0xB DUP5 LT AND OR ISZERO PUSH2 0x160F JUMPI POP DUP2 DUP2 EXP PUSH2 0x6EF JUMP JUMPDEST PUSH2 0x161B PUSH0 NOT DUP5 DUP5 PUSH2 0x1553 JUMP JUMPDEST DUP1 PUSH0 NOT DIV DUP3 GT ISZERO PUSH2 0x162E JUMPI PUSH2 0x162E PUSH2 0x14E3 JUMP JUMPDEST MUL SWAP4 SWAP3 POP POP POP JUMP JUMPDEST PUSH0 PUSH2 0x768 PUSH1 0xFF DUP5 AND DUP4 PUSH2 0x1596 JUMP JUMPDEST PUSH0 PUSH2 0x768 DUP4 DUP4 PUSH2 0x1596 JUMP INVALID LOG2 PUSH5 0x6970667358 0x22 SLT KECCAK256 SWAP4 SELFBALANCE SLOAD SWAP7 DUP15 0xDC PUSH17 0x7E4B911E06FBE7B31FCCBF6781BA1AF40E MSIZE SWAP15 CHAINID 0xF8 0xD4 DUP13 SHL PUSH12 0x64736F6C634300081A003300 "
				},
				"gasEstimates": {
					"creation": {
						"codeDepositCost": "1153000",
						"executionCost": "infinite",
						"totalCost": "infinite"
					},
					"external": {
						"allowance(address,address)": "infinite",
						"approve(address,uint256)": "24825",
						"balanceOf(address)": "2571",
						"buyTokens()": "infinite",
						"calculatePrice()": "infinite",
						"calculateReferralReward(address)": "infinite",
						"calculateStakingReward(address)": "infinite",
						"decimals()": "244",
						"initialPrice()": "2373",
						"mintReferralReward()": "infinite",
						"name()": "infinite",
						"owner()": "2387",
						"preSaleEndTime()": "2328",
						"preSaleStartTime()": "2352",
						"preSaleWeeksInWeeks()": "2371",
						"presaleIsActive()": "2372",
						"referralCounts(address)": "2572",
						"referrals(address)": "2622",
						"regularSalePrice()": "2330",
						"renounceOwnership()": "infinite",
						"signUpForWhitelist(address)": "79424",
						"stakeTokens(uint256)": "101353",
						"stakedAmount(address)": "2615",
						"stakingRewardRate()": "2373",
						"stakingTimestamp(address)": "2595",
						"startPreSale(uint256,uint256)": "infinite",
						"symbol()": "infinite",
						"tokensSold()": "2395",
						"totalSupply()": "2348",
						"transfer(address,uint256)": "51349",
						"transferFrom(address,address,uint256)": "infinite",
						"transferOwnership(address)": "28399",
						"unstakeTokens()": "infinite",
						"weeklyIncreaseRate()": "2372",
						"whitelist(address)": "2573"
					}
				},
				"methodIdentifiers": {
					"allowance(address,address)": "dd62ed3e",
					"approve(address,uint256)": "095ea7b3",
					"balanceOf(address)": "70a08231",
					"buyTokens()": "d0febe4c",
					"calculatePrice()": "d348b409",
					"calculateReferralReward(address)": "8265324d",
					"calculateStakingReward(address)": "0d505541",
					"decimals()": "313ce567",
					"initialPrice()": "1d0806ae",
					"mintReferralReward()": "7c613b2f",
					"name()": "06fdde03",
					"owner()": "8da5cb5b",
					"preSaleEndTime()": "cce29ea7",
					"preSaleStartTime()": "06d65af3",
					"preSaleWeeksInWeeks()": "f8102e68",
					"presaleIsActive()": "30f72cd4",
					"referralCounts(address)": "cec297a0",
					"referrals(address)": "9ca423b3",
					"regularSalePrice()": "03e293a3",
					"renounceOwnership()": "715018a6",
					"signUpForWhitelist(address)": "a09c4cf4",
					"stakeTokens(uint256)": "7547c7a3",
					"stakedAmount(address)": "f9931855",
					"stakingRewardRate()": "4f3fc2df",
					"stakingTimestamp(address)": "8f0794fe",
					"startPreSale(uint256,uint256)": "f9a81af7",
					"symbol()": "95d89b41",
					"tokensSold()": "518ab2a8",
					"totalSupply()": "18160ddd",
					"transfer(address,uint256)": "a9059cbb",
					"transferFrom(address,address,uint256)": "23b872dd",
					"transferOwnership(address)": "f2fde38b",
					"unstakeTokens()": "a5ce413b",
					"weeklyIncreaseRate()": "7165d19b",
					"whitelist(address)": "9b19251a"
				}
			},
			"storageLayout": {
				"storage": [
					{
						"astId": 307,
						"contract": "contracts/SimpleToken.sol:TokenPreSale",
						"label": "_balances",
						"offset": 0,
						"slot": "0",
						"type": "t_mapping(t_address,t_uint256)"
					},
					{
						"astId": 313,
						"contract": "contracts/SimpleToken.sol:TokenPreSale",
						"label": "_allowances",
						"offset": 0,
						"slot": "1",
						"type": "t_mapping(t_address,t_mapping(t_address,t_uint256))"
					},
					{
						"astId": 315,
						"contract": "contracts/SimpleToken.sol:TokenPreSale",
						"label": "_totalSupply",
						"offset": 0,
						"slot": "2",
						"type": "t_uint256"
					},
					{
						"astId": 317,
						"contract": "contracts/SimpleToken.sol:TokenPreSale",
						"label": "_name",
						"offset": 0,
						"slot": "3",
						"type": "t_string_storage"
					},
					{
						"astId": 319,
						"contract": "contracts/SimpleToken.sol:TokenPreSale",
						"label": "_symbol",
						"offset": 0,
						"slot": "4",
						"type": "t_string_storage"
					},
					{
						"astId": 8,
						"contract": "contracts/SimpleToken.sol:TokenPreSale",
						"label": "_owner",
						"offset": 0,
						"slot": "5",
						"type": "t_address"
					},
					{
						"astId": 943,
						"contract": "contracts/SimpleToken.sol:TokenPreSale",
						"label": "presaleIsActive",
						"offset": 20,
						"slot": "5",
						"type": "t_bool"
					},
					{
						"astId": 945,
						"contract": "contracts/SimpleToken.sol:TokenPreSale",
						"label": "preSaleStartTime",
						"offset": 0,
						"slot": "6",
						"type": "t_uint256"
					},
					{
						"astId": 947,
						"contract": "contracts/SimpleToken.sol:TokenPreSale",
						"label": "preSaleEndTime",
						"offset": 0,
						"slot": "7",
						"type": "t_uint256"
					},
					{
						"astId": 949,
						"contract": "contracts/SimpleToken.sol:TokenPreSale",
						"label": "initialPrice",
						"offset": 0,
						"slot": "8",
						"type": "t_uint256"
					},
					{
						"astId": 951,
						"contract": "contracts/SimpleToken.sol:TokenPreSale",
						"label": "regularSalePrice",
						"offset": 0,
						"slot": "9",
						"type": "t_uint256"
					},
					{
						"astId": 953,
						"contract": "contracts/SimpleToken.sol:TokenPreSale",
						"label": "weeklyIncreaseRate",
						"offset": 0,
						"slot": "10",
						"type": "t_uint256"
					},
					{
						"astId": 955,
						"contract": "contracts/SimpleToken.sol:TokenPreSale",
						"label": "tokensSold",
						"offset": 0,
						"slot": "11",
						"type": "t_uint256"
					},
					{
						"astId": 957,
						"contract": "contracts/SimpleToken.sol:TokenPreSale",
						"label": "preSaleWeeksInWeeks",
						"offset": 0,
						"slot": "12",
						"type": "t_uint256"
					},
					{
						"astId": 959,
						"contract": "contracts/SimpleToken.sol:TokenPreSale",
						"label": "stakingRewardRate",
						"offset": 0,
						"slot": "13",
						"type": "t_uint256"
					},
					{
						"astId": 963,
						"contract": "contracts/SimpleToken.sol:TokenPreSale",
						"label": "stakedAmount",
						"offset": 0,
						"slot": "14",
						"type": "t_mapping(t_address,t_uint256)"
					},
					{
						"astId": 967,
						"contract": "contracts/SimpleToken.sol:TokenPreSale",
						"label": "stakingTimestamp",
						"offset": 0,
						"slot": "15",
						"type": "t_mapping(t_address,t_uint256)"
					},
					{
						"astId": 971,
						"contract": "contracts/SimpleToken.sol:TokenPreSale",
						"label": "whitelist",
						"offset": 0,
						"slot": "16",
						"type": "t_mapping(t_address,t_bool)"
					},
					{
						"astId": 975,
						"contract": "contracts/SimpleToken.sol:TokenPreSale",
						"label": "referrals",
						"offset": 0,
						"slot": "17",
						"type": "t_mapping(t_address,t_address)"
					},
					{
						"astId": 979,
						"contract": "contracts/SimpleToken.sol:TokenPreSale",
						"label": "referralCounts",
						"offset": 0,
						"slot": "18",
						"type": "t_mapping(t_address,t_uint256)"
					}
				],
				"types": {
					"t_address": {
						"encoding": "inplace",
						"label": "address",
						"numberOfBytes": "20"
					},
					"t_bool": {
						"encoding": "inplace",
						"label": "bool",
						"numberOfBytes": "1"
					},
					"t_mapping(t_address,t_address)": {
						"encoding": "mapping",
						"key": "t_address",
						"label": "mapping(address => address)",
						"numberOfBytes": "32",
						"value": "t_address"
					},
					"t_mapping(t_address,t_bool)": {
						"encoding": "mapping",
						"key": "t_address",
						"label": "mapping(address => bool)",
						"numberOfBytes": "32",
						"value": "t_bool"
					},
					"t_mapping(t_address,t_mapping(t_address,t_uint256))": {
						"encoding": "mapping",
						"key": "t_address",
						"label": "mapping(address => mapping(address => uint256))",
						"numberOfBytes": "32",
						"value": "t_mapping(t_address,t_uint256)"
					},
					"t_mapping(t_address,t_uint256)": {
						"encoding": "mapping",
						"key": "t_address",
						"label": "mapping(address => uint256)",
						"numberOfBytes": "32",
						"value": "t_uint256"
					},
					"t_string_storage": {
						"encoding": "bytes",
						"label": "string",
						"numberOfBytes": "32"
					},
					"t_uint256": {
						"encoding": "inplace",
						"label": "uint256",
						"numberOfBytes": "32"
					}
				}
			},
			"userdoc": {
				"kind": "user",
				"methods": {
					"buyTokens()": {
						"notice": "Buy tokens during the presale or regular sale."
					},
					"startPreSale(uint256,uint256)": {
						"notice": "Start the pre-sale"
					}
				},
				"version": 1
			}
		}
	}
}