{
	"contracts/SimpleToken.sol": {
		"TokenPreSale": {
			"abi": [
				{
					"inputs": [
						{
							"internalType": "address",
							"name": "initialOwner",
							"type": "address"
						},
						{
							"internalType": "uint256",
							"name": "totalSupply",
							"type": "uint256"
						},
						{
							"internalType": "uint256",
							"name": "_initialPrice",
							"type": "uint256"
						},
						{
							"internalType": "uint256",
							"name": "_regularSalePrice",
							"type": "uint256"
						},
						{
							"internalType": "uint256",
							"name": "_stakingRewardRate",
							"type": "uint256"
						},
						{
							"internalType": "uint256",
							"name": "_minUnstakingPeriod",
							"type": "uint256"
						},
						{
							"internalType": "uint256",
							"name": "_stakingRewardFrequency",
							"type": "uint256"
						}
					],
					"stateMutability": "nonpayable",
					"type": "constructor"
				},
				{
					"inputs": [
						{
							"internalType": "address",
							"name": "spender",
							"type": "address"
						},
						{
							"internalType": "uint256",
							"name": "allowance",
							"type": "uint256"
						},
						{
							"internalType": "uint256",
							"name": "needed",
							"type": "uint256"
						}
					],
					"name": "ERC20InsufficientAllowance",
					"type": "error"
				},
				{
					"inputs": [
						{
							"internalType": "address",
							"name": "sender",
							"type": "address"
						},
						{
							"internalType": "uint256",
							"name": "balance",
							"type": "uint256"
						},
						{
							"internalType": "uint256",
							"name": "needed",
							"type": "uint256"
						}
					],
					"name": "ERC20InsufficientBalance",
					"type": "error"
				},
				{
					"inputs": [
						{
							"internalType": "address",
							"name": "approver",
							"type": "address"
						}
					],
					"name": "ERC20InvalidApprover",
					"type": "error"
				},
				{
					"inputs": [
						{
							"internalType": "address",
							"name": "receiver",
							"type": "address"
						}
					],
					"name": "ERC20InvalidReceiver",
					"type": "error"
				},
				{
					"inputs": [
						{
							"internalType": "address",
							"name": "sender",
							"type": "address"
						}
					],
					"name": "ERC20InvalidSender",
					"type": "error"
				},
				{
					"inputs": [
						{
							"internalType": "address",
							"name": "spender",
							"type": "address"
						}
					],
					"name": "ERC20InvalidSpender",
					"type": "error"
				},
				{
					"inputs": [
						{
							"internalType": "address",
							"name": "owner",
							"type": "address"
						}
					],
					"name": "OwnableInvalidOwner",
					"type": "error"
				},
				{
					"inputs": [
						{
							"internalType": "address",
							"name": "account",
							"type": "address"
						}
					],
					"name": "OwnableUnauthorizedAccount",
					"type": "error"
				},
				{
					"anonymous": false,
					"inputs": [
						{
							"indexed": true,
							"internalType": "address",
							"name": "owner",
							"type": "address"
						},
						{
							"indexed": true,
							"internalType": "address",
							"name": "spender",
							"type": "address"
						},
						{
							"indexed": false,
							"internalType": "uint256",
							"name": "value",
							"type": "uint256"
						}
					],
					"name": "Approval",
					"type": "event"
				},
				{
					"anonymous": false,
					"inputs": [
						{
							"indexed": true,
							"internalType": "address",
							"name": "previousOwner",
							"type": "address"
						},
						{
							"indexed": true,
							"internalType": "address",
							"name": "newOwner",
							"type": "address"
						}
					],
					"name": "OwnershipTransferred",
					"type": "event"
				},
				{
					"anonymous": false,
					"inputs": [
						{
							"indexed": false,
							"internalType": "uint256",
							"name": "endTime",
							"type": "uint256"
						}
					],
					"name": "PreSaleEnded",
					"type": "event"
				},
				{
					"anonymous": false,
					"inputs": [
						{
							"indexed": false,
							"internalType": "uint256",
							"name": "startTime",
							"type": "uint256"
						},
						{
							"indexed": false,
							"internalType": "uint256",
							"name": "endTime",
							"type": "uint256"
						}
					],
					"name": "PreSaleStarted",
					"type": "event"
				},
				{
					"anonymous": false,
					"inputs": [
						{
							"indexed": true,
							"internalType": "address",
							"name": "referrer",
							"type": "address"
						},
						{
							"indexed": false,
							"internalType": "uint256",
							"name": "rewardAmount",
							"type": "uint256"
						}
					],
					"name": "ReferralRewardMinted",
					"type": "event"
				},
				{
					"anonymous": false,
					"inputs": [
						{
							"indexed": true,
							"internalType": "address",
							"name": "buyer",
							"type": "address"
						},
						{
							"indexed": false,
							"internalType": "uint256",
							"name": "amount",
							"type": "uint256"
						},
						{
							"indexed": false,
							"internalType": "uint256",
							"name": "cost",
							"type": "uint256"
						}
					],
					"name": "TokensPurchased",
					"type": "event"
				},
				{
					"anonymous": false,
					"inputs": [
						{
							"indexed": true,
							"internalType": "address",
							"name": "user",
							"type": "address"
						},
						{
							"indexed": false,
							"internalType": "uint256",
							"name": "amount",
							"type": "uint256"
						}
					],
					"name": "TokensStaked",
					"type": "event"
				},
				{
					"anonymous": false,
					"inputs": [
						{
							"indexed": true,
							"internalType": "address",
							"name": "user",
							"type": "address"
						},
						{
							"indexed": false,
							"internalType": "uint256",
							"name": "amount",
							"type": "uint256"
						},
						{
							"indexed": false,
							"internalType": "uint256",
							"name": "reward",
							"type": "uint256"
						}
					],
					"name": "TokensUnstaked",
					"type": "event"
				},
				{
					"anonymous": false,
					"inputs": [
						{
							"indexed": true,
							"internalType": "address",
							"name": "from",
							"type": "address"
						},
						{
							"indexed": true,
							"internalType": "address",
							"name": "to",
							"type": "address"
						},
						{
							"indexed": false,
							"internalType": "uint256",
							"name": "value",
							"type": "uint256"
						}
					],
					"name": "Transfer",
					"type": "event"
				},
				{
					"anonymous": false,
					"inputs": [
						{
							"indexed": true,
							"internalType": "address",
							"name": "user",
							"type": "address"
						},
						{
							"indexed": true,
							"internalType": "address",
							"name": "referral",
							"type": "address"
						}
					],
					"name": "UserWhitelisted",
					"type": "event"
				},
				{
					"inputs": [
						{
							"internalType": "address",
							"name": "owner",
							"type": "address"
						},
						{
							"internalType": "address",
							"name": "spender",
							"type": "address"
						}
					],
					"name": "allowance",
					"outputs": [
						{
							"internalType": "uint256",
							"name": "",
							"type": "uint256"
						}
					],
					"stateMutability": "view",
					"type": "function"
				},
				{
					"inputs": [
						{
							"internalType": "address",
							"name": "spender",
							"type": "address"
						},
						{
							"internalType": "uint256",
							"name": "value",
							"type": "uint256"
						}
					],
					"name": "approve",
					"outputs": [
						{
							"internalType": "bool",
							"name": "",
							"type": "bool"
						}
					],
					"stateMutability": "nonpayable",
					"type": "function"
				},
				{
					"inputs": [
						{
							"internalType": "address",
							"name": "account",
							"type": "address"
						}
					],
					"name": "balanceOf",
					"outputs": [
						{
							"internalType": "uint256",
							"name": "",
							"type": "uint256"
						}
					],
					"stateMutability": "view",
					"type": "function"
				},
				{
					"inputs": [
						{
							"internalType": "address",
							"name": "",
							"type": "address"
						}
					],
					"name": "balances",
					"outputs": [
						{
							"internalType": "uint256",
							"name": "",
							"type": "uint256"
						}
					],
					"stateMutability": "view",
					"type": "function"
				},
				{
					"inputs": [],
					"name": "buyTokens",
					"outputs": [],
					"stateMutability": "payable",
					"type": "function"
				},
				{
					"inputs": [],
					"name": "calculatePrice",
					"outputs": [
						{
							"internalType": "uint256",
							"name": "",
							"type": "uint256"
						}
					],
					"stateMutability": "view",
					"type": "function"
				},
				{
					"inputs": [],
					"name": "calculatePriceIncrease",
					"outputs": [
						{
							"internalType": "uint256",
							"name": "",
							"type": "uint256"
						}
					],
					"stateMutability": "view",
					"type": "function"
				},
				{
					"inputs": [],
					"name": "calculateReferralReward",
					"outputs": [
						{
							"internalType": "uint256",
							"name": "",
							"type": "uint256"
						}
					],
					"stateMutability": "view",
					"type": "function"
				},
				{
					"inputs": [],
					"name": "calculateStakingReward",
					"outputs": [
						{
							"internalType": "uint256",
							"name": "",
							"type": "uint256"
						}
					],
					"stateMutability": "view",
					"type": "function"
				},
				{
					"inputs": [
						{
							"internalType": "uint256",
							"name": "startTime",
							"type": "uint256"
						},
						{
							"internalType": "uint256",
							"name": "endTime",
							"type": "uint256"
						}
					],
					"name": "calculateStepsElapsed",
					"outputs": [
						{
							"internalType": "uint256",
							"name": "",
							"type": "uint256"
						}
					],
					"stateMutability": "view",
					"type": "function"
				},
				{
					"inputs": [],
					"name": "decimals",
					"outputs": [
						{
							"internalType": "uint8",
							"name": "",
							"type": "uint8"
						}
					],
					"stateMutability": "view",
					"type": "function"
				},
				{
					"inputs": [],
					"name": "getBalance",
					"outputs": [
						{
							"internalType": "uint256",
							"name": "",
							"type": "uint256"
						}
					],
					"stateMutability": "view",
					"type": "function"
				},
				{
					"inputs": [],
					"name": "getCurrentStep",
					"outputs": [
						{
							"internalType": "uint256",
							"name": "",
							"type": "uint256"
						}
					],
					"stateMutability": "view",
					"type": "function"
				},
				{
					"inputs": [],
					"name": "getStackedTokens",
					"outputs": [
						{
							"internalType": "uint256",
							"name": "",
							"type": "uint256"
						}
					],
					"stateMutability": "view",
					"type": "function"
				},
				{
					"inputs": [],
					"name": "getStackingPeriod",
					"outputs": [
						{
							"internalType": "uint256",
							"name": "",
							"type": "uint256"
						}
					],
					"stateMutability": "view",
					"type": "function"
				},
				{
					"inputs": [],
					"name": "initialPrice",
					"outputs": [
						{
							"internalType": "uint256",
							"name": "",
							"type": "uint256"
						}
					],
					"stateMutability": "view",
					"type": "function"
				},
				{
					"inputs": [],
					"name": "minUnstakingPeriod",
					"outputs": [
						{
							"internalType": "uint256",
							"name": "",
							"type": "uint256"
						}
					],
					"stateMutability": "view",
					"type": "function"
				},
				{
					"inputs": [],
					"name": "mintReferralReward",
					"outputs": [],
					"stateMutability": "nonpayable",
					"type": "function"
				},
				{
					"inputs": [],
					"name": "name",
					"outputs": [
						{
							"internalType": "string",
							"name": "",
							"type": "string"
						}
					],
					"stateMutability": "view",
					"type": "function"
				},
				{
					"inputs": [],
					"name": "owner",
					"outputs": [
						{
							"internalType": "address",
							"name": "",
							"type": "address"
						}
					],
					"stateMutability": "view",
					"type": "function"
				},
				{
					"inputs": [],
					"name": "preSaleEndTime",
					"outputs": [
						{
							"internalType": "uint256",
							"name": "",
							"type": "uint256"
						}
					],
					"stateMutability": "view",
					"type": "function"
				},
				{
					"inputs": [],
					"name": "preSaleStartTime",
					"outputs": [
						{
							"internalType": "uint256",
							"name": "",
							"type": "uint256"
						}
					],
					"stateMutability": "view",
					"type": "function"
				},
				{
					"inputs": [],
					"name": "preSaleSteps",
					"outputs": [
						{
							"internalType": "uint256",
							"name": "",
							"type": "uint256"
						}
					],
					"stateMutability": "view",
					"type": "function"
				},
				{
					"inputs": [],
					"name": "presaleIsActive",
					"outputs": [
						{
							"internalType": "bool",
							"name": "",
							"type": "bool"
						}
					],
					"stateMutability": "view",
					"type": "function"
				},
				{
					"inputs": [
						{
							"internalType": "address",
							"name": "",
							"type": "address"
						}
					],
					"name": "referralCounts",
					"outputs": [
						{
							"internalType": "uint256",
							"name": "",
							"type": "uint256"
						}
					],
					"stateMutability": "view",
					"type": "function"
				},
				{
					"inputs": [
						{
							"internalType": "address",
							"name": "",
							"type": "address"
						}
					],
					"name": "referrals",
					"outputs": [
						{
							"internalType": "address",
							"name": "",
							"type": "address"
						}
					],
					"stateMutability": "view",
					"type": "function"
				},
				{
					"inputs": [],
					"name": "regularSalePrice",
					"outputs": [
						{
							"internalType": "uint256",
							"name": "",
							"type": "uint256"
						}
					],
					"stateMutability": "view",
					"type": "function"
				},
				{
					"inputs": [],
					"name": "renounceOwnership",
					"outputs": [],
					"stateMutability": "nonpayable",
					"type": "function"
				},
				{
					"inputs": [
						{
							"internalType": "address",
							"name": "referral",
							"type": "address"
						}
					],
					"name": "signUpForWhitelist",
					"outputs": [],
					"stateMutability": "nonpayable",
					"type": "function"
				},
				{
					"inputs": [
						{
							"internalType": "uint256",
							"name": "amount",
							"type": "uint256"
						}
					],
					"name": "stakeTokens",
					"outputs": [],
					"stateMutability": "nonpayable",
					"type": "function"
				},
				{
					"inputs": [
						{
							"internalType": "address",
							"name": "",
							"type": "address"
						}
					],
					"name": "stakedAmount",
					"outputs": [
						{
							"internalType": "uint256",
							"name": "",
							"type": "uint256"
						}
					],
					"stateMutability": "view",
					"type": "function"
				},
				{
					"inputs": [],
					"name": "stakingRewardFrequency",
					"outputs": [
						{
							"internalType": "uint256",
							"name": "",
							"type": "uint256"
						}
					],
					"stateMutability": "view",
					"type": "function"
				},
				{
					"inputs": [],
					"name": "stakingRewardRate",
					"outputs": [
						{
							"internalType": "uint256",
							"name": "",
							"type": "uint256"
						}
					],
					"stateMutability": "view",
					"type": "function"
				},
				{
					"inputs": [
						{
							"internalType": "address",
							"name": "",
							"type": "address"
						}
					],
					"name": "stakingTimestamp",
					"outputs": [
						{
							"internalType": "uint256",
							"name": "",
							"type": "uint256"
						}
					],
					"stateMutability": "view",
					"type": "function"
				},
				{
					"inputs": [
						{
							"internalType": "uint256",
							"name": "_startTime",
							"type": "uint256"
						},
						{
							"internalType": "uint256",
							"name": "_endTime",
							"type": "uint256"
						},
						{
							"internalType": "uint256",
							"name": "steps",
							"type": "uint256"
						}
					],
					"name": "startPreSale",
					"outputs": [],
					"stateMutability": "nonpayable",
					"type": "function"
				},
				{
					"inputs": [],
					"name": "symbol",
					"outputs": [
						{
							"internalType": "string",
							"name": "",
							"type": "string"
						}
					],
					"stateMutability": "view",
					"type": "function"
				},
				{
					"inputs": [],
					"name": "tokensSold",
					"outputs": [
						{
							"internalType": "uint256",
							"name": "",
							"type": "uint256"
						}
					],
					"stateMutability": "view",
					"type": "function"
				},
				{
					"inputs": [],
					"name": "totalSupply",
					"outputs": [
						{
							"internalType": "uint256",
							"name": "",
							"type": "uint256"
						}
					],
					"stateMutability": "view",
					"type": "function"
				},
				{
					"inputs": [
						{
							"internalType": "address",
							"name": "to",
							"type": "address"
						},
						{
							"internalType": "uint256",
							"name": "value",
							"type": "uint256"
						}
					],
					"name": "transfer",
					"outputs": [
						{
							"internalType": "bool",
							"name": "",
							"type": "bool"
						}
					],
					"stateMutability": "nonpayable",
					"type": "function"
				},
				{
					"inputs": [
						{
							"internalType": "address",
							"name": "from",
							"type": "address"
						},
						{
							"internalType": "address",
							"name": "to",
							"type": "address"
						},
						{
							"internalType": "uint256",
							"name": "value",
							"type": "uint256"
						}
					],
					"name": "transferFrom",
					"outputs": [
						{
							"internalType": "bool",
							"name": "",
							"type": "bool"
						}
					],
					"stateMutability": "nonpayable",
					"type": "function"
				},
				{
					"inputs": [
						{
							"internalType": "address",
							"name": "newOwner",
							"type": "address"
						}
					],
					"name": "transferOwnership",
					"outputs": [],
					"stateMutability": "nonpayable",
					"type": "function"
				},
				{
					"inputs": [],
					"name": "unstakeTokens",
					"outputs": [],
					"stateMutability": "nonpayable",
					"type": "function"
				},
				{
					"inputs": [
						{
							"internalType": "address",
							"name": "",
							"type": "address"
						}
					],
					"name": "whitelist",
					"outputs": [
						{
							"internalType": "bool",
							"name": "",
							"type": "bool"
						}
					],
					"stateMutability": "view",
					"type": "function"
				}
			],
			"devdoc": {
				"errors": {
					"ERC20InsufficientAllowance(address,uint256,uint256)": [
						{
							"details": "Indicates a failure with the `spender`’s `allowance`. Used in transfers.",
							"params": {
								"allowance": "Amount of tokens a `spender` is allowed to operate with.",
								"needed": "Minimum amount required to perform a transfer.",
								"spender": "Address that may be allowed to operate on tokens without being their owner."
							}
						}
					],
					"ERC20InsufficientBalance(address,uint256,uint256)": [
						{
							"details": "Indicates an error related to the current `balance` of a `sender`. Used in transfers.",
							"params": {
								"balance": "Current balance for the interacting account.",
								"needed": "Minimum amount required to perform a transfer.",
								"sender": "Address whose tokens are being transferred."
							}
						}
					],
					"ERC20InvalidApprover(address)": [
						{
							"details": "Indicates a failure with the `approver` of a token to be approved. Used in approvals.",
							"params": {
								"approver": "Address initiating an approval operation."
							}
						}
					],
					"ERC20InvalidReceiver(address)": [
						{
							"details": "Indicates a failure with the token `receiver`. Used in transfers.",
							"params": {
								"receiver": "Address to which tokens are being transferred."
							}
						}
					],
					"ERC20InvalidSender(address)": [
						{
							"details": "Indicates a failure with the token `sender`. Used in transfers.",
							"params": {
								"sender": "Address whose tokens are being transferred."
							}
						}
					],
					"ERC20InvalidSpender(address)": [
						{
							"details": "Indicates a failure with the `spender` to be approved. Used in approvals.",
							"params": {
								"spender": "Address that may be allowed to operate on tokens without being their owner."
							}
						}
					],
					"OwnableInvalidOwner(address)": [
						{
							"details": "The owner is not a valid owner account. (eg. `address(0)`)"
						}
					],
					"OwnableUnauthorizedAccount(address)": [
						{
							"details": "The caller account is not authorized to perform an operation."
						}
					]
				},
				"events": {
					"Approval(address,address,uint256)": {
						"details": "Emitted when the allowance of a `spender` for an `owner` is set by a call to {approve}. `value` is the new allowance."
					},
					"Transfer(address,address,uint256)": {
						"details": "Emitted when `value` tokens are moved from one account (`from`) to another (`to`). Note that `value` may be zero."
					}
				},
				"kind": "dev",
				"methods": {
					"allowance(address,address)": {
						"details": "See {IERC20-allowance}."
					},
					"approve(address,uint256)": {
						"details": "See {IERC20-approve}. NOTE: If `value` is the maximum `uint256`, the allowance is not updated on `transferFrom`. This is semantically equivalent to an infinite approval. Requirements: - `spender` cannot be the zero address."
					},
					"balanceOf(address)": {
						"details": "See {IERC20-balanceOf}."
					},
					"decimals()": {
						"details": "Returns the number of decimals used to get its user representation. For example, if `decimals` equals `2`, a balance of `505` tokens should be displayed to a user as `5.05` (`505 / 10 ** 2`). Tokens usually opt for a value of 18, imitating the relationship between Ether and Wei. This is the default value returned by this function, unless it's overridden. NOTE: This information is only used for _display_ purposes: it in no way affects any of the arithmetic of the contract, including {IERC20-balanceOf} and {IERC20-transfer}."
					},
					"name()": {
						"details": "Returns the name of the token."
					},
					"owner()": {
						"details": "Returns the address of the current owner."
					},
					"renounceOwnership()": {
						"details": "Leaves the contract without owner. It will not be possible to call `onlyOwner` functions. Can only be called by the current owner. NOTE: Renouncing ownership will leave the contract without an owner, thereby disabling any functionality that is only available to the owner."
					},
					"symbol()": {
						"details": "Returns the symbol of the token, usually a shorter version of the name."
					},
					"totalSupply()": {
						"details": "See {IERC20-totalSupply}."
					},
					"transfer(address,uint256)": {
						"details": "See {IERC20-transfer}. Requirements: - `to` cannot be the zero address. - the caller must have a balance of at least `value`."
					},
					"transferFrom(address,address,uint256)": {
						"details": "See {IERC20-transferFrom}. Skips emitting an {Approval} event indicating an allowance update. This is not required by the ERC. See {xref-ERC20-_approve-address-address-uint256-bool-}[_approve]. NOTE: Does not update the allowance if the current allowance is the maximum `uint256`. Requirements: - `from` and `to` cannot be the zero address. - `from` must have a balance of at least `value`. - the caller must have allowance for ``from``'s tokens of at least `value`."
					},
					"transferOwnership(address)": {
						"details": "Transfers ownership of the contract to a new account (`newOwner`). Can only be called by the current owner."
					}
				},
				"version": 1
			},
			"evm": {
				"assembly": "    /* \"contracts/SimpleToken.sol\":174:7256  contract TokenPreSale is ERC20, Ownable {... */\n  mstore(0x40, 0x80)\n    /* \"contracts/SimpleToken.sol\":1416:2019  constructor(address initialOwner, uint256 totalSupply, uint256 _initialPrice, uint256 _regularSalePrice, uint256 _stakingRewardRate,uint256 _minUnstakingPeriod,uint256 _stakingRewardFrequency ) ... */\n  callvalue\n  dup1\n  iszero\n  tag_1\n  jumpi\n  0x00\n  dup1\n  revert\ntag_1:\n  pop\n  mload(0x40)\n  sub(codesize, bytecodeSize)\n  dup1\n  bytecodeSize\n  dup4\n  codecopy\n  dup2\n  add\n  0x40\n  dup2\n  swap1\n  mstore\n  tag_2\n  swap2\n  tag_3\n  jump\t// in\ntag_2:\n    /* \"contracts/SimpleToken.sol\":1666:1678  initialOwner */\n  dup7\n    /* \"@openzeppelin/contracts/token/ERC20/ERC20.sol\":1601:1714  constructor(string memory name_, string memory symbol_) {... */\n  mload(0x40)\n  dup1\n  0x40\n  add\n  0x40\n  mstore\n  dup1\n  0x0b\n  dup2\n  mstore\n  0x20\n  add\n  shl(0xa9, 0x2730ba3ab932aa37b5b2b7)\n  dup2\n  mstore\n  pop\n  mload(0x40)\n  dup1\n  0x40\n  add\n  0x40\n  mstore\n  dup1\n  0x03\n  dup2\n  mstore\n  0x20\n  add\n  shl(0xe9, 0x272a29)\n  dup2\n  mstore\n  pop\n    /* \"@openzeppelin/contracts/token/ERC20/ERC20.sol\":1675:1680  name_ */\n  dup2\n    /* \"@openzeppelin/contracts/token/ERC20/ERC20.sol\":1667:1672  _name */\n  0x03\n    /* \"@openzeppelin/contracts/token/ERC20/ERC20.sol\":1667:1680  _name = name_ */\n  swap1\n  dup2\n  tag_8\n  swap2\n  swap1\n  tag_9\n  jump\t// in\ntag_8:\n  pop\n    /* \"@openzeppelin/contracts/token/ERC20/ERC20.sol\":1690:1697  _symbol */\n  0x04\n    /* \"@openzeppelin/contracts/token/ERC20/ERC20.sol\":1690:1707  _symbol = symbol_ */\n  tag_10\n    /* \"@openzeppelin/contracts/token/ERC20/ERC20.sol\":1700:1707  symbol_ */\n  dup3\n    /* \"@openzeppelin/contracts/token/ERC20/ERC20.sol\":1690:1697  _symbol */\n  dup3\n    /* \"@openzeppelin/contracts/token/ERC20/ERC20.sol\":1690:1707  _symbol = symbol_ */\n  tag_9\n  jump\t// in\ntag_10:\n  pop\n  pop\n  pop\n  sub(shl(0xa0, 0x01), 0x01)\n    /* \"@openzeppelin/contracts/access/Ownable.sol\":1273:1299  initialOwner == address(0) */\n  dup2\n  and\n    /* \"@openzeppelin/contracts/access/Ownable.sol\":1269:1364  if (initialOwner == address(0)) {... */\n  tag_12\n  jumpi\n    /* \"@openzeppelin/contracts/access/Ownable.sol\":1322:1353  OwnableInvalidOwner(address(0)) */\n  mload(0x40)\n  shl(0xe0, 0x1e4fbdf7)\n  dup2\n  mstore\n    /* \"@openzeppelin/contracts/access/Ownable.sol\":1350:1351  0 */\n  0x00\n    /* \"@openzeppelin/contracts/access/Ownable.sol\":1322:1353  OwnableInvalidOwner(address(0)) */\n  0x04\n  dup3\n  add\n    /* \"#utility.yul\":3778:3829   */\n  mstore\n    /* \"#utility.yul\":3751:3769   */\n  0x24\n  add\n    /* \"@openzeppelin/contracts/access/Ownable.sol\":1322:1353  OwnableInvalidOwner(address(0)) */\ntag_13:\n  mload(0x40)\n  dup1\n  swap2\n  sub\n  swap1\n  revert\n    /* \"@openzeppelin/contracts/access/Ownable.sol\":1269:1364  if (initialOwner == address(0)) {... */\ntag_12:\n    /* \"@openzeppelin/contracts/access/Ownable.sol\":1373:1405  _transferOwnership(initialOwner) */\n  tag_15\n    /* \"@openzeppelin/contracts/access/Ownable.sol\":1392:1404  initialOwner */\n  dup2\n    /* \"@openzeppelin/contracts/access/Ownable.sol\":1373:1391  _transferOwnership */\n  tag_16\n    /* \"@openzeppelin/contracts/access/Ownable.sol\":1373:1405  _transferOwnership(initialOwner) */\n  jump\t// in\ntag_15:\n  pop\n    /* \"contracts/SimpleToken.sol\":1697:1731  _mint(address(this), totalSupply ) */\n  tag_18\n    /* \"contracts/SimpleToken.sol\":1711:1715  this */\n  address\n    /* \"contracts/SimpleToken.sol\":1718:1729  totalSupply */\n  dup8\n    /* \"contracts/SimpleToken.sol\":1697:1702  _mint */\n  tag_19\n    /* \"contracts/SimpleToken.sol\":1697:1731  _mint(address(this), totalSupply ) */\n  jump\t// in\ntag_18:\n    /* \"contracts/SimpleToken.sol\":1742:1754  initialPrice */\n  0x08\n    /* \"contracts/SimpleToken.sol\":1742:1770  initialPrice = _initialPrice */\n  swap5\n  swap1\n  swap5\n  sstore\n    /* \"contracts/SimpleToken.sol\":1781:1797  regularSalePrice */\n  0x09\n    /* \"contracts/SimpleToken.sol\":1781:1817  regularSalePrice = _regularSalePrice */\n  swap3\n  swap1\n  swap3\n  sstore\n    /* \"contracts/SimpleToken.sol\":1828:1845  stakingRewardRate */\n  0x0c\n    /* \"contracts/SimpleToken.sol\":1828:1866  stakingRewardRate = _stakingRewardRate */\n  sstore\n    /* \"contracts/SimpleToken.sol\":1877:1892  presaleIsActive */\n  0x05\n    /* \"contracts/SimpleToken.sol\":1877:1900  presaleIsActive = false */\n  dup1\n  sload\n  not(shl(0xa0, 0xff))\n  and\n  swap1\n  sstore\n    /* \"contracts/SimpleToken.sol\":1911:1929  minUnstakingPeriod */\n  0x0d\n    /* \"contracts/SimpleToken.sol\":1911:1952  minUnstakingPeriod  = _minUnstakingPeriod */\n  sstore\n    /* \"contracts/SimpleToken.sol\":1963:1985  stakingRewardFrequency */\n  0x0e\n    /* \"contracts/SimpleToken.sol\":1963:2011  stakingRewardFrequency = _stakingRewardFrequency */\n  sstore\n  pop\n    /* \"contracts/SimpleToken.sol\":174:7256  contract TokenPreSale is ERC20, Ownable {... */\n  tag_44\n  swap1\n  pop\n  jump\n    /* \"@openzeppelin/contracts/access/Ownable.sol\":2912:3099  function _transferOwnership(address newOwner) internal virtual {... */\ntag_16:\n    /* \"@openzeppelin/contracts/access/Ownable.sol\":3004:3010  _owner */\n  0x05\n  dup1\n  sload\n  sub(shl(0xa0, 0x01), 0x01)\n    /* \"@openzeppelin/contracts/access/Ownable.sol\":3020:3037  _owner = newOwner */\n  dup4\n  dup2\n  and\n  not(sub(shl(0xa0, 0x01), 0x01))\n  dup4\n  and\n  dup2\n  or\n  swap1\n  swap4\n  sstore\n    /* \"@openzeppelin/contracts/access/Ownable.sol\":3052:3092  OwnershipTransferred(oldOwner, newOwner) */\n  mload(0x40)\n    /* \"@openzeppelin/contracts/access/Ownable.sol\":3004:3010  _owner */\n  swap2\n  and\n  swap2\n    /* \"@openzeppelin/contracts/access/Ownable.sol\":3020:3037  _owner = newOwner */\n  swap1\n    /* \"@openzeppelin/contracts/access/Ownable.sol\":3004:3010  _owner */\n  dup3\n  swap1\n    /* \"@openzeppelin/contracts/access/Ownable.sol\":3052:3092  OwnershipTransferred(oldOwner, newOwner) */\n  0x8be0079c531659141344cd1fd0a4f28419497f9722a3daafe3b4186f6b6457e0\n  swap1\n    /* \"@openzeppelin/contracts/access/Ownable.sol\":2985:3001  address oldOwner */\n  0x00\n  swap1\n    /* \"@openzeppelin/contracts/access/Ownable.sol\":3052:3092  OwnershipTransferred(oldOwner, newOwner) */\n  log3\n    /* \"@openzeppelin/contracts/access/Ownable.sol\":2975:3099  {... */\n  pop\n    /* \"@openzeppelin/contracts/access/Ownable.sol\":2912:3099  function _transferOwnership(address newOwner) internal virtual {... */\n  pop\n  jump\t// out\n    /* \"@openzeppelin/contracts/token/ERC20/ERC20.sol\":7458:7666  function _mint(address account, uint256 value) internal {... */\ntag_19:\n  sub(shl(0xa0, 0x01), 0x01)\n    /* \"@openzeppelin/contracts/token/ERC20/ERC20.sol\":7528:7549  account == address(0) */\n  dup3\n  and\n    /* \"@openzeppelin/contracts/token/ERC20/ERC20.sol\":7524:7615  if (account == address(0)) {... */\n  tag_23\n  jumpi\n    /* \"@openzeppelin/contracts/token/ERC20/ERC20.sol\":7572:7604  ERC20InvalidReceiver(address(0)) */\n  mload(0x40)\n  shl(0xe0, 0xec442f05)\n  dup2\n  mstore\n    /* \"@openzeppelin/contracts/token/ERC20/ERC20.sol\":7601:7602  0 */\n  0x00\n    /* \"@openzeppelin/contracts/token/ERC20/ERC20.sol\":7572:7604  ERC20InvalidReceiver(address(0)) */\n  0x04\n  dup3\n  add\n    /* \"#utility.yul\":3778:3829   */\n  mstore\n    /* \"#utility.yul\":3751:3769   */\n  0x24\n  add\n    /* \"@openzeppelin/contracts/token/ERC20/ERC20.sol\":7572:7604  ERC20InvalidReceiver(address(0)) */\n  tag_13\n    /* \"#utility.yul\":3632:3835   */\n  jump\n    /* \"@openzeppelin/contracts/token/ERC20/ERC20.sol\":7524:7615  if (account == address(0)) {... */\ntag_23:\n    /* \"@openzeppelin/contracts/token/ERC20/ERC20.sol\":7624:7659  _update(address(0), account, value) */\n  tag_25\n    /* \"@openzeppelin/contracts/token/ERC20/ERC20.sol\":7640:7641  0 */\n  0x00\n    /* \"@openzeppelin/contracts/token/ERC20/ERC20.sol\":7644:7651  account */\n  dup4\n    /* \"@openzeppelin/contracts/token/ERC20/ERC20.sol\":7653:7658  value */\n  dup4\n    /* \"@openzeppelin/contracts/token/ERC20/ERC20.sol\":7624:7631  _update */\n  tag_26\n    /* \"@openzeppelin/contracts/token/ERC20/ERC20.sol\":7624:7659  _update(address(0), account, value) */\n  jump\t// in\ntag_25:\n    /* \"@openzeppelin/contracts/token/ERC20/ERC20.sol\":7458:7666  function _mint(address account, uint256 value) internal {... */\n  pop\n  pop\n  jump\t// out\n    /* \"@openzeppelin/contracts/token/ERC20/ERC20.sol\":6008:7115  function _update(address from, address to, uint256 value) internal virtual {... */\ntag_26:\n  sub(shl(0xa0, 0x01), 0x01)\n    /* \"@openzeppelin/contracts/token/ERC20/ERC20.sol\":6097:6115  from == address(0) */\n  dup4\n  and\n    /* \"@openzeppelin/contracts/token/ERC20/ERC20.sol\":6093:6633  if (from == address(0)) {... */\n  tag_28\n  jumpi\n    /* \"@openzeppelin/contracts/token/ERC20/ERC20.sol\":6249:6254  value */\n  dup1\n    /* \"@openzeppelin/contracts/token/ERC20/ERC20.sol\":6233:6245  _totalSupply */\n  0x02\n  0x00\n    /* \"@openzeppelin/contracts/token/ERC20/ERC20.sol\":6233:6254  _totalSupply += value */\n  dup3\n  dup3\n  sload\n  tag_29\n  swap2\n  swap1\n  tag_30\n  jump\t// in\ntag_29:\n  swap1\n  swap2\n  sstore\n  pop\n    /* \"@openzeppelin/contracts/token/ERC20/ERC20.sol\":6093:6633  if (from == address(0)) {... */\n  tag_31\n  swap1\n  pop\n  jump\ntag_28:\n  sub(shl(0xa0, 0x01), 0x01)\n    /* \"@openzeppelin/contracts/token/ERC20/ERC20.sol\":6307:6322  _balances[from] */\n  dup4\n  and\n    /* \"@openzeppelin/contracts/token/ERC20/ERC20.sol\":6285:6304  uint256 fromBalance */\n  0x00\n    /* \"@openzeppelin/contracts/token/ERC20/ERC20.sol\":6307:6322  _balances[from] */\n  swap1\n  dup2\n  mstore\n  0x20\n  dup2\n  swap1\n  mstore\n  0x40\n  swap1\n  keccak256\n  sload\n    /* \"@openzeppelin/contracts/token/ERC20/ERC20.sol\":6340:6359  fromBalance < value */\n  dup2\n  dup2\n  lt\n    /* \"@openzeppelin/contracts/token/ERC20/ERC20.sol\":6336:6451  if (fromBalance < value) {... */\n  iszero\n  tag_32\n  jumpi\n    /* \"@openzeppelin/contracts/token/ERC20/ERC20.sol\":6386:6436  ERC20InsufficientBalance(from, fromBalance, value) */\n  mload(0x40)\n  shl(0xe2, 0x391434e3)\n  dup2\n  mstore\n  sub(shl(0xa0, 0x01), 0x01)\n    /* \"#utility.yul\":4287:4319   */\n  dup6\n  and\n    /* \"@openzeppelin/contracts/token/ERC20/ERC20.sol\":6386:6436  ERC20InsufficientBalance(from, fromBalance, value) */\n  0x04\n  dup3\n  add\n    /* \"#utility.yul\":4269:4320   */\n  mstore\n    /* \"#utility.yul\":4336:4354   */\n  0x24\n  dup2\n  add\n    /* \"#utility.yul\":4329:4363   */\n  dup3\n  swap1\n  mstore\n    /* \"#utility.yul\":4379:4397   */\n  0x44\n  dup2\n  add\n    /* \"#utility.yul\":4372:4406   */\n  dup4\n  swap1\n  mstore\n    /* \"#utility.yul\":4242:4260   */\n  0x64\n  add\n    /* \"@openzeppelin/contracts/token/ERC20/ERC20.sol\":6386:6436  ERC20InsufficientBalance(from, fromBalance, value) */\n  tag_13\n    /* \"#utility.yul\":4067:4412   */\n  jump\n    /* \"@openzeppelin/contracts/token/ERC20/ERC20.sol\":6336:6451  if (fromBalance < value) {... */\ntag_32:\n  sub(shl(0xa0, 0x01), 0x01)\n    /* \"@openzeppelin/contracts/token/ERC20/ERC20.sol\":6571:6586  _balances[from] */\n  dup5\n  and\n    /* \"@openzeppelin/contracts/token/ERC20/ERC20.sol\":6571:6580  _balances */\n  0x00\n    /* \"@openzeppelin/contracts/token/ERC20/ERC20.sol\":6571:6586  _balances[from] */\n  swap1\n  dup2\n  mstore\n  0x20\n  dup2\n  swap1\n  mstore\n  0x40\n  swap1\n  keccak256\n    /* \"@openzeppelin/contracts/token/ERC20/ERC20.sol\":6589:6608  fromBalance - value */\n  swap1\n  dup3\n  swap1\n  sub\n    /* \"@openzeppelin/contracts/token/ERC20/ERC20.sol\":6571:6608  _balances[from] = fromBalance - value */\n  swap1\n  sstore\n    /* \"@openzeppelin/contracts/token/ERC20/ERC20.sol\":6093:6633  if (from == address(0)) {... */\ntag_31:\n  sub(shl(0xa0, 0x01), 0x01)\n    /* \"@openzeppelin/contracts/token/ERC20/ERC20.sol\":6647:6663  to == address(0) */\n  dup3\n  and\n    /* \"@openzeppelin/contracts/token/ERC20/ERC20.sol\":6643:7068  if (to == address(0)) {... */\n  tag_35\n  jumpi\n    /* \"@openzeppelin/contracts/token/ERC20/ERC20.sol\":6810:6822  _totalSupply */\n  0x02\n    /* \"@openzeppelin/contracts/token/ERC20/ERC20.sol\":6810:6831  _totalSupply -= value */\n  dup1\n  sload\n  dup3\n  swap1\n  sub\n  swap1\n  sstore\n    /* \"@openzeppelin/contracts/token/ERC20/ERC20.sol\":6643:7068  if (to == address(0)) {... */\n  jump(tag_36)\ntag_35:\n  sub(shl(0xa0, 0x01), 0x01)\n    /* \"@openzeppelin/contracts/token/ERC20/ERC20.sol\":7021:7034  _balances[to] */\n  dup3\n  and\n    /* \"@openzeppelin/contracts/token/ERC20/ERC20.sol\":7021:7030  _balances */\n  0x00\n    /* \"@openzeppelin/contracts/token/ERC20/ERC20.sol\":7021:7034  _balances[to] */\n  swap1\n  dup2\n  mstore\n  0x20\n  dup2\n  swap1\n  mstore\n  0x40\n  swap1\n  keccak256\n    /* \"@openzeppelin/contracts/token/ERC20/ERC20.sol\":7021:7043  _balances[to] += value */\n  dup1\n  sload\n  dup3\n  add\n  swap1\n  sstore\n    /* \"@openzeppelin/contracts/token/ERC20/ERC20.sol\":6643:7068  if (to == address(0)) {... */\ntag_36:\n    /* \"@openzeppelin/contracts/token/ERC20/ERC20.sol\":7098:7100  to */\n  dup2\n  sub(shl(0xa0, 0x01), 0x01)\n    /* \"@openzeppelin/contracts/token/ERC20/ERC20.sol\":7083:7108  Transfer(from, to, value) */\n  and\n    /* \"@openzeppelin/contracts/token/ERC20/ERC20.sol\":7092:7096  from */\n  dup4\n  sub(shl(0xa0, 0x01), 0x01)\n    /* \"@openzeppelin/contracts/token/ERC20/ERC20.sol\":7083:7108  Transfer(from, to, value) */\n  and\n  0xddf252ad1be2c89b69c2b068fc378daa952ba7f163c4a11628f55a4df523b3ef\n    /* \"@openzeppelin/contracts/token/ERC20/ERC20.sol\":7102:7107  value */\n  dup4\n    /* \"@openzeppelin/contracts/token/ERC20/ERC20.sol\":7083:7108  Transfer(from, to, value) */\n  mload(0x40)\n  tag_37\n  swap2\n    /* \"#utility.yul\":4563:4588   */\n  dup2\n  mstore\n    /* \"#utility.yul\":4551:4553   */\n  0x20\n    /* \"#utility.yul\":4536:4554   */\n  add\n  swap1\n    /* \"#utility.yul\":4417:4594   */\n  jump\n    /* \"@openzeppelin/contracts/token/ERC20/ERC20.sol\":7083:7108  Transfer(from, to, value) */\ntag_37:\n  mload(0x40)\n  dup1\n  swap2\n  sub\n  swap1\n  log3\n    /* \"@openzeppelin/contracts/token/ERC20/ERC20.sol\":6008:7115  function _update(address from, address to, uint256 value) internal virtual {... */\n  pop\n  pop\n  pop\n  jump\t// out\n    /* \"#utility.yul\":14:986   */\ntag_3:\n    /* \"#utility.yul\":138:144   */\n  0x00\n    /* \"#utility.yul\":146:152   */\n  dup1\n    /* \"#utility.yul\":154:160   */\n  0x00\n    /* \"#utility.yul\":162:168   */\n  dup1\n    /* \"#utility.yul\":170:176   */\n  0x00\n    /* \"#utility.yul\":178:184   */\n  dup1\n    /* \"#utility.yul\":186:192   */\n  0x00\n    /* \"#utility.yul\":239:242   */\n  0xe0\n    /* \"#utility.yul\":227:236   */\n  dup9\n    /* \"#utility.yul\":218:225   */\n  dup11\n    /* \"#utility.yul\":214:237   */\n  sub\n    /* \"#utility.yul\":210:243   */\n  slt\n    /* \"#utility.yul\":207:260   */\n  iszero\n  tag_46\n  jumpi\n    /* \"#utility.yul\":256:257   */\n  0x00\n    /* \"#utility.yul\":253:254   */\n  dup1\n    /* \"#utility.yul\":246:258   */\n  revert\n    /* \"#utility.yul\":207:260   */\ntag_46:\n    /* \"#utility.yul\":282:298   */\n  dup8\n  mload\n  sub(shl(0xa0, 0x01), 0x01)\n    /* \"#utility.yul\":327:358   */\n  dup2\n  and\n    /* \"#utility.yul\":317:359   */\n  dup2\n  eq\n    /* \"#utility.yul\":307:377   */\n  tag_47\n  jumpi\n    /* \"#utility.yul\":373:374   */\n  0x00\n    /* \"#utility.yul\":370:371   */\n  dup1\n    /* \"#utility.yul\":363:375   */\n  revert\n    /* \"#utility.yul\":307:377   */\ntag_47:\n    /* \"#utility.yul\":467:469   */\n  0x20\n    /* \"#utility.yul\":452:470   */\n  dup10\n  add\n    /* \"#utility.yul\":446:471   */\n  mload\n    /* \"#utility.yul\":563:565   */\n  0x40\n    /* \"#utility.yul\":548:566   */\n  dup11\n  add\n    /* \"#utility.yul\":542:567   */\n  mload\n    /* \"#utility.yul\":659:661   */\n  0x60\n    /* \"#utility.yul\":644:662   */\n  dup12\n  add\n    /* \"#utility.yul\":638:663   */\n  mload\n    /* \"#utility.yul\":755:758   */\n  0x80\n    /* \"#utility.yul\":740:759   */\n  dup13\n  add\n    /* \"#utility.yul\":734:760   */\n  mload\n    /* \"#utility.yul\":852:855   */\n  0xa0\n    /* \"#utility.yul\":837:856   */\n  dup14\n  add\n    /* \"#utility.yul\":831:857   */\n  mload\n    /* \"#utility.yul\":949:952   */\n  0xc0\n    /* \"#utility.yul\":934:953   */\n  swap1\n  swap14\n  add\n    /* \"#utility.yul\":928:954   */\n  mload\n    /* \"#utility.yul\":396:401   */\n  swap5\n  swap15\n    /* \"#utility.yul\":446:471   */\n  swap4\n  swap14\n  pop\n    /* \"#utility.yul\":542:567   */\n  swap2\n  swap12\n    /* \"#utility.yul\":638:663   */\n  swap1\n  swap11\n  pop\n    /* \"#utility.yul\":734:760   */\n  swap1\n  swap9\n  pop\n    /* \"#utility.yul\":831:857   */\n  swap7\n  pop\n    /* \"#utility.yul\":928:954   */\n  swap1\n  swap5\n  pop\n    /* \"#utility.yul\":14:986   */\n  swap3\n  pop\n  pop\n  pop\n  jump\t// out\n    /* \"#utility.yul\":991:1118   */\ntag_39:\n    /* \"#utility.yul\":1052:1062   */\n  0x4e487b71\n    /* \"#utility.yul\":1047:1050   */\n  0xe0\n    /* \"#utility.yul\":1043:1063   */\n  shl\n    /* \"#utility.yul\":1040:1041   */\n  0x00\n    /* \"#utility.yul\":1033:1064   */\n  mstore\n    /* \"#utility.yul\":1083:1087   */\n  0x41\n    /* \"#utility.yul\":1080:1081   */\n  0x04\n    /* \"#utility.yul\":1073:1088   */\n  mstore\n    /* \"#utility.yul\":1107:1111   */\n  0x24\n    /* \"#utility.yul\":1104:1105   */\n  0x00\n    /* \"#utility.yul\":1097:1112   */\n  revert\n    /* \"#utility.yul\":1123:1503   */\ntag_40:\n    /* \"#utility.yul\":1202:1203   */\n  0x01\n    /* \"#utility.yul\":1198:1210   */\n  dup2\n  dup2\n  shr\n  swap1\n    /* \"#utility.yul\":1245:1257   */\n  dup3\n  and\n  dup1\n    /* \"#utility.yul\":1266:1327   */\n  tag_50\n  jumpi\n    /* \"#utility.yul\":1320:1324   */\n  0x7f\n    /* \"#utility.yul\":1312:1318   */\n  dup3\n    /* \"#utility.yul\":1308:1325   */\n  and\n    /* \"#utility.yul\":1298:1325   */\n  swap2\n  pop\n    /* \"#utility.yul\":1266:1327   */\ntag_50:\n    /* \"#utility.yul\":1373:1375   */\n  0x20\n    /* \"#utility.yul\":1365:1371   */\n  dup3\n    /* \"#utility.yul\":1362:1376   */\n  lt\n    /* \"#utility.yul\":1342:1360   */\n  dup2\n    /* \"#utility.yul\":1339:1377   */\n  sub\n    /* \"#utility.yul\":1336:1497   */\n  tag_51\n  jumpi\n    /* \"#utility.yul\":1419:1429   */\n  0x4e487b71\n    /* \"#utility.yul\":1414:1417   */\n  0xe0\n    /* \"#utility.yul\":1410:1430   */\n  shl\n    /* \"#utility.yul\":1407:1408   */\n  0x00\n    /* \"#utility.yul\":1400:1431   */\n  mstore\n    /* \"#utility.yul\":1454:1458   */\n  0x22\n    /* \"#utility.yul\":1451:1452   */\n  0x04\n    /* \"#utility.yul\":1444:1459   */\n  mstore\n    /* \"#utility.yul\":1482:1486   */\n  0x24\n    /* \"#utility.yul\":1479:1480   */\n  0x00\n    /* \"#utility.yul\":1472:1487   */\n  revert\n    /* \"#utility.yul\":1336:1497   */\ntag_51:\n  pop\n    /* \"#utility.yul\":1123:1503   */\n  swap2\n  swap1\n  pop\n  jump\t// out\n    /* \"#utility.yul\":1634:2152   */\ntag_42:\n    /* \"#utility.yul\":1736:1738   */\n  0x1f\n    /* \"#utility.yul\":1731:1734   */\n  dup3\n    /* \"#utility.yul\":1728:1739   */\n  gt\n    /* \"#utility.yul\":1725:2146   */\n  iszero\n  tag_54\n  jumpi\n    /* \"#utility.yul\":1772:1777   */\n  dup1\n    /* \"#utility.yul\":1769:1770   */\n  0x00\n    /* \"#utility.yul\":1762:1778   */\n  mstore\n    /* \"#utility.yul\":1816:1820   */\n  0x20\n    /* \"#utility.yul\":1813:1814   */\n  0x00\n    /* \"#utility.yul\":1803:1821   */\n  keccak256\n    /* \"#utility.yul\":1886:1888   */\n  0x1f\n    /* \"#utility.yul\":1874:1884   */\n  dup5\n    /* \"#utility.yul\":1870:1889   */\n  add\n    /* \"#utility.yul\":1867:1868   */\n  0x05\n    /* \"#utility.yul\":1863:1890   */\n  shr\n    /* \"#utility.yul\":1857:1861   */\n  dup2\n    /* \"#utility.yul\":1853:1891   */\n  add\n    /* \"#utility.yul\":1922:1926   */\n  0x20\n    /* \"#utility.yul\":1910:1920   */\n  dup6\n    /* \"#utility.yul\":1907:1927   */\n  lt\n    /* \"#utility.yul\":1904:1951   */\n  iszero\n  tag_55\n  jumpi\n  pop\n    /* \"#utility.yul\":1945:1949   */\n  dup1\n    /* \"#utility.yul\":1904:1951   */\ntag_55:\n    /* \"#utility.yul\":2000:2002   */\n  0x1f\n    /* \"#utility.yul\":1995:1998   */\n  dup5\n    /* \"#utility.yul\":1991:2003   */\n  add\n    /* \"#utility.yul\":1988:1989   */\n  0x05\n    /* \"#utility.yul\":1984:2004   */\n  shr\n    /* \"#utility.yul\":1978:1982   */\n  dup3\n    /* \"#utility.yul\":1974:2005   */\n  add\n    /* \"#utility.yul\":1964:2005   */\n  swap2\n  pop\n    /* \"#utility.yul\":2055:2136   */\ntag_56:\n    /* \"#utility.yul\":2073:2075   */\n  dup2\n    /* \"#utility.yul\":2066:2071   */\n  dup2\n    /* \"#utility.yul\":2063:2076   */\n  lt\n    /* \"#utility.yul\":2055:2136   */\n  iszero\n  tag_58\n  jumpi\n    /* \"#utility.yul\":2132:2133   */\n  0x00\n    /* \"#utility.yul\":2118:2134   */\n  dup2\n  sstore\n    /* \"#utility.yul\":2099:2100   */\n  0x01\n    /* \"#utility.yul\":2088:2101   */\n  add\n    /* \"#utility.yul\":2055:2136   */\n  jump(tag_56)\ntag_58:\n    /* \"#utility.yul\":2059:2062   */\n  pop\n  pop\n    /* \"#utility.yul\":1725:2146   */\ntag_54:\n    /* \"#utility.yul\":1634:2152   */\n  pop\n  pop\n  pop\n  jump\t// out\n    /* \"#utility.yul\":2328:3627   */\ntag_9:\n    /* \"#utility.yul\":2448:2458   */\n  dup2\n  mload\n  sub(shl(0x40, 0x01), 0x01)\n    /* \"#utility.yul\":2470:2500   */\n  dup2\n  gt\n    /* \"#utility.yul\":2467:2523   */\n  iszero\n  tag_62\n  jumpi\n    /* \"#utility.yul\":2503:2521   */\n  tag_62\n  tag_39\n  jump\t// in\ntag_62:\n    /* \"#utility.yul\":2532:2629   */\n  tag_63\n    /* \"#utility.yul\":2622:2628   */\n  dup2\n    /* \"#utility.yul\":2582:2620   */\n  tag_64\n    /* \"#utility.yul\":2614:2618   */\n  dup5\n    /* \"#utility.yul\":2608:2619   */\n  sload\n    /* \"#utility.yul\":2582:2620   */\n  tag_40\n  jump\t// in\ntag_64:\n    /* \"#utility.yul\":2576:2580   */\n  dup5\n    /* \"#utility.yul\":2532:2629   */\n  tag_42\n  jump\t// in\ntag_63:\n    /* \"#utility.yul\":2678:2682   */\n  0x20\n    /* \"#utility.yul\":2709:2711   */\n  0x1f\n    /* \"#utility.yul\":2698:2712   */\n  dup3\n  gt\n    /* \"#utility.yul\":2726:2727   */\n  0x01\n    /* \"#utility.yul\":2721:3370   */\n  dup2\n  eq\n  tag_66\n  jumpi\n    /* \"#utility.yul\":3414:3415   */\n  0x00\n    /* \"#utility.yul\":3431:3437   */\n  dup4\n    /* \"#utility.yul\":3428:3517   */\n  iszero\n  tag_67\n  jumpi\n  pop\n    /* \"#utility.yul\":3483:3502   */\n  dup5\n  dup3\n  add\n    /* \"#utility.yul\":3477:3503   */\n  mload\n    /* \"#utility.yul\":3428:3517   */\ntag_67:\n  not(0x00)\n    /* \"#utility.yul\":2285:2286   */\n  0x03\n    /* \"#utility.yul\":2281:2292   */\n  dup6\n  swap1\n  shl\n    /* \"#utility.yul\":2277:2301   */\n  shr\n    /* \"#utility.yul\":2273:2302   */\n  not\n    /* \"#utility.yul\":2263:2303   */\n  and\n    /* \"#utility.yul\":2309:2310   */\n  0x01\n    /* \"#utility.yul\":2305:2316   */\n  dup5\n  swap1\n  shl\n    /* \"#utility.yul\":2260:2317   */\n  or\n    /* \"#utility.yul\":3530:3611   */\n  dup5\n  sstore\n    /* \"#utility.yul\":2691:3621   */\n  jump(tag_58)\n    /* \"#utility.yul\":2721:3370   */\ntag_66:\n    /* \"#utility.yul\":1581:1582   */\n  0x00\n    /* \"#utility.yul\":1574:1588   */\n  dup5\n  dup2\n  mstore\n    /* \"#utility.yul\":1618:1622   */\n  0x20\n    /* \"#utility.yul\":1605:1623   */\n  dup2\n  keccak256\n  not(0x1f)\n    /* \"#utility.yul\":2757:2777   */\n  dup6\n  and\n  swap2\n    /* \"#utility.yul\":2875:3097   */\ntag_70:\n    /* \"#utility.yul\":2889:2896   */\n  dup3\n    /* \"#utility.yul\":2886:2887   */\n  dup2\n    /* \"#utility.yul\":2883:2897   */\n  lt\n    /* \"#utility.yul\":2875:3097   */\n  iszero\n  tag_72\n  jumpi\n    /* \"#utility.yul\":2971:2990   */\n  dup8\n  dup6\n  add\n    /* \"#utility.yul\":2965:2991   */\n  mload\n    /* \"#utility.yul\":2950:2992   */\n  dup3\n  sstore\n    /* \"#utility.yul\":3078:3082   */\n  0x20\n    /* \"#utility.yul\":3063:3083   */\n  swap5\n  dup6\n  add\n  swap5\n    /* \"#utility.yul\":3031:3032   */\n  0x01\n    /* \"#utility.yul\":3019:3033   */\n  swap1\n  swap3\n  add\n  swap2\n    /* \"#utility.yul\":2905:2917   */\n  add\n    /* \"#utility.yul\":2875:3097   */\n  jump(tag_70)\ntag_72:\n    /* \"#utility.yul\":2879:2882   */\n  pop\n    /* \"#utility.yul\":3125:3131   */\n  dup5\n    /* \"#utility.yul\":3116:3123   */\n  dup3\n    /* \"#utility.yul\":3113:3132   */\n  lt\n    /* \"#utility.yul\":3110:3311   */\n  iszero\n  tag_73\n  jumpi\n    /* \"#utility.yul\":3186:3205   */\n  dup7\n  dup5\n  add\n    /* \"#utility.yul\":3180:3206   */\n  mload\n  not(0x00)\n    /* \"#utility.yul\":3269:3270   */\n  0x03\n    /* \"#utility.yul\":3265:3279   */\n  dup8\n  swap1\n  shl\n    /* \"#utility.yul\":3281:3284   */\n  0xf8\n    /* \"#utility.yul\":3261:3285   */\n  and\n    /* \"#utility.yul\":3257:3294   */\n  shr\n    /* \"#utility.yul\":3253:3295   */\n  not\n    /* \"#utility.yul\":3238:3296   */\n  and\n    /* \"#utility.yul\":3223:3297   */\n  dup2\n  sstore\n    /* \"#utility.yul\":3110:3311   */\ntag_73:\n  pop\n  pop\n  pop\n  pop\n    /* \"#utility.yul\":3357:3358   */\n  0x01\n    /* \"#utility.yul\":3341:3355   */\n  swap1\n  dup2\n  shl\n    /* \"#utility.yul\":3337:3359   */\n  add\n    /* \"#utility.yul\":3324:3360   */\n  swap1\n  sstore\n  pop\n    /* \"#utility.yul\":2328:3627   */\n  jump\t// out\n    /* \"#utility.yul\":3840:4062   */\ntag_30:\n    /* \"#utility.yul\":3905:3914   */\n  dup1\n  dup3\n  add\n    /* \"#utility.yul\":3926:3936   */\n  dup1\n  dup3\n  gt\n    /* \"#utility.yul\":3923:4056   */\n  iszero\n  tag_76\n  jumpi\n    /* \"#utility.yul\":3978:3988   */\n  0x4e487b71\n    /* \"#utility.yul\":3973:3976   */\n  0xe0\n    /* \"#utility.yul\":3969:3989   */\n  shl\n    /* \"#utility.yul\":3966:3967   */\n  0x00\n    /* \"#utility.yul\":3959:3990   */\n  mstore\n    /* \"#utility.yul\":4013:4017   */\n  0x11\n    /* \"#utility.yul\":4010:4011   */\n  0x04\n    /* \"#utility.yul\":4003:4018   */\n  mstore\n    /* \"#utility.yul\":4041:4045   */\n  0x24\n    /* \"#utility.yul\":4038:4039   */\n  0x00\n    /* \"#utility.yul\":4031:4046   */\n  revert\n    /* \"#utility.yul\":3923:4056   */\ntag_76:\n    /* \"#utility.yul\":3840:4062   */\n  swap3\n  swap2\n  pop\n  pop\n  jump\t// out\n    /* \"#utility.yul\":4417:4594   */\ntag_44:\n    /* \"contracts/SimpleToken.sol\":174:7256  contract TokenPreSale is ERC20, Ownable {... */\n  dataSize(sub_0)\n  dup1\n  dataOffset(sub_0)\n  0x00\n  codecopy\n  0x00\n  return\nstop\n\nsub_0: assembly {\n        /* \"contracts/SimpleToken.sol\":174:7256  contract TokenPreSale is ERC20, Ownable {... */\n      mstore(0x40, 0x80)\n      jumpi(tag_1, lt(calldatasize, 0x04))\n      shr(0xe0, calldataload(0x00))\n      dup1\n      0x8da5cb5b\n      gt\n      tag_45\n      jumpi\n      dup1\n      0xc6a1f80a\n      gt\n      tag_46\n      jumpi\n      dup1\n      0xd348b409\n      gt\n      tag_47\n      jumpi\n      dup1\n      0xd348b409\n      eq\n      tag_39\n      jumpi\n      dup1\n      0xdc07c8a3\n      eq\n      tag_40\n      jumpi\n      dup1\n      0xdd62ed3e\n      eq\n      tag_41\n      jumpi\n      dup1\n      0xebbef6f6\n      eq\n      tag_42\n      jumpi\n      dup1\n      0xf2fde38b\n      eq\n      tag_43\n      jumpi\n      dup1\n      0xf9931855\n      eq\n      tag_44\n      jumpi\n      0x00\n      dup1\n      revert\n    tag_47:\n      dup1\n      0xc6a1f80a\n      eq\n      tag_34\n      jumpi\n      dup1\n      0xcce29ea7\n      eq\n      tag_35\n      jumpi\n      dup1\n      0xcec297a0\n      eq\n      tag_36\n      jumpi\n      dup1\n      0xcf5f971b\n      eq\n      tag_37\n      jumpi\n      dup1\n      0xd0febe4c\n      eq\n      tag_38\n      jumpi\n      0x00\n      dup1\n      revert\n    tag_46:\n      dup1\n      0x9ca423b3\n      gt\n      tag_48\n      jumpi\n      dup1\n      0x9ca423b3\n      eq\n      tag_28\n      jumpi\n      dup1\n      0xa09c4cf4\n      eq\n      tag_29\n      jumpi\n      dup1\n      0xa5ce413b\n      eq\n      tag_30\n      jumpi\n      dup1\n      0xa8297d46\n      eq\n      tag_31\n      jumpi\n      dup1\n      0xa9059cbb\n      eq\n      tag_32\n      jumpi\n      dup1\n      0xb290d570\n      eq\n      tag_33\n      jumpi\n      0x00\n      dup1\n      revert\n    tag_48:\n      dup1\n      0x8da5cb5b\n      eq\n      tag_23\n      jumpi\n      dup1\n      0x8f0794fe\n      eq\n      tag_24\n      jumpi\n      dup1\n      0x95d89b41\n      eq\n      tag_25\n      jumpi\n      dup1\n      0x967ed8f3\n      eq\n      tag_26\n      jumpi\n      dup1\n      0x9b19251a\n      eq\n      tag_27\n      jumpi\n      0x00\n      dup1\n      revert\n    tag_45:\n      dup1\n      0x27e235e3\n      gt\n      tag_49\n      jumpi\n      dup1\n      0x518ab2a8\n      gt\n      tag_50\n      jumpi\n      dup1\n      0x518ab2a8\n      eq\n      tag_17\n      jumpi\n      dup1\n      0x639a5c87\n      eq\n      tag_18\n      jumpi\n      dup1\n      0x70a08231\n      eq\n      tag_19\n      jumpi\n      dup1\n      0x715018a6\n      eq\n      tag_20\n      jumpi\n      dup1\n      0x7547c7a3\n      eq\n      tag_21\n      jumpi\n      dup1\n      0x7c613b2f\n      eq\n      tag_22\n      jumpi\n      0x00\n      dup1\n      revert\n    tag_50:\n      dup1\n      0x27e235e3\n      eq\n      tag_12\n      jumpi\n      dup1\n      0x30f72cd4\n      eq\n      tag_13\n      jumpi\n      dup1\n      0x313ce567\n      eq\n      tag_14\n      jumpi\n      dup1\n      0x4405df4a\n      eq\n      tag_15\n      jumpi\n      dup1\n      0x4f3fc2df\n      eq\n      tag_16\n      jumpi\n      0x00\n      dup1\n      revert\n    tag_49:\n      dup1\n      0x12065fe0\n      gt\n      tag_51\n      jumpi\n      dup1\n      0x12065fe0\n      eq\n      tag_7\n      jumpi\n      dup1\n      0x18160ddd\n      eq\n      tag_8\n      jumpi\n      dup1\n      0x1d0806ae\n      eq\n      tag_9\n      jumpi\n      dup1\n      0x1d3824ea\n      eq\n      tag_10\n      jumpi\n      dup1\n      0x23b872dd\n      eq\n      tag_11\n      jumpi\n      0x00\n      dup1\n      revert\n    tag_51:\n      dup1\n      0x03e293a3\n      eq\n      tag_2\n      jumpi\n      dup1\n      0x06d65af3\n      eq\n      tag_3\n      jumpi\n      dup1\n      0x06fdde03\n      eq\n      tag_4\n      jumpi\n      dup1\n      0x095ea7b3\n      eq\n      tag_5\n      jumpi\n      dup1\n      0x0fb4ce58\n      eq\n      tag_6\n      jumpi\n    tag_1:\n      0x00\n      dup1\n      revert\n        /* \"contracts/SimpleToken.sol\":363:394  uint256 public regularSalePrice */\n    tag_2:\n      callvalue\n      dup1\n      iszero\n      tag_52\n      jumpi\n      0x00\n      dup1\n      revert\n    tag_52:\n      pop\n      tag_53\n      sload(0x09)\n      dup2\n      jump\n    tag_53:\n      mload(0x40)\n        /* \"#utility.yul\":160:185   */\n      swap1\n      dup2\n      mstore\n        /* \"#utility.yul\":148:150   */\n      0x20\n        /* \"#utility.yul\":133:151   */\n      add\n        /* \"contracts/SimpleToken.sol\":363:394  uint256 public regularSalePrice */\n    tag_55:\n      mload(0x40)\n      dup1\n      swap2\n      sub\n      swap1\n      return\n        /* \"contracts/SimpleToken.sol\":255:286  uint256 public preSaleStartTime */\n    tag_3:\n      callvalue\n      dup1\n      iszero\n      tag_57\n      jumpi\n      0x00\n      dup1\n      revert\n    tag_57:\n      pop\n      tag_53\n      sload(0x06)\n      dup2\n      jump\n        /* \"@openzeppelin/contracts/token/ERC20/ERC20.sol\":1779:1868  function name() public view virtual returns (string memory) {... */\n    tag_4:\n      callvalue\n      dup1\n      iszero\n      tag_61\n      jumpi\n      0x00\n      dup1\n      revert\n    tag_61:\n      pop\n      tag_62\n      tag_63\n      jump\t// in\n    tag_62:\n      mload(0x40)\n      tag_55\n      swap2\n      swap1\n      tag_65\n      jump\t// in\n        /* \"@openzeppelin/contracts/token/ERC20/ERC20.sol\":3998:4184  function approve(address spender, uint256 value) public virtual returns (bool) {... */\n    tag_5:\n      callvalue\n      dup1\n      iszero\n      tag_66\n      jumpi\n      0x00\n      dup1\n      revert\n    tag_66:\n      pop\n      tag_67\n      tag_68\n      calldatasize\n      0x04\n      tag_69\n      jump\t// in\n    tag_68:\n      tag_70\n      jump\t// in\n    tag_67:\n      mload(0x40)\n        /* \"#utility.yul\":1267:1281   */\n      swap1\n      iszero\n        /* \"#utility.yul\":1260:1282   */\n      iszero\n        /* \"#utility.yul\":1242:1283   */\n      dup2\n      mstore\n        /* \"#utility.yul\":1230:1232   */\n      0x20\n        /* \"#utility.yul\":1215:1233   */\n      add\n        /* \"@openzeppelin/contracts/token/ERC20/ERC20.sol\":3998:4184  function approve(address spender, uint256 value) public virtual returns (bool) {... */\n      tag_55\n        /* \"#utility.yul\":1102:1289   */\n      jump\n        /* \"contracts/SimpleToken.sol\":2529:2673  function calculateReferralReward() public view returns (uint256) {... */\n    tag_6:\n      callvalue\n      dup1\n      iszero\n      tag_73\n      jumpi\n      0x00\n      dup1\n      revert\n    tag_73:\n      pop\n      tag_53\n      tag_75\n      jump\t// in\n        /* \"contracts/SimpleToken.sol\":5633:5733  function getBalance() public view returns (uint256){... */\n    tag_7:\n      callvalue\n      dup1\n      iszero\n      tag_77\n      jumpi\n      0x00\n      dup1\n      revert\n    tag_77:\n      pop\n        /* \"contracts/SimpleToken.sol\":5712:5722  msg.sender */\n      caller\n        /* \"contracts/SimpleToken.sol\":5676:5683  uint256 */\n      0x00\n        /* \"@openzeppelin/contracts/token/ERC20/ERC20.sol\":3095:3113  _balances[account] */\n      swap1\n      dup2\n      mstore\n      0x20\n      dup2\n      swap1\n      mstore\n      0x40\n      swap1\n      keccak256\n      sload\n        /* \"contracts/SimpleToken.sol\":5633:5733  function getBalance() public view returns (uint256){... */\n      tag_53\n        /* \"contracts/SimpleToken.sol\":2529:2673  function calculateReferralReward() public view returns (uint256) {... */\n      jump\n        /* \"@openzeppelin/contracts/token/ERC20/ERC20.sol\":2849:2946  function totalSupply() public view virtual returns (uint256) {... */\n    tag_8:\n      callvalue\n      dup1\n      iszero\n      tag_81\n      jumpi\n      0x00\n      dup1\n      revert\n    tag_81:\n      pop\n        /* \"@openzeppelin/contracts/token/ERC20/ERC20.sol\":2927:2939  _totalSupply */\n      sload(0x02)\n        /* \"@openzeppelin/contracts/token/ERC20/ERC20.sol\":2849:2946  function totalSupply() public view virtual returns (uint256) {... */\n      jump(tag_53)\n        /* \"contracts/SimpleToken.sol\":329:356  uint256 public initialPrice */\n    tag_9:\n      callvalue\n      dup1\n      iszero\n      tag_85\n      jumpi\n      0x00\n      dup1\n      revert\n    tag_85:\n      pop\n      tag_53\n      sload(0x08)\n      dup2\n      jump\n        /* \"contracts/SimpleToken.sol\":3898:4210  function getCurrentStep() public view returns (uint256){... */\n    tag_10:\n      callvalue\n      dup1\n      iszero\n      tag_89\n      jumpi\n      0x00\n      dup1\n      revert\n    tag_89:\n      pop\n      tag_53\n      tag_91\n      jump\t// in\n        /* \"@openzeppelin/contracts/token/ERC20/ERC20.sol\":4776:5020  function transferFrom(address from, address to, uint256 value) public virtual returns (bool) {... */\n    tag_11:\n      callvalue\n      dup1\n      iszero\n      tag_93\n      jumpi\n      0x00\n      dup1\n      revert\n    tag_93:\n      pop\n      tag_67\n      tag_95\n      calldatasize\n      0x04\n      tag_96\n      jump\t// in\n    tag_95:\n      tag_97\n      jump\t// in\n        /* \"contracts/SimpleToken.sol\":865:908  mapping(address => uint256) public balances */\n    tag_12:\n      callvalue\n      dup1\n      iszero\n      tag_99\n      jumpi\n      0x00\n      dup1\n      revert\n    tag_99:\n      pop\n      tag_53\n      tag_101\n      calldatasize\n      0x04\n      tag_102\n      jump\t// in\n    tag_101:\n      mstore(0x20, 0x14)\n      0x00\n      swap1\n      dup2\n      mstore\n      0x40\n      swap1\n      keccak256\n      sload\n      dup2\n      jump\n        /* \"contracts/SimpleToken.sol\":221:248  bool public presaleIsActive */\n    tag_13:\n      callvalue\n      dup1\n      iszero\n      tag_105\n      jumpi\n      0x00\n      dup1\n      revert\n    tag_105:\n      pop\n      sload(0x05)\n      tag_67\n      swap1\n      shl(0xa0, 0x01)\n      swap1\n      div\n      0xff\n      and\n      dup2\n      jump\n        /* \"@openzeppelin/contracts/token/ERC20/ERC20.sol\":2707:2789  function decimals() public view virtual returns (uint8) {... */\n    tag_14:\n      callvalue\n      dup1\n      iszero\n      tag_109\n      jumpi\n      0x00\n      dup1\n      revert\n    tag_109:\n      pop\n      mload(0x40)\n        /* \"@openzeppelin/contracts/token/ERC20/ERC20.sol\":2780:2782  18 */\n      0x12\n        /* \"#utility.yul\":2006:2042   */\n      dup2\n      mstore\n        /* \"#utility.yul\":1994:1996   */\n      0x20\n        /* \"#utility.yul\":1979:1997   */\n      add\n        /* \"@openzeppelin/contracts/token/ERC20/ERC20.sol\":2707:2789  function decimals() public view virtual returns (uint8) {... */\n      tag_55\n        /* \"#utility.yul\":1864:2048   */\n      jump\n        /* \"contracts/SimpleToken.sol\":4216:4507  function calculatePriceIncrease() public view returns (uint256){... */\n    tag_15:\n      callvalue\n      dup1\n      iszero\n      tag_114\n      jumpi\n      0x00\n      dup1\n      revert\n    tag_114:\n      pop\n      tag_53\n      tag_116\n      jump\t// in\n        /* \"contracts/SimpleToken.sol\":473:505  uint256 public stakingRewardRate */\n    tag_16:\n      callvalue\n      dup1\n      iszero\n      tag_118\n      jumpi\n      0x00\n      dup1\n      revert\n    tag_118:\n      pop\n      tag_53\n      sload(0x0c)\n      dup2\n      jump\n        /* \"contracts/SimpleToken.sol\":407:432  uint256 public tokensSold */\n    tag_17:\n      callvalue\n      dup1\n      iszero\n      tag_122\n      jumpi\n      0x00\n      dup1\n      revert\n    tag_122:\n      pop\n      tag_53\n      sload(0x0a)\n      dup2\n      jump\n        /* \"contracts/SimpleToken.sol\":3148:3552  function startPreSale(uint256 _startTime, uint256 _endTime, uint256 steps) external onlyOwner {... */\n    tag_18:\n      callvalue\n      dup1\n      iszero\n      tag_126\n      jumpi\n      0x00\n      dup1\n      revert\n    tag_126:\n      pop\n      tag_127\n      tag_128\n      calldatasize\n      0x04\n      tag_129\n      jump\t// in\n    tag_128:\n      tag_130\n      jump\t// in\n    tag_127:\n      stop\n        /* \"@openzeppelin/contracts/token/ERC20/ERC20.sol\":3004:3120  function balanceOf(address account) public view virtual returns (uint256) {... */\n    tag_19:\n      callvalue\n      dup1\n      iszero\n      tag_131\n      jumpi\n      0x00\n      dup1\n      revert\n    tag_131:\n      pop\n      tag_53\n      tag_133\n      calldatasize\n      0x04\n      tag_102\n      jump\t// in\n    tag_133:\n      sub(shl(0xa0, 0x01), 0x01)\n        /* \"@openzeppelin/contracts/token/ERC20/ERC20.sol\":3095:3113  _balances[account] */\n      and\n        /* \"@openzeppelin/contracts/token/ERC20/ERC20.sol\":3069:3076  uint256 */\n      0x00\n        /* \"@openzeppelin/contracts/token/ERC20/ERC20.sol\":3095:3113  _balances[account] */\n      swap1\n      dup2\n      mstore\n      0x20\n      dup2\n      swap1\n      mstore\n      0x40\n      swap1\n      keccak256\n      sload\n      swap1\n        /* \"@openzeppelin/contracts/token/ERC20/ERC20.sol\":3004:3120  function balanceOf(address account) public view virtual returns (uint256) {... */\n      jump\n        /* \"@openzeppelin/contracts/access/Ownable.sol\":2293:2394  function renounceOwnership() public virtual onlyOwner {... */\n    tag_20:\n      callvalue\n      dup1\n      iszero\n      tag_136\n      jumpi\n      0x00\n      dup1\n      revert\n    tag_136:\n      pop\n      tag_127\n      tag_138\n      jump\t// in\n        /* \"contracts/SimpleToken.sol\":5741:6145  function stakeTokens(uint256 amount) external {... */\n    tag_21:\n      callvalue\n      dup1\n      iszero\n      tag_139\n      jumpi\n      0x00\n      dup1\n      revert\n    tag_139:\n      pop\n      tag_127\n      tag_141\n      calldatasize\n      0x04\n      tag_142\n      jump\t// in\n    tag_141:\n      tag_143\n      jump\t// in\n        /* \"contracts/SimpleToken.sol\":2681:3087  function mintReferralReward() external {... */\n    tag_22:\n      callvalue\n      dup1\n      iszero\n      tag_144\n      jumpi\n      0x00\n      dup1\n      revert\n    tag_144:\n      pop\n      tag_127\n      tag_146\n      jump\t// in\n        /* \"@openzeppelin/contracts/access/Ownable.sol\":1638:1723  function owner() public view virtual returns (address) {... */\n    tag_23:\n      callvalue\n      dup1\n      iszero\n      tag_147\n      jumpi\n      0x00\n      dup1\n      revert\n    tag_147:\n      pop\n        /* \"@openzeppelin/contracts/access/Ownable.sol\":1710:1716  _owner */\n      and(sub(shl(0xa0, 0x01), 0x01), sload(0x05))\n        /* \"@openzeppelin/contracts/access/Ownable.sol\":1638:1723  function owner() public view virtual returns (address) {... */\n    tag_148:\n      mload(0x40)\n      sub(shl(0xa0, 0x01), 0x01)\n        /* \"#utility.yul\":2919:2951   */\n      swap1\n      swap2\n      and\n        /* \"#utility.yul\":2901:2952   */\n      dup2\n      mstore\n        /* \"#utility.yul\":2889:2891   */\n      0x20\n        /* \"#utility.yul\":2874:2892   */\n      add\n        /* \"@openzeppelin/contracts/access/Ownable.sol\":1638:1723  function owner() public view virtual returns (address) {... */\n      tag_55\n        /* \"#utility.yul\":2755:2958   */\n      jump\n        /* \"contracts/SimpleToken.sol\":652:703  mapping(address => uint256) public stakingTimestamp */\n    tag_24:\n      callvalue\n      dup1\n      iszero\n      tag_152\n      jumpi\n      0x00\n      dup1\n      revert\n    tag_152:\n      pop\n      tag_53\n      tag_154\n      calldatasize\n      0x04\n      tag_102\n      jump\t// in\n    tag_154:\n      mstore(0x20, 0x10)\n      0x00\n      swap1\n      dup2\n      mstore\n      0x40\n      swap1\n      keccak256\n      sload\n      dup2\n      jump\n        /* \"@openzeppelin/contracts/token/ERC20/ERC20.sol\":1981:2074  function symbol() public view virtual returns (string memory) {... */\n    tag_25:\n      callvalue\n      dup1\n      iszero\n      tag_157\n      jumpi\n      0x00\n      dup1\n      revert\n    tag_157:\n      pop\n      tag_62\n      tag_159\n      jump\t// in\n        /* \"contracts/SimpleToken.sol\":6693:6959  function calculateStakingReward() public view returns (uint256) {... */\n    tag_26:\n      callvalue\n      dup1\n      iszero\n      tag_161\n      jumpi\n      0x00\n      dup1\n      revert\n    tag_161:\n      pop\n      tag_53\n      tag_163\n      jump\t// in\n        /* \"contracts/SimpleToken.sol\":710:751  mapping(address => bool) public whitelist */\n    tag_27:\n      callvalue\n      dup1\n      iszero\n      tag_165\n      jumpi\n      0x00\n      dup1\n      revert\n    tag_165:\n      pop\n      tag_67\n      tag_167\n      calldatasize\n      0x04\n      tag_102\n      jump\t// in\n    tag_167:\n      mstore(0x20, 0x11)\n      0x00\n      swap1\n      dup2\n      mstore\n      0x40\n      swap1\n      keccak256\n      sload\n      0xff\n      and\n      dup2\n      jump\n        /* \"contracts/SimpleToken.sol\":758:802  mapping(address => address) public referrals */\n    tag_28:\n      callvalue\n      dup1\n      iszero\n      tag_170\n      jumpi\n      0x00\n      dup1\n      revert\n    tag_170:\n      pop\n      tag_148\n      tag_172\n      calldatasize\n      0x04\n      tag_102\n      jump\t// in\n    tag_172:\n      mstore(0x20, 0x12)\n      0x00\n      swap1\n      dup2\n      mstore\n      0x40\n      swap1\n      keccak256\n      sload\n      sub(shl(0xa0, 0x01), 0x01)\n      and\n      dup2\n      jump\n        /* \"contracts/SimpleToken.sol\":2036:2517  function signUpForWhitelist(address referral) external {... */\n    tag_29:\n      callvalue\n      dup1\n      iszero\n      tag_175\n      jumpi\n      0x00\n      dup1\n      revert\n    tag_175:\n      pop\n      tag_127\n      tag_177\n      calldatasize\n      0x04\n      tag_102\n      jump\t// in\n    tag_177:\n      tag_178\n      jump\t// in\n        /* \"contracts/SimpleToken.sol\":6153:6685  function unstakeTokens() external {... */\n    tag_30:\n      callvalue\n      dup1\n      iszero\n      tag_179\n      jumpi\n      0x00\n      dup1\n      revert\n    tag_179:\n      pop\n      tag_127\n      tag_181\n      jump\t// in\n        /* \"contracts/SimpleToken.sol\":552:589  uint256 public stakingRewardFrequency */\n    tag_31:\n      callvalue\n      dup1\n      iszero\n      tag_182\n      jumpi\n      0x00\n      dup1\n      revert\n    tag_182:\n      pop\n      tag_53\n      sload(0x0e)\n      dup2\n      jump\n        /* \"@openzeppelin/contracts/token/ERC20/ERC20.sol\":3315:3493  function transfer(address to, uint256 value) public virtual returns (bool) {... */\n    tag_32:\n      callvalue\n      dup1\n      iszero\n      tag_186\n      jumpi\n      0x00\n      dup1\n      revert\n    tag_186:\n      pop\n      tag_67\n      tag_188\n      calldatasize\n      0x04\n      tag_69\n      jump\t// in\n    tag_188:\n      tag_189\n      jump\t// in\n        /* \"contracts/SimpleToken.sol\":7101:7253  function getStackingPeriod() public view returns (uint256) {... */\n    tag_33:\n      callvalue\n      dup1\n      iszero\n      tag_191\n      jumpi\n      0x00\n      dup1\n      revert\n    tag_191:\n      pop\n      tag_53\n      tag_193\n      jump\t// in\n        /* \"contracts/SimpleToken.sol\":512:545  uint256 public minUnstakingPeriod */\n    tag_34:\n      callvalue\n      dup1\n      iszero\n      tag_195\n      jumpi\n      0x00\n      dup1\n      revert\n    tag_195:\n      pop\n      tag_53\n      sload(0x0d)\n      dup2\n      jump\n        /* \"contracts/SimpleToken.sol\":293:322  uint256 public preSaleEndTime */\n    tag_35:\n      callvalue\n      dup1\n      iszero\n      tag_199\n      jumpi\n      0x00\n      dup1\n      revert\n    tag_199:\n      pop\n      tag_53\n      sload(0x07)\n      dup2\n      jump\n        /* \"contracts/SimpleToken.sol\":809:858  mapping(address => uint256) public referralCounts */\n    tag_36:\n      callvalue\n      dup1\n      iszero\n      tag_203\n      jumpi\n      0x00\n      dup1\n      revert\n    tag_203:\n      pop\n      tag_53\n      tag_205\n      calldatasize\n      0x04\n      tag_102\n      jump\t// in\n    tag_205:\n      mstore(0x20, 0x13)\n      0x00\n      swap1\n      dup2\n      mstore\n      0x40\n      swap1\n      keccak256\n      sload\n      dup2\n      jump\n        /* \"contracts/SimpleToken.sol\":3559:3892  function calculateStepsElapsed(uint256 startTime, uint256 endTime) public view returns (uint256) {... */\n    tag_37:\n      callvalue\n      dup1\n      iszero\n      tag_208\n      jumpi\n      0x00\n      dup1\n      revert\n    tag_208:\n      pop\n      tag_53\n      tag_210\n      calldatasize\n      0x04\n      tag_211\n      jump\t// in\n    tag_210:\n      tag_212\n      jump\t// in\n        /* \"contracts/SimpleToken.sol\":4986:5623  function buyTokens() external payable {... */\n    tag_38:\n      tag_127\n      tag_215\n      jump\t// in\n        /* \"contracts/SimpleToken.sol\":4523:4899  function calculatePrice() public view returns (uint256) {... */\n    tag_39:\n      callvalue\n      dup1\n      iszero\n      tag_216\n      jumpi\n      0x00\n      dup1\n      revert\n    tag_216:\n      pop\n      tag_53\n      tag_218\n      jump\t// in\n        /* \"contracts/SimpleToken.sol\":439:466  uint256 public preSaleSteps */\n    tag_40:\n      callvalue\n      dup1\n      iszero\n      tag_220\n      jumpi\n      0x00\n      dup1\n      revert\n    tag_220:\n      pop\n      tag_53\n      sload(0x0b)\n      dup2\n      jump\n        /* \"@openzeppelin/contracts/token/ERC20/ERC20.sol\":3551:3691  function allowance(address owner, address spender) public view virtual returns (uint256) {... */\n    tag_41:\n      callvalue\n      dup1\n      iszero\n      tag_224\n      jumpi\n      0x00\n      dup1\n      revert\n    tag_224:\n      pop\n      tag_53\n      tag_226\n      calldatasize\n      0x04\n      tag_227\n      jump\t// in\n    tag_226:\n      sub(shl(0xa0, 0x01), 0x01)\n        /* \"@openzeppelin/contracts/token/ERC20/ERC20.sol\":3657:3675  _allowances[owner] */\n      swap2\n      dup3\n      and\n        /* \"@openzeppelin/contracts/token/ERC20/ERC20.sol\":3631:3638  uint256 */\n      0x00\n        /* \"@openzeppelin/contracts/token/ERC20/ERC20.sol\":3657:3675  _allowances[owner] */\n      swap1\n      dup2\n      mstore\n        /* \"@openzeppelin/contracts/token/ERC20/ERC20.sol\":3657:3668  _allowances */\n      0x01\n        /* \"@openzeppelin/contracts/token/ERC20/ERC20.sol\":3657:3675  _allowances[owner] */\n      0x20\n      swap1\n      dup2\n      mstore\n      0x40\n      dup1\n      dup4\n      keccak256\n        /* \"@openzeppelin/contracts/token/ERC20/ERC20.sol\":3657:3684  _allowances[owner][spender] */\n      swap4\n      swap1\n      swap5\n      and\n      dup3\n      mstore\n      swap2\n      swap1\n      swap2\n      mstore\n      keccak256\n      sload\n      swap1\n        /* \"@openzeppelin/contracts/token/ERC20/ERC20.sol\":3551:3691  function allowance(address owner, address spender) public view virtual returns (uint256) {... */\n      jump\n        /* \"contracts/SimpleToken.sol\":6967:7093  function getStackedTokens() public view returns (uint256) {... */\n    tag_42:\n      callvalue\n      dup1\n      iszero\n      tag_230\n      jumpi\n      0x00\n      dup1\n      revert\n    tag_230:\n      pop\n        /* \"contracts/SimpleToken.sol\":7074:7084  msg.sender */\n      caller\n        /* \"contracts/SimpleToken.sol\":7016:7023  uint256 */\n      0x00\n        /* \"contracts/SimpleToken.sol\":7061:7085  stakedAmount[msg.sender] */\n      swap1\n      dup2\n      mstore\n        /* \"contracts/SimpleToken.sol\":7061:7073  stakedAmount */\n      0x0f\n        /* \"contracts/SimpleToken.sol\":7061:7085  stakedAmount[msg.sender] */\n      0x20\n      mstore\n      0x40\n      swap1\n      keccak256\n      sload\n        /* \"contracts/SimpleToken.sol\":6967:7093  function getStackedTokens() public view returns (uint256) {... */\n      jump(tag_53)\n        /* \"@openzeppelin/contracts/access/Ownable.sol\":2543:2758  function transferOwnership(address newOwner) public virtual onlyOwner {... */\n    tag_43:\n      callvalue\n      dup1\n      iszero\n      tag_234\n      jumpi\n      0x00\n      dup1\n      revert\n    tag_234:\n      pop\n      tag_127\n      tag_236\n      calldatasize\n      0x04\n      tag_102\n      jump\t// in\n    tag_236:\n      tag_237\n      jump\t// in\n        /* \"contracts/SimpleToken.sol\":598:645  mapping(address => uint256) public stakedAmount */\n    tag_44:\n      callvalue\n      dup1\n      iszero\n      tag_238\n      jumpi\n      0x00\n      dup1\n      revert\n    tag_238:\n      pop\n      tag_53\n      tag_240\n      calldatasize\n      0x04\n      tag_102\n      jump\t// in\n    tag_240:\n      mstore(0x20, 0x0f)\n      0x00\n      swap1\n      dup2\n      mstore\n      0x40\n      swap1\n      keccak256\n      sload\n      dup2\n      jump\n        /* \"@openzeppelin/contracts/token/ERC20/ERC20.sol\":1779:1868  function name() public view virtual returns (string memory) {... */\n    tag_63:\n        /* \"@openzeppelin/contracts/token/ERC20/ERC20.sol\":1824:1837  string memory */\n      0x60\n        /* \"@openzeppelin/contracts/token/ERC20/ERC20.sol\":1856:1861  _name */\n      0x03\n        /* \"@openzeppelin/contracts/token/ERC20/ERC20.sol\":1849:1861  return _name */\n      dup1\n      sload\n      tag_244\n      swap1\n      tag_245\n      jump\t// in\n    tag_244:\n      dup1\n      0x1f\n      add\n      0x20\n      dup1\n      swap2\n      div\n      mul\n      0x20\n      add\n      mload(0x40)\n      swap1\n      dup2\n      add\n      0x40\n      mstore\n      dup1\n      swap3\n      swap2\n      swap1\n      dup2\n      dup2\n      mstore\n      0x20\n      add\n      dup3\n      dup1\n      sload\n      tag_246\n      swap1\n      tag_245\n      jump\t// in\n    tag_246:\n      dup1\n      iszero\n      tag_247\n      jumpi\n      dup1\n      0x1f\n      lt\n      tag_248\n      jumpi\n      0x0100\n      dup1\n      dup4\n      sload\n      div\n      mul\n      dup4\n      mstore\n      swap2\n      0x20\n      add\n      swap2\n      jump(tag_247)\n    tag_248:\n      dup3\n      add\n      swap2\n      swap1\n      0x00\n      mstore\n      keccak256(0x00, 0x20)\n      swap1\n    tag_249:\n      dup2\n      sload\n      dup2\n      mstore\n      swap1\n      0x01\n      add\n      swap1\n      0x20\n      add\n      dup1\n      dup4\n      gt\n      tag_249\n      jumpi\n      dup3\n      swap1\n      sub\n      0x1f\n      and\n      dup3\n      add\n      swap2\n    tag_247:\n      pop\n      pop\n      pop\n      pop\n      pop\n      swap1\n      pop\n        /* \"@openzeppelin/contracts/token/ERC20/ERC20.sol\":1779:1868  function name() public view virtual returns (string memory) {... */\n      swap1\n      jump\t// out\n        /* \"@openzeppelin/contracts/token/ERC20/ERC20.sol\":3998:4184  function approve(address spender, uint256 value) public virtual returns (bool) {... */\n    tag_70:\n        /* \"@openzeppelin/contracts/token/ERC20/ERC20.sol\":4071:4075  bool */\n      0x00\n        /* \"@openzeppelin/contracts/utils/Context.sol\":735:745  msg.sender */\n      caller\n        /* \"@openzeppelin/contracts/token/ERC20/ERC20.sol\":4125:4156  _approve(owner, spender, value) */\n      tag_253\n        /* \"@openzeppelin/contracts/utils/Context.sol\":735:745  msg.sender */\n      dup2\n        /* \"@openzeppelin/contracts/token/ERC20/ERC20.sol\":4141:4148  spender */\n      dup6\n        /* \"@openzeppelin/contracts/token/ERC20/ERC20.sol\":4150:4155  value */\n      dup6\n        /* \"@openzeppelin/contracts/token/ERC20/ERC20.sol\":4125:4133  _approve */\n      tag_254\n        /* \"@openzeppelin/contracts/token/ERC20/ERC20.sol\":4125:4156  _approve(owner, spender, value) */\n      jump\t// in\n    tag_253:\n        /* \"@openzeppelin/contracts/token/ERC20/ERC20.sol\":4173:4177  true */\n      0x01\n        /* \"@openzeppelin/contracts/token/ERC20/ERC20.sol\":4166:4177  return true */\n      swap2\n      pop\n      pop\n        /* \"@openzeppelin/contracts/token/ERC20/ERC20.sol\":3998:4184  function approve(address spender, uint256 value) public virtual returns (bool) {... */\n    tag_250:\n      swap3\n      swap2\n      pop\n      pop\n      jump\t// out\n        /* \"contracts/SimpleToken.sol\":2529:2673  function calculateReferralReward() public view returns (uint256) {... */\n    tag_75:\n        /* \"contracts/SimpleToken.sol\":2585:2592  uint256 */\n      0x00\n        /* \"contracts/SimpleToken.sol\":2649:2665  10 ** decimals() */\n      tag_257\n        /* \"@openzeppelin/contracts/token/ERC20/ERC20.sol\":2780:2782  18 */\n      0x12\n        /* \"contracts/SimpleToken.sol\":2649:2651  10 */\n      0x0a\n        /* \"contracts/SimpleToken.sol\":2649:2665  10 ** decimals() */\n      tag_258\n      jump\t// in\n    tag_257:\n        /* \"contracts/SimpleToken.sol\":2629:2639  msg.sender */\n      caller\n        /* \"contracts/SimpleToken.sol\":2614:2640  referralCounts[msg.sender] */\n      0x00\n      swap1\n      dup2\n      mstore\n        /* \"contracts/SimpleToken.sol\":2614:2628  referralCounts */\n      0x13\n        /* \"contracts/SimpleToken.sol\":2614:2640  referralCounts[msg.sender] */\n      0x20\n      mstore\n      0x40\n      swap1\n      keccak256\n      sload\n        /* \"contracts/SimpleToken.sol\":2614:2646  referralCounts[msg.sender] * 500 */\n      tag_259\n      swap1\n        /* \"contracts/SimpleToken.sol\":2643:2646  500 */\n      0x01f4\n        /* \"contracts/SimpleToken.sol\":2614:2646  referralCounts[msg.sender] * 500 */\n      tag_260\n      jump\t// in\n    tag_259:\n        /* \"contracts/SimpleToken.sol\":2614:2665  referralCounts[msg.sender] * 500 * 10 ** decimals() */\n      tag_261\n      swap2\n      swap1\n      tag_260\n      jump\t// in\n    tag_261:\n        /* \"contracts/SimpleToken.sol\":2607:2665  return referralCounts[msg.sender] * 500 * 10 ** decimals() */\n      swap1\n      pop\n        /* \"contracts/SimpleToken.sol\":2529:2673  function calculateReferralReward() public view returns (uint256) {... */\n      swap1\n      jump\t// out\n        /* \"contracts/SimpleToken.sol\":3898:4210  function getCurrentStep() public view returns (uint256){... */\n    tag_91:\n        /* \"contracts/SimpleToken.sol\":3945:3952  uint256 */\n      0x00\n        /* \"contracts/SimpleToken.sol\":3991:4007  preSaleStartTime */\n      sload(0x06)\n        /* \"contracts/SimpleToken.sol\":3972:3987  block.timestamp */\n      timestamp\n        /* \"contracts/SimpleToken.sol\":3972:4007  block.timestamp >= preSaleStartTime */\n      lt\n      iszero\n        /* \"contracts/SimpleToken.sol\":3964:4045  require(block.timestamp >= preSaleStartTime, \"End time must be after start time\") */\n      tag_266\n      jumpi\n      mload(0x40)\n      shl(0xe5, 0x461bcd)\n      dup2\n      mstore\n      0x04\n      add\n      tag_267\n      swap1\n      tag_268\n      jump\t// in\n    tag_267:\n      mload(0x40)\n      dup1\n      swap2\n      sub\n      swap1\n      revert\n    tag_266:\n        /* \"contracts/SimpleToken.sol\":4060:4080  uint256 stepsElapsed */\n      0x00\n        /* \"contracts/SimpleToken.sol\":4156:4168  preSaleSteps */\n      sload(0x0b)\n        /* \"contracts/SimpleToken.sol\":4138:4154  preSaleStartTime */\n      sload(0x06)\n        /* \"contracts/SimpleToken.sol\":4123:4137  preSaleEndTime */\n      sload(0x07)\n        /* \"contracts/SimpleToken.sol\":4123:4154  preSaleEndTime-preSaleStartTime */\n      tag_269\n      swap2\n      swap1\n      tag_270\n      jump\t// in\n    tag_269:\n        /* \"contracts/SimpleToken.sol\":4102:4118  preSaleStartTime */\n      sload(0x06)\n        /* \"contracts/SimpleToken.sol\":4084:4118  block.timestamp - preSaleStartTime */\n      tag_271\n      swap1\n        /* \"contracts/SimpleToken.sol\":4084:4099  block.timestamp */\n      timestamp\n        /* \"contracts/SimpleToken.sol\":4084:4118  block.timestamp - preSaleStartTime */\n      tag_270\n      jump\t// in\n    tag_271:\n        /* \"contracts/SimpleToken.sol\":4083:4155  (block.timestamp - preSaleStartTime) / (preSaleEndTime-preSaleStartTime) */\n      tag_272\n      swap2\n      swap1\n      tag_273\n      jump\t// in\n    tag_272:\n        /* \"contracts/SimpleToken.sol\":4083:4168  (block.timestamp - preSaleStartTime) / (preSaleEndTime-preSaleStartTime)/preSaleSteps */\n      tag_250\n      swap2\n      swap1\n      tag_273\n      jump\t// in\n        /* \"@openzeppelin/contracts/token/ERC20/ERC20.sol\":4776:5020  function transferFrom(address from, address to, uint256 value) public virtual returns (bool) {... */\n    tag_97:\n        /* \"@openzeppelin/contracts/token/ERC20/ERC20.sol\":4863:4867  bool */\n      0x00\n        /* \"@openzeppelin/contracts/utils/Context.sol\":735:745  msg.sender */\n      caller\n        /* \"@openzeppelin/contracts/token/ERC20/ERC20.sol\":4919:4956  _spendAllowance(from, spender, value) */\n      tag_277\n        /* \"@openzeppelin/contracts/token/ERC20/ERC20.sol\":4935:4939  from */\n      dup6\n        /* \"@openzeppelin/contracts/utils/Context.sol\":735:745  msg.sender */\n      dup3\n        /* \"@openzeppelin/contracts/token/ERC20/ERC20.sol\":4950:4955  value */\n      dup6\n        /* \"@openzeppelin/contracts/token/ERC20/ERC20.sol\":4919:4934  _spendAllowance */\n      tag_278\n        /* \"@openzeppelin/contracts/token/ERC20/ERC20.sol\":4919:4956  _spendAllowance(from, spender, value) */\n      jump\t// in\n    tag_277:\n        /* \"@openzeppelin/contracts/token/ERC20/ERC20.sol\":4966:4992  _transfer(from, to, value) */\n      tag_279\n        /* \"@openzeppelin/contracts/token/ERC20/ERC20.sol\":4976:4980  from */\n      dup6\n        /* \"@openzeppelin/contracts/token/ERC20/ERC20.sol\":4982:4984  to */\n      dup6\n        /* \"@openzeppelin/contracts/token/ERC20/ERC20.sol\":4986:4991  value */\n      dup6\n        /* \"@openzeppelin/contracts/token/ERC20/ERC20.sol\":4966:4975  _transfer */\n      tag_280\n        /* \"@openzeppelin/contracts/token/ERC20/ERC20.sol\":4966:4992  _transfer(from, to, value) */\n      jump\t// in\n    tag_279:\n      pop\n        /* \"@openzeppelin/contracts/token/ERC20/ERC20.sol\":5009:5013  true */\n      0x01\n      swap5\n        /* \"@openzeppelin/contracts/token/ERC20/ERC20.sol\":4776:5020  function transferFrom(address from, address to, uint256 value) public virtual returns (bool) {... */\n      swap4\n      pop\n      pop\n      pop\n      pop\n      jump\t// out\n        /* \"contracts/SimpleToken.sol\":4216:4507  function calculatePriceIncrease() public view returns (uint256){... */\n    tag_116:\n        /* \"contracts/SimpleToken.sol\":4271:4278  uint256 */\n      0x00\n        /* \"contracts/SimpleToken.sol\":4290:4310  uint256 stepsElapsed */\n      dup1\n        /* \"contracts/SimpleToken.sol\":4312:4368  calculateStepsElapsed(preSaleStartTime, block.timestamp) */\n      tag_283\n        /* \"contracts/SimpleToken.sol\":4334:4350  preSaleStartTime */\n      sload(0x06)\n        /* \"contracts/SimpleToken.sol\":4352:4367  block.timestamp */\n      timestamp\n        /* \"contracts/SimpleToken.sol\":4312:4333  calculateStepsElapsed */\n      tag_212\n        /* \"contracts/SimpleToken.sol\":4312:4368  calculateStepsElapsed(preSaleStartTime, block.timestamp) */\n      jump\t// in\n    tag_283:\n        /* \"contracts/SimpleToken.sol\":4290:4368  uint256 stepsElapsed =calculateStepsElapsed(preSaleStartTime, block.timestamp) */\n      swap1\n      pop\n        /* \"contracts/SimpleToken.sol\":4379:4400  uint256 priceIncrease */\n      0x00\n        /* \"contracts/SimpleToken.sol\":4456:4468  preSaleSteps */\n      sload(0x0b)\n        /* \"contracts/SimpleToken.sol\":4440:4452  stepsElapsed */\n      dup3\n        /* \"contracts/SimpleToken.sol\":4424:4436  initialPrice */\n      sload(0x08)\n        /* \"contracts/SimpleToken.sol\":4405:4421  regularSalePrice */\n      sload(0x09)\n        /* \"contracts/SimpleToken.sol\":4405:4436  regularSalePrice - initialPrice */\n      tag_284\n      swap2\n      swap1\n      tag_270\n      jump\t// in\n    tag_284:\n        /* \"contracts/SimpleToken.sol\":4404:4452  (regularSalePrice - initialPrice) * stepsElapsed */\n      tag_285\n      swap2\n      swap1\n      tag_260\n      jump\t// in\n    tag_285:\n        /* \"contracts/SimpleToken.sol\":4403:4468  ((regularSalePrice - initialPrice) * stepsElapsed) / preSaleSteps */\n      tag_286\n      swap2\n      swap1\n      tag_273\n      jump\t// in\n    tag_286:\n        /* \"contracts/SimpleToken.sol\":4379:4468  uint256 priceIncrease = ((regularSalePrice - initialPrice) * stepsElapsed) / preSaleSteps */\n      swap4\n        /* \"contracts/SimpleToken.sol\":4216:4507  function calculatePriceIncrease() public view returns (uint256){... */\n      swap3\n      pop\n      pop\n      pop\n      jump\t// out\n        /* \"contracts/SimpleToken.sol\":3148:3552  function startPreSale(uint256 _startTime, uint256 _endTime, uint256 steps) external onlyOwner {... */\n    tag_130:\n        /* \"@openzeppelin/contracts/access/Ownable.sol\":1531:1544  _checkOwner() */\n      tag_288\n        /* \"@openzeppelin/contracts/access/Ownable.sol\":1531:1542  _checkOwner */\n      tag_289\n        /* \"@openzeppelin/contracts/access/Ownable.sol\":1531:1544  _checkOwner() */\n      jump\t// in\n    tag_288:\n        /* \"contracts/SimpleToken.sol\":3341:3357  preSaleStartTime */\n      0x06\n        /* \"contracts/SimpleToken.sol\":3341:3370  preSaleStartTime = _startTime */\n      dup4\n      swap1\n      sstore\n        /* \"contracts/SimpleToken.sol\":3381:3395  preSaleEndTime */\n      0x07\n        /* \"contracts/SimpleToken.sol\":3381:3406  preSaleEndTime = _endTime */\n      dup3\n      swap1\n      sstore\n        /* \"contracts/SimpleToken.sol\":3417:3429  preSaleSteps */\n      0x0b\n        /* \"contracts/SimpleToken.sol\":3417:3437  preSaleSteps = steps */\n      dup2\n      swap1\n      sstore\n        /* \"contracts/SimpleToken.sol\":3458:3473  presaleIsActive */\n      0x05\n        /* \"contracts/SimpleToken.sol\":3458:3480  presaleIsActive = true */\n      dup1\n      sload\n      not(shl(0xa0, 0xff))\n      and\n      shl(0xa0, 0x01)\n      or\n      swap1\n      sstore\n        /* \"contracts/SimpleToken.sol\":3496:3544  PreSaleStarted(preSaleStartTime, preSaleEndTime) */\n      0x40\n      dup1\n      mload\n        /* \"#utility.yul\":6632:6657   */\n      dup5\n      dup2\n      mstore\n        /* \"#utility.yul\":6688:6690   */\n      0x20\n        /* \"#utility.yul\":6673:6691   */\n      dup2\n      add\n        /* \"#utility.yul\":6666:6700   */\n      dup5\n      swap1\n      mstore\n        /* \"contracts/SimpleToken.sol\":3496:3544  PreSaleStarted(preSaleStartTime, preSaleEndTime) */\n      0x3844853be672b18d859394aa37e05615b95b78e66b4dc37dca98d1db1b05ea7d\n      swap2\n        /* \"#utility.yul\":6605:6623   */\n      add\n        /* \"contracts/SimpleToken.sol\":3496:3544  PreSaleStarted(preSaleStartTime, preSaleEndTime) */\n      mload(0x40)\n      dup1\n      swap2\n      sub\n      swap1\n      log1\n        /* \"contracts/SimpleToken.sol\":3148:3552  function startPreSale(uint256 _startTime, uint256 _endTime, uint256 steps) external onlyOwner {... */\n      pop\n      pop\n      pop\n      jump\t// out\n        /* \"@openzeppelin/contracts/access/Ownable.sol\":2293:2394  function renounceOwnership() public virtual onlyOwner {... */\n    tag_138:\n        /* \"@openzeppelin/contracts/access/Ownable.sol\":1531:1544  _checkOwner() */\n      tag_295\n        /* \"@openzeppelin/contracts/access/Ownable.sol\":1531:1542  _checkOwner */\n      tag_289\n        /* \"@openzeppelin/contracts/access/Ownable.sol\":1531:1544  _checkOwner() */\n      jump\t// in\n    tag_295:\n        /* \"@openzeppelin/contracts/access/Ownable.sol\":2357:2387  _transferOwnership(address(0)) */\n      tag_297\n        /* \"@openzeppelin/contracts/access/Ownable.sol\":2384:2385  0 */\n      0x00\n        /* \"@openzeppelin/contracts/access/Ownable.sol\":2357:2375  _transferOwnership */\n      tag_298\n        /* \"@openzeppelin/contracts/access/Ownable.sol\":2357:2387  _transferOwnership(address(0)) */\n      jump\t// in\n    tag_297:\n        /* \"@openzeppelin/contracts/access/Ownable.sol\":2293:2394  function renounceOwnership() public virtual onlyOwner {... */\n      jump\t// out\n        /* \"contracts/SimpleToken.sol\":5741:6145  function stakeTokens(uint256 amount) external {... */\n    tag_143:\n        /* \"contracts/SimpleToken.sol\":5815:5816  0 */\n      0x00\n        /* \"contracts/SimpleToken.sol\":5806:5812  amount */\n      dup2\n        /* \"contracts/SimpleToken.sol\":5806:5816  amount > 0 */\n      gt\n        /* \"contracts/SimpleToken.sol\":5798:5854  require(amount > 0, \"Amount must be greater than zero.\") */\n      tag_300\n      jumpi\n      mload(0x40)\n      shl(0xe5, 0x461bcd)\n      dup2\n      mstore\n        /* \"#utility.yul\":6913:6915   */\n      0x20\n        /* \"contracts/SimpleToken.sol\":5798:5854  require(amount > 0, \"Amount must be greater than zero.\") */\n      0x04\n      dup3\n      add\n        /* \"#utility.yul\":6895:6916   */\n      mstore\n        /* \"#utility.yul\":6952:6954   */\n      0x21\n        /* \"#utility.yul\":6932:6950   */\n      0x24\n      dup3\n      add\n        /* \"#utility.yul\":6925:6955   */\n      mstore\n        /* \"#utility.yul\":6991:7025   */\n      0x416d6f756e74206d7573742062652067726561746572207468616e207a65726f\n        /* \"#utility.yul\":6971:6989   */\n      0x44\n      dup3\n      add\n        /* \"#utility.yul\":6964:7026   */\n      mstore\n      shl(0xf9, 0x17)\n        /* \"#utility.yul\":7042:7060   */\n      0x64\n      dup3\n      add\n        /* \"#utility.yul\":7035:7066   */\n      mstore\n        /* \"#utility.yul\":7083:7102   */\n      0x84\n      add\n        /* \"contracts/SimpleToken.sol\":5798:5854  require(amount > 0, \"Amount must be greater than zero.\") */\n      tag_267\n        /* \"#utility.yul\":6711:7108   */\n      jump\n        /* \"contracts/SimpleToken.sol\":5798:5854  require(amount > 0, \"Amount must be greater than zero.\") */\n    tag_300:\n        /* \"contracts/SimpleToken.sol\":5883:5893  msg.sender */\n      caller\n        /* \"@openzeppelin/contracts/token/ERC20/ERC20.sol\":3069:3076  uint256 */\n      0x00\n        /* \"@openzeppelin/contracts/token/ERC20/ERC20.sol\":3095:3113  _balances[account] */\n      swap1\n      dup2\n      mstore\n      0x20\n      dup2\n      swap1\n      mstore\n      0x40\n      swap1\n      keccak256\n      sload\n        /* \"contracts/SimpleToken.sol\":5898:5904  amount */\n      dup2\n      gt\n        /* \"contracts/SimpleToken.sol\":5873:5904  balanceOf(msg.sender) >= amount */\n      iszero\n        /* \"contracts/SimpleToken.sol\":5865:5930  require(balanceOf(msg.sender) >= amount, \"Insufficient balance.\") */\n      tag_304\n      jumpi\n      mload(0x40)\n      shl(0xe5, 0x461bcd)\n      dup2\n      mstore\n        /* \"#utility.yul\":7315:7317   */\n      0x20\n        /* \"contracts/SimpleToken.sol\":5865:5930  require(balanceOf(msg.sender) >= amount, \"Insufficient balance.\") */\n      0x04\n      dup3\n      add\n        /* \"#utility.yul\":7297:7318   */\n      mstore\n        /* \"#utility.yul\":7354:7356   */\n      0x15\n        /* \"#utility.yul\":7334:7352   */\n      0x24\n      dup3\n      add\n        /* \"#utility.yul\":7327:7357   */\n      mstore\n      shl(0x59, 0x24b739bab33334b1b4b2b73a103130b630b731b297)\n        /* \"#utility.yul\":7373:7391   */\n      0x44\n      dup3\n      add\n        /* \"#utility.yul\":7366:7417   */\n      mstore\n        /* \"#utility.yul\":7434:7452   */\n      0x64\n      add\n        /* \"contracts/SimpleToken.sol\":5865:5930  require(balanceOf(msg.sender) >= amount, \"Insufficient balance.\") */\n      tag_267\n        /* \"#utility.yul\":7113:7458   */\n      jump\n        /* \"contracts/SimpleToken.sol\":5865:5930  require(balanceOf(msg.sender) >= amount, \"Insufficient balance.\") */\n    tag_304:\n        /* \"contracts/SimpleToken.sol\":5943:5987  _transfer(msg.sender, address(this), amount) */\n      tag_307\n        /* \"contracts/SimpleToken.sol\":5953:5963  msg.sender */\n      caller\n        /* \"contracts/SimpleToken.sol\":5973:5977  this */\n      address\n        /* \"contracts/SimpleToken.sol\":5980:5986  amount */\n      dup4\n        /* \"contracts/SimpleToken.sol\":5943:5952  _transfer */\n      tag_280\n        /* \"contracts/SimpleToken.sol\":5943:5987  _transfer(msg.sender, address(this), amount) */\n      jump\t// in\n    tag_307:\n        /* \"contracts/SimpleToken.sol\":6011:6021  msg.sender */\n      caller\n        /* \"contracts/SimpleToken.sol\":5998:6022  stakedAmount[msg.sender] */\n      0x00\n      swap1\n      dup2\n      mstore\n        /* \"contracts/SimpleToken.sol\":5998:6010  stakedAmount */\n      0x0f\n        /* \"contracts/SimpleToken.sol\":5998:6022  stakedAmount[msg.sender] */\n      0x20\n      mstore\n      0x40\n      dup2\n      keccak256\n        /* \"contracts/SimpleToken.sol\":5998:6032  stakedAmount[msg.sender] += amount */\n      dup1\n      sload\n        /* \"contracts/SimpleToken.sol\":6026:6032  amount */\n      dup4\n      swap3\n        /* \"contracts/SimpleToken.sol\":5998:6022  stakedAmount[msg.sender] */\n      swap1\n        /* \"contracts/SimpleToken.sol\":5998:6032  stakedAmount[msg.sender] += amount */\n      tag_308\n      swap1\n        /* \"contracts/SimpleToken.sol\":6026:6032  amount */\n      dup5\n      swap1\n        /* \"contracts/SimpleToken.sol\":5998:6032  stakedAmount[msg.sender] += amount */\n      tag_309\n      jump\t// in\n    tag_308:\n      swap1\n      swap2\n      sstore\n      pop\n      pop\n        /* \"contracts/SimpleToken.sol\":6060:6070  msg.sender */\n      caller\n        /* \"contracts/SimpleToken.sol\":6043:6071  stakingTimestamp[msg.sender] */\n      0x00\n      dup2\n      dup2\n      mstore\n        /* \"contracts/SimpleToken.sol\":6043:6059  stakingTimestamp */\n      0x10\n        /* \"contracts/SimpleToken.sol\":6043:6071  stakingTimestamp[msg.sender] */\n      0x20\n      mstore\n      0x40\n      swap1\n      dup2\n      swap1\n      keccak256\n        /* \"contracts/SimpleToken.sol\":6074:6089  block.timestamp */\n      timestamp\n        /* \"contracts/SimpleToken.sol\":6043:6089  stakingTimestamp[msg.sender] = block.timestamp */\n      swap1\n      sstore\n        /* \"contracts/SimpleToken.sol\":6105:6137  TokensStaked(msg.sender, amount) */\n      mload\n      0xb539ca1e5c8d398ddf1c41c30166f33404941683be4683319b57669a93dad4ef\n      swap1\n      tag_310\n      swap1\n        /* \"contracts/SimpleToken.sol\":6130:6136  amount */\n      dup5\n        /* \"#utility.yul\":160:185   */\n      dup2\n      mstore\n        /* \"#utility.yul\":148:150   */\n      0x20\n        /* \"#utility.yul\":133:151   */\n      add\n      swap1\n        /* \"#utility.yul\":14:191   */\n      jump\n        /* \"contracts/SimpleToken.sol\":6105:6137  TokensStaked(msg.sender, amount) */\n    tag_310:\n      mload(0x40)\n      dup1\n      swap2\n      sub\n      swap1\n      log2\n        /* \"contracts/SimpleToken.sol\":5741:6145  function stakeTokens(uint256 amount) external {... */\n      pop\n      jump\t// out\n        /* \"contracts/SimpleToken.sol\":2681:3087  function mintReferralReward() external {... */\n    tag_146:\n        /* \"contracts/SimpleToken.sol\":2743:2758  presaleIsActive */\n      sload(0x05)\n      shl(0xa0, 0x01)\n      swap1\n      div\n      0xff\n      and\n        /* \"contracts/SimpleToken.sol\":2743:2764  presaleIsActive==true */\n      iszero\n      iszero\n        /* \"contracts/SimpleToken.sol\":2760:2764  true */\n      0x01\n        /* \"contracts/SimpleToken.sol\":2743:2764  presaleIsActive==true */\n      eq\n        /* \"contracts/SimpleToken.sol\":2735:2791  require(presaleIsActive==true,\"Presale not started yet\") */\n      tag_312\n      jumpi\n      mload(0x40)\n      shl(0xe5, 0x461bcd)\n      dup2\n      mstore\n        /* \"#utility.yul\":7795:7797   */\n      0x20\n        /* \"contracts/SimpleToken.sol\":2735:2791  require(presaleIsActive==true,\"Presale not started yet\") */\n      0x04\n      dup3\n      add\n        /* \"#utility.yul\":7777:7798   */\n      mstore\n        /* \"#utility.yul\":7834:7836   */\n      0x17\n        /* \"#utility.yul\":7814:7832   */\n      0x24\n      dup3\n      add\n        /* \"#utility.yul\":7807:7837   */\n      mstore\n        /* \"#utility.yul\":7873:7898   */\n      0x50726573616c65206e6f74207374617274656420796574000000000000000000\n        /* \"#utility.yul\":7853:7871   */\n      0x44\n      dup3\n      add\n        /* \"#utility.yul\":7846:7899   */\n      mstore\n        /* \"#utility.yul\":7916:7934   */\n      0x64\n      add\n        /* \"contracts/SimpleToken.sol\":2735:2791  require(presaleIsActive==true,\"Presale not started yet\") */\n      tag_267\n        /* \"#utility.yul\":7593:7940   */\n      jump\n        /* \"contracts/SimpleToken.sol\":2735:2791  require(presaleIsActive==true,\"Presale not started yet\") */\n    tag_312:\n        /* \"contracts/SimpleToken.sol\":2806:2826  uint256 rewardAmount */\n      0x00\n        /* \"contracts/SimpleToken.sol\":2829:2854  calculateReferralReward() */\n      tag_315\n        /* \"contracts/SimpleToken.sol\":2829:2852  calculateReferralReward */\n      tag_75\n        /* \"contracts/SimpleToken.sol\":2829:2854  calculateReferralReward() */\n      jump\t// in\n    tag_315:\n        /* \"contracts/SimpleToken.sol\":2806:2854  uint256 rewardAmount = calculateReferralReward() */\n      swap1\n      pop\n        /* \"contracts/SimpleToken.sol\":2892:2893  0 */\n      0x00\n        /* \"contracts/SimpleToken.sol\":2877:2889  rewardAmount */\n      dup2\n        /* \"contracts/SimpleToken.sol\":2877:2893  rewardAmount > 0 */\n      gt\n        /* \"contracts/SimpleToken.sol\":2869:2918  require(rewardAmount > 0, \"No rewards available\") */\n      tag_316\n      jumpi\n      mload(0x40)\n      shl(0xe5, 0x461bcd)\n      dup2\n      mstore\n        /* \"#utility.yul\":8147:8149   */\n      0x20\n        /* \"contracts/SimpleToken.sol\":2869:2918  require(rewardAmount > 0, \"No rewards available\") */\n      0x04\n      dup3\n      add\n        /* \"#utility.yul\":8129:8150   */\n      mstore\n        /* \"#utility.yul\":8186:8188   */\n      0x14\n        /* \"#utility.yul\":8166:8184   */\n      0x24\n      dup3\n      add\n        /* \"#utility.yul\":8159:8189   */\n      mstore\n      shl(0x60, 0x4e6f207265776172647320617661696c61626c65)\n        /* \"#utility.yul\":8205:8223   */\n      0x44\n      dup3\n      add\n        /* \"#utility.yul\":8198:8248   */\n      mstore\n        /* \"#utility.yul\":8265:8283   */\n      0x64\n      add\n        /* \"contracts/SimpleToken.sol\":2869:2918  require(rewardAmount > 0, \"No rewards available\") */\n      tag_267\n        /* \"#utility.yul\":7945:8289   */\n      jump\n        /* \"contracts/SimpleToken.sol\":2869:2918  require(rewardAmount > 0, \"No rewards available\") */\n    tag_316:\n        /* \"contracts/SimpleToken.sol\":2933:2964  _mint(msg.sender, rewardAmount) */\n      tag_319\n        /* \"contracts/SimpleToken.sol\":2939:2949  msg.sender */\n      caller\n        /* \"contracts/SimpleToken.sol\":2951:2963  rewardAmount */\n      dup3\n        /* \"contracts/SimpleToken.sol\":2933:2938  _mint */\n      tag_320\n        /* \"contracts/SimpleToken.sol\":2933:2964  _mint(msg.sender, rewardAmount) */\n      jump\t// in\n    tag_319:\n        /* \"contracts/SimpleToken.sol\":2994:3004  msg.sender */\n      caller\n        /* \"contracts/SimpleToken.sol\":3008:3009  0 */\n      0x00\n        /* \"contracts/SimpleToken.sol\":2979:3005  referralCounts[msg.sender] */\n      dup2\n      dup2\n      mstore\n        /* \"contracts/SimpleToken.sol\":2979:2993  referralCounts */\n      0x13\n        /* \"contracts/SimpleToken.sol\":2979:3005  referralCounts[msg.sender] */\n      0x20\n      mstore\n      0x40\n      dup1\n      dup3\n      keccak256\n        /* \"contracts/SimpleToken.sol\":2979:3009  referralCounts[msg.sender] = 0 */\n      swap2\n      swap1\n      swap2\n      sstore\n        /* \"contracts/SimpleToken.sol\":3029:3075  ReferralRewardMinted(msg.sender, rewardAmount) */\n      mload\n      0xf0bc0a70fe19ef2d8dc1e1948b338a1184184fb1ea3ac836f24065828816d68d\n      swap1\n      tag_310\n      swap1\n        /* \"contracts/SimpleToken.sol\":3062:3074  rewardAmount */\n      dup5\n        /* \"#utility.yul\":160:185   */\n      dup2\n      mstore\n        /* \"#utility.yul\":148:150   */\n      0x20\n        /* \"#utility.yul\":133:151   */\n      add\n      swap1\n        /* \"#utility.yul\":14:191   */\n      jump\n        /* \"@openzeppelin/contracts/token/ERC20/ERC20.sol\":1981:2074  function symbol() public view virtual returns (string memory) {... */\n    tag_159:\n        /* \"@openzeppelin/contracts/token/ERC20/ERC20.sol\":2028:2041  string memory */\n      0x60\n        /* \"@openzeppelin/contracts/token/ERC20/ERC20.sol\":2060:2067  _symbol */\n      0x04\n        /* \"@openzeppelin/contracts/token/ERC20/ERC20.sol\":2053:2067  return _symbol */\n      dup1\n      sload\n      tag_244\n      swap1\n      tag_245\n      jump\t// in\n        /* \"contracts/SimpleToken.sol\":6693:6959  function calculateStakingReward() public view returns (uint256) {... */\n    tag_163:\n        /* \"contracts/SimpleToken.sol\":6843:6865  stakingRewardFrequency */\n      sload(0x0e)\n        /* \"contracts/SimpleToken.sol\":6828:6838  msg.sender */\n      caller\n        /* \"contracts/SimpleToken.sol\":6748:6755  uint256 */\n      0x00\n        /* \"contracts/SimpleToken.sol\":6811:6839  stakingTimestamp[msg.sender] */\n      swap1\n      dup2\n      mstore\n        /* \"contracts/SimpleToken.sol\":6811:6827  stakingTimestamp */\n      0x10\n        /* \"contracts/SimpleToken.sol\":6811:6839  stakingTimestamp[msg.sender] */\n      0x20\n      mstore\n      0x40\n      dup2\n      keccak256\n      sload\n        /* \"contracts/SimpleToken.sol\":6748:6755  uint256 */\n      swap1\n      swap2\n      dup3\n      swap2\n        /* \"contracts/SimpleToken.sol\":6793:6839  block.timestamp - stakingTimestamp[msg.sender] */\n      tag_330\n      swap1\n        /* \"contracts/SimpleToken.sol\":6793:6808  block.timestamp */\n      timestamp\n        /* \"contracts/SimpleToken.sol\":6793:6839  block.timestamp - stakingTimestamp[msg.sender] */\n      tag_270\n      jump\t// in\n    tag_330:\n        /* \"contracts/SimpleToken.sol\":6792:6865  (block.timestamp - stakingTimestamp[msg.sender]) / stakingRewardFrequency */\n      tag_331\n      swap2\n      swap1\n      tag_273\n      jump\t// in\n    tag_331:\n        /* \"contracts/SimpleToken.sol\":6911:6928  stakingRewardRate */\n      sload(0x0c)\n        /* \"contracts/SimpleToken.sol\":6897:6907  msg.sender */\n      caller\n        /* \"contracts/SimpleToken.sol\":6884:6908  stakedAmount[msg.sender] */\n      0x00\n      swap1\n      dup2\n      mstore\n        /* \"contracts/SimpleToken.sol\":6884:6896  stakedAmount */\n      0x0f\n        /* \"contracts/SimpleToken.sol\":6884:6908  stakedAmount[msg.sender] */\n      0x20\n      mstore\n      0x40\n      swap1\n      keccak256\n      sload\n        /* \"contracts/SimpleToken.sol\":6768:6865  uint256 periodsStaked = (block.timestamp - stakingTimestamp[msg.sender]) / stakingRewardFrequency */\n      swap2\n      swap3\n      pop\n        /* \"contracts/SimpleToken.sol\":6948:6951  100 */\n      0x64\n      swap2\n        /* \"contracts/SimpleToken.sol\":6768:6865  uint256 periodsStaked = (block.timestamp - stakingTimestamp[msg.sender]) / stakingRewardFrequency */\n      dup4\n      swap2\n        /* \"contracts/SimpleToken.sol\":6884:6928  stakedAmount[msg.sender] * stakingRewardRate */\n      tag_332\n      swap2\n      tag_260\n      jump\t// in\n    tag_332:\n        /* \"contracts/SimpleToken.sol\":6884:6944  stakedAmount[msg.sender] * stakingRewardRate * periodsStaked */\n      tag_333\n      swap2\n      swap1\n      tag_260\n      jump\t// in\n    tag_333:\n        /* \"contracts/SimpleToken.sol\":6883:6951  (stakedAmount[msg.sender] * stakingRewardRate * periodsStaked) / 100 */\n      tag_334\n      swap2\n      swap1\n      tag_273\n      jump\t// in\n    tag_334:\n        /* \"contracts/SimpleToken.sol\":6876:6951  return (stakedAmount[msg.sender] * stakingRewardRate * periodsStaked) / 100 */\n      swap2\n      pop\n      pop\n        /* \"contracts/SimpleToken.sol\":6693:6959  function calculateStakingReward() public view returns (uint256) {... */\n      swap1\n      jump\t// out\n        /* \"contracts/SimpleToken.sol\":2036:2517  function signUpForWhitelist(address referral) external {... */\n    tag_178:\n        /* \"contracts/SimpleToken.sol\":2121:2131  msg.sender */\n      caller\n        /* \"contracts/SimpleToken.sol\":2111:2132  whitelist[msg.sender] */\n      0x00\n      swap1\n      dup2\n      mstore\n        /* \"contracts/SimpleToken.sol\":2111:2120  whitelist */\n      0x11\n        /* \"contracts/SimpleToken.sol\":2111:2132  whitelist[msg.sender] */\n      0x20\n      mstore\n      0x40\n      swap1\n      keccak256\n      sload\n      0xff\n      and\n        /* \"contracts/SimpleToken.sol\":2110:2132  !whitelist[msg.sender] */\n      iszero\n        /* \"contracts/SimpleToken.sol\":2102:2156  require(!whitelist[msg.sender], \"Already whitelisted\") */\n      tag_336\n      jumpi\n      mload(0x40)\n      shl(0xe5, 0x461bcd)\n      dup2\n      mstore\n        /* \"#utility.yul\":8496:8498   */\n      0x20\n        /* \"contracts/SimpleToken.sol\":2102:2156  require(!whitelist[msg.sender], \"Already whitelisted\") */\n      0x04\n      dup3\n      add\n        /* \"#utility.yul\":8478:8499   */\n      mstore\n        /* \"#utility.yul\":8535:8537   */\n      0x13\n        /* \"#utility.yul\":8515:8533   */\n      0x24\n      dup3\n      add\n        /* \"#utility.yul\":8508:8538   */\n      mstore\n      shl(0x6a, 0x105b1c9958591e481dda1a5d195b1a5cdd1959)\n        /* \"#utility.yul\":8554:8572   */\n      0x44\n      dup3\n      add\n        /* \"#utility.yul\":8547:8596   */\n      mstore\n        /* \"#utility.yul\":8613:8631   */\n      0x64\n      add\n        /* \"contracts/SimpleToken.sol\":2102:2156  require(!whitelist[msg.sender], \"Already whitelisted\") */\n      tag_267\n        /* \"#utility.yul\":8294:8637   */\n      jump\n        /* \"contracts/SimpleToken.sol\":2102:2156  require(!whitelist[msg.sender], \"Already whitelisted\") */\n    tag_336:\n      sub(shl(0xa0, 0x01), 0x01)\n        /* \"contracts/SimpleToken.sol\":2175:2197  msg.sender != referral */\n      dup2\n      and\n        /* \"contracts/SimpleToken.sol\":2175:2185  msg.sender */\n      caller\n        /* \"contracts/SimpleToken.sol\":2175:2197  msg.sender != referral */\n      sub\n        /* \"contracts/SimpleToken.sol\":2167:2223  require(msg.sender != referral, \"Cannot refer yourself\") */\n      tag_339\n      jumpi\n      mload(0x40)\n      shl(0xe5, 0x461bcd)\n      dup2\n      mstore\n        /* \"#utility.yul\":8844:8846   */\n      0x20\n        /* \"contracts/SimpleToken.sol\":2167:2223  require(msg.sender != referral, \"Cannot refer yourself\") */\n      0x04\n      dup3\n      add\n        /* \"#utility.yul\":8826:8847   */\n      mstore\n        /* \"#utility.yul\":8883:8885   */\n      0x15\n        /* \"#utility.yul\":8863:8881   */\n      0x24\n      dup3\n      add\n        /* \"#utility.yul\":8856:8886   */\n      mstore\n      shl(0x59, 0x21b0b73737ba103932b332b9103cb7bab939b2b633)\n        /* \"#utility.yul\":8902:8920   */\n      0x44\n      dup3\n      add\n        /* \"#utility.yul\":8895:8946   */\n      mstore\n        /* \"#utility.yul\":8963:8981   */\n      0x64\n      add\n        /* \"contracts/SimpleToken.sol\":2167:2223  require(msg.sender != referral, \"Cannot refer yourself\") */\n      tag_267\n        /* \"#utility.yul\":8642:8987   */\n      jump\n        /* \"contracts/SimpleToken.sol\":2167:2223  require(msg.sender != referral, \"Cannot refer yourself\") */\n    tag_339:\n        /* \"contracts/SimpleToken.sol\":2254:2264  msg.sender */\n      caller\n        /* \"contracts/SimpleToken.sol\":2244:2265  whitelist[msg.sender] */\n      0x00\n      swap1\n      dup2\n      mstore\n        /* \"contracts/SimpleToken.sol\":2244:2253  whitelist */\n      0x11\n        /* \"contracts/SimpleToken.sol\":2244:2265  whitelist[msg.sender] */\n      0x20\n      mstore\n      0x40\n      swap1\n      keccak256\n        /* \"contracts/SimpleToken.sol\":2244:2272  whitelist[msg.sender] = true */\n      dup1\n      sload\n      not(0xff)\n      and\n        /* \"contracts/SimpleToken.sol\":2268:2272  true */\n      0x01\n        /* \"contracts/SimpleToken.sol\":2244:2272  whitelist[msg.sender] = true */\n      or\n      swap1\n      sstore\n      sub(shl(0xa0, 0x01), 0x01)\n        /* \"contracts/SimpleToken.sol\":2297:2319  referral != address(0) */\n      dup2\n      and\n      iszero\n      dup1\n      iszero\n      swap1\n        /* \"contracts/SimpleToken.sol\":2297:2342  referral != address(0) && whitelist[referral] */\n      tag_342\n      jumpi\n      pop\n      sub(shl(0xa0, 0x01), 0x01)\n        /* \"contracts/SimpleToken.sol\":2323:2342  whitelist[referral] */\n      dup2\n      and\n      0x00\n      swap1\n      dup2\n      mstore\n        /* \"contracts/SimpleToken.sol\":2323:2332  whitelist */\n      0x11\n        /* \"contracts/SimpleToken.sol\":2323:2342  whitelist[referral] */\n      0x20\n      mstore\n      0x40\n      swap1\n      keccak256\n      sload\n      0xff\n      and\n        /* \"contracts/SimpleToken.sol\":2297:2342  referral != address(0) && whitelist[referral] */\n    tag_342:\n        /* \"contracts/SimpleToken.sol\":2293:2447  if (referral != address(0) && whitelist[referral]) {... */\n      iszero\n      tag_343\n      jumpi\n        /* \"contracts/SimpleToken.sol\":2369:2379  msg.sender */\n      caller\n        /* \"contracts/SimpleToken.sol\":2359:2380  referrals[msg.sender] */\n      0x00\n      swap1\n      dup2\n      mstore\n        /* \"contracts/SimpleToken.sol\":2359:2368  referrals */\n      0x12\n        /* \"contracts/SimpleToken.sol\":2359:2380  referrals[msg.sender] */\n      0x20\n      swap1\n      dup2\n      mstore\n      0x40\n      dup1\n      dup4\n      keccak256\n        /* \"contracts/SimpleToken.sol\":2359:2391  referrals[msg.sender] = referral */\n      dup1\n      sload\n      not(sub(shl(0xa0, 0x01), 0x01))\n      and\n      sub(shl(0xa0, 0x01), 0x01)\n      dup7\n      and\n      swap1\n      dup2\n      or\n      swap1\n      swap2\n      sstore\n        /* \"contracts/SimpleToken.sol\":2406:2430  referralCounts[referral] */\n      dup4\n      mstore\n        /* \"contracts/SimpleToken.sol\":2406:2420  referralCounts */\n      0x13\n        /* \"contracts/SimpleToken.sol\":2406:2430  referralCounts[referral] */\n      swap1\n      swap2\n      mstore\n      dup2\n      keccak256\n        /* \"contracts/SimpleToken.sol\":2406:2435  referralCounts[referral] += 1 */\n      dup1\n      sload\n      0x01\n      swap3\n        /* \"contracts/SimpleToken.sol\":2359:2380  referrals[msg.sender] */\n      swap1\n        /* \"contracts/SimpleToken.sol\":2406:2435  referralCounts[referral] += 1 */\n      tag_344\n      swap1\n      dup5\n      swap1\n      tag_309\n      jump\t// in\n    tag_344:\n      swap1\n      swap2\n      sstore\n      pop\n      pop\n        /* \"contracts/SimpleToken.sol\":2293:2447  if (referral != address(0) && whitelist[referral]) {... */\n    tag_343:\n        /* \"contracts/SimpleToken.sol\":2472:2509  UserWhitelisted(msg.sender, referral) */\n      mload(0x40)\n      sub(shl(0xa0, 0x01), 0x01)\n      dup3\n      and\n      swap1\n        /* \"contracts/SimpleToken.sol\":2488:2498  msg.sender */\n      caller\n      swap1\n        /* \"contracts/SimpleToken.sol\":2472:2509  UserWhitelisted(msg.sender, referral) */\n      0x4bc18aa4b0095c9a3b5cdf42d2322d5a145591b04045988a995a5da426075457\n      swap1\n      0x00\n      swap1\n      log3\n        /* \"contracts/SimpleToken.sol\":2036:2517  function signUpForWhitelist(address referral) external {... */\n      pop\n      jump\t// out\n        /* \"contracts/SimpleToken.sol\":6153:6685  function unstakeTokens() external {... */\n    tag_181:\n        /* \"contracts/SimpleToken.sol\":6228:6238  msg.sender */\n      caller\n        /* \"contracts/SimpleToken.sol\":6198:6212  uint256 amount */\n      0x00\n        /* \"contracts/SimpleToken.sol\":6215:6239  stakedAmount[msg.sender] */\n      swap1\n      dup2\n      mstore\n        /* \"contracts/SimpleToken.sol\":6215:6227  stakedAmount */\n      0x0f\n        /* \"contracts/SimpleToken.sol\":6215:6239  stakedAmount[msg.sender] */\n      0x20\n      mstore\n      0x40\n      swap1\n      keccak256\n      sload\n        /* \"contracts/SimpleToken.sol\":6258:6268  amount > 0 */\n      dup1\n        /* \"contracts/SimpleToken.sol\":6250:6290  require(amount > 0, \"No tokens staked.\") */\n      tag_346\n      jumpi\n      mload(0x40)\n      shl(0xe5, 0x461bcd)\n      dup2\n      mstore\n        /* \"#utility.yul\":9194:9196   */\n      0x20\n        /* \"contracts/SimpleToken.sol\":6250:6290  require(amount > 0, \"No tokens staked.\") */\n      0x04\n      dup3\n      add\n        /* \"#utility.yul\":9176:9197   */\n      mstore\n        /* \"#utility.yul\":9233:9235   */\n      0x11\n        /* \"#utility.yul\":9213:9231   */\n      0x24\n      dup3\n      add\n        /* \"#utility.yul\":9206:9236   */\n      mstore\n      shl(0x79, 0x2737903a37b5b2b7399039ba30b5b2b217)\n        /* \"#utility.yul\":9252:9270   */\n      0x44\n      dup3\n      add\n        /* \"#utility.yul\":9245:9292   */\n      mstore\n        /* \"#utility.yul\":9309:9327   */\n      0x64\n      add\n        /* \"contracts/SimpleToken.sol\":6250:6290  require(amount > 0, \"No tokens staked.\") */\n      tag_267\n        /* \"#utility.yul\":8992:9333   */\n      jump\n        /* \"contracts/SimpleToken.sol\":6250:6290  require(amount > 0, \"No tokens staked.\") */\n    tag_346:\n        /* \"contracts/SimpleToken.sol\":6359:6377  minUnstakingPeriod */\n      sload(0x0d)\n        /* \"contracts/SimpleToken.sol\":6345:6355  msg.sender */\n      caller\n        /* \"contracts/SimpleToken.sol\":6328:6356  stakingTimestamp[msg.sender] */\n      0x00\n      swap1\n      dup2\n      mstore\n        /* \"contracts/SimpleToken.sol\":6328:6344  stakingTimestamp */\n      0x10\n        /* \"contracts/SimpleToken.sol\":6328:6356  stakingTimestamp[msg.sender] */\n      0x20\n      mstore\n      0x40\n      swap1\n      keccak256\n      sload\n        /* \"contracts/SimpleToken.sol\":6328:6377  stakingTimestamp[msg.sender] + minUnstakingPeriod */\n      tag_349\n      swap2\n        /* \"contracts/SimpleToken.sol\":6359:6377  minUnstakingPeriod */\n      swap1\n        /* \"contracts/SimpleToken.sol\":6328:6377  stakingTimestamp[msg.sender] + minUnstakingPeriod */\n      tag_309\n      jump\t// in\n    tag_349:\n        /* \"contracts/SimpleToken.sol\":6309:6324  block.timestamp */\n      timestamp\n        /* \"contracts/SimpleToken.sol\":6309:6377  block.timestamp >= stakingTimestamp[msg.sender] + minUnstakingPeriod */\n      lt\n      iszero\n        /* \"contracts/SimpleToken.sol\":6301:6409  require(block.timestamp >= stakingTimestamp[msg.sender] + minUnstakingPeriod, \"Unstake only after 4 weeks.\") */\n      tag_350\n      jumpi\n      mload(0x40)\n      shl(0xe5, 0x461bcd)\n      dup2\n      mstore\n        /* \"#utility.yul\":9540:9542   */\n      0x20\n        /* \"contracts/SimpleToken.sol\":6301:6409  require(block.timestamp >= stakingTimestamp[msg.sender] + minUnstakingPeriod, \"Unstake only after 4 weeks.\") */\n      0x04\n      dup3\n      add\n        /* \"#utility.yul\":9522:9543   */\n      mstore\n        /* \"#utility.yul\":9579:9581   */\n      0x1b\n        /* \"#utility.yul\":9559:9577   */\n      0x24\n      dup3\n      add\n        /* \"#utility.yul\":9552:9582   */\n      mstore\n        /* \"#utility.yul\":9618:9647   */\n      0x556e7374616b65206f6e6c792061667465722034207765656b732e0000000000\n        /* \"#utility.yul\":9598:9616   */\n      0x44\n      dup3\n      add\n        /* \"#utility.yul\":9591:9648   */\n      mstore\n        /* \"#utility.yul\":9665:9683   */\n      0x64\n      add\n        /* \"contracts/SimpleToken.sol\":6301:6409  require(block.timestamp >= stakingTimestamp[msg.sender] + minUnstakingPeriod, \"Unstake only after 4 weeks.\") */\n      tag_267\n        /* \"#utility.yul\":9338:9689   */\n      jump\n        /* \"contracts/SimpleToken.sol\":6301:6409  require(block.timestamp >= stakingTimestamp[msg.sender] + minUnstakingPeriod, \"Unstake only after 4 weeks.\") */\n    tag_350:\n        /* \"contracts/SimpleToken.sol\":6430:6444  uint256 reward */\n      0x00\n        /* \"contracts/SimpleToken.sol\":6447:6471  calculateStakingReward() */\n      tag_353\n        /* \"contracts/SimpleToken.sol\":6447:6469  calculateStakingReward */\n      tag_163\n        /* \"contracts/SimpleToken.sol\":6447:6471  calculateStakingReward() */\n      jump\t// in\n    tag_353:\n        /* \"contracts/SimpleToken.sol\":6495:6505  msg.sender */\n      caller\n        /* \"contracts/SimpleToken.sol\":6509:6510  0 */\n      0x00\n        /* \"contracts/SimpleToken.sol\":6482:6506  stakedAmount[msg.sender] */\n      dup2\n      dup2\n      mstore\n        /* \"contracts/SimpleToken.sol\":6482:6494  stakedAmount */\n      0x0f\n        /* \"contracts/SimpleToken.sol\":6482:6506  stakedAmount[msg.sender] */\n      0x20\n      swap1\n      dup2\n      mstore\n      0x40\n      dup1\n      dup4\n      keccak256\n        /* \"contracts/SimpleToken.sol\":6482:6510  stakedAmount[msg.sender] = 0 */\n      dup4\n      swap1\n      sstore\n        /* \"contracts/SimpleToken.sol\":6521:6537  stakingTimestamp */\n      0x10\n        /* \"contracts/SimpleToken.sol\":6521:6549  stakingTimestamp[msg.sender] */\n      swap1\n      swap2\n      mstore\n      dup2\n      keccak256\n        /* \"contracts/SimpleToken.sol\":6521:6553  stakingTimestamp[msg.sender] = 0 */\n      sstore\n        /* \"contracts/SimpleToken.sol\":6430:6471  uint256 reward = calculateStakingReward() */\n      swap1\n      swap2\n      pop\n        /* \"contracts/SimpleToken.sol\":6566:6619  _transfer(address(this), msg.sender, amount + reward) */\n      tag_354\n      swap1\n        /* \"contracts/SimpleToken.sol\":6584:6588  this */\n      address\n      swap1\n        /* \"contracts/SimpleToken.sol\":6603:6618  amount + reward */\n      tag_355\n        /* \"contracts/SimpleToken.sol\":6430:6471  uint256 reward = calculateStakingReward() */\n      dup5\n        /* \"contracts/SimpleToken.sol\":6603:6609  amount */\n      dup7\n        /* \"contracts/SimpleToken.sol\":6603:6618  amount + reward */\n      tag_309\n      jump\t// in\n    tag_355:\n        /* \"contracts/SimpleToken.sol\":6566:6575  _transfer */\n      tag_280\n        /* \"contracts/SimpleToken.sol\":6566:6619  _transfer(address(this), msg.sender, amount + reward) */\n      jump\t// in\n    tag_354:\n        /* \"contracts/SimpleToken.sol\":6635:6677  TokensUnstaked(msg.sender, amount, reward) */\n      0x40\n      dup1\n      mload\n        /* \"#utility.yul\":6632:6657   */\n      dup4\n      dup2\n      mstore\n        /* \"#utility.yul\":6688:6690   */\n      0x20\n        /* \"#utility.yul\":6673:6691   */\n      dup2\n      add\n        /* \"#utility.yul\":6666:6700   */\n      dup4\n      swap1\n      mstore\n        /* \"contracts/SimpleToken.sol\":6650:6660  msg.sender */\n      caller\n      swap2\n        /* \"contracts/SimpleToken.sol\":6635:6677  TokensUnstaked(msg.sender, amount, reward) */\n      0x6f2d3e000c89d37446b7c0374c0125068ff316d1e3ee302336478a8cd03c2336\n      swap2\n        /* \"#utility.yul\":6605:6623   */\n      add\n        /* \"contracts/SimpleToken.sol\":6635:6677  TokensUnstaked(msg.sender, amount, reward) */\n      mload(0x40)\n      dup1\n      swap2\n      sub\n      swap1\n      log2\n        /* \"contracts/SimpleToken.sol\":6187:6685  {... */\n      pop\n      pop\n        /* \"contracts/SimpleToken.sol\":6153:6685  function unstakeTokens() external {... */\n      jump\t// out\n        /* \"@openzeppelin/contracts/token/ERC20/ERC20.sol\":3315:3493  function transfer(address to, uint256 value) public virtual returns (bool) {... */\n    tag_189:\n        /* \"@openzeppelin/contracts/token/ERC20/ERC20.sol\":3384:3388  bool */\n      0x00\n        /* \"@openzeppelin/contracts/utils/Context.sol\":735:745  msg.sender */\n      caller\n        /* \"@openzeppelin/contracts/token/ERC20/ERC20.sol\":3438:3465  _transfer(owner, to, value) */\n      tag_253\n        /* \"@openzeppelin/contracts/utils/Context.sol\":735:745  msg.sender */\n      dup2\n        /* \"@openzeppelin/contracts/token/ERC20/ERC20.sol\":3455:3457  to */\n      dup6\n        /* \"@openzeppelin/contracts/token/ERC20/ERC20.sol\":3459:3464  value */\n      dup6\n        /* \"@openzeppelin/contracts/token/ERC20/ERC20.sol\":3438:3447  _transfer */\n      tag_280\n        /* \"@openzeppelin/contracts/token/ERC20/ERC20.sol\":3438:3465  _transfer(owner, to, value) */\n      jump\t// in\n        /* \"contracts/SimpleToken.sol\":7101:7253  function getStackingPeriod() public view returns (uint256) {... */\n    tag_193:\n        /* \"contracts/SimpleToken.sol\":7227:7245  minUnstakingPeriod */\n      sload(0x0d)\n        /* \"contracts/SimpleToken.sol\":7213:7223  msg.sender */\n      caller\n        /* \"contracts/SimpleToken.sol\":7151:7158  uint256 */\n      0x00\n        /* \"contracts/SimpleToken.sol\":7196:7224  stakingTimestamp[msg.sender] */\n      swap1\n      dup2\n      mstore\n        /* \"contracts/SimpleToken.sol\":7196:7212  stakingTimestamp */\n      0x10\n        /* \"contracts/SimpleToken.sol\":7196:7224  stakingTimestamp[msg.sender] */\n      0x20\n      mstore\n      0x40\n      dup2\n      keccak256\n      sload\n        /* \"contracts/SimpleToken.sol\":7151:7158  uint256 */\n      swap1\n      swap2\n        /* \"contracts/SimpleToken.sol\":7196:7245  stakingTimestamp[msg.sender] + minUnstakingPeriod */\n      tag_261\n      swap2\n      tag_309\n      jump\t// in\n        /* \"contracts/SimpleToken.sol\":3559:3892  function calculateStepsElapsed(uint256 startTime, uint256 endTime) public view returns (uint256) {... */\n    tag_212:\n        /* \"contracts/SimpleToken.sol\":3647:3654  uint256 */\n      0x00\n        /* \"contracts/SimpleToken.sol\":3690:3699  startTime */\n      dup3\n        /* \"contracts/SimpleToken.sol\":3679:3686  endTime */\n      dup3\n        /* \"contracts/SimpleToken.sol\":3679:3699  endTime >= startTime */\n      lt\n      iszero\n        /* \"contracts/SimpleToken.sol\":3671:3737  require(endTime >= startTime, \"End time must be after start time\") */\n      tag_363\n      jumpi\n      mload(0x40)\n      shl(0xe5, 0x461bcd)\n      dup2\n      mstore\n      0x04\n      add\n      tag_267\n      swap1\n      tag_268\n      jump\t// in\n    tag_363:\n        /* \"contracts/SimpleToken.sol\":3752:3772  uint256 stepsElapsed */\n      0x00\n        /* \"contracts/SimpleToken.sol\":3833:3845  preSaleSteps */\n      sload(0x0b)\n        /* \"contracts/SimpleToken.sol\":3815:3831  preSaleStartTime */\n      sload(0x06)\n        /* \"contracts/SimpleToken.sol\":3800:3814  preSaleEndTime */\n      sload(0x07)\n        /* \"contracts/SimpleToken.sol\":3800:3831  preSaleEndTime-preSaleStartTime */\n      tag_365\n      swap2\n      swap1\n      tag_270\n      jump\t// in\n    tag_365:\n        /* \"contracts/SimpleToken.sol\":3776:3795  endTime - startTime */\n      tag_366\n        /* \"contracts/SimpleToken.sol\":3786:3795  startTime */\n      dup7\n        /* \"contracts/SimpleToken.sol\":3776:3783  endTime */\n      dup7\n        /* \"contracts/SimpleToken.sol\":3776:3795  endTime - startTime */\n      tag_270\n      jump\t// in\n    tag_366:\n        /* \"contracts/SimpleToken.sol\":3775:3832  (endTime - startTime) / (preSaleEndTime-preSaleStartTime) */\n      tag_367\n      swap2\n      swap1\n      tag_273\n      jump\t// in\n    tag_367:\n        /* \"contracts/SimpleToken.sol\":3775:3845  (endTime - startTime) / (preSaleEndTime-preSaleStartTime)/preSaleSteps */\n      tag_368\n      swap2\n      swap1\n      tag_273\n      jump\t// in\n    tag_368:\n        /* \"contracts/SimpleToken.sol\":3752:3845  uint256 stepsElapsed = (endTime - startTime) / (preSaleEndTime-preSaleStartTime)/preSaleSteps */\n      swap5\n        /* \"contracts/SimpleToken.sol\":3559:3892  function calculateStepsElapsed(uint256 startTime, uint256 endTime) public view returns (uint256) {... */\n      swap4\n      pop\n      pop\n      pop\n      pop\n      jump\t// out\n        /* \"contracts/SimpleToken.sol\":4986:5623  function buyTokens() external payable {... */\n    tag_215:\n        /* \"contracts/SimpleToken.sol\":5043:5058  presaleIsActive */\n      sload(0x05)\n      shl(0xa0, 0x01)\n      swap1\n      div\n      0xff\n      and\n        /* \"contracts/SimpleToken.sol\":5035:5079  require(presaleIsActive, \"Sale not active.\") */\n      tag_370\n      jumpi\n      mload(0x40)\n      shl(0xe5, 0x461bcd)\n      dup2\n      mstore\n        /* \"#utility.yul\":9896:9898   */\n      0x20\n        /* \"contracts/SimpleToken.sol\":5035:5079  require(presaleIsActive, \"Sale not active.\") */\n      0x04\n      dup3\n      add\n        /* \"#utility.yul\":9878:9899   */\n      mstore\n        /* \"#utility.yul\":9935:9937   */\n      0x10\n        /* \"#utility.yul\":9915:9933   */\n      0x24\n      dup3\n      add\n        /* \"#utility.yul\":9908:9938   */\n      mstore\n      shl(0x81, 0x29b0b632903737ba1030b1ba34bb3297)\n        /* \"#utility.yul\":9954:9972   */\n      0x44\n      dup3\n      add\n        /* \"#utility.yul\":9947:9993   */\n      mstore\n        /* \"#utility.yul\":10010:10028   */\n      0x64\n      add\n        /* \"contracts/SimpleToken.sol\":5035:5079  require(presaleIsActive, \"Sale not active.\") */\n      tag_267\n        /* \"#utility.yul\":9694:10034   */\n      jump\n        /* \"contracts/SimpleToken.sol\":5035:5079  require(presaleIsActive, \"Sale not active.\") */\n    tag_370:\n        /* \"contracts/SimpleToken.sol\":5110:5111  0 */\n      0x00\n        /* \"contracts/SimpleToken.sol\":5098:5107  msg.value */\n      callvalue\n        /* \"contracts/SimpleToken.sol\":5098:5111  msg.value > 0 */\n      gt\n        /* \"contracts/SimpleToken.sol\":5090:5144  require(msg.value > 0, \"Must send ETH to buy tokens.\") */\n      tag_373\n      jumpi\n      mload(0x40)\n      shl(0xe5, 0x461bcd)\n      dup2\n      mstore\n        /* \"#utility.yul\":10241:10243   */\n      0x20\n        /* \"contracts/SimpleToken.sol\":5090:5144  require(msg.value > 0, \"Must send ETH to buy tokens.\") */\n      0x04\n      dup3\n      add\n        /* \"#utility.yul\":10223:10244   */\n      mstore\n        /* \"#utility.yul\":10280:10282   */\n      0x1c\n        /* \"#utility.yul\":10260:10278   */\n      0x24\n      dup3\n      add\n        /* \"#utility.yul\":10253:10283   */\n      mstore\n        /* \"#utility.yul\":10319:10349   */\n      0x4d7573742073656e642045544820746f2062757920746f6b656e732e00000000\n        /* \"#utility.yul\":10299:10317   */\n      0x44\n      dup3\n      add\n        /* \"#utility.yul\":10292:10350   */\n      mstore\n        /* \"#utility.yul\":10367:10385   */\n      0x64\n      add\n        /* \"contracts/SimpleToken.sol\":5090:5144  require(msg.value > 0, \"Must send ETH to buy tokens.\") */\n      tag_267\n        /* \"#utility.yul\":10039:10391   */\n      jump\n        /* \"contracts/SimpleToken.sol\":5090:5144  require(msg.value > 0, \"Must send ETH to buy tokens.\") */\n    tag_373:\n        /* \"contracts/SimpleToken.sol\":5157:5177  uint256 currentPrice */\n      0x00\n        /* \"contracts/SimpleToken.sol\":5180:5196  calculatePrice() */\n      tag_376\n        /* \"contracts/SimpleToken.sol\":5180:5194  calculatePrice */\n      tag_218\n        /* \"contracts/SimpleToken.sol\":5180:5196  calculatePrice() */\n      jump\t// in\n    tag_376:\n        /* \"contracts/SimpleToken.sol\":5157:5196  uint256 currentPrice = calculatePrice() */\n      swap1\n      pop\n        /* \"contracts/SimpleToken.sol\":5245:5264  uint256 tokensToBuy */\n      0x00\n        /* \"contracts/SimpleToken.sol\":5267:5293  (msg.value) / currentPrice */\n      tag_377\n        /* \"contracts/SimpleToken.sol\":5157:5196  uint256 currentPrice = calculatePrice() */\n      dup3\n        /* \"contracts/SimpleToken.sol\":5268:5277  msg.value */\n      callvalue\n        /* \"contracts/SimpleToken.sol\":5267:5293  (msg.value) / currentPrice */\n      tag_273\n      jump\t// in\n    tag_377:\n        /* \"contracts/SimpleToken.sol\":5330:5334  this */\n      address\n        /* \"@openzeppelin/contracts/token/ERC20/ERC20.sol\":3069:3076  uint256 */\n      0x00\n        /* \"@openzeppelin/contracts/token/ERC20/ERC20.sol\":3095:3113  _balances[account] */\n      swap1\n      dup2\n      mstore\n      0x20\n      dup2\n      swap1\n      mstore\n      0x40\n      swap1\n      keccak256\n      sload\n        /* \"contracts/SimpleToken.sol\":5245:5293  uint256 tokensToBuy = (msg.value) / currentPrice */\n      swap1\n      swap2\n      pop\n      dup2\n      gt\n        /* \"contracts/SimpleToken.sol\":5312:5351  balanceOf(address(this)) >= tokensToBuy */\n      iszero\n        /* \"contracts/SimpleToken.sol\":5304:5384  require(balanceOf(address(this)) >= tokensToBuy, \"Not enough tokens available.\") */\n      tag_379\n      jumpi\n      mload(0x40)\n      shl(0xe5, 0x461bcd)\n      dup2\n      mstore\n        /* \"#utility.yul\":10598:10600   */\n      0x20\n        /* \"contracts/SimpleToken.sol\":5304:5384  require(balanceOf(address(this)) >= tokensToBuy, \"Not enough tokens available.\") */\n      0x04\n      dup3\n      add\n        /* \"#utility.yul\":10580:10601   */\n      mstore\n        /* \"#utility.yul\":10637:10639   */\n      0x1c\n        /* \"#utility.yul\":10617:10635   */\n      0x24\n      dup3\n      add\n        /* \"#utility.yul\":10610:10640   */\n      mstore\n        /* \"#utility.yul\":10676:10706   */\n      0x4e6f7420656e6f75676820746f6b656e7320617661696c61626c652e00000000\n        /* \"#utility.yul\":10656:10674   */\n      0x44\n      dup3\n      add\n        /* \"#utility.yul\":10649:10707   */\n      mstore\n        /* \"#utility.yul\":10724:10742   */\n      0x64\n      add\n        /* \"contracts/SimpleToken.sol\":5304:5384  require(balanceOf(address(this)) >= tokensToBuy, \"Not enough tokens available.\") */\n      tag_267\n        /* \"#utility.yul\":10396:10748   */\n      jump\n        /* \"contracts/SimpleToken.sol\":5304:5384  require(balanceOf(address(this)) >= tokensToBuy, \"Not enough tokens available.\") */\n    tag_379:\n        /* \"contracts/SimpleToken.sol\":5404:5414  msg.sender */\n      caller\n        /* \"contracts/SimpleToken.sol\":5395:5415  balances[msg.sender] */\n      0x00\n      swap1\n      dup2\n      mstore\n        /* \"contracts/SimpleToken.sol\":5395:5403  balances */\n      0x14\n        /* \"contracts/SimpleToken.sol\":5395:5415  balances[msg.sender] */\n      0x20\n      mstore\n      0x40\n      dup2\n      keccak256\n        /* \"contracts/SimpleToken.sol\":5395:5430  balances[msg.sender] += tokensToBuy */\n      dup1\n      sload\n        /* \"contracts/SimpleToken.sol\":5419:5430  tokensToBuy */\n      dup4\n      swap3\n        /* \"contracts/SimpleToken.sol\":5395:5415  balances[msg.sender] */\n      swap1\n        /* \"contracts/SimpleToken.sol\":5395:5430  balances[msg.sender] += tokensToBuy */\n      tag_382\n      swap1\n        /* \"contracts/SimpleToken.sol\":5419:5430  tokensToBuy */\n      dup5\n      swap1\n        /* \"contracts/SimpleToken.sol\":5395:5430  balances[msg.sender] += tokensToBuy */\n      tag_309\n      jump\t// in\n    tag_382:\n      swap1\n      swap2\n      sstore\n      pop\n        /* \"contracts/SimpleToken.sol\":5441:5490  _transfer(address(this), msg.sender, tokensToBuy) */\n      tag_383\n      swap1\n      pop\n        /* \"contracts/SimpleToken.sol\":5459:5463  this */\n      address\n        /* \"contracts/SimpleToken.sol\":5466:5476  msg.sender */\n      caller\n        /* \"contracts/SimpleToken.sol\":5478:5489  tokensToBuy */\n      dup4\n        /* \"contracts/SimpleToken.sol\":5441:5450  _transfer */\n      tag_280\n        /* \"contracts/SimpleToken.sol\":5441:5490  _transfer(address(this), msg.sender, tokensToBuy) */\n      jump\t// in\n    tag_383:\n        /* \"contracts/SimpleToken.sol\":5515:5526  tokensToBuy */\n      dup1\n        /* \"contracts/SimpleToken.sol\":5501:5511  tokensSold */\n      0x0a\n      0x00\n        /* \"contracts/SimpleToken.sol\":5501:5526  tokensSold += tokensToBuy */\n      dup3\n      dup3\n      sload\n      tag_384\n      swap2\n      swap1\n      tag_309\n      jump\t// in\n    tag_384:\n      swap1\n      swap2\n      sstore\n      pop\n      pop\n        /* \"contracts/SimpleToken.sol\":5544:5592  Transfer(address(this), msg.sender, tokensToBuy) */\n      mload(0x40)\n        /* \"#utility.yul\":160:185   */\n      dup2\n      dup2\n      mstore\n        /* \"contracts/SimpleToken.sol\":5568:5578  msg.sender */\n      caller\n      swap1\n        /* \"contracts/SimpleToken.sol\":5561:5565  this */\n      address\n      swap1\n        /* \"contracts/SimpleToken.sol\":5544:5592  Transfer(address(this), msg.sender, tokensToBuy) */\n      0xddf252ad1be2c89b69c2b068fc378daa952ba7f163c4a11628f55a4df523b3ef\n      swap1\n        /* \"#utility.yul\":148:150   */\n      0x20\n        /* \"#utility.yul\":133:151   */\n      add\n        /* \"contracts/SimpleToken.sol\":5544:5592  Transfer(address(this), msg.sender, tokensToBuy) */\n      mload(0x40)\n      dup1\n      swap2\n      sub\n      swap1\n      log3\n        /* \"contracts/SimpleToken.sol\":5024:5623  {... */\n      pop\n      pop\n        /* \"contracts/SimpleToken.sol\":4986:5623  function buyTokens() external payable {... */\n      jump\t// out\n        /* \"contracts/SimpleToken.sol\":4523:4899  function calculatePrice() public view returns (uint256) {... */\n    tag_218:\n        /* \"contracts/SimpleToken.sol\":4598:4613  presaleIsActive */\n      sload(0x05)\n        /* \"contracts/SimpleToken.sol\":4570:4577  uint256 */\n      0x00\n      swap1\n      shl(0xa0, 0x01)\n        /* \"contracts/SimpleToken.sol\":4598:4613  presaleIsActive */\n      swap1\n      div\n      0xff\n      and\n        /* \"contracts/SimpleToken.sol\":4590:4641  require(presaleIsActive,\"Pre-sale not started yet\") */\n      tag_387\n      jumpi\n      mload(0x40)\n      shl(0xe5, 0x461bcd)\n      dup2\n      mstore\n        /* \"#utility.yul\":10955:10957   */\n      0x20\n        /* \"contracts/SimpleToken.sol\":4590:4641  require(presaleIsActive,\"Pre-sale not started yet\") */\n      0x04\n      dup3\n      add\n        /* \"#utility.yul\":10937:10958   */\n      mstore\n        /* \"#utility.yul\":10994:10996   */\n      0x18\n        /* \"#utility.yul\":10974:10992   */\n      0x24\n      dup3\n      add\n        /* \"#utility.yul\":10967:10997   */\n      mstore\n        /* \"#utility.yul\":11033:11059   */\n      0x5072652d73616c65206e6f742073746172746564207965740000000000000000\n        /* \"#utility.yul\":11013:11031   */\n      0x44\n      dup3\n      add\n        /* \"#utility.yul\":11006:11060   */\n      mstore\n        /* \"#utility.yul\":11077:11095   */\n      0x64\n      add\n        /* \"contracts/SimpleToken.sol\":4590:4641  require(presaleIsActive,\"Pre-sale not started yet\") */\n      tag_267\n        /* \"#utility.yul\":10753:11101   */\n      jump\n        /* \"contracts/SimpleToken.sol\":4590:4641  require(presaleIsActive,\"Pre-sale not started yet\") */\n    tag_387:\n        /* \"contracts/SimpleToken.sol\":4675:4689  preSaleEndTime */\n      sload(0x07)\n        /* \"contracts/SimpleToken.sol\":4657:4672  block.timestamp */\n      timestamp\n        /* \"contracts/SimpleToken.sol\":4657:4689  block.timestamp > preSaleEndTime */\n      gt\n        /* \"contracts/SimpleToken.sol\":4652:4741  if ( block.timestamp > preSaleEndTime) {... */\n      iszero\n      tag_390\n      jumpi\n      pop\n        /* \"contracts/SimpleToken.sol\":4713:4729  regularSalePrice */\n      sload(0x09)\n      swap1\n        /* \"contracts/SimpleToken.sol\":4523:4899  function calculatePrice() public view returns (uint256) {... */\n      jump\t// out\n        /* \"contracts/SimpleToken.sol\":4652:4741  if ( block.timestamp > preSaleEndTime) {... */\n    tag_390:\n        /* \"contracts/SimpleToken.sol\":4753:4774  uint256 priceIncrease */\n      0x00\n        /* \"contracts/SimpleToken.sol\":4777:4801  calculatePriceIncrease() */\n      tag_391\n        /* \"contracts/SimpleToken.sol\":4777:4799  calculatePriceIncrease */\n      tag_116\n        /* \"contracts/SimpleToken.sol\":4777:4801  calculatePriceIncrease() */\n      jump\t// in\n    tag_391:\n        /* \"contracts/SimpleToken.sol\":4753:4801  uint256 priceIncrease = calculatePriceIncrease() */\n      swap1\n      pop\n        /* \"contracts/SimpleToken.sol\":4812:4832  uint256 currentPrice */\n      0x00\n        /* \"contracts/SimpleToken.sol\":4848:4861  priceIncrease */\n      dup2\n        /* \"contracts/SimpleToken.sol\":4835:4847  initialPrice */\n      sload(0x08)\n        /* \"contracts/SimpleToken.sol\":4835:4861  initialPrice+priceIncrease */\n      tag_286\n      swap2\n      swap1\n      tag_309\n      jump\t// in\n        /* \"@openzeppelin/contracts/access/Ownable.sol\":2543:2758  function transferOwnership(address newOwner) public virtual onlyOwner {... */\n    tag_237:\n        /* \"@openzeppelin/contracts/access/Ownable.sol\":1531:1544  _checkOwner() */\n      tag_396\n        /* \"@openzeppelin/contracts/access/Ownable.sol\":1531:1542  _checkOwner */\n      tag_289\n        /* \"@openzeppelin/contracts/access/Ownable.sol\":1531:1544  _checkOwner() */\n      jump\t// in\n    tag_396:\n      sub(shl(0xa0, 0x01), 0x01)\n        /* \"@openzeppelin/contracts/access/Ownable.sol\":2627:2649  newOwner == address(0) */\n      dup2\n      and\n        /* \"@openzeppelin/contracts/access/Ownable.sol\":2623:2714  if (newOwner == address(0)) {... */\n      tag_398\n      jumpi\n        /* \"@openzeppelin/contracts/access/Ownable.sol\":2672:2703  OwnableInvalidOwner(address(0)) */\n      mload(0x40)\n      shl(0xe0, 0x1e4fbdf7)\n      dup2\n      mstore\n        /* \"@openzeppelin/contracts/access/Ownable.sol\":2700:2701  0 */\n      0x00\n        /* \"@openzeppelin/contracts/access/Ownable.sol\":2672:2703  OwnableInvalidOwner(address(0)) */\n      0x04\n      dup3\n      add\n        /* \"#utility.yul\":2901:2952   */\n      mstore\n        /* \"#utility.yul\":2874:2892   */\n      0x24\n      add\n        /* \"@openzeppelin/contracts/access/Ownable.sol\":2672:2703  OwnableInvalidOwner(address(0)) */\n      tag_267\n        /* \"#utility.yul\":2755:2958   */\n      jump\n        /* \"@openzeppelin/contracts/access/Ownable.sol\":2623:2714  if (newOwner == address(0)) {... */\n    tag_398:\n        /* \"@openzeppelin/contracts/access/Ownable.sol\":2723:2751  _transferOwnership(newOwner) */\n      tag_400\n        /* \"@openzeppelin/contracts/access/Ownable.sol\":2742:2750  newOwner */\n      dup2\n        /* \"@openzeppelin/contracts/access/Ownable.sol\":2723:2741  _transferOwnership */\n      tag_298\n        /* \"@openzeppelin/contracts/access/Ownable.sol\":2723:2751  _transferOwnership(newOwner) */\n      jump\t// in\n    tag_400:\n        /* \"@openzeppelin/contracts/access/Ownable.sol\":2543:2758  function transferOwnership(address newOwner) public virtual onlyOwner {... */\n      pop\n      jump\t// out\n        /* \"@openzeppelin/contracts/token/ERC20/ERC20.sol\":8726:8854  function _approve(address owner, address spender, uint256 value) internal {... */\n    tag_254:\n        /* \"@openzeppelin/contracts/token/ERC20/ERC20.sol\":8810:8847  _approve(owner, spender, value, true) */\n      tag_403\n        /* \"@openzeppelin/contracts/token/ERC20/ERC20.sol\":8819:8824  owner */\n      dup4\n        /* \"@openzeppelin/contracts/token/ERC20/ERC20.sol\":8826:8833  spender */\n      dup4\n        /* \"@openzeppelin/contracts/token/ERC20/ERC20.sol\":8835:8840  value */\n      dup4\n        /* \"@openzeppelin/contracts/token/ERC20/ERC20.sol\":8842:8846  true */\n      0x01\n        /* \"@openzeppelin/contracts/token/ERC20/ERC20.sol\":8810:8818  _approve */\n      tag_404\n        /* \"@openzeppelin/contracts/token/ERC20/ERC20.sol\":8810:8847  _approve(owner, spender, value, true) */\n      jump\t// in\n    tag_403:\n        /* \"@openzeppelin/contracts/token/ERC20/ERC20.sol\":8726:8854  function _approve(address owner, address spender, uint256 value) internal {... */\n      pop\n      pop\n      pop\n      jump\t// out\n        /* \"@openzeppelin/contracts/token/ERC20/ERC20.sol\":10415:10891  function _spendAllowance(address owner, address spender, uint256 value) internal virtual {... */\n    tag_278:\n      sub(shl(0xa0, 0x01), 0x01)\n        /* \"@openzeppelin/contracts/token/ERC20/ERC20.sol\":3657:3675  _allowances[owner] */\n      dup4\n      dup2\n      and\n        /* \"@openzeppelin/contracts/token/ERC20/ERC20.sol\":10514:10538  uint256 currentAllowance */\n      0x00\n        /* \"@openzeppelin/contracts/token/ERC20/ERC20.sol\":3657:3675  _allowances[owner] */\n      swap1\n      dup2\n      mstore\n        /* \"@openzeppelin/contracts/token/ERC20/ERC20.sol\":3657:3668  _allowances */\n      0x01\n        /* \"@openzeppelin/contracts/token/ERC20/ERC20.sol\":3657:3675  _allowances[owner] */\n      0x20\n      swap1\n      dup2\n      mstore\n      0x40\n      dup1\n      dup4\n      keccak256\n        /* \"@openzeppelin/contracts/token/ERC20/ERC20.sol\":3657:3684  _allowances[owner][spender] */\n      swap4\n      dup7\n      and\n      dup4\n      mstore\n      swap3\n      swap1\n      mstore\n      keccak256\n      sload\n      not(0x00)\n        /* \"@openzeppelin/contracts/token/ERC20/ERC20.sol\":10580:10616  currentAllowance < type(uint256).max */\n      dup2\n      lt\n        /* \"@openzeppelin/contracts/token/ERC20/ERC20.sol\":10576:10885  if (currentAllowance < type(uint256).max) {... */\n      iszero\n      tag_411\n      jumpi\n        /* \"@openzeppelin/contracts/token/ERC20/ERC20.sol\":10655:10660  value */\n      dup2\n        /* \"@openzeppelin/contracts/token/ERC20/ERC20.sol\":10636:10652  currentAllowance */\n      dup2\n        /* \"@openzeppelin/contracts/token/ERC20/ERC20.sol\":10636:10660  currentAllowance < value */\n      lt\n        /* \"@openzeppelin/contracts/token/ERC20/ERC20.sol\":10632:10762  if (currentAllowance < value) {... */\n      iszero\n      tag_408\n      jumpi\n        /* \"@openzeppelin/contracts/token/ERC20/ERC20.sol\":10687:10747  ERC20InsufficientAllowance(spender, currentAllowance, value) */\n      mload(0x40)\n      shl(0xe1, 0x7dc7a0d9)\n      dup2\n      mstore\n      sub(shl(0xa0, 0x01), 0x01)\n        /* \"#utility.yul\":11326:11358   */\n      dup5\n      and\n        /* \"@openzeppelin/contracts/token/ERC20/ERC20.sol\":10687:10747  ERC20InsufficientAllowance(spender, currentAllowance, value) */\n      0x04\n      dup3\n      add\n        /* \"#utility.yul\":11308:11359   */\n      mstore\n        /* \"#utility.yul\":11375:11393   */\n      0x24\n      dup2\n      add\n        /* \"#utility.yul\":11368:11402   */\n      dup3\n      swap1\n      mstore\n        /* \"#utility.yul\":11418:11436   */\n      0x44\n      dup2\n      add\n        /* \"#utility.yul\":11411:11445   */\n      dup4\n      swap1\n      mstore\n        /* \"#utility.yul\":11281:11299   */\n      0x64\n      add\n        /* \"@openzeppelin/contracts/token/ERC20/ERC20.sol\":10687:10747  ERC20InsufficientAllowance(spender, currentAllowance, value) */\n      tag_267\n        /* \"#utility.yul\":11106:11451   */\n      jump\n        /* \"@openzeppelin/contracts/token/ERC20/ERC20.sol\":10632:10762  if (currentAllowance < value) {... */\n    tag_408:\n        /* \"@openzeppelin/contracts/token/ERC20/ERC20.sol\":10803:10860  _approve(owner, spender, currentAllowance - value, false) */\n      tag_411\n        /* \"@openzeppelin/contracts/token/ERC20/ERC20.sol\":10812:10817  owner */\n      dup5\n        /* \"@openzeppelin/contracts/token/ERC20/ERC20.sol\":10819:10826  spender */\n      dup5\n        /* \"@openzeppelin/contracts/token/ERC20/ERC20.sol\":10847:10852  value */\n      dup5\n        /* \"@openzeppelin/contracts/token/ERC20/ERC20.sol\":10828:10844  currentAllowance */\n      dup5\n        /* \"@openzeppelin/contracts/token/ERC20/ERC20.sol\":10828:10852  currentAllowance - value */\n      sub\n        /* \"@openzeppelin/contracts/token/ERC20/ERC20.sol\":10854:10859  false */\n      0x00\n        /* \"@openzeppelin/contracts/token/ERC20/ERC20.sol\":10803:10811  _approve */\n      tag_404\n        /* \"@openzeppelin/contracts/token/ERC20/ERC20.sol\":10803:10860  _approve(owner, spender, currentAllowance - value, false) */\n      jump\t// in\n    tag_411:\n        /* \"@openzeppelin/contracts/token/ERC20/ERC20.sol\":10504:10891  {... */\n      pop\n        /* \"@openzeppelin/contracts/token/ERC20/ERC20.sol\":10415:10891  function _spendAllowance(address owner, address spender, uint256 value) internal virtual {... */\n      pop\n      pop\n      pop\n      jump\t// out\n        /* \"@openzeppelin/contracts/token/ERC20/ERC20.sol\":5393:5693  function _transfer(address from, address to, uint256 value) internal {... */\n    tag_280:\n      sub(shl(0xa0, 0x01), 0x01)\n        /* \"@openzeppelin/contracts/token/ERC20/ERC20.sol\":5476:5494  from == address(0) */\n      dup4\n      and\n        /* \"@openzeppelin/contracts/token/ERC20/ERC20.sol\":5472:5558  if (from == address(0)) {... */\n      tag_413\n      jumpi\n        /* \"@openzeppelin/contracts/token/ERC20/ERC20.sol\":5517:5547  ERC20InvalidSender(address(0)) */\n      mload(0x40)\n      shl(0xe1, 0x4b637e8f)\n      dup2\n      mstore\n        /* \"@openzeppelin/contracts/token/ERC20/ERC20.sol\":5544:5545  0 */\n      0x00\n        /* \"@openzeppelin/contracts/token/ERC20/ERC20.sol\":5517:5547  ERC20InvalidSender(address(0)) */\n      0x04\n      dup3\n      add\n        /* \"#utility.yul\":2901:2952   */\n      mstore\n        /* \"#utility.yul\":2874:2892   */\n      0x24\n      add\n        /* \"@openzeppelin/contracts/token/ERC20/ERC20.sol\":5517:5547  ERC20InvalidSender(address(0)) */\n      tag_267\n        /* \"#utility.yul\":2755:2958   */\n      jump\n        /* \"@openzeppelin/contracts/token/ERC20/ERC20.sol\":5472:5558  if (from == address(0)) {... */\n    tag_413:\n      sub(shl(0xa0, 0x01), 0x01)\n        /* \"@openzeppelin/contracts/token/ERC20/ERC20.sol\":5571:5587  to == address(0) */\n      dup3\n      and\n        /* \"@openzeppelin/contracts/token/ERC20/ERC20.sol\":5567:5653  if (to == address(0)) {... */\n      tag_415\n      jumpi\n        /* \"@openzeppelin/contracts/token/ERC20/ERC20.sol\":5610:5642  ERC20InvalidReceiver(address(0)) */\n      mload(0x40)\n      shl(0xe0, 0xec442f05)\n      dup2\n      mstore\n        /* \"@openzeppelin/contracts/token/ERC20/ERC20.sol\":5639:5640  0 */\n      0x00\n        /* \"@openzeppelin/contracts/token/ERC20/ERC20.sol\":5610:5642  ERC20InvalidReceiver(address(0)) */\n      0x04\n      dup3\n      add\n        /* \"#utility.yul\":2901:2952   */\n      mstore\n        /* \"#utility.yul\":2874:2892   */\n      0x24\n      add\n        /* \"@openzeppelin/contracts/token/ERC20/ERC20.sol\":5610:5642  ERC20InvalidReceiver(address(0)) */\n      tag_267\n        /* \"#utility.yul\":2755:2958   */\n      jump\n        /* \"@openzeppelin/contracts/token/ERC20/ERC20.sol\":5567:5653  if (to == address(0)) {... */\n    tag_415:\n        /* \"@openzeppelin/contracts/token/ERC20/ERC20.sol\":5662:5686  _update(from, to, value) */\n      tag_403\n        /* \"@openzeppelin/contracts/token/ERC20/ERC20.sol\":5670:5674  from */\n      dup4\n        /* \"@openzeppelin/contracts/token/ERC20/ERC20.sol\":5676:5678  to */\n      dup4\n        /* \"@openzeppelin/contracts/token/ERC20/ERC20.sol\":5680:5685  value */\n      dup4\n        /* \"@openzeppelin/contracts/token/ERC20/ERC20.sol\":5662:5669  _update */\n      tag_418\n        /* \"@openzeppelin/contracts/token/ERC20/ERC20.sol\":5662:5686  _update(from, to, value) */\n      jump\t// in\n        /* \"@openzeppelin/contracts/access/Ownable.sol\":1796:1958  function _checkOwner() internal view virtual {... */\n    tag_289:\n        /* \"@openzeppelin/contracts/access/Ownable.sol\":1710:1716  _owner */\n      and(sub(shl(0xa0, 0x01), 0x01), sload(0x05))\n        /* \"@openzeppelin/contracts/utils/Context.sol\":735:745  msg.sender */\n      caller\n        /* \"@openzeppelin/contracts/access/Ownable.sol\":1855:1878  owner() != _msgSender() */\n      eq\n        /* \"@openzeppelin/contracts/access/Ownable.sol\":1851:1952  if (owner() != _msgSender()) {... */\n      tag_297\n      jumpi\n        /* \"@openzeppelin/contracts/access/Ownable.sol\":1901:1941  OwnableUnauthorizedAccount(_msgSender()) */\n      mload(0x40)\n      shl(0xe0, 0x118cdaa7)\n      dup2\n      mstore\n        /* \"@openzeppelin/contracts/utils/Context.sol\":735:745  msg.sender */\n      caller\n        /* \"@openzeppelin/contracts/access/Ownable.sol\":1901:1941  OwnableUnauthorizedAccount(_msgSender()) */\n      0x04\n      dup3\n      add\n        /* \"#utility.yul\":2901:2952   */\n      mstore\n        /* \"#utility.yul\":2874:2892   */\n      0x24\n      add\n        /* \"@openzeppelin/contracts/access/Ownable.sol\":1901:1941  OwnableUnauthorizedAccount(_msgSender()) */\n      tag_267\n        /* \"#utility.yul\":2755:2958   */\n      jump\n        /* \"@openzeppelin/contracts/access/Ownable.sol\":2912:3099  function _transferOwnership(address newOwner) internal virtual {... */\n    tag_298:\n        /* \"@openzeppelin/contracts/access/Ownable.sol\":3004:3010  _owner */\n      0x05\n      dup1\n      sload\n      sub(shl(0xa0, 0x01), 0x01)\n        /* \"@openzeppelin/contracts/access/Ownable.sol\":3020:3037  _owner = newOwner */\n      dup4\n      dup2\n      and\n      not(sub(shl(0xa0, 0x01), 0x01))\n      dup4\n      and\n      dup2\n      or\n      swap1\n      swap4\n      sstore\n        /* \"@openzeppelin/contracts/access/Ownable.sol\":3052:3092  OwnershipTransferred(oldOwner, newOwner) */\n      mload(0x40)\n        /* \"@openzeppelin/contracts/access/Ownable.sol\":3004:3010  _owner */\n      swap2\n      and\n      swap2\n        /* \"@openzeppelin/contracts/access/Ownable.sol\":3020:3037  _owner = newOwner */\n      swap1\n        /* \"@openzeppelin/contracts/access/Ownable.sol\":3004:3010  _owner */\n      dup3\n      swap1\n        /* \"@openzeppelin/contracts/access/Ownable.sol\":3052:3092  OwnershipTransferred(oldOwner, newOwner) */\n      0x8be0079c531659141344cd1fd0a4f28419497f9722a3daafe3b4186f6b6457e0\n      swap1\n        /* \"@openzeppelin/contracts/access/Ownable.sol\":2985:3001  address oldOwner */\n      0x00\n      swap1\n        /* \"@openzeppelin/contracts/access/Ownable.sol\":3052:3092  OwnershipTransferred(oldOwner, newOwner) */\n      log3\n        /* \"@openzeppelin/contracts/access/Ownable.sol\":2975:3099  {... */\n      pop\n        /* \"@openzeppelin/contracts/access/Ownable.sol\":2912:3099  function _transferOwnership(address newOwner) internal virtual {... */\n      pop\n      jump\t// out\n        /* \"@openzeppelin/contracts/token/ERC20/ERC20.sol\":7458:7666  function _mint(address account, uint256 value) internal {... */\n    tag_320:\n      sub(shl(0xa0, 0x01), 0x01)\n        /* \"@openzeppelin/contracts/token/ERC20/ERC20.sol\":7528:7549  account == address(0) */\n      dup3\n      and\n        /* \"@openzeppelin/contracts/token/ERC20/ERC20.sol\":7524:7615  if (account == address(0)) {... */\n      tag_427\n      jumpi\n        /* \"@openzeppelin/contracts/token/ERC20/ERC20.sol\":7572:7604  ERC20InvalidReceiver(address(0)) */\n      mload(0x40)\n      shl(0xe0, 0xec442f05)\n      dup2\n      mstore\n        /* \"@openzeppelin/contracts/token/ERC20/ERC20.sol\":7601:7602  0 */\n      0x00\n        /* \"@openzeppelin/contracts/token/ERC20/ERC20.sol\":7572:7604  ERC20InvalidReceiver(address(0)) */\n      0x04\n      dup3\n      add\n        /* \"#utility.yul\":2901:2952   */\n      mstore\n        /* \"#utility.yul\":2874:2892   */\n      0x24\n      add\n        /* \"@openzeppelin/contracts/token/ERC20/ERC20.sol\":7572:7604  ERC20InvalidReceiver(address(0)) */\n      tag_267\n        /* \"#utility.yul\":2755:2958   */\n      jump\n        /* \"@openzeppelin/contracts/token/ERC20/ERC20.sol\":7524:7615  if (account == address(0)) {... */\n    tag_427:\n        /* \"@openzeppelin/contracts/token/ERC20/ERC20.sol\":7624:7659  _update(address(0), account, value) */\n      tag_429\n        /* \"@openzeppelin/contracts/token/ERC20/ERC20.sol\":7640:7641  0 */\n      0x00\n        /* \"@openzeppelin/contracts/token/ERC20/ERC20.sol\":7644:7651  account */\n      dup4\n        /* \"@openzeppelin/contracts/token/ERC20/ERC20.sol\":7653:7658  value */\n      dup4\n        /* \"@openzeppelin/contracts/token/ERC20/ERC20.sol\":7624:7631  _update */\n      tag_418\n        /* \"@openzeppelin/contracts/token/ERC20/ERC20.sol\":7624:7659  _update(address(0), account, value) */\n      jump\t// in\n    tag_429:\n        /* \"@openzeppelin/contracts/token/ERC20/ERC20.sol\":7458:7666  function _mint(address account, uint256 value) internal {... */\n      pop\n      pop\n      jump\t// out\n        /* \"@openzeppelin/contracts/token/ERC20/ERC20.sol\":9701:10133  function _approve(address owner, address spender, uint256 value, bool emitEvent) internal virtual {... */\n    tag_404:\n      sub(shl(0xa0, 0x01), 0x01)\n        /* \"@openzeppelin/contracts/token/ERC20/ERC20.sol\":9813:9832  owner == address(0) */\n      dup5\n      and\n        /* \"@openzeppelin/contracts/token/ERC20/ERC20.sol\":9809:9898  if (owner == address(0)) {... */\n      tag_431\n      jumpi\n        /* \"@openzeppelin/contracts/token/ERC20/ERC20.sol\":9855:9887  ERC20InvalidApprover(address(0)) */\n      mload(0x40)\n      shl(0xe0, 0xe602df05)\n      dup2\n      mstore\n        /* \"@openzeppelin/contracts/token/ERC20/ERC20.sol\":9884:9885  0 */\n      0x00\n        /* \"@openzeppelin/contracts/token/ERC20/ERC20.sol\":9855:9887  ERC20InvalidApprover(address(0)) */\n      0x04\n      dup3\n      add\n        /* \"#utility.yul\":2901:2952   */\n      mstore\n        /* \"#utility.yul\":2874:2892   */\n      0x24\n      add\n        /* \"@openzeppelin/contracts/token/ERC20/ERC20.sol\":9855:9887  ERC20InvalidApprover(address(0)) */\n      tag_267\n        /* \"#utility.yul\":2755:2958   */\n      jump\n        /* \"@openzeppelin/contracts/token/ERC20/ERC20.sol\":9809:9898  if (owner == address(0)) {... */\n    tag_431:\n      sub(shl(0xa0, 0x01), 0x01)\n        /* \"@openzeppelin/contracts/token/ERC20/ERC20.sol\":9911:9932  spender == address(0) */\n      dup4\n      and\n        /* \"@openzeppelin/contracts/token/ERC20/ERC20.sol\":9907:9997  if (spender == address(0)) {... */\n      tag_433\n      jumpi\n        /* \"@openzeppelin/contracts/token/ERC20/ERC20.sol\":9955:9986  ERC20InvalidSpender(address(0)) */\n      mload(0x40)\n      shl(0xe1, 0x4a1406b1)\n      dup2\n      mstore\n        /* \"@openzeppelin/contracts/token/ERC20/ERC20.sol\":9983:9984  0 */\n      0x00\n        /* \"@openzeppelin/contracts/token/ERC20/ERC20.sol\":9955:9986  ERC20InvalidSpender(address(0)) */\n      0x04\n      dup3\n      add\n        /* \"#utility.yul\":2901:2952   */\n      mstore\n        /* \"#utility.yul\":2874:2892   */\n      0x24\n      add\n        /* \"@openzeppelin/contracts/token/ERC20/ERC20.sol\":9955:9986  ERC20InvalidSpender(address(0)) */\n      tag_267\n        /* \"#utility.yul\":2755:2958   */\n      jump\n        /* \"@openzeppelin/contracts/token/ERC20/ERC20.sol\":9907:9997  if (spender == address(0)) {... */\n    tag_433:\n      sub(shl(0xa0, 0x01), 0x01)\n        /* \"@openzeppelin/contracts/token/ERC20/ERC20.sol\":10006:10024  _allowances[owner] */\n      dup1\n      dup6\n      and\n      0x00\n      swap1\n      dup2\n      mstore\n        /* \"@openzeppelin/contracts/token/ERC20/ERC20.sol\":10006:10017  _allowances */\n      0x01\n        /* \"@openzeppelin/contracts/token/ERC20/ERC20.sol\":10006:10024  _allowances[owner] */\n      0x20\n      swap1\n      dup2\n      mstore\n      0x40\n      dup1\n      dup4\n      keccak256\n        /* \"@openzeppelin/contracts/token/ERC20/ERC20.sol\":10006:10033  _allowances[owner][spender] */\n      swap4\n      dup8\n      and\n      dup4\n      mstore\n      swap3\n      swap1\n      mstore\n      keccak256\n        /* \"@openzeppelin/contracts/token/ERC20/ERC20.sol\":10006:10041  _allowances[owner][spender] = value */\n      dup3\n      swap1\n      sstore\n        /* \"@openzeppelin/contracts/token/ERC20/ERC20.sol\":10051:10127  if (emitEvent) {... */\n      dup1\n      iszero\n      tag_411\n      jumpi\n        /* \"@openzeppelin/contracts/token/ERC20/ERC20.sol\":10101:10108  spender */\n      dup3\n      sub(shl(0xa0, 0x01), 0x01)\n        /* \"@openzeppelin/contracts/token/ERC20/ERC20.sol\":10085:10116  Approval(owner, spender, value) */\n      and\n        /* \"@openzeppelin/contracts/token/ERC20/ERC20.sol\":10094:10099  owner */\n      dup5\n      sub(shl(0xa0, 0x01), 0x01)\n        /* \"@openzeppelin/contracts/token/ERC20/ERC20.sol\":10085:10116  Approval(owner, spender, value) */\n      and\n      0x8c5be1e5ebec7d5bd14f71427d1e84f3dd0314c0f7b2291e5b200ac8c7c3b925\n        /* \"@openzeppelin/contracts/token/ERC20/ERC20.sol\":10110:10115  value */\n      dup5\n        /* \"@openzeppelin/contracts/token/ERC20/ERC20.sol\":10085:10116  Approval(owner, spender, value) */\n      mload(0x40)\n      tag_436\n      swap2\n        /* \"#utility.yul\":160:185   */\n      dup2\n      mstore\n        /* \"#utility.yul\":148:150   */\n      0x20\n        /* \"#utility.yul\":133:151   */\n      add\n      swap1\n        /* \"#utility.yul\":14:191   */\n      jump\n        /* \"@openzeppelin/contracts/token/ERC20/ERC20.sol\":10085:10116  Approval(owner, spender, value) */\n    tag_436:\n      mload(0x40)\n      dup1\n      swap2\n      sub\n      swap1\n      log3\n        /* \"@openzeppelin/contracts/token/ERC20/ERC20.sol\":9701:10133  function _approve(address owner, address spender, uint256 value, bool emitEvent) internal virtual {... */\n      pop\n      pop\n      pop\n      pop\n      jump\t// out\n        /* \"@openzeppelin/contracts/token/ERC20/ERC20.sol\":6008:7115  function _update(address from, address to, uint256 value) internal virtual {... */\n    tag_418:\n      sub(shl(0xa0, 0x01), 0x01)\n        /* \"@openzeppelin/contracts/token/ERC20/ERC20.sol\":6097:6115  from == address(0) */\n      dup4\n      and\n        /* \"@openzeppelin/contracts/token/ERC20/ERC20.sol\":6093:6633  if (from == address(0)) {... */\n      tag_438\n      jumpi\n        /* \"@openzeppelin/contracts/token/ERC20/ERC20.sol\":6249:6254  value */\n      dup1\n        /* \"@openzeppelin/contracts/token/ERC20/ERC20.sol\":6233:6245  _totalSupply */\n      0x02\n      0x00\n        /* \"@openzeppelin/contracts/token/ERC20/ERC20.sol\":6233:6254  _totalSupply += value */\n      dup3\n      dup3\n      sload\n      tag_439\n      swap2\n      swap1\n      tag_309\n      jump\t// in\n    tag_439:\n      swap1\n      swap2\n      sstore\n      pop\n        /* \"@openzeppelin/contracts/token/ERC20/ERC20.sol\":6093:6633  if (from == address(0)) {... */\n      tag_440\n      swap1\n      pop\n      jump\n    tag_438:\n      sub(shl(0xa0, 0x01), 0x01)\n        /* \"@openzeppelin/contracts/token/ERC20/ERC20.sol\":6307:6322  _balances[from] */\n      dup4\n      and\n        /* \"@openzeppelin/contracts/token/ERC20/ERC20.sol\":6285:6304  uint256 fromBalance */\n      0x00\n        /* \"@openzeppelin/contracts/token/ERC20/ERC20.sol\":6307:6322  _balances[from] */\n      swap1\n      dup2\n      mstore\n      0x20\n      dup2\n      swap1\n      mstore\n      0x40\n      swap1\n      keccak256\n      sload\n        /* \"@openzeppelin/contracts/token/ERC20/ERC20.sol\":6340:6359  fromBalance < value */\n      dup2\n      dup2\n      lt\n        /* \"@openzeppelin/contracts/token/ERC20/ERC20.sol\":6336:6451  if (fromBalance < value) {... */\n      iszero\n      tag_441\n      jumpi\n        /* \"@openzeppelin/contracts/token/ERC20/ERC20.sol\":6386:6436  ERC20InsufficientBalance(from, fromBalance, value) */\n      mload(0x40)\n      shl(0xe2, 0x391434e3)\n      dup2\n      mstore\n      sub(shl(0xa0, 0x01), 0x01)\n        /* \"#utility.yul\":11326:11358   */\n      dup6\n      and\n        /* \"@openzeppelin/contracts/token/ERC20/ERC20.sol\":6386:6436  ERC20InsufficientBalance(from, fromBalance, value) */\n      0x04\n      dup3\n      add\n        /* \"#utility.yul\":11308:11359   */\n      mstore\n        /* \"#utility.yul\":11375:11393   */\n      0x24\n      dup2\n      add\n        /* \"#utility.yul\":11368:11402   */\n      dup3\n      swap1\n      mstore\n        /* \"#utility.yul\":11418:11436   */\n      0x44\n      dup2\n      add\n        /* \"#utility.yul\":11411:11445   */\n      dup4\n      swap1\n      mstore\n        /* \"#utility.yul\":11281:11299   */\n      0x64\n      add\n        /* \"@openzeppelin/contracts/token/ERC20/ERC20.sol\":6386:6436  ERC20InsufficientBalance(from, fromBalance, value) */\n      tag_267\n        /* \"#utility.yul\":11106:11451   */\n      jump\n        /* \"@openzeppelin/contracts/token/ERC20/ERC20.sol\":6336:6451  if (fromBalance < value) {... */\n    tag_441:\n      sub(shl(0xa0, 0x01), 0x01)\n        /* \"@openzeppelin/contracts/token/ERC20/ERC20.sol\":6571:6586  _balances[from] */\n      dup5\n      and\n        /* \"@openzeppelin/contracts/token/ERC20/ERC20.sol\":6571:6580  _balances */\n      0x00\n        /* \"@openzeppelin/contracts/token/ERC20/ERC20.sol\":6571:6586  _balances[from] */\n      swap1\n      dup2\n      mstore\n      0x20\n      dup2\n      swap1\n      mstore\n      0x40\n      swap1\n      keccak256\n        /* \"@openzeppelin/contracts/token/ERC20/ERC20.sol\":6589:6608  fromBalance - value */\n      swap1\n      dup3\n      swap1\n      sub\n        /* \"@openzeppelin/contracts/token/ERC20/ERC20.sol\":6571:6608  _balances[from] = fromBalance - value */\n      swap1\n      sstore\n        /* \"@openzeppelin/contracts/token/ERC20/ERC20.sol\":6093:6633  if (from == address(0)) {... */\n    tag_440:\n      sub(shl(0xa0, 0x01), 0x01)\n        /* \"@openzeppelin/contracts/token/ERC20/ERC20.sol\":6647:6663  to == address(0) */\n      dup3\n      and\n        /* \"@openzeppelin/contracts/token/ERC20/ERC20.sol\":6643:7068  if (to == address(0)) {... */\n      tag_443\n      jumpi\n        /* \"@openzeppelin/contracts/token/ERC20/ERC20.sol\":6810:6822  _totalSupply */\n      0x02\n        /* \"@openzeppelin/contracts/token/ERC20/ERC20.sol\":6810:6831  _totalSupply -= value */\n      dup1\n      sload\n      dup3\n      swap1\n      sub\n      swap1\n      sstore\n        /* \"@openzeppelin/contracts/token/ERC20/ERC20.sol\":6643:7068  if (to == address(0)) {... */\n      jump(tag_444)\n    tag_443:\n      sub(shl(0xa0, 0x01), 0x01)\n        /* \"@openzeppelin/contracts/token/ERC20/ERC20.sol\":7021:7034  _balances[to] */\n      dup3\n      and\n        /* \"@openzeppelin/contracts/token/ERC20/ERC20.sol\":7021:7030  _balances */\n      0x00\n        /* \"@openzeppelin/contracts/token/ERC20/ERC20.sol\":7021:7034  _balances[to] */\n      swap1\n      dup2\n      mstore\n      0x20\n      dup2\n      swap1\n      mstore\n      0x40\n      swap1\n      keccak256\n        /* \"@openzeppelin/contracts/token/ERC20/ERC20.sol\":7021:7043  _balances[to] += value */\n      dup1\n      sload\n      dup3\n      add\n      swap1\n      sstore\n        /* \"@openzeppelin/contracts/token/ERC20/ERC20.sol\":6643:7068  if (to == address(0)) {... */\n    tag_444:\n        /* \"@openzeppelin/contracts/token/ERC20/ERC20.sol\":7098:7100  to */\n      dup2\n      sub(shl(0xa0, 0x01), 0x01)\n        /* \"@openzeppelin/contracts/token/ERC20/ERC20.sol\":7083:7108  Transfer(from, to, value) */\n      and\n        /* \"@openzeppelin/contracts/token/ERC20/ERC20.sol\":7092:7096  from */\n      dup4\n      sub(shl(0xa0, 0x01), 0x01)\n        /* \"@openzeppelin/contracts/token/ERC20/ERC20.sol\":7083:7108  Transfer(from, to, value) */\n      and\n      0xddf252ad1be2c89b69c2b068fc378daa952ba7f163c4a11628f55a4df523b3ef\n        /* \"@openzeppelin/contracts/token/ERC20/ERC20.sol\":7102:7107  value */\n      dup4\n        /* \"@openzeppelin/contracts/token/ERC20/ERC20.sol\":7083:7108  Transfer(from, to, value) */\n      mload(0x40)\n      tag_445\n      swap2\n        /* \"#utility.yul\":160:185   */\n      dup2\n      mstore\n        /* \"#utility.yul\":148:150   */\n      0x20\n        /* \"#utility.yul\":133:151   */\n      add\n      swap1\n        /* \"#utility.yul\":14:191   */\n      jump\n        /* \"@openzeppelin/contracts/token/ERC20/ERC20.sol\":7083:7108  Transfer(from, to, value) */\n    tag_445:\n      mload(0x40)\n      dup1\n      swap2\n      sub\n      swap1\n      log3\n        /* \"@openzeppelin/contracts/token/ERC20/ERC20.sol\":6008:7115  function _update(address from, address to, uint256 value) internal virtual {... */\n      pop\n      pop\n      pop\n      jump\t// out\n        /* \"#utility.yul\":196:614   */\n    tag_65:\n        /* \"#utility.yul\":345:347   */\n      0x20\n        /* \"#utility.yul\":334:343   */\n      dup2\n        /* \"#utility.yul\":327:348   */\n      mstore\n        /* \"#utility.yul\":308:312   */\n      0x00\n        /* \"#utility.yul\":377:383   */\n      dup3\n        /* \"#utility.yul\":371:384   */\n      mload\n        /* \"#utility.yul\":420:426   */\n      dup1\n        /* \"#utility.yul\":415:417   */\n      0x20\n        /* \"#utility.yul\":404:413   */\n      dup5\n        /* \"#utility.yul\":400:418   */\n      add\n        /* \"#utility.yul\":393:427   */\n      mstore\n        /* \"#utility.yul\":479:485   */\n      dup1\n        /* \"#utility.yul\":474:476   */\n      0x20\n        /* \"#utility.yul\":466:472   */\n      dup6\n        /* \"#utility.yul\":462:477   */\n      add\n        /* \"#utility.yul\":457:459   */\n      0x40\n        /* \"#utility.yul\":446:455   */\n      dup6\n        /* \"#utility.yul\":442:460   */\n      add\n        /* \"#utility.yul\":436:486   */\n      mcopy\n        /* \"#utility.yul\":535:536   */\n      0x00\n        /* \"#utility.yul\":530:532   */\n      0x40\n        /* \"#utility.yul\":521:527   */\n      dup3\n        /* \"#utility.yul\":510:519   */\n      dup6\n        /* \"#utility.yul\":506:528   */\n      add\n        /* \"#utility.yul\":502:533   */\n      add\n        /* \"#utility.yul\":495:537   */\n      mstore\n        /* \"#utility.yul\":605:607   */\n      0x40\n        /* \"#utility.yul\":598:600   */\n      0x1f\n        /* \"#utility.yul\":594:601   */\n      not\n        /* \"#utility.yul\":589:591   */\n      0x1f\n        /* \"#utility.yul\":581:587   */\n      dup4\n        /* \"#utility.yul\":577:592   */\n      add\n        /* \"#utility.yul\":573:602   */\n      and\n        /* \"#utility.yul\":562:571   */\n      dup5\n        /* \"#utility.yul\":558:603   */\n      add\n        /* \"#utility.yul\":554:608   */\n      add\n        /* \"#utility.yul\":546:608   */\n      swap2\n      pop\n      pop\n        /* \"#utility.yul\":196:614   */\n      swap3\n      swap2\n      pop\n      pop\n      jump\t// out\n        /* \"#utility.yul\":619:792   */\n    tag_446:\n        /* \"#utility.yul\":687:707   */\n      dup1\n      calldataload\n      sub(shl(0xa0, 0x01), 0x01)\n        /* \"#utility.yul\":736:767   */\n      dup2\n      and\n        /* \"#utility.yul\":726:768   */\n      dup2\n      eq\n        /* \"#utility.yul\":716:786   */\n      tag_454\n      jumpi\n        /* \"#utility.yul\":782:783   */\n      0x00\n        /* \"#utility.yul\":779:780   */\n      dup1\n        /* \"#utility.yul\":772:784   */\n      revert\n        /* \"#utility.yul\":716:786   */\n    tag_454:\n        /* \"#utility.yul\":619:792   */\n      swap2\n      swap1\n      pop\n      jump\t// out\n        /* \"#utility.yul\":797:1097   */\n    tag_69:\n        /* \"#utility.yul\":865:871   */\n      0x00\n        /* \"#utility.yul\":873:879   */\n      dup1\n        /* \"#utility.yul\":926:928   */\n      0x40\n        /* \"#utility.yul\":914:923   */\n      dup4\n        /* \"#utility.yul\":905:912   */\n      dup6\n        /* \"#utility.yul\":901:924   */\n      sub\n        /* \"#utility.yul\":897:929   */\n      slt\n        /* \"#utility.yul\":894:946   */\n      iszero\n      tag_456\n      jumpi\n        /* \"#utility.yul\":942:943   */\n      0x00\n        /* \"#utility.yul\":939:940   */\n      dup1\n        /* \"#utility.yul\":932:944   */\n      revert\n        /* \"#utility.yul\":894:946   */\n    tag_456:\n        /* \"#utility.yul\":965:994   */\n      tag_457\n        /* \"#utility.yul\":984:993   */\n      dup4\n        /* \"#utility.yul\":965:994   */\n      tag_446\n      jump\t// in\n    tag_457:\n        /* \"#utility.yul\":955:994   */\n      swap5\n        /* \"#utility.yul\":1063:1065   */\n      0x20\n        /* \"#utility.yul\":1048:1066   */\n      swap4\n      swap1\n      swap4\n      add\n        /* \"#utility.yul\":1035:1067   */\n      calldataload\n      swap4\n      pop\n      pop\n      pop\n        /* \"#utility.yul\":797:1097   */\n      jump\t// out\n        /* \"#utility.yul\":1294:1668   */\n    tag_96:\n        /* \"#utility.yul\":1371:1377   */\n      0x00\n        /* \"#utility.yul\":1379:1385   */\n      dup1\n        /* \"#utility.yul\":1387:1393   */\n      0x00\n        /* \"#utility.yul\":1440:1442   */\n      0x60\n        /* \"#utility.yul\":1428:1437   */\n      dup5\n        /* \"#utility.yul\":1419:1426   */\n      dup7\n        /* \"#utility.yul\":1415:1438   */\n      sub\n        /* \"#utility.yul\":1411:1443   */\n      slt\n        /* \"#utility.yul\":1408:1460   */\n      iszero\n      tag_460\n      jumpi\n        /* \"#utility.yul\":1456:1457   */\n      0x00\n        /* \"#utility.yul\":1453:1454   */\n      dup1\n        /* \"#utility.yul\":1446:1458   */\n      revert\n        /* \"#utility.yul\":1408:1460   */\n    tag_460:\n        /* \"#utility.yul\":1479:1508   */\n      tag_461\n        /* \"#utility.yul\":1498:1507   */\n      dup5\n        /* \"#utility.yul\":1479:1508   */\n      tag_446\n      jump\t// in\n    tag_461:\n        /* \"#utility.yul\":1469:1508   */\n      swap3\n      pop\n        /* \"#utility.yul\":1527:1565   */\n      tag_462\n        /* \"#utility.yul\":1561:1563   */\n      0x20\n        /* \"#utility.yul\":1550:1559   */\n      dup6\n        /* \"#utility.yul\":1546:1564   */\n      add\n        /* \"#utility.yul\":1527:1565   */\n      tag_446\n      jump\t// in\n    tag_462:\n        /* \"#utility.yul\":1294:1668   */\n      swap3\n      swap6\n        /* \"#utility.yul\":1517:1565   */\n      swap3\n      swap5\n      pop\n      pop\n      pop\n        /* \"#utility.yul\":1634:1636   */\n      0x40\n        /* \"#utility.yul\":1619:1637   */\n      swap2\n      swap1\n      swap2\n      add\n        /* \"#utility.yul\":1606:1638   */\n      calldataload\n      swap1\n        /* \"#utility.yul\":1294:1668   */\n      jump\t// out\n        /* \"#utility.yul\":1673:1859   */\n    tag_102:\n        /* \"#utility.yul\":1732:1738   */\n      0x00\n        /* \"#utility.yul\":1785:1787   */\n      0x20\n        /* \"#utility.yul\":1773:1782   */\n      dup3\n        /* \"#utility.yul\":1764:1771   */\n      dup5\n        /* \"#utility.yul\":1760:1783   */\n      sub\n        /* \"#utility.yul\":1756:1788   */\n      slt\n        /* \"#utility.yul\":1753:1805   */\n      iszero\n      tag_464\n      jumpi\n        /* \"#utility.yul\":1801:1802   */\n      0x00\n        /* \"#utility.yul\":1798:1799   */\n      dup1\n        /* \"#utility.yul\":1791:1803   */\n      revert\n        /* \"#utility.yul\":1753:1805   */\n    tag_464:\n        /* \"#utility.yul\":1824:1853   */\n      tag_286\n        /* \"#utility.yul\":1843:1852   */\n      dup3\n        /* \"#utility.yul\":1824:1853   */\n      tag_446\n      jump\t// in\n        /* \"#utility.yul\":2053:2519   */\n    tag_129:\n        /* \"#utility.yul\":2130:2136   */\n      0x00\n        /* \"#utility.yul\":2138:2144   */\n      dup1\n        /* \"#utility.yul\":2146:2152   */\n      0x00\n        /* \"#utility.yul\":2199:2201   */\n      0x60\n        /* \"#utility.yul\":2187:2196   */\n      dup5\n        /* \"#utility.yul\":2178:2185   */\n      dup7\n        /* \"#utility.yul\":2174:2197   */\n      sub\n        /* \"#utility.yul\":2170:2202   */\n      slt\n        /* \"#utility.yul\":2167:2219   */\n      iszero\n      tag_468\n      jumpi\n        /* \"#utility.yul\":2215:2216   */\n      0x00\n        /* \"#utility.yul\":2212:2213   */\n      dup1\n        /* \"#utility.yul\":2205:2217   */\n      revert\n        /* \"#utility.yul\":2167:2219   */\n    tag_468:\n      pop\n      pop\n        /* \"#utility.yul\":2260:2283   */\n      dup2\n      calldataload\n      swap4\n        /* \"#utility.yul\":2380:2382   */\n      0x20\n        /* \"#utility.yul\":2365:2383   */\n      dup4\n      add\n        /* \"#utility.yul\":2352:2384   */\n      calldataload\n      swap4\n      pop\n        /* \"#utility.yul\":2483:2485   */\n      0x40\n        /* \"#utility.yul\":2468:2486   */\n      swap1\n      swap3\n      add\n        /* \"#utility.yul\":2455:2487   */\n      calldataload\n      swap2\n        /* \"#utility.yul\":2053:2519   */\n      swap1\n      pop\n      jump\t// out\n        /* \"#utility.yul\":2524:2750   */\n    tag_142:\n        /* \"#utility.yul\":2583:2589   */\n      0x00\n        /* \"#utility.yul\":2636:2638   */\n      0x20\n        /* \"#utility.yul\":2624:2633   */\n      dup3\n        /* \"#utility.yul\":2615:2622   */\n      dup5\n        /* \"#utility.yul\":2611:2634   */\n      sub\n        /* \"#utility.yul\":2607:2639   */\n      slt\n        /* \"#utility.yul\":2604:2656   */\n      iszero\n      tag_470\n      jumpi\n        /* \"#utility.yul\":2652:2653   */\n      0x00\n        /* \"#utility.yul\":2649:2650   */\n      dup1\n        /* \"#utility.yul\":2642:2654   */\n      revert\n        /* \"#utility.yul\":2604:2656   */\n    tag_470:\n      pop\n        /* \"#utility.yul\":2697:2720   */\n      calldataload\n      swap2\n        /* \"#utility.yul\":2524:2750   */\n      swap1\n      pop\n      jump\t// out\n        /* \"#utility.yul\":2963:3309   */\n    tag_211:\n        /* \"#utility.yul\":3031:3037   */\n      0x00\n        /* \"#utility.yul\":3039:3045   */\n      dup1\n        /* \"#utility.yul\":3092:3094   */\n      0x40\n        /* \"#utility.yul\":3080:3089   */\n      dup4\n        /* \"#utility.yul\":3071:3078   */\n      dup6\n        /* \"#utility.yul\":3067:3090   */\n      sub\n        /* \"#utility.yul\":3063:3095   */\n      slt\n        /* \"#utility.yul\":3060:3112   */\n      iszero\n      tag_473\n      jumpi\n        /* \"#utility.yul\":3108:3109   */\n      0x00\n        /* \"#utility.yul\":3105:3106   */\n      dup1\n        /* \"#utility.yul\":3098:3110   */\n      revert\n        /* \"#utility.yul\":3060:3112   */\n    tag_473:\n      pop\n      pop\n        /* \"#utility.yul\":3153:3176   */\n      dup1\n      calldataload\n      swap3\n        /* \"#utility.yul\":3273:3275   */\n      0x20\n        /* \"#utility.yul\":3258:3276   */\n      swap1\n      swap2\n      add\n        /* \"#utility.yul\":3245:3277   */\n      calldataload\n      swap2\n      pop\n        /* \"#utility.yul\":2963:3309   */\n      jump\t// out\n        /* \"#utility.yul\":3314:3574   */\n    tag_227:\n        /* \"#utility.yul\":3382:3388   */\n      0x00\n        /* \"#utility.yul\":3390:3396   */\n      dup1\n        /* \"#utility.yul\":3443:3445   */\n      0x40\n        /* \"#utility.yul\":3431:3440   */\n      dup4\n        /* \"#utility.yul\":3422:3429   */\n      dup6\n        /* \"#utility.yul\":3418:3441   */\n      sub\n        /* \"#utility.yul\":3414:3446   */\n      slt\n        /* \"#utility.yul\":3411:3463   */\n      iszero\n      tag_475\n      jumpi\n        /* \"#utility.yul\":3459:3460   */\n      0x00\n        /* \"#utility.yul\":3456:3457   */\n      dup1\n        /* \"#utility.yul\":3449:3461   */\n      revert\n        /* \"#utility.yul\":3411:3463   */\n    tag_475:\n        /* \"#utility.yul\":3482:3511   */\n      tag_476\n        /* \"#utility.yul\":3501:3510   */\n      dup4\n        /* \"#utility.yul\":3482:3511   */\n      tag_446\n      jump\t// in\n    tag_476:\n        /* \"#utility.yul\":3472:3511   */\n      swap2\n      pop\n        /* \"#utility.yul\":3530:3568   */\n      tag_477\n        /* \"#utility.yul\":3564:3566   */\n      0x20\n        /* \"#utility.yul\":3553:3562   */\n      dup5\n        /* \"#utility.yul\":3549:3567   */\n      add\n        /* \"#utility.yul\":3530:3568   */\n      tag_446\n      jump\t// in\n    tag_477:\n        /* \"#utility.yul\":3520:3568   */\n      swap1\n      pop\n        /* \"#utility.yul\":3314:3574   */\n      swap3\n      pop\n      swap3\n      swap1\n      pop\n      jump\t// out\n        /* \"#utility.yul\":3579:3959   */\n    tag_245:\n        /* \"#utility.yul\":3658:3659   */\n      0x01\n        /* \"#utility.yul\":3654:3666   */\n      dup2\n      dup2\n      shr\n      swap1\n        /* \"#utility.yul\":3701:3713   */\n      dup3\n      and\n      dup1\n        /* \"#utility.yul\":3722:3783   */\n      tag_479\n      jumpi\n        /* \"#utility.yul\":3776:3780   */\n      0x7f\n        /* \"#utility.yul\":3768:3774   */\n      dup3\n        /* \"#utility.yul\":3764:3781   */\n      and\n        /* \"#utility.yul\":3754:3781   */\n      swap2\n      pop\n        /* \"#utility.yul\":3722:3783   */\n    tag_479:\n        /* \"#utility.yul\":3829:3831   */\n      0x20\n        /* \"#utility.yul\":3821:3827   */\n      dup3\n        /* \"#utility.yul\":3818:3832   */\n      lt\n        /* \"#utility.yul\":3798:3816   */\n      dup2\n        /* \"#utility.yul\":3795:3833   */\n      sub\n        /* \"#utility.yul\":3792:3953   */\n      tag_480\n      jumpi\n        /* \"#utility.yul\":3875:3885   */\n      0x4e487b71\n        /* \"#utility.yul\":3870:3873   */\n      0xe0\n        /* \"#utility.yul\":3866:3886   */\n      shl\n        /* \"#utility.yul\":3863:3864   */\n      0x00\n        /* \"#utility.yul\":3856:3887   */\n      mstore\n        /* \"#utility.yul\":3910:3914   */\n      0x22\n        /* \"#utility.yul\":3907:3908   */\n      0x04\n        /* \"#utility.yul\":3900:3915   */\n      mstore\n        /* \"#utility.yul\":3938:3942   */\n      0x24\n        /* \"#utility.yul\":3935:3936   */\n      0x00\n        /* \"#utility.yul\":3928:3943   */\n      revert\n        /* \"#utility.yul\":3792:3953   */\n    tag_480:\n      pop\n        /* \"#utility.yul\":3579:3959   */\n      swap2\n      swap1\n      pop\n      jump\t// out\n        /* \"#utility.yul\":3964:4091   */\n    tag_447:\n        /* \"#utility.yul\":4025:4035   */\n      0x4e487b71\n        /* \"#utility.yul\":4020:4023   */\n      0xe0\n        /* \"#utility.yul\":4016:4036   */\n      shl\n        /* \"#utility.yul\":4013:4014   */\n      0x00\n        /* \"#utility.yul\":4006:4037   */\n      mstore\n        /* \"#utility.yul\":4056:4060   */\n      0x11\n        /* \"#utility.yul\":4053:4054   */\n      0x04\n        /* \"#utility.yul\":4046:4061   */\n      mstore\n        /* \"#utility.yul\":4080:4084   */\n      0x24\n        /* \"#utility.yul\":4077:4078   */\n      0x00\n        /* \"#utility.yul\":4070:4085   */\n      revert\n        /* \"#utility.yul\":4096:4471   */\n    tag_448:\n        /* \"#utility.yul\":4184:4185   */\n      0x01\n        /* \"#utility.yul\":4202:4207   */\n      dup2\n        /* \"#utility.yul\":4216:4465   */\n    tag_483:\n        /* \"#utility.yul\":4237:4238   */\n      0x01\n        /* \"#utility.yul\":4227:4235   */\n      dup5\n        /* \"#utility.yul\":4224:4239   */\n      gt\n        /* \"#utility.yul\":4216:4465   */\n      iszero\n      tag_485\n      jumpi\n        /* \"#utility.yul\":4287:4291   */\n      dup1\n        /* \"#utility.yul\":4282:4285   */\n      dup6\n        /* \"#utility.yul\":4278:4292   */\n      div\n        /* \"#utility.yul\":4272:4276   */\n      dup2\n        /* \"#utility.yul\":4269:4293   */\n      gt\n        /* \"#utility.yul\":4266:4316   */\n      iszero\n      tag_487\n      jumpi\n        /* \"#utility.yul\":4296:4314   */\n      tag_487\n      tag_447\n      jump\t// in\n    tag_487:\n        /* \"#utility.yul\":4346:4347   */\n      0x01\n        /* \"#utility.yul\":4336:4344   */\n      dup5\n        /* \"#utility.yul\":4332:4348   */\n      and\n        /* \"#utility.yul\":4329:4378   */\n      iszero\n      tag_488\n      jumpi\n        /* \"#utility.yul\":4360:4376   */\n      swap1\n      dup2\n      mul\n      swap1\n        /* \"#utility.yul\":4329:4378   */\n    tag_488:\n        /* \"#utility.yul\":4443:4444   */\n      0x01\n        /* \"#utility.yul\":4439:4455   */\n      swap4\n      swap1\n      swap4\n      shr\n      swap3\n        /* \"#utility.yul\":4399:4414   */\n      dup1\n      mul\n        /* \"#utility.yul\":4216:4465   */\n      jump(tag_483)\n    tag_485:\n        /* \"#utility.yul\":4096:4471   */\n      swap4\n      pop\n      swap4\n      swap2\n      pop\n      pop\n      jump\t// out\n        /* \"#utility.yul\":4476:5378   */\n    tag_449:\n        /* \"#utility.yul\":4525:4530   */\n      0x00\n        /* \"#utility.yul\":4555:4563   */\n      dup3\n        /* \"#utility.yul\":4545:4625   */\n      tag_490\n      jumpi\n      pop\n        /* \"#utility.yul\":4596:4597   */\n      0x01\n        /* \"#utility.yul\":4610:4615   */\n      jump(tag_250)\n        /* \"#utility.yul\":4545:4625   */\n    tag_490:\n        /* \"#utility.yul\":4644:4648   */\n      dup2\n        /* \"#utility.yul\":4634:4710   */\n      tag_491\n      jumpi\n      pop\n        /* \"#utility.yul\":4681:4682   */\n      0x00\n        /* \"#utility.yul\":4695:4700   */\n      jump(tag_250)\n        /* \"#utility.yul\":4634:4710   */\n    tag_491:\n        /* \"#utility.yul\":4726:4730   */\n      dup2\n        /* \"#utility.yul\":4744:4745   */\n      0x01\n        /* \"#utility.yul\":4739:4798   */\n      dup2\n      eq\n      tag_493\n      jumpi\n        /* \"#utility.yul\":4812:4813   */\n      0x02\n        /* \"#utility.yul\":4807:4981   */\n      dup2\n      eq\n      tag_494\n      jumpi\n        /* \"#utility.yul\":4719:4981   */\n      jump(tag_492)\n        /* \"#utility.yul\":4739:4798   */\n    tag_493:\n        /* \"#utility.yul\":4769:4770   */\n      0x01\n        /* \"#utility.yul\":4760:4770   */\n      swap2\n      pop\n        /* \"#utility.yul\":4783:4788   */\n      pop\n      jump(tag_250)\n        /* \"#utility.yul\":4807:4981   */\n    tag_494:\n        /* \"#utility.yul\":4844:4847   */\n      0xff\n        /* \"#utility.yul\":4834:4842   */\n      dup5\n        /* \"#utility.yul\":4831:4848   */\n      gt\n        /* \"#utility.yul\":4828:4871   */\n      iszero\n      tag_496\n      jumpi\n        /* \"#utility.yul\":4851:4869   */\n      tag_496\n      tag_447\n      jump\t// in\n    tag_496:\n      pop\n      pop\n        /* \"#utility.yul\":4907:4908   */\n      0x01\n        /* \"#utility.yul\":4893:4909   */\n      dup3\n      shl\n        /* \"#utility.yul\":4966:4971   */\n      jump(tag_250)\n        /* \"#utility.yul\":4719:4981   */\n    tag_492:\n      pop\n        /* \"#utility.yul\":5065:5067   */\n      0x20\n        /* \"#utility.yul\":5055:5063   */\n      dup4\n        /* \"#utility.yul\":5052:5068   */\n      lt\n        /* \"#utility.yul\":5046:5049   */\n      0x0133\n        /* \"#utility.yul\":5040:5044   */\n      dup4\n        /* \"#utility.yul\":5037:5050   */\n      lt\n        /* \"#utility.yul\":5033:5069   */\n      and\n        /* \"#utility.yul\":5027:5029   */\n      0x4e\n        /* \"#utility.yul\":5017:5025   */\n      dup5\n        /* \"#utility.yul\":5014:5030   */\n      lt\n        /* \"#utility.yul\":5009:5011   */\n      0x0b\n        /* \"#utility.yul\":5003:5007   */\n      dup5\n        /* \"#utility.yul\":5000:5012   */\n      lt\n        /* \"#utility.yul\":4996:5031   */\n      and\n        /* \"#utility.yul\":4993:5070   */\n      or\n        /* \"#utility.yul\":4990:5193   */\n      iszero\n      tag_497\n      jumpi\n      pop\n        /* \"#utility.yul\":5102:5121   */\n      dup2\n      dup2\n      exp\n        /* \"#utility.yul\":5178:5183   */\n      jump(tag_250)\n        /* \"#utility.yul\":4990:5193   */\n    tag_497:\n        /* \"#utility.yul\":5225:5267   */\n      tag_498\n      not(0x00)\n        /* \"#utility.yul\":5250:5258   */\n      dup5\n        /* \"#utility.yul\":5244:5248   */\n      dup5\n        /* \"#utility.yul\":5225:5267   */\n      tag_448\n      jump\t// in\n    tag_498:\n        /* \"#utility.yul\":5303:5309   */\n      dup1\n        /* \"#utility.yul\":5299:5300   */\n      0x00\n        /* \"#utility.yul\":5295:5301   */\n      not\n        /* \"#utility.yul\":5291:5310   */\n      div\n        /* \"#utility.yul\":5282:5289   */\n      dup3\n        /* \"#utility.yul\":5279:5311   */\n      gt\n        /* \"#utility.yul\":5276:5334   */\n      iszero\n      tag_500\n      jumpi\n        /* \"#utility.yul\":5314:5332   */\n      tag_500\n      tag_447\n      jump\t// in\n    tag_500:\n        /* \"#utility.yul\":5352:5372   */\n      mul\n      swap4\n        /* \"#utility.yul\":4476:5378   */\n      swap3\n      pop\n      pop\n      pop\n      jump\t// out\n        /* \"#utility.yul\":5383:5523   */\n    tag_258:\n        /* \"#utility.yul\":5441:5446   */\n      0x00\n        /* \"#utility.yul\":5470:5517   */\n      tag_286\n        /* \"#utility.yul\":5511:5515   */\n      0xff\n        /* \"#utility.yul\":5501:5509   */\n      dup5\n        /* \"#utility.yul\":5497:5516   */\n      and\n        /* \"#utility.yul\":5491:5495   */\n      dup4\n        /* \"#utility.yul\":5470:5517   */\n      tag_449\n      jump\t// in\n        /* \"#utility.yul\":5528:5696   */\n    tag_260:\n        /* \"#utility.yul\":5601:5610   */\n      dup1\n      dup3\n      mul\n        /* \"#utility.yul\":5632:5641   */\n      dup2\n      iszero\n        /* \"#utility.yul\":5649:5664   */\n      dup3\n      dup3\n      div\n        /* \"#utility.yul\":5643:5665   */\n      dup5\n      eq\n        /* \"#utility.yul\":5629:5666   */\n      or\n        /* \"#utility.yul\":5619:5690   */\n      tag_250\n      jumpi\n        /* \"#utility.yul\":5670:5688   */\n      tag_250\n      tag_447\n      jump\t// in\n        /* \"#utility.yul\":5701:6098   */\n    tag_268:\n        /* \"#utility.yul\":5903:5905   */\n      0x20\n        /* \"#utility.yul\":5885:5906   */\n      dup1\n      dup3\n      mstore\n        /* \"#utility.yul\":5942:5944   */\n      0x21\n        /* \"#utility.yul\":5922:5940   */\n      swap1\n      dup3\n      add\n        /* \"#utility.yul\":5915:5945   */\n      mstore\n        /* \"#utility.yul\":5981:6015   */\n      0x456e642074696d65206d7573742062652061667465722073746172742074696d\n        /* \"#utility.yul\":5976:5978   */\n      0x40\n        /* \"#utility.yul\":5961:5979   */\n      dup3\n      add\n        /* \"#utility.yul\":5954:6016   */\n      mstore\n      shl(0xf8, 0x65)\n        /* \"#utility.yul\":6047:6049   */\n      0x60\n        /* \"#utility.yul\":6032:6050   */\n      dup3\n      add\n        /* \"#utility.yul\":6025:6056   */\n      mstore\n        /* \"#utility.yul\":6088:6091   */\n      0x80\n        /* \"#utility.yul\":6073:6092   */\n      add\n      swap1\n        /* \"#utility.yul\":5701:6098   */\n      jump\t// out\n        /* \"#utility.yul\":6103:6231   */\n    tag_270:\n        /* \"#utility.yul\":6170:6179   */\n      dup2\n      dup2\n      sub\n        /* \"#utility.yul\":6191:6202   */\n      dup2\n      dup2\n      gt\n        /* \"#utility.yul\":6188:6225   */\n      iszero\n      tag_250\n      jumpi\n        /* \"#utility.yul\":6205:6223   */\n      tag_250\n      tag_447\n      jump\t// in\n        /* \"#utility.yul\":6236:6453   */\n    tag_273:\n        /* \"#utility.yul\":6276:6277   */\n      0x00\n        /* \"#utility.yul\":6302:6303   */\n      dup3\n        /* \"#utility.yul\":6292:6424   */\n      tag_511\n      jumpi\n        /* \"#utility.yul\":6346:6356   */\n      0x4e487b71\n        /* \"#utility.yul\":6341:6344   */\n      0xe0\n        /* \"#utility.yul\":6337:6357   */\n      shl\n        /* \"#utility.yul\":6334:6335   */\n      0x00\n        /* \"#utility.yul\":6327:6358   */\n      mstore\n        /* \"#utility.yul\":6381:6385   */\n      0x12\n        /* \"#utility.yul\":6378:6379   */\n      0x04\n        /* \"#utility.yul\":6371:6386   */\n      mstore\n        /* \"#utility.yul\":6409:6413   */\n      0x24\n        /* \"#utility.yul\":6406:6407   */\n      0x00\n        /* \"#utility.yul\":6399:6414   */\n      revert\n        /* \"#utility.yul\":6292:6424   */\n    tag_511:\n      pop\n        /* \"#utility.yul\":6438:6447   */\n      div\n      swap1\n        /* \"#utility.yul\":6236:6453   */\n      jump\t// out\n        /* \"#utility.yul\":7463:7588   */\n    tag_309:\n        /* \"#utility.yul\":7528:7537   */\n      dup1\n      dup3\n      add\n        /* \"#utility.yul\":7549:7559   */\n      dup1\n      dup3\n      gt\n        /* \"#utility.yul\":7546:7582   */\n      iszero\n      tag_250\n      jumpi\n        /* \"#utility.yul\":7562:7580   */\n      tag_250\n      tag_447\n      jump\t// in\n\n    auxdata: 0xa2646970667358221220e120603368e2c0c0936d4851e331f4c07119a724006374f0a481d76f7602f92464736f6c634300081a0033\n}\n",
				"bytecode": {
					"linkReferences": {},
					"object": "608060405234801561000f575f80fd5b50604051611d42380380611d4283398101604081905261002e916102a9565b866040518060400160405280600b81526020016a2730ba3ab932aa37b5b2b760a91b81525060405180604001604052806003815260200162272a2960e91b815250816003908161007e91906103a4565b50600461008b82826103a4565b5050506001600160a01b0381166100bc57604051631e4fbdf760e01b81525f60048201526024015b60405180910390fd5b6100c5816100fa565b506100d0308761014b565b600894909455600992909255600c556005805460ff60a01b19169055600d55600e55506104839050565b600580546001600160a01b038381166001600160a01b0319831681179093556040519116919082907f8be0079c531659141344cd1fd0a4f28419497f9722a3daafe3b4186f6b6457e0905f90a35050565b6001600160a01b0382166101745760405163ec442f0560e01b81525f60048201526024016100b3565b61017f5f8383610183565b5050565b6001600160a01b0383166101ad578060025f8282546101a2919061045e565b9091555061021d9050565b6001600160a01b0383165f90815260208190526040902054818110156101ff5760405163391434e360e21b81526001600160a01b038516600482015260248101829052604481018390526064016100b3565b6001600160a01b0384165f9081526020819052604090209082900390555b6001600160a01b03821661023957600280548290039055610257565b6001600160a01b0382165f9081526020819052604090208054820190555b816001600160a01b0316836001600160a01b03167fddf252ad1be2c89b69c2b068fc378daa952ba7f163c4a11628f55a4df523b3ef8360405161029c91815260200190565b60405180910390a3505050565b5f805f805f805f60e0888a0312156102bf575f80fd5b87516001600160a01b03811681146102d5575f80fd5b602089015160408a015160608b015160808c015160a08d015160c0909d0151949e939d50919b909a50909850965090945092505050565b634e487b7160e01b5f52604160045260245ffd5b600181811c9082168061033457607f821691505b60208210810361035257634e487b7160e01b5f52602260045260245ffd5b50919050565b601f82111561039f57805f5260205f20601f840160051c8101602085101561037d5750805b601f840160051c820191505b8181101561039c575f8155600101610389565b50505b505050565b81516001600160401b038111156103bd576103bd61030c565b6103d1816103cb8454610320565b84610358565b6020601f821160018114610403575f83156103ec5750848201515b5f19600385901b1c1916600184901b17845561039c565b5f84815260208120601f198516915b828110156104325787850151825560209485019460019092019101610412565b508482101561044f57868401515f19600387901b60f8161c191681555b50505050600190811b01905550565b8082018082111561047d57634e487b7160e01b5f52601160045260245ffd5b92915050565b6118b2806104905f395ff3fe608060405260043610610254575f3560e01c80638da5cb5b1161013f578063c6a1f80a116100b3578063d348b40911610078578063d348b40914610692578063dc07c8a3146106a6578063dd62ed3e146106bb578063ebbef6f6146106ff578063f2fde38b1461071f578063f99318551461073e575f80fd5b8063c6a1f80a14610616578063cce29ea71461062b578063cec297a014610640578063cf5f971b1461066b578063d0febe4c1461068a575f80fd5b80639ca423b3116101045780639ca423b314610567578063a09c4cf41461059b578063a5ce413b146105ba578063a8297d46146105ce578063a9059cbb146105e3578063b290d57014610602575f80fd5b80638da5cb5b146104b55780638f0794fe146104e657806395d89b4114610511578063967ed8f3146105255780639b19251a14610539575f80fd5b806327e235e3116101d6578063518ab2a81161019b578063518ab2a814610404578063639a5c871461041957806370a082311461043a578063715018a61461046e5780637547c7a3146104825780637c613b2f146104a1575f80fd5b806327e235e31461037557806330f72cd4146103a0578063313ce567146103c05780634405df4a146103db5780634f3fc2df146103ef575f80fd5b806312065fe01161021c57806312065fe0146102f957806318160ddd146103195780631d0806ae1461032d5780631d3824ea1461034257806323b872dd14610356575f80fd5b806303e293a31461025857806306d65af31461028057806306fdde0314610295578063095ea7b3146102b65780630fb4ce58146102e5575b5f80fd5b348015610263575f80fd5b5061026d60095481565b6040519081526020015b60405180910390f35b34801561028b575f80fd5b5061026d60065481565b3480156102a0575f80fd5b506102a9610769565b6040516102779190611546565b3480156102c1575f80fd5b506102d56102d0366004611596565b6107f9565b6040519015158152602001610277565b3480156102f0575f80fd5b5061026d610812565b348015610304575f80fd5b50335f9081526020819052604090205461026d565b348015610324575f80fd5b5060025461026d565b348015610338575f80fd5b5061026d60085481565b34801561034d575f80fd5b5061026d610849565b348015610361575f80fd5b506102d56103703660046115be565b6108aa565b348015610380575f80fd5b5061026d61038f3660046115f8565b60146020525f908152604090205481565b3480156103ab575f80fd5b506005546102d590600160a01b900460ff1681565b3480156103cb575f80fd5b5060405160128152602001610277565b3480156103e6575f80fd5b5061026d6108cd565b3480156103fa575f80fd5b5061026d600c5481565b34801561040f575f80fd5b5061026d600a5481565b348015610424575f80fd5b50610438610433366004611611565b61090d565b005b348015610445575f80fd5b5061026d6104543660046115f8565b6001600160a01b03165f9081526020819052604090205490565b348015610479575f80fd5b50610438610975565b34801561048d575f80fd5b5061043861049c36600461163a565b610988565b3480156104ac575f80fd5b50610438610ab3565b3480156104c0575f80fd5b506005546001600160a01b03165b6040516001600160a01b039091168152602001610277565b3480156104f1575f80fd5b5061026d6105003660046115f8565b60106020525f908152604090205481565b34801561051c575f80fd5b506102a9610baf565b348015610530575f80fd5b5061026d610bbe565b348015610544575f80fd5b506102d56105533660046115f8565b60116020525f908152604090205460ff1681565b348015610572575f80fd5b506104ce6105813660046115f8565b60126020525f90815260409020546001600160a01b031681565b3480156105a6575f80fd5b506104386105b53660046115f8565b610c25565b3480156105c5575f80fd5b50610438610d9c565b3480156105d9575f80fd5b5061026d600e5481565b3480156105ee575f80fd5b506102d56105fd366004611596565b610ed3565b34801561060d575f80fd5b5061026d610ee0565b348015610621575f80fd5b5061026d600d5481565b348015610636575f80fd5b5061026d60075481565b34801561064b575f80fd5b5061026d61065a3660046115f8565b60136020525f908152604090205481565b348015610676575f80fd5b5061026d610685366004611651565b610efd565b610438610f58565b34801561069d575f80fd5b5061026d6110ea565b3480156106b1575f80fd5b5061026d600b5481565b3480156106c6575f80fd5b5061026d6106d5366004611671565b6001600160a01b039182165f90815260016020908152604080832093909416825291909152205490565b34801561070a575f80fd5b50335f908152600f602052604090205461026d565b34801561072a575f80fd5b506104386107393660046115f8565b611170565b348015610749575f80fd5b5061026d6107583660046115f8565b600f6020525f908152604090205481565b606060038054610778906116a2565b80601f01602080910402602001604051908101604052809291908181526020018280546107a4906116a2565b80156107ef5780601f106107c6576101008083540402835291602001916107ef565b820191905f5260205f20905b8154815290600101906020018083116107d257829003601f168201915b5050505050905090565b5f336108068185856111ad565b60019150505b92915050565b5f61081f6012600a6117d1565b335f9081526013602052604090205461083a906101f46117df565b61084491906117df565b905090565b5f6006544210156108755760405162461bcd60e51b815260040161086c906117f6565b60405180910390fd5b5f600b546006546007546108899190611837565b6006546108969042611837565b6108a0919061184a565b61080c919061184a565b5f336108b78582856111bf565b6108c285858561123b565b506001949350505050565b5f806108db60065442610efd565b90505f600b54826008546009546108f29190611837565b6108fc91906117df565b610906919061184a565b9392505050565b610915611298565b60068390556007829055600b8190556005805460ff60a01b1916600160a01b17905560408051848152602081018490527f3844853be672b18d859394aa37e05615b95b78e66b4dc37dca98d1db1b05ea7d910160405180910390a1505050565b61097d611298565b6109865f6112c5565b565b5f81116109e15760405162461bcd60e51b815260206004820152602160248201527f416d6f756e74206d7573742062652067726561746572207468616e207a65726f6044820152601760f91b606482015260840161086c565b335f90815260208190526040902054811115610a375760405162461bcd60e51b815260206004820152601560248201527424b739bab33334b1b4b2b73a103130b630b731b29760591b604482015260640161086c565b610a4233308361123b565b335f908152600f602052604081208054839290610a60908490611869565b9091555050335f8181526010602052604090819020429055517fb539ca1e5c8d398ddf1c41c30166f33404941683be4683319b57669a93dad4ef90610aa89084815260200190565b60405180910390a250565b600554600160a01b900460ff161515600114610b115760405162461bcd60e51b815260206004820152601760248201527f50726573616c65206e6f74207374617274656420796574000000000000000000604482015260640161086c565b5f610b1a610812565b90505f8111610b625760405162461bcd60e51b81526020600482015260146024820152734e6f207265776172647320617661696c61626c6560601b604482015260640161086c565b610b6c3382611316565b335f8181526013602052604080822091909155517ff0bc0a70fe19ef2d8dc1e1948b338a1184184fb1ea3ac836f24065828816d68d90610aa89084815260200190565b606060048054610778906116a2565b600e54335f9081526010602052604081205490918291610bde9042611837565b610be8919061184a565b600c54335f908152600f60205260409020549192506064918391610c0b916117df565b610c1591906117df565b610c1f919061184a565b91505090565b335f9081526011602052604090205460ff1615610c7a5760405162461bcd60e51b8152602060048201526013602482015272105b1c9958591e481dda1a5d195b1a5cdd1959606a1b604482015260640161086c565b6001600160a01b0381163303610cca5760405162461bcd60e51b815260206004820152601560248201527421b0b73737ba103932b332b9103cb7bab939b2b63360591b604482015260640161086c565b335f908152601160205260409020805460ff191660011790556001600160a01b03811615801590610d1257506001600160a01b0381165f9081526011602052604090205460ff165b15610d6457335f90815260126020908152604080832080546001600160a01b0319166001600160a01b038616908117909155835260139091528120805460019290610d5e908490611869565b90915550505b6040516001600160a01b0382169033907f4bc18aa4b0095c9a3b5cdf42d2322d5a145591b04045988a995a5da426075457905f90a350565b335f908152600f602052604090205480610dec5760405162461bcd60e51b81526020600482015260116024820152702737903a37b5b2b7399039ba30b5b2b21760791b604482015260640161086c565b600d54335f90815260106020526040902054610e089190611869565b421015610e575760405162461bcd60e51b815260206004820152601b60248201527f556e7374616b65206f6e6c792061667465722034207765656b732e0000000000604482015260640161086c565b5f610e60610bbe565b335f818152600f602090815260408083208390556010909152812055909150610e94903090610e8f8486611869565b61123b565b604080518381526020810183905233917f6f2d3e000c89d37446b7c0374c0125068ff316d1e3ee302336478a8cd03c2336910160405180910390a25050565b5f3361080681858561123b565b600d54335f90815260106020526040812054909161084491611869565b5f82821015610f1e5760405162461bcd60e51b815260040161086c906117f6565b5f600b54600654600754610f329190611837565b610f3c8686611837565b610f46919061184a565b610f50919061184a565b949350505050565b600554600160a01b900460ff16610fa45760405162461bcd60e51b815260206004820152601060248201526f29b0b632903737ba1030b1ba34bb329760811b604482015260640161086c565b5f3411610ff35760405162461bcd60e51b815260206004820152601c60248201527f4d7573742073656e642045544820746f2062757920746f6b656e732e00000000604482015260640161086c565b5f610ffc6110ea565b90505f611009823461184a565b305f9081526020819052604090205490915081111561106a5760405162461bcd60e51b815260206004820152601c60248201527f4e6f7420656e6f75676820746f6b656e7320617661696c61626c652e00000000604482015260640161086c565b335f9081526014602052604081208054839290611088908490611869565b90915550611099905030338361123b565b80600a5f8282546110aa9190611869565b9091555050604051818152339030907fddf252ad1be2c89b69c2b068fc378daa952ba7f163c4a11628f55a4df523b3ef9060200160405180910390a35050565b6005545f90600160a01b900460ff166111455760405162461bcd60e51b815260206004820152601860248201527f5072652d73616c65206e6f742073746172746564207965740000000000000000604482015260640161086c565b600754421115611156575060095490565b5f61115f6108cd565b90505f816008546109069190611869565b611178611298565b6001600160a01b0381166111a157604051631e4fbdf760e01b81525f600482015260240161086c565b6111aa816112c5565b50565b6111ba838383600161134e565b505050565b6001600160a01b038381165f908152600160209081526040808320938616835292905220545f19811015611235578181101561122757604051637dc7a0d960e11b81526001600160a01b0384166004820152602481018290526044810183905260640161086c565b61123584848484035f61134e565b50505050565b6001600160a01b03831661126457604051634b637e8f60e11b81525f600482015260240161086c565b6001600160a01b03821661128d5760405163ec442f0560e01b81525f600482015260240161086c565b6111ba838383611420565b6005546001600160a01b031633146109865760405163118cdaa760e01b815233600482015260240161086c565b600580546001600160a01b038381166001600160a01b0319831681179093556040519116919082907f8be0079c531659141344cd1fd0a4f28419497f9722a3daafe3b4186f6b6457e0905f90a35050565b6001600160a01b03821661133f5760405163ec442f0560e01b81525f600482015260240161086c565b61134a5f8383611420565b5050565b6001600160a01b0384166113775760405163e602df0560e01b81525f600482015260240161086c565b6001600160a01b0383166113a057604051634a1406b160e11b81525f600482015260240161086c565b6001600160a01b038085165f908152600160209081526040808320938716835292905220829055801561123557826001600160a01b0316846001600160a01b03167f8c5be1e5ebec7d5bd14f71427d1e84f3dd0314c0f7b2291e5b200ac8c7c3b9258460405161141291815260200190565b60405180910390a350505050565b6001600160a01b03831661144a578060025f82825461143f9190611869565b909155506114ba9050565b6001600160a01b0383165f908152602081905260409020548181101561149c5760405163391434e360e21b81526001600160a01b0385166004820152602481018290526044810183905260640161086c565b6001600160a01b0384165f9081526020819052604090209082900390555b6001600160a01b0382166114d6576002805482900390556114f4565b6001600160a01b0382165f9081526020819052604090208054820190555b816001600160a01b0316836001600160a01b03167fddf252ad1be2c89b69c2b068fc378daa952ba7f163c4a11628f55a4df523b3ef8360405161153991815260200190565b60405180910390a3505050565b602081525f82518060208401528060208501604085015e5f604082850101526040601f19601f83011684010191505092915050565b80356001600160a01b0381168114611591575f80fd5b919050565b5f80604083850312156115a7575f80fd5b6115b08361157b565b946020939093013593505050565b5f805f606084860312156115d0575f80fd5b6115d98461157b565b92506115e76020850161157b565b929592945050506040919091013590565b5f60208284031215611608575f80fd5b6109068261157b565b5f805f60608486031215611623575f80fd5b505081359360208301359350604090920135919050565b5f6020828403121561164a575f80fd5b5035919050565b5f8060408385031215611662575f80fd5b50508035926020909101359150565b5f8060408385031215611682575f80fd5b61168b8361157b565b91506116996020840161157b565b90509250929050565b600181811c908216806116b657607f821691505b6020821081036116d457634e487b7160e01b5f52602260045260245ffd5b50919050565b634e487b7160e01b5f52601160045260245ffd5b6001815b60018411156117295780850481111561170d5761170d6116da565b600184161561171b57908102905b60019390931c9280026116f2565b935093915050565b5f8261173f5750600161080c565b8161174b57505f61080c565b8160018114611761576002811461176b57611787565b600191505061080c565b60ff84111561177c5761177c6116da565b50506001821b61080c565b5060208310610133831016604e8410600b84101617156117aa575081810a61080c565b6117b65f1984846116ee565b805f19048211156117c9576117c96116da565b029392505050565b5f61090660ff841683611731565b808202811582820484141761080c5761080c6116da565b60208082526021908201527f456e642074696d65206d7573742062652061667465722073746172742074696d6040820152606560f81b606082015260800190565b8181038181111561080c5761080c6116da565b5f8261186457634e487b7160e01b5f52601260045260245ffd5b500490565b8082018082111561080c5761080c6116da56fea2646970667358221220e120603368e2c0c0936d4851e331f4c07119a724006374f0a481d76f7602f92464736f6c634300081a0033",
					"opcodes": "PUSH1 0x80 PUSH1 0x40 MSTORE CALLVALUE DUP1 ISZERO PUSH2 0xF JUMPI PUSH0 DUP1 REVERT JUMPDEST POP PUSH1 0x40 MLOAD PUSH2 0x1D42 CODESIZE SUB DUP1 PUSH2 0x1D42 DUP4 CODECOPY DUP2 ADD PUSH1 0x40 DUP2 SWAP1 MSTORE PUSH2 0x2E SWAP2 PUSH2 0x2A9 JUMP JUMPDEST DUP7 PUSH1 0x40 MLOAD DUP1 PUSH1 0x40 ADD PUSH1 0x40 MSTORE DUP1 PUSH1 0xB DUP2 MSTORE PUSH1 0x20 ADD PUSH11 0x2730BA3AB932AA37B5B2B7 PUSH1 0xA9 SHL DUP2 MSTORE POP PUSH1 0x40 MLOAD DUP1 PUSH1 0x40 ADD PUSH1 0x40 MSTORE DUP1 PUSH1 0x3 DUP2 MSTORE PUSH1 0x20 ADD PUSH3 0x272A29 PUSH1 0xE9 SHL DUP2 MSTORE POP DUP2 PUSH1 0x3 SWAP1 DUP2 PUSH2 0x7E SWAP2 SWAP1 PUSH2 0x3A4 JUMP JUMPDEST POP PUSH1 0x4 PUSH2 0x8B DUP3 DUP3 PUSH2 0x3A4 JUMP JUMPDEST POP POP POP PUSH1 0x1 PUSH1 0x1 PUSH1 0xA0 SHL SUB DUP2 AND PUSH2 0xBC JUMPI PUSH1 0x40 MLOAD PUSH4 0x1E4FBDF7 PUSH1 0xE0 SHL DUP2 MSTORE PUSH0 PUSH1 0x4 DUP3 ADD MSTORE PUSH1 0x24 ADD JUMPDEST PUSH1 0x40 MLOAD DUP1 SWAP2 SUB SWAP1 REVERT JUMPDEST PUSH2 0xC5 DUP2 PUSH2 0xFA JUMP JUMPDEST POP PUSH2 0xD0 ADDRESS DUP8 PUSH2 0x14B JUMP JUMPDEST PUSH1 0x8 SWAP5 SWAP1 SWAP5 SSTORE PUSH1 0x9 SWAP3 SWAP1 SWAP3 SSTORE PUSH1 0xC SSTORE PUSH1 0x5 DUP1 SLOAD PUSH1 0xFF PUSH1 0xA0 SHL NOT AND SWAP1 SSTORE PUSH1 0xD SSTORE PUSH1 0xE SSTORE POP PUSH2 0x483 SWAP1 POP JUMP JUMPDEST PUSH1 0x5 DUP1 SLOAD PUSH1 0x1 PUSH1 0x1 PUSH1 0xA0 SHL SUB DUP4 DUP2 AND PUSH1 0x1 PUSH1 0x1 PUSH1 0xA0 SHL SUB NOT DUP4 AND DUP2 OR SWAP1 SWAP4 SSTORE PUSH1 0x40 MLOAD SWAP2 AND SWAP2 SWAP1 DUP3 SWAP1 PUSH32 0x8BE0079C531659141344CD1FD0A4F28419497F9722A3DAAFE3B4186F6B6457E0 SWAP1 PUSH0 SWAP1 LOG3 POP POP JUMP JUMPDEST PUSH1 0x1 PUSH1 0x1 PUSH1 0xA0 SHL SUB DUP3 AND PUSH2 0x174 JUMPI PUSH1 0x40 MLOAD PUSH4 0xEC442F05 PUSH1 0xE0 SHL DUP2 MSTORE PUSH0 PUSH1 0x4 DUP3 ADD MSTORE PUSH1 0x24 ADD PUSH2 0xB3 JUMP JUMPDEST PUSH2 0x17F PUSH0 DUP4 DUP4 PUSH2 0x183 JUMP JUMPDEST POP POP JUMP JUMPDEST PUSH1 0x1 PUSH1 0x1 PUSH1 0xA0 SHL SUB DUP4 AND PUSH2 0x1AD JUMPI DUP1 PUSH1 0x2 PUSH0 DUP3 DUP3 SLOAD PUSH2 0x1A2 SWAP2 SWAP1 PUSH2 0x45E JUMP JUMPDEST SWAP1 SWAP2 SSTORE POP PUSH2 0x21D SWAP1 POP JUMP JUMPDEST PUSH1 0x1 PUSH1 0x1 PUSH1 0xA0 SHL SUB DUP4 AND PUSH0 SWAP1 DUP2 MSTORE PUSH1 0x20 DUP2 SWAP1 MSTORE PUSH1 0x40 SWAP1 KECCAK256 SLOAD DUP2 DUP2 LT ISZERO PUSH2 0x1FF JUMPI PUSH1 0x40 MLOAD PUSH4 0x391434E3 PUSH1 0xE2 SHL DUP2 MSTORE PUSH1 0x1 PUSH1 0x1 PUSH1 0xA0 SHL SUB DUP6 AND PUSH1 0x4 DUP3 ADD MSTORE PUSH1 0x24 DUP2 ADD DUP3 SWAP1 MSTORE PUSH1 0x44 DUP2 ADD DUP4 SWAP1 MSTORE PUSH1 0x64 ADD PUSH2 0xB3 JUMP JUMPDEST PUSH1 0x1 PUSH1 0x1 PUSH1 0xA0 SHL SUB DUP5 AND PUSH0 SWAP1 DUP2 MSTORE PUSH1 0x20 DUP2 SWAP1 MSTORE PUSH1 0x40 SWAP1 KECCAK256 SWAP1 DUP3 SWAP1 SUB SWAP1 SSTORE JUMPDEST PUSH1 0x1 PUSH1 0x1 PUSH1 0xA0 SHL SUB DUP3 AND PUSH2 0x239 JUMPI PUSH1 0x2 DUP1 SLOAD DUP3 SWAP1 SUB SWAP1 SSTORE PUSH2 0x257 JUMP JUMPDEST PUSH1 0x1 PUSH1 0x1 PUSH1 0xA0 SHL SUB DUP3 AND PUSH0 SWAP1 DUP2 MSTORE PUSH1 0x20 DUP2 SWAP1 MSTORE PUSH1 0x40 SWAP1 KECCAK256 DUP1 SLOAD DUP3 ADD SWAP1 SSTORE JUMPDEST DUP2 PUSH1 0x1 PUSH1 0x1 PUSH1 0xA0 SHL SUB AND DUP4 PUSH1 0x1 PUSH1 0x1 PUSH1 0xA0 SHL SUB AND PUSH32 0xDDF252AD1BE2C89B69C2B068FC378DAA952BA7F163C4A11628F55A4DF523B3EF DUP4 PUSH1 0x40 MLOAD PUSH2 0x29C SWAP2 DUP2 MSTORE PUSH1 0x20 ADD SWAP1 JUMP JUMPDEST PUSH1 0x40 MLOAD DUP1 SWAP2 SUB SWAP1 LOG3 POP POP POP JUMP JUMPDEST PUSH0 DUP1 PUSH0 DUP1 PUSH0 DUP1 PUSH0 PUSH1 0xE0 DUP9 DUP11 SUB SLT ISZERO PUSH2 0x2BF JUMPI PUSH0 DUP1 REVERT JUMPDEST DUP8 MLOAD PUSH1 0x1 PUSH1 0x1 PUSH1 0xA0 SHL SUB DUP2 AND DUP2 EQ PUSH2 0x2D5 JUMPI PUSH0 DUP1 REVERT JUMPDEST PUSH1 0x20 DUP10 ADD MLOAD PUSH1 0x40 DUP11 ADD MLOAD PUSH1 0x60 DUP12 ADD MLOAD PUSH1 0x80 DUP13 ADD MLOAD PUSH1 0xA0 DUP14 ADD MLOAD PUSH1 0xC0 SWAP1 SWAP14 ADD MLOAD SWAP5 SWAP15 SWAP4 SWAP14 POP SWAP2 SWAP12 SWAP1 SWAP11 POP SWAP1 SWAP9 POP SWAP7 POP SWAP1 SWAP5 POP SWAP3 POP POP POP JUMP JUMPDEST PUSH4 0x4E487B71 PUSH1 0xE0 SHL PUSH0 MSTORE PUSH1 0x41 PUSH1 0x4 MSTORE PUSH1 0x24 PUSH0 REVERT JUMPDEST PUSH1 0x1 DUP2 DUP2 SHR SWAP1 DUP3 AND DUP1 PUSH2 0x334 JUMPI PUSH1 0x7F DUP3 AND SWAP2 POP JUMPDEST PUSH1 0x20 DUP3 LT DUP2 SUB PUSH2 0x352 JUMPI PUSH4 0x4E487B71 PUSH1 0xE0 SHL PUSH0 MSTORE PUSH1 0x22 PUSH1 0x4 MSTORE PUSH1 0x24 PUSH0 REVERT JUMPDEST POP SWAP2 SWAP1 POP JUMP JUMPDEST PUSH1 0x1F DUP3 GT ISZERO PUSH2 0x39F JUMPI DUP1 PUSH0 MSTORE PUSH1 0x20 PUSH0 KECCAK256 PUSH1 0x1F DUP5 ADD PUSH1 0x5 SHR DUP2 ADD PUSH1 0x20 DUP6 LT ISZERO PUSH2 0x37D JUMPI POP DUP1 JUMPDEST PUSH1 0x1F DUP5 ADD PUSH1 0x5 SHR DUP3 ADD SWAP2 POP JUMPDEST DUP2 DUP2 LT ISZERO PUSH2 0x39C JUMPI PUSH0 DUP2 SSTORE PUSH1 0x1 ADD PUSH2 0x389 JUMP JUMPDEST POP POP JUMPDEST POP POP POP JUMP JUMPDEST DUP2 MLOAD PUSH1 0x1 PUSH1 0x1 PUSH1 0x40 SHL SUB DUP2 GT ISZERO PUSH2 0x3BD JUMPI PUSH2 0x3BD PUSH2 0x30C JUMP JUMPDEST PUSH2 0x3D1 DUP2 PUSH2 0x3CB DUP5 SLOAD PUSH2 0x320 JUMP JUMPDEST DUP5 PUSH2 0x358 JUMP JUMPDEST PUSH1 0x20 PUSH1 0x1F DUP3 GT PUSH1 0x1 DUP2 EQ PUSH2 0x403 JUMPI PUSH0 DUP4 ISZERO PUSH2 0x3EC JUMPI POP DUP5 DUP3 ADD MLOAD JUMPDEST PUSH0 NOT PUSH1 0x3 DUP6 SWAP1 SHL SHR NOT AND PUSH1 0x1 DUP5 SWAP1 SHL OR DUP5 SSTORE PUSH2 0x39C JUMP JUMPDEST PUSH0 DUP5 DUP2 MSTORE PUSH1 0x20 DUP2 KECCAK256 PUSH1 0x1F NOT DUP6 AND SWAP2 JUMPDEST DUP3 DUP2 LT ISZERO PUSH2 0x432 JUMPI DUP8 DUP6 ADD MLOAD DUP3 SSTORE PUSH1 0x20 SWAP5 DUP6 ADD SWAP5 PUSH1 0x1 SWAP1 SWAP3 ADD SWAP2 ADD PUSH2 0x412 JUMP JUMPDEST POP DUP5 DUP3 LT ISZERO PUSH2 0x44F JUMPI DUP7 DUP5 ADD MLOAD PUSH0 NOT PUSH1 0x3 DUP8 SWAP1 SHL PUSH1 0xF8 AND SHR NOT AND DUP2 SSTORE JUMPDEST POP POP POP POP PUSH1 0x1 SWAP1 DUP2 SHL ADD SWAP1 SSTORE POP JUMP JUMPDEST DUP1 DUP3 ADD DUP1 DUP3 GT ISZERO PUSH2 0x47D JUMPI PUSH4 0x4E487B71 PUSH1 0xE0 SHL PUSH0 MSTORE PUSH1 0x11 PUSH1 0x4 MSTORE PUSH1 0x24 PUSH0 REVERT JUMPDEST SWAP3 SWAP2 POP POP JUMP JUMPDEST PUSH2 0x18B2 DUP1 PUSH2 0x490 PUSH0 CODECOPY PUSH0 RETURN INVALID PUSH1 0x80 PUSH1 0x40 MSTORE PUSH1 0x4 CALLDATASIZE LT PUSH2 0x254 JUMPI PUSH0 CALLDATALOAD PUSH1 0xE0 SHR DUP1 PUSH4 0x8DA5CB5B GT PUSH2 0x13F JUMPI DUP1 PUSH4 0xC6A1F80A GT PUSH2 0xB3 JUMPI DUP1 PUSH4 0xD348B409 GT PUSH2 0x78 JUMPI DUP1 PUSH4 0xD348B409 EQ PUSH2 0x692 JUMPI DUP1 PUSH4 0xDC07C8A3 EQ PUSH2 0x6A6 JUMPI DUP1 PUSH4 0xDD62ED3E EQ PUSH2 0x6BB JUMPI DUP1 PUSH4 0xEBBEF6F6 EQ PUSH2 0x6FF JUMPI DUP1 PUSH4 0xF2FDE38B EQ PUSH2 0x71F JUMPI DUP1 PUSH4 0xF9931855 EQ PUSH2 0x73E JUMPI PUSH0 DUP1 REVERT JUMPDEST DUP1 PUSH4 0xC6A1F80A EQ PUSH2 0x616 JUMPI DUP1 PUSH4 0xCCE29EA7 EQ PUSH2 0x62B JUMPI DUP1 PUSH4 0xCEC297A0 EQ PUSH2 0x640 JUMPI DUP1 PUSH4 0xCF5F971B EQ PUSH2 0x66B JUMPI DUP1 PUSH4 0xD0FEBE4C EQ PUSH2 0x68A JUMPI PUSH0 DUP1 REVERT JUMPDEST DUP1 PUSH4 0x9CA423B3 GT PUSH2 0x104 JUMPI DUP1 PUSH4 0x9CA423B3 EQ PUSH2 0x567 JUMPI DUP1 PUSH4 0xA09C4CF4 EQ PUSH2 0x59B JUMPI DUP1 PUSH4 0xA5CE413B EQ PUSH2 0x5BA JUMPI DUP1 PUSH4 0xA8297D46 EQ PUSH2 0x5CE JUMPI DUP1 PUSH4 0xA9059CBB EQ PUSH2 0x5E3 JUMPI DUP1 PUSH4 0xB290D570 EQ PUSH2 0x602 JUMPI PUSH0 DUP1 REVERT JUMPDEST DUP1 PUSH4 0x8DA5CB5B EQ PUSH2 0x4B5 JUMPI DUP1 PUSH4 0x8F0794FE EQ PUSH2 0x4E6 JUMPI DUP1 PUSH4 0x95D89B41 EQ PUSH2 0x511 JUMPI DUP1 PUSH4 0x967ED8F3 EQ PUSH2 0x525 JUMPI DUP1 PUSH4 0x9B19251A EQ PUSH2 0x539 JUMPI PUSH0 DUP1 REVERT JUMPDEST DUP1 PUSH4 0x27E235E3 GT PUSH2 0x1D6 JUMPI DUP1 PUSH4 0x518AB2A8 GT PUSH2 0x19B JUMPI DUP1 PUSH4 0x518AB2A8 EQ PUSH2 0x404 JUMPI DUP1 PUSH4 0x639A5C87 EQ PUSH2 0x419 JUMPI DUP1 PUSH4 0x70A08231 EQ PUSH2 0x43A JUMPI DUP1 PUSH4 0x715018A6 EQ PUSH2 0x46E JUMPI DUP1 PUSH4 0x7547C7A3 EQ PUSH2 0x482 JUMPI DUP1 PUSH4 0x7C613B2F EQ PUSH2 0x4A1 JUMPI PUSH0 DUP1 REVERT JUMPDEST DUP1 PUSH4 0x27E235E3 EQ PUSH2 0x375 JUMPI DUP1 PUSH4 0x30F72CD4 EQ PUSH2 0x3A0 JUMPI DUP1 PUSH4 0x313CE567 EQ PUSH2 0x3C0 JUMPI DUP1 PUSH4 0x4405DF4A EQ PUSH2 0x3DB JUMPI DUP1 PUSH4 0x4F3FC2DF EQ PUSH2 0x3EF JUMPI PUSH0 DUP1 REVERT JUMPDEST DUP1 PUSH4 0x12065FE0 GT PUSH2 0x21C JUMPI DUP1 PUSH4 0x12065FE0 EQ PUSH2 0x2F9 JUMPI DUP1 PUSH4 0x18160DDD EQ PUSH2 0x319 JUMPI DUP1 PUSH4 0x1D0806AE EQ PUSH2 0x32D JUMPI DUP1 PUSH4 0x1D3824EA EQ PUSH2 0x342 JUMPI DUP1 PUSH4 0x23B872DD EQ PUSH2 0x356 JUMPI PUSH0 DUP1 REVERT JUMPDEST DUP1 PUSH4 0x3E293A3 EQ PUSH2 0x258 JUMPI DUP1 PUSH4 0x6D65AF3 EQ PUSH2 0x280 JUMPI DUP1 PUSH4 0x6FDDE03 EQ PUSH2 0x295 JUMPI DUP1 PUSH4 0x95EA7B3 EQ PUSH2 0x2B6 JUMPI DUP1 PUSH4 0xFB4CE58 EQ PUSH2 0x2E5 JUMPI JUMPDEST PUSH0 DUP1 REVERT JUMPDEST CALLVALUE DUP1 ISZERO PUSH2 0x263 JUMPI PUSH0 DUP1 REVERT JUMPDEST POP PUSH2 0x26D PUSH1 0x9 SLOAD DUP2 JUMP JUMPDEST PUSH1 0x40 MLOAD SWAP1 DUP2 MSTORE PUSH1 0x20 ADD JUMPDEST PUSH1 0x40 MLOAD DUP1 SWAP2 SUB SWAP1 RETURN JUMPDEST CALLVALUE DUP1 ISZERO PUSH2 0x28B JUMPI PUSH0 DUP1 REVERT JUMPDEST POP PUSH2 0x26D PUSH1 0x6 SLOAD DUP2 JUMP JUMPDEST CALLVALUE DUP1 ISZERO PUSH2 0x2A0 JUMPI PUSH0 DUP1 REVERT JUMPDEST POP PUSH2 0x2A9 PUSH2 0x769 JUMP JUMPDEST PUSH1 0x40 MLOAD PUSH2 0x277 SWAP2 SWAP1 PUSH2 0x1546 JUMP JUMPDEST CALLVALUE DUP1 ISZERO PUSH2 0x2C1 JUMPI PUSH0 DUP1 REVERT JUMPDEST POP PUSH2 0x2D5 PUSH2 0x2D0 CALLDATASIZE PUSH1 0x4 PUSH2 0x1596 JUMP JUMPDEST PUSH2 0x7F9 JUMP JUMPDEST PUSH1 0x40 MLOAD SWAP1 ISZERO ISZERO DUP2 MSTORE PUSH1 0x20 ADD PUSH2 0x277 JUMP JUMPDEST CALLVALUE DUP1 ISZERO PUSH2 0x2F0 JUMPI PUSH0 DUP1 REVERT JUMPDEST POP PUSH2 0x26D PUSH2 0x812 JUMP JUMPDEST CALLVALUE DUP1 ISZERO PUSH2 0x304 JUMPI PUSH0 DUP1 REVERT JUMPDEST POP CALLER PUSH0 SWAP1 DUP2 MSTORE PUSH1 0x20 DUP2 SWAP1 MSTORE PUSH1 0x40 SWAP1 KECCAK256 SLOAD PUSH2 0x26D JUMP JUMPDEST CALLVALUE DUP1 ISZERO PUSH2 0x324 JUMPI PUSH0 DUP1 REVERT JUMPDEST POP PUSH1 0x2 SLOAD PUSH2 0x26D JUMP JUMPDEST CALLVALUE DUP1 ISZERO PUSH2 0x338 JUMPI PUSH0 DUP1 REVERT JUMPDEST POP PUSH2 0x26D PUSH1 0x8 SLOAD DUP2 JUMP JUMPDEST CALLVALUE DUP1 ISZERO PUSH2 0x34D JUMPI PUSH0 DUP1 REVERT JUMPDEST POP PUSH2 0x26D PUSH2 0x849 JUMP JUMPDEST CALLVALUE DUP1 ISZERO PUSH2 0x361 JUMPI PUSH0 DUP1 REVERT JUMPDEST POP PUSH2 0x2D5 PUSH2 0x370 CALLDATASIZE PUSH1 0x4 PUSH2 0x15BE JUMP JUMPDEST PUSH2 0x8AA JUMP JUMPDEST CALLVALUE DUP1 ISZERO PUSH2 0x380 JUMPI PUSH0 DUP1 REVERT JUMPDEST POP PUSH2 0x26D PUSH2 0x38F CALLDATASIZE PUSH1 0x4 PUSH2 0x15F8 JUMP JUMPDEST PUSH1 0x14 PUSH1 0x20 MSTORE PUSH0 SWAP1 DUP2 MSTORE PUSH1 0x40 SWAP1 KECCAK256 SLOAD DUP2 JUMP JUMPDEST CALLVALUE DUP1 ISZERO PUSH2 0x3AB JUMPI PUSH0 DUP1 REVERT JUMPDEST POP PUSH1 0x5 SLOAD PUSH2 0x2D5 SWAP1 PUSH1 0x1 PUSH1 0xA0 SHL SWAP1 DIV PUSH1 0xFF AND DUP2 JUMP JUMPDEST CALLVALUE DUP1 ISZERO PUSH2 0x3CB JUMPI PUSH0 DUP1 REVERT JUMPDEST POP PUSH1 0x40 MLOAD PUSH1 0x12 DUP2 MSTORE PUSH1 0x20 ADD PUSH2 0x277 JUMP JUMPDEST CALLVALUE DUP1 ISZERO PUSH2 0x3E6 JUMPI PUSH0 DUP1 REVERT JUMPDEST POP PUSH2 0x26D PUSH2 0x8CD JUMP JUMPDEST CALLVALUE DUP1 ISZERO PUSH2 0x3FA JUMPI PUSH0 DUP1 REVERT JUMPDEST POP PUSH2 0x26D PUSH1 0xC SLOAD DUP2 JUMP JUMPDEST CALLVALUE DUP1 ISZERO PUSH2 0x40F JUMPI PUSH0 DUP1 REVERT JUMPDEST POP PUSH2 0x26D PUSH1 0xA SLOAD DUP2 JUMP JUMPDEST CALLVALUE DUP1 ISZERO PUSH2 0x424 JUMPI PUSH0 DUP1 REVERT JUMPDEST POP PUSH2 0x438 PUSH2 0x433 CALLDATASIZE PUSH1 0x4 PUSH2 0x1611 JUMP JUMPDEST PUSH2 0x90D JUMP JUMPDEST STOP JUMPDEST CALLVALUE DUP1 ISZERO PUSH2 0x445 JUMPI PUSH0 DUP1 REVERT JUMPDEST POP PUSH2 0x26D PUSH2 0x454 CALLDATASIZE PUSH1 0x4 PUSH2 0x15F8 JUMP JUMPDEST PUSH1 0x1 PUSH1 0x1 PUSH1 0xA0 SHL SUB AND PUSH0 SWAP1 DUP2 MSTORE PUSH1 0x20 DUP2 SWAP1 MSTORE PUSH1 0x40 SWAP1 KECCAK256 SLOAD SWAP1 JUMP JUMPDEST CALLVALUE DUP1 ISZERO PUSH2 0x479 JUMPI PUSH0 DUP1 REVERT JUMPDEST POP PUSH2 0x438 PUSH2 0x975 JUMP JUMPDEST CALLVALUE DUP1 ISZERO PUSH2 0x48D JUMPI PUSH0 DUP1 REVERT JUMPDEST POP PUSH2 0x438 PUSH2 0x49C CALLDATASIZE PUSH1 0x4 PUSH2 0x163A JUMP JUMPDEST PUSH2 0x988 JUMP JUMPDEST CALLVALUE DUP1 ISZERO PUSH2 0x4AC JUMPI PUSH0 DUP1 REVERT JUMPDEST POP PUSH2 0x438 PUSH2 0xAB3 JUMP JUMPDEST CALLVALUE DUP1 ISZERO PUSH2 0x4C0 JUMPI PUSH0 DUP1 REVERT JUMPDEST POP PUSH1 0x5 SLOAD PUSH1 0x1 PUSH1 0x1 PUSH1 0xA0 SHL SUB AND JUMPDEST PUSH1 0x40 MLOAD PUSH1 0x1 PUSH1 0x1 PUSH1 0xA0 SHL SUB SWAP1 SWAP2 AND DUP2 MSTORE PUSH1 0x20 ADD PUSH2 0x277 JUMP JUMPDEST CALLVALUE DUP1 ISZERO PUSH2 0x4F1 JUMPI PUSH0 DUP1 REVERT JUMPDEST POP PUSH2 0x26D PUSH2 0x500 CALLDATASIZE PUSH1 0x4 PUSH2 0x15F8 JUMP JUMPDEST PUSH1 0x10 PUSH1 0x20 MSTORE PUSH0 SWAP1 DUP2 MSTORE PUSH1 0x40 SWAP1 KECCAK256 SLOAD DUP2 JUMP JUMPDEST CALLVALUE DUP1 ISZERO PUSH2 0x51C JUMPI PUSH0 DUP1 REVERT JUMPDEST POP PUSH2 0x2A9 PUSH2 0xBAF JUMP JUMPDEST CALLVALUE DUP1 ISZERO PUSH2 0x530 JUMPI PUSH0 DUP1 REVERT JUMPDEST POP PUSH2 0x26D PUSH2 0xBBE JUMP JUMPDEST CALLVALUE DUP1 ISZERO PUSH2 0x544 JUMPI PUSH0 DUP1 REVERT JUMPDEST POP PUSH2 0x2D5 PUSH2 0x553 CALLDATASIZE PUSH1 0x4 PUSH2 0x15F8 JUMP JUMPDEST PUSH1 0x11 PUSH1 0x20 MSTORE PUSH0 SWAP1 DUP2 MSTORE PUSH1 0x40 SWAP1 KECCAK256 SLOAD PUSH1 0xFF AND DUP2 JUMP JUMPDEST CALLVALUE DUP1 ISZERO PUSH2 0x572 JUMPI PUSH0 DUP1 REVERT JUMPDEST POP PUSH2 0x4CE PUSH2 0x581 CALLDATASIZE PUSH1 0x4 PUSH2 0x15F8 JUMP JUMPDEST PUSH1 0x12 PUSH1 0x20 MSTORE PUSH0 SWAP1 DUP2 MSTORE PUSH1 0x40 SWAP1 KECCAK256 SLOAD PUSH1 0x1 PUSH1 0x1 PUSH1 0xA0 SHL SUB AND DUP2 JUMP JUMPDEST CALLVALUE DUP1 ISZERO PUSH2 0x5A6 JUMPI PUSH0 DUP1 REVERT JUMPDEST POP PUSH2 0x438 PUSH2 0x5B5 CALLDATASIZE PUSH1 0x4 PUSH2 0x15F8 JUMP JUMPDEST PUSH2 0xC25 JUMP JUMPDEST CALLVALUE DUP1 ISZERO PUSH2 0x5C5 JUMPI PUSH0 DUP1 REVERT JUMPDEST POP PUSH2 0x438 PUSH2 0xD9C JUMP JUMPDEST CALLVALUE DUP1 ISZERO PUSH2 0x5D9 JUMPI PUSH0 DUP1 REVERT JUMPDEST POP PUSH2 0x26D PUSH1 0xE SLOAD DUP2 JUMP JUMPDEST CALLVALUE DUP1 ISZERO PUSH2 0x5EE JUMPI PUSH0 DUP1 REVERT JUMPDEST POP PUSH2 0x2D5 PUSH2 0x5FD CALLDATASIZE PUSH1 0x4 PUSH2 0x1596 JUMP JUMPDEST PUSH2 0xED3 JUMP JUMPDEST CALLVALUE DUP1 ISZERO PUSH2 0x60D JUMPI PUSH0 DUP1 REVERT JUMPDEST POP PUSH2 0x26D PUSH2 0xEE0 JUMP JUMPDEST CALLVALUE DUP1 ISZERO PUSH2 0x621 JUMPI PUSH0 DUP1 REVERT JUMPDEST POP PUSH2 0x26D PUSH1 0xD SLOAD DUP2 JUMP JUMPDEST CALLVALUE DUP1 ISZERO PUSH2 0x636 JUMPI PUSH0 DUP1 REVERT JUMPDEST POP PUSH2 0x26D PUSH1 0x7 SLOAD DUP2 JUMP JUMPDEST CALLVALUE DUP1 ISZERO PUSH2 0x64B JUMPI PUSH0 DUP1 REVERT JUMPDEST POP PUSH2 0x26D PUSH2 0x65A CALLDATASIZE PUSH1 0x4 PUSH2 0x15F8 JUMP JUMPDEST PUSH1 0x13 PUSH1 0x20 MSTORE PUSH0 SWAP1 DUP2 MSTORE PUSH1 0x40 SWAP1 KECCAK256 SLOAD DUP2 JUMP JUMPDEST CALLVALUE DUP1 ISZERO PUSH2 0x676 JUMPI PUSH0 DUP1 REVERT JUMPDEST POP PUSH2 0x26D PUSH2 0x685 CALLDATASIZE PUSH1 0x4 PUSH2 0x1651 JUMP JUMPDEST PUSH2 0xEFD JUMP JUMPDEST PUSH2 0x438 PUSH2 0xF58 JUMP JUMPDEST CALLVALUE DUP1 ISZERO PUSH2 0x69D JUMPI PUSH0 DUP1 REVERT JUMPDEST POP PUSH2 0x26D PUSH2 0x10EA JUMP JUMPDEST CALLVALUE DUP1 ISZERO PUSH2 0x6B1 JUMPI PUSH0 DUP1 REVERT JUMPDEST POP PUSH2 0x26D PUSH1 0xB SLOAD DUP2 JUMP JUMPDEST CALLVALUE DUP1 ISZERO PUSH2 0x6C6 JUMPI PUSH0 DUP1 REVERT JUMPDEST POP PUSH2 0x26D PUSH2 0x6D5 CALLDATASIZE PUSH1 0x4 PUSH2 0x1671 JUMP JUMPDEST PUSH1 0x1 PUSH1 0x1 PUSH1 0xA0 SHL SUB SWAP2 DUP3 AND PUSH0 SWAP1 DUP2 MSTORE PUSH1 0x1 PUSH1 0x20 SWAP1 DUP2 MSTORE PUSH1 0x40 DUP1 DUP4 KECCAK256 SWAP4 SWAP1 SWAP5 AND DUP3 MSTORE SWAP2 SWAP1 SWAP2 MSTORE KECCAK256 SLOAD SWAP1 JUMP JUMPDEST CALLVALUE DUP1 ISZERO PUSH2 0x70A JUMPI PUSH0 DUP1 REVERT JUMPDEST POP CALLER PUSH0 SWAP1 DUP2 MSTORE PUSH1 0xF PUSH1 0x20 MSTORE PUSH1 0x40 SWAP1 KECCAK256 SLOAD PUSH2 0x26D JUMP JUMPDEST CALLVALUE DUP1 ISZERO PUSH2 0x72A JUMPI PUSH0 DUP1 REVERT JUMPDEST POP PUSH2 0x438 PUSH2 0x739 CALLDATASIZE PUSH1 0x4 PUSH2 0x15F8 JUMP JUMPDEST PUSH2 0x1170 JUMP JUMPDEST CALLVALUE DUP1 ISZERO PUSH2 0x749 JUMPI PUSH0 DUP1 REVERT JUMPDEST POP PUSH2 0x26D PUSH2 0x758 CALLDATASIZE PUSH1 0x4 PUSH2 0x15F8 JUMP JUMPDEST PUSH1 0xF PUSH1 0x20 MSTORE PUSH0 SWAP1 DUP2 MSTORE PUSH1 0x40 SWAP1 KECCAK256 SLOAD DUP2 JUMP JUMPDEST PUSH1 0x60 PUSH1 0x3 DUP1 SLOAD PUSH2 0x778 SWAP1 PUSH2 0x16A2 JUMP JUMPDEST DUP1 PUSH1 0x1F ADD PUSH1 0x20 DUP1 SWAP2 DIV MUL PUSH1 0x20 ADD PUSH1 0x40 MLOAD SWAP1 DUP2 ADD PUSH1 0x40 MSTORE DUP1 SWAP3 SWAP2 SWAP1 DUP2 DUP2 MSTORE PUSH1 0x20 ADD DUP3 DUP1 SLOAD PUSH2 0x7A4 SWAP1 PUSH2 0x16A2 JUMP JUMPDEST DUP1 ISZERO PUSH2 0x7EF JUMPI DUP1 PUSH1 0x1F LT PUSH2 0x7C6 JUMPI PUSH2 0x100 DUP1 DUP4 SLOAD DIV MUL DUP4 MSTORE SWAP2 PUSH1 0x20 ADD SWAP2 PUSH2 0x7EF JUMP JUMPDEST DUP3 ADD SWAP2 SWAP1 PUSH0 MSTORE PUSH1 0x20 PUSH0 KECCAK256 SWAP1 JUMPDEST DUP2 SLOAD DUP2 MSTORE SWAP1 PUSH1 0x1 ADD SWAP1 PUSH1 0x20 ADD DUP1 DUP4 GT PUSH2 0x7D2 JUMPI DUP3 SWAP1 SUB PUSH1 0x1F AND DUP3 ADD SWAP2 JUMPDEST POP POP POP POP POP SWAP1 POP SWAP1 JUMP JUMPDEST PUSH0 CALLER PUSH2 0x806 DUP2 DUP6 DUP6 PUSH2 0x11AD JUMP JUMPDEST PUSH1 0x1 SWAP2 POP POP JUMPDEST SWAP3 SWAP2 POP POP JUMP JUMPDEST PUSH0 PUSH2 0x81F PUSH1 0x12 PUSH1 0xA PUSH2 0x17D1 JUMP JUMPDEST CALLER PUSH0 SWAP1 DUP2 MSTORE PUSH1 0x13 PUSH1 0x20 MSTORE PUSH1 0x40 SWAP1 KECCAK256 SLOAD PUSH2 0x83A SWAP1 PUSH2 0x1F4 PUSH2 0x17DF JUMP JUMPDEST PUSH2 0x844 SWAP2 SWAP1 PUSH2 0x17DF JUMP JUMPDEST SWAP1 POP SWAP1 JUMP JUMPDEST PUSH0 PUSH1 0x6 SLOAD TIMESTAMP LT ISZERO PUSH2 0x875 JUMPI PUSH1 0x40 MLOAD PUSH3 0x461BCD PUSH1 0xE5 SHL DUP2 MSTORE PUSH1 0x4 ADD PUSH2 0x86C SWAP1 PUSH2 0x17F6 JUMP JUMPDEST PUSH1 0x40 MLOAD DUP1 SWAP2 SUB SWAP1 REVERT JUMPDEST PUSH0 PUSH1 0xB SLOAD PUSH1 0x6 SLOAD PUSH1 0x7 SLOAD PUSH2 0x889 SWAP2 SWAP1 PUSH2 0x1837 JUMP JUMPDEST PUSH1 0x6 SLOAD PUSH2 0x896 SWAP1 TIMESTAMP PUSH2 0x1837 JUMP JUMPDEST PUSH2 0x8A0 SWAP2 SWAP1 PUSH2 0x184A JUMP JUMPDEST PUSH2 0x80C SWAP2 SWAP1 PUSH2 0x184A JUMP JUMPDEST PUSH0 CALLER PUSH2 0x8B7 DUP6 DUP3 DUP6 PUSH2 0x11BF JUMP JUMPDEST PUSH2 0x8C2 DUP6 DUP6 DUP6 PUSH2 0x123B JUMP JUMPDEST POP PUSH1 0x1 SWAP5 SWAP4 POP POP POP POP JUMP JUMPDEST PUSH0 DUP1 PUSH2 0x8DB PUSH1 0x6 SLOAD TIMESTAMP PUSH2 0xEFD JUMP JUMPDEST SWAP1 POP PUSH0 PUSH1 0xB SLOAD DUP3 PUSH1 0x8 SLOAD PUSH1 0x9 SLOAD PUSH2 0x8F2 SWAP2 SWAP1 PUSH2 0x1837 JUMP JUMPDEST PUSH2 0x8FC SWAP2 SWAP1 PUSH2 0x17DF JUMP JUMPDEST PUSH2 0x906 SWAP2 SWAP1 PUSH2 0x184A JUMP JUMPDEST SWAP4 SWAP3 POP POP POP JUMP JUMPDEST PUSH2 0x915 PUSH2 0x1298 JUMP JUMPDEST PUSH1 0x6 DUP4 SWAP1 SSTORE PUSH1 0x7 DUP3 SWAP1 SSTORE PUSH1 0xB DUP2 SWAP1 SSTORE PUSH1 0x5 DUP1 SLOAD PUSH1 0xFF PUSH1 0xA0 SHL NOT AND PUSH1 0x1 PUSH1 0xA0 SHL OR SWAP1 SSTORE PUSH1 0x40 DUP1 MLOAD DUP5 DUP2 MSTORE PUSH1 0x20 DUP2 ADD DUP5 SWAP1 MSTORE PUSH32 0x3844853BE672B18D859394AA37E05615B95B78E66B4DC37DCA98D1DB1B05EA7D SWAP2 ADD PUSH1 0x40 MLOAD DUP1 SWAP2 SUB SWAP1 LOG1 POP POP POP JUMP JUMPDEST PUSH2 0x97D PUSH2 0x1298 JUMP JUMPDEST PUSH2 0x986 PUSH0 PUSH2 0x12C5 JUMP JUMPDEST JUMP JUMPDEST PUSH0 DUP2 GT PUSH2 0x9E1 JUMPI PUSH1 0x40 MLOAD PUSH3 0x461BCD PUSH1 0xE5 SHL DUP2 MSTORE PUSH1 0x20 PUSH1 0x4 DUP3 ADD MSTORE PUSH1 0x21 PUSH1 0x24 DUP3 ADD MSTORE PUSH32 0x416D6F756E74206D7573742062652067726561746572207468616E207A65726F PUSH1 0x44 DUP3 ADD MSTORE PUSH1 0x17 PUSH1 0xF9 SHL PUSH1 0x64 DUP3 ADD MSTORE PUSH1 0x84 ADD PUSH2 0x86C JUMP JUMPDEST CALLER PUSH0 SWAP1 DUP2 MSTORE PUSH1 0x20 DUP2 SWAP1 MSTORE PUSH1 0x40 SWAP1 KECCAK256 SLOAD DUP2 GT ISZERO PUSH2 0xA37 JUMPI PUSH1 0x40 MLOAD PUSH3 0x461BCD PUSH1 0xE5 SHL DUP2 MSTORE PUSH1 0x20 PUSH1 0x4 DUP3 ADD MSTORE PUSH1 0x15 PUSH1 0x24 DUP3 ADD MSTORE PUSH21 0x24B739BAB33334B1B4B2B73A103130B630B731B297 PUSH1 0x59 SHL PUSH1 0x44 DUP3 ADD MSTORE PUSH1 0x64 ADD PUSH2 0x86C JUMP JUMPDEST PUSH2 0xA42 CALLER ADDRESS DUP4 PUSH2 0x123B JUMP JUMPDEST CALLER PUSH0 SWAP1 DUP2 MSTORE PUSH1 0xF PUSH1 0x20 MSTORE PUSH1 0x40 DUP2 KECCAK256 DUP1 SLOAD DUP4 SWAP3 SWAP1 PUSH2 0xA60 SWAP1 DUP5 SWAP1 PUSH2 0x1869 JUMP JUMPDEST SWAP1 SWAP2 SSTORE POP POP CALLER PUSH0 DUP2 DUP2 MSTORE PUSH1 0x10 PUSH1 0x20 MSTORE PUSH1 0x40 SWAP1 DUP2 SWAP1 KECCAK256 TIMESTAMP SWAP1 SSTORE MLOAD PUSH32 0xB539CA1E5C8D398DDF1C41C30166F33404941683BE4683319B57669A93DAD4EF SWAP1 PUSH2 0xAA8 SWAP1 DUP5 DUP2 MSTORE PUSH1 0x20 ADD SWAP1 JUMP JUMPDEST PUSH1 0x40 MLOAD DUP1 SWAP2 SUB SWAP1 LOG2 POP JUMP JUMPDEST PUSH1 0x5 SLOAD PUSH1 0x1 PUSH1 0xA0 SHL SWAP1 DIV PUSH1 0xFF AND ISZERO ISZERO PUSH1 0x1 EQ PUSH2 0xB11 JUMPI PUSH1 0x40 MLOAD PUSH3 0x461BCD PUSH1 0xE5 SHL DUP2 MSTORE PUSH1 0x20 PUSH1 0x4 DUP3 ADD MSTORE PUSH1 0x17 PUSH1 0x24 DUP3 ADD MSTORE PUSH32 0x50726573616C65206E6F74207374617274656420796574000000000000000000 PUSH1 0x44 DUP3 ADD MSTORE PUSH1 0x64 ADD PUSH2 0x86C JUMP JUMPDEST PUSH0 PUSH2 0xB1A PUSH2 0x812 JUMP JUMPDEST SWAP1 POP PUSH0 DUP2 GT PUSH2 0xB62 JUMPI PUSH1 0x40 MLOAD PUSH3 0x461BCD PUSH1 0xE5 SHL DUP2 MSTORE PUSH1 0x20 PUSH1 0x4 DUP3 ADD MSTORE PUSH1 0x14 PUSH1 0x24 DUP3 ADD MSTORE PUSH20 0x4E6F207265776172647320617661696C61626C65 PUSH1 0x60 SHL PUSH1 0x44 DUP3 ADD MSTORE PUSH1 0x64 ADD PUSH2 0x86C JUMP JUMPDEST PUSH2 0xB6C CALLER DUP3 PUSH2 0x1316 JUMP JUMPDEST CALLER PUSH0 DUP2 DUP2 MSTORE PUSH1 0x13 PUSH1 0x20 MSTORE PUSH1 0x40 DUP1 DUP3 KECCAK256 SWAP2 SWAP1 SWAP2 SSTORE MLOAD PUSH32 0xF0BC0A70FE19EF2D8DC1E1948B338A1184184FB1EA3AC836F24065828816D68D SWAP1 PUSH2 0xAA8 SWAP1 DUP5 DUP2 MSTORE PUSH1 0x20 ADD SWAP1 JUMP JUMPDEST PUSH1 0x60 PUSH1 0x4 DUP1 SLOAD PUSH2 0x778 SWAP1 PUSH2 0x16A2 JUMP JUMPDEST PUSH1 0xE SLOAD CALLER PUSH0 SWAP1 DUP2 MSTORE PUSH1 0x10 PUSH1 0x20 MSTORE PUSH1 0x40 DUP2 KECCAK256 SLOAD SWAP1 SWAP2 DUP3 SWAP2 PUSH2 0xBDE SWAP1 TIMESTAMP PUSH2 0x1837 JUMP JUMPDEST PUSH2 0xBE8 SWAP2 SWAP1 PUSH2 0x184A JUMP JUMPDEST PUSH1 0xC SLOAD CALLER PUSH0 SWAP1 DUP2 MSTORE PUSH1 0xF PUSH1 0x20 MSTORE PUSH1 0x40 SWAP1 KECCAK256 SLOAD SWAP2 SWAP3 POP PUSH1 0x64 SWAP2 DUP4 SWAP2 PUSH2 0xC0B SWAP2 PUSH2 0x17DF JUMP JUMPDEST PUSH2 0xC15 SWAP2 SWAP1 PUSH2 0x17DF JUMP JUMPDEST PUSH2 0xC1F SWAP2 SWAP1 PUSH2 0x184A JUMP JUMPDEST SWAP2 POP POP SWAP1 JUMP JUMPDEST CALLER PUSH0 SWAP1 DUP2 MSTORE PUSH1 0x11 PUSH1 0x20 MSTORE PUSH1 0x40 SWAP1 KECCAK256 SLOAD PUSH1 0xFF AND ISZERO PUSH2 0xC7A JUMPI PUSH1 0x40 MLOAD PUSH3 0x461BCD PUSH1 0xE5 SHL DUP2 MSTORE PUSH1 0x20 PUSH1 0x4 DUP3 ADD MSTORE PUSH1 0x13 PUSH1 0x24 DUP3 ADD MSTORE PUSH19 0x105B1C9958591E481DDA1A5D195B1A5CDD1959 PUSH1 0x6A SHL PUSH1 0x44 DUP3 ADD MSTORE PUSH1 0x64 ADD PUSH2 0x86C JUMP JUMPDEST PUSH1 0x1 PUSH1 0x1 PUSH1 0xA0 SHL SUB DUP2 AND CALLER SUB PUSH2 0xCCA JUMPI PUSH1 0x40 MLOAD PUSH3 0x461BCD PUSH1 0xE5 SHL DUP2 MSTORE PUSH1 0x20 PUSH1 0x4 DUP3 ADD MSTORE PUSH1 0x15 PUSH1 0x24 DUP3 ADD MSTORE PUSH21 0x21B0B73737BA103932B332B9103CB7BAB939B2B633 PUSH1 0x59 SHL PUSH1 0x44 DUP3 ADD MSTORE PUSH1 0x64 ADD PUSH2 0x86C JUMP JUMPDEST CALLER PUSH0 SWAP1 DUP2 MSTORE PUSH1 0x11 PUSH1 0x20 MSTORE PUSH1 0x40 SWAP1 KECCAK256 DUP1 SLOAD PUSH1 0xFF NOT AND PUSH1 0x1 OR SWAP1 SSTORE PUSH1 0x1 PUSH1 0x1 PUSH1 0xA0 SHL SUB DUP2 AND ISZERO DUP1 ISZERO SWAP1 PUSH2 0xD12 JUMPI POP PUSH1 0x1 PUSH1 0x1 PUSH1 0xA0 SHL SUB DUP2 AND PUSH0 SWAP1 DUP2 MSTORE PUSH1 0x11 PUSH1 0x20 MSTORE PUSH1 0x40 SWAP1 KECCAK256 SLOAD PUSH1 0xFF AND JUMPDEST ISZERO PUSH2 0xD64 JUMPI CALLER PUSH0 SWAP1 DUP2 MSTORE PUSH1 0x12 PUSH1 0x20 SWAP1 DUP2 MSTORE PUSH1 0x40 DUP1 DUP4 KECCAK256 DUP1 SLOAD PUSH1 0x1 PUSH1 0x1 PUSH1 0xA0 SHL SUB NOT AND PUSH1 0x1 PUSH1 0x1 PUSH1 0xA0 SHL SUB DUP7 AND SWAP1 DUP2 OR SWAP1 SWAP2 SSTORE DUP4 MSTORE PUSH1 0x13 SWAP1 SWAP2 MSTORE DUP2 KECCAK256 DUP1 SLOAD PUSH1 0x1 SWAP3 SWAP1 PUSH2 0xD5E SWAP1 DUP5 SWAP1 PUSH2 0x1869 JUMP JUMPDEST SWAP1 SWAP2 SSTORE POP POP JUMPDEST PUSH1 0x40 MLOAD PUSH1 0x1 PUSH1 0x1 PUSH1 0xA0 SHL SUB DUP3 AND SWAP1 CALLER SWAP1 PUSH32 0x4BC18AA4B0095C9A3B5CDF42D2322D5A145591B04045988A995A5DA426075457 SWAP1 PUSH0 SWAP1 LOG3 POP JUMP JUMPDEST CALLER PUSH0 SWAP1 DUP2 MSTORE PUSH1 0xF PUSH1 0x20 MSTORE PUSH1 0x40 SWAP1 KECCAK256 SLOAD DUP1 PUSH2 0xDEC JUMPI PUSH1 0x40 MLOAD PUSH3 0x461BCD PUSH1 0xE5 SHL DUP2 MSTORE PUSH1 0x20 PUSH1 0x4 DUP3 ADD MSTORE PUSH1 0x11 PUSH1 0x24 DUP3 ADD MSTORE PUSH17 0x2737903A37B5B2B7399039BA30B5B2B217 PUSH1 0x79 SHL PUSH1 0x44 DUP3 ADD MSTORE PUSH1 0x64 ADD PUSH2 0x86C JUMP JUMPDEST PUSH1 0xD SLOAD CALLER PUSH0 SWAP1 DUP2 MSTORE PUSH1 0x10 PUSH1 0x20 MSTORE PUSH1 0x40 SWAP1 KECCAK256 SLOAD PUSH2 0xE08 SWAP2 SWAP1 PUSH2 0x1869 JUMP JUMPDEST TIMESTAMP LT ISZERO PUSH2 0xE57 JUMPI PUSH1 0x40 MLOAD PUSH3 0x461BCD PUSH1 0xE5 SHL DUP2 MSTORE PUSH1 0x20 PUSH1 0x4 DUP3 ADD MSTORE PUSH1 0x1B PUSH1 0x24 DUP3 ADD MSTORE PUSH32 0x556E7374616B65206F6E6C792061667465722034207765656B732E0000000000 PUSH1 0x44 DUP3 ADD MSTORE PUSH1 0x64 ADD PUSH2 0x86C JUMP JUMPDEST PUSH0 PUSH2 0xE60 PUSH2 0xBBE JUMP JUMPDEST CALLER PUSH0 DUP2 DUP2 MSTORE PUSH1 0xF PUSH1 0x20 SWAP1 DUP2 MSTORE PUSH1 0x40 DUP1 DUP4 KECCAK256 DUP4 SWAP1 SSTORE PUSH1 0x10 SWAP1 SWAP2 MSTORE DUP2 KECCAK256 SSTORE SWAP1 SWAP2 POP PUSH2 0xE94 SWAP1 ADDRESS SWAP1 PUSH2 0xE8F DUP5 DUP7 PUSH2 0x1869 JUMP JUMPDEST PUSH2 0x123B JUMP JUMPDEST PUSH1 0x40 DUP1 MLOAD DUP4 DUP2 MSTORE PUSH1 0x20 DUP2 ADD DUP4 SWAP1 MSTORE CALLER SWAP2 PUSH32 0x6F2D3E000C89D37446B7C0374C0125068FF316D1E3EE302336478A8CD03C2336 SWAP2 ADD PUSH1 0x40 MLOAD DUP1 SWAP2 SUB SWAP1 LOG2 POP POP JUMP JUMPDEST PUSH0 CALLER PUSH2 0x806 DUP2 DUP6 DUP6 PUSH2 0x123B JUMP JUMPDEST PUSH1 0xD SLOAD CALLER PUSH0 SWAP1 DUP2 MSTORE PUSH1 0x10 PUSH1 0x20 MSTORE PUSH1 0x40 DUP2 KECCAK256 SLOAD SWAP1 SWAP2 PUSH2 0x844 SWAP2 PUSH2 0x1869 JUMP JUMPDEST PUSH0 DUP3 DUP3 LT ISZERO PUSH2 0xF1E JUMPI PUSH1 0x40 MLOAD PUSH3 0x461BCD PUSH1 0xE5 SHL DUP2 MSTORE PUSH1 0x4 ADD PUSH2 0x86C SWAP1 PUSH2 0x17F6 JUMP JUMPDEST PUSH0 PUSH1 0xB SLOAD PUSH1 0x6 SLOAD PUSH1 0x7 SLOAD PUSH2 0xF32 SWAP2 SWAP1 PUSH2 0x1837 JUMP JUMPDEST PUSH2 0xF3C DUP7 DUP7 PUSH2 0x1837 JUMP JUMPDEST PUSH2 0xF46 SWAP2 SWAP1 PUSH2 0x184A JUMP JUMPDEST PUSH2 0xF50 SWAP2 SWAP1 PUSH2 0x184A JUMP JUMPDEST SWAP5 SWAP4 POP POP POP POP JUMP JUMPDEST PUSH1 0x5 SLOAD PUSH1 0x1 PUSH1 0xA0 SHL SWAP1 DIV PUSH1 0xFF AND PUSH2 0xFA4 JUMPI PUSH1 0x40 MLOAD PUSH3 0x461BCD PUSH1 0xE5 SHL DUP2 MSTORE PUSH1 0x20 PUSH1 0x4 DUP3 ADD MSTORE PUSH1 0x10 PUSH1 0x24 DUP3 ADD MSTORE PUSH16 0x29B0B632903737BA1030B1BA34BB3297 PUSH1 0x81 SHL PUSH1 0x44 DUP3 ADD MSTORE PUSH1 0x64 ADD PUSH2 0x86C JUMP JUMPDEST PUSH0 CALLVALUE GT PUSH2 0xFF3 JUMPI PUSH1 0x40 MLOAD PUSH3 0x461BCD PUSH1 0xE5 SHL DUP2 MSTORE PUSH1 0x20 PUSH1 0x4 DUP3 ADD MSTORE PUSH1 0x1C PUSH1 0x24 DUP3 ADD MSTORE PUSH32 0x4D7573742073656E642045544820746F2062757920746F6B656E732E00000000 PUSH1 0x44 DUP3 ADD MSTORE PUSH1 0x64 ADD PUSH2 0x86C JUMP JUMPDEST PUSH0 PUSH2 0xFFC PUSH2 0x10EA JUMP JUMPDEST SWAP1 POP PUSH0 PUSH2 0x1009 DUP3 CALLVALUE PUSH2 0x184A JUMP JUMPDEST ADDRESS PUSH0 SWAP1 DUP2 MSTORE PUSH1 0x20 DUP2 SWAP1 MSTORE PUSH1 0x40 SWAP1 KECCAK256 SLOAD SWAP1 SWAP2 POP DUP2 GT ISZERO PUSH2 0x106A JUMPI PUSH1 0x40 MLOAD PUSH3 0x461BCD PUSH1 0xE5 SHL DUP2 MSTORE PUSH1 0x20 PUSH1 0x4 DUP3 ADD MSTORE PUSH1 0x1C PUSH1 0x24 DUP3 ADD MSTORE PUSH32 0x4E6F7420656E6F75676820746F6B656E7320617661696C61626C652E00000000 PUSH1 0x44 DUP3 ADD MSTORE PUSH1 0x64 ADD PUSH2 0x86C JUMP JUMPDEST CALLER PUSH0 SWAP1 DUP2 MSTORE PUSH1 0x14 PUSH1 0x20 MSTORE PUSH1 0x40 DUP2 KECCAK256 DUP1 SLOAD DUP4 SWAP3 SWAP1 PUSH2 0x1088 SWAP1 DUP5 SWAP1 PUSH2 0x1869 JUMP JUMPDEST SWAP1 SWAP2 SSTORE POP PUSH2 0x1099 SWAP1 POP ADDRESS CALLER DUP4 PUSH2 0x123B JUMP JUMPDEST DUP1 PUSH1 0xA PUSH0 DUP3 DUP3 SLOAD PUSH2 0x10AA SWAP2 SWAP1 PUSH2 0x1869 JUMP JUMPDEST SWAP1 SWAP2 SSTORE POP POP PUSH1 0x40 MLOAD DUP2 DUP2 MSTORE CALLER SWAP1 ADDRESS SWAP1 PUSH32 0xDDF252AD1BE2C89B69C2B068FC378DAA952BA7F163C4A11628F55A4DF523B3EF SWAP1 PUSH1 0x20 ADD PUSH1 0x40 MLOAD DUP1 SWAP2 SUB SWAP1 LOG3 POP POP JUMP JUMPDEST PUSH1 0x5 SLOAD PUSH0 SWAP1 PUSH1 0x1 PUSH1 0xA0 SHL SWAP1 DIV PUSH1 0xFF AND PUSH2 0x1145 JUMPI PUSH1 0x40 MLOAD PUSH3 0x461BCD PUSH1 0xE5 SHL DUP2 MSTORE PUSH1 0x20 PUSH1 0x4 DUP3 ADD MSTORE PUSH1 0x18 PUSH1 0x24 DUP3 ADD MSTORE PUSH32 0x5072652D73616C65206E6F742073746172746564207965740000000000000000 PUSH1 0x44 DUP3 ADD MSTORE PUSH1 0x64 ADD PUSH2 0x86C JUMP JUMPDEST PUSH1 0x7 SLOAD TIMESTAMP GT ISZERO PUSH2 0x1156 JUMPI POP PUSH1 0x9 SLOAD SWAP1 JUMP JUMPDEST PUSH0 PUSH2 0x115F PUSH2 0x8CD JUMP JUMPDEST SWAP1 POP PUSH0 DUP2 PUSH1 0x8 SLOAD PUSH2 0x906 SWAP2 SWAP1 PUSH2 0x1869 JUMP JUMPDEST PUSH2 0x1178 PUSH2 0x1298 JUMP JUMPDEST PUSH1 0x1 PUSH1 0x1 PUSH1 0xA0 SHL SUB DUP2 AND PUSH2 0x11A1 JUMPI PUSH1 0x40 MLOAD PUSH4 0x1E4FBDF7 PUSH1 0xE0 SHL DUP2 MSTORE PUSH0 PUSH1 0x4 DUP3 ADD MSTORE PUSH1 0x24 ADD PUSH2 0x86C JUMP JUMPDEST PUSH2 0x11AA DUP2 PUSH2 0x12C5 JUMP JUMPDEST POP JUMP JUMPDEST PUSH2 0x11BA DUP4 DUP4 DUP4 PUSH1 0x1 PUSH2 0x134E JUMP JUMPDEST POP POP POP JUMP JUMPDEST PUSH1 0x1 PUSH1 0x1 PUSH1 0xA0 SHL SUB DUP4 DUP2 AND PUSH0 SWAP1 DUP2 MSTORE PUSH1 0x1 PUSH1 0x20 SWAP1 DUP2 MSTORE PUSH1 0x40 DUP1 DUP4 KECCAK256 SWAP4 DUP7 AND DUP4 MSTORE SWAP3 SWAP1 MSTORE KECCAK256 SLOAD PUSH0 NOT DUP2 LT ISZERO PUSH2 0x1235 JUMPI DUP2 DUP2 LT ISZERO PUSH2 0x1227 JUMPI PUSH1 0x40 MLOAD PUSH4 0x7DC7A0D9 PUSH1 0xE1 SHL DUP2 MSTORE PUSH1 0x1 PUSH1 0x1 PUSH1 0xA0 SHL SUB DUP5 AND PUSH1 0x4 DUP3 ADD MSTORE PUSH1 0x24 DUP2 ADD DUP3 SWAP1 MSTORE PUSH1 0x44 DUP2 ADD DUP4 SWAP1 MSTORE PUSH1 0x64 ADD PUSH2 0x86C JUMP JUMPDEST PUSH2 0x1235 DUP5 DUP5 DUP5 DUP5 SUB PUSH0 PUSH2 0x134E JUMP JUMPDEST POP POP POP POP JUMP JUMPDEST PUSH1 0x1 PUSH1 0x1 PUSH1 0xA0 SHL SUB DUP4 AND PUSH2 0x1264 JUMPI PUSH1 0x40 MLOAD PUSH4 0x4B637E8F PUSH1 0xE1 SHL DUP2 MSTORE PUSH0 PUSH1 0x4 DUP3 ADD MSTORE PUSH1 0x24 ADD PUSH2 0x86C JUMP JUMPDEST PUSH1 0x1 PUSH1 0x1 PUSH1 0xA0 SHL SUB DUP3 AND PUSH2 0x128D JUMPI PUSH1 0x40 MLOAD PUSH4 0xEC442F05 PUSH1 0xE0 SHL DUP2 MSTORE PUSH0 PUSH1 0x4 DUP3 ADD MSTORE PUSH1 0x24 ADD PUSH2 0x86C JUMP JUMPDEST PUSH2 0x11BA DUP4 DUP4 DUP4 PUSH2 0x1420 JUMP JUMPDEST PUSH1 0x5 SLOAD PUSH1 0x1 PUSH1 0x1 PUSH1 0xA0 SHL SUB AND CALLER EQ PUSH2 0x986 JUMPI PUSH1 0x40 MLOAD PUSH4 0x118CDAA7 PUSH1 0xE0 SHL DUP2 MSTORE CALLER PUSH1 0x4 DUP3 ADD MSTORE PUSH1 0x24 ADD PUSH2 0x86C JUMP JUMPDEST PUSH1 0x5 DUP1 SLOAD PUSH1 0x1 PUSH1 0x1 PUSH1 0xA0 SHL SUB DUP4 DUP2 AND PUSH1 0x1 PUSH1 0x1 PUSH1 0xA0 SHL SUB NOT DUP4 AND DUP2 OR SWAP1 SWAP4 SSTORE PUSH1 0x40 MLOAD SWAP2 AND SWAP2 SWAP1 DUP3 SWAP1 PUSH32 0x8BE0079C531659141344CD1FD0A4F28419497F9722A3DAAFE3B4186F6B6457E0 SWAP1 PUSH0 SWAP1 LOG3 POP POP JUMP JUMPDEST PUSH1 0x1 PUSH1 0x1 PUSH1 0xA0 SHL SUB DUP3 AND PUSH2 0x133F JUMPI PUSH1 0x40 MLOAD PUSH4 0xEC442F05 PUSH1 0xE0 SHL DUP2 MSTORE PUSH0 PUSH1 0x4 DUP3 ADD MSTORE PUSH1 0x24 ADD PUSH2 0x86C JUMP JUMPDEST PUSH2 0x134A PUSH0 DUP4 DUP4 PUSH2 0x1420 JUMP JUMPDEST POP POP JUMP JUMPDEST PUSH1 0x1 PUSH1 0x1 PUSH1 0xA0 SHL SUB DUP5 AND PUSH2 0x1377 JUMPI PUSH1 0x40 MLOAD PUSH4 0xE602DF05 PUSH1 0xE0 SHL DUP2 MSTORE PUSH0 PUSH1 0x4 DUP3 ADD MSTORE PUSH1 0x24 ADD PUSH2 0x86C JUMP JUMPDEST PUSH1 0x1 PUSH1 0x1 PUSH1 0xA0 SHL SUB DUP4 AND PUSH2 0x13A0 JUMPI PUSH1 0x40 MLOAD PUSH4 0x4A1406B1 PUSH1 0xE1 SHL DUP2 MSTORE PUSH0 PUSH1 0x4 DUP3 ADD MSTORE PUSH1 0x24 ADD PUSH2 0x86C JUMP JUMPDEST PUSH1 0x1 PUSH1 0x1 PUSH1 0xA0 SHL SUB DUP1 DUP6 AND PUSH0 SWAP1 DUP2 MSTORE PUSH1 0x1 PUSH1 0x20 SWAP1 DUP2 MSTORE PUSH1 0x40 DUP1 DUP4 KECCAK256 SWAP4 DUP8 AND DUP4 MSTORE SWAP3 SWAP1 MSTORE KECCAK256 DUP3 SWAP1 SSTORE DUP1 ISZERO PUSH2 0x1235 JUMPI DUP3 PUSH1 0x1 PUSH1 0x1 PUSH1 0xA0 SHL SUB AND DUP5 PUSH1 0x1 PUSH1 0x1 PUSH1 0xA0 SHL SUB AND PUSH32 0x8C5BE1E5EBEC7D5BD14F71427D1E84F3DD0314C0F7B2291E5B200AC8C7C3B925 DUP5 PUSH1 0x40 MLOAD PUSH2 0x1412 SWAP2 DUP2 MSTORE PUSH1 0x20 ADD SWAP1 JUMP JUMPDEST PUSH1 0x40 MLOAD DUP1 SWAP2 SUB SWAP1 LOG3 POP POP POP POP JUMP JUMPDEST PUSH1 0x1 PUSH1 0x1 PUSH1 0xA0 SHL SUB DUP4 AND PUSH2 0x144A JUMPI DUP1 PUSH1 0x2 PUSH0 DUP3 DUP3 SLOAD PUSH2 0x143F SWAP2 SWAP1 PUSH2 0x1869 JUMP JUMPDEST SWAP1 SWAP2 SSTORE POP PUSH2 0x14BA SWAP1 POP JUMP JUMPDEST PUSH1 0x1 PUSH1 0x1 PUSH1 0xA0 SHL SUB DUP4 AND PUSH0 SWAP1 DUP2 MSTORE PUSH1 0x20 DUP2 SWAP1 MSTORE PUSH1 0x40 SWAP1 KECCAK256 SLOAD DUP2 DUP2 LT ISZERO PUSH2 0x149C JUMPI PUSH1 0x40 MLOAD PUSH4 0x391434E3 PUSH1 0xE2 SHL DUP2 MSTORE PUSH1 0x1 PUSH1 0x1 PUSH1 0xA0 SHL SUB DUP6 AND PUSH1 0x4 DUP3 ADD MSTORE PUSH1 0x24 DUP2 ADD DUP3 SWAP1 MSTORE PUSH1 0x44 DUP2 ADD DUP4 SWAP1 MSTORE PUSH1 0x64 ADD PUSH2 0x86C JUMP JUMPDEST PUSH1 0x1 PUSH1 0x1 PUSH1 0xA0 SHL SUB DUP5 AND PUSH0 SWAP1 DUP2 MSTORE PUSH1 0x20 DUP2 SWAP1 MSTORE PUSH1 0x40 SWAP1 KECCAK256 SWAP1 DUP3 SWAP1 SUB SWAP1 SSTORE JUMPDEST PUSH1 0x1 PUSH1 0x1 PUSH1 0xA0 SHL SUB DUP3 AND PUSH2 0x14D6 JUMPI PUSH1 0x2 DUP1 SLOAD DUP3 SWAP1 SUB SWAP1 SSTORE PUSH2 0x14F4 JUMP JUMPDEST PUSH1 0x1 PUSH1 0x1 PUSH1 0xA0 SHL SUB DUP3 AND PUSH0 SWAP1 DUP2 MSTORE PUSH1 0x20 DUP2 SWAP1 MSTORE PUSH1 0x40 SWAP1 KECCAK256 DUP1 SLOAD DUP3 ADD SWAP1 SSTORE JUMPDEST DUP2 PUSH1 0x1 PUSH1 0x1 PUSH1 0xA0 SHL SUB AND DUP4 PUSH1 0x1 PUSH1 0x1 PUSH1 0xA0 SHL SUB AND PUSH32 0xDDF252AD1BE2C89B69C2B068FC378DAA952BA7F163C4A11628F55A4DF523B3EF DUP4 PUSH1 0x40 MLOAD PUSH2 0x1539 SWAP2 DUP2 MSTORE PUSH1 0x20 ADD SWAP1 JUMP JUMPDEST PUSH1 0x40 MLOAD DUP1 SWAP2 SUB SWAP1 LOG3 POP POP POP JUMP JUMPDEST PUSH1 0x20 DUP2 MSTORE PUSH0 DUP3 MLOAD DUP1 PUSH1 0x20 DUP5 ADD MSTORE DUP1 PUSH1 0x20 DUP6 ADD PUSH1 0x40 DUP6 ADD MCOPY PUSH0 PUSH1 0x40 DUP3 DUP6 ADD ADD MSTORE PUSH1 0x40 PUSH1 0x1F NOT PUSH1 0x1F DUP4 ADD AND DUP5 ADD ADD SWAP2 POP POP SWAP3 SWAP2 POP POP JUMP JUMPDEST DUP1 CALLDATALOAD PUSH1 0x1 PUSH1 0x1 PUSH1 0xA0 SHL SUB DUP2 AND DUP2 EQ PUSH2 0x1591 JUMPI PUSH0 DUP1 REVERT JUMPDEST SWAP2 SWAP1 POP JUMP JUMPDEST PUSH0 DUP1 PUSH1 0x40 DUP4 DUP6 SUB SLT ISZERO PUSH2 0x15A7 JUMPI PUSH0 DUP1 REVERT JUMPDEST PUSH2 0x15B0 DUP4 PUSH2 0x157B JUMP JUMPDEST SWAP5 PUSH1 0x20 SWAP4 SWAP1 SWAP4 ADD CALLDATALOAD SWAP4 POP POP POP JUMP JUMPDEST PUSH0 DUP1 PUSH0 PUSH1 0x60 DUP5 DUP7 SUB SLT ISZERO PUSH2 0x15D0 JUMPI PUSH0 DUP1 REVERT JUMPDEST PUSH2 0x15D9 DUP5 PUSH2 0x157B JUMP JUMPDEST SWAP3 POP PUSH2 0x15E7 PUSH1 0x20 DUP6 ADD PUSH2 0x157B JUMP JUMPDEST SWAP3 SWAP6 SWAP3 SWAP5 POP POP POP PUSH1 0x40 SWAP2 SWAP1 SWAP2 ADD CALLDATALOAD SWAP1 JUMP JUMPDEST PUSH0 PUSH1 0x20 DUP3 DUP5 SUB SLT ISZERO PUSH2 0x1608 JUMPI PUSH0 DUP1 REVERT JUMPDEST PUSH2 0x906 DUP3 PUSH2 0x157B JUMP JUMPDEST PUSH0 DUP1 PUSH0 PUSH1 0x60 DUP5 DUP7 SUB SLT ISZERO PUSH2 0x1623 JUMPI PUSH0 DUP1 REVERT JUMPDEST POP POP DUP2 CALLDATALOAD SWAP4 PUSH1 0x20 DUP4 ADD CALLDATALOAD SWAP4 POP PUSH1 0x40 SWAP1 SWAP3 ADD CALLDATALOAD SWAP2 SWAP1 POP JUMP JUMPDEST PUSH0 PUSH1 0x20 DUP3 DUP5 SUB SLT ISZERO PUSH2 0x164A JUMPI PUSH0 DUP1 REVERT JUMPDEST POP CALLDATALOAD SWAP2 SWAP1 POP JUMP JUMPDEST PUSH0 DUP1 PUSH1 0x40 DUP4 DUP6 SUB SLT ISZERO PUSH2 0x1662 JUMPI PUSH0 DUP1 REVERT JUMPDEST POP POP DUP1 CALLDATALOAD SWAP3 PUSH1 0x20 SWAP1 SWAP2 ADD CALLDATALOAD SWAP2 POP JUMP JUMPDEST PUSH0 DUP1 PUSH1 0x40 DUP4 DUP6 SUB SLT ISZERO PUSH2 0x1682 JUMPI PUSH0 DUP1 REVERT JUMPDEST PUSH2 0x168B DUP4 PUSH2 0x157B JUMP JUMPDEST SWAP2 POP PUSH2 0x1699 PUSH1 0x20 DUP5 ADD PUSH2 0x157B JUMP JUMPDEST SWAP1 POP SWAP3 POP SWAP3 SWAP1 POP JUMP JUMPDEST PUSH1 0x1 DUP2 DUP2 SHR SWAP1 DUP3 AND DUP1 PUSH2 0x16B6 JUMPI PUSH1 0x7F DUP3 AND SWAP2 POP JUMPDEST PUSH1 0x20 DUP3 LT DUP2 SUB PUSH2 0x16D4 JUMPI PUSH4 0x4E487B71 PUSH1 0xE0 SHL PUSH0 MSTORE PUSH1 0x22 PUSH1 0x4 MSTORE PUSH1 0x24 PUSH0 REVERT JUMPDEST POP SWAP2 SWAP1 POP JUMP JUMPDEST PUSH4 0x4E487B71 PUSH1 0xE0 SHL PUSH0 MSTORE PUSH1 0x11 PUSH1 0x4 MSTORE PUSH1 0x24 PUSH0 REVERT JUMPDEST PUSH1 0x1 DUP2 JUMPDEST PUSH1 0x1 DUP5 GT ISZERO PUSH2 0x1729 JUMPI DUP1 DUP6 DIV DUP2 GT ISZERO PUSH2 0x170D JUMPI PUSH2 0x170D PUSH2 0x16DA JUMP JUMPDEST PUSH1 0x1 DUP5 AND ISZERO PUSH2 0x171B JUMPI SWAP1 DUP2 MUL SWAP1 JUMPDEST PUSH1 0x1 SWAP4 SWAP1 SWAP4 SHR SWAP3 DUP1 MUL PUSH2 0x16F2 JUMP JUMPDEST SWAP4 POP SWAP4 SWAP2 POP POP JUMP JUMPDEST PUSH0 DUP3 PUSH2 0x173F JUMPI POP PUSH1 0x1 PUSH2 0x80C JUMP JUMPDEST DUP2 PUSH2 0x174B JUMPI POP PUSH0 PUSH2 0x80C JUMP JUMPDEST DUP2 PUSH1 0x1 DUP2 EQ PUSH2 0x1761 JUMPI PUSH1 0x2 DUP2 EQ PUSH2 0x176B JUMPI PUSH2 0x1787 JUMP JUMPDEST PUSH1 0x1 SWAP2 POP POP PUSH2 0x80C JUMP JUMPDEST PUSH1 0xFF DUP5 GT ISZERO PUSH2 0x177C JUMPI PUSH2 0x177C PUSH2 0x16DA JUMP JUMPDEST POP POP PUSH1 0x1 DUP3 SHL PUSH2 0x80C JUMP JUMPDEST POP PUSH1 0x20 DUP4 LT PUSH2 0x133 DUP4 LT AND PUSH1 0x4E DUP5 LT PUSH1 0xB DUP5 LT AND OR ISZERO PUSH2 0x17AA JUMPI POP DUP2 DUP2 EXP PUSH2 0x80C JUMP JUMPDEST PUSH2 0x17B6 PUSH0 NOT DUP5 DUP5 PUSH2 0x16EE JUMP JUMPDEST DUP1 PUSH0 NOT DIV DUP3 GT ISZERO PUSH2 0x17C9 JUMPI PUSH2 0x17C9 PUSH2 0x16DA JUMP JUMPDEST MUL SWAP4 SWAP3 POP POP POP JUMP JUMPDEST PUSH0 PUSH2 0x906 PUSH1 0xFF DUP5 AND DUP4 PUSH2 0x1731 JUMP JUMPDEST DUP1 DUP3 MUL DUP2 ISZERO DUP3 DUP3 DIV DUP5 EQ OR PUSH2 0x80C JUMPI PUSH2 0x80C PUSH2 0x16DA JUMP JUMPDEST PUSH1 0x20 DUP1 DUP3 MSTORE PUSH1 0x21 SWAP1 DUP3 ADD MSTORE PUSH32 0x456E642074696D65206D7573742062652061667465722073746172742074696D PUSH1 0x40 DUP3 ADD MSTORE PUSH1 0x65 PUSH1 0xF8 SHL PUSH1 0x60 DUP3 ADD MSTORE PUSH1 0x80 ADD SWAP1 JUMP JUMPDEST DUP2 DUP2 SUB DUP2 DUP2 GT ISZERO PUSH2 0x80C JUMPI PUSH2 0x80C PUSH2 0x16DA JUMP JUMPDEST PUSH0 DUP3 PUSH2 0x1864 JUMPI PUSH4 0x4E487B71 PUSH1 0xE0 SHL PUSH0 MSTORE PUSH1 0x12 PUSH1 0x4 MSTORE PUSH1 0x24 PUSH0 REVERT JUMPDEST POP DIV SWAP1 JUMP JUMPDEST DUP1 DUP3 ADD DUP1 DUP3 GT ISZERO PUSH2 0x80C JUMPI PUSH2 0x80C PUSH2 0x16DA JUMP INVALID LOG2 PUSH5 0x6970667358 0x22 SLT KECCAK256 0xE1 KECCAK256 PUSH1 0x33 PUSH9 0xE2C0C0936D4851E331 DELEGATECALL 0xC0 PUSH18 0x19A724006374F0A481D76F7602F92464736F PUSH13 0x634300081A0033000000000000 "
				},
				"gasEstimates": {
					"creation": {
						"codeDepositCost": "1264400",
						"executionCost": "infinite",
						"totalCost": "infinite"
					},
					"external": {
						"allowance(address,address)": "infinite",
						"approve(address,uint256)": "24825",
						"balanceOf(address)": "2615",
						"balances(address)": "2551",
						"buyTokens()": "infinite",
						"calculatePrice()": "infinite",
						"calculatePriceIncrease()": "infinite",
						"calculateReferralReward()": "infinite",
						"calculateStakingReward()": "infinite",
						"calculateStepsElapsed(uint256,uint256)": "infinite",
						"decimals()": "266",
						"getBalance()": "2396",
						"getCurrentStep()": "infinite",
						"getStackedTokens()": "2457",
						"getStackingPeriod()": "4703",
						"initialPrice()": "2373",
						"minUnstakingPeriod()": "2328",
						"mintReferralReward()": "infinite",
						"name()": "infinite",
						"owner()": "2365",
						"preSaleEndTime()": "2350",
						"preSaleStartTime()": "2352",
						"preSaleSteps()": "2349",
						"presaleIsActive()": "2394",
						"referralCounts(address)": "2594",
						"referrals(address)": "2600",
						"regularSalePrice()": "2330",
						"renounceOwnership()": "infinite",
						"signUpForWhitelist(address)": "79402",
						"stakeTokens(uint256)": "101375",
						"stakedAmount(address)": "2659",
						"stakingRewardFrequency()": "2394",
						"stakingRewardRate()": "2417",
						"stakingTimestamp(address)": "2573",
						"startPreSale(uint256,uint256,uint256)": "94398",
						"symbol()": "infinite",
						"tokensSold()": "2328",
						"totalSupply()": "2348",
						"transfer(address,uint256)": "51349",
						"transferFrom(address,address,uint256)": "infinite",
						"transferOwnership(address)": "28465",
						"unstakeTokens()": "infinite",
						"whitelist(address)": "2662"
					}
				},
				"methodIdentifiers": {
					"allowance(address,address)": "dd62ed3e",
					"approve(address,uint256)": "095ea7b3",
					"balanceOf(address)": "70a08231",
					"balances(address)": "27e235e3",
					"buyTokens()": "d0febe4c",
					"calculatePrice()": "d348b409",
					"calculatePriceIncrease()": "4405df4a",
					"calculateReferralReward()": "0fb4ce58",
					"calculateStakingReward()": "967ed8f3",
					"calculateStepsElapsed(uint256,uint256)": "cf5f971b",
					"decimals()": "313ce567",
					"getBalance()": "12065fe0",
					"getCurrentStep()": "1d3824ea",
					"getStackedTokens()": "ebbef6f6",
					"getStackingPeriod()": "b290d570",
					"initialPrice()": "1d0806ae",
					"minUnstakingPeriod()": "c6a1f80a",
					"mintReferralReward()": "7c613b2f",
					"name()": "06fdde03",
					"owner()": "8da5cb5b",
					"preSaleEndTime()": "cce29ea7",
					"preSaleStartTime()": "06d65af3",
					"preSaleSteps()": "dc07c8a3",
					"presaleIsActive()": "30f72cd4",
					"referralCounts(address)": "cec297a0",
					"referrals(address)": "9ca423b3",
					"regularSalePrice()": "03e293a3",
					"renounceOwnership()": "715018a6",
					"signUpForWhitelist(address)": "a09c4cf4",
					"stakeTokens(uint256)": "7547c7a3",
					"stakedAmount(address)": "f9931855",
					"stakingRewardFrequency()": "a8297d46",
					"stakingRewardRate()": "4f3fc2df",
					"stakingTimestamp(address)": "8f0794fe",
					"startPreSale(uint256,uint256,uint256)": "639a5c87",
					"symbol()": "95d89b41",
					"tokensSold()": "518ab2a8",
					"totalSupply()": "18160ddd",
					"transfer(address,uint256)": "a9059cbb",
					"transferFrom(address,address,uint256)": "23b872dd",
					"transferOwnership(address)": "f2fde38b",
					"unstakeTokens()": "a5ce413b",
					"whitelist(address)": "9b19251a"
				}
			},
			"storageLayout": {
				"storage": [
					{
						"astId": 307,
						"contract": "contracts/SimpleToken.sol:TokenPreSale",
						"label": "_balances",
						"offset": 0,
						"slot": "0",
						"type": "t_mapping(t_address,t_uint256)"
					},
					{
						"astId": 313,
						"contract": "contracts/SimpleToken.sol:TokenPreSale",
						"label": "_allowances",
						"offset": 0,
						"slot": "1",
						"type": "t_mapping(t_address,t_mapping(t_address,t_uint256))"
					},
					{
						"astId": 315,
						"contract": "contracts/SimpleToken.sol:TokenPreSale",
						"label": "_totalSupply",
						"offset": 0,
						"slot": "2",
						"type": "t_uint256"
					},
					{
						"astId": 317,
						"contract": "contracts/SimpleToken.sol:TokenPreSale",
						"label": "_name",
						"offset": 0,
						"slot": "3",
						"type": "t_string_storage"
					},
					{
						"astId": 319,
						"contract": "contracts/SimpleToken.sol:TokenPreSale",
						"label": "_symbol",
						"offset": 0,
						"slot": "4",
						"type": "t_string_storage"
					},
					{
						"astId": 8,
						"contract": "contracts/SimpleToken.sol:TokenPreSale",
						"label": "_owner",
						"offset": 0,
						"slot": "5",
						"type": "t_address"
					},
					{
						"astId": 943,
						"contract": "contracts/SimpleToken.sol:TokenPreSale",
						"label": "presaleIsActive",
						"offset": 20,
						"slot": "5",
						"type": "t_bool"
					},
					{
						"astId": 945,
						"contract": "contracts/SimpleToken.sol:TokenPreSale",
						"label": "preSaleStartTime",
						"offset": 0,
						"slot": "6",
						"type": "t_uint256"
					},
					{
						"astId": 947,
						"contract": "contracts/SimpleToken.sol:TokenPreSale",
						"label": "preSaleEndTime",
						"offset": 0,
						"slot": "7",
						"type": "t_uint256"
					},
					{
						"astId": 949,
						"contract": "contracts/SimpleToken.sol:TokenPreSale",
						"label": "initialPrice",
						"offset": 0,
						"slot": "8",
						"type": "t_uint256"
					},
					{
						"astId": 951,
						"contract": "contracts/SimpleToken.sol:TokenPreSale",
						"label": "regularSalePrice",
						"offset": 0,
						"slot": "9",
						"type": "t_uint256"
					},
					{
						"astId": 953,
						"contract": "contracts/SimpleToken.sol:TokenPreSale",
						"label": "tokensSold",
						"offset": 0,
						"slot": "10",
						"type": "t_uint256"
					},
					{
						"astId": 955,
						"contract": "contracts/SimpleToken.sol:TokenPreSale",
						"label": "preSaleSteps",
						"offset": 0,
						"slot": "11",
						"type": "t_uint256"
					},
					{
						"astId": 957,
						"contract": "contracts/SimpleToken.sol:TokenPreSale",
						"label": "stakingRewardRate",
						"offset": 0,
						"slot": "12",
						"type": "t_uint256"
					},
					{
						"astId": 959,
						"contract": "contracts/SimpleToken.sol:TokenPreSale",
						"label": "minUnstakingPeriod",
						"offset": 0,
						"slot": "13",
						"type": "t_uint256"
					},
					{
						"astId": 961,
						"contract": "contracts/SimpleToken.sol:TokenPreSale",
						"label": "stakingRewardFrequency",
						"offset": 0,
						"slot": "14",
						"type": "t_uint256"
					},
					{
						"astId": 965,
						"contract": "contracts/SimpleToken.sol:TokenPreSale",
						"label": "stakedAmount",
						"offset": 0,
						"slot": "15",
						"type": "t_mapping(t_address,t_uint256)"
					},
					{
						"astId": 969,
						"contract": "contracts/SimpleToken.sol:TokenPreSale",
						"label": "stakingTimestamp",
						"offset": 0,
						"slot": "16",
						"type": "t_mapping(t_address,t_uint256)"
					},
					{
						"astId": 973,
						"contract": "contracts/SimpleToken.sol:TokenPreSale",
						"label": "whitelist",
						"offset": 0,
						"slot": "17",
						"type": "t_mapping(t_address,t_bool)"
					},
					{
						"astId": 977,
						"contract": "contracts/SimpleToken.sol:TokenPreSale",
						"label": "referrals",
						"offset": 0,
						"slot": "18",
						"type": "t_mapping(t_address,t_address)"
					},
					{
						"astId": 981,
						"contract": "contracts/SimpleToken.sol:TokenPreSale",
						"label": "referralCounts",
						"offset": 0,
						"slot": "19",
						"type": "t_mapping(t_address,t_uint256)"
					},
					{
						"astId": 985,
						"contract": "contracts/SimpleToken.sol:TokenPreSale",
						"label": "balances",
						"offset": 0,
						"slot": "20",
						"type": "t_mapping(t_address,t_uint256)"
					}
				],
				"types": {
					"t_address": {
						"encoding": "inplace",
						"label": "address",
						"numberOfBytes": "20"
					},
					"t_bool": {
						"encoding": "inplace",
						"label": "bool",
						"numberOfBytes": "1"
					},
					"t_mapping(t_address,t_address)": {
						"encoding": "mapping",
						"key": "t_address",
						"label": "mapping(address => address)",
						"numberOfBytes": "32",
						"value": "t_address"
					},
					"t_mapping(t_address,t_bool)": {
						"encoding": "mapping",
						"key": "t_address",
						"label": "mapping(address => bool)",
						"numberOfBytes": "32",
						"value": "t_bool"
					},
					"t_mapping(t_address,t_mapping(t_address,t_uint256))": {
						"encoding": "mapping",
						"key": "t_address",
						"label": "mapping(address => mapping(address => uint256))",
						"numberOfBytes": "32",
						"value": "t_mapping(t_address,t_uint256)"
					},
					"t_mapping(t_address,t_uint256)": {
						"encoding": "mapping",
						"key": "t_address",
						"label": "mapping(address => uint256)",
						"numberOfBytes": "32",
						"value": "t_uint256"
					},
					"t_string_storage": {
						"encoding": "bytes",
						"label": "string",
						"numberOfBytes": "32"
					},
					"t_uint256": {
						"encoding": "inplace",
						"label": "uint256",
						"numberOfBytes": "32"
					}
				}
			},
			"userdoc": {
				"kind": "user",
				"methods": {
					"buyTokens()": {
						"notice": "Buy tokens during the presale or regular sale."
					},
					"startPreSale(uint256,uint256,uint256)": {
						"notice": "Start the pre-sale"
					}
				},
				"version": 1
			}
		}
	}
}