{
	"contracts/SimpleToken.sol": {
		"TokenPreSale": {
			"abi": [
				{
					"inputs": [
						{
							"internalType": "address",
							"name": "initialOwner",
							"type": "address"
						},
						{
							"internalType": "uint256",
							"name": "totalSupply",
							"type": "uint256"
						},
						{
							"internalType": "uint256",
							"name": "_initialPrice",
							"type": "uint256"
						},
						{
							"internalType": "uint256",
							"name": "_weeklyIncreaseRate",
							"type": "uint256"
						},
						{
							"internalType": "uint256",
							"name": "_regularSalePrice",
							"type": "uint256"
						},
						{
							"internalType": "uint256",
							"name": "_stakingRewardRate",
							"type": "uint256"
						}
					],
					"stateMutability": "nonpayable",
					"type": "constructor"
				},
				{
					"inputs": [
						{
							"internalType": "address",
							"name": "spender",
							"type": "address"
						},
						{
							"internalType": "uint256",
							"name": "allowance",
							"type": "uint256"
						},
						{
							"internalType": "uint256",
							"name": "needed",
							"type": "uint256"
						}
					],
					"name": "ERC20InsufficientAllowance",
					"type": "error"
				},
				{
					"inputs": [
						{
							"internalType": "address",
							"name": "sender",
							"type": "address"
						},
						{
							"internalType": "uint256",
							"name": "balance",
							"type": "uint256"
						},
						{
							"internalType": "uint256",
							"name": "needed",
							"type": "uint256"
						}
					],
					"name": "ERC20InsufficientBalance",
					"type": "error"
				},
				{
					"inputs": [
						{
							"internalType": "address",
							"name": "approver",
							"type": "address"
						}
					],
					"name": "ERC20InvalidApprover",
					"type": "error"
				},
				{
					"inputs": [
						{
							"internalType": "address",
							"name": "receiver",
							"type": "address"
						}
					],
					"name": "ERC20InvalidReceiver",
					"type": "error"
				},
				{
					"inputs": [
						{
							"internalType": "address",
							"name": "sender",
							"type": "address"
						}
					],
					"name": "ERC20InvalidSender",
					"type": "error"
				},
				{
					"inputs": [
						{
							"internalType": "address",
							"name": "spender",
							"type": "address"
						}
					],
					"name": "ERC20InvalidSpender",
					"type": "error"
				},
				{
					"inputs": [
						{
							"internalType": "address",
							"name": "owner",
							"type": "address"
						}
					],
					"name": "OwnableInvalidOwner",
					"type": "error"
				},
				{
					"inputs": [
						{
							"internalType": "address",
							"name": "account",
							"type": "address"
						}
					],
					"name": "OwnableUnauthorizedAccount",
					"type": "error"
				},
				{
					"anonymous": false,
					"inputs": [
						{
							"indexed": true,
							"internalType": "address",
							"name": "owner",
							"type": "address"
						},
						{
							"indexed": true,
							"internalType": "address",
							"name": "spender",
							"type": "address"
						},
						{
							"indexed": false,
							"internalType": "uint256",
							"name": "value",
							"type": "uint256"
						}
					],
					"name": "Approval",
					"type": "event"
				},
				{
					"anonymous": false,
					"inputs": [
						{
							"indexed": true,
							"internalType": "address",
							"name": "previousOwner",
							"type": "address"
						},
						{
							"indexed": true,
							"internalType": "address",
							"name": "newOwner",
							"type": "address"
						}
					],
					"name": "OwnershipTransferred",
					"type": "event"
				},
				{
					"anonymous": false,
					"inputs": [
						{
							"indexed": false,
							"internalType": "uint256",
							"name": "endTime",
							"type": "uint256"
						}
					],
					"name": "SaleEnded",
					"type": "event"
				},
				{
					"anonymous": false,
					"inputs": [
						{
							"indexed": false,
							"internalType": "uint256",
							"name": "startTime",
							"type": "uint256"
						},
						{
							"indexed": false,
							"internalType": "uint256",
							"name": "endTime",
							"type": "uint256"
						}
					],
					"name": "SaleStarted",
					"type": "event"
				},
				{
					"anonymous": false,
					"inputs": [
						{
							"indexed": true,
							"internalType": "address",
							"name": "buyer",
							"type": "address"
						},
						{
							"indexed": false,
							"internalType": "uint256",
							"name": "amount",
							"type": "uint256"
						},
						{
							"indexed": false,
							"internalType": "uint256",
							"name": "cost",
							"type": "uint256"
						}
					],
					"name": "TokensPurchased",
					"type": "event"
				},
				{
					"anonymous": false,
					"inputs": [
						{
							"indexed": true,
							"internalType": "address",
							"name": "user",
							"type": "address"
						},
						{
							"indexed": false,
							"internalType": "uint256",
							"name": "amount",
							"type": "uint256"
						}
					],
					"name": "TokensStaked",
					"type": "event"
				},
				{
					"anonymous": false,
					"inputs": [
						{
							"indexed": true,
							"internalType": "address",
							"name": "user",
							"type": "address"
						},
						{
							"indexed": false,
							"internalType": "uint256",
							"name": "amount",
							"type": "uint256"
						},
						{
							"indexed": false,
							"internalType": "uint256",
							"name": "reward",
							"type": "uint256"
						}
					],
					"name": "TokensUnstaked",
					"type": "event"
				},
				{
					"anonymous": false,
					"inputs": [
						{
							"indexed": true,
							"internalType": "address",
							"name": "from",
							"type": "address"
						},
						{
							"indexed": true,
							"internalType": "address",
							"name": "to",
							"type": "address"
						},
						{
							"indexed": false,
							"internalType": "uint256",
							"name": "value",
							"type": "uint256"
						}
					],
					"name": "Transfer",
					"type": "event"
				},
				{
					"inputs": [
						{
							"internalType": "address",
							"name": "owner",
							"type": "address"
						},
						{
							"internalType": "address",
							"name": "spender",
							"type": "address"
						}
					],
					"name": "allowance",
					"outputs": [
						{
							"internalType": "uint256",
							"name": "",
							"type": "uint256"
						}
					],
					"stateMutability": "view",
					"type": "function"
				},
				{
					"inputs": [
						{
							"internalType": "address",
							"name": "spender",
							"type": "address"
						},
						{
							"internalType": "uint256",
							"name": "value",
							"type": "uint256"
						}
					],
					"name": "approve",
					"outputs": [
						{
							"internalType": "bool",
							"name": "",
							"type": "bool"
						}
					],
					"stateMutability": "nonpayable",
					"type": "function"
				},
				{
					"inputs": [
						{
							"internalType": "address",
							"name": "account",
							"type": "address"
						}
					],
					"name": "balanceOf",
					"outputs": [
						{
							"internalType": "uint256",
							"name": "",
							"type": "uint256"
						}
					],
					"stateMutability": "view",
					"type": "function"
				},
				{
					"inputs": [
						{
							"internalType": "address",
							"name": "user",
							"type": "address"
						}
					],
					"name": "calculateStakingReward",
					"outputs": [
						{
							"internalType": "uint256",
							"name": "",
							"type": "uint256"
						}
					],
					"stateMutability": "view",
					"type": "function"
				},
				{
					"inputs": [],
					"name": "decimals",
					"outputs": [
						{
							"internalType": "uint8",
							"name": "",
							"type": "uint8"
						}
					],
					"stateMutability": "view",
					"type": "function"
				},
				{
					"inputs": [
						{
							"internalType": "address",
							"name": "user",
							"type": "address"
						}
					],
					"name": "getAccumulatedRewards",
					"outputs": [
						{
							"internalType": "uint256",
							"name": "",
							"type": "uint256"
						}
					],
					"stateMutability": "view",
					"type": "function"
				},
				{
					"inputs": [
						{
							"internalType": "address",
							"name": "user",
							"type": "address"
						}
					],
					"name": "getStakedBalance",
					"outputs": [
						{
							"internalType": "uint256",
							"name": "",
							"type": "uint256"
						}
					],
					"stateMutability": "view",
					"type": "function"
				},
				{
					"inputs": [
						{
							"internalType": "address",
							"name": "user",
							"type": "address"
						}
					],
					"name": "getStakingStartDate",
					"outputs": [
						{
							"internalType": "uint256",
							"name": "",
							"type": "uint256"
						}
					],
					"stateMutability": "view",
					"type": "function"
				},
				{
					"inputs": [],
					"name": "initialPrice",
					"outputs": [
						{
							"internalType": "uint256",
							"name": "",
							"type": "uint256"
						}
					],
					"stateMutability": "view",
					"type": "function"
				},
				{
					"inputs": [],
					"name": "name",
					"outputs": [
						{
							"internalType": "string",
							"name": "",
							"type": "string"
						}
					],
					"stateMutability": "view",
					"type": "function"
				},
				{
					"inputs": [],
					"name": "owner",
					"outputs": [
						{
							"internalType": "address",
							"name": "",
							"type": "address"
						}
					],
					"stateMutability": "view",
					"type": "function"
				},
				{
					"inputs": [],
					"name": "regularSalePrice",
					"outputs": [
						{
							"internalType": "uint256",
							"name": "",
							"type": "uint256"
						}
					],
					"stateMutability": "view",
					"type": "function"
				},
				{
					"inputs": [],
					"name": "renounceOwnership",
					"outputs": [],
					"stateMutability": "nonpayable",
					"type": "function"
				},
				{
					"inputs": [],
					"name": "saleEndTime",
					"outputs": [
						{
							"internalType": "uint256",
							"name": "",
							"type": "uint256"
						}
					],
					"stateMutability": "view",
					"type": "function"
				},
				{
					"inputs": [],
					"name": "saleStartTime",
					"outputs": [
						{
							"internalType": "uint256",
							"name": "",
							"type": "uint256"
						}
					],
					"stateMutability": "view",
					"type": "function"
				},
				{
					"inputs": [
						{
							"internalType": "uint256",
							"name": "_rewardRate",
							"type": "uint256"
						}
					],
					"name": "setStakingRewardRate",
					"outputs": [],
					"stateMutability": "nonpayable",
					"type": "function"
				},
				{
					"inputs": [
						{
							"internalType": "uint256",
							"name": "amount",
							"type": "uint256"
						}
					],
					"name": "stakeTokens",
					"outputs": [],
					"stateMutability": "nonpayable",
					"type": "function"
				},
				{
					"inputs": [
						{
							"internalType": "address",
							"name": "",
							"type": "address"
						}
					],
					"name": "stakedAmount",
					"outputs": [
						{
							"internalType": "uint256",
							"name": "",
							"type": "uint256"
						}
					],
					"stateMutability": "view",
					"type": "function"
				},
				{
					"inputs": [],
					"name": "stakingRewardRate",
					"outputs": [
						{
							"internalType": "uint256",
							"name": "",
							"type": "uint256"
						}
					],
					"stateMutability": "view",
					"type": "function"
				},
				{
					"inputs": [
						{
							"internalType": "address",
							"name": "",
							"type": "address"
						}
					],
					"name": "stakingRewards",
					"outputs": [
						{
							"internalType": "uint256",
							"name": "",
							"type": "uint256"
						}
					],
					"stateMutability": "view",
					"type": "function"
				},
				{
					"inputs": [
						{
							"internalType": "address",
							"name": "",
							"type": "address"
						}
					],
					"name": "stakingTimestamp",
					"outputs": [
						{
							"internalType": "uint256",
							"name": "",
							"type": "uint256"
						}
					],
					"stateMutability": "view",
					"type": "function"
				},
				{
					"inputs": [],
					"name": "symbol",
					"outputs": [
						{
							"internalType": "string",
							"name": "",
							"type": "string"
						}
					],
					"stateMutability": "view",
					"type": "function"
				},
				{
					"inputs": [],
					"name": "tokensSold",
					"outputs": [
						{
							"internalType": "uint256",
							"name": "",
							"type": "uint256"
						}
					],
					"stateMutability": "view",
					"type": "function"
				},
				{
					"inputs": [],
					"name": "totalSupply",
					"outputs": [
						{
							"internalType": "uint256",
							"name": "",
							"type": "uint256"
						}
					],
					"stateMutability": "view",
					"type": "function"
				},
				{
					"inputs": [
						{
							"internalType": "address",
							"name": "to",
							"type": "address"
						},
						{
							"internalType": "uint256",
							"name": "value",
							"type": "uint256"
						}
					],
					"name": "transfer",
					"outputs": [
						{
							"internalType": "bool",
							"name": "",
							"type": "bool"
						}
					],
					"stateMutability": "nonpayable",
					"type": "function"
				},
				{
					"inputs": [
						{
							"internalType": "address",
							"name": "from",
							"type": "address"
						},
						{
							"internalType": "address",
							"name": "to",
							"type": "address"
						},
						{
							"internalType": "uint256",
							"name": "value",
							"type": "uint256"
						}
					],
					"name": "transferFrom",
					"outputs": [
						{
							"internalType": "bool",
							"name": "",
							"type": "bool"
						}
					],
					"stateMutability": "nonpayable",
					"type": "function"
				},
				{
					"inputs": [
						{
							"internalType": "address",
							"name": "newOwner",
							"type": "address"
						}
					],
					"name": "transferOwnership",
					"outputs": [],
					"stateMutability": "nonpayable",
					"type": "function"
				},
				{
					"inputs": [],
					"name": "unstakeTokens",
					"outputs": [],
					"stateMutability": "nonpayable",
					"type": "function"
				},
				{
					"inputs": [],
					"name": "weeklyIncreaseRate",
					"outputs": [
						{
							"internalType": "uint256",
							"name": "",
							"type": "uint256"
						}
					],
					"stateMutability": "view",
					"type": "function"
				}
			],
			"devdoc": {
				"errors": {
					"ERC20InsufficientAllowance(address,uint256,uint256)": [
						{
							"details": "Indicates a failure with the `spender`’s `allowance`. Used in transfers.",
							"params": {
								"allowance": "Amount of tokens a `spender` is allowed to operate with.",
								"needed": "Minimum amount required to perform a transfer.",
								"spender": "Address that may be allowed to operate on tokens without being their owner."
							}
						}
					],
					"ERC20InsufficientBalance(address,uint256,uint256)": [
						{
							"details": "Indicates an error related to the current `balance` of a `sender`. Used in transfers.",
							"params": {
								"balance": "Current balance for the interacting account.",
								"needed": "Minimum amount required to perform a transfer.",
								"sender": "Address whose tokens are being transferred."
							}
						}
					],
					"ERC20InvalidApprover(address)": [
						{
							"details": "Indicates a failure with the `approver` of a token to be approved. Used in approvals.",
							"params": {
								"approver": "Address initiating an approval operation."
							}
						}
					],
					"ERC20InvalidReceiver(address)": [
						{
							"details": "Indicates a failure with the token `receiver`. Used in transfers.",
							"params": {
								"receiver": "Address to which tokens are being transferred."
							}
						}
					],
					"ERC20InvalidSender(address)": [
						{
							"details": "Indicates a failure with the token `sender`. Used in transfers.",
							"params": {
								"sender": "Address whose tokens are being transferred."
							}
						}
					],
					"ERC20InvalidSpender(address)": [
						{
							"details": "Indicates a failure with the `spender` to be approved. Used in approvals.",
							"params": {
								"spender": "Address that may be allowed to operate on tokens without being their owner."
							}
						}
					],
					"OwnableInvalidOwner(address)": [
						{
							"details": "The owner is not a valid owner account. (eg. `address(0)`)"
						}
					],
					"OwnableUnauthorizedAccount(address)": [
						{
							"details": "The caller account is not authorized to perform an operation."
						}
					]
				},
				"events": {
					"Approval(address,address,uint256)": {
						"details": "Emitted when the allowance of a `spender` for an `owner` is set by a call to {approve}. `value` is the new allowance."
					},
					"Transfer(address,address,uint256)": {
						"details": "Emitted when `value` tokens are moved from one account (`from`) to another (`to`). Note that `value` may be zero."
					}
				},
				"kind": "dev",
				"methods": {
					"allowance(address,address)": {
						"details": "See {IERC20-allowance}."
					},
					"approve(address,uint256)": {
						"details": "See {IERC20-approve}. NOTE: If `value` is the maximum `uint256`, the allowance is not updated on `transferFrom`. This is semantically equivalent to an infinite approval. Requirements: - `spender` cannot be the zero address."
					},
					"balanceOf(address)": {
						"details": "See {IERC20-balanceOf}."
					},
					"calculateStakingReward(address)": {
						"params": {
							"user": "Address of the user"
						},
						"returns": {
							"_0": "The reward amount"
						}
					},
					"decimals()": {
						"details": "Returns the number of decimals used to get its user representation. For example, if `decimals` equals `2`, a balance of `505` tokens should be displayed to a user as `5.05` (`505 / 10 ** 2`). Tokens usually opt for a value of 18, imitating the relationship between Ether and Wei. This is the default value returned by this function, unless it's overridden. NOTE: This information is only used for _display_ purposes: it in no way affects any of the arithmetic of the contract, including {IERC20-balanceOf} and {IERC20-transfer}."
					},
					"getAccumulatedRewards(address)": {
						"params": {
							"user": "Address of the user"
						},
						"returns": {
							"_0": "The accumulated staking rewards"
						}
					},
					"getStakedBalance(address)": {
						"params": {
							"user": "Address of the user"
						},
						"returns": {
							"_0": "The amount of tokens staked by the user"
						}
					},
					"getStakingStartDate(address)": {
						"params": {
							"user": "Address of the user"
						},
						"returns": {
							"_0": "The timestamp when the user started staking"
						}
					},
					"name()": {
						"details": "Returns the name of the token."
					},
					"owner()": {
						"details": "Returns the address of the current owner."
					},
					"renounceOwnership()": {
						"details": "Leaves the contract without owner. It will not be possible to call `onlyOwner` functions. Can only be called by the current owner. NOTE: Renouncing ownership will leave the contract without an owner, thereby disabling any functionality that is only available to the owner."
					},
					"setStakingRewardRate(uint256)": {
						"params": {
							"_rewardRate": "The new annual staking reward rate"
						}
					},
					"stakeTokens(uint256)": {
						"params": {
							"amount": "Number of tokens to stake"
						}
					},
					"symbol()": {
						"details": "Returns the symbol of the token, usually a shorter version of the name."
					},
					"totalSupply()": {
						"details": "See {IERC20-totalSupply}."
					},
					"transfer(address,uint256)": {
						"details": "See {IERC20-transfer}. Requirements: - `to` cannot be the zero address. - the caller must have a balance of at least `value`."
					},
					"transferFrom(address,address,uint256)": {
						"details": "See {IERC20-transferFrom}. Skips emitting an {Approval} event indicating an allowance update. This is not required by the ERC. See {xref-ERC20-_approve-address-address-uint256-bool-}[_approve]. NOTE: Does not update the allowance if the current allowance is the maximum `uint256`. Requirements: - `from` and `to` cannot be the zero address. - `from` must have a balance of at least `value`. - the caller must have allowance for ``from``'s tokens of at least `value`."
					},
					"transferOwnership(address)": {
						"details": "Transfers ownership of the contract to a new account (`newOwner`). Can only be called by the current owner."
					}
				},
				"version": 1
			},
			"evm": {
				"assembly": "    /* \"contracts/SimpleToken.sol\":174:5605  contract TokenPreSale is ERC20, Ownable {... */\n  mstore(0x40, 0x80)\n    /* \"contracts/SimpleToken.sol\":1221:1824  constructor(address initialOwner, uint256 totalSupply, uint256 _initialPrice, uint256 _weeklyIncreaseRate, uint256 _regularSalePrice, uint256 _stakingRewardRate) ... */\n  callvalue\n  dup1\n  iszero\n  tag_1\n  jumpi\n  0x00\n  dup1\n  revert\ntag_1:\n  pop\n  mload(0x40)\n  sub(codesize, bytecodeSize)\n  dup1\n  bytecodeSize\n  dup4\n  codecopy\n  dup2\n  add\n  0x40\n  dup2\n  swap1\n  mstore\n  tag_2\n  swap2\n  tag_3\n  jump\t// in\ntag_2:\n    /* \"contracts/SimpleToken.sol\":1431:1443  initialOwner */\n  dup6\n    /* \"@openzeppelin/contracts/token/ERC20/ERC20.sol\":1601:1714  constructor(string memory name_, string memory symbol_) {... */\n  mload(0x40)\n  dup1\n  0x40\n  add\n  0x40\n  mstore\n  dup1\n  0x0b\n  dup2\n  mstore\n  0x20\n  add\n  shl(0xa9, 0x2730ba3ab932aa37b5b2b7)\n  dup2\n  mstore\n  pop\n  mload(0x40)\n  dup1\n  0x40\n  add\n  0x40\n  mstore\n  dup1\n  0x03\n  dup2\n  mstore\n  0x20\n  add\n  shl(0xe9, 0x272a29)\n  dup2\n  mstore\n  pop\n    /* \"@openzeppelin/contracts/token/ERC20/ERC20.sol\":1675:1680  name_ */\n  dup2\n    /* \"@openzeppelin/contracts/token/ERC20/ERC20.sol\":1667:1672  _name */\n  0x03\n    /* \"@openzeppelin/contracts/token/ERC20/ERC20.sol\":1667:1680  _name = name_ */\n  swap1\n  dup2\n  tag_8\n  swap2\n  swap1\n  tag_9\n  jump\t// in\ntag_8:\n  pop\n    /* \"@openzeppelin/contracts/token/ERC20/ERC20.sol\":1690:1697  _symbol */\n  0x04\n    /* \"@openzeppelin/contracts/token/ERC20/ERC20.sol\":1690:1707  _symbol = symbol_ */\n  tag_10\n    /* \"@openzeppelin/contracts/token/ERC20/ERC20.sol\":1700:1707  symbol_ */\n  dup3\n    /* \"@openzeppelin/contracts/token/ERC20/ERC20.sol\":1690:1697  _symbol */\n  dup3\n    /* \"@openzeppelin/contracts/token/ERC20/ERC20.sol\":1690:1707  _symbol = symbol_ */\n  tag_9\n  jump\t// in\ntag_10:\n  pop\n  pop\n  pop\n  sub(shl(0xa0, 0x01), 0x01)\n    /* \"@openzeppelin/contracts/access/Ownable.sol\":1273:1299  initialOwner == address(0) */\n  dup2\n  and\n    /* \"@openzeppelin/contracts/access/Ownable.sol\":1269:1364  if (initialOwner == address(0)) {... */\n  tag_12\n  jumpi\n    /* \"@openzeppelin/contracts/access/Ownable.sol\":1322:1353  OwnableInvalidOwner(address(0)) */\n  mload(0x40)\n  shl(0xe0, 0x1e4fbdf7)\n  dup2\n  mstore\n    /* \"@openzeppelin/contracts/access/Ownable.sol\":1350:1351  0 */\n  0x00\n    /* \"@openzeppelin/contracts/access/Ownable.sol\":1322:1353  OwnableInvalidOwner(address(0)) */\n  0x04\n  dup3\n  add\n    /* \"#utility.yul\":3664:3715   */\n  mstore\n    /* \"#utility.yul\":3637:3655   */\n  0x24\n  add\n    /* \"@openzeppelin/contracts/access/Ownable.sol\":1322:1353  OwnableInvalidOwner(address(0)) */\ntag_13:\n  mload(0x40)\n  dup1\n  swap2\n  sub\n  swap1\n  revert\n    /* \"@openzeppelin/contracts/access/Ownable.sol\":1269:1364  if (initialOwner == address(0)) {... */\ntag_12:\n    /* \"@openzeppelin/contracts/access/Ownable.sol\":1373:1405  _transferOwnership(initialOwner) */\n  tag_15\n    /* \"@openzeppelin/contracts/access/Ownable.sol\":1392:1404  initialOwner */\n  dup2\n    /* \"@openzeppelin/contracts/access/Ownable.sol\":1373:1391  _transferOwnership */\n  tag_16\n    /* \"@openzeppelin/contracts/access/Ownable.sol\":1373:1405  _transferOwnership(initialOwner) */\n  jump\t// in\ntag_15:\n  pop\n    /* \"contracts/SimpleToken.sol\":1462:1514  _mint(address(this), totalSupply * 10 ** decimals()) */\n  tag_18\n    /* \"contracts/SimpleToken.sol\":1476:1480  this */\n  address\n    /* \"contracts/SimpleToken.sol\":1497:1513  10 ** decimals() */\n  tag_21\n    /* \"@openzeppelin/contracts/token/ERC20/ERC20.sol\":2780:2782  18 */\n  0x12\n    /* \"contracts/SimpleToken.sol\":1497:1499  10 */\n  0x0a\n    /* \"contracts/SimpleToken.sol\":1497:1513  10 ** decimals() */\n  tag_22\n  jump\t// in\ntag_21:\n    /* \"contracts/SimpleToken.sol\":1483:1513  totalSupply * 10 ** decimals() */\n  tag_23\n  swap1\n    /* \"contracts/SimpleToken.sol\":1483:1494  totalSupply */\n  dup9\n    /* \"contracts/SimpleToken.sol\":1483:1513  totalSupply * 10 ** decimals() */\n  tag_24\n  jump\t// in\ntag_23:\n    /* \"contracts/SimpleToken.sol\":1462:1467  _mint */\n  tag_25\n    /* \"contracts/SimpleToken.sol\":1462:1514  _mint(address(this), totalSupply * 10 ** decimals()) */\n  jump\t// in\ntag_18:\n    /* \"contracts/SimpleToken.sol\":1572:1584  initialPrice */\n  0x08\n    /* \"contracts/SimpleToken.sol\":1572:1600  initialPrice = _initialPrice */\n  swap4\n  swap1\n  swap4\n  sstore\n    /* \"contracts/SimpleToken.sol\":1611:1629  weeklyIncreaseRate */\n  0x0a\n    /* \"contracts/SimpleToken.sol\":1611:1651  weeklyIncreaseRate = _weeklyIncreaseRate */\n  swap2\n  swap1\n  swap2\n  sstore\n    /* \"contracts/SimpleToken.sol\":1662:1678  regularSalePrice */\n  0x09\n    /* \"contracts/SimpleToken.sol\":1662:1698  regularSalePrice = _regularSalePrice */\n  sstore\n    /* \"contracts/SimpleToken.sol\":1740:1757  stakingRewardRate */\n  0x0c\n    /* \"contracts/SimpleToken.sol\":1740:1778  stakingRewardRate = _stakingRewardRate */\n  sstore\n  pop\n    /* \"contracts/SimpleToken.sol\":174:5605  contract TokenPreSale is ERC20, Ownable {... */\n  tag_54\n  swap1\n  pop\n  jump\n    /* \"@openzeppelin/contracts/access/Ownable.sol\":2912:3099  function _transferOwnership(address newOwner) internal virtual {... */\ntag_16:\n    /* \"@openzeppelin/contracts/access/Ownable.sol\":3004:3010  _owner */\n  0x05\n  dup1\n  sload\n  sub(shl(0xa0, 0x01), 0x01)\n    /* \"@openzeppelin/contracts/access/Ownable.sol\":3020:3037  _owner = newOwner */\n  dup4\n  dup2\n  and\n  not(sub(shl(0xa0, 0x01), 0x01))\n  dup4\n  and\n  dup2\n  or\n  swap1\n  swap4\n  sstore\n    /* \"@openzeppelin/contracts/access/Ownable.sol\":3052:3092  OwnershipTransferred(oldOwner, newOwner) */\n  mload(0x40)\n    /* \"@openzeppelin/contracts/access/Ownable.sol\":3004:3010  _owner */\n  swap2\n  and\n  swap2\n    /* \"@openzeppelin/contracts/access/Ownable.sol\":3020:3037  _owner = newOwner */\n  swap1\n    /* \"@openzeppelin/contracts/access/Ownable.sol\":3004:3010  _owner */\n  dup3\n  swap1\n    /* \"@openzeppelin/contracts/access/Ownable.sol\":3052:3092  OwnershipTransferred(oldOwner, newOwner) */\n  0x8be0079c531659141344cd1fd0a4f28419497f9722a3daafe3b4186f6b6457e0\n  swap1\n    /* \"@openzeppelin/contracts/access/Ownable.sol\":2985:3001  address oldOwner */\n  0x00\n  swap1\n    /* \"@openzeppelin/contracts/access/Ownable.sol\":3052:3092  OwnershipTransferred(oldOwner, newOwner) */\n  log3\n    /* \"@openzeppelin/contracts/access/Ownable.sol\":2975:3099  {... */\n  pop\n    /* \"@openzeppelin/contracts/access/Ownable.sol\":2912:3099  function _transferOwnership(address newOwner) internal virtual {... */\n  pop\n  jump\t// out\n    /* \"@openzeppelin/contracts/token/ERC20/ERC20.sol\":7458:7666  function _mint(address account, uint256 value) internal {... */\ntag_25:\n  sub(shl(0xa0, 0x01), 0x01)\n    /* \"@openzeppelin/contracts/token/ERC20/ERC20.sol\":7528:7549  account == address(0) */\n  dup3\n  and\n    /* \"@openzeppelin/contracts/token/ERC20/ERC20.sol\":7524:7615  if (account == address(0)) {... */\n  tag_30\n  jumpi\n    /* \"@openzeppelin/contracts/token/ERC20/ERC20.sol\":7572:7604  ERC20InvalidReceiver(address(0)) */\n  mload(0x40)\n  shl(0xe0, 0xec442f05)\n  dup2\n  mstore\n    /* \"@openzeppelin/contracts/token/ERC20/ERC20.sol\":7601:7602  0 */\n  0x00\n    /* \"@openzeppelin/contracts/token/ERC20/ERC20.sol\":7572:7604  ERC20InvalidReceiver(address(0)) */\n  0x04\n  dup3\n  add\n    /* \"#utility.yul\":3664:3715   */\n  mstore\n    /* \"#utility.yul\":3637:3655   */\n  0x24\n  add\n    /* \"@openzeppelin/contracts/token/ERC20/ERC20.sol\":7572:7604  ERC20InvalidReceiver(address(0)) */\n  tag_13\n    /* \"#utility.yul\":3518:3721   */\n  jump\n    /* \"@openzeppelin/contracts/token/ERC20/ERC20.sol\":7524:7615  if (account == address(0)) {... */\ntag_30:\n    /* \"@openzeppelin/contracts/token/ERC20/ERC20.sol\":7624:7659  _update(address(0), account, value) */\n  tag_32\n    /* \"@openzeppelin/contracts/token/ERC20/ERC20.sol\":7640:7641  0 */\n  0x00\n    /* \"@openzeppelin/contracts/token/ERC20/ERC20.sol\":7644:7651  account */\n  dup4\n    /* \"@openzeppelin/contracts/token/ERC20/ERC20.sol\":7653:7658  value */\n  dup4\n    /* \"@openzeppelin/contracts/token/ERC20/ERC20.sol\":7624:7631  _update */\n  tag_33\n    /* \"@openzeppelin/contracts/token/ERC20/ERC20.sol\":7624:7659  _update(address(0), account, value) */\n  jump\t// in\ntag_32:\n    /* \"@openzeppelin/contracts/token/ERC20/ERC20.sol\":7458:7666  function _mint(address account, uint256 value) internal {... */\n  pop\n  pop\n  jump\t// out\n    /* \"@openzeppelin/contracts/token/ERC20/ERC20.sol\":6008:7115  function _update(address from, address to, uint256 value) internal virtual {... */\ntag_33:\n  sub(shl(0xa0, 0x01), 0x01)\n    /* \"@openzeppelin/contracts/token/ERC20/ERC20.sol\":6097:6115  from == address(0) */\n  dup4\n  and\n    /* \"@openzeppelin/contracts/token/ERC20/ERC20.sol\":6093:6633  if (from == address(0)) {... */\n  tag_35\n  jumpi\n    /* \"@openzeppelin/contracts/token/ERC20/ERC20.sol\":6249:6254  value */\n  dup1\n    /* \"@openzeppelin/contracts/token/ERC20/ERC20.sol\":6233:6245  _totalSupply */\n  0x02\n  0x00\n    /* \"@openzeppelin/contracts/token/ERC20/ERC20.sol\":6233:6254  _totalSupply += value */\n  dup3\n  dup3\n  sload\n  tag_36\n  swap2\n  swap1\n  tag_37\n  jump\t// in\ntag_36:\n  swap1\n  swap2\n  sstore\n  pop\n    /* \"@openzeppelin/contracts/token/ERC20/ERC20.sol\":6093:6633  if (from == address(0)) {... */\n  tag_38\n  swap1\n  pop\n  jump\ntag_35:\n  sub(shl(0xa0, 0x01), 0x01)\n    /* \"@openzeppelin/contracts/token/ERC20/ERC20.sol\":6307:6322  _balances[from] */\n  dup4\n  and\n    /* \"@openzeppelin/contracts/token/ERC20/ERC20.sol\":6285:6304  uint256 fromBalance */\n  0x00\n    /* \"@openzeppelin/contracts/token/ERC20/ERC20.sol\":6307:6322  _balances[from] */\n  swap1\n  dup2\n  mstore\n  0x20\n  dup2\n  swap1\n  mstore\n  0x40\n  swap1\n  keccak256\n  sload\n    /* \"@openzeppelin/contracts/token/ERC20/ERC20.sol\":6340:6359  fromBalance < value */\n  dup2\n  dup2\n  lt\n    /* \"@openzeppelin/contracts/token/ERC20/ERC20.sol\":6336:6451  if (fromBalance < value) {... */\n  iszero\n  tag_39\n  jumpi\n    /* \"@openzeppelin/contracts/token/ERC20/ERC20.sol\":6386:6436  ERC20InsufficientBalance(from, fromBalance, value) */\n  mload(0x40)\n  shl(0xe2, 0x391434e3)\n  dup2\n  mstore\n  sub(shl(0xa0, 0x01), 0x01)\n    /* \"#utility.yul\":5813:5845   */\n  dup6\n  and\n    /* \"@openzeppelin/contracts/token/ERC20/ERC20.sol\":6386:6436  ERC20InsufficientBalance(from, fromBalance, value) */\n  0x04\n  dup3\n  add\n    /* \"#utility.yul\":5795:5846   */\n  mstore\n    /* \"#utility.yul\":5862:5880   */\n  0x24\n  dup2\n  add\n    /* \"#utility.yul\":5855:5889   */\n  dup3\n  swap1\n  mstore\n    /* \"#utility.yul\":5905:5923   */\n  0x44\n  dup2\n  add\n    /* \"#utility.yul\":5898:5932   */\n  dup4\n  swap1\n  mstore\n    /* \"#utility.yul\":5768:5786   */\n  0x64\n  add\n    /* \"@openzeppelin/contracts/token/ERC20/ERC20.sol\":6386:6436  ERC20InsufficientBalance(from, fromBalance, value) */\n  tag_13\n    /* \"#utility.yul\":5593:5938   */\n  jump\n    /* \"@openzeppelin/contracts/token/ERC20/ERC20.sol\":6336:6451  if (fromBalance < value) {... */\ntag_39:\n  sub(shl(0xa0, 0x01), 0x01)\n    /* \"@openzeppelin/contracts/token/ERC20/ERC20.sol\":6571:6586  _balances[from] */\n  dup5\n  and\n    /* \"@openzeppelin/contracts/token/ERC20/ERC20.sol\":6571:6580  _balances */\n  0x00\n    /* \"@openzeppelin/contracts/token/ERC20/ERC20.sol\":6571:6586  _balances[from] */\n  swap1\n  dup2\n  mstore\n  0x20\n  dup2\n  swap1\n  mstore\n  0x40\n  swap1\n  keccak256\n    /* \"@openzeppelin/contracts/token/ERC20/ERC20.sol\":6589:6608  fromBalance - value */\n  swap1\n  dup3\n  swap1\n  sub\n    /* \"@openzeppelin/contracts/token/ERC20/ERC20.sol\":6571:6608  _balances[from] = fromBalance - value */\n  swap1\n  sstore\n    /* \"@openzeppelin/contracts/token/ERC20/ERC20.sol\":6093:6633  if (from == address(0)) {... */\ntag_38:\n  sub(shl(0xa0, 0x01), 0x01)\n    /* \"@openzeppelin/contracts/token/ERC20/ERC20.sol\":6647:6663  to == address(0) */\n  dup3\n  and\n    /* \"@openzeppelin/contracts/token/ERC20/ERC20.sol\":6643:7068  if (to == address(0)) {... */\n  tag_42\n  jumpi\n    /* \"@openzeppelin/contracts/token/ERC20/ERC20.sol\":6810:6822  _totalSupply */\n  0x02\n    /* \"@openzeppelin/contracts/token/ERC20/ERC20.sol\":6810:6831  _totalSupply -= value */\n  dup1\n  sload\n  dup3\n  swap1\n  sub\n  swap1\n  sstore\n    /* \"@openzeppelin/contracts/token/ERC20/ERC20.sol\":6643:7068  if (to == address(0)) {... */\n  jump(tag_43)\ntag_42:\n  sub(shl(0xa0, 0x01), 0x01)\n    /* \"@openzeppelin/contracts/token/ERC20/ERC20.sol\":7021:7034  _balances[to] */\n  dup3\n  and\n    /* \"@openzeppelin/contracts/token/ERC20/ERC20.sol\":7021:7030  _balances */\n  0x00\n    /* \"@openzeppelin/contracts/token/ERC20/ERC20.sol\":7021:7034  _balances[to] */\n  swap1\n  dup2\n  mstore\n  0x20\n  dup2\n  swap1\n  mstore\n  0x40\n  swap1\n  keccak256\n    /* \"@openzeppelin/contracts/token/ERC20/ERC20.sol\":7021:7043  _balances[to] += value */\n  dup1\n  sload\n  dup3\n  add\n  swap1\n  sstore\n    /* \"@openzeppelin/contracts/token/ERC20/ERC20.sol\":6643:7068  if (to == address(0)) {... */\ntag_43:\n    /* \"@openzeppelin/contracts/token/ERC20/ERC20.sol\":7098:7100  to */\n  dup2\n  sub(shl(0xa0, 0x01), 0x01)\n    /* \"@openzeppelin/contracts/token/ERC20/ERC20.sol\":7083:7108  Transfer(from, to, value) */\n  and\n    /* \"@openzeppelin/contracts/token/ERC20/ERC20.sol\":7092:7096  from */\n  dup4\n  sub(shl(0xa0, 0x01), 0x01)\n    /* \"@openzeppelin/contracts/token/ERC20/ERC20.sol\":7083:7108  Transfer(from, to, value) */\n  and\n  0xddf252ad1be2c89b69c2b068fc378daa952ba7f163c4a11628f55a4df523b3ef\n    /* \"@openzeppelin/contracts/token/ERC20/ERC20.sol\":7102:7107  value */\n  dup4\n    /* \"@openzeppelin/contracts/token/ERC20/ERC20.sol\":7083:7108  Transfer(from, to, value) */\n  mload(0x40)\n  tag_44\n  swap2\n    /* \"#utility.yul\":6089:6114   */\n  dup2\n  mstore\n    /* \"#utility.yul\":6077:6079   */\n  0x20\n    /* \"#utility.yul\":6062:6080   */\n  add\n  swap1\n    /* \"#utility.yul\":5943:6120   */\n  jump\n    /* \"@openzeppelin/contracts/token/ERC20/ERC20.sol\":7083:7108  Transfer(from, to, value) */\ntag_44:\n  mload(0x40)\n  dup1\n  swap2\n  sub\n  swap1\n  log3\n    /* \"@openzeppelin/contracts/token/ERC20/ERC20.sol\":6008:7115  function _update(address from, address to, uint256 value) internal virtual {... */\n  pop\n  pop\n  pop\n  jump\t// out\n    /* \"#utility.yul\":14:872   */\ntag_3:\n    /* \"#utility.yul\":129:135   */\n  0x00\n    /* \"#utility.yul\":137:143   */\n  dup1\n    /* \"#utility.yul\":145:151   */\n  0x00\n    /* \"#utility.yul\":153:159   */\n  dup1\n    /* \"#utility.yul\":161:167   */\n  0x00\n    /* \"#utility.yul\":169:175   */\n  dup1\n    /* \"#utility.yul\":222:225   */\n  0xc0\n    /* \"#utility.yul\":210:219   */\n  dup8\n    /* \"#utility.yul\":201:208   */\n  dup10\n    /* \"#utility.yul\":197:220   */\n  sub\n    /* \"#utility.yul\":193:226   */\n  slt\n    /* \"#utility.yul\":190:243   */\n  iszero\n  tag_56\n  jumpi\n    /* \"#utility.yul\":239:240   */\n  0x00\n    /* \"#utility.yul\":236:237   */\n  dup1\n    /* \"#utility.yul\":229:241   */\n  revert\n    /* \"#utility.yul\":190:243   */\ntag_56:\n    /* \"#utility.yul\":265:281   */\n  dup7\n  mload\n  sub(shl(0xa0, 0x01), 0x01)\n    /* \"#utility.yul\":310:341   */\n  dup2\n  and\n    /* \"#utility.yul\":300:342   */\n  dup2\n  eq\n    /* \"#utility.yul\":290:360   */\n  tag_57\n  jumpi\n    /* \"#utility.yul\":356:357   */\n  0x00\n    /* \"#utility.yul\":353:354   */\n  dup1\n    /* \"#utility.yul\":346:358   */\n  revert\n    /* \"#utility.yul\":290:360   */\ntag_57:\n    /* \"#utility.yul\":450:452   */\n  0x20\n    /* \"#utility.yul\":435:453   */\n  dup9\n  add\n    /* \"#utility.yul\":429:454   */\n  mload\n    /* \"#utility.yul\":546:548   */\n  0x40\n    /* \"#utility.yul\":531:549   */\n  dup10\n  add\n    /* \"#utility.yul\":525:550   */\n  mload\n    /* \"#utility.yul\":642:644   */\n  0x60\n    /* \"#utility.yul\":627:645   */\n  dup11\n  add\n    /* \"#utility.yul\":621:646   */\n  mload\n    /* \"#utility.yul\":738:741   */\n  0x80\n    /* \"#utility.yul\":723:742   */\n  dup12\n  add\n    /* \"#utility.yul\":717:743   */\n  mload\n    /* \"#utility.yul\":835:838   */\n  0xa0\n    /* \"#utility.yul\":820:839   */\n  swap1\n  swap12\n  add\n    /* \"#utility.yul\":814:840   */\n  mload\n    /* \"#utility.yul\":379:384   */\n  swap4\n  swap13\n    /* \"#utility.yul\":429:454   */\n  swap3\n  swap12\n  pop\n    /* \"#utility.yul\":525:550   */\n  swap1\n  swap10\n    /* \"#utility.yul\":621:646   */\n  swap1\n  swap9\n  pop\n    /* \"#utility.yul\":717:743   */\n  swap7\n  pop\n    /* \"#utility.yul\":814:840   */\n  swap1\n  swap5\n  pop\n    /* \"#utility.yul\":14:872   */\n  swap3\n  pop\n  pop\n  pop\n  jump\t// out\n    /* \"#utility.yul\":877:1004   */\ntag_46:\n    /* \"#utility.yul\":938:948   */\n  0x4e487b71\n    /* \"#utility.yul\":933:936   */\n  0xe0\n    /* \"#utility.yul\":929:949   */\n  shl\n    /* \"#utility.yul\":926:927   */\n  0x00\n    /* \"#utility.yul\":919:950   */\n  mstore\n    /* \"#utility.yul\":969:973   */\n  0x41\n    /* \"#utility.yul\":966:967   */\n  0x04\n    /* \"#utility.yul\":959:974   */\n  mstore\n    /* \"#utility.yul\":993:997   */\n  0x24\n    /* \"#utility.yul\":990:991   */\n  0x00\n    /* \"#utility.yul\":983:998   */\n  revert\n    /* \"#utility.yul\":1009:1389   */\ntag_47:\n    /* \"#utility.yul\":1088:1089   */\n  0x01\n    /* \"#utility.yul\":1084:1096   */\n  dup2\n  dup2\n  shr\n  swap1\n    /* \"#utility.yul\":1131:1143   */\n  dup3\n  and\n  dup1\n    /* \"#utility.yul\":1152:1213   */\n  tag_60\n  jumpi\n    /* \"#utility.yul\":1206:1210   */\n  0x7f\n    /* \"#utility.yul\":1198:1204   */\n  dup3\n    /* \"#utility.yul\":1194:1211   */\n  and\n    /* \"#utility.yul\":1184:1211   */\n  swap2\n  pop\n    /* \"#utility.yul\":1152:1213   */\ntag_60:\n    /* \"#utility.yul\":1259:1261   */\n  0x20\n    /* \"#utility.yul\":1251:1257   */\n  dup3\n    /* \"#utility.yul\":1248:1262   */\n  lt\n    /* \"#utility.yul\":1228:1246   */\n  dup2\n    /* \"#utility.yul\":1225:1263   */\n  sub\n    /* \"#utility.yul\":1222:1383   */\n  tag_61\n  jumpi\n    /* \"#utility.yul\":1305:1315   */\n  0x4e487b71\n    /* \"#utility.yul\":1300:1303   */\n  0xe0\n    /* \"#utility.yul\":1296:1316   */\n  shl\n    /* \"#utility.yul\":1293:1294   */\n  0x00\n    /* \"#utility.yul\":1286:1317   */\n  mstore\n    /* \"#utility.yul\":1340:1344   */\n  0x22\n    /* \"#utility.yul\":1337:1338   */\n  0x04\n    /* \"#utility.yul\":1330:1345   */\n  mstore\n    /* \"#utility.yul\":1368:1372   */\n  0x24\n    /* \"#utility.yul\":1365:1366   */\n  0x00\n    /* \"#utility.yul\":1358:1373   */\n  revert\n    /* \"#utility.yul\":1222:1383   */\ntag_61:\n  pop\n    /* \"#utility.yul\":1009:1389   */\n  swap2\n  swap1\n  pop\n  jump\t// out\n    /* \"#utility.yul\":1520:2038   */\ntag_49:\n    /* \"#utility.yul\":1622:1624   */\n  0x1f\n    /* \"#utility.yul\":1617:1620   */\n  dup3\n    /* \"#utility.yul\":1614:1625   */\n  gt\n    /* \"#utility.yul\":1611:2032   */\n  iszero\n  tag_64\n  jumpi\n    /* \"#utility.yul\":1658:1663   */\n  dup1\n    /* \"#utility.yul\":1655:1656   */\n  0x00\n    /* \"#utility.yul\":1648:1664   */\n  mstore\n    /* \"#utility.yul\":1702:1706   */\n  0x20\n    /* \"#utility.yul\":1699:1700   */\n  0x00\n    /* \"#utility.yul\":1689:1707   */\n  keccak256\n    /* \"#utility.yul\":1772:1774   */\n  0x1f\n    /* \"#utility.yul\":1760:1770   */\n  dup5\n    /* \"#utility.yul\":1756:1775   */\n  add\n    /* \"#utility.yul\":1753:1754   */\n  0x05\n    /* \"#utility.yul\":1749:1776   */\n  shr\n    /* \"#utility.yul\":1743:1747   */\n  dup2\n    /* \"#utility.yul\":1739:1777   */\n  add\n    /* \"#utility.yul\":1808:1812   */\n  0x20\n    /* \"#utility.yul\":1796:1806   */\n  dup6\n    /* \"#utility.yul\":1793:1813   */\n  lt\n    /* \"#utility.yul\":1790:1837   */\n  iszero\n  tag_65\n  jumpi\n  pop\n    /* \"#utility.yul\":1831:1835   */\n  dup1\n    /* \"#utility.yul\":1790:1837   */\ntag_65:\n    /* \"#utility.yul\":1886:1888   */\n  0x1f\n    /* \"#utility.yul\":1881:1884   */\n  dup5\n    /* \"#utility.yul\":1877:1889   */\n  add\n    /* \"#utility.yul\":1874:1875   */\n  0x05\n    /* \"#utility.yul\":1870:1890   */\n  shr\n    /* \"#utility.yul\":1864:1868   */\n  dup3\n    /* \"#utility.yul\":1860:1891   */\n  add\n    /* \"#utility.yul\":1850:1891   */\n  swap2\n  pop\n    /* \"#utility.yul\":1941:2022   */\ntag_66:\n    /* \"#utility.yul\":1959:1961   */\n  dup2\n    /* \"#utility.yul\":1952:1957   */\n  dup2\n    /* \"#utility.yul\":1949:1962   */\n  lt\n    /* \"#utility.yul\":1941:2022   */\n  iszero\n  tag_68\n  jumpi\n    /* \"#utility.yul\":2018:2019   */\n  0x00\n    /* \"#utility.yul\":2004:2020   */\n  dup2\n  sstore\n    /* \"#utility.yul\":1985:1986   */\n  0x01\n    /* \"#utility.yul\":1974:1987   */\n  add\n    /* \"#utility.yul\":1941:2022   */\n  jump(tag_66)\ntag_68:\n    /* \"#utility.yul\":1945:1948   */\n  pop\n  pop\n    /* \"#utility.yul\":1611:2032   */\ntag_64:\n    /* \"#utility.yul\":1520:2038   */\n  pop\n  pop\n  pop\n  jump\t// out\n    /* \"#utility.yul\":2214:3513   */\ntag_9:\n    /* \"#utility.yul\":2334:2344   */\n  dup2\n  mload\n  sub(shl(0x40, 0x01), 0x01)\n    /* \"#utility.yul\":2356:2386   */\n  dup2\n  gt\n    /* \"#utility.yul\":2353:2409   */\n  iszero\n  tag_72\n  jumpi\n    /* \"#utility.yul\":2389:2407   */\n  tag_72\n  tag_46\n  jump\t// in\ntag_72:\n    /* \"#utility.yul\":2418:2515   */\n  tag_73\n    /* \"#utility.yul\":2508:2514   */\n  dup2\n    /* \"#utility.yul\":2468:2506   */\n  tag_74\n    /* \"#utility.yul\":2500:2504   */\n  dup5\n    /* \"#utility.yul\":2494:2505   */\n  sload\n    /* \"#utility.yul\":2468:2506   */\n  tag_47\n  jump\t// in\ntag_74:\n    /* \"#utility.yul\":2462:2466   */\n  dup5\n    /* \"#utility.yul\":2418:2515   */\n  tag_49\n  jump\t// in\ntag_73:\n    /* \"#utility.yul\":2564:2568   */\n  0x20\n    /* \"#utility.yul\":2595:2597   */\n  0x1f\n    /* \"#utility.yul\":2584:2598   */\n  dup3\n  gt\n    /* \"#utility.yul\":2612:2613   */\n  0x01\n    /* \"#utility.yul\":2607:3256   */\n  dup2\n  eq\n  tag_76\n  jumpi\n    /* \"#utility.yul\":3300:3301   */\n  0x00\n    /* \"#utility.yul\":3317:3323   */\n  dup4\n    /* \"#utility.yul\":3314:3403   */\n  iszero\n  tag_77\n  jumpi\n  pop\n    /* \"#utility.yul\":3369:3388   */\n  dup5\n  dup3\n  add\n    /* \"#utility.yul\":3363:3389   */\n  mload\n    /* \"#utility.yul\":3314:3403   */\ntag_77:\n  not(0x00)\n    /* \"#utility.yul\":2171:2172   */\n  0x03\n    /* \"#utility.yul\":2167:2178   */\n  dup6\n  swap1\n  shl\n    /* \"#utility.yul\":2163:2187   */\n  shr\n    /* \"#utility.yul\":2159:2188   */\n  not\n    /* \"#utility.yul\":2149:2189   */\n  and\n    /* \"#utility.yul\":2195:2196   */\n  0x01\n    /* \"#utility.yul\":2191:2202   */\n  dup5\n  swap1\n  shl\n    /* \"#utility.yul\":2146:2203   */\n  or\n    /* \"#utility.yul\":3416:3497   */\n  dup5\n  sstore\n    /* \"#utility.yul\":2577:3507   */\n  jump(tag_68)\n    /* \"#utility.yul\":2607:3256   */\ntag_76:\n    /* \"#utility.yul\":1467:1468   */\n  0x00\n    /* \"#utility.yul\":1460:1474   */\n  dup5\n  dup2\n  mstore\n    /* \"#utility.yul\":1504:1508   */\n  0x20\n    /* \"#utility.yul\":1491:1509   */\n  dup2\n  keccak256\n  not(0x1f)\n    /* \"#utility.yul\":2643:2663   */\n  dup6\n  and\n  swap2\n    /* \"#utility.yul\":2761:2983   */\ntag_80:\n    /* \"#utility.yul\":2775:2782   */\n  dup3\n    /* \"#utility.yul\":2772:2773   */\n  dup2\n    /* \"#utility.yul\":2769:2783   */\n  lt\n    /* \"#utility.yul\":2761:2983   */\n  iszero\n  tag_82\n  jumpi\n    /* \"#utility.yul\":2857:2876   */\n  dup8\n  dup6\n  add\n    /* \"#utility.yul\":2851:2877   */\n  mload\n    /* \"#utility.yul\":2836:2878   */\n  dup3\n  sstore\n    /* \"#utility.yul\":2964:2968   */\n  0x20\n    /* \"#utility.yul\":2949:2969   */\n  swap5\n  dup6\n  add\n  swap5\n    /* \"#utility.yul\":2917:2918   */\n  0x01\n    /* \"#utility.yul\":2905:2919   */\n  swap1\n  swap3\n  add\n  swap2\n    /* \"#utility.yul\":2791:2803   */\n  add\n    /* \"#utility.yul\":2761:2983   */\n  jump(tag_80)\ntag_82:\n    /* \"#utility.yul\":2765:2768   */\n  pop\n    /* \"#utility.yul\":3011:3017   */\n  dup5\n    /* \"#utility.yul\":3002:3009   */\n  dup3\n    /* \"#utility.yul\":2999:3018   */\n  lt\n    /* \"#utility.yul\":2996:3197   */\n  iszero\n  tag_83\n  jumpi\n    /* \"#utility.yul\":3072:3091   */\n  dup7\n  dup5\n  add\n    /* \"#utility.yul\":3066:3092   */\n  mload\n  not(0x00)\n    /* \"#utility.yul\":3155:3156   */\n  0x03\n    /* \"#utility.yul\":3151:3165   */\n  dup8\n  swap1\n  shl\n    /* \"#utility.yul\":3167:3170   */\n  0xf8\n    /* \"#utility.yul\":3147:3171   */\n  and\n    /* \"#utility.yul\":3143:3180   */\n  shr\n    /* \"#utility.yul\":3139:3181   */\n  not\n    /* \"#utility.yul\":3124:3182   */\n  and\n    /* \"#utility.yul\":3109:3183   */\n  dup2\n  sstore\n    /* \"#utility.yul\":2996:3197   */\ntag_83:\n  pop\n  pop\n  pop\n  pop\n    /* \"#utility.yul\":3243:3244   */\n  0x01\n    /* \"#utility.yul\":3227:3241   */\n  swap1\n  dup2\n  shl\n    /* \"#utility.yul\":3223:3245   */\n  add\n    /* \"#utility.yul\":3210:3246   */\n  swap1\n  sstore\n  pop\n    /* \"#utility.yul\":2214:3513   */\n  jump\t// out\n    /* \"#utility.yul\":3726:3853   */\ntag_51:\n    /* \"#utility.yul\":3787:3797   */\n  0x4e487b71\n    /* \"#utility.yul\":3782:3785   */\n  0xe0\n    /* \"#utility.yul\":3778:3798   */\n  shl\n    /* \"#utility.yul\":3775:3776   */\n  0x00\n    /* \"#utility.yul\":3768:3799   */\n  mstore\n    /* \"#utility.yul\":3818:3822   */\n  0x11\n    /* \"#utility.yul\":3815:3816   */\n  0x04\n    /* \"#utility.yul\":3808:3823   */\n  mstore\n    /* \"#utility.yul\":3842:3846   */\n  0x24\n    /* \"#utility.yul\":3839:3840   */\n  0x00\n    /* \"#utility.yul\":3832:3847   */\n  revert\n    /* \"#utility.yul\":3858:4233   */\ntag_52:\n    /* \"#utility.yul\":3946:3947   */\n  0x01\n    /* \"#utility.yul\":3964:3969   */\n  dup2\n    /* \"#utility.yul\":3978:4227   */\ntag_87:\n    /* \"#utility.yul\":3999:4000   */\n  0x01\n    /* \"#utility.yul\":3989:3997   */\n  dup5\n    /* \"#utility.yul\":3986:4001   */\n  gt\n    /* \"#utility.yul\":3978:4227   */\n  iszero\n  tag_89\n  jumpi\n    /* \"#utility.yul\":4049:4053   */\n  dup1\n    /* \"#utility.yul\":4044:4047   */\n  dup6\n    /* \"#utility.yul\":4040:4054   */\n  div\n    /* \"#utility.yul\":4034:4038   */\n  dup2\n    /* \"#utility.yul\":4031:4055   */\n  gt\n    /* \"#utility.yul\":4028:4078   */\n  iszero\n  tag_91\n  jumpi\n    /* \"#utility.yul\":4058:4076   */\n  tag_91\n  tag_51\n  jump\t// in\ntag_91:\n    /* \"#utility.yul\":4108:4109   */\n  0x01\n    /* \"#utility.yul\":4098:4106   */\n  dup5\n    /* \"#utility.yul\":4094:4110   */\n  and\n    /* \"#utility.yul\":4091:4140   */\n  iszero\n  tag_92\n  jumpi\n    /* \"#utility.yul\":4122:4138   */\n  swap1\n  dup2\n  mul\n  swap1\n    /* \"#utility.yul\":4091:4140   */\ntag_92:\n    /* \"#utility.yul\":4205:4206   */\n  0x01\n    /* \"#utility.yul\":4201:4217   */\n  swap4\n  swap1\n  swap4\n  shr\n  swap3\n    /* \"#utility.yul\":4161:4176   */\n  dup1\n  mul\n    /* \"#utility.yul\":3978:4227   */\n  jump(tag_87)\ntag_89:\n    /* \"#utility.yul\":3858:4233   */\n  swap4\n  pop\n  swap4\n  swap2\n  pop\n  pop\n  jump\t// out\n    /* \"#utility.yul\":4238:5140   */\ntag_53:\n    /* \"#utility.yul\":4287:4292   */\n  0x00\n    /* \"#utility.yul\":4317:4325   */\n  dup3\n    /* \"#utility.yul\":4307:4387   */\n  tag_94\n  jumpi\n  pop\n    /* \"#utility.yul\":4358:4359   */\n  0x01\n    /* \"#utility.yul\":4372:4377   */\n  jump(tag_93)\n    /* \"#utility.yul\":4307:4387   */\ntag_94:\n    /* \"#utility.yul\":4406:4410   */\n  dup2\n    /* \"#utility.yul\":4396:4472   */\n  tag_95\n  jumpi\n  pop\n    /* \"#utility.yul\":4443:4444   */\n  0x00\n    /* \"#utility.yul\":4457:4462   */\n  jump(tag_93)\n    /* \"#utility.yul\":4396:4472   */\ntag_95:\n    /* \"#utility.yul\":4488:4492   */\n  dup2\n    /* \"#utility.yul\":4506:4507   */\n  0x01\n    /* \"#utility.yul\":4501:4560   */\n  dup2\n  eq\n  tag_97\n  jumpi\n    /* \"#utility.yul\":4574:4575   */\n  0x02\n    /* \"#utility.yul\":4569:4743   */\n  dup2\n  eq\n  tag_98\n  jumpi\n    /* \"#utility.yul\":4481:4743   */\n  jump(tag_96)\n    /* \"#utility.yul\":4501:4560   */\ntag_97:\n    /* \"#utility.yul\":4531:4532   */\n  0x01\n    /* \"#utility.yul\":4522:4532   */\n  swap2\n  pop\n    /* \"#utility.yul\":4545:4550   */\n  pop\n  jump(tag_93)\n    /* \"#utility.yul\":4569:4743   */\ntag_98:\n    /* \"#utility.yul\":4606:4609   */\n  0xff\n    /* \"#utility.yul\":4596:4604   */\n  dup5\n    /* \"#utility.yul\":4593:4610   */\n  gt\n    /* \"#utility.yul\":4590:4633   */\n  iszero\n  tag_100\n  jumpi\n    /* \"#utility.yul\":4613:4631   */\n  tag_100\n  tag_51\n  jump\t// in\ntag_100:\n  pop\n  pop\n    /* \"#utility.yul\":4669:4670   */\n  0x01\n    /* \"#utility.yul\":4655:4671   */\n  dup3\n  shl\n    /* \"#utility.yul\":4728:4733   */\n  jump(tag_93)\n    /* \"#utility.yul\":4481:4743   */\ntag_96:\n  pop\n    /* \"#utility.yul\":4827:4829   */\n  0x20\n    /* \"#utility.yul\":4817:4825   */\n  dup4\n    /* \"#utility.yul\":4814:4830   */\n  lt\n    /* \"#utility.yul\":4808:4811   */\n  0x0133\n    /* \"#utility.yul\":4802:4806   */\n  dup4\n    /* \"#utility.yul\":4799:4812   */\n  lt\n    /* \"#utility.yul\":4795:4831   */\n  and\n    /* \"#utility.yul\":4789:4791   */\n  0x4e\n    /* \"#utility.yul\":4779:4787   */\n  dup5\n    /* \"#utility.yul\":4776:4792   */\n  lt\n    /* \"#utility.yul\":4771:4773   */\n  0x0b\n    /* \"#utility.yul\":4765:4769   */\n  dup5\n    /* \"#utility.yul\":4762:4774   */\n  lt\n    /* \"#utility.yul\":4758:4793   */\n  and\n    /* \"#utility.yul\":4755:4832   */\n  or\n    /* \"#utility.yul\":4752:4955   */\n  iszero\n  tag_101\n  jumpi\n  pop\n    /* \"#utility.yul\":4864:4883   */\n  dup2\n  dup2\n  exp\n    /* \"#utility.yul\":4940:4945   */\n  jump(tag_93)\n    /* \"#utility.yul\":4752:4955   */\ntag_101:\n    /* \"#utility.yul\":4987:5029   */\n  tag_102\n  not(0x00)\n    /* \"#utility.yul\":5012:5020   */\n  dup5\n    /* \"#utility.yul\":5006:5010   */\n  dup5\n    /* \"#utility.yul\":4987:5029   */\n  tag_52\n  jump\t// in\ntag_102:\n    /* \"#utility.yul\":5065:5071   */\n  dup1\n    /* \"#utility.yul\":5061:5062   */\n  0x00\n    /* \"#utility.yul\":5057:5063   */\n  not\n    /* \"#utility.yul\":5053:5072   */\n  div\n    /* \"#utility.yul\":5044:5051   */\n  dup3\n    /* \"#utility.yul\":5041:5073   */\n  gt\n    /* \"#utility.yul\":5038:5096   */\n  iszero\n  tag_104\n  jumpi\n    /* \"#utility.yul\":5076:5094   */\n  tag_104\n  tag_51\n  jump\t// in\ntag_104:\n    /* \"#utility.yul\":5114:5134   */\n  mul\n  swap1\n  pop\n    /* \"#utility.yul\":4238:5140   */\ntag_93:\n  swap3\n  swap2\n  pop\n  pop\n  jump\t// out\n    /* \"#utility.yul\":5145:5285   */\ntag_22:\n    /* \"#utility.yul\":5203:5208   */\n  0x00\n    /* \"#utility.yul\":5232:5279   */\n  tag_106\n    /* \"#utility.yul\":5273:5277   */\n  0xff\n    /* \"#utility.yul\":5263:5271   */\n  dup5\n    /* \"#utility.yul\":5259:5278   */\n  and\n    /* \"#utility.yul\":5253:5257   */\n  dup4\n    /* \"#utility.yul\":5232:5279   */\n  tag_53\n  jump\t// in\ntag_106:\n    /* \"#utility.yul\":5223:5279   */\n  swap4\n    /* \"#utility.yul\":5145:5285   */\n  swap3\n  pop\n  pop\n  pop\n  jump\t// out\n    /* \"#utility.yul\":5290:5458   */\ntag_24:\n    /* \"#utility.yul\":5363:5372   */\n  dup1\n  dup3\n  mul\n    /* \"#utility.yul\":5394:5403   */\n  dup2\n  iszero\n    /* \"#utility.yul\":5411:5426   */\n  dup3\n  dup3\n  div\n    /* \"#utility.yul\":5405:5427   */\n  dup5\n  eq\n    /* \"#utility.yul\":5391:5428   */\n  or\n    /* \"#utility.yul\":5381:5452   */\n  tag_93\n  jumpi\n    /* \"#utility.yul\":5432:5450   */\n  tag_93\n  tag_51\n  jump\t// in\n    /* \"#utility.yul\":5463:5588   */\ntag_37:\n    /* \"#utility.yul\":5528:5537   */\n  dup1\n  dup3\n  add\n    /* \"#utility.yul\":5549:5559   */\n  dup1\n  dup3\n  gt\n    /* \"#utility.yul\":5546:5582   */\n  iszero\n  tag_93\n  jumpi\n    /* \"#utility.yul\":5562:5580   */\n  tag_93\n  tag_51\n  jump\t// in\n    /* \"#utility.yul\":5943:6120   */\ntag_54:\n    /* \"contracts/SimpleToken.sol\":174:5605  contract TokenPreSale is ERC20, Ownable {... */\n  dataSize(sub_0)\n  dup1\n  dataOffset(sub_0)\n  0x00\n  codecopy\n  0x00\n  return\nstop\n\nsub_0: assembly {\n        /* \"contracts/SimpleToken.sol\":174:5605  contract TokenPreSale is ERC20, Ownable {... */\n      mstore(0x40, 0x80)\n      callvalue\n      dup1\n      iszero\n      tag_1\n      jumpi\n      0x00\n      dup1\n      revert\n    tag_1:\n      pop\n      jumpi(tag_2, lt(calldatasize, 0x04))\n      shr(0xe0, calldataload(0x00))\n      dup1\n      0x5ee09669\n      gt\n      tag_32\n      jumpi\n      dup1\n      0x95d89b41\n      gt\n      tag_33\n      jumpi\n      dup1\n      0xdd62ed3e\n      gt\n      tag_34\n      jumpi\n      dup1\n      0xdd62ed3e\n      eq\n      tag_28\n      jumpi\n      dup1\n      0xed338ff1\n      eq\n      tag_29\n      jumpi\n      dup1\n      0xf2fde38b\n      eq\n      tag_30\n      jumpi\n      dup1\n      0xf9931855\n      eq\n      tag_31\n      jumpi\n      0x00\n      dup1\n      revert\n    tag_34:\n      dup1\n      0x95d89b41\n      eq\n      tag_24\n      jumpi\n      dup1\n      0xa5ce413b\n      eq\n      tag_25\n      jumpi\n      dup1\n      0xa9059cbb\n      eq\n      tag_26\n      jumpi\n      dup1\n      0xb7d68519\n      eq\n      tag_27\n      jumpi\n      0x00\n      dup1\n      revert\n    tag_33:\n      dup1\n      0x7165d19b\n      gt\n      tag_35\n      jumpi\n      dup1\n      0x7165d19b\n      eq\n      tag_20\n      jumpi\n      dup1\n      0x7547c7a3\n      eq\n      tag_21\n      jumpi\n      dup1\n      0x8da5cb5b\n      eq\n      tag_22\n      jumpi\n      dup1\n      0x8f0794fe\n      eq\n      tag_23\n      jumpi\n      0x00\n      dup1\n      revert\n    tag_35:\n      dup1\n      0x5ee09669\n      eq\n      tag_17\n      jumpi\n      dup1\n      0x70a08231\n      eq\n      tag_18\n      jumpi\n      dup1\n      0x715018a6\n      eq\n      tag_19\n      jumpi\n      0x00\n      dup1\n      revert\n    tag_32:\n      dup1\n      0x23b872dd\n      gt\n      tag_36\n      jumpi\n      dup1\n      0x499d7f96\n      gt\n      tag_37\n      jumpi\n      dup1\n      0x499d7f96\n      eq\n      tag_13\n      jumpi\n      dup1\n      0x4ac530dc\n      eq\n      tag_14\n      jumpi\n      dup1\n      0x4f3fc2df\n      eq\n      tag_15\n      jumpi\n      dup1\n      0x518ab2a8\n      eq\n      tag_16\n      jumpi\n      0x00\n      dup1\n      revert\n    tag_37:\n      dup1\n      0x23b872dd\n      eq\n      tag_10\n      jumpi\n      dup1\n      0x313ce567\n      eq\n      tag_11\n      jumpi\n      dup1\n      0x3a02a42d\n      eq\n      tag_12\n      jumpi\n      0x00\n      dup1\n      revert\n    tag_36:\n      dup1\n      0x0d505541\n      gt\n      tag_38\n      jumpi\n      dup1\n      0x0d505541\n      eq\n      tag_6\n      jumpi\n      dup1\n      0x18160ddd\n      eq\n      tag_7\n      jumpi\n      dup1\n      0x1cbaee2d\n      eq\n      tag_8\n      jumpi\n      dup1\n      0x1d0806ae\n      eq\n      tag_9\n      jumpi\n      0x00\n      dup1\n      revert\n    tag_38:\n      dup1\n      0x03e293a3\n      eq\n      tag_3\n      jumpi\n      dup1\n      0x06fdde03\n      eq\n      tag_4\n      jumpi\n      dup1\n      0x095ea7b3\n      eq\n      tag_5\n      jumpi\n    tag_2:\n      0x00\n      dup1\n      revert\n        /* \"contracts/SimpleToken.sol\":363:394  uint256 public regularSalePrice */\n    tag_3:\n      tag_39\n      sload(0x09)\n      dup2\n      jump\n    tag_39:\n      mload(0x40)\n        /* \"#utility.yul\":160:185   */\n      swap1\n      dup2\n      mstore\n        /* \"#utility.yul\":148:150   */\n      0x20\n        /* \"#utility.yul\":133:151   */\n      add\n        /* \"contracts/SimpleToken.sol\":363:394  uint256 public regularSalePrice */\n    tag_41:\n      mload(0x40)\n      dup1\n      swap2\n      sub\n      swap1\n      return\n        /* \"@openzeppelin/contracts/token/ERC20/ERC20.sol\":1779:1868  function name() public view virtual returns (string memory) {... */\n    tag_4:\n      tag_43\n      tag_44\n      jump\t// in\n    tag_43:\n      mload(0x40)\n      tag_41\n      swap2\n      swap1\n      tag_46\n      jump\t// in\n        /* \"@openzeppelin/contracts/token/ERC20/ERC20.sol\":3998:4184  function approve(address spender, uint256 value) public virtual returns (bool) {... */\n    tag_5:\n      tag_47\n      tag_48\n      calldatasize\n      0x04\n      tag_49\n      jump\t// in\n    tag_48:\n      tag_50\n      jump\t// in\n    tag_47:\n      mload(0x40)\n        /* \"#utility.yul\":1267:1281   */\n      swap1\n      iszero\n        /* \"#utility.yul\":1260:1282   */\n      iszero\n        /* \"#utility.yul\":1242:1283   */\n      dup2\n      mstore\n        /* \"#utility.yul\":1230:1232   */\n      0x20\n        /* \"#utility.yul\":1215:1233   */\n      add\n        /* \"@openzeppelin/contracts/token/ERC20/ERC20.sol\":3998:4184  function approve(address spender, uint256 value) public virtual returns (bool) {... */\n      tag_41\n        /* \"#utility.yul\":1102:1289   */\n      jump\n        /* \"contracts/SimpleToken.sol\":3832:4406  function calculateStakingReward(address user) public view returns (uint256) {... */\n    tag_6:\n      tag_39\n      tag_54\n      calldatasize\n      0x04\n      tag_55\n      jump\t// in\n    tag_54:\n      tag_56\n      jump\t// in\n        /* \"@openzeppelin/contracts/token/ERC20/ERC20.sol\":2849:2946  function totalSupply() public view virtual returns (uint256) {... */\n    tag_7:\n        /* \"@openzeppelin/contracts/token/ERC20/ERC20.sol\":2927:2939  _totalSupply */\n      sload(0x02)\n        /* \"@openzeppelin/contracts/token/ERC20/ERC20.sol\":2849:2946  function totalSupply() public view virtual returns (uint256) {... */\n      jump(tag_39)\n        /* \"contracts/SimpleToken.sol\":221:249  uint256 public saleStartTime */\n    tag_8:\n      tag_39\n      sload(0x06)\n      dup2\n      jump\n        /* \"contracts/SimpleToken.sol\":289:316  uint256 public initialPrice */\n    tag_9:\n      tag_39\n      sload(0x08)\n      dup2\n      jump\n        /* \"@openzeppelin/contracts/token/ERC20/ERC20.sol\":4776:5020  function transferFrom(address from, address to, uint256 value) public virtual returns (bool) {... */\n    tag_10:\n      tag_47\n      tag_68\n      calldatasize\n      0x04\n      tag_69\n      jump\t// in\n    tag_68:\n      tag_70\n      jump\t// in\n        /* \"@openzeppelin/contracts/token/ERC20/ERC20.sol\":2707:2789  function decimals() public view virtual returns (uint8) {... */\n    tag_11:\n      mload(0x40)\n        /* \"@openzeppelin/contracts/token/ERC20/ERC20.sol\":2780:2782  18 */\n      0x12\n        /* \"#utility.yul\":2006:2042   */\n      dup2\n      mstore\n        /* \"#utility.yul\":1994:1996   */\n      0x20\n        /* \"#utility.yul\":1979:1997   */\n      add\n        /* \"@openzeppelin/contracts/token/ERC20/ERC20.sol\":2707:2789  function decimals() public view virtual returns (uint8) {... */\n      tag_41\n        /* \"#utility.yul\":1864:2048   */\n      jump\n        /* \"contracts/SimpleToken.sol\":4836:4944  function getStakedBalance(address user) external view returns (uint256) {... */\n    tag_12:\n      tag_39\n      tag_77\n      calldatasize\n      0x04\n      tag_55\n      jump\t// in\n    tag_77:\n      sub(shl(0xa0, 0x01), 0x01)\n        /* \"contracts/SimpleToken.sol\":4922:4940  stakedAmount[user] */\n      and\n        /* \"contracts/SimpleToken.sol\":4899:4906  uint256 */\n      0x00\n        /* \"contracts/SimpleToken.sol\":4922:4940  stakedAmount[user] */\n      swap1\n      dup2\n      mstore\n        /* \"contracts/SimpleToken.sol\":4922:4934  stakedAmount */\n      0x0d\n        /* \"contracts/SimpleToken.sol\":4922:4940  stakedAmount[user] */\n      0x20\n      mstore\n      0x40\n      swap1\n      keccak256\n      sload\n      swap1\n        /* \"contracts/SimpleToken.sol\":4836:4944  function getStakedBalance(address user) external view returns (uint256) {... */\n      jump\n        /* \"contracts/SimpleToken.sol\":800:849  mapping(address => uint256) public stakingRewards */\n    tag_13:\n      tag_39\n      tag_81\n      calldatasize\n      0x04\n      tag_55\n      jump\t// in\n    tag_81:\n      mstore(0x20, 0x0f)\n      0x00\n      swap1\n      dup2\n      mstore\n      0x40\n      swap1\n      keccak256\n      sload\n      dup2\n      jump\n        /* \"contracts/SimpleToken.sol\":5112:5227  function getStakingStartDate(address user) external view returns (uint256) {... */\n    tag_14:\n      tag_39\n      tag_85\n      calldatasize\n      0x04\n      tag_55\n      jump\t// in\n    tag_85:\n      sub(shl(0xa0, 0x01), 0x01)\n        /* \"contracts/SimpleToken.sol\":5201:5223  stakingTimestamp[user] */\n      and\n        /* \"contracts/SimpleToken.sol\":5178:5185  uint256 */\n      0x00\n        /* \"contracts/SimpleToken.sol\":5201:5223  stakingTimestamp[user] */\n      swap1\n      dup2\n      mstore\n        /* \"contracts/SimpleToken.sol\":5201:5217  stakingTimestamp */\n      0x0e\n        /* \"contracts/SimpleToken.sol\":5201:5223  stakingTimestamp[user] */\n      0x20\n      mstore\n      0x40\n      swap1\n      keccak256\n      sload\n      swap1\n        /* \"contracts/SimpleToken.sol\":5112:5227  function getStakingStartDate(address user) external view returns (uint256) {... */\n      jump\n        /* \"contracts/SimpleToken.sol\":532:564  uint256 public stakingRewardRate */\n    tag_15:\n      tag_39\n      sload(0x0c)\n      dup2\n      jump\n        /* \"contracts/SimpleToken.sol\":498:523  uint256 public tokensSold */\n    tag_16:\n      tag_39\n      sload(0x0b)\n      dup2\n      jump\n        /* \"contracts/SimpleToken.sol\":5405:5528  function getAccumulatedRewards(address user) external view returns (uint256) {... */\n    tag_17:\n      tag_39\n      tag_95\n      calldatasize\n      0x04\n      tag_55\n      jump\t// in\n    tag_95:\n      tag_96\n      jump\t// in\n        /* \"@openzeppelin/contracts/token/ERC20/ERC20.sol\":3004:3120  function balanceOf(address account) public view virtual returns (uint256) {... */\n    tag_18:\n      tag_39\n      tag_99\n      calldatasize\n      0x04\n      tag_55\n      jump\t// in\n    tag_99:\n      sub(shl(0xa0, 0x01), 0x01)\n        /* \"@openzeppelin/contracts/token/ERC20/ERC20.sol\":3095:3113  _balances[account] */\n      and\n        /* \"@openzeppelin/contracts/token/ERC20/ERC20.sol\":3069:3076  uint256 */\n      0x00\n        /* \"@openzeppelin/contracts/token/ERC20/ERC20.sol\":3095:3113  _balances[account] */\n      swap1\n      dup2\n      mstore\n      0x20\n      dup2\n      swap1\n      mstore\n      0x40\n      swap1\n      keccak256\n      sload\n      swap1\n        /* \"@openzeppelin/contracts/token/ERC20/ERC20.sol\":3004:3120  function balanceOf(address account) public view virtual returns (uint256) {... */\n      jump\n        /* \"@openzeppelin/contracts/access/Ownable.sol\":2293:2394  function renounceOwnership() public virtual onlyOwner {... */\n    tag_19:\n      tag_102\n      tag_103\n      jump\t// in\n    tag_102:\n      stop\n        /* \"contracts/SimpleToken.sol\":401:434  uint256 public weeklyIncreaseRate */\n    tag_20:\n      tag_39\n      sload(0x0a)\n      dup2\n      jump\n        /* \"contracts/SimpleToken.sol\":2043:2561  function stakeTokens(uint256 amount) external {... */\n    tag_21:\n      tag_102\n      tag_108\n      calldatasize\n      0x04\n      tag_109\n      jump\t// in\n    tag_108:\n      tag_110\n      jump\t// in\n        /* \"@openzeppelin/contracts/access/Ownable.sol\":1638:1723  function owner() public view virtual returns (address) {... */\n    tag_22:\n        /* \"@openzeppelin/contracts/access/Ownable.sol\":1710:1716  _owner */\n      sload(0x05)\n        /* \"@openzeppelin/contracts/access/Ownable.sol\":1638:1723  function owner() public view virtual returns (address) {... */\n      mload(0x40)\n      sub(shl(0xa0, 0x01), 0x01)\n        /* \"@openzeppelin/contracts/access/Ownable.sol\":1710:1716  _owner */\n      swap1\n      swap2\n      and\n        /* \"#utility.yul\":2430:2481   */\n      dup2\n      mstore\n        /* \"#utility.yul\":2418:2420   */\n      0x20\n        /* \"#utility.yul\":2403:2421   */\n      add\n        /* \"@openzeppelin/contracts/access/Ownable.sol\":1638:1723  function owner() public view virtual returns (address) {... */\n      tag_41\n        /* \"#utility.yul\":2284:2487   */\n      jump\n        /* \"contracts/SimpleToken.sol\":711:762  mapping(address => uint256) public stakingTimestamp */\n    tag_23:\n      tag_39\n      tag_116\n      calldatasize\n      0x04\n      tag_55\n      jump\t// in\n    tag_116:\n      mstore(0x20, 0x0e)\n      0x00\n      swap1\n      dup2\n      mstore\n      0x40\n      swap1\n      keccak256\n      sload\n      dup2\n      jump\n        /* \"@openzeppelin/contracts/token/ERC20/ERC20.sol\":1981:2074  function symbol() public view virtual returns (string memory) {... */\n    tag_24:\n      tag_43\n      tag_120\n      jump\t// in\n        /* \"contracts/SimpleToken.sol\":2692:3621  function unstakeTokens() external {... */\n    tag_25:\n      tag_102\n      tag_123\n      jump\t// in\n        /* \"@openzeppelin/contracts/token/ERC20/ERC20.sol\":3315:3493  function transfer(address to, uint256 value) public virtual returns (bool) {... */\n    tag_26:\n      tag_47\n      tag_125\n      calldatasize\n      0x04\n      tag_49\n      jump\t// in\n    tag_125:\n      tag_126\n      jump\t// in\n        /* \"contracts/SimpleToken.sol\":4567:4687  function setStakingRewardRate(uint256 _rewardRate) external onlyOwner {... */\n    tag_27:\n      tag_102\n      tag_129\n      calldatasize\n      0x04\n      tag_109\n      jump\t// in\n    tag_129:\n      tag_130\n      jump\t// in\n        /* \"@openzeppelin/contracts/token/ERC20/ERC20.sol\":3551:3691  function allowance(address owner, address spender) public view virtual returns (uint256) {... */\n    tag_28:\n      tag_39\n      tag_132\n      calldatasize\n      0x04\n      tag_133\n      jump\t// in\n    tag_132:\n      sub(shl(0xa0, 0x01), 0x01)\n        /* \"@openzeppelin/contracts/token/ERC20/ERC20.sol\":3657:3675  _allowances[owner] */\n      swap2\n      dup3\n      and\n        /* \"@openzeppelin/contracts/token/ERC20/ERC20.sol\":3631:3638  uint256 */\n      0x00\n        /* \"@openzeppelin/contracts/token/ERC20/ERC20.sol\":3657:3675  _allowances[owner] */\n      swap1\n      dup2\n      mstore\n        /* \"@openzeppelin/contracts/token/ERC20/ERC20.sol\":3657:3668  _allowances */\n      0x01\n        /* \"@openzeppelin/contracts/token/ERC20/ERC20.sol\":3657:3675  _allowances[owner] */\n      0x20\n      swap1\n      dup2\n      mstore\n      0x40\n      dup1\n      dup4\n      keccak256\n        /* \"@openzeppelin/contracts/token/ERC20/ERC20.sol\":3657:3684  _allowances[owner][spender] */\n      swap4\n      swap1\n      swap5\n      and\n      dup3\n      mstore\n      swap2\n      swap1\n      swap2\n      mstore\n      keccak256\n      sload\n      swap1\n        /* \"@openzeppelin/contracts/token/ERC20/ERC20.sol\":3551:3691  function allowance(address owner, address spender) public view virtual returns (uint256) {... */\n      jump\n        /* \"contracts/SimpleToken.sol\":256:282  uint256 public saleEndTime */\n    tag_29:\n      tag_39\n      sload(0x07)\n      dup2\n      jump\n        /* \"@openzeppelin/contracts/access/Ownable.sol\":2543:2758  function transferOwnership(address newOwner) public virtual onlyOwner {... */\n    tag_30:\n      tag_102\n      tag_140\n      calldatasize\n      0x04\n      tag_55\n      jump\t// in\n    tag_140:\n      tag_141\n      jump\t// in\n        /* \"contracts/SimpleToken.sol\":616:663  mapping(address => uint256) public stakedAmount */\n    tag_31:\n      tag_39\n      tag_143\n      calldatasize\n      0x04\n      tag_55\n      jump\t// in\n    tag_143:\n      mstore(0x20, 0x0d)\n      0x00\n      swap1\n      dup2\n      mstore\n      0x40\n      swap1\n      keccak256\n      sload\n      dup2\n      jump\n        /* \"@openzeppelin/contracts/token/ERC20/ERC20.sol\":1779:1868  function name() public view virtual returns (string memory) {... */\n    tag_44:\n        /* \"@openzeppelin/contracts/token/ERC20/ERC20.sol\":1824:1837  string memory */\n      0x60\n        /* \"@openzeppelin/contracts/token/ERC20/ERC20.sol\":1856:1861  _name */\n      0x03\n        /* \"@openzeppelin/contracts/token/ERC20/ERC20.sol\":1849:1861  return _name */\n      dup1\n      sload\n      tag_147\n      swap1\n      tag_148\n      jump\t// in\n    tag_147:\n      dup1\n      0x1f\n      add\n      0x20\n      dup1\n      swap2\n      div\n      mul\n      0x20\n      add\n      mload(0x40)\n      swap1\n      dup2\n      add\n      0x40\n      mstore\n      dup1\n      swap3\n      swap2\n      swap1\n      dup2\n      dup2\n      mstore\n      0x20\n      add\n      dup3\n      dup1\n      sload\n      tag_149\n      swap1\n      tag_148\n      jump\t// in\n    tag_149:\n      dup1\n      iszero\n      tag_150\n      jumpi\n      dup1\n      0x1f\n      lt\n      tag_151\n      jumpi\n      0x0100\n      dup1\n      dup4\n      sload\n      div\n      mul\n      dup4\n      mstore\n      swap2\n      0x20\n      add\n      swap2\n      jump(tag_150)\n    tag_151:\n      dup3\n      add\n      swap2\n      swap1\n      0x00\n      mstore\n      keccak256(0x00, 0x20)\n      swap1\n    tag_152:\n      dup2\n      sload\n      dup2\n      mstore\n      swap1\n      0x01\n      add\n      swap1\n      0x20\n      add\n      dup1\n      dup4\n      gt\n      tag_152\n      jumpi\n      dup3\n      swap1\n      sub\n      0x1f\n      and\n      dup3\n      add\n      swap2\n    tag_150:\n      pop\n      pop\n      pop\n      pop\n      pop\n      swap1\n      pop\n        /* \"@openzeppelin/contracts/token/ERC20/ERC20.sol\":1779:1868  function name() public view virtual returns (string memory) {... */\n      swap1\n      jump\t// out\n        /* \"@openzeppelin/contracts/token/ERC20/ERC20.sol\":3998:4184  function approve(address spender, uint256 value) public virtual returns (bool) {... */\n    tag_50:\n        /* \"@openzeppelin/contracts/token/ERC20/ERC20.sol\":4071:4075  bool */\n      0x00\n        /* \"@openzeppelin/contracts/utils/Context.sol\":735:745  msg.sender */\n      caller\n        /* \"@openzeppelin/contracts/token/ERC20/ERC20.sol\":4125:4156  _approve(owner, spender, value) */\n      tag_156\n        /* \"@openzeppelin/contracts/utils/Context.sol\":735:745  msg.sender */\n      dup2\n        /* \"@openzeppelin/contracts/token/ERC20/ERC20.sol\":4141:4148  spender */\n      dup6\n        /* \"@openzeppelin/contracts/token/ERC20/ERC20.sol\":4150:4155  value */\n      dup6\n        /* \"@openzeppelin/contracts/token/ERC20/ERC20.sol\":4125:4133  _approve */\n      tag_157\n        /* \"@openzeppelin/contracts/token/ERC20/ERC20.sol\":4125:4156  _approve(owner, spender, value) */\n      jump\t// in\n    tag_156:\n        /* \"@openzeppelin/contracts/token/ERC20/ERC20.sol\":4173:4177  true */\n      0x01\n        /* \"@openzeppelin/contracts/token/ERC20/ERC20.sol\":4166:4177  return true */\n      swap2\n      pop\n      pop\n        /* \"@openzeppelin/contracts/token/ERC20/ERC20.sol\":3998:4184  function approve(address spender, uint256 value) public virtual returns (bool) {... */\n    tag_153:\n      swap3\n      swap2\n      pop\n      pop\n      jump\t// out\n        /* \"contracts/SimpleToken.sol\":3832:4406  function calculateStakingReward(address user) public view returns (uint256) {... */\n    tag_56:\n      sub(shl(0xa0, 0x01), 0x01)\n        /* \"contracts/SimpleToken.sol\":3942:3960  stakedAmount[user] */\n      dup2\n      and\n        /* \"contracts/SimpleToken.sol\":3899:3906  uint256 */\n      0x00\n        /* \"contracts/SimpleToken.sol\":3942:3960  stakedAmount[user] */\n      swap1\n      dup2\n      mstore\n        /* \"contracts/SimpleToken.sol\":3942:3954  stakedAmount */\n      0x0d\n        /* \"contracts/SimpleToken.sol\":3942:3960  stakedAmount[user] */\n      0x20\n      mstore\n      0x40\n      dup2\n      keccak256\n      sload\n        /* \"contracts/SimpleToken.sol\":3975:3992  stakedTokens == 0 */\n      dup1\n      dup3\n      sub\n        /* \"contracts/SimpleToken.sol\":3971:4029  if (stakedTokens == 0) {... */\n      tag_159\n      jumpi\n      pop\n        /* \"contracts/SimpleToken.sol\":4016:4017  0 */\n      0x00\n      swap3\n        /* \"contracts/SimpleToken.sol\":3832:4406  function calculateStakingReward(address user) public view returns (uint256) {... */\n      swap2\n      pop\n      pop\n      jump\t// out\n        /* \"contracts/SimpleToken.sol\":3971:4029  if (stakedTokens == 0) {... */\n    tag_159:\n      sub(shl(0xa0, 0x01), 0x01)\n        /* \"contracts/SimpleToken.sol\":4080:4102  stakingTimestamp[user] */\n      dup4\n      and\n        /* \"contracts/SimpleToken.sol\":4041:4059  uint256 timeStaked */\n      0x00\n        /* \"contracts/SimpleToken.sol\":4080:4102  stakingTimestamp[user] */\n      swap1\n      dup2\n      mstore\n        /* \"contracts/SimpleToken.sol\":4080:4096  stakingTimestamp */\n      0x0e\n        /* \"contracts/SimpleToken.sol\":4080:4102  stakingTimestamp[user] */\n      0x20\n      mstore\n      0x40\n      dup2\n      keccak256\n      sload\n        /* \"contracts/SimpleToken.sol\":4062:4102  block.timestamp - stakingTimestamp[user] */\n      tag_160\n      swap1\n        /* \"contracts/SimpleToken.sol\":4062:4077  block.timestamp */\n      timestamp\n        /* \"contracts/SimpleToken.sol\":4062:4102  block.timestamp - stakingTimestamp[user] */\n      tag_161\n      jump\t// in\n    tag_160:\n        /* \"contracts/SimpleToken.sol\":4041:4102  uint256 timeStaked = block.timestamp - stakingTimestamp[user] */\n      swap1\n      pop\n        /* \"contracts/SimpleToken.sol\":4113:4143  uint256 stakingDurationInWeeks */\n      0x00\n        /* \"contracts/SimpleToken.sol\":4146:4166  timeStaked / 1 weeks */\n      tag_162\n        /* \"contracts/SimpleToken.sol\":4159:4166  1 weeks */\n      0x093a80\n        /* \"contracts/SimpleToken.sol\":4041:4102  uint256 timeStaked = block.timestamp - stakingTimestamp[user] */\n      dup4\n        /* \"contracts/SimpleToken.sol\":4146:4166  timeStaked / 1 weeks */\n      tag_163\n      jump\t// in\n    tag_162:\n        /* \"contracts/SimpleToken.sol\":4113:4166  uint256 stakingDurationInWeeks = timeStaked / 1 weeks */\n      swap1\n      pop\n        /* \"contracts/SimpleToken.sol\":4292:4306  uint256 reward */\n      0x00\n        /* \"contracts/SimpleToken.sol\":4371:4374  100 */\n      0x64\n        /* \"contracts/SimpleToken.sol\":4345:4367  stakingDurationInWeeks */\n      dup3\n        /* \"contracts/SimpleToken.sol\":4325:4342  stakingRewardRate */\n      sload(0x0c)\n        /* \"contracts/SimpleToken.sol\":4310:4322  stakedTokens */\n      dup7\n        /* \"contracts/SimpleToken.sol\":4310:4342  stakedTokens * stakingRewardRate */\n      tag_164\n      swap2\n      swap1\n      tag_165\n      jump\t// in\n    tag_164:\n        /* \"contracts/SimpleToken.sol\":4310:4367  stakedTokens * stakingRewardRate * stakingDurationInWeeks */\n      tag_166\n      swap2\n      swap1\n      tag_165\n      jump\t// in\n    tag_166:\n        /* \"contracts/SimpleToken.sol\":4309:4374  (stakedTokens * stakingRewardRate * stakingDurationInWeeks) / 100 */\n      tag_167\n      swap2\n      swap1\n      tag_163\n      jump\t// in\n    tag_167:\n        /* \"contracts/SimpleToken.sol\":4292:4374  uint256 reward = (stakedTokens * stakingRewardRate * stakingDurationInWeeks) / 100 */\n      swap7\n        /* \"contracts/SimpleToken.sol\":3832:4406  function calculateStakingReward(address user) public view returns (uint256) {... */\n      swap6\n      pop\n      pop\n      pop\n      pop\n      pop\n      pop\n      jump\t// out\n        /* \"@openzeppelin/contracts/token/ERC20/ERC20.sol\":4776:5020  function transferFrom(address from, address to, uint256 value) public virtual returns (bool) {... */\n    tag_70:\n        /* \"@openzeppelin/contracts/token/ERC20/ERC20.sol\":4863:4867  bool */\n      0x00\n        /* \"@openzeppelin/contracts/utils/Context.sol\":735:745  msg.sender */\n      caller\n        /* \"@openzeppelin/contracts/token/ERC20/ERC20.sol\":4919:4956  _spendAllowance(from, spender, value) */\n      tag_171\n        /* \"@openzeppelin/contracts/token/ERC20/ERC20.sol\":4935:4939  from */\n      dup6\n        /* \"@openzeppelin/contracts/utils/Context.sol\":735:745  msg.sender */\n      dup3\n        /* \"@openzeppelin/contracts/token/ERC20/ERC20.sol\":4950:4955  value */\n      dup6\n        /* \"@openzeppelin/contracts/token/ERC20/ERC20.sol\":4919:4934  _spendAllowance */\n      tag_172\n        /* \"@openzeppelin/contracts/token/ERC20/ERC20.sol\":4919:4956  _spendAllowance(from, spender, value) */\n      jump\t// in\n    tag_171:\n        /* \"@openzeppelin/contracts/token/ERC20/ERC20.sol\":4966:4992  _transfer(from, to, value) */\n      tag_173\n        /* \"@openzeppelin/contracts/token/ERC20/ERC20.sol\":4976:4980  from */\n      dup6\n        /* \"@openzeppelin/contracts/token/ERC20/ERC20.sol\":4982:4984  to */\n      dup6\n        /* \"@openzeppelin/contracts/token/ERC20/ERC20.sol\":4986:4991  value */\n      dup6\n        /* \"@openzeppelin/contracts/token/ERC20/ERC20.sol\":4966:4975  _transfer */\n      tag_174\n        /* \"@openzeppelin/contracts/token/ERC20/ERC20.sol\":4966:4992  _transfer(from, to, value) */\n      jump\t// in\n    tag_173:\n      pop\n        /* \"@openzeppelin/contracts/token/ERC20/ERC20.sol\":5009:5013  true */\n      0x01\n      swap5\n        /* \"@openzeppelin/contracts/token/ERC20/ERC20.sol\":4776:5020  function transferFrom(address from, address to, uint256 value) public virtual returns (bool) {... */\n      swap4\n      pop\n      pop\n      pop\n      pop\n      jump\t// out\n        /* \"contracts/SimpleToken.sol\":5405:5528  function getAccumulatedRewards(address user) external view returns (uint256) {... */\n    tag_96:\n        /* \"contracts/SimpleToken.sol\":5473:5480  uint256 */\n      0x00\n        /* \"contracts/SimpleToken.sol\":5496:5524  calculateStakingReward(user) */\n      tag_153\n        /* \"contracts/SimpleToken.sol\":5519:5523  user */\n      dup3\n        /* \"contracts/SimpleToken.sol\":5496:5518  calculateStakingReward */\n      tag_56\n        /* \"contracts/SimpleToken.sol\":5496:5524  calculateStakingReward(user) */\n      jump\t// in\n        /* \"@openzeppelin/contracts/access/Ownable.sol\":2293:2394  function renounceOwnership() public virtual onlyOwner {... */\n    tag_103:\n        /* \"@openzeppelin/contracts/access/Ownable.sol\":1531:1544  _checkOwner() */\n      tag_182\n        /* \"@openzeppelin/contracts/access/Ownable.sol\":1531:1542  _checkOwner */\n      tag_183\n        /* \"@openzeppelin/contracts/access/Ownable.sol\":1531:1544  _checkOwner() */\n      jump\t// in\n    tag_182:\n        /* \"@openzeppelin/contracts/access/Ownable.sol\":2357:2387  _transferOwnership(address(0)) */\n      tag_185\n        /* \"@openzeppelin/contracts/access/Ownable.sol\":2384:2385  0 */\n      0x00\n        /* \"@openzeppelin/contracts/access/Ownable.sol\":2357:2375  _transferOwnership */\n      tag_186\n        /* \"@openzeppelin/contracts/access/Ownable.sol\":2357:2387  _transferOwnership(address(0)) */\n      jump\t// in\n    tag_185:\n        /* \"@openzeppelin/contracts/access/Ownable.sol\":2293:2394  function renounceOwnership() public virtual onlyOwner {... */\n      jump\t// out\n        /* \"contracts/SimpleToken.sol\":2043:2561  function stakeTokens(uint256 amount) external {... */\n    tag_110:\n        /* \"contracts/SimpleToken.sol\":2117:2118  0 */\n      0x00\n        /* \"contracts/SimpleToken.sol\":2108:2114  amount */\n      dup2\n        /* \"contracts/SimpleToken.sol\":2108:2118  amount > 0 */\n      gt\n        /* \"contracts/SimpleToken.sol\":2100:2156  require(amount > 0, \"Amount must be greater than zero.\") */\n      tag_188\n      jumpi\n      mload(0x40)\n      shl(0xe5, 0x461bcd)\n      dup2\n      mstore\n        /* \"#utility.yul\":4004:4006   */\n      0x20\n        /* \"contracts/SimpleToken.sol\":2100:2156  require(amount > 0, \"Amount must be greater than zero.\") */\n      0x04\n      dup3\n      add\n        /* \"#utility.yul\":3986:4007   */\n      mstore\n        /* \"#utility.yul\":4043:4045   */\n      0x21\n        /* \"#utility.yul\":4023:4041   */\n      0x24\n      dup3\n      add\n        /* \"#utility.yul\":4016:4046   */\n      mstore\n        /* \"#utility.yul\":4082:4116   */\n      0x416d6f756e74206d7573742062652067726561746572207468616e207a65726f\n        /* \"#utility.yul\":4062:4080   */\n      0x44\n      dup3\n      add\n        /* \"#utility.yul\":4055:4117   */\n      mstore\n      shl(0xf9, 0x17)\n        /* \"#utility.yul\":4133:4151   */\n      0x64\n      dup3\n      add\n        /* \"#utility.yul\":4126:4157   */\n      mstore\n        /* \"#utility.yul\":4174:4193   */\n      0x84\n      add\n        /* \"contracts/SimpleToken.sol\":2100:2156  require(amount > 0, \"Amount must be greater than zero.\") */\n    tag_189:\n      mload(0x40)\n      dup1\n      swap2\n      sub\n      swap1\n      revert\n    tag_188:\n        /* \"contracts/SimpleToken.sol\":2185:2195  msg.sender */\n      caller\n        /* \"@openzeppelin/contracts/token/ERC20/ERC20.sol\":3069:3076  uint256 */\n      0x00\n        /* \"@openzeppelin/contracts/token/ERC20/ERC20.sol\":3095:3113  _balances[account] */\n      swap1\n      dup2\n      mstore\n      0x20\n      dup2\n      swap1\n      mstore\n      0x40\n      swap1\n      keccak256\n      sload\n        /* \"contracts/SimpleToken.sol\":2200:2206  amount */\n      dup2\n      gt\n        /* \"contracts/SimpleToken.sol\":2175:2206  balanceOf(msg.sender) >= amount */\n      iszero\n        /* \"contracts/SimpleToken.sol\":2167:2241  require(balanceOf(msg.sender) >= amount, \"Insufficient balance to stake.\") */\n      tag_192\n      jumpi\n      mload(0x40)\n      shl(0xe5, 0x461bcd)\n      dup2\n      mstore\n        /* \"#utility.yul\":4406:4408   */\n      0x20\n        /* \"contracts/SimpleToken.sol\":2167:2241  require(balanceOf(msg.sender) >= amount, \"Insufficient balance to stake.\") */\n      0x04\n      dup3\n      add\n        /* \"#utility.yul\":4388:4409   */\n      mstore\n        /* \"#utility.yul\":4445:4447   */\n      0x1e\n        /* \"#utility.yul\":4425:4443   */\n      0x24\n      dup3\n      add\n        /* \"#utility.yul\":4418:4448   */\n      mstore\n        /* \"#utility.yul\":4484:4516   */\n      0x496e73756666696369656e742062616c616e636520746f207374616b652e0000\n        /* \"#utility.yul\":4464:4482   */\n      0x44\n      dup3\n      add\n        /* \"#utility.yul\":4457:4517   */\n      mstore\n        /* \"#utility.yul\":4534:4552   */\n      0x64\n      add\n        /* \"contracts/SimpleToken.sol\":2167:2241  require(balanceOf(msg.sender) >= amount, \"Insufficient balance to stake.\") */\n      tag_189\n        /* \"#utility.yul\":4204:4558   */\n      jump\n        /* \"contracts/SimpleToken.sol\":2167:2241  require(balanceOf(msg.sender) >= amount, \"Insufficient balance to stake.\") */\n    tag_192:\n        /* \"contracts/SimpleToken.sol\":2316:2360  _transfer(msg.sender, address(this), amount) */\n      tag_195\n        /* \"contracts/SimpleToken.sol\":2326:2336  msg.sender */\n      caller\n        /* \"contracts/SimpleToken.sol\":2346:2350  this */\n      address\n        /* \"contracts/SimpleToken.sol\":2353:2359  amount */\n      dup4\n        /* \"contracts/SimpleToken.sol\":2316:2325  _transfer */\n      tag_174\n        /* \"contracts/SimpleToken.sol\":2316:2360  _transfer(msg.sender, address(this), amount) */\n      jump\t// in\n    tag_195:\n        /* \"contracts/SimpleToken.sol\":2425:2435  msg.sender */\n      caller\n        /* \"contracts/SimpleToken.sol\":2412:2436  stakedAmount[msg.sender] */\n      0x00\n      swap1\n      dup2\n      mstore\n        /* \"contracts/SimpleToken.sol\":2412:2424  stakedAmount */\n      0x0d\n        /* \"contracts/SimpleToken.sol\":2412:2436  stakedAmount[msg.sender] */\n      0x20\n      mstore\n      0x40\n      dup2\n      keccak256\n        /* \"contracts/SimpleToken.sol\":2412:2446  stakedAmount[msg.sender] += amount */\n      dup1\n      sload\n        /* \"contracts/SimpleToken.sol\":2440:2446  amount */\n      dup4\n      swap3\n        /* \"contracts/SimpleToken.sol\":2412:2436  stakedAmount[msg.sender] */\n      swap1\n        /* \"contracts/SimpleToken.sol\":2412:2446  stakedAmount[msg.sender] += amount */\n      tag_196\n      swap1\n        /* \"contracts/SimpleToken.sol\":2440:2446  amount */\n      dup5\n      swap1\n        /* \"contracts/SimpleToken.sol\":2412:2446  stakedAmount[msg.sender] += amount */\n      tag_197\n      jump\t// in\n    tag_196:\n      swap1\n      swap2\n      sstore\n      pop\n      pop\n        /* \"contracts/SimpleToken.sol\":2474:2484  msg.sender */\n      caller\n        /* \"contracts/SimpleToken.sol\":2457:2485  stakingTimestamp[msg.sender] */\n      0x00\n      dup2\n      dup2\n      mstore\n        /* \"contracts/SimpleToken.sol\":2457:2473  stakingTimestamp */\n      0x0e\n        /* \"contracts/SimpleToken.sol\":2457:2485  stakingTimestamp[msg.sender] */\n      0x20\n      mstore\n      0x40\n      swap1\n      dup2\n      swap1\n      keccak256\n        /* \"contracts/SimpleToken.sol\":2488:2503  block.timestamp */\n      timestamp\n        /* \"contracts/SimpleToken.sol\":2457:2503  stakingTimestamp[msg.sender] = block.timestamp */\n      swap1\n      sstore\n        /* \"contracts/SimpleToken.sol\":2521:2553  TokensStaked(msg.sender, amount) */\n      mload\n      0xb539ca1e5c8d398ddf1c41c30166f33404941683be4683319b57669a93dad4ef\n      swap1\n      tag_198\n      swap1\n        /* \"contracts/SimpleToken.sol\":2546:2552  amount */\n      dup5\n        /* \"#utility.yul\":160:185   */\n      dup2\n      mstore\n        /* \"#utility.yul\":148:150   */\n      0x20\n        /* \"#utility.yul\":133:151   */\n      add\n      swap1\n        /* \"#utility.yul\":14:191   */\n      jump\n        /* \"contracts/SimpleToken.sol\":2521:2553  TokensStaked(msg.sender, amount) */\n    tag_198:\n      mload(0x40)\n      dup1\n      swap2\n      sub\n      swap1\n      log2\n        /* \"contracts/SimpleToken.sol\":2043:2561  function stakeTokens(uint256 amount) external {... */\n      pop\n      jump\t// out\n        /* \"@openzeppelin/contracts/token/ERC20/ERC20.sol\":1981:2074  function symbol() public view virtual returns (string memory) {... */\n    tag_120:\n        /* \"@openzeppelin/contracts/token/ERC20/ERC20.sol\":2028:2041  string memory */\n      0x60\n        /* \"@openzeppelin/contracts/token/ERC20/ERC20.sol\":2060:2067  _symbol */\n      0x04\n        /* \"@openzeppelin/contracts/token/ERC20/ERC20.sol\":2053:2067  return _symbol */\n      dup1\n      sload\n      tag_147\n      swap1\n      tag_148\n      jump\t// in\n        /* \"contracts/SimpleToken.sol\":2692:3621  function unstakeTokens() external {... */\n    tag_123:\n        /* \"contracts/SimpleToken.sol\":2773:2783  msg.sender */\n      caller\n        /* \"contracts/SimpleToken.sol\":2737:2757  uint256 stakedTokens */\n      0x00\n        /* \"contracts/SimpleToken.sol\":2760:2784  stakedAmount[msg.sender] */\n      swap1\n      dup2\n      mstore\n        /* \"contracts/SimpleToken.sol\":2760:2772  stakedAmount */\n      0x0d\n        /* \"contracts/SimpleToken.sol\":2760:2784  stakedAmount[msg.sender] */\n      0x20\n      mstore\n      0x40\n      swap1\n      keccak256\n      sload\n        /* \"contracts/SimpleToken.sol\":2803:2819  stakedTokens > 0 */\n      dup1\n        /* \"contracts/SimpleToken.sol\":2795:2841  require(stakedTokens > 0, \"No tokens staked.\") */\n      tag_207\n      jumpi\n      mload(0x40)\n      shl(0xe5, 0x461bcd)\n      dup2\n      mstore\n        /* \"#utility.yul\":4895:4897   */\n      0x20\n        /* \"contracts/SimpleToken.sol\":2795:2841  require(stakedTokens > 0, \"No tokens staked.\") */\n      0x04\n      dup3\n      add\n        /* \"#utility.yul\":4877:4898   */\n      mstore\n        /* \"#utility.yul\":4934:4936   */\n      0x11\n        /* \"#utility.yul\":4914:4932   */\n      0x24\n      dup3\n      add\n        /* \"#utility.yul\":4907:4937   */\n      mstore\n      shl(0x79, 0x2737903a37b5b2b7399039ba30b5b2b217)\n        /* \"#utility.yul\":4953:4971   */\n      0x44\n      dup3\n      add\n        /* \"#utility.yul\":4946:4993   */\n      mstore\n        /* \"#utility.yul\":5010:5028   */\n      0x64\n      add\n        /* \"contracts/SimpleToken.sol\":2795:2841  require(stakedTokens > 0, \"No tokens staked.\") */\n      tag_189\n        /* \"#utility.yul\":4693:5034   */\n      jump\n        /* \"contracts/SimpleToken.sol\":2795:2841  require(stakedTokens > 0, \"No tokens staked.\") */\n    tag_207:\n        /* \"contracts/SimpleToken.sol\":2910:2920  msg.sender */\n      caller\n        /* \"contracts/SimpleToken.sol\":2854:2872  uint256 timeStaked */\n      0x00\n        /* \"contracts/SimpleToken.sol\":2893:2921  stakingTimestamp[msg.sender] */\n      swap1\n      dup2\n      mstore\n        /* \"contracts/SimpleToken.sol\":2893:2909  stakingTimestamp */\n      0x0e\n        /* \"contracts/SimpleToken.sol\":2893:2921  stakingTimestamp[msg.sender] */\n      0x20\n      mstore\n      0x40\n      dup2\n      keccak256\n      sload\n        /* \"contracts/SimpleToken.sol\":2875:2921  block.timestamp - stakingTimestamp[msg.sender] */\n      tag_210\n      swap1\n        /* \"contracts/SimpleToken.sol\":2875:2890  block.timestamp */\n      timestamp\n        /* \"contracts/SimpleToken.sol\":2875:2921  block.timestamp - stakingTimestamp[msg.sender] */\n      tag_161\n      jump\t// in\n    tag_210:\n        /* \"contracts/SimpleToken.sol\":2854:2921  uint256 timeStaked = block.timestamp - stakingTimestamp[msg.sender] */\n      swap1\n      pop\n        /* \"contracts/SimpleToken.sol\":2932:2962  uint256 stakingDurationInWeeks */\n      0x00\n        /* \"contracts/SimpleToken.sol\":2965:2985  timeStaked / 1 weeks */\n      tag_211\n        /* \"contracts/SimpleToken.sol\":2978:2985  1 weeks */\n      0x093a80\n        /* \"contracts/SimpleToken.sol\":2854:2921  uint256 timeStaked = block.timestamp - stakingTimestamp[msg.sender] */\n      dup4\n        /* \"contracts/SimpleToken.sol\":2965:2985  timeStaked / 1 weeks */\n      tag_163\n      jump\t// in\n    tag_211:\n        /* \"contracts/SimpleToken.sol\":2932:2985  uint256 stakingDurationInWeeks = timeStaked / 1 weeks */\n      swap1\n      pop\n        /* \"contracts/SimpleToken.sol\":3139:3140  4 */\n      0x04\n        /* \"contracts/SimpleToken.sol\":3113:3135  stakingDurationInWeeks */\n      dup2\n        /* \"contracts/SimpleToken.sol\":3113:3140  stakingDurationInWeeks >= 4 */\n      lt\n      iszero\n        /* \"contracts/SimpleToken.sol\":3105:3187  require(stakingDurationInWeeks >= 4, \"Tokens can only be unstaked after 4 weeks.\") */\n      tag_212\n      jumpi\n      mload(0x40)\n      shl(0xe5, 0x461bcd)\n      dup2\n      mstore\n        /* \"#utility.yul\":5241:5243   */\n      0x20\n        /* \"contracts/SimpleToken.sol\":3105:3187  require(stakingDurationInWeeks >= 4, \"Tokens can only be unstaked after 4 weeks.\") */\n      0x04\n      dup3\n      add\n        /* \"#utility.yul\":5223:5244   */\n      mstore\n        /* \"#utility.yul\":5280:5282   */\n      0x2a\n        /* \"#utility.yul\":5260:5278   */\n      0x24\n      dup3\n      add\n        /* \"#utility.yul\":5253:5283   */\n      mstore\n        /* \"#utility.yul\":5319:5353   */\n      0x546f6b656e732063616e206f6e6c7920626520756e7374616b65642061667465\n        /* \"#utility.yul\":5299:5317   */\n      0x44\n      dup3\n      add\n        /* \"#utility.yul\":5292:5354   */\n      mstore\n      shl(0xb1, 0x39101a103bb2b2b5b997)\n        /* \"#utility.yul\":5370:5388   */\n      0x64\n      dup3\n      add\n        /* \"#utility.yul\":5363:5403   */\n      mstore\n        /* \"#utility.yul\":5420:5439   */\n      0x84\n      add\n        /* \"contracts/SimpleToken.sol\":3105:3187  require(stakingDurationInWeeks >= 4, \"Tokens can only be unstaked after 4 weeks.\") */\n      tag_189\n        /* \"#utility.yul\":5039:5445   */\n      jump\n        /* \"contracts/SimpleToken.sol\":3105:3187  require(stakingDurationInWeeks >= 4, \"Tokens can only be unstaked after 4 weeks.\") */\n    tag_212:\n        /* \"contracts/SimpleToken.sol\":3238:3252  uint256 reward */\n      0x00\n        /* \"contracts/SimpleToken.sol\":3255:3289  calculateStakingReward(msg.sender) */\n      tag_215\n        /* \"contracts/SimpleToken.sol\":3278:3288  msg.sender */\n      caller\n        /* \"contracts/SimpleToken.sol\":3255:3277  calculateStakingReward */\n      tag_56\n        /* \"contracts/SimpleToken.sol\":3255:3289  calculateStakingReward(msg.sender) */\n      jump\t// in\n    tag_215:\n        /* \"contracts/SimpleToken.sol\":3353:3363  msg.sender */\n      caller\n        /* \"contracts/SimpleToken.sol\":3367:3368  0 */\n      0x00\n        /* \"contracts/SimpleToken.sol\":3340:3364  stakedAmount[msg.sender] */\n      dup2\n      dup2\n      mstore\n        /* \"contracts/SimpleToken.sol\":3340:3352  stakedAmount */\n      0x0d\n        /* \"contracts/SimpleToken.sol\":3340:3364  stakedAmount[msg.sender] */\n      0x20\n      swap1\n      dup2\n      mstore\n      0x40\n      dup1\n      dup4\n      keccak256\n        /* \"contracts/SimpleToken.sol\":3340:3368  stakedAmount[msg.sender] = 0 */\n      dup4\n      swap1\n      sstore\n        /* \"contracts/SimpleToken.sol\":3379:3395  stakingTimestamp */\n      0x0e\n        /* \"contracts/SimpleToken.sol\":3379:3407  stakingTimestamp[msg.sender] */\n      swap1\n      swap2\n      mstore\n      dup2\n      keccak256\n        /* \"contracts/SimpleToken.sol\":3379:3411  stakingTimestamp[msg.sender] = 0 */\n      sstore\n        /* \"contracts/SimpleToken.sol\":3238:3289  uint256 reward = calculateStakingReward(msg.sender) */\n      swap1\n      swap2\n      pop\n        /* \"contracts/SimpleToken.sol\":3488:3547  _transfer(address(this), msg.sender, stakedTokens + reward) */\n      tag_216\n      swap1\n        /* \"contracts/SimpleToken.sol\":3506:3510  this */\n      address\n      swap1\n        /* \"contracts/SimpleToken.sol\":3525:3546  stakedTokens + reward */\n      tag_217\n        /* \"contracts/SimpleToken.sol\":3238:3289  uint256 reward = calculateStakingReward(msg.sender) */\n      dup5\n        /* \"contracts/SimpleToken.sol\":3525:3537  stakedTokens */\n      dup9\n        /* \"contracts/SimpleToken.sol\":3525:3546  stakedTokens + reward */\n      tag_197\n      jump\t// in\n    tag_217:\n        /* \"contracts/SimpleToken.sol\":3488:3497  _transfer */\n      tag_174\n        /* \"contracts/SimpleToken.sol\":3488:3547  _transfer(address(this), msg.sender, stakedTokens + reward) */\n      jump\t// in\n    tag_216:\n        /* \"contracts/SimpleToken.sol\":3565:3613  TokensUnstaked(msg.sender, stakedTokens, reward) */\n      0x40\n      dup1\n      mload\n        /* \"#utility.yul\":5624:5649   */\n      dup6\n      dup2\n      mstore\n        /* \"#utility.yul\":5680:5682   */\n      0x20\n        /* \"#utility.yul\":5665:5683   */\n      dup2\n      add\n        /* \"#utility.yul\":5658:5692   */\n      dup4\n      swap1\n      mstore\n        /* \"contracts/SimpleToken.sol\":3580:3590  msg.sender */\n      caller\n      swap2\n        /* \"contracts/SimpleToken.sol\":3565:3613  TokensUnstaked(msg.sender, stakedTokens, reward) */\n      0x6f2d3e000c89d37446b7c0374c0125068ff316d1e3ee302336478a8cd03c2336\n      swap2\n        /* \"#utility.yul\":5597:5615   */\n      add\n        /* \"contracts/SimpleToken.sol\":3565:3613  TokensUnstaked(msg.sender, stakedTokens, reward) */\n      mload(0x40)\n      dup1\n      swap2\n      sub\n      swap1\n      log2\n        /* \"contracts/SimpleToken.sol\":2726:3621  {... */\n      pop\n      pop\n      pop\n      pop\n        /* \"contracts/SimpleToken.sol\":2692:3621  function unstakeTokens() external {... */\n      jump\t// out\n        /* \"@openzeppelin/contracts/token/ERC20/ERC20.sol\":3315:3493  function transfer(address to, uint256 value) public virtual returns (bool) {... */\n    tag_126:\n        /* \"@openzeppelin/contracts/token/ERC20/ERC20.sol\":3384:3388  bool */\n      0x00\n        /* \"@openzeppelin/contracts/utils/Context.sol\":735:745  msg.sender */\n      caller\n        /* \"@openzeppelin/contracts/token/ERC20/ERC20.sol\":3438:3465  _transfer(owner, to, value) */\n      tag_156\n        /* \"@openzeppelin/contracts/utils/Context.sol\":735:745  msg.sender */\n      dup2\n        /* \"@openzeppelin/contracts/token/ERC20/ERC20.sol\":3455:3457  to */\n      dup6\n        /* \"@openzeppelin/contracts/token/ERC20/ERC20.sol\":3459:3464  value */\n      dup6\n        /* \"@openzeppelin/contracts/token/ERC20/ERC20.sol\":3438:3447  _transfer */\n      tag_174\n        /* \"@openzeppelin/contracts/token/ERC20/ERC20.sol\":3438:3465  _transfer(owner, to, value) */\n      jump\t// in\n        /* \"contracts/SimpleToken.sol\":4567:4687  function setStakingRewardRate(uint256 _rewardRate) external onlyOwner {... */\n    tag_130:\n        /* \"@openzeppelin/contracts/access/Ownable.sol\":1531:1544  _checkOwner() */\n      tag_224\n        /* \"@openzeppelin/contracts/access/Ownable.sol\":1531:1542  _checkOwner */\n      tag_183\n        /* \"@openzeppelin/contracts/access/Ownable.sol\":1531:1544  _checkOwner() */\n      jump\t// in\n    tag_224:\n        /* \"contracts/SimpleToken.sol\":4648:4665  stakingRewardRate */\n      0x0c\n        /* \"contracts/SimpleToken.sol\":4648:4679  stakingRewardRate = _rewardRate */\n      sstore\n        /* \"contracts/SimpleToken.sol\":4567:4687  function setStakingRewardRate(uint256 _rewardRate) external onlyOwner {... */\n      jump\t// out\n        /* \"@openzeppelin/contracts/access/Ownable.sol\":2543:2758  function transferOwnership(address newOwner) public virtual onlyOwner {... */\n    tag_141:\n        /* \"@openzeppelin/contracts/access/Ownable.sol\":1531:1544  _checkOwner() */\n      tag_228\n        /* \"@openzeppelin/contracts/access/Ownable.sol\":1531:1542  _checkOwner */\n      tag_183\n        /* \"@openzeppelin/contracts/access/Ownable.sol\":1531:1544  _checkOwner() */\n      jump\t// in\n    tag_228:\n      sub(shl(0xa0, 0x01), 0x01)\n        /* \"@openzeppelin/contracts/access/Ownable.sol\":2627:2649  newOwner == address(0) */\n      dup2\n      and\n        /* \"@openzeppelin/contracts/access/Ownable.sol\":2623:2714  if (newOwner == address(0)) {... */\n      tag_230\n      jumpi\n        /* \"@openzeppelin/contracts/access/Ownable.sol\":2672:2703  OwnableInvalidOwner(address(0)) */\n      mload(0x40)\n      shl(0xe0, 0x1e4fbdf7)\n      dup2\n      mstore\n        /* \"@openzeppelin/contracts/access/Ownable.sol\":2700:2701  0 */\n      0x00\n        /* \"@openzeppelin/contracts/access/Ownable.sol\":2672:2703  OwnableInvalidOwner(address(0)) */\n      0x04\n      dup3\n      add\n        /* \"#utility.yul\":2430:2481   */\n      mstore\n        /* \"#utility.yul\":2403:2421   */\n      0x24\n      add\n        /* \"@openzeppelin/contracts/access/Ownable.sol\":2672:2703  OwnableInvalidOwner(address(0)) */\n      tag_189\n        /* \"#utility.yul\":2284:2487   */\n      jump\n        /* \"@openzeppelin/contracts/access/Ownable.sol\":2623:2714  if (newOwner == address(0)) {... */\n    tag_230:\n        /* \"@openzeppelin/contracts/access/Ownable.sol\":2723:2751  _transferOwnership(newOwner) */\n      tag_232\n        /* \"@openzeppelin/contracts/access/Ownable.sol\":2742:2750  newOwner */\n      dup2\n        /* \"@openzeppelin/contracts/access/Ownable.sol\":2723:2741  _transferOwnership */\n      tag_186\n        /* \"@openzeppelin/contracts/access/Ownable.sol\":2723:2751  _transferOwnership(newOwner) */\n      jump\t// in\n    tag_232:\n        /* \"@openzeppelin/contracts/access/Ownable.sol\":2543:2758  function transferOwnership(address newOwner) public virtual onlyOwner {... */\n      pop\n      jump\t// out\n        /* \"@openzeppelin/contracts/token/ERC20/ERC20.sol\":8726:8854  function _approve(address owner, address spender, uint256 value) internal {... */\n    tag_157:\n        /* \"@openzeppelin/contracts/token/ERC20/ERC20.sol\":8810:8847  _approve(owner, spender, value, true) */\n      tag_235\n        /* \"@openzeppelin/contracts/token/ERC20/ERC20.sol\":8819:8824  owner */\n      dup4\n        /* \"@openzeppelin/contracts/token/ERC20/ERC20.sol\":8826:8833  spender */\n      dup4\n        /* \"@openzeppelin/contracts/token/ERC20/ERC20.sol\":8835:8840  value */\n      dup4\n        /* \"@openzeppelin/contracts/token/ERC20/ERC20.sol\":8842:8846  true */\n      0x01\n        /* \"@openzeppelin/contracts/token/ERC20/ERC20.sol\":8810:8818  _approve */\n      tag_236\n        /* \"@openzeppelin/contracts/token/ERC20/ERC20.sol\":8810:8847  _approve(owner, spender, value, true) */\n      jump\t// in\n    tag_235:\n        /* \"@openzeppelin/contracts/token/ERC20/ERC20.sol\":8726:8854  function _approve(address owner, address spender, uint256 value) internal {... */\n      pop\n      pop\n      pop\n      jump\t// out\n        /* \"@openzeppelin/contracts/token/ERC20/ERC20.sol\":10415:10891  function _spendAllowance(address owner, address spender, uint256 value) internal virtual {... */\n    tag_172:\n      sub(shl(0xa0, 0x01), 0x01)\n        /* \"@openzeppelin/contracts/token/ERC20/ERC20.sol\":3657:3675  _allowances[owner] */\n      dup4\n      dup2\n      and\n        /* \"@openzeppelin/contracts/token/ERC20/ERC20.sol\":10514:10538  uint256 currentAllowance */\n      0x00\n        /* \"@openzeppelin/contracts/token/ERC20/ERC20.sol\":3657:3675  _allowances[owner] */\n      swap1\n      dup2\n      mstore\n        /* \"@openzeppelin/contracts/token/ERC20/ERC20.sol\":3657:3668  _allowances */\n      0x01\n        /* \"@openzeppelin/contracts/token/ERC20/ERC20.sol\":3657:3675  _allowances[owner] */\n      0x20\n      swap1\n      dup2\n      mstore\n      0x40\n      dup1\n      dup4\n      keccak256\n        /* \"@openzeppelin/contracts/token/ERC20/ERC20.sol\":3657:3684  _allowances[owner][spender] */\n      swap4\n      dup7\n      and\n      dup4\n      mstore\n      swap3\n      swap1\n      mstore\n      keccak256\n      sload\n      not(0x00)\n        /* \"@openzeppelin/contracts/token/ERC20/ERC20.sol\":10580:10616  currentAllowance < type(uint256).max */\n      dup2\n      lt\n        /* \"@openzeppelin/contracts/token/ERC20/ERC20.sol\":10576:10885  if (currentAllowance < type(uint256).max) {... */\n      iszero\n      tag_243\n      jumpi\n        /* \"@openzeppelin/contracts/token/ERC20/ERC20.sol\":10655:10660  value */\n      dup2\n        /* \"@openzeppelin/contracts/token/ERC20/ERC20.sol\":10636:10652  currentAllowance */\n      dup2\n        /* \"@openzeppelin/contracts/token/ERC20/ERC20.sol\":10636:10660  currentAllowance < value */\n      lt\n        /* \"@openzeppelin/contracts/token/ERC20/ERC20.sol\":10632:10762  if (currentAllowance < value) {... */\n      iszero\n      tag_240\n      jumpi\n        /* \"@openzeppelin/contracts/token/ERC20/ERC20.sol\":10687:10747  ERC20InsufficientAllowance(spender, currentAllowance, value) */\n      mload(0x40)\n      shl(0xe1, 0x7dc7a0d9)\n      dup2\n      mstore\n      sub(shl(0xa0, 0x01), 0x01)\n        /* \"#utility.yul\":5923:5955   */\n      dup5\n      and\n        /* \"@openzeppelin/contracts/token/ERC20/ERC20.sol\":10687:10747  ERC20InsufficientAllowance(spender, currentAllowance, value) */\n      0x04\n      dup3\n      add\n        /* \"#utility.yul\":5905:5956   */\n      mstore\n        /* \"#utility.yul\":5972:5990   */\n      0x24\n      dup2\n      add\n        /* \"#utility.yul\":5965:5999   */\n      dup3\n      swap1\n      mstore\n        /* \"#utility.yul\":6015:6033   */\n      0x44\n      dup2\n      add\n        /* \"#utility.yul\":6008:6042   */\n      dup4\n      swap1\n      mstore\n        /* \"#utility.yul\":5878:5896   */\n      0x64\n      add\n        /* \"@openzeppelin/contracts/token/ERC20/ERC20.sol\":10687:10747  ERC20InsufficientAllowance(spender, currentAllowance, value) */\n      tag_189\n        /* \"#utility.yul\":5703:6048   */\n      jump\n        /* \"@openzeppelin/contracts/token/ERC20/ERC20.sol\":10632:10762  if (currentAllowance < value) {... */\n    tag_240:\n        /* \"@openzeppelin/contracts/token/ERC20/ERC20.sol\":10803:10860  _approve(owner, spender, currentAllowance - value, false) */\n      tag_243\n        /* \"@openzeppelin/contracts/token/ERC20/ERC20.sol\":10812:10817  owner */\n      dup5\n        /* \"@openzeppelin/contracts/token/ERC20/ERC20.sol\":10819:10826  spender */\n      dup5\n        /* \"@openzeppelin/contracts/token/ERC20/ERC20.sol\":10847:10852  value */\n      dup5\n        /* \"@openzeppelin/contracts/token/ERC20/ERC20.sol\":10828:10844  currentAllowance */\n      dup5\n        /* \"@openzeppelin/contracts/token/ERC20/ERC20.sol\":10828:10852  currentAllowance - value */\n      sub\n        /* \"@openzeppelin/contracts/token/ERC20/ERC20.sol\":10854:10859  false */\n      0x00\n        /* \"@openzeppelin/contracts/token/ERC20/ERC20.sol\":10803:10811  _approve */\n      tag_236\n        /* \"@openzeppelin/contracts/token/ERC20/ERC20.sol\":10803:10860  _approve(owner, spender, currentAllowance - value, false) */\n      jump\t// in\n    tag_243:\n        /* \"@openzeppelin/contracts/token/ERC20/ERC20.sol\":10504:10891  {... */\n      pop\n        /* \"@openzeppelin/contracts/token/ERC20/ERC20.sol\":10415:10891  function _spendAllowance(address owner, address spender, uint256 value) internal virtual {... */\n      pop\n      pop\n      pop\n      jump\t// out\n        /* \"@openzeppelin/contracts/token/ERC20/ERC20.sol\":5393:5693  function _transfer(address from, address to, uint256 value) internal {... */\n    tag_174:\n      sub(shl(0xa0, 0x01), 0x01)\n        /* \"@openzeppelin/contracts/token/ERC20/ERC20.sol\":5476:5494  from == address(0) */\n      dup4\n      and\n        /* \"@openzeppelin/contracts/token/ERC20/ERC20.sol\":5472:5558  if (from == address(0)) {... */\n      tag_245\n      jumpi\n        /* \"@openzeppelin/contracts/token/ERC20/ERC20.sol\":5517:5547  ERC20InvalidSender(address(0)) */\n      mload(0x40)\n      shl(0xe1, 0x4b637e8f)\n      dup2\n      mstore\n        /* \"@openzeppelin/contracts/token/ERC20/ERC20.sol\":5544:5545  0 */\n      0x00\n        /* \"@openzeppelin/contracts/token/ERC20/ERC20.sol\":5517:5547  ERC20InvalidSender(address(0)) */\n      0x04\n      dup3\n      add\n        /* \"#utility.yul\":2430:2481   */\n      mstore\n        /* \"#utility.yul\":2403:2421   */\n      0x24\n      add\n        /* \"@openzeppelin/contracts/token/ERC20/ERC20.sol\":5517:5547  ERC20InvalidSender(address(0)) */\n      tag_189\n        /* \"#utility.yul\":2284:2487   */\n      jump\n        /* \"@openzeppelin/contracts/token/ERC20/ERC20.sol\":5472:5558  if (from == address(0)) {... */\n    tag_245:\n      sub(shl(0xa0, 0x01), 0x01)\n        /* \"@openzeppelin/contracts/token/ERC20/ERC20.sol\":5571:5587  to == address(0) */\n      dup3\n      and\n        /* \"@openzeppelin/contracts/token/ERC20/ERC20.sol\":5567:5653  if (to == address(0)) {... */\n      tag_247\n      jumpi\n        /* \"@openzeppelin/contracts/token/ERC20/ERC20.sol\":5610:5642  ERC20InvalidReceiver(address(0)) */\n      mload(0x40)\n      shl(0xe0, 0xec442f05)\n      dup2\n      mstore\n        /* \"@openzeppelin/contracts/token/ERC20/ERC20.sol\":5639:5640  0 */\n      0x00\n        /* \"@openzeppelin/contracts/token/ERC20/ERC20.sol\":5610:5642  ERC20InvalidReceiver(address(0)) */\n      0x04\n      dup3\n      add\n        /* \"#utility.yul\":2430:2481   */\n      mstore\n        /* \"#utility.yul\":2403:2421   */\n      0x24\n      add\n        /* \"@openzeppelin/contracts/token/ERC20/ERC20.sol\":5610:5642  ERC20InvalidReceiver(address(0)) */\n      tag_189\n        /* \"#utility.yul\":2284:2487   */\n      jump\n        /* \"@openzeppelin/contracts/token/ERC20/ERC20.sol\":5567:5653  if (to == address(0)) {... */\n    tag_247:\n        /* \"@openzeppelin/contracts/token/ERC20/ERC20.sol\":5662:5686  _update(from, to, value) */\n      tag_235\n        /* \"@openzeppelin/contracts/token/ERC20/ERC20.sol\":5670:5674  from */\n      dup4\n        /* \"@openzeppelin/contracts/token/ERC20/ERC20.sol\":5676:5678  to */\n      dup4\n        /* \"@openzeppelin/contracts/token/ERC20/ERC20.sol\":5680:5685  value */\n      dup4\n        /* \"@openzeppelin/contracts/token/ERC20/ERC20.sol\":5662:5669  _update */\n      tag_250\n        /* \"@openzeppelin/contracts/token/ERC20/ERC20.sol\":5662:5686  _update(from, to, value) */\n      jump\t// in\n        /* \"@openzeppelin/contracts/access/Ownable.sol\":1796:1958  function _checkOwner() internal view virtual {... */\n    tag_183:\n        /* \"@openzeppelin/contracts/access/Ownable.sol\":1710:1716  _owner */\n      and(sub(shl(0xa0, 0x01), 0x01), sload(0x05))\n        /* \"@openzeppelin/contracts/utils/Context.sol\":735:745  msg.sender */\n      caller\n        /* \"@openzeppelin/contracts/access/Ownable.sol\":1855:1878  owner() != _msgSender() */\n      eq\n        /* \"@openzeppelin/contracts/access/Ownable.sol\":1851:1952  if (owner() != _msgSender()) {... */\n      tag_185\n      jumpi\n        /* \"@openzeppelin/contracts/access/Ownable.sol\":1901:1941  OwnableUnauthorizedAccount(_msgSender()) */\n      mload(0x40)\n      shl(0xe0, 0x118cdaa7)\n      dup2\n      mstore\n        /* \"@openzeppelin/contracts/utils/Context.sol\":735:745  msg.sender */\n      caller\n        /* \"@openzeppelin/contracts/access/Ownable.sol\":1901:1941  OwnableUnauthorizedAccount(_msgSender()) */\n      0x04\n      dup3\n      add\n        /* \"#utility.yul\":2430:2481   */\n      mstore\n        /* \"#utility.yul\":2403:2421   */\n      0x24\n      add\n        /* \"@openzeppelin/contracts/access/Ownable.sol\":1901:1941  OwnableUnauthorizedAccount(_msgSender()) */\n      tag_189\n        /* \"#utility.yul\":2284:2487   */\n      jump\n        /* \"@openzeppelin/contracts/access/Ownable.sol\":2912:3099  function _transferOwnership(address newOwner) internal virtual {... */\n    tag_186:\n        /* \"@openzeppelin/contracts/access/Ownable.sol\":3004:3010  _owner */\n      0x05\n      dup1\n      sload\n      sub(shl(0xa0, 0x01), 0x01)\n        /* \"@openzeppelin/contracts/access/Ownable.sol\":3020:3037  _owner = newOwner */\n      dup4\n      dup2\n      and\n      not(sub(shl(0xa0, 0x01), 0x01))\n      dup4\n      and\n      dup2\n      or\n      swap1\n      swap4\n      sstore\n        /* \"@openzeppelin/contracts/access/Ownable.sol\":3052:3092  OwnershipTransferred(oldOwner, newOwner) */\n      mload(0x40)\n        /* \"@openzeppelin/contracts/access/Ownable.sol\":3004:3010  _owner */\n      swap2\n      and\n      swap2\n        /* \"@openzeppelin/contracts/access/Ownable.sol\":3020:3037  _owner = newOwner */\n      swap1\n        /* \"@openzeppelin/contracts/access/Ownable.sol\":3004:3010  _owner */\n      dup3\n      swap1\n        /* \"@openzeppelin/contracts/access/Ownable.sol\":3052:3092  OwnershipTransferred(oldOwner, newOwner) */\n      0x8be0079c531659141344cd1fd0a4f28419497f9722a3daafe3b4186f6b6457e0\n      swap1\n        /* \"@openzeppelin/contracts/access/Ownable.sol\":2985:3001  address oldOwner */\n      0x00\n      swap1\n        /* \"@openzeppelin/contracts/access/Ownable.sol\":3052:3092  OwnershipTransferred(oldOwner, newOwner) */\n      log3\n        /* \"@openzeppelin/contracts/access/Ownable.sol\":2975:3099  {... */\n      pop\n        /* \"@openzeppelin/contracts/access/Ownable.sol\":2912:3099  function _transferOwnership(address newOwner) internal virtual {... */\n      pop\n      jump\t// out\n        /* \"@openzeppelin/contracts/token/ERC20/ERC20.sol\":9701:10133  function _approve(address owner, address spender, uint256 value, bool emitEvent) internal virtual {... */\n    tag_236:\n      sub(shl(0xa0, 0x01), 0x01)\n        /* \"@openzeppelin/contracts/token/ERC20/ERC20.sol\":9813:9832  owner == address(0) */\n      dup5\n      and\n        /* \"@openzeppelin/contracts/token/ERC20/ERC20.sol\":9809:9898  if (owner == address(0)) {... */\n      tag_259\n      jumpi\n        /* \"@openzeppelin/contracts/token/ERC20/ERC20.sol\":9855:9887  ERC20InvalidApprover(address(0)) */\n      mload(0x40)\n      shl(0xe0, 0xe602df05)\n      dup2\n      mstore\n        /* \"@openzeppelin/contracts/token/ERC20/ERC20.sol\":9884:9885  0 */\n      0x00\n        /* \"@openzeppelin/contracts/token/ERC20/ERC20.sol\":9855:9887  ERC20InvalidApprover(address(0)) */\n      0x04\n      dup3\n      add\n        /* \"#utility.yul\":2430:2481   */\n      mstore\n        /* \"#utility.yul\":2403:2421   */\n      0x24\n      add\n        /* \"@openzeppelin/contracts/token/ERC20/ERC20.sol\":9855:9887  ERC20InvalidApprover(address(0)) */\n      tag_189\n        /* \"#utility.yul\":2284:2487   */\n      jump\n        /* \"@openzeppelin/contracts/token/ERC20/ERC20.sol\":9809:9898  if (owner == address(0)) {... */\n    tag_259:\n      sub(shl(0xa0, 0x01), 0x01)\n        /* \"@openzeppelin/contracts/token/ERC20/ERC20.sol\":9911:9932  spender == address(0) */\n      dup4\n      and\n        /* \"@openzeppelin/contracts/token/ERC20/ERC20.sol\":9907:9997  if (spender == address(0)) {... */\n      tag_261\n      jumpi\n        /* \"@openzeppelin/contracts/token/ERC20/ERC20.sol\":9955:9986  ERC20InvalidSpender(address(0)) */\n      mload(0x40)\n      shl(0xe1, 0x4a1406b1)\n      dup2\n      mstore\n        /* \"@openzeppelin/contracts/token/ERC20/ERC20.sol\":9983:9984  0 */\n      0x00\n        /* \"@openzeppelin/contracts/token/ERC20/ERC20.sol\":9955:9986  ERC20InvalidSpender(address(0)) */\n      0x04\n      dup3\n      add\n        /* \"#utility.yul\":2430:2481   */\n      mstore\n        /* \"#utility.yul\":2403:2421   */\n      0x24\n      add\n        /* \"@openzeppelin/contracts/token/ERC20/ERC20.sol\":9955:9986  ERC20InvalidSpender(address(0)) */\n      tag_189\n        /* \"#utility.yul\":2284:2487   */\n      jump\n        /* \"@openzeppelin/contracts/token/ERC20/ERC20.sol\":9907:9997  if (spender == address(0)) {... */\n    tag_261:\n      sub(shl(0xa0, 0x01), 0x01)\n        /* \"@openzeppelin/contracts/token/ERC20/ERC20.sol\":10006:10024  _allowances[owner] */\n      dup1\n      dup6\n      and\n      0x00\n      swap1\n      dup2\n      mstore\n        /* \"@openzeppelin/contracts/token/ERC20/ERC20.sol\":10006:10017  _allowances */\n      0x01\n        /* \"@openzeppelin/contracts/token/ERC20/ERC20.sol\":10006:10024  _allowances[owner] */\n      0x20\n      swap1\n      dup2\n      mstore\n      0x40\n      dup1\n      dup4\n      keccak256\n        /* \"@openzeppelin/contracts/token/ERC20/ERC20.sol\":10006:10033  _allowances[owner][spender] */\n      swap4\n      dup8\n      and\n      dup4\n      mstore\n      swap3\n      swap1\n      mstore\n      keccak256\n        /* \"@openzeppelin/contracts/token/ERC20/ERC20.sol\":10006:10041  _allowances[owner][spender] = value */\n      dup3\n      swap1\n      sstore\n        /* \"@openzeppelin/contracts/token/ERC20/ERC20.sol\":10051:10127  if (emitEvent) {... */\n      dup1\n      iszero\n      tag_243\n      jumpi\n        /* \"@openzeppelin/contracts/token/ERC20/ERC20.sol\":10101:10108  spender */\n      dup3\n      sub(shl(0xa0, 0x01), 0x01)\n        /* \"@openzeppelin/contracts/token/ERC20/ERC20.sol\":10085:10116  Approval(owner, spender, value) */\n      and\n        /* \"@openzeppelin/contracts/token/ERC20/ERC20.sol\":10094:10099  owner */\n      dup5\n      sub(shl(0xa0, 0x01), 0x01)\n        /* \"@openzeppelin/contracts/token/ERC20/ERC20.sol\":10085:10116  Approval(owner, spender, value) */\n      and\n      0x8c5be1e5ebec7d5bd14f71427d1e84f3dd0314c0f7b2291e5b200ac8c7c3b925\n        /* \"@openzeppelin/contracts/token/ERC20/ERC20.sol\":10110:10115  value */\n      dup5\n        /* \"@openzeppelin/contracts/token/ERC20/ERC20.sol\":10085:10116  Approval(owner, spender, value) */\n      mload(0x40)\n      tag_264\n      swap2\n        /* \"#utility.yul\":160:185   */\n      dup2\n      mstore\n        /* \"#utility.yul\":148:150   */\n      0x20\n        /* \"#utility.yul\":133:151   */\n      add\n      swap1\n        /* \"#utility.yul\":14:191   */\n      jump\n        /* \"@openzeppelin/contracts/token/ERC20/ERC20.sol\":10085:10116  Approval(owner, spender, value) */\n    tag_264:\n      mload(0x40)\n      dup1\n      swap2\n      sub\n      swap1\n      log3\n        /* \"@openzeppelin/contracts/token/ERC20/ERC20.sol\":9701:10133  function _approve(address owner, address spender, uint256 value, bool emitEvent) internal virtual {... */\n      pop\n      pop\n      pop\n      pop\n      jump\t// out\n        /* \"@openzeppelin/contracts/token/ERC20/ERC20.sol\":6008:7115  function _update(address from, address to, uint256 value) internal virtual {... */\n    tag_250:\n      sub(shl(0xa0, 0x01), 0x01)\n        /* \"@openzeppelin/contracts/token/ERC20/ERC20.sol\":6097:6115  from == address(0) */\n      dup4\n      and\n        /* \"@openzeppelin/contracts/token/ERC20/ERC20.sol\":6093:6633  if (from == address(0)) {... */\n      tag_266\n      jumpi\n        /* \"@openzeppelin/contracts/token/ERC20/ERC20.sol\":6249:6254  value */\n      dup1\n        /* \"@openzeppelin/contracts/token/ERC20/ERC20.sol\":6233:6245  _totalSupply */\n      0x02\n      0x00\n        /* \"@openzeppelin/contracts/token/ERC20/ERC20.sol\":6233:6254  _totalSupply += value */\n      dup3\n      dup3\n      sload\n      tag_267\n      swap2\n      swap1\n      tag_197\n      jump\t// in\n    tag_267:\n      swap1\n      swap2\n      sstore\n      pop\n        /* \"@openzeppelin/contracts/token/ERC20/ERC20.sol\":6093:6633  if (from == address(0)) {... */\n      tag_268\n      swap1\n      pop\n      jump\n    tag_266:\n      sub(shl(0xa0, 0x01), 0x01)\n        /* \"@openzeppelin/contracts/token/ERC20/ERC20.sol\":6307:6322  _balances[from] */\n      dup4\n      and\n        /* \"@openzeppelin/contracts/token/ERC20/ERC20.sol\":6285:6304  uint256 fromBalance */\n      0x00\n        /* \"@openzeppelin/contracts/token/ERC20/ERC20.sol\":6307:6322  _balances[from] */\n      swap1\n      dup2\n      mstore\n      0x20\n      dup2\n      swap1\n      mstore\n      0x40\n      swap1\n      keccak256\n      sload\n        /* \"@openzeppelin/contracts/token/ERC20/ERC20.sol\":6340:6359  fromBalance < value */\n      dup2\n      dup2\n      lt\n        /* \"@openzeppelin/contracts/token/ERC20/ERC20.sol\":6336:6451  if (fromBalance < value) {... */\n      iszero\n      tag_269\n      jumpi\n        /* \"@openzeppelin/contracts/token/ERC20/ERC20.sol\":6386:6436  ERC20InsufficientBalance(from, fromBalance, value) */\n      mload(0x40)\n      shl(0xe2, 0x391434e3)\n      dup2\n      mstore\n      sub(shl(0xa0, 0x01), 0x01)\n        /* \"#utility.yul\":5923:5955   */\n      dup6\n      and\n        /* \"@openzeppelin/contracts/token/ERC20/ERC20.sol\":6386:6436  ERC20InsufficientBalance(from, fromBalance, value) */\n      0x04\n      dup3\n      add\n        /* \"#utility.yul\":5905:5956   */\n      mstore\n        /* \"#utility.yul\":5972:5990   */\n      0x24\n      dup2\n      add\n        /* \"#utility.yul\":5965:5999   */\n      dup3\n      swap1\n      mstore\n        /* \"#utility.yul\":6015:6033   */\n      0x44\n      dup2\n      add\n        /* \"#utility.yul\":6008:6042   */\n      dup4\n      swap1\n      mstore\n        /* \"#utility.yul\":5878:5896   */\n      0x64\n      add\n        /* \"@openzeppelin/contracts/token/ERC20/ERC20.sol\":6386:6436  ERC20InsufficientBalance(from, fromBalance, value) */\n      tag_189\n        /* \"#utility.yul\":5703:6048   */\n      jump\n        /* \"@openzeppelin/contracts/token/ERC20/ERC20.sol\":6336:6451  if (fromBalance < value) {... */\n    tag_269:\n      sub(shl(0xa0, 0x01), 0x01)\n        /* \"@openzeppelin/contracts/token/ERC20/ERC20.sol\":6571:6586  _balances[from] */\n      dup5\n      and\n        /* \"@openzeppelin/contracts/token/ERC20/ERC20.sol\":6571:6580  _balances */\n      0x00\n        /* \"@openzeppelin/contracts/token/ERC20/ERC20.sol\":6571:6586  _balances[from] */\n      swap1\n      dup2\n      mstore\n      0x20\n      dup2\n      swap1\n      mstore\n      0x40\n      swap1\n      keccak256\n        /* \"@openzeppelin/contracts/token/ERC20/ERC20.sol\":6589:6608  fromBalance - value */\n      swap1\n      dup3\n      swap1\n      sub\n        /* \"@openzeppelin/contracts/token/ERC20/ERC20.sol\":6571:6608  _balances[from] = fromBalance - value */\n      swap1\n      sstore\n        /* \"@openzeppelin/contracts/token/ERC20/ERC20.sol\":6093:6633  if (from == address(0)) {... */\n    tag_268:\n      sub(shl(0xa0, 0x01), 0x01)\n        /* \"@openzeppelin/contracts/token/ERC20/ERC20.sol\":6647:6663  to == address(0) */\n      dup3\n      and\n        /* \"@openzeppelin/contracts/token/ERC20/ERC20.sol\":6643:7068  if (to == address(0)) {... */\n      tag_271\n      jumpi\n        /* \"@openzeppelin/contracts/token/ERC20/ERC20.sol\":6810:6822  _totalSupply */\n      0x02\n        /* \"@openzeppelin/contracts/token/ERC20/ERC20.sol\":6810:6831  _totalSupply -= value */\n      dup1\n      sload\n      dup3\n      swap1\n      sub\n      swap1\n      sstore\n        /* \"@openzeppelin/contracts/token/ERC20/ERC20.sol\":6643:7068  if (to == address(0)) {... */\n      jump(tag_272)\n    tag_271:\n      sub(shl(0xa0, 0x01), 0x01)\n        /* \"@openzeppelin/contracts/token/ERC20/ERC20.sol\":7021:7034  _balances[to] */\n      dup3\n      and\n        /* \"@openzeppelin/contracts/token/ERC20/ERC20.sol\":7021:7030  _balances */\n      0x00\n        /* \"@openzeppelin/contracts/token/ERC20/ERC20.sol\":7021:7034  _balances[to] */\n      swap1\n      dup2\n      mstore\n      0x20\n      dup2\n      swap1\n      mstore\n      0x40\n      swap1\n      keccak256\n        /* \"@openzeppelin/contracts/token/ERC20/ERC20.sol\":7021:7043  _balances[to] += value */\n      dup1\n      sload\n      dup3\n      add\n      swap1\n      sstore\n        /* \"@openzeppelin/contracts/token/ERC20/ERC20.sol\":6643:7068  if (to == address(0)) {... */\n    tag_272:\n        /* \"@openzeppelin/contracts/token/ERC20/ERC20.sol\":7098:7100  to */\n      dup2\n      sub(shl(0xa0, 0x01), 0x01)\n        /* \"@openzeppelin/contracts/token/ERC20/ERC20.sol\":7083:7108  Transfer(from, to, value) */\n      and\n        /* \"@openzeppelin/contracts/token/ERC20/ERC20.sol\":7092:7096  from */\n      dup4\n      sub(shl(0xa0, 0x01), 0x01)\n        /* \"@openzeppelin/contracts/token/ERC20/ERC20.sol\":7083:7108  Transfer(from, to, value) */\n      and\n      0xddf252ad1be2c89b69c2b068fc378daa952ba7f163c4a11628f55a4df523b3ef\n        /* \"@openzeppelin/contracts/token/ERC20/ERC20.sol\":7102:7107  value */\n      dup4\n        /* \"@openzeppelin/contracts/token/ERC20/ERC20.sol\":7083:7108  Transfer(from, to, value) */\n      mload(0x40)\n      tag_273\n      swap2\n        /* \"#utility.yul\":160:185   */\n      dup2\n      mstore\n        /* \"#utility.yul\":148:150   */\n      0x20\n        /* \"#utility.yul\":133:151   */\n      add\n      swap1\n        /* \"#utility.yul\":14:191   */\n      jump\n        /* \"@openzeppelin/contracts/token/ERC20/ERC20.sol\":7083:7108  Transfer(from, to, value) */\n    tag_273:\n      mload(0x40)\n      dup1\n      swap2\n      sub\n      swap1\n      log3\n        /* \"@openzeppelin/contracts/token/ERC20/ERC20.sol\":6008:7115  function _update(address from, address to, uint256 value) internal virtual {... */\n      pop\n      pop\n      pop\n      jump\t// out\n        /* \"#utility.yul\":196:614   */\n    tag_46:\n        /* \"#utility.yul\":345:347   */\n      0x20\n        /* \"#utility.yul\":334:343   */\n      dup2\n        /* \"#utility.yul\":327:348   */\n      mstore\n        /* \"#utility.yul\":308:312   */\n      0x00\n        /* \"#utility.yul\":377:383   */\n      dup3\n        /* \"#utility.yul\":371:384   */\n      mload\n        /* \"#utility.yul\":420:426   */\n      dup1\n        /* \"#utility.yul\":415:417   */\n      0x20\n        /* \"#utility.yul\":404:413   */\n      dup5\n        /* \"#utility.yul\":400:418   */\n      add\n        /* \"#utility.yul\":393:427   */\n      mstore\n        /* \"#utility.yul\":479:485   */\n      dup1\n        /* \"#utility.yul\":474:476   */\n      0x20\n        /* \"#utility.yul\":466:472   */\n      dup6\n        /* \"#utility.yul\":462:477   */\n      add\n        /* \"#utility.yul\":457:459   */\n      0x40\n        /* \"#utility.yul\":446:455   */\n      dup6\n        /* \"#utility.yul\":442:460   */\n      add\n        /* \"#utility.yul\":436:486   */\n      mcopy\n        /* \"#utility.yul\":535:536   */\n      0x00\n        /* \"#utility.yul\":530:532   */\n      0x40\n        /* \"#utility.yul\":521:527   */\n      dup3\n        /* \"#utility.yul\":510:519   */\n      dup6\n        /* \"#utility.yul\":506:528   */\n      add\n        /* \"#utility.yul\":502:533   */\n      add\n        /* \"#utility.yul\":495:537   */\n      mstore\n        /* \"#utility.yul\":605:607   */\n      0x40\n        /* \"#utility.yul\":598:600   */\n      0x1f\n        /* \"#utility.yul\":594:601   */\n      not\n        /* \"#utility.yul\":589:591   */\n      0x1f\n        /* \"#utility.yul\":581:587   */\n      dup4\n        /* \"#utility.yul\":577:592   */\n      add\n        /* \"#utility.yul\":573:602   */\n      and\n        /* \"#utility.yul\":562:571   */\n      dup5\n        /* \"#utility.yul\":558:603   */\n      add\n        /* \"#utility.yul\":554:608   */\n      add\n        /* \"#utility.yul\":546:608   */\n      swap2\n      pop\n      pop\n        /* \"#utility.yul\":196:614   */\n      swap3\n      swap2\n      pop\n      pop\n      jump\t// out\n        /* \"#utility.yul\":619:792   */\n    tag_274:\n        /* \"#utility.yul\":687:707   */\n      dup1\n      calldataload\n      sub(shl(0xa0, 0x01), 0x01)\n        /* \"#utility.yul\":736:767   */\n      dup2\n      and\n        /* \"#utility.yul\":726:768   */\n      dup2\n      eq\n        /* \"#utility.yul\":716:786   */\n      tag_280\n      jumpi\n        /* \"#utility.yul\":782:783   */\n      0x00\n        /* \"#utility.yul\":779:780   */\n      dup1\n        /* \"#utility.yul\":772:784   */\n      revert\n        /* \"#utility.yul\":716:786   */\n    tag_280:\n        /* \"#utility.yul\":619:792   */\n      swap2\n      swap1\n      pop\n      jump\t// out\n        /* \"#utility.yul\":797:1097   */\n    tag_49:\n        /* \"#utility.yul\":865:871   */\n      0x00\n        /* \"#utility.yul\":873:879   */\n      dup1\n        /* \"#utility.yul\":926:928   */\n      0x40\n        /* \"#utility.yul\":914:923   */\n      dup4\n        /* \"#utility.yul\":905:912   */\n      dup6\n        /* \"#utility.yul\":901:924   */\n      sub\n        /* \"#utility.yul\":897:929   */\n      slt\n        /* \"#utility.yul\":894:946   */\n      iszero\n      tag_282\n      jumpi\n        /* \"#utility.yul\":942:943   */\n      0x00\n        /* \"#utility.yul\":939:940   */\n      dup1\n        /* \"#utility.yul\":932:944   */\n      revert\n        /* \"#utility.yul\":894:946   */\n    tag_282:\n        /* \"#utility.yul\":965:994   */\n      tag_283\n        /* \"#utility.yul\":984:993   */\n      dup4\n        /* \"#utility.yul\":965:994   */\n      tag_274\n      jump\t// in\n    tag_283:\n        /* \"#utility.yul\":955:994   */\n      swap5\n        /* \"#utility.yul\":1063:1065   */\n      0x20\n        /* \"#utility.yul\":1048:1066   */\n      swap4\n      swap1\n      swap4\n      add\n        /* \"#utility.yul\":1035:1067   */\n      calldataload\n      swap4\n      pop\n      pop\n      pop\n        /* \"#utility.yul\":797:1097   */\n      jump\t// out\n        /* \"#utility.yul\":1294:1480   */\n    tag_55:\n        /* \"#utility.yul\":1353:1359   */\n      0x00\n        /* \"#utility.yul\":1406:1408   */\n      0x20\n        /* \"#utility.yul\":1394:1403   */\n      dup3\n        /* \"#utility.yul\":1385:1392   */\n      dup5\n        /* \"#utility.yul\":1381:1404   */\n      sub\n        /* \"#utility.yul\":1377:1409   */\n      slt\n        /* \"#utility.yul\":1374:1426   */\n      iszero\n      tag_286\n      jumpi\n        /* \"#utility.yul\":1422:1423   */\n      0x00\n        /* \"#utility.yul\":1419:1420   */\n      dup1\n        /* \"#utility.yul\":1412:1424   */\n      revert\n        /* \"#utility.yul\":1374:1426   */\n    tag_286:\n        /* \"#utility.yul\":1445:1474   */\n      tag_287\n        /* \"#utility.yul\":1464:1473   */\n      dup3\n        /* \"#utility.yul\":1445:1474   */\n      tag_274\n      jump\t// in\n    tag_287:\n        /* \"#utility.yul\":1435:1474   */\n      swap4\n        /* \"#utility.yul\":1294:1480   */\n      swap3\n      pop\n      pop\n      pop\n      jump\t// out\n        /* \"#utility.yul\":1485:1859   */\n    tag_69:\n        /* \"#utility.yul\":1562:1568   */\n      0x00\n        /* \"#utility.yul\":1570:1576   */\n      dup1\n        /* \"#utility.yul\":1578:1584   */\n      0x00\n        /* \"#utility.yul\":1631:1633   */\n      0x60\n        /* \"#utility.yul\":1619:1628   */\n      dup5\n        /* \"#utility.yul\":1610:1617   */\n      dup7\n        /* \"#utility.yul\":1606:1629   */\n      sub\n        /* \"#utility.yul\":1602:1634   */\n      slt\n        /* \"#utility.yul\":1599:1651   */\n      iszero\n      tag_289\n      jumpi\n        /* \"#utility.yul\":1647:1648   */\n      0x00\n        /* \"#utility.yul\":1644:1645   */\n      dup1\n        /* \"#utility.yul\":1637:1649   */\n      revert\n        /* \"#utility.yul\":1599:1651   */\n    tag_289:\n        /* \"#utility.yul\":1670:1699   */\n      tag_290\n        /* \"#utility.yul\":1689:1698   */\n      dup5\n        /* \"#utility.yul\":1670:1699   */\n      tag_274\n      jump\t// in\n    tag_290:\n        /* \"#utility.yul\":1660:1699   */\n      swap3\n      pop\n        /* \"#utility.yul\":1718:1756   */\n      tag_291\n        /* \"#utility.yul\":1752:1754   */\n      0x20\n        /* \"#utility.yul\":1741:1750   */\n      dup6\n        /* \"#utility.yul\":1737:1755   */\n      add\n        /* \"#utility.yul\":1718:1756   */\n      tag_274\n      jump\t// in\n    tag_291:\n        /* \"#utility.yul\":1485:1859   */\n      swap3\n      swap6\n        /* \"#utility.yul\":1708:1756   */\n      swap3\n      swap5\n      pop\n      pop\n      pop\n        /* \"#utility.yul\":1825:1827   */\n      0x40\n        /* \"#utility.yul\":1810:1828   */\n      swap2\n      swap1\n      swap2\n      add\n        /* \"#utility.yul\":1797:1829   */\n      calldataload\n      swap1\n        /* \"#utility.yul\":1485:1859   */\n      jump\t// out\n        /* \"#utility.yul\":2053:2279   */\n    tag_109:\n        /* \"#utility.yul\":2112:2118   */\n      0x00\n        /* \"#utility.yul\":2165:2167   */\n      0x20\n        /* \"#utility.yul\":2153:2162   */\n      dup3\n        /* \"#utility.yul\":2144:2151   */\n      dup5\n        /* \"#utility.yul\":2140:2163   */\n      sub\n        /* \"#utility.yul\":2136:2168   */\n      slt\n        /* \"#utility.yul\":2133:2185   */\n      iszero\n      tag_294\n      jumpi\n        /* \"#utility.yul\":2181:2182   */\n      0x00\n        /* \"#utility.yul\":2178:2179   */\n      dup1\n        /* \"#utility.yul\":2171:2183   */\n      revert\n        /* \"#utility.yul\":2133:2185   */\n    tag_294:\n      pop\n        /* \"#utility.yul\":2226:2249   */\n      calldataload\n      swap2\n        /* \"#utility.yul\":2053:2279   */\n      swap1\n      pop\n      jump\t// out\n        /* \"#utility.yul\":2492:2752   */\n    tag_133:\n        /* \"#utility.yul\":2560:2566   */\n      0x00\n        /* \"#utility.yul\":2568:2574   */\n      dup1\n        /* \"#utility.yul\":2621:2623   */\n      0x40\n        /* \"#utility.yul\":2609:2618   */\n      dup4\n        /* \"#utility.yul\":2600:2607   */\n      dup6\n        /* \"#utility.yul\":2596:2619   */\n      sub\n        /* \"#utility.yul\":2592:2624   */\n      slt\n        /* \"#utility.yul\":2589:2641   */\n      iszero\n      tag_297\n      jumpi\n        /* \"#utility.yul\":2637:2638   */\n      0x00\n        /* \"#utility.yul\":2634:2635   */\n      dup1\n        /* \"#utility.yul\":2627:2639   */\n      revert\n        /* \"#utility.yul\":2589:2641   */\n    tag_297:\n        /* \"#utility.yul\":2660:2689   */\n      tag_298\n        /* \"#utility.yul\":2679:2688   */\n      dup4\n        /* \"#utility.yul\":2660:2689   */\n      tag_274\n      jump\t// in\n    tag_298:\n        /* \"#utility.yul\":2650:2689   */\n      swap2\n      pop\n        /* \"#utility.yul\":2708:2746   */\n      tag_299\n        /* \"#utility.yul\":2742:2744   */\n      0x20\n        /* \"#utility.yul\":2731:2740   */\n      dup5\n        /* \"#utility.yul\":2727:2745   */\n      add\n        /* \"#utility.yul\":2708:2746   */\n      tag_274\n      jump\t// in\n    tag_299:\n        /* \"#utility.yul\":2698:2746   */\n      swap1\n      pop\n        /* \"#utility.yul\":2492:2752   */\n      swap3\n      pop\n      swap3\n      swap1\n      pop\n      jump\t// out\n        /* \"#utility.yul\":2757:3137   */\n    tag_148:\n        /* \"#utility.yul\":2836:2837   */\n      0x01\n        /* \"#utility.yul\":2832:2844   */\n      dup2\n      dup2\n      shr\n      swap1\n        /* \"#utility.yul\":2879:2891   */\n      dup3\n      and\n      dup1\n        /* \"#utility.yul\":2900:2961   */\n      tag_301\n      jumpi\n        /* \"#utility.yul\":2954:2958   */\n      0x7f\n        /* \"#utility.yul\":2946:2952   */\n      dup3\n        /* \"#utility.yul\":2942:2959   */\n      and\n        /* \"#utility.yul\":2932:2959   */\n      swap2\n      pop\n        /* \"#utility.yul\":2900:2961   */\n    tag_301:\n        /* \"#utility.yul\":3007:3009   */\n      0x20\n        /* \"#utility.yul\":2999:3005   */\n      dup3\n        /* \"#utility.yul\":2996:3010   */\n      lt\n        /* \"#utility.yul\":2976:2994   */\n      dup2\n        /* \"#utility.yul\":2973:3011   */\n      sub\n        /* \"#utility.yul\":2970:3131   */\n      tag_302\n      jumpi\n        /* \"#utility.yul\":3053:3063   */\n      0x4e487b71\n        /* \"#utility.yul\":3048:3051   */\n      0xe0\n        /* \"#utility.yul\":3044:3064   */\n      shl\n        /* \"#utility.yul\":3041:3042   */\n      0x00\n        /* \"#utility.yul\":3034:3065   */\n      mstore\n        /* \"#utility.yul\":3088:3092   */\n      0x22\n        /* \"#utility.yul\":3085:3086   */\n      0x04\n        /* \"#utility.yul\":3078:3093   */\n      mstore\n        /* \"#utility.yul\":3116:3120   */\n      0x24\n        /* \"#utility.yul\":3113:3114   */\n      0x00\n        /* \"#utility.yul\":3106:3121   */\n      revert\n        /* \"#utility.yul\":2970:3131   */\n    tag_302:\n      pop\n        /* \"#utility.yul\":2757:3137   */\n      swap2\n      swap1\n      pop\n      jump\t// out\n        /* \"#utility.yul\":3142:3269   */\n    tag_275:\n        /* \"#utility.yul\":3203:3213   */\n      0x4e487b71\n        /* \"#utility.yul\":3198:3201   */\n      0xe0\n        /* \"#utility.yul\":3194:3214   */\n      shl\n        /* \"#utility.yul\":3191:3192   */\n      0x00\n        /* \"#utility.yul\":3184:3215   */\n      mstore\n        /* \"#utility.yul\":3234:3238   */\n      0x11\n        /* \"#utility.yul\":3231:3232   */\n      0x04\n        /* \"#utility.yul\":3224:3239   */\n      mstore\n        /* \"#utility.yul\":3258:3262   */\n      0x24\n        /* \"#utility.yul\":3255:3256   */\n      0x00\n        /* \"#utility.yul\":3248:3263   */\n      revert\n        /* \"#utility.yul\":3274:3402   */\n    tag_161:\n        /* \"#utility.yul\":3341:3350   */\n      dup2\n      dup2\n      sub\n        /* \"#utility.yul\":3362:3373   */\n      dup2\n      dup2\n      gt\n        /* \"#utility.yul\":3359:3396   */\n      iszero\n      tag_153\n      jumpi\n        /* \"#utility.yul\":3376:3394   */\n      tag_153\n      tag_275\n      jump\t// in\n        /* \"#utility.yul\":3407:3624   */\n    tag_163:\n        /* \"#utility.yul\":3447:3448   */\n      0x00\n        /* \"#utility.yul\":3473:3474   */\n      dup3\n        /* \"#utility.yul\":3463:3595   */\n      tag_308\n      jumpi\n        /* \"#utility.yul\":3517:3527   */\n      0x4e487b71\n        /* \"#utility.yul\":3512:3515   */\n      0xe0\n        /* \"#utility.yul\":3508:3528   */\n      shl\n        /* \"#utility.yul\":3505:3506   */\n      0x00\n        /* \"#utility.yul\":3498:3529   */\n      mstore\n        /* \"#utility.yul\":3552:3556   */\n      0x12\n        /* \"#utility.yul\":3549:3550   */\n      0x04\n        /* \"#utility.yul\":3542:3557   */\n      mstore\n        /* \"#utility.yul\":3580:3584   */\n      0x24\n        /* \"#utility.yul\":3577:3578   */\n      0x00\n        /* \"#utility.yul\":3570:3585   */\n      revert\n        /* \"#utility.yul\":3463:3595   */\n    tag_308:\n      pop\n        /* \"#utility.yul\":3609:3618   */\n      div\n      swap1\n        /* \"#utility.yul\":3407:3624   */\n      jump\t// out\n        /* \"#utility.yul\":3629:3797   */\n    tag_165:\n        /* \"#utility.yul\":3702:3711   */\n      dup1\n      dup3\n      mul\n        /* \"#utility.yul\":3733:3742   */\n      dup2\n      iszero\n        /* \"#utility.yul\":3750:3765   */\n      dup3\n      dup3\n      div\n        /* \"#utility.yul\":3744:3766   */\n      dup5\n      eq\n        /* \"#utility.yul\":3730:3767   */\n      or\n        /* \"#utility.yul\":3720:3791   */\n      tag_153\n      jumpi\n        /* \"#utility.yul\":3771:3789   */\n      tag_153\n      tag_275\n      jump\t// in\n        /* \"#utility.yul\":4563:4688   */\n    tag_197:\n        /* \"#utility.yul\":4628:4637   */\n      dup1\n      dup3\n      add\n        /* \"#utility.yul\":4649:4659   */\n      dup1\n      dup3\n      gt\n        /* \"#utility.yul\":4646:4682   */\n      iszero\n      tag_153\n      jumpi\n        /* \"#utility.yul\":4662:4680   */\n      tag_153\n      tag_275\n      jump\t// in\n\n    auxdata: 0xa2646970667358221220e85ebc57c42d36536ad3d0afceace7a65c9d8e068baba1ff4e42969b6085e54264736f6c634300081a0033\n}\n",
				"bytecode": {
					"linkReferences": {},
					"object": "608060405234801561000f575f80fd5b5060405161139a38038061139a83398101604081905261002e916102ae565b856040518060400160405280600b81526020016a2730ba3ab932aa37b5b2b760a91b81525060405180604001604052806003815260200162272a2960e91b815250816003908161007e91906103a0565b50600461008b82826103a0565b5050506001600160a01b0381166100bc57604051631e4fbdf760e01b81525f60048201526024015b60405180910390fd5b6100c5816100ff565b506100e5306100d66012600a610553565b6100e09088610568565b610150565b600893909355600a91909155600955600c55506105929050565b600580546001600160a01b038381166001600160a01b0319831681179093556040519116919082907f8be0079c531659141344cd1fd0a4f28419497f9722a3daafe3b4186f6b6457e0905f90a35050565b6001600160a01b0382166101795760405163ec442f0560e01b81525f60048201526024016100b3565b6101845f8383610188565b5050565b6001600160a01b0383166101b2578060025f8282546101a7919061057f565b909155506102229050565b6001600160a01b0383165f90815260208190526040902054818110156102045760405163391434e360e21b81526001600160a01b038516600482015260248101829052604481018390526064016100b3565b6001600160a01b0384165f9081526020819052604090209082900390555b6001600160a01b03821661023e5760028054829003905561025c565b6001600160a01b0382165f9081526020819052604090208054820190555b816001600160a01b0316836001600160a01b03167fddf252ad1be2c89b69c2b068fc378daa952ba7f163c4a11628f55a4df523b3ef836040516102a191815260200190565b60405180910390a3505050565b5f805f805f8060c087890312156102c3575f80fd5b86516001600160a01b03811681146102d9575f80fd5b6020880151604089015160608a015160808b015160a0909b0151939c929b509099909850965090945092505050565b634e487b7160e01b5f52604160045260245ffd5b600181811c9082168061033057607f821691505b60208210810361034e57634e487b7160e01b5f52602260045260245ffd5b50919050565b601f82111561039b57805f5260205f20601f840160051c810160208510156103795750805b601f840160051c820191505b81811015610398575f8155600101610385565b50505b505050565b81516001600160401b038111156103b9576103b9610308565b6103cd816103c7845461031c565b84610354565b6020601f8211600181146103ff575f83156103e85750848201515b5f19600385901b1c1916600184901b178455610398565b5f84815260208120601f198516915b8281101561042e578785015182556020948501946001909201910161040e565b508482101561044b57868401515f19600387901b60f8161c191681555b50505050600190811b01905550565b634e487b7160e01b5f52601160045260245ffd5b6001815b60018411156104a95780850481111561048d5761048d61045a565b600184161561049b57908102905b60019390931c928002610472565b935093915050565b5f826104bf5750600161054d565b816104cb57505f61054d565b81600181146104e157600281146104eb57610507565b600191505061054d565b60ff8411156104fc576104fc61045a565b50506001821b61054d565b5060208310610133831016604e8410600b841016171561052a575081810a61054d565b6105365f19848461046e565b805f19048211156105495761054961045a565b0290505b92915050565b5f61056160ff8416836104b1565b9392505050565b808202811582820484141761054d5761054d61045a565b8082018082111561054d5761054d61045a565b610dfb8061059f5f395ff3fe608060405234801561000f575f80fd5b50600436106101c6575f3560e01c80635ee09669116100fe57806395d89b411161009e578063dd62ed3e1161006e578063dd62ed3e146103bf578063ed338ff1146103f7578063f2fde38b14610400578063f993185514610413575f80fd5b806395d89b4114610389578063a5ce413b14610391578063a9059cbb14610399578063b7d68519146103ac575f80fd5b80637165d19b116100d95780637165d19b146103335780637547c7a31461033c5780638da5cb5b1461034f5780638f0794fe1461036a575f80fd5b80635ee09669146102ee57806370a0823114610301578063715018a614610329575f80fd5b806323b872dd11610169578063499d7f9611610144578063499d7f96146102955780634ac530dc146102b45780634f3fc2df146102dc578063518ab2a8146102e5575f80fd5b806323b872dd1461024b578063313ce5671461025e5780633a02a42d1461026d575f80fd5b80630d505541116101a45780630d5055411461021e57806318160ddd146102315780631cbaee2d146102395780631d0806ae14610242575f80fd5b806303e293a3146101ca57806306fdde03146101e6578063095ea7b3146101fb575b5f80fd5b6101d360095481565b6040519081526020015b60405180910390f35b6101ee610432565b6040516101dd9190610c03565b61020e610209366004610c53565b6104c2565b60405190151581526020016101dd565b6101d361022c366004610c7b565b6104db565b6002546101d3565b6101d360065481565b6101d360085481565b61020e610259366004610c9b565b610566565b604051601281526020016101dd565b6101d361027b366004610c7b565b6001600160a01b03165f908152600d602052604090205490565b6101d36102a3366004610c7b565b600f6020525f908152604090205481565b6101d36102c2366004610c7b565b6001600160a01b03165f908152600e602052604090205490565b6101d3600c5481565b6101d3600b5481565b6101d36102fc366004610c7b565b610589565b6101d361030f366004610c7b565b6001600160a01b03165f9081526020819052604090205490565b610331610593565b005b6101d3600a5481565b61033161034a366004610cd5565b6105a6565b6005546040516001600160a01b0390911681526020016101dd565b6101d3610378366004610c7b565b600e6020525f908152604090205481565b6101ee6106de565b6103316106ed565b61020e6103a7366004610c53565b61084b565b6103316103ba366004610cd5565b610858565b6101d36103cd366004610cec565b6001600160a01b039182165f90815260016020908152604080832093909416825291909152205490565b6101d360075481565b61033161040e366004610c7b565b610865565b6101d3610421366004610c7b565b600d6020525f908152604090205481565b60606003805461044190610d1d565b80601f016020809104026020016040519081016040528092919081815260200182805461046d90610d1d565b80156104b85780601f1061048f576101008083540402835291602001916104b8565b820191905f5260205f20905b81548152906001019060200180831161049b57829003601f168201915b5050505050905090565b5f336104cf8185856108a2565b60019150505b92915050565b6001600160a01b0381165f908152600d602052604081205480820361050257505f92915050565b6001600160a01b0383165f908152600e60205260408120546105249042610d69565b90505f61053462093a8083610d7c565b90505f606482600c54866105489190610d9b565b6105529190610d9b565b61055c9190610d7c565b9695505050505050565b5f336105738582856108b4565b61057e858585610930565b506001949350505050565b5f6104d5826104db565b61059b61098d565b6105a45f6109ba565b565b5f81116106045760405162461bcd60e51b815260206004820152602160248201527f416d6f756e74206d7573742062652067726561746572207468616e207a65726f6044820152601760f91b60648201526084015b60405180910390fd5b335f908152602081905260409020548111156106625760405162461bcd60e51b815260206004820152601e60248201527f496e73756666696369656e742062616c616e636520746f207374616b652e000060448201526064016105fb565b61066d333083610930565b335f908152600d60205260408120805483929061068b908490610db2565b9091555050335f818152600e602052604090819020429055517fb539ca1e5c8d398ddf1c41c30166f33404941683be4683319b57669a93dad4ef906106d39084815260200190565b60405180910390a250565b60606004805461044190610d1d565b335f908152600d60205260409020548061073d5760405162461bcd60e51b81526020600482015260116024820152702737903a37b5b2b7399039ba30b5b2b21760791b60448201526064016105fb565b335f908152600e60205260408120546107569042610d69565b90505f61076662093a8083610d7c565b905060048110156107cc5760405162461bcd60e51b815260206004820152602a60248201527f546f6b656e732063616e206f6e6c7920626520756e7374616b6564206166746560448201526939101a103bb2b2b5b99760b11b60648201526084016105fb565b5f6107d6336104db565b335f818152600d60209081526040808320839055600e90915281205590915061080a9030906108058488610db2565b610930565b604080518581526020810183905233917f6f2d3e000c89d37446b7c0374c0125068ff316d1e3ee302336478a8cd03c2336910160405180910390a250505050565b5f336104cf818585610930565b61086061098d565b600c55565b61086d61098d565b6001600160a01b03811661089657604051631e4fbdf760e01b81525f60048201526024016105fb565b61089f816109ba565b50565b6108af8383836001610a0b565b505050565b6001600160a01b038381165f908152600160209081526040808320938616835292905220545f1981101561092a578181101561091c57604051637dc7a0d960e11b81526001600160a01b038416600482015260248101829052604481018390526064016105fb565b61092a84848484035f610a0b565b50505050565b6001600160a01b03831661095957604051634b637e8f60e11b81525f60048201526024016105fb565b6001600160a01b0382166109825760405163ec442f0560e01b81525f60048201526024016105fb565b6108af838383610add565b6005546001600160a01b031633146105a45760405163118cdaa760e01b81523360048201526024016105fb565b600580546001600160a01b038381166001600160a01b0319831681179093556040519116919082907f8be0079c531659141344cd1fd0a4f28419497f9722a3daafe3b4186f6b6457e0905f90a35050565b6001600160a01b038416610a345760405163e602df0560e01b81525f60048201526024016105fb565b6001600160a01b038316610a5d57604051634a1406b160e11b81525f60048201526024016105fb565b6001600160a01b038085165f908152600160209081526040808320938716835292905220829055801561092a57826001600160a01b0316846001600160a01b03167f8c5be1e5ebec7d5bd14f71427d1e84f3dd0314c0f7b2291e5b200ac8c7c3b92584604051610acf91815260200190565b60405180910390a350505050565b6001600160a01b038316610b07578060025f828254610afc9190610db2565b90915550610b779050565b6001600160a01b0383165f9081526020819052604090205481811015610b595760405163391434e360e21b81526001600160a01b038516600482015260248101829052604481018390526064016105fb565b6001600160a01b0384165f9081526020819052604090209082900390555b6001600160a01b038216610b9357600280548290039055610bb1565b6001600160a01b0382165f9081526020819052604090208054820190555b816001600160a01b0316836001600160a01b03167fddf252ad1be2c89b69c2b068fc378daa952ba7f163c4a11628f55a4df523b3ef83604051610bf691815260200190565b60405180910390a3505050565b602081525f82518060208401528060208501604085015e5f604082850101526040601f19601f83011684010191505092915050565b80356001600160a01b0381168114610c4e575f80fd5b919050565b5f8060408385031215610c64575f80fd5b610c6d83610c38565b946020939093013593505050565b5f60208284031215610c8b575f80fd5b610c9482610c38565b9392505050565b5f805f60608486031215610cad575f80fd5b610cb684610c38565b9250610cc460208501610c38565b929592945050506040919091013590565b5f60208284031215610ce5575f80fd5b5035919050565b5f8060408385031215610cfd575f80fd5b610d0683610c38565b9150610d1460208401610c38565b90509250929050565b600181811c90821680610d3157607f821691505b602082108103610d4f57634e487b7160e01b5f52602260045260245ffd5b50919050565b634e487b7160e01b5f52601160045260245ffd5b818103818111156104d5576104d5610d55565b5f82610d9657634e487b7160e01b5f52601260045260245ffd5b500490565b80820281158282048414176104d5576104d5610d55565b808201808211156104d5576104d5610d5556fea2646970667358221220e85ebc57c42d36536ad3d0afceace7a65c9d8e068baba1ff4e42969b6085e54264736f6c634300081a0033",
					"opcodes": "PUSH1 0x80 PUSH1 0x40 MSTORE CALLVALUE DUP1 ISZERO PUSH2 0xF JUMPI PUSH0 DUP1 REVERT JUMPDEST POP PUSH1 0x40 MLOAD PUSH2 0x139A CODESIZE SUB DUP1 PUSH2 0x139A DUP4 CODECOPY DUP2 ADD PUSH1 0x40 DUP2 SWAP1 MSTORE PUSH2 0x2E SWAP2 PUSH2 0x2AE JUMP JUMPDEST DUP6 PUSH1 0x40 MLOAD DUP1 PUSH1 0x40 ADD PUSH1 0x40 MSTORE DUP1 PUSH1 0xB DUP2 MSTORE PUSH1 0x20 ADD PUSH11 0x2730BA3AB932AA37B5B2B7 PUSH1 0xA9 SHL DUP2 MSTORE POP PUSH1 0x40 MLOAD DUP1 PUSH1 0x40 ADD PUSH1 0x40 MSTORE DUP1 PUSH1 0x3 DUP2 MSTORE PUSH1 0x20 ADD PUSH3 0x272A29 PUSH1 0xE9 SHL DUP2 MSTORE POP DUP2 PUSH1 0x3 SWAP1 DUP2 PUSH2 0x7E SWAP2 SWAP1 PUSH2 0x3A0 JUMP JUMPDEST POP PUSH1 0x4 PUSH2 0x8B DUP3 DUP3 PUSH2 0x3A0 JUMP JUMPDEST POP POP POP PUSH1 0x1 PUSH1 0x1 PUSH1 0xA0 SHL SUB DUP2 AND PUSH2 0xBC JUMPI PUSH1 0x40 MLOAD PUSH4 0x1E4FBDF7 PUSH1 0xE0 SHL DUP2 MSTORE PUSH0 PUSH1 0x4 DUP3 ADD MSTORE PUSH1 0x24 ADD JUMPDEST PUSH1 0x40 MLOAD DUP1 SWAP2 SUB SWAP1 REVERT JUMPDEST PUSH2 0xC5 DUP2 PUSH2 0xFF JUMP JUMPDEST POP PUSH2 0xE5 ADDRESS PUSH2 0xD6 PUSH1 0x12 PUSH1 0xA PUSH2 0x553 JUMP JUMPDEST PUSH2 0xE0 SWAP1 DUP9 PUSH2 0x568 JUMP JUMPDEST PUSH2 0x150 JUMP JUMPDEST PUSH1 0x8 SWAP4 SWAP1 SWAP4 SSTORE PUSH1 0xA SWAP2 SWAP1 SWAP2 SSTORE PUSH1 0x9 SSTORE PUSH1 0xC SSTORE POP PUSH2 0x592 SWAP1 POP JUMP JUMPDEST PUSH1 0x5 DUP1 SLOAD PUSH1 0x1 PUSH1 0x1 PUSH1 0xA0 SHL SUB DUP4 DUP2 AND PUSH1 0x1 PUSH1 0x1 PUSH1 0xA0 SHL SUB NOT DUP4 AND DUP2 OR SWAP1 SWAP4 SSTORE PUSH1 0x40 MLOAD SWAP2 AND SWAP2 SWAP1 DUP3 SWAP1 PUSH32 0x8BE0079C531659141344CD1FD0A4F28419497F9722A3DAAFE3B4186F6B6457E0 SWAP1 PUSH0 SWAP1 LOG3 POP POP JUMP JUMPDEST PUSH1 0x1 PUSH1 0x1 PUSH1 0xA0 SHL SUB DUP3 AND PUSH2 0x179 JUMPI PUSH1 0x40 MLOAD PUSH4 0xEC442F05 PUSH1 0xE0 SHL DUP2 MSTORE PUSH0 PUSH1 0x4 DUP3 ADD MSTORE PUSH1 0x24 ADD PUSH2 0xB3 JUMP JUMPDEST PUSH2 0x184 PUSH0 DUP4 DUP4 PUSH2 0x188 JUMP JUMPDEST POP POP JUMP JUMPDEST PUSH1 0x1 PUSH1 0x1 PUSH1 0xA0 SHL SUB DUP4 AND PUSH2 0x1B2 JUMPI DUP1 PUSH1 0x2 PUSH0 DUP3 DUP3 SLOAD PUSH2 0x1A7 SWAP2 SWAP1 PUSH2 0x57F JUMP JUMPDEST SWAP1 SWAP2 SSTORE POP PUSH2 0x222 SWAP1 POP JUMP JUMPDEST PUSH1 0x1 PUSH1 0x1 PUSH1 0xA0 SHL SUB DUP4 AND PUSH0 SWAP1 DUP2 MSTORE PUSH1 0x20 DUP2 SWAP1 MSTORE PUSH1 0x40 SWAP1 KECCAK256 SLOAD DUP2 DUP2 LT ISZERO PUSH2 0x204 JUMPI PUSH1 0x40 MLOAD PUSH4 0x391434E3 PUSH1 0xE2 SHL DUP2 MSTORE PUSH1 0x1 PUSH1 0x1 PUSH1 0xA0 SHL SUB DUP6 AND PUSH1 0x4 DUP3 ADD MSTORE PUSH1 0x24 DUP2 ADD DUP3 SWAP1 MSTORE PUSH1 0x44 DUP2 ADD DUP4 SWAP1 MSTORE PUSH1 0x64 ADD PUSH2 0xB3 JUMP JUMPDEST PUSH1 0x1 PUSH1 0x1 PUSH1 0xA0 SHL SUB DUP5 AND PUSH0 SWAP1 DUP2 MSTORE PUSH1 0x20 DUP2 SWAP1 MSTORE PUSH1 0x40 SWAP1 KECCAK256 SWAP1 DUP3 SWAP1 SUB SWAP1 SSTORE JUMPDEST PUSH1 0x1 PUSH1 0x1 PUSH1 0xA0 SHL SUB DUP3 AND PUSH2 0x23E JUMPI PUSH1 0x2 DUP1 SLOAD DUP3 SWAP1 SUB SWAP1 SSTORE PUSH2 0x25C JUMP JUMPDEST PUSH1 0x1 PUSH1 0x1 PUSH1 0xA0 SHL SUB DUP3 AND PUSH0 SWAP1 DUP2 MSTORE PUSH1 0x20 DUP2 SWAP1 MSTORE PUSH1 0x40 SWAP1 KECCAK256 DUP1 SLOAD DUP3 ADD SWAP1 SSTORE JUMPDEST DUP2 PUSH1 0x1 PUSH1 0x1 PUSH1 0xA0 SHL SUB AND DUP4 PUSH1 0x1 PUSH1 0x1 PUSH1 0xA0 SHL SUB AND PUSH32 0xDDF252AD1BE2C89B69C2B068FC378DAA952BA7F163C4A11628F55A4DF523B3EF DUP4 PUSH1 0x40 MLOAD PUSH2 0x2A1 SWAP2 DUP2 MSTORE PUSH1 0x20 ADD SWAP1 JUMP JUMPDEST PUSH1 0x40 MLOAD DUP1 SWAP2 SUB SWAP1 LOG3 POP POP POP JUMP JUMPDEST PUSH0 DUP1 PUSH0 DUP1 PUSH0 DUP1 PUSH1 0xC0 DUP8 DUP10 SUB SLT ISZERO PUSH2 0x2C3 JUMPI PUSH0 DUP1 REVERT JUMPDEST DUP7 MLOAD PUSH1 0x1 PUSH1 0x1 PUSH1 0xA0 SHL SUB DUP2 AND DUP2 EQ PUSH2 0x2D9 JUMPI PUSH0 DUP1 REVERT JUMPDEST PUSH1 0x20 DUP9 ADD MLOAD PUSH1 0x40 DUP10 ADD MLOAD PUSH1 0x60 DUP11 ADD MLOAD PUSH1 0x80 DUP12 ADD MLOAD PUSH1 0xA0 SWAP1 SWAP12 ADD MLOAD SWAP4 SWAP13 SWAP3 SWAP12 POP SWAP1 SWAP10 SWAP1 SWAP9 POP SWAP7 POP SWAP1 SWAP5 POP SWAP3 POP POP POP JUMP JUMPDEST PUSH4 0x4E487B71 PUSH1 0xE0 SHL PUSH0 MSTORE PUSH1 0x41 PUSH1 0x4 MSTORE PUSH1 0x24 PUSH0 REVERT JUMPDEST PUSH1 0x1 DUP2 DUP2 SHR SWAP1 DUP3 AND DUP1 PUSH2 0x330 JUMPI PUSH1 0x7F DUP3 AND SWAP2 POP JUMPDEST PUSH1 0x20 DUP3 LT DUP2 SUB PUSH2 0x34E JUMPI PUSH4 0x4E487B71 PUSH1 0xE0 SHL PUSH0 MSTORE PUSH1 0x22 PUSH1 0x4 MSTORE PUSH1 0x24 PUSH0 REVERT JUMPDEST POP SWAP2 SWAP1 POP JUMP JUMPDEST PUSH1 0x1F DUP3 GT ISZERO PUSH2 0x39B JUMPI DUP1 PUSH0 MSTORE PUSH1 0x20 PUSH0 KECCAK256 PUSH1 0x1F DUP5 ADD PUSH1 0x5 SHR DUP2 ADD PUSH1 0x20 DUP6 LT ISZERO PUSH2 0x379 JUMPI POP DUP1 JUMPDEST PUSH1 0x1F DUP5 ADD PUSH1 0x5 SHR DUP3 ADD SWAP2 POP JUMPDEST DUP2 DUP2 LT ISZERO PUSH2 0x398 JUMPI PUSH0 DUP2 SSTORE PUSH1 0x1 ADD PUSH2 0x385 JUMP JUMPDEST POP POP JUMPDEST POP POP POP JUMP JUMPDEST DUP2 MLOAD PUSH1 0x1 PUSH1 0x1 PUSH1 0x40 SHL SUB DUP2 GT ISZERO PUSH2 0x3B9 JUMPI PUSH2 0x3B9 PUSH2 0x308 JUMP JUMPDEST PUSH2 0x3CD DUP2 PUSH2 0x3C7 DUP5 SLOAD PUSH2 0x31C JUMP JUMPDEST DUP5 PUSH2 0x354 JUMP JUMPDEST PUSH1 0x20 PUSH1 0x1F DUP3 GT PUSH1 0x1 DUP2 EQ PUSH2 0x3FF JUMPI PUSH0 DUP4 ISZERO PUSH2 0x3E8 JUMPI POP DUP5 DUP3 ADD MLOAD JUMPDEST PUSH0 NOT PUSH1 0x3 DUP6 SWAP1 SHL SHR NOT AND PUSH1 0x1 DUP5 SWAP1 SHL OR DUP5 SSTORE PUSH2 0x398 JUMP JUMPDEST PUSH0 DUP5 DUP2 MSTORE PUSH1 0x20 DUP2 KECCAK256 PUSH1 0x1F NOT DUP6 AND SWAP2 JUMPDEST DUP3 DUP2 LT ISZERO PUSH2 0x42E JUMPI DUP8 DUP6 ADD MLOAD DUP3 SSTORE PUSH1 0x20 SWAP5 DUP6 ADD SWAP5 PUSH1 0x1 SWAP1 SWAP3 ADD SWAP2 ADD PUSH2 0x40E JUMP JUMPDEST POP DUP5 DUP3 LT ISZERO PUSH2 0x44B JUMPI DUP7 DUP5 ADD MLOAD PUSH0 NOT PUSH1 0x3 DUP8 SWAP1 SHL PUSH1 0xF8 AND SHR NOT AND DUP2 SSTORE JUMPDEST POP POP POP POP PUSH1 0x1 SWAP1 DUP2 SHL ADD SWAP1 SSTORE POP JUMP JUMPDEST PUSH4 0x4E487B71 PUSH1 0xE0 SHL PUSH0 MSTORE PUSH1 0x11 PUSH1 0x4 MSTORE PUSH1 0x24 PUSH0 REVERT JUMPDEST PUSH1 0x1 DUP2 JUMPDEST PUSH1 0x1 DUP5 GT ISZERO PUSH2 0x4A9 JUMPI DUP1 DUP6 DIV DUP2 GT ISZERO PUSH2 0x48D JUMPI PUSH2 0x48D PUSH2 0x45A JUMP JUMPDEST PUSH1 0x1 DUP5 AND ISZERO PUSH2 0x49B JUMPI SWAP1 DUP2 MUL SWAP1 JUMPDEST PUSH1 0x1 SWAP4 SWAP1 SWAP4 SHR SWAP3 DUP1 MUL PUSH2 0x472 JUMP JUMPDEST SWAP4 POP SWAP4 SWAP2 POP POP JUMP JUMPDEST PUSH0 DUP3 PUSH2 0x4BF JUMPI POP PUSH1 0x1 PUSH2 0x54D JUMP JUMPDEST DUP2 PUSH2 0x4CB JUMPI POP PUSH0 PUSH2 0x54D JUMP JUMPDEST DUP2 PUSH1 0x1 DUP2 EQ PUSH2 0x4E1 JUMPI PUSH1 0x2 DUP2 EQ PUSH2 0x4EB JUMPI PUSH2 0x507 JUMP JUMPDEST PUSH1 0x1 SWAP2 POP POP PUSH2 0x54D JUMP JUMPDEST PUSH1 0xFF DUP5 GT ISZERO PUSH2 0x4FC JUMPI PUSH2 0x4FC PUSH2 0x45A JUMP JUMPDEST POP POP PUSH1 0x1 DUP3 SHL PUSH2 0x54D JUMP JUMPDEST POP PUSH1 0x20 DUP4 LT PUSH2 0x133 DUP4 LT AND PUSH1 0x4E DUP5 LT PUSH1 0xB DUP5 LT AND OR ISZERO PUSH2 0x52A JUMPI POP DUP2 DUP2 EXP PUSH2 0x54D JUMP JUMPDEST PUSH2 0x536 PUSH0 NOT DUP5 DUP5 PUSH2 0x46E JUMP JUMPDEST DUP1 PUSH0 NOT DIV DUP3 GT ISZERO PUSH2 0x549 JUMPI PUSH2 0x549 PUSH2 0x45A JUMP JUMPDEST MUL SWAP1 POP JUMPDEST SWAP3 SWAP2 POP POP JUMP JUMPDEST PUSH0 PUSH2 0x561 PUSH1 0xFF DUP5 AND DUP4 PUSH2 0x4B1 JUMP JUMPDEST SWAP4 SWAP3 POP POP POP JUMP JUMPDEST DUP1 DUP3 MUL DUP2 ISZERO DUP3 DUP3 DIV DUP5 EQ OR PUSH2 0x54D JUMPI PUSH2 0x54D PUSH2 0x45A JUMP JUMPDEST DUP1 DUP3 ADD DUP1 DUP3 GT ISZERO PUSH2 0x54D JUMPI PUSH2 0x54D PUSH2 0x45A JUMP JUMPDEST PUSH2 0xDFB DUP1 PUSH2 0x59F PUSH0 CODECOPY PUSH0 RETURN INVALID PUSH1 0x80 PUSH1 0x40 MSTORE CALLVALUE DUP1 ISZERO PUSH2 0xF JUMPI PUSH0 DUP1 REVERT JUMPDEST POP PUSH1 0x4 CALLDATASIZE LT PUSH2 0x1C6 JUMPI PUSH0 CALLDATALOAD PUSH1 0xE0 SHR DUP1 PUSH4 0x5EE09669 GT PUSH2 0xFE JUMPI DUP1 PUSH4 0x95D89B41 GT PUSH2 0x9E JUMPI DUP1 PUSH4 0xDD62ED3E GT PUSH2 0x6E JUMPI DUP1 PUSH4 0xDD62ED3E EQ PUSH2 0x3BF JUMPI DUP1 PUSH4 0xED338FF1 EQ PUSH2 0x3F7 JUMPI DUP1 PUSH4 0xF2FDE38B EQ PUSH2 0x400 JUMPI DUP1 PUSH4 0xF9931855 EQ PUSH2 0x413 JUMPI PUSH0 DUP1 REVERT JUMPDEST DUP1 PUSH4 0x95D89B41 EQ PUSH2 0x389 JUMPI DUP1 PUSH4 0xA5CE413B EQ PUSH2 0x391 JUMPI DUP1 PUSH4 0xA9059CBB EQ PUSH2 0x399 JUMPI DUP1 PUSH4 0xB7D68519 EQ PUSH2 0x3AC JUMPI PUSH0 DUP1 REVERT JUMPDEST DUP1 PUSH4 0x7165D19B GT PUSH2 0xD9 JUMPI DUP1 PUSH4 0x7165D19B EQ PUSH2 0x333 JUMPI DUP1 PUSH4 0x7547C7A3 EQ PUSH2 0x33C JUMPI DUP1 PUSH4 0x8DA5CB5B EQ PUSH2 0x34F JUMPI DUP1 PUSH4 0x8F0794FE EQ PUSH2 0x36A JUMPI PUSH0 DUP1 REVERT JUMPDEST DUP1 PUSH4 0x5EE09669 EQ PUSH2 0x2EE JUMPI DUP1 PUSH4 0x70A08231 EQ PUSH2 0x301 JUMPI DUP1 PUSH4 0x715018A6 EQ PUSH2 0x329 JUMPI PUSH0 DUP1 REVERT JUMPDEST DUP1 PUSH4 0x23B872DD GT PUSH2 0x169 JUMPI DUP1 PUSH4 0x499D7F96 GT PUSH2 0x144 JUMPI DUP1 PUSH4 0x499D7F96 EQ PUSH2 0x295 JUMPI DUP1 PUSH4 0x4AC530DC EQ PUSH2 0x2B4 JUMPI DUP1 PUSH4 0x4F3FC2DF EQ PUSH2 0x2DC JUMPI DUP1 PUSH4 0x518AB2A8 EQ PUSH2 0x2E5 JUMPI PUSH0 DUP1 REVERT JUMPDEST DUP1 PUSH4 0x23B872DD EQ PUSH2 0x24B JUMPI DUP1 PUSH4 0x313CE567 EQ PUSH2 0x25E JUMPI DUP1 PUSH4 0x3A02A42D EQ PUSH2 0x26D JUMPI PUSH0 DUP1 REVERT JUMPDEST DUP1 PUSH4 0xD505541 GT PUSH2 0x1A4 JUMPI DUP1 PUSH4 0xD505541 EQ PUSH2 0x21E JUMPI DUP1 PUSH4 0x18160DDD EQ PUSH2 0x231 JUMPI DUP1 PUSH4 0x1CBAEE2D EQ PUSH2 0x239 JUMPI DUP1 PUSH4 0x1D0806AE EQ PUSH2 0x242 JUMPI PUSH0 DUP1 REVERT JUMPDEST DUP1 PUSH4 0x3E293A3 EQ PUSH2 0x1CA JUMPI DUP1 PUSH4 0x6FDDE03 EQ PUSH2 0x1E6 JUMPI DUP1 PUSH4 0x95EA7B3 EQ PUSH2 0x1FB JUMPI JUMPDEST PUSH0 DUP1 REVERT JUMPDEST PUSH2 0x1D3 PUSH1 0x9 SLOAD DUP2 JUMP JUMPDEST PUSH1 0x40 MLOAD SWAP1 DUP2 MSTORE PUSH1 0x20 ADD JUMPDEST PUSH1 0x40 MLOAD DUP1 SWAP2 SUB SWAP1 RETURN JUMPDEST PUSH2 0x1EE PUSH2 0x432 JUMP JUMPDEST PUSH1 0x40 MLOAD PUSH2 0x1DD SWAP2 SWAP1 PUSH2 0xC03 JUMP JUMPDEST PUSH2 0x20E PUSH2 0x209 CALLDATASIZE PUSH1 0x4 PUSH2 0xC53 JUMP JUMPDEST PUSH2 0x4C2 JUMP JUMPDEST PUSH1 0x40 MLOAD SWAP1 ISZERO ISZERO DUP2 MSTORE PUSH1 0x20 ADD PUSH2 0x1DD JUMP JUMPDEST PUSH2 0x1D3 PUSH2 0x22C CALLDATASIZE PUSH1 0x4 PUSH2 0xC7B JUMP JUMPDEST PUSH2 0x4DB JUMP JUMPDEST PUSH1 0x2 SLOAD PUSH2 0x1D3 JUMP JUMPDEST PUSH2 0x1D3 PUSH1 0x6 SLOAD DUP2 JUMP JUMPDEST PUSH2 0x1D3 PUSH1 0x8 SLOAD DUP2 JUMP JUMPDEST PUSH2 0x20E PUSH2 0x259 CALLDATASIZE PUSH1 0x4 PUSH2 0xC9B JUMP JUMPDEST PUSH2 0x566 JUMP JUMPDEST PUSH1 0x40 MLOAD PUSH1 0x12 DUP2 MSTORE PUSH1 0x20 ADD PUSH2 0x1DD JUMP JUMPDEST PUSH2 0x1D3 PUSH2 0x27B CALLDATASIZE PUSH1 0x4 PUSH2 0xC7B JUMP JUMPDEST PUSH1 0x1 PUSH1 0x1 PUSH1 0xA0 SHL SUB AND PUSH0 SWAP1 DUP2 MSTORE PUSH1 0xD PUSH1 0x20 MSTORE PUSH1 0x40 SWAP1 KECCAK256 SLOAD SWAP1 JUMP JUMPDEST PUSH2 0x1D3 PUSH2 0x2A3 CALLDATASIZE PUSH1 0x4 PUSH2 0xC7B JUMP JUMPDEST PUSH1 0xF PUSH1 0x20 MSTORE PUSH0 SWAP1 DUP2 MSTORE PUSH1 0x40 SWAP1 KECCAK256 SLOAD DUP2 JUMP JUMPDEST PUSH2 0x1D3 PUSH2 0x2C2 CALLDATASIZE PUSH1 0x4 PUSH2 0xC7B JUMP JUMPDEST PUSH1 0x1 PUSH1 0x1 PUSH1 0xA0 SHL SUB AND PUSH0 SWAP1 DUP2 MSTORE PUSH1 0xE PUSH1 0x20 MSTORE PUSH1 0x40 SWAP1 KECCAK256 SLOAD SWAP1 JUMP JUMPDEST PUSH2 0x1D3 PUSH1 0xC SLOAD DUP2 JUMP JUMPDEST PUSH2 0x1D3 PUSH1 0xB SLOAD DUP2 JUMP JUMPDEST PUSH2 0x1D3 PUSH2 0x2FC CALLDATASIZE PUSH1 0x4 PUSH2 0xC7B JUMP JUMPDEST PUSH2 0x589 JUMP JUMPDEST PUSH2 0x1D3 PUSH2 0x30F CALLDATASIZE PUSH1 0x4 PUSH2 0xC7B JUMP JUMPDEST PUSH1 0x1 PUSH1 0x1 PUSH1 0xA0 SHL SUB AND PUSH0 SWAP1 DUP2 MSTORE PUSH1 0x20 DUP2 SWAP1 MSTORE PUSH1 0x40 SWAP1 KECCAK256 SLOAD SWAP1 JUMP JUMPDEST PUSH2 0x331 PUSH2 0x593 JUMP JUMPDEST STOP JUMPDEST PUSH2 0x1D3 PUSH1 0xA SLOAD DUP2 JUMP JUMPDEST PUSH2 0x331 PUSH2 0x34A CALLDATASIZE PUSH1 0x4 PUSH2 0xCD5 JUMP JUMPDEST PUSH2 0x5A6 JUMP JUMPDEST PUSH1 0x5 SLOAD PUSH1 0x40 MLOAD PUSH1 0x1 PUSH1 0x1 PUSH1 0xA0 SHL SUB SWAP1 SWAP2 AND DUP2 MSTORE PUSH1 0x20 ADD PUSH2 0x1DD JUMP JUMPDEST PUSH2 0x1D3 PUSH2 0x378 CALLDATASIZE PUSH1 0x4 PUSH2 0xC7B JUMP JUMPDEST PUSH1 0xE PUSH1 0x20 MSTORE PUSH0 SWAP1 DUP2 MSTORE PUSH1 0x40 SWAP1 KECCAK256 SLOAD DUP2 JUMP JUMPDEST PUSH2 0x1EE PUSH2 0x6DE JUMP JUMPDEST PUSH2 0x331 PUSH2 0x6ED JUMP JUMPDEST PUSH2 0x20E PUSH2 0x3A7 CALLDATASIZE PUSH1 0x4 PUSH2 0xC53 JUMP JUMPDEST PUSH2 0x84B JUMP JUMPDEST PUSH2 0x331 PUSH2 0x3BA CALLDATASIZE PUSH1 0x4 PUSH2 0xCD5 JUMP JUMPDEST PUSH2 0x858 JUMP JUMPDEST PUSH2 0x1D3 PUSH2 0x3CD CALLDATASIZE PUSH1 0x4 PUSH2 0xCEC JUMP JUMPDEST PUSH1 0x1 PUSH1 0x1 PUSH1 0xA0 SHL SUB SWAP2 DUP3 AND PUSH0 SWAP1 DUP2 MSTORE PUSH1 0x1 PUSH1 0x20 SWAP1 DUP2 MSTORE PUSH1 0x40 DUP1 DUP4 KECCAK256 SWAP4 SWAP1 SWAP5 AND DUP3 MSTORE SWAP2 SWAP1 SWAP2 MSTORE KECCAK256 SLOAD SWAP1 JUMP JUMPDEST PUSH2 0x1D3 PUSH1 0x7 SLOAD DUP2 JUMP JUMPDEST PUSH2 0x331 PUSH2 0x40E CALLDATASIZE PUSH1 0x4 PUSH2 0xC7B JUMP JUMPDEST PUSH2 0x865 JUMP JUMPDEST PUSH2 0x1D3 PUSH2 0x421 CALLDATASIZE PUSH1 0x4 PUSH2 0xC7B JUMP JUMPDEST PUSH1 0xD PUSH1 0x20 MSTORE PUSH0 SWAP1 DUP2 MSTORE PUSH1 0x40 SWAP1 KECCAK256 SLOAD DUP2 JUMP JUMPDEST PUSH1 0x60 PUSH1 0x3 DUP1 SLOAD PUSH2 0x441 SWAP1 PUSH2 0xD1D JUMP JUMPDEST DUP1 PUSH1 0x1F ADD PUSH1 0x20 DUP1 SWAP2 DIV MUL PUSH1 0x20 ADD PUSH1 0x40 MLOAD SWAP1 DUP2 ADD PUSH1 0x40 MSTORE DUP1 SWAP3 SWAP2 SWAP1 DUP2 DUP2 MSTORE PUSH1 0x20 ADD DUP3 DUP1 SLOAD PUSH2 0x46D SWAP1 PUSH2 0xD1D JUMP JUMPDEST DUP1 ISZERO PUSH2 0x4B8 JUMPI DUP1 PUSH1 0x1F LT PUSH2 0x48F JUMPI PUSH2 0x100 DUP1 DUP4 SLOAD DIV MUL DUP4 MSTORE SWAP2 PUSH1 0x20 ADD SWAP2 PUSH2 0x4B8 JUMP JUMPDEST DUP3 ADD SWAP2 SWAP1 PUSH0 MSTORE PUSH1 0x20 PUSH0 KECCAK256 SWAP1 JUMPDEST DUP2 SLOAD DUP2 MSTORE SWAP1 PUSH1 0x1 ADD SWAP1 PUSH1 0x20 ADD DUP1 DUP4 GT PUSH2 0x49B JUMPI DUP3 SWAP1 SUB PUSH1 0x1F AND DUP3 ADD SWAP2 JUMPDEST POP POP POP POP POP SWAP1 POP SWAP1 JUMP JUMPDEST PUSH0 CALLER PUSH2 0x4CF DUP2 DUP6 DUP6 PUSH2 0x8A2 JUMP JUMPDEST PUSH1 0x1 SWAP2 POP POP JUMPDEST SWAP3 SWAP2 POP POP JUMP JUMPDEST PUSH1 0x1 PUSH1 0x1 PUSH1 0xA0 SHL SUB DUP2 AND PUSH0 SWAP1 DUP2 MSTORE PUSH1 0xD PUSH1 0x20 MSTORE PUSH1 0x40 DUP2 KECCAK256 SLOAD DUP1 DUP3 SUB PUSH2 0x502 JUMPI POP PUSH0 SWAP3 SWAP2 POP POP JUMP JUMPDEST PUSH1 0x1 PUSH1 0x1 PUSH1 0xA0 SHL SUB DUP4 AND PUSH0 SWAP1 DUP2 MSTORE PUSH1 0xE PUSH1 0x20 MSTORE PUSH1 0x40 DUP2 KECCAK256 SLOAD PUSH2 0x524 SWAP1 TIMESTAMP PUSH2 0xD69 JUMP JUMPDEST SWAP1 POP PUSH0 PUSH2 0x534 PUSH3 0x93A80 DUP4 PUSH2 0xD7C JUMP JUMPDEST SWAP1 POP PUSH0 PUSH1 0x64 DUP3 PUSH1 0xC SLOAD DUP7 PUSH2 0x548 SWAP2 SWAP1 PUSH2 0xD9B JUMP JUMPDEST PUSH2 0x552 SWAP2 SWAP1 PUSH2 0xD9B JUMP JUMPDEST PUSH2 0x55C SWAP2 SWAP1 PUSH2 0xD7C JUMP JUMPDEST SWAP7 SWAP6 POP POP POP POP POP POP JUMP JUMPDEST PUSH0 CALLER PUSH2 0x573 DUP6 DUP3 DUP6 PUSH2 0x8B4 JUMP JUMPDEST PUSH2 0x57E DUP6 DUP6 DUP6 PUSH2 0x930 JUMP JUMPDEST POP PUSH1 0x1 SWAP5 SWAP4 POP POP POP POP JUMP JUMPDEST PUSH0 PUSH2 0x4D5 DUP3 PUSH2 0x4DB JUMP JUMPDEST PUSH2 0x59B PUSH2 0x98D JUMP JUMPDEST PUSH2 0x5A4 PUSH0 PUSH2 0x9BA JUMP JUMPDEST JUMP JUMPDEST PUSH0 DUP2 GT PUSH2 0x604 JUMPI PUSH1 0x40 MLOAD PUSH3 0x461BCD PUSH1 0xE5 SHL DUP2 MSTORE PUSH1 0x20 PUSH1 0x4 DUP3 ADD MSTORE PUSH1 0x21 PUSH1 0x24 DUP3 ADD MSTORE PUSH32 0x416D6F756E74206D7573742062652067726561746572207468616E207A65726F PUSH1 0x44 DUP3 ADD MSTORE PUSH1 0x17 PUSH1 0xF9 SHL PUSH1 0x64 DUP3 ADD MSTORE PUSH1 0x84 ADD JUMPDEST PUSH1 0x40 MLOAD DUP1 SWAP2 SUB SWAP1 REVERT JUMPDEST CALLER PUSH0 SWAP1 DUP2 MSTORE PUSH1 0x20 DUP2 SWAP1 MSTORE PUSH1 0x40 SWAP1 KECCAK256 SLOAD DUP2 GT ISZERO PUSH2 0x662 JUMPI PUSH1 0x40 MLOAD PUSH3 0x461BCD PUSH1 0xE5 SHL DUP2 MSTORE PUSH1 0x20 PUSH1 0x4 DUP3 ADD MSTORE PUSH1 0x1E PUSH1 0x24 DUP3 ADD MSTORE PUSH32 0x496E73756666696369656E742062616C616E636520746F207374616B652E0000 PUSH1 0x44 DUP3 ADD MSTORE PUSH1 0x64 ADD PUSH2 0x5FB JUMP JUMPDEST PUSH2 0x66D CALLER ADDRESS DUP4 PUSH2 0x930 JUMP JUMPDEST CALLER PUSH0 SWAP1 DUP2 MSTORE PUSH1 0xD PUSH1 0x20 MSTORE PUSH1 0x40 DUP2 KECCAK256 DUP1 SLOAD DUP4 SWAP3 SWAP1 PUSH2 0x68B SWAP1 DUP5 SWAP1 PUSH2 0xDB2 JUMP JUMPDEST SWAP1 SWAP2 SSTORE POP POP CALLER PUSH0 DUP2 DUP2 MSTORE PUSH1 0xE PUSH1 0x20 MSTORE PUSH1 0x40 SWAP1 DUP2 SWAP1 KECCAK256 TIMESTAMP SWAP1 SSTORE MLOAD PUSH32 0xB539CA1E5C8D398DDF1C41C30166F33404941683BE4683319B57669A93DAD4EF SWAP1 PUSH2 0x6D3 SWAP1 DUP5 DUP2 MSTORE PUSH1 0x20 ADD SWAP1 JUMP JUMPDEST PUSH1 0x40 MLOAD DUP1 SWAP2 SUB SWAP1 LOG2 POP JUMP JUMPDEST PUSH1 0x60 PUSH1 0x4 DUP1 SLOAD PUSH2 0x441 SWAP1 PUSH2 0xD1D JUMP JUMPDEST CALLER PUSH0 SWAP1 DUP2 MSTORE PUSH1 0xD PUSH1 0x20 MSTORE PUSH1 0x40 SWAP1 KECCAK256 SLOAD DUP1 PUSH2 0x73D JUMPI PUSH1 0x40 MLOAD PUSH3 0x461BCD PUSH1 0xE5 SHL DUP2 MSTORE PUSH1 0x20 PUSH1 0x4 DUP3 ADD MSTORE PUSH1 0x11 PUSH1 0x24 DUP3 ADD MSTORE PUSH17 0x2737903A37B5B2B7399039BA30B5B2B217 PUSH1 0x79 SHL PUSH1 0x44 DUP3 ADD MSTORE PUSH1 0x64 ADD PUSH2 0x5FB JUMP JUMPDEST CALLER PUSH0 SWAP1 DUP2 MSTORE PUSH1 0xE PUSH1 0x20 MSTORE PUSH1 0x40 DUP2 KECCAK256 SLOAD PUSH2 0x756 SWAP1 TIMESTAMP PUSH2 0xD69 JUMP JUMPDEST SWAP1 POP PUSH0 PUSH2 0x766 PUSH3 0x93A80 DUP4 PUSH2 0xD7C JUMP JUMPDEST SWAP1 POP PUSH1 0x4 DUP2 LT ISZERO PUSH2 0x7CC JUMPI PUSH1 0x40 MLOAD PUSH3 0x461BCD PUSH1 0xE5 SHL DUP2 MSTORE PUSH1 0x20 PUSH1 0x4 DUP3 ADD MSTORE PUSH1 0x2A PUSH1 0x24 DUP3 ADD MSTORE PUSH32 0x546F6B656E732063616E206F6E6C7920626520756E7374616B65642061667465 PUSH1 0x44 DUP3 ADD MSTORE PUSH10 0x39101A103BB2B2B5B997 PUSH1 0xB1 SHL PUSH1 0x64 DUP3 ADD MSTORE PUSH1 0x84 ADD PUSH2 0x5FB JUMP JUMPDEST PUSH0 PUSH2 0x7D6 CALLER PUSH2 0x4DB JUMP JUMPDEST CALLER PUSH0 DUP2 DUP2 MSTORE PUSH1 0xD PUSH1 0x20 SWAP1 DUP2 MSTORE PUSH1 0x40 DUP1 DUP4 KECCAK256 DUP4 SWAP1 SSTORE PUSH1 0xE SWAP1 SWAP2 MSTORE DUP2 KECCAK256 SSTORE SWAP1 SWAP2 POP PUSH2 0x80A SWAP1 ADDRESS SWAP1 PUSH2 0x805 DUP5 DUP9 PUSH2 0xDB2 JUMP JUMPDEST PUSH2 0x930 JUMP JUMPDEST PUSH1 0x40 DUP1 MLOAD DUP6 DUP2 MSTORE PUSH1 0x20 DUP2 ADD DUP4 SWAP1 MSTORE CALLER SWAP2 PUSH32 0x6F2D3E000C89D37446B7C0374C0125068FF316D1E3EE302336478A8CD03C2336 SWAP2 ADD PUSH1 0x40 MLOAD DUP1 SWAP2 SUB SWAP1 LOG2 POP POP POP POP JUMP JUMPDEST PUSH0 CALLER PUSH2 0x4CF DUP2 DUP6 DUP6 PUSH2 0x930 JUMP JUMPDEST PUSH2 0x860 PUSH2 0x98D JUMP JUMPDEST PUSH1 0xC SSTORE JUMP JUMPDEST PUSH2 0x86D PUSH2 0x98D JUMP JUMPDEST PUSH1 0x1 PUSH1 0x1 PUSH1 0xA0 SHL SUB DUP2 AND PUSH2 0x896 JUMPI PUSH1 0x40 MLOAD PUSH4 0x1E4FBDF7 PUSH1 0xE0 SHL DUP2 MSTORE PUSH0 PUSH1 0x4 DUP3 ADD MSTORE PUSH1 0x24 ADD PUSH2 0x5FB JUMP JUMPDEST PUSH2 0x89F DUP2 PUSH2 0x9BA JUMP JUMPDEST POP JUMP JUMPDEST PUSH2 0x8AF DUP4 DUP4 DUP4 PUSH1 0x1 PUSH2 0xA0B JUMP JUMPDEST POP POP POP JUMP JUMPDEST PUSH1 0x1 PUSH1 0x1 PUSH1 0xA0 SHL SUB DUP4 DUP2 AND PUSH0 SWAP1 DUP2 MSTORE PUSH1 0x1 PUSH1 0x20 SWAP1 DUP2 MSTORE PUSH1 0x40 DUP1 DUP4 KECCAK256 SWAP4 DUP7 AND DUP4 MSTORE SWAP3 SWAP1 MSTORE KECCAK256 SLOAD PUSH0 NOT DUP2 LT ISZERO PUSH2 0x92A JUMPI DUP2 DUP2 LT ISZERO PUSH2 0x91C JUMPI PUSH1 0x40 MLOAD PUSH4 0x7DC7A0D9 PUSH1 0xE1 SHL DUP2 MSTORE PUSH1 0x1 PUSH1 0x1 PUSH1 0xA0 SHL SUB DUP5 AND PUSH1 0x4 DUP3 ADD MSTORE PUSH1 0x24 DUP2 ADD DUP3 SWAP1 MSTORE PUSH1 0x44 DUP2 ADD DUP4 SWAP1 MSTORE PUSH1 0x64 ADD PUSH2 0x5FB JUMP JUMPDEST PUSH2 0x92A DUP5 DUP5 DUP5 DUP5 SUB PUSH0 PUSH2 0xA0B JUMP JUMPDEST POP POP POP POP JUMP JUMPDEST PUSH1 0x1 PUSH1 0x1 PUSH1 0xA0 SHL SUB DUP4 AND PUSH2 0x959 JUMPI PUSH1 0x40 MLOAD PUSH4 0x4B637E8F PUSH1 0xE1 SHL DUP2 MSTORE PUSH0 PUSH1 0x4 DUP3 ADD MSTORE PUSH1 0x24 ADD PUSH2 0x5FB JUMP JUMPDEST PUSH1 0x1 PUSH1 0x1 PUSH1 0xA0 SHL SUB DUP3 AND PUSH2 0x982 JUMPI PUSH1 0x40 MLOAD PUSH4 0xEC442F05 PUSH1 0xE0 SHL DUP2 MSTORE PUSH0 PUSH1 0x4 DUP3 ADD MSTORE PUSH1 0x24 ADD PUSH2 0x5FB JUMP JUMPDEST PUSH2 0x8AF DUP4 DUP4 DUP4 PUSH2 0xADD JUMP JUMPDEST PUSH1 0x5 SLOAD PUSH1 0x1 PUSH1 0x1 PUSH1 0xA0 SHL SUB AND CALLER EQ PUSH2 0x5A4 JUMPI PUSH1 0x40 MLOAD PUSH4 0x118CDAA7 PUSH1 0xE0 SHL DUP2 MSTORE CALLER PUSH1 0x4 DUP3 ADD MSTORE PUSH1 0x24 ADD PUSH2 0x5FB JUMP JUMPDEST PUSH1 0x5 DUP1 SLOAD PUSH1 0x1 PUSH1 0x1 PUSH1 0xA0 SHL SUB DUP4 DUP2 AND PUSH1 0x1 PUSH1 0x1 PUSH1 0xA0 SHL SUB NOT DUP4 AND DUP2 OR SWAP1 SWAP4 SSTORE PUSH1 0x40 MLOAD SWAP2 AND SWAP2 SWAP1 DUP3 SWAP1 PUSH32 0x8BE0079C531659141344CD1FD0A4F28419497F9722A3DAAFE3B4186F6B6457E0 SWAP1 PUSH0 SWAP1 LOG3 POP POP JUMP JUMPDEST PUSH1 0x1 PUSH1 0x1 PUSH1 0xA0 SHL SUB DUP5 AND PUSH2 0xA34 JUMPI PUSH1 0x40 MLOAD PUSH4 0xE602DF05 PUSH1 0xE0 SHL DUP2 MSTORE PUSH0 PUSH1 0x4 DUP3 ADD MSTORE PUSH1 0x24 ADD PUSH2 0x5FB JUMP JUMPDEST PUSH1 0x1 PUSH1 0x1 PUSH1 0xA0 SHL SUB DUP4 AND PUSH2 0xA5D JUMPI PUSH1 0x40 MLOAD PUSH4 0x4A1406B1 PUSH1 0xE1 SHL DUP2 MSTORE PUSH0 PUSH1 0x4 DUP3 ADD MSTORE PUSH1 0x24 ADD PUSH2 0x5FB JUMP JUMPDEST PUSH1 0x1 PUSH1 0x1 PUSH1 0xA0 SHL SUB DUP1 DUP6 AND PUSH0 SWAP1 DUP2 MSTORE PUSH1 0x1 PUSH1 0x20 SWAP1 DUP2 MSTORE PUSH1 0x40 DUP1 DUP4 KECCAK256 SWAP4 DUP8 AND DUP4 MSTORE SWAP3 SWAP1 MSTORE KECCAK256 DUP3 SWAP1 SSTORE DUP1 ISZERO PUSH2 0x92A JUMPI DUP3 PUSH1 0x1 PUSH1 0x1 PUSH1 0xA0 SHL SUB AND DUP5 PUSH1 0x1 PUSH1 0x1 PUSH1 0xA0 SHL SUB AND PUSH32 0x8C5BE1E5EBEC7D5BD14F71427D1E84F3DD0314C0F7B2291E5B200AC8C7C3B925 DUP5 PUSH1 0x40 MLOAD PUSH2 0xACF SWAP2 DUP2 MSTORE PUSH1 0x20 ADD SWAP1 JUMP JUMPDEST PUSH1 0x40 MLOAD DUP1 SWAP2 SUB SWAP1 LOG3 POP POP POP POP JUMP JUMPDEST PUSH1 0x1 PUSH1 0x1 PUSH1 0xA0 SHL SUB DUP4 AND PUSH2 0xB07 JUMPI DUP1 PUSH1 0x2 PUSH0 DUP3 DUP3 SLOAD PUSH2 0xAFC SWAP2 SWAP1 PUSH2 0xDB2 JUMP JUMPDEST SWAP1 SWAP2 SSTORE POP PUSH2 0xB77 SWAP1 POP JUMP JUMPDEST PUSH1 0x1 PUSH1 0x1 PUSH1 0xA0 SHL SUB DUP4 AND PUSH0 SWAP1 DUP2 MSTORE PUSH1 0x20 DUP2 SWAP1 MSTORE PUSH1 0x40 SWAP1 KECCAK256 SLOAD DUP2 DUP2 LT ISZERO PUSH2 0xB59 JUMPI PUSH1 0x40 MLOAD PUSH4 0x391434E3 PUSH1 0xE2 SHL DUP2 MSTORE PUSH1 0x1 PUSH1 0x1 PUSH1 0xA0 SHL SUB DUP6 AND PUSH1 0x4 DUP3 ADD MSTORE PUSH1 0x24 DUP2 ADD DUP3 SWAP1 MSTORE PUSH1 0x44 DUP2 ADD DUP4 SWAP1 MSTORE PUSH1 0x64 ADD PUSH2 0x5FB JUMP JUMPDEST PUSH1 0x1 PUSH1 0x1 PUSH1 0xA0 SHL SUB DUP5 AND PUSH0 SWAP1 DUP2 MSTORE PUSH1 0x20 DUP2 SWAP1 MSTORE PUSH1 0x40 SWAP1 KECCAK256 SWAP1 DUP3 SWAP1 SUB SWAP1 SSTORE JUMPDEST PUSH1 0x1 PUSH1 0x1 PUSH1 0xA0 SHL SUB DUP3 AND PUSH2 0xB93 JUMPI PUSH1 0x2 DUP1 SLOAD DUP3 SWAP1 SUB SWAP1 SSTORE PUSH2 0xBB1 JUMP JUMPDEST PUSH1 0x1 PUSH1 0x1 PUSH1 0xA0 SHL SUB DUP3 AND PUSH0 SWAP1 DUP2 MSTORE PUSH1 0x20 DUP2 SWAP1 MSTORE PUSH1 0x40 SWAP1 KECCAK256 DUP1 SLOAD DUP3 ADD SWAP1 SSTORE JUMPDEST DUP2 PUSH1 0x1 PUSH1 0x1 PUSH1 0xA0 SHL SUB AND DUP4 PUSH1 0x1 PUSH1 0x1 PUSH1 0xA0 SHL SUB AND PUSH32 0xDDF252AD1BE2C89B69C2B068FC378DAA952BA7F163C4A11628F55A4DF523B3EF DUP4 PUSH1 0x40 MLOAD PUSH2 0xBF6 SWAP2 DUP2 MSTORE PUSH1 0x20 ADD SWAP1 JUMP JUMPDEST PUSH1 0x40 MLOAD DUP1 SWAP2 SUB SWAP1 LOG3 POP POP POP JUMP JUMPDEST PUSH1 0x20 DUP2 MSTORE PUSH0 DUP3 MLOAD DUP1 PUSH1 0x20 DUP5 ADD MSTORE DUP1 PUSH1 0x20 DUP6 ADD PUSH1 0x40 DUP6 ADD MCOPY PUSH0 PUSH1 0x40 DUP3 DUP6 ADD ADD MSTORE PUSH1 0x40 PUSH1 0x1F NOT PUSH1 0x1F DUP4 ADD AND DUP5 ADD ADD SWAP2 POP POP SWAP3 SWAP2 POP POP JUMP JUMPDEST DUP1 CALLDATALOAD PUSH1 0x1 PUSH1 0x1 PUSH1 0xA0 SHL SUB DUP2 AND DUP2 EQ PUSH2 0xC4E JUMPI PUSH0 DUP1 REVERT JUMPDEST SWAP2 SWAP1 POP JUMP JUMPDEST PUSH0 DUP1 PUSH1 0x40 DUP4 DUP6 SUB SLT ISZERO PUSH2 0xC64 JUMPI PUSH0 DUP1 REVERT JUMPDEST PUSH2 0xC6D DUP4 PUSH2 0xC38 JUMP JUMPDEST SWAP5 PUSH1 0x20 SWAP4 SWAP1 SWAP4 ADD CALLDATALOAD SWAP4 POP POP POP JUMP JUMPDEST PUSH0 PUSH1 0x20 DUP3 DUP5 SUB SLT ISZERO PUSH2 0xC8B JUMPI PUSH0 DUP1 REVERT JUMPDEST PUSH2 0xC94 DUP3 PUSH2 0xC38 JUMP JUMPDEST SWAP4 SWAP3 POP POP POP JUMP JUMPDEST PUSH0 DUP1 PUSH0 PUSH1 0x60 DUP5 DUP7 SUB SLT ISZERO PUSH2 0xCAD JUMPI PUSH0 DUP1 REVERT JUMPDEST PUSH2 0xCB6 DUP5 PUSH2 0xC38 JUMP JUMPDEST SWAP3 POP PUSH2 0xCC4 PUSH1 0x20 DUP6 ADD PUSH2 0xC38 JUMP JUMPDEST SWAP3 SWAP6 SWAP3 SWAP5 POP POP POP PUSH1 0x40 SWAP2 SWAP1 SWAP2 ADD CALLDATALOAD SWAP1 JUMP JUMPDEST PUSH0 PUSH1 0x20 DUP3 DUP5 SUB SLT ISZERO PUSH2 0xCE5 JUMPI PUSH0 DUP1 REVERT JUMPDEST POP CALLDATALOAD SWAP2 SWAP1 POP JUMP JUMPDEST PUSH0 DUP1 PUSH1 0x40 DUP4 DUP6 SUB SLT ISZERO PUSH2 0xCFD JUMPI PUSH0 DUP1 REVERT JUMPDEST PUSH2 0xD06 DUP4 PUSH2 0xC38 JUMP JUMPDEST SWAP2 POP PUSH2 0xD14 PUSH1 0x20 DUP5 ADD PUSH2 0xC38 JUMP JUMPDEST SWAP1 POP SWAP3 POP SWAP3 SWAP1 POP JUMP JUMPDEST PUSH1 0x1 DUP2 DUP2 SHR SWAP1 DUP3 AND DUP1 PUSH2 0xD31 JUMPI PUSH1 0x7F DUP3 AND SWAP2 POP JUMPDEST PUSH1 0x20 DUP3 LT DUP2 SUB PUSH2 0xD4F JUMPI PUSH4 0x4E487B71 PUSH1 0xE0 SHL PUSH0 MSTORE PUSH1 0x22 PUSH1 0x4 MSTORE PUSH1 0x24 PUSH0 REVERT JUMPDEST POP SWAP2 SWAP1 POP JUMP JUMPDEST PUSH4 0x4E487B71 PUSH1 0xE0 SHL PUSH0 MSTORE PUSH1 0x11 PUSH1 0x4 MSTORE PUSH1 0x24 PUSH0 REVERT JUMPDEST DUP2 DUP2 SUB DUP2 DUP2 GT ISZERO PUSH2 0x4D5 JUMPI PUSH2 0x4D5 PUSH2 0xD55 JUMP JUMPDEST PUSH0 DUP3 PUSH2 0xD96 JUMPI PUSH4 0x4E487B71 PUSH1 0xE0 SHL PUSH0 MSTORE PUSH1 0x12 PUSH1 0x4 MSTORE PUSH1 0x24 PUSH0 REVERT JUMPDEST POP DIV SWAP1 JUMP JUMPDEST DUP1 DUP3 MUL DUP2 ISZERO DUP3 DUP3 DIV DUP5 EQ OR PUSH2 0x4D5 JUMPI PUSH2 0x4D5 PUSH2 0xD55 JUMP JUMPDEST DUP1 DUP3 ADD DUP1 DUP3 GT ISZERO PUSH2 0x4D5 JUMPI PUSH2 0x4D5 PUSH2 0xD55 JUMP INVALID LOG2 PUSH5 0x6970667358 0x22 SLT KECCAK256 0xE8 MCOPY 0xBC JUMPI 0xC4 0x2D CALLDATASIZE MSTORE8 PUSH11 0xD3D0AFCEACE7A65C9D8E06 DUP12 0xAB LOG1 SELFDESTRUCT 0x4E TIMESTAMP SWAP7 SWAP12 PUSH1 0x85 0xE5 TIMESTAMP PUSH5 0x736F6C6343 STOP ADDMOD BYTE STOP CALLER "
				},
				"gasEstimates": {
					"creation": {
						"codeDepositCost": "715800",
						"executionCost": "infinite",
						"totalCost": "infinite"
					},
					"external": {
						"allowance(address,address)": "infinite",
						"approve(address,uint256)": "24803",
						"balanceOf(address)": "2594",
						"calculateStakingReward(address)": "infinite",
						"decimals()": "244",
						"getAccumulatedRewards(address)": "infinite",
						"getStakedBalance(address)": "2613",
						"getStakingStartDate(address)": "2590",
						"initialPrice()": "2395",
						"name()": "infinite",
						"owner()": "2389",
						"regularSalePrice()": "2330",
						"renounceOwnership()": "infinite",
						"saleEndTime()": "2349",
						"saleStartTime()": "2373",
						"setStakingRewardRate(uint256)": "24597",
						"stakeTokens(uint256)": "101309",
						"stakedAmount(address)": "2615",
						"stakingRewardRate()": "2372",
						"stakingRewards(address)": "2550",
						"stakingTimestamp(address)": "2616",
						"symbol()": "infinite",
						"tokensSold()": "2394",
						"totalSupply()": "2348",
						"transfer(address,uint256)": "51305",
						"transferFrom(address,address,uint256)": "infinite",
						"transferOwnership(address)": "28421",
						"unstakeTokens()": "infinite",
						"weeklyIncreaseRate()": "2328"
					}
				},
				"methodIdentifiers": {
					"allowance(address,address)": "dd62ed3e",
					"approve(address,uint256)": "095ea7b3",
					"balanceOf(address)": "70a08231",
					"calculateStakingReward(address)": "0d505541",
					"decimals()": "313ce567",
					"getAccumulatedRewards(address)": "5ee09669",
					"getStakedBalance(address)": "3a02a42d",
					"getStakingStartDate(address)": "4ac530dc",
					"initialPrice()": "1d0806ae",
					"name()": "06fdde03",
					"owner()": "8da5cb5b",
					"regularSalePrice()": "03e293a3",
					"renounceOwnership()": "715018a6",
					"saleEndTime()": "ed338ff1",
					"saleStartTime()": "1cbaee2d",
					"setStakingRewardRate(uint256)": "b7d68519",
					"stakeTokens(uint256)": "7547c7a3",
					"stakedAmount(address)": "f9931855",
					"stakingRewardRate()": "4f3fc2df",
					"stakingRewards(address)": "499d7f96",
					"stakingTimestamp(address)": "8f0794fe",
					"symbol()": "95d89b41",
					"tokensSold()": "518ab2a8",
					"totalSupply()": "18160ddd",
					"transfer(address,uint256)": "a9059cbb",
					"transferFrom(address,address,uint256)": "23b872dd",
					"transferOwnership(address)": "f2fde38b",
					"unstakeTokens()": "a5ce413b",
					"weeklyIncreaseRate()": "7165d19b"
				}
			},
			"storageLayout": {
				"storage": [
					{
						"astId": 307,
						"contract": "contracts/SimpleToken.sol:TokenPreSale",
						"label": "_balances",
						"offset": 0,
						"slot": "0",
						"type": "t_mapping(t_address,t_uint256)"
					},
					{
						"astId": 313,
						"contract": "contracts/SimpleToken.sol:TokenPreSale",
						"label": "_allowances",
						"offset": 0,
						"slot": "1",
						"type": "t_mapping(t_address,t_mapping(t_address,t_uint256))"
					},
					{
						"astId": 315,
						"contract": "contracts/SimpleToken.sol:TokenPreSale",
						"label": "_totalSupply",
						"offset": 0,
						"slot": "2",
						"type": "t_uint256"
					},
					{
						"astId": 317,
						"contract": "contracts/SimpleToken.sol:TokenPreSale",
						"label": "_name",
						"offset": 0,
						"slot": "3",
						"type": "t_string_storage"
					},
					{
						"astId": 319,
						"contract": "contracts/SimpleToken.sol:TokenPreSale",
						"label": "_symbol",
						"offset": 0,
						"slot": "4",
						"type": "t_string_storage"
					},
					{
						"astId": 8,
						"contract": "contracts/SimpleToken.sol:TokenPreSale",
						"label": "_owner",
						"offset": 0,
						"slot": "5",
						"type": "t_address"
					},
					{
						"astId": 943,
						"contract": "contracts/SimpleToken.sol:TokenPreSale",
						"label": "saleStartTime",
						"offset": 0,
						"slot": "6",
						"type": "t_uint256"
					},
					{
						"astId": 945,
						"contract": "contracts/SimpleToken.sol:TokenPreSale",
						"label": "saleEndTime",
						"offset": 0,
						"slot": "7",
						"type": "t_uint256"
					},
					{
						"astId": 947,
						"contract": "contracts/SimpleToken.sol:TokenPreSale",
						"label": "initialPrice",
						"offset": 0,
						"slot": "8",
						"type": "t_uint256"
					},
					{
						"astId": 949,
						"contract": "contracts/SimpleToken.sol:TokenPreSale",
						"label": "regularSalePrice",
						"offset": 0,
						"slot": "9",
						"type": "t_uint256"
					},
					{
						"astId": 951,
						"contract": "contracts/SimpleToken.sol:TokenPreSale",
						"label": "weeklyIncreaseRate",
						"offset": 0,
						"slot": "10",
						"type": "t_uint256"
					},
					{
						"astId": 953,
						"contract": "contracts/SimpleToken.sol:TokenPreSale",
						"label": "tokensSold",
						"offset": 0,
						"slot": "11",
						"type": "t_uint256"
					},
					{
						"astId": 955,
						"contract": "contracts/SimpleToken.sol:TokenPreSale",
						"label": "stakingRewardRate",
						"offset": 0,
						"slot": "12",
						"type": "t_uint256"
					},
					{
						"astId": 959,
						"contract": "contracts/SimpleToken.sol:TokenPreSale",
						"label": "stakedAmount",
						"offset": 0,
						"slot": "13",
						"type": "t_mapping(t_address,t_uint256)"
					},
					{
						"astId": 963,
						"contract": "contracts/SimpleToken.sol:TokenPreSale",
						"label": "stakingTimestamp",
						"offset": 0,
						"slot": "14",
						"type": "t_mapping(t_address,t_uint256)"
					},
					{
						"astId": 967,
						"contract": "contracts/SimpleToken.sol:TokenPreSale",
						"label": "stakingRewards",
						"offset": 0,
						"slot": "15",
						"type": "t_mapping(t_address,t_uint256)"
					}
				],
				"types": {
					"t_address": {
						"encoding": "inplace",
						"label": "address",
						"numberOfBytes": "20"
					},
					"t_mapping(t_address,t_mapping(t_address,t_uint256))": {
						"encoding": "mapping",
						"key": "t_address",
						"label": "mapping(address => mapping(address => uint256))",
						"numberOfBytes": "32",
						"value": "t_mapping(t_address,t_uint256)"
					},
					"t_mapping(t_address,t_uint256)": {
						"encoding": "mapping",
						"key": "t_address",
						"label": "mapping(address => uint256)",
						"numberOfBytes": "32",
						"value": "t_uint256"
					},
					"t_string_storage": {
						"encoding": "bytes",
						"label": "string",
						"numberOfBytes": "32"
					},
					"t_uint256": {
						"encoding": "inplace",
						"label": "uint256",
						"numberOfBytes": "32"
					}
				}
			},
			"userdoc": {
				"kind": "user",
				"methods": {
					"calculateStakingReward(address)": {
						"notice": "Calculate the staking rewards for a user based on the staked amount and time staked (in weeks)"
					},
					"getAccumulatedRewards(address)": {
						"notice": "Get the accumulated rewards for a user based on the duration of staking"
					},
					"getStakedBalance(address)": {
						"notice": "Get the staked balance of a user"
					},
					"getStakingStartDate(address)": {
						"notice": "Get the staking start date (timestamp) for a user"
					},
					"setStakingRewardRate(uint256)": {
						"notice": "Set the staking reward rate (only callable by the owner)"
					},
					"stakeTokens(uint256)": {
						"notice": "Stake tokens in the contract for rewards"
					},
					"unstakeTokens()": {
						"notice": "Unstake tokens and receive accumulated rewards. Users are only allowed to unstake after 4 weeks."
					}
				},
				"version": 1
			}
		}
	}
}