{
	"contracts/SimpleToken.sol": {
		"TokenPreSale": {
			"abi": [
				{
					"inputs": [
						{
							"internalType": "address",
							"name": "initialOwner",
							"type": "address"
						},
						{
							"internalType": "uint256",
							"name": "totalSupply",
							"type": "uint256"
						},
						{
							"internalType": "uint256",
							"name": "_initialPrice",
							"type": "uint256"
						},
						{
							"internalType": "uint256",
							"name": "_weeklyIncreaseRate",
							"type": "uint256"
						},
						{
							"internalType": "uint256",
							"name": "_regularSalePrice",
							"type": "uint256"
						},
						{
							"internalType": "uint256",
							"name": "_stakingRewardRate",
							"type": "uint256"
						}
					],
					"stateMutability": "nonpayable",
					"type": "constructor"
				},
				{
					"inputs": [
						{
							"internalType": "address",
							"name": "spender",
							"type": "address"
						},
						{
							"internalType": "uint256",
							"name": "allowance",
							"type": "uint256"
						},
						{
							"internalType": "uint256",
							"name": "needed",
							"type": "uint256"
						}
					],
					"name": "ERC20InsufficientAllowance",
					"type": "error"
				},
				{
					"inputs": [
						{
							"internalType": "address",
							"name": "sender",
							"type": "address"
						},
						{
							"internalType": "uint256",
							"name": "balance",
							"type": "uint256"
						},
						{
							"internalType": "uint256",
							"name": "needed",
							"type": "uint256"
						}
					],
					"name": "ERC20InsufficientBalance",
					"type": "error"
				},
				{
					"inputs": [
						{
							"internalType": "address",
							"name": "approver",
							"type": "address"
						}
					],
					"name": "ERC20InvalidApprover",
					"type": "error"
				},
				{
					"inputs": [
						{
							"internalType": "address",
							"name": "receiver",
							"type": "address"
						}
					],
					"name": "ERC20InvalidReceiver",
					"type": "error"
				},
				{
					"inputs": [
						{
							"internalType": "address",
							"name": "sender",
							"type": "address"
						}
					],
					"name": "ERC20InvalidSender",
					"type": "error"
				},
				{
					"inputs": [
						{
							"internalType": "address",
							"name": "spender",
							"type": "address"
						}
					],
					"name": "ERC20InvalidSpender",
					"type": "error"
				},
				{
					"inputs": [
						{
							"internalType": "address",
							"name": "owner",
							"type": "address"
						}
					],
					"name": "OwnableInvalidOwner",
					"type": "error"
				},
				{
					"inputs": [
						{
							"internalType": "address",
							"name": "account",
							"type": "address"
						}
					],
					"name": "OwnableUnauthorizedAccount",
					"type": "error"
				},
				{
					"anonymous": false,
					"inputs": [
						{
							"indexed": true,
							"internalType": "address",
							"name": "owner",
							"type": "address"
						},
						{
							"indexed": true,
							"internalType": "address",
							"name": "spender",
							"type": "address"
						},
						{
							"indexed": false,
							"internalType": "uint256",
							"name": "value",
							"type": "uint256"
						}
					],
					"name": "Approval",
					"type": "event"
				},
				{
					"anonymous": false,
					"inputs": [
						{
							"indexed": true,
							"internalType": "address",
							"name": "previousOwner",
							"type": "address"
						},
						{
							"indexed": true,
							"internalType": "address",
							"name": "newOwner",
							"type": "address"
						}
					],
					"name": "OwnershipTransferred",
					"type": "event"
				},
				{
					"anonymous": false,
					"inputs": [
						{
							"indexed": false,
							"internalType": "uint256",
							"name": "endTime",
							"type": "uint256"
						}
					],
					"name": "PreSaleEnded",
					"type": "event"
				},
				{
					"anonymous": false,
					"inputs": [
						{
							"indexed": false,
							"internalType": "uint256",
							"name": "startTime",
							"type": "uint256"
						},
						{
							"indexed": false,
							"internalType": "uint256",
							"name": "endTime",
							"type": "uint256"
						}
					],
					"name": "PreSaleStarted",
					"type": "event"
				},
				{
					"anonymous": false,
					"inputs": [
						{
							"indexed": true,
							"internalType": "address",
							"name": "referrer",
							"type": "address"
						},
						{
							"indexed": false,
							"internalType": "uint256",
							"name": "rewardAmount",
							"type": "uint256"
						}
					],
					"name": "ReferralRewardMinted",
					"type": "event"
				},
				{
					"anonymous": false,
					"inputs": [
						{
							"indexed": true,
							"internalType": "address",
							"name": "buyer",
							"type": "address"
						},
						{
							"indexed": false,
							"internalType": "uint256",
							"name": "amount",
							"type": "uint256"
						},
						{
							"indexed": false,
							"internalType": "uint256",
							"name": "cost",
							"type": "uint256"
						}
					],
					"name": "TokensPurchased",
					"type": "event"
				},
				{
					"anonymous": false,
					"inputs": [
						{
							"indexed": true,
							"internalType": "address",
							"name": "user",
							"type": "address"
						},
						{
							"indexed": false,
							"internalType": "uint256",
							"name": "amount",
							"type": "uint256"
						}
					],
					"name": "TokensStaked",
					"type": "event"
				},
				{
					"anonymous": false,
					"inputs": [
						{
							"indexed": true,
							"internalType": "address",
							"name": "user",
							"type": "address"
						},
						{
							"indexed": false,
							"internalType": "uint256",
							"name": "amount",
							"type": "uint256"
						},
						{
							"indexed": false,
							"internalType": "uint256",
							"name": "reward",
							"type": "uint256"
						}
					],
					"name": "TokensUnstaked",
					"type": "event"
				},
				{
					"anonymous": false,
					"inputs": [
						{
							"indexed": true,
							"internalType": "address",
							"name": "from",
							"type": "address"
						},
						{
							"indexed": true,
							"internalType": "address",
							"name": "to",
							"type": "address"
						},
						{
							"indexed": false,
							"internalType": "uint256",
							"name": "value",
							"type": "uint256"
						}
					],
					"name": "Transfer",
					"type": "event"
				},
				{
					"anonymous": false,
					"inputs": [
						{
							"indexed": true,
							"internalType": "address",
							"name": "user",
							"type": "address"
						},
						{
							"indexed": true,
							"internalType": "address",
							"name": "referral",
							"type": "address"
						}
					],
					"name": "UserWhitelisted",
					"type": "event"
				},
				{
					"inputs": [
						{
							"internalType": "address",
							"name": "owner",
							"type": "address"
						},
						{
							"internalType": "address",
							"name": "spender",
							"type": "address"
						}
					],
					"name": "allowance",
					"outputs": [
						{
							"internalType": "uint256",
							"name": "",
							"type": "uint256"
						}
					],
					"stateMutability": "view",
					"type": "function"
				},
				{
					"inputs": [
						{
							"internalType": "address",
							"name": "spender",
							"type": "address"
						},
						{
							"internalType": "uint256",
							"name": "value",
							"type": "uint256"
						}
					],
					"name": "approve",
					"outputs": [
						{
							"internalType": "bool",
							"name": "",
							"type": "bool"
						}
					],
					"stateMutability": "nonpayable",
					"type": "function"
				},
				{
					"inputs": [
						{
							"internalType": "address",
							"name": "account",
							"type": "address"
						}
					],
					"name": "balanceOf",
					"outputs": [
						{
							"internalType": "uint256",
							"name": "",
							"type": "uint256"
						}
					],
					"stateMutability": "view",
					"type": "function"
				},
				{
					"inputs": [
						{
							"internalType": "address",
							"name": "",
							"type": "address"
						}
					],
					"name": "balances",
					"outputs": [
						{
							"internalType": "uint256",
							"name": "",
							"type": "uint256"
						}
					],
					"stateMutability": "view",
					"type": "function"
				},
				{
					"inputs": [],
					"name": "buyTokens",
					"outputs": [],
					"stateMutability": "payable",
					"type": "function"
				},
				{
					"inputs": [],
					"name": "calculatePrice",
					"outputs": [
						{
							"internalType": "uint256",
							"name": "",
							"type": "uint256"
						}
					],
					"stateMutability": "view",
					"type": "function"
				},
				{
					"inputs": [],
					"name": "calculatePriceIncrease",
					"outputs": [
						{
							"internalType": "uint256",
							"name": "",
							"type": "uint256"
						}
					],
					"stateMutability": "view",
					"type": "function"
				},
				{
					"inputs": [
						{
							"internalType": "address",
							"name": "referrer",
							"type": "address"
						}
					],
					"name": "calculateReferralReward",
					"outputs": [
						{
							"internalType": "uint256",
							"name": "",
							"type": "uint256"
						}
					],
					"stateMutability": "view",
					"type": "function"
				},
				{
					"inputs": [
						{
							"internalType": "address",
							"name": "user",
							"type": "address"
						}
					],
					"name": "calculateStakingReward",
					"outputs": [
						{
							"internalType": "uint256",
							"name": "",
							"type": "uint256"
						}
					],
					"stateMutability": "view",
					"type": "function"
				},
				{
					"inputs": [
						{
							"internalType": "uint256",
							"name": "startTime",
							"type": "uint256"
						},
						{
							"internalType": "uint256",
							"name": "endTime",
							"type": "uint256"
						}
					],
					"name": "calculateWeeksElapsed",
					"outputs": [
						{
							"internalType": "uint256",
							"name": "",
							"type": "uint256"
						}
					],
					"stateMutability": "pure",
					"type": "function"
				},
				{
					"inputs": [],
					"name": "decimals",
					"outputs": [
						{
							"internalType": "uint8",
							"name": "",
							"type": "uint8"
						}
					],
					"stateMutability": "view",
					"type": "function"
				},
				{
					"inputs": [],
					"name": "getWalletBalance",
					"outputs": [
						{
							"internalType": "uint256",
							"name": "",
							"type": "uint256"
						}
					],
					"stateMutability": "view",
					"type": "function"
				},
				{
					"inputs": [],
					"name": "initialPrice",
					"outputs": [
						{
							"internalType": "uint256",
							"name": "",
							"type": "uint256"
						}
					],
					"stateMutability": "view",
					"type": "function"
				},
				{
					"inputs": [],
					"name": "mintReferralReward",
					"outputs": [],
					"stateMutability": "nonpayable",
					"type": "function"
				},
				{
					"inputs": [],
					"name": "name",
					"outputs": [
						{
							"internalType": "string",
							"name": "",
							"type": "string"
						}
					],
					"stateMutability": "view",
					"type": "function"
				},
				{
					"inputs": [],
					"name": "owner",
					"outputs": [
						{
							"internalType": "address",
							"name": "",
							"type": "address"
						}
					],
					"stateMutability": "view",
					"type": "function"
				},
				{
					"inputs": [],
					"name": "preSaleEndTime",
					"outputs": [
						{
							"internalType": "uint256",
							"name": "",
							"type": "uint256"
						}
					],
					"stateMutability": "view",
					"type": "function"
				},
				{
					"inputs": [],
					"name": "preSaleStartTime",
					"outputs": [
						{
							"internalType": "uint256",
							"name": "",
							"type": "uint256"
						}
					],
					"stateMutability": "view",
					"type": "function"
				},
				{
					"inputs": [],
					"name": "preSaleWeeksInWeeks",
					"outputs": [
						{
							"internalType": "uint256",
							"name": "",
							"type": "uint256"
						}
					],
					"stateMutability": "view",
					"type": "function"
				},
				{
					"inputs": [],
					"name": "presaleIsActive",
					"outputs": [
						{
							"internalType": "bool",
							"name": "",
							"type": "bool"
						}
					],
					"stateMutability": "view",
					"type": "function"
				},
				{
					"inputs": [
						{
							"internalType": "address",
							"name": "",
							"type": "address"
						}
					],
					"name": "referralCounts",
					"outputs": [
						{
							"internalType": "uint256",
							"name": "",
							"type": "uint256"
						}
					],
					"stateMutability": "view",
					"type": "function"
				},
				{
					"inputs": [
						{
							"internalType": "address",
							"name": "",
							"type": "address"
						}
					],
					"name": "referrals",
					"outputs": [
						{
							"internalType": "address",
							"name": "",
							"type": "address"
						}
					],
					"stateMutability": "view",
					"type": "function"
				},
				{
					"inputs": [],
					"name": "regularSalePrice",
					"outputs": [
						{
							"internalType": "uint256",
							"name": "",
							"type": "uint256"
						}
					],
					"stateMutability": "view",
					"type": "function"
				},
				{
					"inputs": [],
					"name": "renounceOwnership",
					"outputs": [],
					"stateMutability": "nonpayable",
					"type": "function"
				},
				{
					"inputs": [
						{
							"internalType": "address",
							"name": "referral",
							"type": "address"
						}
					],
					"name": "signUpForWhitelist",
					"outputs": [],
					"stateMutability": "nonpayable",
					"type": "function"
				},
				{
					"inputs": [
						{
							"internalType": "uint256",
							"name": "amount",
							"type": "uint256"
						}
					],
					"name": "stakeTokens",
					"outputs": [],
					"stateMutability": "nonpayable",
					"type": "function"
				},
				{
					"inputs": [
						{
							"internalType": "address",
							"name": "",
							"type": "address"
						}
					],
					"name": "stakedAmount",
					"outputs": [
						{
							"internalType": "uint256",
							"name": "",
							"type": "uint256"
						}
					],
					"stateMutability": "view",
					"type": "function"
				},
				{
					"inputs": [],
					"name": "stakingRewardRate",
					"outputs": [
						{
							"internalType": "uint256",
							"name": "",
							"type": "uint256"
						}
					],
					"stateMutability": "view",
					"type": "function"
				},
				{
					"inputs": [
						{
							"internalType": "address",
							"name": "",
							"type": "address"
						}
					],
					"name": "stakingTimestamp",
					"outputs": [
						{
							"internalType": "uint256",
							"name": "",
							"type": "uint256"
						}
					],
					"stateMutability": "view",
					"type": "function"
				},
				{
					"inputs": [
						{
							"internalType": "uint256",
							"name": "_startTime",
							"type": "uint256"
						},
						{
							"internalType": "uint256",
							"name": "_durationWeeks",
							"type": "uint256"
						}
					],
					"name": "startPreSale",
					"outputs": [],
					"stateMutability": "nonpayable",
					"type": "function"
				},
				{
					"inputs": [],
					"name": "symbol",
					"outputs": [
						{
							"internalType": "string",
							"name": "",
							"type": "string"
						}
					],
					"stateMutability": "view",
					"type": "function"
				},
				{
					"inputs": [],
					"name": "tokensSold",
					"outputs": [
						{
							"internalType": "uint256",
							"name": "",
							"type": "uint256"
						}
					],
					"stateMutability": "view",
					"type": "function"
				},
				{
					"inputs": [],
					"name": "totalSupply",
					"outputs": [
						{
							"internalType": "uint256",
							"name": "",
							"type": "uint256"
						}
					],
					"stateMutability": "view",
					"type": "function"
				},
				{
					"inputs": [
						{
							"internalType": "address",
							"name": "to",
							"type": "address"
						},
						{
							"internalType": "uint256",
							"name": "value",
							"type": "uint256"
						}
					],
					"name": "transfer",
					"outputs": [
						{
							"internalType": "bool",
							"name": "",
							"type": "bool"
						}
					],
					"stateMutability": "nonpayable",
					"type": "function"
				},
				{
					"inputs": [
						{
							"internalType": "address",
							"name": "from",
							"type": "address"
						},
						{
							"internalType": "address",
							"name": "to",
							"type": "address"
						},
						{
							"internalType": "uint256",
							"name": "value",
							"type": "uint256"
						}
					],
					"name": "transferFrom",
					"outputs": [
						{
							"internalType": "bool",
							"name": "",
							"type": "bool"
						}
					],
					"stateMutability": "nonpayable",
					"type": "function"
				},
				{
					"inputs": [
						{
							"internalType": "address",
							"name": "newOwner",
							"type": "address"
						}
					],
					"name": "transferOwnership",
					"outputs": [],
					"stateMutability": "nonpayable",
					"type": "function"
				},
				{
					"inputs": [],
					"name": "unstakeTokens",
					"outputs": [],
					"stateMutability": "nonpayable",
					"type": "function"
				},
				{
					"inputs": [],
					"name": "weeklyIncreaseRate",
					"outputs": [
						{
							"internalType": "uint256",
							"name": "",
							"type": "uint256"
						}
					],
					"stateMutability": "view",
					"type": "function"
				},
				{
					"inputs": [
						{
							"internalType": "address",
							"name": "",
							"type": "address"
						}
					],
					"name": "whitelist",
					"outputs": [
						{
							"internalType": "bool",
							"name": "",
							"type": "bool"
						}
					],
					"stateMutability": "view",
					"type": "function"
				}
			],
			"devdoc": {
				"errors": {
					"ERC20InsufficientAllowance(address,uint256,uint256)": [
						{
							"details": "Indicates a failure with the `spender`’s `allowance`. Used in transfers.",
							"params": {
								"allowance": "Amount of tokens a `spender` is allowed to operate with.",
								"needed": "Minimum amount required to perform a transfer.",
								"spender": "Address that may be allowed to operate on tokens without being their owner."
							}
						}
					],
					"ERC20InsufficientBalance(address,uint256,uint256)": [
						{
							"details": "Indicates an error related to the current `balance` of a `sender`. Used in transfers.",
							"params": {
								"balance": "Current balance for the interacting account.",
								"needed": "Minimum amount required to perform a transfer.",
								"sender": "Address whose tokens are being transferred."
							}
						}
					],
					"ERC20InvalidApprover(address)": [
						{
							"details": "Indicates a failure with the `approver` of a token to be approved. Used in approvals.",
							"params": {
								"approver": "Address initiating an approval operation."
							}
						}
					],
					"ERC20InvalidReceiver(address)": [
						{
							"details": "Indicates a failure with the token `receiver`. Used in transfers.",
							"params": {
								"receiver": "Address to which tokens are being transferred."
							}
						}
					],
					"ERC20InvalidSender(address)": [
						{
							"details": "Indicates a failure with the token `sender`. Used in transfers.",
							"params": {
								"sender": "Address whose tokens are being transferred."
							}
						}
					],
					"ERC20InvalidSpender(address)": [
						{
							"details": "Indicates a failure with the `spender` to be approved. Used in approvals.",
							"params": {
								"spender": "Address that may be allowed to operate on tokens without being their owner."
							}
						}
					],
					"OwnableInvalidOwner(address)": [
						{
							"details": "The owner is not a valid owner account. (eg. `address(0)`)"
						}
					],
					"OwnableUnauthorizedAccount(address)": [
						{
							"details": "The caller account is not authorized to perform an operation."
						}
					]
				},
				"events": {
					"Approval(address,address,uint256)": {
						"details": "Emitted when the allowance of a `spender` for an `owner` is set by a call to {approve}. `value` is the new allowance."
					},
					"Transfer(address,address,uint256)": {
						"details": "Emitted when `value` tokens are moved from one account (`from`) to another (`to`). Note that `value` may be zero."
					}
				},
				"kind": "dev",
				"methods": {
					"allowance(address,address)": {
						"details": "See {IERC20-allowance}."
					},
					"approve(address,uint256)": {
						"details": "See {IERC20-approve}. NOTE: If `value` is the maximum `uint256`, the allowance is not updated on `transferFrom`. This is semantically equivalent to an infinite approval. Requirements: - `spender` cannot be the zero address."
					},
					"balanceOf(address)": {
						"details": "See {IERC20-balanceOf}."
					},
					"decimals()": {
						"details": "Returns the number of decimals used to get its user representation. For example, if `decimals` equals `2`, a balance of `505` tokens should be displayed to a user as `5.05` (`505 / 10 ** 2`). Tokens usually opt for a value of 18, imitating the relationship between Ether and Wei. This is the default value returned by this function, unless it's overridden. NOTE: This information is only used for _display_ purposes: it in no way affects any of the arithmetic of the contract, including {IERC20-balanceOf} and {IERC20-transfer}."
					},
					"name()": {
						"details": "Returns the name of the token."
					},
					"owner()": {
						"details": "Returns the address of the current owner."
					},
					"renounceOwnership()": {
						"details": "Leaves the contract without owner. It will not be possible to call `onlyOwner` functions. Can only be called by the current owner. NOTE: Renouncing ownership will leave the contract without an owner, thereby disabling any functionality that is only available to the owner."
					},
					"startPreSale(uint256,uint256)": {
						"params": {
							"_durationWeeks": "Duration of the pre-sale in weeks"
						}
					},
					"symbol()": {
						"details": "Returns the symbol of the token, usually a shorter version of the name."
					},
					"totalSupply()": {
						"details": "See {IERC20-totalSupply}."
					},
					"transfer(address,uint256)": {
						"details": "See {IERC20-transfer}. Requirements: - `to` cannot be the zero address. - the caller must have a balance of at least `value`."
					},
					"transferFrom(address,address,uint256)": {
						"details": "See {IERC20-transferFrom}. Skips emitting an {Approval} event indicating an allowance update. This is not required by the ERC. See {xref-ERC20-_approve-address-address-uint256-bool-}[_approve]. NOTE: Does not update the allowance if the current allowance is the maximum `uint256`. Requirements: - `from` and `to` cannot be the zero address. - `from` must have a balance of at least `value`. - the caller must have allowance for ``from``'s tokens of at least `value`."
					},
					"transferOwnership(address)": {
						"details": "Transfers ownership of the contract to a new account (`newOwner`). Can only be called by the current owner."
					}
				},
				"version": 1
			},
			"evm": {
				"assembly": "    /* \"contracts/SimpleToken.sol\":174:6582  contract TokenPreSale is ERC20, Ownable {... */\n  mstore(0x40, 0x80)\n    /* \"contracts/SimpleToken.sol\":1371:1900  constructor(address initialOwner, uint256 totalSupply, uint256 _initialPrice, uint256 _weeklyIncreaseRate, uint256 _regularSalePrice, uint256 _stakingRewardRate) ... */\n  callvalue\n  dup1\n  iszero\n  tag_1\n  jumpi\n  0x00\n  dup1\n  revert\ntag_1:\n  pop\n  mload(0x40)\n  sub(codesize, bytecodeSize)\n  dup1\n  bytecodeSize\n  dup4\n  codecopy\n  dup2\n  add\n  0x40\n  dup2\n  swap1\n  mstore\n  tag_2\n  swap2\n  tag_3\n  jump\t// in\ntag_2:\n    /* \"contracts/SimpleToken.sol\":1589:1601  initialOwner */\n  dup6\n    /* \"@openzeppelin/contracts/token/ERC20/ERC20.sol\":1601:1714  constructor(string memory name_, string memory symbol_) {... */\n  mload(0x40)\n  dup1\n  0x40\n  add\n  0x40\n  mstore\n  dup1\n  0x0b\n  dup2\n  mstore\n  0x20\n  add\n  shl(0xa9, 0x2730ba3ab932aa37b5b2b7)\n  dup2\n  mstore\n  pop\n  mload(0x40)\n  dup1\n  0x40\n  add\n  0x40\n  mstore\n  dup1\n  0x03\n  dup2\n  mstore\n  0x20\n  add\n  shl(0xe9, 0x272a29)\n  dup2\n  mstore\n  pop\n    /* \"@openzeppelin/contracts/token/ERC20/ERC20.sol\":1675:1680  name_ */\n  dup2\n    /* \"@openzeppelin/contracts/token/ERC20/ERC20.sol\":1667:1672  _name */\n  0x03\n    /* \"@openzeppelin/contracts/token/ERC20/ERC20.sol\":1667:1680  _name = name_ */\n  swap1\n  dup2\n  tag_8\n  swap2\n  swap1\n  tag_9\n  jump\t// in\ntag_8:\n  pop\n    /* \"@openzeppelin/contracts/token/ERC20/ERC20.sol\":1690:1697  _symbol */\n  0x04\n    /* \"@openzeppelin/contracts/token/ERC20/ERC20.sol\":1690:1707  _symbol = symbol_ */\n  tag_10\n    /* \"@openzeppelin/contracts/token/ERC20/ERC20.sol\":1700:1707  symbol_ */\n  dup3\n    /* \"@openzeppelin/contracts/token/ERC20/ERC20.sol\":1690:1697  _symbol */\n  dup3\n    /* \"@openzeppelin/contracts/token/ERC20/ERC20.sol\":1690:1707  _symbol = symbol_ */\n  tag_9\n  jump\t// in\ntag_10:\n  pop\n  pop\n  pop\n  sub(shl(0xa0, 0x01), 0x01)\n    /* \"@openzeppelin/contracts/access/Ownable.sol\":1273:1299  initialOwner == address(0) */\n  dup2\n  and\n    /* \"@openzeppelin/contracts/access/Ownable.sol\":1269:1364  if (initialOwner == address(0)) {... */\n  tag_12\n  jumpi\n    /* \"@openzeppelin/contracts/access/Ownable.sol\":1322:1353  OwnableInvalidOwner(address(0)) */\n  mload(0x40)\n  shl(0xe0, 0x1e4fbdf7)\n  dup2\n  mstore\n    /* \"@openzeppelin/contracts/access/Ownable.sol\":1350:1351  0 */\n  0x00\n    /* \"@openzeppelin/contracts/access/Ownable.sol\":1322:1353  OwnableInvalidOwner(address(0)) */\n  0x04\n  dup3\n  add\n    /* \"#utility.yul\":3664:3715   */\n  mstore\n    /* \"#utility.yul\":3637:3655   */\n  0x24\n  add\n    /* \"@openzeppelin/contracts/access/Ownable.sol\":1322:1353  OwnableInvalidOwner(address(0)) */\ntag_13:\n  mload(0x40)\n  dup1\n  swap2\n  sub\n  swap1\n  revert\n    /* \"@openzeppelin/contracts/access/Ownable.sol\":1269:1364  if (initialOwner == address(0)) {... */\ntag_12:\n    /* \"@openzeppelin/contracts/access/Ownable.sol\":1373:1405  _transferOwnership(initialOwner) */\n  tag_15\n    /* \"@openzeppelin/contracts/access/Ownable.sol\":1392:1404  initialOwner */\n  dup2\n    /* \"@openzeppelin/contracts/access/Ownable.sol\":1373:1391  _transferOwnership */\n  tag_16\n    /* \"@openzeppelin/contracts/access/Ownable.sol\":1373:1405  _transferOwnership(initialOwner) */\n  jump\t// in\ntag_15:\n  pop\n    /* \"contracts/SimpleToken.sol\":1620:1672  _mint(address(this), totalSupply * 10 ** decimals()) */\n  tag_18\n    /* \"contracts/SimpleToken.sol\":1634:1638  this */\n  address\n    /* \"contracts/SimpleToken.sol\":1655:1671  10 ** decimals() */\n  tag_21\n    /* \"@openzeppelin/contracts/token/ERC20/ERC20.sol\":2780:2782  18 */\n  0x12\n    /* \"contracts/SimpleToken.sol\":1655:1657  10 */\n  0x0a\n    /* \"contracts/SimpleToken.sol\":1655:1671  10 ** decimals() */\n  tag_22\n  jump\t// in\ntag_21:\n    /* \"contracts/SimpleToken.sol\":1641:1671  totalSupply * 10 ** decimals() */\n  tag_23\n  swap1\n    /* \"contracts/SimpleToken.sol\":1641:1652  totalSupply */\n  dup9\n    /* \"contracts/SimpleToken.sol\":1641:1671  totalSupply * 10 ** decimals() */\n  tag_24\n  jump\t// in\ntag_23:\n    /* \"contracts/SimpleToken.sol\":1620:1625  _mint */\n  tag_25\n    /* \"contracts/SimpleToken.sol\":1620:1672  _mint(address(this), totalSupply * 10 ** decimals()) */\n  jump\t// in\ntag_18:\n    /* \"contracts/SimpleToken.sol\":1683:1695  initialPrice */\n  0x08\n    /* \"contracts/SimpleToken.sol\":1683:1711  initialPrice = _initialPrice */\n  swap4\n  swap1\n  swap4\n  sstore\n    /* \"contracts/SimpleToken.sol\":1722:1740  weeklyIncreaseRate */\n  0x0a\n    /* \"contracts/SimpleToken.sol\":1722:1762  weeklyIncreaseRate = _weeklyIncreaseRate */\n  swap2\n  swap1\n  swap2\n  sstore\n    /* \"contracts/SimpleToken.sol\":1773:1789  regularSalePrice */\n  0x09\n    /* \"contracts/SimpleToken.sol\":1773:1809  regularSalePrice = _regularSalePrice */\n  sstore\n    /* \"contracts/SimpleToken.sol\":1820:1837  stakingRewardRate */\n  0x0d\n    /* \"contracts/SimpleToken.sol\":1820:1858  stakingRewardRate = _stakingRewardRate */\n  sstore\n  pop\n  pop\n    /* \"contracts/SimpleToken.sol\":1869:1884  presaleIsActive */\n  0x05\n    /* \"contracts/SimpleToken.sol\":1869:1892  presaleIsActive = false */\n  dup1\n  sload\n  not(shl(0xa0, 0xff))\n  and\n  swap1\n  sstore\n    /* \"contracts/SimpleToken.sol\":174:6582  contract TokenPreSale is ERC20, Ownable {... */\n  jump(tag_54)\n    /* \"@openzeppelin/contracts/access/Ownable.sol\":2912:3099  function _transferOwnership(address newOwner) internal virtual {... */\ntag_16:\n    /* \"@openzeppelin/contracts/access/Ownable.sol\":3004:3010  _owner */\n  0x05\n  dup1\n  sload\n  sub(shl(0xa0, 0x01), 0x01)\n    /* \"@openzeppelin/contracts/access/Ownable.sol\":3020:3037  _owner = newOwner */\n  dup4\n  dup2\n  and\n  not(sub(shl(0xa0, 0x01), 0x01))\n  dup4\n  and\n  dup2\n  or\n  swap1\n  swap4\n  sstore\n    /* \"@openzeppelin/contracts/access/Ownable.sol\":3052:3092  OwnershipTransferred(oldOwner, newOwner) */\n  mload(0x40)\n    /* \"@openzeppelin/contracts/access/Ownable.sol\":3004:3010  _owner */\n  swap2\n  and\n  swap2\n    /* \"@openzeppelin/contracts/access/Ownable.sol\":3020:3037  _owner = newOwner */\n  swap1\n    /* \"@openzeppelin/contracts/access/Ownable.sol\":3004:3010  _owner */\n  dup3\n  swap1\n    /* \"@openzeppelin/contracts/access/Ownable.sol\":3052:3092  OwnershipTransferred(oldOwner, newOwner) */\n  0x8be0079c531659141344cd1fd0a4f28419497f9722a3daafe3b4186f6b6457e0\n  swap1\n    /* \"@openzeppelin/contracts/access/Ownable.sol\":2985:3001  address oldOwner */\n  0x00\n  swap1\n    /* \"@openzeppelin/contracts/access/Ownable.sol\":3052:3092  OwnershipTransferred(oldOwner, newOwner) */\n  log3\n    /* \"@openzeppelin/contracts/access/Ownable.sol\":2975:3099  {... */\n  pop\n    /* \"@openzeppelin/contracts/access/Ownable.sol\":2912:3099  function _transferOwnership(address newOwner) internal virtual {... */\n  pop\n  jump\t// out\n    /* \"@openzeppelin/contracts/token/ERC20/ERC20.sol\":7458:7666  function _mint(address account, uint256 value) internal {... */\ntag_25:\n  sub(shl(0xa0, 0x01), 0x01)\n    /* \"@openzeppelin/contracts/token/ERC20/ERC20.sol\":7528:7549  account == address(0) */\n  dup3\n  and\n    /* \"@openzeppelin/contracts/token/ERC20/ERC20.sol\":7524:7615  if (account == address(0)) {... */\n  tag_30\n  jumpi\n    /* \"@openzeppelin/contracts/token/ERC20/ERC20.sol\":7572:7604  ERC20InvalidReceiver(address(0)) */\n  mload(0x40)\n  shl(0xe0, 0xec442f05)\n  dup2\n  mstore\n    /* \"@openzeppelin/contracts/token/ERC20/ERC20.sol\":7601:7602  0 */\n  0x00\n    /* \"@openzeppelin/contracts/token/ERC20/ERC20.sol\":7572:7604  ERC20InvalidReceiver(address(0)) */\n  0x04\n  dup3\n  add\n    /* \"#utility.yul\":3664:3715   */\n  mstore\n    /* \"#utility.yul\":3637:3655   */\n  0x24\n  add\n    /* \"@openzeppelin/contracts/token/ERC20/ERC20.sol\":7572:7604  ERC20InvalidReceiver(address(0)) */\n  tag_13\n    /* \"#utility.yul\":3518:3721   */\n  jump\n    /* \"@openzeppelin/contracts/token/ERC20/ERC20.sol\":7524:7615  if (account == address(0)) {... */\ntag_30:\n    /* \"@openzeppelin/contracts/token/ERC20/ERC20.sol\":7624:7659  _update(address(0), account, value) */\n  tag_32\n    /* \"@openzeppelin/contracts/token/ERC20/ERC20.sol\":7640:7641  0 */\n  0x00\n    /* \"@openzeppelin/contracts/token/ERC20/ERC20.sol\":7644:7651  account */\n  dup4\n    /* \"@openzeppelin/contracts/token/ERC20/ERC20.sol\":7653:7658  value */\n  dup4\n    /* \"@openzeppelin/contracts/token/ERC20/ERC20.sol\":7624:7631  _update */\n  tag_33\n    /* \"@openzeppelin/contracts/token/ERC20/ERC20.sol\":7624:7659  _update(address(0), account, value) */\n  jump\t// in\ntag_32:\n    /* \"@openzeppelin/contracts/token/ERC20/ERC20.sol\":7458:7666  function _mint(address account, uint256 value) internal {... */\n  pop\n  pop\n  jump\t// out\n    /* \"@openzeppelin/contracts/token/ERC20/ERC20.sol\":6008:7115  function _update(address from, address to, uint256 value) internal virtual {... */\ntag_33:\n  sub(shl(0xa0, 0x01), 0x01)\n    /* \"@openzeppelin/contracts/token/ERC20/ERC20.sol\":6097:6115  from == address(0) */\n  dup4\n  and\n    /* \"@openzeppelin/contracts/token/ERC20/ERC20.sol\":6093:6633  if (from == address(0)) {... */\n  tag_35\n  jumpi\n    /* \"@openzeppelin/contracts/token/ERC20/ERC20.sol\":6249:6254  value */\n  dup1\n    /* \"@openzeppelin/contracts/token/ERC20/ERC20.sol\":6233:6245  _totalSupply */\n  0x02\n  0x00\n    /* \"@openzeppelin/contracts/token/ERC20/ERC20.sol\":6233:6254  _totalSupply += value */\n  dup3\n  dup3\n  sload\n  tag_36\n  swap2\n  swap1\n  tag_37\n  jump\t// in\ntag_36:\n  swap1\n  swap2\n  sstore\n  pop\n    /* \"@openzeppelin/contracts/token/ERC20/ERC20.sol\":6093:6633  if (from == address(0)) {... */\n  tag_38\n  swap1\n  pop\n  jump\ntag_35:\n  sub(shl(0xa0, 0x01), 0x01)\n    /* \"@openzeppelin/contracts/token/ERC20/ERC20.sol\":6307:6322  _balances[from] */\n  dup4\n  and\n    /* \"@openzeppelin/contracts/token/ERC20/ERC20.sol\":6285:6304  uint256 fromBalance */\n  0x00\n    /* \"@openzeppelin/contracts/token/ERC20/ERC20.sol\":6307:6322  _balances[from] */\n  swap1\n  dup2\n  mstore\n  0x20\n  dup2\n  swap1\n  mstore\n  0x40\n  swap1\n  keccak256\n  sload\n    /* \"@openzeppelin/contracts/token/ERC20/ERC20.sol\":6340:6359  fromBalance < value */\n  dup2\n  dup2\n  lt\n    /* \"@openzeppelin/contracts/token/ERC20/ERC20.sol\":6336:6451  if (fromBalance < value) {... */\n  iszero\n  tag_39\n  jumpi\n    /* \"@openzeppelin/contracts/token/ERC20/ERC20.sol\":6386:6436  ERC20InsufficientBalance(from, fromBalance, value) */\n  mload(0x40)\n  shl(0xe2, 0x391434e3)\n  dup2\n  mstore\n  sub(shl(0xa0, 0x01), 0x01)\n    /* \"#utility.yul\":5813:5845   */\n  dup6\n  and\n    /* \"@openzeppelin/contracts/token/ERC20/ERC20.sol\":6386:6436  ERC20InsufficientBalance(from, fromBalance, value) */\n  0x04\n  dup3\n  add\n    /* \"#utility.yul\":5795:5846   */\n  mstore\n    /* \"#utility.yul\":5862:5880   */\n  0x24\n  dup2\n  add\n    /* \"#utility.yul\":5855:5889   */\n  dup3\n  swap1\n  mstore\n    /* \"#utility.yul\":5905:5923   */\n  0x44\n  dup2\n  add\n    /* \"#utility.yul\":5898:5932   */\n  dup4\n  swap1\n  mstore\n    /* \"#utility.yul\":5768:5786   */\n  0x64\n  add\n    /* \"@openzeppelin/contracts/token/ERC20/ERC20.sol\":6386:6436  ERC20InsufficientBalance(from, fromBalance, value) */\n  tag_13\n    /* \"#utility.yul\":5593:5938   */\n  jump\n    /* \"@openzeppelin/contracts/token/ERC20/ERC20.sol\":6336:6451  if (fromBalance < value) {... */\ntag_39:\n  sub(shl(0xa0, 0x01), 0x01)\n    /* \"@openzeppelin/contracts/token/ERC20/ERC20.sol\":6571:6586  _balances[from] */\n  dup5\n  and\n    /* \"@openzeppelin/contracts/token/ERC20/ERC20.sol\":6571:6580  _balances */\n  0x00\n    /* \"@openzeppelin/contracts/token/ERC20/ERC20.sol\":6571:6586  _balances[from] */\n  swap1\n  dup2\n  mstore\n  0x20\n  dup2\n  swap1\n  mstore\n  0x40\n  swap1\n  keccak256\n    /* \"@openzeppelin/contracts/token/ERC20/ERC20.sol\":6589:6608  fromBalance - value */\n  swap1\n  dup3\n  swap1\n  sub\n    /* \"@openzeppelin/contracts/token/ERC20/ERC20.sol\":6571:6608  _balances[from] = fromBalance - value */\n  swap1\n  sstore\n    /* \"@openzeppelin/contracts/token/ERC20/ERC20.sol\":6093:6633  if (from == address(0)) {... */\ntag_38:\n  sub(shl(0xa0, 0x01), 0x01)\n    /* \"@openzeppelin/contracts/token/ERC20/ERC20.sol\":6647:6663  to == address(0) */\n  dup3\n  and\n    /* \"@openzeppelin/contracts/token/ERC20/ERC20.sol\":6643:7068  if (to == address(0)) {... */\n  tag_42\n  jumpi\n    /* \"@openzeppelin/contracts/token/ERC20/ERC20.sol\":6810:6822  _totalSupply */\n  0x02\n    /* \"@openzeppelin/contracts/token/ERC20/ERC20.sol\":6810:6831  _totalSupply -= value */\n  dup1\n  sload\n  dup3\n  swap1\n  sub\n  swap1\n  sstore\n    /* \"@openzeppelin/contracts/token/ERC20/ERC20.sol\":6643:7068  if (to == address(0)) {... */\n  jump(tag_43)\ntag_42:\n  sub(shl(0xa0, 0x01), 0x01)\n    /* \"@openzeppelin/contracts/token/ERC20/ERC20.sol\":7021:7034  _balances[to] */\n  dup3\n  and\n    /* \"@openzeppelin/contracts/token/ERC20/ERC20.sol\":7021:7030  _balances */\n  0x00\n    /* \"@openzeppelin/contracts/token/ERC20/ERC20.sol\":7021:7034  _balances[to] */\n  swap1\n  dup2\n  mstore\n  0x20\n  dup2\n  swap1\n  mstore\n  0x40\n  swap1\n  keccak256\n    /* \"@openzeppelin/contracts/token/ERC20/ERC20.sol\":7021:7043  _balances[to] += value */\n  dup1\n  sload\n  dup3\n  add\n  swap1\n  sstore\n    /* \"@openzeppelin/contracts/token/ERC20/ERC20.sol\":6643:7068  if (to == address(0)) {... */\ntag_43:\n    /* \"@openzeppelin/contracts/token/ERC20/ERC20.sol\":7098:7100  to */\n  dup2\n  sub(shl(0xa0, 0x01), 0x01)\n    /* \"@openzeppelin/contracts/token/ERC20/ERC20.sol\":7083:7108  Transfer(from, to, value) */\n  and\n    /* \"@openzeppelin/contracts/token/ERC20/ERC20.sol\":7092:7096  from */\n  dup4\n  sub(shl(0xa0, 0x01), 0x01)\n    /* \"@openzeppelin/contracts/token/ERC20/ERC20.sol\":7083:7108  Transfer(from, to, value) */\n  and\n  0xddf252ad1be2c89b69c2b068fc378daa952ba7f163c4a11628f55a4df523b3ef\n    /* \"@openzeppelin/contracts/token/ERC20/ERC20.sol\":7102:7107  value */\n  dup4\n    /* \"@openzeppelin/contracts/token/ERC20/ERC20.sol\":7083:7108  Transfer(from, to, value) */\n  mload(0x40)\n  tag_44\n  swap2\n    /* \"#utility.yul\":6089:6114   */\n  dup2\n  mstore\n    /* \"#utility.yul\":6077:6079   */\n  0x20\n    /* \"#utility.yul\":6062:6080   */\n  add\n  swap1\n    /* \"#utility.yul\":5943:6120   */\n  jump\n    /* \"@openzeppelin/contracts/token/ERC20/ERC20.sol\":7083:7108  Transfer(from, to, value) */\ntag_44:\n  mload(0x40)\n  dup1\n  swap2\n  sub\n  swap1\n  log3\n    /* \"@openzeppelin/contracts/token/ERC20/ERC20.sol\":6008:7115  function _update(address from, address to, uint256 value) internal virtual {... */\n  pop\n  pop\n  pop\n  jump\t// out\n    /* \"#utility.yul\":14:872   */\ntag_3:\n    /* \"#utility.yul\":129:135   */\n  0x00\n    /* \"#utility.yul\":137:143   */\n  dup1\n    /* \"#utility.yul\":145:151   */\n  0x00\n    /* \"#utility.yul\":153:159   */\n  dup1\n    /* \"#utility.yul\":161:167   */\n  0x00\n    /* \"#utility.yul\":169:175   */\n  dup1\n    /* \"#utility.yul\":222:225   */\n  0xc0\n    /* \"#utility.yul\":210:219   */\n  dup8\n    /* \"#utility.yul\":201:208   */\n  dup10\n    /* \"#utility.yul\":197:220   */\n  sub\n    /* \"#utility.yul\":193:226   */\n  slt\n    /* \"#utility.yul\":190:243   */\n  iszero\n  tag_56\n  jumpi\n    /* \"#utility.yul\":239:240   */\n  0x00\n    /* \"#utility.yul\":236:237   */\n  dup1\n    /* \"#utility.yul\":229:241   */\n  revert\n    /* \"#utility.yul\":190:243   */\ntag_56:\n    /* \"#utility.yul\":265:281   */\n  dup7\n  mload\n  sub(shl(0xa0, 0x01), 0x01)\n    /* \"#utility.yul\":310:341   */\n  dup2\n  and\n    /* \"#utility.yul\":300:342   */\n  dup2\n  eq\n    /* \"#utility.yul\":290:360   */\n  tag_57\n  jumpi\n    /* \"#utility.yul\":356:357   */\n  0x00\n    /* \"#utility.yul\":353:354   */\n  dup1\n    /* \"#utility.yul\":346:358   */\n  revert\n    /* \"#utility.yul\":290:360   */\ntag_57:\n    /* \"#utility.yul\":450:452   */\n  0x20\n    /* \"#utility.yul\":435:453   */\n  dup9\n  add\n    /* \"#utility.yul\":429:454   */\n  mload\n    /* \"#utility.yul\":546:548   */\n  0x40\n    /* \"#utility.yul\":531:549   */\n  dup10\n  add\n    /* \"#utility.yul\":525:550   */\n  mload\n    /* \"#utility.yul\":642:644   */\n  0x60\n    /* \"#utility.yul\":627:645   */\n  dup11\n  add\n    /* \"#utility.yul\":621:646   */\n  mload\n    /* \"#utility.yul\":738:741   */\n  0x80\n    /* \"#utility.yul\":723:742   */\n  dup12\n  add\n    /* \"#utility.yul\":717:743   */\n  mload\n    /* \"#utility.yul\":835:838   */\n  0xa0\n    /* \"#utility.yul\":820:839   */\n  swap1\n  swap12\n  add\n    /* \"#utility.yul\":814:840   */\n  mload\n    /* \"#utility.yul\":379:384   */\n  swap4\n  swap13\n    /* \"#utility.yul\":429:454   */\n  swap3\n  swap12\n  pop\n    /* \"#utility.yul\":525:550   */\n  swap1\n  swap10\n    /* \"#utility.yul\":621:646   */\n  swap1\n  swap9\n  pop\n    /* \"#utility.yul\":717:743   */\n  swap7\n  pop\n    /* \"#utility.yul\":814:840   */\n  swap1\n  swap5\n  pop\n    /* \"#utility.yul\":14:872   */\n  swap3\n  pop\n  pop\n  pop\n  jump\t// out\n    /* \"#utility.yul\":877:1004   */\ntag_46:\n    /* \"#utility.yul\":938:948   */\n  0x4e487b71\n    /* \"#utility.yul\":933:936   */\n  0xe0\n    /* \"#utility.yul\":929:949   */\n  shl\n    /* \"#utility.yul\":926:927   */\n  0x00\n    /* \"#utility.yul\":919:950   */\n  mstore\n    /* \"#utility.yul\":969:973   */\n  0x41\n    /* \"#utility.yul\":966:967   */\n  0x04\n    /* \"#utility.yul\":959:974   */\n  mstore\n    /* \"#utility.yul\":993:997   */\n  0x24\n    /* \"#utility.yul\":990:991   */\n  0x00\n    /* \"#utility.yul\":983:998   */\n  revert\n    /* \"#utility.yul\":1009:1389   */\ntag_47:\n    /* \"#utility.yul\":1088:1089   */\n  0x01\n    /* \"#utility.yul\":1084:1096   */\n  dup2\n  dup2\n  shr\n  swap1\n    /* \"#utility.yul\":1131:1143   */\n  dup3\n  and\n  dup1\n    /* \"#utility.yul\":1152:1213   */\n  tag_60\n  jumpi\n    /* \"#utility.yul\":1206:1210   */\n  0x7f\n    /* \"#utility.yul\":1198:1204   */\n  dup3\n    /* \"#utility.yul\":1194:1211   */\n  and\n    /* \"#utility.yul\":1184:1211   */\n  swap2\n  pop\n    /* \"#utility.yul\":1152:1213   */\ntag_60:\n    /* \"#utility.yul\":1259:1261   */\n  0x20\n    /* \"#utility.yul\":1251:1257   */\n  dup3\n    /* \"#utility.yul\":1248:1262   */\n  lt\n    /* \"#utility.yul\":1228:1246   */\n  dup2\n    /* \"#utility.yul\":1225:1263   */\n  sub\n    /* \"#utility.yul\":1222:1383   */\n  tag_61\n  jumpi\n    /* \"#utility.yul\":1305:1315   */\n  0x4e487b71\n    /* \"#utility.yul\":1300:1303   */\n  0xe0\n    /* \"#utility.yul\":1296:1316   */\n  shl\n    /* \"#utility.yul\":1293:1294   */\n  0x00\n    /* \"#utility.yul\":1286:1317   */\n  mstore\n    /* \"#utility.yul\":1340:1344   */\n  0x22\n    /* \"#utility.yul\":1337:1338   */\n  0x04\n    /* \"#utility.yul\":1330:1345   */\n  mstore\n    /* \"#utility.yul\":1368:1372   */\n  0x24\n    /* \"#utility.yul\":1365:1366   */\n  0x00\n    /* \"#utility.yul\":1358:1373   */\n  revert\n    /* \"#utility.yul\":1222:1383   */\ntag_61:\n  pop\n    /* \"#utility.yul\":1009:1389   */\n  swap2\n  swap1\n  pop\n  jump\t// out\n    /* \"#utility.yul\":1520:2038   */\ntag_49:\n    /* \"#utility.yul\":1622:1624   */\n  0x1f\n    /* \"#utility.yul\":1617:1620   */\n  dup3\n    /* \"#utility.yul\":1614:1625   */\n  gt\n    /* \"#utility.yul\":1611:2032   */\n  iszero\n  tag_64\n  jumpi\n    /* \"#utility.yul\":1658:1663   */\n  dup1\n    /* \"#utility.yul\":1655:1656   */\n  0x00\n    /* \"#utility.yul\":1648:1664   */\n  mstore\n    /* \"#utility.yul\":1702:1706   */\n  0x20\n    /* \"#utility.yul\":1699:1700   */\n  0x00\n    /* \"#utility.yul\":1689:1707   */\n  keccak256\n    /* \"#utility.yul\":1772:1774   */\n  0x1f\n    /* \"#utility.yul\":1760:1770   */\n  dup5\n    /* \"#utility.yul\":1756:1775   */\n  add\n    /* \"#utility.yul\":1753:1754   */\n  0x05\n    /* \"#utility.yul\":1749:1776   */\n  shr\n    /* \"#utility.yul\":1743:1747   */\n  dup2\n    /* \"#utility.yul\":1739:1777   */\n  add\n    /* \"#utility.yul\":1808:1812   */\n  0x20\n    /* \"#utility.yul\":1796:1806   */\n  dup6\n    /* \"#utility.yul\":1793:1813   */\n  lt\n    /* \"#utility.yul\":1790:1837   */\n  iszero\n  tag_65\n  jumpi\n  pop\n    /* \"#utility.yul\":1831:1835   */\n  dup1\n    /* \"#utility.yul\":1790:1837   */\ntag_65:\n    /* \"#utility.yul\":1886:1888   */\n  0x1f\n    /* \"#utility.yul\":1881:1884   */\n  dup5\n    /* \"#utility.yul\":1877:1889   */\n  add\n    /* \"#utility.yul\":1874:1875   */\n  0x05\n    /* \"#utility.yul\":1870:1890   */\n  shr\n    /* \"#utility.yul\":1864:1868   */\n  dup3\n    /* \"#utility.yul\":1860:1891   */\n  add\n    /* \"#utility.yul\":1850:1891   */\n  swap2\n  pop\n    /* \"#utility.yul\":1941:2022   */\ntag_66:\n    /* \"#utility.yul\":1959:1961   */\n  dup2\n    /* \"#utility.yul\":1952:1957   */\n  dup2\n    /* \"#utility.yul\":1949:1962   */\n  lt\n    /* \"#utility.yul\":1941:2022   */\n  iszero\n  tag_68\n  jumpi\n    /* \"#utility.yul\":2018:2019   */\n  0x00\n    /* \"#utility.yul\":2004:2020   */\n  dup2\n  sstore\n    /* \"#utility.yul\":1985:1986   */\n  0x01\n    /* \"#utility.yul\":1974:1987   */\n  add\n    /* \"#utility.yul\":1941:2022   */\n  jump(tag_66)\ntag_68:\n    /* \"#utility.yul\":1945:1948   */\n  pop\n  pop\n    /* \"#utility.yul\":1611:2032   */\ntag_64:\n    /* \"#utility.yul\":1520:2038   */\n  pop\n  pop\n  pop\n  jump\t// out\n    /* \"#utility.yul\":2214:3513   */\ntag_9:\n    /* \"#utility.yul\":2334:2344   */\n  dup2\n  mload\n  sub(shl(0x40, 0x01), 0x01)\n    /* \"#utility.yul\":2356:2386   */\n  dup2\n  gt\n    /* \"#utility.yul\":2353:2409   */\n  iszero\n  tag_72\n  jumpi\n    /* \"#utility.yul\":2389:2407   */\n  tag_72\n  tag_46\n  jump\t// in\ntag_72:\n    /* \"#utility.yul\":2418:2515   */\n  tag_73\n    /* \"#utility.yul\":2508:2514   */\n  dup2\n    /* \"#utility.yul\":2468:2506   */\n  tag_74\n    /* \"#utility.yul\":2500:2504   */\n  dup5\n    /* \"#utility.yul\":2494:2505   */\n  sload\n    /* \"#utility.yul\":2468:2506   */\n  tag_47\n  jump\t// in\ntag_74:\n    /* \"#utility.yul\":2462:2466   */\n  dup5\n    /* \"#utility.yul\":2418:2515   */\n  tag_49\n  jump\t// in\ntag_73:\n    /* \"#utility.yul\":2564:2568   */\n  0x20\n    /* \"#utility.yul\":2595:2597   */\n  0x1f\n    /* \"#utility.yul\":2584:2598   */\n  dup3\n  gt\n    /* \"#utility.yul\":2612:2613   */\n  0x01\n    /* \"#utility.yul\":2607:3256   */\n  dup2\n  eq\n  tag_76\n  jumpi\n    /* \"#utility.yul\":3300:3301   */\n  0x00\n    /* \"#utility.yul\":3317:3323   */\n  dup4\n    /* \"#utility.yul\":3314:3403   */\n  iszero\n  tag_77\n  jumpi\n  pop\n    /* \"#utility.yul\":3369:3388   */\n  dup5\n  dup3\n  add\n    /* \"#utility.yul\":3363:3389   */\n  mload\n    /* \"#utility.yul\":3314:3403   */\ntag_77:\n  not(0x00)\n    /* \"#utility.yul\":2171:2172   */\n  0x03\n    /* \"#utility.yul\":2167:2178   */\n  dup6\n  swap1\n  shl\n    /* \"#utility.yul\":2163:2187   */\n  shr\n    /* \"#utility.yul\":2159:2188   */\n  not\n    /* \"#utility.yul\":2149:2189   */\n  and\n    /* \"#utility.yul\":2195:2196   */\n  0x01\n    /* \"#utility.yul\":2191:2202   */\n  dup5\n  swap1\n  shl\n    /* \"#utility.yul\":2146:2203   */\n  or\n    /* \"#utility.yul\":3416:3497   */\n  dup5\n  sstore\n    /* \"#utility.yul\":2577:3507   */\n  jump(tag_68)\n    /* \"#utility.yul\":2607:3256   */\ntag_76:\n    /* \"#utility.yul\":1467:1468   */\n  0x00\n    /* \"#utility.yul\":1460:1474   */\n  dup5\n  dup2\n  mstore\n    /* \"#utility.yul\":1504:1508   */\n  0x20\n    /* \"#utility.yul\":1491:1509   */\n  dup2\n  keccak256\n  not(0x1f)\n    /* \"#utility.yul\":2643:2663   */\n  dup6\n  and\n  swap2\n    /* \"#utility.yul\":2761:2983   */\ntag_80:\n    /* \"#utility.yul\":2775:2782   */\n  dup3\n    /* \"#utility.yul\":2772:2773   */\n  dup2\n    /* \"#utility.yul\":2769:2783   */\n  lt\n    /* \"#utility.yul\":2761:2983   */\n  iszero\n  tag_82\n  jumpi\n    /* \"#utility.yul\":2857:2876   */\n  dup8\n  dup6\n  add\n    /* \"#utility.yul\":2851:2877   */\n  mload\n    /* \"#utility.yul\":2836:2878   */\n  dup3\n  sstore\n    /* \"#utility.yul\":2964:2968   */\n  0x20\n    /* \"#utility.yul\":2949:2969   */\n  swap5\n  dup6\n  add\n  swap5\n    /* \"#utility.yul\":2917:2918   */\n  0x01\n    /* \"#utility.yul\":2905:2919   */\n  swap1\n  swap3\n  add\n  swap2\n    /* \"#utility.yul\":2791:2803   */\n  add\n    /* \"#utility.yul\":2761:2983   */\n  jump(tag_80)\ntag_82:\n    /* \"#utility.yul\":2765:2768   */\n  pop\n    /* \"#utility.yul\":3011:3017   */\n  dup5\n    /* \"#utility.yul\":3002:3009   */\n  dup3\n    /* \"#utility.yul\":2999:3018   */\n  lt\n    /* \"#utility.yul\":2996:3197   */\n  iszero\n  tag_83\n  jumpi\n    /* \"#utility.yul\":3072:3091   */\n  dup7\n  dup5\n  add\n    /* \"#utility.yul\":3066:3092   */\n  mload\n  not(0x00)\n    /* \"#utility.yul\":3155:3156   */\n  0x03\n    /* \"#utility.yul\":3151:3165   */\n  dup8\n  swap1\n  shl\n    /* \"#utility.yul\":3167:3170   */\n  0xf8\n    /* \"#utility.yul\":3147:3171   */\n  and\n    /* \"#utility.yul\":3143:3180   */\n  shr\n    /* \"#utility.yul\":3139:3181   */\n  not\n    /* \"#utility.yul\":3124:3182   */\n  and\n    /* \"#utility.yul\":3109:3183   */\n  dup2\n  sstore\n    /* \"#utility.yul\":2996:3197   */\ntag_83:\n  pop\n  pop\n  pop\n  pop\n    /* \"#utility.yul\":3243:3244   */\n  0x01\n    /* \"#utility.yul\":3227:3241   */\n  swap1\n  dup2\n  shl\n    /* \"#utility.yul\":3223:3245   */\n  add\n    /* \"#utility.yul\":3210:3246   */\n  swap1\n  sstore\n  pop\n    /* \"#utility.yul\":2214:3513   */\n  jump\t// out\n    /* \"#utility.yul\":3726:3853   */\ntag_51:\n    /* \"#utility.yul\":3787:3797   */\n  0x4e487b71\n    /* \"#utility.yul\":3782:3785   */\n  0xe0\n    /* \"#utility.yul\":3778:3798   */\n  shl\n    /* \"#utility.yul\":3775:3776   */\n  0x00\n    /* \"#utility.yul\":3768:3799   */\n  mstore\n    /* \"#utility.yul\":3818:3822   */\n  0x11\n    /* \"#utility.yul\":3815:3816   */\n  0x04\n    /* \"#utility.yul\":3808:3823   */\n  mstore\n    /* \"#utility.yul\":3842:3846   */\n  0x24\n    /* \"#utility.yul\":3839:3840   */\n  0x00\n    /* \"#utility.yul\":3832:3847   */\n  revert\n    /* \"#utility.yul\":3858:4233   */\ntag_52:\n    /* \"#utility.yul\":3946:3947   */\n  0x01\n    /* \"#utility.yul\":3964:3969   */\n  dup2\n    /* \"#utility.yul\":3978:4227   */\ntag_87:\n    /* \"#utility.yul\":3999:4000   */\n  0x01\n    /* \"#utility.yul\":3989:3997   */\n  dup5\n    /* \"#utility.yul\":3986:4001   */\n  gt\n    /* \"#utility.yul\":3978:4227   */\n  iszero\n  tag_89\n  jumpi\n    /* \"#utility.yul\":4049:4053   */\n  dup1\n    /* \"#utility.yul\":4044:4047   */\n  dup6\n    /* \"#utility.yul\":4040:4054   */\n  div\n    /* \"#utility.yul\":4034:4038   */\n  dup2\n    /* \"#utility.yul\":4031:4055   */\n  gt\n    /* \"#utility.yul\":4028:4078   */\n  iszero\n  tag_91\n  jumpi\n    /* \"#utility.yul\":4058:4076   */\n  tag_91\n  tag_51\n  jump\t// in\ntag_91:\n    /* \"#utility.yul\":4108:4109   */\n  0x01\n    /* \"#utility.yul\":4098:4106   */\n  dup5\n    /* \"#utility.yul\":4094:4110   */\n  and\n    /* \"#utility.yul\":4091:4140   */\n  iszero\n  tag_92\n  jumpi\n    /* \"#utility.yul\":4122:4138   */\n  swap1\n  dup2\n  mul\n  swap1\n    /* \"#utility.yul\":4091:4140   */\ntag_92:\n    /* \"#utility.yul\":4205:4206   */\n  0x01\n    /* \"#utility.yul\":4201:4217   */\n  swap4\n  swap1\n  swap4\n  shr\n  swap3\n    /* \"#utility.yul\":4161:4176   */\n  dup1\n  mul\n    /* \"#utility.yul\":3978:4227   */\n  jump(tag_87)\ntag_89:\n    /* \"#utility.yul\":3858:4233   */\n  swap4\n  pop\n  swap4\n  swap2\n  pop\n  pop\n  jump\t// out\n    /* \"#utility.yul\":4238:5140   */\ntag_53:\n    /* \"#utility.yul\":4287:4292   */\n  0x00\n    /* \"#utility.yul\":4317:4325   */\n  dup3\n    /* \"#utility.yul\":4307:4387   */\n  tag_94\n  jumpi\n  pop\n    /* \"#utility.yul\":4358:4359   */\n  0x01\n    /* \"#utility.yul\":4372:4377   */\n  jump(tag_93)\n    /* \"#utility.yul\":4307:4387   */\ntag_94:\n    /* \"#utility.yul\":4406:4410   */\n  dup2\n    /* \"#utility.yul\":4396:4472   */\n  tag_95\n  jumpi\n  pop\n    /* \"#utility.yul\":4443:4444   */\n  0x00\n    /* \"#utility.yul\":4457:4462   */\n  jump(tag_93)\n    /* \"#utility.yul\":4396:4472   */\ntag_95:\n    /* \"#utility.yul\":4488:4492   */\n  dup2\n    /* \"#utility.yul\":4506:4507   */\n  0x01\n    /* \"#utility.yul\":4501:4560   */\n  dup2\n  eq\n  tag_97\n  jumpi\n    /* \"#utility.yul\":4574:4575   */\n  0x02\n    /* \"#utility.yul\":4569:4743   */\n  dup2\n  eq\n  tag_98\n  jumpi\n    /* \"#utility.yul\":4481:4743   */\n  jump(tag_96)\n    /* \"#utility.yul\":4501:4560   */\ntag_97:\n    /* \"#utility.yul\":4531:4532   */\n  0x01\n    /* \"#utility.yul\":4522:4532   */\n  swap2\n  pop\n    /* \"#utility.yul\":4545:4550   */\n  pop\n  jump(tag_93)\n    /* \"#utility.yul\":4569:4743   */\ntag_98:\n    /* \"#utility.yul\":4606:4609   */\n  0xff\n    /* \"#utility.yul\":4596:4604   */\n  dup5\n    /* \"#utility.yul\":4593:4610   */\n  gt\n    /* \"#utility.yul\":4590:4633   */\n  iszero\n  tag_100\n  jumpi\n    /* \"#utility.yul\":4613:4631   */\n  tag_100\n  tag_51\n  jump\t// in\ntag_100:\n  pop\n  pop\n    /* \"#utility.yul\":4669:4670   */\n  0x01\n    /* \"#utility.yul\":4655:4671   */\n  dup3\n  shl\n    /* \"#utility.yul\":4728:4733   */\n  jump(tag_93)\n    /* \"#utility.yul\":4481:4743   */\ntag_96:\n  pop\n    /* \"#utility.yul\":4827:4829   */\n  0x20\n    /* \"#utility.yul\":4817:4825   */\n  dup4\n    /* \"#utility.yul\":4814:4830   */\n  lt\n    /* \"#utility.yul\":4808:4811   */\n  0x0133\n    /* \"#utility.yul\":4802:4806   */\n  dup4\n    /* \"#utility.yul\":4799:4812   */\n  lt\n    /* \"#utility.yul\":4795:4831   */\n  and\n    /* \"#utility.yul\":4789:4791   */\n  0x4e\n    /* \"#utility.yul\":4779:4787   */\n  dup5\n    /* \"#utility.yul\":4776:4792   */\n  lt\n    /* \"#utility.yul\":4771:4773   */\n  0x0b\n    /* \"#utility.yul\":4765:4769   */\n  dup5\n    /* \"#utility.yul\":4762:4774   */\n  lt\n    /* \"#utility.yul\":4758:4793   */\n  and\n    /* \"#utility.yul\":4755:4832   */\n  or\n    /* \"#utility.yul\":4752:4955   */\n  iszero\n  tag_101\n  jumpi\n  pop\n    /* \"#utility.yul\":4864:4883   */\n  dup2\n  dup2\n  exp\n    /* \"#utility.yul\":4940:4945   */\n  jump(tag_93)\n    /* \"#utility.yul\":4752:4955   */\ntag_101:\n    /* \"#utility.yul\":4987:5029   */\n  tag_102\n  not(0x00)\n    /* \"#utility.yul\":5012:5020   */\n  dup5\n    /* \"#utility.yul\":5006:5010   */\n  dup5\n    /* \"#utility.yul\":4987:5029   */\n  tag_52\n  jump\t// in\ntag_102:\n    /* \"#utility.yul\":5065:5071   */\n  dup1\n    /* \"#utility.yul\":5061:5062   */\n  0x00\n    /* \"#utility.yul\":5057:5063   */\n  not\n    /* \"#utility.yul\":5053:5072   */\n  div\n    /* \"#utility.yul\":5044:5051   */\n  dup3\n    /* \"#utility.yul\":5041:5073   */\n  gt\n    /* \"#utility.yul\":5038:5096   */\n  iszero\n  tag_104\n  jumpi\n    /* \"#utility.yul\":5076:5094   */\n  tag_104\n  tag_51\n  jump\t// in\ntag_104:\n    /* \"#utility.yul\":5114:5134   */\n  mul\n  swap1\n  pop\n    /* \"#utility.yul\":4238:5140   */\ntag_93:\n  swap3\n  swap2\n  pop\n  pop\n  jump\t// out\n    /* \"#utility.yul\":5145:5285   */\ntag_22:\n    /* \"#utility.yul\":5203:5208   */\n  0x00\n    /* \"#utility.yul\":5232:5279   */\n  tag_106\n    /* \"#utility.yul\":5273:5277   */\n  0xff\n    /* \"#utility.yul\":5263:5271   */\n  dup5\n    /* \"#utility.yul\":5259:5278   */\n  and\n    /* \"#utility.yul\":5253:5257   */\n  dup4\n    /* \"#utility.yul\":5232:5279   */\n  tag_53\n  jump\t// in\ntag_106:\n    /* \"#utility.yul\":5223:5279   */\n  swap4\n    /* \"#utility.yul\":5145:5285   */\n  swap3\n  pop\n  pop\n  pop\n  jump\t// out\n    /* \"#utility.yul\":5290:5458   */\ntag_24:\n    /* \"#utility.yul\":5363:5372   */\n  dup1\n  dup3\n  mul\n    /* \"#utility.yul\":5394:5403   */\n  dup2\n  iszero\n    /* \"#utility.yul\":5411:5426   */\n  dup3\n  dup3\n  div\n    /* \"#utility.yul\":5405:5427   */\n  dup5\n  eq\n    /* \"#utility.yul\":5391:5428   */\n  or\n    /* \"#utility.yul\":5381:5452   */\n  tag_93\n  jumpi\n    /* \"#utility.yul\":5432:5450   */\n  tag_93\n  tag_51\n  jump\t// in\n    /* \"#utility.yul\":5463:5588   */\ntag_37:\n    /* \"#utility.yul\":5528:5537   */\n  dup1\n  dup3\n  add\n    /* \"#utility.yul\":5549:5559   */\n  dup1\n  dup3\n  gt\n    /* \"#utility.yul\":5546:5582   */\n  iszero\n  tag_93\n  jumpi\n    /* \"#utility.yul\":5562:5580   */\n  tag_93\n  tag_51\n  jump\t// in\n    /* \"#utility.yul\":5943:6120   */\ntag_54:\n    /* \"contracts/SimpleToken.sol\":174:6582  contract TokenPreSale is ERC20, Ownable {... */\n  dataSize(sub_0)\n  dup1\n  dataOffset(sub_0)\n  0x00\n  codecopy\n  0x00\n  return\nstop\n\nsub_0: assembly {\n        /* \"contracts/SimpleToken.sol\":174:6582  contract TokenPreSale is ERC20, Ownable {... */\n      mstore(0x40, 0x80)\n      jumpi(tag_1, lt(calldatasize, 0x04))\n      shr(0xe0, calldataload(0x00))\n      dup1\n      0x7547c7a3\n      gt\n      tag_41\n      jumpi\n      dup1\n      0xa9059cbb\n      gt\n      tag_42\n      jumpi\n      dup1\n      0xdd62ed3e\n      gt\n      tag_43\n      jumpi\n      dup1\n      0xdd62ed3e\n      eq\n      tag_36\n      jumpi\n      dup1\n      0xf2fde38b\n      eq\n      tag_37\n      jumpi\n      dup1\n      0xf8102e68\n      eq\n      tag_38\n      jumpi\n      dup1\n      0xf9931855\n      eq\n      tag_39\n      jumpi\n      dup1\n      0xf9a81af7\n      eq\n      tag_40\n      jumpi\n      0x00\n      dup1\n      revert\n    tag_43:\n      dup1\n      0xa9059cbb\n      eq\n      tag_31\n      jumpi\n      dup1\n      0xcce29ea7\n      eq\n      tag_32\n      jumpi\n      dup1\n      0xcec297a0\n      eq\n      tag_33\n      jumpi\n      dup1\n      0xd0febe4c\n      eq\n      tag_34\n      jumpi\n      dup1\n      0xd348b409\n      eq\n      tag_35\n      jumpi\n      0x00\n      dup1\n      revert\n    tag_42:\n      dup1\n      0x95d89b41\n      gt\n      tag_44\n      jumpi\n      dup1\n      0x95d89b41\n      eq\n      tag_26\n      jumpi\n      dup1\n      0x9b19251a\n      eq\n      tag_27\n      jumpi\n      dup1\n      0x9ca423b3\n      eq\n      tag_28\n      jumpi\n      dup1\n      0xa09c4cf4\n      eq\n      tag_29\n      jumpi\n      dup1\n      0xa5ce413b\n      eq\n      tag_30\n      jumpi\n      0x00\n      dup1\n      revert\n    tag_44:\n      dup1\n      0x7547c7a3\n      eq\n      tag_21\n      jumpi\n      dup1\n      0x7c613b2f\n      eq\n      tag_22\n      jumpi\n      dup1\n      0x8265324d\n      eq\n      tag_23\n      jumpi\n      dup1\n      0x8da5cb5b\n      eq\n      tag_24\n      jumpi\n      dup1\n      0x8f0794fe\n      eq\n      tag_25\n      jumpi\n      0x00\n      dup1\n      revert\n    tag_41:\n      dup1\n      0x2c663960\n      gt\n      tag_45\n      jumpi\n      dup1\n      0x4f3fc2df\n      gt\n      tag_46\n      jumpi\n      dup1\n      0x4f3fc2df\n      eq\n      tag_16\n      jumpi\n      dup1\n      0x518ab2a8\n      eq\n      tag_17\n      jumpi\n      dup1\n      0x70a08231\n      eq\n      tag_18\n      jumpi\n      dup1\n      0x715018a6\n      eq\n      tag_19\n      jumpi\n      dup1\n      0x7165d19b\n      eq\n      tag_20\n      jumpi\n      0x00\n      dup1\n      revert\n    tag_46:\n      dup1\n      0x2c663960\n      eq\n      tag_11\n      jumpi\n      dup1\n      0x30f72cd4\n      eq\n      tag_12\n      jumpi\n      dup1\n      0x313ce567\n      eq\n      tag_13\n      jumpi\n      dup1\n      0x329a27e7\n      eq\n      tag_14\n      jumpi\n      dup1\n      0x4405df4a\n      eq\n      tag_15\n      jumpi\n      0x00\n      dup1\n      revert\n    tag_45:\n      dup1\n      0x0d505541\n      gt\n      tag_47\n      jumpi\n      dup1\n      0x0d505541\n      eq\n      tag_6\n      jumpi\n      dup1\n      0x18160ddd\n      eq\n      tag_7\n      jumpi\n      dup1\n      0x1d0806ae\n      eq\n      tag_8\n      jumpi\n      dup1\n      0x23b872dd\n      eq\n      tag_9\n      jumpi\n      dup1\n      0x27e235e3\n      eq\n      tag_10\n      jumpi\n      0x00\n      dup1\n      revert\n    tag_47:\n      dup1\n      0x03e293a3\n      eq\n      tag_2\n      jumpi\n      dup1\n      0x06d65af3\n      eq\n      tag_3\n      jumpi\n      dup1\n      0x06fdde03\n      eq\n      tag_4\n      jumpi\n      dup1\n      0x095ea7b3\n      eq\n      tag_5\n      jumpi\n    tag_1:\n      0x00\n      dup1\n      revert\n        /* \"contracts/SimpleToken.sol\":363:394  uint256 public regularSalePrice */\n    tag_2:\n      callvalue\n      dup1\n      iszero\n      tag_48\n      jumpi\n      0x00\n      dup1\n      revert\n    tag_48:\n      pop\n      tag_49\n      sload(0x09)\n      dup2\n      jump\n    tag_49:\n      mload(0x40)\n        /* \"#utility.yul\":160:185   */\n      swap1\n      dup2\n      mstore\n        /* \"#utility.yul\":148:150   */\n      0x20\n        /* \"#utility.yul\":133:151   */\n      add\n        /* \"contracts/SimpleToken.sol\":363:394  uint256 public regularSalePrice */\n    tag_51:\n      mload(0x40)\n      dup1\n      swap2\n      sub\n      swap1\n      return\n        /* \"contracts/SimpleToken.sol\":255:286  uint256 public preSaleStartTime */\n    tag_3:\n      callvalue\n      dup1\n      iszero\n      tag_53\n      jumpi\n      0x00\n      dup1\n      revert\n    tag_53:\n      pop\n      tag_49\n      sload(0x06)\n      dup2\n      jump\n        /* \"@openzeppelin/contracts/token/ERC20/ERC20.sol\":1779:1868  function name() public view virtual returns (string memory) {... */\n    tag_4:\n      callvalue\n      dup1\n      iszero\n      tag_57\n      jumpi\n      0x00\n      dup1\n      revert\n    tag_57:\n      pop\n      tag_58\n      tag_59\n      jump\t// in\n    tag_58:\n      mload(0x40)\n      tag_51\n      swap2\n      swap1\n      tag_61\n      jump\t// in\n        /* \"@openzeppelin/contracts/token/ERC20/ERC20.sol\":3998:4184  function approve(address spender, uint256 value) public virtual returns (bool) {... */\n    tag_5:\n      callvalue\n      dup1\n      iszero\n      tag_62\n      jumpi\n      0x00\n      dup1\n      revert\n    tag_62:\n      pop\n      tag_63\n      tag_64\n      calldatasize\n      0x04\n      tag_65\n      jump\t// in\n    tag_64:\n      tag_66\n      jump\t// in\n    tag_63:\n      mload(0x40)\n        /* \"#utility.yul\":1267:1281   */\n      swap1\n      iszero\n        /* \"#utility.yul\":1260:1282   */\n      iszero\n        /* \"#utility.yul\":1242:1283   */\n      dup2\n      mstore\n        /* \"#utility.yul\":1230:1232   */\n      0x20\n        /* \"#utility.yul\":1215:1233   */\n      add\n        /* \"@openzeppelin/contracts/token/ERC20/ERC20.sol\":3998:4184  function approve(address spender, uint256 value) public virtual returns (bool) {... */\n      tag_51\n        /* \"#utility.yul\":1102:1289   */\n      jump\n        /* \"contracts/SimpleToken.sol\":6328:6575  function calculateStakingReward(address user) public view returns (uint256) {... */\n    tag_6:\n      callvalue\n      dup1\n      iszero\n      tag_69\n      jumpi\n      0x00\n      dup1\n      revert\n    tag_69:\n      pop\n      tag_49\n      tag_71\n      calldatasize\n      0x04\n      tag_72\n      jump\t// in\n    tag_71:\n      tag_73\n      jump\t// in\n        /* \"@openzeppelin/contracts/token/ERC20/ERC20.sol\":2849:2946  function totalSupply() public view virtual returns (uint256) {... */\n    tag_7:\n      callvalue\n      dup1\n      iszero\n      tag_75\n      jumpi\n      0x00\n      dup1\n      revert\n    tag_75:\n      pop\n        /* \"@openzeppelin/contracts/token/ERC20/ERC20.sol\":2927:2939  _totalSupply */\n      sload(0x02)\n        /* \"@openzeppelin/contracts/token/ERC20/ERC20.sol\":2849:2946  function totalSupply() public view virtual returns (uint256) {... */\n      jump(tag_49)\n        /* \"contracts/SimpleToken.sol\":329:356  uint256 public initialPrice */\n    tag_8:\n      callvalue\n      dup1\n      iszero\n      tag_79\n      jumpi\n      0x00\n      dup1\n      revert\n    tag_79:\n      pop\n      tag_49\n      sload(0x08)\n      dup2\n      jump\n        /* \"@openzeppelin/contracts/token/ERC20/ERC20.sol\":4776:5020  function transferFrom(address from, address to, uint256 value) public virtual returns (bool) {... */\n    tag_9:\n      callvalue\n      dup1\n      iszero\n      tag_83\n      jumpi\n      0x00\n      dup1\n      revert\n    tag_83:\n      pop\n      tag_63\n      tag_85\n      calldatasize\n      0x04\n      tag_86\n      jump\t// in\n    tag_85:\n      tag_87\n      jump\t// in\n        /* \"contracts/SimpleToken.sol\":820:863  mapping(address => uint256) public balances */\n    tag_10:\n      callvalue\n      dup1\n      iszero\n      tag_89\n      jumpi\n      0x00\n      dup1\n      revert\n    tag_89:\n      pop\n      tag_49\n      tag_91\n      calldatasize\n      0x04\n      tag_72\n      jump\t// in\n    tag_91:\n      mstore(0x20, 0x13)\n      0x00\n      swap1\n      dup2\n      mstore\n      0x40\n      swap1\n      keccak256\n      sload\n      dup2\n      jump\n        /* \"contracts/SimpleToken.sol\":2572:2876  function calculateWeeksElapsed(uint256 startTime, uint256 endTime) public pure returns (uint256) {... */\n    tag_11:\n      callvalue\n      dup1\n      iszero\n      tag_94\n      jumpi\n      0x00\n      dup1\n      revert\n    tag_94:\n      pop\n      tag_49\n      tag_96\n      calldatasize\n      0x04\n      tag_97\n      jump\t// in\n    tag_96:\n      tag_98\n      jump\t// in\n        /* \"contracts/SimpleToken.sol\":221:248  bool public presaleIsActive */\n    tag_12:\n      callvalue\n      dup1\n      iszero\n      tag_100\n      jumpi\n      0x00\n      dup1\n      revert\n    tag_100:\n      pop\n      sload(0x05)\n      tag_63\n      swap1\n      shl(0xa0, 0x01)\n      swap1\n      div\n      0xff\n      and\n      dup2\n      jump\n        /* \"@openzeppelin/contracts/token/ERC20/ERC20.sol\":2707:2789  function decimals() public view virtual returns (uint8) {... */\n    tag_13:\n      callvalue\n      dup1\n      iszero\n      tag_104\n      jumpi\n      0x00\n      dup1\n      revert\n    tag_104:\n      pop\n      mload(0x40)\n        /* \"@openzeppelin/contracts/token/ERC20/ERC20.sol\":2780:2782  18 */\n      0x12\n        /* \"#utility.yul\":2357:2393   */\n      dup2\n      mstore\n        /* \"#utility.yul\":2345:2347   */\n      0x20\n        /* \"#utility.yul\":2330:2348   */\n      add\n        /* \"@openzeppelin/contracts/token/ERC20/ERC20.sol\":2707:2789  function decimals() public view virtual returns (uint8) {... */\n      tag_51\n        /* \"#utility.yul\":2215:2399   */\n      jump\n        /* \"contracts/SimpleToken.sol\":5270:5367  function getWalletBalance() public view returns (uint256){... */\n    tag_14:\n      callvalue\n      dup1\n      iszero\n      tag_109\n      jumpi\n      0x00\n      dup1\n      revert\n    tag_109:\n      pop\n        /* \"contracts/SimpleToken.sol\":5350:5360  msg.sender */\n      caller\n        /* \"contracts/SimpleToken.sol\":5319:5326  uint256 */\n      0x00\n        /* \"contracts/SimpleToken.sol\":5341:5361  balances[msg.sender] */\n      swap1\n      dup2\n      mstore\n        /* \"contracts/SimpleToken.sol\":5341:5349  balances */\n      0x13\n        /* \"contracts/SimpleToken.sol\":5341:5361  balances[msg.sender] */\n      0x20\n      mstore\n      0x40\n      swap1\n      keccak256\n      sload\n        /* \"contracts/SimpleToken.sol\":5270:5367  function getWalletBalance() public view returns (uint256){... */\n      jump(tag_49)\n        /* \"contracts/SimpleToken.sol\":3874:4172  function calculatePriceIncrease() public view returns (uint256){... */\n    tag_15:\n      callvalue\n      dup1\n      iszero\n      tag_113\n      jumpi\n      0x00\n      dup1\n      revert\n    tag_113:\n      pop\n      tag_49\n      tag_115\n      jump\t// in\n        /* \"contracts/SimpleToken.sol\":514:546  uint256 public stakingRewardRate */\n    tag_16:\n      callvalue\n      dup1\n      iszero\n      tag_117\n      jumpi\n      0x00\n      dup1\n      revert\n    tag_117:\n      pop\n      tag_49\n      sload(0x0d)\n      dup2\n      jump\n        /* \"contracts/SimpleToken.sol\":441:466  uint256 public tokensSold */\n    tag_17:\n      callvalue\n      dup1\n      iszero\n      tag_121\n      jumpi\n      0x00\n      dup1\n      revert\n    tag_121:\n      pop\n      tag_49\n      sload(0x0b)\n      dup2\n      jump\n        /* \"@openzeppelin/contracts/token/ERC20/ERC20.sol\":3004:3120  function balanceOf(address account) public view virtual returns (uint256) {... */\n    tag_18:\n      callvalue\n      dup1\n      iszero\n      tag_125\n      jumpi\n      0x00\n      dup1\n      revert\n    tag_125:\n      pop\n      tag_49\n      tag_127\n      calldatasize\n      0x04\n      tag_72\n      jump\t// in\n    tag_127:\n      sub(shl(0xa0, 0x01), 0x01)\n        /* \"@openzeppelin/contracts/token/ERC20/ERC20.sol\":3095:3113  _balances[account] */\n      and\n        /* \"@openzeppelin/contracts/token/ERC20/ERC20.sol\":3069:3076  uint256 */\n      0x00\n        /* \"@openzeppelin/contracts/token/ERC20/ERC20.sol\":3095:3113  _balances[account] */\n      swap1\n      dup2\n      mstore\n      0x20\n      dup2\n      swap1\n      mstore\n      0x40\n      swap1\n      keccak256\n      sload\n      swap1\n        /* \"@openzeppelin/contracts/token/ERC20/ERC20.sol\":3004:3120  function balanceOf(address account) public view virtual returns (uint256) {... */\n      jump\n        /* \"@openzeppelin/contracts/access/Ownable.sol\":2293:2394  function renounceOwnership() public virtual onlyOwner {... */\n    tag_19:\n      callvalue\n      dup1\n      iszero\n      tag_130\n      jumpi\n      0x00\n      dup1\n      revert\n    tag_130:\n      pop\n      tag_131\n      tag_132\n      jump\t// in\n    tag_131:\n      stop\n        /* \"contracts/SimpleToken.sol\":401:434  uint256 public weeklyIncreaseRate */\n    tag_20:\n      callvalue\n      dup1\n      iszero\n      tag_133\n      jumpi\n      0x00\n      dup1\n      revert\n    tag_133:\n      pop\n      tag_49\n      sload(0x0a)\n      dup2\n      jump\n        /* \"contracts/SimpleToken.sol\":5377:5781  function stakeTokens(uint256 amount) external {... */\n    tag_21:\n      callvalue\n      dup1\n      iszero\n      tag_137\n      jumpi\n      0x00\n      dup1\n      revert\n    tag_137:\n      pop\n      tag_131\n      tag_139\n      calldatasize\n      0x04\n      tag_140\n      jump\t// in\n    tag_139:\n      tag_141\n      jump\t// in\n        /* \"contracts/SimpleToken.sol\":2886:3302  function mintReferralReward() external {... */\n    tag_22:\n      callvalue\n      dup1\n      iszero\n      tag_142\n      jumpi\n      0x00\n      dup1\n      revert\n    tag_142:\n      pop\n      tag_131\n      tag_144\n      jump\t// in\n        /* \"contracts/SimpleToken.sol\":2408:2564  function calculateReferralReward(address referrer) public view returns (uint256) {... */\n    tag_23:\n      callvalue\n      dup1\n      iszero\n      tag_145\n      jumpi\n      0x00\n      dup1\n      revert\n    tag_145:\n      pop\n      tag_49\n      tag_147\n      calldatasize\n      0x04\n      tag_72\n      jump\t// in\n    tag_147:\n      tag_148\n      jump\t// in\n        /* \"@openzeppelin/contracts/access/Ownable.sol\":1638:1723  function owner() public view virtual returns (address) {... */\n    tag_24:\n      callvalue\n      dup1\n      iszero\n      tag_150\n      jumpi\n      0x00\n      dup1\n      revert\n    tag_150:\n      pop\n        /* \"@openzeppelin/contracts/access/Ownable.sol\":1710:1716  _owner */\n      and(sub(shl(0xa0, 0x01), 0x01), sload(0x05))\n        /* \"@openzeppelin/contracts/access/Ownable.sol\":1638:1723  function owner() public view virtual returns (address) {... */\n    tag_151:\n      mload(0x40)\n      sub(shl(0xa0, 0x01), 0x01)\n        /* \"#utility.yul\":2799:2831   */\n      swap1\n      swap2\n      and\n        /* \"#utility.yul\":2781:2832   */\n      dup2\n      mstore\n        /* \"#utility.yul\":2769:2771   */\n      0x20\n        /* \"#utility.yul\":2754:2772   */\n      add\n        /* \"@openzeppelin/contracts/access/Ownable.sol\":1638:1723  function owner() public view virtual returns (address) {... */\n      tag_51\n        /* \"#utility.yul\":2635:2838   */\n      jump\n        /* \"contracts/SimpleToken.sol\":607:658  mapping(address => uint256) public stakingTimestamp */\n    tag_25:\n      callvalue\n      dup1\n      iszero\n      tag_155\n      jumpi\n      0x00\n      dup1\n      revert\n    tag_155:\n      pop\n      tag_49\n      tag_157\n      calldatasize\n      0x04\n      tag_72\n      jump\t// in\n    tag_157:\n      mstore(0x20, 0x0f)\n      0x00\n      swap1\n      dup2\n      mstore\n      0x40\n      swap1\n      keccak256\n      sload\n      dup2\n      jump\n        /* \"@openzeppelin/contracts/token/ERC20/ERC20.sol\":1981:2074  function symbol() public view virtual returns (string memory) {... */\n    tag_26:\n      callvalue\n      dup1\n      iszero\n      tag_160\n      jumpi\n      0x00\n      dup1\n      revert\n    tag_160:\n      pop\n      tag_58\n      tag_162\n      jump\t// in\n        /* \"contracts/SimpleToken.sol\":665:706  mapping(address => bool) public whitelist */\n    tag_27:\n      callvalue\n      dup1\n      iszero\n      tag_164\n      jumpi\n      0x00\n      dup1\n      revert\n    tag_164:\n      pop\n      tag_63\n      tag_166\n      calldatasize\n      0x04\n      tag_72\n      jump\t// in\n    tag_166:\n      mstore(0x20, 0x10)\n      0x00\n      swap1\n      dup2\n      mstore\n      0x40\n      swap1\n      keccak256\n      sload\n      0xff\n      and\n      dup2\n      jump\n        /* \"contracts/SimpleToken.sol\":713:757  mapping(address => address) public referrals */\n    tag_28:\n      callvalue\n      dup1\n      iszero\n      tag_169\n      jumpi\n      0x00\n      dup1\n      revert\n    tag_169:\n      pop\n      tag_151\n      tag_171\n      calldatasize\n      0x04\n      tag_72\n      jump\t// in\n    tag_171:\n      mstore(0x20, 0x11)\n      0x00\n      swap1\n      dup2\n      mstore\n      0x40\n      swap1\n      keccak256\n      sload\n      sub(shl(0xa0, 0x01), 0x01)\n      and\n      dup2\n      jump\n        /* \"contracts/SimpleToken.sol\":1915:2396  function signUpForWhitelist(address referral) external {... */\n    tag_29:\n      callvalue\n      dup1\n      iszero\n      tag_174\n      jumpi\n      0x00\n      dup1\n      revert\n    tag_174:\n      pop\n      tag_131\n      tag_176\n      calldatasize\n      0x04\n      tag_72\n      jump\t// in\n    tag_176:\n      tag_177\n      jump\t// in\n        /* \"contracts/SimpleToken.sol\":5789:6320  function unstakeTokens() external {... */\n    tag_30:\n      callvalue\n      dup1\n      iszero\n      tag_178\n      jumpi\n      0x00\n      dup1\n      revert\n    tag_178:\n      pop\n      tag_131\n      tag_180\n      jump\t// in\n        /* \"@openzeppelin/contracts/token/ERC20/ERC20.sol\":3315:3493  function transfer(address to, uint256 value) public virtual returns (bool) {... */\n    tag_31:\n      callvalue\n      dup1\n      iszero\n      tag_181\n      jumpi\n      0x00\n      dup1\n      revert\n    tag_181:\n      pop\n      tag_63\n      tag_183\n      calldatasize\n      0x04\n      tag_65\n      jump\t// in\n    tag_183:\n      tag_184\n      jump\t// in\n        /* \"contracts/SimpleToken.sol\":293:322  uint256 public preSaleEndTime */\n    tag_32:\n      callvalue\n      dup1\n      iszero\n      tag_186\n      jumpi\n      0x00\n      dup1\n      revert\n    tag_186:\n      pop\n      tag_49\n      sload(0x07)\n      dup2\n      jump\n        /* \"contracts/SimpleToken.sol\":764:813  mapping(address => uint256) public referralCounts */\n    tag_33:\n      callvalue\n      dup1\n      iszero\n      tag_190\n      jumpi\n      0x00\n      dup1\n      revert\n    tag_190:\n      pop\n      tag_49\n      tag_192\n      calldatasize\n      0x04\n      tag_72\n      jump\t// in\n    tag_192:\n      mstore(0x20, 0x12)\n      0x00\n      swap1\n      dup2\n      mstore\n      0x40\n      swap1\n      keccak256\n      sload\n      dup2\n      jump\n        /* \"contracts/SimpleToken.sol\":4641:5266  function buyTokens() external payable {... */\n    tag_34:\n      tag_131\n      tag_196\n      jump\t// in\n        /* \"contracts/SimpleToken.sol\":4188:4564  function calculatePrice() public view returns (uint256) {... */\n    tag_35:\n      callvalue\n      dup1\n      iszero\n      tag_197\n      jumpi\n      0x00\n      dup1\n      revert\n    tag_197:\n      pop\n      tag_49\n      tag_199\n      jump\t// in\n        /* \"@openzeppelin/contracts/token/ERC20/ERC20.sol\":3551:3691  function allowance(address owner, address spender) public view virtual returns (uint256) {... */\n    tag_36:\n      callvalue\n      dup1\n      iszero\n      tag_201\n      jumpi\n      0x00\n      dup1\n      revert\n    tag_201:\n      pop\n      tag_49\n      tag_203\n      calldatasize\n      0x04\n      tag_204\n      jump\t// in\n    tag_203:\n      sub(shl(0xa0, 0x01), 0x01)\n        /* \"@openzeppelin/contracts/token/ERC20/ERC20.sol\":3657:3675  _allowances[owner] */\n      swap2\n      dup3\n      and\n        /* \"@openzeppelin/contracts/token/ERC20/ERC20.sol\":3631:3638  uint256 */\n      0x00\n        /* \"@openzeppelin/contracts/token/ERC20/ERC20.sol\":3657:3675  _allowances[owner] */\n      swap1\n      dup2\n      mstore\n        /* \"@openzeppelin/contracts/token/ERC20/ERC20.sol\":3657:3668  _allowances */\n      0x01\n        /* \"@openzeppelin/contracts/token/ERC20/ERC20.sol\":3657:3675  _allowances[owner] */\n      0x20\n      swap1\n      dup2\n      mstore\n      0x40\n      dup1\n      dup4\n      keccak256\n        /* \"@openzeppelin/contracts/token/ERC20/ERC20.sol\":3657:3684  _allowances[owner][spender] */\n      swap4\n      swap1\n      swap5\n      and\n      dup3\n      mstore\n      swap2\n      swap1\n      swap2\n      mstore\n      keccak256\n      sload\n      swap1\n        /* \"@openzeppelin/contracts/token/ERC20/ERC20.sol\":3551:3691  function allowance(address owner, address spender) public view virtual returns (uint256) {... */\n      jump\n        /* \"@openzeppelin/contracts/access/Ownable.sol\":2543:2758  function transferOwnership(address newOwner) public virtual onlyOwner {... */\n    tag_37:\n      callvalue\n      dup1\n      iszero\n      tag_207\n      jumpi\n      0x00\n      dup1\n      revert\n    tag_207:\n      pop\n      tag_131\n      tag_209\n      calldatasize\n      0x04\n      tag_72\n      jump\t// in\n    tag_209:\n      tag_210\n      jump\t// in\n        /* \"contracts/SimpleToken.sol\":473:507  uint256 public preSaleWeeksInWeeks */\n    tag_38:\n      callvalue\n      dup1\n      iszero\n      tag_211\n      jumpi\n      0x00\n      dup1\n      revert\n    tag_211:\n      pop\n      tag_49\n      sload(0x0c)\n      dup2\n      jump\n        /* \"contracts/SimpleToken.sol\":553:600  mapping(address => uint256) public stakedAmount */\n    tag_39:\n      callvalue\n      dup1\n      iszero\n      tag_215\n      jumpi\n      0x00\n      dup1\n      revert\n    tag_215:\n      pop\n      tag_49\n      tag_217\n      calldatasize\n      0x04\n      tag_72\n      jump\t// in\n    tag_217:\n      mstore(0x20, 0x0e)\n      0x00\n      swap1\n      dup2\n      mstore\n      0x40\n      swap1\n      keccak256\n      sload\n      dup2\n      jump\n        /* \"contracts/SimpleToken.sol\":3427:3865  function startPreSale(uint256 _startTime, uint256 _durationWeeks) external onlyOwner {... */\n    tag_40:\n      callvalue\n      dup1\n      iszero\n      tag_220\n      jumpi\n      0x00\n      dup1\n      revert\n    tag_220:\n      pop\n      tag_131\n      tag_222\n      calldatasize\n      0x04\n      tag_97\n      jump\t// in\n    tag_222:\n      tag_223\n      jump\t// in\n        /* \"@openzeppelin/contracts/token/ERC20/ERC20.sol\":1779:1868  function name() public view virtual returns (string memory) {... */\n    tag_59:\n        /* \"@openzeppelin/contracts/token/ERC20/ERC20.sol\":1824:1837  string memory */\n      0x60\n        /* \"@openzeppelin/contracts/token/ERC20/ERC20.sol\":1856:1861  _name */\n      0x03\n        /* \"@openzeppelin/contracts/token/ERC20/ERC20.sol\":1849:1861  return _name */\n      dup1\n      sload\n      tag_225\n      swap1\n      tag_226\n      jump\t// in\n    tag_225:\n      dup1\n      0x1f\n      add\n      0x20\n      dup1\n      swap2\n      div\n      mul\n      0x20\n      add\n      mload(0x40)\n      swap1\n      dup2\n      add\n      0x40\n      mstore\n      dup1\n      swap3\n      swap2\n      swap1\n      dup2\n      dup2\n      mstore\n      0x20\n      add\n      dup3\n      dup1\n      sload\n      tag_227\n      swap1\n      tag_226\n      jump\t// in\n    tag_227:\n      dup1\n      iszero\n      tag_228\n      jumpi\n      dup1\n      0x1f\n      lt\n      tag_229\n      jumpi\n      0x0100\n      dup1\n      dup4\n      sload\n      div\n      mul\n      dup4\n      mstore\n      swap2\n      0x20\n      add\n      swap2\n      jump(tag_228)\n    tag_229:\n      dup3\n      add\n      swap2\n      swap1\n      0x00\n      mstore\n      keccak256(0x00, 0x20)\n      swap1\n    tag_230:\n      dup2\n      sload\n      dup2\n      mstore\n      swap1\n      0x01\n      add\n      swap1\n      0x20\n      add\n      dup1\n      dup4\n      gt\n      tag_230\n      jumpi\n      dup3\n      swap1\n      sub\n      0x1f\n      and\n      dup3\n      add\n      swap2\n    tag_228:\n      pop\n      pop\n      pop\n      pop\n      pop\n      swap1\n      pop\n        /* \"@openzeppelin/contracts/token/ERC20/ERC20.sol\":1779:1868  function name() public view virtual returns (string memory) {... */\n      swap1\n      jump\t// out\n        /* \"@openzeppelin/contracts/token/ERC20/ERC20.sol\":3998:4184  function approve(address spender, uint256 value) public virtual returns (bool) {... */\n    tag_66:\n        /* \"@openzeppelin/contracts/token/ERC20/ERC20.sol\":4071:4075  bool */\n      0x00\n        /* \"@openzeppelin/contracts/utils/Context.sol\":735:745  msg.sender */\n      caller\n        /* \"@openzeppelin/contracts/token/ERC20/ERC20.sol\":4125:4156  _approve(owner, spender, value) */\n      tag_234\n        /* \"@openzeppelin/contracts/utils/Context.sol\":735:745  msg.sender */\n      dup2\n        /* \"@openzeppelin/contracts/token/ERC20/ERC20.sol\":4141:4148  spender */\n      dup6\n        /* \"@openzeppelin/contracts/token/ERC20/ERC20.sol\":4150:4155  value */\n      dup6\n        /* \"@openzeppelin/contracts/token/ERC20/ERC20.sol\":4125:4133  _approve */\n      tag_235\n        /* \"@openzeppelin/contracts/token/ERC20/ERC20.sol\":4125:4156  _approve(owner, spender, value) */\n      jump\t// in\n    tag_234:\n        /* \"@openzeppelin/contracts/token/ERC20/ERC20.sol\":4173:4177  true */\n      0x01\n        /* \"@openzeppelin/contracts/token/ERC20/ERC20.sol\":4166:4177  return true */\n      swap2\n      pop\n      pop\n        /* \"@openzeppelin/contracts/token/ERC20/ERC20.sol\":3998:4184  function approve(address spender, uint256 value) public virtual returns (bool) {... */\n    tag_231:\n      swap3\n      swap2\n      pop\n      pop\n      jump\t// out\n        /* \"contracts/SimpleToken.sol\":6328:6575  function calculateStakingReward(address user) public view returns (uint256) {... */\n    tag_73:\n      sub(shl(0xa0, 0x01), 0x01)\n        /* \"contracts/SimpleToken.sol\":6456:6478  stakingTimestamp[user] */\n      dup2\n      and\n        /* \"contracts/SimpleToken.sol\":6395:6402  uint256 */\n      0x00\n        /* \"contracts/SimpleToken.sol\":6456:6478  stakingTimestamp[user] */\n      swap1\n      dup2\n      mstore\n        /* \"contracts/SimpleToken.sol\":6456:6472  stakingTimestamp */\n      0x0f\n        /* \"contracts/SimpleToken.sol\":6456:6478  stakingTimestamp[user] */\n      0x20\n      mstore\n      0x40\n      dup2\n      keccak256\n      sload\n        /* \"contracts/SimpleToken.sol\":6395:6402  uint256 */\n      dup2\n      swap1\n        /* \"contracts/SimpleToken.sol\":6482:6489  1 weeks */\n      0x093a80\n      swap1\n        /* \"contracts/SimpleToken.sol\":6438:6478  block.timestamp - stakingTimestamp[user] */\n      tag_237\n      swap1\n        /* \"contracts/SimpleToken.sol\":6438:6453  block.timestamp */\n      timestamp\n        /* \"contracts/SimpleToken.sol\":6438:6478  block.timestamp - stakingTimestamp[user] */\n      tag_238\n      jump\t// in\n    tag_237:\n        /* \"contracts/SimpleToken.sol\":6437:6489  (block.timestamp - stakingTimestamp[user]) / 1 weeks */\n      tag_239\n      swap2\n      swap1\n      tag_240\n      jump\t// in\n    tag_239:\n        /* \"contracts/SimpleToken.sol\":6529:6546  stakingRewardRate */\n      sload(0x0d)\n      sub(shl(0xa0, 0x01), 0x01)\n        /* \"contracts/SimpleToken.sol\":6508:6526  stakedAmount[user] */\n      dup6\n      and\n      0x00\n      swap1\n      dup2\n      mstore\n        /* \"contracts/SimpleToken.sol\":6508:6520  stakedAmount */\n      0x0e\n        /* \"contracts/SimpleToken.sol\":6508:6526  stakedAmount[user] */\n      0x20\n      mstore\n      0x40\n      swap1\n      keccak256\n      sload\n        /* \"contracts/SimpleToken.sol\":6415:6489  uint256 weeksStaked = (block.timestamp - stakingTimestamp[user]) / 1 weeks */\n      swap2\n      swap3\n      pop\n        /* \"contracts/SimpleToken.sol\":6564:6567  100 */\n      0x64\n      swap2\n        /* \"contracts/SimpleToken.sol\":6415:6489  uint256 weeksStaked = (block.timestamp - stakingTimestamp[user]) / 1 weeks */\n      dup4\n      swap2\n        /* \"contracts/SimpleToken.sol\":6508:6546  stakedAmount[user] * stakingRewardRate */\n      tag_241\n      swap2\n      tag_242\n      jump\t// in\n    tag_241:\n        /* \"contracts/SimpleToken.sol\":6508:6560  stakedAmount[user] * stakingRewardRate * weeksStaked */\n      tag_243\n      swap2\n      swap1\n      tag_242\n      jump\t// in\n    tag_243:\n        /* \"contracts/SimpleToken.sol\":6507:6567  (stakedAmount[user] * stakingRewardRate * weeksStaked) / 100 */\n      tag_244\n      swap2\n      swap1\n      tag_240\n      jump\t// in\n    tag_244:\n        /* \"contracts/SimpleToken.sol\":6500:6567  return (stakedAmount[user] * stakingRewardRate * weeksStaked) / 100 */\n      swap4\n        /* \"contracts/SimpleToken.sol\":6328:6575  function calculateStakingReward(address user) public view returns (uint256) {... */\n      swap3\n      pop\n      pop\n      pop\n      jump\t// out\n        /* \"@openzeppelin/contracts/token/ERC20/ERC20.sol\":4776:5020  function transferFrom(address from, address to, uint256 value) public virtual returns (bool) {... */\n    tag_87:\n        /* \"@openzeppelin/contracts/token/ERC20/ERC20.sol\":4863:4867  bool */\n      0x00\n        /* \"@openzeppelin/contracts/utils/Context.sol\":735:745  msg.sender */\n      caller\n        /* \"@openzeppelin/contracts/token/ERC20/ERC20.sol\":4919:4956  _spendAllowance(from, spender, value) */\n      tag_248\n        /* \"@openzeppelin/contracts/token/ERC20/ERC20.sol\":4935:4939  from */\n      dup6\n        /* \"@openzeppelin/contracts/utils/Context.sol\":735:745  msg.sender */\n      dup3\n        /* \"@openzeppelin/contracts/token/ERC20/ERC20.sol\":4950:4955  value */\n      dup6\n        /* \"@openzeppelin/contracts/token/ERC20/ERC20.sol\":4919:4934  _spendAllowance */\n      tag_249\n        /* \"@openzeppelin/contracts/token/ERC20/ERC20.sol\":4919:4956  _spendAllowance(from, spender, value) */\n      jump\t// in\n    tag_248:\n        /* \"@openzeppelin/contracts/token/ERC20/ERC20.sol\":4966:4992  _transfer(from, to, value) */\n      tag_250\n        /* \"@openzeppelin/contracts/token/ERC20/ERC20.sol\":4976:4980  from */\n      dup6\n        /* \"@openzeppelin/contracts/token/ERC20/ERC20.sol\":4982:4984  to */\n      dup6\n        /* \"@openzeppelin/contracts/token/ERC20/ERC20.sol\":4986:4991  value */\n      dup6\n        /* \"@openzeppelin/contracts/token/ERC20/ERC20.sol\":4966:4975  _transfer */\n      tag_251\n        /* \"@openzeppelin/contracts/token/ERC20/ERC20.sol\":4966:4992  _transfer(from, to, value) */\n      jump\t// in\n    tag_250:\n      pop\n        /* \"@openzeppelin/contracts/token/ERC20/ERC20.sol\":5009:5013  true */\n      0x01\n      swap5\n        /* \"@openzeppelin/contracts/token/ERC20/ERC20.sol\":4776:5020  function transferFrom(address from, address to, uint256 value) public virtual returns (bool) {... */\n      swap4\n      pop\n      pop\n      pop\n      pop\n      jump\t// out\n        /* \"contracts/SimpleToken.sol\":2572:2876  function calculateWeeksElapsed(uint256 startTime, uint256 endTime) public pure returns (uint256) {... */\n    tag_98:\n        /* \"contracts/SimpleToken.sol\":2660:2667  uint256 */\n      0x00\n        /* \"contracts/SimpleToken.sol\":2699:2708  startTime */\n      dup3\n        /* \"contracts/SimpleToken.sol\":2688:2695  endTime */\n      dup3\n        /* \"contracts/SimpleToken.sol\":2688:2708  endTime >= startTime */\n      lt\n      iszero\n        /* \"contracts/SimpleToken.sol\":2680:2746  require(endTime >= startTime, \"End time must be after start time\") */\n      tag_253\n      jumpi\n      mload(0x40)\n      shl(0xe5, 0x461bcd)\n      dup2\n      mstore\n        /* \"#utility.yul\":4355:4357   */\n      0x20\n        /* \"contracts/SimpleToken.sol\":2680:2746  require(endTime >= startTime, \"End time must be after start time\") */\n      0x04\n      dup3\n      add\n        /* \"#utility.yul\":4337:4358   */\n      mstore\n        /* \"#utility.yul\":4394:4396   */\n      0x21\n        /* \"#utility.yul\":4374:4392   */\n      0x24\n      dup3\n      add\n        /* \"#utility.yul\":4367:4397   */\n      mstore\n        /* \"#utility.yul\":4433:4467   */\n      0x456e642074696d65206d7573742062652061667465722073746172742074696d\n        /* \"#utility.yul\":4413:4431   */\n      0x44\n      dup3\n      add\n        /* \"#utility.yul\":4406:4468   */\n      mstore\n      shl(0xf8, 0x65)\n        /* \"#utility.yul\":4484:4502   */\n      0x64\n      dup3\n      add\n        /* \"#utility.yul\":4477:4508   */\n      mstore\n        /* \"#utility.yul\":4525:4544   */\n      0x84\n      add\n        /* \"contracts/SimpleToken.sol\":2680:2746  require(endTime >= startTime, \"End time must be after start time\") */\n    tag_254:\n      mload(0x40)\n      dup1\n      swap2\n      sub\n      swap1\n      revert\n    tag_253:\n        /* \"contracts/SimpleToken.sol\":2757:2777  uint256 weeksElapsed */\n      0x00\n        /* \"contracts/SimpleToken.sol\":2804:2810  604800 */\n      0x093a80\n        /* \"contracts/SimpleToken.sol\":2781:2800  endTime - startTime */\n      tag_256\n        /* \"contracts/SimpleToken.sol\":2791:2800  startTime */\n      dup6\n        /* \"contracts/SimpleToken.sol\":2781:2788  endTime */\n      dup6\n        /* \"contracts/SimpleToken.sol\":2781:2800  endTime - startTime */\n      tag_238\n      jump\t// in\n    tag_256:\n        /* \"contracts/SimpleToken.sol\":2780:2810  (endTime - startTime) / 604800 */\n      tag_257\n      swap2\n      swap1\n      tag_240\n      jump\t// in\n    tag_257:\n        /* \"contracts/SimpleToken.sol\":2757:2810  uint256 weeksElapsed = (endTime - startTime) / 604800 */\n      swap5\n        /* \"contracts/SimpleToken.sol\":2572:2876  function calculateWeeksElapsed(uint256 startTime, uint256 endTime) public pure returns (uint256) {... */\n      swap4\n      pop\n      pop\n      pop\n      pop\n      jump\t// out\n        /* \"contracts/SimpleToken.sol\":3874:4172  function calculatePriceIncrease() public view returns (uint256){... */\n    tag_115:\n        /* \"contracts/SimpleToken.sol\":3929:3936  uint256 */\n      0x00\n        /* \"contracts/SimpleToken.sol\":3948:3968  uint256 weeksElapsed */\n      dup1\n        /* \"contracts/SimpleToken.sol\":3970:4026  calculateWeeksElapsed(preSaleStartTime, block.timestamp) */\n      tag_261\n        /* \"contracts/SimpleToken.sol\":3992:4008  preSaleStartTime */\n      sload(0x06)\n        /* \"contracts/SimpleToken.sol\":4010:4025  block.timestamp */\n      timestamp\n        /* \"contracts/SimpleToken.sol\":3970:3991  calculateWeeksElapsed */\n      tag_98\n        /* \"contracts/SimpleToken.sol\":3970:4026  calculateWeeksElapsed(preSaleStartTime, block.timestamp) */\n      jump\t// in\n    tag_261:\n        /* \"contracts/SimpleToken.sol\":3948:4026  uint256 weeksElapsed =calculateWeeksElapsed(preSaleStartTime, block.timestamp) */\n      swap1\n      pop\n        /* \"contracts/SimpleToken.sol\":4037:4058  uint256 priceIncrease */\n      0x00\n        /* \"contracts/SimpleToken.sol\":4114:4133  preSaleWeeksInWeeks */\n      sload(0x0c)\n        /* \"contracts/SimpleToken.sol\":4098:4110  weeksElapsed */\n      dup3\n        /* \"contracts/SimpleToken.sol\":4082:4094  initialPrice */\n      sload(0x08)\n        /* \"contracts/SimpleToken.sol\":4063:4079  regularSalePrice */\n      sload(0x09)\n        /* \"contracts/SimpleToken.sol\":4063:4094  regularSalePrice - initialPrice */\n      tag_241\n      swap2\n      swap1\n      tag_238\n      jump\t// in\n        /* \"@openzeppelin/contracts/access/Ownable.sol\":2293:2394  function renounceOwnership() public virtual onlyOwner {... */\n    tag_132:\n        /* \"@openzeppelin/contracts/access/Ownable.sol\":1531:1544  _checkOwner() */\n      tag_267\n        /* \"@openzeppelin/contracts/access/Ownable.sol\":1531:1542  _checkOwner */\n      tag_268\n        /* \"@openzeppelin/contracts/access/Ownable.sol\":1531:1544  _checkOwner() */\n      jump\t// in\n    tag_267:\n        /* \"@openzeppelin/contracts/access/Ownable.sol\":2357:2387  _transferOwnership(address(0)) */\n      tag_270\n        /* \"@openzeppelin/contracts/access/Ownable.sol\":2384:2385  0 */\n      0x00\n        /* \"@openzeppelin/contracts/access/Ownable.sol\":2357:2375  _transferOwnership */\n      tag_271\n        /* \"@openzeppelin/contracts/access/Ownable.sol\":2357:2387  _transferOwnership(address(0)) */\n      jump\t// in\n    tag_270:\n        /* \"@openzeppelin/contracts/access/Ownable.sol\":2293:2394  function renounceOwnership() public virtual onlyOwner {... */\n      jump\t// out\n        /* \"contracts/SimpleToken.sol\":5377:5781  function stakeTokens(uint256 amount) external {... */\n    tag_141:\n        /* \"contracts/SimpleToken.sol\":5451:5452  0 */\n      0x00\n        /* \"contracts/SimpleToken.sol\":5442:5448  amount */\n      dup2\n        /* \"contracts/SimpleToken.sol\":5442:5452  amount > 0 */\n      gt\n        /* \"contracts/SimpleToken.sol\":5434:5490  require(amount > 0, \"Amount must be greater than zero.\") */\n      tag_273\n      jumpi\n      mload(0x40)\n      shl(0xe5, 0x461bcd)\n      dup2\n      mstore\n        /* \"#utility.yul\":4757:4759   */\n      0x20\n        /* \"contracts/SimpleToken.sol\":5434:5490  require(amount > 0, \"Amount must be greater than zero.\") */\n      0x04\n      dup3\n      add\n        /* \"#utility.yul\":4739:4760   */\n      mstore\n        /* \"#utility.yul\":4796:4798   */\n      0x21\n        /* \"#utility.yul\":4776:4794   */\n      0x24\n      dup3\n      add\n        /* \"#utility.yul\":4769:4799   */\n      mstore\n        /* \"#utility.yul\":4835:4869   */\n      0x416d6f756e74206d7573742062652067726561746572207468616e207a65726f\n        /* \"#utility.yul\":4815:4833   */\n      0x44\n      dup3\n      add\n        /* \"#utility.yul\":4808:4870   */\n      mstore\n      shl(0xf9, 0x17)\n        /* \"#utility.yul\":4886:4904   */\n      0x64\n      dup3\n      add\n        /* \"#utility.yul\":4879:4910   */\n      mstore\n        /* \"#utility.yul\":4927:4946   */\n      0x84\n      add\n        /* \"contracts/SimpleToken.sol\":5434:5490  require(amount > 0, \"Amount must be greater than zero.\") */\n      tag_254\n        /* \"#utility.yul\":4555:4952   */\n      jump\n        /* \"contracts/SimpleToken.sol\":5434:5490  require(amount > 0, \"Amount must be greater than zero.\") */\n    tag_273:\n        /* \"contracts/SimpleToken.sol\":5519:5529  msg.sender */\n      caller\n        /* \"@openzeppelin/contracts/token/ERC20/ERC20.sol\":3069:3076  uint256 */\n      0x00\n        /* \"@openzeppelin/contracts/token/ERC20/ERC20.sol\":3095:3113  _balances[account] */\n      swap1\n      dup2\n      mstore\n      0x20\n      dup2\n      swap1\n      mstore\n      0x40\n      swap1\n      keccak256\n      sload\n        /* \"contracts/SimpleToken.sol\":5534:5540  amount */\n      dup2\n      gt\n        /* \"contracts/SimpleToken.sol\":5509:5540  balanceOf(msg.sender) >= amount */\n      iszero\n        /* \"contracts/SimpleToken.sol\":5501:5566  require(balanceOf(msg.sender) >= amount, \"Insufficient balance.\") */\n      tag_277\n      jumpi\n      mload(0x40)\n      shl(0xe5, 0x461bcd)\n      dup2\n      mstore\n        /* \"#utility.yul\":5159:5161   */\n      0x20\n        /* \"contracts/SimpleToken.sol\":5501:5566  require(balanceOf(msg.sender) >= amount, \"Insufficient balance.\") */\n      0x04\n      dup3\n      add\n        /* \"#utility.yul\":5141:5162   */\n      mstore\n        /* \"#utility.yul\":5198:5200   */\n      0x15\n        /* \"#utility.yul\":5178:5196   */\n      0x24\n      dup3\n      add\n        /* \"#utility.yul\":5171:5201   */\n      mstore\n      shl(0x59, 0x24b739bab33334b1b4b2b73a103130b630b731b297)\n        /* \"#utility.yul\":5217:5235   */\n      0x44\n      dup3\n      add\n        /* \"#utility.yul\":5210:5261   */\n      mstore\n        /* \"#utility.yul\":5278:5296   */\n      0x64\n      add\n        /* \"contracts/SimpleToken.sol\":5501:5566  require(balanceOf(msg.sender) >= amount, \"Insufficient balance.\") */\n      tag_254\n        /* \"#utility.yul\":4957:5302   */\n      jump\n        /* \"contracts/SimpleToken.sol\":5501:5566  require(balanceOf(msg.sender) >= amount, \"Insufficient balance.\") */\n    tag_277:\n        /* \"contracts/SimpleToken.sol\":5579:5623  _transfer(msg.sender, address(this), amount) */\n      tag_280\n        /* \"contracts/SimpleToken.sol\":5589:5599  msg.sender */\n      caller\n        /* \"contracts/SimpleToken.sol\":5609:5613  this */\n      address\n        /* \"contracts/SimpleToken.sol\":5616:5622  amount */\n      dup4\n        /* \"contracts/SimpleToken.sol\":5579:5588  _transfer */\n      tag_251\n        /* \"contracts/SimpleToken.sol\":5579:5623  _transfer(msg.sender, address(this), amount) */\n      jump\t// in\n    tag_280:\n        /* \"contracts/SimpleToken.sol\":5647:5657  msg.sender */\n      caller\n        /* \"contracts/SimpleToken.sol\":5634:5658  stakedAmount[msg.sender] */\n      0x00\n      swap1\n      dup2\n      mstore\n        /* \"contracts/SimpleToken.sol\":5634:5646  stakedAmount */\n      0x0e\n        /* \"contracts/SimpleToken.sol\":5634:5658  stakedAmount[msg.sender] */\n      0x20\n      mstore\n      0x40\n      dup2\n      keccak256\n        /* \"contracts/SimpleToken.sol\":5634:5668  stakedAmount[msg.sender] += amount */\n      dup1\n      sload\n        /* \"contracts/SimpleToken.sol\":5662:5668  amount */\n      dup4\n      swap3\n        /* \"contracts/SimpleToken.sol\":5634:5658  stakedAmount[msg.sender] */\n      swap1\n        /* \"contracts/SimpleToken.sol\":5634:5668  stakedAmount[msg.sender] += amount */\n      tag_281\n      swap1\n        /* \"contracts/SimpleToken.sol\":5662:5668  amount */\n      dup5\n      swap1\n        /* \"contracts/SimpleToken.sol\":5634:5668  stakedAmount[msg.sender] += amount */\n      tag_282\n      jump\t// in\n    tag_281:\n      swap1\n      swap2\n      sstore\n      pop\n      pop\n        /* \"contracts/SimpleToken.sol\":5696:5706  msg.sender */\n      caller\n        /* \"contracts/SimpleToken.sol\":5679:5707  stakingTimestamp[msg.sender] */\n      0x00\n      dup2\n      dup2\n      mstore\n        /* \"contracts/SimpleToken.sol\":5679:5695  stakingTimestamp */\n      0x0f\n        /* \"contracts/SimpleToken.sol\":5679:5707  stakingTimestamp[msg.sender] */\n      0x20\n      mstore\n      0x40\n      swap1\n      dup2\n      swap1\n      keccak256\n        /* \"contracts/SimpleToken.sol\":5710:5725  block.timestamp */\n      timestamp\n        /* \"contracts/SimpleToken.sol\":5679:5725  stakingTimestamp[msg.sender] = block.timestamp */\n      swap1\n      sstore\n        /* \"contracts/SimpleToken.sol\":5741:5773  TokensStaked(msg.sender, amount) */\n      mload\n      0xb539ca1e5c8d398ddf1c41c30166f33404941683be4683319b57669a93dad4ef\n      swap1\n      tag_283\n      swap1\n        /* \"contracts/SimpleToken.sol\":5766:5772  amount */\n      dup5\n        /* \"#utility.yul\":160:185   */\n      dup2\n      mstore\n        /* \"#utility.yul\":148:150   */\n      0x20\n        /* \"#utility.yul\":133:151   */\n      add\n      swap1\n        /* \"#utility.yul\":14:191   */\n      jump\n        /* \"contracts/SimpleToken.sol\":5741:5773  TokensStaked(msg.sender, amount) */\n    tag_283:\n      mload(0x40)\n      dup1\n      swap2\n      sub\n      swap1\n      log2\n        /* \"contracts/SimpleToken.sol\":5377:5781  function stakeTokens(uint256 amount) external {... */\n      pop\n      jump\t// out\n        /* \"contracts/SimpleToken.sol\":2886:3302  function mintReferralReward() external {... */\n    tag_144:\n        /* \"contracts/SimpleToken.sol\":2948:2963  presaleIsActive */\n      sload(0x05)\n      shl(0xa0, 0x01)\n      swap1\n      div\n      0xff\n      and\n        /* \"contracts/SimpleToken.sol\":2948:2969  presaleIsActive==true */\n      iszero\n      iszero\n        /* \"contracts/SimpleToken.sol\":2965:2969  true */\n      0x01\n        /* \"contracts/SimpleToken.sol\":2948:2969  presaleIsActive==true */\n      eq\n        /* \"contracts/SimpleToken.sol\":2940:2996  require(presaleIsActive==true,\"Presale not started yet\") */\n      tag_285\n      jumpi\n      mload(0x40)\n      shl(0xe5, 0x461bcd)\n      dup2\n      mstore\n        /* \"#utility.yul\":5639:5641   */\n      0x20\n        /* \"contracts/SimpleToken.sol\":2940:2996  require(presaleIsActive==true,\"Presale not started yet\") */\n      0x04\n      dup3\n      add\n        /* \"#utility.yul\":5621:5642   */\n      mstore\n        /* \"#utility.yul\":5678:5680   */\n      0x17\n        /* \"#utility.yul\":5658:5676   */\n      0x24\n      dup3\n      add\n        /* \"#utility.yul\":5651:5681   */\n      mstore\n        /* \"#utility.yul\":5717:5742   */\n      0x50726573616c65206e6f74207374617274656420796574000000000000000000\n        /* \"#utility.yul\":5697:5715   */\n      0x44\n      dup3\n      add\n        /* \"#utility.yul\":5690:5743   */\n      mstore\n        /* \"#utility.yul\":5760:5778   */\n      0x64\n      add\n        /* \"contracts/SimpleToken.sol\":2940:2996  require(presaleIsActive==true,\"Presale not started yet\") */\n      tag_254\n        /* \"#utility.yul\":5437:5784   */\n      jump\n        /* \"contracts/SimpleToken.sol\":2940:2996  require(presaleIsActive==true,\"Presale not started yet\") */\n    tag_285:\n        /* \"contracts/SimpleToken.sol\":3011:3031  uint256 rewardAmount */\n      0x00\n        /* \"contracts/SimpleToken.sol\":3034:3069  calculateReferralReward(msg.sender) */\n      tag_288\n        /* \"contracts/SimpleToken.sol\":3058:3068  msg.sender */\n      caller\n        /* \"contracts/SimpleToken.sol\":3034:3057  calculateReferralReward */\n      tag_148\n        /* \"contracts/SimpleToken.sol\":3034:3069  calculateReferralReward(msg.sender) */\n      jump\t// in\n    tag_288:\n        /* \"contracts/SimpleToken.sol\":3011:3069  uint256 rewardAmount = calculateReferralReward(msg.sender) */\n      swap1\n      pop\n        /* \"contracts/SimpleToken.sol\":3107:3108  0 */\n      0x00\n        /* \"contracts/SimpleToken.sol\":3092:3104  rewardAmount */\n      dup2\n        /* \"contracts/SimpleToken.sol\":3092:3108  rewardAmount > 0 */\n      gt\n        /* \"contracts/SimpleToken.sol\":3084:3133  require(rewardAmount > 0, \"No rewards available\") */\n      tag_289\n      jumpi\n      mload(0x40)\n      shl(0xe5, 0x461bcd)\n      dup2\n      mstore\n        /* \"#utility.yul\":5991:5993   */\n      0x20\n        /* \"contracts/SimpleToken.sol\":3084:3133  require(rewardAmount > 0, \"No rewards available\") */\n      0x04\n      dup3\n      add\n        /* \"#utility.yul\":5973:5994   */\n      mstore\n        /* \"#utility.yul\":6030:6032   */\n      0x14\n        /* \"#utility.yul\":6010:6028   */\n      0x24\n      dup3\n      add\n        /* \"#utility.yul\":6003:6033   */\n      mstore\n      shl(0x60, 0x4e6f207265776172647320617661696c61626c65)\n        /* \"#utility.yul\":6049:6067   */\n      0x44\n      dup3\n      add\n        /* \"#utility.yul\":6042:6092   */\n      mstore\n        /* \"#utility.yul\":6109:6127   */\n      0x64\n      add\n        /* \"contracts/SimpleToken.sol\":3084:3133  require(rewardAmount > 0, \"No rewards available\") */\n      tag_254\n        /* \"#utility.yul\":5789:6133   */\n      jump\n        /* \"contracts/SimpleToken.sol\":3084:3133  require(rewardAmount > 0, \"No rewards available\") */\n    tag_289:\n        /* \"contracts/SimpleToken.sol\":3148:3179  _mint(msg.sender, rewardAmount) */\n      tag_292\n        /* \"contracts/SimpleToken.sol\":3154:3164  msg.sender */\n      caller\n        /* \"contracts/SimpleToken.sol\":3166:3178  rewardAmount */\n      dup3\n        /* \"contracts/SimpleToken.sol\":3148:3153  _mint */\n      tag_293\n        /* \"contracts/SimpleToken.sol\":3148:3179  _mint(msg.sender, rewardAmount) */\n      jump\t// in\n    tag_292:\n        /* \"contracts/SimpleToken.sol\":3209:3219  msg.sender */\n      caller\n        /* \"contracts/SimpleToken.sol\":3223:3224  0 */\n      0x00\n        /* \"contracts/SimpleToken.sol\":3194:3220  referralCounts[msg.sender] */\n      dup2\n      dup2\n      mstore\n        /* \"contracts/SimpleToken.sol\":3194:3208  referralCounts */\n      0x12\n        /* \"contracts/SimpleToken.sol\":3194:3220  referralCounts[msg.sender] */\n      0x20\n      mstore\n      0x40\n      dup1\n      dup3\n      keccak256\n        /* \"contracts/SimpleToken.sol\":3194:3224  referralCounts[msg.sender] = 0 */\n      swap2\n      swap1\n      swap2\n      sstore\n        /* \"contracts/SimpleToken.sol\":3244:3290  ReferralRewardMinted(msg.sender, rewardAmount) */\n      mload\n      0xf0bc0a70fe19ef2d8dc1e1948b338a1184184fb1ea3ac836f24065828816d68d\n      swap1\n      tag_283\n      swap1\n        /* \"contracts/SimpleToken.sol\":3277:3289  rewardAmount */\n      dup5\n        /* \"#utility.yul\":160:185   */\n      dup2\n      mstore\n        /* \"#utility.yul\":148:150   */\n      0x20\n        /* \"#utility.yul\":133:151   */\n      add\n      swap1\n        /* \"#utility.yul\":14:191   */\n      jump\n        /* \"contracts/SimpleToken.sol\":2408:2564  function calculateReferralReward(address referrer) public view returns (uint256) {... */\n    tag_148:\n        /* \"contracts/SimpleToken.sol\":2480:2487  uint256 */\n      0x00\n        /* \"contracts/SimpleToken.sol\":2540:2556  10 ** decimals() */\n      tag_297\n        /* \"@openzeppelin/contracts/token/ERC20/ERC20.sol\":2780:2782  18 */\n      0x12\n        /* \"contracts/SimpleToken.sol\":2540:2542  10 */\n      0x0a\n        /* \"contracts/SimpleToken.sol\":2540:2556  10 ** decimals() */\n      tag_298\n      jump\t// in\n    tag_297:\n      sub(shl(0xa0, 0x01), 0x01)\n        /* \"contracts/SimpleToken.sol\":2507:2531  referralCounts[referrer] */\n      dup4\n      and\n      0x00\n      swap1\n      dup2\n      mstore\n        /* \"contracts/SimpleToken.sol\":2507:2521  referralCounts */\n      0x12\n        /* \"contracts/SimpleToken.sol\":2507:2531  referralCounts[referrer] */\n      0x20\n      mstore\n      0x40\n      swap1\n      keccak256\n      sload\n        /* \"contracts/SimpleToken.sol\":2507:2537  referralCounts[referrer] * 500 */\n      tag_299\n      swap1\n        /* \"contracts/SimpleToken.sol\":2534:2537  500 */\n      0x01f4\n        /* \"contracts/SimpleToken.sol\":2507:2537  referralCounts[referrer] * 500 */\n      tag_242\n      jump\t// in\n    tag_299:\n        /* \"contracts/SimpleToken.sol\":2507:2556  referralCounts[referrer] * 500 * 10 ** decimals() */\n      tag_231\n      swap2\n      swap1\n      tag_242\n      jump\t// in\n        /* \"@openzeppelin/contracts/token/ERC20/ERC20.sol\":1981:2074  function symbol() public view virtual returns (string memory) {... */\n    tag_162:\n        /* \"@openzeppelin/contracts/token/ERC20/ERC20.sol\":2028:2041  string memory */\n      0x60\n        /* \"@openzeppelin/contracts/token/ERC20/ERC20.sol\":2060:2067  _symbol */\n      0x04\n        /* \"@openzeppelin/contracts/token/ERC20/ERC20.sol\":2053:2067  return _symbol */\n      dup1\n      sload\n      tag_225\n      swap1\n      tag_226\n      jump\t// in\n        /* \"contracts/SimpleToken.sol\":1915:2396  function signUpForWhitelist(address referral) external {... */\n    tag_177:\n        /* \"contracts/SimpleToken.sol\":2000:2010  msg.sender */\n      caller\n        /* \"contracts/SimpleToken.sol\":1990:2011  whitelist[msg.sender] */\n      0x00\n      swap1\n      dup2\n      mstore\n        /* \"contracts/SimpleToken.sol\":1990:1999  whitelist */\n      0x10\n        /* \"contracts/SimpleToken.sol\":1990:2011  whitelist[msg.sender] */\n      0x20\n      mstore\n      0x40\n      swap1\n      keccak256\n      sload\n      0xff\n      and\n        /* \"contracts/SimpleToken.sol\":1989:2011  !whitelist[msg.sender] */\n      iszero\n        /* \"contracts/SimpleToken.sol\":1981:2035  require(!whitelist[msg.sender], \"Already whitelisted\") */\n      tag_309\n      jumpi\n      mload(0x40)\n      shl(0xe5, 0x461bcd)\n      dup2\n      mstore\n        /* \"#utility.yul\":7772:7774   */\n      0x20\n        /* \"contracts/SimpleToken.sol\":1981:2035  require(!whitelist[msg.sender], \"Already whitelisted\") */\n      0x04\n      dup3\n      add\n        /* \"#utility.yul\":7754:7775   */\n      mstore\n        /* \"#utility.yul\":7811:7813   */\n      0x13\n        /* \"#utility.yul\":7791:7809   */\n      0x24\n      dup3\n      add\n        /* \"#utility.yul\":7784:7814   */\n      mstore\n      shl(0x6a, 0x105b1c9958591e481dda1a5d195b1a5cdd1959)\n        /* \"#utility.yul\":7830:7848   */\n      0x44\n      dup3\n      add\n        /* \"#utility.yul\":7823:7872   */\n      mstore\n        /* \"#utility.yul\":7889:7907   */\n      0x64\n      add\n        /* \"contracts/SimpleToken.sol\":1981:2035  require(!whitelist[msg.sender], \"Already whitelisted\") */\n      tag_254\n        /* \"#utility.yul\":7570:7913   */\n      jump\n        /* \"contracts/SimpleToken.sol\":1981:2035  require(!whitelist[msg.sender], \"Already whitelisted\") */\n    tag_309:\n      sub(shl(0xa0, 0x01), 0x01)\n        /* \"contracts/SimpleToken.sol\":2054:2076  msg.sender != referral */\n      dup2\n      and\n        /* \"contracts/SimpleToken.sol\":2054:2064  msg.sender */\n      caller\n        /* \"contracts/SimpleToken.sol\":2054:2076  msg.sender != referral */\n      sub\n        /* \"contracts/SimpleToken.sol\":2046:2102  require(msg.sender != referral, \"Cannot refer yourself\") */\n      tag_312\n      jumpi\n      mload(0x40)\n      shl(0xe5, 0x461bcd)\n      dup2\n      mstore\n        /* \"#utility.yul\":8120:8122   */\n      0x20\n        /* \"contracts/SimpleToken.sol\":2046:2102  require(msg.sender != referral, \"Cannot refer yourself\") */\n      0x04\n      dup3\n      add\n        /* \"#utility.yul\":8102:8123   */\n      mstore\n        /* \"#utility.yul\":8159:8161   */\n      0x15\n        /* \"#utility.yul\":8139:8157   */\n      0x24\n      dup3\n      add\n        /* \"#utility.yul\":8132:8162   */\n      mstore\n      shl(0x59, 0x21b0b73737ba103932b332b9103cb7bab939b2b633)\n        /* \"#utility.yul\":8178:8196   */\n      0x44\n      dup3\n      add\n        /* \"#utility.yul\":8171:8222   */\n      mstore\n        /* \"#utility.yul\":8239:8257   */\n      0x64\n      add\n        /* \"contracts/SimpleToken.sol\":2046:2102  require(msg.sender != referral, \"Cannot refer yourself\") */\n      tag_254\n        /* \"#utility.yul\":7918:8263   */\n      jump\n        /* \"contracts/SimpleToken.sol\":2046:2102  require(msg.sender != referral, \"Cannot refer yourself\") */\n    tag_312:\n        /* \"contracts/SimpleToken.sol\":2133:2143  msg.sender */\n      caller\n        /* \"contracts/SimpleToken.sol\":2123:2144  whitelist[msg.sender] */\n      0x00\n      swap1\n      dup2\n      mstore\n        /* \"contracts/SimpleToken.sol\":2123:2132  whitelist */\n      0x10\n        /* \"contracts/SimpleToken.sol\":2123:2144  whitelist[msg.sender] */\n      0x20\n      mstore\n      0x40\n      swap1\n      keccak256\n        /* \"contracts/SimpleToken.sol\":2123:2151  whitelist[msg.sender] = true */\n      dup1\n      sload\n      not(0xff)\n      and\n        /* \"contracts/SimpleToken.sol\":2147:2151  true */\n      0x01\n        /* \"contracts/SimpleToken.sol\":2123:2151  whitelist[msg.sender] = true */\n      or\n      swap1\n      sstore\n      sub(shl(0xa0, 0x01), 0x01)\n        /* \"contracts/SimpleToken.sol\":2176:2198  referral != address(0) */\n      dup2\n      and\n      iszero\n      dup1\n      iszero\n      swap1\n        /* \"contracts/SimpleToken.sol\":2176:2221  referral != address(0) && whitelist[referral] */\n      tag_315\n      jumpi\n      pop\n      sub(shl(0xa0, 0x01), 0x01)\n        /* \"contracts/SimpleToken.sol\":2202:2221  whitelist[referral] */\n      dup2\n      and\n      0x00\n      swap1\n      dup2\n      mstore\n        /* \"contracts/SimpleToken.sol\":2202:2211  whitelist */\n      0x10\n        /* \"contracts/SimpleToken.sol\":2202:2221  whitelist[referral] */\n      0x20\n      mstore\n      0x40\n      swap1\n      keccak256\n      sload\n      0xff\n      and\n        /* \"contracts/SimpleToken.sol\":2176:2221  referral != address(0) && whitelist[referral] */\n    tag_315:\n        /* \"contracts/SimpleToken.sol\":2172:2326  if (referral != address(0) && whitelist[referral]) {... */\n      iszero\n      tag_316\n      jumpi\n        /* \"contracts/SimpleToken.sol\":2248:2258  msg.sender */\n      caller\n        /* \"contracts/SimpleToken.sol\":2238:2259  referrals[msg.sender] */\n      0x00\n      swap1\n      dup2\n      mstore\n        /* \"contracts/SimpleToken.sol\":2238:2247  referrals */\n      0x11\n        /* \"contracts/SimpleToken.sol\":2238:2259  referrals[msg.sender] */\n      0x20\n      swap1\n      dup2\n      mstore\n      0x40\n      dup1\n      dup4\n      keccak256\n        /* \"contracts/SimpleToken.sol\":2238:2270  referrals[msg.sender] = referral */\n      dup1\n      sload\n      not(sub(shl(0xa0, 0x01), 0x01))\n      and\n      sub(shl(0xa0, 0x01), 0x01)\n      dup7\n      and\n      swap1\n      dup2\n      or\n      swap1\n      swap2\n      sstore\n        /* \"contracts/SimpleToken.sol\":2285:2309  referralCounts[referral] */\n      dup4\n      mstore\n        /* \"contracts/SimpleToken.sol\":2285:2299  referralCounts */\n      0x12\n        /* \"contracts/SimpleToken.sol\":2285:2309  referralCounts[referral] */\n      swap1\n      swap2\n      mstore\n      dup2\n      keccak256\n        /* \"contracts/SimpleToken.sol\":2285:2314  referralCounts[referral] += 1 */\n      dup1\n      sload\n      0x01\n      swap3\n        /* \"contracts/SimpleToken.sol\":2238:2259  referrals[msg.sender] */\n      swap1\n        /* \"contracts/SimpleToken.sol\":2285:2314  referralCounts[referral] += 1 */\n      tag_317\n      swap1\n      dup5\n      swap1\n      tag_282\n      jump\t// in\n    tag_317:\n      swap1\n      swap2\n      sstore\n      pop\n      pop\n        /* \"contracts/SimpleToken.sol\":2172:2326  if (referral != address(0) && whitelist[referral]) {... */\n    tag_316:\n        /* \"contracts/SimpleToken.sol\":2351:2388  UserWhitelisted(msg.sender, referral) */\n      mload(0x40)\n      sub(shl(0xa0, 0x01), 0x01)\n      dup3\n      and\n      swap1\n        /* \"contracts/SimpleToken.sol\":2367:2377  msg.sender */\n      caller\n      swap1\n        /* \"contracts/SimpleToken.sol\":2351:2388  UserWhitelisted(msg.sender, referral) */\n      0x4bc18aa4b0095c9a3b5cdf42d2322d5a145591b04045988a995a5da426075457\n      swap1\n      0x00\n      swap1\n      log3\n        /* \"contracts/SimpleToken.sol\":1915:2396  function signUpForWhitelist(address referral) external {... */\n      pop\n      jump\t// out\n        /* \"contracts/SimpleToken.sol\":5789:6320  function unstakeTokens() external {... */\n    tag_180:\n        /* \"contracts/SimpleToken.sol\":5864:5874  msg.sender */\n      caller\n        /* \"contracts/SimpleToken.sol\":5834:5848  uint256 amount */\n      0x00\n        /* \"contracts/SimpleToken.sol\":5851:5875  stakedAmount[msg.sender] */\n      swap1\n      dup2\n      mstore\n        /* \"contracts/SimpleToken.sol\":5851:5863  stakedAmount */\n      0x0e\n        /* \"contracts/SimpleToken.sol\":5851:5875  stakedAmount[msg.sender] */\n      0x20\n      mstore\n      0x40\n      swap1\n      keccak256\n      sload\n        /* \"contracts/SimpleToken.sol\":5894:5904  amount > 0 */\n      dup1\n        /* \"contracts/SimpleToken.sol\":5886:5926  require(amount > 0, \"No tokens staked.\") */\n      tag_319\n      jumpi\n      mload(0x40)\n      shl(0xe5, 0x461bcd)\n      dup2\n      mstore\n        /* \"#utility.yul\":8470:8472   */\n      0x20\n        /* \"contracts/SimpleToken.sol\":5886:5926  require(amount > 0, \"No tokens staked.\") */\n      0x04\n      dup3\n      add\n        /* \"#utility.yul\":8452:8473   */\n      mstore\n        /* \"#utility.yul\":8509:8511   */\n      0x11\n        /* \"#utility.yul\":8489:8507   */\n      0x24\n      dup3\n      add\n        /* \"#utility.yul\":8482:8512   */\n      mstore\n      shl(0x79, 0x2737903a37b5b2b7399039ba30b5b2b217)\n        /* \"#utility.yul\":8528:8546   */\n      0x44\n      dup3\n      add\n        /* \"#utility.yul\":8521:8568   */\n      mstore\n        /* \"#utility.yul\":8585:8603   */\n      0x64\n      add\n        /* \"contracts/SimpleToken.sol\":5886:5926  require(amount > 0, \"No tokens staked.\") */\n      tag_254\n        /* \"#utility.yul\":8268:8609   */\n      jump\n        /* \"contracts/SimpleToken.sol\":5886:5926  require(amount > 0, \"No tokens staked.\") */\n    tag_319:\n        /* \"contracts/SimpleToken.sol\":5981:5991  msg.sender */\n      caller\n        /* \"contracts/SimpleToken.sol\":5964:5992  stakingTimestamp[msg.sender] */\n      0x00\n      swap1\n      dup2\n      mstore\n        /* \"contracts/SimpleToken.sol\":5964:5980  stakingTimestamp */\n      0x0f\n        /* \"contracts/SimpleToken.sol\":5964:5992  stakingTimestamp[msg.sender] */\n      0x20\n      mstore\n      0x40\n      swap1\n      keccak256\n      sload\n        /* \"contracts/SimpleToken.sol\":5964:6002  stakingTimestamp[msg.sender] + 4 weeks */\n      tag_322\n      swap1\n        /* \"contracts/SimpleToken.sol\":5995:6002  4 weeks */\n      0x24ea00\n        /* \"contracts/SimpleToken.sol\":5964:6002  stakingTimestamp[msg.sender] + 4 weeks */\n      tag_282\n      jump\t// in\n    tag_322:\n        /* \"contracts/SimpleToken.sol\":5945:5960  block.timestamp */\n      timestamp\n        /* \"contracts/SimpleToken.sol\":5945:6002  block.timestamp >= stakingTimestamp[msg.sender] + 4 weeks */\n      lt\n      iszero\n        /* \"contracts/SimpleToken.sol\":5937:6034  require(block.timestamp >= stakingTimestamp[msg.sender] + 4 weeks, \"Unstake only after 4 weeks.\") */\n      tag_323\n      jumpi\n      mload(0x40)\n      shl(0xe5, 0x461bcd)\n      dup2\n      mstore\n        /* \"#utility.yul\":8816:8818   */\n      0x20\n        /* \"contracts/SimpleToken.sol\":5937:6034  require(block.timestamp >= stakingTimestamp[msg.sender] + 4 weeks, \"Unstake only after 4 weeks.\") */\n      0x04\n      dup3\n      add\n        /* \"#utility.yul\":8798:8819   */\n      mstore\n        /* \"#utility.yul\":8855:8857   */\n      0x1b\n        /* \"#utility.yul\":8835:8853   */\n      0x24\n      dup3\n      add\n        /* \"#utility.yul\":8828:8858   */\n      mstore\n        /* \"#utility.yul\":8894:8923   */\n      0x556e7374616b65206f6e6c792061667465722034207765656b732e0000000000\n        /* \"#utility.yul\":8874:8892   */\n      0x44\n      dup3\n      add\n        /* \"#utility.yul\":8867:8924   */\n      mstore\n        /* \"#utility.yul\":8941:8959   */\n      0x64\n      add\n        /* \"contracts/SimpleToken.sol\":5937:6034  require(block.timestamp >= stakingTimestamp[msg.sender] + 4 weeks, \"Unstake only after 4 weeks.\") */\n      tag_254\n        /* \"#utility.yul\":8614:8965   */\n      jump\n        /* \"contracts/SimpleToken.sol\":5937:6034  require(block.timestamp >= stakingTimestamp[msg.sender] + 4 weeks, \"Unstake only after 4 weeks.\") */\n    tag_323:\n        /* \"contracts/SimpleToken.sol\":6055:6069  uint256 reward */\n      0x00\n        /* \"contracts/SimpleToken.sol\":6072:6106  calculateStakingReward(msg.sender) */\n      tag_326\n        /* \"contracts/SimpleToken.sol\":6095:6105  msg.sender */\n      caller\n        /* \"contracts/SimpleToken.sol\":6072:6094  calculateStakingReward */\n      tag_73\n        /* \"contracts/SimpleToken.sol\":6072:6106  calculateStakingReward(msg.sender) */\n      jump\t// in\n    tag_326:\n        /* \"contracts/SimpleToken.sol\":6130:6140  msg.sender */\n      caller\n        /* \"contracts/SimpleToken.sol\":6144:6145  0 */\n      0x00\n        /* \"contracts/SimpleToken.sol\":6117:6141  stakedAmount[msg.sender] */\n      dup2\n      dup2\n      mstore\n        /* \"contracts/SimpleToken.sol\":6117:6129  stakedAmount */\n      0x0e\n        /* \"contracts/SimpleToken.sol\":6117:6141  stakedAmount[msg.sender] */\n      0x20\n      swap1\n      dup2\n      mstore\n      0x40\n      dup1\n      dup4\n      keccak256\n        /* \"contracts/SimpleToken.sol\":6117:6145  stakedAmount[msg.sender] = 0 */\n      dup4\n      swap1\n      sstore\n        /* \"contracts/SimpleToken.sol\":6156:6172  stakingTimestamp */\n      0x0f\n        /* \"contracts/SimpleToken.sol\":6156:6184  stakingTimestamp[msg.sender] */\n      swap1\n      swap2\n      mstore\n      dup2\n      keccak256\n        /* \"contracts/SimpleToken.sol\":6156:6188  stakingTimestamp[msg.sender] = 0 */\n      sstore\n        /* \"contracts/SimpleToken.sol\":6055:6106  uint256 reward = calculateStakingReward(msg.sender) */\n      swap1\n      swap2\n      pop\n        /* \"contracts/SimpleToken.sol\":6201:6254  _transfer(address(this), msg.sender, amount + reward) */\n      tag_327\n      swap1\n        /* \"contracts/SimpleToken.sol\":6219:6223  this */\n      address\n      swap1\n        /* \"contracts/SimpleToken.sol\":6238:6253  amount + reward */\n      tag_328\n        /* \"contracts/SimpleToken.sol\":6055:6106  uint256 reward = calculateStakingReward(msg.sender) */\n      dup5\n        /* \"contracts/SimpleToken.sol\":6238:6244  amount */\n      dup7\n        /* \"contracts/SimpleToken.sol\":6238:6253  amount + reward */\n      tag_282\n      jump\t// in\n    tag_328:\n        /* \"contracts/SimpleToken.sol\":6201:6210  _transfer */\n      tag_251\n        /* \"contracts/SimpleToken.sol\":6201:6254  _transfer(address(this), msg.sender, amount + reward) */\n      jump\t// in\n    tag_327:\n        /* \"contracts/SimpleToken.sol\":6270:6312  TokensUnstaked(msg.sender, amount, reward) */\n      0x40\n      dup1\n      mload\n        /* \"#utility.yul\":9144:9169   */\n      dup4\n      dup2\n      mstore\n        /* \"#utility.yul\":9200:9202   */\n      0x20\n        /* \"#utility.yul\":9185:9203   */\n      dup2\n      add\n        /* \"#utility.yul\":9178:9212   */\n      dup4\n      swap1\n      mstore\n        /* \"contracts/SimpleToken.sol\":6285:6295  msg.sender */\n      caller\n      swap2\n        /* \"contracts/SimpleToken.sol\":6270:6312  TokensUnstaked(msg.sender, amount, reward) */\n      0x6f2d3e000c89d37446b7c0374c0125068ff316d1e3ee302336478a8cd03c2336\n      swap2\n        /* \"#utility.yul\":9117:9135   */\n      add\n        /* \"contracts/SimpleToken.sol\":6270:6312  TokensUnstaked(msg.sender, amount, reward) */\n      mload(0x40)\n      dup1\n      swap2\n      sub\n      swap1\n      log2\n        /* \"contracts/SimpleToken.sol\":5823:6320  {... */\n      pop\n      pop\n        /* \"contracts/SimpleToken.sol\":5789:6320  function unstakeTokens() external {... */\n      jump\t// out\n        /* \"@openzeppelin/contracts/token/ERC20/ERC20.sol\":3315:3493  function transfer(address to, uint256 value) public virtual returns (bool) {... */\n    tag_184:\n        /* \"@openzeppelin/contracts/token/ERC20/ERC20.sol\":3384:3388  bool */\n      0x00\n        /* \"@openzeppelin/contracts/utils/Context.sol\":735:745  msg.sender */\n      caller\n        /* \"@openzeppelin/contracts/token/ERC20/ERC20.sol\":3438:3465  _transfer(owner, to, value) */\n      tag_234\n        /* \"@openzeppelin/contracts/utils/Context.sol\":735:745  msg.sender */\n      dup2\n        /* \"@openzeppelin/contracts/token/ERC20/ERC20.sol\":3455:3457  to */\n      dup6\n        /* \"@openzeppelin/contracts/token/ERC20/ERC20.sol\":3459:3464  value */\n      dup6\n        /* \"@openzeppelin/contracts/token/ERC20/ERC20.sol\":3438:3447  _transfer */\n      tag_251\n        /* \"@openzeppelin/contracts/token/ERC20/ERC20.sol\":3438:3465  _transfer(owner, to, value) */\n      jump\t// in\n        /* \"contracts/SimpleToken.sol\":4641:5266  function buyTokens() external payable {... */\n    tag_196:\n        /* \"contracts/SimpleToken.sol\":4694:4709  presaleIsActive */\n      sload(0x05)\n      shl(0xa0, 0x01)\n      swap1\n      div\n      0xff\n      and\n        /* \"contracts/SimpleToken.sol\":4686:4730  require(presaleIsActive, \"Sale not active.\") */\n      tag_335\n      jumpi\n      mload(0x40)\n      shl(0xe5, 0x461bcd)\n      dup2\n      mstore\n        /* \"#utility.yul\":9425:9427   */\n      0x20\n        /* \"contracts/SimpleToken.sol\":4686:4730  require(presaleIsActive, \"Sale not active.\") */\n      0x04\n      dup3\n      add\n        /* \"#utility.yul\":9407:9428   */\n      mstore\n        /* \"#utility.yul\":9464:9466   */\n      0x10\n        /* \"#utility.yul\":9444:9462   */\n      0x24\n      dup3\n      add\n        /* \"#utility.yul\":9437:9467   */\n      mstore\n      shl(0x81, 0x29b0b632903737ba1030b1ba34bb3297)\n        /* \"#utility.yul\":9483:9501   */\n      0x44\n      dup3\n      add\n        /* \"#utility.yul\":9476:9522   */\n      mstore\n        /* \"#utility.yul\":9539:9557   */\n      0x64\n      add\n        /* \"contracts/SimpleToken.sol\":4686:4730  require(presaleIsActive, \"Sale not active.\") */\n      tag_254\n        /* \"#utility.yul\":9223:9563   */\n      jump\n        /* \"contracts/SimpleToken.sol\":4686:4730  require(presaleIsActive, \"Sale not active.\") */\n    tag_335:\n        /* \"contracts/SimpleToken.sol\":4757:4758  0 */\n      0x00\n        /* \"contracts/SimpleToken.sol\":4745:4754  msg.value */\n      callvalue\n        /* \"contracts/SimpleToken.sol\":4745:4758  msg.value > 0 */\n      gt\n        /* \"contracts/SimpleToken.sol\":4737:4791  require(msg.value > 0, \"Must send ETH to buy tokens.\") */\n      tag_338\n      jumpi\n      mload(0x40)\n      shl(0xe5, 0x461bcd)\n      dup2\n      mstore\n        /* \"#utility.yul\":9770:9772   */\n      0x20\n        /* \"contracts/SimpleToken.sol\":4737:4791  require(msg.value > 0, \"Must send ETH to buy tokens.\") */\n      0x04\n      dup3\n      add\n        /* \"#utility.yul\":9752:9773   */\n      mstore\n        /* \"#utility.yul\":9809:9811   */\n      0x1c\n        /* \"#utility.yul\":9789:9807   */\n      0x24\n      dup3\n      add\n        /* \"#utility.yul\":9782:9812   */\n      mstore\n        /* \"#utility.yul\":9848:9878   */\n      0x4d7573742073656e642045544820746f2062757920746f6b656e732e00000000\n        /* \"#utility.yul\":9828:9846   */\n      0x44\n      dup3\n      add\n        /* \"#utility.yul\":9821:9879   */\n      mstore\n        /* \"#utility.yul\":9896:9914   */\n      0x64\n      add\n        /* \"contracts/SimpleToken.sol\":4737:4791  require(msg.value > 0, \"Must send ETH to buy tokens.\") */\n      tag_254\n        /* \"#utility.yul\":9568:9920   */\n      jump\n        /* \"contracts/SimpleToken.sol\":4737:4791  require(msg.value > 0, \"Must send ETH to buy tokens.\") */\n    tag_338:\n        /* \"contracts/SimpleToken.sol\":4800:4820  uint256 currentPrice */\n      0x00\n        /* \"contracts/SimpleToken.sol\":4823:4839  calculatePrice() */\n      tag_341\n        /* \"contracts/SimpleToken.sol\":4823:4837  calculatePrice */\n      tag_199\n        /* \"contracts/SimpleToken.sol\":4823:4839  calculatePrice() */\n      jump\t// in\n    tag_341:\n        /* \"contracts/SimpleToken.sol\":4800:4839  uint256 currentPrice = calculatePrice() */\n      swap1\n      pop\n        /* \"contracts/SimpleToken.sol\":4884:4903  uint256 tokensToBuy */\n      0x00\n        /* \"contracts/SimpleToken.sol\":4800:4839  uint256 currentPrice = calculatePrice() */\n      dup2\n        /* \"contracts/SimpleToken.sol\":4919:4944  10 ** uint256(decimals()) */\n      tag_343\n        /* \"@openzeppelin/contracts/token/ERC20/ERC20.sol\":2780:2782  18 */\n      0x12\n        /* \"contracts/SimpleToken.sol\":4919:4921  10 */\n      0x0a\n        /* \"contracts/SimpleToken.sol\":4919:4944  10 ** uint256(decimals()) */\n      tag_344\n      jump\t// in\n    tag_343:\n        /* \"contracts/SimpleToken.sol\":4907:4944  msg.value * 10 ** uint256(decimals()) */\n      tag_345\n      swap1\n        /* \"contracts/SimpleToken.sol\":4907:4916  msg.value */\n      callvalue\n        /* \"contracts/SimpleToken.sol\":4907:4944  msg.value * 10 ** uint256(decimals()) */\n      tag_242\n      jump\t// in\n    tag_345:\n        /* \"contracts/SimpleToken.sol\":4906:4960  (msg.value * 10 ** uint256(decimals())) / currentPrice */\n      tag_346\n      swap2\n      swap1\n      tag_240\n      jump\t// in\n    tag_346:\n        /* \"contracts/SimpleToken.sol\":4993:4997  this */\n      address\n        /* \"@openzeppelin/contracts/token/ERC20/ERC20.sol\":3069:3076  uint256 */\n      0x00\n        /* \"@openzeppelin/contracts/token/ERC20/ERC20.sol\":3095:3113  _balances[account] */\n      swap1\n      dup2\n      mstore\n      0x20\n      dup2\n      swap1\n      mstore\n      0x40\n      swap1\n      keccak256\n      sload\n        /* \"contracts/SimpleToken.sol\":4884:4960  uint256 tokensToBuy = (msg.value * 10 ** uint256(decimals())) / currentPrice */\n      swap1\n      swap2\n      pop\n      dup2\n      gt\n        /* \"contracts/SimpleToken.sol\":4975:5014  balanceOf(address(this)) >= tokensToBuy */\n      iszero\n        /* \"contracts/SimpleToken.sol\":4967:5047  require(balanceOf(address(this)) >= tokensToBuy, \"Not enough tokens available.\") */\n      tag_348\n      jumpi\n      mload(0x40)\n      shl(0xe5, 0x461bcd)\n      dup2\n      mstore\n        /* \"#utility.yul\":10263:10265   */\n      0x20\n        /* \"contracts/SimpleToken.sol\":4967:5047  require(balanceOf(address(this)) >= tokensToBuy, \"Not enough tokens available.\") */\n      0x04\n      dup3\n      add\n        /* \"#utility.yul\":10245:10266   */\n      mstore\n        /* \"#utility.yul\":10302:10304   */\n      0x1c\n        /* \"#utility.yul\":10282:10300   */\n      0x24\n      dup3\n      add\n        /* \"#utility.yul\":10275:10305   */\n      mstore\n        /* \"#utility.yul\":10341:10371   */\n      0x4e6f7420656e6f75676820746f6b656e7320617661696c61626c652e00000000\n        /* \"#utility.yul\":10321:10339   */\n      0x44\n      dup3\n      add\n        /* \"#utility.yul\":10314:10372   */\n      mstore\n        /* \"#utility.yul\":10389:10407   */\n      0x64\n      add\n        /* \"contracts/SimpleToken.sol\":4967:5047  require(balanceOf(address(this)) >= tokensToBuy, \"Not enough tokens available.\") */\n      tag_254\n        /* \"#utility.yul\":10061:10413   */\n      jump\n        /* \"contracts/SimpleToken.sol\":4967:5047  require(balanceOf(address(this)) >= tokensToBuy, \"Not enough tokens available.\") */\n    tag_348:\n        /* \"contracts/SimpleToken.sol\":5063:5073  msg.sender */\n      caller\n        /* \"contracts/SimpleToken.sol\":5054:5074  balances[msg.sender] */\n      0x00\n      swap1\n      dup2\n      mstore\n        /* \"contracts/SimpleToken.sol\":5054:5062  balances */\n      0x13\n        /* \"contracts/SimpleToken.sol\":5054:5074  balances[msg.sender] */\n      0x20\n      mstore\n      0x40\n      dup2\n      keccak256\n        /* \"contracts/SimpleToken.sol\":5054:5089  balances[msg.sender] += tokensToBuy */\n      dup1\n      sload\n        /* \"contracts/SimpleToken.sol\":5078:5089  tokensToBuy */\n      dup4\n      swap3\n        /* \"contracts/SimpleToken.sol\":5054:5074  balances[msg.sender] */\n      swap1\n        /* \"contracts/SimpleToken.sol\":5054:5089  balances[msg.sender] += tokensToBuy */\n      tag_351\n      swap1\n        /* \"contracts/SimpleToken.sol\":5078:5089  tokensToBuy */\n      dup5\n      swap1\n        /* \"contracts/SimpleToken.sol\":5054:5089  balances[msg.sender] += tokensToBuy */\n      tag_282\n      jump\t// in\n    tag_351:\n      swap1\n      swap2\n      sstore\n      pop\n        /* \"contracts/SimpleToken.sol\":5096:5145  _transfer(address(this), msg.sender, tokensToBuy) */\n      tag_352\n      swap1\n      pop\n        /* \"contracts/SimpleToken.sol\":5114:5118  this */\n      address\n        /* \"contracts/SimpleToken.sol\":5121:5131  msg.sender */\n      caller\n        /* \"contracts/SimpleToken.sol\":5133:5144  tokensToBuy */\n      dup4\n        /* \"contracts/SimpleToken.sol\":5096:5105  _transfer */\n      tag_251\n        /* \"contracts/SimpleToken.sol\":5096:5145  _transfer(address(this), msg.sender, tokensToBuy) */\n      jump\t// in\n    tag_352:\n        /* \"contracts/SimpleToken.sol\":5166:5177  tokensToBuy */\n      dup1\n        /* \"contracts/SimpleToken.sol\":5152:5162  tokensSold */\n      0x0b\n      0x00\n        /* \"contracts/SimpleToken.sol\":5152:5177  tokensSold += tokensToBuy */\n      dup3\n      dup3\n      sload\n      tag_353\n      swap2\n      swap1\n      tag_282\n      jump\t// in\n    tag_353:\n      swap1\n      swap2\n      sstore\n      pop\n      pop\n        /* \"contracts/SimpleToken.sol\":5191:5239  Transfer(address(this), msg.sender, tokensToBuy) */\n      mload(0x40)\n        /* \"#utility.yul\":160:185   */\n      dup2\n      dup2\n      mstore\n        /* \"contracts/SimpleToken.sol\":5215:5225  msg.sender */\n      caller\n      swap1\n        /* \"contracts/SimpleToken.sol\":5208:5212  this */\n      address\n      swap1\n        /* \"contracts/SimpleToken.sol\":5191:5239  Transfer(address(this), msg.sender, tokensToBuy) */\n      0xddf252ad1be2c89b69c2b068fc378daa952ba7f163c4a11628f55a4df523b3ef\n      swap1\n        /* \"#utility.yul\":148:150   */\n      0x20\n        /* \"#utility.yul\":133:151   */\n      add\n        /* \"contracts/SimpleToken.sol\":5191:5239  Transfer(address(this), msg.sender, tokensToBuy) */\n      mload(0x40)\n      dup1\n      swap2\n      sub\n      swap1\n      log3\n        /* \"contracts/SimpleToken.sol\":4679:5266  {... */\n      pop\n      pop\n        /* \"contracts/SimpleToken.sol\":4641:5266  function buyTokens() external payable {... */\n      jump\t// out\n        /* \"contracts/SimpleToken.sol\":4188:4564  function calculatePrice() public view returns (uint256) {... */\n    tag_199:\n        /* \"contracts/SimpleToken.sol\":4263:4278  presaleIsActive */\n      sload(0x05)\n        /* \"contracts/SimpleToken.sol\":4235:4242  uint256 */\n      0x00\n      swap1\n      shl(0xa0, 0x01)\n        /* \"contracts/SimpleToken.sol\":4263:4278  presaleIsActive */\n      swap1\n      div\n      0xff\n      and\n        /* \"contracts/SimpleToken.sol\":4255:4306  require(presaleIsActive,\"Pre-sale not started yet\") */\n      tag_356\n      jumpi\n      mload(0x40)\n      shl(0xe5, 0x461bcd)\n      dup2\n      mstore\n        /* \"#utility.yul\":10620:10622   */\n      0x20\n        /* \"contracts/SimpleToken.sol\":4255:4306  require(presaleIsActive,\"Pre-sale not started yet\") */\n      0x04\n      dup3\n      add\n        /* \"#utility.yul\":10602:10623   */\n      mstore\n        /* \"#utility.yul\":10659:10661   */\n      0x18\n        /* \"#utility.yul\":10639:10657   */\n      0x24\n      dup3\n      add\n        /* \"#utility.yul\":10632:10662   */\n      mstore\n        /* \"#utility.yul\":10698:10724   */\n      0x5072652d73616c65206e6f742073746172746564207965740000000000000000\n        /* \"#utility.yul\":10678:10696   */\n      0x44\n      dup3\n      add\n        /* \"#utility.yul\":10671:10725   */\n      mstore\n        /* \"#utility.yul\":10742:10760   */\n      0x64\n      add\n        /* \"contracts/SimpleToken.sol\":4255:4306  require(presaleIsActive,\"Pre-sale not started yet\") */\n      tag_254\n        /* \"#utility.yul\":10418:10766   */\n      jump\n        /* \"contracts/SimpleToken.sol\":4255:4306  require(presaleIsActive,\"Pre-sale not started yet\") */\n    tag_356:\n        /* \"contracts/SimpleToken.sol\":4340:4354  preSaleEndTime */\n      sload(0x07)\n        /* \"contracts/SimpleToken.sol\":4322:4337  block.timestamp */\n      timestamp\n        /* \"contracts/SimpleToken.sol\":4322:4354  block.timestamp > preSaleEndTime */\n      gt\n        /* \"contracts/SimpleToken.sol\":4317:4406  if ( block.timestamp > preSaleEndTime) {... */\n      iszero\n      tag_359\n      jumpi\n      pop\n        /* \"contracts/SimpleToken.sol\":4378:4394  regularSalePrice */\n      sload(0x09)\n      swap1\n        /* \"contracts/SimpleToken.sol\":4188:4564  function calculatePrice() public view returns (uint256) {... */\n      jump\t// out\n        /* \"contracts/SimpleToken.sol\":4317:4406  if ( block.timestamp > preSaleEndTime) {... */\n    tag_359:\n        /* \"contracts/SimpleToken.sol\":4418:4439  uint256 priceIncrease */\n      0x00\n        /* \"contracts/SimpleToken.sol\":4442:4466  calculatePriceIncrease() */\n      tag_360\n        /* \"contracts/SimpleToken.sol\":4442:4464  calculatePriceIncrease */\n      tag_115\n        /* \"contracts/SimpleToken.sol\":4442:4466  calculatePriceIncrease() */\n      jump\t// in\n    tag_360:\n        /* \"contracts/SimpleToken.sol\":4418:4466  uint256 priceIncrease = calculatePriceIncrease() */\n      swap1\n      pop\n        /* \"contracts/SimpleToken.sol\":4477:4497  uint256 currentPrice */\n      0x00\n        /* \"contracts/SimpleToken.sol\":4513:4526  priceIncrease */\n      dup2\n        /* \"contracts/SimpleToken.sol\":4500:4512  initialPrice */\n      sload(0x08)\n        /* \"contracts/SimpleToken.sol\":4500:4526  initialPrice+priceIncrease */\n      tag_244\n      swap2\n      swap1\n      tag_282\n      jump\t// in\n        /* \"@openzeppelin/contracts/access/Ownable.sol\":2543:2758  function transferOwnership(address newOwner) public virtual onlyOwner {... */\n    tag_210:\n        /* \"@openzeppelin/contracts/access/Ownable.sol\":1531:1544  _checkOwner() */\n      tag_364\n        /* \"@openzeppelin/contracts/access/Ownable.sol\":1531:1542  _checkOwner */\n      tag_268\n        /* \"@openzeppelin/contracts/access/Ownable.sol\":1531:1544  _checkOwner() */\n      jump\t// in\n    tag_364:\n      sub(shl(0xa0, 0x01), 0x01)\n        /* \"@openzeppelin/contracts/access/Ownable.sol\":2627:2649  newOwner == address(0) */\n      dup2\n      and\n        /* \"@openzeppelin/contracts/access/Ownable.sol\":2623:2714  if (newOwner == address(0)) {... */\n      tag_366\n      jumpi\n        /* \"@openzeppelin/contracts/access/Ownable.sol\":2672:2703  OwnableInvalidOwner(address(0)) */\n      mload(0x40)\n      shl(0xe0, 0x1e4fbdf7)\n      dup2\n      mstore\n        /* \"@openzeppelin/contracts/access/Ownable.sol\":2700:2701  0 */\n      0x00\n        /* \"@openzeppelin/contracts/access/Ownable.sol\":2672:2703  OwnableInvalidOwner(address(0)) */\n      0x04\n      dup3\n      add\n        /* \"#utility.yul\":2781:2832   */\n      mstore\n        /* \"#utility.yul\":2754:2772   */\n      0x24\n      add\n        /* \"@openzeppelin/contracts/access/Ownable.sol\":2672:2703  OwnableInvalidOwner(address(0)) */\n      tag_254\n        /* \"#utility.yul\":2635:2838   */\n      jump\n        /* \"@openzeppelin/contracts/access/Ownable.sol\":2623:2714  if (newOwner == address(0)) {... */\n    tag_366:\n        /* \"@openzeppelin/contracts/access/Ownable.sol\":2723:2751  _transferOwnership(newOwner) */\n      tag_368\n        /* \"@openzeppelin/contracts/access/Ownable.sol\":2742:2750  newOwner */\n      dup2\n        /* \"@openzeppelin/contracts/access/Ownable.sol\":2723:2741  _transferOwnership */\n      tag_271\n        /* \"@openzeppelin/contracts/access/Ownable.sol\":2723:2751  _transferOwnership(newOwner) */\n      jump\t// in\n    tag_368:\n        /* \"@openzeppelin/contracts/access/Ownable.sol\":2543:2758  function transferOwnership(address newOwner) public virtual onlyOwner {... */\n      pop\n      jump\t// out\n        /* \"contracts/SimpleToken.sol\":3427:3865  function startPreSale(uint256 _startTime, uint256 _durationWeeks) external onlyOwner {... */\n    tag_223:\n        /* \"@openzeppelin/contracts/access/Ownable.sol\":1531:1544  _checkOwner() */\n      tag_370\n        /* \"@openzeppelin/contracts/access/Ownable.sol\":1531:1542  _checkOwner */\n      tag_268\n        /* \"@openzeppelin/contracts/access/Ownable.sol\":1531:1544  _checkOwner() */\n      jump\t// in\n    tag_370:\n        /* \"contracts/SimpleToken.sol\":3611:3627  preSaleStartTime */\n      0x06\n        /* \"contracts/SimpleToken.sol\":3611:3640  preSaleStartTime = _startTime */\n      dup3\n      swap1\n      sstore\n        /* \"contracts/SimpleToken.sol\":3688:3712  _durationWeeks * 1 weeks */\n      tag_372\n        /* \"contracts/SimpleToken.sol\":3688:3702  _durationWeeks */\n      dup2\n        /* \"contracts/SimpleToken.sol\":3705:3712  1 weeks */\n      0x093a80\n        /* \"contracts/SimpleToken.sol\":3688:3712  _durationWeeks * 1 weeks */\n      tag_242\n      jump\t// in\n    tag_372:\n        /* \"contracts/SimpleToken.sol\":3668:3684  preSaleStartTime */\n      sload(0x06)\n        /* \"contracts/SimpleToken.sol\":3668:3713  preSaleStartTime + (_durationWeeks * 1 weeks) */\n      tag_373\n      swap2\n      swap1\n      tag_282\n      jump\t// in\n    tag_373:\n        /* \"contracts/SimpleToken.sol\":3651:3665  preSaleEndTime */\n      0x07\n        /* \"contracts/SimpleToken.sol\":3651:3713  preSaleEndTime = preSaleStartTime + (_durationWeeks * 1 weeks) */\n      dup2\n      swap1\n      sstore\n        /* \"contracts/SimpleToken.sol\":3724:3743  preSaleWeeksInWeeks */\n      0x0c\n        /* \"contracts/SimpleToken.sol\":3724:3760  preSaleWeeksInWeeks = _durationWeeks */\n      dup3\n      swap1\n      sstore\n        /* \"contracts/SimpleToken.sol\":3771:3786  presaleIsActive */\n      0x05\n        /* \"contracts/SimpleToken.sol\":3771:3793  presaleIsActive = true */\n      dup1\n      sload\n      not(shl(0xa0, 0xff))\n      and\n      shl(0xa0, 0x01)\n      or\n      swap1\n      sstore\n        /* \"contracts/SimpleToken.sol\":3824:3840  preSaleStartTime */\n      sload(0x06)\n        /* \"contracts/SimpleToken.sol\":3809:3857  PreSaleStarted(preSaleStartTime, preSaleEndTime) */\n      mload(0x40)\n      0x3844853be672b18d859394aa37e05615b95b78e66b4dc37dca98d1db1b05ea7d\n      swap3\n      tag_374\n      swap3\n        /* \"#utility.yul\":9144:9169   */\n      dup3\n      mstore\n        /* \"#utility.yul\":9200:9202   */\n      0x20\n        /* \"#utility.yul\":9185:9203   */\n      dup3\n      add\n        /* \"#utility.yul\":9178:9212   */\n      mstore\n        /* \"#utility.yul\":9132:9134   */\n      0x40\n        /* \"#utility.yul\":9117:9135   */\n      add\n      swap1\n        /* \"#utility.yul\":8970:9218   */\n      jump\n        /* \"contracts/SimpleToken.sol\":3809:3857  PreSaleStarted(preSaleStartTime, preSaleEndTime) */\n    tag_374:\n      mload(0x40)\n      dup1\n      swap2\n      sub\n      swap1\n      log1\n        /* \"contracts/SimpleToken.sol\":3427:3865  function startPreSale(uint256 _startTime, uint256 _durationWeeks) external onlyOwner {... */\n      pop\n      pop\n      jump\t// out\n        /* \"@openzeppelin/contracts/token/ERC20/ERC20.sol\":8726:8854  function _approve(address owner, address spender, uint256 value) internal {... */\n    tag_235:\n        /* \"@openzeppelin/contracts/token/ERC20/ERC20.sol\":8810:8847  _approve(owner, spender, value, true) */\n      tag_377\n        /* \"@openzeppelin/contracts/token/ERC20/ERC20.sol\":8819:8824  owner */\n      dup4\n        /* \"@openzeppelin/contracts/token/ERC20/ERC20.sol\":8826:8833  spender */\n      dup4\n        /* \"@openzeppelin/contracts/token/ERC20/ERC20.sol\":8835:8840  value */\n      dup4\n        /* \"@openzeppelin/contracts/token/ERC20/ERC20.sol\":8842:8846  true */\n      0x01\n        /* \"@openzeppelin/contracts/token/ERC20/ERC20.sol\":8810:8818  _approve */\n      tag_378\n        /* \"@openzeppelin/contracts/token/ERC20/ERC20.sol\":8810:8847  _approve(owner, spender, value, true) */\n      jump\t// in\n    tag_377:\n        /* \"@openzeppelin/contracts/token/ERC20/ERC20.sol\":8726:8854  function _approve(address owner, address spender, uint256 value) internal {... */\n      pop\n      pop\n      pop\n      jump\t// out\n        /* \"@openzeppelin/contracts/token/ERC20/ERC20.sol\":10415:10891  function _spendAllowance(address owner, address spender, uint256 value) internal virtual {... */\n    tag_249:\n      sub(shl(0xa0, 0x01), 0x01)\n        /* \"@openzeppelin/contracts/token/ERC20/ERC20.sol\":3657:3675  _allowances[owner] */\n      dup4\n      dup2\n      and\n        /* \"@openzeppelin/contracts/token/ERC20/ERC20.sol\":10514:10538  uint256 currentAllowance */\n      0x00\n        /* \"@openzeppelin/contracts/token/ERC20/ERC20.sol\":3657:3675  _allowances[owner] */\n      swap1\n      dup2\n      mstore\n        /* \"@openzeppelin/contracts/token/ERC20/ERC20.sol\":3657:3668  _allowances */\n      0x01\n        /* \"@openzeppelin/contracts/token/ERC20/ERC20.sol\":3657:3675  _allowances[owner] */\n      0x20\n      swap1\n      dup2\n      mstore\n      0x40\n      dup1\n      dup4\n      keccak256\n        /* \"@openzeppelin/contracts/token/ERC20/ERC20.sol\":3657:3684  _allowances[owner][spender] */\n      swap4\n      dup7\n      and\n      dup4\n      mstore\n      swap3\n      swap1\n      mstore\n      keccak256\n      sload\n      not(0x00)\n        /* \"@openzeppelin/contracts/token/ERC20/ERC20.sol\":10580:10616  currentAllowance < type(uint256).max */\n      dup2\n      lt\n        /* \"@openzeppelin/contracts/token/ERC20/ERC20.sol\":10576:10885  if (currentAllowance < type(uint256).max) {... */\n      iszero\n      tag_385\n      jumpi\n        /* \"@openzeppelin/contracts/token/ERC20/ERC20.sol\":10655:10660  value */\n      dup2\n        /* \"@openzeppelin/contracts/token/ERC20/ERC20.sol\":10636:10652  currentAllowance */\n      dup2\n        /* \"@openzeppelin/contracts/token/ERC20/ERC20.sol\":10636:10660  currentAllowance < value */\n      lt\n        /* \"@openzeppelin/contracts/token/ERC20/ERC20.sol\":10632:10762  if (currentAllowance < value) {... */\n      iszero\n      tag_382\n      jumpi\n        /* \"@openzeppelin/contracts/token/ERC20/ERC20.sol\":10687:10747  ERC20InsufficientAllowance(spender, currentAllowance, value) */\n      mload(0x40)\n      shl(0xe1, 0x7dc7a0d9)\n      dup2\n      mstore\n      sub(shl(0xa0, 0x01), 0x01)\n        /* \"#utility.yul\":10991:11023   */\n      dup5\n      and\n        /* \"@openzeppelin/contracts/token/ERC20/ERC20.sol\":10687:10747  ERC20InsufficientAllowance(spender, currentAllowance, value) */\n      0x04\n      dup3\n      add\n        /* \"#utility.yul\":10973:11024   */\n      mstore\n        /* \"#utility.yul\":11040:11058   */\n      0x24\n      dup2\n      add\n        /* \"#utility.yul\":11033:11067   */\n      dup3\n      swap1\n      mstore\n        /* \"#utility.yul\":11083:11101   */\n      0x44\n      dup2\n      add\n        /* \"#utility.yul\":11076:11110   */\n      dup4\n      swap1\n      mstore\n        /* \"#utility.yul\":10946:10964   */\n      0x64\n      add\n        /* \"@openzeppelin/contracts/token/ERC20/ERC20.sol\":10687:10747  ERC20InsufficientAllowance(spender, currentAllowance, value) */\n      tag_254\n        /* \"#utility.yul\":10771:11116   */\n      jump\n        /* \"@openzeppelin/contracts/token/ERC20/ERC20.sol\":10632:10762  if (currentAllowance < value) {... */\n    tag_382:\n        /* \"@openzeppelin/contracts/token/ERC20/ERC20.sol\":10803:10860  _approve(owner, spender, currentAllowance - value, false) */\n      tag_385\n        /* \"@openzeppelin/contracts/token/ERC20/ERC20.sol\":10812:10817  owner */\n      dup5\n        /* \"@openzeppelin/contracts/token/ERC20/ERC20.sol\":10819:10826  spender */\n      dup5\n        /* \"@openzeppelin/contracts/token/ERC20/ERC20.sol\":10847:10852  value */\n      dup5\n        /* \"@openzeppelin/contracts/token/ERC20/ERC20.sol\":10828:10844  currentAllowance */\n      dup5\n        /* \"@openzeppelin/contracts/token/ERC20/ERC20.sol\":10828:10852  currentAllowance - value */\n      sub\n        /* \"@openzeppelin/contracts/token/ERC20/ERC20.sol\":10854:10859  false */\n      0x00\n        /* \"@openzeppelin/contracts/token/ERC20/ERC20.sol\":10803:10811  _approve */\n      tag_378\n        /* \"@openzeppelin/contracts/token/ERC20/ERC20.sol\":10803:10860  _approve(owner, spender, currentAllowance - value, false) */\n      jump\t// in\n    tag_385:\n        /* \"@openzeppelin/contracts/token/ERC20/ERC20.sol\":10504:10891  {... */\n      pop\n        /* \"@openzeppelin/contracts/token/ERC20/ERC20.sol\":10415:10891  function _spendAllowance(address owner, address spender, uint256 value) internal virtual {... */\n      pop\n      pop\n      pop\n      jump\t// out\n        /* \"@openzeppelin/contracts/token/ERC20/ERC20.sol\":5393:5693  function _transfer(address from, address to, uint256 value) internal {... */\n    tag_251:\n      sub(shl(0xa0, 0x01), 0x01)\n        /* \"@openzeppelin/contracts/token/ERC20/ERC20.sol\":5476:5494  from == address(0) */\n      dup4\n      and\n        /* \"@openzeppelin/contracts/token/ERC20/ERC20.sol\":5472:5558  if (from == address(0)) {... */\n      tag_387\n      jumpi\n        /* \"@openzeppelin/contracts/token/ERC20/ERC20.sol\":5517:5547  ERC20InvalidSender(address(0)) */\n      mload(0x40)\n      shl(0xe1, 0x4b637e8f)\n      dup2\n      mstore\n        /* \"@openzeppelin/contracts/token/ERC20/ERC20.sol\":5544:5545  0 */\n      0x00\n        /* \"@openzeppelin/contracts/token/ERC20/ERC20.sol\":5517:5547  ERC20InvalidSender(address(0)) */\n      0x04\n      dup3\n      add\n        /* \"#utility.yul\":2781:2832   */\n      mstore\n        /* \"#utility.yul\":2754:2772   */\n      0x24\n      add\n        /* \"@openzeppelin/contracts/token/ERC20/ERC20.sol\":5517:5547  ERC20InvalidSender(address(0)) */\n      tag_254\n        /* \"#utility.yul\":2635:2838   */\n      jump\n        /* \"@openzeppelin/contracts/token/ERC20/ERC20.sol\":5472:5558  if (from == address(0)) {... */\n    tag_387:\n      sub(shl(0xa0, 0x01), 0x01)\n        /* \"@openzeppelin/contracts/token/ERC20/ERC20.sol\":5571:5587  to == address(0) */\n      dup3\n      and\n        /* \"@openzeppelin/contracts/token/ERC20/ERC20.sol\":5567:5653  if (to == address(0)) {... */\n      tag_389\n      jumpi\n        /* \"@openzeppelin/contracts/token/ERC20/ERC20.sol\":5610:5642  ERC20InvalidReceiver(address(0)) */\n      mload(0x40)\n      shl(0xe0, 0xec442f05)\n      dup2\n      mstore\n        /* \"@openzeppelin/contracts/token/ERC20/ERC20.sol\":5639:5640  0 */\n      0x00\n        /* \"@openzeppelin/contracts/token/ERC20/ERC20.sol\":5610:5642  ERC20InvalidReceiver(address(0)) */\n      0x04\n      dup3\n      add\n        /* \"#utility.yul\":2781:2832   */\n      mstore\n        /* \"#utility.yul\":2754:2772   */\n      0x24\n      add\n        /* \"@openzeppelin/contracts/token/ERC20/ERC20.sol\":5610:5642  ERC20InvalidReceiver(address(0)) */\n      tag_254\n        /* \"#utility.yul\":2635:2838   */\n      jump\n        /* \"@openzeppelin/contracts/token/ERC20/ERC20.sol\":5567:5653  if (to == address(0)) {... */\n    tag_389:\n        /* \"@openzeppelin/contracts/token/ERC20/ERC20.sol\":5662:5686  _update(from, to, value) */\n      tag_377\n        /* \"@openzeppelin/contracts/token/ERC20/ERC20.sol\":5670:5674  from */\n      dup4\n        /* \"@openzeppelin/contracts/token/ERC20/ERC20.sol\":5676:5678  to */\n      dup4\n        /* \"@openzeppelin/contracts/token/ERC20/ERC20.sol\":5680:5685  value */\n      dup4\n        /* \"@openzeppelin/contracts/token/ERC20/ERC20.sol\":5662:5669  _update */\n      tag_392\n        /* \"@openzeppelin/contracts/token/ERC20/ERC20.sol\":5662:5686  _update(from, to, value) */\n      jump\t// in\n        /* \"@openzeppelin/contracts/access/Ownable.sol\":1796:1958  function _checkOwner() internal view virtual {... */\n    tag_268:\n        /* \"@openzeppelin/contracts/access/Ownable.sol\":1710:1716  _owner */\n      and(sub(shl(0xa0, 0x01), 0x01), sload(0x05))\n        /* \"@openzeppelin/contracts/utils/Context.sol\":735:745  msg.sender */\n      caller\n        /* \"@openzeppelin/contracts/access/Ownable.sol\":1855:1878  owner() != _msgSender() */\n      eq\n        /* \"@openzeppelin/contracts/access/Ownable.sol\":1851:1952  if (owner() != _msgSender()) {... */\n      tag_270\n      jumpi\n        /* \"@openzeppelin/contracts/access/Ownable.sol\":1901:1941  OwnableUnauthorizedAccount(_msgSender()) */\n      mload(0x40)\n      shl(0xe0, 0x118cdaa7)\n      dup2\n      mstore\n        /* \"@openzeppelin/contracts/utils/Context.sol\":735:745  msg.sender */\n      caller\n        /* \"@openzeppelin/contracts/access/Ownable.sol\":1901:1941  OwnableUnauthorizedAccount(_msgSender()) */\n      0x04\n      dup3\n      add\n        /* \"#utility.yul\":2781:2832   */\n      mstore\n        /* \"#utility.yul\":2754:2772   */\n      0x24\n      add\n        /* \"@openzeppelin/contracts/access/Ownable.sol\":1901:1941  OwnableUnauthorizedAccount(_msgSender()) */\n      tag_254\n        /* \"#utility.yul\":2635:2838   */\n      jump\n        /* \"@openzeppelin/contracts/access/Ownable.sol\":2912:3099  function _transferOwnership(address newOwner) internal virtual {... */\n    tag_271:\n        /* \"@openzeppelin/contracts/access/Ownable.sol\":3004:3010  _owner */\n      0x05\n      dup1\n      sload\n      sub(shl(0xa0, 0x01), 0x01)\n        /* \"@openzeppelin/contracts/access/Ownable.sol\":3020:3037  _owner = newOwner */\n      dup4\n      dup2\n      and\n      not(sub(shl(0xa0, 0x01), 0x01))\n      dup4\n      and\n      dup2\n      or\n      swap1\n      swap4\n      sstore\n        /* \"@openzeppelin/contracts/access/Ownable.sol\":3052:3092  OwnershipTransferred(oldOwner, newOwner) */\n      mload(0x40)\n        /* \"@openzeppelin/contracts/access/Ownable.sol\":3004:3010  _owner */\n      swap2\n      and\n      swap2\n        /* \"@openzeppelin/contracts/access/Ownable.sol\":3020:3037  _owner = newOwner */\n      swap1\n        /* \"@openzeppelin/contracts/access/Ownable.sol\":3004:3010  _owner */\n      dup3\n      swap1\n        /* \"@openzeppelin/contracts/access/Ownable.sol\":3052:3092  OwnershipTransferred(oldOwner, newOwner) */\n      0x8be0079c531659141344cd1fd0a4f28419497f9722a3daafe3b4186f6b6457e0\n      swap1\n        /* \"@openzeppelin/contracts/access/Ownable.sol\":2985:3001  address oldOwner */\n      0x00\n      swap1\n        /* \"@openzeppelin/contracts/access/Ownable.sol\":3052:3092  OwnershipTransferred(oldOwner, newOwner) */\n      log3\n        /* \"@openzeppelin/contracts/access/Ownable.sol\":2975:3099  {... */\n      pop\n        /* \"@openzeppelin/contracts/access/Ownable.sol\":2912:3099  function _transferOwnership(address newOwner) internal virtual {... */\n      pop\n      jump\t// out\n        /* \"@openzeppelin/contracts/token/ERC20/ERC20.sol\":7458:7666  function _mint(address account, uint256 value) internal {... */\n    tag_293:\n      sub(shl(0xa0, 0x01), 0x01)\n        /* \"@openzeppelin/contracts/token/ERC20/ERC20.sol\":7528:7549  account == address(0) */\n      dup3\n      and\n        /* \"@openzeppelin/contracts/token/ERC20/ERC20.sol\":7524:7615  if (account == address(0)) {... */\n      tag_401\n      jumpi\n        /* \"@openzeppelin/contracts/token/ERC20/ERC20.sol\":7572:7604  ERC20InvalidReceiver(address(0)) */\n      mload(0x40)\n      shl(0xe0, 0xec442f05)\n      dup2\n      mstore\n        /* \"@openzeppelin/contracts/token/ERC20/ERC20.sol\":7601:7602  0 */\n      0x00\n        /* \"@openzeppelin/contracts/token/ERC20/ERC20.sol\":7572:7604  ERC20InvalidReceiver(address(0)) */\n      0x04\n      dup3\n      add\n        /* \"#utility.yul\":2781:2832   */\n      mstore\n        /* \"#utility.yul\":2754:2772   */\n      0x24\n      add\n        /* \"@openzeppelin/contracts/token/ERC20/ERC20.sol\":7572:7604  ERC20InvalidReceiver(address(0)) */\n      tag_254\n        /* \"#utility.yul\":2635:2838   */\n      jump\n        /* \"@openzeppelin/contracts/token/ERC20/ERC20.sol\":7524:7615  if (account == address(0)) {... */\n    tag_401:\n        /* \"@openzeppelin/contracts/token/ERC20/ERC20.sol\":7624:7659  _update(address(0), account, value) */\n      tag_403\n        /* \"@openzeppelin/contracts/token/ERC20/ERC20.sol\":7640:7641  0 */\n      0x00\n        /* \"@openzeppelin/contracts/token/ERC20/ERC20.sol\":7644:7651  account */\n      dup4\n        /* \"@openzeppelin/contracts/token/ERC20/ERC20.sol\":7653:7658  value */\n      dup4\n        /* \"@openzeppelin/contracts/token/ERC20/ERC20.sol\":7624:7631  _update */\n      tag_392\n        /* \"@openzeppelin/contracts/token/ERC20/ERC20.sol\":7624:7659  _update(address(0), account, value) */\n      jump\t// in\n    tag_403:\n        /* \"@openzeppelin/contracts/token/ERC20/ERC20.sol\":7458:7666  function _mint(address account, uint256 value) internal {... */\n      pop\n      pop\n      jump\t// out\n        /* \"@openzeppelin/contracts/token/ERC20/ERC20.sol\":9701:10133  function _approve(address owner, address spender, uint256 value, bool emitEvent) internal virtual {... */\n    tag_378:\n      sub(shl(0xa0, 0x01), 0x01)\n        /* \"@openzeppelin/contracts/token/ERC20/ERC20.sol\":9813:9832  owner == address(0) */\n      dup5\n      and\n        /* \"@openzeppelin/contracts/token/ERC20/ERC20.sol\":9809:9898  if (owner == address(0)) {... */\n      tag_405\n      jumpi\n        /* \"@openzeppelin/contracts/token/ERC20/ERC20.sol\":9855:9887  ERC20InvalidApprover(address(0)) */\n      mload(0x40)\n      shl(0xe0, 0xe602df05)\n      dup2\n      mstore\n        /* \"@openzeppelin/contracts/token/ERC20/ERC20.sol\":9884:9885  0 */\n      0x00\n        /* \"@openzeppelin/contracts/token/ERC20/ERC20.sol\":9855:9887  ERC20InvalidApprover(address(0)) */\n      0x04\n      dup3\n      add\n        /* \"#utility.yul\":2781:2832   */\n      mstore\n        /* \"#utility.yul\":2754:2772   */\n      0x24\n      add\n        /* \"@openzeppelin/contracts/token/ERC20/ERC20.sol\":9855:9887  ERC20InvalidApprover(address(0)) */\n      tag_254\n        /* \"#utility.yul\":2635:2838   */\n      jump\n        /* \"@openzeppelin/contracts/token/ERC20/ERC20.sol\":9809:9898  if (owner == address(0)) {... */\n    tag_405:\n      sub(shl(0xa0, 0x01), 0x01)\n        /* \"@openzeppelin/contracts/token/ERC20/ERC20.sol\":9911:9932  spender == address(0) */\n      dup4\n      and\n        /* \"@openzeppelin/contracts/token/ERC20/ERC20.sol\":9907:9997  if (spender == address(0)) {... */\n      tag_407\n      jumpi\n        /* \"@openzeppelin/contracts/token/ERC20/ERC20.sol\":9955:9986  ERC20InvalidSpender(address(0)) */\n      mload(0x40)\n      shl(0xe1, 0x4a1406b1)\n      dup2\n      mstore\n        /* \"@openzeppelin/contracts/token/ERC20/ERC20.sol\":9983:9984  0 */\n      0x00\n        /* \"@openzeppelin/contracts/token/ERC20/ERC20.sol\":9955:9986  ERC20InvalidSpender(address(0)) */\n      0x04\n      dup3\n      add\n        /* \"#utility.yul\":2781:2832   */\n      mstore\n        /* \"#utility.yul\":2754:2772   */\n      0x24\n      add\n        /* \"@openzeppelin/contracts/token/ERC20/ERC20.sol\":9955:9986  ERC20InvalidSpender(address(0)) */\n      tag_254\n        /* \"#utility.yul\":2635:2838   */\n      jump\n        /* \"@openzeppelin/contracts/token/ERC20/ERC20.sol\":9907:9997  if (spender == address(0)) {... */\n    tag_407:\n      sub(shl(0xa0, 0x01), 0x01)\n        /* \"@openzeppelin/contracts/token/ERC20/ERC20.sol\":10006:10024  _allowances[owner] */\n      dup1\n      dup6\n      and\n      0x00\n      swap1\n      dup2\n      mstore\n        /* \"@openzeppelin/contracts/token/ERC20/ERC20.sol\":10006:10017  _allowances */\n      0x01\n        /* \"@openzeppelin/contracts/token/ERC20/ERC20.sol\":10006:10024  _allowances[owner] */\n      0x20\n      swap1\n      dup2\n      mstore\n      0x40\n      dup1\n      dup4\n      keccak256\n        /* \"@openzeppelin/contracts/token/ERC20/ERC20.sol\":10006:10033  _allowances[owner][spender] */\n      swap4\n      dup8\n      and\n      dup4\n      mstore\n      swap3\n      swap1\n      mstore\n      keccak256\n        /* \"@openzeppelin/contracts/token/ERC20/ERC20.sol\":10006:10041  _allowances[owner][spender] = value */\n      dup3\n      swap1\n      sstore\n        /* \"@openzeppelin/contracts/token/ERC20/ERC20.sol\":10051:10127  if (emitEvent) {... */\n      dup1\n      iszero\n      tag_385\n      jumpi\n        /* \"@openzeppelin/contracts/token/ERC20/ERC20.sol\":10101:10108  spender */\n      dup3\n      sub(shl(0xa0, 0x01), 0x01)\n        /* \"@openzeppelin/contracts/token/ERC20/ERC20.sol\":10085:10116  Approval(owner, spender, value) */\n      and\n        /* \"@openzeppelin/contracts/token/ERC20/ERC20.sol\":10094:10099  owner */\n      dup5\n      sub(shl(0xa0, 0x01), 0x01)\n        /* \"@openzeppelin/contracts/token/ERC20/ERC20.sol\":10085:10116  Approval(owner, spender, value) */\n      and\n      0x8c5be1e5ebec7d5bd14f71427d1e84f3dd0314c0f7b2291e5b200ac8c7c3b925\n        /* \"@openzeppelin/contracts/token/ERC20/ERC20.sol\":10110:10115  value */\n      dup5\n        /* \"@openzeppelin/contracts/token/ERC20/ERC20.sol\":10085:10116  Approval(owner, spender, value) */\n      mload(0x40)\n      tag_410\n      swap2\n        /* \"#utility.yul\":160:185   */\n      dup2\n      mstore\n        /* \"#utility.yul\":148:150   */\n      0x20\n        /* \"#utility.yul\":133:151   */\n      add\n      swap1\n        /* \"#utility.yul\":14:191   */\n      jump\n        /* \"@openzeppelin/contracts/token/ERC20/ERC20.sol\":10085:10116  Approval(owner, spender, value) */\n    tag_410:\n      mload(0x40)\n      dup1\n      swap2\n      sub\n      swap1\n      log3\n        /* \"@openzeppelin/contracts/token/ERC20/ERC20.sol\":9701:10133  function _approve(address owner, address spender, uint256 value, bool emitEvent) internal virtual {... */\n      pop\n      pop\n      pop\n      pop\n      jump\t// out\n        /* \"@openzeppelin/contracts/token/ERC20/ERC20.sol\":6008:7115  function _update(address from, address to, uint256 value) internal virtual {... */\n    tag_392:\n      sub(shl(0xa0, 0x01), 0x01)\n        /* \"@openzeppelin/contracts/token/ERC20/ERC20.sol\":6097:6115  from == address(0) */\n      dup4\n      and\n        /* \"@openzeppelin/contracts/token/ERC20/ERC20.sol\":6093:6633  if (from == address(0)) {... */\n      tag_412\n      jumpi\n        /* \"@openzeppelin/contracts/token/ERC20/ERC20.sol\":6249:6254  value */\n      dup1\n        /* \"@openzeppelin/contracts/token/ERC20/ERC20.sol\":6233:6245  _totalSupply */\n      0x02\n      0x00\n        /* \"@openzeppelin/contracts/token/ERC20/ERC20.sol\":6233:6254  _totalSupply += value */\n      dup3\n      dup3\n      sload\n      tag_413\n      swap2\n      swap1\n      tag_282\n      jump\t// in\n    tag_413:\n      swap1\n      swap2\n      sstore\n      pop\n        /* \"@openzeppelin/contracts/token/ERC20/ERC20.sol\":6093:6633  if (from == address(0)) {... */\n      tag_414\n      swap1\n      pop\n      jump\n    tag_412:\n      sub(shl(0xa0, 0x01), 0x01)\n        /* \"@openzeppelin/contracts/token/ERC20/ERC20.sol\":6307:6322  _balances[from] */\n      dup4\n      and\n        /* \"@openzeppelin/contracts/token/ERC20/ERC20.sol\":6285:6304  uint256 fromBalance */\n      0x00\n        /* \"@openzeppelin/contracts/token/ERC20/ERC20.sol\":6307:6322  _balances[from] */\n      swap1\n      dup2\n      mstore\n      0x20\n      dup2\n      swap1\n      mstore\n      0x40\n      swap1\n      keccak256\n      sload\n        /* \"@openzeppelin/contracts/token/ERC20/ERC20.sol\":6340:6359  fromBalance < value */\n      dup2\n      dup2\n      lt\n        /* \"@openzeppelin/contracts/token/ERC20/ERC20.sol\":6336:6451  if (fromBalance < value) {... */\n      iszero\n      tag_415\n      jumpi\n        /* \"@openzeppelin/contracts/token/ERC20/ERC20.sol\":6386:6436  ERC20InsufficientBalance(from, fromBalance, value) */\n      mload(0x40)\n      shl(0xe2, 0x391434e3)\n      dup2\n      mstore\n      sub(shl(0xa0, 0x01), 0x01)\n        /* \"#utility.yul\":10991:11023   */\n      dup6\n      and\n        /* \"@openzeppelin/contracts/token/ERC20/ERC20.sol\":6386:6436  ERC20InsufficientBalance(from, fromBalance, value) */\n      0x04\n      dup3\n      add\n        /* \"#utility.yul\":10973:11024   */\n      mstore\n        /* \"#utility.yul\":11040:11058   */\n      0x24\n      dup2\n      add\n        /* \"#utility.yul\":11033:11067   */\n      dup3\n      swap1\n      mstore\n        /* \"#utility.yul\":11083:11101   */\n      0x44\n      dup2\n      add\n        /* \"#utility.yul\":11076:11110   */\n      dup4\n      swap1\n      mstore\n        /* \"#utility.yul\":10946:10964   */\n      0x64\n      add\n        /* \"@openzeppelin/contracts/token/ERC20/ERC20.sol\":6386:6436  ERC20InsufficientBalance(from, fromBalance, value) */\n      tag_254\n        /* \"#utility.yul\":10771:11116   */\n      jump\n        /* \"@openzeppelin/contracts/token/ERC20/ERC20.sol\":6336:6451  if (fromBalance < value) {... */\n    tag_415:\n      sub(shl(0xa0, 0x01), 0x01)\n        /* \"@openzeppelin/contracts/token/ERC20/ERC20.sol\":6571:6586  _balances[from] */\n      dup5\n      and\n        /* \"@openzeppelin/contracts/token/ERC20/ERC20.sol\":6571:6580  _balances */\n      0x00\n        /* \"@openzeppelin/contracts/token/ERC20/ERC20.sol\":6571:6586  _balances[from] */\n      swap1\n      dup2\n      mstore\n      0x20\n      dup2\n      swap1\n      mstore\n      0x40\n      swap1\n      keccak256\n        /* \"@openzeppelin/contracts/token/ERC20/ERC20.sol\":6589:6608  fromBalance - value */\n      swap1\n      dup3\n      swap1\n      sub\n        /* \"@openzeppelin/contracts/token/ERC20/ERC20.sol\":6571:6608  _balances[from] = fromBalance - value */\n      swap1\n      sstore\n        /* \"@openzeppelin/contracts/token/ERC20/ERC20.sol\":6093:6633  if (from == address(0)) {... */\n    tag_414:\n      sub(shl(0xa0, 0x01), 0x01)\n        /* \"@openzeppelin/contracts/token/ERC20/ERC20.sol\":6647:6663  to == address(0) */\n      dup3\n      and\n        /* \"@openzeppelin/contracts/token/ERC20/ERC20.sol\":6643:7068  if (to == address(0)) {... */\n      tag_417\n      jumpi\n        /* \"@openzeppelin/contracts/token/ERC20/ERC20.sol\":6810:6822  _totalSupply */\n      0x02\n        /* \"@openzeppelin/contracts/token/ERC20/ERC20.sol\":6810:6831  _totalSupply -= value */\n      dup1\n      sload\n      dup3\n      swap1\n      sub\n      swap1\n      sstore\n        /* \"@openzeppelin/contracts/token/ERC20/ERC20.sol\":6643:7068  if (to == address(0)) {... */\n      jump(tag_418)\n    tag_417:\n      sub(shl(0xa0, 0x01), 0x01)\n        /* \"@openzeppelin/contracts/token/ERC20/ERC20.sol\":7021:7034  _balances[to] */\n      dup3\n      and\n        /* \"@openzeppelin/contracts/token/ERC20/ERC20.sol\":7021:7030  _balances */\n      0x00\n        /* \"@openzeppelin/contracts/token/ERC20/ERC20.sol\":7021:7034  _balances[to] */\n      swap1\n      dup2\n      mstore\n      0x20\n      dup2\n      swap1\n      mstore\n      0x40\n      swap1\n      keccak256\n        /* \"@openzeppelin/contracts/token/ERC20/ERC20.sol\":7021:7043  _balances[to] += value */\n      dup1\n      sload\n      dup3\n      add\n      swap1\n      sstore\n        /* \"@openzeppelin/contracts/token/ERC20/ERC20.sol\":6643:7068  if (to == address(0)) {... */\n    tag_418:\n        /* \"@openzeppelin/contracts/token/ERC20/ERC20.sol\":7098:7100  to */\n      dup2\n      sub(shl(0xa0, 0x01), 0x01)\n        /* \"@openzeppelin/contracts/token/ERC20/ERC20.sol\":7083:7108  Transfer(from, to, value) */\n      and\n        /* \"@openzeppelin/contracts/token/ERC20/ERC20.sol\":7092:7096  from */\n      dup4\n      sub(shl(0xa0, 0x01), 0x01)\n        /* \"@openzeppelin/contracts/token/ERC20/ERC20.sol\":7083:7108  Transfer(from, to, value) */\n      and\n      0xddf252ad1be2c89b69c2b068fc378daa952ba7f163c4a11628f55a4df523b3ef\n        /* \"@openzeppelin/contracts/token/ERC20/ERC20.sol\":7102:7107  value */\n      dup4\n        /* \"@openzeppelin/contracts/token/ERC20/ERC20.sol\":7083:7108  Transfer(from, to, value) */\n      mload(0x40)\n      tag_419\n      swap2\n        /* \"#utility.yul\":160:185   */\n      dup2\n      mstore\n        /* \"#utility.yul\":148:150   */\n      0x20\n        /* \"#utility.yul\":133:151   */\n      add\n      swap1\n        /* \"#utility.yul\":14:191   */\n      jump\n        /* \"@openzeppelin/contracts/token/ERC20/ERC20.sol\":7083:7108  Transfer(from, to, value) */\n    tag_419:\n      mload(0x40)\n      dup1\n      swap2\n      sub\n      swap1\n      log3\n        /* \"@openzeppelin/contracts/token/ERC20/ERC20.sol\":6008:7115  function _update(address from, address to, uint256 value) internal virtual {... */\n      pop\n      pop\n      pop\n      jump\t// out\n        /* \"#utility.yul\":196:614   */\n    tag_61:\n        /* \"#utility.yul\":345:347   */\n      0x20\n        /* \"#utility.yul\":334:343   */\n      dup2\n        /* \"#utility.yul\":327:348   */\n      mstore\n        /* \"#utility.yul\":308:312   */\n      0x00\n        /* \"#utility.yul\":377:383   */\n      dup3\n        /* \"#utility.yul\":371:384   */\n      mload\n        /* \"#utility.yul\":420:426   */\n      dup1\n        /* \"#utility.yul\":415:417   */\n      0x20\n        /* \"#utility.yul\":404:413   */\n      dup5\n        /* \"#utility.yul\":400:418   */\n      add\n        /* \"#utility.yul\":393:427   */\n      mstore\n        /* \"#utility.yul\":479:485   */\n      dup1\n        /* \"#utility.yul\":474:476   */\n      0x20\n        /* \"#utility.yul\":466:472   */\n      dup6\n        /* \"#utility.yul\":462:477   */\n      add\n        /* \"#utility.yul\":457:459   */\n      0x40\n        /* \"#utility.yul\":446:455   */\n      dup6\n        /* \"#utility.yul\":442:460   */\n      add\n        /* \"#utility.yul\":436:486   */\n      mcopy\n        /* \"#utility.yul\":535:536   */\n      0x00\n        /* \"#utility.yul\":530:532   */\n      0x40\n        /* \"#utility.yul\":521:527   */\n      dup3\n        /* \"#utility.yul\":510:519   */\n      dup6\n        /* \"#utility.yul\":506:528   */\n      add\n        /* \"#utility.yul\":502:533   */\n      add\n        /* \"#utility.yul\":495:537   */\n      mstore\n        /* \"#utility.yul\":605:607   */\n      0x40\n        /* \"#utility.yul\":598:600   */\n      0x1f\n        /* \"#utility.yul\":594:601   */\n      not\n        /* \"#utility.yul\":589:591   */\n      0x1f\n        /* \"#utility.yul\":581:587   */\n      dup4\n        /* \"#utility.yul\":577:592   */\n      add\n        /* \"#utility.yul\":573:602   */\n      and\n        /* \"#utility.yul\":562:571   */\n      dup5\n        /* \"#utility.yul\":558:603   */\n      add\n        /* \"#utility.yul\":554:608   */\n      add\n        /* \"#utility.yul\":546:608   */\n      swap2\n      pop\n      pop\n        /* \"#utility.yul\":196:614   */\n      swap3\n      swap2\n      pop\n      pop\n      jump\t// out\n        /* \"#utility.yul\":619:792   */\n    tag_420:\n        /* \"#utility.yul\":687:707   */\n      dup1\n      calldataload\n      sub(shl(0xa0, 0x01), 0x01)\n        /* \"#utility.yul\":736:767   */\n      dup2\n      and\n        /* \"#utility.yul\":726:768   */\n      dup2\n      eq\n        /* \"#utility.yul\":716:786   */\n      tag_428\n      jumpi\n        /* \"#utility.yul\":782:783   */\n      0x00\n        /* \"#utility.yul\":779:780   */\n      dup1\n        /* \"#utility.yul\":772:784   */\n      revert\n        /* \"#utility.yul\":716:786   */\n    tag_428:\n        /* \"#utility.yul\":619:792   */\n      swap2\n      swap1\n      pop\n      jump\t// out\n        /* \"#utility.yul\":797:1097   */\n    tag_65:\n        /* \"#utility.yul\":865:871   */\n      0x00\n        /* \"#utility.yul\":873:879   */\n      dup1\n        /* \"#utility.yul\":926:928   */\n      0x40\n        /* \"#utility.yul\":914:923   */\n      dup4\n        /* \"#utility.yul\":905:912   */\n      dup6\n        /* \"#utility.yul\":901:924   */\n      sub\n        /* \"#utility.yul\":897:929   */\n      slt\n        /* \"#utility.yul\":894:946   */\n      iszero\n      tag_430\n      jumpi\n        /* \"#utility.yul\":942:943   */\n      0x00\n        /* \"#utility.yul\":939:940   */\n      dup1\n        /* \"#utility.yul\":932:944   */\n      revert\n        /* \"#utility.yul\":894:946   */\n    tag_430:\n        /* \"#utility.yul\":965:994   */\n      tag_431\n        /* \"#utility.yul\":984:993   */\n      dup4\n        /* \"#utility.yul\":965:994   */\n      tag_420\n      jump\t// in\n    tag_431:\n        /* \"#utility.yul\":955:994   */\n      swap5\n        /* \"#utility.yul\":1063:1065   */\n      0x20\n        /* \"#utility.yul\":1048:1066   */\n      swap4\n      swap1\n      swap4\n      add\n        /* \"#utility.yul\":1035:1067   */\n      calldataload\n      swap4\n      pop\n      pop\n      pop\n        /* \"#utility.yul\":797:1097   */\n      jump\t// out\n        /* \"#utility.yul\":1294:1480   */\n    tag_72:\n        /* \"#utility.yul\":1353:1359   */\n      0x00\n        /* \"#utility.yul\":1406:1408   */\n      0x20\n        /* \"#utility.yul\":1394:1403   */\n      dup3\n        /* \"#utility.yul\":1385:1392   */\n      dup5\n        /* \"#utility.yul\":1381:1404   */\n      sub\n        /* \"#utility.yul\":1377:1409   */\n      slt\n        /* \"#utility.yul\":1374:1426   */\n      iszero\n      tag_434\n      jumpi\n        /* \"#utility.yul\":1422:1423   */\n      0x00\n        /* \"#utility.yul\":1419:1420   */\n      dup1\n        /* \"#utility.yul\":1412:1424   */\n      revert\n        /* \"#utility.yul\":1374:1426   */\n    tag_434:\n        /* \"#utility.yul\":1445:1474   */\n      tag_244\n        /* \"#utility.yul\":1464:1473   */\n      dup3\n        /* \"#utility.yul\":1445:1474   */\n      tag_420\n      jump\t// in\n        /* \"#utility.yul\":1485:1859   */\n    tag_86:\n        /* \"#utility.yul\":1562:1568   */\n      0x00\n        /* \"#utility.yul\":1570:1576   */\n      dup1\n        /* \"#utility.yul\":1578:1584   */\n      0x00\n        /* \"#utility.yul\":1631:1633   */\n      0x60\n        /* \"#utility.yul\":1619:1628   */\n      dup5\n        /* \"#utility.yul\":1610:1617   */\n      dup7\n        /* \"#utility.yul\":1606:1629   */\n      sub\n        /* \"#utility.yul\":1602:1634   */\n      slt\n        /* \"#utility.yul\":1599:1651   */\n      iszero\n      tag_437\n      jumpi\n        /* \"#utility.yul\":1647:1648   */\n      0x00\n        /* \"#utility.yul\":1644:1645   */\n      dup1\n        /* \"#utility.yul\":1637:1649   */\n      revert\n        /* \"#utility.yul\":1599:1651   */\n    tag_437:\n        /* \"#utility.yul\":1670:1699   */\n      tag_438\n        /* \"#utility.yul\":1689:1698   */\n      dup5\n        /* \"#utility.yul\":1670:1699   */\n      tag_420\n      jump\t// in\n    tag_438:\n        /* \"#utility.yul\":1660:1699   */\n      swap3\n      pop\n        /* \"#utility.yul\":1718:1756   */\n      tag_439\n        /* \"#utility.yul\":1752:1754   */\n      0x20\n        /* \"#utility.yul\":1741:1750   */\n      dup6\n        /* \"#utility.yul\":1737:1755   */\n      add\n        /* \"#utility.yul\":1718:1756   */\n      tag_420\n      jump\t// in\n    tag_439:\n        /* \"#utility.yul\":1485:1859   */\n      swap3\n      swap6\n        /* \"#utility.yul\":1708:1756   */\n      swap3\n      swap5\n      pop\n      pop\n      pop\n        /* \"#utility.yul\":1825:1827   */\n      0x40\n        /* \"#utility.yul\":1810:1828   */\n      swap2\n      swap1\n      swap2\n      add\n        /* \"#utility.yul\":1797:1829   */\n      calldataload\n      swap1\n        /* \"#utility.yul\":1485:1859   */\n      jump\t// out\n        /* \"#utility.yul\":1864:2210   */\n    tag_97:\n        /* \"#utility.yul\":1932:1938   */\n      0x00\n        /* \"#utility.yul\":1940:1946   */\n      dup1\n        /* \"#utility.yul\":1993:1995   */\n      0x40\n        /* \"#utility.yul\":1981:1990   */\n      dup4\n        /* \"#utility.yul\":1972:1979   */\n      dup6\n        /* \"#utility.yul\":1968:1991   */\n      sub\n        /* \"#utility.yul\":1964:1996   */\n      slt\n        /* \"#utility.yul\":1961:2013   */\n      iszero\n      tag_441\n      jumpi\n        /* \"#utility.yul\":2009:2010   */\n      0x00\n        /* \"#utility.yul\":2006:2007   */\n      dup1\n        /* \"#utility.yul\":1999:2011   */\n      revert\n        /* \"#utility.yul\":1961:2013   */\n    tag_441:\n      pop\n      pop\n        /* \"#utility.yul\":2054:2077   */\n      dup1\n      calldataload\n      swap3\n        /* \"#utility.yul\":2174:2176   */\n      0x20\n        /* \"#utility.yul\":2159:2177   */\n      swap1\n      swap2\n      add\n        /* \"#utility.yul\":2146:2178   */\n      calldataload\n      swap2\n      pop\n        /* \"#utility.yul\":1864:2210   */\n      jump\t// out\n        /* \"#utility.yul\":2404:2630   */\n    tag_140:\n        /* \"#utility.yul\":2463:2469   */\n      0x00\n        /* \"#utility.yul\":2516:2518   */\n      0x20\n        /* \"#utility.yul\":2504:2513   */\n      dup3\n        /* \"#utility.yul\":2495:2502   */\n      dup5\n        /* \"#utility.yul\":2491:2514   */\n      sub\n        /* \"#utility.yul\":2487:2519   */\n      slt\n        /* \"#utility.yul\":2484:2536   */\n      iszero\n      tag_444\n      jumpi\n        /* \"#utility.yul\":2532:2533   */\n      0x00\n        /* \"#utility.yul\":2529:2530   */\n      dup1\n        /* \"#utility.yul\":2522:2534   */\n      revert\n        /* \"#utility.yul\":2484:2536   */\n    tag_444:\n      pop\n        /* \"#utility.yul\":2577:2600   */\n      calldataload\n      swap2\n        /* \"#utility.yul\":2404:2630   */\n      swap1\n      pop\n      jump\t// out\n        /* \"#utility.yul\":2843:3103   */\n    tag_204:\n        /* \"#utility.yul\":2911:2917   */\n      0x00\n        /* \"#utility.yul\":2919:2925   */\n      dup1\n        /* \"#utility.yul\":2972:2974   */\n      0x40\n        /* \"#utility.yul\":2960:2969   */\n      dup4\n        /* \"#utility.yul\":2951:2958   */\n      dup6\n        /* \"#utility.yul\":2947:2970   */\n      sub\n        /* \"#utility.yul\":2943:2975   */\n      slt\n        /* \"#utility.yul\":2940:2992   */\n      iszero\n      tag_447\n      jumpi\n        /* \"#utility.yul\":2988:2989   */\n      0x00\n        /* \"#utility.yul\":2985:2986   */\n      dup1\n        /* \"#utility.yul\":2978:2990   */\n      revert\n        /* \"#utility.yul\":2940:2992   */\n    tag_447:\n        /* \"#utility.yul\":3011:3040   */\n      tag_448\n        /* \"#utility.yul\":3030:3039   */\n      dup4\n        /* \"#utility.yul\":3011:3040   */\n      tag_420\n      jump\t// in\n    tag_448:\n        /* \"#utility.yul\":3001:3040   */\n      swap2\n      pop\n        /* \"#utility.yul\":3059:3097   */\n      tag_449\n        /* \"#utility.yul\":3093:3095   */\n      0x20\n        /* \"#utility.yul\":3082:3091   */\n      dup5\n        /* \"#utility.yul\":3078:3096   */\n      add\n        /* \"#utility.yul\":3059:3097   */\n      tag_420\n      jump\t// in\n    tag_449:\n        /* \"#utility.yul\":3049:3097   */\n      swap1\n      pop\n        /* \"#utility.yul\":2843:3103   */\n      swap3\n      pop\n      swap3\n      swap1\n      pop\n      jump\t// out\n        /* \"#utility.yul\":3108:3488   */\n    tag_226:\n        /* \"#utility.yul\":3187:3188   */\n      0x01\n        /* \"#utility.yul\":3183:3195   */\n      dup2\n      dup2\n      shr\n      swap1\n        /* \"#utility.yul\":3230:3242   */\n      dup3\n      and\n      dup1\n        /* \"#utility.yul\":3251:3312   */\n      tag_451\n      jumpi\n        /* \"#utility.yul\":3305:3309   */\n      0x7f\n        /* \"#utility.yul\":3297:3303   */\n      dup3\n        /* \"#utility.yul\":3293:3310   */\n      and\n        /* \"#utility.yul\":3283:3310   */\n      swap2\n      pop\n        /* \"#utility.yul\":3251:3312   */\n    tag_451:\n        /* \"#utility.yul\":3358:3360   */\n      0x20\n        /* \"#utility.yul\":3350:3356   */\n      dup3\n        /* \"#utility.yul\":3347:3361   */\n      lt\n        /* \"#utility.yul\":3327:3345   */\n      dup2\n        /* \"#utility.yul\":3324:3362   */\n      sub\n        /* \"#utility.yul\":3321:3482   */\n      tag_452\n      jumpi\n        /* \"#utility.yul\":3404:3414   */\n      0x4e487b71\n        /* \"#utility.yul\":3399:3402   */\n      0xe0\n        /* \"#utility.yul\":3395:3415   */\n      shl\n        /* \"#utility.yul\":3392:3393   */\n      0x00\n        /* \"#utility.yul\":3385:3416   */\n      mstore\n        /* \"#utility.yul\":3439:3443   */\n      0x22\n        /* \"#utility.yul\":3436:3437   */\n      0x04\n        /* \"#utility.yul\":3429:3444   */\n      mstore\n        /* \"#utility.yul\":3467:3471   */\n      0x24\n        /* \"#utility.yul\":3464:3465   */\n      0x00\n        /* \"#utility.yul\":3457:3472   */\n      revert\n        /* \"#utility.yul\":3321:3482   */\n    tag_452:\n      pop\n        /* \"#utility.yul\":3108:3488   */\n      swap2\n      swap1\n      pop\n      jump\t// out\n        /* \"#utility.yul\":3493:3620   */\n    tag_421:\n        /* \"#utility.yul\":3554:3564   */\n      0x4e487b71\n        /* \"#utility.yul\":3549:3552   */\n      0xe0\n        /* \"#utility.yul\":3545:3565   */\n      shl\n        /* \"#utility.yul\":3542:3543   */\n      0x00\n        /* \"#utility.yul\":3535:3566   */\n      mstore\n        /* \"#utility.yul\":3585:3589   */\n      0x11\n        /* \"#utility.yul\":3582:3583   */\n      0x04\n        /* \"#utility.yul\":3575:3590   */\n      mstore\n        /* \"#utility.yul\":3609:3613   */\n      0x24\n        /* \"#utility.yul\":3606:3607   */\n      0x00\n        /* \"#utility.yul\":3599:3614   */\n      revert\n        /* \"#utility.yul\":3625:3753   */\n    tag_238:\n        /* \"#utility.yul\":3692:3701   */\n      dup2\n      dup2\n      sub\n        /* \"#utility.yul\":3713:3724   */\n      dup2\n      dup2\n      gt\n        /* \"#utility.yul\":3710:3747   */\n      iszero\n      tag_231\n      jumpi\n        /* \"#utility.yul\":3727:3745   */\n      tag_231\n      tag_421\n      jump\t// in\n        /* \"#utility.yul\":3758:3975   */\n    tag_240:\n        /* \"#utility.yul\":3798:3799   */\n      0x00\n        /* \"#utility.yul\":3824:3825   */\n      dup3\n        /* \"#utility.yul\":3814:3946   */\n      tag_458\n      jumpi\n        /* \"#utility.yul\":3868:3878   */\n      0x4e487b71\n        /* \"#utility.yul\":3863:3866   */\n      0xe0\n        /* \"#utility.yul\":3859:3879   */\n      shl\n        /* \"#utility.yul\":3856:3857   */\n      0x00\n        /* \"#utility.yul\":3849:3880   */\n      mstore\n        /* \"#utility.yul\":3903:3907   */\n      0x12\n        /* \"#utility.yul\":3900:3901   */\n      0x04\n        /* \"#utility.yul\":3893:3908   */\n      mstore\n        /* \"#utility.yul\":3931:3935   */\n      0x24\n        /* \"#utility.yul\":3928:3929   */\n      0x00\n        /* \"#utility.yul\":3921:3936   */\n      revert\n        /* \"#utility.yul\":3814:3946   */\n    tag_458:\n      pop\n        /* \"#utility.yul\":3960:3969   */\n      div\n      swap1\n        /* \"#utility.yul\":3758:3975   */\n      jump\t// out\n        /* \"#utility.yul\":3980:4148   */\n    tag_242:\n        /* \"#utility.yul\":4053:4062   */\n      dup1\n      dup3\n      mul\n        /* \"#utility.yul\":4084:4093   */\n      dup2\n      iszero\n        /* \"#utility.yul\":4101:4116   */\n      dup3\n      dup3\n      div\n        /* \"#utility.yul\":4095:4117   */\n      dup5\n      eq\n        /* \"#utility.yul\":4081:4118   */\n      or\n        /* \"#utility.yul\":4071:4142   */\n      tag_231\n      jumpi\n        /* \"#utility.yul\":4122:4140   */\n      tag_231\n      tag_421\n      jump\t// in\n        /* \"#utility.yul\":5307:5432   */\n    tag_282:\n        /* \"#utility.yul\":5372:5381   */\n      dup1\n      dup3\n      add\n        /* \"#utility.yul\":5393:5403   */\n      dup1\n      dup3\n      gt\n        /* \"#utility.yul\":5390:5426   */\n      iszero\n      tag_231\n      jumpi\n        /* \"#utility.yul\":5406:5424   */\n      tag_231\n      tag_421\n      jump\t// in\n        /* \"#utility.yul\":6138:6513   */\n    tag_422:\n        /* \"#utility.yul\":6226:6227   */\n      0x01\n        /* \"#utility.yul\":6244:6249   */\n      dup2\n        /* \"#utility.yul\":6258:6507   */\n    tag_471:\n        /* \"#utility.yul\":6279:6280   */\n      0x01\n        /* \"#utility.yul\":6269:6277   */\n      dup5\n        /* \"#utility.yul\":6266:6281   */\n      gt\n        /* \"#utility.yul\":6258:6507   */\n      iszero\n      tag_473\n      jumpi\n        /* \"#utility.yul\":6329:6333   */\n      dup1\n        /* \"#utility.yul\":6324:6327   */\n      dup6\n        /* \"#utility.yul\":6320:6334   */\n      div\n        /* \"#utility.yul\":6314:6318   */\n      dup2\n        /* \"#utility.yul\":6311:6335   */\n      gt\n        /* \"#utility.yul\":6308:6358   */\n      iszero\n      tag_475\n      jumpi\n        /* \"#utility.yul\":6338:6356   */\n      tag_475\n      tag_421\n      jump\t// in\n    tag_475:\n        /* \"#utility.yul\":6388:6389   */\n      0x01\n        /* \"#utility.yul\":6378:6386   */\n      dup5\n        /* \"#utility.yul\":6374:6390   */\n      and\n        /* \"#utility.yul\":6371:6420   */\n      iszero\n      tag_476\n      jumpi\n        /* \"#utility.yul\":6402:6418   */\n      swap1\n      dup2\n      mul\n      swap1\n        /* \"#utility.yul\":6371:6420   */\n    tag_476:\n        /* \"#utility.yul\":6485:6486   */\n      0x01\n        /* \"#utility.yul\":6481:6497   */\n      swap4\n      swap1\n      swap4\n      shr\n      swap3\n        /* \"#utility.yul\":6441:6456   */\n      dup1\n      mul\n        /* \"#utility.yul\":6258:6507   */\n      jump(tag_471)\n    tag_473:\n        /* \"#utility.yul\":6138:6513   */\n      swap4\n      pop\n      swap4\n      swap2\n      pop\n      pop\n      jump\t// out\n        /* \"#utility.yul\":6518:7420   */\n    tag_423:\n        /* \"#utility.yul\":6567:6572   */\n      0x00\n        /* \"#utility.yul\":6597:6605   */\n      dup3\n        /* \"#utility.yul\":6587:6667   */\n      tag_478\n      jumpi\n      pop\n        /* \"#utility.yul\":6638:6639   */\n      0x01\n        /* \"#utility.yul\":6652:6657   */\n      jump(tag_231)\n        /* \"#utility.yul\":6587:6667   */\n    tag_478:\n        /* \"#utility.yul\":6686:6690   */\n      dup2\n        /* \"#utility.yul\":6676:6752   */\n      tag_479\n      jumpi\n      pop\n        /* \"#utility.yul\":6723:6724   */\n      0x00\n        /* \"#utility.yul\":6737:6742   */\n      jump(tag_231)\n        /* \"#utility.yul\":6676:6752   */\n    tag_479:\n        /* \"#utility.yul\":6768:6772   */\n      dup2\n        /* \"#utility.yul\":6786:6787   */\n      0x01\n        /* \"#utility.yul\":6781:6840   */\n      dup2\n      eq\n      tag_481\n      jumpi\n        /* \"#utility.yul\":6854:6855   */\n      0x02\n        /* \"#utility.yul\":6849:7023   */\n      dup2\n      eq\n      tag_482\n      jumpi\n        /* \"#utility.yul\":6761:7023   */\n      jump(tag_480)\n        /* \"#utility.yul\":6781:6840   */\n    tag_481:\n        /* \"#utility.yul\":6811:6812   */\n      0x01\n        /* \"#utility.yul\":6802:6812   */\n      swap2\n      pop\n        /* \"#utility.yul\":6825:6830   */\n      pop\n      jump(tag_231)\n        /* \"#utility.yul\":6849:7023   */\n    tag_482:\n        /* \"#utility.yul\":6886:6889   */\n      0xff\n        /* \"#utility.yul\":6876:6884   */\n      dup5\n        /* \"#utility.yul\":6873:6890   */\n      gt\n        /* \"#utility.yul\":6870:6913   */\n      iszero\n      tag_484\n      jumpi\n        /* \"#utility.yul\":6893:6911   */\n      tag_484\n      tag_421\n      jump\t// in\n    tag_484:\n      pop\n      pop\n        /* \"#utility.yul\":6949:6950   */\n      0x01\n        /* \"#utility.yul\":6935:6951   */\n      dup3\n      shl\n        /* \"#utility.yul\":7008:7013   */\n      jump(tag_231)\n        /* \"#utility.yul\":6761:7023   */\n    tag_480:\n      pop\n        /* \"#utility.yul\":7107:7109   */\n      0x20\n        /* \"#utility.yul\":7097:7105   */\n      dup4\n        /* \"#utility.yul\":7094:7110   */\n      lt\n        /* \"#utility.yul\":7088:7091   */\n      0x0133\n        /* \"#utility.yul\":7082:7086   */\n      dup4\n        /* \"#utility.yul\":7079:7092   */\n      lt\n        /* \"#utility.yul\":7075:7111   */\n      and\n        /* \"#utility.yul\":7069:7071   */\n      0x4e\n        /* \"#utility.yul\":7059:7067   */\n      dup5\n        /* \"#utility.yul\":7056:7072   */\n      lt\n        /* \"#utility.yul\":7051:7053   */\n      0x0b\n        /* \"#utility.yul\":7045:7049   */\n      dup5\n        /* \"#utility.yul\":7042:7054   */\n      lt\n        /* \"#utility.yul\":7038:7073   */\n      and\n        /* \"#utility.yul\":7035:7112   */\n      or\n        /* \"#utility.yul\":7032:7235   */\n      iszero\n      tag_485\n      jumpi\n      pop\n        /* \"#utility.yul\":7144:7163   */\n      dup2\n      dup2\n      exp\n        /* \"#utility.yul\":7220:7225   */\n      jump(tag_231)\n        /* \"#utility.yul\":7032:7235   */\n    tag_485:\n        /* \"#utility.yul\":7267:7309   */\n      tag_486\n      not(0x00)\n        /* \"#utility.yul\":7292:7300   */\n      dup5\n        /* \"#utility.yul\":7286:7290   */\n      dup5\n        /* \"#utility.yul\":7267:7309   */\n      tag_422\n      jump\t// in\n    tag_486:\n        /* \"#utility.yul\":7345:7351   */\n      dup1\n        /* \"#utility.yul\":7341:7342   */\n      0x00\n        /* \"#utility.yul\":7337:7343   */\n      not\n        /* \"#utility.yul\":7333:7352   */\n      div\n        /* \"#utility.yul\":7324:7331   */\n      dup3\n        /* \"#utility.yul\":7321:7353   */\n      gt\n        /* \"#utility.yul\":7318:7376   */\n      iszero\n      tag_488\n      jumpi\n        /* \"#utility.yul\":7356:7374   */\n      tag_488\n      tag_421\n      jump\t// in\n    tag_488:\n        /* \"#utility.yul\":7394:7414   */\n      mul\n      swap4\n        /* \"#utility.yul\":6518:7420   */\n      swap3\n      pop\n      pop\n      pop\n      jump\t// out\n        /* \"#utility.yul\":7425:7565   */\n    tag_298:\n        /* \"#utility.yul\":7483:7488   */\n      0x00\n        /* \"#utility.yul\":7512:7559   */\n      tag_244\n        /* \"#utility.yul\":7553:7557   */\n      0xff\n        /* \"#utility.yul\":7543:7551   */\n      dup5\n        /* \"#utility.yul\":7539:7558   */\n      and\n        /* \"#utility.yul\":7533:7537   */\n      dup4\n        /* \"#utility.yul\":7512:7559   */\n      tag_423\n      jump\t// in\n        /* \"#utility.yul\":9925:10056   */\n    tag_344:\n        /* \"#utility.yul\":9985:9990   */\n      0x00\n        /* \"#utility.yul\":10014:10050   */\n      tag_244\n        /* \"#utility.yul\":10041:10049   */\n      dup4\n        /* \"#utility.yul\":10035:10039   */\n      dup4\n        /* \"#utility.yul\":10014:10050   */\n      tag_423\n      jump\t// in\n\n    auxdata: 0xa26469706673582212205d521d1ae1f21240297ec515b6642dd72b6881ae8f8df88092b8e4ddd16de89864736f6c634300081a0033\n}\n",
				"bytecode": {
					"linkReferences": {},
					"object": "608060405234801561000f575f80fd5b50604051611d69380380611d6983398101604081905261002e916102ba565b856040518060400160405280600b81526020016a2730ba3ab932aa37b5b2b760a91b81525060405180604001604052806003815260200162272a2960e91b815250816003908161007e91906103ac565b50600461008b82826103ac565b5050506001600160a01b0381166100bc57604051631e4fbdf760e01b81525f60048201526024015b60405180910390fd5b6100c58161010b565b506100e5306100d66012600a61055f565b6100e09088610574565b61015c565b600893909355600a91909155600955600d5550506005805460ff60a01b1916905561059e565b600580546001600160a01b038381166001600160a01b0319831681179093556040519116919082907f8be0079c531659141344cd1fd0a4f28419497f9722a3daafe3b4186f6b6457e0905f90a35050565b6001600160a01b0382166101855760405163ec442f0560e01b81525f60048201526024016100b3565b6101905f8383610194565b5050565b6001600160a01b0383166101be578060025f8282546101b3919061058b565b9091555061022e9050565b6001600160a01b0383165f90815260208190526040902054818110156102105760405163391434e360e21b81526001600160a01b038516600482015260248101829052604481018390526064016100b3565b6001600160a01b0384165f9081526020819052604090209082900390555b6001600160a01b03821661024a57600280548290039055610268565b6001600160a01b0382165f9081526020819052604090208054820190555b816001600160a01b0316836001600160a01b03167fddf252ad1be2c89b69c2b068fc378daa952ba7f163c4a11628f55a4df523b3ef836040516102ad91815260200190565b60405180910390a3505050565b5f805f805f8060c087890312156102cf575f80fd5b86516001600160a01b03811681146102e5575f80fd5b6020880151604089015160608a015160808b015160a0909b0151939c929b509099909850965090945092505050565b634e487b7160e01b5f52604160045260245ffd5b600181811c9082168061033c57607f821691505b60208210810361035a57634e487b7160e01b5f52602260045260245ffd5b50919050565b601f8211156103a757805f5260205f20601f840160051c810160208510156103855750805b601f840160051c820191505b818110156103a4575f8155600101610391565b50505b505050565b81516001600160401b038111156103c5576103c5610314565b6103d9816103d38454610328565b84610360565b6020601f82116001811461040b575f83156103f45750848201515b5f19600385901b1c1916600184901b1784556103a4565b5f84815260208120601f198516915b8281101561043a578785015182556020948501946001909201910161041a565b508482101561045757868401515f19600387901b60f8161c191681555b50505050600190811b01905550565b634e487b7160e01b5f52601160045260245ffd5b6001815b60018411156104b55780850481111561049957610499610466565b60018416156104a757908102905b60019390931c92800261047e565b935093915050565b5f826104cb57506001610559565b816104d757505f610559565b81600181146104ed57600281146104f757610513565b6001915050610559565b60ff84111561050857610508610466565b50506001821b610559565b5060208310610133831016604e8410600b8410161715610536575081810a610559565b6105425f19848461047a565b805f190482111561055557610555610466565b0290505b92915050565b5f61056d60ff8416836104bd565b9392505050565b808202811582820484141761055957610559610466565b8082018082111561055957610559610466565b6117be806105ab5f395ff3fe608060405260043610610228575f3560e01c80637547c7a311610129578063a9059cbb116100a8578063dd62ed3e1161006d578063dd62ed3e14610634578063f2fde38b14610678578063f8102e6814610697578063f9931855146106ac578063f9a81af7146106d7575f80fd5b8063a9059cbb146105b9578063cce29ea7146105d8578063cec297a0146105ed578063d0febe4c14610618578063d348b40914610620575f80fd5b806395d89b41116100ee57806395d89b41146105105780639b19251a146105245780639ca423b314610552578063a09c4cf414610586578063a5ce413b146105a5575f80fd5b80637547c7a3146104625780637c613b2f146104815780638265324d146104955780638da5cb5b146104b45780638f0794fe146104e5575f80fd5b80632c663960116101b55780634f3fc2df1161017a5780634f3fc2df146103d9578063518ab2a8146103ee57806370a0823114610403578063715018a6146104375780637165d19b1461044d575f80fd5b80632c6639601461034b57806330f72cd41461036a578063313ce5671461038a578063329a27e7146103a55780634405df4a146103c5575f80fd5b80630d505541116101fb5780630d505541146102b957806318160ddd146102d85780631d0806ae146102ec57806323b872dd1461030157806327e235e314610320575f80fd5b806303e293a31461022c57806306d65af31461025457806306fdde0314610269578063095ea7b31461028a575b5f80fd5b348015610237575f80fd5b5061024160095481565b6040519081526020015b60405180910390f35b34801561025f575f80fd5b5061024160065481565b348015610274575f80fd5b5061027d6106f6565b60405161024b91906114b1565b348015610295575f80fd5b506102a96102a4366004611501565b610786565b604051901515815260200161024b565b3480156102c4575f80fd5b506102416102d3366004611529565b61079f565b3480156102e3575f80fd5b50600254610241565b3480156102f7575f80fd5b5061024160085481565b34801561030c575f80fd5b506102a961031b366004611542565b610819565b34801561032b575f80fd5b5061024161033a366004611529565b60136020525f908152604090205481565b348015610356575f80fd5b5061024161036536600461157c565b61083c565b348015610375575f80fd5b506005546102a990600160a01b900460ff1681565b348015610395575f80fd5b506040516012815260200161024b565b3480156103b0575f80fd5b50335f90815260136020526040902054610241565b3480156103d0575f80fd5b506102416108bd565b3480156103e4575f80fd5b50610241600d5481565b3480156103f9575f80fd5b50610241600b5481565b34801561040e575f80fd5b5061024161041d366004611529565b6001600160a01b03165f9081526020819052604090205490565b348015610442575f80fd5b5061044b6108e2565b005b348015610458575f80fd5b50610241600a5481565b34801561046d575f80fd5b5061044b61047c36600461159c565b6108f5565b34801561048c575f80fd5b5061044b610a20565b3480156104a0575f80fd5b506102416104af366004611529565b610b1d565b3480156104bf575f80fd5b506005546001600160a01b03165b6040516001600160a01b03909116815260200161024b565b3480156104f0575f80fd5b506102416104ff366004611529565b600f6020525f908152604090205481565b34801561051b575f80fd5b5061027d610b58565b34801561052f575f80fd5b506102a961053e366004611529565b60106020525f908152604090205460ff1681565b34801561055d575f80fd5b506104cd61056c366004611529565b60116020525f90815260409020546001600160a01b031681565b348015610591575f80fd5b5061044b6105a0366004611529565b610b67565b3480156105b0575f80fd5b5061044b610cde565b3480156105c4575f80fd5b506102a96105d3366004611501565b610e16565b3480156105e3575f80fd5b5061024160075481565b3480156105f8575f80fd5b50610241610607366004611529565b60126020525f908152604090205481565b61044b610e23565b34801561062b575f80fd5b50610241610fcc565b34801561063f575f80fd5b5061024161064e3660046115b3565b6001600160a01b039182165f90815260016020908152604080832093909416825291909152205490565b348015610683575f80fd5b5061044b610692366004611529565b611052565b3480156106a2575f80fd5b50610241600c5481565b3480156106b7575f80fd5b506102416106c6366004611529565b600e6020525f908152604090205481565b3480156106e2575f80fd5b5061044b6106f136600461157c565b61108f565b606060038054610705906115e4565b80601f0160208091040260200160405190810160405280929190818152602001828054610731906115e4565b801561077c5780601f106107535761010080835404028352916020019161077c565b820191905f5260205f20905b81548152906001019060200180831161075f57829003601f168201915b5050505050905090565b5f33610793818585611118565b60019150505b92915050565b6001600160a01b0381165f908152600f6020526040812054819062093a80906107c89042611630565b6107d29190611643565b600d546001600160a01b0385165f908152600e602052604090205491925060649183916107fe91611662565b6108089190611662565b6108129190611643565b9392505050565b5f3361082685828561112a565b6108318585856111a6565b506001949350505050565b5f8282101561089c5760405162461bcd60e51b815260206004820152602160248201527f456e642074696d65206d7573742062652061667465722073746172742074696d6044820152606560f81b60648201526084015b60405180910390fd5b5f62093a806108ab8585611630565b6108b59190611643565b949350505050565b5f806108cb6006544261083c565b90505f600c54826008546009546107fe9190611630565b6108ea611203565b6108f35f611230565b565b5f811161094e5760405162461bcd60e51b815260206004820152602160248201527f416d6f756e74206d7573742062652067726561746572207468616e207a65726f6044820152601760f91b6064820152608401610893565b335f908152602081905260409020548111156109a45760405162461bcd60e51b815260206004820152601560248201527424b739bab33334b1b4b2b73a103130b630b731b29760591b6044820152606401610893565b6109af3330836111a6565b335f908152600e6020526040812080548392906109cd908490611679565b9091555050335f818152600f602052604090819020429055517fb539ca1e5c8d398ddf1c41c30166f33404941683be4683319b57669a93dad4ef90610a159084815260200190565b60405180910390a250565b600554600160a01b900460ff161515600114610a7e5760405162461bcd60e51b815260206004820152601760248201527f50726573616c65206e6f742073746172746564207965740000000000000000006044820152606401610893565b5f610a8833610b1d565b90505f8111610ad05760405162461bcd60e51b81526020600482015260146024820152734e6f207265776172647320617661696c61626c6560601b6044820152606401610893565b610ada3382611281565b335f8181526012602052604080822091909155517ff0bc0a70fe19ef2d8dc1e1948b338a1184184fb1ea3ac836f24065828816d68d90610a159084815260200190565b5f610b2a6012600a61176f565b6001600160a01b0383165f90815260126020526040902054610b4e906101f4611662565b6107999190611662565b606060048054610705906115e4565b335f9081526010602052604090205460ff1615610bbc5760405162461bcd60e51b8152602060048201526013602482015272105b1c9958591e481dda1a5d195b1a5cdd1959606a1b6044820152606401610893565b6001600160a01b0381163303610c0c5760405162461bcd60e51b815260206004820152601560248201527421b0b73737ba103932b332b9103cb7bab939b2b63360591b6044820152606401610893565b335f908152601060205260409020805460ff191660011790556001600160a01b03811615801590610c5457506001600160a01b0381165f9081526010602052604090205460ff165b15610ca657335f90815260116020908152604080832080546001600160a01b0319166001600160a01b038616908117909155835260129091528120805460019290610ca0908490611679565b90915550505b6040516001600160a01b0382169033907f4bc18aa4b0095c9a3b5cdf42d2322d5a145591b04045988a995a5da426075457905f90a350565b335f908152600e602052604090205480610d2e5760405162461bcd60e51b81526020600482015260116024820152702737903a37b5b2b7399039ba30b5b2b21760791b6044820152606401610893565b335f908152600f6020526040902054610d4a906224ea00611679565b421015610d995760405162461bcd60e51b815260206004820152601b60248201527f556e7374616b65206f6e6c792061667465722034207765656b732e00000000006044820152606401610893565b5f610da33361079f565b335f818152600e60209081526040808320839055600f909152812055909150610dd7903090610dd28486611679565b6111a6565b604080518381526020810183905233917f6f2d3e000c89d37446b7c0374c0125068ff316d1e3ee302336478a8cd03c2336910160405180910390a25050565b5f336107938185856111a6565b600554600160a01b900460ff16610e6f5760405162461bcd60e51b815260206004820152601060248201526f29b0b632903737ba1030b1ba34bb329760811b6044820152606401610893565b5f3411610ebe5760405162461bcd60e51b815260206004820152601c60248201527f4d7573742073656e642045544820746f2062757920746f6b656e732e000000006044820152606401610893565b5f610ec7610fcc565b90505f81610ed76012600a61177d565b610ee19034611662565b610eeb9190611643565b305f90815260208190526040902054909150811115610f4c5760405162461bcd60e51b815260206004820152601c60248201527f4e6f7420656e6f75676820746f6b656e7320617661696c61626c652e000000006044820152606401610893565b335f9081526013602052604081208054839290610f6a908490611679565b90915550610f7b90503033836111a6565b80600b5f828254610f8c9190611679565b9091555050604051818152339030907fddf252ad1be2c89b69c2b068fc378daa952ba7f163c4a11628f55a4df523b3ef9060200160405180910390a35050565b6005545f90600160a01b900460ff166110275760405162461bcd60e51b815260206004820152601860248201527f5072652d73616c65206e6f7420737461727465642079657400000000000000006044820152606401610893565b600754421115611038575060095490565b5f6110416108bd565b90505f816008546108129190611679565b61105a611203565b6001600160a01b03811661108357604051631e4fbdf760e01b81525f6004820152602401610893565b61108c81611230565b50565b611097611203565b60068290556110a98162093a80611662565b6006546110b69190611679565b6007819055600c8290556005805460ff60a01b1916600160a01b1790556006546040517f3844853be672b18d859394aa37e05615b95b78e66b4dc37dca98d1db1b05ea7d9261110c928252602082015260400190565b60405180910390a15050565b61112583838360016112b9565b505050565b6001600160a01b038381165f908152600160209081526040808320938616835292905220545f198110156111a0578181101561119257604051637dc7a0d960e11b81526001600160a01b03841660048201526024810182905260448101839052606401610893565b6111a084848484035f6112b9565b50505050565b6001600160a01b0383166111cf57604051634b637e8f60e11b81525f6004820152602401610893565b6001600160a01b0382166111f85760405163ec442f0560e01b81525f6004820152602401610893565b61112583838361138b565b6005546001600160a01b031633146108f35760405163118cdaa760e01b8152336004820152602401610893565b600580546001600160a01b038381166001600160a01b0319831681179093556040519116919082907f8be0079c531659141344cd1fd0a4f28419497f9722a3daafe3b4186f6b6457e0905f90a35050565b6001600160a01b0382166112aa5760405163ec442f0560e01b81525f6004820152602401610893565b6112b55f838361138b565b5050565b6001600160a01b0384166112e25760405163e602df0560e01b81525f6004820152602401610893565b6001600160a01b03831661130b57604051634a1406b160e11b81525f6004820152602401610893565b6001600160a01b038085165f90815260016020908152604080832093871683529290522082905580156111a057826001600160a01b0316846001600160a01b03167f8c5be1e5ebec7d5bd14f71427d1e84f3dd0314c0f7b2291e5b200ac8c7c3b9258460405161137d91815260200190565b60405180910390a350505050565b6001600160a01b0383166113b5578060025f8282546113aa9190611679565b909155506114259050565b6001600160a01b0383165f90815260208190526040902054818110156114075760405163391434e360e21b81526001600160a01b03851660048201526024810182905260448101839052606401610893565b6001600160a01b0384165f9081526020819052604090209082900390555b6001600160a01b0382166114415760028054829003905561145f565b6001600160a01b0382165f9081526020819052604090208054820190555b816001600160a01b0316836001600160a01b03167fddf252ad1be2c89b69c2b068fc378daa952ba7f163c4a11628f55a4df523b3ef836040516114a491815260200190565b60405180910390a3505050565b602081525f82518060208401528060208501604085015e5f604082850101526040601f19601f83011684010191505092915050565b80356001600160a01b03811681146114fc575f80fd5b919050565b5f8060408385031215611512575f80fd5b61151b836114e6565b946020939093013593505050565b5f60208284031215611539575f80fd5b610812826114e6565b5f805f60608486031215611554575f80fd5b61155d846114e6565b925061156b602085016114e6565b929592945050506040919091013590565b5f806040838503121561158d575f80fd5b50508035926020909101359150565b5f602082840312156115ac575f80fd5b5035919050565b5f80604083850312156115c4575f80fd5b6115cd836114e6565b91506115db602084016114e6565b90509250929050565b600181811c908216806115f857607f821691505b60208210810361161657634e487b7160e01b5f52602260045260245ffd5b50919050565b634e487b7160e01b5f52601160045260245ffd5b818103818111156107995761079961161c565b5f8261165d57634e487b7160e01b5f52601260045260245ffd5b500490565b80820281158282048414176107995761079961161c565b808201808211156107995761079961161c565b6001815b60018411156116c7578085048111156116ab576116ab61161c565b60018416156116b957908102905b60019390931c928002611690565b935093915050565b5f826116dd57506001610799565b816116e957505f610799565b81600181146116ff576002811461170957611725565b6001915050610799565b60ff84111561171a5761171a61161c565b50506001821b610799565b5060208310610133831016604e8410600b8410161715611748575081810a610799565b6117545f19848461168c565b805f19048211156117675761176761161c565b029392505050565b5f61081260ff8416836116cf565b5f61081283836116cf56fea26469706673582212205d521d1ae1f21240297ec515b6642dd72b6881ae8f8df88092b8e4ddd16de89864736f6c634300081a0033",
					"opcodes": "PUSH1 0x80 PUSH1 0x40 MSTORE CALLVALUE DUP1 ISZERO PUSH2 0xF JUMPI PUSH0 DUP1 REVERT JUMPDEST POP PUSH1 0x40 MLOAD PUSH2 0x1D69 CODESIZE SUB DUP1 PUSH2 0x1D69 DUP4 CODECOPY DUP2 ADD PUSH1 0x40 DUP2 SWAP1 MSTORE PUSH2 0x2E SWAP2 PUSH2 0x2BA JUMP JUMPDEST DUP6 PUSH1 0x40 MLOAD DUP1 PUSH1 0x40 ADD PUSH1 0x40 MSTORE DUP1 PUSH1 0xB DUP2 MSTORE PUSH1 0x20 ADD PUSH11 0x2730BA3AB932AA37B5B2B7 PUSH1 0xA9 SHL DUP2 MSTORE POP PUSH1 0x40 MLOAD DUP1 PUSH1 0x40 ADD PUSH1 0x40 MSTORE DUP1 PUSH1 0x3 DUP2 MSTORE PUSH1 0x20 ADD PUSH3 0x272A29 PUSH1 0xE9 SHL DUP2 MSTORE POP DUP2 PUSH1 0x3 SWAP1 DUP2 PUSH2 0x7E SWAP2 SWAP1 PUSH2 0x3AC JUMP JUMPDEST POP PUSH1 0x4 PUSH2 0x8B DUP3 DUP3 PUSH2 0x3AC JUMP JUMPDEST POP POP POP PUSH1 0x1 PUSH1 0x1 PUSH1 0xA0 SHL SUB DUP2 AND PUSH2 0xBC JUMPI PUSH1 0x40 MLOAD PUSH4 0x1E4FBDF7 PUSH1 0xE0 SHL DUP2 MSTORE PUSH0 PUSH1 0x4 DUP3 ADD MSTORE PUSH1 0x24 ADD JUMPDEST PUSH1 0x40 MLOAD DUP1 SWAP2 SUB SWAP1 REVERT JUMPDEST PUSH2 0xC5 DUP2 PUSH2 0x10B JUMP JUMPDEST POP PUSH2 0xE5 ADDRESS PUSH2 0xD6 PUSH1 0x12 PUSH1 0xA PUSH2 0x55F JUMP JUMPDEST PUSH2 0xE0 SWAP1 DUP9 PUSH2 0x574 JUMP JUMPDEST PUSH2 0x15C JUMP JUMPDEST PUSH1 0x8 SWAP4 SWAP1 SWAP4 SSTORE PUSH1 0xA SWAP2 SWAP1 SWAP2 SSTORE PUSH1 0x9 SSTORE PUSH1 0xD SSTORE POP POP PUSH1 0x5 DUP1 SLOAD PUSH1 0xFF PUSH1 0xA0 SHL NOT AND SWAP1 SSTORE PUSH2 0x59E JUMP JUMPDEST PUSH1 0x5 DUP1 SLOAD PUSH1 0x1 PUSH1 0x1 PUSH1 0xA0 SHL SUB DUP4 DUP2 AND PUSH1 0x1 PUSH1 0x1 PUSH1 0xA0 SHL SUB NOT DUP4 AND DUP2 OR SWAP1 SWAP4 SSTORE PUSH1 0x40 MLOAD SWAP2 AND SWAP2 SWAP1 DUP3 SWAP1 PUSH32 0x8BE0079C531659141344CD1FD0A4F28419497F9722A3DAAFE3B4186F6B6457E0 SWAP1 PUSH0 SWAP1 LOG3 POP POP JUMP JUMPDEST PUSH1 0x1 PUSH1 0x1 PUSH1 0xA0 SHL SUB DUP3 AND PUSH2 0x185 JUMPI PUSH1 0x40 MLOAD PUSH4 0xEC442F05 PUSH1 0xE0 SHL DUP2 MSTORE PUSH0 PUSH1 0x4 DUP3 ADD MSTORE PUSH1 0x24 ADD PUSH2 0xB3 JUMP JUMPDEST PUSH2 0x190 PUSH0 DUP4 DUP4 PUSH2 0x194 JUMP JUMPDEST POP POP JUMP JUMPDEST PUSH1 0x1 PUSH1 0x1 PUSH1 0xA0 SHL SUB DUP4 AND PUSH2 0x1BE JUMPI DUP1 PUSH1 0x2 PUSH0 DUP3 DUP3 SLOAD PUSH2 0x1B3 SWAP2 SWAP1 PUSH2 0x58B JUMP JUMPDEST SWAP1 SWAP2 SSTORE POP PUSH2 0x22E SWAP1 POP JUMP JUMPDEST PUSH1 0x1 PUSH1 0x1 PUSH1 0xA0 SHL SUB DUP4 AND PUSH0 SWAP1 DUP2 MSTORE PUSH1 0x20 DUP2 SWAP1 MSTORE PUSH1 0x40 SWAP1 KECCAK256 SLOAD DUP2 DUP2 LT ISZERO PUSH2 0x210 JUMPI PUSH1 0x40 MLOAD PUSH4 0x391434E3 PUSH1 0xE2 SHL DUP2 MSTORE PUSH1 0x1 PUSH1 0x1 PUSH1 0xA0 SHL SUB DUP6 AND PUSH1 0x4 DUP3 ADD MSTORE PUSH1 0x24 DUP2 ADD DUP3 SWAP1 MSTORE PUSH1 0x44 DUP2 ADD DUP4 SWAP1 MSTORE PUSH1 0x64 ADD PUSH2 0xB3 JUMP JUMPDEST PUSH1 0x1 PUSH1 0x1 PUSH1 0xA0 SHL SUB DUP5 AND PUSH0 SWAP1 DUP2 MSTORE PUSH1 0x20 DUP2 SWAP1 MSTORE PUSH1 0x40 SWAP1 KECCAK256 SWAP1 DUP3 SWAP1 SUB SWAP1 SSTORE JUMPDEST PUSH1 0x1 PUSH1 0x1 PUSH1 0xA0 SHL SUB DUP3 AND PUSH2 0x24A JUMPI PUSH1 0x2 DUP1 SLOAD DUP3 SWAP1 SUB SWAP1 SSTORE PUSH2 0x268 JUMP JUMPDEST PUSH1 0x1 PUSH1 0x1 PUSH1 0xA0 SHL SUB DUP3 AND PUSH0 SWAP1 DUP2 MSTORE PUSH1 0x20 DUP2 SWAP1 MSTORE PUSH1 0x40 SWAP1 KECCAK256 DUP1 SLOAD DUP3 ADD SWAP1 SSTORE JUMPDEST DUP2 PUSH1 0x1 PUSH1 0x1 PUSH1 0xA0 SHL SUB AND DUP4 PUSH1 0x1 PUSH1 0x1 PUSH1 0xA0 SHL SUB AND PUSH32 0xDDF252AD1BE2C89B69C2B068FC378DAA952BA7F163C4A11628F55A4DF523B3EF DUP4 PUSH1 0x40 MLOAD PUSH2 0x2AD SWAP2 DUP2 MSTORE PUSH1 0x20 ADD SWAP1 JUMP JUMPDEST PUSH1 0x40 MLOAD DUP1 SWAP2 SUB SWAP1 LOG3 POP POP POP JUMP JUMPDEST PUSH0 DUP1 PUSH0 DUP1 PUSH0 DUP1 PUSH1 0xC0 DUP8 DUP10 SUB SLT ISZERO PUSH2 0x2CF JUMPI PUSH0 DUP1 REVERT JUMPDEST DUP7 MLOAD PUSH1 0x1 PUSH1 0x1 PUSH1 0xA0 SHL SUB DUP2 AND DUP2 EQ PUSH2 0x2E5 JUMPI PUSH0 DUP1 REVERT JUMPDEST PUSH1 0x20 DUP9 ADD MLOAD PUSH1 0x40 DUP10 ADD MLOAD PUSH1 0x60 DUP11 ADD MLOAD PUSH1 0x80 DUP12 ADD MLOAD PUSH1 0xA0 SWAP1 SWAP12 ADD MLOAD SWAP4 SWAP13 SWAP3 SWAP12 POP SWAP1 SWAP10 SWAP1 SWAP9 POP SWAP7 POP SWAP1 SWAP5 POP SWAP3 POP POP POP JUMP JUMPDEST PUSH4 0x4E487B71 PUSH1 0xE0 SHL PUSH0 MSTORE PUSH1 0x41 PUSH1 0x4 MSTORE PUSH1 0x24 PUSH0 REVERT JUMPDEST PUSH1 0x1 DUP2 DUP2 SHR SWAP1 DUP3 AND DUP1 PUSH2 0x33C JUMPI PUSH1 0x7F DUP3 AND SWAP2 POP JUMPDEST PUSH1 0x20 DUP3 LT DUP2 SUB PUSH2 0x35A JUMPI PUSH4 0x4E487B71 PUSH1 0xE0 SHL PUSH0 MSTORE PUSH1 0x22 PUSH1 0x4 MSTORE PUSH1 0x24 PUSH0 REVERT JUMPDEST POP SWAP2 SWAP1 POP JUMP JUMPDEST PUSH1 0x1F DUP3 GT ISZERO PUSH2 0x3A7 JUMPI DUP1 PUSH0 MSTORE PUSH1 0x20 PUSH0 KECCAK256 PUSH1 0x1F DUP5 ADD PUSH1 0x5 SHR DUP2 ADD PUSH1 0x20 DUP6 LT ISZERO PUSH2 0x385 JUMPI POP DUP1 JUMPDEST PUSH1 0x1F DUP5 ADD PUSH1 0x5 SHR DUP3 ADD SWAP2 POP JUMPDEST DUP2 DUP2 LT ISZERO PUSH2 0x3A4 JUMPI PUSH0 DUP2 SSTORE PUSH1 0x1 ADD PUSH2 0x391 JUMP JUMPDEST POP POP JUMPDEST POP POP POP JUMP JUMPDEST DUP2 MLOAD PUSH1 0x1 PUSH1 0x1 PUSH1 0x40 SHL SUB DUP2 GT ISZERO PUSH2 0x3C5 JUMPI PUSH2 0x3C5 PUSH2 0x314 JUMP JUMPDEST PUSH2 0x3D9 DUP2 PUSH2 0x3D3 DUP5 SLOAD PUSH2 0x328 JUMP JUMPDEST DUP5 PUSH2 0x360 JUMP JUMPDEST PUSH1 0x20 PUSH1 0x1F DUP3 GT PUSH1 0x1 DUP2 EQ PUSH2 0x40B JUMPI PUSH0 DUP4 ISZERO PUSH2 0x3F4 JUMPI POP DUP5 DUP3 ADD MLOAD JUMPDEST PUSH0 NOT PUSH1 0x3 DUP6 SWAP1 SHL SHR NOT AND PUSH1 0x1 DUP5 SWAP1 SHL OR DUP5 SSTORE PUSH2 0x3A4 JUMP JUMPDEST PUSH0 DUP5 DUP2 MSTORE PUSH1 0x20 DUP2 KECCAK256 PUSH1 0x1F NOT DUP6 AND SWAP2 JUMPDEST DUP3 DUP2 LT ISZERO PUSH2 0x43A JUMPI DUP8 DUP6 ADD MLOAD DUP3 SSTORE PUSH1 0x20 SWAP5 DUP6 ADD SWAP5 PUSH1 0x1 SWAP1 SWAP3 ADD SWAP2 ADD PUSH2 0x41A JUMP JUMPDEST POP DUP5 DUP3 LT ISZERO PUSH2 0x457 JUMPI DUP7 DUP5 ADD MLOAD PUSH0 NOT PUSH1 0x3 DUP8 SWAP1 SHL PUSH1 0xF8 AND SHR NOT AND DUP2 SSTORE JUMPDEST POP POP POP POP PUSH1 0x1 SWAP1 DUP2 SHL ADD SWAP1 SSTORE POP JUMP JUMPDEST PUSH4 0x4E487B71 PUSH1 0xE0 SHL PUSH0 MSTORE PUSH1 0x11 PUSH1 0x4 MSTORE PUSH1 0x24 PUSH0 REVERT JUMPDEST PUSH1 0x1 DUP2 JUMPDEST PUSH1 0x1 DUP5 GT ISZERO PUSH2 0x4B5 JUMPI DUP1 DUP6 DIV DUP2 GT ISZERO PUSH2 0x499 JUMPI PUSH2 0x499 PUSH2 0x466 JUMP JUMPDEST PUSH1 0x1 DUP5 AND ISZERO PUSH2 0x4A7 JUMPI SWAP1 DUP2 MUL SWAP1 JUMPDEST PUSH1 0x1 SWAP4 SWAP1 SWAP4 SHR SWAP3 DUP1 MUL PUSH2 0x47E JUMP JUMPDEST SWAP4 POP SWAP4 SWAP2 POP POP JUMP JUMPDEST PUSH0 DUP3 PUSH2 0x4CB JUMPI POP PUSH1 0x1 PUSH2 0x559 JUMP JUMPDEST DUP2 PUSH2 0x4D7 JUMPI POP PUSH0 PUSH2 0x559 JUMP JUMPDEST DUP2 PUSH1 0x1 DUP2 EQ PUSH2 0x4ED JUMPI PUSH1 0x2 DUP2 EQ PUSH2 0x4F7 JUMPI PUSH2 0x513 JUMP JUMPDEST PUSH1 0x1 SWAP2 POP POP PUSH2 0x559 JUMP JUMPDEST PUSH1 0xFF DUP5 GT ISZERO PUSH2 0x508 JUMPI PUSH2 0x508 PUSH2 0x466 JUMP JUMPDEST POP POP PUSH1 0x1 DUP3 SHL PUSH2 0x559 JUMP JUMPDEST POP PUSH1 0x20 DUP4 LT PUSH2 0x133 DUP4 LT AND PUSH1 0x4E DUP5 LT PUSH1 0xB DUP5 LT AND OR ISZERO PUSH2 0x536 JUMPI POP DUP2 DUP2 EXP PUSH2 0x559 JUMP JUMPDEST PUSH2 0x542 PUSH0 NOT DUP5 DUP5 PUSH2 0x47A JUMP JUMPDEST DUP1 PUSH0 NOT DIV DUP3 GT ISZERO PUSH2 0x555 JUMPI PUSH2 0x555 PUSH2 0x466 JUMP JUMPDEST MUL SWAP1 POP JUMPDEST SWAP3 SWAP2 POP POP JUMP JUMPDEST PUSH0 PUSH2 0x56D PUSH1 0xFF DUP5 AND DUP4 PUSH2 0x4BD JUMP JUMPDEST SWAP4 SWAP3 POP POP POP JUMP JUMPDEST DUP1 DUP3 MUL DUP2 ISZERO DUP3 DUP3 DIV DUP5 EQ OR PUSH2 0x559 JUMPI PUSH2 0x559 PUSH2 0x466 JUMP JUMPDEST DUP1 DUP3 ADD DUP1 DUP3 GT ISZERO PUSH2 0x559 JUMPI PUSH2 0x559 PUSH2 0x466 JUMP JUMPDEST PUSH2 0x17BE DUP1 PUSH2 0x5AB PUSH0 CODECOPY PUSH0 RETURN INVALID PUSH1 0x80 PUSH1 0x40 MSTORE PUSH1 0x4 CALLDATASIZE LT PUSH2 0x228 JUMPI PUSH0 CALLDATALOAD PUSH1 0xE0 SHR DUP1 PUSH4 0x7547C7A3 GT PUSH2 0x129 JUMPI DUP1 PUSH4 0xA9059CBB GT PUSH2 0xA8 JUMPI DUP1 PUSH4 0xDD62ED3E GT PUSH2 0x6D JUMPI DUP1 PUSH4 0xDD62ED3E EQ PUSH2 0x634 JUMPI DUP1 PUSH4 0xF2FDE38B EQ PUSH2 0x678 JUMPI DUP1 PUSH4 0xF8102E68 EQ PUSH2 0x697 JUMPI DUP1 PUSH4 0xF9931855 EQ PUSH2 0x6AC JUMPI DUP1 PUSH4 0xF9A81AF7 EQ PUSH2 0x6D7 JUMPI PUSH0 DUP1 REVERT JUMPDEST DUP1 PUSH4 0xA9059CBB EQ PUSH2 0x5B9 JUMPI DUP1 PUSH4 0xCCE29EA7 EQ PUSH2 0x5D8 JUMPI DUP1 PUSH4 0xCEC297A0 EQ PUSH2 0x5ED JUMPI DUP1 PUSH4 0xD0FEBE4C EQ PUSH2 0x618 JUMPI DUP1 PUSH4 0xD348B409 EQ PUSH2 0x620 JUMPI PUSH0 DUP1 REVERT JUMPDEST DUP1 PUSH4 0x95D89B41 GT PUSH2 0xEE JUMPI DUP1 PUSH4 0x95D89B41 EQ PUSH2 0x510 JUMPI DUP1 PUSH4 0x9B19251A EQ PUSH2 0x524 JUMPI DUP1 PUSH4 0x9CA423B3 EQ PUSH2 0x552 JUMPI DUP1 PUSH4 0xA09C4CF4 EQ PUSH2 0x586 JUMPI DUP1 PUSH4 0xA5CE413B EQ PUSH2 0x5A5 JUMPI PUSH0 DUP1 REVERT JUMPDEST DUP1 PUSH4 0x7547C7A3 EQ PUSH2 0x462 JUMPI DUP1 PUSH4 0x7C613B2F EQ PUSH2 0x481 JUMPI DUP1 PUSH4 0x8265324D EQ PUSH2 0x495 JUMPI DUP1 PUSH4 0x8DA5CB5B EQ PUSH2 0x4B4 JUMPI DUP1 PUSH4 0x8F0794FE EQ PUSH2 0x4E5 JUMPI PUSH0 DUP1 REVERT JUMPDEST DUP1 PUSH4 0x2C663960 GT PUSH2 0x1B5 JUMPI DUP1 PUSH4 0x4F3FC2DF GT PUSH2 0x17A JUMPI DUP1 PUSH4 0x4F3FC2DF EQ PUSH2 0x3D9 JUMPI DUP1 PUSH4 0x518AB2A8 EQ PUSH2 0x3EE JUMPI DUP1 PUSH4 0x70A08231 EQ PUSH2 0x403 JUMPI DUP1 PUSH4 0x715018A6 EQ PUSH2 0x437 JUMPI DUP1 PUSH4 0x7165D19B EQ PUSH2 0x44D JUMPI PUSH0 DUP1 REVERT JUMPDEST DUP1 PUSH4 0x2C663960 EQ PUSH2 0x34B JUMPI DUP1 PUSH4 0x30F72CD4 EQ PUSH2 0x36A JUMPI DUP1 PUSH4 0x313CE567 EQ PUSH2 0x38A JUMPI DUP1 PUSH4 0x329A27E7 EQ PUSH2 0x3A5 JUMPI DUP1 PUSH4 0x4405DF4A EQ PUSH2 0x3C5 JUMPI PUSH0 DUP1 REVERT JUMPDEST DUP1 PUSH4 0xD505541 GT PUSH2 0x1FB JUMPI DUP1 PUSH4 0xD505541 EQ PUSH2 0x2B9 JUMPI DUP1 PUSH4 0x18160DDD EQ PUSH2 0x2D8 JUMPI DUP1 PUSH4 0x1D0806AE EQ PUSH2 0x2EC JUMPI DUP1 PUSH4 0x23B872DD EQ PUSH2 0x301 JUMPI DUP1 PUSH4 0x27E235E3 EQ PUSH2 0x320 JUMPI PUSH0 DUP1 REVERT JUMPDEST DUP1 PUSH4 0x3E293A3 EQ PUSH2 0x22C JUMPI DUP1 PUSH4 0x6D65AF3 EQ PUSH2 0x254 JUMPI DUP1 PUSH4 0x6FDDE03 EQ PUSH2 0x269 JUMPI DUP1 PUSH4 0x95EA7B3 EQ PUSH2 0x28A JUMPI JUMPDEST PUSH0 DUP1 REVERT JUMPDEST CALLVALUE DUP1 ISZERO PUSH2 0x237 JUMPI PUSH0 DUP1 REVERT JUMPDEST POP PUSH2 0x241 PUSH1 0x9 SLOAD DUP2 JUMP JUMPDEST PUSH1 0x40 MLOAD SWAP1 DUP2 MSTORE PUSH1 0x20 ADD JUMPDEST PUSH1 0x40 MLOAD DUP1 SWAP2 SUB SWAP1 RETURN JUMPDEST CALLVALUE DUP1 ISZERO PUSH2 0x25F JUMPI PUSH0 DUP1 REVERT JUMPDEST POP PUSH2 0x241 PUSH1 0x6 SLOAD DUP2 JUMP JUMPDEST CALLVALUE DUP1 ISZERO PUSH2 0x274 JUMPI PUSH0 DUP1 REVERT JUMPDEST POP PUSH2 0x27D PUSH2 0x6F6 JUMP JUMPDEST PUSH1 0x40 MLOAD PUSH2 0x24B SWAP2 SWAP1 PUSH2 0x14B1 JUMP JUMPDEST CALLVALUE DUP1 ISZERO PUSH2 0x295 JUMPI PUSH0 DUP1 REVERT JUMPDEST POP PUSH2 0x2A9 PUSH2 0x2A4 CALLDATASIZE PUSH1 0x4 PUSH2 0x1501 JUMP JUMPDEST PUSH2 0x786 JUMP JUMPDEST PUSH1 0x40 MLOAD SWAP1 ISZERO ISZERO DUP2 MSTORE PUSH1 0x20 ADD PUSH2 0x24B JUMP JUMPDEST CALLVALUE DUP1 ISZERO PUSH2 0x2C4 JUMPI PUSH0 DUP1 REVERT JUMPDEST POP PUSH2 0x241 PUSH2 0x2D3 CALLDATASIZE PUSH1 0x4 PUSH2 0x1529 JUMP JUMPDEST PUSH2 0x79F JUMP JUMPDEST CALLVALUE DUP1 ISZERO PUSH2 0x2E3 JUMPI PUSH0 DUP1 REVERT JUMPDEST POP PUSH1 0x2 SLOAD PUSH2 0x241 JUMP JUMPDEST CALLVALUE DUP1 ISZERO PUSH2 0x2F7 JUMPI PUSH0 DUP1 REVERT JUMPDEST POP PUSH2 0x241 PUSH1 0x8 SLOAD DUP2 JUMP JUMPDEST CALLVALUE DUP1 ISZERO PUSH2 0x30C JUMPI PUSH0 DUP1 REVERT JUMPDEST POP PUSH2 0x2A9 PUSH2 0x31B CALLDATASIZE PUSH1 0x4 PUSH2 0x1542 JUMP JUMPDEST PUSH2 0x819 JUMP JUMPDEST CALLVALUE DUP1 ISZERO PUSH2 0x32B JUMPI PUSH0 DUP1 REVERT JUMPDEST POP PUSH2 0x241 PUSH2 0x33A CALLDATASIZE PUSH1 0x4 PUSH2 0x1529 JUMP JUMPDEST PUSH1 0x13 PUSH1 0x20 MSTORE PUSH0 SWAP1 DUP2 MSTORE PUSH1 0x40 SWAP1 KECCAK256 SLOAD DUP2 JUMP JUMPDEST CALLVALUE DUP1 ISZERO PUSH2 0x356 JUMPI PUSH0 DUP1 REVERT JUMPDEST POP PUSH2 0x241 PUSH2 0x365 CALLDATASIZE PUSH1 0x4 PUSH2 0x157C JUMP JUMPDEST PUSH2 0x83C JUMP JUMPDEST CALLVALUE DUP1 ISZERO PUSH2 0x375 JUMPI PUSH0 DUP1 REVERT JUMPDEST POP PUSH1 0x5 SLOAD PUSH2 0x2A9 SWAP1 PUSH1 0x1 PUSH1 0xA0 SHL SWAP1 DIV PUSH1 0xFF AND DUP2 JUMP JUMPDEST CALLVALUE DUP1 ISZERO PUSH2 0x395 JUMPI PUSH0 DUP1 REVERT JUMPDEST POP PUSH1 0x40 MLOAD PUSH1 0x12 DUP2 MSTORE PUSH1 0x20 ADD PUSH2 0x24B JUMP JUMPDEST CALLVALUE DUP1 ISZERO PUSH2 0x3B0 JUMPI PUSH0 DUP1 REVERT JUMPDEST POP CALLER PUSH0 SWAP1 DUP2 MSTORE PUSH1 0x13 PUSH1 0x20 MSTORE PUSH1 0x40 SWAP1 KECCAK256 SLOAD PUSH2 0x241 JUMP JUMPDEST CALLVALUE DUP1 ISZERO PUSH2 0x3D0 JUMPI PUSH0 DUP1 REVERT JUMPDEST POP PUSH2 0x241 PUSH2 0x8BD JUMP JUMPDEST CALLVALUE DUP1 ISZERO PUSH2 0x3E4 JUMPI PUSH0 DUP1 REVERT JUMPDEST POP PUSH2 0x241 PUSH1 0xD SLOAD DUP2 JUMP JUMPDEST CALLVALUE DUP1 ISZERO PUSH2 0x3F9 JUMPI PUSH0 DUP1 REVERT JUMPDEST POP PUSH2 0x241 PUSH1 0xB SLOAD DUP2 JUMP JUMPDEST CALLVALUE DUP1 ISZERO PUSH2 0x40E JUMPI PUSH0 DUP1 REVERT JUMPDEST POP PUSH2 0x241 PUSH2 0x41D CALLDATASIZE PUSH1 0x4 PUSH2 0x1529 JUMP JUMPDEST PUSH1 0x1 PUSH1 0x1 PUSH1 0xA0 SHL SUB AND PUSH0 SWAP1 DUP2 MSTORE PUSH1 0x20 DUP2 SWAP1 MSTORE PUSH1 0x40 SWAP1 KECCAK256 SLOAD SWAP1 JUMP JUMPDEST CALLVALUE DUP1 ISZERO PUSH2 0x442 JUMPI PUSH0 DUP1 REVERT JUMPDEST POP PUSH2 0x44B PUSH2 0x8E2 JUMP JUMPDEST STOP JUMPDEST CALLVALUE DUP1 ISZERO PUSH2 0x458 JUMPI PUSH0 DUP1 REVERT JUMPDEST POP PUSH2 0x241 PUSH1 0xA SLOAD DUP2 JUMP JUMPDEST CALLVALUE DUP1 ISZERO PUSH2 0x46D JUMPI PUSH0 DUP1 REVERT JUMPDEST POP PUSH2 0x44B PUSH2 0x47C CALLDATASIZE PUSH1 0x4 PUSH2 0x159C JUMP JUMPDEST PUSH2 0x8F5 JUMP JUMPDEST CALLVALUE DUP1 ISZERO PUSH2 0x48C JUMPI PUSH0 DUP1 REVERT JUMPDEST POP PUSH2 0x44B PUSH2 0xA20 JUMP JUMPDEST CALLVALUE DUP1 ISZERO PUSH2 0x4A0 JUMPI PUSH0 DUP1 REVERT JUMPDEST POP PUSH2 0x241 PUSH2 0x4AF CALLDATASIZE PUSH1 0x4 PUSH2 0x1529 JUMP JUMPDEST PUSH2 0xB1D JUMP JUMPDEST CALLVALUE DUP1 ISZERO PUSH2 0x4BF JUMPI PUSH0 DUP1 REVERT JUMPDEST POP PUSH1 0x5 SLOAD PUSH1 0x1 PUSH1 0x1 PUSH1 0xA0 SHL SUB AND JUMPDEST PUSH1 0x40 MLOAD PUSH1 0x1 PUSH1 0x1 PUSH1 0xA0 SHL SUB SWAP1 SWAP2 AND DUP2 MSTORE PUSH1 0x20 ADD PUSH2 0x24B JUMP JUMPDEST CALLVALUE DUP1 ISZERO PUSH2 0x4F0 JUMPI PUSH0 DUP1 REVERT JUMPDEST POP PUSH2 0x241 PUSH2 0x4FF CALLDATASIZE PUSH1 0x4 PUSH2 0x1529 JUMP JUMPDEST PUSH1 0xF PUSH1 0x20 MSTORE PUSH0 SWAP1 DUP2 MSTORE PUSH1 0x40 SWAP1 KECCAK256 SLOAD DUP2 JUMP JUMPDEST CALLVALUE DUP1 ISZERO PUSH2 0x51B JUMPI PUSH0 DUP1 REVERT JUMPDEST POP PUSH2 0x27D PUSH2 0xB58 JUMP JUMPDEST CALLVALUE DUP1 ISZERO PUSH2 0x52F JUMPI PUSH0 DUP1 REVERT JUMPDEST POP PUSH2 0x2A9 PUSH2 0x53E CALLDATASIZE PUSH1 0x4 PUSH2 0x1529 JUMP JUMPDEST PUSH1 0x10 PUSH1 0x20 MSTORE PUSH0 SWAP1 DUP2 MSTORE PUSH1 0x40 SWAP1 KECCAK256 SLOAD PUSH1 0xFF AND DUP2 JUMP JUMPDEST CALLVALUE DUP1 ISZERO PUSH2 0x55D JUMPI PUSH0 DUP1 REVERT JUMPDEST POP PUSH2 0x4CD PUSH2 0x56C CALLDATASIZE PUSH1 0x4 PUSH2 0x1529 JUMP JUMPDEST PUSH1 0x11 PUSH1 0x20 MSTORE PUSH0 SWAP1 DUP2 MSTORE PUSH1 0x40 SWAP1 KECCAK256 SLOAD PUSH1 0x1 PUSH1 0x1 PUSH1 0xA0 SHL SUB AND DUP2 JUMP JUMPDEST CALLVALUE DUP1 ISZERO PUSH2 0x591 JUMPI PUSH0 DUP1 REVERT JUMPDEST POP PUSH2 0x44B PUSH2 0x5A0 CALLDATASIZE PUSH1 0x4 PUSH2 0x1529 JUMP JUMPDEST PUSH2 0xB67 JUMP JUMPDEST CALLVALUE DUP1 ISZERO PUSH2 0x5B0 JUMPI PUSH0 DUP1 REVERT JUMPDEST POP PUSH2 0x44B PUSH2 0xCDE JUMP JUMPDEST CALLVALUE DUP1 ISZERO PUSH2 0x5C4 JUMPI PUSH0 DUP1 REVERT JUMPDEST POP PUSH2 0x2A9 PUSH2 0x5D3 CALLDATASIZE PUSH1 0x4 PUSH2 0x1501 JUMP JUMPDEST PUSH2 0xE16 JUMP JUMPDEST CALLVALUE DUP1 ISZERO PUSH2 0x5E3 JUMPI PUSH0 DUP1 REVERT JUMPDEST POP PUSH2 0x241 PUSH1 0x7 SLOAD DUP2 JUMP JUMPDEST CALLVALUE DUP1 ISZERO PUSH2 0x5F8 JUMPI PUSH0 DUP1 REVERT JUMPDEST POP PUSH2 0x241 PUSH2 0x607 CALLDATASIZE PUSH1 0x4 PUSH2 0x1529 JUMP JUMPDEST PUSH1 0x12 PUSH1 0x20 MSTORE PUSH0 SWAP1 DUP2 MSTORE PUSH1 0x40 SWAP1 KECCAK256 SLOAD DUP2 JUMP JUMPDEST PUSH2 0x44B PUSH2 0xE23 JUMP JUMPDEST CALLVALUE DUP1 ISZERO PUSH2 0x62B JUMPI PUSH0 DUP1 REVERT JUMPDEST POP PUSH2 0x241 PUSH2 0xFCC JUMP JUMPDEST CALLVALUE DUP1 ISZERO PUSH2 0x63F JUMPI PUSH0 DUP1 REVERT JUMPDEST POP PUSH2 0x241 PUSH2 0x64E CALLDATASIZE PUSH1 0x4 PUSH2 0x15B3 JUMP JUMPDEST PUSH1 0x1 PUSH1 0x1 PUSH1 0xA0 SHL SUB SWAP2 DUP3 AND PUSH0 SWAP1 DUP2 MSTORE PUSH1 0x1 PUSH1 0x20 SWAP1 DUP2 MSTORE PUSH1 0x40 DUP1 DUP4 KECCAK256 SWAP4 SWAP1 SWAP5 AND DUP3 MSTORE SWAP2 SWAP1 SWAP2 MSTORE KECCAK256 SLOAD SWAP1 JUMP JUMPDEST CALLVALUE DUP1 ISZERO PUSH2 0x683 JUMPI PUSH0 DUP1 REVERT JUMPDEST POP PUSH2 0x44B PUSH2 0x692 CALLDATASIZE PUSH1 0x4 PUSH2 0x1529 JUMP JUMPDEST PUSH2 0x1052 JUMP JUMPDEST CALLVALUE DUP1 ISZERO PUSH2 0x6A2 JUMPI PUSH0 DUP1 REVERT JUMPDEST POP PUSH2 0x241 PUSH1 0xC SLOAD DUP2 JUMP JUMPDEST CALLVALUE DUP1 ISZERO PUSH2 0x6B7 JUMPI PUSH0 DUP1 REVERT JUMPDEST POP PUSH2 0x241 PUSH2 0x6C6 CALLDATASIZE PUSH1 0x4 PUSH2 0x1529 JUMP JUMPDEST PUSH1 0xE PUSH1 0x20 MSTORE PUSH0 SWAP1 DUP2 MSTORE PUSH1 0x40 SWAP1 KECCAK256 SLOAD DUP2 JUMP JUMPDEST CALLVALUE DUP1 ISZERO PUSH2 0x6E2 JUMPI PUSH0 DUP1 REVERT JUMPDEST POP PUSH2 0x44B PUSH2 0x6F1 CALLDATASIZE PUSH1 0x4 PUSH2 0x157C JUMP JUMPDEST PUSH2 0x108F JUMP JUMPDEST PUSH1 0x60 PUSH1 0x3 DUP1 SLOAD PUSH2 0x705 SWAP1 PUSH2 0x15E4 JUMP JUMPDEST DUP1 PUSH1 0x1F ADD PUSH1 0x20 DUP1 SWAP2 DIV MUL PUSH1 0x20 ADD PUSH1 0x40 MLOAD SWAP1 DUP2 ADD PUSH1 0x40 MSTORE DUP1 SWAP3 SWAP2 SWAP1 DUP2 DUP2 MSTORE PUSH1 0x20 ADD DUP3 DUP1 SLOAD PUSH2 0x731 SWAP1 PUSH2 0x15E4 JUMP JUMPDEST DUP1 ISZERO PUSH2 0x77C JUMPI DUP1 PUSH1 0x1F LT PUSH2 0x753 JUMPI PUSH2 0x100 DUP1 DUP4 SLOAD DIV MUL DUP4 MSTORE SWAP2 PUSH1 0x20 ADD SWAP2 PUSH2 0x77C JUMP JUMPDEST DUP3 ADD SWAP2 SWAP1 PUSH0 MSTORE PUSH1 0x20 PUSH0 KECCAK256 SWAP1 JUMPDEST DUP2 SLOAD DUP2 MSTORE SWAP1 PUSH1 0x1 ADD SWAP1 PUSH1 0x20 ADD DUP1 DUP4 GT PUSH2 0x75F JUMPI DUP3 SWAP1 SUB PUSH1 0x1F AND DUP3 ADD SWAP2 JUMPDEST POP POP POP POP POP SWAP1 POP SWAP1 JUMP JUMPDEST PUSH0 CALLER PUSH2 0x793 DUP2 DUP6 DUP6 PUSH2 0x1118 JUMP JUMPDEST PUSH1 0x1 SWAP2 POP POP JUMPDEST SWAP3 SWAP2 POP POP JUMP JUMPDEST PUSH1 0x1 PUSH1 0x1 PUSH1 0xA0 SHL SUB DUP2 AND PUSH0 SWAP1 DUP2 MSTORE PUSH1 0xF PUSH1 0x20 MSTORE PUSH1 0x40 DUP2 KECCAK256 SLOAD DUP2 SWAP1 PUSH3 0x93A80 SWAP1 PUSH2 0x7C8 SWAP1 TIMESTAMP PUSH2 0x1630 JUMP JUMPDEST PUSH2 0x7D2 SWAP2 SWAP1 PUSH2 0x1643 JUMP JUMPDEST PUSH1 0xD SLOAD PUSH1 0x1 PUSH1 0x1 PUSH1 0xA0 SHL SUB DUP6 AND PUSH0 SWAP1 DUP2 MSTORE PUSH1 0xE PUSH1 0x20 MSTORE PUSH1 0x40 SWAP1 KECCAK256 SLOAD SWAP2 SWAP3 POP PUSH1 0x64 SWAP2 DUP4 SWAP2 PUSH2 0x7FE SWAP2 PUSH2 0x1662 JUMP JUMPDEST PUSH2 0x808 SWAP2 SWAP1 PUSH2 0x1662 JUMP JUMPDEST PUSH2 0x812 SWAP2 SWAP1 PUSH2 0x1643 JUMP JUMPDEST SWAP4 SWAP3 POP POP POP JUMP JUMPDEST PUSH0 CALLER PUSH2 0x826 DUP6 DUP3 DUP6 PUSH2 0x112A JUMP JUMPDEST PUSH2 0x831 DUP6 DUP6 DUP6 PUSH2 0x11A6 JUMP JUMPDEST POP PUSH1 0x1 SWAP5 SWAP4 POP POP POP POP JUMP JUMPDEST PUSH0 DUP3 DUP3 LT ISZERO PUSH2 0x89C JUMPI PUSH1 0x40 MLOAD PUSH3 0x461BCD PUSH1 0xE5 SHL DUP2 MSTORE PUSH1 0x20 PUSH1 0x4 DUP3 ADD MSTORE PUSH1 0x21 PUSH1 0x24 DUP3 ADD MSTORE PUSH32 0x456E642074696D65206D7573742062652061667465722073746172742074696D PUSH1 0x44 DUP3 ADD MSTORE PUSH1 0x65 PUSH1 0xF8 SHL PUSH1 0x64 DUP3 ADD MSTORE PUSH1 0x84 ADD JUMPDEST PUSH1 0x40 MLOAD DUP1 SWAP2 SUB SWAP1 REVERT JUMPDEST PUSH0 PUSH3 0x93A80 PUSH2 0x8AB DUP6 DUP6 PUSH2 0x1630 JUMP JUMPDEST PUSH2 0x8B5 SWAP2 SWAP1 PUSH2 0x1643 JUMP JUMPDEST SWAP5 SWAP4 POP POP POP POP JUMP JUMPDEST PUSH0 DUP1 PUSH2 0x8CB PUSH1 0x6 SLOAD TIMESTAMP PUSH2 0x83C JUMP JUMPDEST SWAP1 POP PUSH0 PUSH1 0xC SLOAD DUP3 PUSH1 0x8 SLOAD PUSH1 0x9 SLOAD PUSH2 0x7FE SWAP2 SWAP1 PUSH2 0x1630 JUMP JUMPDEST PUSH2 0x8EA PUSH2 0x1203 JUMP JUMPDEST PUSH2 0x8F3 PUSH0 PUSH2 0x1230 JUMP JUMPDEST JUMP JUMPDEST PUSH0 DUP2 GT PUSH2 0x94E JUMPI PUSH1 0x40 MLOAD PUSH3 0x461BCD PUSH1 0xE5 SHL DUP2 MSTORE PUSH1 0x20 PUSH1 0x4 DUP3 ADD MSTORE PUSH1 0x21 PUSH1 0x24 DUP3 ADD MSTORE PUSH32 0x416D6F756E74206D7573742062652067726561746572207468616E207A65726F PUSH1 0x44 DUP3 ADD MSTORE PUSH1 0x17 PUSH1 0xF9 SHL PUSH1 0x64 DUP3 ADD MSTORE PUSH1 0x84 ADD PUSH2 0x893 JUMP JUMPDEST CALLER PUSH0 SWAP1 DUP2 MSTORE PUSH1 0x20 DUP2 SWAP1 MSTORE PUSH1 0x40 SWAP1 KECCAK256 SLOAD DUP2 GT ISZERO PUSH2 0x9A4 JUMPI PUSH1 0x40 MLOAD PUSH3 0x461BCD PUSH1 0xE5 SHL DUP2 MSTORE PUSH1 0x20 PUSH1 0x4 DUP3 ADD MSTORE PUSH1 0x15 PUSH1 0x24 DUP3 ADD MSTORE PUSH21 0x24B739BAB33334B1B4B2B73A103130B630B731B297 PUSH1 0x59 SHL PUSH1 0x44 DUP3 ADD MSTORE PUSH1 0x64 ADD PUSH2 0x893 JUMP JUMPDEST PUSH2 0x9AF CALLER ADDRESS DUP4 PUSH2 0x11A6 JUMP JUMPDEST CALLER PUSH0 SWAP1 DUP2 MSTORE PUSH1 0xE PUSH1 0x20 MSTORE PUSH1 0x40 DUP2 KECCAK256 DUP1 SLOAD DUP4 SWAP3 SWAP1 PUSH2 0x9CD SWAP1 DUP5 SWAP1 PUSH2 0x1679 JUMP JUMPDEST SWAP1 SWAP2 SSTORE POP POP CALLER PUSH0 DUP2 DUP2 MSTORE PUSH1 0xF PUSH1 0x20 MSTORE PUSH1 0x40 SWAP1 DUP2 SWAP1 KECCAK256 TIMESTAMP SWAP1 SSTORE MLOAD PUSH32 0xB539CA1E5C8D398DDF1C41C30166F33404941683BE4683319B57669A93DAD4EF SWAP1 PUSH2 0xA15 SWAP1 DUP5 DUP2 MSTORE PUSH1 0x20 ADD SWAP1 JUMP JUMPDEST PUSH1 0x40 MLOAD DUP1 SWAP2 SUB SWAP1 LOG2 POP JUMP JUMPDEST PUSH1 0x5 SLOAD PUSH1 0x1 PUSH1 0xA0 SHL SWAP1 DIV PUSH1 0xFF AND ISZERO ISZERO PUSH1 0x1 EQ PUSH2 0xA7E JUMPI PUSH1 0x40 MLOAD PUSH3 0x461BCD PUSH1 0xE5 SHL DUP2 MSTORE PUSH1 0x20 PUSH1 0x4 DUP3 ADD MSTORE PUSH1 0x17 PUSH1 0x24 DUP3 ADD MSTORE PUSH32 0x50726573616C65206E6F74207374617274656420796574000000000000000000 PUSH1 0x44 DUP3 ADD MSTORE PUSH1 0x64 ADD PUSH2 0x893 JUMP JUMPDEST PUSH0 PUSH2 0xA88 CALLER PUSH2 0xB1D JUMP JUMPDEST SWAP1 POP PUSH0 DUP2 GT PUSH2 0xAD0 JUMPI PUSH1 0x40 MLOAD PUSH3 0x461BCD PUSH1 0xE5 SHL DUP2 MSTORE PUSH1 0x20 PUSH1 0x4 DUP3 ADD MSTORE PUSH1 0x14 PUSH1 0x24 DUP3 ADD MSTORE PUSH20 0x4E6F207265776172647320617661696C61626C65 PUSH1 0x60 SHL PUSH1 0x44 DUP3 ADD MSTORE PUSH1 0x64 ADD PUSH2 0x893 JUMP JUMPDEST PUSH2 0xADA CALLER DUP3 PUSH2 0x1281 JUMP JUMPDEST CALLER PUSH0 DUP2 DUP2 MSTORE PUSH1 0x12 PUSH1 0x20 MSTORE PUSH1 0x40 DUP1 DUP3 KECCAK256 SWAP2 SWAP1 SWAP2 SSTORE MLOAD PUSH32 0xF0BC0A70FE19EF2D8DC1E1948B338A1184184FB1EA3AC836F24065828816D68D SWAP1 PUSH2 0xA15 SWAP1 DUP5 DUP2 MSTORE PUSH1 0x20 ADD SWAP1 JUMP JUMPDEST PUSH0 PUSH2 0xB2A PUSH1 0x12 PUSH1 0xA PUSH2 0x176F JUMP JUMPDEST PUSH1 0x1 PUSH1 0x1 PUSH1 0xA0 SHL SUB DUP4 AND PUSH0 SWAP1 DUP2 MSTORE PUSH1 0x12 PUSH1 0x20 MSTORE PUSH1 0x40 SWAP1 KECCAK256 SLOAD PUSH2 0xB4E SWAP1 PUSH2 0x1F4 PUSH2 0x1662 JUMP JUMPDEST PUSH2 0x799 SWAP2 SWAP1 PUSH2 0x1662 JUMP JUMPDEST PUSH1 0x60 PUSH1 0x4 DUP1 SLOAD PUSH2 0x705 SWAP1 PUSH2 0x15E4 JUMP JUMPDEST CALLER PUSH0 SWAP1 DUP2 MSTORE PUSH1 0x10 PUSH1 0x20 MSTORE PUSH1 0x40 SWAP1 KECCAK256 SLOAD PUSH1 0xFF AND ISZERO PUSH2 0xBBC JUMPI PUSH1 0x40 MLOAD PUSH3 0x461BCD PUSH1 0xE5 SHL DUP2 MSTORE PUSH1 0x20 PUSH1 0x4 DUP3 ADD MSTORE PUSH1 0x13 PUSH1 0x24 DUP3 ADD MSTORE PUSH19 0x105B1C9958591E481DDA1A5D195B1A5CDD1959 PUSH1 0x6A SHL PUSH1 0x44 DUP3 ADD MSTORE PUSH1 0x64 ADD PUSH2 0x893 JUMP JUMPDEST PUSH1 0x1 PUSH1 0x1 PUSH1 0xA0 SHL SUB DUP2 AND CALLER SUB PUSH2 0xC0C JUMPI PUSH1 0x40 MLOAD PUSH3 0x461BCD PUSH1 0xE5 SHL DUP2 MSTORE PUSH1 0x20 PUSH1 0x4 DUP3 ADD MSTORE PUSH1 0x15 PUSH1 0x24 DUP3 ADD MSTORE PUSH21 0x21B0B73737BA103932B332B9103CB7BAB939B2B633 PUSH1 0x59 SHL PUSH1 0x44 DUP3 ADD MSTORE PUSH1 0x64 ADD PUSH2 0x893 JUMP JUMPDEST CALLER PUSH0 SWAP1 DUP2 MSTORE PUSH1 0x10 PUSH1 0x20 MSTORE PUSH1 0x40 SWAP1 KECCAK256 DUP1 SLOAD PUSH1 0xFF NOT AND PUSH1 0x1 OR SWAP1 SSTORE PUSH1 0x1 PUSH1 0x1 PUSH1 0xA0 SHL SUB DUP2 AND ISZERO DUP1 ISZERO SWAP1 PUSH2 0xC54 JUMPI POP PUSH1 0x1 PUSH1 0x1 PUSH1 0xA0 SHL SUB DUP2 AND PUSH0 SWAP1 DUP2 MSTORE PUSH1 0x10 PUSH1 0x20 MSTORE PUSH1 0x40 SWAP1 KECCAK256 SLOAD PUSH1 0xFF AND JUMPDEST ISZERO PUSH2 0xCA6 JUMPI CALLER PUSH0 SWAP1 DUP2 MSTORE PUSH1 0x11 PUSH1 0x20 SWAP1 DUP2 MSTORE PUSH1 0x40 DUP1 DUP4 KECCAK256 DUP1 SLOAD PUSH1 0x1 PUSH1 0x1 PUSH1 0xA0 SHL SUB NOT AND PUSH1 0x1 PUSH1 0x1 PUSH1 0xA0 SHL SUB DUP7 AND SWAP1 DUP2 OR SWAP1 SWAP2 SSTORE DUP4 MSTORE PUSH1 0x12 SWAP1 SWAP2 MSTORE DUP2 KECCAK256 DUP1 SLOAD PUSH1 0x1 SWAP3 SWAP1 PUSH2 0xCA0 SWAP1 DUP5 SWAP1 PUSH2 0x1679 JUMP JUMPDEST SWAP1 SWAP2 SSTORE POP POP JUMPDEST PUSH1 0x40 MLOAD PUSH1 0x1 PUSH1 0x1 PUSH1 0xA0 SHL SUB DUP3 AND SWAP1 CALLER SWAP1 PUSH32 0x4BC18AA4B0095C9A3B5CDF42D2322D5A145591B04045988A995A5DA426075457 SWAP1 PUSH0 SWAP1 LOG3 POP JUMP JUMPDEST CALLER PUSH0 SWAP1 DUP2 MSTORE PUSH1 0xE PUSH1 0x20 MSTORE PUSH1 0x40 SWAP1 KECCAK256 SLOAD DUP1 PUSH2 0xD2E JUMPI PUSH1 0x40 MLOAD PUSH3 0x461BCD PUSH1 0xE5 SHL DUP2 MSTORE PUSH1 0x20 PUSH1 0x4 DUP3 ADD MSTORE PUSH1 0x11 PUSH1 0x24 DUP3 ADD MSTORE PUSH17 0x2737903A37B5B2B7399039BA30B5B2B217 PUSH1 0x79 SHL PUSH1 0x44 DUP3 ADD MSTORE PUSH1 0x64 ADD PUSH2 0x893 JUMP JUMPDEST CALLER PUSH0 SWAP1 DUP2 MSTORE PUSH1 0xF PUSH1 0x20 MSTORE PUSH1 0x40 SWAP1 KECCAK256 SLOAD PUSH2 0xD4A SWAP1 PUSH3 0x24EA00 PUSH2 0x1679 JUMP JUMPDEST TIMESTAMP LT ISZERO PUSH2 0xD99 JUMPI PUSH1 0x40 MLOAD PUSH3 0x461BCD PUSH1 0xE5 SHL DUP2 MSTORE PUSH1 0x20 PUSH1 0x4 DUP3 ADD MSTORE PUSH1 0x1B PUSH1 0x24 DUP3 ADD MSTORE PUSH32 0x556E7374616B65206F6E6C792061667465722034207765656B732E0000000000 PUSH1 0x44 DUP3 ADD MSTORE PUSH1 0x64 ADD PUSH2 0x893 JUMP JUMPDEST PUSH0 PUSH2 0xDA3 CALLER PUSH2 0x79F JUMP JUMPDEST CALLER PUSH0 DUP2 DUP2 MSTORE PUSH1 0xE PUSH1 0x20 SWAP1 DUP2 MSTORE PUSH1 0x40 DUP1 DUP4 KECCAK256 DUP4 SWAP1 SSTORE PUSH1 0xF SWAP1 SWAP2 MSTORE DUP2 KECCAK256 SSTORE SWAP1 SWAP2 POP PUSH2 0xDD7 SWAP1 ADDRESS SWAP1 PUSH2 0xDD2 DUP5 DUP7 PUSH2 0x1679 JUMP JUMPDEST PUSH2 0x11A6 JUMP JUMPDEST PUSH1 0x40 DUP1 MLOAD DUP4 DUP2 MSTORE PUSH1 0x20 DUP2 ADD DUP4 SWAP1 MSTORE CALLER SWAP2 PUSH32 0x6F2D3E000C89D37446B7C0374C0125068FF316D1E3EE302336478A8CD03C2336 SWAP2 ADD PUSH1 0x40 MLOAD DUP1 SWAP2 SUB SWAP1 LOG2 POP POP JUMP JUMPDEST PUSH0 CALLER PUSH2 0x793 DUP2 DUP6 DUP6 PUSH2 0x11A6 JUMP JUMPDEST PUSH1 0x5 SLOAD PUSH1 0x1 PUSH1 0xA0 SHL SWAP1 DIV PUSH1 0xFF AND PUSH2 0xE6F JUMPI PUSH1 0x40 MLOAD PUSH3 0x461BCD PUSH1 0xE5 SHL DUP2 MSTORE PUSH1 0x20 PUSH1 0x4 DUP3 ADD MSTORE PUSH1 0x10 PUSH1 0x24 DUP3 ADD MSTORE PUSH16 0x29B0B632903737BA1030B1BA34BB3297 PUSH1 0x81 SHL PUSH1 0x44 DUP3 ADD MSTORE PUSH1 0x64 ADD PUSH2 0x893 JUMP JUMPDEST PUSH0 CALLVALUE GT PUSH2 0xEBE JUMPI PUSH1 0x40 MLOAD PUSH3 0x461BCD PUSH1 0xE5 SHL DUP2 MSTORE PUSH1 0x20 PUSH1 0x4 DUP3 ADD MSTORE PUSH1 0x1C PUSH1 0x24 DUP3 ADD MSTORE PUSH32 0x4D7573742073656E642045544820746F2062757920746F6B656E732E00000000 PUSH1 0x44 DUP3 ADD MSTORE PUSH1 0x64 ADD PUSH2 0x893 JUMP JUMPDEST PUSH0 PUSH2 0xEC7 PUSH2 0xFCC JUMP JUMPDEST SWAP1 POP PUSH0 DUP2 PUSH2 0xED7 PUSH1 0x12 PUSH1 0xA PUSH2 0x177D JUMP JUMPDEST PUSH2 0xEE1 SWAP1 CALLVALUE PUSH2 0x1662 JUMP JUMPDEST PUSH2 0xEEB SWAP2 SWAP1 PUSH2 0x1643 JUMP JUMPDEST ADDRESS PUSH0 SWAP1 DUP2 MSTORE PUSH1 0x20 DUP2 SWAP1 MSTORE PUSH1 0x40 SWAP1 KECCAK256 SLOAD SWAP1 SWAP2 POP DUP2 GT ISZERO PUSH2 0xF4C JUMPI PUSH1 0x40 MLOAD PUSH3 0x461BCD PUSH1 0xE5 SHL DUP2 MSTORE PUSH1 0x20 PUSH1 0x4 DUP3 ADD MSTORE PUSH1 0x1C PUSH1 0x24 DUP3 ADD MSTORE PUSH32 0x4E6F7420656E6F75676820746F6B656E7320617661696C61626C652E00000000 PUSH1 0x44 DUP3 ADD MSTORE PUSH1 0x64 ADD PUSH2 0x893 JUMP JUMPDEST CALLER PUSH0 SWAP1 DUP2 MSTORE PUSH1 0x13 PUSH1 0x20 MSTORE PUSH1 0x40 DUP2 KECCAK256 DUP1 SLOAD DUP4 SWAP3 SWAP1 PUSH2 0xF6A SWAP1 DUP5 SWAP1 PUSH2 0x1679 JUMP JUMPDEST SWAP1 SWAP2 SSTORE POP PUSH2 0xF7B SWAP1 POP ADDRESS CALLER DUP4 PUSH2 0x11A6 JUMP JUMPDEST DUP1 PUSH1 0xB PUSH0 DUP3 DUP3 SLOAD PUSH2 0xF8C SWAP2 SWAP1 PUSH2 0x1679 JUMP JUMPDEST SWAP1 SWAP2 SSTORE POP POP PUSH1 0x40 MLOAD DUP2 DUP2 MSTORE CALLER SWAP1 ADDRESS SWAP1 PUSH32 0xDDF252AD1BE2C89B69C2B068FC378DAA952BA7F163C4A11628F55A4DF523B3EF SWAP1 PUSH1 0x20 ADD PUSH1 0x40 MLOAD DUP1 SWAP2 SUB SWAP1 LOG3 POP POP JUMP JUMPDEST PUSH1 0x5 SLOAD PUSH0 SWAP1 PUSH1 0x1 PUSH1 0xA0 SHL SWAP1 DIV PUSH1 0xFF AND PUSH2 0x1027 JUMPI PUSH1 0x40 MLOAD PUSH3 0x461BCD PUSH1 0xE5 SHL DUP2 MSTORE PUSH1 0x20 PUSH1 0x4 DUP3 ADD MSTORE PUSH1 0x18 PUSH1 0x24 DUP3 ADD MSTORE PUSH32 0x5072652D73616C65206E6F742073746172746564207965740000000000000000 PUSH1 0x44 DUP3 ADD MSTORE PUSH1 0x64 ADD PUSH2 0x893 JUMP JUMPDEST PUSH1 0x7 SLOAD TIMESTAMP GT ISZERO PUSH2 0x1038 JUMPI POP PUSH1 0x9 SLOAD SWAP1 JUMP JUMPDEST PUSH0 PUSH2 0x1041 PUSH2 0x8BD JUMP JUMPDEST SWAP1 POP PUSH0 DUP2 PUSH1 0x8 SLOAD PUSH2 0x812 SWAP2 SWAP1 PUSH2 0x1679 JUMP JUMPDEST PUSH2 0x105A PUSH2 0x1203 JUMP JUMPDEST PUSH1 0x1 PUSH1 0x1 PUSH1 0xA0 SHL SUB DUP2 AND PUSH2 0x1083 JUMPI PUSH1 0x40 MLOAD PUSH4 0x1E4FBDF7 PUSH1 0xE0 SHL DUP2 MSTORE PUSH0 PUSH1 0x4 DUP3 ADD MSTORE PUSH1 0x24 ADD PUSH2 0x893 JUMP JUMPDEST PUSH2 0x108C DUP2 PUSH2 0x1230 JUMP JUMPDEST POP JUMP JUMPDEST PUSH2 0x1097 PUSH2 0x1203 JUMP JUMPDEST PUSH1 0x6 DUP3 SWAP1 SSTORE PUSH2 0x10A9 DUP2 PUSH3 0x93A80 PUSH2 0x1662 JUMP JUMPDEST PUSH1 0x6 SLOAD PUSH2 0x10B6 SWAP2 SWAP1 PUSH2 0x1679 JUMP JUMPDEST PUSH1 0x7 DUP2 SWAP1 SSTORE PUSH1 0xC DUP3 SWAP1 SSTORE PUSH1 0x5 DUP1 SLOAD PUSH1 0xFF PUSH1 0xA0 SHL NOT AND PUSH1 0x1 PUSH1 0xA0 SHL OR SWAP1 SSTORE PUSH1 0x6 SLOAD PUSH1 0x40 MLOAD PUSH32 0x3844853BE672B18D859394AA37E05615B95B78E66B4DC37DCA98D1DB1B05EA7D SWAP3 PUSH2 0x110C SWAP3 DUP3 MSTORE PUSH1 0x20 DUP3 ADD MSTORE PUSH1 0x40 ADD SWAP1 JUMP JUMPDEST PUSH1 0x40 MLOAD DUP1 SWAP2 SUB SWAP1 LOG1 POP POP JUMP JUMPDEST PUSH2 0x1125 DUP4 DUP4 DUP4 PUSH1 0x1 PUSH2 0x12B9 JUMP JUMPDEST POP POP POP JUMP JUMPDEST PUSH1 0x1 PUSH1 0x1 PUSH1 0xA0 SHL SUB DUP4 DUP2 AND PUSH0 SWAP1 DUP2 MSTORE PUSH1 0x1 PUSH1 0x20 SWAP1 DUP2 MSTORE PUSH1 0x40 DUP1 DUP4 KECCAK256 SWAP4 DUP7 AND DUP4 MSTORE SWAP3 SWAP1 MSTORE KECCAK256 SLOAD PUSH0 NOT DUP2 LT ISZERO PUSH2 0x11A0 JUMPI DUP2 DUP2 LT ISZERO PUSH2 0x1192 JUMPI PUSH1 0x40 MLOAD PUSH4 0x7DC7A0D9 PUSH1 0xE1 SHL DUP2 MSTORE PUSH1 0x1 PUSH1 0x1 PUSH1 0xA0 SHL SUB DUP5 AND PUSH1 0x4 DUP3 ADD MSTORE PUSH1 0x24 DUP2 ADD DUP3 SWAP1 MSTORE PUSH1 0x44 DUP2 ADD DUP4 SWAP1 MSTORE PUSH1 0x64 ADD PUSH2 0x893 JUMP JUMPDEST PUSH2 0x11A0 DUP5 DUP5 DUP5 DUP5 SUB PUSH0 PUSH2 0x12B9 JUMP JUMPDEST POP POP POP POP JUMP JUMPDEST PUSH1 0x1 PUSH1 0x1 PUSH1 0xA0 SHL SUB DUP4 AND PUSH2 0x11CF JUMPI PUSH1 0x40 MLOAD PUSH4 0x4B637E8F PUSH1 0xE1 SHL DUP2 MSTORE PUSH0 PUSH1 0x4 DUP3 ADD MSTORE PUSH1 0x24 ADD PUSH2 0x893 JUMP JUMPDEST PUSH1 0x1 PUSH1 0x1 PUSH1 0xA0 SHL SUB DUP3 AND PUSH2 0x11F8 JUMPI PUSH1 0x40 MLOAD PUSH4 0xEC442F05 PUSH1 0xE0 SHL DUP2 MSTORE PUSH0 PUSH1 0x4 DUP3 ADD MSTORE PUSH1 0x24 ADD PUSH2 0x893 JUMP JUMPDEST PUSH2 0x1125 DUP4 DUP4 DUP4 PUSH2 0x138B JUMP JUMPDEST PUSH1 0x5 SLOAD PUSH1 0x1 PUSH1 0x1 PUSH1 0xA0 SHL SUB AND CALLER EQ PUSH2 0x8F3 JUMPI PUSH1 0x40 MLOAD PUSH4 0x118CDAA7 PUSH1 0xE0 SHL DUP2 MSTORE CALLER PUSH1 0x4 DUP3 ADD MSTORE PUSH1 0x24 ADD PUSH2 0x893 JUMP JUMPDEST PUSH1 0x5 DUP1 SLOAD PUSH1 0x1 PUSH1 0x1 PUSH1 0xA0 SHL SUB DUP4 DUP2 AND PUSH1 0x1 PUSH1 0x1 PUSH1 0xA0 SHL SUB NOT DUP4 AND DUP2 OR SWAP1 SWAP4 SSTORE PUSH1 0x40 MLOAD SWAP2 AND SWAP2 SWAP1 DUP3 SWAP1 PUSH32 0x8BE0079C531659141344CD1FD0A4F28419497F9722A3DAAFE3B4186F6B6457E0 SWAP1 PUSH0 SWAP1 LOG3 POP POP JUMP JUMPDEST PUSH1 0x1 PUSH1 0x1 PUSH1 0xA0 SHL SUB DUP3 AND PUSH2 0x12AA JUMPI PUSH1 0x40 MLOAD PUSH4 0xEC442F05 PUSH1 0xE0 SHL DUP2 MSTORE PUSH0 PUSH1 0x4 DUP3 ADD MSTORE PUSH1 0x24 ADD PUSH2 0x893 JUMP JUMPDEST PUSH2 0x12B5 PUSH0 DUP4 DUP4 PUSH2 0x138B JUMP JUMPDEST POP POP JUMP JUMPDEST PUSH1 0x1 PUSH1 0x1 PUSH1 0xA0 SHL SUB DUP5 AND PUSH2 0x12E2 JUMPI PUSH1 0x40 MLOAD PUSH4 0xE602DF05 PUSH1 0xE0 SHL DUP2 MSTORE PUSH0 PUSH1 0x4 DUP3 ADD MSTORE PUSH1 0x24 ADD PUSH2 0x893 JUMP JUMPDEST PUSH1 0x1 PUSH1 0x1 PUSH1 0xA0 SHL SUB DUP4 AND PUSH2 0x130B JUMPI PUSH1 0x40 MLOAD PUSH4 0x4A1406B1 PUSH1 0xE1 SHL DUP2 MSTORE PUSH0 PUSH1 0x4 DUP3 ADD MSTORE PUSH1 0x24 ADD PUSH2 0x893 JUMP JUMPDEST PUSH1 0x1 PUSH1 0x1 PUSH1 0xA0 SHL SUB DUP1 DUP6 AND PUSH0 SWAP1 DUP2 MSTORE PUSH1 0x1 PUSH1 0x20 SWAP1 DUP2 MSTORE PUSH1 0x40 DUP1 DUP4 KECCAK256 SWAP4 DUP8 AND DUP4 MSTORE SWAP3 SWAP1 MSTORE KECCAK256 DUP3 SWAP1 SSTORE DUP1 ISZERO PUSH2 0x11A0 JUMPI DUP3 PUSH1 0x1 PUSH1 0x1 PUSH1 0xA0 SHL SUB AND DUP5 PUSH1 0x1 PUSH1 0x1 PUSH1 0xA0 SHL SUB AND PUSH32 0x8C5BE1E5EBEC7D5BD14F71427D1E84F3DD0314C0F7B2291E5B200AC8C7C3B925 DUP5 PUSH1 0x40 MLOAD PUSH2 0x137D SWAP2 DUP2 MSTORE PUSH1 0x20 ADD SWAP1 JUMP JUMPDEST PUSH1 0x40 MLOAD DUP1 SWAP2 SUB SWAP1 LOG3 POP POP POP POP JUMP JUMPDEST PUSH1 0x1 PUSH1 0x1 PUSH1 0xA0 SHL SUB DUP4 AND PUSH2 0x13B5 JUMPI DUP1 PUSH1 0x2 PUSH0 DUP3 DUP3 SLOAD PUSH2 0x13AA SWAP2 SWAP1 PUSH2 0x1679 JUMP JUMPDEST SWAP1 SWAP2 SSTORE POP PUSH2 0x1425 SWAP1 POP JUMP JUMPDEST PUSH1 0x1 PUSH1 0x1 PUSH1 0xA0 SHL SUB DUP4 AND PUSH0 SWAP1 DUP2 MSTORE PUSH1 0x20 DUP2 SWAP1 MSTORE PUSH1 0x40 SWAP1 KECCAK256 SLOAD DUP2 DUP2 LT ISZERO PUSH2 0x1407 JUMPI PUSH1 0x40 MLOAD PUSH4 0x391434E3 PUSH1 0xE2 SHL DUP2 MSTORE PUSH1 0x1 PUSH1 0x1 PUSH1 0xA0 SHL SUB DUP6 AND PUSH1 0x4 DUP3 ADD MSTORE PUSH1 0x24 DUP2 ADD DUP3 SWAP1 MSTORE PUSH1 0x44 DUP2 ADD DUP4 SWAP1 MSTORE PUSH1 0x64 ADD PUSH2 0x893 JUMP JUMPDEST PUSH1 0x1 PUSH1 0x1 PUSH1 0xA0 SHL SUB DUP5 AND PUSH0 SWAP1 DUP2 MSTORE PUSH1 0x20 DUP2 SWAP1 MSTORE PUSH1 0x40 SWAP1 KECCAK256 SWAP1 DUP3 SWAP1 SUB SWAP1 SSTORE JUMPDEST PUSH1 0x1 PUSH1 0x1 PUSH1 0xA0 SHL SUB DUP3 AND PUSH2 0x1441 JUMPI PUSH1 0x2 DUP1 SLOAD DUP3 SWAP1 SUB SWAP1 SSTORE PUSH2 0x145F JUMP JUMPDEST PUSH1 0x1 PUSH1 0x1 PUSH1 0xA0 SHL SUB DUP3 AND PUSH0 SWAP1 DUP2 MSTORE PUSH1 0x20 DUP2 SWAP1 MSTORE PUSH1 0x40 SWAP1 KECCAK256 DUP1 SLOAD DUP3 ADD SWAP1 SSTORE JUMPDEST DUP2 PUSH1 0x1 PUSH1 0x1 PUSH1 0xA0 SHL SUB AND DUP4 PUSH1 0x1 PUSH1 0x1 PUSH1 0xA0 SHL SUB AND PUSH32 0xDDF252AD1BE2C89B69C2B068FC378DAA952BA7F163C4A11628F55A4DF523B3EF DUP4 PUSH1 0x40 MLOAD PUSH2 0x14A4 SWAP2 DUP2 MSTORE PUSH1 0x20 ADD SWAP1 JUMP JUMPDEST PUSH1 0x40 MLOAD DUP1 SWAP2 SUB SWAP1 LOG3 POP POP POP JUMP JUMPDEST PUSH1 0x20 DUP2 MSTORE PUSH0 DUP3 MLOAD DUP1 PUSH1 0x20 DUP5 ADD MSTORE DUP1 PUSH1 0x20 DUP6 ADD PUSH1 0x40 DUP6 ADD MCOPY PUSH0 PUSH1 0x40 DUP3 DUP6 ADD ADD MSTORE PUSH1 0x40 PUSH1 0x1F NOT PUSH1 0x1F DUP4 ADD AND DUP5 ADD ADD SWAP2 POP POP SWAP3 SWAP2 POP POP JUMP JUMPDEST DUP1 CALLDATALOAD PUSH1 0x1 PUSH1 0x1 PUSH1 0xA0 SHL SUB DUP2 AND DUP2 EQ PUSH2 0x14FC JUMPI PUSH0 DUP1 REVERT JUMPDEST SWAP2 SWAP1 POP JUMP JUMPDEST PUSH0 DUP1 PUSH1 0x40 DUP4 DUP6 SUB SLT ISZERO PUSH2 0x1512 JUMPI PUSH0 DUP1 REVERT JUMPDEST PUSH2 0x151B DUP4 PUSH2 0x14E6 JUMP JUMPDEST SWAP5 PUSH1 0x20 SWAP4 SWAP1 SWAP4 ADD CALLDATALOAD SWAP4 POP POP POP JUMP JUMPDEST PUSH0 PUSH1 0x20 DUP3 DUP5 SUB SLT ISZERO PUSH2 0x1539 JUMPI PUSH0 DUP1 REVERT JUMPDEST PUSH2 0x812 DUP3 PUSH2 0x14E6 JUMP JUMPDEST PUSH0 DUP1 PUSH0 PUSH1 0x60 DUP5 DUP7 SUB SLT ISZERO PUSH2 0x1554 JUMPI PUSH0 DUP1 REVERT JUMPDEST PUSH2 0x155D DUP5 PUSH2 0x14E6 JUMP JUMPDEST SWAP3 POP PUSH2 0x156B PUSH1 0x20 DUP6 ADD PUSH2 0x14E6 JUMP JUMPDEST SWAP3 SWAP6 SWAP3 SWAP5 POP POP POP PUSH1 0x40 SWAP2 SWAP1 SWAP2 ADD CALLDATALOAD SWAP1 JUMP JUMPDEST PUSH0 DUP1 PUSH1 0x40 DUP4 DUP6 SUB SLT ISZERO PUSH2 0x158D JUMPI PUSH0 DUP1 REVERT JUMPDEST POP POP DUP1 CALLDATALOAD SWAP3 PUSH1 0x20 SWAP1 SWAP2 ADD CALLDATALOAD SWAP2 POP JUMP JUMPDEST PUSH0 PUSH1 0x20 DUP3 DUP5 SUB SLT ISZERO PUSH2 0x15AC JUMPI PUSH0 DUP1 REVERT JUMPDEST POP CALLDATALOAD SWAP2 SWAP1 POP JUMP JUMPDEST PUSH0 DUP1 PUSH1 0x40 DUP4 DUP6 SUB SLT ISZERO PUSH2 0x15C4 JUMPI PUSH0 DUP1 REVERT JUMPDEST PUSH2 0x15CD DUP4 PUSH2 0x14E6 JUMP JUMPDEST SWAP2 POP PUSH2 0x15DB PUSH1 0x20 DUP5 ADD PUSH2 0x14E6 JUMP JUMPDEST SWAP1 POP SWAP3 POP SWAP3 SWAP1 POP JUMP JUMPDEST PUSH1 0x1 DUP2 DUP2 SHR SWAP1 DUP3 AND DUP1 PUSH2 0x15F8 JUMPI PUSH1 0x7F DUP3 AND SWAP2 POP JUMPDEST PUSH1 0x20 DUP3 LT DUP2 SUB PUSH2 0x1616 JUMPI PUSH4 0x4E487B71 PUSH1 0xE0 SHL PUSH0 MSTORE PUSH1 0x22 PUSH1 0x4 MSTORE PUSH1 0x24 PUSH0 REVERT JUMPDEST POP SWAP2 SWAP1 POP JUMP JUMPDEST PUSH4 0x4E487B71 PUSH1 0xE0 SHL PUSH0 MSTORE PUSH1 0x11 PUSH1 0x4 MSTORE PUSH1 0x24 PUSH0 REVERT JUMPDEST DUP2 DUP2 SUB DUP2 DUP2 GT ISZERO PUSH2 0x799 JUMPI PUSH2 0x799 PUSH2 0x161C JUMP JUMPDEST PUSH0 DUP3 PUSH2 0x165D JUMPI PUSH4 0x4E487B71 PUSH1 0xE0 SHL PUSH0 MSTORE PUSH1 0x12 PUSH1 0x4 MSTORE PUSH1 0x24 PUSH0 REVERT JUMPDEST POP DIV SWAP1 JUMP JUMPDEST DUP1 DUP3 MUL DUP2 ISZERO DUP3 DUP3 DIV DUP5 EQ OR PUSH2 0x799 JUMPI PUSH2 0x799 PUSH2 0x161C JUMP JUMPDEST DUP1 DUP3 ADD DUP1 DUP3 GT ISZERO PUSH2 0x799 JUMPI PUSH2 0x799 PUSH2 0x161C JUMP JUMPDEST PUSH1 0x1 DUP2 JUMPDEST PUSH1 0x1 DUP5 GT ISZERO PUSH2 0x16C7 JUMPI DUP1 DUP6 DIV DUP2 GT ISZERO PUSH2 0x16AB JUMPI PUSH2 0x16AB PUSH2 0x161C JUMP JUMPDEST PUSH1 0x1 DUP5 AND ISZERO PUSH2 0x16B9 JUMPI SWAP1 DUP2 MUL SWAP1 JUMPDEST PUSH1 0x1 SWAP4 SWAP1 SWAP4 SHR SWAP3 DUP1 MUL PUSH2 0x1690 JUMP JUMPDEST SWAP4 POP SWAP4 SWAP2 POP POP JUMP JUMPDEST PUSH0 DUP3 PUSH2 0x16DD JUMPI POP PUSH1 0x1 PUSH2 0x799 JUMP JUMPDEST DUP2 PUSH2 0x16E9 JUMPI POP PUSH0 PUSH2 0x799 JUMP JUMPDEST DUP2 PUSH1 0x1 DUP2 EQ PUSH2 0x16FF JUMPI PUSH1 0x2 DUP2 EQ PUSH2 0x1709 JUMPI PUSH2 0x1725 JUMP JUMPDEST PUSH1 0x1 SWAP2 POP POP PUSH2 0x799 JUMP JUMPDEST PUSH1 0xFF DUP5 GT ISZERO PUSH2 0x171A JUMPI PUSH2 0x171A PUSH2 0x161C JUMP JUMPDEST POP POP PUSH1 0x1 DUP3 SHL PUSH2 0x799 JUMP JUMPDEST POP PUSH1 0x20 DUP4 LT PUSH2 0x133 DUP4 LT AND PUSH1 0x4E DUP5 LT PUSH1 0xB DUP5 LT AND OR ISZERO PUSH2 0x1748 JUMPI POP DUP2 DUP2 EXP PUSH2 0x799 JUMP JUMPDEST PUSH2 0x1754 PUSH0 NOT DUP5 DUP5 PUSH2 0x168C JUMP JUMPDEST DUP1 PUSH0 NOT DIV DUP3 GT ISZERO PUSH2 0x1767 JUMPI PUSH2 0x1767 PUSH2 0x161C JUMP JUMPDEST MUL SWAP4 SWAP3 POP POP POP JUMP JUMPDEST PUSH0 PUSH2 0x812 PUSH1 0xFF DUP5 AND DUP4 PUSH2 0x16CF JUMP JUMPDEST PUSH0 PUSH2 0x812 DUP4 DUP4 PUSH2 0x16CF JUMP INVALID LOG2 PUSH5 0x6970667358 0x22 SLT KECCAK256 TSTORE MSTORE SAR BYTE 0xE1 CALLCODE SLT BLOCKHASH 0x29 PUSH31 0xC515B6642DD72B6881AE8F8DF88092B8E4DDD16DE89864736F6C634300081A STOP CALLER "
				},
				"gasEstimates": {
					"creation": {
						"codeDepositCost": "1215600",
						"executionCost": "infinite",
						"totalCost": "infinite"
					},
					"external": {
						"allowance(address,address)": "infinite",
						"approve(address,uint256)": "24825",
						"balanceOf(address)": "2615",
						"balances(address)": "2639",
						"buyTokens()": "infinite",
						"calculatePrice()": "infinite",
						"calculatePriceIncrease()": "infinite",
						"calculateReferralReward(address)": "infinite",
						"calculateStakingReward(address)": "infinite",
						"calculateWeeksElapsed(uint256,uint256)": "515",
						"decimals()": "266",
						"getWalletBalance()": "2459",
						"initialPrice()": "2373",
						"mintReferralReward()": "infinite",
						"name()": "infinite",
						"owner()": "2431",
						"preSaleEndTime()": "2350",
						"preSaleStartTime()": "2352",
						"preSaleWeeksInWeeks()": "2371",
						"presaleIsActive()": "2394",
						"referralCounts(address)": "2594",
						"referrals(address)": "2644",
						"regularSalePrice()": "2330",
						"renounceOwnership()": "infinite",
						"signUpForWhitelist(address)": "79446",
						"stakeTokens(uint256)": "101288",
						"stakedAmount(address)": "2615",
						"stakingRewardRate()": "2328",
						"stakingTimestamp(address)": "2639",
						"startPreSale(uint256,uint256)": "infinite",
						"symbol()": "infinite",
						"tokensSold()": "2350",
						"totalSupply()": "2348",
						"transfer(address,uint256)": "51261",
						"transferFrom(address,address,uint256)": "infinite",
						"transferOwnership(address)": "28399",
						"unstakeTokens()": "infinite",
						"weeklyIncreaseRate()": "2416",
						"whitelist(address)": "2595"
					}
				},
				"methodIdentifiers": {
					"allowance(address,address)": "dd62ed3e",
					"approve(address,uint256)": "095ea7b3",
					"balanceOf(address)": "70a08231",
					"balances(address)": "27e235e3",
					"buyTokens()": "d0febe4c",
					"calculatePrice()": "d348b409",
					"calculatePriceIncrease()": "4405df4a",
					"calculateReferralReward(address)": "8265324d",
					"calculateStakingReward(address)": "0d505541",
					"calculateWeeksElapsed(uint256,uint256)": "2c663960",
					"decimals()": "313ce567",
					"getWalletBalance()": "329a27e7",
					"initialPrice()": "1d0806ae",
					"mintReferralReward()": "7c613b2f",
					"name()": "06fdde03",
					"owner()": "8da5cb5b",
					"preSaleEndTime()": "cce29ea7",
					"preSaleStartTime()": "06d65af3",
					"preSaleWeeksInWeeks()": "f8102e68",
					"presaleIsActive()": "30f72cd4",
					"referralCounts(address)": "cec297a0",
					"referrals(address)": "9ca423b3",
					"regularSalePrice()": "03e293a3",
					"renounceOwnership()": "715018a6",
					"signUpForWhitelist(address)": "a09c4cf4",
					"stakeTokens(uint256)": "7547c7a3",
					"stakedAmount(address)": "f9931855",
					"stakingRewardRate()": "4f3fc2df",
					"stakingTimestamp(address)": "8f0794fe",
					"startPreSale(uint256,uint256)": "f9a81af7",
					"symbol()": "95d89b41",
					"tokensSold()": "518ab2a8",
					"totalSupply()": "18160ddd",
					"transfer(address,uint256)": "a9059cbb",
					"transferFrom(address,address,uint256)": "23b872dd",
					"transferOwnership(address)": "f2fde38b",
					"unstakeTokens()": "a5ce413b",
					"weeklyIncreaseRate()": "7165d19b",
					"whitelist(address)": "9b19251a"
				}
			},
			"storageLayout": {
				"storage": [
					{
						"astId": 307,
						"contract": "contracts/SimpleToken.sol:TokenPreSale",
						"label": "_balances",
						"offset": 0,
						"slot": "0",
						"type": "t_mapping(t_address,t_uint256)"
					},
					{
						"astId": 313,
						"contract": "contracts/SimpleToken.sol:TokenPreSale",
						"label": "_allowances",
						"offset": 0,
						"slot": "1",
						"type": "t_mapping(t_address,t_mapping(t_address,t_uint256))"
					},
					{
						"astId": 315,
						"contract": "contracts/SimpleToken.sol:TokenPreSale",
						"label": "_totalSupply",
						"offset": 0,
						"slot": "2",
						"type": "t_uint256"
					},
					{
						"astId": 317,
						"contract": "contracts/SimpleToken.sol:TokenPreSale",
						"label": "_name",
						"offset": 0,
						"slot": "3",
						"type": "t_string_storage"
					},
					{
						"astId": 319,
						"contract": "contracts/SimpleToken.sol:TokenPreSale",
						"label": "_symbol",
						"offset": 0,
						"slot": "4",
						"type": "t_string_storage"
					},
					{
						"astId": 8,
						"contract": "contracts/SimpleToken.sol:TokenPreSale",
						"label": "_owner",
						"offset": 0,
						"slot": "5",
						"type": "t_address"
					},
					{
						"astId": 943,
						"contract": "contracts/SimpleToken.sol:TokenPreSale",
						"label": "presaleIsActive",
						"offset": 20,
						"slot": "5",
						"type": "t_bool"
					},
					{
						"astId": 945,
						"contract": "contracts/SimpleToken.sol:TokenPreSale",
						"label": "preSaleStartTime",
						"offset": 0,
						"slot": "6",
						"type": "t_uint256"
					},
					{
						"astId": 947,
						"contract": "contracts/SimpleToken.sol:TokenPreSale",
						"label": "preSaleEndTime",
						"offset": 0,
						"slot": "7",
						"type": "t_uint256"
					},
					{
						"astId": 949,
						"contract": "contracts/SimpleToken.sol:TokenPreSale",
						"label": "initialPrice",
						"offset": 0,
						"slot": "8",
						"type": "t_uint256"
					},
					{
						"astId": 951,
						"contract": "contracts/SimpleToken.sol:TokenPreSale",
						"label": "regularSalePrice",
						"offset": 0,
						"slot": "9",
						"type": "t_uint256"
					},
					{
						"astId": 953,
						"contract": "contracts/SimpleToken.sol:TokenPreSale",
						"label": "weeklyIncreaseRate",
						"offset": 0,
						"slot": "10",
						"type": "t_uint256"
					},
					{
						"astId": 955,
						"contract": "contracts/SimpleToken.sol:TokenPreSale",
						"label": "tokensSold",
						"offset": 0,
						"slot": "11",
						"type": "t_uint256"
					},
					{
						"astId": 957,
						"contract": "contracts/SimpleToken.sol:TokenPreSale",
						"label": "preSaleWeeksInWeeks",
						"offset": 0,
						"slot": "12",
						"type": "t_uint256"
					},
					{
						"astId": 959,
						"contract": "contracts/SimpleToken.sol:TokenPreSale",
						"label": "stakingRewardRate",
						"offset": 0,
						"slot": "13",
						"type": "t_uint256"
					},
					{
						"astId": 963,
						"contract": "contracts/SimpleToken.sol:TokenPreSale",
						"label": "stakedAmount",
						"offset": 0,
						"slot": "14",
						"type": "t_mapping(t_address,t_uint256)"
					},
					{
						"astId": 967,
						"contract": "contracts/SimpleToken.sol:TokenPreSale",
						"label": "stakingTimestamp",
						"offset": 0,
						"slot": "15",
						"type": "t_mapping(t_address,t_uint256)"
					},
					{
						"astId": 971,
						"contract": "contracts/SimpleToken.sol:TokenPreSale",
						"label": "whitelist",
						"offset": 0,
						"slot": "16",
						"type": "t_mapping(t_address,t_bool)"
					},
					{
						"astId": 975,
						"contract": "contracts/SimpleToken.sol:TokenPreSale",
						"label": "referrals",
						"offset": 0,
						"slot": "17",
						"type": "t_mapping(t_address,t_address)"
					},
					{
						"astId": 979,
						"contract": "contracts/SimpleToken.sol:TokenPreSale",
						"label": "referralCounts",
						"offset": 0,
						"slot": "18",
						"type": "t_mapping(t_address,t_uint256)"
					},
					{
						"astId": 983,
						"contract": "contracts/SimpleToken.sol:TokenPreSale",
						"label": "balances",
						"offset": 0,
						"slot": "19",
						"type": "t_mapping(t_address,t_uint256)"
					}
				],
				"types": {
					"t_address": {
						"encoding": "inplace",
						"label": "address",
						"numberOfBytes": "20"
					},
					"t_bool": {
						"encoding": "inplace",
						"label": "bool",
						"numberOfBytes": "1"
					},
					"t_mapping(t_address,t_address)": {
						"encoding": "mapping",
						"key": "t_address",
						"label": "mapping(address => address)",
						"numberOfBytes": "32",
						"value": "t_address"
					},
					"t_mapping(t_address,t_bool)": {
						"encoding": "mapping",
						"key": "t_address",
						"label": "mapping(address => bool)",
						"numberOfBytes": "32",
						"value": "t_bool"
					},
					"t_mapping(t_address,t_mapping(t_address,t_uint256))": {
						"encoding": "mapping",
						"key": "t_address",
						"label": "mapping(address => mapping(address => uint256))",
						"numberOfBytes": "32",
						"value": "t_mapping(t_address,t_uint256)"
					},
					"t_mapping(t_address,t_uint256)": {
						"encoding": "mapping",
						"key": "t_address",
						"label": "mapping(address => uint256)",
						"numberOfBytes": "32",
						"value": "t_uint256"
					},
					"t_string_storage": {
						"encoding": "bytes",
						"label": "string",
						"numberOfBytes": "32"
					},
					"t_uint256": {
						"encoding": "inplace",
						"label": "uint256",
						"numberOfBytes": "32"
					}
				}
			},
			"userdoc": {
				"kind": "user",
				"methods": {
					"buyTokens()": {
						"notice": "Buy tokens during the presale or regular sale."
					},
					"startPreSale(uint256,uint256)": {
						"notice": "Start the pre-sale"
					}
				},
				"version": 1
			}
		}
	}
}