{
	"contracts/SimpleToken.sol": {
		"TokenPreSale": {
			"abi": [
				{
					"inputs": [
						{
							"internalType": "address",
							"name": "initialOwner",
							"type": "address"
						},
						{
							"internalType": "uint256",
							"name": "totalSupply",
							"type": "uint256"
						},
						{
							"internalType": "uint256",
							"name": "_initialPrice",
							"type": "uint256"
						},
						{
							"internalType": "uint256",
							"name": "_weeklyIncreaseRate",
							"type": "uint256"
						},
						{
							"internalType": "uint256",
							"name": "_regularSalePrice",
							"type": "uint256"
						},
						{
							"internalType": "uint256",
							"name": "_stakingRewardRate",
							"type": "uint256"
						}
					],
					"stateMutability": "nonpayable",
					"type": "constructor"
				},
				{
					"inputs": [
						{
							"internalType": "address",
							"name": "spender",
							"type": "address"
						},
						{
							"internalType": "uint256",
							"name": "allowance",
							"type": "uint256"
						},
						{
							"internalType": "uint256",
							"name": "needed",
							"type": "uint256"
						}
					],
					"name": "ERC20InsufficientAllowance",
					"type": "error"
				},
				{
					"inputs": [
						{
							"internalType": "address",
							"name": "sender",
							"type": "address"
						},
						{
							"internalType": "uint256",
							"name": "balance",
							"type": "uint256"
						},
						{
							"internalType": "uint256",
							"name": "needed",
							"type": "uint256"
						}
					],
					"name": "ERC20InsufficientBalance",
					"type": "error"
				},
				{
					"inputs": [
						{
							"internalType": "address",
							"name": "approver",
							"type": "address"
						}
					],
					"name": "ERC20InvalidApprover",
					"type": "error"
				},
				{
					"inputs": [
						{
							"internalType": "address",
							"name": "receiver",
							"type": "address"
						}
					],
					"name": "ERC20InvalidReceiver",
					"type": "error"
				},
				{
					"inputs": [
						{
							"internalType": "address",
							"name": "sender",
							"type": "address"
						}
					],
					"name": "ERC20InvalidSender",
					"type": "error"
				},
				{
					"inputs": [
						{
							"internalType": "address",
							"name": "spender",
							"type": "address"
						}
					],
					"name": "ERC20InvalidSpender",
					"type": "error"
				},
				{
					"inputs": [
						{
							"internalType": "address",
							"name": "owner",
							"type": "address"
						}
					],
					"name": "OwnableInvalidOwner",
					"type": "error"
				},
				{
					"inputs": [
						{
							"internalType": "address",
							"name": "account",
							"type": "address"
						}
					],
					"name": "OwnableUnauthorizedAccount",
					"type": "error"
				},
				{
					"anonymous": false,
					"inputs": [
						{
							"indexed": true,
							"internalType": "address",
							"name": "owner",
							"type": "address"
						},
						{
							"indexed": true,
							"internalType": "address",
							"name": "spender",
							"type": "address"
						},
						{
							"indexed": false,
							"internalType": "uint256",
							"name": "value",
							"type": "uint256"
						}
					],
					"name": "Approval",
					"type": "event"
				},
				{
					"anonymous": false,
					"inputs": [
						{
							"indexed": true,
							"internalType": "address",
							"name": "previousOwner",
							"type": "address"
						},
						{
							"indexed": true,
							"internalType": "address",
							"name": "newOwner",
							"type": "address"
						}
					],
					"name": "OwnershipTransferred",
					"type": "event"
				},
				{
					"anonymous": false,
					"inputs": [
						{
							"indexed": false,
							"internalType": "uint256",
							"name": "endTime",
							"type": "uint256"
						}
					],
					"name": "PreSaleEnded",
					"type": "event"
				},
				{
					"anonymous": false,
					"inputs": [
						{
							"indexed": false,
							"internalType": "uint256",
							"name": "startTime",
							"type": "uint256"
						},
						{
							"indexed": false,
							"internalType": "uint256",
							"name": "endTime",
							"type": "uint256"
						}
					],
					"name": "PreSaleStarted",
					"type": "event"
				},
				{
					"anonymous": false,
					"inputs": [
						{
							"indexed": true,
							"internalType": "address",
							"name": "referrer",
							"type": "address"
						},
						{
							"indexed": false,
							"internalType": "uint256",
							"name": "rewardAmount",
							"type": "uint256"
						}
					],
					"name": "ReferralRewardMinted",
					"type": "event"
				},
				{
					"anonymous": false,
					"inputs": [
						{
							"indexed": true,
							"internalType": "address",
							"name": "buyer",
							"type": "address"
						},
						{
							"indexed": false,
							"internalType": "uint256",
							"name": "amount",
							"type": "uint256"
						},
						{
							"indexed": false,
							"internalType": "uint256",
							"name": "cost",
							"type": "uint256"
						}
					],
					"name": "TokensPurchased",
					"type": "event"
				},
				{
					"anonymous": false,
					"inputs": [
						{
							"indexed": true,
							"internalType": "address",
							"name": "user",
							"type": "address"
						},
						{
							"indexed": false,
							"internalType": "uint256",
							"name": "amount",
							"type": "uint256"
						}
					],
					"name": "TokensStaked",
					"type": "event"
				},
				{
					"anonymous": false,
					"inputs": [
						{
							"indexed": true,
							"internalType": "address",
							"name": "user",
							"type": "address"
						},
						{
							"indexed": false,
							"internalType": "uint256",
							"name": "amount",
							"type": "uint256"
						},
						{
							"indexed": false,
							"internalType": "uint256",
							"name": "reward",
							"type": "uint256"
						}
					],
					"name": "TokensUnstaked",
					"type": "event"
				},
				{
					"anonymous": false,
					"inputs": [
						{
							"indexed": true,
							"internalType": "address",
							"name": "from",
							"type": "address"
						},
						{
							"indexed": true,
							"internalType": "address",
							"name": "to",
							"type": "address"
						},
						{
							"indexed": false,
							"internalType": "uint256",
							"name": "value",
							"type": "uint256"
						}
					],
					"name": "Transfer",
					"type": "event"
				},
				{
					"anonymous": false,
					"inputs": [
						{
							"indexed": true,
							"internalType": "address",
							"name": "user",
							"type": "address"
						},
						{
							"indexed": true,
							"internalType": "address",
							"name": "referral",
							"type": "address"
						}
					],
					"name": "UserWhitelisted",
					"type": "event"
				},
				{
					"inputs": [
						{
							"internalType": "address",
							"name": "owner",
							"type": "address"
						},
						{
							"internalType": "address",
							"name": "spender",
							"type": "address"
						}
					],
					"name": "allowance",
					"outputs": [
						{
							"internalType": "uint256",
							"name": "",
							"type": "uint256"
						}
					],
					"stateMutability": "view",
					"type": "function"
				},
				{
					"inputs": [
						{
							"internalType": "address",
							"name": "spender",
							"type": "address"
						},
						{
							"internalType": "uint256",
							"name": "value",
							"type": "uint256"
						}
					],
					"name": "approve",
					"outputs": [
						{
							"internalType": "bool",
							"name": "",
							"type": "bool"
						}
					],
					"stateMutability": "nonpayable",
					"type": "function"
				},
				{
					"inputs": [
						{
							"internalType": "address",
							"name": "account",
							"type": "address"
						}
					],
					"name": "balanceOf",
					"outputs": [
						{
							"internalType": "uint256",
							"name": "",
							"type": "uint256"
						}
					],
					"stateMutability": "view",
					"type": "function"
				},
				{
					"inputs": [
						{
							"internalType": "address",
							"name": "",
							"type": "address"
						}
					],
					"name": "balances",
					"outputs": [
						{
							"internalType": "uint256",
							"name": "",
							"type": "uint256"
						}
					],
					"stateMutability": "view",
					"type": "function"
				},
				{
					"inputs": [],
					"name": "buyTokens",
					"outputs": [],
					"stateMutability": "payable",
					"type": "function"
				},
				{
					"inputs": [],
					"name": "calculatePrice",
					"outputs": [
						{
							"internalType": "uint256",
							"name": "",
							"type": "uint256"
						}
					],
					"stateMutability": "view",
					"type": "function"
				},
				{
					"inputs": [],
					"name": "calculatePriceIncrease",
					"outputs": [
						{
							"internalType": "uint256",
							"name": "",
							"type": "uint256"
						}
					],
					"stateMutability": "view",
					"type": "function"
				},
				{
					"inputs": [
						{
							"internalType": "address",
							"name": "referrer",
							"type": "address"
						}
					],
					"name": "calculateReferralReward",
					"outputs": [
						{
							"internalType": "uint256",
							"name": "",
							"type": "uint256"
						}
					],
					"stateMutability": "view",
					"type": "function"
				},
				{
					"inputs": [
						{
							"internalType": "address",
							"name": "user",
							"type": "address"
						}
					],
					"name": "calculateStakingReward",
					"outputs": [
						{
							"internalType": "uint256",
							"name": "",
							"type": "uint256"
						}
					],
					"stateMutability": "view",
					"type": "function"
				},
				{
					"inputs": [
						{
							"internalType": "uint256",
							"name": "startTime",
							"type": "uint256"
						},
						{
							"internalType": "uint256",
							"name": "endTime",
							"type": "uint256"
						}
					],
					"name": "calculateWeeksElapsed",
					"outputs": [
						{
							"internalType": "uint256",
							"name": "",
							"type": "uint256"
						}
					],
					"stateMutability": "pure",
					"type": "function"
				},
				{
					"inputs": [],
					"name": "decimals",
					"outputs": [
						{
							"internalType": "uint8",
							"name": "",
							"type": "uint8"
						}
					],
					"stateMutability": "view",
					"type": "function"
				},
				{
					"inputs": [],
					"name": "getWalletBalance",
					"outputs": [
						{
							"internalType": "uint256",
							"name": "",
							"type": "uint256"
						}
					],
					"stateMutability": "view",
					"type": "function"
				},
				{
					"inputs": [],
					"name": "initialPrice",
					"outputs": [
						{
							"internalType": "uint256",
							"name": "",
							"type": "uint256"
						}
					],
					"stateMutability": "view",
					"type": "function"
				},
				{
					"inputs": [],
					"name": "mintReferralReward",
					"outputs": [],
					"stateMutability": "nonpayable",
					"type": "function"
				},
				{
					"inputs": [],
					"name": "name",
					"outputs": [
						{
							"internalType": "string",
							"name": "",
							"type": "string"
						}
					],
					"stateMutability": "view",
					"type": "function"
				},
				{
					"inputs": [],
					"name": "owner",
					"outputs": [
						{
							"internalType": "address",
							"name": "",
							"type": "address"
						}
					],
					"stateMutability": "view",
					"type": "function"
				},
				{
					"inputs": [],
					"name": "preSaleEndTime",
					"outputs": [
						{
							"internalType": "uint256",
							"name": "",
							"type": "uint256"
						}
					],
					"stateMutability": "view",
					"type": "function"
				},
				{
					"inputs": [],
					"name": "preSaleStartTime",
					"outputs": [
						{
							"internalType": "uint256",
							"name": "",
							"type": "uint256"
						}
					],
					"stateMutability": "view",
					"type": "function"
				},
				{
					"inputs": [],
					"name": "preSaleWeeksInWeeks",
					"outputs": [
						{
							"internalType": "uint256",
							"name": "",
							"type": "uint256"
						}
					],
					"stateMutability": "view",
					"type": "function"
				},
				{
					"inputs": [],
					"name": "presaleIsActive",
					"outputs": [
						{
							"internalType": "bool",
							"name": "",
							"type": "bool"
						}
					],
					"stateMutability": "view",
					"type": "function"
				},
				{
					"inputs": [
						{
							"internalType": "address",
							"name": "",
							"type": "address"
						}
					],
					"name": "referralCounts",
					"outputs": [
						{
							"internalType": "uint256",
							"name": "",
							"type": "uint256"
						}
					],
					"stateMutability": "view",
					"type": "function"
				},
				{
					"inputs": [
						{
							"internalType": "address",
							"name": "",
							"type": "address"
						}
					],
					"name": "referrals",
					"outputs": [
						{
							"internalType": "address",
							"name": "",
							"type": "address"
						}
					],
					"stateMutability": "view",
					"type": "function"
				},
				{
					"inputs": [],
					"name": "regularSalePrice",
					"outputs": [
						{
							"internalType": "uint256",
							"name": "",
							"type": "uint256"
						}
					],
					"stateMutability": "view",
					"type": "function"
				},
				{
					"inputs": [],
					"name": "renounceOwnership",
					"outputs": [],
					"stateMutability": "nonpayable",
					"type": "function"
				},
				{
					"inputs": [
						{
							"internalType": "address",
							"name": "referral",
							"type": "address"
						}
					],
					"name": "signUpForWhitelist",
					"outputs": [],
					"stateMutability": "nonpayable",
					"type": "function"
				},
				{
					"inputs": [
						{
							"internalType": "uint256",
							"name": "amount",
							"type": "uint256"
						}
					],
					"name": "stakeTokens",
					"outputs": [],
					"stateMutability": "nonpayable",
					"type": "function"
				},
				{
					"inputs": [
						{
							"internalType": "address",
							"name": "",
							"type": "address"
						}
					],
					"name": "stakedAmount",
					"outputs": [
						{
							"internalType": "uint256",
							"name": "",
							"type": "uint256"
						}
					],
					"stateMutability": "view",
					"type": "function"
				},
				{
					"inputs": [],
					"name": "stakingRewardRate",
					"outputs": [
						{
							"internalType": "uint256",
							"name": "",
							"type": "uint256"
						}
					],
					"stateMutability": "view",
					"type": "function"
				},
				{
					"inputs": [
						{
							"internalType": "address",
							"name": "",
							"type": "address"
						}
					],
					"name": "stakingTimestamp",
					"outputs": [
						{
							"internalType": "uint256",
							"name": "",
							"type": "uint256"
						}
					],
					"stateMutability": "view",
					"type": "function"
				},
				{
					"inputs": [
						{
							"internalType": "uint256",
							"name": "_startTime",
							"type": "uint256"
						},
						{
							"internalType": "uint256",
							"name": "_durationWeeks",
							"type": "uint256"
						}
					],
					"name": "startPreSale",
					"outputs": [],
					"stateMutability": "nonpayable",
					"type": "function"
				},
				{
					"inputs": [],
					"name": "symbol",
					"outputs": [
						{
							"internalType": "string",
							"name": "",
							"type": "string"
						}
					],
					"stateMutability": "view",
					"type": "function"
				},
				{
					"inputs": [],
					"name": "tokensSold",
					"outputs": [
						{
							"internalType": "uint256",
							"name": "",
							"type": "uint256"
						}
					],
					"stateMutability": "view",
					"type": "function"
				},
				{
					"inputs": [],
					"name": "totalSupply",
					"outputs": [
						{
							"internalType": "uint256",
							"name": "",
							"type": "uint256"
						}
					],
					"stateMutability": "view",
					"type": "function"
				},
				{
					"inputs": [
						{
							"internalType": "address",
							"name": "to",
							"type": "address"
						},
						{
							"internalType": "uint256",
							"name": "value",
							"type": "uint256"
						}
					],
					"name": "transfer",
					"outputs": [
						{
							"internalType": "bool",
							"name": "",
							"type": "bool"
						}
					],
					"stateMutability": "nonpayable",
					"type": "function"
				},
				{
					"inputs": [
						{
							"internalType": "address",
							"name": "from",
							"type": "address"
						},
						{
							"internalType": "address",
							"name": "to",
							"type": "address"
						},
						{
							"internalType": "uint256",
							"name": "value",
							"type": "uint256"
						}
					],
					"name": "transferFrom",
					"outputs": [
						{
							"internalType": "bool",
							"name": "",
							"type": "bool"
						}
					],
					"stateMutability": "nonpayable",
					"type": "function"
				},
				{
					"inputs": [
						{
							"internalType": "address",
							"name": "newOwner",
							"type": "address"
						}
					],
					"name": "transferOwnership",
					"outputs": [],
					"stateMutability": "nonpayable",
					"type": "function"
				},
				{
					"inputs": [],
					"name": "unstakeTokens",
					"outputs": [],
					"stateMutability": "nonpayable",
					"type": "function"
				},
				{
					"inputs": [],
					"name": "weeklyIncreaseRate",
					"outputs": [
						{
							"internalType": "uint256",
							"name": "",
							"type": "uint256"
						}
					],
					"stateMutability": "view",
					"type": "function"
				},
				{
					"inputs": [
						{
							"internalType": "address",
							"name": "",
							"type": "address"
						}
					],
					"name": "whitelist",
					"outputs": [
						{
							"internalType": "bool",
							"name": "",
							"type": "bool"
						}
					],
					"stateMutability": "view",
					"type": "function"
				}
			],
			"devdoc": {
				"errors": {
					"ERC20InsufficientAllowance(address,uint256,uint256)": [
						{
							"details": "Indicates a failure with the `spender`’s `allowance`. Used in transfers.",
							"params": {
								"allowance": "Amount of tokens a `spender` is allowed to operate with.",
								"needed": "Minimum amount required to perform a transfer.",
								"spender": "Address that may be allowed to operate on tokens without being their owner."
							}
						}
					],
					"ERC20InsufficientBalance(address,uint256,uint256)": [
						{
							"details": "Indicates an error related to the current `balance` of a `sender`. Used in transfers.",
							"params": {
								"balance": "Current balance for the interacting account.",
								"needed": "Minimum amount required to perform a transfer.",
								"sender": "Address whose tokens are being transferred."
							}
						}
					],
					"ERC20InvalidApprover(address)": [
						{
							"details": "Indicates a failure with the `approver` of a token to be approved. Used in approvals.",
							"params": {
								"approver": "Address initiating an approval operation."
							}
						}
					],
					"ERC20InvalidReceiver(address)": [
						{
							"details": "Indicates a failure with the token `receiver`. Used in transfers.",
							"params": {
								"receiver": "Address to which tokens are being transferred."
							}
						}
					],
					"ERC20InvalidSender(address)": [
						{
							"details": "Indicates a failure with the token `sender`. Used in transfers.",
							"params": {
								"sender": "Address whose tokens are being transferred."
							}
						}
					],
					"ERC20InvalidSpender(address)": [
						{
							"details": "Indicates a failure with the `spender` to be approved. Used in approvals.",
							"params": {
								"spender": "Address that may be allowed to operate on tokens without being their owner."
							}
						}
					],
					"OwnableInvalidOwner(address)": [
						{
							"details": "The owner is not a valid owner account. (eg. `address(0)`)"
						}
					],
					"OwnableUnauthorizedAccount(address)": [
						{
							"details": "The caller account is not authorized to perform an operation."
						}
					]
				},
				"events": {
					"Approval(address,address,uint256)": {
						"details": "Emitted when the allowance of a `spender` for an `owner` is set by a call to {approve}. `value` is the new allowance."
					},
					"Transfer(address,address,uint256)": {
						"details": "Emitted when `value` tokens are moved from one account (`from`) to another (`to`). Note that `value` may be zero."
					}
				},
				"kind": "dev",
				"methods": {
					"allowance(address,address)": {
						"details": "See {IERC20-allowance}."
					},
					"approve(address,uint256)": {
						"details": "See {IERC20-approve}. NOTE: If `value` is the maximum `uint256`, the allowance is not updated on `transferFrom`. This is semantically equivalent to an infinite approval. Requirements: - `spender` cannot be the zero address."
					},
					"balanceOf(address)": {
						"details": "See {IERC20-balanceOf}."
					},
					"decimals()": {
						"details": "Returns the number of decimals used to get its user representation. For example, if `decimals` equals `2`, a balance of `505` tokens should be displayed to a user as `5.05` (`505 / 10 ** 2`). Tokens usually opt for a value of 18, imitating the relationship between Ether and Wei. This is the default value returned by this function, unless it's overridden. NOTE: This information is only used for _display_ purposes: it in no way affects any of the arithmetic of the contract, including {IERC20-balanceOf} and {IERC20-transfer}."
					},
					"name()": {
						"details": "Returns the name of the token."
					},
					"owner()": {
						"details": "Returns the address of the current owner."
					},
					"renounceOwnership()": {
						"details": "Leaves the contract without owner. It will not be possible to call `onlyOwner` functions. Can only be called by the current owner. NOTE: Renouncing ownership will leave the contract without an owner, thereby disabling any functionality that is only available to the owner."
					},
					"startPreSale(uint256,uint256)": {
						"params": {
							"_durationWeeks": "Duration of the pre-sale in weeks"
						}
					},
					"symbol()": {
						"details": "Returns the symbol of the token, usually a shorter version of the name."
					},
					"totalSupply()": {
						"details": "See {IERC20-totalSupply}."
					},
					"transfer(address,uint256)": {
						"details": "See {IERC20-transfer}. Requirements: - `to` cannot be the zero address. - the caller must have a balance of at least `value`."
					},
					"transferFrom(address,address,uint256)": {
						"details": "See {IERC20-transferFrom}. Skips emitting an {Approval} event indicating an allowance update. This is not required by the ERC. See {xref-ERC20-_approve-address-address-uint256-bool-}[_approve]. NOTE: Does not update the allowance if the current allowance is the maximum `uint256`. Requirements: - `from` and `to` cannot be the zero address. - `from` must have a balance of at least `value`. - the caller must have allowance for ``from``'s tokens of at least `value`."
					},
					"transferOwnership(address)": {
						"details": "Transfers ownership of the contract to a new account (`newOwner`). Can only be called by the current owner."
					}
				},
				"version": 1
			},
			"evm": {
				"assembly": "    /* \"contracts/SimpleToken.sol\":174:6582  contract TokenPreSale is ERC20, Ownable {... */\n  mstore(0x40, 0x80)\n    /* \"contracts/SimpleToken.sol\":1371:1900  constructor(address initialOwner, uint256 totalSupply, uint256 _initialPrice, uint256 _weeklyIncreaseRate, uint256 _regularSalePrice, uint256 _stakingRewardRate) ... */\n  callvalue\n  dup1\n  iszero\n  tag_1\n  jumpi\n  0x00\n  dup1\n  revert\ntag_1:\n  pop\n  mload(0x40)\n  sub(codesize, bytecodeSize)\n  dup1\n  bytecodeSize\n  dup4\n  codecopy\n  dup2\n  dup2\n  add\n  0x40\n  mstore\n  dup2\n  add\n  swap1\n  tag_2\n  swap2\n  swap1\n  tag_3\n  jump\t// in\ntag_2:\n    /* \"contracts/SimpleToken.sol\":1589:1601  initialOwner */\n  dup6\n    /* \"@openzeppelin/contracts/token/ERC20/ERC20.sol\":1601:1714  constructor(string memory name_, string memory symbol_) {... */\n  mload(0x40)\n  dup1\n  0x40\n  add\n  0x40\n  mstore\n  dup1\n  0x0b\n  dup2\n  mstore\n  0x20\n  add\n  0x4e6174757265546f6b656e000000000000000000000000000000000000000000\n  dup2\n  mstore\n  pop\n  mload(0x40)\n  dup1\n  0x40\n  add\n  0x40\n  mstore\n  dup1\n  0x03\n  dup2\n  mstore\n  0x20\n  add\n  0x4e54520000000000000000000000000000000000000000000000000000000000\n  dup2\n  mstore\n  pop\n    /* \"@openzeppelin/contracts/token/ERC20/ERC20.sol\":1675:1680  name_ */\n  dup2\n    /* \"@openzeppelin/contracts/token/ERC20/ERC20.sol\":1667:1672  _name */\n  0x03\n    /* \"@openzeppelin/contracts/token/ERC20/ERC20.sol\":1667:1680  _name = name_ */\n  swap1\n  dup2\n  tag_8\n  swap2\n  swap1\n  tag_9\n  jump\t// in\ntag_8:\n  pop\n    /* \"@openzeppelin/contracts/token/ERC20/ERC20.sol\":1700:1707  symbol_ */\n  dup1\n    /* \"@openzeppelin/contracts/token/ERC20/ERC20.sol\":1690:1697  _symbol */\n  0x04\n    /* \"@openzeppelin/contracts/token/ERC20/ERC20.sol\":1690:1707  _symbol = symbol_ */\n  swap1\n  dup2\n  tag_10\n  swap2\n  swap1\n  tag_9\n  jump\t// in\ntag_10:\n  pop\n    /* \"@openzeppelin/contracts/token/ERC20/ERC20.sol\":1601:1714  constructor(string memory name_, string memory symbol_) {... */\n  pop\n  pop\n    /* \"@openzeppelin/contracts/access/Ownable.sol\":1297:1298  0 */\n  0x00\n    /* \"@openzeppelin/contracts/access/Ownable.sol\":1273:1299  initialOwner == address(0) */\n  0xffffffffffffffffffffffffffffffffffffffff\n  and\n    /* \"@openzeppelin/contracts/access/Ownable.sol\":1273:1285  initialOwner */\n  dup2\n    /* \"@openzeppelin/contracts/access/Ownable.sol\":1273:1299  initialOwner == address(0) */\n  0xffffffffffffffffffffffffffffffffffffffff\n  and\n  sub\n    /* \"@openzeppelin/contracts/access/Ownable.sol\":1269:1364  if (initialOwner == address(0)) {... */\n  tag_12\n  jumpi\n    /* \"@openzeppelin/contracts/access/Ownable.sol\":1350:1351  0 */\n  0x00\n    /* \"@openzeppelin/contracts/access/Ownable.sol\":1322:1353  OwnableInvalidOwner(address(0)) */\n  mload(0x40)\n  0x1e4fbdf700000000000000000000000000000000000000000000000000000000\n  dup2\n  mstore\n  0x04\n  add\n  tag_13\n  swap2\n  swap1\n  tag_14\n  jump\t// in\ntag_13:\n  mload(0x40)\n  dup1\n  swap2\n  sub\n  swap1\n  revert\n    /* \"@openzeppelin/contracts/access/Ownable.sol\":1269:1364  if (initialOwner == address(0)) {... */\ntag_12:\n    /* \"@openzeppelin/contracts/access/Ownable.sol\":1373:1405  _transferOwnership(initialOwner) */\n  tag_15\n    /* \"@openzeppelin/contracts/access/Ownable.sol\":1392:1404  initialOwner */\n  dup2\n    /* \"@openzeppelin/contracts/access/Ownable.sol\":1373:1391  _transferOwnership */\n  shl(0x20, tag_16)\n    /* \"@openzeppelin/contracts/access/Ownable.sol\":1373:1405  _transferOwnership(initialOwner) */\n  0x20\n  shr\n  jump\t// in\ntag_15:\n    /* \"@openzeppelin/contracts/access/Ownable.sol\":1225:1412  constructor(address initialOwner) {... */\n  pop\n    /* \"contracts/SimpleToken.sol\":1620:1672  _mint(address(this), totalSupply * 10 ** decimals()) */\n  tag_18\n    /* \"contracts/SimpleToken.sol\":1634:1638  this */\n  address\n    /* \"contracts/SimpleToken.sol\":1661:1671  decimals() */\n  tag_19\n    /* \"contracts/SimpleToken.sol\":1661:1669  decimals */\n  shl(0x20, tag_20)\n    /* \"contracts/SimpleToken.sol\":1661:1671  decimals() */\n  0x20\n  shr\n  jump\t// in\ntag_19:\n    /* \"contracts/SimpleToken.sol\":1655:1657  10 */\n  0x0a\n    /* \"contracts/SimpleToken.sol\":1655:1671  10 ** decimals() */\n  tag_21\n  swap2\n  swap1\n  tag_22\n  jump\t// in\ntag_21:\n    /* \"contracts/SimpleToken.sol\":1641:1652  totalSupply */\n  dup8\n    /* \"contracts/SimpleToken.sol\":1641:1671  totalSupply * 10 ** decimals() */\n  tag_23\n  swap2\n  swap1\n  tag_24\n  jump\t// in\ntag_23:\n    /* \"contracts/SimpleToken.sol\":1620:1625  _mint */\n  shl(0x20, tag_25)\n    /* \"contracts/SimpleToken.sol\":1620:1672  _mint(address(this), totalSupply * 10 ** decimals()) */\n  0x20\n  shr\n  jump\t// in\ntag_18:\n    /* \"contracts/SimpleToken.sol\":1698:1711  _initialPrice */\n  dup4\n    /* \"contracts/SimpleToken.sol\":1683:1695  initialPrice */\n  0x08\n    /* \"contracts/SimpleToken.sol\":1683:1711  initialPrice = _initialPrice */\n  dup2\n  swap1\n  sstore\n  pop\n    /* \"contracts/SimpleToken.sol\":1743:1762  _weeklyIncreaseRate */\n  dup3\n    /* \"contracts/SimpleToken.sol\":1722:1740  weeklyIncreaseRate */\n  0x0a\n    /* \"contracts/SimpleToken.sol\":1722:1762  weeklyIncreaseRate = _weeklyIncreaseRate */\n  dup2\n  swap1\n  sstore\n  pop\n    /* \"contracts/SimpleToken.sol\":1792:1809  _regularSalePrice */\n  dup2\n    /* \"contracts/SimpleToken.sol\":1773:1789  regularSalePrice */\n  0x09\n    /* \"contracts/SimpleToken.sol\":1773:1809  regularSalePrice = _regularSalePrice */\n  dup2\n  swap1\n  sstore\n  pop\n    /* \"contracts/SimpleToken.sol\":1840:1858  _stakingRewardRate */\n  dup1\n    /* \"contracts/SimpleToken.sol\":1820:1837  stakingRewardRate */\n  0x0d\n    /* \"contracts/SimpleToken.sol\":1820:1858  stakingRewardRate = _stakingRewardRate */\n  dup2\n  swap1\n  sstore\n  pop\n    /* \"contracts/SimpleToken.sol\":1887:1892  false */\n  0x00\n    /* \"contracts/SimpleToken.sol\":1869:1884  presaleIsActive */\n  0x05\n  0x14\n    /* \"contracts/SimpleToken.sol\":1869:1892  presaleIsActive = false */\n  0x0100\n  exp\n  dup2\n  sload\n  dup2\n  0xff\n  mul\n  not\n  and\n  swap1\n  dup4\n  iszero\n  iszero\n  mul\n  or\n  swap1\n  sstore\n  pop\n    /* \"contracts/SimpleToken.sol\":1371:1900  constructor(address initialOwner, uint256 totalSupply, uint256 _initialPrice, uint256 _weeklyIncreaseRate, uint256 _regularSalePrice, uint256 _stakingRewardRate) ... */\n  pop\n  pop\n  pop\n  pop\n  pop\n  pop\n    /* \"contracts/SimpleToken.sol\":174:6582  contract TokenPreSale is ERC20, Ownable {... */\n  jump(tag_26)\n    /* \"@openzeppelin/contracts/access/Ownable.sol\":2912:3099  function _transferOwnership(address newOwner) internal virtual {... */\ntag_16:\n    /* \"@openzeppelin/contracts/access/Ownable.sol\":2985:3001  address oldOwner */\n  0x00\n    /* \"@openzeppelin/contracts/access/Ownable.sol\":3004:3010  _owner */\n  0x05\n  0x00\n  swap1\n  sload\n  swap1\n  0x0100\n  exp\n  swap1\n  div\n  0xffffffffffffffffffffffffffffffffffffffff\n  and\n    /* \"@openzeppelin/contracts/access/Ownable.sol\":2985:3010  address oldOwner = _owner */\n  swap1\n  pop\n    /* \"@openzeppelin/contracts/access/Ownable.sol\":3029:3037  newOwner */\n  dup2\n    /* \"@openzeppelin/contracts/access/Ownable.sol\":3020:3026  _owner */\n  0x05\n  0x00\n    /* \"@openzeppelin/contracts/access/Ownable.sol\":3020:3037  _owner = newOwner */\n  0x0100\n  exp\n  dup2\n  sload\n  dup2\n  0xffffffffffffffffffffffffffffffffffffffff\n  mul\n  not\n  and\n  swap1\n  dup4\n  0xffffffffffffffffffffffffffffffffffffffff\n  and\n  mul\n  or\n  swap1\n  sstore\n  pop\n    /* \"@openzeppelin/contracts/access/Ownable.sol\":3083:3091  newOwner */\n  dup2\n    /* \"@openzeppelin/contracts/access/Ownable.sol\":3052:3092  OwnershipTransferred(oldOwner, newOwner) */\n  0xffffffffffffffffffffffffffffffffffffffff\n  and\n    /* \"@openzeppelin/contracts/access/Ownable.sol\":3073:3081  oldOwner */\n  dup2\n    /* \"@openzeppelin/contracts/access/Ownable.sol\":3052:3092  OwnershipTransferred(oldOwner, newOwner) */\n  0xffffffffffffffffffffffffffffffffffffffff\n  and\n  0x8be0079c531659141344cd1fd0a4f28419497f9722a3daafe3b4186f6b6457e0\n  mload(0x40)\n  mload(0x40)\n  dup1\n  swap2\n  sub\n  swap1\n  log3\n    /* \"@openzeppelin/contracts/access/Ownable.sol\":2975:3099  {... */\n  pop\n    /* \"@openzeppelin/contracts/access/Ownable.sol\":2912:3099  function _transferOwnership(address newOwner) internal virtual {... */\n  pop\n  jump\t// out\n    /* \"@openzeppelin/contracts/token/ERC20/ERC20.sol\":2707:2789  function decimals() public view virtual returns (uint8) {... */\ntag_20:\n    /* \"@openzeppelin/contracts/token/ERC20/ERC20.sol\":2756:2761  uint8 */\n  0x00\n    /* \"@openzeppelin/contracts/token/ERC20/ERC20.sol\":2780:2782  18 */\n  0x12\n    /* \"@openzeppelin/contracts/token/ERC20/ERC20.sol\":2773:2782  return 18 */\n  swap1\n  pop\n    /* \"@openzeppelin/contracts/token/ERC20/ERC20.sol\":2707:2789  function decimals() public view virtual returns (uint8) {... */\n  swap1\n  jump\t// out\n    /* \"@openzeppelin/contracts/token/ERC20/ERC20.sol\":7458:7666  function _mint(address account, uint256 value) internal {... */\ntag_25:\n    /* \"@openzeppelin/contracts/token/ERC20/ERC20.sol\":7547:7548  0 */\n  0x00\n    /* \"@openzeppelin/contracts/token/ERC20/ERC20.sol\":7528:7549  account == address(0) */\n  0xffffffffffffffffffffffffffffffffffffffff\n  and\n    /* \"@openzeppelin/contracts/token/ERC20/ERC20.sol\":7528:7535  account */\n  dup3\n    /* \"@openzeppelin/contracts/token/ERC20/ERC20.sol\":7528:7549  account == address(0) */\n  0xffffffffffffffffffffffffffffffffffffffff\n  and\n  sub\n    /* \"@openzeppelin/contracts/token/ERC20/ERC20.sol\":7524:7615  if (account == address(0)) {... */\n  tag_30\n  jumpi\n    /* \"@openzeppelin/contracts/token/ERC20/ERC20.sol\":7601:7602  0 */\n  0x00\n    /* \"@openzeppelin/contracts/token/ERC20/ERC20.sol\":7572:7604  ERC20InvalidReceiver(address(0)) */\n  mload(0x40)\n  0xec442f0500000000000000000000000000000000000000000000000000000000\n  dup2\n  mstore\n  0x04\n  add\n  tag_31\n  swap2\n  swap1\n  tag_14\n  jump\t// in\ntag_31:\n  mload(0x40)\n  dup1\n  swap2\n  sub\n  swap1\n  revert\n    /* \"@openzeppelin/contracts/token/ERC20/ERC20.sol\":7524:7615  if (account == address(0)) {... */\ntag_30:\n    /* \"@openzeppelin/contracts/token/ERC20/ERC20.sol\":7624:7659  _update(address(0), account, value) */\n  tag_32\n    /* \"@openzeppelin/contracts/token/ERC20/ERC20.sol\":7640:7641  0 */\n  0x00\n    /* \"@openzeppelin/contracts/token/ERC20/ERC20.sol\":7644:7651  account */\n  dup4\n    /* \"@openzeppelin/contracts/token/ERC20/ERC20.sol\":7653:7658  value */\n  dup4\n    /* \"@openzeppelin/contracts/token/ERC20/ERC20.sol\":7624:7631  _update */\n  shl(0x20, tag_33)\n    /* \"@openzeppelin/contracts/token/ERC20/ERC20.sol\":7624:7659  _update(address(0), account, value) */\n  0x20\n  shr\n  jump\t// in\ntag_32:\n    /* \"@openzeppelin/contracts/token/ERC20/ERC20.sol\":7458:7666  function _mint(address account, uint256 value) internal {... */\n  pop\n  pop\n  jump\t// out\n    /* \"@openzeppelin/contracts/token/ERC20/ERC20.sol\":6008:7115  function _update(address from, address to, uint256 value) internal virtual {... */\ntag_33:\n    /* \"@openzeppelin/contracts/token/ERC20/ERC20.sol\":6113:6114  0 */\n  0x00\n    /* \"@openzeppelin/contracts/token/ERC20/ERC20.sol\":6097:6115  from == address(0) */\n  0xffffffffffffffffffffffffffffffffffffffff\n  and\n    /* \"@openzeppelin/contracts/token/ERC20/ERC20.sol\":6097:6101  from */\n  dup4\n    /* \"@openzeppelin/contracts/token/ERC20/ERC20.sol\":6097:6115  from == address(0) */\n  0xffffffffffffffffffffffffffffffffffffffff\n  and\n  sub\n    /* \"@openzeppelin/contracts/token/ERC20/ERC20.sol\":6093:6633  if (from == address(0)) {... */\n  tag_35\n  jumpi\n    /* \"@openzeppelin/contracts/token/ERC20/ERC20.sol\":6249:6254  value */\n  dup1\n    /* \"@openzeppelin/contracts/token/ERC20/ERC20.sol\":6233:6245  _totalSupply */\n  0x02\n  0x00\n    /* \"@openzeppelin/contracts/token/ERC20/ERC20.sol\":6233:6254  _totalSupply += value */\n  dup3\n  dup3\n  sload\n  tag_36\n  swap2\n  swap1\n  tag_37\n  jump\t// in\ntag_36:\n  swap3\n  pop\n  pop\n  dup2\n  swap1\n  sstore\n  pop\n    /* \"@openzeppelin/contracts/token/ERC20/ERC20.sol\":6093:6633  if (from == address(0)) {... */\n  jump(tag_38)\ntag_35:\n    /* \"@openzeppelin/contracts/token/ERC20/ERC20.sol\":6285:6304  uint256 fromBalance */\n  0x00\n    /* \"@openzeppelin/contracts/token/ERC20/ERC20.sol\":6307:6316  _balances */\n  dup1\n    /* \"@openzeppelin/contracts/token/ERC20/ERC20.sol\":6307:6322  _balances[from] */\n  0x00\n    /* \"@openzeppelin/contracts/token/ERC20/ERC20.sol\":6317:6321  from */\n  dup6\n    /* \"@openzeppelin/contracts/token/ERC20/ERC20.sol\":6307:6322  _balances[from] */\n  0xffffffffffffffffffffffffffffffffffffffff\n  and\n  0xffffffffffffffffffffffffffffffffffffffff\n  and\n  dup2\n  mstore\n  0x20\n  add\n  swap1\n  dup2\n  mstore\n  0x20\n  add\n  0x00\n  keccak256\n  sload\n    /* \"@openzeppelin/contracts/token/ERC20/ERC20.sol\":6285:6322  uint256 fromBalance = _balances[from] */\n  swap1\n  pop\n    /* \"@openzeppelin/contracts/token/ERC20/ERC20.sol\":6354:6359  value */\n  dup2\n    /* \"@openzeppelin/contracts/token/ERC20/ERC20.sol\":6340:6351  fromBalance */\n  dup2\n    /* \"@openzeppelin/contracts/token/ERC20/ERC20.sol\":6340:6359  fromBalance < value */\n  lt\n    /* \"@openzeppelin/contracts/token/ERC20/ERC20.sol\":6336:6451  if (fromBalance < value) {... */\n  iszero\n  tag_39\n  jumpi\n    /* \"@openzeppelin/contracts/token/ERC20/ERC20.sol\":6411:6415  from */\n  dup4\n    /* \"@openzeppelin/contracts/token/ERC20/ERC20.sol\":6417:6428  fromBalance */\n  dup2\n    /* \"@openzeppelin/contracts/token/ERC20/ERC20.sol\":6430:6435  value */\n  dup4\n    /* \"@openzeppelin/contracts/token/ERC20/ERC20.sol\":6386:6436  ERC20InsufficientBalance(from, fromBalance, value) */\n  mload(0x40)\n  0xe450d38c00000000000000000000000000000000000000000000000000000000\n  dup2\n  mstore\n  0x04\n  add\n  tag_40\n  swap4\n  swap3\n  swap2\n  swap1\n  tag_41\n  jump\t// in\ntag_40:\n  mload(0x40)\n  dup1\n  swap2\n  sub\n  swap1\n  revert\n    /* \"@openzeppelin/contracts/token/ERC20/ERC20.sol\":6336:6451  if (fromBalance < value) {... */\ntag_39:\n    /* \"@openzeppelin/contracts/token/ERC20/ERC20.sol\":6603:6608  value */\n  dup2\n    /* \"@openzeppelin/contracts/token/ERC20/ERC20.sol\":6589:6600  fromBalance */\n  dup2\n    /* \"@openzeppelin/contracts/token/ERC20/ERC20.sol\":6589:6608  fromBalance - value */\n  sub\n    /* \"@openzeppelin/contracts/token/ERC20/ERC20.sol\":6571:6580  _balances */\n  0x00\n    /* \"@openzeppelin/contracts/token/ERC20/ERC20.sol\":6571:6586  _balances[from] */\n  dup1\n    /* \"@openzeppelin/contracts/token/ERC20/ERC20.sol\":6581:6585  from */\n  dup7\n    /* \"@openzeppelin/contracts/token/ERC20/ERC20.sol\":6571:6586  _balances[from] */\n  0xffffffffffffffffffffffffffffffffffffffff\n  and\n  0xffffffffffffffffffffffffffffffffffffffff\n  and\n  dup2\n  mstore\n  0x20\n  add\n  swap1\n  dup2\n  mstore\n  0x20\n  add\n  0x00\n  keccak256\n    /* \"@openzeppelin/contracts/token/ERC20/ERC20.sol\":6571:6608  _balances[from] = fromBalance - value */\n  dup2\n  swap1\n  sstore\n  pop\n    /* \"@openzeppelin/contracts/token/ERC20/ERC20.sol\":6271:6633  {... */\n  pop\n    /* \"@openzeppelin/contracts/token/ERC20/ERC20.sol\":6093:6633  if (from == address(0)) {... */\ntag_38:\n    /* \"@openzeppelin/contracts/token/ERC20/ERC20.sol\":6661:6662  0 */\n  0x00\n    /* \"@openzeppelin/contracts/token/ERC20/ERC20.sol\":6647:6663  to == address(0) */\n  0xffffffffffffffffffffffffffffffffffffffff\n  and\n    /* \"@openzeppelin/contracts/token/ERC20/ERC20.sol\":6647:6649  to */\n  dup3\n    /* \"@openzeppelin/contracts/token/ERC20/ERC20.sol\":6647:6663  to == address(0) */\n  0xffffffffffffffffffffffffffffffffffffffff\n  and\n  sub\n    /* \"@openzeppelin/contracts/token/ERC20/ERC20.sol\":6643:7068  if (to == address(0)) {... */\n  tag_42\n  jumpi\n    /* \"@openzeppelin/contracts/token/ERC20/ERC20.sol\":6826:6831  value */\n  dup1\n    /* \"@openzeppelin/contracts/token/ERC20/ERC20.sol\":6810:6822  _totalSupply */\n  0x02\n  0x00\n    /* \"@openzeppelin/contracts/token/ERC20/ERC20.sol\":6810:6831  _totalSupply -= value */\n  dup3\n  dup3\n  sload\n  sub\n  swap3\n  pop\n  pop\n  dup2\n  swap1\n  sstore\n  pop\n    /* \"@openzeppelin/contracts/token/ERC20/ERC20.sol\":6643:7068  if (to == address(0)) {... */\n  jump(tag_43)\ntag_42:\n    /* \"@openzeppelin/contracts/token/ERC20/ERC20.sol\":7038:7043  value */\n  dup1\n    /* \"@openzeppelin/contracts/token/ERC20/ERC20.sol\":7021:7030  _balances */\n  0x00\n    /* \"@openzeppelin/contracts/token/ERC20/ERC20.sol\":7021:7034  _balances[to] */\n  dup1\n    /* \"@openzeppelin/contracts/token/ERC20/ERC20.sol\":7031:7033  to */\n  dup5\n    /* \"@openzeppelin/contracts/token/ERC20/ERC20.sol\":7021:7034  _balances[to] */\n  0xffffffffffffffffffffffffffffffffffffffff\n  and\n  0xffffffffffffffffffffffffffffffffffffffff\n  and\n  dup2\n  mstore\n  0x20\n  add\n  swap1\n  dup2\n  mstore\n  0x20\n  add\n  0x00\n  keccak256\n  0x00\n    /* \"@openzeppelin/contracts/token/ERC20/ERC20.sol\":7021:7043  _balances[to] += value */\n  dup3\n  dup3\n  sload\n  add\n  swap3\n  pop\n  pop\n  dup2\n  swap1\n  sstore\n  pop\n    /* \"@openzeppelin/contracts/token/ERC20/ERC20.sol\":6643:7068  if (to == address(0)) {... */\ntag_43:\n    /* \"@openzeppelin/contracts/token/ERC20/ERC20.sol\":7098:7100  to */\n  dup2\n    /* \"@openzeppelin/contracts/token/ERC20/ERC20.sol\":7083:7108  Transfer(from, to, value) */\n  0xffffffffffffffffffffffffffffffffffffffff\n  and\n    /* \"@openzeppelin/contracts/token/ERC20/ERC20.sol\":7092:7096  from */\n  dup4\n    /* \"@openzeppelin/contracts/token/ERC20/ERC20.sol\":7083:7108  Transfer(from, to, value) */\n  0xffffffffffffffffffffffffffffffffffffffff\n  and\n  0xddf252ad1be2c89b69c2b068fc378daa952ba7f163c4a11628f55a4df523b3ef\n    /* \"@openzeppelin/contracts/token/ERC20/ERC20.sol\":7102:7107  value */\n  dup4\n    /* \"@openzeppelin/contracts/token/ERC20/ERC20.sol\":7083:7108  Transfer(from, to, value) */\n  mload(0x40)\n  tag_44\n  swap2\n  swap1\n  tag_45\n  jump\t// in\ntag_44:\n  mload(0x40)\n  dup1\n  swap2\n  sub\n  swap1\n  log3\n    /* \"@openzeppelin/contracts/token/ERC20/ERC20.sol\":6008:7115  function _update(address from, address to, uint256 value) internal virtual {... */\n  pop\n  pop\n  pop\n  jump\t// out\n    /* \"#utility.yul\":88:205   */\ntag_47:\n    /* \"#utility.yul\":197:198   */\n  0x00\n    /* \"#utility.yul\":194:195   */\n  dup1\n    /* \"#utility.yul\":187:199   */\n  revert\n    /* \"#utility.yul\":334:460   */\ntag_49:\n    /* \"#utility.yul\":371:378   */\n  0x00\n    /* \"#utility.yul\":411:453   */\n  0xffffffffffffffffffffffffffffffffffffffff\n    /* \"#utility.yul\":404:409   */\n  dup3\n    /* \"#utility.yul\":400:454   */\n  and\n    /* \"#utility.yul\":389:454   */\n  swap1\n  pop\n    /* \"#utility.yul\":334:460   */\n  swap2\n  swap1\n  pop\n  jump\t// out\n    /* \"#utility.yul\":466:562   */\ntag_50:\n    /* \"#utility.yul\":503:510   */\n  0x00\n    /* \"#utility.yul\":532:556   */\n  tag_88\n    /* \"#utility.yul\":550:555   */\n  dup3\n    /* \"#utility.yul\":532:556   */\n  tag_49\n  jump\t// in\ntag_88:\n    /* \"#utility.yul\":521:556   */\n  swap1\n  pop\n    /* \"#utility.yul\":466:562   */\n  swap2\n  swap1\n  pop\n  jump\t// out\n    /* \"#utility.yul\":568:690   */\ntag_51:\n    /* \"#utility.yul\":641:665   */\n  tag_90\n    /* \"#utility.yul\":659:664   */\n  dup2\n    /* \"#utility.yul\":641:665   */\n  tag_50\n  jump\t// in\ntag_90:\n    /* \"#utility.yul\":634:639   */\n  dup2\n    /* \"#utility.yul\":631:666   */\n  eq\n    /* \"#utility.yul\":621:684   */\n  tag_91\n  jumpi\n    /* \"#utility.yul\":680:681   */\n  0x00\n    /* \"#utility.yul\":677:678   */\n  dup1\n    /* \"#utility.yul\":670:682   */\n  revert\n    /* \"#utility.yul\":621:684   */\ntag_91:\n    /* \"#utility.yul\":568:690   */\n  pop\n  jump\t// out\n    /* \"#utility.yul\":696:839   */\ntag_52:\n    /* \"#utility.yul\":753:758   */\n  0x00\n    /* \"#utility.yul\":784:790   */\n  dup2\n    /* \"#utility.yul\":778:791   */\n  mload\n    /* \"#utility.yul\":769:791   */\n  swap1\n  pop\n    /* \"#utility.yul\":800:833   */\n  tag_93\n    /* \"#utility.yul\":827:832   */\n  dup2\n    /* \"#utility.yul\":800:833   */\n  tag_51\n  jump\t// in\ntag_93:\n    /* \"#utility.yul\":696:839   */\n  swap3\n  swap2\n  pop\n  pop\n  jump\t// out\n    /* \"#utility.yul\":845:922   */\ntag_53:\n    /* \"#utility.yul\":882:889   */\n  0x00\n    /* \"#utility.yul\":911:916   */\n  dup2\n    /* \"#utility.yul\":900:916   */\n  swap1\n  pop\n    /* \"#utility.yul\":845:922   */\n  swap2\n  swap1\n  pop\n  jump\t// out\n    /* \"#utility.yul\":928:1050   */\ntag_54:\n    /* \"#utility.yul\":1001:1025   */\n  tag_96\n    /* \"#utility.yul\":1019:1024   */\n  dup2\n    /* \"#utility.yul\":1001:1025   */\n  tag_53\n  jump\t// in\ntag_96:\n    /* \"#utility.yul\":994:999   */\n  dup2\n    /* \"#utility.yul\":991:1026   */\n  eq\n    /* \"#utility.yul\":981:1044   */\n  tag_97\n  jumpi\n    /* \"#utility.yul\":1040:1041   */\n  0x00\n    /* \"#utility.yul\":1037:1038   */\n  dup1\n    /* \"#utility.yul\":1030:1042   */\n  revert\n    /* \"#utility.yul\":981:1044   */\ntag_97:\n    /* \"#utility.yul\":928:1050   */\n  pop\n  jump\t// out\n    /* \"#utility.yul\":1056:1199   */\ntag_55:\n    /* \"#utility.yul\":1113:1118   */\n  0x00\n    /* \"#utility.yul\":1144:1150   */\n  dup2\n    /* \"#utility.yul\":1138:1151   */\n  mload\n    /* \"#utility.yul\":1129:1151   */\n  swap1\n  pop\n    /* \"#utility.yul\":1160:1193   */\n  tag_99\n    /* \"#utility.yul\":1187:1192   */\n  dup2\n    /* \"#utility.yul\":1160:1193   */\n  tag_54\n  jump\t// in\ntag_99:\n    /* \"#utility.yul\":1056:1199   */\n  swap3\n  swap2\n  pop\n  pop\n  jump\t// out\n    /* \"#utility.yul\":1205:2339   */\ntag_3:\n    /* \"#utility.yul\":1320:1326   */\n  0x00\n    /* \"#utility.yul\":1328:1334   */\n  dup1\n    /* \"#utility.yul\":1336:1342   */\n  0x00\n    /* \"#utility.yul\":1344:1350   */\n  dup1\n    /* \"#utility.yul\":1352:1358   */\n  0x00\n    /* \"#utility.yul\":1360:1366   */\n  dup1\n    /* \"#utility.yul\":1409:1412   */\n  0xc0\n    /* \"#utility.yul\":1397:1406   */\n  dup8\n    /* \"#utility.yul\":1388:1395   */\n  dup10\n    /* \"#utility.yul\":1384:1407   */\n  sub\n    /* \"#utility.yul\":1380:1413   */\n  slt\n    /* \"#utility.yul\":1377:1497   */\n  iszero\n  tag_101\n  jumpi\n    /* \"#utility.yul\":1416:1495   */\n  tag_102\n  tag_47\n  jump\t// in\ntag_102:\n    /* \"#utility.yul\":1377:1497   */\ntag_101:\n    /* \"#utility.yul\":1536:1537   */\n  0x00\n    /* \"#utility.yul\":1561:1625   */\n  tag_103\n    /* \"#utility.yul\":1617:1624   */\n  dup10\n    /* \"#utility.yul\":1608:1614   */\n  dup3\n    /* \"#utility.yul\":1597:1606   */\n  dup11\n    /* \"#utility.yul\":1593:1615   */\n  add\n    /* \"#utility.yul\":1561:1625   */\n  tag_52\n  jump\t// in\ntag_103:\n    /* \"#utility.yul\":1551:1625   */\n  swap7\n  pop\n    /* \"#utility.yul\":1507:1635   */\n  pop\n    /* \"#utility.yul\":1674:1676   */\n  0x20\n    /* \"#utility.yul\":1700:1764   */\n  tag_104\n    /* \"#utility.yul\":1756:1763   */\n  dup10\n    /* \"#utility.yul\":1747:1753   */\n  dup3\n    /* \"#utility.yul\":1736:1745   */\n  dup11\n    /* \"#utility.yul\":1732:1754   */\n  add\n    /* \"#utility.yul\":1700:1764   */\n  tag_55\n  jump\t// in\ntag_104:\n    /* \"#utility.yul\":1690:1764   */\n  swap6\n  pop\n    /* \"#utility.yul\":1645:1774   */\n  pop\n    /* \"#utility.yul\":1813:1815   */\n  0x40\n    /* \"#utility.yul\":1839:1903   */\n  tag_105\n    /* \"#utility.yul\":1895:1902   */\n  dup10\n    /* \"#utility.yul\":1886:1892   */\n  dup3\n    /* \"#utility.yul\":1875:1884   */\n  dup11\n    /* \"#utility.yul\":1871:1893   */\n  add\n    /* \"#utility.yul\":1839:1903   */\n  tag_55\n  jump\t// in\ntag_105:\n    /* \"#utility.yul\":1829:1903   */\n  swap5\n  pop\n    /* \"#utility.yul\":1784:1913   */\n  pop\n    /* \"#utility.yul\":1952:1954   */\n  0x60\n    /* \"#utility.yul\":1978:2042   */\n  tag_106\n    /* \"#utility.yul\":2034:2041   */\n  dup10\n    /* \"#utility.yul\":2025:2031   */\n  dup3\n    /* \"#utility.yul\":2014:2023   */\n  dup11\n    /* \"#utility.yul\":2010:2032   */\n  add\n    /* \"#utility.yul\":1978:2042   */\n  tag_55\n  jump\t// in\ntag_106:\n    /* \"#utility.yul\":1968:2042   */\n  swap4\n  pop\n    /* \"#utility.yul\":1923:2052   */\n  pop\n    /* \"#utility.yul\":2091:2094   */\n  0x80\n    /* \"#utility.yul\":2118:2182   */\n  tag_107\n    /* \"#utility.yul\":2174:2181   */\n  dup10\n    /* \"#utility.yul\":2165:2171   */\n  dup3\n    /* \"#utility.yul\":2154:2163   */\n  dup11\n    /* \"#utility.yul\":2150:2172   */\n  add\n    /* \"#utility.yul\":2118:2182   */\n  tag_55\n  jump\t// in\ntag_107:\n    /* \"#utility.yul\":2108:2182   */\n  swap3\n  pop\n    /* \"#utility.yul\":2062:2192   */\n  pop\n    /* \"#utility.yul\":2231:2234   */\n  0xa0\n    /* \"#utility.yul\":2258:2322   */\n  tag_108\n    /* \"#utility.yul\":2314:2321   */\n  dup10\n    /* \"#utility.yul\":2305:2311   */\n  dup3\n    /* \"#utility.yul\":2294:2303   */\n  dup11\n    /* \"#utility.yul\":2290:2312   */\n  add\n    /* \"#utility.yul\":2258:2322   */\n  tag_55\n  jump\t// in\ntag_108:\n    /* \"#utility.yul\":2248:2322   */\n  swap2\n  pop\n    /* \"#utility.yul\":2202:2332   */\n  pop\n    /* \"#utility.yul\":1205:2339   */\n  swap3\n  swap6\n  pop\n  swap3\n  swap6\n  pop\n  swap3\n  swap6\n  jump\t// out\n    /* \"#utility.yul\":2345:2444   */\ntag_56:\n    /* \"#utility.yul\":2397:2403   */\n  0x00\n    /* \"#utility.yul\":2431:2436   */\n  dup2\n    /* \"#utility.yul\":2425:2437   */\n  mload\n    /* \"#utility.yul\":2415:2437   */\n  swap1\n  pop\n    /* \"#utility.yul\":2345:2444   */\n  swap2\n  swap1\n  pop\n  jump\t// out\n    /* \"#utility.yul\":2450:2630   */\ntag_57:\n    /* \"#utility.yul\":2498:2575   */\n  0x4e487b7100000000000000000000000000000000000000000000000000000000\n    /* \"#utility.yul\":2495:2496   */\n  0x00\n    /* \"#utility.yul\":2488:2576   */\n  mstore\n    /* \"#utility.yul\":2595:2599   */\n  0x41\n    /* \"#utility.yul\":2592:2593   */\n  0x04\n    /* \"#utility.yul\":2585:2600   */\n  mstore\n    /* \"#utility.yul\":2619:2623   */\n  0x24\n    /* \"#utility.yul\":2616:2617   */\n  0x00\n    /* \"#utility.yul\":2609:2624   */\n  revert\n    /* \"#utility.yul\":2636:2816   */\ntag_58:\n    /* \"#utility.yul\":2684:2761   */\n  0x4e487b7100000000000000000000000000000000000000000000000000000000\n    /* \"#utility.yul\":2681:2682   */\n  0x00\n    /* \"#utility.yul\":2674:2762   */\n  mstore\n    /* \"#utility.yul\":2781:2785   */\n  0x22\n    /* \"#utility.yul\":2778:2779   */\n  0x04\n    /* \"#utility.yul\":2771:2786   */\n  mstore\n    /* \"#utility.yul\":2805:2809   */\n  0x24\n    /* \"#utility.yul\":2802:2803   */\n  0x00\n    /* \"#utility.yul\":2795:2810   */\n  revert\n    /* \"#utility.yul\":2822:3142   */\ntag_59:\n    /* \"#utility.yul\":2866:2872   */\n  0x00\n    /* \"#utility.yul\":2903:2904   */\n  0x02\n    /* \"#utility.yul\":2897:2901   */\n  dup3\n    /* \"#utility.yul\":2893:2905   */\n  div\n    /* \"#utility.yul\":2883:2905   */\n  swap1\n  pop\n    /* \"#utility.yul\":2950:2951   */\n  0x01\n    /* \"#utility.yul\":2944:2948   */\n  dup3\n    /* \"#utility.yul\":2940:2952   */\n  and\n    /* \"#utility.yul\":2971:2989   */\n  dup1\n    /* \"#utility.yul\":2961:3042   */\n  tag_113\n  jumpi\n    /* \"#utility.yul\":3027:3031   */\n  0x7f\n    /* \"#utility.yul\":3019:3025   */\n  dup3\n    /* \"#utility.yul\":3015:3032   */\n  and\n    /* \"#utility.yul\":3005:3032   */\n  swap2\n  pop\n    /* \"#utility.yul\":2961:3042   */\ntag_113:\n    /* \"#utility.yul\":3089:3091   */\n  0x20\n    /* \"#utility.yul\":3081:3087   */\n  dup3\n    /* \"#utility.yul\":3078:3092   */\n  lt\n    /* \"#utility.yul\":3058:3076   */\n  dup2\n    /* \"#utility.yul\":3055:3093   */\n  sub\n    /* \"#utility.yul\":3052:3136   */\n  tag_114\n  jumpi\n    /* \"#utility.yul\":3108:3126   */\n  tag_115\n  tag_58\n  jump\t// in\ntag_115:\n    /* \"#utility.yul\":3052:3136   */\ntag_114:\n    /* \"#utility.yul\":2873:3142   */\n  pop\n    /* \"#utility.yul\":2822:3142   */\n  swap2\n  swap1\n  pop\n  jump\t// out\n    /* \"#utility.yul\":3148:3289   */\ntag_60:\n    /* \"#utility.yul\":3197:3201   */\n  0x00\n    /* \"#utility.yul\":3220:3223   */\n  dup2\n    /* \"#utility.yul\":3212:3223   */\n  swap1\n  pop\n    /* \"#utility.yul\":3243:3246   */\n  dup2\n    /* \"#utility.yul\":3240:3241   */\n  0x00\n    /* \"#utility.yul\":3233:3247   */\n  mstore\n    /* \"#utility.yul\":3277:3281   */\n  0x20\n    /* \"#utility.yul\":3274:3275   */\n  0x00\n    /* \"#utility.yul\":3264:3282   */\n  keccak256\n    /* \"#utility.yul\":3256:3282   */\n  swap1\n  pop\n    /* \"#utility.yul\":3148:3289   */\n  swap2\n  swap1\n  pop\n  jump\t// out\n    /* \"#utility.yul\":3295:3388   */\ntag_61:\n    /* \"#utility.yul\":3332:3338   */\n  0x00\n    /* \"#utility.yul\":3379:3381   */\n  0x20\n    /* \"#utility.yul\":3374:3376   */\n  0x1f\n    /* \"#utility.yul\":3367:3372   */\n  dup4\n    /* \"#utility.yul\":3363:3377   */\n  add\n    /* \"#utility.yul\":3359:3382   */\n  div\n    /* \"#utility.yul\":3349:3382   */\n  swap1\n  pop\n    /* \"#utility.yul\":3295:3388   */\n  swap2\n  swap1\n  pop\n  jump\t// out\n    /* \"#utility.yul\":3394:3501   */\ntag_62:\n    /* \"#utility.yul\":3438:3446   */\n  0x00\n    /* \"#utility.yul\":3488:3493   */\n  dup3\n    /* \"#utility.yul\":3482:3486   */\n  dup3\n    /* \"#utility.yul\":3478:3494   */\n  shl\n    /* \"#utility.yul\":3457:3494   */\n  swap1\n  pop\n    /* \"#utility.yul\":3394:3501   */\n  swap3\n  swap2\n  pop\n  pop\n  jump\t// out\n    /* \"#utility.yul\":3507:3900   */\ntag_63:\n    /* \"#utility.yul\":3576:3582   */\n  0x00\n    /* \"#utility.yul\":3626:3627   */\n  0x08\n    /* \"#utility.yul\":3614:3624   */\n  dup4\n    /* \"#utility.yul\":3610:3628   */\n  mul\n    /* \"#utility.yul\":3649:3746   */\n  tag_120\n    /* \"#utility.yul\":3679:3745   */\n  0xffffffffffffffffffffffffffffffffffffffffffffffffffffffffffffffff\n    /* \"#utility.yul\":3668:3677   */\n  dup3\n    /* \"#utility.yul\":3649:3746   */\n  tag_62\n  jump\t// in\ntag_120:\n    /* \"#utility.yul\":3767:3806   */\n  tag_121\n    /* \"#utility.yul\":3797:3805   */\n  dup7\n    /* \"#utility.yul\":3786:3795   */\n  dup4\n    /* \"#utility.yul\":3767:3806   */\n  tag_62\n  jump\t// in\ntag_121:\n    /* \"#utility.yul\":3755:3806   */\n  swap6\n  pop\n    /* \"#utility.yul\":3839:3843   */\n  dup1\n    /* \"#utility.yul\":3835:3844   */\n  not\n    /* \"#utility.yul\":3828:3833   */\n  dup5\n    /* \"#utility.yul\":3824:3845   */\n  and\n    /* \"#utility.yul\":3815:3845   */\n  swap4\n  pop\n    /* \"#utility.yul\":3888:3892   */\n  dup1\n    /* \"#utility.yul\":3878:3886   */\n  dup7\n    /* \"#utility.yul\":3874:3893   */\n  and\n    /* \"#utility.yul\":3867:3872   */\n  dup5\n    /* \"#utility.yul\":3864:3894   */\n  or\n    /* \"#utility.yul\":3854:3894   */\n  swap3\n  pop\n    /* \"#utility.yul\":3583:3900   */\n  pop\n  pop\n    /* \"#utility.yul\":3507:3900   */\n  swap4\n  swap3\n  pop\n  pop\n  pop\n  jump\t// out\n    /* \"#utility.yul\":3906:3966   */\ntag_64:\n    /* \"#utility.yul\":3934:3937   */\n  0x00\n    /* \"#utility.yul\":3955:3960   */\n  dup2\n    /* \"#utility.yul\":3948:3960   */\n  swap1\n  pop\n    /* \"#utility.yul\":3906:3966   */\n  swap2\n  swap1\n  pop\n  jump\t// out\n    /* \"#utility.yul\":3972:4114   */\ntag_65:\n    /* \"#utility.yul\":4022:4031   */\n  0x00\n    /* \"#utility.yul\":4055:4108   */\n  tag_124\n    /* \"#utility.yul\":4073:4107   */\n  tag_125\n    /* \"#utility.yul\":4082:4106   */\n  tag_126\n    /* \"#utility.yul\":4100:4105   */\n  dup5\n    /* \"#utility.yul\":4082:4106   */\n  tag_53\n  jump\t// in\ntag_126:\n    /* \"#utility.yul\":4073:4107   */\n  tag_64\n  jump\t// in\ntag_125:\n    /* \"#utility.yul\":4055:4108   */\n  tag_53\n  jump\t// in\ntag_124:\n    /* \"#utility.yul\":4042:4108   */\n  swap1\n  pop\n    /* \"#utility.yul\":3972:4114   */\n  swap2\n  swap1\n  pop\n  jump\t// out\n    /* \"#utility.yul\":4120:4195   */\ntag_66:\n    /* \"#utility.yul\":4163:4166   */\n  0x00\n    /* \"#utility.yul\":4184:4189   */\n  dup2\n    /* \"#utility.yul\":4177:4189   */\n  swap1\n  pop\n    /* \"#utility.yul\":4120:4195   */\n  swap2\n  swap1\n  pop\n  jump\t// out\n    /* \"#utility.yul\":4201:4470   */\ntag_67:\n    /* \"#utility.yul\":4311:4350   */\n  tag_129\n    /* \"#utility.yul\":4342:4349   */\n  dup4\n    /* \"#utility.yul\":4311:4350   */\n  tag_65\n  jump\t// in\ntag_129:\n    /* \"#utility.yul\":4372:4463   */\n  tag_130\n    /* \"#utility.yul\":4421:4462   */\n  tag_131\n    /* \"#utility.yul\":4445:4461   */\n  dup3\n    /* \"#utility.yul\":4421:4462   */\n  tag_66\n  jump\t// in\ntag_131:\n    /* \"#utility.yul\":4413:4419   */\n  dup5\n    /* \"#utility.yul\":4406:4410   */\n  dup5\n    /* \"#utility.yul\":4400:4411   */\n  sload\n    /* \"#utility.yul\":4372:4463   */\n  tag_63\n  jump\t// in\ntag_130:\n    /* \"#utility.yul\":4366:4370   */\n  dup3\n    /* \"#utility.yul\":4359:4464   */\n  sstore\n    /* \"#utility.yul\":4277:4470   */\n  pop\n    /* \"#utility.yul\":4201:4470   */\n  pop\n  pop\n  pop\n  jump\t// out\n    /* \"#utility.yul\":4476:4549   */\ntag_68:\n    /* \"#utility.yul\":4521:4524   */\n  0x00\n    /* \"#utility.yul\":4476:4549   */\n  swap1\n  jump\t// out\n    /* \"#utility.yul\":4555:4744   */\ntag_69:\n    /* \"#utility.yul\":4632:4664   */\n  tag_134\n  tag_68\n  jump\t// in\ntag_134:\n    /* \"#utility.yul\":4673:4738   */\n  tag_135\n    /* \"#utility.yul\":4731:4737   */\n  dup2\n    /* \"#utility.yul\":4723:4729   */\n  dup5\n    /* \"#utility.yul\":4717:4721   */\n  dup5\n    /* \"#utility.yul\":4673:4738   */\n  tag_67\n  jump\t// in\ntag_135:\n    /* \"#utility.yul\":4608:4744   */\n  pop\n    /* \"#utility.yul\":4555:4744   */\n  pop\n  pop\n  jump\t// out\n    /* \"#utility.yul\":4750:4936   */\ntag_70:\n    /* \"#utility.yul\":4810:4930   */\ntag_137:\n    /* \"#utility.yul\":4827:4830   */\n  dup2\n    /* \"#utility.yul\":4820:4825   */\n  dup2\n    /* \"#utility.yul\":4817:4831   */\n  lt\n    /* \"#utility.yul\":4810:4930   */\n  iszero\n  tag_139\n  jumpi\n    /* \"#utility.yul\":4881:4920   */\n  tag_140\n    /* \"#utility.yul\":4918:4919   */\n  0x00\n    /* \"#utility.yul\":4911:4916   */\n  dup3\n    /* \"#utility.yul\":4881:4920   */\n  tag_69\n  jump\t// in\ntag_140:\n    /* \"#utility.yul\":4854:4855   */\n  0x01\n    /* \"#utility.yul\":4847:4852   */\n  dup2\n    /* \"#utility.yul\":4843:4856   */\n  add\n    /* \"#utility.yul\":4834:4856   */\n  swap1\n  pop\n    /* \"#utility.yul\":4810:4930   */\n  jump(tag_137)\ntag_139:\n    /* \"#utility.yul\":4750:4936   */\n  pop\n  pop\n  jump\t// out\n    /* \"#utility.yul\":4942:5485   */\ntag_71:\n    /* \"#utility.yul\":5043:5045   */\n  0x1f\n    /* \"#utility.yul\":5038:5041   */\n  dup3\n    /* \"#utility.yul\":5035:5046   */\n  gt\n    /* \"#utility.yul\":5032:5478   */\n  iszero\n  tag_142\n  jumpi\n    /* \"#utility.yul\":5077:5115   */\n  tag_143\n    /* \"#utility.yul\":5109:5114   */\n  dup2\n    /* \"#utility.yul\":5077:5115   */\n  tag_60\n  jump\t// in\ntag_143:\n    /* \"#utility.yul\":5161:5190   */\n  tag_144\n    /* \"#utility.yul\":5179:5189   */\n  dup5\n    /* \"#utility.yul\":5161:5190   */\n  tag_61\n  jump\t// in\ntag_144:\n    /* \"#utility.yul\":5151:5159   */\n  dup2\n    /* \"#utility.yul\":5147:5191   */\n  add\n    /* \"#utility.yul\":5344:5346   */\n  0x20\n    /* \"#utility.yul\":5332:5342   */\n  dup6\n    /* \"#utility.yul\":5329:5347   */\n  lt\n    /* \"#utility.yul\":5326:5375   */\n  iszero\n  tag_145\n  jumpi\n    /* \"#utility.yul\":5365:5373   */\n  dup2\n    /* \"#utility.yul\":5350:5373   */\n  swap1\n  pop\n    /* \"#utility.yul\":5326:5375   */\ntag_145:\n    /* \"#utility.yul\":5388:5468   */\n  tag_146\n    /* \"#utility.yul\":5444:5466   */\n  tag_147\n    /* \"#utility.yul\":5462:5465   */\n  dup6\n    /* \"#utility.yul\":5444:5466   */\n  tag_61\n  jump\t// in\ntag_147:\n    /* \"#utility.yul\":5434:5442   */\n  dup4\n    /* \"#utility.yul\":5430:5467   */\n  add\n    /* \"#utility.yul\":5417:5428   */\n  dup3\n    /* \"#utility.yul\":5388:5468   */\n  tag_70\n  jump\t// in\ntag_146:\n    /* \"#utility.yul\":5047:5478   */\n  pop\n  pop\n    /* \"#utility.yul\":5032:5478   */\ntag_142:\n    /* \"#utility.yul\":4942:5485   */\n  pop\n  pop\n  pop\n  jump\t// out\n    /* \"#utility.yul\":5491:5608   */\ntag_72:\n    /* \"#utility.yul\":5545:5553   */\n  0x00\n    /* \"#utility.yul\":5595:5600   */\n  dup3\n    /* \"#utility.yul\":5589:5593   */\n  dup3\n    /* \"#utility.yul\":5585:5601   */\n  shr\n    /* \"#utility.yul\":5564:5601   */\n  swap1\n  pop\n    /* \"#utility.yul\":5491:5608   */\n  swap3\n  swap2\n  pop\n  pop\n  jump\t// out\n    /* \"#utility.yul\":5614:5783   */\ntag_73:\n    /* \"#utility.yul\":5658:5664   */\n  0x00\n    /* \"#utility.yul\":5691:5742   */\n  tag_150\n    /* \"#utility.yul\":5739:5740   */\n  0x00\n    /* \"#utility.yul\":5735:5741   */\n  not\n    /* \"#utility.yul\":5727:5732   */\n  dup5\n    /* \"#utility.yul\":5724:5725   */\n  0x08\n    /* \"#utility.yul\":5720:5733   */\n  mul\n    /* \"#utility.yul\":5691:5742   */\n  tag_72\n  jump\t// in\ntag_150:\n    /* \"#utility.yul\":5687:5743   */\n  not\n    /* \"#utility.yul\":5772:5776   */\n  dup1\n    /* \"#utility.yul\":5766:5770   */\n  dup4\n    /* \"#utility.yul\":5762:5777   */\n  and\n    /* \"#utility.yul\":5752:5777   */\n  swap2\n  pop\n    /* \"#utility.yul\":5665:5783   */\n  pop\n    /* \"#utility.yul\":5614:5783   */\n  swap3\n  swap2\n  pop\n  pop\n  jump\t// out\n    /* \"#utility.yul\":5788:6083   */\ntag_74:\n    /* \"#utility.yul\":5864:5868   */\n  0x00\n    /* \"#utility.yul\":6010:6039   */\n  tag_152\n    /* \"#utility.yul\":6035:6038   */\n  dup4\n    /* \"#utility.yul\":6029:6033   */\n  dup4\n    /* \"#utility.yul\":6010:6039   */\n  tag_73\n  jump\t// in\ntag_152:\n    /* \"#utility.yul\":6002:6039   */\n  swap2\n  pop\n    /* \"#utility.yul\":6072:6075   */\n  dup3\n    /* \"#utility.yul\":6069:6070   */\n  0x02\n    /* \"#utility.yul\":6065:6076   */\n  mul\n    /* \"#utility.yul\":6059:6063   */\n  dup3\n    /* \"#utility.yul\":6056:6077   */\n  or\n    /* \"#utility.yul\":6048:6077   */\n  swap1\n  pop\n    /* \"#utility.yul\":5788:6083   */\n  swap3\n  swap2\n  pop\n  pop\n  jump\t// out\n    /* \"#utility.yul\":6088:7483   */\ntag_9:\n    /* \"#utility.yul\":6205:6242   */\n  tag_154\n    /* \"#utility.yul\":6238:6241   */\n  dup3\n    /* \"#utility.yul\":6205:6242   */\n  tag_56\n  jump\t// in\ntag_154:\n    /* \"#utility.yul\":6307:6325   */\n  0xffffffffffffffff\n    /* \"#utility.yul\":6299:6305   */\n  dup2\n    /* \"#utility.yul\":6296:6326   */\n  gt\n    /* \"#utility.yul\":6293:6349   */\n  iszero\n  tag_155\n  jumpi\n    /* \"#utility.yul\":6329:6347   */\n  tag_156\n  tag_57\n  jump\t// in\ntag_156:\n    /* \"#utility.yul\":6293:6349   */\ntag_155:\n    /* \"#utility.yul\":6373:6411   */\n  tag_157\n    /* \"#utility.yul\":6405:6409   */\n  dup3\n    /* \"#utility.yul\":6399:6410   */\n  sload\n    /* \"#utility.yul\":6373:6411   */\n  tag_59\n  jump\t// in\ntag_157:\n    /* \"#utility.yul\":6458:6525   */\n  tag_158\n    /* \"#utility.yul\":6518:6524   */\n  dup3\n    /* \"#utility.yul\":6510:6516   */\n  dup3\n    /* \"#utility.yul\":6504:6508   */\n  dup6\n    /* \"#utility.yul\":6458:6525   */\n  tag_71\n  jump\t// in\ntag_158:\n    /* \"#utility.yul\":6552:6553   */\n  0x00\n    /* \"#utility.yul\":6576:6580   */\n  0x20\n    /* \"#utility.yul\":6563:6580   */\n  swap1\n  pop\n    /* \"#utility.yul\":6608:6610   */\n  0x1f\n    /* \"#utility.yul\":6600:6606   */\n  dup4\n    /* \"#utility.yul\":6597:6611   */\n  gt\n    /* \"#utility.yul\":6625:6626   */\n  0x01\n    /* \"#utility.yul\":6620:7238   */\n  dup2\n  eq\n  tag_160\n  jumpi\n    /* \"#utility.yul\":7282:7283   */\n  0x00\n    /* \"#utility.yul\":7299:7305   */\n  dup5\n    /* \"#utility.yul\":7296:7373   */\n  iszero\n  tag_161\n  jumpi\n    /* \"#utility.yul\":7348:7357   */\n  dup3\n    /* \"#utility.yul\":7343:7346   */\n  dup8\n    /* \"#utility.yul\":7339:7358   */\n  add\n    /* \"#utility.yul\":7333:7359   */\n  mload\n    /* \"#utility.yul\":7324:7359   */\n  swap1\n  pop\n    /* \"#utility.yul\":7296:7373   */\ntag_161:\n    /* \"#utility.yul\":7399:7466   */\n  tag_162\n    /* \"#utility.yul\":7459:7465   */\n  dup6\n    /* \"#utility.yul\":7452:7457   */\n  dup3\n    /* \"#utility.yul\":7399:7466   */\n  tag_74\n  jump\t// in\ntag_162:\n    /* \"#utility.yul\":7393:7397   */\n  dup7\n    /* \"#utility.yul\":7386:7467   */\n  sstore\n    /* \"#utility.yul\":7255:7477   */\n  pop\n    /* \"#utility.yul\":6590:7477   */\n  jump(tag_159)\n    /* \"#utility.yul\":6620:7238   */\ntag_160:\n    /* \"#utility.yul\":6672:6676   */\n  0x1f\n    /* \"#utility.yul\":6668:6677   */\n  not\n    /* \"#utility.yul\":6660:6666   */\n  dup5\n    /* \"#utility.yul\":6656:6678   */\n  and\n    /* \"#utility.yul\":6706:6743   */\n  tag_163\n    /* \"#utility.yul\":6738:6742   */\n  dup7\n    /* \"#utility.yul\":6706:6743   */\n  tag_60\n  jump\t// in\ntag_163:\n    /* \"#utility.yul\":6765:6766   */\n  0x00\n    /* \"#utility.yul\":6779:6987   */\ntag_164:\n    /* \"#utility.yul\":6793:6800   */\n  dup3\n    /* \"#utility.yul\":6790:6791   */\n  dup2\n    /* \"#utility.yul\":6787:6801   */\n  lt\n    /* \"#utility.yul\":6779:6987   */\n  iszero\n  tag_166\n  jumpi\n    /* \"#utility.yul\":6872:6881   */\n  dup5\n    /* \"#utility.yul\":6867:6870   */\n  dup10\n    /* \"#utility.yul\":6863:6882   */\n  add\n    /* \"#utility.yul\":6857:6883   */\n  mload\n    /* \"#utility.yul\":6849:6855   */\n  dup3\n    /* \"#utility.yul\":6842:6884   */\n  sstore\n    /* \"#utility.yul\":6923:6924   */\n  0x01\n    /* \"#utility.yul\":6915:6921   */\n  dup3\n    /* \"#utility.yul\":6911:6925   */\n  add\n    /* \"#utility.yul\":6901:6925   */\n  swap2\n  pop\n    /* \"#utility.yul\":6970:6972   */\n  0x20\n    /* \"#utility.yul\":6959:6968   */\n  dup6\n    /* \"#utility.yul\":6955:6973   */\n  add\n    /* \"#utility.yul\":6942:6973   */\n  swap5\n  pop\n    /* \"#utility.yul\":6816:6820   */\n  0x20\n    /* \"#utility.yul\":6813:6814   */\n  dup2\n    /* \"#utility.yul\":6809:6821   */\n  add\n    /* \"#utility.yul\":6804:6821   */\n  swap1\n  pop\n    /* \"#utility.yul\":6779:6987   */\n  jump(tag_164)\ntag_166:\n    /* \"#utility.yul\":7015:7021   */\n  dup7\n    /* \"#utility.yul\":7006:7013   */\n  dup4\n    /* \"#utility.yul\":7003:7022   */\n  lt\n    /* \"#utility.yul\":7000:7179   */\n  iszero\n  tag_167\n  jumpi\n    /* \"#utility.yul\":7073:7082   */\n  dup5\n    /* \"#utility.yul\":7068:7071   */\n  dup10\n    /* \"#utility.yul\":7064:7083   */\n  add\n    /* \"#utility.yul\":7058:7084   */\n  mload\n    /* \"#utility.yul\":7116:7164   */\n  tag_168\n    /* \"#utility.yul\":7158:7162   */\n  0x1f\n    /* \"#utility.yul\":7150:7156   */\n  dup10\n    /* \"#utility.yul\":7146:7163   */\n  and\n    /* \"#utility.yul\":7135:7144   */\n  dup3\n    /* \"#utility.yul\":7116:7164   */\n  tag_73\n  jump\t// in\ntag_168:\n    /* \"#utility.yul\":7108:7114   */\n  dup4\n    /* \"#utility.yul\":7101:7165   */\n  sstore\n    /* \"#utility.yul\":7023:7179   */\n  pop\n    /* \"#utility.yul\":7000:7179   */\ntag_167:\n    /* \"#utility.yul\":7225:7226   */\n  0x01\n    /* \"#utility.yul\":7221:7222   */\n  0x02\n    /* \"#utility.yul\":7213:7219   */\n  dup9\n    /* \"#utility.yul\":7209:7223   */\n  mul\n    /* \"#utility.yul\":7205:7227   */\n  add\n    /* \"#utility.yul\":7199:7203   */\n  dup9\n    /* \"#utility.yul\":7192:7228   */\n  sstore\n    /* \"#utility.yul\":6627:7238   */\n  pop\n  pop\n  pop\n    /* \"#utility.yul\":6590:7477   */\ntag_159:\n  pop\n    /* \"#utility.yul\":6180:7483   */\n  pop\n  pop\n  pop\n    /* \"#utility.yul\":6088:7483   */\n  pop\n  pop\n  jump\t// out\n    /* \"#utility.yul\":7489:7607   */\ntag_75:\n    /* \"#utility.yul\":7576:7600   */\n  tag_170\n    /* \"#utility.yul\":7594:7599   */\n  dup2\n    /* \"#utility.yul\":7576:7600   */\n  tag_50\n  jump\t// in\ntag_170:\n    /* \"#utility.yul\":7571:7574   */\n  dup3\n    /* \"#utility.yul\":7564:7601   */\n  mstore\n    /* \"#utility.yul\":7489:7607   */\n  pop\n  pop\n  jump\t// out\n    /* \"#utility.yul\":7613:7835   */\ntag_14:\n    /* \"#utility.yul\":7706:7710   */\n  0x00\n    /* \"#utility.yul\":7744:7746   */\n  0x20\n    /* \"#utility.yul\":7733:7742   */\n  dup3\n    /* \"#utility.yul\":7729:7747   */\n  add\n    /* \"#utility.yul\":7721:7747   */\n  swap1\n  pop\n    /* \"#utility.yul\":7757:7828   */\n  tag_172\n    /* \"#utility.yul\":7825:7826   */\n  0x00\n    /* \"#utility.yul\":7814:7823   */\n  dup4\n    /* \"#utility.yul\":7810:7827   */\n  add\n    /* \"#utility.yul\":7801:7807   */\n  dup5\n    /* \"#utility.yul\":7757:7828   */\n  tag_75\n  jump\t// in\ntag_172:\n    /* \"#utility.yul\":7613:7835   */\n  swap3\n  swap2\n  pop\n  pop\n  jump\t// out\n    /* \"#utility.yul\":7841:8021   */\ntag_76:\n    /* \"#utility.yul\":7889:7966   */\n  0x4e487b7100000000000000000000000000000000000000000000000000000000\n    /* \"#utility.yul\":7886:7887   */\n  0x00\n    /* \"#utility.yul\":7879:7967   */\n  mstore\n    /* \"#utility.yul\":7986:7990   */\n  0x11\n    /* \"#utility.yul\":7983:7984   */\n  0x04\n    /* \"#utility.yul\":7976:7991   */\n  mstore\n    /* \"#utility.yul\":8010:8014   */\n  0x24\n    /* \"#utility.yul\":8007:8008   */\n  0x00\n    /* \"#utility.yul\":8000:8015   */\n  revert\n    /* \"#utility.yul\":8027:8129   */\ntag_77:\n    /* \"#utility.yul\":8069:8077   */\n  0x00\n    /* \"#utility.yul\":8116:8121   */\n  dup2\n    /* \"#utility.yul\":8113:8114   */\n  0x01\n    /* \"#utility.yul\":8109:8122   */\n  shr\n    /* \"#utility.yul\":8088:8122   */\n  swap1\n  pop\n    /* \"#utility.yul\":8027:8129   */\n  swap2\n  swap1\n  pop\n  jump\t// out\n    /* \"#utility.yul\":8135:8983   */\ntag_78:\n    /* \"#utility.yul\":8196:8201   */\n  0x00\n    /* \"#utility.yul\":8203:8207   */\n  dup1\n    /* \"#utility.yul\":8227:8233   */\n  dup3\n    /* \"#utility.yul\":8218:8233   */\n  swap2\n  pop\n    /* \"#utility.yul\":8251:8256   */\n  dup4\n    /* \"#utility.yul\":8242:8256   */\n  swap1\n  pop\n    /* \"#utility.yul\":8265:8977   */\ntag_176:\n    /* \"#utility.yul\":8286:8287   */\n  0x01\n    /* \"#utility.yul\":8276:8284   */\n  dup6\n    /* \"#utility.yul\":8273:8288   */\n  gt\n    /* \"#utility.yul\":8265:8977   */\n  iszero\n  tag_178\n  jumpi\n    /* \"#utility.yul\":8381:8385   */\n  dup1\n    /* \"#utility.yul\":8376:8379   */\n  dup7\n    /* \"#utility.yul\":8372:8386   */\n  div\n    /* \"#utility.yul\":8366:8370   */\n  dup2\n    /* \"#utility.yul\":8363:8387   */\n  gt\n    /* \"#utility.yul\":8360:8410   */\n  iszero\n  tag_179\n  jumpi\n    /* \"#utility.yul\":8390:8408   */\n  tag_180\n  tag_76\n  jump\t// in\ntag_180:\n    /* \"#utility.yul\":8360:8410   */\ntag_179:\n    /* \"#utility.yul\":8440:8441   */\n  0x01\n    /* \"#utility.yul\":8430:8438   */\n  dup6\n    /* \"#utility.yul\":8426:8442   */\n  and\n    /* \"#utility.yul\":8423:8874   */\n  iszero\n  tag_181\n  jumpi\n    /* \"#utility.yul\":8855:8859   */\n  dup1\n    /* \"#utility.yul\":8848:8853   */\n  dup3\n    /* \"#utility.yul\":8844:8860   */\n  mul\n    /* \"#utility.yul\":8835:8860   */\n  swap2\n  pop\n    /* \"#utility.yul\":8423:8874   */\ntag_181:\n    /* \"#utility.yul\":8905:8909   */\n  dup1\n    /* \"#utility.yul\":8899:8903   */\n  dup2\n    /* \"#utility.yul\":8895:8910   */\n  mul\n    /* \"#utility.yul\":8887:8910   */\n  swap1\n  pop\n    /* \"#utility.yul\":8935:8967   */\n  tag_182\n    /* \"#utility.yul\":8958:8966   */\n  dup6\n    /* \"#utility.yul\":8935:8967   */\n  tag_77\n  jump\t// in\ntag_182:\n    /* \"#utility.yul\":8923:8967   */\n  swap5\n  pop\n    /* \"#utility.yul\":8265:8977   */\n  jump(tag_176)\ntag_178:\n    /* \"#utility.yul\":8135:8983   */\n  swap5\n  pop\n  swap5\n  swap3\n  pop\n  pop\n  pop\n  jump\t// out\n    /* \"#utility.yul\":8989:10062   */\ntag_79:\n    /* \"#utility.yul\":9043:9048   */\n  0x00\n    /* \"#utility.yul\":9234:9242   */\n  dup3\n    /* \"#utility.yul\":9224:9264   */\n  tag_184\n  jumpi\n    /* \"#utility.yul\":9255:9256   */\n  0x01\n    /* \"#utility.yul\":9246:9256   */\n  swap1\n  pop\n    /* \"#utility.yul\":9257:9262   */\n  jump(tag_183)\n    /* \"#utility.yul\":9224:9264   */\ntag_184:\n    /* \"#utility.yul\":9283:9287   */\n  dup2\n    /* \"#utility.yul\":9273:9309   */\n  tag_185\n  jumpi\n    /* \"#utility.yul\":9300:9301   */\n  0x00\n    /* \"#utility.yul\":9291:9301   */\n  swap1\n  pop\n    /* \"#utility.yul\":9302:9307   */\n  jump(tag_183)\n    /* \"#utility.yul\":9273:9309   */\ntag_185:\n    /* \"#utility.yul\":9369:9373   */\n  dup2\n    /* \"#utility.yul\":9417:9418   */\n  0x01\n    /* \"#utility.yul\":9412:9439   */\n  dup2\n  eq\n  tag_187\n  jumpi\n    /* \"#utility.yul\":9453:9454   */\n  0x02\n    /* \"#utility.yul\":9448:9639   */\n  dup2\n  eq\n  tag_188\n  jumpi\n    /* \"#utility.yul\":9362:9639   */\n  jump(tag_186)\n    /* \"#utility.yul\":9412:9439   */\ntag_187:\n    /* \"#utility.yul\":9430:9431   */\n  0x01\n    /* \"#utility.yul\":9421:9431   */\n  swap2\n  pop\n    /* \"#utility.yul\":9432:9437   */\n  pop\n  jump(tag_183)\n    /* \"#utility.yul\":9448:9639   */\ntag_188:\n    /* \"#utility.yul\":9493:9496   */\n  0xff\n    /* \"#utility.yul\":9483:9491   */\n  dup5\n    /* \"#utility.yul\":9480:9497   */\n  gt\n    /* \"#utility.yul\":9477:9520   */\n  iszero\n  tag_189\n  jumpi\n    /* \"#utility.yul\":9500:9518   */\n  tag_190\n  tag_76\n  jump\t// in\ntag_190:\n    /* \"#utility.yul\":9477:9520   */\ntag_189:\n    /* \"#utility.yul\":9549:9557   */\n  dup4\n    /* \"#utility.yul\":9546:9547   */\n  0x02\n    /* \"#utility.yul\":9542:9558   */\n  exp\n    /* \"#utility.yul\":9533:9558   */\n  swap2\n  pop\n    /* \"#utility.yul\":9584:9587   */\n  dup5\n    /* \"#utility.yul\":9577:9582   */\n  dup3\n    /* \"#utility.yul\":9574:9588   */\n  gt\n    /* \"#utility.yul\":9571:9611   */\n  iszero\n  tag_191\n  jumpi\n    /* \"#utility.yul\":9591:9609   */\n  tag_192\n  tag_76\n  jump\t// in\ntag_192:\n    /* \"#utility.yul\":9571:9611   */\ntag_191:\n    /* \"#utility.yul\":9624:9629   */\n  pop\n  jump(tag_183)\n    /* \"#utility.yul\":9362:9639   */\ntag_186:\n  pop\n    /* \"#utility.yul\":9748:9750   */\n  0x20\n    /* \"#utility.yul\":9738:9746   */\n  dup4\n    /* \"#utility.yul\":9735:9751   */\n  lt\n    /* \"#utility.yul\":9729:9732   */\n  0x0133\n    /* \"#utility.yul\":9723:9727   */\n  dup4\n    /* \"#utility.yul\":9720:9733   */\n  lt\n    /* \"#utility.yul\":9716:9752   */\n  and\n    /* \"#utility.yul\":9698:9700   */\n  0x4e\n    /* \"#utility.yul\":9688:9696   */\n  dup5\n    /* \"#utility.yul\":9685:9701   */\n  lt\n    /* \"#utility.yul\":9680:9682   */\n  0x0b\n    /* \"#utility.yul\":9674:9678   */\n  dup5\n    /* \"#utility.yul\":9671:9683   */\n  lt\n    /* \"#utility.yul\":9667:9702   */\n  and\n    /* \"#utility.yul\":9651:9762   */\n  or\n    /* \"#utility.yul\":9648:9894   */\n  iszero\n  tag_193\n  jumpi\n    /* \"#utility.yul\":9804:9812   */\n  dup3\n    /* \"#utility.yul\":9798:9802   */\n  dup3\n    /* \"#utility.yul\":9794:9813   */\n  exp\n    /* \"#utility.yul\":9785:9813   */\n  swap1\n  pop\n    /* \"#utility.yul\":9839:9842   */\n  dup4\n    /* \"#utility.yul\":9832:9837   */\n  dup2\n    /* \"#utility.yul\":9829:9843   */\n  gt\n    /* \"#utility.yul\":9826:9866   */\n  iszero\n  tag_194\n  jumpi\n    /* \"#utility.yul\":9846:9864   */\n  tag_195\n  tag_76\n  jump\t// in\ntag_195:\n    /* \"#utility.yul\":9826:9866   */\ntag_194:\n    /* \"#utility.yul\":9879:9884   */\n  jump(tag_183)\n    /* \"#utility.yul\":9648:9894   */\ntag_193:\n    /* \"#utility.yul\":9919:9961   */\n  tag_196\n    /* \"#utility.yul\":9957:9960   */\n  dup5\n    /* \"#utility.yul\":9947:9955   */\n  dup5\n    /* \"#utility.yul\":9941:9945   */\n  dup5\n    /* \"#utility.yul\":9938:9939   */\n  0x01\n    /* \"#utility.yul\":9919:9961   */\n  tag_78\n  jump\t// in\ntag_196:\n    /* \"#utility.yul\":9904:9961   */\n  swap3\n  pop\n  swap1\n  pop\n    /* \"#utility.yul\":9993:9997   */\n  dup2\n    /* \"#utility.yul\":9988:9991   */\n  dup5\n    /* \"#utility.yul\":9984:9998   */\n  div\n    /* \"#utility.yul\":9977:9982   */\n  dup2\n    /* \"#utility.yul\":9974:9999   */\n  gt\n    /* \"#utility.yul\":9971:10022   */\n  iszero\n  tag_197\n  jumpi\n    /* \"#utility.yul\":10002:10020   */\n  tag_198\n  tag_76\n  jump\t// in\ntag_198:\n    /* \"#utility.yul\":9971:10022   */\ntag_197:\n    /* \"#utility.yul\":10051:10055   */\n  dup2\n    /* \"#utility.yul\":10044:10049   */\n  dup2\n    /* \"#utility.yul\":10040:10056   */\n  mul\n    /* \"#utility.yul\":10031:10056   */\n  swap1\n  pop\n    /* \"#utility.yul\":8989:10062   */\ntag_183:\n  swap4\n  swap3\n  pop\n  pop\n  pop\n  jump\t// out\n    /* \"#utility.yul\":10068:10154   */\ntag_80:\n    /* \"#utility.yul\":10103:10110   */\n  0x00\n    /* \"#utility.yul\":10143:10147   */\n  0xff\n    /* \"#utility.yul\":10136:10141   */\n  dup3\n    /* \"#utility.yul\":10132:10148   */\n  and\n    /* \"#utility.yul\":10121:10148   */\n  swap1\n  pop\n    /* \"#utility.yul\":10068:10154   */\n  swap2\n  swap1\n  pop\n  jump\t// out\n    /* \"#utility.yul\":10160:10441   */\ntag_22:\n    /* \"#utility.yul\":10218:10223   */\n  0x00\n    /* \"#utility.yul\":10242:10265   */\n  tag_201\n    /* \"#utility.yul\":10260:10264   */\n  dup3\n    /* \"#utility.yul\":10242:10265   */\n  tag_53\n  jump\t// in\ntag_201:\n    /* \"#utility.yul\":10234:10265   */\n  swap2\n  pop\n    /* \"#utility.yul\":10286:10311   */\n  tag_202\n    /* \"#utility.yul\":10302:10310   */\n  dup4\n    /* \"#utility.yul\":10286:10311   */\n  tag_80\n  jump\t// in\ntag_202:\n    /* \"#utility.yul\":10274:10311   */\n  swap3\n  pop\n    /* \"#utility.yul\":10330:10434   */\n  tag_203\n    /* \"#utility.yul\":10367:10433   */\n  0xffffffffffffffffffffffffffffffffffffffffffffffffffffffffffffffff\n    /* \"#utility.yul\":10357:10365   */\n  dup5\n    /* \"#utility.yul\":10351:10355   */\n  dup5\n    /* \"#utility.yul\":10330:10434   */\n  tag_79\n  jump\t// in\ntag_203:\n    /* \"#utility.yul\":10321:10434   */\n  swap1\n  pop\n    /* \"#utility.yul\":10160:10441   */\n  swap3\n  swap2\n  pop\n  pop\n  jump\t// out\n    /* \"#utility.yul\":10447:10857   */\ntag_24:\n    /* \"#utility.yul\":10487:10494   */\n  0x00\n    /* \"#utility.yul\":10510:10530   */\n  tag_205\n    /* \"#utility.yul\":10528:10529   */\n  dup3\n    /* \"#utility.yul\":10510:10530   */\n  tag_53\n  jump\t// in\ntag_205:\n    /* \"#utility.yul\":10505:10530   */\n  swap2\n  pop\n    /* \"#utility.yul\":10544:10564   */\n  tag_206\n    /* \"#utility.yul\":10562:10563   */\n  dup4\n    /* \"#utility.yul\":10544:10564   */\n  tag_53\n  jump\t// in\ntag_206:\n    /* \"#utility.yul\":10539:10564   */\n  swap3\n  pop\n    /* \"#utility.yul\":10599:10600   */\n  dup3\n    /* \"#utility.yul\":10596:10597   */\n  dup3\n    /* \"#utility.yul\":10592:10601   */\n  mul\n    /* \"#utility.yul\":10621:10651   */\n  tag_207\n    /* \"#utility.yul\":10639:10650   */\n  dup2\n    /* \"#utility.yul\":10621:10651   */\n  tag_53\n  jump\t// in\ntag_207:\n    /* \"#utility.yul\":10610:10651   */\n  swap2\n  pop\n    /* \"#utility.yul\":10800:10801   */\n  dup3\n    /* \"#utility.yul\":10791:10798   */\n  dup3\n    /* \"#utility.yul\":10787:10802   */\n  div\n    /* \"#utility.yul\":10784:10785   */\n  dup5\n    /* \"#utility.yul\":10781:10803   */\n  eq\n    /* \"#utility.yul\":10761:10762   */\n  dup4\n    /* \"#utility.yul\":10754:10763   */\n  iszero\n    /* \"#utility.yul\":10734:10817   */\n  or\n    /* \"#utility.yul\":10711:10850   */\n  tag_208\n  jumpi\n    /* \"#utility.yul\":10830:10848   */\n  tag_209\n  tag_76\n  jump\t// in\ntag_209:\n    /* \"#utility.yul\":10711:10850   */\ntag_208:\n    /* \"#utility.yul\":10495:10857   */\n  pop\n    /* \"#utility.yul\":10447:10857   */\n  swap3\n  swap2\n  pop\n  pop\n  jump\t// out\n    /* \"#utility.yul\":10863:11054   */\ntag_37:\n    /* \"#utility.yul\":10903:10906   */\n  0x00\n    /* \"#utility.yul\":10922:10942   */\n  tag_211\n    /* \"#utility.yul\":10940:10941   */\n  dup3\n    /* \"#utility.yul\":10922:10942   */\n  tag_53\n  jump\t// in\ntag_211:\n    /* \"#utility.yul\":10917:10942   */\n  swap2\n  pop\n    /* \"#utility.yul\":10956:10976   */\n  tag_212\n    /* \"#utility.yul\":10974:10975   */\n  dup4\n    /* \"#utility.yul\":10956:10976   */\n  tag_53\n  jump\t// in\ntag_212:\n    /* \"#utility.yul\":10951:10976   */\n  swap3\n  pop\n    /* \"#utility.yul\":10999:11000   */\n  dup3\n    /* \"#utility.yul\":10996:10997   */\n  dup3\n    /* \"#utility.yul\":10992:11001   */\n  add\n    /* \"#utility.yul\":10985:11001   */\n  swap1\n  pop\n    /* \"#utility.yul\":11020:11023   */\n  dup1\n    /* \"#utility.yul\":11017:11018   */\n  dup3\n    /* \"#utility.yul\":11014:11024   */\n  gt\n    /* \"#utility.yul\":11011:11047   */\n  iszero\n  tag_213\n  jumpi\n    /* \"#utility.yul\":11027:11045   */\n  tag_214\n  tag_76\n  jump\t// in\ntag_214:\n    /* \"#utility.yul\":11011:11047   */\ntag_213:\n    /* \"#utility.yul\":10863:11054   */\n  swap3\n  swap2\n  pop\n  pop\n  jump\t// out\n    /* \"#utility.yul\":11060:11178   */\ntag_81:\n    /* \"#utility.yul\":11147:11171   */\n  tag_216\n    /* \"#utility.yul\":11165:11170   */\n  dup2\n    /* \"#utility.yul\":11147:11171   */\n  tag_53\n  jump\t// in\ntag_216:\n    /* \"#utility.yul\":11142:11145   */\n  dup3\n    /* \"#utility.yul\":11135:11172   */\n  mstore\n    /* \"#utility.yul\":11060:11178   */\n  pop\n  pop\n  jump\t// out\n    /* \"#utility.yul\":11184:11626   */\ntag_41:\n    /* \"#utility.yul\":11333:11337   */\n  0x00\n    /* \"#utility.yul\":11371:11373   */\n  0x60\n    /* \"#utility.yul\":11360:11369   */\n  dup3\n    /* \"#utility.yul\":11356:11374   */\n  add\n    /* \"#utility.yul\":11348:11374   */\n  swap1\n  pop\n    /* \"#utility.yul\":11384:11455   */\n  tag_218\n    /* \"#utility.yul\":11452:11453   */\n  0x00\n    /* \"#utility.yul\":11441:11450   */\n  dup4\n    /* \"#utility.yul\":11437:11454   */\n  add\n    /* \"#utility.yul\":11428:11434   */\n  dup7\n    /* \"#utility.yul\":11384:11455   */\n  tag_75\n  jump\t// in\ntag_218:\n    /* \"#utility.yul\":11465:11537   */\n  tag_219\n    /* \"#utility.yul\":11533:11535   */\n  0x20\n    /* \"#utility.yul\":11522:11531   */\n  dup4\n    /* \"#utility.yul\":11518:11536   */\n  add\n    /* \"#utility.yul\":11509:11515   */\n  dup6\n    /* \"#utility.yul\":11465:11537   */\n  tag_81\n  jump\t// in\ntag_219:\n    /* \"#utility.yul\":11547:11619   */\n  tag_220\n    /* \"#utility.yul\":11615:11617   */\n  0x40\n    /* \"#utility.yul\":11604:11613   */\n  dup4\n    /* \"#utility.yul\":11600:11618   */\n  add\n    /* \"#utility.yul\":11591:11597   */\n  dup5\n    /* \"#utility.yul\":11547:11619   */\n  tag_81\n  jump\t// in\ntag_220:\n    /* \"#utility.yul\":11184:11626   */\n  swap5\n  swap4\n  pop\n  pop\n  pop\n  pop\n  jump\t// out\n    /* \"#utility.yul\":11632:11854   */\ntag_45:\n    /* \"#utility.yul\":11725:11729   */\n  0x00\n    /* \"#utility.yul\":11763:11765   */\n  0x20\n    /* \"#utility.yul\":11752:11761   */\n  dup3\n    /* \"#utility.yul\":11748:11766   */\n  add\n    /* \"#utility.yul\":11740:11766   */\n  swap1\n  pop\n    /* \"#utility.yul\":11776:11847   */\n  tag_222\n    /* \"#utility.yul\":11844:11845   */\n  0x00\n    /* \"#utility.yul\":11833:11842   */\n  dup4\n    /* \"#utility.yul\":11829:11846   */\n  add\n    /* \"#utility.yul\":11820:11826   */\n  dup5\n    /* \"#utility.yul\":11776:11847   */\n  tag_81\n  jump\t// in\ntag_222:\n    /* \"#utility.yul\":11632:11854   */\n  swap3\n  swap2\n  pop\n  pop\n  jump\t// out\n    /* \"contracts/SimpleToken.sol\":174:6582  contract TokenPreSale is ERC20, Ownable {... */\ntag_26:\n  dataSize(sub_0)\n  dup1\n  dataOffset(sub_0)\n  0x00\n  codecopy\n  0x00\n  return\nstop\n\nsub_0: assembly {\n        /* \"contracts/SimpleToken.sol\":174:6582  contract TokenPreSale is ERC20, Ownable {... */\n      mstore(0x40, 0x80)\n      jumpi(tag_1, lt(calldatasize, 0x04))\n      shr(0xe0, calldataload(0x00))\n      dup1\n      0x7547c7a3\n      gt\n      tag_41\n      jumpi\n      dup1\n      0xa9059cbb\n      gt\n      tag_42\n      jumpi\n      dup1\n      0xdd62ed3e\n      gt\n      tag_43\n      jumpi\n      dup1\n      0xdd62ed3e\n      eq\n      tag_36\n      jumpi\n      dup1\n      0xf2fde38b\n      eq\n      tag_37\n      jumpi\n      dup1\n      0xf8102e68\n      eq\n      tag_38\n      jumpi\n      dup1\n      0xf9931855\n      eq\n      tag_39\n      jumpi\n      dup1\n      0xf9a81af7\n      eq\n      tag_40\n      jumpi\n      jump(tag_1)\n    tag_43:\n      dup1\n      0xa9059cbb\n      eq\n      tag_31\n      jumpi\n      dup1\n      0xcce29ea7\n      eq\n      tag_32\n      jumpi\n      dup1\n      0xcec297a0\n      eq\n      tag_33\n      jumpi\n      dup1\n      0xd0febe4c\n      eq\n      tag_34\n      jumpi\n      dup1\n      0xd348b409\n      eq\n      tag_35\n      jumpi\n      jump(tag_1)\n    tag_42:\n      dup1\n      0x95d89b41\n      gt\n      tag_44\n      jumpi\n      dup1\n      0x95d89b41\n      eq\n      tag_26\n      jumpi\n      dup1\n      0x9b19251a\n      eq\n      tag_27\n      jumpi\n      dup1\n      0x9ca423b3\n      eq\n      tag_28\n      jumpi\n      dup1\n      0xa09c4cf4\n      eq\n      tag_29\n      jumpi\n      dup1\n      0xa5ce413b\n      eq\n      tag_30\n      jumpi\n      jump(tag_1)\n    tag_44:\n      dup1\n      0x7547c7a3\n      eq\n      tag_21\n      jumpi\n      dup1\n      0x7c613b2f\n      eq\n      tag_22\n      jumpi\n      dup1\n      0x8265324d\n      eq\n      tag_23\n      jumpi\n      dup1\n      0x8da5cb5b\n      eq\n      tag_24\n      jumpi\n      dup1\n      0x8f0794fe\n      eq\n      tag_25\n      jumpi\n      jump(tag_1)\n    tag_41:\n      dup1\n      0x2c663960\n      gt\n      tag_45\n      jumpi\n      dup1\n      0x4f3fc2df\n      gt\n      tag_46\n      jumpi\n      dup1\n      0x4f3fc2df\n      eq\n      tag_16\n      jumpi\n      dup1\n      0x518ab2a8\n      eq\n      tag_17\n      jumpi\n      dup1\n      0x70a08231\n      eq\n      tag_18\n      jumpi\n      dup1\n      0x715018a6\n      eq\n      tag_19\n      jumpi\n      dup1\n      0x7165d19b\n      eq\n      tag_20\n      jumpi\n      jump(tag_1)\n    tag_46:\n      dup1\n      0x2c663960\n      eq\n      tag_11\n      jumpi\n      dup1\n      0x30f72cd4\n      eq\n      tag_12\n      jumpi\n      dup1\n      0x313ce567\n      eq\n      tag_13\n      jumpi\n      dup1\n      0x329a27e7\n      eq\n      tag_14\n      jumpi\n      dup1\n      0x4405df4a\n      eq\n      tag_15\n      jumpi\n      jump(tag_1)\n    tag_45:\n      dup1\n      0x0d505541\n      gt\n      tag_47\n      jumpi\n      dup1\n      0x0d505541\n      eq\n      tag_6\n      jumpi\n      dup1\n      0x18160ddd\n      eq\n      tag_7\n      jumpi\n      dup1\n      0x1d0806ae\n      eq\n      tag_8\n      jumpi\n      dup1\n      0x23b872dd\n      eq\n      tag_9\n      jumpi\n      dup1\n      0x27e235e3\n      eq\n      tag_10\n      jumpi\n      jump(tag_1)\n    tag_47:\n      dup1\n      0x03e293a3\n      eq\n      tag_2\n      jumpi\n      dup1\n      0x06d65af3\n      eq\n      tag_3\n      jumpi\n      dup1\n      0x06fdde03\n      eq\n      tag_4\n      jumpi\n      dup1\n      0x095ea7b3\n      eq\n      tag_5\n      jumpi\n    tag_1:\n      0x00\n      dup1\n      revert\n        /* \"contracts/SimpleToken.sol\":363:394  uint256 public regularSalePrice */\n    tag_2:\n      callvalue\n      dup1\n      iszero\n      tag_48\n      jumpi\n      0x00\n      dup1\n      revert\n    tag_48:\n      pop\n      tag_49\n      tag_50\n      jump\t// in\n    tag_49:\n      mload(0x40)\n      tag_51\n      swap2\n      swap1\n      tag_52\n      jump\t// in\n    tag_51:\n      mload(0x40)\n      dup1\n      swap2\n      sub\n      swap1\n      return\n        /* \"contracts/SimpleToken.sol\":255:286  uint256 public preSaleStartTime */\n    tag_3:\n      callvalue\n      dup1\n      iszero\n      tag_53\n      jumpi\n      0x00\n      dup1\n      revert\n    tag_53:\n      pop\n      tag_54\n      tag_55\n      jump\t// in\n    tag_54:\n      mload(0x40)\n      tag_56\n      swap2\n      swap1\n      tag_52\n      jump\t// in\n    tag_56:\n      mload(0x40)\n      dup1\n      swap2\n      sub\n      swap1\n      return\n        /* \"@openzeppelin/contracts/token/ERC20/ERC20.sol\":1779:1868  function name() public view virtual returns (string memory) {... */\n    tag_4:\n      callvalue\n      dup1\n      iszero\n      tag_57\n      jumpi\n      0x00\n      dup1\n      revert\n    tag_57:\n      pop\n      tag_58\n      tag_59\n      jump\t// in\n    tag_58:\n      mload(0x40)\n      tag_60\n      swap2\n      swap1\n      tag_61\n      jump\t// in\n    tag_60:\n      mload(0x40)\n      dup1\n      swap2\n      sub\n      swap1\n      return\n        /* \"@openzeppelin/contracts/token/ERC20/ERC20.sol\":3998:4184  function approve(address spender, uint256 value) public virtual returns (bool) {... */\n    tag_5:\n      callvalue\n      dup1\n      iszero\n      tag_62\n      jumpi\n      0x00\n      dup1\n      revert\n    tag_62:\n      pop\n      tag_63\n      0x04\n      dup1\n      calldatasize\n      sub\n      dup2\n      add\n      swap1\n      tag_64\n      swap2\n      swap1\n      tag_65\n      jump\t// in\n    tag_64:\n      tag_66\n      jump\t// in\n    tag_63:\n      mload(0x40)\n      tag_67\n      swap2\n      swap1\n      tag_68\n      jump\t// in\n    tag_67:\n      mload(0x40)\n      dup1\n      swap2\n      sub\n      swap1\n      return\n        /* \"contracts/SimpleToken.sol\":6328:6575  function calculateStakingReward(address user) public view returns (uint256) {... */\n    tag_6:\n      callvalue\n      dup1\n      iszero\n      tag_69\n      jumpi\n      0x00\n      dup1\n      revert\n    tag_69:\n      pop\n      tag_70\n      0x04\n      dup1\n      calldatasize\n      sub\n      dup2\n      add\n      swap1\n      tag_71\n      swap2\n      swap1\n      tag_72\n      jump\t// in\n    tag_71:\n      tag_73\n      jump\t// in\n    tag_70:\n      mload(0x40)\n      tag_74\n      swap2\n      swap1\n      tag_52\n      jump\t// in\n    tag_74:\n      mload(0x40)\n      dup1\n      swap2\n      sub\n      swap1\n      return\n        /* \"@openzeppelin/contracts/token/ERC20/ERC20.sol\":2849:2946  function totalSupply() public view virtual returns (uint256) {... */\n    tag_7:\n      callvalue\n      dup1\n      iszero\n      tag_75\n      jumpi\n      0x00\n      dup1\n      revert\n    tag_75:\n      pop\n      tag_76\n      tag_77\n      jump\t// in\n    tag_76:\n      mload(0x40)\n      tag_78\n      swap2\n      swap1\n      tag_52\n      jump\t// in\n    tag_78:\n      mload(0x40)\n      dup1\n      swap2\n      sub\n      swap1\n      return\n        /* \"contracts/SimpleToken.sol\":329:356  uint256 public initialPrice */\n    tag_8:\n      callvalue\n      dup1\n      iszero\n      tag_79\n      jumpi\n      0x00\n      dup1\n      revert\n    tag_79:\n      pop\n      tag_80\n      tag_81\n      jump\t// in\n    tag_80:\n      mload(0x40)\n      tag_82\n      swap2\n      swap1\n      tag_52\n      jump\t// in\n    tag_82:\n      mload(0x40)\n      dup1\n      swap2\n      sub\n      swap1\n      return\n        /* \"@openzeppelin/contracts/token/ERC20/ERC20.sol\":4776:5020  function transferFrom(address from, address to, uint256 value) public virtual returns (bool) {... */\n    tag_9:\n      callvalue\n      dup1\n      iszero\n      tag_83\n      jumpi\n      0x00\n      dup1\n      revert\n    tag_83:\n      pop\n      tag_84\n      0x04\n      dup1\n      calldatasize\n      sub\n      dup2\n      add\n      swap1\n      tag_85\n      swap2\n      swap1\n      tag_86\n      jump\t// in\n    tag_85:\n      tag_87\n      jump\t// in\n    tag_84:\n      mload(0x40)\n      tag_88\n      swap2\n      swap1\n      tag_68\n      jump\t// in\n    tag_88:\n      mload(0x40)\n      dup1\n      swap2\n      sub\n      swap1\n      return\n        /* \"contracts/SimpleToken.sol\":820:863  mapping(address => uint256) public balances */\n    tag_10:\n      callvalue\n      dup1\n      iszero\n      tag_89\n      jumpi\n      0x00\n      dup1\n      revert\n    tag_89:\n      pop\n      tag_90\n      0x04\n      dup1\n      calldatasize\n      sub\n      dup2\n      add\n      swap1\n      tag_91\n      swap2\n      swap1\n      tag_72\n      jump\t// in\n    tag_91:\n      tag_92\n      jump\t// in\n    tag_90:\n      mload(0x40)\n      tag_93\n      swap2\n      swap1\n      tag_52\n      jump\t// in\n    tag_93:\n      mload(0x40)\n      dup1\n      swap2\n      sub\n      swap1\n      return\n        /* \"contracts/SimpleToken.sol\":2572:2876  function calculateWeeksElapsed(uint256 startTime, uint256 endTime) public pure returns (uint256) {... */\n    tag_11:\n      callvalue\n      dup1\n      iszero\n      tag_94\n      jumpi\n      0x00\n      dup1\n      revert\n    tag_94:\n      pop\n      tag_95\n      0x04\n      dup1\n      calldatasize\n      sub\n      dup2\n      add\n      swap1\n      tag_96\n      swap2\n      swap1\n      tag_97\n      jump\t// in\n    tag_96:\n      tag_98\n      jump\t// in\n    tag_95:\n      mload(0x40)\n      tag_99\n      swap2\n      swap1\n      tag_52\n      jump\t// in\n    tag_99:\n      mload(0x40)\n      dup1\n      swap2\n      sub\n      swap1\n      return\n        /* \"contracts/SimpleToken.sol\":221:248  bool public presaleIsActive */\n    tag_12:\n      callvalue\n      dup1\n      iszero\n      tag_100\n      jumpi\n      0x00\n      dup1\n      revert\n    tag_100:\n      pop\n      tag_101\n      tag_102\n      jump\t// in\n    tag_101:\n      mload(0x40)\n      tag_103\n      swap2\n      swap1\n      tag_68\n      jump\t// in\n    tag_103:\n      mload(0x40)\n      dup1\n      swap2\n      sub\n      swap1\n      return\n        /* \"@openzeppelin/contracts/token/ERC20/ERC20.sol\":2707:2789  function decimals() public view virtual returns (uint8) {... */\n    tag_13:\n      callvalue\n      dup1\n      iszero\n      tag_104\n      jumpi\n      0x00\n      dup1\n      revert\n    tag_104:\n      pop\n      tag_105\n      tag_106\n      jump\t// in\n    tag_105:\n      mload(0x40)\n      tag_107\n      swap2\n      swap1\n      tag_108\n      jump\t// in\n    tag_107:\n      mload(0x40)\n      dup1\n      swap2\n      sub\n      swap1\n      return\n        /* \"contracts/SimpleToken.sol\":5270:5367  function getWalletBalance() public view returns (uint256){... */\n    tag_14:\n      callvalue\n      dup1\n      iszero\n      tag_109\n      jumpi\n      0x00\n      dup1\n      revert\n    tag_109:\n      pop\n      tag_110\n      tag_111\n      jump\t// in\n    tag_110:\n      mload(0x40)\n      tag_112\n      swap2\n      swap1\n      tag_52\n      jump\t// in\n    tag_112:\n      mload(0x40)\n      dup1\n      swap2\n      sub\n      swap1\n      return\n        /* \"contracts/SimpleToken.sol\":3874:4172  function calculatePriceIncrease() public view returns (uint256){... */\n    tag_15:\n      callvalue\n      dup1\n      iszero\n      tag_113\n      jumpi\n      0x00\n      dup1\n      revert\n    tag_113:\n      pop\n      tag_114\n      tag_115\n      jump\t// in\n    tag_114:\n      mload(0x40)\n      tag_116\n      swap2\n      swap1\n      tag_52\n      jump\t// in\n    tag_116:\n      mload(0x40)\n      dup1\n      swap2\n      sub\n      swap1\n      return\n        /* \"contracts/SimpleToken.sol\":514:546  uint256 public stakingRewardRate */\n    tag_16:\n      callvalue\n      dup1\n      iszero\n      tag_117\n      jumpi\n      0x00\n      dup1\n      revert\n    tag_117:\n      pop\n      tag_118\n      tag_119\n      jump\t// in\n    tag_118:\n      mload(0x40)\n      tag_120\n      swap2\n      swap1\n      tag_52\n      jump\t// in\n    tag_120:\n      mload(0x40)\n      dup1\n      swap2\n      sub\n      swap1\n      return\n        /* \"contracts/SimpleToken.sol\":441:466  uint256 public tokensSold */\n    tag_17:\n      callvalue\n      dup1\n      iszero\n      tag_121\n      jumpi\n      0x00\n      dup1\n      revert\n    tag_121:\n      pop\n      tag_122\n      tag_123\n      jump\t// in\n    tag_122:\n      mload(0x40)\n      tag_124\n      swap2\n      swap1\n      tag_52\n      jump\t// in\n    tag_124:\n      mload(0x40)\n      dup1\n      swap2\n      sub\n      swap1\n      return\n        /* \"@openzeppelin/contracts/token/ERC20/ERC20.sol\":3004:3120  function balanceOf(address account) public view virtual returns (uint256) {... */\n    tag_18:\n      callvalue\n      dup1\n      iszero\n      tag_125\n      jumpi\n      0x00\n      dup1\n      revert\n    tag_125:\n      pop\n      tag_126\n      0x04\n      dup1\n      calldatasize\n      sub\n      dup2\n      add\n      swap1\n      tag_127\n      swap2\n      swap1\n      tag_72\n      jump\t// in\n    tag_127:\n      tag_128\n      jump\t// in\n    tag_126:\n      mload(0x40)\n      tag_129\n      swap2\n      swap1\n      tag_52\n      jump\t// in\n    tag_129:\n      mload(0x40)\n      dup1\n      swap2\n      sub\n      swap1\n      return\n        /* \"@openzeppelin/contracts/access/Ownable.sol\":2293:2394  function renounceOwnership() public virtual onlyOwner {... */\n    tag_19:\n      callvalue\n      dup1\n      iszero\n      tag_130\n      jumpi\n      0x00\n      dup1\n      revert\n    tag_130:\n      pop\n      tag_131\n      tag_132\n      jump\t// in\n    tag_131:\n      stop\n        /* \"contracts/SimpleToken.sol\":401:434  uint256 public weeklyIncreaseRate */\n    tag_20:\n      callvalue\n      dup1\n      iszero\n      tag_133\n      jumpi\n      0x00\n      dup1\n      revert\n    tag_133:\n      pop\n      tag_134\n      tag_135\n      jump\t// in\n    tag_134:\n      mload(0x40)\n      tag_136\n      swap2\n      swap1\n      tag_52\n      jump\t// in\n    tag_136:\n      mload(0x40)\n      dup1\n      swap2\n      sub\n      swap1\n      return\n        /* \"contracts/SimpleToken.sol\":5377:5781  function stakeTokens(uint256 amount) external {... */\n    tag_21:\n      callvalue\n      dup1\n      iszero\n      tag_137\n      jumpi\n      0x00\n      dup1\n      revert\n    tag_137:\n      pop\n      tag_138\n      0x04\n      dup1\n      calldatasize\n      sub\n      dup2\n      add\n      swap1\n      tag_139\n      swap2\n      swap1\n      tag_140\n      jump\t// in\n    tag_139:\n      tag_141\n      jump\t// in\n    tag_138:\n      stop\n        /* \"contracts/SimpleToken.sol\":2886:3302  function mintReferralReward() external {... */\n    tag_22:\n      callvalue\n      dup1\n      iszero\n      tag_142\n      jumpi\n      0x00\n      dup1\n      revert\n    tag_142:\n      pop\n      tag_143\n      tag_144\n      jump\t// in\n    tag_143:\n      stop\n        /* \"contracts/SimpleToken.sol\":2408:2564  function calculateReferralReward(address referrer) public view returns (uint256) {... */\n    tag_23:\n      callvalue\n      dup1\n      iszero\n      tag_145\n      jumpi\n      0x00\n      dup1\n      revert\n    tag_145:\n      pop\n      tag_146\n      0x04\n      dup1\n      calldatasize\n      sub\n      dup2\n      add\n      swap1\n      tag_147\n      swap2\n      swap1\n      tag_72\n      jump\t// in\n    tag_147:\n      tag_148\n      jump\t// in\n    tag_146:\n      mload(0x40)\n      tag_149\n      swap2\n      swap1\n      tag_52\n      jump\t// in\n    tag_149:\n      mload(0x40)\n      dup1\n      swap2\n      sub\n      swap1\n      return\n        /* \"@openzeppelin/contracts/access/Ownable.sol\":1638:1723  function owner() public view virtual returns (address) {... */\n    tag_24:\n      callvalue\n      dup1\n      iszero\n      tag_150\n      jumpi\n      0x00\n      dup1\n      revert\n    tag_150:\n      pop\n      tag_151\n      tag_152\n      jump\t// in\n    tag_151:\n      mload(0x40)\n      tag_153\n      swap2\n      swap1\n      tag_154\n      jump\t// in\n    tag_153:\n      mload(0x40)\n      dup1\n      swap2\n      sub\n      swap1\n      return\n        /* \"contracts/SimpleToken.sol\":607:658  mapping(address => uint256) public stakingTimestamp */\n    tag_25:\n      callvalue\n      dup1\n      iszero\n      tag_155\n      jumpi\n      0x00\n      dup1\n      revert\n    tag_155:\n      pop\n      tag_156\n      0x04\n      dup1\n      calldatasize\n      sub\n      dup2\n      add\n      swap1\n      tag_157\n      swap2\n      swap1\n      tag_72\n      jump\t// in\n    tag_157:\n      tag_158\n      jump\t// in\n    tag_156:\n      mload(0x40)\n      tag_159\n      swap2\n      swap1\n      tag_52\n      jump\t// in\n    tag_159:\n      mload(0x40)\n      dup1\n      swap2\n      sub\n      swap1\n      return\n        /* \"@openzeppelin/contracts/token/ERC20/ERC20.sol\":1981:2074  function symbol() public view virtual returns (string memory) {... */\n    tag_26:\n      callvalue\n      dup1\n      iszero\n      tag_160\n      jumpi\n      0x00\n      dup1\n      revert\n    tag_160:\n      pop\n      tag_161\n      tag_162\n      jump\t// in\n    tag_161:\n      mload(0x40)\n      tag_163\n      swap2\n      swap1\n      tag_61\n      jump\t// in\n    tag_163:\n      mload(0x40)\n      dup1\n      swap2\n      sub\n      swap1\n      return\n        /* \"contracts/SimpleToken.sol\":665:706  mapping(address => bool) public whitelist */\n    tag_27:\n      callvalue\n      dup1\n      iszero\n      tag_164\n      jumpi\n      0x00\n      dup1\n      revert\n    tag_164:\n      pop\n      tag_165\n      0x04\n      dup1\n      calldatasize\n      sub\n      dup2\n      add\n      swap1\n      tag_166\n      swap2\n      swap1\n      tag_72\n      jump\t// in\n    tag_166:\n      tag_167\n      jump\t// in\n    tag_165:\n      mload(0x40)\n      tag_168\n      swap2\n      swap1\n      tag_68\n      jump\t// in\n    tag_168:\n      mload(0x40)\n      dup1\n      swap2\n      sub\n      swap1\n      return\n        /* \"contracts/SimpleToken.sol\":713:757  mapping(address => address) public referrals */\n    tag_28:\n      callvalue\n      dup1\n      iszero\n      tag_169\n      jumpi\n      0x00\n      dup1\n      revert\n    tag_169:\n      pop\n      tag_170\n      0x04\n      dup1\n      calldatasize\n      sub\n      dup2\n      add\n      swap1\n      tag_171\n      swap2\n      swap1\n      tag_72\n      jump\t// in\n    tag_171:\n      tag_172\n      jump\t// in\n    tag_170:\n      mload(0x40)\n      tag_173\n      swap2\n      swap1\n      tag_154\n      jump\t// in\n    tag_173:\n      mload(0x40)\n      dup1\n      swap2\n      sub\n      swap1\n      return\n        /* \"contracts/SimpleToken.sol\":1915:2396  function signUpForWhitelist(address referral) external {... */\n    tag_29:\n      callvalue\n      dup1\n      iszero\n      tag_174\n      jumpi\n      0x00\n      dup1\n      revert\n    tag_174:\n      pop\n      tag_175\n      0x04\n      dup1\n      calldatasize\n      sub\n      dup2\n      add\n      swap1\n      tag_176\n      swap2\n      swap1\n      tag_72\n      jump\t// in\n    tag_176:\n      tag_177\n      jump\t// in\n    tag_175:\n      stop\n        /* \"contracts/SimpleToken.sol\":5789:6320  function unstakeTokens() external {... */\n    tag_30:\n      callvalue\n      dup1\n      iszero\n      tag_178\n      jumpi\n      0x00\n      dup1\n      revert\n    tag_178:\n      pop\n      tag_179\n      tag_180\n      jump\t// in\n    tag_179:\n      stop\n        /* \"@openzeppelin/contracts/token/ERC20/ERC20.sol\":3315:3493  function transfer(address to, uint256 value) public virtual returns (bool) {... */\n    tag_31:\n      callvalue\n      dup1\n      iszero\n      tag_181\n      jumpi\n      0x00\n      dup1\n      revert\n    tag_181:\n      pop\n      tag_182\n      0x04\n      dup1\n      calldatasize\n      sub\n      dup2\n      add\n      swap1\n      tag_183\n      swap2\n      swap1\n      tag_65\n      jump\t// in\n    tag_183:\n      tag_184\n      jump\t// in\n    tag_182:\n      mload(0x40)\n      tag_185\n      swap2\n      swap1\n      tag_68\n      jump\t// in\n    tag_185:\n      mload(0x40)\n      dup1\n      swap2\n      sub\n      swap1\n      return\n        /* \"contracts/SimpleToken.sol\":293:322  uint256 public preSaleEndTime */\n    tag_32:\n      callvalue\n      dup1\n      iszero\n      tag_186\n      jumpi\n      0x00\n      dup1\n      revert\n    tag_186:\n      pop\n      tag_187\n      tag_188\n      jump\t// in\n    tag_187:\n      mload(0x40)\n      tag_189\n      swap2\n      swap1\n      tag_52\n      jump\t// in\n    tag_189:\n      mload(0x40)\n      dup1\n      swap2\n      sub\n      swap1\n      return\n        /* \"contracts/SimpleToken.sol\":764:813  mapping(address => uint256) public referralCounts */\n    tag_33:\n      callvalue\n      dup1\n      iszero\n      tag_190\n      jumpi\n      0x00\n      dup1\n      revert\n    tag_190:\n      pop\n      tag_191\n      0x04\n      dup1\n      calldatasize\n      sub\n      dup2\n      add\n      swap1\n      tag_192\n      swap2\n      swap1\n      tag_72\n      jump\t// in\n    tag_192:\n      tag_193\n      jump\t// in\n    tag_191:\n      mload(0x40)\n      tag_194\n      swap2\n      swap1\n      tag_52\n      jump\t// in\n    tag_194:\n      mload(0x40)\n      dup1\n      swap2\n      sub\n      swap1\n      return\n        /* \"contracts/SimpleToken.sol\":4641:5266  function buyTokens() external payable {... */\n    tag_34:\n      tag_195\n      tag_196\n      jump\t// in\n    tag_195:\n      stop\n        /* \"contracts/SimpleToken.sol\":4188:4564  function calculatePrice() public view returns (uint256) {... */\n    tag_35:\n      callvalue\n      dup1\n      iszero\n      tag_197\n      jumpi\n      0x00\n      dup1\n      revert\n    tag_197:\n      pop\n      tag_198\n      tag_199\n      jump\t// in\n    tag_198:\n      mload(0x40)\n      tag_200\n      swap2\n      swap1\n      tag_52\n      jump\t// in\n    tag_200:\n      mload(0x40)\n      dup1\n      swap2\n      sub\n      swap1\n      return\n        /* \"@openzeppelin/contracts/token/ERC20/ERC20.sol\":3551:3691  function allowance(address owner, address spender) public view virtual returns (uint256) {... */\n    tag_36:\n      callvalue\n      dup1\n      iszero\n      tag_201\n      jumpi\n      0x00\n      dup1\n      revert\n    tag_201:\n      pop\n      tag_202\n      0x04\n      dup1\n      calldatasize\n      sub\n      dup2\n      add\n      swap1\n      tag_203\n      swap2\n      swap1\n      tag_204\n      jump\t// in\n    tag_203:\n      tag_205\n      jump\t// in\n    tag_202:\n      mload(0x40)\n      tag_206\n      swap2\n      swap1\n      tag_52\n      jump\t// in\n    tag_206:\n      mload(0x40)\n      dup1\n      swap2\n      sub\n      swap1\n      return\n        /* \"@openzeppelin/contracts/access/Ownable.sol\":2543:2758  function transferOwnership(address newOwner) public virtual onlyOwner {... */\n    tag_37:\n      callvalue\n      dup1\n      iszero\n      tag_207\n      jumpi\n      0x00\n      dup1\n      revert\n    tag_207:\n      pop\n      tag_208\n      0x04\n      dup1\n      calldatasize\n      sub\n      dup2\n      add\n      swap1\n      tag_209\n      swap2\n      swap1\n      tag_72\n      jump\t// in\n    tag_209:\n      tag_210\n      jump\t// in\n    tag_208:\n      stop\n        /* \"contracts/SimpleToken.sol\":473:507  uint256 public preSaleWeeksInWeeks */\n    tag_38:\n      callvalue\n      dup1\n      iszero\n      tag_211\n      jumpi\n      0x00\n      dup1\n      revert\n    tag_211:\n      pop\n      tag_212\n      tag_213\n      jump\t// in\n    tag_212:\n      mload(0x40)\n      tag_214\n      swap2\n      swap1\n      tag_52\n      jump\t// in\n    tag_214:\n      mload(0x40)\n      dup1\n      swap2\n      sub\n      swap1\n      return\n        /* \"contracts/SimpleToken.sol\":553:600  mapping(address => uint256) public stakedAmount */\n    tag_39:\n      callvalue\n      dup1\n      iszero\n      tag_215\n      jumpi\n      0x00\n      dup1\n      revert\n    tag_215:\n      pop\n      tag_216\n      0x04\n      dup1\n      calldatasize\n      sub\n      dup2\n      add\n      swap1\n      tag_217\n      swap2\n      swap1\n      tag_72\n      jump\t// in\n    tag_217:\n      tag_218\n      jump\t// in\n    tag_216:\n      mload(0x40)\n      tag_219\n      swap2\n      swap1\n      tag_52\n      jump\t// in\n    tag_219:\n      mload(0x40)\n      dup1\n      swap2\n      sub\n      swap1\n      return\n        /* \"contracts/SimpleToken.sol\":3427:3865  function startPreSale(uint256 _startTime, uint256 _durationWeeks) external onlyOwner {... */\n    tag_40:\n      callvalue\n      dup1\n      iszero\n      tag_220\n      jumpi\n      0x00\n      dup1\n      revert\n    tag_220:\n      pop\n      tag_221\n      0x04\n      dup1\n      calldatasize\n      sub\n      dup2\n      add\n      swap1\n      tag_222\n      swap2\n      swap1\n      tag_97\n      jump\t// in\n    tag_222:\n      tag_223\n      jump\t// in\n    tag_221:\n      stop\n        /* \"contracts/SimpleToken.sol\":363:394  uint256 public regularSalePrice */\n    tag_50:\n      sload(0x09)\n      dup2\n      jump\t// out\n        /* \"contracts/SimpleToken.sol\":255:286  uint256 public preSaleStartTime */\n    tag_55:\n      sload(0x06)\n      dup2\n      jump\t// out\n        /* \"@openzeppelin/contracts/token/ERC20/ERC20.sol\":1779:1868  function name() public view virtual returns (string memory) {... */\n    tag_59:\n        /* \"@openzeppelin/contracts/token/ERC20/ERC20.sol\":1824:1837  string memory */\n      0x60\n        /* \"@openzeppelin/contracts/token/ERC20/ERC20.sol\":1856:1861  _name */\n      0x03\n        /* \"@openzeppelin/contracts/token/ERC20/ERC20.sol\":1849:1861  return _name */\n      dup1\n      sload\n      tag_225\n      swap1\n      tag_226\n      jump\t// in\n    tag_225:\n      dup1\n      0x1f\n      add\n      0x20\n      dup1\n      swap2\n      div\n      mul\n      0x20\n      add\n      mload(0x40)\n      swap1\n      dup2\n      add\n      0x40\n      mstore\n      dup1\n      swap3\n      swap2\n      swap1\n      dup2\n      dup2\n      mstore\n      0x20\n      add\n      dup3\n      dup1\n      sload\n      tag_227\n      swap1\n      tag_226\n      jump\t// in\n    tag_227:\n      dup1\n      iszero\n      tag_228\n      jumpi\n      dup1\n      0x1f\n      lt\n      tag_229\n      jumpi\n      0x0100\n      dup1\n      dup4\n      sload\n      div\n      mul\n      dup4\n      mstore\n      swap2\n      0x20\n      add\n      swap2\n      jump(tag_228)\n    tag_229:\n      dup3\n      add\n      swap2\n      swap1\n      0x00\n      mstore\n      keccak256(0x00, 0x20)\n      swap1\n    tag_230:\n      dup2\n      sload\n      dup2\n      mstore\n      swap1\n      0x01\n      add\n      swap1\n      0x20\n      add\n      dup1\n      dup4\n      gt\n      tag_230\n      jumpi\n      dup3\n      swap1\n      sub\n      0x1f\n      and\n      dup3\n      add\n      swap2\n    tag_228:\n      pop\n      pop\n      pop\n      pop\n      pop\n      swap1\n      pop\n        /* \"@openzeppelin/contracts/token/ERC20/ERC20.sol\":1779:1868  function name() public view virtual returns (string memory) {... */\n      swap1\n      jump\t// out\n        /* \"@openzeppelin/contracts/token/ERC20/ERC20.sol\":3998:4184  function approve(address spender, uint256 value) public virtual returns (bool) {... */\n    tag_66:\n        /* \"@openzeppelin/contracts/token/ERC20/ERC20.sol\":4071:4075  bool */\n      0x00\n        /* \"@openzeppelin/contracts/token/ERC20/ERC20.sol\":4087:4100  address owner */\n      dup1\n        /* \"@openzeppelin/contracts/token/ERC20/ERC20.sol\":4103:4115  _msgSender() */\n      tag_232\n        /* \"@openzeppelin/contracts/token/ERC20/ERC20.sol\":4103:4113  _msgSender */\n      tag_233\n        /* \"@openzeppelin/contracts/token/ERC20/ERC20.sol\":4103:4115  _msgSender() */\n      jump\t// in\n    tag_232:\n        /* \"@openzeppelin/contracts/token/ERC20/ERC20.sol\":4087:4115  address owner = _msgSender() */\n      swap1\n      pop\n        /* \"@openzeppelin/contracts/token/ERC20/ERC20.sol\":4125:4156  _approve(owner, spender, value) */\n      tag_234\n        /* \"@openzeppelin/contracts/token/ERC20/ERC20.sol\":4134:4139  owner */\n      dup2\n        /* \"@openzeppelin/contracts/token/ERC20/ERC20.sol\":4141:4148  spender */\n      dup6\n        /* \"@openzeppelin/contracts/token/ERC20/ERC20.sol\":4150:4155  value */\n      dup6\n        /* \"@openzeppelin/contracts/token/ERC20/ERC20.sol\":4125:4133  _approve */\n      tag_235\n        /* \"@openzeppelin/contracts/token/ERC20/ERC20.sol\":4125:4156  _approve(owner, spender, value) */\n      jump\t// in\n    tag_234:\n        /* \"@openzeppelin/contracts/token/ERC20/ERC20.sol\":4173:4177  true */\n      0x01\n        /* \"@openzeppelin/contracts/token/ERC20/ERC20.sol\":4166:4177  return true */\n      swap2\n      pop\n      pop\n        /* \"@openzeppelin/contracts/token/ERC20/ERC20.sol\":3998:4184  function approve(address spender, uint256 value) public virtual returns (bool) {... */\n      swap3\n      swap2\n      pop\n      pop\n      jump\t// out\n        /* \"contracts/SimpleToken.sol\":6328:6575  function calculateStakingReward(address user) public view returns (uint256) {... */\n    tag_73:\n        /* \"contracts/SimpleToken.sol\":6395:6402  uint256 */\n      0x00\n        /* \"contracts/SimpleToken.sol\":6415:6434  uint256 weeksStaked */\n      dup1\n        /* \"contracts/SimpleToken.sol\":6482:6489  1 weeks */\n      0x093a80\n        /* \"contracts/SimpleToken.sol\":6456:6472  stakingTimestamp */\n      0x0f\n        /* \"contracts/SimpleToken.sol\":6456:6478  stakingTimestamp[user] */\n      0x00\n        /* \"contracts/SimpleToken.sol\":6473:6477  user */\n      dup6\n        /* \"contracts/SimpleToken.sol\":6456:6478  stakingTimestamp[user] */\n      0xffffffffffffffffffffffffffffffffffffffff\n      and\n      0xffffffffffffffffffffffffffffffffffffffff\n      and\n      dup2\n      mstore\n      0x20\n      add\n      swap1\n      dup2\n      mstore\n      0x20\n      add\n      0x00\n      keccak256\n      sload\n        /* \"contracts/SimpleToken.sol\":6438:6453  block.timestamp */\n      timestamp\n        /* \"contracts/SimpleToken.sol\":6438:6478  block.timestamp - stakingTimestamp[user] */\n      tag_237\n      swap2\n      swap1\n      tag_238\n      jump\t// in\n    tag_237:\n        /* \"contracts/SimpleToken.sol\":6437:6489  (block.timestamp - stakingTimestamp[user]) / 1 weeks */\n      tag_239\n      swap2\n      swap1\n      tag_240\n      jump\t// in\n    tag_239:\n        /* \"contracts/SimpleToken.sol\":6415:6489  uint256 weeksStaked = (block.timestamp - stakingTimestamp[user]) / 1 weeks */\n      swap1\n      pop\n        /* \"contracts/SimpleToken.sol\":6564:6567  100 */\n      0x64\n        /* \"contracts/SimpleToken.sol\":6549:6560  weeksStaked */\n      dup2\n        /* \"contracts/SimpleToken.sol\":6529:6546  stakingRewardRate */\n      sload(0x0d)\n        /* \"contracts/SimpleToken.sol\":6508:6520  stakedAmount */\n      0x0e\n        /* \"contracts/SimpleToken.sol\":6508:6526  stakedAmount[user] */\n      0x00\n        /* \"contracts/SimpleToken.sol\":6521:6525  user */\n      dup8\n        /* \"contracts/SimpleToken.sol\":6508:6526  stakedAmount[user] */\n      0xffffffffffffffffffffffffffffffffffffffff\n      and\n      0xffffffffffffffffffffffffffffffffffffffff\n      and\n      dup2\n      mstore\n      0x20\n      add\n      swap1\n      dup2\n      mstore\n      0x20\n      add\n      0x00\n      keccak256\n      sload\n        /* \"contracts/SimpleToken.sol\":6508:6546  stakedAmount[user] * stakingRewardRate */\n      tag_241\n      swap2\n      swap1\n      tag_242\n      jump\t// in\n    tag_241:\n        /* \"contracts/SimpleToken.sol\":6508:6560  stakedAmount[user] * stakingRewardRate * weeksStaked */\n      tag_243\n      swap2\n      swap1\n      tag_242\n      jump\t// in\n    tag_243:\n        /* \"contracts/SimpleToken.sol\":6507:6567  (stakedAmount[user] * stakingRewardRate * weeksStaked) / 100 */\n      tag_244\n      swap2\n      swap1\n      tag_240\n      jump\t// in\n    tag_244:\n        /* \"contracts/SimpleToken.sol\":6500:6567  return (stakedAmount[user] * stakingRewardRate * weeksStaked) / 100 */\n      swap2\n      pop\n      pop\n        /* \"contracts/SimpleToken.sol\":6328:6575  function calculateStakingReward(address user) public view returns (uint256) {... */\n      swap2\n      swap1\n      pop\n      jump\t// out\n        /* \"@openzeppelin/contracts/token/ERC20/ERC20.sol\":2849:2946  function totalSupply() public view virtual returns (uint256) {... */\n    tag_77:\n        /* \"@openzeppelin/contracts/token/ERC20/ERC20.sol\":2901:2908  uint256 */\n      0x00\n        /* \"@openzeppelin/contracts/token/ERC20/ERC20.sol\":2927:2939  _totalSupply */\n      sload(0x02)\n        /* \"@openzeppelin/contracts/token/ERC20/ERC20.sol\":2920:2939  return _totalSupply */\n      swap1\n      pop\n        /* \"@openzeppelin/contracts/token/ERC20/ERC20.sol\":2849:2946  function totalSupply() public view virtual returns (uint256) {... */\n      swap1\n      jump\t// out\n        /* \"contracts/SimpleToken.sol\":329:356  uint256 public initialPrice */\n    tag_81:\n      sload(0x08)\n      dup2\n      jump\t// out\n        /* \"@openzeppelin/contracts/token/ERC20/ERC20.sol\":4776:5020  function transferFrom(address from, address to, uint256 value) public virtual returns (bool) {... */\n    tag_87:\n        /* \"@openzeppelin/contracts/token/ERC20/ERC20.sol\":4863:4867  bool */\n      0x00\n        /* \"@openzeppelin/contracts/token/ERC20/ERC20.sol\":4879:4894  address spender */\n      dup1\n        /* \"@openzeppelin/contracts/token/ERC20/ERC20.sol\":4897:4909  _msgSender() */\n      tag_247\n        /* \"@openzeppelin/contracts/token/ERC20/ERC20.sol\":4897:4907  _msgSender */\n      tag_233\n        /* \"@openzeppelin/contracts/token/ERC20/ERC20.sol\":4897:4909  _msgSender() */\n      jump\t// in\n    tag_247:\n        /* \"@openzeppelin/contracts/token/ERC20/ERC20.sol\":4879:4909  address spender = _msgSender() */\n      swap1\n      pop\n        /* \"@openzeppelin/contracts/token/ERC20/ERC20.sol\":4919:4956  _spendAllowance(from, spender, value) */\n      tag_248\n        /* \"@openzeppelin/contracts/token/ERC20/ERC20.sol\":4935:4939  from */\n      dup6\n        /* \"@openzeppelin/contracts/token/ERC20/ERC20.sol\":4941:4948  spender */\n      dup3\n        /* \"@openzeppelin/contracts/token/ERC20/ERC20.sol\":4950:4955  value */\n      dup6\n        /* \"@openzeppelin/contracts/token/ERC20/ERC20.sol\":4919:4934  _spendAllowance */\n      tag_249\n        /* \"@openzeppelin/contracts/token/ERC20/ERC20.sol\":4919:4956  _spendAllowance(from, spender, value) */\n      jump\t// in\n    tag_248:\n        /* \"@openzeppelin/contracts/token/ERC20/ERC20.sol\":4966:4992  _transfer(from, to, value) */\n      tag_250\n        /* \"@openzeppelin/contracts/token/ERC20/ERC20.sol\":4976:4980  from */\n      dup6\n        /* \"@openzeppelin/contracts/token/ERC20/ERC20.sol\":4982:4984  to */\n      dup6\n        /* \"@openzeppelin/contracts/token/ERC20/ERC20.sol\":4986:4991  value */\n      dup6\n        /* \"@openzeppelin/contracts/token/ERC20/ERC20.sol\":4966:4975  _transfer */\n      tag_251\n        /* \"@openzeppelin/contracts/token/ERC20/ERC20.sol\":4966:4992  _transfer(from, to, value) */\n      jump\t// in\n    tag_250:\n        /* \"@openzeppelin/contracts/token/ERC20/ERC20.sol\":5009:5013  true */\n      0x01\n        /* \"@openzeppelin/contracts/token/ERC20/ERC20.sol\":5002:5013  return true */\n      swap2\n      pop\n      pop\n        /* \"@openzeppelin/contracts/token/ERC20/ERC20.sol\":4776:5020  function transferFrom(address from, address to, uint256 value) public virtual returns (bool) {... */\n      swap4\n      swap3\n      pop\n      pop\n      pop\n      jump\t// out\n        /* \"contracts/SimpleToken.sol\":820:863  mapping(address => uint256) public balances */\n    tag_92:\n      mstore(0x20, 0x13)\n      dup1\n      0x00\n      mstore\n      keccak256(0x00, 0x40)\n      0x00\n      swap2\n      pop\n      swap1\n      pop\n      sload\n      dup2\n      jump\t// out\n        /* \"contracts/SimpleToken.sol\":2572:2876  function calculateWeeksElapsed(uint256 startTime, uint256 endTime) public pure returns (uint256) {... */\n    tag_98:\n        /* \"contracts/SimpleToken.sol\":2660:2667  uint256 */\n      0x00\n        /* \"contracts/SimpleToken.sol\":2699:2708  startTime */\n      dup3\n        /* \"contracts/SimpleToken.sol\":2688:2695  endTime */\n      dup3\n        /* \"contracts/SimpleToken.sol\":2688:2708  endTime >= startTime */\n      lt\n      iszero\n        /* \"contracts/SimpleToken.sol\":2680:2746  require(endTime >= startTime, \"End time must be after start time\") */\n      tag_253\n      jumpi\n      mload(0x40)\n      0x08c379a000000000000000000000000000000000000000000000000000000000\n      dup2\n      mstore\n      0x04\n      add\n      tag_254\n      swap1\n      tag_255\n      jump\t// in\n    tag_254:\n      mload(0x40)\n      dup1\n      swap2\n      sub\n      swap1\n      revert\n    tag_253:\n        /* \"contracts/SimpleToken.sol\":2757:2777  uint256 weeksElapsed */\n      0x00\n        /* \"contracts/SimpleToken.sol\":2804:2810  604800 */\n      0x093a80\n        /* \"contracts/SimpleToken.sol\":2791:2800  startTime */\n      dup5\n        /* \"contracts/SimpleToken.sol\":2781:2788  endTime */\n      dup5\n        /* \"contracts/SimpleToken.sol\":2781:2800  endTime - startTime */\n      tag_256\n      swap2\n      swap1\n      tag_238\n      jump\t// in\n    tag_256:\n        /* \"contracts/SimpleToken.sol\":2780:2810  (endTime - startTime) / 604800 */\n      tag_257\n      swap2\n      swap1\n      tag_240\n      jump\t// in\n    tag_257:\n        /* \"contracts/SimpleToken.sol\":2757:2810  uint256 weeksElapsed = (endTime - startTime) / 604800 */\n      swap1\n      pop\n        /* \"contracts/SimpleToken.sol\":2856:2868  weeksElapsed */\n      dup1\n        /* \"contracts/SimpleToken.sol\":2849:2868  return weeksElapsed */\n      swap2\n      pop\n      pop\n        /* \"contracts/SimpleToken.sol\":2572:2876  function calculateWeeksElapsed(uint256 startTime, uint256 endTime) public pure returns (uint256) {... */\n      swap3\n      swap2\n      pop\n      pop\n      jump\t// out\n        /* \"contracts/SimpleToken.sol\":221:248  bool public presaleIsActive */\n    tag_102:\n      0x05\n      0x14\n      swap1\n      sload\n      swap1\n      0x0100\n      exp\n      swap1\n      div\n      0xff\n      and\n      dup2\n      jump\t// out\n        /* \"@openzeppelin/contracts/token/ERC20/ERC20.sol\":2707:2789  function decimals() public view virtual returns (uint8) {... */\n    tag_106:\n        /* \"@openzeppelin/contracts/token/ERC20/ERC20.sol\":2756:2761  uint8 */\n      0x00\n        /* \"@openzeppelin/contracts/token/ERC20/ERC20.sol\":2780:2782  18 */\n      0x12\n        /* \"@openzeppelin/contracts/token/ERC20/ERC20.sol\":2773:2782  return 18 */\n      swap1\n      pop\n        /* \"@openzeppelin/contracts/token/ERC20/ERC20.sol\":2707:2789  function decimals() public view virtual returns (uint8) {... */\n      swap1\n      jump\t// out\n        /* \"contracts/SimpleToken.sol\":5270:5367  function getWalletBalance() public view returns (uint256){... */\n    tag_111:\n        /* \"contracts/SimpleToken.sol\":5319:5326  uint256 */\n      0x00\n        /* \"contracts/SimpleToken.sol\":5341:5349  balances */\n      0x13\n        /* \"contracts/SimpleToken.sol\":5341:5361  balances[msg.sender] */\n      0x00\n        /* \"contracts/SimpleToken.sol\":5350:5360  msg.sender */\n      caller\n        /* \"contracts/SimpleToken.sol\":5341:5361  balances[msg.sender] */\n      0xffffffffffffffffffffffffffffffffffffffff\n      and\n      0xffffffffffffffffffffffffffffffffffffffff\n      and\n      dup2\n      mstore\n      0x20\n      add\n      swap1\n      dup2\n      mstore\n      0x20\n      add\n      0x00\n      keccak256\n      sload\n        /* \"contracts/SimpleToken.sol\":5334:5361  return balances[msg.sender] */\n      swap1\n      pop\n        /* \"contracts/SimpleToken.sol\":5270:5367  function getWalletBalance() public view returns (uint256){... */\n      swap1\n      jump\t// out\n        /* \"contracts/SimpleToken.sol\":3874:4172  function calculatePriceIncrease() public view returns (uint256){... */\n    tag_115:\n        /* \"contracts/SimpleToken.sol\":3929:3936  uint256 */\n      0x00\n        /* \"contracts/SimpleToken.sol\":3948:3968  uint256 weeksElapsed */\n      dup1\n        /* \"contracts/SimpleToken.sol\":3970:4026  calculateWeeksElapsed(preSaleStartTime, block.timestamp) */\n      tag_261\n        /* \"contracts/SimpleToken.sol\":3992:4008  preSaleStartTime */\n      sload(0x06)\n        /* \"contracts/SimpleToken.sol\":4010:4025  block.timestamp */\n      timestamp\n        /* \"contracts/SimpleToken.sol\":3970:3991  calculateWeeksElapsed */\n      tag_98\n        /* \"contracts/SimpleToken.sol\":3970:4026  calculateWeeksElapsed(preSaleStartTime, block.timestamp) */\n      jump\t// in\n    tag_261:\n        /* \"contracts/SimpleToken.sol\":3948:4026  uint256 weeksElapsed =calculateWeeksElapsed(preSaleStartTime, block.timestamp) */\n      swap1\n      pop\n        /* \"contracts/SimpleToken.sol\":4037:4058  uint256 priceIncrease */\n      0x00\n        /* \"contracts/SimpleToken.sol\":4114:4133  preSaleWeeksInWeeks */\n      sload(0x0c)\n        /* \"contracts/SimpleToken.sol\":4098:4110  weeksElapsed */\n      dup3\n        /* \"contracts/SimpleToken.sol\":4082:4094  initialPrice */\n      sload(0x08)\n        /* \"contracts/SimpleToken.sol\":4063:4079  regularSalePrice */\n      sload(0x09)\n        /* \"contracts/SimpleToken.sol\":4063:4094  regularSalePrice - initialPrice */\n      tag_262\n      swap2\n      swap1\n      tag_238\n      jump\t// in\n    tag_262:\n        /* \"contracts/SimpleToken.sol\":4062:4110  (regularSalePrice - initialPrice) * weeksElapsed */\n      tag_263\n      swap2\n      swap1\n      tag_242\n      jump\t// in\n    tag_263:\n        /* \"contracts/SimpleToken.sol\":4061:4133  ((regularSalePrice - initialPrice) * weeksElapsed) / preSaleWeeksInWeeks */\n      tag_264\n      swap2\n      swap1\n      tag_240\n      jump\t// in\n    tag_264:\n        /* \"contracts/SimpleToken.sol\":4037:4133  uint256 priceIncrease = ((regularSalePrice - initialPrice) * weeksElapsed) / preSaleWeeksInWeeks */\n      swap1\n      pop\n        /* \"contracts/SimpleToken.sol\":4151:4164  priceIncrease */\n      dup1\n        /* \"contracts/SimpleToken.sol\":4144:4164  return priceIncrease */\n      swap3\n      pop\n      pop\n      pop\n        /* \"contracts/SimpleToken.sol\":3874:4172  function calculatePriceIncrease() public view returns (uint256){... */\n      swap1\n      jump\t// out\n        /* \"contracts/SimpleToken.sol\":514:546  uint256 public stakingRewardRate */\n    tag_119:\n      sload(0x0d)\n      dup2\n      jump\t// out\n        /* \"contracts/SimpleToken.sol\":441:466  uint256 public tokensSold */\n    tag_123:\n      sload(0x0b)\n      dup2\n      jump\t// out\n        /* \"@openzeppelin/contracts/token/ERC20/ERC20.sol\":3004:3120  function balanceOf(address account) public view virtual returns (uint256) {... */\n    tag_128:\n        /* \"@openzeppelin/contracts/token/ERC20/ERC20.sol\":3069:3076  uint256 */\n      0x00\n        /* \"@openzeppelin/contracts/token/ERC20/ERC20.sol\":3095:3104  _balances */\n      dup1\n        /* \"@openzeppelin/contracts/token/ERC20/ERC20.sol\":3095:3113  _balances[account] */\n      0x00\n        /* \"@openzeppelin/contracts/token/ERC20/ERC20.sol\":3105:3112  account */\n      dup4\n        /* \"@openzeppelin/contracts/token/ERC20/ERC20.sol\":3095:3113  _balances[account] */\n      0xffffffffffffffffffffffffffffffffffffffff\n      and\n      0xffffffffffffffffffffffffffffffffffffffff\n      and\n      dup2\n      mstore\n      0x20\n      add\n      swap1\n      dup2\n      mstore\n      0x20\n      add\n      0x00\n      keccak256\n      sload\n        /* \"@openzeppelin/contracts/token/ERC20/ERC20.sol\":3088:3113  return _balances[account] */\n      swap1\n      pop\n        /* \"@openzeppelin/contracts/token/ERC20/ERC20.sol\":3004:3120  function balanceOf(address account) public view virtual returns (uint256) {... */\n      swap2\n      swap1\n      pop\n      jump\t// out\n        /* \"@openzeppelin/contracts/access/Ownable.sol\":2293:2394  function renounceOwnership() public virtual onlyOwner {... */\n    tag_132:\n        /* \"@openzeppelin/contracts/access/Ownable.sol\":1531:1544  _checkOwner() */\n      tag_267\n        /* \"@openzeppelin/contracts/access/Ownable.sol\":1531:1542  _checkOwner */\n      tag_268\n        /* \"@openzeppelin/contracts/access/Ownable.sol\":1531:1544  _checkOwner() */\n      jump\t// in\n    tag_267:\n        /* \"@openzeppelin/contracts/access/Ownable.sol\":2357:2387  _transferOwnership(address(0)) */\n      tag_270\n        /* \"@openzeppelin/contracts/access/Ownable.sol\":2384:2385  0 */\n      0x00\n        /* \"@openzeppelin/contracts/access/Ownable.sol\":2357:2375  _transferOwnership */\n      tag_271\n        /* \"@openzeppelin/contracts/access/Ownable.sol\":2357:2387  _transferOwnership(address(0)) */\n      jump\t// in\n    tag_270:\n        /* \"@openzeppelin/contracts/access/Ownable.sol\":2293:2394  function renounceOwnership() public virtual onlyOwner {... */\n      jump\t// out\n        /* \"contracts/SimpleToken.sol\":401:434  uint256 public weeklyIncreaseRate */\n    tag_135:\n      sload(0x0a)\n      dup2\n      jump\t// out\n        /* \"contracts/SimpleToken.sol\":5377:5781  function stakeTokens(uint256 amount) external {... */\n    tag_141:\n        /* \"contracts/SimpleToken.sol\":5451:5452  0 */\n      0x00\n        /* \"contracts/SimpleToken.sol\":5442:5448  amount */\n      dup2\n        /* \"contracts/SimpleToken.sol\":5442:5452  amount > 0 */\n      gt\n        /* \"contracts/SimpleToken.sol\":5434:5490  require(amount > 0, \"Amount must be greater than zero.\") */\n      tag_273\n      jumpi\n      mload(0x40)\n      0x08c379a000000000000000000000000000000000000000000000000000000000\n      dup2\n      mstore\n      0x04\n      add\n      tag_274\n      swap1\n      tag_275\n      jump\t// in\n    tag_274:\n      mload(0x40)\n      dup1\n      swap2\n      sub\n      swap1\n      revert\n    tag_273:\n        /* \"contracts/SimpleToken.sol\":5534:5540  amount */\n      dup1\n        /* \"contracts/SimpleToken.sol\":5509:5530  balanceOf(msg.sender) */\n      tag_276\n        /* \"contracts/SimpleToken.sol\":5519:5529  msg.sender */\n      caller\n        /* \"contracts/SimpleToken.sol\":5509:5518  balanceOf */\n      tag_128\n        /* \"contracts/SimpleToken.sol\":5509:5530  balanceOf(msg.sender) */\n      jump\t// in\n    tag_276:\n        /* \"contracts/SimpleToken.sol\":5509:5540  balanceOf(msg.sender) >= amount */\n      lt\n      iszero\n        /* \"contracts/SimpleToken.sol\":5501:5566  require(balanceOf(msg.sender) >= amount, \"Insufficient balance.\") */\n      tag_277\n      jumpi\n      mload(0x40)\n      0x08c379a000000000000000000000000000000000000000000000000000000000\n      dup2\n      mstore\n      0x04\n      add\n      tag_278\n      swap1\n      tag_279\n      jump\t// in\n    tag_278:\n      mload(0x40)\n      dup1\n      swap2\n      sub\n      swap1\n      revert\n    tag_277:\n        /* \"contracts/SimpleToken.sol\":5579:5623  _transfer(msg.sender, address(this), amount) */\n      tag_280\n        /* \"contracts/SimpleToken.sol\":5589:5599  msg.sender */\n      caller\n        /* \"contracts/SimpleToken.sol\":5609:5613  this */\n      address\n        /* \"contracts/SimpleToken.sol\":5616:5622  amount */\n      dup4\n        /* \"contracts/SimpleToken.sol\":5579:5588  _transfer */\n      tag_251\n        /* \"contracts/SimpleToken.sol\":5579:5623  _transfer(msg.sender, address(this), amount) */\n      jump\t// in\n    tag_280:\n        /* \"contracts/SimpleToken.sol\":5662:5668  amount */\n      dup1\n        /* \"contracts/SimpleToken.sol\":5634:5646  stakedAmount */\n      0x0e\n        /* \"contracts/SimpleToken.sol\":5634:5658  stakedAmount[msg.sender] */\n      0x00\n        /* \"contracts/SimpleToken.sol\":5647:5657  msg.sender */\n      caller\n        /* \"contracts/SimpleToken.sol\":5634:5658  stakedAmount[msg.sender] */\n      0xffffffffffffffffffffffffffffffffffffffff\n      and\n      0xffffffffffffffffffffffffffffffffffffffff\n      and\n      dup2\n      mstore\n      0x20\n      add\n      swap1\n      dup2\n      mstore\n      0x20\n      add\n      0x00\n      keccak256\n      0x00\n        /* \"contracts/SimpleToken.sol\":5634:5668  stakedAmount[msg.sender] += amount */\n      dup3\n      dup3\n      sload\n      tag_281\n      swap2\n      swap1\n      tag_282\n      jump\t// in\n    tag_281:\n      swap3\n      pop\n      pop\n      dup2\n      swap1\n      sstore\n      pop\n        /* \"contracts/SimpleToken.sol\":5710:5725  block.timestamp */\n      timestamp\n        /* \"contracts/SimpleToken.sol\":5679:5695  stakingTimestamp */\n      0x0f\n        /* \"contracts/SimpleToken.sol\":5679:5707  stakingTimestamp[msg.sender] */\n      0x00\n        /* \"contracts/SimpleToken.sol\":5696:5706  msg.sender */\n      caller\n        /* \"contracts/SimpleToken.sol\":5679:5707  stakingTimestamp[msg.sender] */\n      0xffffffffffffffffffffffffffffffffffffffff\n      and\n      0xffffffffffffffffffffffffffffffffffffffff\n      and\n      dup2\n      mstore\n      0x20\n      add\n      swap1\n      dup2\n      mstore\n      0x20\n      add\n      0x00\n      keccak256\n        /* \"contracts/SimpleToken.sol\":5679:5725  stakingTimestamp[msg.sender] = block.timestamp */\n      dup2\n      swap1\n      sstore\n      pop\n        /* \"contracts/SimpleToken.sol\":5754:5764  msg.sender */\n      caller\n        /* \"contracts/SimpleToken.sol\":5741:5773  TokensStaked(msg.sender, amount) */\n      0xffffffffffffffffffffffffffffffffffffffff\n      and\n      0xb539ca1e5c8d398ddf1c41c30166f33404941683be4683319b57669a93dad4ef\n        /* \"contracts/SimpleToken.sol\":5766:5772  amount */\n      dup3\n        /* \"contracts/SimpleToken.sol\":5741:5773  TokensStaked(msg.sender, amount) */\n      mload(0x40)\n      tag_283\n      swap2\n      swap1\n      tag_52\n      jump\t// in\n    tag_283:\n      mload(0x40)\n      dup1\n      swap2\n      sub\n      swap1\n      log2\n        /* \"contracts/SimpleToken.sol\":5377:5781  function stakeTokens(uint256 amount) external {... */\n      pop\n      jump\t// out\n        /* \"contracts/SimpleToken.sol\":2886:3302  function mintReferralReward() external {... */\n    tag_144:\n        /* \"contracts/SimpleToken.sol\":2965:2969  true */\n      0x01\n        /* \"contracts/SimpleToken.sol\":2948:2969  presaleIsActive==true */\n      iszero\n      iszero\n        /* \"contracts/SimpleToken.sol\":2948:2963  presaleIsActive */\n      0x05\n      0x14\n      swap1\n      sload\n      swap1\n      0x0100\n      exp\n      swap1\n      div\n      0xff\n      and\n        /* \"contracts/SimpleToken.sol\":2948:2969  presaleIsActive==true */\n      iszero\n      iszero\n      eq\n        /* \"contracts/SimpleToken.sol\":2940:2996  require(presaleIsActive==true,\"Presale not started yet\") */\n      tag_285\n      jumpi\n      mload(0x40)\n      0x08c379a000000000000000000000000000000000000000000000000000000000\n      dup2\n      mstore\n      0x04\n      add\n      tag_286\n      swap1\n      tag_287\n      jump\t// in\n    tag_286:\n      mload(0x40)\n      dup1\n      swap2\n      sub\n      swap1\n      revert\n    tag_285:\n        /* \"contracts/SimpleToken.sol\":3011:3031  uint256 rewardAmount */\n      0x00\n        /* \"contracts/SimpleToken.sol\":3034:3069  calculateReferralReward(msg.sender) */\n      tag_288\n        /* \"contracts/SimpleToken.sol\":3058:3068  msg.sender */\n      caller\n        /* \"contracts/SimpleToken.sol\":3034:3057  calculateReferralReward */\n      tag_148\n        /* \"contracts/SimpleToken.sol\":3034:3069  calculateReferralReward(msg.sender) */\n      jump\t// in\n    tag_288:\n        /* \"contracts/SimpleToken.sol\":3011:3069  uint256 rewardAmount = calculateReferralReward(msg.sender) */\n      swap1\n      pop\n        /* \"contracts/SimpleToken.sol\":3107:3108  0 */\n      0x00\n        /* \"contracts/SimpleToken.sol\":3092:3104  rewardAmount */\n      dup2\n        /* \"contracts/SimpleToken.sol\":3092:3108  rewardAmount > 0 */\n      gt\n        /* \"contracts/SimpleToken.sol\":3084:3133  require(rewardAmount > 0, \"No rewards available\") */\n      tag_289\n      jumpi\n      mload(0x40)\n      0x08c379a000000000000000000000000000000000000000000000000000000000\n      dup2\n      mstore\n      0x04\n      add\n      tag_290\n      swap1\n      tag_291\n      jump\t// in\n    tag_290:\n      mload(0x40)\n      dup1\n      swap2\n      sub\n      swap1\n      revert\n    tag_289:\n        /* \"contracts/SimpleToken.sol\":3148:3179  _mint(msg.sender, rewardAmount) */\n      tag_292\n        /* \"contracts/SimpleToken.sol\":3154:3164  msg.sender */\n      caller\n        /* \"contracts/SimpleToken.sol\":3166:3178  rewardAmount */\n      dup3\n        /* \"contracts/SimpleToken.sol\":3148:3153  _mint */\n      tag_293\n        /* \"contracts/SimpleToken.sol\":3148:3179  _mint(msg.sender, rewardAmount) */\n      jump\t// in\n    tag_292:\n        /* \"contracts/SimpleToken.sol\":3223:3224  0 */\n      0x00\n        /* \"contracts/SimpleToken.sol\":3194:3208  referralCounts */\n      0x12\n        /* \"contracts/SimpleToken.sol\":3194:3220  referralCounts[msg.sender] */\n      0x00\n        /* \"contracts/SimpleToken.sol\":3209:3219  msg.sender */\n      caller\n        /* \"contracts/SimpleToken.sol\":3194:3220  referralCounts[msg.sender] */\n      0xffffffffffffffffffffffffffffffffffffffff\n      and\n      0xffffffffffffffffffffffffffffffffffffffff\n      and\n      dup2\n      mstore\n      0x20\n      add\n      swap1\n      dup2\n      mstore\n      0x20\n      add\n      0x00\n      keccak256\n        /* \"contracts/SimpleToken.sol\":3194:3224  referralCounts[msg.sender] = 0 */\n      dup2\n      swap1\n      sstore\n      pop\n        /* \"contracts/SimpleToken.sol\":3265:3275  msg.sender */\n      caller\n        /* \"contracts/SimpleToken.sol\":3244:3290  ReferralRewardMinted(msg.sender, rewardAmount) */\n      0xffffffffffffffffffffffffffffffffffffffff\n      and\n      0xf0bc0a70fe19ef2d8dc1e1948b338a1184184fb1ea3ac836f24065828816d68d\n        /* \"contracts/SimpleToken.sol\":3277:3289  rewardAmount */\n      dup3\n        /* \"contracts/SimpleToken.sol\":3244:3290  ReferralRewardMinted(msg.sender, rewardAmount) */\n      mload(0x40)\n      tag_294\n      swap2\n      swap1\n      tag_52\n      jump\t// in\n    tag_294:\n      mload(0x40)\n      dup1\n      swap2\n      sub\n      swap1\n      log2\n        /* \"contracts/SimpleToken.sol\":2925:3302  {... */\n      pop\n        /* \"contracts/SimpleToken.sol\":2886:3302  function mintReferralReward() external {... */\n      jump\t// out\n        /* \"contracts/SimpleToken.sol\":2408:2564  function calculateReferralReward(address referrer) public view returns (uint256) {... */\n    tag_148:\n        /* \"contracts/SimpleToken.sol\":2480:2487  uint256 */\n      0x00\n        /* \"contracts/SimpleToken.sol\":2546:2556  decimals() */\n      tag_296\n        /* \"contracts/SimpleToken.sol\":2546:2554  decimals */\n      tag_106\n        /* \"contracts/SimpleToken.sol\":2546:2556  decimals() */\n      jump\t// in\n    tag_296:\n        /* \"contracts/SimpleToken.sol\":2540:2542  10 */\n      0x0a\n        /* \"contracts/SimpleToken.sol\":2540:2556  10 ** decimals() */\n      tag_297\n      swap2\n      swap1\n      tag_298\n      jump\t// in\n    tag_297:\n        /* \"contracts/SimpleToken.sol\":2534:2537  500 */\n      0x01f4\n        /* \"contracts/SimpleToken.sol\":2507:2521  referralCounts */\n      0x12\n        /* \"contracts/SimpleToken.sol\":2507:2531  referralCounts[referrer] */\n      0x00\n        /* \"contracts/SimpleToken.sol\":2522:2530  referrer */\n      dup6\n        /* \"contracts/SimpleToken.sol\":2507:2531  referralCounts[referrer] */\n      0xffffffffffffffffffffffffffffffffffffffff\n      and\n      0xffffffffffffffffffffffffffffffffffffffff\n      and\n      dup2\n      mstore\n      0x20\n      add\n      swap1\n      dup2\n      mstore\n      0x20\n      add\n      0x00\n      keccak256\n      sload\n        /* \"contracts/SimpleToken.sol\":2507:2537  referralCounts[referrer] * 500 */\n      tag_299\n      swap2\n      swap1\n      tag_242\n      jump\t// in\n    tag_299:\n        /* \"contracts/SimpleToken.sol\":2507:2556  referralCounts[referrer] * 500 * 10 ** decimals() */\n      tag_300\n      swap2\n      swap1\n      tag_242\n      jump\t// in\n    tag_300:\n        /* \"contracts/SimpleToken.sol\":2500:2556  return referralCounts[referrer] * 500 * 10 ** decimals() */\n      swap1\n      pop\n        /* \"contracts/SimpleToken.sol\":2408:2564  function calculateReferralReward(address referrer) public view returns (uint256) {... */\n      swap2\n      swap1\n      pop\n      jump\t// out\n        /* \"@openzeppelin/contracts/access/Ownable.sol\":1638:1723  function owner() public view virtual returns (address) {... */\n    tag_152:\n        /* \"@openzeppelin/contracts/access/Ownable.sol\":1684:1691  address */\n      0x00\n        /* \"@openzeppelin/contracts/access/Ownable.sol\":1710:1716  _owner */\n      0x05\n      0x00\n      swap1\n      sload\n      swap1\n      0x0100\n      exp\n      swap1\n      div\n      0xffffffffffffffffffffffffffffffffffffffff\n      and\n        /* \"@openzeppelin/contracts/access/Ownable.sol\":1703:1716  return _owner */\n      swap1\n      pop\n        /* \"@openzeppelin/contracts/access/Ownable.sol\":1638:1723  function owner() public view virtual returns (address) {... */\n      swap1\n      jump\t// out\n        /* \"contracts/SimpleToken.sol\":607:658  mapping(address => uint256) public stakingTimestamp */\n    tag_158:\n      mstore(0x20, 0x0f)\n      dup1\n      0x00\n      mstore\n      keccak256(0x00, 0x40)\n      0x00\n      swap2\n      pop\n      swap1\n      pop\n      sload\n      dup2\n      jump\t// out\n        /* \"@openzeppelin/contracts/token/ERC20/ERC20.sol\":1981:2074  function symbol() public view virtual returns (string memory) {... */\n    tag_162:\n        /* \"@openzeppelin/contracts/token/ERC20/ERC20.sol\":2028:2041  string memory */\n      0x60\n        /* \"@openzeppelin/contracts/token/ERC20/ERC20.sol\":2060:2067  _symbol */\n      0x04\n        /* \"@openzeppelin/contracts/token/ERC20/ERC20.sol\":2053:2067  return _symbol */\n      dup1\n      sload\n      tag_303\n      swap1\n      tag_226\n      jump\t// in\n    tag_303:\n      dup1\n      0x1f\n      add\n      0x20\n      dup1\n      swap2\n      div\n      mul\n      0x20\n      add\n      mload(0x40)\n      swap1\n      dup2\n      add\n      0x40\n      mstore\n      dup1\n      swap3\n      swap2\n      swap1\n      dup2\n      dup2\n      mstore\n      0x20\n      add\n      dup3\n      dup1\n      sload\n      tag_304\n      swap1\n      tag_226\n      jump\t// in\n    tag_304:\n      dup1\n      iszero\n      tag_305\n      jumpi\n      dup1\n      0x1f\n      lt\n      tag_306\n      jumpi\n      0x0100\n      dup1\n      dup4\n      sload\n      div\n      mul\n      dup4\n      mstore\n      swap2\n      0x20\n      add\n      swap2\n      jump(tag_305)\n    tag_306:\n      dup3\n      add\n      swap2\n      swap1\n      0x00\n      mstore\n      keccak256(0x00, 0x20)\n      swap1\n    tag_307:\n      dup2\n      sload\n      dup2\n      mstore\n      swap1\n      0x01\n      add\n      swap1\n      0x20\n      add\n      dup1\n      dup4\n      gt\n      tag_307\n      jumpi\n      dup3\n      swap1\n      sub\n      0x1f\n      and\n      dup3\n      add\n      swap2\n    tag_305:\n      pop\n      pop\n      pop\n      pop\n      pop\n      swap1\n      pop\n        /* \"@openzeppelin/contracts/token/ERC20/ERC20.sol\":1981:2074  function symbol() public view virtual returns (string memory) {... */\n      swap1\n      jump\t// out\n        /* \"contracts/SimpleToken.sol\":665:706  mapping(address => bool) public whitelist */\n    tag_167:\n      mstore(0x20, 0x10)\n      dup1\n      0x00\n      mstore\n      keccak256(0x00, 0x40)\n      0x00\n      swap2\n      pop\n      sload\n      swap1\n      0x0100\n      exp\n      swap1\n      div\n      0xff\n      and\n      dup2\n      jump\t// out\n        /* \"contracts/SimpleToken.sol\":713:757  mapping(address => address) public referrals */\n    tag_172:\n      mstore(0x20, 0x11)\n      dup1\n      0x00\n      mstore\n      keccak256(0x00, 0x40)\n      0x00\n      swap2\n      pop\n      sload\n      swap1\n      0x0100\n      exp\n      swap1\n      div\n      0xffffffffffffffffffffffffffffffffffffffff\n      and\n      dup2\n      jump\t// out\n        /* \"contracts/SimpleToken.sol\":1915:2396  function signUpForWhitelist(address referral) external {... */\n    tag_177:\n        /* \"contracts/SimpleToken.sol\":1990:1999  whitelist */\n      0x10\n        /* \"contracts/SimpleToken.sol\":1990:2011  whitelist[msg.sender] */\n      0x00\n        /* \"contracts/SimpleToken.sol\":2000:2010  msg.sender */\n      caller\n        /* \"contracts/SimpleToken.sol\":1990:2011  whitelist[msg.sender] */\n      0xffffffffffffffffffffffffffffffffffffffff\n      and\n      0xffffffffffffffffffffffffffffffffffffffff\n      and\n      dup2\n      mstore\n      0x20\n      add\n      swap1\n      dup2\n      mstore\n      0x20\n      add\n      0x00\n      keccak256\n      0x00\n      swap1\n      sload\n      swap1\n      0x0100\n      exp\n      swap1\n      div\n      0xff\n      and\n        /* \"contracts/SimpleToken.sol\":1989:2011  !whitelist[msg.sender] */\n      iszero\n        /* \"contracts/SimpleToken.sol\":1981:2035  require(!whitelist[msg.sender], \"Already whitelisted\") */\n      tag_309\n      jumpi\n      mload(0x40)\n      0x08c379a000000000000000000000000000000000000000000000000000000000\n      dup2\n      mstore\n      0x04\n      add\n      tag_310\n      swap1\n      tag_311\n      jump\t// in\n    tag_310:\n      mload(0x40)\n      dup1\n      swap2\n      sub\n      swap1\n      revert\n    tag_309:\n        /* \"contracts/SimpleToken.sol\":2068:2076  referral */\n      dup1\n        /* \"contracts/SimpleToken.sol\":2054:2076  msg.sender != referral */\n      0xffffffffffffffffffffffffffffffffffffffff\n      and\n        /* \"contracts/SimpleToken.sol\":2054:2064  msg.sender */\n      caller\n        /* \"contracts/SimpleToken.sol\":2054:2076  msg.sender != referral */\n      0xffffffffffffffffffffffffffffffffffffffff\n      and\n      sub\n        /* \"contracts/SimpleToken.sol\":2046:2102  require(msg.sender != referral, \"Cannot refer yourself\") */\n      tag_312\n      jumpi\n      mload(0x40)\n      0x08c379a000000000000000000000000000000000000000000000000000000000\n      dup2\n      mstore\n      0x04\n      add\n      tag_313\n      swap1\n      tag_314\n      jump\t// in\n    tag_313:\n      mload(0x40)\n      dup1\n      swap2\n      sub\n      swap1\n      revert\n    tag_312:\n        /* \"contracts/SimpleToken.sol\":2147:2151  true */\n      0x01\n        /* \"contracts/SimpleToken.sol\":2123:2132  whitelist */\n      0x10\n        /* \"contracts/SimpleToken.sol\":2123:2144  whitelist[msg.sender] */\n      0x00\n        /* \"contracts/SimpleToken.sol\":2133:2143  msg.sender */\n      caller\n        /* \"contracts/SimpleToken.sol\":2123:2144  whitelist[msg.sender] */\n      0xffffffffffffffffffffffffffffffffffffffff\n      and\n      0xffffffffffffffffffffffffffffffffffffffff\n      and\n      dup2\n      mstore\n      0x20\n      add\n      swap1\n      dup2\n      mstore\n      0x20\n      add\n      0x00\n      keccak256\n      0x00\n        /* \"contracts/SimpleToken.sol\":2123:2151  whitelist[msg.sender] = true */\n      0x0100\n      exp\n      dup2\n      sload\n      dup2\n      0xff\n      mul\n      not\n      and\n      swap1\n      dup4\n      iszero\n      iszero\n      mul\n      or\n      swap1\n      sstore\n      pop\n        /* \"contracts/SimpleToken.sol\":2196:2197  0 */\n      0x00\n        /* \"contracts/SimpleToken.sol\":2176:2198  referral != address(0) */\n      0xffffffffffffffffffffffffffffffffffffffff\n      and\n        /* \"contracts/SimpleToken.sol\":2176:2184  referral */\n      dup2\n        /* \"contracts/SimpleToken.sol\":2176:2198  referral != address(0) */\n      0xffffffffffffffffffffffffffffffffffffffff\n      and\n      eq\n      iszero\n        /* \"contracts/SimpleToken.sol\":2176:2221  referral != address(0) && whitelist[referral] */\n      dup1\n      iszero\n      tag_315\n      jumpi\n      pop\n        /* \"contracts/SimpleToken.sol\":2202:2211  whitelist */\n      0x10\n        /* \"contracts/SimpleToken.sol\":2202:2221  whitelist[referral] */\n      0x00\n        /* \"contracts/SimpleToken.sol\":2212:2220  referral */\n      dup3\n        /* \"contracts/SimpleToken.sol\":2202:2221  whitelist[referral] */\n      0xffffffffffffffffffffffffffffffffffffffff\n      and\n      0xffffffffffffffffffffffffffffffffffffffff\n      and\n      dup2\n      mstore\n      0x20\n      add\n      swap1\n      dup2\n      mstore\n      0x20\n      add\n      0x00\n      keccak256\n      0x00\n      swap1\n      sload\n      swap1\n      0x0100\n      exp\n      swap1\n      div\n      0xff\n      and\n        /* \"contracts/SimpleToken.sol\":2176:2221  referral != address(0) && whitelist[referral] */\n    tag_315:\n        /* \"contracts/SimpleToken.sol\":2172:2326  if (referral != address(0) && whitelist[referral]) {... */\n      iszero\n      tag_316\n      jumpi\n        /* \"contracts/SimpleToken.sol\":2262:2270  referral */\n      dup1\n        /* \"contracts/SimpleToken.sol\":2238:2247  referrals */\n      0x11\n        /* \"contracts/SimpleToken.sol\":2238:2259  referrals[msg.sender] */\n      0x00\n        /* \"contracts/SimpleToken.sol\":2248:2258  msg.sender */\n      caller\n        /* \"contracts/SimpleToken.sol\":2238:2259  referrals[msg.sender] */\n      0xffffffffffffffffffffffffffffffffffffffff\n      and\n      0xffffffffffffffffffffffffffffffffffffffff\n      and\n      dup2\n      mstore\n      0x20\n      add\n      swap1\n      dup2\n      mstore\n      0x20\n      add\n      0x00\n      keccak256\n      0x00\n        /* \"contracts/SimpleToken.sol\":2238:2270  referrals[msg.sender] = referral */\n      0x0100\n      exp\n      dup2\n      sload\n      dup2\n      0xffffffffffffffffffffffffffffffffffffffff\n      mul\n      not\n      and\n      swap1\n      dup4\n      0xffffffffffffffffffffffffffffffffffffffff\n      and\n      mul\n      or\n      swap1\n      sstore\n      pop\n        /* \"contracts/SimpleToken.sol\":2313:2314  1 */\n      0x01\n        /* \"contracts/SimpleToken.sol\":2285:2299  referralCounts */\n      0x12\n        /* \"contracts/SimpleToken.sol\":2285:2309  referralCounts[referral] */\n      0x00\n        /* \"contracts/SimpleToken.sol\":2300:2308  referral */\n      dup4\n        /* \"contracts/SimpleToken.sol\":2285:2309  referralCounts[referral] */\n      0xffffffffffffffffffffffffffffffffffffffff\n      and\n      0xffffffffffffffffffffffffffffffffffffffff\n      and\n      dup2\n      mstore\n      0x20\n      add\n      swap1\n      dup2\n      mstore\n      0x20\n      add\n      0x00\n      keccak256\n      0x00\n        /* \"contracts/SimpleToken.sol\":2285:2314  referralCounts[referral] += 1 */\n      dup3\n      dup3\n      sload\n      tag_317\n      swap2\n      swap1\n      tag_282\n      jump\t// in\n    tag_317:\n      swap3\n      pop\n      pop\n      dup2\n      swap1\n      sstore\n      pop\n        /* \"contracts/SimpleToken.sol\":2172:2326  if (referral != address(0) && whitelist[referral]) {... */\n    tag_316:\n        /* \"contracts/SimpleToken.sol\":2379:2387  referral */\n      dup1\n        /* \"contracts/SimpleToken.sol\":2351:2388  UserWhitelisted(msg.sender, referral) */\n      0xffffffffffffffffffffffffffffffffffffffff\n      and\n        /* \"contracts/SimpleToken.sol\":2367:2377  msg.sender */\n      caller\n        /* \"contracts/SimpleToken.sol\":2351:2388  UserWhitelisted(msg.sender, referral) */\n      0xffffffffffffffffffffffffffffffffffffffff\n      and\n      0x4bc18aa4b0095c9a3b5cdf42d2322d5a145591b04045988a995a5da426075457\n      mload(0x40)\n      mload(0x40)\n      dup1\n      swap2\n      sub\n      swap1\n      log3\n        /* \"contracts/SimpleToken.sol\":1915:2396  function signUpForWhitelist(address referral) external {... */\n      pop\n      jump\t// out\n        /* \"contracts/SimpleToken.sol\":5789:6320  function unstakeTokens() external {... */\n    tag_180:\n        /* \"contracts/SimpleToken.sol\":5834:5848  uint256 amount */\n      0x00\n        /* \"contracts/SimpleToken.sol\":5851:5863  stakedAmount */\n      0x0e\n        /* \"contracts/SimpleToken.sol\":5851:5875  stakedAmount[msg.sender] */\n      0x00\n        /* \"contracts/SimpleToken.sol\":5864:5874  msg.sender */\n      caller\n        /* \"contracts/SimpleToken.sol\":5851:5875  stakedAmount[msg.sender] */\n      0xffffffffffffffffffffffffffffffffffffffff\n      and\n      0xffffffffffffffffffffffffffffffffffffffff\n      and\n      dup2\n      mstore\n      0x20\n      add\n      swap1\n      dup2\n      mstore\n      0x20\n      add\n      0x00\n      keccak256\n      sload\n        /* \"contracts/SimpleToken.sol\":5834:5875  uint256 amount = stakedAmount[msg.sender] */\n      swap1\n      pop\n        /* \"contracts/SimpleToken.sol\":5903:5904  0 */\n      0x00\n        /* \"contracts/SimpleToken.sol\":5894:5900  amount */\n      dup2\n        /* \"contracts/SimpleToken.sol\":5894:5904  amount > 0 */\n      gt\n        /* \"contracts/SimpleToken.sol\":5886:5926  require(amount > 0, \"No tokens staked.\") */\n      tag_319\n      jumpi\n      mload(0x40)\n      0x08c379a000000000000000000000000000000000000000000000000000000000\n      dup2\n      mstore\n      0x04\n      add\n      tag_320\n      swap1\n      tag_321\n      jump\t// in\n    tag_320:\n      mload(0x40)\n      dup1\n      swap2\n      sub\n      swap1\n      revert\n    tag_319:\n        /* \"contracts/SimpleToken.sol\":5995:6002  4 weeks */\n      0x24ea00\n        /* \"contracts/SimpleToken.sol\":5964:5980  stakingTimestamp */\n      0x0f\n        /* \"contracts/SimpleToken.sol\":5964:5992  stakingTimestamp[msg.sender] */\n      0x00\n        /* \"contracts/SimpleToken.sol\":5981:5991  msg.sender */\n      caller\n        /* \"contracts/SimpleToken.sol\":5964:5992  stakingTimestamp[msg.sender] */\n      0xffffffffffffffffffffffffffffffffffffffff\n      and\n      0xffffffffffffffffffffffffffffffffffffffff\n      and\n      dup2\n      mstore\n      0x20\n      add\n      swap1\n      dup2\n      mstore\n      0x20\n      add\n      0x00\n      keccak256\n      sload\n        /* \"contracts/SimpleToken.sol\":5964:6002  stakingTimestamp[msg.sender] + 4 weeks */\n      tag_322\n      swap2\n      swap1\n      tag_282\n      jump\t// in\n    tag_322:\n        /* \"contracts/SimpleToken.sol\":5945:5960  block.timestamp */\n      timestamp\n        /* \"contracts/SimpleToken.sol\":5945:6002  block.timestamp >= stakingTimestamp[msg.sender] + 4 weeks */\n      lt\n      iszero\n        /* \"contracts/SimpleToken.sol\":5937:6034  require(block.timestamp >= stakingTimestamp[msg.sender] + 4 weeks, \"Unstake only after 4 weeks.\") */\n      tag_323\n      jumpi\n      mload(0x40)\n      0x08c379a000000000000000000000000000000000000000000000000000000000\n      dup2\n      mstore\n      0x04\n      add\n      tag_324\n      swap1\n      tag_325\n      jump\t// in\n    tag_324:\n      mload(0x40)\n      dup1\n      swap2\n      sub\n      swap1\n      revert\n    tag_323:\n        /* \"contracts/SimpleToken.sol\":6055:6069  uint256 reward */\n      0x00\n        /* \"contracts/SimpleToken.sol\":6072:6106  calculateStakingReward(msg.sender) */\n      tag_326\n        /* \"contracts/SimpleToken.sol\":6095:6105  msg.sender */\n      caller\n        /* \"contracts/SimpleToken.sol\":6072:6094  calculateStakingReward */\n      tag_73\n        /* \"contracts/SimpleToken.sol\":6072:6106  calculateStakingReward(msg.sender) */\n      jump\t// in\n    tag_326:\n        /* \"contracts/SimpleToken.sol\":6055:6106  uint256 reward = calculateStakingReward(msg.sender) */\n      swap1\n      pop\n        /* \"contracts/SimpleToken.sol\":6144:6145  0 */\n      0x00\n        /* \"contracts/SimpleToken.sol\":6117:6129  stakedAmount */\n      0x0e\n        /* \"contracts/SimpleToken.sol\":6117:6141  stakedAmount[msg.sender] */\n      0x00\n        /* \"contracts/SimpleToken.sol\":6130:6140  msg.sender */\n      caller\n        /* \"contracts/SimpleToken.sol\":6117:6141  stakedAmount[msg.sender] */\n      0xffffffffffffffffffffffffffffffffffffffff\n      and\n      0xffffffffffffffffffffffffffffffffffffffff\n      and\n      dup2\n      mstore\n      0x20\n      add\n      swap1\n      dup2\n      mstore\n      0x20\n      add\n      0x00\n      keccak256\n        /* \"contracts/SimpleToken.sol\":6117:6145  stakedAmount[msg.sender] = 0 */\n      dup2\n      swap1\n      sstore\n      pop\n        /* \"contracts/SimpleToken.sol\":6187:6188  0 */\n      0x00\n        /* \"contracts/SimpleToken.sol\":6156:6172  stakingTimestamp */\n      0x0f\n        /* \"contracts/SimpleToken.sol\":6156:6184  stakingTimestamp[msg.sender] */\n      0x00\n        /* \"contracts/SimpleToken.sol\":6173:6183  msg.sender */\n      caller\n        /* \"contracts/SimpleToken.sol\":6156:6184  stakingTimestamp[msg.sender] */\n      0xffffffffffffffffffffffffffffffffffffffff\n      and\n      0xffffffffffffffffffffffffffffffffffffffff\n      and\n      dup2\n      mstore\n      0x20\n      add\n      swap1\n      dup2\n      mstore\n      0x20\n      add\n      0x00\n      keccak256\n        /* \"contracts/SimpleToken.sol\":6156:6188  stakingTimestamp[msg.sender] = 0 */\n      dup2\n      swap1\n      sstore\n      pop\n        /* \"contracts/SimpleToken.sol\":6201:6254  _transfer(address(this), msg.sender, amount + reward) */\n      tag_327\n        /* \"contracts/SimpleToken.sol\":6219:6223  this */\n      address\n        /* \"contracts/SimpleToken.sol\":6226:6236  msg.sender */\n      caller\n        /* \"contracts/SimpleToken.sol\":6247:6253  reward */\n      dup4\n        /* \"contracts/SimpleToken.sol\":6238:6244  amount */\n      dup6\n        /* \"contracts/SimpleToken.sol\":6238:6253  amount + reward */\n      tag_328\n      swap2\n      swap1\n      tag_282\n      jump\t// in\n    tag_328:\n        /* \"contracts/SimpleToken.sol\":6201:6210  _transfer */\n      tag_251\n        /* \"contracts/SimpleToken.sol\":6201:6254  _transfer(address(this), msg.sender, amount + reward) */\n      jump\t// in\n    tag_327:\n        /* \"contracts/SimpleToken.sol\":6285:6295  msg.sender */\n      caller\n        /* \"contracts/SimpleToken.sol\":6270:6312  TokensUnstaked(msg.sender, amount, reward) */\n      0xffffffffffffffffffffffffffffffffffffffff\n      and\n      0x6f2d3e000c89d37446b7c0374c0125068ff316d1e3ee302336478a8cd03c2336\n        /* \"contracts/SimpleToken.sol\":6297:6303  amount */\n      dup4\n        /* \"contracts/SimpleToken.sol\":6305:6311  reward */\n      dup4\n        /* \"contracts/SimpleToken.sol\":6270:6312  TokensUnstaked(msg.sender, amount, reward) */\n      mload(0x40)\n      tag_329\n      swap3\n      swap2\n      swap1\n      tag_330\n      jump\t// in\n    tag_329:\n      mload(0x40)\n      dup1\n      swap2\n      sub\n      swap1\n      log2\n        /* \"contracts/SimpleToken.sol\":5823:6320  {... */\n      pop\n      pop\n        /* \"contracts/SimpleToken.sol\":5789:6320  function unstakeTokens() external {... */\n      jump\t// out\n        /* \"@openzeppelin/contracts/token/ERC20/ERC20.sol\":3315:3493  function transfer(address to, uint256 value) public virtual returns (bool) {... */\n    tag_184:\n        /* \"@openzeppelin/contracts/token/ERC20/ERC20.sol\":3384:3388  bool */\n      0x00\n        /* \"@openzeppelin/contracts/token/ERC20/ERC20.sol\":3400:3413  address owner */\n      dup1\n        /* \"@openzeppelin/contracts/token/ERC20/ERC20.sol\":3416:3428  _msgSender() */\n      tag_332\n        /* \"@openzeppelin/contracts/token/ERC20/ERC20.sol\":3416:3426  _msgSender */\n      tag_233\n        /* \"@openzeppelin/contracts/token/ERC20/ERC20.sol\":3416:3428  _msgSender() */\n      jump\t// in\n    tag_332:\n        /* \"@openzeppelin/contracts/token/ERC20/ERC20.sol\":3400:3428  address owner = _msgSender() */\n      swap1\n      pop\n        /* \"@openzeppelin/contracts/token/ERC20/ERC20.sol\":3438:3465  _transfer(owner, to, value) */\n      tag_333\n        /* \"@openzeppelin/contracts/token/ERC20/ERC20.sol\":3448:3453  owner */\n      dup2\n        /* \"@openzeppelin/contracts/token/ERC20/ERC20.sol\":3455:3457  to */\n      dup6\n        /* \"@openzeppelin/contracts/token/ERC20/ERC20.sol\":3459:3464  value */\n      dup6\n        /* \"@openzeppelin/contracts/token/ERC20/ERC20.sol\":3438:3447  _transfer */\n      tag_251\n        /* \"@openzeppelin/contracts/token/ERC20/ERC20.sol\":3438:3465  _transfer(owner, to, value) */\n      jump\t// in\n    tag_333:\n        /* \"@openzeppelin/contracts/token/ERC20/ERC20.sol\":3482:3486  true */\n      0x01\n        /* \"@openzeppelin/contracts/token/ERC20/ERC20.sol\":3475:3486  return true */\n      swap2\n      pop\n      pop\n        /* \"@openzeppelin/contracts/token/ERC20/ERC20.sol\":3315:3493  function transfer(address to, uint256 value) public virtual returns (bool) {... */\n      swap3\n      swap2\n      pop\n      pop\n      jump\t// out\n        /* \"contracts/SimpleToken.sol\":293:322  uint256 public preSaleEndTime */\n    tag_188:\n      sload(0x07)\n      dup2\n      jump\t// out\n        /* \"contracts/SimpleToken.sol\":764:813  mapping(address => uint256) public referralCounts */\n    tag_193:\n      mstore(0x20, 0x12)\n      dup1\n      0x00\n      mstore\n      keccak256(0x00, 0x40)\n      0x00\n      swap2\n      pop\n      swap1\n      pop\n      sload\n      dup2\n      jump\t// out\n        /* \"contracts/SimpleToken.sol\":4641:5266  function buyTokens() external payable {... */\n    tag_196:\n        /* \"contracts/SimpleToken.sol\":4694:4709  presaleIsActive */\n      0x05\n      0x14\n      swap1\n      sload\n      swap1\n      0x0100\n      exp\n      swap1\n      div\n      0xff\n      and\n        /* \"contracts/SimpleToken.sol\":4686:4730  require(presaleIsActive, \"Sale not active.\") */\n      tag_335\n      jumpi\n      mload(0x40)\n      0x08c379a000000000000000000000000000000000000000000000000000000000\n      dup2\n      mstore\n      0x04\n      add\n      tag_336\n      swap1\n      tag_337\n      jump\t// in\n    tag_336:\n      mload(0x40)\n      dup1\n      swap2\n      sub\n      swap1\n      revert\n    tag_335:\n        /* \"contracts/SimpleToken.sol\":4757:4758  0 */\n      0x00\n        /* \"contracts/SimpleToken.sol\":4745:4754  msg.value */\n      callvalue\n        /* \"contracts/SimpleToken.sol\":4745:4758  msg.value > 0 */\n      gt\n        /* \"contracts/SimpleToken.sol\":4737:4791  require(msg.value > 0, \"Must send ETH to buy tokens.\") */\n      tag_338\n      jumpi\n      mload(0x40)\n      0x08c379a000000000000000000000000000000000000000000000000000000000\n      dup2\n      mstore\n      0x04\n      add\n      tag_339\n      swap1\n      tag_340\n      jump\t// in\n    tag_339:\n      mload(0x40)\n      dup1\n      swap2\n      sub\n      swap1\n      revert\n    tag_338:\n        /* \"contracts/SimpleToken.sol\":4800:4820  uint256 currentPrice */\n      0x00\n        /* \"contracts/SimpleToken.sol\":4823:4839  calculatePrice() */\n      tag_341\n        /* \"contracts/SimpleToken.sol\":4823:4837  calculatePrice */\n      tag_199\n        /* \"contracts/SimpleToken.sol\":4823:4839  calculatePrice() */\n      jump\t// in\n    tag_341:\n        /* \"contracts/SimpleToken.sol\":4800:4839  uint256 currentPrice = calculatePrice() */\n      swap1\n      pop\n        /* \"contracts/SimpleToken.sol\":4884:4903  uint256 tokensToBuy */\n      0x00\n        /* \"contracts/SimpleToken.sol\":4948:4960  currentPrice */\n      dup2\n        /* \"contracts/SimpleToken.sol\":4933:4943  decimals() */\n      tag_342\n        /* \"contracts/SimpleToken.sol\":4933:4941  decimals */\n      tag_106\n        /* \"contracts/SimpleToken.sol\":4933:4943  decimals() */\n      jump\t// in\n    tag_342:\n        /* \"contracts/SimpleToken.sol\":4925:4944  uint256(decimals()) */\n      0xff\n      and\n        /* \"contracts/SimpleToken.sol\":4919:4921  10 */\n      0x0a\n        /* \"contracts/SimpleToken.sol\":4919:4944  10 ** uint256(decimals()) */\n      tag_343\n      swap2\n      swap1\n      tag_344\n      jump\t// in\n    tag_343:\n        /* \"contracts/SimpleToken.sol\":4907:4916  msg.value */\n      callvalue\n        /* \"contracts/SimpleToken.sol\":4907:4944  msg.value * 10 ** uint256(decimals()) */\n      tag_345\n      swap2\n      swap1\n      tag_242\n      jump\t// in\n    tag_345:\n        /* \"contracts/SimpleToken.sol\":4906:4960  (msg.value * 10 ** uint256(decimals())) / currentPrice */\n      tag_346\n      swap2\n      swap1\n      tag_240\n      jump\t// in\n    tag_346:\n        /* \"contracts/SimpleToken.sol\":4884:4960  uint256 tokensToBuy = (msg.value * 10 ** uint256(decimals())) / currentPrice */\n      swap1\n      pop\n        /* \"contracts/SimpleToken.sol\":5003:5014  tokensToBuy */\n      dup1\n        /* \"contracts/SimpleToken.sol\":4975:4999  balanceOf(address(this)) */\n      tag_347\n        /* \"contracts/SimpleToken.sol\":4993:4997  this */\n      address\n        /* \"contracts/SimpleToken.sol\":4975:4984  balanceOf */\n      tag_128\n        /* \"contracts/SimpleToken.sol\":4975:4999  balanceOf(address(this)) */\n      jump\t// in\n    tag_347:\n        /* \"contracts/SimpleToken.sol\":4975:5014  balanceOf(address(this)) >= tokensToBuy */\n      lt\n      iszero\n        /* \"contracts/SimpleToken.sol\":4967:5047  require(balanceOf(address(this)) >= tokensToBuy, \"Not enough tokens available.\") */\n      tag_348\n      jumpi\n      mload(0x40)\n      0x08c379a000000000000000000000000000000000000000000000000000000000\n      dup2\n      mstore\n      0x04\n      add\n      tag_349\n      swap1\n      tag_350\n      jump\t// in\n    tag_349:\n      mload(0x40)\n      dup1\n      swap2\n      sub\n      swap1\n      revert\n    tag_348:\n        /* \"contracts/SimpleToken.sol\":5078:5089  tokensToBuy */\n      dup1\n        /* \"contracts/SimpleToken.sol\":5054:5062  balances */\n      0x13\n        /* \"contracts/SimpleToken.sol\":5054:5074  balances[msg.sender] */\n      0x00\n        /* \"contracts/SimpleToken.sol\":5063:5073  msg.sender */\n      caller\n        /* \"contracts/SimpleToken.sol\":5054:5074  balances[msg.sender] */\n      0xffffffffffffffffffffffffffffffffffffffff\n      and\n      0xffffffffffffffffffffffffffffffffffffffff\n      and\n      dup2\n      mstore\n      0x20\n      add\n      swap1\n      dup2\n      mstore\n      0x20\n      add\n      0x00\n      keccak256\n      0x00\n        /* \"contracts/SimpleToken.sol\":5054:5089  balances[msg.sender] += tokensToBuy */\n      dup3\n      dup3\n      sload\n      tag_351\n      swap2\n      swap1\n      tag_282\n      jump\t// in\n    tag_351:\n      swap3\n      pop\n      pop\n      dup2\n      swap1\n      sstore\n      pop\n        /* \"contracts/SimpleToken.sol\":5096:5145  _transfer(address(this), msg.sender, tokensToBuy) */\n      tag_352\n        /* \"contracts/SimpleToken.sol\":5114:5118  this */\n      address\n        /* \"contracts/SimpleToken.sol\":5121:5131  msg.sender */\n      caller\n        /* \"contracts/SimpleToken.sol\":5133:5144  tokensToBuy */\n      dup4\n        /* \"contracts/SimpleToken.sol\":5096:5105  _transfer */\n      tag_251\n        /* \"contracts/SimpleToken.sol\":5096:5145  _transfer(address(this), msg.sender, tokensToBuy) */\n      jump\t// in\n    tag_352:\n        /* \"contracts/SimpleToken.sol\":5166:5177  tokensToBuy */\n      dup1\n        /* \"contracts/SimpleToken.sol\":5152:5162  tokensSold */\n      0x0b\n      0x00\n        /* \"contracts/SimpleToken.sol\":5152:5177  tokensSold += tokensToBuy */\n      dup3\n      dup3\n      sload\n      tag_353\n      swap2\n      swap1\n      tag_282\n      jump\t// in\n    tag_353:\n      swap3\n      pop\n      pop\n      dup2\n      swap1\n      sstore\n      pop\n        /* \"contracts/SimpleToken.sol\":5215:5225  msg.sender */\n      caller\n        /* \"contracts/SimpleToken.sol\":5191:5239  Transfer(address(this), msg.sender, tokensToBuy) */\n      0xffffffffffffffffffffffffffffffffffffffff\n      and\n        /* \"contracts/SimpleToken.sol\":5208:5212  this */\n      address\n        /* \"contracts/SimpleToken.sol\":5191:5239  Transfer(address(this), msg.sender, tokensToBuy) */\n      0xffffffffffffffffffffffffffffffffffffffff\n      and\n      0xddf252ad1be2c89b69c2b068fc378daa952ba7f163c4a11628f55a4df523b3ef\n        /* \"contracts/SimpleToken.sol\":5227:5238  tokensToBuy */\n      dup4\n        /* \"contracts/SimpleToken.sol\":5191:5239  Transfer(address(this), msg.sender, tokensToBuy) */\n      mload(0x40)\n      tag_354\n      swap2\n      swap1\n      tag_52\n      jump\t// in\n    tag_354:\n      mload(0x40)\n      dup1\n      swap2\n      sub\n      swap1\n      log3\n        /* \"contracts/SimpleToken.sol\":4679:5266  {... */\n      pop\n      pop\n        /* \"contracts/SimpleToken.sol\":4641:5266  function buyTokens() external payable {... */\n      jump\t// out\n        /* \"contracts/SimpleToken.sol\":4188:4564  function calculatePrice() public view returns (uint256) {... */\n    tag_199:\n        /* \"contracts/SimpleToken.sol\":4235:4242  uint256 */\n      0x00\n        /* \"contracts/SimpleToken.sol\":4263:4278  presaleIsActive */\n      0x05\n      0x14\n      swap1\n      sload\n      swap1\n      0x0100\n      exp\n      swap1\n      div\n      0xff\n      and\n        /* \"contracts/SimpleToken.sol\":4255:4306  require(presaleIsActive,\"Pre-sale not started yet\") */\n      tag_356\n      jumpi\n      mload(0x40)\n      0x08c379a000000000000000000000000000000000000000000000000000000000\n      dup2\n      mstore\n      0x04\n      add\n      tag_357\n      swap1\n      tag_358\n      jump\t// in\n    tag_357:\n      mload(0x40)\n      dup1\n      swap2\n      sub\n      swap1\n      revert\n    tag_356:\n        /* \"contracts/SimpleToken.sol\":4340:4354  preSaleEndTime */\n      sload(0x07)\n        /* \"contracts/SimpleToken.sol\":4322:4337  block.timestamp */\n      timestamp\n        /* \"contracts/SimpleToken.sol\":4322:4354  block.timestamp > preSaleEndTime */\n      gt\n        /* \"contracts/SimpleToken.sol\":4317:4406  if ( block.timestamp > preSaleEndTime) {... */\n      iszero\n      tag_359\n      jumpi\n        /* \"contracts/SimpleToken.sol\":4378:4394  regularSalePrice */\n      sload(0x09)\n        /* \"contracts/SimpleToken.sol\":4371:4394  return regularSalePrice */\n      swap1\n      pop\n      jump(tag_355)\n        /* \"contracts/SimpleToken.sol\":4317:4406  if ( block.timestamp > preSaleEndTime) {... */\n    tag_359:\n        /* \"contracts/SimpleToken.sol\":4418:4439  uint256 priceIncrease */\n      0x00\n        /* \"contracts/SimpleToken.sol\":4442:4466  calculatePriceIncrease() */\n      tag_360\n        /* \"contracts/SimpleToken.sol\":4442:4464  calculatePriceIncrease */\n      tag_115\n        /* \"contracts/SimpleToken.sol\":4442:4466  calculatePriceIncrease() */\n      jump\t// in\n    tag_360:\n        /* \"contracts/SimpleToken.sol\":4418:4466  uint256 priceIncrease = calculatePriceIncrease() */\n      swap1\n      pop\n        /* \"contracts/SimpleToken.sol\":4477:4497  uint256 currentPrice */\n      0x00\n        /* \"contracts/SimpleToken.sol\":4513:4526  priceIncrease */\n      dup2\n        /* \"contracts/SimpleToken.sol\":4500:4512  initialPrice */\n      sload(0x08)\n        /* \"contracts/SimpleToken.sol\":4500:4526  initialPrice+priceIncrease */\n      tag_361\n      swap2\n      swap1\n      tag_282\n      jump\t// in\n    tag_361:\n        /* \"contracts/SimpleToken.sol\":4477:4526  uint256 currentPrice = initialPrice+priceIncrease */\n      swap1\n      pop\n        /* \"contracts/SimpleToken.sol\":4544:4556  currentPrice */\n      dup1\n        /* \"contracts/SimpleToken.sol\":4537:4556  return currentPrice */\n      swap3\n      pop\n      pop\n      pop\n        /* \"contracts/SimpleToken.sol\":4188:4564  function calculatePrice() public view returns (uint256) {... */\n    tag_355:\n      swap1\n      jump\t// out\n        /* \"@openzeppelin/contracts/token/ERC20/ERC20.sol\":3551:3691  function allowance(address owner, address spender) public view virtual returns (uint256) {... */\n    tag_205:\n        /* \"@openzeppelin/contracts/token/ERC20/ERC20.sol\":3631:3638  uint256 */\n      0x00\n        /* \"@openzeppelin/contracts/token/ERC20/ERC20.sol\":3657:3668  _allowances */\n      0x01\n        /* \"@openzeppelin/contracts/token/ERC20/ERC20.sol\":3657:3675  _allowances[owner] */\n      0x00\n        /* \"@openzeppelin/contracts/token/ERC20/ERC20.sol\":3669:3674  owner */\n      dup5\n        /* \"@openzeppelin/contracts/token/ERC20/ERC20.sol\":3657:3675  _allowances[owner] */\n      0xffffffffffffffffffffffffffffffffffffffff\n      and\n      0xffffffffffffffffffffffffffffffffffffffff\n      and\n      dup2\n      mstore\n      0x20\n      add\n      swap1\n      dup2\n      mstore\n      0x20\n      add\n      0x00\n      keccak256\n        /* \"@openzeppelin/contracts/token/ERC20/ERC20.sol\":3657:3684  _allowances[owner][spender] */\n      0x00\n        /* \"@openzeppelin/contracts/token/ERC20/ERC20.sol\":3676:3683  spender */\n      dup4\n        /* \"@openzeppelin/contracts/token/ERC20/ERC20.sol\":3657:3684  _allowances[owner][spender] */\n      0xffffffffffffffffffffffffffffffffffffffff\n      and\n      0xffffffffffffffffffffffffffffffffffffffff\n      and\n      dup2\n      mstore\n      0x20\n      add\n      swap1\n      dup2\n      mstore\n      0x20\n      add\n      0x00\n      keccak256\n      sload\n        /* \"@openzeppelin/contracts/token/ERC20/ERC20.sol\":3650:3684  return _allowances[owner][spender] */\n      swap1\n      pop\n        /* \"@openzeppelin/contracts/token/ERC20/ERC20.sol\":3551:3691  function allowance(address owner, address spender) public view virtual returns (uint256) {... */\n      swap3\n      swap2\n      pop\n      pop\n      jump\t// out\n        /* \"@openzeppelin/contracts/access/Ownable.sol\":2543:2758  function transferOwnership(address newOwner) public virtual onlyOwner {... */\n    tag_210:\n        /* \"@openzeppelin/contracts/access/Ownable.sol\":1531:1544  _checkOwner() */\n      tag_364\n        /* \"@openzeppelin/contracts/access/Ownable.sol\":1531:1542  _checkOwner */\n      tag_268\n        /* \"@openzeppelin/contracts/access/Ownable.sol\":1531:1544  _checkOwner() */\n      jump\t// in\n    tag_364:\n        /* \"@openzeppelin/contracts/access/Ownable.sol\":2647:2648  0 */\n      0x00\n        /* \"@openzeppelin/contracts/access/Ownable.sol\":2627:2649  newOwner == address(0) */\n      0xffffffffffffffffffffffffffffffffffffffff\n      and\n        /* \"@openzeppelin/contracts/access/Ownable.sol\":2627:2635  newOwner */\n      dup2\n        /* \"@openzeppelin/contracts/access/Ownable.sol\":2627:2649  newOwner == address(0) */\n      0xffffffffffffffffffffffffffffffffffffffff\n      and\n      sub\n        /* \"@openzeppelin/contracts/access/Ownable.sol\":2623:2714  if (newOwner == address(0)) {... */\n      tag_366\n      jumpi\n        /* \"@openzeppelin/contracts/access/Ownable.sol\":2700:2701  0 */\n      0x00\n        /* \"@openzeppelin/contracts/access/Ownable.sol\":2672:2703  OwnableInvalidOwner(address(0)) */\n      mload(0x40)\n      0x1e4fbdf700000000000000000000000000000000000000000000000000000000\n      dup2\n      mstore\n      0x04\n      add\n      tag_367\n      swap2\n      swap1\n      tag_154\n      jump\t// in\n    tag_367:\n      mload(0x40)\n      dup1\n      swap2\n      sub\n      swap1\n      revert\n        /* \"@openzeppelin/contracts/access/Ownable.sol\":2623:2714  if (newOwner == address(0)) {... */\n    tag_366:\n        /* \"@openzeppelin/contracts/access/Ownable.sol\":2723:2751  _transferOwnership(newOwner) */\n      tag_368\n        /* \"@openzeppelin/contracts/access/Ownable.sol\":2742:2750  newOwner */\n      dup2\n        /* \"@openzeppelin/contracts/access/Ownable.sol\":2723:2741  _transferOwnership */\n      tag_271\n        /* \"@openzeppelin/contracts/access/Ownable.sol\":2723:2751  _transferOwnership(newOwner) */\n      jump\t// in\n    tag_368:\n        /* \"@openzeppelin/contracts/access/Ownable.sol\":2543:2758  function transferOwnership(address newOwner) public virtual onlyOwner {... */\n      pop\n      jump\t// out\n        /* \"contracts/SimpleToken.sol\":473:507  uint256 public preSaleWeeksInWeeks */\n    tag_213:\n      sload(0x0c)\n      dup2\n      jump\t// out\n        /* \"contracts/SimpleToken.sol\":553:600  mapping(address => uint256) public stakedAmount */\n    tag_218:\n      mstore(0x20, 0x0e)\n      dup1\n      0x00\n      mstore\n      keccak256(0x00, 0x40)\n      0x00\n      swap2\n      pop\n      swap1\n      pop\n      sload\n      dup2\n      jump\t// out\n        /* \"contracts/SimpleToken.sol\":3427:3865  function startPreSale(uint256 _startTime, uint256 _durationWeeks) external onlyOwner {... */\n    tag_223:\n        /* \"@openzeppelin/contracts/access/Ownable.sol\":1531:1544  _checkOwner() */\n      tag_370\n        /* \"@openzeppelin/contracts/access/Ownable.sol\":1531:1542  _checkOwner */\n      tag_268\n        /* \"@openzeppelin/contracts/access/Ownable.sol\":1531:1544  _checkOwner() */\n      jump\t// in\n    tag_370:\n        /* \"contracts/SimpleToken.sol\":3630:3640  _startTime */\n      dup2\n        /* \"contracts/SimpleToken.sol\":3611:3627  preSaleStartTime */\n      0x06\n        /* \"contracts/SimpleToken.sol\":3611:3640  preSaleStartTime = _startTime */\n      dup2\n      swap1\n      sstore\n      pop\n        /* \"contracts/SimpleToken.sol\":3705:3712  1 weeks */\n      0x093a80\n        /* \"contracts/SimpleToken.sol\":3688:3702  _durationWeeks */\n      dup2\n        /* \"contracts/SimpleToken.sol\":3688:3712  _durationWeeks * 1 weeks */\n      tag_372\n      swap2\n      swap1\n      tag_242\n      jump\t// in\n    tag_372:\n        /* \"contracts/SimpleToken.sol\":3668:3684  preSaleStartTime */\n      sload(0x06)\n        /* \"contracts/SimpleToken.sol\":3668:3713  preSaleStartTime + (_durationWeeks * 1 weeks) */\n      tag_373\n      swap2\n      swap1\n      tag_282\n      jump\t// in\n    tag_373:\n        /* \"contracts/SimpleToken.sol\":3651:3665  preSaleEndTime */\n      0x07\n        /* \"contracts/SimpleToken.sol\":3651:3713  preSaleEndTime = preSaleStartTime + (_durationWeeks * 1 weeks) */\n      dup2\n      swap1\n      sstore\n      pop\n        /* \"contracts/SimpleToken.sol\":3746:3760  _durationWeeks */\n      dup1\n        /* \"contracts/SimpleToken.sol\":3724:3743  preSaleWeeksInWeeks */\n      0x0c\n        /* \"contracts/SimpleToken.sol\":3724:3760  preSaleWeeksInWeeks = _durationWeeks */\n      dup2\n      swap1\n      sstore\n      pop\n        /* \"contracts/SimpleToken.sol\":3789:3793  true */\n      0x01\n        /* \"contracts/SimpleToken.sol\":3771:3786  presaleIsActive */\n      0x05\n      0x14\n        /* \"contracts/SimpleToken.sol\":3771:3793  presaleIsActive = true */\n      0x0100\n      exp\n      dup2\n      sload\n      dup2\n      0xff\n      mul\n      not\n      and\n      swap1\n      dup4\n      iszero\n      iszero\n      mul\n      or\n      swap1\n      sstore\n      pop\n        /* \"contracts/SimpleToken.sol\":3809:3857  PreSaleStarted(preSaleStartTime, preSaleEndTime) */\n      0x3844853be672b18d859394aa37e05615b95b78e66b4dc37dca98d1db1b05ea7d\n        /* \"contracts/SimpleToken.sol\":3824:3840  preSaleStartTime */\n      sload(0x06)\n        /* \"contracts/SimpleToken.sol\":3842:3856  preSaleEndTime */\n      sload(0x07)\n        /* \"contracts/SimpleToken.sol\":3809:3857  PreSaleStarted(preSaleStartTime, preSaleEndTime) */\n      mload(0x40)\n      tag_374\n      swap3\n      swap2\n      swap1\n      tag_330\n      jump\t// in\n    tag_374:\n      mload(0x40)\n      dup1\n      swap2\n      sub\n      swap1\n      log1\n        /* \"contracts/SimpleToken.sol\":3427:3865  function startPreSale(uint256 _startTime, uint256 _durationWeeks) external onlyOwner {... */\n      pop\n      pop\n      jump\t// out\n        /* \"@openzeppelin/contracts/utils/Context.sol\":656:752  function _msgSender() internal view virtual returns (address) {... */\n    tag_233:\n        /* \"@openzeppelin/contracts/utils/Context.sol\":709:716  address */\n      0x00\n        /* \"@openzeppelin/contracts/utils/Context.sol\":735:745  msg.sender */\n      caller\n        /* \"@openzeppelin/contracts/utils/Context.sol\":728:745  return msg.sender */\n      swap1\n      pop\n        /* \"@openzeppelin/contracts/utils/Context.sol\":656:752  function _msgSender() internal view virtual returns (address) {... */\n      swap1\n      jump\t// out\n        /* \"@openzeppelin/contracts/token/ERC20/ERC20.sol\":8726:8854  function _approve(address owner, address spender, uint256 value) internal {... */\n    tag_235:\n        /* \"@openzeppelin/contracts/token/ERC20/ERC20.sol\":8810:8847  _approve(owner, spender, value, true) */\n      tag_377\n        /* \"@openzeppelin/contracts/token/ERC20/ERC20.sol\":8819:8824  owner */\n      dup4\n        /* \"@openzeppelin/contracts/token/ERC20/ERC20.sol\":8826:8833  spender */\n      dup4\n        /* \"@openzeppelin/contracts/token/ERC20/ERC20.sol\":8835:8840  value */\n      dup4\n        /* \"@openzeppelin/contracts/token/ERC20/ERC20.sol\":8842:8846  true */\n      0x01\n        /* \"@openzeppelin/contracts/token/ERC20/ERC20.sol\":8810:8818  _approve */\n      tag_378\n        /* \"@openzeppelin/contracts/token/ERC20/ERC20.sol\":8810:8847  _approve(owner, spender, value, true) */\n      jump\t// in\n    tag_377:\n        /* \"@openzeppelin/contracts/token/ERC20/ERC20.sol\":8726:8854  function _approve(address owner, address spender, uint256 value) internal {... */\n      pop\n      pop\n      pop\n      jump\t// out\n        /* \"@openzeppelin/contracts/token/ERC20/ERC20.sol\":10415:10891  function _spendAllowance(address owner, address spender, uint256 value) internal virtual {... */\n    tag_249:\n        /* \"@openzeppelin/contracts/token/ERC20/ERC20.sol\":10514:10538  uint256 currentAllowance */\n      0x00\n        /* \"@openzeppelin/contracts/token/ERC20/ERC20.sol\":10541:10566  allowance(owner, spender) */\n      tag_380\n        /* \"@openzeppelin/contracts/token/ERC20/ERC20.sol\":10551:10556  owner */\n      dup5\n        /* \"@openzeppelin/contracts/token/ERC20/ERC20.sol\":10558:10565  spender */\n      dup5\n        /* \"@openzeppelin/contracts/token/ERC20/ERC20.sol\":10541:10550  allowance */\n      tag_205\n        /* \"@openzeppelin/contracts/token/ERC20/ERC20.sol\":10541:10566  allowance(owner, spender) */\n      jump\t// in\n    tag_380:\n        /* \"@openzeppelin/contracts/token/ERC20/ERC20.sol\":10514:10566  uint256 currentAllowance = allowance(owner, spender) */\n      swap1\n      pop\n        /* \"@openzeppelin/contracts/token/ERC20/ERC20.sol\":10599:10616  type(uint256).max */\n      0xffffffffffffffffffffffffffffffffffffffffffffffffffffffffffffffff\n        /* \"@openzeppelin/contracts/token/ERC20/ERC20.sol\":10580:10596  currentAllowance */\n      dup2\n        /* \"@openzeppelin/contracts/token/ERC20/ERC20.sol\":10580:10616  currentAllowance < type(uint256).max */\n      lt\n        /* \"@openzeppelin/contracts/token/ERC20/ERC20.sol\":10576:10885  if (currentAllowance < type(uint256).max) {... */\n      iszero\n      tag_381\n      jumpi\n        /* \"@openzeppelin/contracts/token/ERC20/ERC20.sol\":10655:10660  value */\n      dup2\n        /* \"@openzeppelin/contracts/token/ERC20/ERC20.sol\":10636:10652  currentAllowance */\n      dup2\n        /* \"@openzeppelin/contracts/token/ERC20/ERC20.sol\":10636:10660  currentAllowance < value */\n      lt\n        /* \"@openzeppelin/contracts/token/ERC20/ERC20.sol\":10632:10762  if (currentAllowance < value) {... */\n      iszero\n      tag_382\n      jumpi\n        /* \"@openzeppelin/contracts/token/ERC20/ERC20.sol\":10714:10721  spender */\n      dup3\n        /* \"@openzeppelin/contracts/token/ERC20/ERC20.sol\":10723:10739  currentAllowance */\n      dup2\n        /* \"@openzeppelin/contracts/token/ERC20/ERC20.sol\":10741:10746  value */\n      dup4\n        /* \"@openzeppelin/contracts/token/ERC20/ERC20.sol\":10687:10747  ERC20InsufficientAllowance(spender, currentAllowance, value) */\n      mload(0x40)\n      0xfb8f41b200000000000000000000000000000000000000000000000000000000\n      dup2\n      mstore\n      0x04\n      add\n      tag_383\n      swap4\n      swap3\n      swap2\n      swap1\n      tag_384\n      jump\t// in\n    tag_383:\n      mload(0x40)\n      dup1\n      swap2\n      sub\n      swap1\n      revert\n        /* \"@openzeppelin/contracts/token/ERC20/ERC20.sol\":10632:10762  if (currentAllowance < value) {... */\n    tag_382:\n        /* \"@openzeppelin/contracts/token/ERC20/ERC20.sol\":10803:10860  _approve(owner, spender, currentAllowance - value, false) */\n      tag_385\n        /* \"@openzeppelin/contracts/token/ERC20/ERC20.sol\":10812:10817  owner */\n      dup5\n        /* \"@openzeppelin/contracts/token/ERC20/ERC20.sol\":10819:10826  spender */\n      dup5\n        /* \"@openzeppelin/contracts/token/ERC20/ERC20.sol\":10847:10852  value */\n      dup5\n        /* \"@openzeppelin/contracts/token/ERC20/ERC20.sol\":10828:10844  currentAllowance */\n      dup5\n        /* \"@openzeppelin/contracts/token/ERC20/ERC20.sol\":10828:10852  currentAllowance - value */\n      sub\n        /* \"@openzeppelin/contracts/token/ERC20/ERC20.sol\":10854:10859  false */\n      0x00\n        /* \"@openzeppelin/contracts/token/ERC20/ERC20.sol\":10803:10811  _approve */\n      tag_378\n        /* \"@openzeppelin/contracts/token/ERC20/ERC20.sol\":10803:10860  _approve(owner, spender, currentAllowance - value, false) */\n      jump\t// in\n    tag_385:\n        /* \"@openzeppelin/contracts/token/ERC20/ERC20.sol\":10576:10885  if (currentAllowance < type(uint256).max) {... */\n    tag_381:\n        /* \"@openzeppelin/contracts/token/ERC20/ERC20.sol\":10504:10891  {... */\n      pop\n        /* \"@openzeppelin/contracts/token/ERC20/ERC20.sol\":10415:10891  function _spendAllowance(address owner, address spender, uint256 value) internal virtual {... */\n      pop\n      pop\n      pop\n      jump\t// out\n        /* \"@openzeppelin/contracts/token/ERC20/ERC20.sol\":5393:5693  function _transfer(address from, address to, uint256 value) internal {... */\n    tag_251:\n        /* \"@openzeppelin/contracts/token/ERC20/ERC20.sol\":5492:5493  0 */\n      0x00\n        /* \"@openzeppelin/contracts/token/ERC20/ERC20.sol\":5476:5494  from == address(0) */\n      0xffffffffffffffffffffffffffffffffffffffff\n      and\n        /* \"@openzeppelin/contracts/token/ERC20/ERC20.sol\":5476:5480  from */\n      dup4\n        /* \"@openzeppelin/contracts/token/ERC20/ERC20.sol\":5476:5494  from == address(0) */\n      0xffffffffffffffffffffffffffffffffffffffff\n      and\n      sub\n        /* \"@openzeppelin/contracts/token/ERC20/ERC20.sol\":5472:5558  if (from == address(0)) {... */\n      tag_387\n      jumpi\n        /* \"@openzeppelin/contracts/token/ERC20/ERC20.sol\":5544:5545  0 */\n      0x00\n        /* \"@openzeppelin/contracts/token/ERC20/ERC20.sol\":5517:5547  ERC20InvalidSender(address(0)) */\n      mload(0x40)\n      0x96c6fd1e00000000000000000000000000000000000000000000000000000000\n      dup2\n      mstore\n      0x04\n      add\n      tag_388\n      swap2\n      swap1\n      tag_154\n      jump\t// in\n    tag_388:\n      mload(0x40)\n      dup1\n      swap2\n      sub\n      swap1\n      revert\n        /* \"@openzeppelin/contracts/token/ERC20/ERC20.sol\":5472:5558  if (from == address(0)) {... */\n    tag_387:\n        /* \"@openzeppelin/contracts/token/ERC20/ERC20.sol\":5585:5586  0 */\n      0x00\n        /* \"@openzeppelin/contracts/token/ERC20/ERC20.sol\":5571:5587  to == address(0) */\n      0xffffffffffffffffffffffffffffffffffffffff\n      and\n        /* \"@openzeppelin/contracts/token/ERC20/ERC20.sol\":5571:5573  to */\n      dup3\n        /* \"@openzeppelin/contracts/token/ERC20/ERC20.sol\":5571:5587  to == address(0) */\n      0xffffffffffffffffffffffffffffffffffffffff\n      and\n      sub\n        /* \"@openzeppelin/contracts/token/ERC20/ERC20.sol\":5567:5653  if (to == address(0)) {... */\n      tag_389\n      jumpi\n        /* \"@openzeppelin/contracts/token/ERC20/ERC20.sol\":5639:5640  0 */\n      0x00\n        /* \"@openzeppelin/contracts/token/ERC20/ERC20.sol\":5610:5642  ERC20InvalidReceiver(address(0)) */\n      mload(0x40)\n      0xec442f0500000000000000000000000000000000000000000000000000000000\n      dup2\n      mstore\n      0x04\n      add\n      tag_390\n      swap2\n      swap1\n      tag_154\n      jump\t// in\n    tag_390:\n      mload(0x40)\n      dup1\n      swap2\n      sub\n      swap1\n      revert\n        /* \"@openzeppelin/contracts/token/ERC20/ERC20.sol\":5567:5653  if (to == address(0)) {... */\n    tag_389:\n        /* \"@openzeppelin/contracts/token/ERC20/ERC20.sol\":5662:5686  _update(from, to, value) */\n      tag_391\n        /* \"@openzeppelin/contracts/token/ERC20/ERC20.sol\":5670:5674  from */\n      dup4\n        /* \"@openzeppelin/contracts/token/ERC20/ERC20.sol\":5676:5678  to */\n      dup4\n        /* \"@openzeppelin/contracts/token/ERC20/ERC20.sol\":5680:5685  value */\n      dup4\n        /* \"@openzeppelin/contracts/token/ERC20/ERC20.sol\":5662:5669  _update */\n      tag_392\n        /* \"@openzeppelin/contracts/token/ERC20/ERC20.sol\":5662:5686  _update(from, to, value) */\n      jump\t// in\n    tag_391:\n        /* \"@openzeppelin/contracts/token/ERC20/ERC20.sol\":5393:5693  function _transfer(address from, address to, uint256 value) internal {... */\n      pop\n      pop\n      pop\n      jump\t// out\n        /* \"@openzeppelin/contracts/access/Ownable.sol\":1796:1958  function _checkOwner() internal view virtual {... */\n    tag_268:\n        /* \"@openzeppelin/contracts/access/Ownable.sol\":1866:1878  _msgSender() */\n      tag_394\n        /* \"@openzeppelin/contracts/access/Ownable.sol\":1866:1876  _msgSender */\n      tag_233\n        /* \"@openzeppelin/contracts/access/Ownable.sol\":1866:1878  _msgSender() */\n      jump\t// in\n    tag_394:\n        /* \"@openzeppelin/contracts/access/Ownable.sol\":1855:1878  owner() != _msgSender() */\n      0xffffffffffffffffffffffffffffffffffffffff\n      and\n        /* \"@openzeppelin/contracts/access/Ownable.sol\":1855:1862  owner() */\n      tag_395\n        /* \"@openzeppelin/contracts/access/Ownable.sol\":1855:1860  owner */\n      tag_152\n        /* \"@openzeppelin/contracts/access/Ownable.sol\":1855:1862  owner() */\n      jump\t// in\n    tag_395:\n        /* \"@openzeppelin/contracts/access/Ownable.sol\":1855:1878  owner() != _msgSender() */\n      0xffffffffffffffffffffffffffffffffffffffff\n      and\n      eq\n        /* \"@openzeppelin/contracts/access/Ownable.sol\":1851:1952  if (owner() != _msgSender()) {... */\n      tag_396\n      jumpi\n        /* \"@openzeppelin/contracts/access/Ownable.sol\":1928:1940  _msgSender() */\n      tag_397\n        /* \"@openzeppelin/contracts/access/Ownable.sol\":1928:1938  _msgSender */\n      tag_233\n        /* \"@openzeppelin/contracts/access/Ownable.sol\":1928:1940  _msgSender() */\n      jump\t// in\n    tag_397:\n        /* \"@openzeppelin/contracts/access/Ownable.sol\":1901:1941  OwnableUnauthorizedAccount(_msgSender()) */\n      mload(0x40)\n      0x118cdaa700000000000000000000000000000000000000000000000000000000\n      dup2\n      mstore\n      0x04\n      add\n      tag_398\n      swap2\n      swap1\n      tag_154\n      jump\t// in\n    tag_398:\n      mload(0x40)\n      dup1\n      swap2\n      sub\n      swap1\n      revert\n        /* \"@openzeppelin/contracts/access/Ownable.sol\":1851:1952  if (owner() != _msgSender()) {... */\n    tag_396:\n        /* \"@openzeppelin/contracts/access/Ownable.sol\":1796:1958  function _checkOwner() internal view virtual {... */\n      jump\t// out\n        /* \"@openzeppelin/contracts/access/Ownable.sol\":2912:3099  function _transferOwnership(address newOwner) internal virtual {... */\n    tag_271:\n        /* \"@openzeppelin/contracts/access/Ownable.sol\":2985:3001  address oldOwner */\n      0x00\n        /* \"@openzeppelin/contracts/access/Ownable.sol\":3004:3010  _owner */\n      0x05\n      0x00\n      swap1\n      sload\n      swap1\n      0x0100\n      exp\n      swap1\n      div\n      0xffffffffffffffffffffffffffffffffffffffff\n      and\n        /* \"@openzeppelin/contracts/access/Ownable.sol\":2985:3010  address oldOwner = _owner */\n      swap1\n      pop\n        /* \"@openzeppelin/contracts/access/Ownable.sol\":3029:3037  newOwner */\n      dup2\n        /* \"@openzeppelin/contracts/access/Ownable.sol\":3020:3026  _owner */\n      0x05\n      0x00\n        /* \"@openzeppelin/contracts/access/Ownable.sol\":3020:3037  _owner = newOwner */\n      0x0100\n      exp\n      dup2\n      sload\n      dup2\n      0xffffffffffffffffffffffffffffffffffffffff\n      mul\n      not\n      and\n      swap1\n      dup4\n      0xffffffffffffffffffffffffffffffffffffffff\n      and\n      mul\n      or\n      swap1\n      sstore\n      pop\n        /* \"@openzeppelin/contracts/access/Ownable.sol\":3083:3091  newOwner */\n      dup2\n        /* \"@openzeppelin/contracts/access/Ownable.sol\":3052:3092  OwnershipTransferred(oldOwner, newOwner) */\n      0xffffffffffffffffffffffffffffffffffffffff\n      and\n        /* \"@openzeppelin/contracts/access/Ownable.sol\":3073:3081  oldOwner */\n      dup2\n        /* \"@openzeppelin/contracts/access/Ownable.sol\":3052:3092  OwnershipTransferred(oldOwner, newOwner) */\n      0xffffffffffffffffffffffffffffffffffffffff\n      and\n      0x8be0079c531659141344cd1fd0a4f28419497f9722a3daafe3b4186f6b6457e0\n      mload(0x40)\n      mload(0x40)\n      dup1\n      swap2\n      sub\n      swap1\n      log3\n        /* \"@openzeppelin/contracts/access/Ownable.sol\":2975:3099  {... */\n      pop\n        /* \"@openzeppelin/contracts/access/Ownable.sol\":2912:3099  function _transferOwnership(address newOwner) internal virtual {... */\n      pop\n      jump\t// out\n        /* \"@openzeppelin/contracts/token/ERC20/ERC20.sol\":7458:7666  function _mint(address account, uint256 value) internal {... */\n    tag_293:\n        /* \"@openzeppelin/contracts/token/ERC20/ERC20.sol\":7547:7548  0 */\n      0x00\n        /* \"@openzeppelin/contracts/token/ERC20/ERC20.sol\":7528:7549  account == address(0) */\n      0xffffffffffffffffffffffffffffffffffffffff\n      and\n        /* \"@openzeppelin/contracts/token/ERC20/ERC20.sol\":7528:7535  account */\n      dup3\n        /* \"@openzeppelin/contracts/token/ERC20/ERC20.sol\":7528:7549  account == address(0) */\n      0xffffffffffffffffffffffffffffffffffffffff\n      and\n      sub\n        /* \"@openzeppelin/contracts/token/ERC20/ERC20.sol\":7524:7615  if (account == address(0)) {... */\n      tag_401\n      jumpi\n        /* \"@openzeppelin/contracts/token/ERC20/ERC20.sol\":7601:7602  0 */\n      0x00\n        /* \"@openzeppelin/contracts/token/ERC20/ERC20.sol\":7572:7604  ERC20InvalidReceiver(address(0)) */\n      mload(0x40)\n      0xec442f0500000000000000000000000000000000000000000000000000000000\n      dup2\n      mstore\n      0x04\n      add\n      tag_402\n      swap2\n      swap1\n      tag_154\n      jump\t// in\n    tag_402:\n      mload(0x40)\n      dup1\n      swap2\n      sub\n      swap1\n      revert\n        /* \"@openzeppelin/contracts/token/ERC20/ERC20.sol\":7524:7615  if (account == address(0)) {... */\n    tag_401:\n        /* \"@openzeppelin/contracts/token/ERC20/ERC20.sol\":7624:7659  _update(address(0), account, value) */\n      tag_403\n        /* \"@openzeppelin/contracts/token/ERC20/ERC20.sol\":7640:7641  0 */\n      0x00\n        /* \"@openzeppelin/contracts/token/ERC20/ERC20.sol\":7644:7651  account */\n      dup4\n        /* \"@openzeppelin/contracts/token/ERC20/ERC20.sol\":7653:7658  value */\n      dup4\n        /* \"@openzeppelin/contracts/token/ERC20/ERC20.sol\":7624:7631  _update */\n      tag_392\n        /* \"@openzeppelin/contracts/token/ERC20/ERC20.sol\":7624:7659  _update(address(0), account, value) */\n      jump\t// in\n    tag_403:\n        /* \"@openzeppelin/contracts/token/ERC20/ERC20.sol\":7458:7666  function _mint(address account, uint256 value) internal {... */\n      pop\n      pop\n      jump\t// out\n        /* \"@openzeppelin/contracts/token/ERC20/ERC20.sol\":9701:10133  function _approve(address owner, address spender, uint256 value, bool emitEvent) internal virtual {... */\n    tag_378:\n        /* \"@openzeppelin/contracts/token/ERC20/ERC20.sol\":9830:9831  0 */\n      0x00\n        /* \"@openzeppelin/contracts/token/ERC20/ERC20.sol\":9813:9832  owner == address(0) */\n      0xffffffffffffffffffffffffffffffffffffffff\n      and\n        /* \"@openzeppelin/contracts/token/ERC20/ERC20.sol\":9813:9818  owner */\n      dup5\n        /* \"@openzeppelin/contracts/token/ERC20/ERC20.sol\":9813:9832  owner == address(0) */\n      0xffffffffffffffffffffffffffffffffffffffff\n      and\n      sub\n        /* \"@openzeppelin/contracts/token/ERC20/ERC20.sol\":9809:9898  if (owner == address(0)) {... */\n      tag_405\n      jumpi\n        /* \"@openzeppelin/contracts/token/ERC20/ERC20.sol\":9884:9885  0 */\n      0x00\n        /* \"@openzeppelin/contracts/token/ERC20/ERC20.sol\":9855:9887  ERC20InvalidApprover(address(0)) */\n      mload(0x40)\n      0xe602df0500000000000000000000000000000000000000000000000000000000\n      dup2\n      mstore\n      0x04\n      add\n      tag_406\n      swap2\n      swap1\n      tag_154\n      jump\t// in\n    tag_406:\n      mload(0x40)\n      dup1\n      swap2\n      sub\n      swap1\n      revert\n        /* \"@openzeppelin/contracts/token/ERC20/ERC20.sol\":9809:9898  if (owner == address(0)) {... */\n    tag_405:\n        /* \"@openzeppelin/contracts/token/ERC20/ERC20.sol\":9930:9931  0 */\n      0x00\n        /* \"@openzeppelin/contracts/token/ERC20/ERC20.sol\":9911:9932  spender == address(0) */\n      0xffffffffffffffffffffffffffffffffffffffff\n      and\n        /* \"@openzeppelin/contracts/token/ERC20/ERC20.sol\":9911:9918  spender */\n      dup4\n        /* \"@openzeppelin/contracts/token/ERC20/ERC20.sol\":9911:9932  spender == address(0) */\n      0xffffffffffffffffffffffffffffffffffffffff\n      and\n      sub\n        /* \"@openzeppelin/contracts/token/ERC20/ERC20.sol\":9907:9997  if (spender == address(0)) {... */\n      tag_407\n      jumpi\n        /* \"@openzeppelin/contracts/token/ERC20/ERC20.sol\":9983:9984  0 */\n      0x00\n        /* \"@openzeppelin/contracts/token/ERC20/ERC20.sol\":9955:9986  ERC20InvalidSpender(address(0)) */\n      mload(0x40)\n      0x94280d6200000000000000000000000000000000000000000000000000000000\n      dup2\n      mstore\n      0x04\n      add\n      tag_408\n      swap2\n      swap1\n      tag_154\n      jump\t// in\n    tag_408:\n      mload(0x40)\n      dup1\n      swap2\n      sub\n      swap1\n      revert\n        /* \"@openzeppelin/contracts/token/ERC20/ERC20.sol\":9907:9997  if (spender == address(0)) {... */\n    tag_407:\n        /* \"@openzeppelin/contracts/token/ERC20/ERC20.sol\":10036:10041  value */\n      dup2\n        /* \"@openzeppelin/contracts/token/ERC20/ERC20.sol\":10006:10017  _allowances */\n      0x01\n        /* \"@openzeppelin/contracts/token/ERC20/ERC20.sol\":10006:10024  _allowances[owner] */\n      0x00\n        /* \"@openzeppelin/contracts/token/ERC20/ERC20.sol\":10018:10023  owner */\n      dup7\n        /* \"@openzeppelin/contracts/token/ERC20/ERC20.sol\":10006:10024  _allowances[owner] */\n      0xffffffffffffffffffffffffffffffffffffffff\n      and\n      0xffffffffffffffffffffffffffffffffffffffff\n      and\n      dup2\n      mstore\n      0x20\n      add\n      swap1\n      dup2\n      mstore\n      0x20\n      add\n      0x00\n      keccak256\n        /* \"@openzeppelin/contracts/token/ERC20/ERC20.sol\":10006:10033  _allowances[owner][spender] */\n      0x00\n        /* \"@openzeppelin/contracts/token/ERC20/ERC20.sol\":10025:10032  spender */\n      dup6\n        /* \"@openzeppelin/contracts/token/ERC20/ERC20.sol\":10006:10033  _allowances[owner][spender] */\n      0xffffffffffffffffffffffffffffffffffffffff\n      and\n      0xffffffffffffffffffffffffffffffffffffffff\n      and\n      dup2\n      mstore\n      0x20\n      add\n      swap1\n      dup2\n      mstore\n      0x20\n      add\n      0x00\n      keccak256\n        /* \"@openzeppelin/contracts/token/ERC20/ERC20.sol\":10006:10041  _allowances[owner][spender] = value */\n      dup2\n      swap1\n      sstore\n      pop\n        /* \"@openzeppelin/contracts/token/ERC20/ERC20.sol\":10055:10064  emitEvent */\n      dup1\n        /* \"@openzeppelin/contracts/token/ERC20/ERC20.sol\":10051:10127  if (emitEvent) {... */\n      iszero\n      tag_409\n      jumpi\n        /* \"@openzeppelin/contracts/token/ERC20/ERC20.sol\":10101:10108  spender */\n      dup3\n        /* \"@openzeppelin/contracts/token/ERC20/ERC20.sol\":10085:10116  Approval(owner, spender, value) */\n      0xffffffffffffffffffffffffffffffffffffffff\n      and\n        /* \"@openzeppelin/contracts/token/ERC20/ERC20.sol\":10094:10099  owner */\n      dup5\n        /* \"@openzeppelin/contracts/token/ERC20/ERC20.sol\":10085:10116  Approval(owner, spender, value) */\n      0xffffffffffffffffffffffffffffffffffffffff\n      and\n      0x8c5be1e5ebec7d5bd14f71427d1e84f3dd0314c0f7b2291e5b200ac8c7c3b925\n        /* \"@openzeppelin/contracts/token/ERC20/ERC20.sol\":10110:10115  value */\n      dup5\n        /* \"@openzeppelin/contracts/token/ERC20/ERC20.sol\":10085:10116  Approval(owner, spender, value) */\n      mload(0x40)\n      tag_410\n      swap2\n      swap1\n      tag_52\n      jump\t// in\n    tag_410:\n      mload(0x40)\n      dup1\n      swap2\n      sub\n      swap1\n      log3\n        /* \"@openzeppelin/contracts/token/ERC20/ERC20.sol\":10051:10127  if (emitEvent) {... */\n    tag_409:\n        /* \"@openzeppelin/contracts/token/ERC20/ERC20.sol\":9701:10133  function _approve(address owner, address spender, uint256 value, bool emitEvent) internal virtual {... */\n      pop\n      pop\n      pop\n      pop\n      jump\t// out\n        /* \"@openzeppelin/contracts/token/ERC20/ERC20.sol\":6008:7115  function _update(address from, address to, uint256 value) internal virtual {... */\n    tag_392:\n        /* \"@openzeppelin/contracts/token/ERC20/ERC20.sol\":6113:6114  0 */\n      0x00\n        /* \"@openzeppelin/contracts/token/ERC20/ERC20.sol\":6097:6115  from == address(0) */\n      0xffffffffffffffffffffffffffffffffffffffff\n      and\n        /* \"@openzeppelin/contracts/token/ERC20/ERC20.sol\":6097:6101  from */\n      dup4\n        /* \"@openzeppelin/contracts/token/ERC20/ERC20.sol\":6097:6115  from == address(0) */\n      0xffffffffffffffffffffffffffffffffffffffff\n      and\n      sub\n        /* \"@openzeppelin/contracts/token/ERC20/ERC20.sol\":6093:6633  if (from == address(0)) {... */\n      tag_412\n      jumpi\n        /* \"@openzeppelin/contracts/token/ERC20/ERC20.sol\":6249:6254  value */\n      dup1\n        /* \"@openzeppelin/contracts/token/ERC20/ERC20.sol\":6233:6245  _totalSupply */\n      0x02\n      0x00\n        /* \"@openzeppelin/contracts/token/ERC20/ERC20.sol\":6233:6254  _totalSupply += value */\n      dup3\n      dup3\n      sload\n      tag_413\n      swap2\n      swap1\n      tag_282\n      jump\t// in\n    tag_413:\n      swap3\n      pop\n      pop\n      dup2\n      swap1\n      sstore\n      pop\n        /* \"@openzeppelin/contracts/token/ERC20/ERC20.sol\":6093:6633  if (from == address(0)) {... */\n      jump(tag_414)\n    tag_412:\n        /* \"@openzeppelin/contracts/token/ERC20/ERC20.sol\":6285:6304  uint256 fromBalance */\n      0x00\n        /* \"@openzeppelin/contracts/token/ERC20/ERC20.sol\":6307:6316  _balances */\n      dup1\n        /* \"@openzeppelin/contracts/token/ERC20/ERC20.sol\":6307:6322  _balances[from] */\n      0x00\n        /* \"@openzeppelin/contracts/token/ERC20/ERC20.sol\":6317:6321  from */\n      dup6\n        /* \"@openzeppelin/contracts/token/ERC20/ERC20.sol\":6307:6322  _balances[from] */\n      0xffffffffffffffffffffffffffffffffffffffff\n      and\n      0xffffffffffffffffffffffffffffffffffffffff\n      and\n      dup2\n      mstore\n      0x20\n      add\n      swap1\n      dup2\n      mstore\n      0x20\n      add\n      0x00\n      keccak256\n      sload\n        /* \"@openzeppelin/contracts/token/ERC20/ERC20.sol\":6285:6322  uint256 fromBalance = _balances[from] */\n      swap1\n      pop\n        /* \"@openzeppelin/contracts/token/ERC20/ERC20.sol\":6354:6359  value */\n      dup2\n        /* \"@openzeppelin/contracts/token/ERC20/ERC20.sol\":6340:6351  fromBalance */\n      dup2\n        /* \"@openzeppelin/contracts/token/ERC20/ERC20.sol\":6340:6359  fromBalance < value */\n      lt\n        /* \"@openzeppelin/contracts/token/ERC20/ERC20.sol\":6336:6451  if (fromBalance < value) {... */\n      iszero\n      tag_415\n      jumpi\n        /* \"@openzeppelin/contracts/token/ERC20/ERC20.sol\":6411:6415  from */\n      dup4\n        /* \"@openzeppelin/contracts/token/ERC20/ERC20.sol\":6417:6428  fromBalance */\n      dup2\n        /* \"@openzeppelin/contracts/token/ERC20/ERC20.sol\":6430:6435  value */\n      dup4\n        /* \"@openzeppelin/contracts/token/ERC20/ERC20.sol\":6386:6436  ERC20InsufficientBalance(from, fromBalance, value) */\n      mload(0x40)\n      0xe450d38c00000000000000000000000000000000000000000000000000000000\n      dup2\n      mstore\n      0x04\n      add\n      tag_416\n      swap4\n      swap3\n      swap2\n      swap1\n      tag_384\n      jump\t// in\n    tag_416:\n      mload(0x40)\n      dup1\n      swap2\n      sub\n      swap1\n      revert\n        /* \"@openzeppelin/contracts/token/ERC20/ERC20.sol\":6336:6451  if (fromBalance < value) {... */\n    tag_415:\n        /* \"@openzeppelin/contracts/token/ERC20/ERC20.sol\":6603:6608  value */\n      dup2\n        /* \"@openzeppelin/contracts/token/ERC20/ERC20.sol\":6589:6600  fromBalance */\n      dup2\n        /* \"@openzeppelin/contracts/token/ERC20/ERC20.sol\":6589:6608  fromBalance - value */\n      sub\n        /* \"@openzeppelin/contracts/token/ERC20/ERC20.sol\":6571:6580  _balances */\n      0x00\n        /* \"@openzeppelin/contracts/token/ERC20/ERC20.sol\":6571:6586  _balances[from] */\n      dup1\n        /* \"@openzeppelin/contracts/token/ERC20/ERC20.sol\":6581:6585  from */\n      dup7\n        /* \"@openzeppelin/contracts/token/ERC20/ERC20.sol\":6571:6586  _balances[from] */\n      0xffffffffffffffffffffffffffffffffffffffff\n      and\n      0xffffffffffffffffffffffffffffffffffffffff\n      and\n      dup2\n      mstore\n      0x20\n      add\n      swap1\n      dup2\n      mstore\n      0x20\n      add\n      0x00\n      keccak256\n        /* \"@openzeppelin/contracts/token/ERC20/ERC20.sol\":6571:6608  _balances[from] = fromBalance - value */\n      dup2\n      swap1\n      sstore\n      pop\n        /* \"@openzeppelin/contracts/token/ERC20/ERC20.sol\":6271:6633  {... */\n      pop\n        /* \"@openzeppelin/contracts/token/ERC20/ERC20.sol\":6093:6633  if (from == address(0)) {... */\n    tag_414:\n        /* \"@openzeppelin/contracts/token/ERC20/ERC20.sol\":6661:6662  0 */\n      0x00\n        /* \"@openzeppelin/contracts/token/ERC20/ERC20.sol\":6647:6663  to == address(0) */\n      0xffffffffffffffffffffffffffffffffffffffff\n      and\n        /* \"@openzeppelin/contracts/token/ERC20/ERC20.sol\":6647:6649  to */\n      dup3\n        /* \"@openzeppelin/contracts/token/ERC20/ERC20.sol\":6647:6663  to == address(0) */\n      0xffffffffffffffffffffffffffffffffffffffff\n      and\n      sub\n        /* \"@openzeppelin/contracts/token/ERC20/ERC20.sol\":6643:7068  if (to == address(0)) {... */\n      tag_417\n      jumpi\n        /* \"@openzeppelin/contracts/token/ERC20/ERC20.sol\":6826:6831  value */\n      dup1\n        /* \"@openzeppelin/contracts/token/ERC20/ERC20.sol\":6810:6822  _totalSupply */\n      0x02\n      0x00\n        /* \"@openzeppelin/contracts/token/ERC20/ERC20.sol\":6810:6831  _totalSupply -= value */\n      dup3\n      dup3\n      sload\n      sub\n      swap3\n      pop\n      pop\n      dup2\n      swap1\n      sstore\n      pop\n        /* \"@openzeppelin/contracts/token/ERC20/ERC20.sol\":6643:7068  if (to == address(0)) {... */\n      jump(tag_418)\n    tag_417:\n        /* \"@openzeppelin/contracts/token/ERC20/ERC20.sol\":7038:7043  value */\n      dup1\n        /* \"@openzeppelin/contracts/token/ERC20/ERC20.sol\":7021:7030  _balances */\n      0x00\n        /* \"@openzeppelin/contracts/token/ERC20/ERC20.sol\":7021:7034  _balances[to] */\n      dup1\n        /* \"@openzeppelin/contracts/token/ERC20/ERC20.sol\":7031:7033  to */\n      dup5\n        /* \"@openzeppelin/contracts/token/ERC20/ERC20.sol\":7021:7034  _balances[to] */\n      0xffffffffffffffffffffffffffffffffffffffff\n      and\n      0xffffffffffffffffffffffffffffffffffffffff\n      and\n      dup2\n      mstore\n      0x20\n      add\n      swap1\n      dup2\n      mstore\n      0x20\n      add\n      0x00\n      keccak256\n      0x00\n        /* \"@openzeppelin/contracts/token/ERC20/ERC20.sol\":7021:7043  _balances[to] += value */\n      dup3\n      dup3\n      sload\n      add\n      swap3\n      pop\n      pop\n      dup2\n      swap1\n      sstore\n      pop\n        /* \"@openzeppelin/contracts/token/ERC20/ERC20.sol\":6643:7068  if (to == address(0)) {... */\n    tag_418:\n        /* \"@openzeppelin/contracts/token/ERC20/ERC20.sol\":7098:7100  to */\n      dup2\n        /* \"@openzeppelin/contracts/token/ERC20/ERC20.sol\":7083:7108  Transfer(from, to, value) */\n      0xffffffffffffffffffffffffffffffffffffffff\n      and\n        /* \"@openzeppelin/contracts/token/ERC20/ERC20.sol\":7092:7096  from */\n      dup4\n        /* \"@openzeppelin/contracts/token/ERC20/ERC20.sol\":7083:7108  Transfer(from, to, value) */\n      0xffffffffffffffffffffffffffffffffffffffff\n      and\n      0xddf252ad1be2c89b69c2b068fc378daa952ba7f163c4a11628f55a4df523b3ef\n        /* \"@openzeppelin/contracts/token/ERC20/ERC20.sol\":7102:7107  value */\n      dup4\n        /* \"@openzeppelin/contracts/token/ERC20/ERC20.sol\":7083:7108  Transfer(from, to, value) */\n      mload(0x40)\n      tag_419\n      swap2\n      swap1\n      tag_52\n      jump\t// in\n    tag_419:\n      mload(0x40)\n      dup1\n      swap2\n      sub\n      swap1\n      log3\n        /* \"@openzeppelin/contracts/token/ERC20/ERC20.sol\":6008:7115  function _update(address from, address to, uint256 value) internal virtual {... */\n      pop\n      pop\n      pop\n      jump\t// out\n        /* \"#utility.yul\":7:84   */\n    tag_420:\n        /* \"#utility.yul\":44:51   */\n      0x00\n        /* \"#utility.yul\":73:78   */\n      dup2\n        /* \"#utility.yul\":62:78   */\n      swap1\n      pop\n        /* \"#utility.yul\":7:84   */\n      swap2\n      swap1\n      pop\n      jump\t// out\n        /* \"#utility.yul\":90:208   */\n    tag_421:\n        /* \"#utility.yul\":177:201   */\n      tag_476\n        /* \"#utility.yul\":195:200   */\n      dup2\n        /* \"#utility.yul\":177:201   */\n      tag_420\n      jump\t// in\n    tag_476:\n        /* \"#utility.yul\":172:175   */\n      dup3\n        /* \"#utility.yul\":165:202   */\n      mstore\n        /* \"#utility.yul\":90:208   */\n      pop\n      pop\n      jump\t// out\n        /* \"#utility.yul\":214:436   */\n    tag_52:\n        /* \"#utility.yul\":307:311   */\n      0x00\n        /* \"#utility.yul\":345:347   */\n      0x20\n        /* \"#utility.yul\":334:343   */\n      dup3\n        /* \"#utility.yul\":330:348   */\n      add\n        /* \"#utility.yul\":322:348   */\n      swap1\n      pop\n        /* \"#utility.yul\":358:429   */\n      tag_478\n        /* \"#utility.yul\":426:427   */\n      0x00\n        /* \"#utility.yul\":415:424   */\n      dup4\n        /* \"#utility.yul\":411:428   */\n      add\n        /* \"#utility.yul\":402:408   */\n      dup5\n        /* \"#utility.yul\":358:429   */\n      tag_421\n      jump\t// in\n    tag_478:\n        /* \"#utility.yul\":214:436   */\n      swap3\n      swap2\n      pop\n      pop\n      jump\t// out\n        /* \"#utility.yul\":442:541   */\n    tag_422:\n        /* \"#utility.yul\":494:500   */\n      0x00\n        /* \"#utility.yul\":528:533   */\n      dup2\n        /* \"#utility.yul\":522:534   */\n      mload\n        /* \"#utility.yul\":512:534   */\n      swap1\n      pop\n        /* \"#utility.yul\":442:541   */\n      swap2\n      swap1\n      pop\n      jump\t// out\n        /* \"#utility.yul\":547:716   */\n    tag_423:\n        /* \"#utility.yul\":631:642   */\n      0x00\n        /* \"#utility.yul\":665:671   */\n      dup3\n        /* \"#utility.yul\":660:663   */\n      dup3\n        /* \"#utility.yul\":653:672   */\n      mstore\n        /* \"#utility.yul\":705:709   */\n      0x20\n        /* \"#utility.yul\":700:703   */\n      dup3\n        /* \"#utility.yul\":696:710   */\n      add\n        /* \"#utility.yul\":681:710   */\n      swap1\n      pop\n        /* \"#utility.yul\":547:716   */\n      swap3\n      swap2\n      pop\n      pop\n      jump\t// out\n        /* \"#utility.yul\":722:861   */\n    tag_424:\n        /* \"#utility.yul\":811:817   */\n      dup3\n        /* \"#utility.yul\":806:809   */\n      dup2\n        /* \"#utility.yul\":801:804   */\n      dup4\n        /* \"#utility.yul\":795:818   */\n      mcopy\n        /* \"#utility.yul\":852:853   */\n      0x00\n        /* \"#utility.yul\":843:849   */\n      dup4\n        /* \"#utility.yul\":838:841   */\n      dup4\n        /* \"#utility.yul\":834:850   */\n      add\n        /* \"#utility.yul\":827:854   */\n      mstore\n        /* \"#utility.yul\":722:861   */\n      pop\n      pop\n      pop\n      jump\t// out\n        /* \"#utility.yul\":867:969   */\n    tag_425:\n        /* \"#utility.yul\":908:914   */\n      0x00\n        /* \"#utility.yul\":959:961   */\n      0x1f\n        /* \"#utility.yul\":955:962   */\n      not\n        /* \"#utility.yul\":950:952   */\n      0x1f\n        /* \"#utility.yul\":943:948   */\n      dup4\n        /* \"#utility.yul\":939:953   */\n      add\n        /* \"#utility.yul\":935:963   */\n      and\n        /* \"#utility.yul\":925:963   */\n      swap1\n      pop\n        /* \"#utility.yul\":867:969   */\n      swap2\n      swap1\n      pop\n      jump\t// out\n        /* \"#utility.yul\":975:1352   */\n    tag_426:\n        /* \"#utility.yul\":1063:1066   */\n      0x00\n        /* \"#utility.yul\":1091:1130   */\n      tag_484\n        /* \"#utility.yul\":1124:1129   */\n      dup3\n        /* \"#utility.yul\":1091:1130   */\n      tag_422\n      jump\t// in\n    tag_484:\n        /* \"#utility.yul\":1146:1217   */\n      tag_485\n        /* \"#utility.yul\":1210:1216   */\n      dup2\n        /* \"#utility.yul\":1205:1208   */\n      dup6\n        /* \"#utility.yul\":1146:1217   */\n      tag_423\n      jump\t// in\n    tag_485:\n        /* \"#utility.yul\":1139:1217   */\n      swap4\n      pop\n        /* \"#utility.yul\":1226:1291   */\n      tag_486\n        /* \"#utility.yul\":1284:1290   */\n      dup2\n        /* \"#utility.yul\":1279:1282   */\n      dup6\n        /* \"#utility.yul\":1272:1276   */\n      0x20\n        /* \"#utility.yul\":1265:1270   */\n      dup7\n        /* \"#utility.yul\":1261:1277   */\n      add\n        /* \"#utility.yul\":1226:1291   */\n      tag_424\n      jump\t// in\n    tag_486:\n        /* \"#utility.yul\":1316:1345   */\n      tag_487\n        /* \"#utility.yul\":1338:1344   */\n      dup2\n        /* \"#utility.yul\":1316:1345   */\n      tag_425\n      jump\t// in\n    tag_487:\n        /* \"#utility.yul\":1311:1314   */\n      dup5\n        /* \"#utility.yul\":1307:1346   */\n      add\n        /* \"#utility.yul\":1300:1346   */\n      swap2\n      pop\n        /* \"#utility.yul\":1067:1352   */\n      pop\n        /* \"#utility.yul\":975:1352   */\n      swap3\n      swap2\n      pop\n      pop\n      jump\t// out\n        /* \"#utility.yul\":1358:1671   */\n    tag_61:\n        /* \"#utility.yul\":1471:1475   */\n      0x00\n        /* \"#utility.yul\":1509:1511   */\n      0x20\n        /* \"#utility.yul\":1498:1507   */\n      dup3\n        /* \"#utility.yul\":1494:1512   */\n      add\n        /* \"#utility.yul\":1486:1512   */\n      swap1\n      pop\n        /* \"#utility.yul\":1558:1567   */\n      dup2\n        /* \"#utility.yul\":1552:1556   */\n      dup2\n        /* \"#utility.yul\":1548:1568   */\n      sub\n        /* \"#utility.yul\":1544:1545   */\n      0x00\n        /* \"#utility.yul\":1533:1542   */\n      dup4\n        /* \"#utility.yul\":1529:1546   */\n      add\n        /* \"#utility.yul\":1522:1569   */\n      mstore\n        /* \"#utility.yul\":1586:1664   */\n      tag_489\n        /* \"#utility.yul\":1659:1663   */\n      dup2\n        /* \"#utility.yul\":1650:1656   */\n      dup5\n        /* \"#utility.yul\":1586:1664   */\n      tag_426\n      jump\t// in\n    tag_489:\n        /* \"#utility.yul\":1578:1664   */\n      swap1\n      pop\n        /* \"#utility.yul\":1358:1671   */\n      swap3\n      swap2\n      pop\n      pop\n      jump\t// out\n        /* \"#utility.yul\":1758:1875   */\n    tag_428:\n        /* \"#utility.yul\":1867:1868   */\n      0x00\n        /* \"#utility.yul\":1864:1865   */\n      dup1\n        /* \"#utility.yul\":1857:1869   */\n      revert\n        /* \"#utility.yul\":2004:2130   */\n    tag_430:\n        /* \"#utility.yul\":2041:2048   */\n      0x00\n        /* \"#utility.yul\":2081:2123   */\n      0xffffffffffffffffffffffffffffffffffffffff\n        /* \"#utility.yul\":2074:2079   */\n      dup3\n        /* \"#utility.yul\":2070:2124   */\n      and\n        /* \"#utility.yul\":2059:2124   */\n      swap1\n      pop\n        /* \"#utility.yul\":2004:2130   */\n      swap2\n      swap1\n      pop\n      jump\t// out\n        /* \"#utility.yul\":2136:2232   */\n    tag_431:\n        /* \"#utility.yul\":2173:2180   */\n      0x00\n        /* \"#utility.yul\":2202:2226   */\n      tag_495\n        /* \"#utility.yul\":2220:2225   */\n      dup3\n        /* \"#utility.yul\":2202:2226   */\n      tag_430\n      jump\t// in\n    tag_495:\n        /* \"#utility.yul\":2191:2226   */\n      swap1\n      pop\n        /* \"#utility.yul\":2136:2232   */\n      swap2\n      swap1\n      pop\n      jump\t// out\n        /* \"#utility.yul\":2238:2360   */\n    tag_432:\n        /* \"#utility.yul\":2311:2335   */\n      tag_497\n        /* \"#utility.yul\":2329:2334   */\n      dup2\n        /* \"#utility.yul\":2311:2335   */\n      tag_431\n      jump\t// in\n    tag_497:\n        /* \"#utility.yul\":2304:2309   */\n      dup2\n        /* \"#utility.yul\":2301:2336   */\n      eq\n        /* \"#utility.yul\":2291:2354   */\n      tag_498\n      jumpi\n        /* \"#utility.yul\":2350:2351   */\n      0x00\n        /* \"#utility.yul\":2347:2348   */\n      dup1\n        /* \"#utility.yul\":2340:2352   */\n      revert\n        /* \"#utility.yul\":2291:2354   */\n    tag_498:\n        /* \"#utility.yul\":2238:2360   */\n      pop\n      jump\t// out\n        /* \"#utility.yul\":2366:2505   */\n    tag_433:\n        /* \"#utility.yul\":2412:2417   */\n      0x00\n        /* \"#utility.yul\":2450:2456   */\n      dup2\n        /* \"#utility.yul\":2437:2457   */\n      calldataload\n        /* \"#utility.yul\":2428:2457   */\n      swap1\n      pop\n        /* \"#utility.yul\":2466:2499   */\n      tag_500\n        /* \"#utility.yul\":2493:2498   */\n      dup2\n        /* \"#utility.yul\":2466:2499   */\n      tag_432\n      jump\t// in\n    tag_500:\n        /* \"#utility.yul\":2366:2505   */\n      swap3\n      swap2\n      pop\n      pop\n      jump\t// out\n        /* \"#utility.yul\":2511:2633   */\n    tag_434:\n        /* \"#utility.yul\":2584:2608   */\n      tag_502\n        /* \"#utility.yul\":2602:2607   */\n      dup2\n        /* \"#utility.yul\":2584:2608   */\n      tag_420\n      jump\t// in\n    tag_502:\n        /* \"#utility.yul\":2577:2582   */\n      dup2\n        /* \"#utility.yul\":2574:2609   */\n      eq\n        /* \"#utility.yul\":2564:2627   */\n      tag_503\n      jumpi\n        /* \"#utility.yul\":2623:2624   */\n      0x00\n        /* \"#utility.yul\":2620:2621   */\n      dup1\n        /* \"#utility.yul\":2613:2625   */\n      revert\n        /* \"#utility.yul\":2564:2627   */\n    tag_503:\n        /* \"#utility.yul\":2511:2633   */\n      pop\n      jump\t// out\n        /* \"#utility.yul\":2639:2778   */\n    tag_435:\n        /* \"#utility.yul\":2685:2690   */\n      0x00\n        /* \"#utility.yul\":2723:2729   */\n      dup2\n        /* \"#utility.yul\":2710:2730   */\n      calldataload\n        /* \"#utility.yul\":2701:2730   */\n      swap1\n      pop\n        /* \"#utility.yul\":2739:2772   */\n      tag_505\n        /* \"#utility.yul\":2766:2771   */\n      dup2\n        /* \"#utility.yul\":2739:2772   */\n      tag_434\n      jump\t// in\n    tag_505:\n        /* \"#utility.yul\":2639:2778   */\n      swap3\n      swap2\n      pop\n      pop\n      jump\t// out\n        /* \"#utility.yul\":2784:3258   */\n    tag_65:\n        /* \"#utility.yul\":2852:2858   */\n      0x00\n        /* \"#utility.yul\":2860:2866   */\n      dup1\n        /* \"#utility.yul\":2909:2911   */\n      0x40\n        /* \"#utility.yul\":2897:2906   */\n      dup4\n        /* \"#utility.yul\":2888:2895   */\n      dup6\n        /* \"#utility.yul\":2884:2907   */\n      sub\n        /* \"#utility.yul\":2880:2912   */\n      slt\n        /* \"#utility.yul\":2877:2996   */\n      iszero\n      tag_507\n      jumpi\n        /* \"#utility.yul\":2915:2994   */\n      tag_508\n      tag_428\n      jump\t// in\n    tag_508:\n        /* \"#utility.yul\":2877:2996   */\n    tag_507:\n        /* \"#utility.yul\":3035:3036   */\n      0x00\n        /* \"#utility.yul\":3060:3113   */\n      tag_509\n        /* \"#utility.yul\":3105:3112   */\n      dup6\n        /* \"#utility.yul\":3096:3102   */\n      dup3\n        /* \"#utility.yul\":3085:3094   */\n      dup7\n        /* \"#utility.yul\":3081:3103   */\n      add\n        /* \"#utility.yul\":3060:3113   */\n      tag_433\n      jump\t// in\n    tag_509:\n        /* \"#utility.yul\":3050:3113   */\n      swap3\n      pop\n        /* \"#utility.yul\":3006:3123   */\n      pop\n        /* \"#utility.yul\":3162:3164   */\n      0x20\n        /* \"#utility.yul\":3188:3241   */\n      tag_510\n        /* \"#utility.yul\":3233:3240   */\n      dup6\n        /* \"#utility.yul\":3224:3230   */\n      dup3\n        /* \"#utility.yul\":3213:3222   */\n      dup7\n        /* \"#utility.yul\":3209:3231   */\n      add\n        /* \"#utility.yul\":3188:3241   */\n      tag_435\n      jump\t// in\n    tag_510:\n        /* \"#utility.yul\":3178:3241   */\n      swap2\n      pop\n        /* \"#utility.yul\":3133:3251   */\n      pop\n        /* \"#utility.yul\":2784:3258   */\n      swap3\n      pop\n      swap3\n      swap1\n      pop\n      jump\t// out\n        /* \"#utility.yul\":3264:3354   */\n    tag_436:\n        /* \"#utility.yul\":3298:3305   */\n      0x00\n        /* \"#utility.yul\":3341:3346   */\n      dup2\n        /* \"#utility.yul\":3334:3347   */\n      iszero\n        /* \"#utility.yul\":3327:3348   */\n      iszero\n        /* \"#utility.yul\":3316:3348   */\n      swap1\n      pop\n        /* \"#utility.yul\":3264:3354   */\n      swap2\n      swap1\n      pop\n      jump\t// out\n        /* \"#utility.yul\":3360:3469   */\n    tag_437:\n        /* \"#utility.yul\":3441:3462   */\n      tag_513\n        /* \"#utility.yul\":3456:3461   */\n      dup2\n        /* \"#utility.yul\":3441:3462   */\n      tag_436\n      jump\t// in\n    tag_513:\n        /* \"#utility.yul\":3436:3439   */\n      dup3\n        /* \"#utility.yul\":3429:3463   */\n      mstore\n        /* \"#utility.yul\":3360:3469   */\n      pop\n      pop\n      jump\t// out\n        /* \"#utility.yul\":3475:3685   */\n    tag_68:\n        /* \"#utility.yul\":3562:3566   */\n      0x00\n        /* \"#utility.yul\":3600:3602   */\n      0x20\n        /* \"#utility.yul\":3589:3598   */\n      dup3\n        /* \"#utility.yul\":3585:3603   */\n      add\n        /* \"#utility.yul\":3577:3603   */\n      swap1\n      pop\n        /* \"#utility.yul\":3613:3678   */\n      tag_515\n        /* \"#utility.yul\":3675:3676   */\n      0x00\n        /* \"#utility.yul\":3664:3673   */\n      dup4\n        /* \"#utility.yul\":3660:3677   */\n      add\n        /* \"#utility.yul\":3651:3657   */\n      dup5\n        /* \"#utility.yul\":3613:3678   */\n      tag_437\n      jump\t// in\n    tag_515:\n        /* \"#utility.yul\":3475:3685   */\n      swap3\n      swap2\n      pop\n      pop\n      jump\t// out\n        /* \"#utility.yul\":3691:4020   */\n    tag_72:\n        /* \"#utility.yul\":3750:3756   */\n      0x00\n        /* \"#utility.yul\":3799:3801   */\n      0x20\n        /* \"#utility.yul\":3787:3796   */\n      dup3\n        /* \"#utility.yul\":3778:3785   */\n      dup5\n        /* \"#utility.yul\":3774:3797   */\n      sub\n        /* \"#utility.yul\":3770:3802   */\n      slt\n        /* \"#utility.yul\":3767:3886   */\n      iszero\n      tag_517\n      jumpi\n        /* \"#utility.yul\":3805:3884   */\n      tag_518\n      tag_428\n      jump\t// in\n    tag_518:\n        /* \"#utility.yul\":3767:3886   */\n    tag_517:\n        /* \"#utility.yul\":3925:3926   */\n      0x00\n        /* \"#utility.yul\":3950:4003   */\n      tag_519\n        /* \"#utility.yul\":3995:4002   */\n      dup5\n        /* \"#utility.yul\":3986:3992   */\n      dup3\n        /* \"#utility.yul\":3975:3984   */\n      dup6\n        /* \"#utility.yul\":3971:3993   */\n      add\n        /* \"#utility.yul\":3950:4003   */\n      tag_433\n      jump\t// in\n    tag_519:\n        /* \"#utility.yul\":3940:4003   */\n      swap2\n      pop\n        /* \"#utility.yul\":3896:4013   */\n      pop\n        /* \"#utility.yul\":3691:4020   */\n      swap3\n      swap2\n      pop\n      pop\n      jump\t// out\n        /* \"#utility.yul\":4026:4645   */\n    tag_86:\n        /* \"#utility.yul\":4103:4109   */\n      0x00\n        /* \"#utility.yul\":4111:4117   */\n      dup1\n        /* \"#utility.yul\":4119:4125   */\n      0x00\n        /* \"#utility.yul\":4168:4170   */\n      0x60\n        /* \"#utility.yul\":4156:4165   */\n      dup5\n        /* \"#utility.yul\":4147:4154   */\n      dup7\n        /* \"#utility.yul\":4143:4166   */\n      sub\n        /* \"#utility.yul\":4139:4171   */\n      slt\n        /* \"#utility.yul\":4136:4255   */\n      iszero\n      tag_521\n      jumpi\n        /* \"#utility.yul\":4174:4253   */\n      tag_522\n      tag_428\n      jump\t// in\n    tag_522:\n        /* \"#utility.yul\":4136:4255   */\n    tag_521:\n        /* \"#utility.yul\":4294:4295   */\n      0x00\n        /* \"#utility.yul\":4319:4372   */\n      tag_523\n        /* \"#utility.yul\":4364:4371   */\n      dup7\n        /* \"#utility.yul\":4355:4361   */\n      dup3\n        /* \"#utility.yul\":4344:4353   */\n      dup8\n        /* \"#utility.yul\":4340:4362   */\n      add\n        /* \"#utility.yul\":4319:4372   */\n      tag_433\n      jump\t// in\n    tag_523:\n        /* \"#utility.yul\":4309:4372   */\n      swap4\n      pop\n        /* \"#utility.yul\":4265:4382   */\n      pop\n        /* \"#utility.yul\":4421:4423   */\n      0x20\n        /* \"#utility.yul\":4447:4500   */\n      tag_524\n        /* \"#utility.yul\":4492:4499   */\n      dup7\n        /* \"#utility.yul\":4483:4489   */\n      dup3\n        /* \"#utility.yul\":4472:4481   */\n      dup8\n        /* \"#utility.yul\":4468:4490   */\n      add\n        /* \"#utility.yul\":4447:4500   */\n      tag_433\n      jump\t// in\n    tag_524:\n        /* \"#utility.yul\":4437:4500   */\n      swap3\n      pop\n        /* \"#utility.yul\":4392:4510   */\n      pop\n        /* \"#utility.yul\":4549:4551   */\n      0x40\n        /* \"#utility.yul\":4575:4628   */\n      tag_525\n        /* \"#utility.yul\":4620:4627   */\n      dup7\n        /* \"#utility.yul\":4611:4617   */\n      dup3\n        /* \"#utility.yul\":4600:4609   */\n      dup8\n        /* \"#utility.yul\":4596:4618   */\n      add\n        /* \"#utility.yul\":4575:4628   */\n      tag_435\n      jump\t// in\n    tag_525:\n        /* \"#utility.yul\":4565:4628   */\n      swap2\n      pop\n        /* \"#utility.yul\":4520:4638   */\n      pop\n        /* \"#utility.yul\":4026:4645   */\n      swap3\n      pop\n      swap3\n      pop\n      swap3\n      jump\t// out\n        /* \"#utility.yul\":4651:5125   */\n    tag_97:\n        /* \"#utility.yul\":4719:4725   */\n      0x00\n        /* \"#utility.yul\":4727:4733   */\n      dup1\n        /* \"#utility.yul\":4776:4778   */\n      0x40\n        /* \"#utility.yul\":4764:4773   */\n      dup4\n        /* \"#utility.yul\":4755:4762   */\n      dup6\n        /* \"#utility.yul\":4751:4774   */\n      sub\n        /* \"#utility.yul\":4747:4779   */\n      slt\n        /* \"#utility.yul\":4744:4863   */\n      iszero\n      tag_527\n      jumpi\n        /* \"#utility.yul\":4782:4861   */\n      tag_528\n      tag_428\n      jump\t// in\n    tag_528:\n        /* \"#utility.yul\":4744:4863   */\n    tag_527:\n        /* \"#utility.yul\":4902:4903   */\n      0x00\n        /* \"#utility.yul\":4927:4980   */\n      tag_529\n        /* \"#utility.yul\":4972:4979   */\n      dup6\n        /* \"#utility.yul\":4963:4969   */\n      dup3\n        /* \"#utility.yul\":4952:4961   */\n      dup7\n        /* \"#utility.yul\":4948:4970   */\n      add\n        /* \"#utility.yul\":4927:4980   */\n      tag_435\n      jump\t// in\n    tag_529:\n        /* \"#utility.yul\":4917:4980   */\n      swap3\n      pop\n        /* \"#utility.yul\":4873:4990   */\n      pop\n        /* \"#utility.yul\":5029:5031   */\n      0x20\n        /* \"#utility.yul\":5055:5108   */\n      tag_530\n        /* \"#utility.yul\":5100:5107   */\n      dup6\n        /* \"#utility.yul\":5091:5097   */\n      dup3\n        /* \"#utility.yul\":5080:5089   */\n      dup7\n        /* \"#utility.yul\":5076:5098   */\n      add\n        /* \"#utility.yul\":5055:5108   */\n      tag_435\n      jump\t// in\n    tag_530:\n        /* \"#utility.yul\":5045:5108   */\n      swap2\n      pop\n        /* \"#utility.yul\":5000:5118   */\n      pop\n        /* \"#utility.yul\":4651:5125   */\n      swap3\n      pop\n      swap3\n      swap1\n      pop\n      jump\t// out\n        /* \"#utility.yul\":5131:5217   */\n    tag_438:\n        /* \"#utility.yul\":5166:5173   */\n      0x00\n        /* \"#utility.yul\":5206:5210   */\n      0xff\n        /* \"#utility.yul\":5199:5204   */\n      dup3\n        /* \"#utility.yul\":5195:5211   */\n      and\n        /* \"#utility.yul\":5184:5211   */\n      swap1\n      pop\n        /* \"#utility.yul\":5131:5217   */\n      swap2\n      swap1\n      pop\n      jump\t// out\n        /* \"#utility.yul\":5223:5335   */\n    tag_439:\n        /* \"#utility.yul\":5306:5328   */\n      tag_533\n        /* \"#utility.yul\":5322:5327   */\n      dup2\n        /* \"#utility.yul\":5306:5328   */\n      tag_438\n      jump\t// in\n    tag_533:\n        /* \"#utility.yul\":5301:5304   */\n      dup3\n        /* \"#utility.yul\":5294:5329   */\n      mstore\n        /* \"#utility.yul\":5223:5335   */\n      pop\n      pop\n      jump\t// out\n        /* \"#utility.yul\":5341:5555   */\n    tag_108:\n        /* \"#utility.yul\":5430:5434   */\n      0x00\n        /* \"#utility.yul\":5468:5470   */\n      0x20\n        /* \"#utility.yul\":5457:5466   */\n      dup3\n        /* \"#utility.yul\":5453:5471   */\n      add\n        /* \"#utility.yul\":5445:5471   */\n      swap1\n      pop\n        /* \"#utility.yul\":5481:5548   */\n      tag_535\n        /* \"#utility.yul\":5545:5546   */\n      0x00\n        /* \"#utility.yul\":5534:5543   */\n      dup4\n        /* \"#utility.yul\":5530:5547   */\n      add\n        /* \"#utility.yul\":5521:5527   */\n      dup5\n        /* \"#utility.yul\":5481:5548   */\n      tag_439\n      jump\t// in\n    tag_535:\n        /* \"#utility.yul\":5341:5555   */\n      swap3\n      swap2\n      pop\n      pop\n      jump\t// out\n        /* \"#utility.yul\":5561:5890   */\n    tag_140:\n        /* \"#utility.yul\":5620:5626   */\n      0x00\n        /* \"#utility.yul\":5669:5671   */\n      0x20\n        /* \"#utility.yul\":5657:5666   */\n      dup3\n        /* \"#utility.yul\":5648:5655   */\n      dup5\n        /* \"#utility.yul\":5644:5667   */\n      sub\n        /* \"#utility.yul\":5640:5672   */\n      slt\n        /* \"#utility.yul\":5637:5756   */\n      iszero\n      tag_537\n      jumpi\n        /* \"#utility.yul\":5675:5754   */\n      tag_538\n      tag_428\n      jump\t// in\n    tag_538:\n        /* \"#utility.yul\":5637:5756   */\n    tag_537:\n        /* \"#utility.yul\":5795:5796   */\n      0x00\n        /* \"#utility.yul\":5820:5873   */\n      tag_539\n        /* \"#utility.yul\":5865:5872   */\n      dup5\n        /* \"#utility.yul\":5856:5862   */\n      dup3\n        /* \"#utility.yul\":5845:5854   */\n      dup6\n        /* \"#utility.yul\":5841:5863   */\n      add\n        /* \"#utility.yul\":5820:5873   */\n      tag_435\n      jump\t// in\n    tag_539:\n        /* \"#utility.yul\":5810:5873   */\n      swap2\n      pop\n        /* \"#utility.yul\":5766:5883   */\n      pop\n        /* \"#utility.yul\":5561:5890   */\n      swap3\n      swap2\n      pop\n      pop\n      jump\t// out\n        /* \"#utility.yul\":5896:6014   */\n    tag_440:\n        /* \"#utility.yul\":5983:6007   */\n      tag_541\n        /* \"#utility.yul\":6001:6006   */\n      dup2\n        /* \"#utility.yul\":5983:6007   */\n      tag_431\n      jump\t// in\n    tag_541:\n        /* \"#utility.yul\":5978:5981   */\n      dup3\n        /* \"#utility.yul\":5971:6008   */\n      mstore\n        /* \"#utility.yul\":5896:6014   */\n      pop\n      pop\n      jump\t// out\n        /* \"#utility.yul\":6020:6242   */\n    tag_154:\n        /* \"#utility.yul\":6113:6117   */\n      0x00\n        /* \"#utility.yul\":6151:6153   */\n      0x20\n        /* \"#utility.yul\":6140:6149   */\n      dup3\n        /* \"#utility.yul\":6136:6154   */\n      add\n        /* \"#utility.yul\":6128:6154   */\n      swap1\n      pop\n        /* \"#utility.yul\":6164:6235   */\n      tag_543\n        /* \"#utility.yul\":6232:6233   */\n      0x00\n        /* \"#utility.yul\":6221:6230   */\n      dup4\n        /* \"#utility.yul\":6217:6234   */\n      add\n        /* \"#utility.yul\":6208:6214   */\n      dup5\n        /* \"#utility.yul\":6164:6235   */\n      tag_440\n      jump\t// in\n    tag_543:\n        /* \"#utility.yul\":6020:6242   */\n      swap3\n      swap2\n      pop\n      pop\n      jump\t// out\n        /* \"#utility.yul\":6248:6722   */\n    tag_204:\n        /* \"#utility.yul\":6316:6322   */\n      0x00\n        /* \"#utility.yul\":6324:6330   */\n      dup1\n        /* \"#utility.yul\":6373:6375   */\n      0x40\n        /* \"#utility.yul\":6361:6370   */\n      dup4\n        /* \"#utility.yul\":6352:6359   */\n      dup6\n        /* \"#utility.yul\":6348:6371   */\n      sub\n        /* \"#utility.yul\":6344:6376   */\n      slt\n        /* \"#utility.yul\":6341:6460   */\n      iszero\n      tag_545\n      jumpi\n        /* \"#utility.yul\":6379:6458   */\n      tag_546\n      tag_428\n      jump\t// in\n    tag_546:\n        /* \"#utility.yul\":6341:6460   */\n    tag_545:\n        /* \"#utility.yul\":6499:6500   */\n      0x00\n        /* \"#utility.yul\":6524:6577   */\n      tag_547\n        /* \"#utility.yul\":6569:6576   */\n      dup6\n        /* \"#utility.yul\":6560:6566   */\n      dup3\n        /* \"#utility.yul\":6549:6558   */\n      dup7\n        /* \"#utility.yul\":6545:6567   */\n      add\n        /* \"#utility.yul\":6524:6577   */\n      tag_433\n      jump\t// in\n    tag_547:\n        /* \"#utility.yul\":6514:6577   */\n      swap3\n      pop\n        /* \"#utility.yul\":6470:6587   */\n      pop\n        /* \"#utility.yul\":6626:6628   */\n      0x20\n        /* \"#utility.yul\":6652:6705   */\n      tag_548\n        /* \"#utility.yul\":6697:6704   */\n      dup6\n        /* \"#utility.yul\":6688:6694   */\n      dup3\n        /* \"#utility.yul\":6677:6686   */\n      dup7\n        /* \"#utility.yul\":6673:6695   */\n      add\n        /* \"#utility.yul\":6652:6705   */\n      tag_433\n      jump\t// in\n    tag_548:\n        /* \"#utility.yul\":6642:6705   */\n      swap2\n      pop\n        /* \"#utility.yul\":6597:6715   */\n      pop\n        /* \"#utility.yul\":6248:6722   */\n      swap3\n      pop\n      swap3\n      swap1\n      pop\n      jump\t// out\n        /* \"#utility.yul\":6728:6908   */\n    tag_441:\n        /* \"#utility.yul\":6776:6853   */\n      0x4e487b7100000000000000000000000000000000000000000000000000000000\n        /* \"#utility.yul\":6773:6774   */\n      0x00\n        /* \"#utility.yul\":6766:6854   */\n      mstore\n        /* \"#utility.yul\":6873:6877   */\n      0x22\n        /* \"#utility.yul\":6870:6871   */\n      0x04\n        /* \"#utility.yul\":6863:6878   */\n      mstore\n        /* \"#utility.yul\":6897:6901   */\n      0x24\n        /* \"#utility.yul\":6894:6895   */\n      0x00\n        /* \"#utility.yul\":6887:6902   */\n      revert\n        /* \"#utility.yul\":6914:7234   */\n    tag_226:\n        /* \"#utility.yul\":6958:6964   */\n      0x00\n        /* \"#utility.yul\":6995:6996   */\n      0x02\n        /* \"#utility.yul\":6989:6993   */\n      dup3\n        /* \"#utility.yul\":6985:6997   */\n      div\n        /* \"#utility.yul\":6975:6997   */\n      swap1\n      pop\n        /* \"#utility.yul\":7042:7043   */\n      0x01\n        /* \"#utility.yul\":7036:7040   */\n      dup3\n        /* \"#utility.yul\":7032:7044   */\n      and\n        /* \"#utility.yul\":7063:7081   */\n      dup1\n        /* \"#utility.yul\":7053:7134   */\n      tag_551\n      jumpi\n        /* \"#utility.yul\":7119:7123   */\n      0x7f\n        /* \"#utility.yul\":7111:7117   */\n      dup3\n        /* \"#utility.yul\":7107:7124   */\n      and\n        /* \"#utility.yul\":7097:7124   */\n      swap2\n      pop\n        /* \"#utility.yul\":7053:7134   */\n    tag_551:\n        /* \"#utility.yul\":7181:7183   */\n      0x20\n        /* \"#utility.yul\":7173:7179   */\n      dup3\n        /* \"#utility.yul\":7170:7184   */\n      lt\n        /* \"#utility.yul\":7150:7168   */\n      dup2\n        /* \"#utility.yul\":7147:7185   */\n      sub\n        /* \"#utility.yul\":7144:7228   */\n      tag_552\n      jumpi\n        /* \"#utility.yul\":7200:7218   */\n      tag_553\n      tag_441\n      jump\t// in\n    tag_553:\n        /* \"#utility.yul\":7144:7228   */\n    tag_552:\n        /* \"#utility.yul\":6965:7234   */\n      pop\n        /* \"#utility.yul\":6914:7234   */\n      swap2\n      swap1\n      pop\n      jump\t// out\n        /* \"#utility.yul\":7240:7420   */\n    tag_442:\n        /* \"#utility.yul\":7288:7365   */\n      0x4e487b7100000000000000000000000000000000000000000000000000000000\n        /* \"#utility.yul\":7285:7286   */\n      0x00\n        /* \"#utility.yul\":7278:7366   */\n      mstore\n        /* \"#utility.yul\":7385:7389   */\n      0x11\n        /* \"#utility.yul\":7382:7383   */\n      0x04\n        /* \"#utility.yul\":7375:7390   */\n      mstore\n        /* \"#utility.yul\":7409:7413   */\n      0x24\n        /* \"#utility.yul\":7406:7407   */\n      0x00\n        /* \"#utility.yul\":7399:7414   */\n      revert\n        /* \"#utility.yul\":7426:7620   */\n    tag_238:\n        /* \"#utility.yul\":7466:7470   */\n      0x00\n        /* \"#utility.yul\":7486:7506   */\n      tag_556\n        /* \"#utility.yul\":7504:7505   */\n      dup3\n        /* \"#utility.yul\":7486:7506   */\n      tag_420\n      jump\t// in\n    tag_556:\n        /* \"#utility.yul\":7481:7506   */\n      swap2\n      pop\n        /* \"#utility.yul\":7520:7540   */\n      tag_557\n        /* \"#utility.yul\":7538:7539   */\n      dup4\n        /* \"#utility.yul\":7520:7540   */\n      tag_420\n      jump\t// in\n    tag_557:\n        /* \"#utility.yul\":7515:7540   */\n      swap3\n      pop\n        /* \"#utility.yul\":7564:7565   */\n      dup3\n        /* \"#utility.yul\":7561:7562   */\n      dup3\n        /* \"#utility.yul\":7557:7566   */\n      sub\n        /* \"#utility.yul\":7549:7566   */\n      swap1\n      pop\n        /* \"#utility.yul\":7588:7589   */\n      dup2\n        /* \"#utility.yul\":7582:7586   */\n      dup2\n        /* \"#utility.yul\":7579:7590   */\n      gt\n        /* \"#utility.yul\":7576:7613   */\n      iszero\n      tag_558\n      jumpi\n        /* \"#utility.yul\":7593:7611   */\n      tag_559\n      tag_442\n      jump\t// in\n    tag_559:\n        /* \"#utility.yul\":7576:7613   */\n    tag_558:\n        /* \"#utility.yul\":7426:7620   */\n      swap3\n      swap2\n      pop\n      pop\n      jump\t// out\n        /* \"#utility.yul\":7626:7806   */\n    tag_443:\n        /* \"#utility.yul\":7674:7751   */\n      0x4e487b7100000000000000000000000000000000000000000000000000000000\n        /* \"#utility.yul\":7671:7672   */\n      0x00\n        /* \"#utility.yul\":7664:7752   */\n      mstore\n        /* \"#utility.yul\":7771:7775   */\n      0x12\n        /* \"#utility.yul\":7768:7769   */\n      0x04\n        /* \"#utility.yul\":7761:7776   */\n      mstore\n        /* \"#utility.yul\":7795:7799   */\n      0x24\n        /* \"#utility.yul\":7792:7793   */\n      0x00\n        /* \"#utility.yul\":7785:7800   */\n      revert\n        /* \"#utility.yul\":7812:7997   */\n    tag_240:\n        /* \"#utility.yul\":7852:7853   */\n      0x00\n        /* \"#utility.yul\":7869:7889   */\n      tag_562\n        /* \"#utility.yul\":7887:7888   */\n      dup3\n        /* \"#utility.yul\":7869:7889   */\n      tag_420\n      jump\t// in\n    tag_562:\n        /* \"#utility.yul\":7864:7889   */\n      swap2\n      pop\n        /* \"#utility.yul\":7903:7923   */\n      tag_563\n        /* \"#utility.yul\":7921:7922   */\n      dup4\n        /* \"#utility.yul\":7903:7923   */\n      tag_420\n      jump\t// in\n    tag_563:\n        /* \"#utility.yul\":7898:7923   */\n      swap3\n      pop\n        /* \"#utility.yul\":7942:7943   */\n      dup3\n        /* \"#utility.yul\":7932:7967   */\n      tag_564\n      jumpi\n        /* \"#utility.yul\":7947:7965   */\n      tag_565\n      tag_443\n      jump\t// in\n    tag_565:\n        /* \"#utility.yul\":7932:7967   */\n    tag_564:\n        /* \"#utility.yul\":7989:7990   */\n      dup3\n        /* \"#utility.yul\":7986:7987   */\n      dup3\n        /* \"#utility.yul\":7982:7991   */\n      div\n        /* \"#utility.yul\":7977:7991   */\n      swap1\n      pop\n        /* \"#utility.yul\":7812:7997   */\n      swap3\n      swap2\n      pop\n      pop\n      jump\t// out\n        /* \"#utility.yul\":8003:8413   */\n    tag_242:\n        /* \"#utility.yul\":8043:8050   */\n      0x00\n        /* \"#utility.yul\":8066:8086   */\n      tag_567\n        /* \"#utility.yul\":8084:8085   */\n      dup3\n        /* \"#utility.yul\":8066:8086   */\n      tag_420\n      jump\t// in\n    tag_567:\n        /* \"#utility.yul\":8061:8086   */\n      swap2\n      pop\n        /* \"#utility.yul\":8100:8120   */\n      tag_568\n        /* \"#utility.yul\":8118:8119   */\n      dup4\n        /* \"#utility.yul\":8100:8120   */\n      tag_420\n      jump\t// in\n    tag_568:\n        /* \"#utility.yul\":8095:8120   */\n      swap3\n      pop\n        /* \"#utility.yul\":8155:8156   */\n      dup3\n        /* \"#utility.yul\":8152:8153   */\n      dup3\n        /* \"#utility.yul\":8148:8157   */\n      mul\n        /* \"#utility.yul\":8177:8207   */\n      tag_569\n        /* \"#utility.yul\":8195:8206   */\n      dup2\n        /* \"#utility.yul\":8177:8207   */\n      tag_420\n      jump\t// in\n    tag_569:\n        /* \"#utility.yul\":8166:8207   */\n      swap2\n      pop\n        /* \"#utility.yul\":8356:8357   */\n      dup3\n        /* \"#utility.yul\":8347:8354   */\n      dup3\n        /* \"#utility.yul\":8343:8358   */\n      div\n        /* \"#utility.yul\":8340:8341   */\n      dup5\n        /* \"#utility.yul\":8337:8359   */\n      eq\n        /* \"#utility.yul\":8317:8318   */\n      dup4\n        /* \"#utility.yul\":8310:8319   */\n      iszero\n        /* \"#utility.yul\":8290:8373   */\n      or\n        /* \"#utility.yul\":8267:8406   */\n      tag_570\n      jumpi\n        /* \"#utility.yul\":8386:8404   */\n      tag_571\n      tag_442\n      jump\t// in\n    tag_571:\n        /* \"#utility.yul\":8267:8406   */\n    tag_570:\n        /* \"#utility.yul\":8051:8413   */\n      pop\n        /* \"#utility.yul\":8003:8413   */\n      swap3\n      swap2\n      pop\n      pop\n      jump\t// out\n        /* \"#utility.yul\":8419:8639   */\n    tag_444:\n        /* \"#utility.yul\":8559:8593   */\n      0x456e642074696d65206d7573742062652061667465722073746172742074696d\n        /* \"#utility.yul\":8555:8556   */\n      0x00\n        /* \"#utility.yul\":8547:8553   */\n      dup3\n        /* \"#utility.yul\":8543:8557   */\n      add\n        /* \"#utility.yul\":8536:8594   */\n      mstore\n        /* \"#utility.yul\":8628:8631   */\n      0x6500000000000000000000000000000000000000000000000000000000000000\n        /* \"#utility.yul\":8623:8625   */\n      0x20\n        /* \"#utility.yul\":8615:8621   */\n      dup3\n        /* \"#utility.yul\":8611:8626   */\n      add\n        /* \"#utility.yul\":8604:8632   */\n      mstore\n        /* \"#utility.yul\":8419:8639   */\n      pop\n      jump\t// out\n        /* \"#utility.yul\":8645:9011   */\n    tag_445:\n        /* \"#utility.yul\":8787:8790   */\n      0x00\n        /* \"#utility.yul\":8808:8875   */\n      tag_574\n        /* \"#utility.yul\":8872:8874   */\n      0x21\n        /* \"#utility.yul\":8867:8870   */\n      dup4\n        /* \"#utility.yul\":8808:8875   */\n      tag_423\n      jump\t// in\n    tag_574:\n        /* \"#utility.yul\":8801:8875   */\n      swap2\n      pop\n        /* \"#utility.yul\":8884:8977   */\n      tag_575\n        /* \"#utility.yul\":8973:8976   */\n      dup3\n        /* \"#utility.yul\":8884:8977   */\n      tag_444\n      jump\t// in\n    tag_575:\n        /* \"#utility.yul\":9002:9004   */\n      0x40\n        /* \"#utility.yul\":8997:9000   */\n      dup3\n        /* \"#utility.yul\":8993:9005   */\n      add\n        /* \"#utility.yul\":8986:9005   */\n      swap1\n      pop\n        /* \"#utility.yul\":8645:9011   */\n      swap2\n      swap1\n      pop\n      jump\t// out\n        /* \"#utility.yul\":9017:9436   */\n    tag_255:\n        /* \"#utility.yul\":9183:9187   */\n      0x00\n        /* \"#utility.yul\":9221:9223   */\n      0x20\n        /* \"#utility.yul\":9210:9219   */\n      dup3\n        /* \"#utility.yul\":9206:9224   */\n      add\n        /* \"#utility.yul\":9198:9224   */\n      swap1\n      pop\n        /* \"#utility.yul\":9270:9279   */\n      dup2\n        /* \"#utility.yul\":9264:9268   */\n      dup2\n        /* \"#utility.yul\":9260:9280   */\n      sub\n        /* \"#utility.yul\":9256:9257   */\n      0x00\n        /* \"#utility.yul\":9245:9254   */\n      dup4\n        /* \"#utility.yul\":9241:9258   */\n      add\n        /* \"#utility.yul\":9234:9281   */\n      mstore\n        /* \"#utility.yul\":9298:9429   */\n      tag_577\n        /* \"#utility.yul\":9424:9428   */\n      dup2\n        /* \"#utility.yul\":9298:9429   */\n      tag_445\n      jump\t// in\n    tag_577:\n        /* \"#utility.yul\":9290:9429   */\n      swap1\n      pop\n        /* \"#utility.yul\":9017:9436   */\n      swap2\n      swap1\n      pop\n      jump\t// out\n        /* \"#utility.yul\":9442:9662   */\n    tag_446:\n        /* \"#utility.yul\":9582:9616   */\n      0x416d6f756e74206d7573742062652067726561746572207468616e207a65726f\n        /* \"#utility.yul\":9578:9579   */\n      0x00\n        /* \"#utility.yul\":9570:9576   */\n      dup3\n        /* \"#utility.yul\":9566:9580   */\n      add\n        /* \"#utility.yul\":9559:9617   */\n      mstore\n        /* \"#utility.yul\":9651:9654   */\n      0x2e00000000000000000000000000000000000000000000000000000000000000\n        /* \"#utility.yul\":9646:9648   */\n      0x20\n        /* \"#utility.yul\":9638:9644   */\n      dup3\n        /* \"#utility.yul\":9634:9649   */\n      add\n        /* \"#utility.yul\":9627:9655   */\n      mstore\n        /* \"#utility.yul\":9442:9662   */\n      pop\n      jump\t// out\n        /* \"#utility.yul\":9668:10034   */\n    tag_447:\n        /* \"#utility.yul\":9810:9813   */\n      0x00\n        /* \"#utility.yul\":9831:9898   */\n      tag_580\n        /* \"#utility.yul\":9895:9897   */\n      0x21\n        /* \"#utility.yul\":9890:9893   */\n      dup4\n        /* \"#utility.yul\":9831:9898   */\n      tag_423\n      jump\t// in\n    tag_580:\n        /* \"#utility.yul\":9824:9898   */\n      swap2\n      pop\n        /* \"#utility.yul\":9907:10000   */\n      tag_581\n        /* \"#utility.yul\":9996:9999   */\n      dup3\n        /* \"#utility.yul\":9907:10000   */\n      tag_446\n      jump\t// in\n    tag_581:\n        /* \"#utility.yul\":10025:10027   */\n      0x40\n        /* \"#utility.yul\":10020:10023   */\n      dup3\n        /* \"#utility.yul\":10016:10028   */\n      add\n        /* \"#utility.yul\":10009:10028   */\n      swap1\n      pop\n        /* \"#utility.yul\":9668:10034   */\n      swap2\n      swap1\n      pop\n      jump\t// out\n        /* \"#utility.yul\":10040:10459   */\n    tag_275:\n        /* \"#utility.yul\":10206:10210   */\n      0x00\n        /* \"#utility.yul\":10244:10246   */\n      0x20\n        /* \"#utility.yul\":10233:10242   */\n      dup3\n        /* \"#utility.yul\":10229:10247   */\n      add\n        /* \"#utility.yul\":10221:10247   */\n      swap1\n      pop\n        /* \"#utility.yul\":10293:10302   */\n      dup2\n        /* \"#utility.yul\":10287:10291   */\n      dup2\n        /* \"#utility.yul\":10283:10303   */\n      sub\n        /* \"#utility.yul\":10279:10280   */\n      0x00\n        /* \"#utility.yul\":10268:10277   */\n      dup4\n        /* \"#utility.yul\":10264:10281   */\n      add\n        /* \"#utility.yul\":10257:10304   */\n      mstore\n        /* \"#utility.yul\":10321:10452   */\n      tag_583\n        /* \"#utility.yul\":10447:10451   */\n      dup2\n        /* \"#utility.yul\":10321:10452   */\n      tag_447\n      jump\t// in\n    tag_583:\n        /* \"#utility.yul\":10313:10452   */\n      swap1\n      pop\n        /* \"#utility.yul\":10040:10459   */\n      swap2\n      swap1\n      pop\n      jump\t// out\n        /* \"#utility.yul\":10465:10636   */\n    tag_448:\n        /* \"#utility.yul\":10605:10628   */\n      0x496e73756666696369656e742062616c616e63652e0000000000000000000000\n        /* \"#utility.yul\":10601:10602   */\n      0x00\n        /* \"#utility.yul\":10593:10599   */\n      dup3\n        /* \"#utility.yul\":10589:10603   */\n      add\n        /* \"#utility.yul\":10582:10629   */\n      mstore\n        /* \"#utility.yul\":10465:10636   */\n      pop\n      jump\t// out\n        /* \"#utility.yul\":10642:11008   */\n    tag_449:\n        /* \"#utility.yul\":10784:10787   */\n      0x00\n        /* \"#utility.yul\":10805:10872   */\n      tag_586\n        /* \"#utility.yul\":10869:10871   */\n      0x15\n        /* \"#utility.yul\":10864:10867   */\n      dup4\n        /* \"#utility.yul\":10805:10872   */\n      tag_423\n      jump\t// in\n    tag_586:\n        /* \"#utility.yul\":10798:10872   */\n      swap2\n      pop\n        /* \"#utility.yul\":10881:10974   */\n      tag_587\n        /* \"#utility.yul\":10970:10973   */\n      dup3\n        /* \"#utility.yul\":10881:10974   */\n      tag_448\n      jump\t// in\n    tag_587:\n        /* \"#utility.yul\":10999:11001   */\n      0x20\n        /* \"#utility.yul\":10994:10997   */\n      dup3\n        /* \"#utility.yul\":10990:11002   */\n      add\n        /* \"#utility.yul\":10983:11002   */\n      swap1\n      pop\n        /* \"#utility.yul\":10642:11008   */\n      swap2\n      swap1\n      pop\n      jump\t// out\n        /* \"#utility.yul\":11014:11433   */\n    tag_279:\n        /* \"#utility.yul\":11180:11184   */\n      0x00\n        /* \"#utility.yul\":11218:11220   */\n      0x20\n        /* \"#utility.yul\":11207:11216   */\n      dup3\n        /* \"#utility.yul\":11203:11221   */\n      add\n        /* \"#utility.yul\":11195:11221   */\n      swap1\n      pop\n        /* \"#utility.yul\":11267:11276   */\n      dup2\n        /* \"#utility.yul\":11261:11265   */\n      dup2\n        /* \"#utility.yul\":11257:11277   */\n      sub\n        /* \"#utility.yul\":11253:11254   */\n      0x00\n        /* \"#utility.yul\":11242:11251   */\n      dup4\n        /* \"#utility.yul\":11238:11255   */\n      add\n        /* \"#utility.yul\":11231:11278   */\n      mstore\n        /* \"#utility.yul\":11295:11426   */\n      tag_589\n        /* \"#utility.yul\":11421:11425   */\n      dup2\n        /* \"#utility.yul\":11295:11426   */\n      tag_449\n      jump\t// in\n    tag_589:\n        /* \"#utility.yul\":11287:11426   */\n      swap1\n      pop\n        /* \"#utility.yul\":11014:11433   */\n      swap2\n      swap1\n      pop\n      jump\t// out\n        /* \"#utility.yul\":11439:11630   */\n    tag_282:\n        /* \"#utility.yul\":11479:11482   */\n      0x00\n        /* \"#utility.yul\":11498:11518   */\n      tag_591\n        /* \"#utility.yul\":11516:11517   */\n      dup3\n        /* \"#utility.yul\":11498:11518   */\n      tag_420\n      jump\t// in\n    tag_591:\n        /* \"#utility.yul\":11493:11518   */\n      swap2\n      pop\n        /* \"#utility.yul\":11532:11552   */\n      tag_592\n        /* \"#utility.yul\":11550:11551   */\n      dup4\n        /* \"#utility.yul\":11532:11552   */\n      tag_420\n      jump\t// in\n    tag_592:\n        /* \"#utility.yul\":11527:11552   */\n      swap3\n      pop\n        /* \"#utility.yul\":11575:11576   */\n      dup3\n        /* \"#utility.yul\":11572:11573   */\n      dup3\n        /* \"#utility.yul\":11568:11577   */\n      add\n        /* \"#utility.yul\":11561:11577   */\n      swap1\n      pop\n        /* \"#utility.yul\":11596:11599   */\n      dup1\n        /* \"#utility.yul\":11593:11594   */\n      dup3\n        /* \"#utility.yul\":11590:11600   */\n      gt\n        /* \"#utility.yul\":11587:11623   */\n      iszero\n      tag_593\n      jumpi\n        /* \"#utility.yul\":11603:11621   */\n      tag_594\n      tag_442\n      jump\t// in\n    tag_594:\n        /* \"#utility.yul\":11587:11623   */\n    tag_593:\n        /* \"#utility.yul\":11439:11630   */\n      swap3\n      swap2\n      pop\n      pop\n      jump\t// out\n        /* \"#utility.yul\":11636:11809   */\n    tag_450:\n        /* \"#utility.yul\":11776:11801   */\n      0x50726573616c65206e6f74207374617274656420796574000000000000000000\n        /* \"#utility.yul\":11772:11773   */\n      0x00\n        /* \"#utility.yul\":11764:11770   */\n      dup3\n        /* \"#utility.yul\":11760:11774   */\n      add\n        /* \"#utility.yul\":11753:11802   */\n      mstore\n        /* \"#utility.yul\":11636:11809   */\n      pop\n      jump\t// out\n        /* \"#utility.yul\":11815:12181   */\n    tag_451:\n        /* \"#utility.yul\":11957:11960   */\n      0x00\n        /* \"#utility.yul\":11978:12045   */\n      tag_597\n        /* \"#utility.yul\":12042:12044   */\n      0x17\n        /* \"#utility.yul\":12037:12040   */\n      dup4\n        /* \"#utility.yul\":11978:12045   */\n      tag_423\n      jump\t// in\n    tag_597:\n        /* \"#utility.yul\":11971:12045   */\n      swap2\n      pop\n        /* \"#utility.yul\":12054:12147   */\n      tag_598\n        /* \"#utility.yul\":12143:12146   */\n      dup3\n        /* \"#utility.yul\":12054:12147   */\n      tag_450\n      jump\t// in\n    tag_598:\n        /* \"#utility.yul\":12172:12174   */\n      0x20\n        /* \"#utility.yul\":12167:12170   */\n      dup3\n        /* \"#utility.yul\":12163:12175   */\n      add\n        /* \"#utility.yul\":12156:12175   */\n      swap1\n      pop\n        /* \"#utility.yul\":11815:12181   */\n      swap2\n      swap1\n      pop\n      jump\t// out\n        /* \"#utility.yul\":12187:12606   */\n    tag_287:\n        /* \"#utility.yul\":12353:12357   */\n      0x00\n        /* \"#utility.yul\":12391:12393   */\n      0x20\n        /* \"#utility.yul\":12380:12389   */\n      dup3\n        /* \"#utility.yul\":12376:12394   */\n      add\n        /* \"#utility.yul\":12368:12394   */\n      swap1\n      pop\n        /* \"#utility.yul\":12440:12449   */\n      dup2\n        /* \"#utility.yul\":12434:12438   */\n      dup2\n        /* \"#utility.yul\":12430:12450   */\n      sub\n        /* \"#utility.yul\":12426:12427   */\n      0x00\n        /* \"#utility.yul\":12415:12424   */\n      dup4\n        /* \"#utility.yul\":12411:12428   */\n      add\n        /* \"#utility.yul\":12404:12451   */\n      mstore\n        /* \"#utility.yul\":12468:12599   */\n      tag_600\n        /* \"#utility.yul\":12594:12598   */\n      dup2\n        /* \"#utility.yul\":12468:12599   */\n      tag_451\n      jump\t// in\n    tag_600:\n        /* \"#utility.yul\":12460:12599   */\n      swap1\n      pop\n        /* \"#utility.yul\":12187:12606   */\n      swap2\n      swap1\n      pop\n      jump\t// out\n        /* \"#utility.yul\":12612:12782   */\n    tag_452:\n        /* \"#utility.yul\":12752:12774   */\n      0x4e6f207265776172647320617661696c61626c65000000000000000000000000\n        /* \"#utility.yul\":12748:12749   */\n      0x00\n        /* \"#utility.yul\":12740:12746   */\n      dup3\n        /* \"#utility.yul\":12736:12750   */\n      add\n        /* \"#utility.yul\":12729:12775   */\n      mstore\n        /* \"#utility.yul\":12612:12782   */\n      pop\n      jump\t// out\n        /* \"#utility.yul\":12788:13154   */\n    tag_453:\n        /* \"#utility.yul\":12930:12933   */\n      0x00\n        /* \"#utility.yul\":12951:13018   */\n      tag_603\n        /* \"#utility.yul\":13015:13017   */\n      0x14\n        /* \"#utility.yul\":13010:13013   */\n      dup4\n        /* \"#utility.yul\":12951:13018   */\n      tag_423\n      jump\t// in\n    tag_603:\n        /* \"#utility.yul\":12944:13018   */\n      swap2\n      pop\n        /* \"#utility.yul\":13027:13120   */\n      tag_604\n        /* \"#utility.yul\":13116:13119   */\n      dup3\n        /* \"#utility.yul\":13027:13120   */\n      tag_452\n      jump\t// in\n    tag_604:\n        /* \"#utility.yul\":13145:13147   */\n      0x20\n        /* \"#utility.yul\":13140:13143   */\n      dup3\n        /* \"#utility.yul\":13136:13148   */\n      add\n        /* \"#utility.yul\":13129:13148   */\n      swap1\n      pop\n        /* \"#utility.yul\":12788:13154   */\n      swap2\n      swap1\n      pop\n      jump\t// out\n        /* \"#utility.yul\":13160:13579   */\n    tag_291:\n        /* \"#utility.yul\":13326:13330   */\n      0x00\n        /* \"#utility.yul\":13364:13366   */\n      0x20\n        /* \"#utility.yul\":13353:13362   */\n      dup3\n        /* \"#utility.yul\":13349:13367   */\n      add\n        /* \"#utility.yul\":13341:13367   */\n      swap1\n      pop\n        /* \"#utility.yul\":13413:13422   */\n      dup2\n        /* \"#utility.yul\":13407:13411   */\n      dup2\n        /* \"#utility.yul\":13403:13423   */\n      sub\n        /* \"#utility.yul\":13399:13400   */\n      0x00\n        /* \"#utility.yul\":13388:13397   */\n      dup4\n        /* \"#utility.yul\":13384:13401   */\n      add\n        /* \"#utility.yul\":13377:13424   */\n      mstore\n        /* \"#utility.yul\":13441:13572   */\n      tag_606\n        /* \"#utility.yul\":13567:13571   */\n      dup2\n        /* \"#utility.yul\":13441:13572   */\n      tag_453\n      jump\t// in\n    tag_606:\n        /* \"#utility.yul\":13433:13572   */\n      swap1\n      pop\n        /* \"#utility.yul\":13160:13579   */\n      swap2\n      swap1\n      pop\n      jump\t// out\n        /* \"#utility.yul\":13585:13687   */\n    tag_454:\n        /* \"#utility.yul\":13627:13635   */\n      0x00\n        /* \"#utility.yul\":13674:13679   */\n      dup2\n        /* \"#utility.yul\":13671:13672   */\n      0x01\n        /* \"#utility.yul\":13667:13680   */\n      shr\n        /* \"#utility.yul\":13646:13680   */\n      swap1\n      pop\n        /* \"#utility.yul\":13585:13687   */\n      swap2\n      swap1\n      pop\n      jump\t// out\n        /* \"#utility.yul\":13693:14541   */\n    tag_455:\n        /* \"#utility.yul\":13754:13759   */\n      0x00\n        /* \"#utility.yul\":13761:13765   */\n      dup1\n        /* \"#utility.yul\":13785:13791   */\n      dup3\n        /* \"#utility.yul\":13776:13791   */\n      swap2\n      pop\n        /* \"#utility.yul\":13809:13814   */\n      dup4\n        /* \"#utility.yul\":13800:13814   */\n      swap1\n      pop\n        /* \"#utility.yul\":13823:14535   */\n    tag_609:\n        /* \"#utility.yul\":13844:13845   */\n      0x01\n        /* \"#utility.yul\":13834:13842   */\n      dup6\n        /* \"#utility.yul\":13831:13846   */\n      gt\n        /* \"#utility.yul\":13823:14535   */\n      iszero\n      tag_611\n      jumpi\n        /* \"#utility.yul\":13939:13943   */\n      dup1\n        /* \"#utility.yul\":13934:13937   */\n      dup7\n        /* \"#utility.yul\":13930:13944   */\n      div\n        /* \"#utility.yul\":13924:13928   */\n      dup2\n        /* \"#utility.yul\":13921:13945   */\n      gt\n        /* \"#utility.yul\":13918:13968   */\n      iszero\n      tag_612\n      jumpi\n        /* \"#utility.yul\":13948:13966   */\n      tag_613\n      tag_442\n      jump\t// in\n    tag_613:\n        /* \"#utility.yul\":13918:13968   */\n    tag_612:\n        /* \"#utility.yul\":13998:13999   */\n      0x01\n        /* \"#utility.yul\":13988:13996   */\n      dup6\n        /* \"#utility.yul\":13984:14000   */\n      and\n        /* \"#utility.yul\":13981:14432   */\n      iszero\n      tag_614\n      jumpi\n        /* \"#utility.yul\":14413:14417   */\n      dup1\n        /* \"#utility.yul\":14406:14411   */\n      dup3\n        /* \"#utility.yul\":14402:14418   */\n      mul\n        /* \"#utility.yul\":14393:14418   */\n      swap2\n      pop\n        /* \"#utility.yul\":13981:14432   */\n    tag_614:\n        /* \"#utility.yul\":14463:14467   */\n      dup1\n        /* \"#utility.yul\":14457:14461   */\n      dup2\n        /* \"#utility.yul\":14453:14468   */\n      mul\n        /* \"#utility.yul\":14445:14468   */\n      swap1\n      pop\n        /* \"#utility.yul\":14493:14525   */\n      tag_615\n        /* \"#utility.yul\":14516:14524   */\n      dup6\n        /* \"#utility.yul\":14493:14525   */\n      tag_454\n      jump\t// in\n    tag_615:\n        /* \"#utility.yul\":14481:14525   */\n      swap5\n      pop\n        /* \"#utility.yul\":13823:14535   */\n      jump(tag_609)\n    tag_611:\n        /* \"#utility.yul\":13693:14541   */\n      swap5\n      pop\n      swap5\n      swap3\n      pop\n      pop\n      pop\n      jump\t// out\n        /* \"#utility.yul\":14547:15620   */\n    tag_456:\n        /* \"#utility.yul\":14601:14606   */\n      0x00\n        /* \"#utility.yul\":14792:14800   */\n      dup3\n        /* \"#utility.yul\":14782:14822   */\n      tag_617\n      jumpi\n        /* \"#utility.yul\":14813:14814   */\n      0x01\n        /* \"#utility.yul\":14804:14814   */\n      swap1\n      pop\n        /* \"#utility.yul\":14815:14820   */\n      jump(tag_616)\n        /* \"#utility.yul\":14782:14822   */\n    tag_617:\n        /* \"#utility.yul\":14841:14845   */\n      dup2\n        /* \"#utility.yul\":14831:14867   */\n      tag_618\n      jumpi\n        /* \"#utility.yul\":14858:14859   */\n      0x00\n        /* \"#utility.yul\":14849:14859   */\n      swap1\n      pop\n        /* \"#utility.yul\":14860:14865   */\n      jump(tag_616)\n        /* \"#utility.yul\":14831:14867   */\n    tag_618:\n        /* \"#utility.yul\":14927:14931   */\n      dup2\n        /* \"#utility.yul\":14975:14976   */\n      0x01\n        /* \"#utility.yul\":14970:14997   */\n      dup2\n      eq\n      tag_620\n      jumpi\n        /* \"#utility.yul\":15011:15012   */\n      0x02\n        /* \"#utility.yul\":15006:15197   */\n      dup2\n      eq\n      tag_621\n      jumpi\n        /* \"#utility.yul\":14920:15197   */\n      jump(tag_619)\n        /* \"#utility.yul\":14970:14997   */\n    tag_620:\n        /* \"#utility.yul\":14988:14989   */\n      0x01\n        /* \"#utility.yul\":14979:14989   */\n      swap2\n      pop\n        /* \"#utility.yul\":14990:14995   */\n      pop\n      jump(tag_616)\n        /* \"#utility.yul\":15006:15197   */\n    tag_621:\n        /* \"#utility.yul\":15051:15054   */\n      0xff\n        /* \"#utility.yul\":15041:15049   */\n      dup5\n        /* \"#utility.yul\":15038:15055   */\n      gt\n        /* \"#utility.yul\":15035:15078   */\n      iszero\n      tag_622\n      jumpi\n        /* \"#utility.yul\":15058:15076   */\n      tag_623\n      tag_442\n      jump\t// in\n    tag_623:\n        /* \"#utility.yul\":15035:15078   */\n    tag_622:\n        /* \"#utility.yul\":15107:15115   */\n      dup4\n        /* \"#utility.yul\":15104:15105   */\n      0x02\n        /* \"#utility.yul\":15100:15116   */\n      exp\n        /* \"#utility.yul\":15091:15116   */\n      swap2\n      pop\n        /* \"#utility.yul\":15142:15145   */\n      dup5\n        /* \"#utility.yul\":15135:15140   */\n      dup3\n        /* \"#utility.yul\":15132:15146   */\n      gt\n        /* \"#utility.yul\":15129:15169   */\n      iszero\n      tag_624\n      jumpi\n        /* \"#utility.yul\":15149:15167   */\n      tag_625\n      tag_442\n      jump\t// in\n    tag_625:\n        /* \"#utility.yul\":15129:15169   */\n    tag_624:\n        /* \"#utility.yul\":15182:15187   */\n      pop\n      jump(tag_616)\n        /* \"#utility.yul\":14920:15197   */\n    tag_619:\n      pop\n        /* \"#utility.yul\":15306:15308   */\n      0x20\n        /* \"#utility.yul\":15296:15304   */\n      dup4\n        /* \"#utility.yul\":15293:15309   */\n      lt\n        /* \"#utility.yul\":15287:15290   */\n      0x0133\n        /* \"#utility.yul\":15281:15285   */\n      dup4\n        /* \"#utility.yul\":15278:15291   */\n      lt\n        /* \"#utility.yul\":15274:15310   */\n      and\n        /* \"#utility.yul\":15256:15258   */\n      0x4e\n        /* \"#utility.yul\":15246:15254   */\n      dup5\n        /* \"#utility.yul\":15243:15259   */\n      lt\n        /* \"#utility.yul\":15238:15240   */\n      0x0b\n        /* \"#utility.yul\":15232:15236   */\n      dup5\n        /* \"#utility.yul\":15229:15241   */\n      lt\n        /* \"#utility.yul\":15225:15260   */\n      and\n        /* \"#utility.yul\":15209:15320   */\n      or\n        /* \"#utility.yul\":15206:15452   */\n      iszero\n      tag_626\n      jumpi\n        /* \"#utility.yul\":15362:15370   */\n      dup3\n        /* \"#utility.yul\":15356:15360   */\n      dup3\n        /* \"#utility.yul\":15352:15371   */\n      exp\n        /* \"#utility.yul\":15343:15371   */\n      swap1\n      pop\n        /* \"#utility.yul\":15397:15400   */\n      dup4\n        /* \"#utility.yul\":15390:15395   */\n      dup2\n        /* \"#utility.yul\":15387:15401   */\n      gt\n        /* \"#utility.yul\":15384:15424   */\n      iszero\n      tag_627\n      jumpi\n        /* \"#utility.yul\":15404:15422   */\n      tag_628\n      tag_442\n      jump\t// in\n    tag_628:\n        /* \"#utility.yul\":15384:15424   */\n    tag_627:\n        /* \"#utility.yul\":15437:15442   */\n      jump(tag_616)\n        /* \"#utility.yul\":15206:15452   */\n    tag_626:\n        /* \"#utility.yul\":15477:15519   */\n      tag_629\n        /* \"#utility.yul\":15515:15518   */\n      dup5\n        /* \"#utility.yul\":15505:15513   */\n      dup5\n        /* \"#utility.yul\":15499:15503   */\n      dup5\n        /* \"#utility.yul\":15496:15497   */\n      0x01\n        /* \"#utility.yul\":15477:15519   */\n      tag_455\n      jump\t// in\n    tag_629:\n        /* \"#utility.yul\":15462:15519   */\n      swap3\n      pop\n      swap1\n      pop\n        /* \"#utility.yul\":15551:15555   */\n      dup2\n        /* \"#utility.yul\":15546:15549   */\n      dup5\n        /* \"#utility.yul\":15542:15556   */\n      div\n        /* \"#utility.yul\":15535:15540   */\n      dup2\n        /* \"#utility.yul\":15532:15557   */\n      gt\n        /* \"#utility.yul\":15529:15580   */\n      iszero\n      tag_630\n      jumpi\n        /* \"#utility.yul\":15560:15578   */\n      tag_631\n      tag_442\n      jump\t// in\n    tag_631:\n        /* \"#utility.yul\":15529:15580   */\n    tag_630:\n        /* \"#utility.yul\":15609:15613   */\n      dup2\n        /* \"#utility.yul\":15602:15607   */\n      dup2\n        /* \"#utility.yul\":15598:15614   */\n      mul\n        /* \"#utility.yul\":15589:15614   */\n      swap1\n      pop\n        /* \"#utility.yul\":14547:15620   */\n    tag_616:\n      swap4\n      swap3\n      pop\n      pop\n      pop\n      jump\t// out\n        /* \"#utility.yul\":15626:15907   */\n    tag_298:\n        /* \"#utility.yul\":15684:15689   */\n      0x00\n        /* \"#utility.yul\":15708:15731   */\n      tag_633\n        /* \"#utility.yul\":15726:15730   */\n      dup3\n        /* \"#utility.yul\":15708:15731   */\n      tag_420\n      jump\t// in\n    tag_633:\n        /* \"#utility.yul\":15700:15731   */\n      swap2\n      pop\n        /* \"#utility.yul\":15752:15777   */\n      tag_634\n        /* \"#utility.yul\":15768:15776   */\n      dup4\n        /* \"#utility.yul\":15752:15777   */\n      tag_438\n      jump\t// in\n    tag_634:\n        /* \"#utility.yul\":15740:15777   */\n      swap3\n      pop\n        /* \"#utility.yul\":15796:15900   */\n      tag_635\n        /* \"#utility.yul\":15833:15899   */\n      0xffffffffffffffffffffffffffffffffffffffffffffffffffffffffffffffff\n        /* \"#utility.yul\":15823:15831   */\n      dup5\n        /* \"#utility.yul\":15817:15821   */\n      dup5\n        /* \"#utility.yul\":15796:15900   */\n      tag_456\n      jump\t// in\n    tag_635:\n        /* \"#utility.yul\":15787:15900   */\n      swap1\n      pop\n        /* \"#utility.yul\":15626:15907   */\n      swap3\n      swap2\n      pop\n      pop\n      jump\t// out\n        /* \"#utility.yul\":15913:16082   */\n    tag_457:\n        /* \"#utility.yul\":16053:16074   */\n      0x416c72656164792077686974656c697374656400000000000000000000000000\n        /* \"#utility.yul\":16049:16050   */\n      0x00\n        /* \"#utility.yul\":16041:16047   */\n      dup3\n        /* \"#utility.yul\":16037:16051   */\n      add\n        /* \"#utility.yul\":16030:16075   */\n      mstore\n        /* \"#utility.yul\":15913:16082   */\n      pop\n      jump\t// out\n        /* \"#utility.yul\":16088:16454   */\n    tag_458:\n        /* \"#utility.yul\":16230:16233   */\n      0x00\n        /* \"#utility.yul\":16251:16318   */\n      tag_638\n        /* \"#utility.yul\":16315:16317   */\n      0x13\n        /* \"#utility.yul\":16310:16313   */\n      dup4\n        /* \"#utility.yul\":16251:16318   */\n      tag_423\n      jump\t// in\n    tag_638:\n        /* \"#utility.yul\":16244:16318   */\n      swap2\n      pop\n        /* \"#utility.yul\":16327:16420   */\n      tag_639\n        /* \"#utility.yul\":16416:16419   */\n      dup3\n        /* \"#utility.yul\":16327:16420   */\n      tag_457\n      jump\t// in\n    tag_639:\n        /* \"#utility.yul\":16445:16447   */\n      0x20\n        /* \"#utility.yul\":16440:16443   */\n      dup3\n        /* \"#utility.yul\":16436:16448   */\n      add\n        /* \"#utility.yul\":16429:16448   */\n      swap1\n      pop\n        /* \"#utility.yul\":16088:16454   */\n      swap2\n      swap1\n      pop\n      jump\t// out\n        /* \"#utility.yul\":16460:16879   */\n    tag_311:\n        /* \"#utility.yul\":16626:16630   */\n      0x00\n        /* \"#utility.yul\":16664:16666   */\n      0x20\n        /* \"#utility.yul\":16653:16662   */\n      dup3\n        /* \"#utility.yul\":16649:16667   */\n      add\n        /* \"#utility.yul\":16641:16667   */\n      swap1\n      pop\n        /* \"#utility.yul\":16713:16722   */\n      dup2\n        /* \"#utility.yul\":16707:16711   */\n      dup2\n        /* \"#utility.yul\":16703:16723   */\n      sub\n        /* \"#utility.yul\":16699:16700   */\n      0x00\n        /* \"#utility.yul\":16688:16697   */\n      dup4\n        /* \"#utility.yul\":16684:16701   */\n      add\n        /* \"#utility.yul\":16677:16724   */\n      mstore\n        /* \"#utility.yul\":16741:16872   */\n      tag_641\n        /* \"#utility.yul\":16867:16871   */\n      dup2\n        /* \"#utility.yul\":16741:16872   */\n      tag_458\n      jump\t// in\n    tag_641:\n        /* \"#utility.yul\":16733:16872   */\n      swap1\n      pop\n        /* \"#utility.yul\":16460:16879   */\n      swap2\n      swap1\n      pop\n      jump\t// out\n        /* \"#utility.yul\":16885:17056   */\n    tag_459:\n        /* \"#utility.yul\":17025:17048   */\n      0x43616e6e6f7420726566657220796f757273656c660000000000000000000000\n        /* \"#utility.yul\":17021:17022   */\n      0x00\n        /* \"#utility.yul\":17013:17019   */\n      dup3\n        /* \"#utility.yul\":17009:17023   */\n      add\n        /* \"#utility.yul\":17002:17049   */\n      mstore\n        /* \"#utility.yul\":16885:17056   */\n      pop\n      jump\t// out\n        /* \"#utility.yul\":17062:17428   */\n    tag_460:\n        /* \"#utility.yul\":17204:17207   */\n      0x00\n        /* \"#utility.yul\":17225:17292   */\n      tag_644\n        /* \"#utility.yul\":17289:17291   */\n      0x15\n        /* \"#utility.yul\":17284:17287   */\n      dup4\n        /* \"#utility.yul\":17225:17292   */\n      tag_423\n      jump\t// in\n    tag_644:\n        /* \"#utility.yul\":17218:17292   */\n      swap2\n      pop\n        /* \"#utility.yul\":17301:17394   */\n      tag_645\n        /* \"#utility.yul\":17390:17393   */\n      dup3\n        /* \"#utility.yul\":17301:17394   */\n      tag_459\n      jump\t// in\n    tag_645:\n        /* \"#utility.yul\":17419:17421   */\n      0x20\n        /* \"#utility.yul\":17414:17417   */\n      dup3\n        /* \"#utility.yul\":17410:17422   */\n      add\n        /* \"#utility.yul\":17403:17422   */\n      swap1\n      pop\n        /* \"#utility.yul\":17062:17428   */\n      swap2\n      swap1\n      pop\n      jump\t// out\n        /* \"#utility.yul\":17434:17853   */\n    tag_314:\n        /* \"#utility.yul\":17600:17604   */\n      0x00\n        /* \"#utility.yul\":17638:17640   */\n      0x20\n        /* \"#utility.yul\":17627:17636   */\n      dup3\n        /* \"#utility.yul\":17623:17641   */\n      add\n        /* \"#utility.yul\":17615:17641   */\n      swap1\n      pop\n        /* \"#utility.yul\":17687:17696   */\n      dup2\n        /* \"#utility.yul\":17681:17685   */\n      dup2\n        /* \"#utility.yul\":17677:17697   */\n      sub\n        /* \"#utility.yul\":17673:17674   */\n      0x00\n        /* \"#utility.yul\":17662:17671   */\n      dup4\n        /* \"#utility.yul\":17658:17675   */\n      add\n        /* \"#utility.yul\":17651:17698   */\n      mstore\n        /* \"#utility.yul\":17715:17846   */\n      tag_647\n        /* \"#utility.yul\":17841:17845   */\n      dup2\n        /* \"#utility.yul\":17715:17846   */\n      tag_460\n      jump\t// in\n    tag_647:\n        /* \"#utility.yul\":17707:17846   */\n      swap1\n      pop\n        /* \"#utility.yul\":17434:17853   */\n      swap2\n      swap1\n      pop\n      jump\t// out\n        /* \"#utility.yul\":17859:18026   */\n    tag_461:\n        /* \"#utility.yul\":17999:18018   */\n      0x4e6f20746f6b656e73207374616b65642e000000000000000000000000000000\n        /* \"#utility.yul\":17995:17996   */\n      0x00\n        /* \"#utility.yul\":17987:17993   */\n      dup3\n        /* \"#utility.yul\":17983:17997   */\n      add\n        /* \"#utility.yul\":17976:18019   */\n      mstore\n        /* \"#utility.yul\":17859:18026   */\n      pop\n      jump\t// out\n        /* \"#utility.yul\":18032:18398   */\n    tag_462:\n        /* \"#utility.yul\":18174:18177   */\n      0x00\n        /* \"#utility.yul\":18195:18262   */\n      tag_650\n        /* \"#utility.yul\":18259:18261   */\n      0x11\n        /* \"#utility.yul\":18254:18257   */\n      dup4\n        /* \"#utility.yul\":18195:18262   */\n      tag_423\n      jump\t// in\n    tag_650:\n        /* \"#utility.yul\":18188:18262   */\n      swap2\n      pop\n        /* \"#utility.yul\":18271:18364   */\n      tag_651\n        /* \"#utility.yul\":18360:18363   */\n      dup3\n        /* \"#utility.yul\":18271:18364   */\n      tag_461\n      jump\t// in\n    tag_651:\n        /* \"#utility.yul\":18389:18391   */\n      0x20\n        /* \"#utility.yul\":18384:18387   */\n      dup3\n        /* \"#utility.yul\":18380:18392   */\n      add\n        /* \"#utility.yul\":18373:18392   */\n      swap1\n      pop\n        /* \"#utility.yul\":18032:18398   */\n      swap2\n      swap1\n      pop\n      jump\t// out\n        /* \"#utility.yul\":18404:18823   */\n    tag_321:\n        /* \"#utility.yul\":18570:18574   */\n      0x00\n        /* \"#utility.yul\":18608:18610   */\n      0x20\n        /* \"#utility.yul\":18597:18606   */\n      dup3\n        /* \"#utility.yul\":18593:18611   */\n      add\n        /* \"#utility.yul\":18585:18611   */\n      swap1\n      pop\n        /* \"#utility.yul\":18657:18666   */\n      dup2\n        /* \"#utility.yul\":18651:18655   */\n      dup2\n        /* \"#utility.yul\":18647:18667   */\n      sub\n        /* \"#utility.yul\":18643:18644   */\n      0x00\n        /* \"#utility.yul\":18632:18641   */\n      dup4\n        /* \"#utility.yul\":18628:18645   */\n      add\n        /* \"#utility.yul\":18621:18668   */\n      mstore\n        /* \"#utility.yul\":18685:18816   */\n      tag_653\n        /* \"#utility.yul\":18811:18815   */\n      dup2\n        /* \"#utility.yul\":18685:18816   */\n      tag_462\n      jump\t// in\n    tag_653:\n        /* \"#utility.yul\":18677:18816   */\n      swap1\n      pop\n        /* \"#utility.yul\":18404:18823   */\n      swap2\n      swap1\n      pop\n      jump\t// out\n        /* \"#utility.yul\":18829:19006   */\n    tag_463:\n        /* \"#utility.yul\":18969:18998   */\n      0x556e7374616b65206f6e6c792061667465722034207765656b732e0000000000\n        /* \"#utility.yul\":18965:18966   */\n      0x00\n        /* \"#utility.yul\":18957:18963   */\n      dup3\n        /* \"#utility.yul\":18953:18967   */\n      add\n        /* \"#utility.yul\":18946:18999   */\n      mstore\n        /* \"#utility.yul\":18829:19006   */\n      pop\n      jump\t// out\n        /* \"#utility.yul\":19012:19378   */\n    tag_464:\n        /* \"#utility.yul\":19154:19157   */\n      0x00\n        /* \"#utility.yul\":19175:19242   */\n      tag_656\n        /* \"#utility.yul\":19239:19241   */\n      0x1b\n        /* \"#utility.yul\":19234:19237   */\n      dup4\n        /* \"#utility.yul\":19175:19242   */\n      tag_423\n      jump\t// in\n    tag_656:\n        /* \"#utility.yul\":19168:19242   */\n      swap2\n      pop\n        /* \"#utility.yul\":19251:19344   */\n      tag_657\n        /* \"#utility.yul\":19340:19343   */\n      dup3\n        /* \"#utility.yul\":19251:19344   */\n      tag_463\n      jump\t// in\n    tag_657:\n        /* \"#utility.yul\":19369:19371   */\n      0x20\n        /* \"#utility.yul\":19364:19367   */\n      dup3\n        /* \"#utility.yul\":19360:19372   */\n      add\n        /* \"#utility.yul\":19353:19372   */\n      swap1\n      pop\n        /* \"#utility.yul\":19012:19378   */\n      swap2\n      swap1\n      pop\n      jump\t// out\n        /* \"#utility.yul\":19384:19803   */\n    tag_325:\n        /* \"#utility.yul\":19550:19554   */\n      0x00\n        /* \"#utility.yul\":19588:19590   */\n      0x20\n        /* \"#utility.yul\":19577:19586   */\n      dup3\n        /* \"#utility.yul\":19573:19591   */\n      add\n        /* \"#utility.yul\":19565:19591   */\n      swap1\n      pop\n        /* \"#utility.yul\":19637:19646   */\n      dup2\n        /* \"#utility.yul\":19631:19635   */\n      dup2\n        /* \"#utility.yul\":19627:19647   */\n      sub\n        /* \"#utility.yul\":19623:19624   */\n      0x00\n        /* \"#utility.yul\":19612:19621   */\n      dup4\n        /* \"#utility.yul\":19608:19625   */\n      add\n        /* \"#utility.yul\":19601:19648   */\n      mstore\n        /* \"#utility.yul\":19665:19796   */\n      tag_659\n        /* \"#utility.yul\":19791:19795   */\n      dup2\n        /* \"#utility.yul\":19665:19796   */\n      tag_464\n      jump\t// in\n    tag_659:\n        /* \"#utility.yul\":19657:19796   */\n      swap1\n      pop\n        /* \"#utility.yul\":19384:19803   */\n      swap2\n      swap1\n      pop\n      jump\t// out\n        /* \"#utility.yul\":19809:20141   */\n    tag_330:\n        /* \"#utility.yul\":19930:19934   */\n      0x00\n        /* \"#utility.yul\":19968:19970   */\n      0x40\n        /* \"#utility.yul\":19957:19966   */\n      dup3\n        /* \"#utility.yul\":19953:19971   */\n      add\n        /* \"#utility.yul\":19945:19971   */\n      swap1\n      pop\n        /* \"#utility.yul\":19981:20052   */\n      tag_661\n        /* \"#utility.yul\":20049:20050   */\n      0x00\n        /* \"#utility.yul\":20038:20047   */\n      dup4\n        /* \"#utility.yul\":20034:20051   */\n      add\n        /* \"#utility.yul\":20025:20031   */\n      dup6\n        /* \"#utility.yul\":19981:20052   */\n      tag_421\n      jump\t// in\n    tag_661:\n        /* \"#utility.yul\":20062:20134   */\n      tag_662\n        /* \"#utility.yul\":20130:20132   */\n      0x20\n        /* \"#utility.yul\":20119:20128   */\n      dup4\n        /* \"#utility.yul\":20115:20133   */\n      add\n        /* \"#utility.yul\":20106:20112   */\n      dup5\n        /* \"#utility.yul\":20062:20134   */\n      tag_421\n      jump\t// in\n    tag_662:\n        /* \"#utility.yul\":19809:20141   */\n      swap4\n      swap3\n      pop\n      pop\n      pop\n      jump\t// out\n        /* \"#utility.yul\":20147:20313   */\n    tag_465:\n        /* \"#utility.yul\":20287:20305   */\n      0x53616c65206e6f74206163746976652e00000000000000000000000000000000\n        /* \"#utility.yul\":20283:20284   */\n      0x00\n        /* \"#utility.yul\":20275:20281   */\n      dup3\n        /* \"#utility.yul\":20271:20285   */\n      add\n        /* \"#utility.yul\":20264:20306   */\n      mstore\n        /* \"#utility.yul\":20147:20313   */\n      pop\n      jump\t// out\n        /* \"#utility.yul\":20319:20685   */\n    tag_466:\n        /* \"#utility.yul\":20461:20464   */\n      0x00\n        /* \"#utility.yul\":20482:20549   */\n      tag_665\n        /* \"#utility.yul\":20546:20548   */\n      0x10\n        /* \"#utility.yul\":20541:20544   */\n      dup4\n        /* \"#utility.yul\":20482:20549   */\n      tag_423\n      jump\t// in\n    tag_665:\n        /* \"#utility.yul\":20475:20549   */\n      swap2\n      pop\n        /* \"#utility.yul\":20558:20651   */\n      tag_666\n        /* \"#utility.yul\":20647:20650   */\n      dup3\n        /* \"#utility.yul\":20558:20651   */\n      tag_465\n      jump\t// in\n    tag_666:\n        /* \"#utility.yul\":20676:20678   */\n      0x20\n        /* \"#utility.yul\":20671:20674   */\n      dup3\n        /* \"#utility.yul\":20667:20679   */\n      add\n        /* \"#utility.yul\":20660:20679   */\n      swap1\n      pop\n        /* \"#utility.yul\":20319:20685   */\n      swap2\n      swap1\n      pop\n      jump\t// out\n        /* \"#utility.yul\":20691:21110   */\n    tag_337:\n        /* \"#utility.yul\":20857:20861   */\n      0x00\n        /* \"#utility.yul\":20895:20897   */\n      0x20\n        /* \"#utility.yul\":20884:20893   */\n      dup3\n        /* \"#utility.yul\":20880:20898   */\n      add\n        /* \"#utility.yul\":20872:20898   */\n      swap1\n      pop\n        /* \"#utility.yul\":20944:20953   */\n      dup2\n        /* \"#utility.yul\":20938:20942   */\n      dup2\n        /* \"#utility.yul\":20934:20954   */\n      sub\n        /* \"#utility.yul\":20930:20931   */\n      0x00\n        /* \"#utility.yul\":20919:20928   */\n      dup4\n        /* \"#utility.yul\":20915:20932   */\n      add\n        /* \"#utility.yul\":20908:20955   */\n      mstore\n        /* \"#utility.yul\":20972:21103   */\n      tag_668\n        /* \"#utility.yul\":21098:21102   */\n      dup2\n        /* \"#utility.yul\":20972:21103   */\n      tag_466\n      jump\t// in\n    tag_668:\n        /* \"#utility.yul\":20964:21103   */\n      swap1\n      pop\n        /* \"#utility.yul\":20691:21110   */\n      swap2\n      swap1\n      pop\n      jump\t// out\n        /* \"#utility.yul\":21116:21294   */\n    tag_467:\n        /* \"#utility.yul\":21256:21286   */\n      0x4d7573742073656e642045544820746f2062757920746f6b656e732e00000000\n        /* \"#utility.yul\":21252:21253   */\n      0x00\n        /* \"#utility.yul\":21244:21250   */\n      dup3\n        /* \"#utility.yul\":21240:21254   */\n      add\n        /* \"#utility.yul\":21233:21287   */\n      mstore\n        /* \"#utility.yul\":21116:21294   */\n      pop\n      jump\t// out\n        /* \"#utility.yul\":21300:21666   */\n    tag_468:\n        /* \"#utility.yul\":21442:21445   */\n      0x00\n        /* \"#utility.yul\":21463:21530   */\n      tag_671\n        /* \"#utility.yul\":21527:21529   */\n      0x1c\n        /* \"#utility.yul\":21522:21525   */\n      dup4\n        /* \"#utility.yul\":21463:21530   */\n      tag_423\n      jump\t// in\n    tag_671:\n        /* \"#utility.yul\":21456:21530   */\n      swap2\n      pop\n        /* \"#utility.yul\":21539:21632   */\n      tag_672\n        /* \"#utility.yul\":21628:21631   */\n      dup3\n        /* \"#utility.yul\":21539:21632   */\n      tag_467\n      jump\t// in\n    tag_672:\n        /* \"#utility.yul\":21657:21659   */\n      0x20\n        /* \"#utility.yul\":21652:21655   */\n      dup3\n        /* \"#utility.yul\":21648:21660   */\n      add\n        /* \"#utility.yul\":21641:21660   */\n      swap1\n      pop\n        /* \"#utility.yul\":21300:21666   */\n      swap2\n      swap1\n      pop\n      jump\t// out\n        /* \"#utility.yul\":21672:22091   */\n    tag_340:\n        /* \"#utility.yul\":21838:21842   */\n      0x00\n        /* \"#utility.yul\":21876:21878   */\n      0x20\n        /* \"#utility.yul\":21865:21874   */\n      dup3\n        /* \"#utility.yul\":21861:21879   */\n      add\n        /* \"#utility.yul\":21853:21879   */\n      swap1\n      pop\n        /* \"#utility.yul\":21925:21934   */\n      dup2\n        /* \"#utility.yul\":21919:21923   */\n      dup2\n        /* \"#utility.yul\":21915:21935   */\n      sub\n        /* \"#utility.yul\":21911:21912   */\n      0x00\n        /* \"#utility.yul\":21900:21909   */\n      dup4\n        /* \"#utility.yul\":21896:21913   */\n      add\n        /* \"#utility.yul\":21889:21936   */\n      mstore\n        /* \"#utility.yul\":21953:22084   */\n      tag_674\n        /* \"#utility.yul\":22079:22083   */\n      dup2\n        /* \"#utility.yul\":21953:22084   */\n      tag_468\n      jump\t// in\n    tag_674:\n        /* \"#utility.yul\":21945:22084   */\n      swap1\n      pop\n        /* \"#utility.yul\":21672:22091   */\n      swap2\n      swap1\n      pop\n      jump\t// out\n        /* \"#utility.yul\":22097:22382   */\n    tag_344:\n        /* \"#utility.yul\":22157:22162   */\n      0x00\n        /* \"#utility.yul\":22181:22204   */\n      tag_676\n        /* \"#utility.yul\":22199:22203   */\n      dup3\n        /* \"#utility.yul\":22181:22204   */\n      tag_420\n      jump\t// in\n    tag_676:\n        /* \"#utility.yul\":22173:22204   */\n      swap2\n      pop\n        /* \"#utility.yul\":22225:22252   */\n      tag_677\n        /* \"#utility.yul\":22243:22251   */\n      dup4\n        /* \"#utility.yul\":22225:22252   */\n      tag_420\n      jump\t// in\n    tag_677:\n        /* \"#utility.yul\":22213:22252   */\n      swap3\n      pop\n        /* \"#utility.yul\":22271:22375   */\n      tag_678\n        /* \"#utility.yul\":22308:22374   */\n      0xffffffffffffffffffffffffffffffffffffffffffffffffffffffffffffffff\n        /* \"#utility.yul\":22298:22306   */\n      dup5\n        /* \"#utility.yul\":22292:22296   */\n      dup5\n        /* \"#utility.yul\":22271:22375   */\n      tag_456\n      jump\t// in\n    tag_678:\n        /* \"#utility.yul\":22262:22375   */\n      swap1\n      pop\n        /* \"#utility.yul\":22097:22382   */\n      swap3\n      swap2\n      pop\n      pop\n      jump\t// out\n        /* \"#utility.yul\":22388:22566   */\n    tag_469:\n        /* \"#utility.yul\":22528:22558   */\n      0x4e6f7420656e6f75676820746f6b656e7320617661696c61626c652e00000000\n        /* \"#utility.yul\":22524:22525   */\n      0x00\n        /* \"#utility.yul\":22516:22522   */\n      dup3\n        /* \"#utility.yul\":22512:22526   */\n      add\n        /* \"#utility.yul\":22505:22559   */\n      mstore\n        /* \"#utility.yul\":22388:22566   */\n      pop\n      jump\t// out\n        /* \"#utility.yul\":22572:22938   */\n    tag_470:\n        /* \"#utility.yul\":22714:22717   */\n      0x00\n        /* \"#utility.yul\":22735:22802   */\n      tag_681\n        /* \"#utility.yul\":22799:22801   */\n      0x1c\n        /* \"#utility.yul\":22794:22797   */\n      dup4\n        /* \"#utility.yul\":22735:22802   */\n      tag_423\n      jump\t// in\n    tag_681:\n        /* \"#utility.yul\":22728:22802   */\n      swap2\n      pop\n        /* \"#utility.yul\":22811:22904   */\n      tag_682\n        /* \"#utility.yul\":22900:22903   */\n      dup3\n        /* \"#utility.yul\":22811:22904   */\n      tag_469\n      jump\t// in\n    tag_682:\n        /* \"#utility.yul\":22929:22931   */\n      0x20\n        /* \"#utility.yul\":22924:22927   */\n      dup3\n        /* \"#utility.yul\":22920:22932   */\n      add\n        /* \"#utility.yul\":22913:22932   */\n      swap1\n      pop\n        /* \"#utility.yul\":22572:22938   */\n      swap2\n      swap1\n      pop\n      jump\t// out\n        /* \"#utility.yul\":22944:23363   */\n    tag_350:\n        /* \"#utility.yul\":23110:23114   */\n      0x00\n        /* \"#utility.yul\":23148:23150   */\n      0x20\n        /* \"#utility.yul\":23137:23146   */\n      dup3\n        /* \"#utility.yul\":23133:23151   */\n      add\n        /* \"#utility.yul\":23125:23151   */\n      swap1\n      pop\n        /* \"#utility.yul\":23197:23206   */\n      dup2\n        /* \"#utility.yul\":23191:23195   */\n      dup2\n        /* \"#utility.yul\":23187:23207   */\n      sub\n        /* \"#utility.yul\":23183:23184   */\n      0x00\n        /* \"#utility.yul\":23172:23181   */\n      dup4\n        /* \"#utility.yul\":23168:23185   */\n      add\n        /* \"#utility.yul\":23161:23208   */\n      mstore\n        /* \"#utility.yul\":23225:23356   */\n      tag_684\n        /* \"#utility.yul\":23351:23355   */\n      dup2\n        /* \"#utility.yul\":23225:23356   */\n      tag_470\n      jump\t// in\n    tag_684:\n        /* \"#utility.yul\":23217:23356   */\n      swap1\n      pop\n        /* \"#utility.yul\":22944:23363   */\n      swap2\n      swap1\n      pop\n      jump\t// out\n        /* \"#utility.yul\":23369:23543   */\n    tag_471:\n        /* \"#utility.yul\":23509:23535   */\n      0x5072652d73616c65206e6f742073746172746564207965740000000000000000\n        /* \"#utility.yul\":23505:23506   */\n      0x00\n        /* \"#utility.yul\":23497:23503   */\n      dup3\n        /* \"#utility.yul\":23493:23507   */\n      add\n        /* \"#utility.yul\":23486:23536   */\n      mstore\n        /* \"#utility.yul\":23369:23543   */\n      pop\n      jump\t// out\n        /* \"#utility.yul\":23549:23915   */\n    tag_472:\n        /* \"#utility.yul\":23691:23694   */\n      0x00\n        /* \"#utility.yul\":23712:23779   */\n      tag_687\n        /* \"#utility.yul\":23776:23778   */\n      0x18\n        /* \"#utility.yul\":23771:23774   */\n      dup4\n        /* \"#utility.yul\":23712:23779   */\n      tag_423\n      jump\t// in\n    tag_687:\n        /* \"#utility.yul\":23705:23779   */\n      swap2\n      pop\n        /* \"#utility.yul\":23788:23881   */\n      tag_688\n        /* \"#utility.yul\":23877:23880   */\n      dup3\n        /* \"#utility.yul\":23788:23881   */\n      tag_471\n      jump\t// in\n    tag_688:\n        /* \"#utility.yul\":23906:23908   */\n      0x20\n        /* \"#utility.yul\":23901:23904   */\n      dup3\n        /* \"#utility.yul\":23897:23909   */\n      add\n        /* \"#utility.yul\":23890:23909   */\n      swap1\n      pop\n        /* \"#utility.yul\":23549:23915   */\n      swap2\n      swap1\n      pop\n      jump\t// out\n        /* \"#utility.yul\":23921:24340   */\n    tag_358:\n        /* \"#utility.yul\":24087:24091   */\n      0x00\n        /* \"#utility.yul\":24125:24127   */\n      0x20\n        /* \"#utility.yul\":24114:24123   */\n      dup3\n        /* \"#utility.yul\":24110:24128   */\n      add\n        /* \"#utility.yul\":24102:24128   */\n      swap1\n      pop\n        /* \"#utility.yul\":24174:24183   */\n      dup2\n        /* \"#utility.yul\":24168:24172   */\n      dup2\n        /* \"#utility.yul\":24164:24184   */\n      sub\n        /* \"#utility.yul\":24160:24161   */\n      0x00\n        /* \"#utility.yul\":24149:24158   */\n      dup4\n        /* \"#utility.yul\":24145:24162   */\n      add\n        /* \"#utility.yul\":24138:24185   */\n      mstore\n        /* \"#utility.yul\":24202:24333   */\n      tag_690\n        /* \"#utility.yul\":24328:24332   */\n      dup2\n        /* \"#utility.yul\":24202:24333   */\n      tag_472\n      jump\t// in\n    tag_690:\n        /* \"#utility.yul\":24194:24333   */\n      swap1\n      pop\n        /* \"#utility.yul\":23921:24340   */\n      swap2\n      swap1\n      pop\n      jump\t// out\n        /* \"#utility.yul\":24346:24788   */\n    tag_384:\n        /* \"#utility.yul\":24495:24499   */\n      0x00\n        /* \"#utility.yul\":24533:24535   */\n      0x60\n        /* \"#utility.yul\":24522:24531   */\n      dup3\n        /* \"#utility.yul\":24518:24536   */\n      add\n        /* \"#utility.yul\":24510:24536   */\n      swap1\n      pop\n        /* \"#utility.yul\":24546:24617   */\n      tag_692\n        /* \"#utility.yul\":24614:24615   */\n      0x00\n        /* \"#utility.yul\":24603:24612   */\n      dup4\n        /* \"#utility.yul\":24599:24616   */\n      add\n        /* \"#utility.yul\":24590:24596   */\n      dup7\n        /* \"#utility.yul\":24546:24617   */\n      tag_440\n      jump\t// in\n    tag_692:\n        /* \"#utility.yul\":24627:24699   */\n      tag_693\n        /* \"#utility.yul\":24695:24697   */\n      0x20\n        /* \"#utility.yul\":24684:24693   */\n      dup4\n        /* \"#utility.yul\":24680:24698   */\n      add\n        /* \"#utility.yul\":24671:24677   */\n      dup6\n        /* \"#utility.yul\":24627:24699   */\n      tag_421\n      jump\t// in\n    tag_693:\n        /* \"#utility.yul\":24709:24781   */\n      tag_694\n        /* \"#utility.yul\":24777:24779   */\n      0x40\n        /* \"#utility.yul\":24766:24775   */\n      dup4\n        /* \"#utility.yul\":24762:24780   */\n      add\n        /* \"#utility.yul\":24753:24759   */\n      dup5\n        /* \"#utility.yul\":24709:24781   */\n      tag_421\n      jump\t// in\n    tag_694:\n        /* \"#utility.yul\":24346:24788   */\n      swap5\n      swap4\n      pop\n      pop\n      pop\n      pop\n      jump\t// out\n\n    auxdata: 0xa26469706673582212205b8261fbf9076c95717db49b9f217f790da4799398c44e3f5ff665f300deb38064736f6c634300081a0033\n}\n",
				"bytecode": {
					"linkReferences": {},
					"object": "608060405234801561000f575f80fd5b50604051613a30380380613a30833981810160405281019061003191906105af565b856040518060400160405280600b81526020017f4e6174757265546f6b656e0000000000000000000000000000000000000000008152506040518060400160405280600381526020017f4e5452000000000000000000000000000000000000000000000000000000000081525081600390816100ad9190610869565b5080600490816100bd9190610869565b5050505f73ffffffffffffffffffffffffffffffffffffffff168173ffffffffffffffffffffffffffffffffffffffff1603610130575f6040517f1e4fbdf70000000000000000000000000000000000000000000000000000000081526004016101279190610947565b60405180910390fd5b61013f816101b560201b60201c565b506101743061015261027860201b60201c565b600a61015e9190610ac8565b876101699190610b12565b61028060201b60201c565b8360088190555082600a819055508160098190555080600d819055505f600560146101000a81548160ff021916908315150217905550505050505050610be3565b5f60055f9054906101000a900473ffffffffffffffffffffffffffffffffffffffff1690508160055f6101000a81548173ffffffffffffffffffffffffffffffffffffffff021916908373ffffffffffffffffffffffffffffffffffffffff1602179055508173ffffffffffffffffffffffffffffffffffffffff168173ffffffffffffffffffffffffffffffffffffffff167f8be0079c531659141344cd1fd0a4f28419497f9722a3daafe3b4186f6b6457e060405160405180910390a35050565b5f6012905090565b5f73ffffffffffffffffffffffffffffffffffffffff168273ffffffffffffffffffffffffffffffffffffffff16036102f0575f6040517fec442f050000000000000000000000000000000000000000000000000000000081526004016102e79190610947565b60405180910390fd5b6103015f838361030560201b60201c565b5050565b5f73ffffffffffffffffffffffffffffffffffffffff168373ffffffffffffffffffffffffffffffffffffffff1603610355578060025f8282546103499190610b53565b92505081905550610423565b5f805f8573ffffffffffffffffffffffffffffffffffffffff1673ffffffffffffffffffffffffffffffffffffffff1681526020019081526020015f20549050818110156103de578381836040517fe450d38c0000000000000000000000000000000000000000000000000000000081526004016103d593929190610b95565b60405180910390fd5b8181035f808673ffffffffffffffffffffffffffffffffffffffff1673ffffffffffffffffffffffffffffffffffffffff1681526020019081526020015f2081905550505b5f73ffffffffffffffffffffffffffffffffffffffff168273ffffffffffffffffffffffffffffffffffffffff160361046a578060025f82825403925050819055506104b4565b805f808473ffffffffffffffffffffffffffffffffffffffff1673ffffffffffffffffffffffffffffffffffffffff1681526020019081526020015f205f82825401925050819055505b8173ffffffffffffffffffffffffffffffffffffffff168373ffffffffffffffffffffffffffffffffffffffff167fddf252ad1be2c89b69c2b068fc378daa952ba7f163c4a11628f55a4df523b3ef836040516105119190610bca565b60405180910390a3505050565b5f80fd5b5f73ffffffffffffffffffffffffffffffffffffffff82169050919050565b5f61054b82610522565b9050919050565b61055b81610541565b8114610565575f80fd5b50565b5f8151905061057681610552565b92915050565b5f819050919050565b61058e8161057c565b8114610598575f80fd5b50565b5f815190506105a981610585565b92915050565b5f805f805f8060c087890312156105c9576105c861051e565b5b5f6105d689828a01610568565b96505060206105e789828a0161059b565b95505060406105f889828a0161059b565b945050606061060989828a0161059b565b935050608061061a89828a0161059b565b92505060a061062b89828a0161059b565b9150509295509295509295565b5f81519050919050565b7f4e487b71000000000000000000000000000000000000000000000000000000005f52604160045260245ffd5b7f4e487b71000000000000000000000000000000000000000000000000000000005f52602260045260245ffd5b5f60028204905060018216806106b357607f821691505b6020821081036106c6576106c561066f565b5b50919050565b5f819050815f5260205f209050919050565b5f6020601f8301049050919050565b5f82821b905092915050565b5f600883026107287fffffffffffffffffffffffffffffffffffffffffffffffffffffffffffffffff826106ed565b61073286836106ed565b95508019841693508086168417925050509392505050565b5f819050919050565b5f61076d6107686107638461057c565b61074a565b61057c565b9050919050565b5f819050919050565b61078683610753565b61079a61079282610774565b8484546106f9565b825550505050565b5f90565b6107ae6107a2565b6107b981848461077d565b505050565b5b818110156107dc576107d15f826107a6565b6001810190506107bf565b5050565b601f821115610821576107f2816106cc565b6107fb846106de565b8101602085101561080a578190505b61081e610816856106de565b8301826107be565b50505b505050565b5f82821c905092915050565b5f6108415f1984600802610826565b1980831691505092915050565b5f6108598383610832565b9150826002028217905092915050565b61087282610638565b67ffffffffffffffff81111561088b5761088a610642565b5b610895825461069c565b6108a08282856107e0565b5f60209050601f8311600181146108d1575f84156108bf578287015190505b6108c9858261084e565b865550610930565b601f1984166108df866106cc565b5f5b82811015610906578489015182556001820191506020850194506020810190506108e1565b86831015610923578489015161091f601f891682610832565b8355505b6001600288020188555050505b505050505050565b61094181610541565b82525050565b5f60208201905061095a5f830184610938565b92915050565b7f4e487b71000000000000000000000000000000000000000000000000000000005f52601160045260245ffd5b5f8160011c9050919050565b5f808291508390505b60018511156109e2578086048111156109be576109bd610960565b5b60018516156109cd5780820291505b80810290506109db8561098d565b94506109a2565b94509492505050565b5f826109fa5760019050610ab5565b81610a07575f9050610ab5565b8160018114610a1d5760028114610a2757610a56565b6001915050610ab5565b60ff841115610a3957610a38610960565b5b8360020a915084821115610a5057610a4f610960565b5b50610ab5565b5060208310610133831016604e8410600b8410161715610a8b5782820a905083811115610a8657610a85610960565b5b610ab5565b610a988484846001610999565b92509050818404811115610aaf57610aae610960565b5b81810290505b9392505050565b5f60ff82169050919050565b5f610ad28261057c565b9150610add83610abc565b9250610b0a7fffffffffffffffffffffffffffffffffffffffffffffffffffffffffffffffff84846109eb565b905092915050565b5f610b1c8261057c565b9150610b278361057c565b9250828202610b358161057c565b91508282048414831517610b4c57610b4b610960565b5b5092915050565b5f610b5d8261057c565b9150610b688361057c565b9250828201905080821115610b8057610b7f610960565b5b92915050565b610b8f8161057c565b82525050565b5f606082019050610ba85f830186610938565b610bb56020830185610b86565b610bc26040830184610b86565b949350505050565b5f602082019050610bdd5f830184610b86565b92915050565b612e4080610bf05f395ff3fe60806040526004361061022f575f3560e01c80637547c7a31161012d578063a9059cbb116100aa578063dd62ed3e1161006e578063dd62ed3e1461083f578063f2fde38b1461087b578063f8102e68146108a3578063f9931855146108cd578063f9a81af7146109095761022f565b8063a9059cbb14610769578063cce29ea7146107a5578063cec297a0146107cf578063d0febe4c1461080b578063d348b409146108155761022f565b806395d89b41116100f157806395d89b41146106895780639b19251a146106b35780639ca423b3146106ef578063a09c4cf41461072b578063a5ce413b146107535761022f565b80637547c7a3146105a95780637c613b2f146105d15780638265324d146105e75780638da5cb5b146106235780638f0794fe1461064d5761022f565b80632c663960116101bb5780634f3fc2df1161017f5780634f3fc2df146104d9578063518ab2a81461050357806370a082311461052d578063715018a6146105695780637165d19b1461057f5761022f565b80632c663960146103f557806330f72cd414610431578063313ce5671461045b578063329a27e7146104855780634405df4a146104af5761022f565b80630d505541116102025780630d505541146102ed57806318160ddd146103295780631d0806ae1461035357806323b872dd1461037d57806327e235e3146103b95761022f565b806303e293a31461023357806306d65af31461025d57806306fdde0314610287578063095ea7b3146102b1575b5f80fd5b34801561023e575f80fd5b50610247610931565b60405161025491906121a9565b60405180910390f35b348015610268575f80fd5b50610271610937565b60405161027e91906121a9565b60405180910390f35b348015610292575f80fd5b5061029b61093d565b6040516102a89190612232565b60405180910390f35b3480156102bc575f80fd5b506102d760048036038101906102d291906122da565b6109cd565b6040516102e49190612332565b60405180910390f35b3480156102f8575f80fd5b50610313600480360381019061030e919061234b565b6109ef565b60405161032091906121a9565b60405180910390f35b348015610334575f80fd5b5061033d610ab4565b60405161034a91906121a9565b60405180910390f35b34801561035e575f80fd5b50610367610abd565b60405161037491906121a9565b60405180910390f35b348015610388575f80fd5b506103a3600480360381019061039e9190612376565b610ac3565b6040516103b09190612332565b60405180910390f35b3480156103c4575f80fd5b506103df60048036038101906103da919061234b565b610af1565b6040516103ec91906121a9565b60405180910390f35b348015610400575f80fd5b5061041b600480360381019061041691906123c6565b610b06565b60405161042891906121a9565b60405180910390f35b34801561043c575f80fd5b50610445610b71565b6040516104529190612332565b60405180910390f35b348015610466575f80fd5b5061046f610b84565b60405161047c919061241f565b60405180910390f35b348015610490575f80fd5b50610499610b8c565b6040516104a691906121a9565b60405180910390f35b3480156104ba575f80fd5b506104c3610bd0565b6040516104d091906121a9565b60405180910390f35b3480156104e4575f80fd5b506104ed610c13565b6040516104fa91906121a9565b60405180910390f35b34801561050e575f80fd5b50610517610c19565b60405161052491906121a9565b60405180910390f35b348015610538575f80fd5b50610553600480360381019061054e919061234b565b610c1f565b60405161056091906121a9565b60405180910390f35b348015610574575f80fd5b5061057d610c64565b005b34801561058a575f80fd5b50610593610c77565b6040516105a091906121a9565b60405180910390f35b3480156105b4575f80fd5b506105cf60048036038101906105ca9190612438565b610c7d565b005b3480156105dc575f80fd5b506105e5610dfb565b005b3480156105f2575f80fd5b5061060d6004803603810190610608919061234b565b610f3c565b60405161061a91906121a9565b60405180910390f35b34801561062e575f80fd5b50610637610fad565b6040516106449190612472565b60405180910390f35b348015610658575f80fd5b50610673600480360381019061066e919061234b565b610fd5565b60405161068091906121a9565b60405180910390f35b348015610694575f80fd5b5061069d610fea565b6040516106aa9190612232565b60405180910390f35b3480156106be575f80fd5b506106d960048036038101906106d4919061234b565b61107a565b6040516106e69190612332565b60405180910390f35b3480156106fa575f80fd5b506107156004803603810190610710919061234b565b611097565b6040516107229190612472565b60405180910390f35b348015610736575f80fd5b50610751600480360381019061074c919061234b565b6110c7565b005b34801561075e575f80fd5b506107676113c8565b005b348015610774575f80fd5b5061078f600480360381019061078a91906122da565b6115d3565b60405161079c9190612332565b60405180910390f35b3480156107b0575f80fd5b506107b96115f5565b6040516107c691906121a9565b60405180910390f35b3480156107da575f80fd5b506107f560048036038101906107f0919061234b565b6115fb565b60405161080291906121a9565b60405180910390f35b610813611610565b005b348015610820575f80fd5b50610829611806565b60405161083691906121a9565b60405180910390f35b34801561084a575f80fd5b506108656004803603810190610860919061248b565b61188f565b60405161087291906121a9565b60405180910390f35b348015610886575f80fd5b506108a1600480360381019061089c919061234b565b611911565b005b3480156108ae575f80fd5b506108b7611995565b6040516108c491906121a9565b60405180910390f35b3480156108d8575f80fd5b506108f360048036038101906108ee919061234b565b61199b565b60405161090091906121a9565b60405180910390f35b348015610914575f80fd5b5061092f600480360381019061092a91906123c6565b6119b0565b005b60095481565b60065481565b60606003805461094c906124f6565b80601f0160208091040260200160405190810160405280929190818152602001828054610978906124f6565b80156109c35780601f1061099a576101008083540402835291602001916109c3565b820191905f5260205f20905b8154815290600101906020018083116109a657829003601f168201915b5050505050905090565b5f806109d7611a44565b90506109e4818585611a4b565b600191505092915050565b5f8062093a80600f5f8573ffffffffffffffffffffffffffffffffffffffff1673ffffffffffffffffffffffffffffffffffffffff1681526020019081526020015f205442610a3e9190612553565b610a4891906125b3565b9050606481600d54600e5f8773ffffffffffffffffffffffffffffffffffffffff1673ffffffffffffffffffffffffffffffffffffffff1681526020019081526020015f2054610a9891906125e3565b610aa291906125e3565b610aac91906125b3565b915050919050565b5f600254905090565b60085481565b5f80610acd611a44565b9050610ada858285611a5d565b610ae5858585611af0565b60019150509392505050565b6013602052805f5260405f205f915090505481565b5f82821015610b4a576040517f08c379a0000000000000000000000000000000000000000000000000000000008152600401610b4190612694565b60405180910390fd5b5f62093a808484610b5b9190612553565b610b6591906125b3565b90508091505092915050565b600560149054906101000a900460ff1681565b5f6012905090565b5f60135f3373ffffffffffffffffffffffffffffffffffffffff1673ffffffffffffffffffffffffffffffffffffffff1681526020019081526020015f2054905090565b5f80610bde60065442610b06565b90505f600c5482600854600954610bf59190612553565b610bff91906125e3565b610c0991906125b3565b9050809250505090565b600d5481565b600b5481565b5f805f8373ffffffffffffffffffffffffffffffffffffffff1673ffffffffffffffffffffffffffffffffffffffff1681526020019081526020015f20549050919050565b610c6c611be0565b610c755f611c67565b565b600a5481565b5f8111610cbf576040517f08c379a0000000000000000000000000000000000000000000000000000000008152600401610cb690612722565b60405180910390fd5b80610cc933610c1f565b1015610d0a576040517f08c379a0000000000000000000000000000000000000000000000000000000008152600401610d019061278a565b60405180910390fd5b610d15333083611af0565b80600e5f3373ffffffffffffffffffffffffffffffffffffffff1673ffffffffffffffffffffffffffffffffffffffff1681526020019081526020015f205f828254610d6191906127a8565b9250508190555042600f5f3373ffffffffffffffffffffffffffffffffffffffff1673ffffffffffffffffffffffffffffffffffffffff1681526020019081526020015f20819055503373ffffffffffffffffffffffffffffffffffffffff167fb539ca1e5c8d398ddf1c41c30166f33404941683be4683319b57669a93dad4ef82604051610df091906121a9565b60405180910390a250565b60011515600560149054906101000a900460ff16151514610e51576040517f08c379a0000000000000000000000000000000000000000000000000000000008152600401610e4890612825565b60405180910390fd5b5f610e5b33610f3c565b90505f8111610e9f576040517f08c379a0000000000000000000000000000000000000000000000000000000008152600401610e969061288d565b60405180910390fd5b610ea93382611d2a565b5f60125f3373ffffffffffffffffffffffffffffffffffffffff1673ffffffffffffffffffffffffffffffffffffffff1681526020019081526020015f20819055503373ffffffffffffffffffffffffffffffffffffffff167ff0bc0a70fe19ef2d8dc1e1948b338a1184184fb1ea3ac836f24065828816d68d82604051610f3191906121a9565b60405180910390a250565b5f610f45610b84565b600a610f5191906129da565b6101f460125f8573ffffffffffffffffffffffffffffffffffffffff1673ffffffffffffffffffffffffffffffffffffffff1681526020019081526020015f2054610f9c91906125e3565b610fa691906125e3565b9050919050565b5f60055f9054906101000a900473ffffffffffffffffffffffffffffffffffffffff16905090565b600f602052805f5260405f205f915090505481565b606060048054610ff9906124f6565b80601f0160208091040260200160405190810160405280929190818152602001828054611025906124f6565b80156110705780601f1061104757610100808354040283529160200191611070565b820191905f5260205f20905b81548152906001019060200180831161105357829003601f168201915b5050505050905090565b6010602052805f5260405f205f915054906101000a900460ff1681565b6011602052805f5260405f205f915054906101000a900473ffffffffffffffffffffffffffffffffffffffff1681565b60105f3373ffffffffffffffffffffffffffffffffffffffff1673ffffffffffffffffffffffffffffffffffffffff1681526020019081526020015f205f9054906101000a900460ff1615611151576040517f08c379a000000000000000000000000000000000000000000000000000000000815260040161114890612a6e565b60405180910390fd5b8073ffffffffffffffffffffffffffffffffffffffff163373ffffffffffffffffffffffffffffffffffffffff16036111bf576040517f08c379a00000000000000000000000000000000000000000000000000000000081526004016111b690612ad6565b60405180910390fd5b600160105f3373ffffffffffffffffffffffffffffffffffffffff1673ffffffffffffffffffffffffffffffffffffffff1681526020019081526020015f205f6101000a81548160ff0219169083151502179055505f73ffffffffffffffffffffffffffffffffffffffff168173ffffffffffffffffffffffffffffffffffffffff1614158015611296575060105f8273ffffffffffffffffffffffffffffffffffffffff1673ffffffffffffffffffffffffffffffffffffffff1681526020019081526020015f205f9054906101000a900460ff165b1561136b578060115f3373ffffffffffffffffffffffffffffffffffffffff1673ffffffffffffffffffffffffffffffffffffffff1681526020019081526020015f205f6101000a81548173ffffffffffffffffffffffffffffffffffffffff021916908373ffffffffffffffffffffffffffffffffffffffff160217905550600160125f8373ffffffffffffffffffffffffffffffffffffffff1673ffffffffffffffffffffffffffffffffffffffff1681526020019081526020015f205f82825461136391906127a8565b925050819055505b8073ffffffffffffffffffffffffffffffffffffffff163373ffffffffffffffffffffffffffffffffffffffff167f4bc18aa4b0095c9a3b5cdf42d2322d5a145591b04045988a995a5da42607545760405160405180910390a350565b5f600e5f3373ffffffffffffffffffffffffffffffffffffffff1673ffffffffffffffffffffffffffffffffffffffff1681526020019081526020015f205490505f811161144b576040517f08c379a000000000000000000000000000000000000000000000000000000000815260040161144290612b3e565b60405180910390fd5b6224ea00600f5f3373ffffffffffffffffffffffffffffffffffffffff1673ffffffffffffffffffffffffffffffffffffffff1681526020019081526020015f205461149791906127a8565b4210156114d9576040517f08c379a00000000000000000000000000000000000000000000000000000000081526004016114d090612ba6565b60405180910390fd5b5f6114e3336109ef565b90505f600e5f3373ffffffffffffffffffffffffffffffffffffffff1673ffffffffffffffffffffffffffffffffffffffff1681526020019081526020015f20819055505f600f5f3373ffffffffffffffffffffffffffffffffffffffff1673ffffffffffffffffffffffffffffffffffffffff1681526020019081526020015f208190555061157f3033838561157a91906127a8565b611af0565b3373ffffffffffffffffffffffffffffffffffffffff167f6f2d3e000c89d37446b7c0374c0125068ff316d1e3ee302336478a8cd03c233683836040516115c7929190612bc4565b60405180910390a25050565b5f806115dd611a44565b90506115ea818585611af0565b600191505092915050565b60075481565b6012602052805f5260405f205f915090505481565b600560149054906101000a900460ff1661165f576040517f08c379a000000000000000000000000000000000000000000000000000000000815260040161165690612c35565b60405180910390fd5b5f34116116a1576040517f08c379a000000000000000000000000000000000000000000000000000000000815260040161169890612c9d565b60405180910390fd5b5f6116aa611806565b90505f816116b6610b84565b60ff16600a6116c59190612cbb565b346116d091906125e3565b6116da91906125b3565b9050806116e630610c1f565b1015611727576040517f08c379a000000000000000000000000000000000000000000000000000000000815260040161171e90612d4f565b60405180910390fd5b8060135f3373ffffffffffffffffffffffffffffffffffffffff1673ffffffffffffffffffffffffffffffffffffffff1681526020019081526020015f205f82825461177391906127a8565b92505081905550611785303383611af0565b80600b5f82825461179691906127a8565b925050819055503373ffffffffffffffffffffffffffffffffffffffff163073ffffffffffffffffffffffffffffffffffffffff167fddf252ad1be2c89b69c2b068fc378daa952ba7f163c4a11628f55a4df523b3ef836040516117fa91906121a9565b60405180910390a35050565b5f600560149054906101000a900460ff16611856576040517f08c379a000000000000000000000000000000000000000000000000000000000815260040161184d90612db7565b60405180910390fd5b60075442111561186a57600954905061188c565b5f611873610bd0565b90505f8160085461188491906127a8565b905080925050505b90565b5f60015f8473ffffffffffffffffffffffffffffffffffffffff1673ffffffffffffffffffffffffffffffffffffffff1681526020019081526020015f205f8373ffffffffffffffffffffffffffffffffffffffff1673ffffffffffffffffffffffffffffffffffffffff1681526020019081526020015f2054905092915050565b611919611be0565b5f73ffffffffffffffffffffffffffffffffffffffff168173ffffffffffffffffffffffffffffffffffffffff1603611989575f6040517f1e4fbdf70000000000000000000000000000000000000000000000000000000081526004016119809190612472565b60405180910390fd5b61199281611c67565b50565b600c5481565b600e602052805f5260405f205f915090505481565b6119b8611be0565b8160068190555062093a80816119ce91906125e3565b6006546119db91906127a8565b60078190555080600c819055506001600560146101000a81548160ff0219169083151502179055507f3844853be672b18d859394aa37e05615b95b78e66b4dc37dca98d1db1b05ea7d600654600754604051611a38929190612bc4565b60405180910390a15050565b5f33905090565b611a588383836001611da9565b505050565b5f611a68848461188f565b90507fffffffffffffffffffffffffffffffffffffffffffffffffffffffffffffffff811015611aea5781811015611adb578281836040517ffb8f41b2000000000000000000000000000000000000000000000000000000008152600401611ad293929190612dd5565b60405180910390fd5b611ae984848484035f611da9565b5b50505050565b5f73ffffffffffffffffffffffffffffffffffffffff168373ffffffffffffffffffffffffffffffffffffffff1603611b60575f6040517f96c6fd1e000000000000000000000000000000000000000000000000000000008152600401611b579190612472565b60405180910390fd5b5f73ffffffffffffffffffffffffffffffffffffffff168273ffffffffffffffffffffffffffffffffffffffff1603611bd0575f6040517fec442f05000000000000000000000000000000000000000000000000000000008152600401611bc79190612472565b60405180910390fd5b611bdb838383611f78565b505050565b611be8611a44565b73ffffffffffffffffffffffffffffffffffffffff16611c06610fad565b73ffffffffffffffffffffffffffffffffffffffff1614611c6557611c29611a44565b6040517f118cdaa7000000000000000000000000000000000000000000000000000000008152600401611c5c9190612472565b60405180910390fd5b565b5f60055f9054906101000a900473ffffffffffffffffffffffffffffffffffffffff1690508160055f6101000a81548173ffffffffffffffffffffffffffffffffffffffff021916908373ffffffffffffffffffffffffffffffffffffffff1602179055508173ffffffffffffffffffffffffffffffffffffffff168173ffffffffffffffffffffffffffffffffffffffff167f8be0079c531659141344cd1fd0a4f28419497f9722a3daafe3b4186f6b6457e060405160405180910390a35050565b5f73ffffffffffffffffffffffffffffffffffffffff168273ffffffffffffffffffffffffffffffffffffffff1603611d9a575f6040517fec442f05000000000000000000000000000000000000000000000000000000008152600401611d919190612472565b60405180910390fd5b611da55f8383611f78565b5050565b5f73ffffffffffffffffffffffffffffffffffffffff168473ffffffffffffffffffffffffffffffffffffffff1603611e19575f6040517fe602df05000000000000000000000000000000000000000000000000000000008152600401611e109190612472565b60405180910390fd5b5f73ffffffffffffffffffffffffffffffffffffffff168373ffffffffffffffffffffffffffffffffffffffff1603611e89575f6040517f94280d62000000000000000000000000000000000000000000000000000000008152600401611e809190612472565b60405180910390fd5b8160015f8673ffffffffffffffffffffffffffffffffffffffff1673ffffffffffffffffffffffffffffffffffffffff1681526020019081526020015f205f8573ffffffffffffffffffffffffffffffffffffffff1673ffffffffffffffffffffffffffffffffffffffff1681526020019081526020015f20819055508015611f72578273ffffffffffffffffffffffffffffffffffffffff168473ffffffffffffffffffffffffffffffffffffffff167f8c5be1e5ebec7d5bd14f71427d1e84f3dd0314c0f7b2291e5b200ac8c7c3b92584604051611f6991906121a9565b60405180910390a35b50505050565b5f73ffffffffffffffffffffffffffffffffffffffff168373ffffffffffffffffffffffffffffffffffffffff1603611fc8578060025f828254611fbc91906127a8565b92505081905550612096565b5f805f8573ffffffffffffffffffffffffffffffffffffffff1673ffffffffffffffffffffffffffffffffffffffff1681526020019081526020015f2054905081811015612051578381836040517fe450d38c00000000000000000000000000000000000000000000000000000000815260040161204893929190612dd5565b60405180910390fd5b8181035f808673ffffffffffffffffffffffffffffffffffffffff1673ffffffffffffffffffffffffffffffffffffffff1681526020019081526020015f2081905550505b5f73ffffffffffffffffffffffffffffffffffffffff168273ffffffffffffffffffffffffffffffffffffffff16036120dd578060025f8282540392505081905550612127565b805f808473ffffffffffffffffffffffffffffffffffffffff1673ffffffffffffffffffffffffffffffffffffffff1681526020019081526020015f205f82825401925050819055505b8173ffffffffffffffffffffffffffffffffffffffff168373ffffffffffffffffffffffffffffffffffffffff167fddf252ad1be2c89b69c2b068fc378daa952ba7f163c4a11628f55a4df523b3ef8360405161218491906121a9565b60405180910390a3505050565b5f819050919050565b6121a381612191565b82525050565b5f6020820190506121bc5f83018461219a565b92915050565b5f81519050919050565b5f82825260208201905092915050565b8281835e5f83830152505050565b5f601f19601f8301169050919050565b5f612204826121c2565b61220e81856121cc565b935061221e8185602086016121dc565b612227816121ea565b840191505092915050565b5f6020820190508181035f83015261224a81846121fa565b905092915050565b5f80fd5b5f73ffffffffffffffffffffffffffffffffffffffff82169050919050565b5f61227f82612256565b9050919050565b61228f81612275565b8114612299575f80fd5b50565b5f813590506122aa81612286565b92915050565b6122b981612191565b81146122c3575f80fd5b50565b5f813590506122d4816122b0565b92915050565b5f80604083850312156122f0576122ef612252565b5b5f6122fd8582860161229c565b925050602061230e858286016122c6565b9150509250929050565b5f8115159050919050565b61232c81612318565b82525050565b5f6020820190506123455f830184612323565b92915050565b5f602082840312156123605761235f612252565b5b5f61236d8482850161229c565b91505092915050565b5f805f6060848603121561238d5761238c612252565b5b5f61239a8682870161229c565b93505060206123ab8682870161229c565b92505060406123bc868287016122c6565b9150509250925092565b5f80604083850312156123dc576123db612252565b5b5f6123e9858286016122c6565b92505060206123fa858286016122c6565b9150509250929050565b5f60ff82169050919050565b61241981612404565b82525050565b5f6020820190506124325f830184612410565b92915050565b5f6020828403121561244d5761244c612252565b5b5f61245a848285016122c6565b91505092915050565b61246c81612275565b82525050565b5f6020820190506124855f830184612463565b92915050565b5f80604083850312156124a1576124a0612252565b5b5f6124ae8582860161229c565b92505060206124bf8582860161229c565b9150509250929050565b7f4e487b71000000000000000000000000000000000000000000000000000000005f52602260045260245ffd5b5f600282049050600182168061250d57607f821691505b6020821081036125205761251f6124c9565b5b50919050565b7f4e487b71000000000000000000000000000000000000000000000000000000005f52601160045260245ffd5b5f61255d82612191565b915061256883612191565b92508282039050818111156125805761257f612526565b5b92915050565b7f4e487b71000000000000000000000000000000000000000000000000000000005f52601260045260245ffd5b5f6125bd82612191565b91506125c883612191565b9250826125d8576125d7612586565b5b828204905092915050565b5f6125ed82612191565b91506125f883612191565b925082820261260681612191565b9150828204841483151761261d5761261c612526565b5b5092915050565b7f456e642074696d65206d7573742062652061667465722073746172742074696d5f8201527f6500000000000000000000000000000000000000000000000000000000000000602082015250565b5f61267e6021836121cc565b915061268982612624565b604082019050919050565b5f6020820190508181035f8301526126ab81612672565b9050919050565b7f416d6f756e74206d7573742062652067726561746572207468616e207a65726f5f8201527f2e00000000000000000000000000000000000000000000000000000000000000602082015250565b5f61270c6021836121cc565b9150612717826126b2565b604082019050919050565b5f6020820190508181035f83015261273981612700565b9050919050565b7f496e73756666696369656e742062616c616e63652e00000000000000000000005f82015250565b5f6127746015836121cc565b915061277f82612740565b602082019050919050565b5f6020820190508181035f8301526127a181612768565b9050919050565b5f6127b282612191565b91506127bd83612191565b92508282019050808211156127d5576127d4612526565b5b92915050565b7f50726573616c65206e6f742073746172746564207965740000000000000000005f82015250565b5f61280f6017836121cc565b915061281a826127db565b602082019050919050565b5f6020820190508181035f83015261283c81612803565b9050919050565b7f4e6f207265776172647320617661696c61626c650000000000000000000000005f82015250565b5f6128776014836121cc565b915061288282612843565b602082019050919050565b5f6020820190508181035f8301526128a48161286b565b9050919050565b5f8160011c9050919050565b5f808291508390505b6001851115612900578086048111156128dc576128db612526565b5b60018516156128eb5780820291505b80810290506128f9856128ab565b94506128c0565b94509492505050565b5f8261291857600190506129d3565b81612925575f90506129d3565b816001811461293b576002811461294557612974565b60019150506129d3565b60ff84111561295757612956612526565b5b8360020a91508482111561296e5761296d612526565b5b506129d3565b5060208310610133831016604e8410600b84101617156129a95782820a9050838111156129a4576129a3612526565b5b6129d3565b6129b684848460016128b7565b925090508184048111156129cd576129cc612526565b5b81810290505b9392505050565b5f6129e482612191565b91506129ef83612404565b9250612a1c7fffffffffffffffffffffffffffffffffffffffffffffffffffffffffffffffff8484612909565b905092915050565b7f416c72656164792077686974656c6973746564000000000000000000000000005f82015250565b5f612a586013836121cc565b9150612a6382612a24565b602082019050919050565b5f6020820190508181035f830152612a8581612a4c565b9050919050565b7f43616e6e6f7420726566657220796f757273656c6600000000000000000000005f82015250565b5f612ac06015836121cc565b9150612acb82612a8c565b602082019050919050565b5f6020820190508181035f830152612aed81612ab4565b9050919050565b7f4e6f20746f6b656e73207374616b65642e0000000000000000000000000000005f82015250565b5f612b286011836121cc565b9150612b3382612af4565b602082019050919050565b5f6020820190508181035f830152612b5581612b1c565b9050919050565b7f556e7374616b65206f6e6c792061667465722034207765656b732e00000000005f82015250565b5f612b90601b836121cc565b9150612b9b82612b5c565b602082019050919050565b5f6020820190508181035f830152612bbd81612b84565b9050919050565b5f604082019050612bd75f83018561219a565b612be4602083018461219a565b9392505050565b7f53616c65206e6f74206163746976652e000000000000000000000000000000005f82015250565b5f612c1f6010836121cc565b9150612c2a82612beb565b602082019050919050565b5f6020820190508181035f830152612c4c81612c13565b9050919050565b7f4d7573742073656e642045544820746f2062757920746f6b656e732e000000005f82015250565b5f612c87601c836121cc565b9150612c9282612c53565b602082019050919050565b5f6020820190508181035f830152612cb481612c7b565b9050919050565b5f612cc582612191565b9150612cd083612191565b9250612cfd7fffffffffffffffffffffffffffffffffffffffffffffffffffffffffffffffff8484612909565b905092915050565b7f4e6f7420656e6f75676820746f6b656e7320617661696c61626c652e000000005f82015250565b5f612d39601c836121cc565b9150612d4482612d05565b602082019050919050565b5f6020820190508181035f830152612d6681612d2d565b9050919050565b7f5072652d73616c65206e6f7420737461727465642079657400000000000000005f82015250565b5f612da16018836121cc565b9150612dac82612d6d565b602082019050919050565b5f6020820190508181035f830152612dce81612d95565b9050919050565b5f606082019050612de85f830186612463565b612df5602083018561219a565b612e02604083018461219a565b94935050505056fea26469706673582212205b8261fbf9076c95717db49b9f217f790da4799398c44e3f5ff665f300deb38064736f6c634300081a0033",
					"opcodes": "PUSH1 0x80 PUSH1 0x40 MSTORE CALLVALUE DUP1 ISZERO PUSH2 0xF JUMPI PUSH0 DUP1 REVERT JUMPDEST POP PUSH1 0x40 MLOAD PUSH2 0x3A30 CODESIZE SUB DUP1 PUSH2 0x3A30 DUP4 CODECOPY DUP2 DUP2 ADD PUSH1 0x40 MSTORE DUP2 ADD SWAP1 PUSH2 0x31 SWAP2 SWAP1 PUSH2 0x5AF JUMP JUMPDEST DUP6 PUSH1 0x40 MLOAD DUP1 PUSH1 0x40 ADD PUSH1 0x40 MSTORE DUP1 PUSH1 0xB DUP2 MSTORE PUSH1 0x20 ADD PUSH32 0x4E6174757265546F6B656E000000000000000000000000000000000000000000 DUP2 MSTORE POP PUSH1 0x40 MLOAD DUP1 PUSH1 0x40 ADD PUSH1 0x40 MSTORE DUP1 PUSH1 0x3 DUP2 MSTORE PUSH1 0x20 ADD PUSH32 0x4E54520000000000000000000000000000000000000000000000000000000000 DUP2 MSTORE POP DUP2 PUSH1 0x3 SWAP1 DUP2 PUSH2 0xAD SWAP2 SWAP1 PUSH2 0x869 JUMP JUMPDEST POP DUP1 PUSH1 0x4 SWAP1 DUP2 PUSH2 0xBD SWAP2 SWAP1 PUSH2 0x869 JUMP JUMPDEST POP POP POP PUSH0 PUSH20 0xFFFFFFFFFFFFFFFFFFFFFFFFFFFFFFFFFFFFFFFF AND DUP2 PUSH20 0xFFFFFFFFFFFFFFFFFFFFFFFFFFFFFFFFFFFFFFFF AND SUB PUSH2 0x130 JUMPI PUSH0 PUSH1 0x40 MLOAD PUSH32 0x1E4FBDF700000000000000000000000000000000000000000000000000000000 DUP2 MSTORE PUSH1 0x4 ADD PUSH2 0x127 SWAP2 SWAP1 PUSH2 0x947 JUMP JUMPDEST PUSH1 0x40 MLOAD DUP1 SWAP2 SUB SWAP1 REVERT JUMPDEST PUSH2 0x13F DUP2 PUSH2 0x1B5 PUSH1 0x20 SHL PUSH1 0x20 SHR JUMP JUMPDEST POP PUSH2 0x174 ADDRESS PUSH2 0x152 PUSH2 0x278 PUSH1 0x20 SHL PUSH1 0x20 SHR JUMP JUMPDEST PUSH1 0xA PUSH2 0x15E SWAP2 SWAP1 PUSH2 0xAC8 JUMP JUMPDEST DUP8 PUSH2 0x169 SWAP2 SWAP1 PUSH2 0xB12 JUMP JUMPDEST PUSH2 0x280 PUSH1 0x20 SHL PUSH1 0x20 SHR JUMP JUMPDEST DUP4 PUSH1 0x8 DUP2 SWAP1 SSTORE POP DUP3 PUSH1 0xA DUP2 SWAP1 SSTORE POP DUP2 PUSH1 0x9 DUP2 SWAP1 SSTORE POP DUP1 PUSH1 0xD DUP2 SWAP1 SSTORE POP PUSH0 PUSH1 0x5 PUSH1 0x14 PUSH2 0x100 EXP DUP2 SLOAD DUP2 PUSH1 0xFF MUL NOT AND SWAP1 DUP4 ISZERO ISZERO MUL OR SWAP1 SSTORE POP POP POP POP POP POP POP PUSH2 0xBE3 JUMP JUMPDEST PUSH0 PUSH1 0x5 PUSH0 SWAP1 SLOAD SWAP1 PUSH2 0x100 EXP SWAP1 DIV PUSH20 0xFFFFFFFFFFFFFFFFFFFFFFFFFFFFFFFFFFFFFFFF AND SWAP1 POP DUP2 PUSH1 0x5 PUSH0 PUSH2 0x100 EXP DUP2 SLOAD DUP2 PUSH20 0xFFFFFFFFFFFFFFFFFFFFFFFFFFFFFFFFFFFFFFFF MUL NOT AND SWAP1 DUP4 PUSH20 0xFFFFFFFFFFFFFFFFFFFFFFFFFFFFFFFFFFFFFFFF AND MUL OR SWAP1 SSTORE POP DUP2 PUSH20 0xFFFFFFFFFFFFFFFFFFFFFFFFFFFFFFFFFFFFFFFF AND DUP2 PUSH20 0xFFFFFFFFFFFFFFFFFFFFFFFFFFFFFFFFFFFFFFFF AND PUSH32 0x8BE0079C531659141344CD1FD0A4F28419497F9722A3DAAFE3B4186F6B6457E0 PUSH1 0x40 MLOAD PUSH1 0x40 MLOAD DUP1 SWAP2 SUB SWAP1 LOG3 POP POP JUMP JUMPDEST PUSH0 PUSH1 0x12 SWAP1 POP SWAP1 JUMP JUMPDEST PUSH0 PUSH20 0xFFFFFFFFFFFFFFFFFFFFFFFFFFFFFFFFFFFFFFFF AND DUP3 PUSH20 0xFFFFFFFFFFFFFFFFFFFFFFFFFFFFFFFFFFFFFFFF AND SUB PUSH2 0x2F0 JUMPI PUSH0 PUSH1 0x40 MLOAD PUSH32 0xEC442F0500000000000000000000000000000000000000000000000000000000 DUP2 MSTORE PUSH1 0x4 ADD PUSH2 0x2E7 SWAP2 SWAP1 PUSH2 0x947 JUMP JUMPDEST PUSH1 0x40 MLOAD DUP1 SWAP2 SUB SWAP1 REVERT JUMPDEST PUSH2 0x301 PUSH0 DUP4 DUP4 PUSH2 0x305 PUSH1 0x20 SHL PUSH1 0x20 SHR JUMP JUMPDEST POP POP JUMP JUMPDEST PUSH0 PUSH20 0xFFFFFFFFFFFFFFFFFFFFFFFFFFFFFFFFFFFFFFFF AND DUP4 PUSH20 0xFFFFFFFFFFFFFFFFFFFFFFFFFFFFFFFFFFFFFFFF AND SUB PUSH2 0x355 JUMPI DUP1 PUSH1 0x2 PUSH0 DUP3 DUP3 SLOAD PUSH2 0x349 SWAP2 SWAP1 PUSH2 0xB53 JUMP JUMPDEST SWAP3 POP POP DUP2 SWAP1 SSTORE POP PUSH2 0x423 JUMP JUMPDEST PUSH0 DUP1 PUSH0 DUP6 PUSH20 0xFFFFFFFFFFFFFFFFFFFFFFFFFFFFFFFFFFFFFFFF AND PUSH20 0xFFFFFFFFFFFFFFFFFFFFFFFFFFFFFFFFFFFFFFFF AND DUP2 MSTORE PUSH1 0x20 ADD SWAP1 DUP2 MSTORE PUSH1 0x20 ADD PUSH0 KECCAK256 SLOAD SWAP1 POP DUP2 DUP2 LT ISZERO PUSH2 0x3DE JUMPI DUP4 DUP2 DUP4 PUSH1 0x40 MLOAD PUSH32 0xE450D38C00000000000000000000000000000000000000000000000000000000 DUP2 MSTORE PUSH1 0x4 ADD PUSH2 0x3D5 SWAP4 SWAP3 SWAP2 SWAP1 PUSH2 0xB95 JUMP JUMPDEST PUSH1 0x40 MLOAD DUP1 SWAP2 SUB SWAP1 REVERT JUMPDEST DUP2 DUP2 SUB PUSH0 DUP1 DUP7 PUSH20 0xFFFFFFFFFFFFFFFFFFFFFFFFFFFFFFFFFFFFFFFF AND PUSH20 0xFFFFFFFFFFFFFFFFFFFFFFFFFFFFFFFFFFFFFFFF AND DUP2 MSTORE PUSH1 0x20 ADD SWAP1 DUP2 MSTORE PUSH1 0x20 ADD PUSH0 KECCAK256 DUP2 SWAP1 SSTORE POP POP JUMPDEST PUSH0 PUSH20 0xFFFFFFFFFFFFFFFFFFFFFFFFFFFFFFFFFFFFFFFF AND DUP3 PUSH20 0xFFFFFFFFFFFFFFFFFFFFFFFFFFFFFFFFFFFFFFFF AND SUB PUSH2 0x46A JUMPI DUP1 PUSH1 0x2 PUSH0 DUP3 DUP3 SLOAD SUB SWAP3 POP POP DUP2 SWAP1 SSTORE POP PUSH2 0x4B4 JUMP JUMPDEST DUP1 PUSH0 DUP1 DUP5 PUSH20 0xFFFFFFFFFFFFFFFFFFFFFFFFFFFFFFFFFFFFFFFF AND PUSH20 0xFFFFFFFFFFFFFFFFFFFFFFFFFFFFFFFFFFFFFFFF AND DUP2 MSTORE PUSH1 0x20 ADD SWAP1 DUP2 MSTORE PUSH1 0x20 ADD PUSH0 KECCAK256 PUSH0 DUP3 DUP3 SLOAD ADD SWAP3 POP POP DUP2 SWAP1 SSTORE POP JUMPDEST DUP2 PUSH20 0xFFFFFFFFFFFFFFFFFFFFFFFFFFFFFFFFFFFFFFFF AND DUP4 PUSH20 0xFFFFFFFFFFFFFFFFFFFFFFFFFFFFFFFFFFFFFFFF AND PUSH32 0xDDF252AD1BE2C89B69C2B068FC378DAA952BA7F163C4A11628F55A4DF523B3EF DUP4 PUSH1 0x40 MLOAD PUSH2 0x511 SWAP2 SWAP1 PUSH2 0xBCA JUMP JUMPDEST PUSH1 0x40 MLOAD DUP1 SWAP2 SUB SWAP1 LOG3 POP POP POP JUMP JUMPDEST PUSH0 DUP1 REVERT JUMPDEST PUSH0 PUSH20 0xFFFFFFFFFFFFFFFFFFFFFFFFFFFFFFFFFFFFFFFF DUP3 AND SWAP1 POP SWAP2 SWAP1 POP JUMP JUMPDEST PUSH0 PUSH2 0x54B DUP3 PUSH2 0x522 JUMP JUMPDEST SWAP1 POP SWAP2 SWAP1 POP JUMP JUMPDEST PUSH2 0x55B DUP2 PUSH2 0x541 JUMP JUMPDEST DUP2 EQ PUSH2 0x565 JUMPI PUSH0 DUP1 REVERT JUMPDEST POP JUMP JUMPDEST PUSH0 DUP2 MLOAD SWAP1 POP PUSH2 0x576 DUP2 PUSH2 0x552 JUMP JUMPDEST SWAP3 SWAP2 POP POP JUMP JUMPDEST PUSH0 DUP2 SWAP1 POP SWAP2 SWAP1 POP JUMP JUMPDEST PUSH2 0x58E DUP2 PUSH2 0x57C JUMP JUMPDEST DUP2 EQ PUSH2 0x598 JUMPI PUSH0 DUP1 REVERT JUMPDEST POP JUMP JUMPDEST PUSH0 DUP2 MLOAD SWAP1 POP PUSH2 0x5A9 DUP2 PUSH2 0x585 JUMP JUMPDEST SWAP3 SWAP2 POP POP JUMP JUMPDEST PUSH0 DUP1 PUSH0 DUP1 PUSH0 DUP1 PUSH1 0xC0 DUP8 DUP10 SUB SLT ISZERO PUSH2 0x5C9 JUMPI PUSH2 0x5C8 PUSH2 0x51E JUMP JUMPDEST JUMPDEST PUSH0 PUSH2 0x5D6 DUP10 DUP3 DUP11 ADD PUSH2 0x568 JUMP JUMPDEST SWAP7 POP POP PUSH1 0x20 PUSH2 0x5E7 DUP10 DUP3 DUP11 ADD PUSH2 0x59B JUMP JUMPDEST SWAP6 POP POP PUSH1 0x40 PUSH2 0x5F8 DUP10 DUP3 DUP11 ADD PUSH2 0x59B JUMP JUMPDEST SWAP5 POP POP PUSH1 0x60 PUSH2 0x609 DUP10 DUP3 DUP11 ADD PUSH2 0x59B JUMP JUMPDEST SWAP4 POP POP PUSH1 0x80 PUSH2 0x61A DUP10 DUP3 DUP11 ADD PUSH2 0x59B JUMP JUMPDEST SWAP3 POP POP PUSH1 0xA0 PUSH2 0x62B DUP10 DUP3 DUP11 ADD PUSH2 0x59B JUMP JUMPDEST SWAP2 POP POP SWAP3 SWAP6 POP SWAP3 SWAP6 POP SWAP3 SWAP6 JUMP JUMPDEST PUSH0 DUP2 MLOAD SWAP1 POP SWAP2 SWAP1 POP JUMP JUMPDEST PUSH32 0x4E487B7100000000000000000000000000000000000000000000000000000000 PUSH0 MSTORE PUSH1 0x41 PUSH1 0x4 MSTORE PUSH1 0x24 PUSH0 REVERT JUMPDEST PUSH32 0x4E487B7100000000000000000000000000000000000000000000000000000000 PUSH0 MSTORE PUSH1 0x22 PUSH1 0x4 MSTORE PUSH1 0x24 PUSH0 REVERT JUMPDEST PUSH0 PUSH1 0x2 DUP3 DIV SWAP1 POP PUSH1 0x1 DUP3 AND DUP1 PUSH2 0x6B3 JUMPI PUSH1 0x7F DUP3 AND SWAP2 POP JUMPDEST PUSH1 0x20 DUP3 LT DUP2 SUB PUSH2 0x6C6 JUMPI PUSH2 0x6C5 PUSH2 0x66F JUMP JUMPDEST JUMPDEST POP SWAP2 SWAP1 POP JUMP JUMPDEST PUSH0 DUP2 SWAP1 POP DUP2 PUSH0 MSTORE PUSH1 0x20 PUSH0 KECCAK256 SWAP1 POP SWAP2 SWAP1 POP JUMP JUMPDEST PUSH0 PUSH1 0x20 PUSH1 0x1F DUP4 ADD DIV SWAP1 POP SWAP2 SWAP1 POP JUMP JUMPDEST PUSH0 DUP3 DUP3 SHL SWAP1 POP SWAP3 SWAP2 POP POP JUMP JUMPDEST PUSH0 PUSH1 0x8 DUP4 MUL PUSH2 0x728 PUSH32 0xFFFFFFFFFFFFFFFFFFFFFFFFFFFFFFFFFFFFFFFFFFFFFFFFFFFFFFFFFFFFFFFF DUP3 PUSH2 0x6ED JUMP JUMPDEST PUSH2 0x732 DUP7 DUP4 PUSH2 0x6ED JUMP JUMPDEST SWAP6 POP DUP1 NOT DUP5 AND SWAP4 POP DUP1 DUP7 AND DUP5 OR SWAP3 POP POP POP SWAP4 SWAP3 POP POP POP JUMP JUMPDEST PUSH0 DUP2 SWAP1 POP SWAP2 SWAP1 POP JUMP JUMPDEST PUSH0 PUSH2 0x76D PUSH2 0x768 PUSH2 0x763 DUP5 PUSH2 0x57C JUMP JUMPDEST PUSH2 0x74A JUMP JUMPDEST PUSH2 0x57C JUMP JUMPDEST SWAP1 POP SWAP2 SWAP1 POP JUMP JUMPDEST PUSH0 DUP2 SWAP1 POP SWAP2 SWAP1 POP JUMP JUMPDEST PUSH2 0x786 DUP4 PUSH2 0x753 JUMP JUMPDEST PUSH2 0x79A PUSH2 0x792 DUP3 PUSH2 0x774 JUMP JUMPDEST DUP5 DUP5 SLOAD PUSH2 0x6F9 JUMP JUMPDEST DUP3 SSTORE POP POP POP POP JUMP JUMPDEST PUSH0 SWAP1 JUMP JUMPDEST PUSH2 0x7AE PUSH2 0x7A2 JUMP JUMPDEST PUSH2 0x7B9 DUP2 DUP5 DUP5 PUSH2 0x77D JUMP JUMPDEST POP POP POP JUMP JUMPDEST JUMPDEST DUP2 DUP2 LT ISZERO PUSH2 0x7DC JUMPI PUSH2 0x7D1 PUSH0 DUP3 PUSH2 0x7A6 JUMP JUMPDEST PUSH1 0x1 DUP2 ADD SWAP1 POP PUSH2 0x7BF JUMP JUMPDEST POP POP JUMP JUMPDEST PUSH1 0x1F DUP3 GT ISZERO PUSH2 0x821 JUMPI PUSH2 0x7F2 DUP2 PUSH2 0x6CC JUMP JUMPDEST PUSH2 0x7FB DUP5 PUSH2 0x6DE JUMP JUMPDEST DUP2 ADD PUSH1 0x20 DUP6 LT ISZERO PUSH2 0x80A JUMPI DUP2 SWAP1 POP JUMPDEST PUSH2 0x81E PUSH2 0x816 DUP6 PUSH2 0x6DE JUMP JUMPDEST DUP4 ADD DUP3 PUSH2 0x7BE JUMP JUMPDEST POP POP JUMPDEST POP POP POP JUMP JUMPDEST PUSH0 DUP3 DUP3 SHR SWAP1 POP SWAP3 SWAP2 POP POP JUMP JUMPDEST PUSH0 PUSH2 0x841 PUSH0 NOT DUP5 PUSH1 0x8 MUL PUSH2 0x826 JUMP JUMPDEST NOT DUP1 DUP4 AND SWAP2 POP POP SWAP3 SWAP2 POP POP JUMP JUMPDEST PUSH0 PUSH2 0x859 DUP4 DUP4 PUSH2 0x832 JUMP JUMPDEST SWAP2 POP DUP3 PUSH1 0x2 MUL DUP3 OR SWAP1 POP SWAP3 SWAP2 POP POP JUMP JUMPDEST PUSH2 0x872 DUP3 PUSH2 0x638 JUMP JUMPDEST PUSH8 0xFFFFFFFFFFFFFFFF DUP2 GT ISZERO PUSH2 0x88B JUMPI PUSH2 0x88A PUSH2 0x642 JUMP JUMPDEST JUMPDEST PUSH2 0x895 DUP3 SLOAD PUSH2 0x69C JUMP JUMPDEST PUSH2 0x8A0 DUP3 DUP3 DUP6 PUSH2 0x7E0 JUMP JUMPDEST PUSH0 PUSH1 0x20 SWAP1 POP PUSH1 0x1F DUP4 GT PUSH1 0x1 DUP2 EQ PUSH2 0x8D1 JUMPI PUSH0 DUP5 ISZERO PUSH2 0x8BF JUMPI DUP3 DUP8 ADD MLOAD SWAP1 POP JUMPDEST PUSH2 0x8C9 DUP6 DUP3 PUSH2 0x84E JUMP JUMPDEST DUP7 SSTORE POP PUSH2 0x930 JUMP JUMPDEST PUSH1 0x1F NOT DUP5 AND PUSH2 0x8DF DUP7 PUSH2 0x6CC JUMP JUMPDEST PUSH0 JUMPDEST DUP3 DUP2 LT ISZERO PUSH2 0x906 JUMPI DUP5 DUP10 ADD MLOAD DUP3 SSTORE PUSH1 0x1 DUP3 ADD SWAP2 POP PUSH1 0x20 DUP6 ADD SWAP5 POP PUSH1 0x20 DUP2 ADD SWAP1 POP PUSH2 0x8E1 JUMP JUMPDEST DUP7 DUP4 LT ISZERO PUSH2 0x923 JUMPI DUP5 DUP10 ADD MLOAD PUSH2 0x91F PUSH1 0x1F DUP10 AND DUP3 PUSH2 0x832 JUMP JUMPDEST DUP4 SSTORE POP JUMPDEST PUSH1 0x1 PUSH1 0x2 DUP9 MUL ADD DUP9 SSTORE POP POP POP JUMPDEST POP POP POP POP POP POP JUMP JUMPDEST PUSH2 0x941 DUP2 PUSH2 0x541 JUMP JUMPDEST DUP3 MSTORE POP POP JUMP JUMPDEST PUSH0 PUSH1 0x20 DUP3 ADD SWAP1 POP PUSH2 0x95A PUSH0 DUP4 ADD DUP5 PUSH2 0x938 JUMP JUMPDEST SWAP3 SWAP2 POP POP JUMP JUMPDEST PUSH32 0x4E487B7100000000000000000000000000000000000000000000000000000000 PUSH0 MSTORE PUSH1 0x11 PUSH1 0x4 MSTORE PUSH1 0x24 PUSH0 REVERT JUMPDEST PUSH0 DUP2 PUSH1 0x1 SHR SWAP1 POP SWAP2 SWAP1 POP JUMP JUMPDEST PUSH0 DUP1 DUP3 SWAP2 POP DUP4 SWAP1 POP JUMPDEST PUSH1 0x1 DUP6 GT ISZERO PUSH2 0x9E2 JUMPI DUP1 DUP7 DIV DUP2 GT ISZERO PUSH2 0x9BE JUMPI PUSH2 0x9BD PUSH2 0x960 JUMP JUMPDEST JUMPDEST PUSH1 0x1 DUP6 AND ISZERO PUSH2 0x9CD JUMPI DUP1 DUP3 MUL SWAP2 POP JUMPDEST DUP1 DUP2 MUL SWAP1 POP PUSH2 0x9DB DUP6 PUSH2 0x98D JUMP JUMPDEST SWAP5 POP PUSH2 0x9A2 JUMP JUMPDEST SWAP5 POP SWAP5 SWAP3 POP POP POP JUMP JUMPDEST PUSH0 DUP3 PUSH2 0x9FA JUMPI PUSH1 0x1 SWAP1 POP PUSH2 0xAB5 JUMP JUMPDEST DUP2 PUSH2 0xA07 JUMPI PUSH0 SWAP1 POP PUSH2 0xAB5 JUMP JUMPDEST DUP2 PUSH1 0x1 DUP2 EQ PUSH2 0xA1D JUMPI PUSH1 0x2 DUP2 EQ PUSH2 0xA27 JUMPI PUSH2 0xA56 JUMP JUMPDEST PUSH1 0x1 SWAP2 POP POP PUSH2 0xAB5 JUMP JUMPDEST PUSH1 0xFF DUP5 GT ISZERO PUSH2 0xA39 JUMPI PUSH2 0xA38 PUSH2 0x960 JUMP JUMPDEST JUMPDEST DUP4 PUSH1 0x2 EXP SWAP2 POP DUP5 DUP3 GT ISZERO PUSH2 0xA50 JUMPI PUSH2 0xA4F PUSH2 0x960 JUMP JUMPDEST JUMPDEST POP PUSH2 0xAB5 JUMP JUMPDEST POP PUSH1 0x20 DUP4 LT PUSH2 0x133 DUP4 LT AND PUSH1 0x4E DUP5 LT PUSH1 0xB DUP5 LT AND OR ISZERO PUSH2 0xA8B JUMPI DUP3 DUP3 EXP SWAP1 POP DUP4 DUP2 GT ISZERO PUSH2 0xA86 JUMPI PUSH2 0xA85 PUSH2 0x960 JUMP JUMPDEST JUMPDEST PUSH2 0xAB5 JUMP JUMPDEST PUSH2 0xA98 DUP5 DUP5 DUP5 PUSH1 0x1 PUSH2 0x999 JUMP JUMPDEST SWAP3 POP SWAP1 POP DUP2 DUP5 DIV DUP2 GT ISZERO PUSH2 0xAAF JUMPI PUSH2 0xAAE PUSH2 0x960 JUMP JUMPDEST JUMPDEST DUP2 DUP2 MUL SWAP1 POP JUMPDEST SWAP4 SWAP3 POP POP POP JUMP JUMPDEST PUSH0 PUSH1 0xFF DUP3 AND SWAP1 POP SWAP2 SWAP1 POP JUMP JUMPDEST PUSH0 PUSH2 0xAD2 DUP3 PUSH2 0x57C JUMP JUMPDEST SWAP2 POP PUSH2 0xADD DUP4 PUSH2 0xABC JUMP JUMPDEST SWAP3 POP PUSH2 0xB0A PUSH32 0xFFFFFFFFFFFFFFFFFFFFFFFFFFFFFFFFFFFFFFFFFFFFFFFFFFFFFFFFFFFFFFFF DUP5 DUP5 PUSH2 0x9EB JUMP JUMPDEST SWAP1 POP SWAP3 SWAP2 POP POP JUMP JUMPDEST PUSH0 PUSH2 0xB1C DUP3 PUSH2 0x57C JUMP JUMPDEST SWAP2 POP PUSH2 0xB27 DUP4 PUSH2 0x57C JUMP JUMPDEST SWAP3 POP DUP3 DUP3 MUL PUSH2 0xB35 DUP2 PUSH2 0x57C JUMP JUMPDEST SWAP2 POP DUP3 DUP3 DIV DUP5 EQ DUP4 ISZERO OR PUSH2 0xB4C JUMPI PUSH2 0xB4B PUSH2 0x960 JUMP JUMPDEST JUMPDEST POP SWAP3 SWAP2 POP POP JUMP JUMPDEST PUSH0 PUSH2 0xB5D DUP3 PUSH2 0x57C JUMP JUMPDEST SWAP2 POP PUSH2 0xB68 DUP4 PUSH2 0x57C JUMP JUMPDEST SWAP3 POP DUP3 DUP3 ADD SWAP1 POP DUP1 DUP3 GT ISZERO PUSH2 0xB80 JUMPI PUSH2 0xB7F PUSH2 0x960 JUMP JUMPDEST JUMPDEST SWAP3 SWAP2 POP POP JUMP JUMPDEST PUSH2 0xB8F DUP2 PUSH2 0x57C JUMP JUMPDEST DUP3 MSTORE POP POP JUMP JUMPDEST PUSH0 PUSH1 0x60 DUP3 ADD SWAP1 POP PUSH2 0xBA8 PUSH0 DUP4 ADD DUP7 PUSH2 0x938 JUMP JUMPDEST PUSH2 0xBB5 PUSH1 0x20 DUP4 ADD DUP6 PUSH2 0xB86 JUMP JUMPDEST PUSH2 0xBC2 PUSH1 0x40 DUP4 ADD DUP5 PUSH2 0xB86 JUMP JUMPDEST SWAP5 SWAP4 POP POP POP POP JUMP JUMPDEST PUSH0 PUSH1 0x20 DUP3 ADD SWAP1 POP PUSH2 0xBDD PUSH0 DUP4 ADD DUP5 PUSH2 0xB86 JUMP JUMPDEST SWAP3 SWAP2 POP POP JUMP JUMPDEST PUSH2 0x2E40 DUP1 PUSH2 0xBF0 PUSH0 CODECOPY PUSH0 RETURN INVALID PUSH1 0x80 PUSH1 0x40 MSTORE PUSH1 0x4 CALLDATASIZE LT PUSH2 0x22F JUMPI PUSH0 CALLDATALOAD PUSH1 0xE0 SHR DUP1 PUSH4 0x7547C7A3 GT PUSH2 0x12D JUMPI DUP1 PUSH4 0xA9059CBB GT PUSH2 0xAA JUMPI DUP1 PUSH4 0xDD62ED3E GT PUSH2 0x6E JUMPI DUP1 PUSH4 0xDD62ED3E EQ PUSH2 0x83F JUMPI DUP1 PUSH4 0xF2FDE38B EQ PUSH2 0x87B JUMPI DUP1 PUSH4 0xF8102E68 EQ PUSH2 0x8A3 JUMPI DUP1 PUSH4 0xF9931855 EQ PUSH2 0x8CD JUMPI DUP1 PUSH4 0xF9A81AF7 EQ PUSH2 0x909 JUMPI PUSH2 0x22F JUMP JUMPDEST DUP1 PUSH4 0xA9059CBB EQ PUSH2 0x769 JUMPI DUP1 PUSH4 0xCCE29EA7 EQ PUSH2 0x7A5 JUMPI DUP1 PUSH4 0xCEC297A0 EQ PUSH2 0x7CF JUMPI DUP1 PUSH4 0xD0FEBE4C EQ PUSH2 0x80B JUMPI DUP1 PUSH4 0xD348B409 EQ PUSH2 0x815 JUMPI PUSH2 0x22F JUMP JUMPDEST DUP1 PUSH4 0x95D89B41 GT PUSH2 0xF1 JUMPI DUP1 PUSH4 0x95D89B41 EQ PUSH2 0x689 JUMPI DUP1 PUSH4 0x9B19251A EQ PUSH2 0x6B3 JUMPI DUP1 PUSH4 0x9CA423B3 EQ PUSH2 0x6EF JUMPI DUP1 PUSH4 0xA09C4CF4 EQ PUSH2 0x72B JUMPI DUP1 PUSH4 0xA5CE413B EQ PUSH2 0x753 JUMPI PUSH2 0x22F JUMP JUMPDEST DUP1 PUSH4 0x7547C7A3 EQ PUSH2 0x5A9 JUMPI DUP1 PUSH4 0x7C613B2F EQ PUSH2 0x5D1 JUMPI DUP1 PUSH4 0x8265324D EQ PUSH2 0x5E7 JUMPI DUP1 PUSH4 0x8DA5CB5B EQ PUSH2 0x623 JUMPI DUP1 PUSH4 0x8F0794FE EQ PUSH2 0x64D JUMPI PUSH2 0x22F JUMP JUMPDEST DUP1 PUSH4 0x2C663960 GT PUSH2 0x1BB JUMPI DUP1 PUSH4 0x4F3FC2DF GT PUSH2 0x17F JUMPI DUP1 PUSH4 0x4F3FC2DF EQ PUSH2 0x4D9 JUMPI DUP1 PUSH4 0x518AB2A8 EQ PUSH2 0x503 JUMPI DUP1 PUSH4 0x70A08231 EQ PUSH2 0x52D JUMPI DUP1 PUSH4 0x715018A6 EQ PUSH2 0x569 JUMPI DUP1 PUSH4 0x7165D19B EQ PUSH2 0x57F JUMPI PUSH2 0x22F JUMP JUMPDEST DUP1 PUSH4 0x2C663960 EQ PUSH2 0x3F5 JUMPI DUP1 PUSH4 0x30F72CD4 EQ PUSH2 0x431 JUMPI DUP1 PUSH4 0x313CE567 EQ PUSH2 0x45B JUMPI DUP1 PUSH4 0x329A27E7 EQ PUSH2 0x485 JUMPI DUP1 PUSH4 0x4405DF4A EQ PUSH2 0x4AF JUMPI PUSH2 0x22F JUMP JUMPDEST DUP1 PUSH4 0xD505541 GT PUSH2 0x202 JUMPI DUP1 PUSH4 0xD505541 EQ PUSH2 0x2ED JUMPI DUP1 PUSH4 0x18160DDD EQ PUSH2 0x329 JUMPI DUP1 PUSH4 0x1D0806AE EQ PUSH2 0x353 JUMPI DUP1 PUSH4 0x23B872DD EQ PUSH2 0x37D JUMPI DUP1 PUSH4 0x27E235E3 EQ PUSH2 0x3B9 JUMPI PUSH2 0x22F JUMP JUMPDEST DUP1 PUSH4 0x3E293A3 EQ PUSH2 0x233 JUMPI DUP1 PUSH4 0x6D65AF3 EQ PUSH2 0x25D JUMPI DUP1 PUSH4 0x6FDDE03 EQ PUSH2 0x287 JUMPI DUP1 PUSH4 0x95EA7B3 EQ PUSH2 0x2B1 JUMPI JUMPDEST PUSH0 DUP1 REVERT JUMPDEST CALLVALUE DUP1 ISZERO PUSH2 0x23E JUMPI PUSH0 DUP1 REVERT JUMPDEST POP PUSH2 0x247 PUSH2 0x931 JUMP JUMPDEST PUSH1 0x40 MLOAD PUSH2 0x254 SWAP2 SWAP1 PUSH2 0x21A9 JUMP JUMPDEST PUSH1 0x40 MLOAD DUP1 SWAP2 SUB SWAP1 RETURN JUMPDEST CALLVALUE DUP1 ISZERO PUSH2 0x268 JUMPI PUSH0 DUP1 REVERT JUMPDEST POP PUSH2 0x271 PUSH2 0x937 JUMP JUMPDEST PUSH1 0x40 MLOAD PUSH2 0x27E SWAP2 SWAP1 PUSH2 0x21A9 JUMP JUMPDEST PUSH1 0x40 MLOAD DUP1 SWAP2 SUB SWAP1 RETURN JUMPDEST CALLVALUE DUP1 ISZERO PUSH2 0x292 JUMPI PUSH0 DUP1 REVERT JUMPDEST POP PUSH2 0x29B PUSH2 0x93D JUMP JUMPDEST PUSH1 0x40 MLOAD PUSH2 0x2A8 SWAP2 SWAP1 PUSH2 0x2232 JUMP JUMPDEST PUSH1 0x40 MLOAD DUP1 SWAP2 SUB SWAP1 RETURN JUMPDEST CALLVALUE DUP1 ISZERO PUSH2 0x2BC JUMPI PUSH0 DUP1 REVERT JUMPDEST POP PUSH2 0x2D7 PUSH1 0x4 DUP1 CALLDATASIZE SUB DUP2 ADD SWAP1 PUSH2 0x2D2 SWAP2 SWAP1 PUSH2 0x22DA JUMP JUMPDEST PUSH2 0x9CD JUMP JUMPDEST PUSH1 0x40 MLOAD PUSH2 0x2E4 SWAP2 SWAP1 PUSH2 0x2332 JUMP JUMPDEST PUSH1 0x40 MLOAD DUP1 SWAP2 SUB SWAP1 RETURN JUMPDEST CALLVALUE DUP1 ISZERO PUSH2 0x2F8 JUMPI PUSH0 DUP1 REVERT JUMPDEST POP PUSH2 0x313 PUSH1 0x4 DUP1 CALLDATASIZE SUB DUP2 ADD SWAP1 PUSH2 0x30E SWAP2 SWAP1 PUSH2 0x234B JUMP JUMPDEST PUSH2 0x9EF JUMP JUMPDEST PUSH1 0x40 MLOAD PUSH2 0x320 SWAP2 SWAP1 PUSH2 0x21A9 JUMP JUMPDEST PUSH1 0x40 MLOAD DUP1 SWAP2 SUB SWAP1 RETURN JUMPDEST CALLVALUE DUP1 ISZERO PUSH2 0x334 JUMPI PUSH0 DUP1 REVERT JUMPDEST POP PUSH2 0x33D PUSH2 0xAB4 JUMP JUMPDEST PUSH1 0x40 MLOAD PUSH2 0x34A SWAP2 SWAP1 PUSH2 0x21A9 JUMP JUMPDEST PUSH1 0x40 MLOAD DUP1 SWAP2 SUB SWAP1 RETURN JUMPDEST CALLVALUE DUP1 ISZERO PUSH2 0x35E JUMPI PUSH0 DUP1 REVERT JUMPDEST POP PUSH2 0x367 PUSH2 0xABD JUMP JUMPDEST PUSH1 0x40 MLOAD PUSH2 0x374 SWAP2 SWAP1 PUSH2 0x21A9 JUMP JUMPDEST PUSH1 0x40 MLOAD DUP1 SWAP2 SUB SWAP1 RETURN JUMPDEST CALLVALUE DUP1 ISZERO PUSH2 0x388 JUMPI PUSH0 DUP1 REVERT JUMPDEST POP PUSH2 0x3A3 PUSH1 0x4 DUP1 CALLDATASIZE SUB DUP2 ADD SWAP1 PUSH2 0x39E SWAP2 SWAP1 PUSH2 0x2376 JUMP JUMPDEST PUSH2 0xAC3 JUMP JUMPDEST PUSH1 0x40 MLOAD PUSH2 0x3B0 SWAP2 SWAP1 PUSH2 0x2332 JUMP JUMPDEST PUSH1 0x40 MLOAD DUP1 SWAP2 SUB SWAP1 RETURN JUMPDEST CALLVALUE DUP1 ISZERO PUSH2 0x3C4 JUMPI PUSH0 DUP1 REVERT JUMPDEST POP PUSH2 0x3DF PUSH1 0x4 DUP1 CALLDATASIZE SUB DUP2 ADD SWAP1 PUSH2 0x3DA SWAP2 SWAP1 PUSH2 0x234B JUMP JUMPDEST PUSH2 0xAF1 JUMP JUMPDEST PUSH1 0x40 MLOAD PUSH2 0x3EC SWAP2 SWAP1 PUSH2 0x21A9 JUMP JUMPDEST PUSH1 0x40 MLOAD DUP1 SWAP2 SUB SWAP1 RETURN JUMPDEST CALLVALUE DUP1 ISZERO PUSH2 0x400 JUMPI PUSH0 DUP1 REVERT JUMPDEST POP PUSH2 0x41B PUSH1 0x4 DUP1 CALLDATASIZE SUB DUP2 ADD SWAP1 PUSH2 0x416 SWAP2 SWAP1 PUSH2 0x23C6 JUMP JUMPDEST PUSH2 0xB06 JUMP JUMPDEST PUSH1 0x40 MLOAD PUSH2 0x428 SWAP2 SWAP1 PUSH2 0x21A9 JUMP JUMPDEST PUSH1 0x40 MLOAD DUP1 SWAP2 SUB SWAP1 RETURN JUMPDEST CALLVALUE DUP1 ISZERO PUSH2 0x43C JUMPI PUSH0 DUP1 REVERT JUMPDEST POP PUSH2 0x445 PUSH2 0xB71 JUMP JUMPDEST PUSH1 0x40 MLOAD PUSH2 0x452 SWAP2 SWAP1 PUSH2 0x2332 JUMP JUMPDEST PUSH1 0x40 MLOAD DUP1 SWAP2 SUB SWAP1 RETURN JUMPDEST CALLVALUE DUP1 ISZERO PUSH2 0x466 JUMPI PUSH0 DUP1 REVERT JUMPDEST POP PUSH2 0x46F PUSH2 0xB84 JUMP JUMPDEST PUSH1 0x40 MLOAD PUSH2 0x47C SWAP2 SWAP1 PUSH2 0x241F JUMP JUMPDEST PUSH1 0x40 MLOAD DUP1 SWAP2 SUB SWAP1 RETURN JUMPDEST CALLVALUE DUP1 ISZERO PUSH2 0x490 JUMPI PUSH0 DUP1 REVERT JUMPDEST POP PUSH2 0x499 PUSH2 0xB8C JUMP JUMPDEST PUSH1 0x40 MLOAD PUSH2 0x4A6 SWAP2 SWAP1 PUSH2 0x21A9 JUMP JUMPDEST PUSH1 0x40 MLOAD DUP1 SWAP2 SUB SWAP1 RETURN JUMPDEST CALLVALUE DUP1 ISZERO PUSH2 0x4BA JUMPI PUSH0 DUP1 REVERT JUMPDEST POP PUSH2 0x4C3 PUSH2 0xBD0 JUMP JUMPDEST PUSH1 0x40 MLOAD PUSH2 0x4D0 SWAP2 SWAP1 PUSH2 0x21A9 JUMP JUMPDEST PUSH1 0x40 MLOAD DUP1 SWAP2 SUB SWAP1 RETURN JUMPDEST CALLVALUE DUP1 ISZERO PUSH2 0x4E4 JUMPI PUSH0 DUP1 REVERT JUMPDEST POP PUSH2 0x4ED PUSH2 0xC13 JUMP JUMPDEST PUSH1 0x40 MLOAD PUSH2 0x4FA SWAP2 SWAP1 PUSH2 0x21A9 JUMP JUMPDEST PUSH1 0x40 MLOAD DUP1 SWAP2 SUB SWAP1 RETURN JUMPDEST CALLVALUE DUP1 ISZERO PUSH2 0x50E JUMPI PUSH0 DUP1 REVERT JUMPDEST POP PUSH2 0x517 PUSH2 0xC19 JUMP JUMPDEST PUSH1 0x40 MLOAD PUSH2 0x524 SWAP2 SWAP1 PUSH2 0x21A9 JUMP JUMPDEST PUSH1 0x40 MLOAD DUP1 SWAP2 SUB SWAP1 RETURN JUMPDEST CALLVALUE DUP1 ISZERO PUSH2 0x538 JUMPI PUSH0 DUP1 REVERT JUMPDEST POP PUSH2 0x553 PUSH1 0x4 DUP1 CALLDATASIZE SUB DUP2 ADD SWAP1 PUSH2 0x54E SWAP2 SWAP1 PUSH2 0x234B JUMP JUMPDEST PUSH2 0xC1F JUMP JUMPDEST PUSH1 0x40 MLOAD PUSH2 0x560 SWAP2 SWAP1 PUSH2 0x21A9 JUMP JUMPDEST PUSH1 0x40 MLOAD DUP1 SWAP2 SUB SWAP1 RETURN JUMPDEST CALLVALUE DUP1 ISZERO PUSH2 0x574 JUMPI PUSH0 DUP1 REVERT JUMPDEST POP PUSH2 0x57D PUSH2 0xC64 JUMP JUMPDEST STOP JUMPDEST CALLVALUE DUP1 ISZERO PUSH2 0x58A JUMPI PUSH0 DUP1 REVERT JUMPDEST POP PUSH2 0x593 PUSH2 0xC77 JUMP JUMPDEST PUSH1 0x40 MLOAD PUSH2 0x5A0 SWAP2 SWAP1 PUSH2 0x21A9 JUMP JUMPDEST PUSH1 0x40 MLOAD DUP1 SWAP2 SUB SWAP1 RETURN JUMPDEST CALLVALUE DUP1 ISZERO PUSH2 0x5B4 JUMPI PUSH0 DUP1 REVERT JUMPDEST POP PUSH2 0x5CF PUSH1 0x4 DUP1 CALLDATASIZE SUB DUP2 ADD SWAP1 PUSH2 0x5CA SWAP2 SWAP1 PUSH2 0x2438 JUMP JUMPDEST PUSH2 0xC7D JUMP JUMPDEST STOP JUMPDEST CALLVALUE DUP1 ISZERO PUSH2 0x5DC JUMPI PUSH0 DUP1 REVERT JUMPDEST POP PUSH2 0x5E5 PUSH2 0xDFB JUMP JUMPDEST STOP JUMPDEST CALLVALUE DUP1 ISZERO PUSH2 0x5F2 JUMPI PUSH0 DUP1 REVERT JUMPDEST POP PUSH2 0x60D PUSH1 0x4 DUP1 CALLDATASIZE SUB DUP2 ADD SWAP1 PUSH2 0x608 SWAP2 SWAP1 PUSH2 0x234B JUMP JUMPDEST PUSH2 0xF3C JUMP JUMPDEST PUSH1 0x40 MLOAD PUSH2 0x61A SWAP2 SWAP1 PUSH2 0x21A9 JUMP JUMPDEST PUSH1 0x40 MLOAD DUP1 SWAP2 SUB SWAP1 RETURN JUMPDEST CALLVALUE DUP1 ISZERO PUSH2 0x62E JUMPI PUSH0 DUP1 REVERT JUMPDEST POP PUSH2 0x637 PUSH2 0xFAD JUMP JUMPDEST PUSH1 0x40 MLOAD PUSH2 0x644 SWAP2 SWAP1 PUSH2 0x2472 JUMP JUMPDEST PUSH1 0x40 MLOAD DUP1 SWAP2 SUB SWAP1 RETURN JUMPDEST CALLVALUE DUP1 ISZERO PUSH2 0x658 JUMPI PUSH0 DUP1 REVERT JUMPDEST POP PUSH2 0x673 PUSH1 0x4 DUP1 CALLDATASIZE SUB DUP2 ADD SWAP1 PUSH2 0x66E SWAP2 SWAP1 PUSH2 0x234B JUMP JUMPDEST PUSH2 0xFD5 JUMP JUMPDEST PUSH1 0x40 MLOAD PUSH2 0x680 SWAP2 SWAP1 PUSH2 0x21A9 JUMP JUMPDEST PUSH1 0x40 MLOAD DUP1 SWAP2 SUB SWAP1 RETURN JUMPDEST CALLVALUE DUP1 ISZERO PUSH2 0x694 JUMPI PUSH0 DUP1 REVERT JUMPDEST POP PUSH2 0x69D PUSH2 0xFEA JUMP JUMPDEST PUSH1 0x40 MLOAD PUSH2 0x6AA SWAP2 SWAP1 PUSH2 0x2232 JUMP JUMPDEST PUSH1 0x40 MLOAD DUP1 SWAP2 SUB SWAP1 RETURN JUMPDEST CALLVALUE DUP1 ISZERO PUSH2 0x6BE JUMPI PUSH0 DUP1 REVERT JUMPDEST POP PUSH2 0x6D9 PUSH1 0x4 DUP1 CALLDATASIZE SUB DUP2 ADD SWAP1 PUSH2 0x6D4 SWAP2 SWAP1 PUSH2 0x234B JUMP JUMPDEST PUSH2 0x107A JUMP JUMPDEST PUSH1 0x40 MLOAD PUSH2 0x6E6 SWAP2 SWAP1 PUSH2 0x2332 JUMP JUMPDEST PUSH1 0x40 MLOAD DUP1 SWAP2 SUB SWAP1 RETURN JUMPDEST CALLVALUE DUP1 ISZERO PUSH2 0x6FA JUMPI PUSH0 DUP1 REVERT JUMPDEST POP PUSH2 0x715 PUSH1 0x4 DUP1 CALLDATASIZE SUB DUP2 ADD SWAP1 PUSH2 0x710 SWAP2 SWAP1 PUSH2 0x234B JUMP JUMPDEST PUSH2 0x1097 JUMP JUMPDEST PUSH1 0x40 MLOAD PUSH2 0x722 SWAP2 SWAP1 PUSH2 0x2472 JUMP JUMPDEST PUSH1 0x40 MLOAD DUP1 SWAP2 SUB SWAP1 RETURN JUMPDEST CALLVALUE DUP1 ISZERO PUSH2 0x736 JUMPI PUSH0 DUP1 REVERT JUMPDEST POP PUSH2 0x751 PUSH1 0x4 DUP1 CALLDATASIZE SUB DUP2 ADD SWAP1 PUSH2 0x74C SWAP2 SWAP1 PUSH2 0x234B JUMP JUMPDEST PUSH2 0x10C7 JUMP JUMPDEST STOP JUMPDEST CALLVALUE DUP1 ISZERO PUSH2 0x75E JUMPI PUSH0 DUP1 REVERT JUMPDEST POP PUSH2 0x767 PUSH2 0x13C8 JUMP JUMPDEST STOP JUMPDEST CALLVALUE DUP1 ISZERO PUSH2 0x774 JUMPI PUSH0 DUP1 REVERT JUMPDEST POP PUSH2 0x78F PUSH1 0x4 DUP1 CALLDATASIZE SUB DUP2 ADD SWAP1 PUSH2 0x78A SWAP2 SWAP1 PUSH2 0x22DA JUMP JUMPDEST PUSH2 0x15D3 JUMP JUMPDEST PUSH1 0x40 MLOAD PUSH2 0x79C SWAP2 SWAP1 PUSH2 0x2332 JUMP JUMPDEST PUSH1 0x40 MLOAD DUP1 SWAP2 SUB SWAP1 RETURN JUMPDEST CALLVALUE DUP1 ISZERO PUSH2 0x7B0 JUMPI PUSH0 DUP1 REVERT JUMPDEST POP PUSH2 0x7B9 PUSH2 0x15F5 JUMP JUMPDEST PUSH1 0x40 MLOAD PUSH2 0x7C6 SWAP2 SWAP1 PUSH2 0x21A9 JUMP JUMPDEST PUSH1 0x40 MLOAD DUP1 SWAP2 SUB SWAP1 RETURN JUMPDEST CALLVALUE DUP1 ISZERO PUSH2 0x7DA JUMPI PUSH0 DUP1 REVERT JUMPDEST POP PUSH2 0x7F5 PUSH1 0x4 DUP1 CALLDATASIZE SUB DUP2 ADD SWAP1 PUSH2 0x7F0 SWAP2 SWAP1 PUSH2 0x234B JUMP JUMPDEST PUSH2 0x15FB JUMP JUMPDEST PUSH1 0x40 MLOAD PUSH2 0x802 SWAP2 SWAP1 PUSH2 0x21A9 JUMP JUMPDEST PUSH1 0x40 MLOAD DUP1 SWAP2 SUB SWAP1 RETURN JUMPDEST PUSH2 0x813 PUSH2 0x1610 JUMP JUMPDEST STOP JUMPDEST CALLVALUE DUP1 ISZERO PUSH2 0x820 JUMPI PUSH0 DUP1 REVERT JUMPDEST POP PUSH2 0x829 PUSH2 0x1806 JUMP JUMPDEST PUSH1 0x40 MLOAD PUSH2 0x836 SWAP2 SWAP1 PUSH2 0x21A9 JUMP JUMPDEST PUSH1 0x40 MLOAD DUP1 SWAP2 SUB SWAP1 RETURN JUMPDEST CALLVALUE DUP1 ISZERO PUSH2 0x84A JUMPI PUSH0 DUP1 REVERT JUMPDEST POP PUSH2 0x865 PUSH1 0x4 DUP1 CALLDATASIZE SUB DUP2 ADD SWAP1 PUSH2 0x860 SWAP2 SWAP1 PUSH2 0x248B JUMP JUMPDEST PUSH2 0x188F JUMP JUMPDEST PUSH1 0x40 MLOAD PUSH2 0x872 SWAP2 SWAP1 PUSH2 0x21A9 JUMP JUMPDEST PUSH1 0x40 MLOAD DUP1 SWAP2 SUB SWAP1 RETURN JUMPDEST CALLVALUE DUP1 ISZERO PUSH2 0x886 JUMPI PUSH0 DUP1 REVERT JUMPDEST POP PUSH2 0x8A1 PUSH1 0x4 DUP1 CALLDATASIZE SUB DUP2 ADD SWAP1 PUSH2 0x89C SWAP2 SWAP1 PUSH2 0x234B JUMP JUMPDEST PUSH2 0x1911 JUMP JUMPDEST STOP JUMPDEST CALLVALUE DUP1 ISZERO PUSH2 0x8AE JUMPI PUSH0 DUP1 REVERT JUMPDEST POP PUSH2 0x8B7 PUSH2 0x1995 JUMP JUMPDEST PUSH1 0x40 MLOAD PUSH2 0x8C4 SWAP2 SWAP1 PUSH2 0x21A9 JUMP JUMPDEST PUSH1 0x40 MLOAD DUP1 SWAP2 SUB SWAP1 RETURN JUMPDEST CALLVALUE DUP1 ISZERO PUSH2 0x8D8 JUMPI PUSH0 DUP1 REVERT JUMPDEST POP PUSH2 0x8F3 PUSH1 0x4 DUP1 CALLDATASIZE SUB DUP2 ADD SWAP1 PUSH2 0x8EE SWAP2 SWAP1 PUSH2 0x234B JUMP JUMPDEST PUSH2 0x199B JUMP JUMPDEST PUSH1 0x40 MLOAD PUSH2 0x900 SWAP2 SWAP1 PUSH2 0x21A9 JUMP JUMPDEST PUSH1 0x40 MLOAD DUP1 SWAP2 SUB SWAP1 RETURN JUMPDEST CALLVALUE DUP1 ISZERO PUSH2 0x914 JUMPI PUSH0 DUP1 REVERT JUMPDEST POP PUSH2 0x92F PUSH1 0x4 DUP1 CALLDATASIZE SUB DUP2 ADD SWAP1 PUSH2 0x92A SWAP2 SWAP1 PUSH2 0x23C6 JUMP JUMPDEST PUSH2 0x19B0 JUMP JUMPDEST STOP JUMPDEST PUSH1 0x9 SLOAD DUP2 JUMP JUMPDEST PUSH1 0x6 SLOAD DUP2 JUMP JUMPDEST PUSH1 0x60 PUSH1 0x3 DUP1 SLOAD PUSH2 0x94C SWAP1 PUSH2 0x24F6 JUMP JUMPDEST DUP1 PUSH1 0x1F ADD PUSH1 0x20 DUP1 SWAP2 DIV MUL PUSH1 0x20 ADD PUSH1 0x40 MLOAD SWAP1 DUP2 ADD PUSH1 0x40 MSTORE DUP1 SWAP3 SWAP2 SWAP1 DUP2 DUP2 MSTORE PUSH1 0x20 ADD DUP3 DUP1 SLOAD PUSH2 0x978 SWAP1 PUSH2 0x24F6 JUMP JUMPDEST DUP1 ISZERO PUSH2 0x9C3 JUMPI DUP1 PUSH1 0x1F LT PUSH2 0x99A JUMPI PUSH2 0x100 DUP1 DUP4 SLOAD DIV MUL DUP4 MSTORE SWAP2 PUSH1 0x20 ADD SWAP2 PUSH2 0x9C3 JUMP JUMPDEST DUP3 ADD SWAP2 SWAP1 PUSH0 MSTORE PUSH1 0x20 PUSH0 KECCAK256 SWAP1 JUMPDEST DUP2 SLOAD DUP2 MSTORE SWAP1 PUSH1 0x1 ADD SWAP1 PUSH1 0x20 ADD DUP1 DUP4 GT PUSH2 0x9A6 JUMPI DUP3 SWAP1 SUB PUSH1 0x1F AND DUP3 ADD SWAP2 JUMPDEST POP POP POP POP POP SWAP1 POP SWAP1 JUMP JUMPDEST PUSH0 DUP1 PUSH2 0x9D7 PUSH2 0x1A44 JUMP JUMPDEST SWAP1 POP PUSH2 0x9E4 DUP2 DUP6 DUP6 PUSH2 0x1A4B JUMP JUMPDEST PUSH1 0x1 SWAP2 POP POP SWAP3 SWAP2 POP POP JUMP JUMPDEST PUSH0 DUP1 PUSH3 0x93A80 PUSH1 0xF PUSH0 DUP6 PUSH20 0xFFFFFFFFFFFFFFFFFFFFFFFFFFFFFFFFFFFFFFFF AND PUSH20 0xFFFFFFFFFFFFFFFFFFFFFFFFFFFFFFFFFFFFFFFF AND DUP2 MSTORE PUSH1 0x20 ADD SWAP1 DUP2 MSTORE PUSH1 0x20 ADD PUSH0 KECCAK256 SLOAD TIMESTAMP PUSH2 0xA3E SWAP2 SWAP1 PUSH2 0x2553 JUMP JUMPDEST PUSH2 0xA48 SWAP2 SWAP1 PUSH2 0x25B3 JUMP JUMPDEST SWAP1 POP PUSH1 0x64 DUP2 PUSH1 0xD SLOAD PUSH1 0xE PUSH0 DUP8 PUSH20 0xFFFFFFFFFFFFFFFFFFFFFFFFFFFFFFFFFFFFFFFF AND PUSH20 0xFFFFFFFFFFFFFFFFFFFFFFFFFFFFFFFFFFFFFFFF AND DUP2 MSTORE PUSH1 0x20 ADD SWAP1 DUP2 MSTORE PUSH1 0x20 ADD PUSH0 KECCAK256 SLOAD PUSH2 0xA98 SWAP2 SWAP1 PUSH2 0x25E3 JUMP JUMPDEST PUSH2 0xAA2 SWAP2 SWAP1 PUSH2 0x25E3 JUMP JUMPDEST PUSH2 0xAAC SWAP2 SWAP1 PUSH2 0x25B3 JUMP JUMPDEST SWAP2 POP POP SWAP2 SWAP1 POP JUMP JUMPDEST PUSH0 PUSH1 0x2 SLOAD SWAP1 POP SWAP1 JUMP JUMPDEST PUSH1 0x8 SLOAD DUP2 JUMP JUMPDEST PUSH0 DUP1 PUSH2 0xACD PUSH2 0x1A44 JUMP JUMPDEST SWAP1 POP PUSH2 0xADA DUP6 DUP3 DUP6 PUSH2 0x1A5D JUMP JUMPDEST PUSH2 0xAE5 DUP6 DUP6 DUP6 PUSH2 0x1AF0 JUMP JUMPDEST PUSH1 0x1 SWAP2 POP POP SWAP4 SWAP3 POP POP POP JUMP JUMPDEST PUSH1 0x13 PUSH1 0x20 MSTORE DUP1 PUSH0 MSTORE PUSH1 0x40 PUSH0 KECCAK256 PUSH0 SWAP2 POP SWAP1 POP SLOAD DUP2 JUMP JUMPDEST PUSH0 DUP3 DUP3 LT ISZERO PUSH2 0xB4A JUMPI PUSH1 0x40 MLOAD PUSH32 0x8C379A000000000000000000000000000000000000000000000000000000000 DUP2 MSTORE PUSH1 0x4 ADD PUSH2 0xB41 SWAP1 PUSH2 0x2694 JUMP JUMPDEST PUSH1 0x40 MLOAD DUP1 SWAP2 SUB SWAP1 REVERT JUMPDEST PUSH0 PUSH3 0x93A80 DUP5 DUP5 PUSH2 0xB5B SWAP2 SWAP1 PUSH2 0x2553 JUMP JUMPDEST PUSH2 0xB65 SWAP2 SWAP1 PUSH2 0x25B3 JUMP JUMPDEST SWAP1 POP DUP1 SWAP2 POP POP SWAP3 SWAP2 POP POP JUMP JUMPDEST PUSH1 0x5 PUSH1 0x14 SWAP1 SLOAD SWAP1 PUSH2 0x100 EXP SWAP1 DIV PUSH1 0xFF AND DUP2 JUMP JUMPDEST PUSH0 PUSH1 0x12 SWAP1 POP SWAP1 JUMP JUMPDEST PUSH0 PUSH1 0x13 PUSH0 CALLER PUSH20 0xFFFFFFFFFFFFFFFFFFFFFFFFFFFFFFFFFFFFFFFF AND PUSH20 0xFFFFFFFFFFFFFFFFFFFFFFFFFFFFFFFFFFFFFFFF AND DUP2 MSTORE PUSH1 0x20 ADD SWAP1 DUP2 MSTORE PUSH1 0x20 ADD PUSH0 KECCAK256 SLOAD SWAP1 POP SWAP1 JUMP JUMPDEST PUSH0 DUP1 PUSH2 0xBDE PUSH1 0x6 SLOAD TIMESTAMP PUSH2 0xB06 JUMP JUMPDEST SWAP1 POP PUSH0 PUSH1 0xC SLOAD DUP3 PUSH1 0x8 SLOAD PUSH1 0x9 SLOAD PUSH2 0xBF5 SWAP2 SWAP1 PUSH2 0x2553 JUMP JUMPDEST PUSH2 0xBFF SWAP2 SWAP1 PUSH2 0x25E3 JUMP JUMPDEST PUSH2 0xC09 SWAP2 SWAP1 PUSH2 0x25B3 JUMP JUMPDEST SWAP1 POP DUP1 SWAP3 POP POP POP SWAP1 JUMP JUMPDEST PUSH1 0xD SLOAD DUP2 JUMP JUMPDEST PUSH1 0xB SLOAD DUP2 JUMP JUMPDEST PUSH0 DUP1 PUSH0 DUP4 PUSH20 0xFFFFFFFFFFFFFFFFFFFFFFFFFFFFFFFFFFFFFFFF AND PUSH20 0xFFFFFFFFFFFFFFFFFFFFFFFFFFFFFFFFFFFFFFFF AND DUP2 MSTORE PUSH1 0x20 ADD SWAP1 DUP2 MSTORE PUSH1 0x20 ADD PUSH0 KECCAK256 SLOAD SWAP1 POP SWAP2 SWAP1 POP JUMP JUMPDEST PUSH2 0xC6C PUSH2 0x1BE0 JUMP JUMPDEST PUSH2 0xC75 PUSH0 PUSH2 0x1C67 JUMP JUMPDEST JUMP JUMPDEST PUSH1 0xA SLOAD DUP2 JUMP JUMPDEST PUSH0 DUP2 GT PUSH2 0xCBF JUMPI PUSH1 0x40 MLOAD PUSH32 0x8C379A000000000000000000000000000000000000000000000000000000000 DUP2 MSTORE PUSH1 0x4 ADD PUSH2 0xCB6 SWAP1 PUSH2 0x2722 JUMP JUMPDEST PUSH1 0x40 MLOAD DUP1 SWAP2 SUB SWAP1 REVERT JUMPDEST DUP1 PUSH2 0xCC9 CALLER PUSH2 0xC1F JUMP JUMPDEST LT ISZERO PUSH2 0xD0A JUMPI PUSH1 0x40 MLOAD PUSH32 0x8C379A000000000000000000000000000000000000000000000000000000000 DUP2 MSTORE PUSH1 0x4 ADD PUSH2 0xD01 SWAP1 PUSH2 0x278A JUMP JUMPDEST PUSH1 0x40 MLOAD DUP1 SWAP2 SUB SWAP1 REVERT JUMPDEST PUSH2 0xD15 CALLER ADDRESS DUP4 PUSH2 0x1AF0 JUMP JUMPDEST DUP1 PUSH1 0xE PUSH0 CALLER PUSH20 0xFFFFFFFFFFFFFFFFFFFFFFFFFFFFFFFFFFFFFFFF AND PUSH20 0xFFFFFFFFFFFFFFFFFFFFFFFFFFFFFFFFFFFFFFFF AND DUP2 MSTORE PUSH1 0x20 ADD SWAP1 DUP2 MSTORE PUSH1 0x20 ADD PUSH0 KECCAK256 PUSH0 DUP3 DUP3 SLOAD PUSH2 0xD61 SWAP2 SWAP1 PUSH2 0x27A8 JUMP JUMPDEST SWAP3 POP POP DUP2 SWAP1 SSTORE POP TIMESTAMP PUSH1 0xF PUSH0 CALLER PUSH20 0xFFFFFFFFFFFFFFFFFFFFFFFFFFFFFFFFFFFFFFFF AND PUSH20 0xFFFFFFFFFFFFFFFFFFFFFFFFFFFFFFFFFFFFFFFF AND DUP2 MSTORE PUSH1 0x20 ADD SWAP1 DUP2 MSTORE PUSH1 0x20 ADD PUSH0 KECCAK256 DUP2 SWAP1 SSTORE POP CALLER PUSH20 0xFFFFFFFFFFFFFFFFFFFFFFFFFFFFFFFFFFFFFFFF AND PUSH32 0xB539CA1E5C8D398DDF1C41C30166F33404941683BE4683319B57669A93DAD4EF DUP3 PUSH1 0x40 MLOAD PUSH2 0xDF0 SWAP2 SWAP1 PUSH2 0x21A9 JUMP JUMPDEST PUSH1 0x40 MLOAD DUP1 SWAP2 SUB SWAP1 LOG2 POP JUMP JUMPDEST PUSH1 0x1 ISZERO ISZERO PUSH1 0x5 PUSH1 0x14 SWAP1 SLOAD SWAP1 PUSH2 0x100 EXP SWAP1 DIV PUSH1 0xFF AND ISZERO ISZERO EQ PUSH2 0xE51 JUMPI PUSH1 0x40 MLOAD PUSH32 0x8C379A000000000000000000000000000000000000000000000000000000000 DUP2 MSTORE PUSH1 0x4 ADD PUSH2 0xE48 SWAP1 PUSH2 0x2825 JUMP JUMPDEST PUSH1 0x40 MLOAD DUP1 SWAP2 SUB SWAP1 REVERT JUMPDEST PUSH0 PUSH2 0xE5B CALLER PUSH2 0xF3C JUMP JUMPDEST SWAP1 POP PUSH0 DUP2 GT PUSH2 0xE9F JUMPI PUSH1 0x40 MLOAD PUSH32 0x8C379A000000000000000000000000000000000000000000000000000000000 DUP2 MSTORE PUSH1 0x4 ADD PUSH2 0xE96 SWAP1 PUSH2 0x288D JUMP JUMPDEST PUSH1 0x40 MLOAD DUP1 SWAP2 SUB SWAP1 REVERT JUMPDEST PUSH2 0xEA9 CALLER DUP3 PUSH2 0x1D2A JUMP JUMPDEST PUSH0 PUSH1 0x12 PUSH0 CALLER PUSH20 0xFFFFFFFFFFFFFFFFFFFFFFFFFFFFFFFFFFFFFFFF AND PUSH20 0xFFFFFFFFFFFFFFFFFFFFFFFFFFFFFFFFFFFFFFFF AND DUP2 MSTORE PUSH1 0x20 ADD SWAP1 DUP2 MSTORE PUSH1 0x20 ADD PUSH0 KECCAK256 DUP2 SWAP1 SSTORE POP CALLER PUSH20 0xFFFFFFFFFFFFFFFFFFFFFFFFFFFFFFFFFFFFFFFF AND PUSH32 0xF0BC0A70FE19EF2D8DC1E1948B338A1184184FB1EA3AC836F24065828816D68D DUP3 PUSH1 0x40 MLOAD PUSH2 0xF31 SWAP2 SWAP1 PUSH2 0x21A9 JUMP JUMPDEST PUSH1 0x40 MLOAD DUP1 SWAP2 SUB SWAP1 LOG2 POP JUMP JUMPDEST PUSH0 PUSH2 0xF45 PUSH2 0xB84 JUMP JUMPDEST PUSH1 0xA PUSH2 0xF51 SWAP2 SWAP1 PUSH2 0x29DA JUMP JUMPDEST PUSH2 0x1F4 PUSH1 0x12 PUSH0 DUP6 PUSH20 0xFFFFFFFFFFFFFFFFFFFFFFFFFFFFFFFFFFFFFFFF AND PUSH20 0xFFFFFFFFFFFFFFFFFFFFFFFFFFFFFFFFFFFFFFFF AND DUP2 MSTORE PUSH1 0x20 ADD SWAP1 DUP2 MSTORE PUSH1 0x20 ADD PUSH0 KECCAK256 SLOAD PUSH2 0xF9C SWAP2 SWAP1 PUSH2 0x25E3 JUMP JUMPDEST PUSH2 0xFA6 SWAP2 SWAP1 PUSH2 0x25E3 JUMP JUMPDEST SWAP1 POP SWAP2 SWAP1 POP JUMP JUMPDEST PUSH0 PUSH1 0x5 PUSH0 SWAP1 SLOAD SWAP1 PUSH2 0x100 EXP SWAP1 DIV PUSH20 0xFFFFFFFFFFFFFFFFFFFFFFFFFFFFFFFFFFFFFFFF AND SWAP1 POP SWAP1 JUMP JUMPDEST PUSH1 0xF PUSH1 0x20 MSTORE DUP1 PUSH0 MSTORE PUSH1 0x40 PUSH0 KECCAK256 PUSH0 SWAP2 POP SWAP1 POP SLOAD DUP2 JUMP JUMPDEST PUSH1 0x60 PUSH1 0x4 DUP1 SLOAD PUSH2 0xFF9 SWAP1 PUSH2 0x24F6 JUMP JUMPDEST DUP1 PUSH1 0x1F ADD PUSH1 0x20 DUP1 SWAP2 DIV MUL PUSH1 0x20 ADD PUSH1 0x40 MLOAD SWAP1 DUP2 ADD PUSH1 0x40 MSTORE DUP1 SWAP3 SWAP2 SWAP1 DUP2 DUP2 MSTORE PUSH1 0x20 ADD DUP3 DUP1 SLOAD PUSH2 0x1025 SWAP1 PUSH2 0x24F6 JUMP JUMPDEST DUP1 ISZERO PUSH2 0x1070 JUMPI DUP1 PUSH1 0x1F LT PUSH2 0x1047 JUMPI PUSH2 0x100 DUP1 DUP4 SLOAD DIV MUL DUP4 MSTORE SWAP2 PUSH1 0x20 ADD SWAP2 PUSH2 0x1070 JUMP JUMPDEST DUP3 ADD SWAP2 SWAP1 PUSH0 MSTORE PUSH1 0x20 PUSH0 KECCAK256 SWAP1 JUMPDEST DUP2 SLOAD DUP2 MSTORE SWAP1 PUSH1 0x1 ADD SWAP1 PUSH1 0x20 ADD DUP1 DUP4 GT PUSH2 0x1053 JUMPI DUP3 SWAP1 SUB PUSH1 0x1F AND DUP3 ADD SWAP2 JUMPDEST POP POP POP POP POP SWAP1 POP SWAP1 JUMP JUMPDEST PUSH1 0x10 PUSH1 0x20 MSTORE DUP1 PUSH0 MSTORE PUSH1 0x40 PUSH0 KECCAK256 PUSH0 SWAP2 POP SLOAD SWAP1 PUSH2 0x100 EXP SWAP1 DIV PUSH1 0xFF AND DUP2 JUMP JUMPDEST PUSH1 0x11 PUSH1 0x20 MSTORE DUP1 PUSH0 MSTORE PUSH1 0x40 PUSH0 KECCAK256 PUSH0 SWAP2 POP SLOAD SWAP1 PUSH2 0x100 EXP SWAP1 DIV PUSH20 0xFFFFFFFFFFFFFFFFFFFFFFFFFFFFFFFFFFFFFFFF AND DUP2 JUMP JUMPDEST PUSH1 0x10 PUSH0 CALLER PUSH20 0xFFFFFFFFFFFFFFFFFFFFFFFFFFFFFFFFFFFFFFFF AND PUSH20 0xFFFFFFFFFFFFFFFFFFFFFFFFFFFFFFFFFFFFFFFF AND DUP2 MSTORE PUSH1 0x20 ADD SWAP1 DUP2 MSTORE PUSH1 0x20 ADD PUSH0 KECCAK256 PUSH0 SWAP1 SLOAD SWAP1 PUSH2 0x100 EXP SWAP1 DIV PUSH1 0xFF AND ISZERO PUSH2 0x1151 JUMPI PUSH1 0x40 MLOAD PUSH32 0x8C379A000000000000000000000000000000000000000000000000000000000 DUP2 MSTORE PUSH1 0x4 ADD PUSH2 0x1148 SWAP1 PUSH2 0x2A6E JUMP JUMPDEST PUSH1 0x40 MLOAD DUP1 SWAP2 SUB SWAP1 REVERT JUMPDEST DUP1 PUSH20 0xFFFFFFFFFFFFFFFFFFFFFFFFFFFFFFFFFFFFFFFF AND CALLER PUSH20 0xFFFFFFFFFFFFFFFFFFFFFFFFFFFFFFFFFFFFFFFF AND SUB PUSH2 0x11BF JUMPI PUSH1 0x40 MLOAD PUSH32 0x8C379A000000000000000000000000000000000000000000000000000000000 DUP2 MSTORE PUSH1 0x4 ADD PUSH2 0x11B6 SWAP1 PUSH2 0x2AD6 JUMP JUMPDEST PUSH1 0x40 MLOAD DUP1 SWAP2 SUB SWAP1 REVERT JUMPDEST PUSH1 0x1 PUSH1 0x10 PUSH0 CALLER PUSH20 0xFFFFFFFFFFFFFFFFFFFFFFFFFFFFFFFFFFFFFFFF AND PUSH20 0xFFFFFFFFFFFFFFFFFFFFFFFFFFFFFFFFFFFFFFFF AND DUP2 MSTORE PUSH1 0x20 ADD SWAP1 DUP2 MSTORE PUSH1 0x20 ADD PUSH0 KECCAK256 PUSH0 PUSH2 0x100 EXP DUP2 SLOAD DUP2 PUSH1 0xFF MUL NOT AND SWAP1 DUP4 ISZERO ISZERO MUL OR SWAP1 SSTORE POP PUSH0 PUSH20 0xFFFFFFFFFFFFFFFFFFFFFFFFFFFFFFFFFFFFFFFF AND DUP2 PUSH20 0xFFFFFFFFFFFFFFFFFFFFFFFFFFFFFFFFFFFFFFFF AND EQ ISZERO DUP1 ISZERO PUSH2 0x1296 JUMPI POP PUSH1 0x10 PUSH0 DUP3 PUSH20 0xFFFFFFFFFFFFFFFFFFFFFFFFFFFFFFFFFFFFFFFF AND PUSH20 0xFFFFFFFFFFFFFFFFFFFFFFFFFFFFFFFFFFFFFFFF AND DUP2 MSTORE PUSH1 0x20 ADD SWAP1 DUP2 MSTORE PUSH1 0x20 ADD PUSH0 KECCAK256 PUSH0 SWAP1 SLOAD SWAP1 PUSH2 0x100 EXP SWAP1 DIV PUSH1 0xFF AND JUMPDEST ISZERO PUSH2 0x136B JUMPI DUP1 PUSH1 0x11 PUSH0 CALLER PUSH20 0xFFFFFFFFFFFFFFFFFFFFFFFFFFFFFFFFFFFFFFFF AND PUSH20 0xFFFFFFFFFFFFFFFFFFFFFFFFFFFFFFFFFFFFFFFF AND DUP2 MSTORE PUSH1 0x20 ADD SWAP1 DUP2 MSTORE PUSH1 0x20 ADD PUSH0 KECCAK256 PUSH0 PUSH2 0x100 EXP DUP2 SLOAD DUP2 PUSH20 0xFFFFFFFFFFFFFFFFFFFFFFFFFFFFFFFFFFFFFFFF MUL NOT AND SWAP1 DUP4 PUSH20 0xFFFFFFFFFFFFFFFFFFFFFFFFFFFFFFFFFFFFFFFF AND MUL OR SWAP1 SSTORE POP PUSH1 0x1 PUSH1 0x12 PUSH0 DUP4 PUSH20 0xFFFFFFFFFFFFFFFFFFFFFFFFFFFFFFFFFFFFFFFF AND PUSH20 0xFFFFFFFFFFFFFFFFFFFFFFFFFFFFFFFFFFFFFFFF AND DUP2 MSTORE PUSH1 0x20 ADD SWAP1 DUP2 MSTORE PUSH1 0x20 ADD PUSH0 KECCAK256 PUSH0 DUP3 DUP3 SLOAD PUSH2 0x1363 SWAP2 SWAP1 PUSH2 0x27A8 JUMP JUMPDEST SWAP3 POP POP DUP2 SWAP1 SSTORE POP JUMPDEST DUP1 PUSH20 0xFFFFFFFFFFFFFFFFFFFFFFFFFFFFFFFFFFFFFFFF AND CALLER PUSH20 0xFFFFFFFFFFFFFFFFFFFFFFFFFFFFFFFFFFFFFFFF AND PUSH32 0x4BC18AA4B0095C9A3B5CDF42D2322D5A145591B04045988A995A5DA426075457 PUSH1 0x40 MLOAD PUSH1 0x40 MLOAD DUP1 SWAP2 SUB SWAP1 LOG3 POP JUMP JUMPDEST PUSH0 PUSH1 0xE PUSH0 CALLER PUSH20 0xFFFFFFFFFFFFFFFFFFFFFFFFFFFFFFFFFFFFFFFF AND PUSH20 0xFFFFFFFFFFFFFFFFFFFFFFFFFFFFFFFFFFFFFFFF AND DUP2 MSTORE PUSH1 0x20 ADD SWAP1 DUP2 MSTORE PUSH1 0x20 ADD PUSH0 KECCAK256 SLOAD SWAP1 POP PUSH0 DUP2 GT PUSH2 0x144B JUMPI PUSH1 0x40 MLOAD PUSH32 0x8C379A000000000000000000000000000000000000000000000000000000000 DUP2 MSTORE PUSH1 0x4 ADD PUSH2 0x1442 SWAP1 PUSH2 0x2B3E JUMP JUMPDEST PUSH1 0x40 MLOAD DUP1 SWAP2 SUB SWAP1 REVERT JUMPDEST PUSH3 0x24EA00 PUSH1 0xF PUSH0 CALLER PUSH20 0xFFFFFFFFFFFFFFFFFFFFFFFFFFFFFFFFFFFFFFFF AND PUSH20 0xFFFFFFFFFFFFFFFFFFFFFFFFFFFFFFFFFFFFFFFF AND DUP2 MSTORE PUSH1 0x20 ADD SWAP1 DUP2 MSTORE PUSH1 0x20 ADD PUSH0 KECCAK256 SLOAD PUSH2 0x1497 SWAP2 SWAP1 PUSH2 0x27A8 JUMP JUMPDEST TIMESTAMP LT ISZERO PUSH2 0x14D9 JUMPI PUSH1 0x40 MLOAD PUSH32 0x8C379A000000000000000000000000000000000000000000000000000000000 DUP2 MSTORE PUSH1 0x4 ADD PUSH2 0x14D0 SWAP1 PUSH2 0x2BA6 JUMP JUMPDEST PUSH1 0x40 MLOAD DUP1 SWAP2 SUB SWAP1 REVERT JUMPDEST PUSH0 PUSH2 0x14E3 CALLER PUSH2 0x9EF JUMP JUMPDEST SWAP1 POP PUSH0 PUSH1 0xE PUSH0 CALLER PUSH20 0xFFFFFFFFFFFFFFFFFFFFFFFFFFFFFFFFFFFFFFFF AND PUSH20 0xFFFFFFFFFFFFFFFFFFFFFFFFFFFFFFFFFFFFFFFF AND DUP2 MSTORE PUSH1 0x20 ADD SWAP1 DUP2 MSTORE PUSH1 0x20 ADD PUSH0 KECCAK256 DUP2 SWAP1 SSTORE POP PUSH0 PUSH1 0xF PUSH0 CALLER PUSH20 0xFFFFFFFFFFFFFFFFFFFFFFFFFFFFFFFFFFFFFFFF AND PUSH20 0xFFFFFFFFFFFFFFFFFFFFFFFFFFFFFFFFFFFFFFFF AND DUP2 MSTORE PUSH1 0x20 ADD SWAP1 DUP2 MSTORE PUSH1 0x20 ADD PUSH0 KECCAK256 DUP2 SWAP1 SSTORE POP PUSH2 0x157F ADDRESS CALLER DUP4 DUP6 PUSH2 0x157A SWAP2 SWAP1 PUSH2 0x27A8 JUMP JUMPDEST PUSH2 0x1AF0 JUMP JUMPDEST CALLER PUSH20 0xFFFFFFFFFFFFFFFFFFFFFFFFFFFFFFFFFFFFFFFF AND PUSH32 0x6F2D3E000C89D37446B7C0374C0125068FF316D1E3EE302336478A8CD03C2336 DUP4 DUP4 PUSH1 0x40 MLOAD PUSH2 0x15C7 SWAP3 SWAP2 SWAP1 PUSH2 0x2BC4 JUMP JUMPDEST PUSH1 0x40 MLOAD DUP1 SWAP2 SUB SWAP1 LOG2 POP POP JUMP JUMPDEST PUSH0 DUP1 PUSH2 0x15DD PUSH2 0x1A44 JUMP JUMPDEST SWAP1 POP PUSH2 0x15EA DUP2 DUP6 DUP6 PUSH2 0x1AF0 JUMP JUMPDEST PUSH1 0x1 SWAP2 POP POP SWAP3 SWAP2 POP POP JUMP JUMPDEST PUSH1 0x7 SLOAD DUP2 JUMP JUMPDEST PUSH1 0x12 PUSH1 0x20 MSTORE DUP1 PUSH0 MSTORE PUSH1 0x40 PUSH0 KECCAK256 PUSH0 SWAP2 POP SWAP1 POP SLOAD DUP2 JUMP JUMPDEST PUSH1 0x5 PUSH1 0x14 SWAP1 SLOAD SWAP1 PUSH2 0x100 EXP SWAP1 DIV PUSH1 0xFF AND PUSH2 0x165F JUMPI PUSH1 0x40 MLOAD PUSH32 0x8C379A000000000000000000000000000000000000000000000000000000000 DUP2 MSTORE PUSH1 0x4 ADD PUSH2 0x1656 SWAP1 PUSH2 0x2C35 JUMP JUMPDEST PUSH1 0x40 MLOAD DUP1 SWAP2 SUB SWAP1 REVERT JUMPDEST PUSH0 CALLVALUE GT PUSH2 0x16A1 JUMPI PUSH1 0x40 MLOAD PUSH32 0x8C379A000000000000000000000000000000000000000000000000000000000 DUP2 MSTORE PUSH1 0x4 ADD PUSH2 0x1698 SWAP1 PUSH2 0x2C9D JUMP JUMPDEST PUSH1 0x40 MLOAD DUP1 SWAP2 SUB SWAP1 REVERT JUMPDEST PUSH0 PUSH2 0x16AA PUSH2 0x1806 JUMP JUMPDEST SWAP1 POP PUSH0 DUP2 PUSH2 0x16B6 PUSH2 0xB84 JUMP JUMPDEST PUSH1 0xFF AND PUSH1 0xA PUSH2 0x16C5 SWAP2 SWAP1 PUSH2 0x2CBB JUMP JUMPDEST CALLVALUE PUSH2 0x16D0 SWAP2 SWAP1 PUSH2 0x25E3 JUMP JUMPDEST PUSH2 0x16DA SWAP2 SWAP1 PUSH2 0x25B3 JUMP JUMPDEST SWAP1 POP DUP1 PUSH2 0x16E6 ADDRESS PUSH2 0xC1F JUMP JUMPDEST LT ISZERO PUSH2 0x1727 JUMPI PUSH1 0x40 MLOAD PUSH32 0x8C379A000000000000000000000000000000000000000000000000000000000 DUP2 MSTORE PUSH1 0x4 ADD PUSH2 0x171E SWAP1 PUSH2 0x2D4F JUMP JUMPDEST PUSH1 0x40 MLOAD DUP1 SWAP2 SUB SWAP1 REVERT JUMPDEST DUP1 PUSH1 0x13 PUSH0 CALLER PUSH20 0xFFFFFFFFFFFFFFFFFFFFFFFFFFFFFFFFFFFFFFFF AND PUSH20 0xFFFFFFFFFFFFFFFFFFFFFFFFFFFFFFFFFFFFFFFF AND DUP2 MSTORE PUSH1 0x20 ADD SWAP1 DUP2 MSTORE PUSH1 0x20 ADD PUSH0 KECCAK256 PUSH0 DUP3 DUP3 SLOAD PUSH2 0x1773 SWAP2 SWAP1 PUSH2 0x27A8 JUMP JUMPDEST SWAP3 POP POP DUP2 SWAP1 SSTORE POP PUSH2 0x1785 ADDRESS CALLER DUP4 PUSH2 0x1AF0 JUMP JUMPDEST DUP1 PUSH1 0xB PUSH0 DUP3 DUP3 SLOAD PUSH2 0x1796 SWAP2 SWAP1 PUSH2 0x27A8 JUMP JUMPDEST SWAP3 POP POP DUP2 SWAP1 SSTORE POP CALLER PUSH20 0xFFFFFFFFFFFFFFFFFFFFFFFFFFFFFFFFFFFFFFFF AND ADDRESS PUSH20 0xFFFFFFFFFFFFFFFFFFFFFFFFFFFFFFFFFFFFFFFF AND PUSH32 0xDDF252AD1BE2C89B69C2B068FC378DAA952BA7F163C4A11628F55A4DF523B3EF DUP4 PUSH1 0x40 MLOAD PUSH2 0x17FA SWAP2 SWAP1 PUSH2 0x21A9 JUMP JUMPDEST PUSH1 0x40 MLOAD DUP1 SWAP2 SUB SWAP1 LOG3 POP POP JUMP JUMPDEST PUSH0 PUSH1 0x5 PUSH1 0x14 SWAP1 SLOAD SWAP1 PUSH2 0x100 EXP SWAP1 DIV PUSH1 0xFF AND PUSH2 0x1856 JUMPI PUSH1 0x40 MLOAD PUSH32 0x8C379A000000000000000000000000000000000000000000000000000000000 DUP2 MSTORE PUSH1 0x4 ADD PUSH2 0x184D SWAP1 PUSH2 0x2DB7 JUMP JUMPDEST PUSH1 0x40 MLOAD DUP1 SWAP2 SUB SWAP1 REVERT JUMPDEST PUSH1 0x7 SLOAD TIMESTAMP GT ISZERO PUSH2 0x186A JUMPI PUSH1 0x9 SLOAD SWAP1 POP PUSH2 0x188C JUMP JUMPDEST PUSH0 PUSH2 0x1873 PUSH2 0xBD0 JUMP JUMPDEST SWAP1 POP PUSH0 DUP2 PUSH1 0x8 SLOAD PUSH2 0x1884 SWAP2 SWAP1 PUSH2 0x27A8 JUMP JUMPDEST SWAP1 POP DUP1 SWAP3 POP POP POP JUMPDEST SWAP1 JUMP JUMPDEST PUSH0 PUSH1 0x1 PUSH0 DUP5 PUSH20 0xFFFFFFFFFFFFFFFFFFFFFFFFFFFFFFFFFFFFFFFF AND PUSH20 0xFFFFFFFFFFFFFFFFFFFFFFFFFFFFFFFFFFFFFFFF AND DUP2 MSTORE PUSH1 0x20 ADD SWAP1 DUP2 MSTORE PUSH1 0x20 ADD PUSH0 KECCAK256 PUSH0 DUP4 PUSH20 0xFFFFFFFFFFFFFFFFFFFFFFFFFFFFFFFFFFFFFFFF AND PUSH20 0xFFFFFFFFFFFFFFFFFFFFFFFFFFFFFFFFFFFFFFFF AND DUP2 MSTORE PUSH1 0x20 ADD SWAP1 DUP2 MSTORE PUSH1 0x20 ADD PUSH0 KECCAK256 SLOAD SWAP1 POP SWAP3 SWAP2 POP POP JUMP JUMPDEST PUSH2 0x1919 PUSH2 0x1BE0 JUMP JUMPDEST PUSH0 PUSH20 0xFFFFFFFFFFFFFFFFFFFFFFFFFFFFFFFFFFFFFFFF AND DUP2 PUSH20 0xFFFFFFFFFFFFFFFFFFFFFFFFFFFFFFFFFFFFFFFF AND SUB PUSH2 0x1989 JUMPI PUSH0 PUSH1 0x40 MLOAD PUSH32 0x1E4FBDF700000000000000000000000000000000000000000000000000000000 DUP2 MSTORE PUSH1 0x4 ADD PUSH2 0x1980 SWAP2 SWAP1 PUSH2 0x2472 JUMP JUMPDEST PUSH1 0x40 MLOAD DUP1 SWAP2 SUB SWAP1 REVERT JUMPDEST PUSH2 0x1992 DUP2 PUSH2 0x1C67 JUMP JUMPDEST POP JUMP JUMPDEST PUSH1 0xC SLOAD DUP2 JUMP JUMPDEST PUSH1 0xE PUSH1 0x20 MSTORE DUP1 PUSH0 MSTORE PUSH1 0x40 PUSH0 KECCAK256 PUSH0 SWAP2 POP SWAP1 POP SLOAD DUP2 JUMP JUMPDEST PUSH2 0x19B8 PUSH2 0x1BE0 JUMP JUMPDEST DUP2 PUSH1 0x6 DUP2 SWAP1 SSTORE POP PUSH3 0x93A80 DUP2 PUSH2 0x19CE SWAP2 SWAP1 PUSH2 0x25E3 JUMP JUMPDEST PUSH1 0x6 SLOAD PUSH2 0x19DB SWAP2 SWAP1 PUSH2 0x27A8 JUMP JUMPDEST PUSH1 0x7 DUP2 SWAP1 SSTORE POP DUP1 PUSH1 0xC DUP2 SWAP1 SSTORE POP PUSH1 0x1 PUSH1 0x5 PUSH1 0x14 PUSH2 0x100 EXP DUP2 SLOAD DUP2 PUSH1 0xFF MUL NOT AND SWAP1 DUP4 ISZERO ISZERO MUL OR SWAP1 SSTORE POP PUSH32 0x3844853BE672B18D859394AA37E05615B95B78E66B4DC37DCA98D1DB1B05EA7D PUSH1 0x6 SLOAD PUSH1 0x7 SLOAD PUSH1 0x40 MLOAD PUSH2 0x1A38 SWAP3 SWAP2 SWAP1 PUSH2 0x2BC4 JUMP JUMPDEST PUSH1 0x40 MLOAD DUP1 SWAP2 SUB SWAP1 LOG1 POP POP JUMP JUMPDEST PUSH0 CALLER SWAP1 POP SWAP1 JUMP JUMPDEST PUSH2 0x1A58 DUP4 DUP4 DUP4 PUSH1 0x1 PUSH2 0x1DA9 JUMP JUMPDEST POP POP POP JUMP JUMPDEST PUSH0 PUSH2 0x1A68 DUP5 DUP5 PUSH2 0x188F JUMP JUMPDEST SWAP1 POP PUSH32 0xFFFFFFFFFFFFFFFFFFFFFFFFFFFFFFFFFFFFFFFFFFFFFFFFFFFFFFFFFFFFFFFF DUP2 LT ISZERO PUSH2 0x1AEA JUMPI DUP2 DUP2 LT ISZERO PUSH2 0x1ADB JUMPI DUP3 DUP2 DUP4 PUSH1 0x40 MLOAD PUSH32 0xFB8F41B200000000000000000000000000000000000000000000000000000000 DUP2 MSTORE PUSH1 0x4 ADD PUSH2 0x1AD2 SWAP4 SWAP3 SWAP2 SWAP1 PUSH2 0x2DD5 JUMP JUMPDEST PUSH1 0x40 MLOAD DUP1 SWAP2 SUB SWAP1 REVERT JUMPDEST PUSH2 0x1AE9 DUP5 DUP5 DUP5 DUP5 SUB PUSH0 PUSH2 0x1DA9 JUMP JUMPDEST JUMPDEST POP POP POP POP JUMP JUMPDEST PUSH0 PUSH20 0xFFFFFFFFFFFFFFFFFFFFFFFFFFFFFFFFFFFFFFFF AND DUP4 PUSH20 0xFFFFFFFFFFFFFFFFFFFFFFFFFFFFFFFFFFFFFFFF AND SUB PUSH2 0x1B60 JUMPI PUSH0 PUSH1 0x40 MLOAD PUSH32 0x96C6FD1E00000000000000000000000000000000000000000000000000000000 DUP2 MSTORE PUSH1 0x4 ADD PUSH2 0x1B57 SWAP2 SWAP1 PUSH2 0x2472 JUMP JUMPDEST PUSH1 0x40 MLOAD DUP1 SWAP2 SUB SWAP1 REVERT JUMPDEST PUSH0 PUSH20 0xFFFFFFFFFFFFFFFFFFFFFFFFFFFFFFFFFFFFFFFF AND DUP3 PUSH20 0xFFFFFFFFFFFFFFFFFFFFFFFFFFFFFFFFFFFFFFFF AND SUB PUSH2 0x1BD0 JUMPI PUSH0 PUSH1 0x40 MLOAD PUSH32 0xEC442F0500000000000000000000000000000000000000000000000000000000 DUP2 MSTORE PUSH1 0x4 ADD PUSH2 0x1BC7 SWAP2 SWAP1 PUSH2 0x2472 JUMP JUMPDEST PUSH1 0x40 MLOAD DUP1 SWAP2 SUB SWAP1 REVERT JUMPDEST PUSH2 0x1BDB DUP4 DUP4 DUP4 PUSH2 0x1F78 JUMP JUMPDEST POP POP POP JUMP JUMPDEST PUSH2 0x1BE8 PUSH2 0x1A44 JUMP JUMPDEST PUSH20 0xFFFFFFFFFFFFFFFFFFFFFFFFFFFFFFFFFFFFFFFF AND PUSH2 0x1C06 PUSH2 0xFAD JUMP JUMPDEST PUSH20 0xFFFFFFFFFFFFFFFFFFFFFFFFFFFFFFFFFFFFFFFF AND EQ PUSH2 0x1C65 JUMPI PUSH2 0x1C29 PUSH2 0x1A44 JUMP JUMPDEST PUSH1 0x40 MLOAD PUSH32 0x118CDAA700000000000000000000000000000000000000000000000000000000 DUP2 MSTORE PUSH1 0x4 ADD PUSH2 0x1C5C SWAP2 SWAP1 PUSH2 0x2472 JUMP JUMPDEST PUSH1 0x40 MLOAD DUP1 SWAP2 SUB SWAP1 REVERT JUMPDEST JUMP JUMPDEST PUSH0 PUSH1 0x5 PUSH0 SWAP1 SLOAD SWAP1 PUSH2 0x100 EXP SWAP1 DIV PUSH20 0xFFFFFFFFFFFFFFFFFFFFFFFFFFFFFFFFFFFFFFFF AND SWAP1 POP DUP2 PUSH1 0x5 PUSH0 PUSH2 0x100 EXP DUP2 SLOAD DUP2 PUSH20 0xFFFFFFFFFFFFFFFFFFFFFFFFFFFFFFFFFFFFFFFF MUL NOT AND SWAP1 DUP4 PUSH20 0xFFFFFFFFFFFFFFFFFFFFFFFFFFFFFFFFFFFFFFFF AND MUL OR SWAP1 SSTORE POP DUP2 PUSH20 0xFFFFFFFFFFFFFFFFFFFFFFFFFFFFFFFFFFFFFFFF AND DUP2 PUSH20 0xFFFFFFFFFFFFFFFFFFFFFFFFFFFFFFFFFFFFFFFF AND PUSH32 0x8BE0079C531659141344CD1FD0A4F28419497F9722A3DAAFE3B4186F6B6457E0 PUSH1 0x40 MLOAD PUSH1 0x40 MLOAD DUP1 SWAP2 SUB SWAP1 LOG3 POP POP JUMP JUMPDEST PUSH0 PUSH20 0xFFFFFFFFFFFFFFFFFFFFFFFFFFFFFFFFFFFFFFFF AND DUP3 PUSH20 0xFFFFFFFFFFFFFFFFFFFFFFFFFFFFFFFFFFFFFFFF AND SUB PUSH2 0x1D9A JUMPI PUSH0 PUSH1 0x40 MLOAD PUSH32 0xEC442F0500000000000000000000000000000000000000000000000000000000 DUP2 MSTORE PUSH1 0x4 ADD PUSH2 0x1D91 SWAP2 SWAP1 PUSH2 0x2472 JUMP JUMPDEST PUSH1 0x40 MLOAD DUP1 SWAP2 SUB SWAP1 REVERT JUMPDEST PUSH2 0x1DA5 PUSH0 DUP4 DUP4 PUSH2 0x1F78 JUMP JUMPDEST POP POP JUMP JUMPDEST PUSH0 PUSH20 0xFFFFFFFFFFFFFFFFFFFFFFFFFFFFFFFFFFFFFFFF AND DUP5 PUSH20 0xFFFFFFFFFFFFFFFFFFFFFFFFFFFFFFFFFFFFFFFF AND SUB PUSH2 0x1E19 JUMPI PUSH0 PUSH1 0x40 MLOAD PUSH32 0xE602DF0500000000000000000000000000000000000000000000000000000000 DUP2 MSTORE PUSH1 0x4 ADD PUSH2 0x1E10 SWAP2 SWAP1 PUSH2 0x2472 JUMP JUMPDEST PUSH1 0x40 MLOAD DUP1 SWAP2 SUB SWAP1 REVERT JUMPDEST PUSH0 PUSH20 0xFFFFFFFFFFFFFFFFFFFFFFFFFFFFFFFFFFFFFFFF AND DUP4 PUSH20 0xFFFFFFFFFFFFFFFFFFFFFFFFFFFFFFFFFFFFFFFF AND SUB PUSH2 0x1E89 JUMPI PUSH0 PUSH1 0x40 MLOAD PUSH32 0x94280D6200000000000000000000000000000000000000000000000000000000 DUP2 MSTORE PUSH1 0x4 ADD PUSH2 0x1E80 SWAP2 SWAP1 PUSH2 0x2472 JUMP JUMPDEST PUSH1 0x40 MLOAD DUP1 SWAP2 SUB SWAP1 REVERT JUMPDEST DUP2 PUSH1 0x1 PUSH0 DUP7 PUSH20 0xFFFFFFFFFFFFFFFFFFFFFFFFFFFFFFFFFFFFFFFF AND PUSH20 0xFFFFFFFFFFFFFFFFFFFFFFFFFFFFFFFFFFFFFFFF AND DUP2 MSTORE PUSH1 0x20 ADD SWAP1 DUP2 MSTORE PUSH1 0x20 ADD PUSH0 KECCAK256 PUSH0 DUP6 PUSH20 0xFFFFFFFFFFFFFFFFFFFFFFFFFFFFFFFFFFFFFFFF AND PUSH20 0xFFFFFFFFFFFFFFFFFFFFFFFFFFFFFFFFFFFFFFFF AND DUP2 MSTORE PUSH1 0x20 ADD SWAP1 DUP2 MSTORE PUSH1 0x20 ADD PUSH0 KECCAK256 DUP2 SWAP1 SSTORE POP DUP1 ISZERO PUSH2 0x1F72 JUMPI DUP3 PUSH20 0xFFFFFFFFFFFFFFFFFFFFFFFFFFFFFFFFFFFFFFFF AND DUP5 PUSH20 0xFFFFFFFFFFFFFFFFFFFFFFFFFFFFFFFFFFFFFFFF AND PUSH32 0x8C5BE1E5EBEC7D5BD14F71427D1E84F3DD0314C0F7B2291E5B200AC8C7C3B925 DUP5 PUSH1 0x40 MLOAD PUSH2 0x1F69 SWAP2 SWAP1 PUSH2 0x21A9 JUMP JUMPDEST PUSH1 0x40 MLOAD DUP1 SWAP2 SUB SWAP1 LOG3 JUMPDEST POP POP POP POP JUMP JUMPDEST PUSH0 PUSH20 0xFFFFFFFFFFFFFFFFFFFFFFFFFFFFFFFFFFFFFFFF AND DUP4 PUSH20 0xFFFFFFFFFFFFFFFFFFFFFFFFFFFFFFFFFFFFFFFF AND SUB PUSH2 0x1FC8 JUMPI DUP1 PUSH1 0x2 PUSH0 DUP3 DUP3 SLOAD PUSH2 0x1FBC SWAP2 SWAP1 PUSH2 0x27A8 JUMP JUMPDEST SWAP3 POP POP DUP2 SWAP1 SSTORE POP PUSH2 0x2096 JUMP JUMPDEST PUSH0 DUP1 PUSH0 DUP6 PUSH20 0xFFFFFFFFFFFFFFFFFFFFFFFFFFFFFFFFFFFFFFFF AND PUSH20 0xFFFFFFFFFFFFFFFFFFFFFFFFFFFFFFFFFFFFFFFF AND DUP2 MSTORE PUSH1 0x20 ADD SWAP1 DUP2 MSTORE PUSH1 0x20 ADD PUSH0 KECCAK256 SLOAD SWAP1 POP DUP2 DUP2 LT ISZERO PUSH2 0x2051 JUMPI DUP4 DUP2 DUP4 PUSH1 0x40 MLOAD PUSH32 0xE450D38C00000000000000000000000000000000000000000000000000000000 DUP2 MSTORE PUSH1 0x4 ADD PUSH2 0x2048 SWAP4 SWAP3 SWAP2 SWAP1 PUSH2 0x2DD5 JUMP JUMPDEST PUSH1 0x40 MLOAD DUP1 SWAP2 SUB SWAP1 REVERT JUMPDEST DUP2 DUP2 SUB PUSH0 DUP1 DUP7 PUSH20 0xFFFFFFFFFFFFFFFFFFFFFFFFFFFFFFFFFFFFFFFF AND PUSH20 0xFFFFFFFFFFFFFFFFFFFFFFFFFFFFFFFFFFFFFFFF AND DUP2 MSTORE PUSH1 0x20 ADD SWAP1 DUP2 MSTORE PUSH1 0x20 ADD PUSH0 KECCAK256 DUP2 SWAP1 SSTORE POP POP JUMPDEST PUSH0 PUSH20 0xFFFFFFFFFFFFFFFFFFFFFFFFFFFFFFFFFFFFFFFF AND DUP3 PUSH20 0xFFFFFFFFFFFFFFFFFFFFFFFFFFFFFFFFFFFFFFFF AND SUB PUSH2 0x20DD JUMPI DUP1 PUSH1 0x2 PUSH0 DUP3 DUP3 SLOAD SUB SWAP3 POP POP DUP2 SWAP1 SSTORE POP PUSH2 0x2127 JUMP JUMPDEST DUP1 PUSH0 DUP1 DUP5 PUSH20 0xFFFFFFFFFFFFFFFFFFFFFFFFFFFFFFFFFFFFFFFF AND PUSH20 0xFFFFFFFFFFFFFFFFFFFFFFFFFFFFFFFFFFFFFFFF AND DUP2 MSTORE PUSH1 0x20 ADD SWAP1 DUP2 MSTORE PUSH1 0x20 ADD PUSH0 KECCAK256 PUSH0 DUP3 DUP3 SLOAD ADD SWAP3 POP POP DUP2 SWAP1 SSTORE POP JUMPDEST DUP2 PUSH20 0xFFFFFFFFFFFFFFFFFFFFFFFFFFFFFFFFFFFFFFFF AND DUP4 PUSH20 0xFFFFFFFFFFFFFFFFFFFFFFFFFFFFFFFFFFFFFFFF AND PUSH32 0xDDF252AD1BE2C89B69C2B068FC378DAA952BA7F163C4A11628F55A4DF523B3EF DUP4 PUSH1 0x40 MLOAD PUSH2 0x2184 SWAP2 SWAP1 PUSH2 0x21A9 JUMP JUMPDEST PUSH1 0x40 MLOAD DUP1 SWAP2 SUB SWAP1 LOG3 POP POP POP JUMP JUMPDEST PUSH0 DUP2 SWAP1 POP SWAP2 SWAP1 POP JUMP JUMPDEST PUSH2 0x21A3 DUP2 PUSH2 0x2191 JUMP JUMPDEST DUP3 MSTORE POP POP JUMP JUMPDEST PUSH0 PUSH1 0x20 DUP3 ADD SWAP1 POP PUSH2 0x21BC PUSH0 DUP4 ADD DUP5 PUSH2 0x219A JUMP JUMPDEST SWAP3 SWAP2 POP POP JUMP JUMPDEST PUSH0 DUP2 MLOAD SWAP1 POP SWAP2 SWAP1 POP JUMP JUMPDEST PUSH0 DUP3 DUP3 MSTORE PUSH1 0x20 DUP3 ADD SWAP1 POP SWAP3 SWAP2 POP POP JUMP JUMPDEST DUP3 DUP2 DUP4 MCOPY PUSH0 DUP4 DUP4 ADD MSTORE POP POP POP JUMP JUMPDEST PUSH0 PUSH1 0x1F NOT PUSH1 0x1F DUP4 ADD AND SWAP1 POP SWAP2 SWAP1 POP JUMP JUMPDEST PUSH0 PUSH2 0x2204 DUP3 PUSH2 0x21C2 JUMP JUMPDEST PUSH2 0x220E DUP2 DUP6 PUSH2 0x21CC JUMP JUMPDEST SWAP4 POP PUSH2 0x221E DUP2 DUP6 PUSH1 0x20 DUP7 ADD PUSH2 0x21DC JUMP JUMPDEST PUSH2 0x2227 DUP2 PUSH2 0x21EA JUMP JUMPDEST DUP5 ADD SWAP2 POP POP SWAP3 SWAP2 POP POP JUMP JUMPDEST PUSH0 PUSH1 0x20 DUP3 ADD SWAP1 POP DUP2 DUP2 SUB PUSH0 DUP4 ADD MSTORE PUSH2 0x224A DUP2 DUP5 PUSH2 0x21FA JUMP JUMPDEST SWAP1 POP SWAP3 SWAP2 POP POP JUMP JUMPDEST PUSH0 DUP1 REVERT JUMPDEST PUSH0 PUSH20 0xFFFFFFFFFFFFFFFFFFFFFFFFFFFFFFFFFFFFFFFF DUP3 AND SWAP1 POP SWAP2 SWAP1 POP JUMP JUMPDEST PUSH0 PUSH2 0x227F DUP3 PUSH2 0x2256 JUMP JUMPDEST SWAP1 POP SWAP2 SWAP1 POP JUMP JUMPDEST PUSH2 0x228F DUP2 PUSH2 0x2275 JUMP JUMPDEST DUP2 EQ PUSH2 0x2299 JUMPI PUSH0 DUP1 REVERT JUMPDEST POP JUMP JUMPDEST PUSH0 DUP2 CALLDATALOAD SWAP1 POP PUSH2 0x22AA DUP2 PUSH2 0x2286 JUMP JUMPDEST SWAP3 SWAP2 POP POP JUMP JUMPDEST PUSH2 0x22B9 DUP2 PUSH2 0x2191 JUMP JUMPDEST DUP2 EQ PUSH2 0x22C3 JUMPI PUSH0 DUP1 REVERT JUMPDEST POP JUMP JUMPDEST PUSH0 DUP2 CALLDATALOAD SWAP1 POP PUSH2 0x22D4 DUP2 PUSH2 0x22B0 JUMP JUMPDEST SWAP3 SWAP2 POP POP JUMP JUMPDEST PUSH0 DUP1 PUSH1 0x40 DUP4 DUP6 SUB SLT ISZERO PUSH2 0x22F0 JUMPI PUSH2 0x22EF PUSH2 0x2252 JUMP JUMPDEST JUMPDEST PUSH0 PUSH2 0x22FD DUP6 DUP3 DUP7 ADD PUSH2 0x229C JUMP JUMPDEST SWAP3 POP POP PUSH1 0x20 PUSH2 0x230E DUP6 DUP3 DUP7 ADD PUSH2 0x22C6 JUMP JUMPDEST SWAP2 POP POP SWAP3 POP SWAP3 SWAP1 POP JUMP JUMPDEST PUSH0 DUP2 ISZERO ISZERO SWAP1 POP SWAP2 SWAP1 POP JUMP JUMPDEST PUSH2 0x232C DUP2 PUSH2 0x2318 JUMP JUMPDEST DUP3 MSTORE POP POP JUMP JUMPDEST PUSH0 PUSH1 0x20 DUP3 ADD SWAP1 POP PUSH2 0x2345 PUSH0 DUP4 ADD DUP5 PUSH2 0x2323 JUMP JUMPDEST SWAP3 SWAP2 POP POP JUMP JUMPDEST PUSH0 PUSH1 0x20 DUP3 DUP5 SUB SLT ISZERO PUSH2 0x2360 JUMPI PUSH2 0x235F PUSH2 0x2252 JUMP JUMPDEST JUMPDEST PUSH0 PUSH2 0x236D DUP5 DUP3 DUP6 ADD PUSH2 0x229C JUMP JUMPDEST SWAP2 POP POP SWAP3 SWAP2 POP POP JUMP JUMPDEST PUSH0 DUP1 PUSH0 PUSH1 0x60 DUP5 DUP7 SUB SLT ISZERO PUSH2 0x238D JUMPI PUSH2 0x238C PUSH2 0x2252 JUMP JUMPDEST JUMPDEST PUSH0 PUSH2 0x239A DUP7 DUP3 DUP8 ADD PUSH2 0x229C JUMP JUMPDEST SWAP4 POP POP PUSH1 0x20 PUSH2 0x23AB DUP7 DUP3 DUP8 ADD PUSH2 0x229C JUMP JUMPDEST SWAP3 POP POP PUSH1 0x40 PUSH2 0x23BC DUP7 DUP3 DUP8 ADD PUSH2 0x22C6 JUMP JUMPDEST SWAP2 POP POP SWAP3 POP SWAP3 POP SWAP3 JUMP JUMPDEST PUSH0 DUP1 PUSH1 0x40 DUP4 DUP6 SUB SLT ISZERO PUSH2 0x23DC JUMPI PUSH2 0x23DB PUSH2 0x2252 JUMP JUMPDEST JUMPDEST PUSH0 PUSH2 0x23E9 DUP6 DUP3 DUP7 ADD PUSH2 0x22C6 JUMP JUMPDEST SWAP3 POP POP PUSH1 0x20 PUSH2 0x23FA DUP6 DUP3 DUP7 ADD PUSH2 0x22C6 JUMP JUMPDEST SWAP2 POP POP SWAP3 POP SWAP3 SWAP1 POP JUMP JUMPDEST PUSH0 PUSH1 0xFF DUP3 AND SWAP1 POP SWAP2 SWAP1 POP JUMP JUMPDEST PUSH2 0x2419 DUP2 PUSH2 0x2404 JUMP JUMPDEST DUP3 MSTORE POP POP JUMP JUMPDEST PUSH0 PUSH1 0x20 DUP3 ADD SWAP1 POP PUSH2 0x2432 PUSH0 DUP4 ADD DUP5 PUSH2 0x2410 JUMP JUMPDEST SWAP3 SWAP2 POP POP JUMP JUMPDEST PUSH0 PUSH1 0x20 DUP3 DUP5 SUB SLT ISZERO PUSH2 0x244D JUMPI PUSH2 0x244C PUSH2 0x2252 JUMP JUMPDEST JUMPDEST PUSH0 PUSH2 0x245A DUP5 DUP3 DUP6 ADD PUSH2 0x22C6 JUMP JUMPDEST SWAP2 POP POP SWAP3 SWAP2 POP POP JUMP JUMPDEST PUSH2 0x246C DUP2 PUSH2 0x2275 JUMP JUMPDEST DUP3 MSTORE POP POP JUMP JUMPDEST PUSH0 PUSH1 0x20 DUP3 ADD SWAP1 POP PUSH2 0x2485 PUSH0 DUP4 ADD DUP5 PUSH2 0x2463 JUMP JUMPDEST SWAP3 SWAP2 POP POP JUMP JUMPDEST PUSH0 DUP1 PUSH1 0x40 DUP4 DUP6 SUB SLT ISZERO PUSH2 0x24A1 JUMPI PUSH2 0x24A0 PUSH2 0x2252 JUMP JUMPDEST JUMPDEST PUSH0 PUSH2 0x24AE DUP6 DUP3 DUP7 ADD PUSH2 0x229C JUMP JUMPDEST SWAP3 POP POP PUSH1 0x20 PUSH2 0x24BF DUP6 DUP3 DUP7 ADD PUSH2 0x229C JUMP JUMPDEST SWAP2 POP POP SWAP3 POP SWAP3 SWAP1 POP JUMP JUMPDEST PUSH32 0x4E487B7100000000000000000000000000000000000000000000000000000000 PUSH0 MSTORE PUSH1 0x22 PUSH1 0x4 MSTORE PUSH1 0x24 PUSH0 REVERT JUMPDEST PUSH0 PUSH1 0x2 DUP3 DIV SWAP1 POP PUSH1 0x1 DUP3 AND DUP1 PUSH2 0x250D JUMPI PUSH1 0x7F DUP3 AND SWAP2 POP JUMPDEST PUSH1 0x20 DUP3 LT DUP2 SUB PUSH2 0x2520 JUMPI PUSH2 0x251F PUSH2 0x24C9 JUMP JUMPDEST JUMPDEST POP SWAP2 SWAP1 POP JUMP JUMPDEST PUSH32 0x4E487B7100000000000000000000000000000000000000000000000000000000 PUSH0 MSTORE PUSH1 0x11 PUSH1 0x4 MSTORE PUSH1 0x24 PUSH0 REVERT JUMPDEST PUSH0 PUSH2 0x255D DUP3 PUSH2 0x2191 JUMP JUMPDEST SWAP2 POP PUSH2 0x2568 DUP4 PUSH2 0x2191 JUMP JUMPDEST SWAP3 POP DUP3 DUP3 SUB SWAP1 POP DUP2 DUP2 GT ISZERO PUSH2 0x2580 JUMPI PUSH2 0x257F PUSH2 0x2526 JUMP JUMPDEST JUMPDEST SWAP3 SWAP2 POP POP JUMP JUMPDEST PUSH32 0x4E487B7100000000000000000000000000000000000000000000000000000000 PUSH0 MSTORE PUSH1 0x12 PUSH1 0x4 MSTORE PUSH1 0x24 PUSH0 REVERT JUMPDEST PUSH0 PUSH2 0x25BD DUP3 PUSH2 0x2191 JUMP JUMPDEST SWAP2 POP PUSH2 0x25C8 DUP4 PUSH2 0x2191 JUMP JUMPDEST SWAP3 POP DUP3 PUSH2 0x25D8 JUMPI PUSH2 0x25D7 PUSH2 0x2586 JUMP JUMPDEST JUMPDEST DUP3 DUP3 DIV SWAP1 POP SWAP3 SWAP2 POP POP JUMP JUMPDEST PUSH0 PUSH2 0x25ED DUP3 PUSH2 0x2191 JUMP JUMPDEST SWAP2 POP PUSH2 0x25F8 DUP4 PUSH2 0x2191 JUMP JUMPDEST SWAP3 POP DUP3 DUP3 MUL PUSH2 0x2606 DUP2 PUSH2 0x2191 JUMP JUMPDEST SWAP2 POP DUP3 DUP3 DIV DUP5 EQ DUP4 ISZERO OR PUSH2 0x261D JUMPI PUSH2 0x261C PUSH2 0x2526 JUMP JUMPDEST JUMPDEST POP SWAP3 SWAP2 POP POP JUMP JUMPDEST PUSH32 0x456E642074696D65206D7573742062652061667465722073746172742074696D PUSH0 DUP3 ADD MSTORE PUSH32 0x6500000000000000000000000000000000000000000000000000000000000000 PUSH1 0x20 DUP3 ADD MSTORE POP JUMP JUMPDEST PUSH0 PUSH2 0x267E PUSH1 0x21 DUP4 PUSH2 0x21CC JUMP JUMPDEST SWAP2 POP PUSH2 0x2689 DUP3 PUSH2 0x2624 JUMP JUMPDEST PUSH1 0x40 DUP3 ADD SWAP1 POP SWAP2 SWAP1 POP JUMP JUMPDEST PUSH0 PUSH1 0x20 DUP3 ADD SWAP1 POP DUP2 DUP2 SUB PUSH0 DUP4 ADD MSTORE PUSH2 0x26AB DUP2 PUSH2 0x2672 JUMP JUMPDEST SWAP1 POP SWAP2 SWAP1 POP JUMP JUMPDEST PUSH32 0x416D6F756E74206D7573742062652067726561746572207468616E207A65726F PUSH0 DUP3 ADD MSTORE PUSH32 0x2E00000000000000000000000000000000000000000000000000000000000000 PUSH1 0x20 DUP3 ADD MSTORE POP JUMP JUMPDEST PUSH0 PUSH2 0x270C PUSH1 0x21 DUP4 PUSH2 0x21CC JUMP JUMPDEST SWAP2 POP PUSH2 0x2717 DUP3 PUSH2 0x26B2 JUMP JUMPDEST PUSH1 0x40 DUP3 ADD SWAP1 POP SWAP2 SWAP1 POP JUMP JUMPDEST PUSH0 PUSH1 0x20 DUP3 ADD SWAP1 POP DUP2 DUP2 SUB PUSH0 DUP4 ADD MSTORE PUSH2 0x2739 DUP2 PUSH2 0x2700 JUMP JUMPDEST SWAP1 POP SWAP2 SWAP1 POP JUMP JUMPDEST PUSH32 0x496E73756666696369656E742062616C616E63652E0000000000000000000000 PUSH0 DUP3 ADD MSTORE POP JUMP JUMPDEST PUSH0 PUSH2 0x2774 PUSH1 0x15 DUP4 PUSH2 0x21CC JUMP JUMPDEST SWAP2 POP PUSH2 0x277F DUP3 PUSH2 0x2740 JUMP JUMPDEST PUSH1 0x20 DUP3 ADD SWAP1 POP SWAP2 SWAP1 POP JUMP JUMPDEST PUSH0 PUSH1 0x20 DUP3 ADD SWAP1 POP DUP2 DUP2 SUB PUSH0 DUP4 ADD MSTORE PUSH2 0x27A1 DUP2 PUSH2 0x2768 JUMP JUMPDEST SWAP1 POP SWAP2 SWAP1 POP JUMP JUMPDEST PUSH0 PUSH2 0x27B2 DUP3 PUSH2 0x2191 JUMP JUMPDEST SWAP2 POP PUSH2 0x27BD DUP4 PUSH2 0x2191 JUMP JUMPDEST SWAP3 POP DUP3 DUP3 ADD SWAP1 POP DUP1 DUP3 GT ISZERO PUSH2 0x27D5 JUMPI PUSH2 0x27D4 PUSH2 0x2526 JUMP JUMPDEST JUMPDEST SWAP3 SWAP2 POP POP JUMP JUMPDEST PUSH32 0x50726573616C65206E6F74207374617274656420796574000000000000000000 PUSH0 DUP3 ADD MSTORE POP JUMP JUMPDEST PUSH0 PUSH2 0x280F PUSH1 0x17 DUP4 PUSH2 0x21CC JUMP JUMPDEST SWAP2 POP PUSH2 0x281A DUP3 PUSH2 0x27DB JUMP JUMPDEST PUSH1 0x20 DUP3 ADD SWAP1 POP SWAP2 SWAP1 POP JUMP JUMPDEST PUSH0 PUSH1 0x20 DUP3 ADD SWAP1 POP DUP2 DUP2 SUB PUSH0 DUP4 ADD MSTORE PUSH2 0x283C DUP2 PUSH2 0x2803 JUMP JUMPDEST SWAP1 POP SWAP2 SWAP1 POP JUMP JUMPDEST PUSH32 0x4E6F207265776172647320617661696C61626C65000000000000000000000000 PUSH0 DUP3 ADD MSTORE POP JUMP JUMPDEST PUSH0 PUSH2 0x2877 PUSH1 0x14 DUP4 PUSH2 0x21CC JUMP JUMPDEST SWAP2 POP PUSH2 0x2882 DUP3 PUSH2 0x2843 JUMP JUMPDEST PUSH1 0x20 DUP3 ADD SWAP1 POP SWAP2 SWAP1 POP JUMP JUMPDEST PUSH0 PUSH1 0x20 DUP3 ADD SWAP1 POP DUP2 DUP2 SUB PUSH0 DUP4 ADD MSTORE PUSH2 0x28A4 DUP2 PUSH2 0x286B JUMP JUMPDEST SWAP1 POP SWAP2 SWAP1 POP JUMP JUMPDEST PUSH0 DUP2 PUSH1 0x1 SHR SWAP1 POP SWAP2 SWAP1 POP JUMP JUMPDEST PUSH0 DUP1 DUP3 SWAP2 POP DUP4 SWAP1 POP JUMPDEST PUSH1 0x1 DUP6 GT ISZERO PUSH2 0x2900 JUMPI DUP1 DUP7 DIV DUP2 GT ISZERO PUSH2 0x28DC JUMPI PUSH2 0x28DB PUSH2 0x2526 JUMP JUMPDEST JUMPDEST PUSH1 0x1 DUP6 AND ISZERO PUSH2 0x28EB JUMPI DUP1 DUP3 MUL SWAP2 POP JUMPDEST DUP1 DUP2 MUL SWAP1 POP PUSH2 0x28F9 DUP6 PUSH2 0x28AB JUMP JUMPDEST SWAP5 POP PUSH2 0x28C0 JUMP JUMPDEST SWAP5 POP SWAP5 SWAP3 POP POP POP JUMP JUMPDEST PUSH0 DUP3 PUSH2 0x2918 JUMPI PUSH1 0x1 SWAP1 POP PUSH2 0x29D3 JUMP JUMPDEST DUP2 PUSH2 0x2925 JUMPI PUSH0 SWAP1 POP PUSH2 0x29D3 JUMP JUMPDEST DUP2 PUSH1 0x1 DUP2 EQ PUSH2 0x293B JUMPI PUSH1 0x2 DUP2 EQ PUSH2 0x2945 JUMPI PUSH2 0x2974 JUMP JUMPDEST PUSH1 0x1 SWAP2 POP POP PUSH2 0x29D3 JUMP JUMPDEST PUSH1 0xFF DUP5 GT ISZERO PUSH2 0x2957 JUMPI PUSH2 0x2956 PUSH2 0x2526 JUMP JUMPDEST JUMPDEST DUP4 PUSH1 0x2 EXP SWAP2 POP DUP5 DUP3 GT ISZERO PUSH2 0x296E JUMPI PUSH2 0x296D PUSH2 0x2526 JUMP JUMPDEST JUMPDEST POP PUSH2 0x29D3 JUMP JUMPDEST POP PUSH1 0x20 DUP4 LT PUSH2 0x133 DUP4 LT AND PUSH1 0x4E DUP5 LT PUSH1 0xB DUP5 LT AND OR ISZERO PUSH2 0x29A9 JUMPI DUP3 DUP3 EXP SWAP1 POP DUP4 DUP2 GT ISZERO PUSH2 0x29A4 JUMPI PUSH2 0x29A3 PUSH2 0x2526 JUMP JUMPDEST JUMPDEST PUSH2 0x29D3 JUMP JUMPDEST PUSH2 0x29B6 DUP5 DUP5 DUP5 PUSH1 0x1 PUSH2 0x28B7 JUMP JUMPDEST SWAP3 POP SWAP1 POP DUP2 DUP5 DIV DUP2 GT ISZERO PUSH2 0x29CD JUMPI PUSH2 0x29CC PUSH2 0x2526 JUMP JUMPDEST JUMPDEST DUP2 DUP2 MUL SWAP1 POP JUMPDEST SWAP4 SWAP3 POP POP POP JUMP JUMPDEST PUSH0 PUSH2 0x29E4 DUP3 PUSH2 0x2191 JUMP JUMPDEST SWAP2 POP PUSH2 0x29EF DUP4 PUSH2 0x2404 JUMP JUMPDEST SWAP3 POP PUSH2 0x2A1C PUSH32 0xFFFFFFFFFFFFFFFFFFFFFFFFFFFFFFFFFFFFFFFFFFFFFFFFFFFFFFFFFFFFFFFF DUP5 DUP5 PUSH2 0x2909 JUMP JUMPDEST SWAP1 POP SWAP3 SWAP2 POP POP JUMP JUMPDEST PUSH32 0x416C72656164792077686974656C697374656400000000000000000000000000 PUSH0 DUP3 ADD MSTORE POP JUMP JUMPDEST PUSH0 PUSH2 0x2A58 PUSH1 0x13 DUP4 PUSH2 0x21CC JUMP JUMPDEST SWAP2 POP PUSH2 0x2A63 DUP3 PUSH2 0x2A24 JUMP JUMPDEST PUSH1 0x20 DUP3 ADD SWAP1 POP SWAP2 SWAP1 POP JUMP JUMPDEST PUSH0 PUSH1 0x20 DUP3 ADD SWAP1 POP DUP2 DUP2 SUB PUSH0 DUP4 ADD MSTORE PUSH2 0x2A85 DUP2 PUSH2 0x2A4C JUMP JUMPDEST SWAP1 POP SWAP2 SWAP1 POP JUMP JUMPDEST PUSH32 0x43616E6E6F7420726566657220796F757273656C660000000000000000000000 PUSH0 DUP3 ADD MSTORE POP JUMP JUMPDEST PUSH0 PUSH2 0x2AC0 PUSH1 0x15 DUP4 PUSH2 0x21CC JUMP JUMPDEST SWAP2 POP PUSH2 0x2ACB DUP3 PUSH2 0x2A8C JUMP JUMPDEST PUSH1 0x20 DUP3 ADD SWAP1 POP SWAP2 SWAP1 POP JUMP JUMPDEST PUSH0 PUSH1 0x20 DUP3 ADD SWAP1 POP DUP2 DUP2 SUB PUSH0 DUP4 ADD MSTORE PUSH2 0x2AED DUP2 PUSH2 0x2AB4 JUMP JUMPDEST SWAP1 POP SWAP2 SWAP1 POP JUMP JUMPDEST PUSH32 0x4E6F20746F6B656E73207374616B65642E000000000000000000000000000000 PUSH0 DUP3 ADD MSTORE POP JUMP JUMPDEST PUSH0 PUSH2 0x2B28 PUSH1 0x11 DUP4 PUSH2 0x21CC JUMP JUMPDEST SWAP2 POP PUSH2 0x2B33 DUP3 PUSH2 0x2AF4 JUMP JUMPDEST PUSH1 0x20 DUP3 ADD SWAP1 POP SWAP2 SWAP1 POP JUMP JUMPDEST PUSH0 PUSH1 0x20 DUP3 ADD SWAP1 POP DUP2 DUP2 SUB PUSH0 DUP4 ADD MSTORE PUSH2 0x2B55 DUP2 PUSH2 0x2B1C JUMP JUMPDEST SWAP1 POP SWAP2 SWAP1 POP JUMP JUMPDEST PUSH32 0x556E7374616B65206F6E6C792061667465722034207765656B732E0000000000 PUSH0 DUP3 ADD MSTORE POP JUMP JUMPDEST PUSH0 PUSH2 0x2B90 PUSH1 0x1B DUP4 PUSH2 0x21CC JUMP JUMPDEST SWAP2 POP PUSH2 0x2B9B DUP3 PUSH2 0x2B5C JUMP JUMPDEST PUSH1 0x20 DUP3 ADD SWAP1 POP SWAP2 SWAP1 POP JUMP JUMPDEST PUSH0 PUSH1 0x20 DUP3 ADD SWAP1 POP DUP2 DUP2 SUB PUSH0 DUP4 ADD MSTORE PUSH2 0x2BBD DUP2 PUSH2 0x2B84 JUMP JUMPDEST SWAP1 POP SWAP2 SWAP1 POP JUMP JUMPDEST PUSH0 PUSH1 0x40 DUP3 ADD SWAP1 POP PUSH2 0x2BD7 PUSH0 DUP4 ADD DUP6 PUSH2 0x219A JUMP JUMPDEST PUSH2 0x2BE4 PUSH1 0x20 DUP4 ADD DUP5 PUSH2 0x219A JUMP JUMPDEST SWAP4 SWAP3 POP POP POP JUMP JUMPDEST PUSH32 0x53616C65206E6F74206163746976652E00000000000000000000000000000000 PUSH0 DUP3 ADD MSTORE POP JUMP JUMPDEST PUSH0 PUSH2 0x2C1F PUSH1 0x10 DUP4 PUSH2 0x21CC JUMP JUMPDEST SWAP2 POP PUSH2 0x2C2A DUP3 PUSH2 0x2BEB JUMP JUMPDEST PUSH1 0x20 DUP3 ADD SWAP1 POP SWAP2 SWAP1 POP JUMP JUMPDEST PUSH0 PUSH1 0x20 DUP3 ADD SWAP1 POP DUP2 DUP2 SUB PUSH0 DUP4 ADD MSTORE PUSH2 0x2C4C DUP2 PUSH2 0x2C13 JUMP JUMPDEST SWAP1 POP SWAP2 SWAP1 POP JUMP JUMPDEST PUSH32 0x4D7573742073656E642045544820746F2062757920746F6B656E732E00000000 PUSH0 DUP3 ADD MSTORE POP JUMP JUMPDEST PUSH0 PUSH2 0x2C87 PUSH1 0x1C DUP4 PUSH2 0x21CC JUMP JUMPDEST SWAP2 POP PUSH2 0x2C92 DUP3 PUSH2 0x2C53 JUMP JUMPDEST PUSH1 0x20 DUP3 ADD SWAP1 POP SWAP2 SWAP1 POP JUMP JUMPDEST PUSH0 PUSH1 0x20 DUP3 ADD SWAP1 POP DUP2 DUP2 SUB PUSH0 DUP4 ADD MSTORE PUSH2 0x2CB4 DUP2 PUSH2 0x2C7B JUMP JUMPDEST SWAP1 POP SWAP2 SWAP1 POP JUMP JUMPDEST PUSH0 PUSH2 0x2CC5 DUP3 PUSH2 0x2191 JUMP JUMPDEST SWAP2 POP PUSH2 0x2CD0 DUP4 PUSH2 0x2191 JUMP JUMPDEST SWAP3 POP PUSH2 0x2CFD PUSH32 0xFFFFFFFFFFFFFFFFFFFFFFFFFFFFFFFFFFFFFFFFFFFFFFFFFFFFFFFFFFFFFFFF DUP5 DUP5 PUSH2 0x2909 JUMP JUMPDEST SWAP1 POP SWAP3 SWAP2 POP POP JUMP JUMPDEST PUSH32 0x4E6F7420656E6F75676820746F6B656E7320617661696C61626C652E00000000 PUSH0 DUP3 ADD MSTORE POP JUMP JUMPDEST PUSH0 PUSH2 0x2D39 PUSH1 0x1C DUP4 PUSH2 0x21CC JUMP JUMPDEST SWAP2 POP PUSH2 0x2D44 DUP3 PUSH2 0x2D05 JUMP JUMPDEST PUSH1 0x20 DUP3 ADD SWAP1 POP SWAP2 SWAP1 POP JUMP JUMPDEST PUSH0 PUSH1 0x20 DUP3 ADD SWAP1 POP DUP2 DUP2 SUB PUSH0 DUP4 ADD MSTORE PUSH2 0x2D66 DUP2 PUSH2 0x2D2D JUMP JUMPDEST SWAP1 POP SWAP2 SWAP1 POP JUMP JUMPDEST PUSH32 0x5072652D73616C65206E6F742073746172746564207965740000000000000000 PUSH0 DUP3 ADD MSTORE POP JUMP JUMPDEST PUSH0 PUSH2 0x2DA1 PUSH1 0x18 DUP4 PUSH2 0x21CC JUMP JUMPDEST SWAP2 POP PUSH2 0x2DAC DUP3 PUSH2 0x2D6D JUMP JUMPDEST PUSH1 0x20 DUP3 ADD SWAP1 POP SWAP2 SWAP1 POP JUMP JUMPDEST PUSH0 PUSH1 0x20 DUP3 ADD SWAP1 POP DUP2 DUP2 SUB PUSH0 DUP4 ADD MSTORE PUSH2 0x2DCE DUP2 PUSH2 0x2D95 JUMP JUMPDEST SWAP1 POP SWAP2 SWAP1 POP JUMP JUMPDEST PUSH0 PUSH1 0x60 DUP3 ADD SWAP1 POP PUSH2 0x2DE8 PUSH0 DUP4 ADD DUP7 PUSH2 0x2463 JUMP JUMPDEST PUSH2 0x2DF5 PUSH1 0x20 DUP4 ADD DUP6 PUSH2 0x219A JUMP JUMPDEST PUSH2 0x2E02 PUSH1 0x40 DUP4 ADD DUP5 PUSH2 0x219A JUMP JUMPDEST SWAP5 SWAP4 POP POP POP POP JUMP INVALID LOG2 PUSH5 0x6970667358 0x22 SLT KECCAK256 JUMPDEST DUP3 PUSH2 0xFBF9 SMOD PUSH13 0x95717DB49B9F217F790DA47993 SWAP9 0xC4 0x4E EXTCODEHASH PUSH0 0xF6 PUSH6 0xF300DEB38064 PUSH20 0x6F6C634300081A00330000000000000000000000 "
				},
				"gasEstimates": {
					"creation": {
						"codeDepositCost": "2368000",
						"executionCost": "infinite",
						"totalCost": "infinite"
					},
					"external": {
						"allowance(address,address)": "infinite",
						"approve(address,uint256)": "infinite",
						"balanceOf(address)": "2918",
						"balances(address)": "2936",
						"buyTokens()": "infinite",
						"calculatePrice()": "infinite",
						"calculatePriceIncrease()": "infinite",
						"calculateReferralReward(address)": "infinite",
						"calculateStakingReward(address)": "infinite",
						"calculateWeeksElapsed(uint256,uint256)": "infinite",
						"decimals()": "428",
						"getWalletBalance()": "2631",
						"initialPrice()": "2515",
						"mintReferralReward()": "infinite",
						"name()": "infinite",
						"owner()": "2627",
						"preSaleEndTime()": "2492",
						"preSaleStartTime()": "2494",
						"preSaleWeeksInWeeks()": "2513",
						"presaleIsActive()": "2585",
						"referralCounts(address)": "2891",
						"referrals(address)": "infinite",
						"regularSalePrice()": "2472",
						"renounceOwnership()": "infinite",
						"signUpForWhitelist(address)": "infinite",
						"stakeTokens(uint256)": "infinite",
						"stakedAmount(address)": "2912",
						"stakingRewardRate()": "2470",
						"stakingTimestamp(address)": "2936",
						"startPreSale(uint256,uint256)": "infinite",
						"symbol()": "infinite",
						"tokensSold()": "2492",
						"totalSupply()": "2500",
						"transfer(address,uint256)": "infinite",
						"transferFrom(address,address,uint256)": "infinite",
						"transferOwnership(address)": "infinite",
						"unstakeTokens()": "infinite",
						"weeklyIncreaseRate()": "2558",
						"whitelist(address)": "2900"
					}
				},
				"methodIdentifiers": {
					"allowance(address,address)": "dd62ed3e",
					"approve(address,uint256)": "095ea7b3",
					"balanceOf(address)": "70a08231",
					"balances(address)": "27e235e3",
					"buyTokens()": "d0febe4c",
					"calculatePrice()": "d348b409",
					"calculatePriceIncrease()": "4405df4a",
					"calculateReferralReward(address)": "8265324d",
					"calculateStakingReward(address)": "0d505541",
					"calculateWeeksElapsed(uint256,uint256)": "2c663960",
					"decimals()": "313ce567",
					"getWalletBalance()": "329a27e7",
					"initialPrice()": "1d0806ae",
					"mintReferralReward()": "7c613b2f",
					"name()": "06fdde03",
					"owner()": "8da5cb5b",
					"preSaleEndTime()": "cce29ea7",
					"preSaleStartTime()": "06d65af3",
					"preSaleWeeksInWeeks()": "f8102e68",
					"presaleIsActive()": "30f72cd4",
					"referralCounts(address)": "cec297a0",
					"referrals(address)": "9ca423b3",
					"regularSalePrice()": "03e293a3",
					"renounceOwnership()": "715018a6",
					"signUpForWhitelist(address)": "a09c4cf4",
					"stakeTokens(uint256)": "7547c7a3",
					"stakedAmount(address)": "f9931855",
					"stakingRewardRate()": "4f3fc2df",
					"stakingTimestamp(address)": "8f0794fe",
					"startPreSale(uint256,uint256)": "f9a81af7",
					"symbol()": "95d89b41",
					"tokensSold()": "518ab2a8",
					"totalSupply()": "18160ddd",
					"transfer(address,uint256)": "a9059cbb",
					"transferFrom(address,address,uint256)": "23b872dd",
					"transferOwnership(address)": "f2fde38b",
					"unstakeTokens()": "a5ce413b",
					"weeklyIncreaseRate()": "7165d19b",
					"whitelist(address)": "9b19251a"
				}
			},
			"storageLayout": {
				"storage": [
					{
						"astId": 307,
						"contract": "contracts/SimpleToken.sol:TokenPreSale",
						"label": "_balances",
						"offset": 0,
						"slot": "0",
						"type": "t_mapping(t_address,t_uint256)"
					},
					{
						"astId": 313,
						"contract": "contracts/SimpleToken.sol:TokenPreSale",
						"label": "_allowances",
						"offset": 0,
						"slot": "1",
						"type": "t_mapping(t_address,t_mapping(t_address,t_uint256))"
					},
					{
						"astId": 315,
						"contract": "contracts/SimpleToken.sol:TokenPreSale",
						"label": "_totalSupply",
						"offset": 0,
						"slot": "2",
						"type": "t_uint256"
					},
					{
						"astId": 317,
						"contract": "contracts/SimpleToken.sol:TokenPreSale",
						"label": "_name",
						"offset": 0,
						"slot": "3",
						"type": "t_string_storage"
					},
					{
						"astId": 319,
						"contract": "contracts/SimpleToken.sol:TokenPreSale",
						"label": "_symbol",
						"offset": 0,
						"slot": "4",
						"type": "t_string_storage"
					},
					{
						"astId": 8,
						"contract": "contracts/SimpleToken.sol:TokenPreSale",
						"label": "_owner",
						"offset": 0,
						"slot": "5",
						"type": "t_address"
					},
					{
						"astId": 943,
						"contract": "contracts/SimpleToken.sol:TokenPreSale",
						"label": "presaleIsActive",
						"offset": 20,
						"slot": "5",
						"type": "t_bool"
					},
					{
						"astId": 945,
						"contract": "contracts/SimpleToken.sol:TokenPreSale",
						"label": "preSaleStartTime",
						"offset": 0,
						"slot": "6",
						"type": "t_uint256"
					},
					{
						"astId": 947,
						"contract": "contracts/SimpleToken.sol:TokenPreSale",
						"label": "preSaleEndTime",
						"offset": 0,
						"slot": "7",
						"type": "t_uint256"
					},
					{
						"astId": 949,
						"contract": "contracts/SimpleToken.sol:TokenPreSale",
						"label": "initialPrice",
						"offset": 0,
						"slot": "8",
						"type": "t_uint256"
					},
					{
						"astId": 951,
						"contract": "contracts/SimpleToken.sol:TokenPreSale",
						"label": "regularSalePrice",
						"offset": 0,
						"slot": "9",
						"type": "t_uint256"
					},
					{
						"astId": 953,
						"contract": "contracts/SimpleToken.sol:TokenPreSale",
						"label": "weeklyIncreaseRate",
						"offset": 0,
						"slot": "10",
						"type": "t_uint256"
					},
					{
						"astId": 955,
						"contract": "contracts/SimpleToken.sol:TokenPreSale",
						"label": "tokensSold",
						"offset": 0,
						"slot": "11",
						"type": "t_uint256"
					},
					{
						"astId": 957,
						"contract": "contracts/SimpleToken.sol:TokenPreSale",
						"label": "preSaleWeeksInWeeks",
						"offset": 0,
						"slot": "12",
						"type": "t_uint256"
					},
					{
						"astId": 959,
						"contract": "contracts/SimpleToken.sol:TokenPreSale",
						"label": "stakingRewardRate",
						"offset": 0,
						"slot": "13",
						"type": "t_uint256"
					},
					{
						"astId": 963,
						"contract": "contracts/SimpleToken.sol:TokenPreSale",
						"label": "stakedAmount",
						"offset": 0,
						"slot": "14",
						"type": "t_mapping(t_address,t_uint256)"
					},
					{
						"astId": 967,
						"contract": "contracts/SimpleToken.sol:TokenPreSale",
						"label": "stakingTimestamp",
						"offset": 0,
						"slot": "15",
						"type": "t_mapping(t_address,t_uint256)"
					},
					{
						"astId": 971,
						"contract": "contracts/SimpleToken.sol:TokenPreSale",
						"label": "whitelist",
						"offset": 0,
						"slot": "16",
						"type": "t_mapping(t_address,t_bool)"
					},
					{
						"astId": 975,
						"contract": "contracts/SimpleToken.sol:TokenPreSale",
						"label": "referrals",
						"offset": 0,
						"slot": "17",
						"type": "t_mapping(t_address,t_address)"
					},
					{
						"astId": 979,
						"contract": "contracts/SimpleToken.sol:TokenPreSale",
						"label": "referralCounts",
						"offset": 0,
						"slot": "18",
						"type": "t_mapping(t_address,t_uint256)"
					},
					{
						"astId": 983,
						"contract": "contracts/SimpleToken.sol:TokenPreSale",
						"label": "balances",
						"offset": 0,
						"slot": "19",
						"type": "t_mapping(t_address,t_uint256)"
					}
				],
				"types": {
					"t_address": {
						"encoding": "inplace",
						"label": "address",
						"numberOfBytes": "20"
					},
					"t_bool": {
						"encoding": "inplace",
						"label": "bool",
						"numberOfBytes": "1"
					},
					"t_mapping(t_address,t_address)": {
						"encoding": "mapping",
						"key": "t_address",
						"label": "mapping(address => address)",
						"numberOfBytes": "32",
						"value": "t_address"
					},
					"t_mapping(t_address,t_bool)": {
						"encoding": "mapping",
						"key": "t_address",
						"label": "mapping(address => bool)",
						"numberOfBytes": "32",
						"value": "t_bool"
					},
					"t_mapping(t_address,t_mapping(t_address,t_uint256))": {
						"encoding": "mapping",
						"key": "t_address",
						"label": "mapping(address => mapping(address => uint256))",
						"numberOfBytes": "32",
						"value": "t_mapping(t_address,t_uint256)"
					},
					"t_mapping(t_address,t_uint256)": {
						"encoding": "mapping",
						"key": "t_address",
						"label": "mapping(address => uint256)",
						"numberOfBytes": "32",
						"value": "t_uint256"
					},
					"t_string_storage": {
						"encoding": "bytes",
						"label": "string",
						"numberOfBytes": "32"
					},
					"t_uint256": {
						"encoding": "inplace",
						"label": "uint256",
						"numberOfBytes": "32"
					}
				}
			},
			"userdoc": {
				"kind": "user",
				"methods": {
					"buyTokens()": {
						"notice": "Buy tokens during the presale or regular sale."
					},
					"startPreSale(uint256,uint256)": {
						"notice": "Start the pre-sale"
					}
				},
				"version": 1
			}
		}
	}
}